Component: ARM Compiler 5.06 update 6 (build 750) Tool: armlink [4d35ed]

==============================================================================

Section Cross References

    startup_stm32f407xx.o(RESET) refers to startup_stm32f407xx.o(STACK) for __initial_sp
    startup_stm32f407xx.o(RESET) refers to startup_stm32f407xx.o(.text) for Reset_Handler
    startup_stm32f407xx.o(RESET) refers to stm32f4xx_it.o(i.NMI_Handler) for NMI_Handler
    startup_stm32f407xx.o(RESET) refers to stm32f4xx_it.o(i.HardFault_Handler) for HardFault_Handler
    startup_stm32f407xx.o(RESET) refers to stm32f4xx_it.o(i.MemManage_Handler) for MemManage_Handler
    startup_stm32f407xx.o(RESET) refers to stm32f4xx_it.o(i.BusFault_Handler) for BusFault_Handler
    startup_stm32f407xx.o(RESET) refers to stm32f4xx_it.o(i.UsageFault_Handler) for UsageFault_Handler
    startup_stm32f407xx.o(RESET) refers to stm32f4xx_it.o(i.SVC_Handler) for SVC_Handler
    startup_stm32f407xx.o(RESET) refers to stm32f4xx_it.o(i.DebugMon_Handler) for DebugMon_Handler
    startup_stm32f407xx.o(RESET) refers to stm32f4xx_it.o(i.PendSV_Handler) for PendSV_Handler
    startup_stm32f407xx.o(RESET) refers to stm32f4xx_it.o(i.SysTick_Handler) for SysTick_Handler
    startup_stm32f407xx.o(RESET) refers to stm32f4xx_it.o(i.EXTI0_IRQHandler) for EXTI0_IRQHandler
    startup_stm32f407xx.o(RESET) refers to stm32f4xx_it.o(i.EXTI1_IRQHandler) for EXTI1_IRQHandler
    startup_stm32f407xx.o(RESET) refers to stm32f4xx_it.o(i.EXTI2_IRQHandler) for EXTI2_IRQHandler
    startup_stm32f407xx.o(RESET) refers to stm32f4xx_it.o(i.TIM2_IRQHandler) for TIM2_IRQHandler
    startup_stm32f407xx.o(RESET) refers to stm32f4xx_it.o(i.TIM3_IRQHandler) for TIM3_IRQHandler
    startup_stm32f407xx.o(RESET) refers to stm32f4xx_it.o(i.TIM4_IRQHandler) for TIM4_IRQHandler
    startup_stm32f407xx.o(RESET) refers to stm32f4xx_it.o(i.USART1_IRQHandler) for USART1_IRQHandler
==============================================================================

Removing Unused input sections from the image.

    Removing startup_stm32f407xx.o(HEAP), (512 bytes).
    Removing main.o(.rev16_text), (4 bytes).
    Removing main.o(.revsh_text), (4 bytes).
    Removing main.o(.rrx_text), (6 bytes).
    Removing main.o(.bss), (12 bytes).
    Removing stm32f4xx_hal_msp.o(.rev16_text), (4 bytes).
    Removing stm32f4xx_hal_msp.o(.revsh_text), (4 bytes).
    Removing stm32f4xx_hal_msp.o(.rrx_text), (6 bytes).
    Removing stm32f4xx_assert.o(.rev16_text), (4 bytes).
    Removing stm32f4xx_assert.o(.revsh_text), (4 bytes).
    Removing stm32f4xx_assert.o(.rrx_text), (6 bytes).
    Removing stm32f4xx_hal_flash_ramfunc.o(.rev16_text), (4 bytes).
    Removing stm32f4xx_hal_flash_ramfunc.o(.revsh_text), (4 bytes).
    Removing stm32f4xx_hal_flash_ramfunc.o(.rrx_text), (6 bytes).
    Removing stm32f4xx_hal_dma_ex.o(.rev16_text), (4 bytes).
    Removing stm32f4xx_hal_dma_ex.o(.revsh_text), (4 bytes).
    Removing stm32f4xx_hal_dma_ex.o(.rrx_text), (6 bytes).
    Removing stm32f4xx_hal_dma_ex.o(i.DMA_MultiBufferSetConfig), (32 bytes).
==============================================================================

Image Symbol Table

    Local Symbols

    Symbol Name                              Value     Ov Type        Size  Object(Section)

    ../Drivers/STM32F4xx_HAL_Driver/Src/stm32f4xx_hal.c 0x00000000   Number         0  stm32f4xx_hal.o ABSOLUTE
    ../Drivers/STM32F4xx_HAL_Driver/Src/stm32f4xx_hal_cortex.c 0x00000000   Number         0  stm32f4xx_hal_cortex.o ABSOLUTE
    ../Drivers/STM32F4xx_HAL_Driver/Src/stm32f4xx_hal_dma.c 0x00000000   Number         0  stm32f4xx_hal_dma.o ABSOLUTE
    ../Drivers/STM32F4xx_HAL_Driver/Src/stm32f4xx_hal_dma_ex.c 0x00000000   Number         0  stm32f4xx_hal_dma_ex.o ABSOLUTE
    ../Drivers/STM32F4xx_HAL_Driver/Src/stm32f4xx_hal_flash.c 0x00000000   Number         0  stm32f4xx_hal_flash.o ABSOLUTE
    ../Drivers/STM32F4xx_HAL_Driver/Src/stm32f4xx_hal_flash_ex.c 0x00000000   Number         0  stm32f4xx_hal_flash_ex.o ABSOLUTE
    ../Drivers/STM32F4xx_HAL_Driver/Src/stm32f4xx_hal_flash_ramfunc.c 0x00000000   Number         0  stm32f4xx_hal_flash_ramfunc.o ABSOLUTE
    ../Drivers/STM32F4xx_HAL_Driver/Src/stm32f4xx_hal_gpio.c 0x00000000   Number         0  stm32f4xx_hal_gpio.o ABSOLUTE
    ../Drivers/STM32F4xx_HAL_Driver/Src/stm32f4xx_hal_pwr.c 0x00000000   Number         0  stm32f4xx_hal_pwr.o ABSOLUTE
    ../Drivers/STM32F4xx_HAL_Driver/Src/stm32f4xx_hal_pwr_ex.c 0x00000000   Number         0  stm32f4xx_hal_pwr_ex.o ABSOLUTE
    ../Drivers/STM32F4xx_HAL_Driver/Src/stm32f4xx_hal_rcc.c 0x00000000   Number         0  stm32f4xx_hal_rcc.o ABSOLUTE
    ../Drivers/STM32F4xx_HAL_Driver/Src/stm32f4xx_hal_rcc_ex.c 0x00000000   Number         0  stm32f4xx_hal_rcc_ex.o ABSOLUTE
    ../Src/main.c                            0x00000000   Number         0  main.o ABSOLUTE
    ../Src/stm32f4xx_hal_msp.c               0x00000000   Number         0  stm32f4xx_hal_msp.o ABSOLUTE
    ../Src/stm32f4xx_it.c                    0x00000000   Number         0  stm32f4xx_it.o ABSOLUTE
    ../Src/system_stm32f4xx.c                0x00000000   Number         0  system_stm32f4xx.o ABSOLUTE
    ../clib/microlib/division.c              0x00000000   Number         0  uldiv.o ABSOLUTE
    ../clib/microlib/division.c              0x00000000   Number         0  ldiv.o ABSOLUTE
    ../clib/microlib/init/entry.s            0x00000000   Number         0  entry10b.o ABSOLUTE
    ../clib/microlib/init/entry.s            0x00000000   Number         0  entry11b.o ABSOLUTE
    ../clib/microlib/init/entry.s            0x00000000   Number         0  entry7b.o ABSOLUTE
    ../clib/microlib/init/entry.s            0x00000000   Number         0  entry11a.o ABSOLUTE
    ../clib/microlib/init/entry.s            0x00000000   Number         0  entry10a.o ABSOLUTE
    ../clib/microlib/init/entry.s            0x00000000   Number         0  entry9b.o ABSOLUTE
    ../clib/microlib/init/entry.s            0x00000000   Number         0  entry9a.o ABSOLUTE
    ../clib/microlib/init/entry.s            0x00000000   Number         0  entry8b.o ABSOLUTE
    ../clib/microlib/init/entry.s            0x00000000   Number         0  entry7a.o ABSOLUTE
    ../clib/microlib/init/entry.s            0x00000000   Number         0  entry5.o ABSOLUTE
    ../clib/microlib/init/entry.s            0x00000000   Number         0  entry2.o ABSOLUTE
    ../clib/microlib/init/entry.s            0x00000000   Number         0  entry8a.o ABSOLUTE
    ../clib/microlib/init/entry.s            0x00000000   Number         0  entry.o ABSOLUTE
    ../clib/microlib/longlong.c              0x00000000   Number         0  llshl.o ABSOLUTE
    ../clib/microlib/longlong.c              0x00000000   Number         0  llushr.o ABSOLUTE
    ../clib/microlib/string/memcpy.c         0x00000000   Number         0  memcpyb.o ABSOLUTE
    ../clib/microlib/string/memcpy.c         0x00000000   Number         0  memcpya.o ABSOLUTE
    ../clib/microlib/stubs.s                 0x00000000   Number         0  iusefp.o ABSOLUTE
    ../fplib/microlib/f2d.c                  0x00000000   Number         0  f2d.o ABSOLUTE
    ../fplib/microlib/fpepilogue.c           0x00000000   Number         0  fepilogue.o ABSOLUTE
    ../fplib/microlib/fpepilogue.c           0x00000000   Number         0  depilogue.o ABSOLUTE
    ../fplib/microlib/fpfix.c                0x00000000   Number         0  ffixl.o ABSOLUTE
    ../fplib/microlib/fpflt.c                0x00000000   Number         0  dfltui.o ABSOLUTE
    ../fplib/microlib/fpflt.c                0x00000000   Number         0  ffltl.o ABSOLUTE
    ../mathlib/fabs.c                        0x00000000   Number         0  fabs.o ABSOLUTE
    ..\Drivers\STM32F4xx_HAL_Driver\Src\stm32f4xx_hal.c 0x00000000   Number         0  stm32f4xx_hal.o ABSOLUTE
    ..\Drivers\STM32F4xx_HAL_Driver\Src\stm32f4xx_hal_adc.c 0x00000000   Number         0  stm32f4xx_hal_adc.o ABSOLUTE
    ..\Drivers\STM32F4xx_HAL_Driver\Src\stm32f4xx_hal_adc_ex.c 0x00000000   Number         0  stm32f4xx_hal_adc_ex.o ABSOLUTE
    ..\Drivers\STM32F4xx_HAL_Driver\Src\stm32f4xx_hal_can.c 0x00000000   Number         0  stm32f4xx_hal_can.o ABSOLUTE
    ..\Drivers\STM32F4xx_HAL_Driver\Src\stm32f4xx_hal_cec.c 0x00000000   Number         0  stm32f4xx_hal_cec.o ABSOLUTE
    ..\Drivers\STM32F4xx_HAL_Driver\Src\stm32f4xx_hal_cortex.c 0x00000000   Number         0  stm32f4xx_hal_cortex.o ABSOLUTE
    ..\Drivers\STM32F4xx_HAL_Driver\Src\stm32f4xx_hal_crc.c 0x00000000   Number         0  stm32f4xx_hal_crc.o ABSOLUTE
    ..\Drivers\STM32F4xx_HAL_Driver\Src\stm32f4xx_hal_cryp.c 0x00000000   Number         0  stm32f4xx_hal_cryp.o ABSOLUTE
    ..\Drivers\STM32F4xx_HAL_Driver\Src\stm32f4xx_hal_cryp_ex.c 0x00000000   Number         0  stm32f4xx_hal_cryp_ex.o ABSOLUTE
    ..\Drivers\STM32F4xx_HAL_Driver\Src\stm32f4xx_hal_dac.c 0x00000000   Number         0  stm32f4xx_hal_dac.o ABSOLUTE
    ..\Drivers\STM32F4xx_HAL_Driver\Src\stm32f4xx_hal_dac_ex.c 0x00000000   Number         0  stm32f4xx_hal_dac_ex.o ABSOLUTE
    ..\Drivers\STM32F4xx_HAL_Driver\Src\stm32f4xx_hal_dcmi.c 0x00000000   Number         0  stm32f4xx_hal_dcmi.o ABSOLUTE
    ..\Drivers\STM32F4xx_HAL_Driver\Src\stm32f4xx_hal_dcmi_ex.c 0x00000000   Number         0  stm32f4xx_hal_dcmi_ex.o ABSOLUTE
    ..\Drivers\STM32F4xx_HAL_Driver\Src\stm32f4xx_hal_dfsdm.c 0x00000000   Number         0  stm32f4xx_hal_dfsdm.o ABSOLUTE
    ..\Drivers\STM32F4xx_HAL_Driver\Src\stm32f4xx_hal_dma.c 0x00000000   Number         0  stm32f4xx_hal_dma.o ABSOLUTE
    ..\Drivers\STM32F4xx_HAL_Driver\Src\stm32f4xx_hal_dma2d.c 0x00000000   Number         0  stm32f4xx_hal_dma2d.o ABSOLUTE
    ..\Drivers\STM32F4xx_HAL_Driver\Src\stm32f4xx_hal_dma_ex.c 0x00000000   Number         0  stm32f4xx_hal_dma_ex.o ABSOLUTE
    ..\Drivers\STM32F4xx_HAL_Driver\Src\stm32f4xx_hal_dsi.c 0x00000000   Number         0  stm32f4xx_hal_dsi.o ABSOLUTE
    ..\Drivers\STM32F4xx_HAL_Driver\Src\stm32f4xx_hal_eth.c 0x00000000   Number         0  stm32f4xx_hal_eth.o ABSOLUTE
    ..\Drivers\STM32F4xx_HAL_Driver\Src\stm32f4xx_hal_flash.c 0x00000000   Number         0  stm32f4xx_hal_flash.o ABSOLUTE
    ..\Drivers\STM32F4xx_HAL_Driver\Src\stm32f4xx_hal_flash_ex.c 0x00000000   Number         0  stm32f4xx_hal_flash_ex.o ABSOLUTE
    ..\Drivers\STM32F4xx_HAL_Driver\Src\stm32f4xx_hal_flash_ramfunc.c 0x00000000   Number         0  stm32f4xx_hal_flash_ramfunc.o ABSOLUTE
    ..\Drivers\STM32F4xx_HAL_Driver\Src\stm32f4xx_hal_fmpi2c.c 0x00000000   Number         0  stm32f4xx_hal_fmpi2c.o ABSOLUTE
    ..\Drivers\STM32F4xx_HAL_Driver\Src\stm32f4xx_hal_fmpi2c_ex.c 0x00000000   Number         0  stm32f4xx_hal_fmpi2c_ex.o ABSOLUTE
    ..\Drivers\STM32F4xx_HAL_Driver\Src\stm32f4xx_hal_gpio.c 0x00000000   Number         0  stm32f4xx_hal_gpio.o ABSOLUTE
    ..\Drivers\STM32F4xx_HAL_Driver\Src\stm32f4xx_hal_hash.c 0x00000000   Number         0  stm32f4xx_hal_hash.o ABSOLUTE
    ..\Drivers\STM32F4xx_HAL_Driver\Src\stm32f4xx_hal_hash_ex.c 0x00000000   Number         0  stm32f4xx_hal_hash_ex.o ABSOLUTE
    ..\Drivers\STM32F4xx_HAL_Driver\Src\stm32f4xx_hal_hcd.c 0x00000000   Number         0  stm32f4xx_hal_hcd.o ABSOLUTE
    ..\Drivers\STM32F4xx_HAL_Driver\Src\stm32f4xx_hal_i2c.c 0x00000000   Number         0  stm32f4xx_hal_i2c.o ABSOLUTE
    ..\Drivers\STM32F4xx_HAL_Driver\Src\stm32f4xx_hal_i2c_ex.c 0x00000000   Number         0  stm32f4xx_hal_i2c_ex.o ABSOLUTE
    ..\Drivers\STM32F4xx_HAL_Driver\Src\stm32f4xx_hal_i2s.c 0x00000000   Number         0  stm32f4xx_hal_i2s.o ABSOLUTE
    ..\Drivers\STM32F4xx_HAL_Driver\Src\stm32f4xx_hal_i2s_ex.c 0x00000000   Number         0  stm32f4xx_hal_i2s_ex.o ABSOLUTE
    ..\Drivers\STM32F4xx_HAL_Driver\Src\stm32f4xx_hal_irda.c 0x00000000   Number         0  stm32f4xx_hal_irda.o ABSOLUTE
    ..\Drivers\STM32F4xx_HAL_Driver\Src\stm32f4xx_hal_iwdg.c 0x00000000   Number         0  stm32f4xx_hal_iwdg.o ABSOLUTE
    ..\Drivers\STM32F4xx_HAL_Driver\Src\stm32f4xx_hal_lptim.c 0x00000000   Number         0  stm32f4xx_hal_lptim.o ABSOLUTE
    ..\Drivers\STM32F4xx_HAL_Driver\Src\stm32f4xx_hal_ltdc.c 0x00000000   Number         0  stm32f4xx_hal_ltdc.o ABSOLUTE
    ..\Drivers\STM32F4xx_HAL_Driver\Src\stm32f4xx_hal_ltdc_ex.c 0x00000000   Number         0  stm32f4xx_hal_ltdc_ex.o ABSOLUTE
    ..\Drivers\STM32F4xx_HAL_Driver\Src\stm32f4xx_hal_mmc.c 0x00000000   Number         0  stm32f4xx_hal_mmc.o ABSOLUTE
    ..\Drivers\STM32F4xx_HAL_Driver\Src\stm32f4xx_hal_nand.c 0x00000000   Number         0  stm32f4xx_hal_nand.o ABSOLUTE
    ..\Drivers\STM32F4xx_HAL_Driver\Src\stm32f4xx_hal_nor.c 0x00000000   Number         0  stm32f4xx_hal_nor.o ABSOLUTE
    ..\Drivers\STM32F4xx_HAL_Driver\Src\stm32f4xx_hal_pccard.c 0x00000000   Number         0  stm32f4xx_hal_pccard.o ABSOLUTE
    ..\Drivers\STM32F4xx_HAL_Driver\Src\stm32f4xx_hal_pcd.c 0x00000000   Number         0  stm32f4xx_hal_pcd.o ABSOLUTE
    ..\Drivers\STM32F4xx_HAL_Driver\Src\stm32f4xx_hal_pcd_ex.c 0x00000000   Number         0  stm32f4xx_hal_pcd_ex.o ABSOLUTE
    ..\Drivers\STM32F4xx_HAL_Driver\Src\stm32f4xx_hal_pwr.c 0x00000000   Number         0  stm32f4xx_hal_pwr.o ABSOLUTE
    ..\Drivers\STM32F4xx_HAL_Driver\Src\stm32f4xx_hal_pwr_ex.c 0x00000000   Number         0  stm32f4xx_hal_pwr_ex.o ABSOLUTE
    ..\Drivers\STM32F4xx_HAL_Driver\Src\stm32f4xx_hal_qspi.c 0x00000000   Number         0  stm32f4xx_hal_qspi.o ABSOLUTE
    ..\Drivers\STM32F4xx_HAL_Driver\Src\stm32f4xx_hal_rcc.c 0x00000000   Number         0  stm32f4xx_hal_rcc.o ABSOLUTE
    ..\Drivers\STM32F4xx_HAL_Driver\Src\stm32f4xx_hal_rcc_ex.c 0x00000000   Number         0  stm32f4xx_hal_rcc_ex.o ABSOLUTE
    ..\Drivers\STM32F4xx_HAL_Driver\Src\stm32f4xx_hal_rng.c 0x00000000   Number         0  stm32f4xx_hal_rng.o ABSOLUTE
    ..\Drivers\STM32F4xx_HAL_Driver\Src\stm32f4xx_hal_rtc.c 0x00000000   Number         0  stm32f4xx_hal_rtc.o ABSOLUTE
    ..\Drivers\STM32F4xx_HAL_Driver\Src\stm32f4xx_hal_rtc_ex.c 0x00000000   Number         0  stm32f4xx_hal_rtc_ex.o ABSOLUTE
    ..\Drivers\STM32F4xx_HAL_Driver\Src\stm32f4xx_hal_sai.c 0x00000000   Number         0  stm32f4xx_hal_sai.o ABSOLUTE
    ..\Drivers\STM32F4xx_HAL_Driver\Src\stm32f4xx_hal_sai_ex.c 0x00000000   Number         0  stm32f4xx_hal_sai_ex.o ABSOLUTE
    ..\Drivers\STM32F4xx_HAL_Driver\Src\stm32f4xx_hal_sd.c 0x00000000   Number         0  stm32f4xx_hal_sd.o ABSOLUTE
    ..\Drivers\STM32F4xx_HAL_Driver\Src\stm32f4xx_hal_sdram.c 0x00000000   Number         0  stm32f4xx_hal_sdram.o ABSOLUTE
    ..\Drivers\STM32F4xx_HAL_Driver\Src\stm32f4xx_hal_smartcard.c 0x00000000   Number         0  stm32f4xx_hal_smartcard.o ABSOLUTE
    ..\Drivers\STM32F4xx_HAL_Driver\Src\stm32f4xx_hal_spdifrx.c 0x00000000   Number         0  stm32f4xx_hal_spdifrx.o ABSOLUTE
    ..\Drivers\STM32F4xx_HAL_Driver\Src\stm32f4xx_hal_spi.c 0x00000000   Number         0  stm32f4xx_hal_spi.o ABSOLUTE
    ..\Drivers\STM32F4xx_HAL_Driver\Src\stm32f4xx_hal_sram.c 0x00000000   Number         0  stm32f4xx_hal_sram.o ABSOLUTE
    ..\Drivers\STM32F4xx_HAL_Driver\Src\stm32f4xx_hal_tim.c 0x00000000   Number         0  stm32f4xx_hal_tim.o ABSOLUTE
    ..\Drivers\STM32F4xx_HAL_Driver\Src\stm32f4xx_hal_tim_ex.c 0x00000000   Number         0  stm32f4xx_hal_tim_ex.o ABSOLUTE
    ..\Drivers\STM32F4xx_HAL_Driver\Src\stm32f4xx_hal_uart.c 0x00000000   Number         0  stm32f4xx_hal_uart.o ABSOLUTE
    ..\Drivers\STM32F4xx_HAL_Driver\Src\stm32f4xx_hal_usart.c 0x00000000   Number         0  stm32f4xx_hal_usart.o ABSOLUTE
    ..\Drivers\STM32F4xx_HAL_Driver\Src\stm32f4xx_hal_wwdg.c 0x00000000   Number         0  stm32f4xx_hal_wwdg.o ABSOLUTE
    ..\Drivers\STM32F4xx_HAL_Driver\Src\stm32f4xx_ll_adc.c 0x00000000   Number         0  stm32f4xx_ll_adc.o ABSOLUTE
    ..\Drivers\STM32F4xx_HAL_Driver\Src\stm32f4xx_ll_crc.c 0x00000000   Number         0  stm32f4xx_ll_crc.o ABSOLUTE
    ..\Drivers\STM32F4xx_HAL_Driver\Src\stm32f4xx_ll_dac.c 0x00000000   Number         0  stm32f4xx_ll_dac.o ABSOLUTE
    ..\Drivers\STM32F4xx_HAL_Driver\Src\stm32f4xx_ll_dma.c 0x00000000   Number         0  stm32f4xx_ll_dma.o ABSOLUTE
    ..\Drivers\STM32F4xx_HAL_Driver\Src\stm32f4xx_ll_dma2d.c 0x00000000   Number         0  stm32f4xx_ll_dma2d.o ABSOLUTE
    ..\Drivers\STM32F4xx_HAL_Driver\Src\stm32f4xx_ll_exti.c 0x00000000   Number         0  stm32f4xx_ll_exti.o ABSOLUTE
    ..\Drivers\STM32F4xx_HAL_Driver\Src\stm32f4xx_ll_fmc.c 0x00000000   Number         0  stm32f4xx_ll_fmc.o ABSOLUTE
    ..\Drivers\STM32F4xx_HAL_Driver\Src\stm32f4xx_ll_fsmc.c 0x00000000   Number         0  stm32f4xx_ll_fsmc.o ABSOLUTE
    ..\Drivers\STM32F4xx_HAL_Driver\Src\stm32f4xx_ll_gpio.c 0x00000000   Number         0  stm32f4xx_ll_gpio.o ABSOLUTE
    ..\Drivers\STM32F4xx_HAL_Driver\Src\stm32f4xx_ll_i2c.c 0x00000000   Number         0  stm32f4xx_ll_i2c.o ABSOLUTE
    ..\Drivers\STM32F4xx_HAL_Driver\Src\stm32f4xx_ll_lptim.c 0x00000000   Number         0  stm32f4xx_ll_lptim.o ABSOLUTE
    ..\Drivers\STM32F4xx_HAL_Driver\Src\stm32f4xx_ll_pwr.c 0x00000000   Number         0  stm32f4xx_ll_pwr.o ABSOLUTE
    ..\Drivers\STM32F4xx_HAL_Driver\Src\stm32f4xx_ll_rcc.c 0x00000000   Number         0  stm32f4xx_ll_rcc.o ABSOLUTE
    ..\Drivers\STM32F4xx_HAL_Driver\Src\stm32f4xx_ll_rng.c 0x00000000   Number         0  stm32f4xx_ll_rng.o ABSOLUTE
    ..\Drivers\STM32F4xx_HAL_Driver\Src\stm32f4xx_ll_rtc.c 0x00000000   Number         0  stm32f4xx_ll_rtc.o ABSOLUTE
    ..\Drivers\STM32F4xx_HAL_Driver\Src\stm32f4xx_ll_sdmmc.c 0x00000000   Number         0  stm32f4xx_ll_sdmmc.o ABSOLUTE
    ..\Drivers\STM32F4xx_HAL_Driver\Src\stm32f4xx_ll_spi.c 0x00000000   Number         0  stm32f4xx_ll_spi.o ABSOLUTE
    ..\Drivers\STM32F4xx_HAL_Driver\Src\stm32f4xx_ll_tim.c 0x00000000   Number         0  stm32f4xx_ll_tim.o ABSOLUTE
    ..\Drivers\STM32F4xx_HAL_Driver\Src\stm32f4xx_ll_usart.c 0x00000000   Number         0  stm32f4xx_ll_usart.o ABSOLUTE
    ..\Drivers\STM32F4xx_HAL_Driver\Src\stm32f4xx_ll_usb.c 0x00000000   Number         0  stm32f4xx_ll_usb.o ABSOLUTE
    ..\Drivers\STM32F4xx_HAL_Driver\Src\stm32f4xx_ll_utils.c 0x00000000   Number         0  stm32f4xx_ll_utils.o ABSOLUTE
    ..\Src\bsp\BldcSensor\BldcSensor.c       0x00000000   Number         0  bldcsensor.o ABSOLUTE
    ..\Src\bsp\Motor\bsp_motor.c             0x00000000   Number         0  bsp_motor.o ABSOLUTE
    ..\Src\bsp\RD905\rd905.c                 0x00000000   Number         0  rd905.o ABSOLUTE
    ..\Src\bsp\Rtc\rtc.c                     0x00000000   Number         0  rtc.o ABSOLUTE
    ..\Src\bsp\Us100\us100.c                 0x00000000   Number         0  us100.o ABSOLUTE
    ..\Src\bsp\iwdg\iwdg.c                   0x00000000   Number         0  iwdg.o ABSOLUTE
    ..\Src\bsp\key\bsp_key.c                 0x00000000   Number         0  bsp_key.o ABSOLUTE
    ..\Src\bsp\led\bsp_led.c                 0x00000000   Number         0  bsp_led.o ABSOLUTE
    ..\Src\bsp\timer\timer.c                 0x00000000   Number         0  timer.o ABSOLUTE
    ..\Src\bsp\usartx\bsp_usartx.c           0x00000000   Number         0  bsp_usartx.o ABSOLUTE
    ..\Src\main.c                            0x00000000   Number         0  main.o ABSOLUTE
    ..\Src\stm32f4xx_assert.c                0x00000000   Number         0  stm32f4xx_assert.o ABSOLUTE
    ..\Src\stm32f4xx_hal_msp.c               0x00000000   Number         0  stm32f4xx_hal_msp.o ABSOLUTE
    ..\Src\stm32f4xx_it.c                    0x00000000   Number         0  stm32f4xx_it.o ABSOLUTE
    ..\Src\system_stm32f4xx.c                0x00000000   Number         0  system_stm32f4xx.o ABSOLUTE
    ..\\Drivers\\STM32F4xx_HAL_Driver\\Src\\stm32f4xx_hal_adc.c 0x00000000   Number         0  stm32f4xx_hal_adc.o ABSOLUTE
    ..\\Drivers\\STM32F4xx_HAL_Driver\\Src\\stm32f4xx_hal_adc_ex.c 0x00000000   Number         0  stm32f4xx_hal_adc_ex.o ABSOLUTE
    ..\\Drivers\\STM32F4xx_HAL_Driver\\Src\\stm32f4xx_hal_can.c 0x00000000   Number         0  stm32f4xx_hal_can.o ABSOLUTE
    ..\\Drivers\\STM32F4xx_HAL_Driver\\Src\\stm32f4xx_hal_cec.c 0x00000000   Number         0  stm32f4xx_hal_cec.o ABSOLUTE
    ..\\Drivers\\STM32F4xx_HAL_Driver\\Src\\stm32f4xx_hal_crc.c 0x00000000   Number         0  stm32f4xx_hal_crc.o ABSOLUTE
    ..\\Drivers\\STM32F4xx_HAL_Driver\\Src\\stm32f4xx_hal_cryp.c 0x00000000   Number         0  stm32f4xx_hal_cryp.o ABSOLUTE
    ..\\Drivers\\STM32F4xx_HAL_Driver\\Src\\stm32f4xx_hal_cryp_ex.c 0x00000000   Number         0  stm32f4xx_hal_cryp_ex.o ABSOLUTE
    ..\\Drivers\\STM32F4xx_HAL_Driver\\Src\\stm32f4xx_hal_dac.c 0x00000000   Number         0  stm32f4xx_hal_dac.o ABSOLUTE
    ..\\Drivers\\STM32F4xx_HAL_Driver\\Src\\stm32f4xx_hal_dac_ex.c 0x00000000   Number         0  stm32f4xx_hal_dac_ex.o ABSOLUTE
    ..\\Drivers\\STM32F4xx_HAL_Driver\\Src\\stm32f4xx_hal_dcmi.c 0x00000000   Number         0  stm32f4xx_hal_dcmi.o ABSOLUTE
    ..\\Drivers\\STM32F4xx_HAL_Driver\\Src\\stm32f4xx_hal_dcmi_ex.c 0x00000000   Number         0  stm32f4xx_hal_dcmi_ex.o ABSOLUTE
    ..\\Drivers\\STM32F4xx_HAL_Driver\\Src\\stm32f4xx_hal_dfsdm.c 0x00000000   Number         0  stm32f4xx_hal_dfsdm.o ABSOLUTE
    ..\\Drivers\\STM32F4xx_HAL_Driver\\Src\\stm32f4xx_hal_dma2d.c 0x00000000   Number         0  stm32f4xx_hal_dma2d.o ABSOLUTE
    ..\\Drivers\\STM32F4xx_HAL_Driver\\Src\\stm32f4xx_hal_dsi.c 0x00000000   Number         0  stm32f4xx_hal_dsi.o ABSOLUTE
    ..\\Drivers\\STM32F4xx_HAL_Driver\\Src\\stm32f4xx_hal_eth.c 0x00000000   Number         0  stm32f4xx_hal_eth.o ABSOLUTE
    ..\\Drivers\\STM32F4xx_HAL_Driver\\Src\\stm32f4xx_hal_fmpi2c.c 0x00000000   Number         0  stm32f4xx_hal_fmpi2c.o ABSOLUTE
    ..\\Drivers\\STM32F4xx_HAL_Driver\\Src\\stm32f4xx_hal_fmpi2c_ex.c 0x00000000   Number         0  stm32f4xx_hal_fmpi2c_ex.o ABSOLUTE
    ..\\Drivers\\STM32F4xx_HAL_Driver\\Src\\stm32f4xx_hal_hash.c 0x00000000   Number         0  stm32f4xx_hal_hash.o ABSOLUTE
    ..\\Drivers\\STM32F4xx_HAL_Driver\\Src\\stm32f4xx_hal_hash_ex.c 0x00000000   Number         0  stm32f4xx_hal_hash_ex.o ABSOLUTE
    ..\\Drivers\\STM32F4xx_HAL_Driver\\Src\\stm32f4xx_hal_hcd.c 0x00000000   Number         0  stm32f4xx_hal_hcd.o ABSOLUTE
    ..\\Drivers\\STM32F4xx_HAL_Driver\\Src\\stm32f4xx_hal_i2c.c 0x00000000   Number         0  stm32f4xx_hal_i2c.o ABSOLUTE
    ..\\Drivers\\STM32F4xx_HAL_Driver\\Src\\stm32f4xx_hal_i2c_ex.c 0x00000000   Number         0  stm32f4xx_hal_i2c_ex.o ABSOLUTE
    ..\\Drivers\\STM32F4xx_HAL_Driver\\Src\\stm32f4xx_hal_i2s.c 0x00000000   Number         0  stm32f4xx_hal_i2s.o ABSOLUTE
    ..\\Drivers\\STM32F4xx_HAL_Driver\\Src\\stm32f4xx_hal_i2s_ex.c 0x00000000   Number         0  stm32f4xx_hal_i2s_ex.o ABSOLUTE
    ..\\Drivers\\STM32F4xx_HAL_Driver\\Src\\stm32f4xx_hal_irda.c 0x00000000   Number         0  stm32f4xx_hal_irda.o ABSOLUTE
    ..\\Drivers\\STM32F4xx_HAL_Driver\\Src\\stm32f4xx_hal_iwdg.c 0x00000000   Number         0  stm32f4xx_hal_iwdg.o ABSOLUTE
    ..\\Drivers\\STM32F4xx_HAL_Driver\\Src\\stm32f4xx_hal_lptim.c 0x00000000   Number         0  stm32f4xx_hal_lptim.o ABSOLUTE
    ..\\Drivers\\STM32F4xx_HAL_Driver\\Src\\stm32f4xx_hal_ltdc.c 0x00000000   Number         0  stm32f4xx_hal_ltdc.o ABSOLUTE
    ..\\Drivers\\STM32F4xx_HAL_Driver\\Src\\stm32f4xx_hal_ltdc_ex.c 0x00000000   Number         0  stm32f4xx_hal_ltdc_ex.o ABSOLUTE
    ..\\Drivers\\STM32F4xx_HAL_Driver\\Src\\stm32f4xx_hal_mmc.c 0x00000000   Number         0  stm32f4xx_hal_mmc.o ABSOLUTE
    ..\\Drivers\\STM32F4xx_HAL_Driver\\Src\\stm32f4xx_hal_nand.c 0x00000000   Number         0  stm32f4xx_hal_nand.o ABSOLUTE
    ..\\Drivers\\STM32F4xx_HAL_Driver\\Src\\stm32f4xx_hal_nor.c 0x00000000   Number         0  stm32f4xx_hal_nor.o ABSOLUTE
    ..\\Drivers\\STM32F4xx_HAL_Driver\\Src\\stm32f4xx_hal_pccard.c 0x00000000   Number         0  stm32f4xx_hal_pccard.o ABSOLUTE
    ..\\Drivers\\STM32F4xx_HAL_Driver\\Src\\stm32f4xx_hal_pcd.c 0x00000000   Number         0  stm32f4xx_hal_pcd.o ABSOLUTE
    ..\\Drivers\\STM32F4xx_HAL_Driver\\Src\\stm32f4xx_hal_pcd_ex.c 0x00000000   Number         0  stm32f4xx_hal_pcd_ex.o ABSOLUTE
    ..\\Drivers\\STM32F4xx_HAL_Driver\\Src\\stm32f4xx_hal_qspi.c 0x00000000   Number         0  stm32f4xx_hal_qspi.o ABSOLUTE
    ..\\Drivers\\STM32F4xx_HAL_Driver\\Src\\stm32f4xx_hal_rng.c 0x00000000   Number         0  stm32f4xx_hal_rng.o ABSOLUTE
    ..\\Drivers\\STM32F4xx_HAL_Driver\\Src\\stm32f4xx_hal_rtc.c 0x00000000   Number         0  stm32f4xx_hal_rtc.o ABSOLUTE
    ..\\Drivers\\STM32F4xx_HAL_Driver\\Src\\stm32f4xx_hal_rtc_ex.c 0x00000000   Number         0  stm32f4xx_hal_rtc_ex.o ABSOLUTE
    ..\\Drivers\\STM32F4xx_HAL_Driver\\Src\\stm32f4xx_hal_sai.c 0x00000000   Number         0  stm32f4xx_hal_sai.o ABSOLUTE
    ..\\Drivers\\STM32F4xx_HAL_Driver\\Src\\stm32f4xx_hal_sai_ex.c 0x00000000   Number         0  stm32f4xx_hal_sai_ex.o ABSOLUTE
    ..\\Drivers\\STM32F4xx_HAL_Driver\\Src\\stm32f4xx_hal_sd.c 0x00000000   Number         0  stm32f4xx_hal_sd.o ABSOLUTE
    ..\\Drivers\\STM32F4xx_HAL_Driver\\Src\\stm32f4xx_hal_sdram.c 0x00000000   Number         0  stm32f4xx_hal_sdram.o ABSOLUTE
    ..\\Drivers\\STM32F4xx_HAL_Driver\\Src\\stm32f4xx_hal_smartcard.c 0x00000000   Number         0  stm32f4xx_hal_smartcard.o ABSOLUTE
    ..\\Drivers\\STM32F4xx_HAL_Driver\\Src\\stm32f4xx_hal_spdifrx.c 0x00000000   Number         0  stm32f4xx_hal_spdifrx.o ABSOLUTE
    ..\\Drivers\\STM32F4xx_HAL_Driver\\Src\\stm32f4xx_hal_spi.c 0x00000000   Number         0  stm32f4xx_hal_spi.o ABSOLUTE
    ..\\Drivers\\STM32F4xx_HAL_Driver\\Src\\stm32f4xx_hal_sram.c 0x00000000   Number         0  stm32f4xx_hal_sram.o ABSOLUTE
    ..\\Drivers\\STM32F4xx_HAL_Driver\\Src\\stm32f4xx_hal_tim.c 0x00000000   Number         0  stm32f4xx_hal_tim.o ABSOLUTE
    ..\\Drivers\\STM32F4xx_HAL_Driver\\Src\\stm32f4xx_hal_tim_ex.c 0x00000000   Number         0  stm32f4xx_hal_tim_ex.o ABSOLUTE
    ..\\Drivers\\STM32F4xx_HAL_Driver\\Src\\stm32f4xx_hal_uart.c 0x00000000   Number         0  stm32f4xx_hal_uart.o ABSOLUTE
    ..\\Drivers\\STM32F4xx_HAL_Driver\\Src\\stm32f4xx_hal_usart.c 0x00000000   Number         0  stm32f4xx_hal_usart.o ABSOLUTE
    ..\\Drivers\\STM32F4xx_HAL_Driver\\Src\\stm32f4xx_hal_wwdg.c 0x00000000   Number         0  stm32f4xx_hal_wwdg.o ABSOLUTE
    ..\\Drivers\\STM32F4xx_HAL_Driver\\Src\\stm32f4xx_ll_fmc.c 0x00000000   Number         0  stm32f4xx_ll_fmc.o ABSOLUTE
    ..\\Drivers\\STM32F4xx_HAL_Driver\\Src\\stm32f4xx_ll_fsmc.c 0x00000000   Number         0  stm32f4xx_ll_fsmc.o ABSOLUTE
    ..\\Drivers\\STM32F4xx_HAL_Driver\\Src\\stm32f4xx_ll_sdmmc.c 0x00000000   Number         0  stm32f4xx_ll_sdmmc.o ABSOLUTE
    ..\\Drivers\\STM32F4xx_HAL_Driver\\Src\\stm32f4xx_ll_usb.c 0x00000000   Number         0  stm32f4xx_ll_usb.o ABSOLUTE
    ..\\Drivers\\STM32F4xx_HAL_Driver\\Src\\stm32f4xx_ll_utils.c 0x00000000   Number         0  stm32f4xx_ll_utils.o ABSOLUTE
    ..\\Src\\bsp\\BldcSensor\\BldcSensor.c   0x00000000   Number         0  bldcsensor.o ABSOLUTE
    ..\\Src\\bsp\\Motor\\bsp_motor.c         0x00000000   Number         0  bsp_motor.o ABSOLUTE
    ..\\Src\\bsp\\RD905\\rd905.c             0x00000000   Number         0  rd905.o ABSOLUTE
    ..\\Src\\bsp\\Rtc\\rtc.c                 0x00000000   Number         0  rtc.o ABSOLUTE
    ..\\Src\\bsp\\Us100\\us100.c             0x00000000   Number         0  us100.o ABSOLUTE
    ..\\Src\\bsp\\iwdg\\iwdg.c               0x00000000   Number         0  iwdg.o ABSOLUTE
    ..\\Src\\bsp\\key\\bsp_key.c             0x00000000   Number         0  bsp_key.o ABSOLUTE
    ..\\Src\\bsp\\led\\bsp_led.c             0x00000000   Number         0  bsp_led.o ABSOLUTE
    ..\\Src\\bsp\\timer\\timer.c             0x00000000   Number         0  timer.o ABSOLUTE
    ..\\Src\\bsp\\usartx\\bsp_usartx.c       0x00000000   Number         0  bsp_usartx.o ABSOLUTE
    ..\\Src\\stm32f4xx_assert.c              0x00000000   Number         0  stm32f4xx_assert.o ABSOLUTE
    cdcmple.s                                0x00000000   Number         0  cdcmple.o ABSOLUTE
    cdrcmple.s                               0x00000000   Number         0  cdrcmple.o ABSOLUTE
    dc.s                                     0x00000000   Number         0  dc.o ABSOLUTE
    handlers.s                               0x00000000   Number         0  handlers.o ABSOLUTE
    init.s                                   0x00000000   Number         0  init.o ABSOLUTE
    startup_stm32f407xx.s                    0x00000000   Number         0  startup_stm32f407xx.o ABSOLUTE
    RESET                                    0x08000000   Section      392  startup_stm32f407xx.o(RESET)
    .ARM.Collect$$$$00000000                 0x08000188   Section        0  entry.o(.ARM.Collect$$$$00000000)
    .ARM.Collect$$$$00000001                 0x08000188   Section        4  entry2.o(.ARM.Collect$$$$00000001)
    .ARM.Collect$$$$00000004                 0x0800018c   Section        4  entry5.o(.ARM.Collect$$$$00000004)
    .ARM.Collect$$$$00000008                 0x08000190   Section        0  entry7b.o(.ARM.Collect$$$$00000008)
    .ARM.Collect$$$$0000000A                 0x08000190   Section        0  entry8b.o(.ARM.Collect$$$$0000000A)
    .ARM.Collect$$$$0000000B                 0x08000190   Section        8  entry9a.o(.ARM.Collect$$$$0000000B)
    .ARM.Collect$$$$0000000D                 0x08000198   Section        0  entry10a.o(.ARM.Collect$$$$0000000D)
    .ARM.Collect$$$$0000000F                 0x08000198   Section        0  entry11a.o(.ARM.Collect$$$$0000000F)
    .ARM.Collect$$$$00002712                 0x08000198   Section        4  entry2.o(.ARM.Collect$$$$00002712)
    __lit__00000000                          0x08000198   Data           4  entry2.o(.ARM.Collect$$$$00002712)
    .text                                    0x0800019c   Section       36  startup_stm32f407xx.o(.text)
    $v0                                      0x0800019c   Number         0  startup_stm32f407xx.o(.text)
    .text                                    0x080001c0   Section        0  ldiv.o(.text)
    .text                                    0x08000222   Section        0  ffltl.o(.text)
    .text                                    0x0800024e   Section        0  dfltui.o(.text)
    .text                                    0x08000268   Section        0  ffixl.o(.text)
    .text                                    0x080002aa   Section        0  f2d.o(.text)
    .text                                    0x080002d0   Section       48  cdcmple.o(.text)
    .text                                    0x08000300   Section       48  cdrcmple.o(.text)
    .text                                    0x08000330   Section        0  uldiv.o(.text)
    .text                                    0x08000392   Section        0  llshl.o(.text)
    .text                                    0x080003b0   Section        0  fepilogue.o(.text)
    .text                                    0x080003b0   Section        0  iusefp.o(.text)
    .text                                    0x0800041e   Section        0  depilogue.o(.text)
    .text                                    0x080004d8   Section       36  init.o(.text)
    .text                                    0x080004fc   Section        0  llushr.o(.text)
    i.Analyse_Data_Callback                  0x0800051c   Section        0  main.o(i.Analyse_Data_Callback)
    i.BusFault_Handler                       0x080006f8   Section        0  stm32f4xx_it.o(i.BusFault_Handler)
    i.CheckSum                               0x080006fc   Section        0  bsp_usartx.o(i.CheckSum)
    i.DEBUG_NVIC_USART_Init                  0x08000718   Section        0  bsp_usartx.o(i.DEBUG_NVIC_USART_Init)
    DEBUG_NVIC_USART_Init                    0x08000719   Thumb Code    20  bsp_usartx.o(i.DEBUG_NVIC_USART_Init)
    i.DebugMon_Handler                       0x0800072c   Section        0  stm32f4xx_it.o(i.DebugMon_Handler)
    i.EXTI0_IRQHandler                       0x0800072e   Section        0  stm32f4xx_it.o(i.EXTI0_IRQHandler)
    i.EXTI1_IRQHandler                       0x08000738   Section        0  stm32f4xx_it.o(i.EXTI1_IRQHandler)
    i.EXTI2_IRQHandler                       0x08000742   Section        0  stm32f4xx_it.o(i.EXTI2_IRQHandler)
    i.Enable_HALL                            0x0800074c   Section        0  bldcsensor.o(i.Enable_HALL)
    i.Genenral_Timx_Init                     0x08000784   Section        0  timer.o(i.Genenral_Timx_Init)
    i.HALL_TIMx_Init                         0x080007d4   Section        0  bldcsensor.o(i.HALL_TIMx_Init)
    i.HAL_DMA_Abort_IT                       0x080008ac   Section        0  stm32f4xx_hal_dma.o(i.HAL_DMA_Abort_IT)
    i.HAL_Delay                              0x080008d4   Section        0  stm32f4xx_hal.o(i.HAL_Delay)
    i.HAL_GPIO_EXTI_Callback                 0x080008f2   Section        0  stm32f4xx_hal_gpio.o(i.HAL_GPIO_EXTI_Callback)
    i.HAL_GPIO_EXTI_IRQHandler               0x080008f4   Section        0  stm32f4xx_hal_gpio.o(i.HAL_GPIO_EXTI_IRQHandler)
    i.HAL_GPIO_Init                          0x08000910   Section        0  stm32f4xx_hal_gpio.o(i.HAL_GPIO_Init)
    i.HAL_GPIO_ReadPin                       0x08000b10   Section        0  stm32f4xx_hal_gpio.o(i.HAL_GPIO_ReadPin)
    i.HAL_GPIO_TogglePin                     0x08000b20   Section        0  stm32f4xx_hal_gpio.o(i.HAL_GPIO_TogglePin)
    i.HAL_GPIO_WritePin                      0x08000b28   Section        0  stm32f4xx_hal_gpio.o(i.HAL_GPIO_WritePin)
    i.HAL_GetTick                            0x08000b34   Section        0  stm32f4xx_hal.o(i.HAL_GetTick)
    i.HAL_IWDG_Refresh                       0x08000b40   Section        0  stm32f4xx_hal_iwdg.o(i.HAL_IWDG_Refresh)
    i.HAL_IncTick                            0x08000b50   Section        0  stm32f4xx_hal.o(i.HAL_IncTick)
    i.HAL_Init                               0x08000b60   Section        0  stm32f4xx_hal.o(i.HAL_Init)
    i.HAL_InitTick                           0x08000b9c   Section        0  stm32f4xx_hal.o(i.HAL_InitTick)
    i.HAL_MspInit                            0x08000bc4   Section        0  stm32f4xx_hal_msp.o(i.HAL_MspInit)
    i.HAL_NVIC_ClearPendingIRQ               0x08000c1c   Section        0  stm32f4xx_hal_cortex.o(i.HAL_NVIC_ClearPendingIRQ)
    i.HAL_NVIC_EnableIRQ                     0x08000c38   Section        0  stm32f4xx_hal_cortex.o(i.HAL_NVIC_EnableIRQ)
    i.HAL_NVIC_SetPriority                   0x08000c52   Section        0  stm32f4xx_hal_cortex.o(i.HAL_NVIC_SetPriority)
    i.HAL_NVIC_SetPriorityGrouping           0x08000cd0   Section        0  stm32f4xx_hal_cortex.o(i.HAL_NVIC_SetPriorityGrouping)
    i.HAL_PWR_EnableBkUpAccess               0x08000cf8   Section        0  stm32f4xx_hal_pwr.o(i.HAL_PWR_EnableBkUpAccess)
    i.HAL_RCCEx_PeriphCLKConfig              0x08000d10   Section        0  stm32f4xx_hal_rcc_ex.o(i.HAL_RCCEx_PeriphCLKConfig)
    i.HAL_RCC_ClockConfig                    0x08000ec8   Section        0  stm32f4xx_hal_rcc.o(i.HAL_RCC_ClockConfig)
    i.HAL_RCC_EnableCSS                      0x08001098   Section        0  stm32f4xx_hal_rcc.o(i.HAL_RCC_EnableCSS)
    i.HAL_RCC_GetHCLKFreq                    0x080010a4   Section        0  stm32f4xx_hal_rcc.o(i.HAL_RCC_GetHCLKFreq)
    i.HAL_RCC_GetPCLK1Freq                   0x080010b0   Section        0  stm32f4xx_hal_rcc.o(i.HAL_RCC_GetPCLK1Freq)
    i.HAL_RCC_GetPCLK2Freq                   0x080010dc   Section        0  stm32f4xx_hal_rcc.o(i.HAL_RCC_GetPCLK2Freq)
    i.HAL_RCC_GetSysClockFreq                0x08001108   Section        0  stm32f4xx_hal_rcc.o(i.HAL_RCC_GetSysClockFreq)
    i.HAL_RCC_OscConfig                      0x080011bc   Section        0  stm32f4xx_hal_rcc.o(i.HAL_RCC_OscConfig)
    i.HAL_RTCEx_BKUPRead                     0x08001608   Section        0  stm32f4xx_hal_rtc_ex.o(i.HAL_RTCEx_BKUPRead)
    i.HAL_RTCEx_BKUPWrite                    0x0800161a   Section        0  stm32f4xx_hal_rtc_ex.o(i.HAL_RTCEx_BKUPWrite)
    i.HAL_RTC_Init                           0x0800162c   Section        0  stm32f4xx_hal_rtc.o(i.HAL_RTC_Init)
    i.HAL_RTC_MspInit                        0x080016e0   Section        0  rtc.o(i.HAL_RTC_MspInit)
    i.HAL_SYSTICK_CLKSourceConfig            0x08001724   Section        0  stm32f4xx_hal_cortex.o(i.HAL_SYSTICK_CLKSourceConfig)
    i.HAL_SYSTICK_Callback                   0x0800174c   Section        0  main.o(i.HAL_SYSTICK_Callback)
    i.HAL_SYSTICK_Config                     0x08001780   Section        0  stm32f4xx_hal_cortex.o(i.HAL_SYSTICK_Config)
    i.HAL_SYSTICK_IRQHandler                 0x080017b4   Section        0  stm32f4xx_hal_cortex.o(i.HAL_SYSTICK_IRQHandler)
    i.HAL_TIMEx_BreakCallback                0x080017bc   Section        0  stm32f4xx_hal_tim_ex.o(i.HAL_TIMEx_BreakCallback)
    i.HAL_TIMEx_CommutationCallback          0x080017be   Section        0  stm32f4xx_hal_tim_ex.o(i.HAL_TIMEx_CommutationCallback)
    i.HAL_TIMEx_HallSensor_Init              0x080017c0   Section        0  stm32f4xx_hal_tim_ex.o(i.HAL_TIMEx_HallSensor_Init)
    i.HAL_TIMEx_HallSensor_MspInit           0x08001884   Section        0  bldcsensor.o(i.HAL_TIMEx_HallSensor_MspInit)
    i.HAL_TIMEx_HallSensor_Start             0x08001934   Section        0  stm32f4xx_hal_tim_ex.o(i.HAL_TIMEx_HallSensor_Start)
    i.HAL_TIMEx_MasterConfigSynchronization  0x08001952   Section        0  stm32f4xx_hal_tim_ex.o(i.HAL_TIMEx_MasterConfigSynchronization)
    i.HAL_TIM_Base_Init                      0x080019b4   Section        0  stm32f4xx_hal_tim.o(i.HAL_TIM_Base_Init)
    i.HAL_TIM_Base_MspInit                   0x080019e8   Section        0  timer.o(i.HAL_TIM_Base_MspInit)
    i.HAL_TIM_Base_Start_IT                  0x08001a30   Section        0  stm32f4xx_hal_tim.o(i.HAL_TIM_Base_Start_IT)
    i.HAL_TIM_Base_Stop_IT                   0x08001a4e   Section        0  stm32f4xx_hal_tim.o(i.HAL_TIM_Base_Stop_IT)
    i.HAL_TIM_ConfigClockSource              0x08001a86   Section        0  stm32f4xx_hal_tim.o(i.HAL_TIM_ConfigClockSource)
    i.HAL_TIM_IC_CaptureCallback             0x08001bb8   Section        0  stm32f4xx_hal_tim.o(i.HAL_TIM_IC_CaptureCallback)
    i.HAL_TIM_IRQHandler                     0x08001bba   Section        0  stm32f4xx_hal_tim.o(i.HAL_TIM_IRQHandler)
    i.HAL_TIM_OC_DelayElapsedCallback        0x08001d50   Section        0  stm32f4xx_hal_tim.o(i.HAL_TIM_OC_DelayElapsedCallback)
    i.HAL_TIM_PWM_PulseFinishedCallback      0x08001d52   Section        0  stm32f4xx_hal_tim.o(i.HAL_TIM_PWM_PulseFinishedCallback)
    i.HAL_TIM_PeriodElapsedCallback          0x08001d54   Section        0  timer.o(i.HAL_TIM_PeriodElapsedCallback)
    i.HAL_TIM_TriggerCallback                0x08001d70   Section        0  bldcsensor.o(i.HAL_TIM_TriggerCallback)
    i.HAL_UART_AbortReceiveCpltCallback      0x08001db0   Section        0  stm32f4xx_hal_uart.o(i.HAL_UART_AbortReceiveCpltCallback)
    i.HAL_UART_AbortReceive_IT               0x08001db4   Section        0  stm32f4xx_hal_uart.o(i.HAL_UART_AbortReceive_IT)
    i.HAL_UART_ErrorCallback                 0x08001e2c   Section        0  stm32f4xx_hal_uart.o(i.HAL_UART_ErrorCallback)
    i.HAL_UART_IRQHandler                    0x08001e30   Section        0  stm32f4xx_hal_uart.o(i.HAL_UART_IRQHandler)
    i.HAL_UART_Init                          0x08001f7c   Section        0  stm32f4xx_hal_uart.o(i.HAL_UART_Init)
    i.HAL_UART_MspInit                       0x08001ff0   Section        0  bsp_usartx.o(i.HAL_UART_MspInit)
    i.HAL_UART_Receive_IT                    0x080021c0   Section        0  stm32f4xx_hal_uart.o(i.HAL_UART_Receive_IT)
    i.HAL_UART_RxCpltCallback                0x08002224   Section        0  bsp_usartx.o(i.HAL_UART_RxCpltCallback)
    i.HAL_UART_Transmit_IT                   0x080022d0   Section        0  stm32f4xx_hal_uart.o(i.HAL_UART_Transmit_IT)
    i.HAL_UART_TxCpltCallback                0x08002328   Section        0  stm32f4xx_hal_uart.o(i.HAL_UART_TxCpltCallback)
    i.HardFault_Handler                      0x0800232a   Section        0  stm32f4xx_it.o(i.HardFault_Handler)
    i.KEY1_StateRead                         0x08002330   Section        0  bsp_key.o(i.KEY1_StateRead)
    i.KEY2_StateRead                         0x08002368   Section        0  bsp_key.o(i.KEY2_StateRead)
    i.KEY3_StateRead                         0x080023a0   Section        0  bsp_key.o(i.KEY3_StateRead)
    i.KEY4_StateRead                         0x080023d8   Section        0  bsp_key.o(i.KEY4_StateRead)
    i.KEY5_StateRead                         0x08002410   Section        0  bsp_key.o(i.KEY5_StateRead)
    i.KEY_GPIO_Init                          0x08002448   Section        0  bsp_key.o(i.KEY_GPIO_Init)
    i.LED_GPIO_Init                          0x08002510   Section        0  bsp_led.o(i.LED_GPIO_Init)
    i.LEDx_StateSet                          0x080025dc   Section        0  bsp_led.o(i.LEDx_StateSet)
    i.MOTOR_GPIO_Init                        0x08002684   Section        0  bsp_motor.o(i.MOTOR_GPIO_Init)
    i.MX_USART_Init                          0x0800275c   Section        0  bsp_usartx.o(i.MX_USART_Init)
    i.MemManage_Handler                      0x080028e8   Section        0  stm32f4xx_it.o(i.MemManage_Handler)
    i.MotorHall_Location                     0x080028ec   Section        0  bldcsensor.o(i.MotorHall_Location)
    i.MotorLocation_Control                  0x08002968   Section        0  bsp_motor.o(i.MotorLocation_Control)
    i.Motor_Automatic                        0x08002a1c   Section        0  bsp_motor.o(i.Motor_Automatic)
    i.Motor_BLDC_Init                        0x08002bd0   Section        0  bsp_motor.o(i.Motor_BLDC_Init)
    i.Motor_Control                          0x08002bec   Section        0  bsp_motor.o(i.Motor_Control)
    i.NMI_Handler                            0x08002c74   Section        0  stm32f4xx_it.o(i.NMI_Handler)
    i.NVIC_GetPriorityGrouping               0x08002c78   Section        0  stm32f4xx_hal_cortex.o(i.NVIC_GetPriorityGrouping)
    NVIC_GetPriorityGrouping                 0x08002c79   Thumb Code    10  stm32f4xx_hal_cortex.o(i.NVIC_GetPriorityGrouping)
    i.NVIC_SetPriority                       0x08002c88   Section        0  stm32f4xx_hal_cortex.o(i.NVIC_SetPriority)
    NVIC_SetPriority                         0x08002c89   Thumb Code    32  stm32f4xx_hal_cortex.o(i.NVIC_SetPriority)
    i.PendSV_Handler                         0x08002cb0   Section        0  stm32f4xx_it.o(i.PendSV_Handler)
    i.RD901CheckSum                          0x08002cb2   Section        0  rd905.o(i.RD901CheckSum)
    i.RS485_NVIC_USART_Init                  0x08002cd4   Section        0  bsp_usartx.o(i.RS485_NVIC_USART_Init)
    RS485_NVIC_USART_Init                    0x08002cd5   Thumb Code    20  bsp_usartx.o(i.RS485_NVIC_USART_Init)
    i.RTC_EnterInitMode                      0x08002ce8   Section        0  stm32f4xx_hal_rtc.o(i.RTC_EnterInitMode)
    i.RTC_Init                               0x08002d28   Section        0  rtc.o(i.RTC_Init)
    i.SVC_Handler                            0x08002dd4   Section        0  stm32f4xx_it.o(i.SVC_Handler)
    i.SysTick_Handler                        0x08002dd6   Section        0  stm32f4xx_it.o(i.SysTick_Handler)
    i.SystemClock_Config                     0x08002de4   Section        0  main.o(i.SystemClock_Config)
    i.SystemInit                             0x08002ea8   Section        0  system_stm32f4xx.o(i.SystemInit)
    i.TIM2_IRQHandler                        0x08002f0c   Section        0  stm32f4xx_it.o(i.TIM2_IRQHandler)
    i.TIM3_IRQHandler                        0x08002f1c   Section        0  stm32f4xx_it.o(i.TIM3_IRQHandler)
    i.TIM4_IRQHandler                        0x08002f2c   Section        0  stm32f4xx_it.o(i.TIM4_IRQHandler)
    i.TIM_Base_SetConfig                     0x08002f3c   Section        0  stm32f4xx_hal_tim.o(i.TIM_Base_SetConfig)
    i.TIM_CCxChannelCmd                      0x08003020   Section        0  stm32f4xx_hal_tim.o(i.TIM_CCxChannelCmd)
    i.TIM_ETR_SetConfig                      0x0800303c   Section        0  stm32f4xx_hal_tim.o(i.TIM_ETR_SetConfig)
    TIM_ETR_SetConfig                        0x0800303d   Thumb Code    24  stm32f4xx_hal_tim.o(i.TIM_ETR_SetConfig)
    i.TIM_ITRx_SetConfig                     0x08003054   Section        0  stm32f4xx_hal_tim.o(i.TIM_ITRx_SetConfig)
    TIM_ITRx_SetConfig                       0x08003055   Thumb Code    20  stm32f4xx_hal_tim.o(i.TIM_ITRx_SetConfig)
    i.TIM_OC2_SetConfig                      0x08003068   Section        0  stm32f4xx_hal_tim.o(i.TIM_OC2_SetConfig)
    i.TIM_TI1_ConfigInputStage               0x080030e0   Section        0  stm32f4xx_hal_tim.o(i.TIM_TI1_ConfigInputStage)
    TIM_TI1_ConfigInputStage                 0x080030e1   Thumb Code    42  stm32f4xx_hal_tim.o(i.TIM_TI1_ConfigInputStage)
    i.TIM_TI1_SetConfig                      0x0800310c   Section        0  stm32f4xx_hal_tim.o(i.TIM_TI1_SetConfig)
    i.TIM_TI2_ConfigInputStage               0x080031a4   Section        0  stm32f4xx_hal_tim.o(i.TIM_TI2_ConfigInputStage)
    TIM_TI2_ConfigInputStage                 0x080031a5   Thumb Code    44  stm32f4xx_hal_tim.o(i.TIM_TI2_ConfigInputStage)
    i.Tim_Start                              0x080031d0   Section        0  timer.o(i.Tim_Start)
    i.Tim_Stop                               0x080031f8   Section        0  timer.o(i.Tim_Stop)
    i.Transmit_FB                            0x08003210   Section        0  bsp_usartx.o(i.Transmit_FB)
    i.UART4_IRQHandler                       0x08003294   Section        0  stm32f4xx_it.o(i.UART4_IRQHandler)
    i.UART_DMAAbortOnError                   0x080032a4   Section        0  stm32f4xx_hal_uart.o(i.UART_DMAAbortOnError)
    UART_DMAAbortOnError                     0x080032a5   Thumb Code    20  stm32f4xx_hal_uart.o(i.UART_DMAAbortOnError)
    i.UART_DMARxOnlyAbortCallback            0x080032b8   Section        0  stm32f4xx_hal_uart.o(i.UART_DMARxOnlyAbortCallback)
    UART_DMARxOnlyAbortCallback              0x080032b9   Thumb Code    24  stm32f4xx_hal_uart.o(i.UART_DMARxOnlyAbortCallback)
    i.UART_EndRxTransfer                     0x080032d0   Section        0  stm32f4xx_hal_uart.o(i.UART_EndRxTransfer)
    UART_EndRxTransfer                       0x080032d1   Thumb Code    32  stm32f4xx_hal_uart.o(i.UART_EndRxTransfer)
    i.UART_EndTransmit_IT                    0x080032f0   Section        0  stm32f4xx_hal_uart.o(i.UART_EndTransmit_IT)
    UART_EndTransmit_IT                      0x080032f1   Thumb Code    32  stm32f4xx_hal_uart.o(i.UART_EndTransmit_IT)
    i.UART_IDLE_Callback                     0x08003310   Section        0  bsp_usartx.o(i.UART_IDLE_Callback)
    i.UART_Receive_IT                        0x08003400   Section        0  stm32f4xx_hal_uart.o(i.UART_Receive_IT)
    UART_Receive_IT                          0x08003401   Thumb Code   154  stm32f4xx_hal_uart.o(i.UART_Receive_IT)
    i.UART_SetConfig                         0x0800349c   Section        0  stm32f4xx_hal_uart.o(i.UART_SetConfig)
    UART_SetConfig                           0x0800349d   Thumb Code   864  stm32f4xx_hal_uart.o(i.UART_SetConfig)
    i.UART_Transmit_IT                       0x08003804   Section        0  stm32f4xx_hal_uart.o(i.UART_Transmit_IT)
    UART_Transmit_IT                         0x08003805   Thumb Code   104  stm32f4xx_hal_uart.o(i.UART_Transmit_IT)
    i.US100_Distance                         0x0800386c   Section        0  us100.o(i.US100_Distance)
    i.US100_NVIC_USART_Init                  0x08003a34   Section        0  bsp_usartx.o(i.US100_NVIC_USART_Init)
    US100_NVIC_USART_Init                    0x08003a35   Thumb Code    20  bsp_usartx.o(i.US100_NVIC_USART_Init)
    i.US100_loop                             0x08003a48   Section        0  us100.o(i.US100_loop)
    i.USART1_IRQHandler                      0x08003a98   Section        0  stm32f4xx_it.o(i.USART1_IRQHandler)
    i.USART2_IRQHandler                      0x08003aa8   Section        0  stm32f4xx_it.o(i.USART2_IRQHandler)
    i.USART3_IRQHandler                      0x08003ab8   Section        0  stm32f4xx_it.o(i.USART3_IRQHandler)
    i.UsageFault_Handler                     0x08003acc   Section        0  stm32f4xx_it.o(i.UsageFault_Handler)
    i.WIFI_NVIC_USART_Init                   0x08003ad0   Section        0  bsp_usartx.o(i.WIFI_NVIC_USART_Init)
    WIFI_NVIC_USART_Init                     0x08003ad1   Thumb Code    20  bsp_usartx.o(i.WIFI_NVIC_USART_Init)
    i.__hardfp_fabs                          0x08003ae4   Section        0  fabs.o(i.__hardfp_fabs)
    i.__scatterload_copy                     0x08003af8   Section       14  handlers.o(i.__scatterload_copy)
    i.__scatterload_null                     0x08003b06   Section        2  handlers.o(i.__scatterload_null)
    i.__scatterload_zeroinit                 0x08003b08   Section       14  handlers.o(i.__scatterload_zeroinit)
    i.main                                   0x08003b18   Section        0  main.o(i.main)
    .constdata                               0x08003cd0   Section       24  system_stm32f4xx.o(.constdata)
    .data                                    0x20000000   Section       24  main.o(.data)
    .data                                    0x20000018   Section        4  stm32f4xx_hal.o(.data)
    .data                                    0x2000001c   Section        4  system_stm32f4xx.o(.data)
    .data                                    0x20000020   Section       12  bsp_usartx.o(.data)
    .data                                    0x2000002c   Section        8  bsp_motor.o(.data)
    .data                                    0x20000034   Section       10  us100.o(.data)
    .data                                    0x20000040   Section        8  bldcsensor.o(.data)
    .data                                    0x20000048   Section        1  timer.o(.data)
    tim4_i                                   0x20000048   Data           1  timer.o(.data)
    .bss                                     0x2000004c   Section      428  bsp_usartx.o(.bss)
    .bss                                     0x200001f8   Section       24  bsp_motor.o(.bss)
    .bss                                     0x20000210   Section      120  bldcsensor.o(.bss)
    .bss                                     0x20000288   Section       32  rtc.o(.bss)
    .bss                                     0x200002a8   Section       12  iwdg.o(.bss)
    .bss                                     0x200002b4   Section       60  timer.o(.bss)
    STACK                                    0x200002f0   Section     4096  startup_stm32f407xx.o(STACK)

    Global Symbols

    Symbol Name                              Value     Ov Type        Size  Object(Section)

    BuildAttributes$$THM_ISAv4$E$P$D$K$B$S$7EM$VFPi3$EXTD16$VFPS$VFMA$PE$A:L22UL41UL21$X:L11$S22US41US21$IEEE1$IW$USESV6$~STKCKD$USESV7$~SHL$OTIME$ROPI$IEEEJ$EBA8$MICROLIB$REQ8$PRES8$EABIv2 0x00000000   Number         0  anon$$obj.o ABSOLUTE
    __ARM_use_no_argv                        0x00000000   Number         0  main.o ABSOLUTE
    __cpp_initialize__aeabi_                  - Undefined Weak Reference
    __cxa_finalize                            - Undefined Weak Reference
    __decompress                              - Undefined Weak Reference
    _clock_init                               - Undefined Weak Reference
    _microlib_exit                            - Undefined Weak Reference
    __Vectors_Size                           0x00000188   Number         0  startup_stm32f407xx.o ABSOLUTE
    __Vectors                                0x08000000   Data           4  startup_stm32f407xx.o(RESET)
    __Vectors_End                            0x08000188   Data           0  startup_stm32f407xx.o(RESET)
    __main                                   0x08000189   Thumb Code     0  entry.o(.ARM.Collect$$$$00000000)
    _main_stk                                0x08000189   Thumb Code     0  entry2.o(.ARM.Collect$$$$00000001)
    _main_scatterload                        0x0800018d   Thumb Code     0  entry5.o(.ARM.Collect$$$$00000004)
    __main_after_scatterload                 0x08000191   Thumb Code     0  entry5.o(.ARM.Collect$$$$00000004)
    _main_clock                              0x08000191   Thumb Code     0  entry7b.o(.ARM.Collect$$$$00000008)
    _main_cpp_init                           0x08000191   Thumb Code     0  entry8b.o(.ARM.Collect$$$$0000000A)
    _main_init                               0x08000191   Thumb Code     0  entry9a.o(.ARM.Collect$$$$0000000B)
    __rt_final_cpp                           0x08000199   Thumb Code     0  entry10a.o(.ARM.Collect$$$$0000000D)
    __rt_final_exit                          0x08000199   Thumb Code     0  entry11a.o(.ARM.Collect$$$$0000000F)
    Reset_Handler                            0x0800019d   Thumb Code     8  startup_stm32f407xx.o(.text)
    ADC_IRQHandler                           0x080001b7   Thumb Code     0  startup_stm32f407xx.o(.text)
    CAN1_RX0_IRQHandler                      0x080001b7   Thumb Code     0  startup_stm32f407xx.o(.text)
    CAN1_RX1_IRQHandler                      0x080001b7   Thumb Code     0  startup_stm32f407xx.o(.text)
    CAN1_SCE_IRQHandler                      0x080001b7   Thumb Code     0  startup_stm32f407xx.o(.text)
    CAN1_TX_IRQHandler                       0x080001b7   Thumb Code     0  startup_stm32f407xx.o(.text)
    CAN2_RX0_IRQHandler                      0x080001b7   Thumb Code     0  startup_stm32f407xx.o(.text)
    CAN2_RX1_IRQHandler                      0x080001b7   Thumb Code     0  startup_stm32f407xx.o(.text)
    CAN2_SCE_IRQHandler                      0x080001b7   Thumb Code     0  startup_stm32f407xx.o(.text)
    CAN2_TX_IRQHandler                       0x080001b7   Thumb Code     0  startup_stm32f407xx.o(.text)
    DCMI_IRQHandler                          0x080001b7   Thumb Code     0  startup_stm32f407xx.o(.text)
    DMA1_Stream0_IRQHandler                  0x080001b7   Thumb Code     0  startup_stm32f407xx.o(.text)
    DMA1_Stream1_IRQHandler                  0x080001b7   Thumb Code     0  startup_stm32f407xx.o(.text)
    DMA1_Stream2_IRQHandler                  0x080001b7   Thumb Code     0  startup_stm32f407xx.o(.text)
    DMA1_Stream3_IRQHandler                  0x080001b7   Thumb Code     0  startup_stm32f407xx.o(.text)
    DMA1_Stream4_IRQHandler                  0x080001b7   Thumb Code     0  startup_stm32f407xx.o(.text)
    DMA1_Stream5_IRQHandler                  0x080001b7   Thumb Code     0  startup_stm32f407xx.o(.text)
    DMA1_Stream6_IRQHandler                  0x080001b7   Thumb Code     0  startup_stm32f407xx.o(.text)
    DMA1_Stream7_IRQHandler                  0x080001b7   Thumb Code     0  startup_stm32f407xx.o(.text)
    DMA2_Stream0_IRQHandler                  0x080001b7   Thumb Code     0  startup_stm32f407xx.o(.text)
    DMA2_Stream1_IRQHandler                  0x080001b7   Thumb Code     0  startup_stm32f407xx.o(.text)
    DMA2_Stream2_IRQHandler                  0x080001b7   Thumb Code     0  startup_stm32f407xx.o(.text)
    DMA2_Stream3_IRQHandler                  0x080001b7   Thumb Code     0  startup_stm32f407xx.o(.text)
    DMA2_Stream4_IRQHandler                  0x080001b7   Thumb Code     0  startup_stm32f407xx.o(.text)
    DMA2_Stream5_IRQHandler                  0x080001b7   Thumb Code     0  startup_stm32f407xx.o(.text)
    DMA2_Stream6_IRQHandler                  0x080001b7   Thumb Code     0  startup_stm32f407xx.o(.text)
    DMA2_Stream7_IRQHandler                  0x080001b7   Thumb Code     0  startup_stm32f407xx.o(.text)
    ETH_IRQHandler                           0x080001b7   Thumb Code     0  startup_stm32f407xx.o(.text)
    ETH_WKUP_IRQHandler                      0x080001b7   Thumb Code     0  startup_stm32f407xx.o(.text)
    EXTI15_10_IRQHandler                     0x080001b7   Thumb Code     0  startup_stm32f407xx.o(.text)
    EXTI3_IRQHandler                         0x080001b7   Thumb Code     0  startup_stm32f407xx.o(.text)
    EXTI4_IRQHandler                         0x080001b7   Thumb Code     0  startup_stm32f407xx.o(.text)
    EXTI9_5_IRQHandler                       0x080001b7   Thumb Code     0  startup_stm32f407xx.o(.text)
    FLASH_IRQHandler                         0x080001b7   Thumb Code     0  startup_stm32f407xx.o(.text)
    FMC_IRQHandler                           0x080001b7   Thumb Code     0  startup_stm32f407xx.o(.text)
    FPU_IRQHandler                           0x080001b7   Thumb Code     0  startup_stm32f407xx.o(.text)
    HASH_RNG_IRQHandler                      0x080001b7   Thumb Code     0  startup_stm32f407xx.o(.text)
    I2C1_ER_IRQHandler                       0x080001b7   Thumb Code     0  startup_stm32f407xx.o(.text)
    I2C1_EV_IRQHandler                       0x080001b7   Thumb Code     0  startup_stm32f407xx.o(.text)
    I2C2_ER_IRQHandler                       0x080001b7   Thumb Code     0  startup_stm32f407xx.o(.text)
    I2C2_EV_IRQHandler                       0x080001b7   Thumb Code     0  startup_stm32f407xx.o(.text)
    I2C3_ER_IRQHandler                       0x080001b7   Thumb Code     0  startup_stm32f407xx.o(.text)
    I2C3_EV_IRQHandler                       0x080001b7   Thumb Code     0  startup_stm32f407xx.o(.text)
    OTG_FS_IRQHandler                        0x080001b7   Thumb Code     0  startup_stm32f407xx.o(.text)
    OTG_FS_WKUP_IRQHandler                   0x080001b7   Thumb Code     0  startup_stm32f407xx.o(.text)
    OTG_HS_EP1_IN_IRQHandler                 0x080001b7   Thumb Code     0  startup_stm32f407xx.o(.text)
    OTG_HS_EP1_OUT_IRQHandler                0x080001b7   Thumb Code     0  startup_stm32f407xx.o(.text)
    OTG_HS_IRQHandler                        0x080001b7   Thumb Code     0  startup_stm32f407xx.o(.text)
    OTG_HS_WKUP_IRQHandler                   0x080001b7   Thumb Code     0  startup_stm32f407xx.o(.text)
    PVD_IRQHandler                           0x080001b7   Thumb Code     0  startup_stm32f407xx.o(.text)
    RCC_IRQHandler                           0x080001b7   Thumb Code     0  startup_stm32f407xx.o(.text)
    RTC_Alarm_IRQHandler                     0x080001b7   Thumb Code     0  startup_stm32f407xx.o(.text)
    RTC_WKUP_IRQHandler                      0x080001b7   Thumb Code     0  startup_stm32f407xx.o(.text)
    SDIO_IRQHandler                          0x080001b7   Thumb Code     0  startup_stm32f407xx.o(.text)
    SPI1_IRQHandler                          0x080001b7   Thumb Code     0  startup_stm32f407xx.o(.text)
    SPI2_IRQHandler                          0x080001b7   Thumb Code     0  startup_stm32f407xx.o(.text)
    SPI3_IRQHandler                          0x080001b7   Thumb Code     0  startup_stm32f407xx.o(.text)
    TAMP_STAMP_IRQHandler                    0x080001b7   Thumb Code     0  startup_stm32f407xx.o(.text)
    TIM1_BRK_TIM9_IRQHandler                 0x080001b7   Thumb Code     0  startup_stm32f407xx.o(.text)
    TIM1_CC_IRQHandler                       0x080001b7   Thumb Code     0  startup_stm32f407xx.o(.text)
    TIM1_TRG_COM_TIM11_IRQHandler            0x080001b7   Thumb Code     0  startup_stm32f407xx.o(.text)
    TIM1_UP_TIM10_IRQHandler                 0x080001b7   Thumb Code     0  startup_stm32f407xx.o(.text)
    TIM5_IRQHandler                          0x080001b7   Thumb Code     0  startup_stm32f407xx.o(.text)
    TIM6_DAC_IRQHandler                      0x080001b7   Thumb Code     0  startup_stm32f407xx.o(.text)
    TIM7_IRQHandler                          0x080001b7   Thumb Code     0  startup_stm32f407xx.o(.text)
    TIM8_BRK_TIM12_IRQHandler                0x080001b7   Thumb Code     0  startup_stm32f407xx.o(.text)
    TIM8_CC_IRQHandler                       0x080001b7   Thumb Code     0  startup_stm32f407xx.o(.text)
    TIM8_TRG_COM_TIM14_IRQHandler            0x080001b7   Thumb Code     0  startup_stm32f407xx.o(.text)
    TIM8_UP_TIM13_IRQHandler                 0x080001b7   Thumb Code     0  startup_stm32f407xx.o(.text)
    UART5_IRQHandler                         0x080001b7   Thumb Code     0  startup_stm32f407xx.o(.text)
    USART6_IRQHandler                        0x080001b7   Thumb Code     0  startup_stm32f407xx.o(.text)
    WWDG_IRQHandler                          0x080001b7   Thumb Code     0  startup_stm32f407xx.o(.text)
    __aeabi_ldivmod                          0x080001c1   Thumb Code    98  ldiv.o(.text)
    __aeabi_l2f                              0x08000223   Thumb Code    44  ffltl.o(.text)
    __aeabi_ui2d                             0x0800024f   Thumb Code    26  dfltui.o(.text)
    __aeabi_f2lz                             0x08000269   Thumb Code    66  ffixl.o(.text)
    __aeabi_f2d                              0x080002ab   Thumb Code    38  f2d.o(.text)
    __aeabi_cdcmpeq                          0x080002d1   Thumb Code     0  cdcmple.o(.text)
    __aeabi_cdcmple                          0x080002d1   Thumb Code    48  cdcmple.o(.text)
    __aeabi_cdrcmple                         0x08000301   Thumb Code    48  cdrcmple.o(.text)
    __aeabi_uldivmod                         0x08000331   Thumb Code    98  uldiv.o(.text)
    __aeabi_llsl                             0x08000393   Thumb Code    30  llshl.o(.text)
    _ll_shift_l                              0x08000393   Thumb Code     0  llshl.o(.text)
    __I$use$fp                               0x080003b1   Thumb Code     0  iusefp.o(.text)
    _float_round                             0x080003b1   Thumb Code    18  fepilogue.o(.text)
    _float_epilogue                          0x080003c3   Thumb Code    92  fepilogue.o(.text)
    _double_round                            0x0800041f   Thumb Code    30  depilogue.o(.text)
    _double_epilogue                         0x0800043d   Thumb Code   156  depilogue.o(.text)
    __scatterload                            0x080004d9   Thumb Code    28  init.o(.text)
    __scatterload_rt2                        0x080004d9   Thumb Code     0  init.o(.text)
    __aeabi_llsr                             0x080004fd   Thumb Code    32  llushr.o(.text)
    _ll_ushift_r                             0x080004fd   Thumb Code     0  llushr.o(.text)
    Analyse_Data_Callback                    0x0800051d   Thumb Code   444  main.o(i.Analyse_Data_Callback)
    BusFault_Handler                         0x080006f9   Thumb Code     4  stm32f4xx_it.o(i.BusFault_Handler)
    CheckSum                                 0x080006fd   Thumb Code    28  bsp_usartx.o(i.CheckSum)
    DebugMon_Handler                         0x0800072d   Thumb Code     2  stm32f4xx_it.o(i.DebugMon_Handler)
    EXTI0_IRQHandler                         0x0800072f   Thumb Code    10  stm32f4xx_it.o(i.EXTI0_IRQHandler)
    EXTI1_IRQHandler                         0x08000739   Thumb Code    10  stm32f4xx_it.o(i.EXTI1_IRQHandler)
    EXTI2_IRQHandler                         0x08000743   Thumb Code    10  stm32f4xx_it.o(i.EXTI2_IRQHandler)
    Enable_HALL                              0x0800074d   Thumb Code    48  bldcsensor.o(i.Enable_HALL)
    Genenral_Timx_Init                       0x08000785   Thumb Code    66  timer.o(i.Genenral_Timx_Init)
    HALL_TIMx_Init                           0x080007d5   Thumb Code   200  bldcsensor.o(i.HALL_TIMx_Init)
    HAL_DMA_Abort_IT                         0x080008ad   Thumb Code    40  stm32f4xx_hal_dma.o(i.HAL_DMA_Abort_IT)
    HAL_Delay                                0x080008d5   Thumb Code    30  stm32f4xx_hal.o(i.HAL_Delay)
    HAL_GPIO_EXTI_Callback                   0x080008f3   Thumb Code     2  stm32f4xx_hal_gpio.o(i.HAL_GPIO_EXTI_Callback)
    HAL_GPIO_EXTI_IRQHandler                 0x080008f5   Thumb Code    24  stm32f4xx_hal_gpio.o(i.HAL_GPIO_EXTI_IRQHandler)
    HAL_GPIO_Init                            0x08000911   Thumb Code   466  stm32f4xx_hal_gpio.o(i.HAL_GPIO_Init)
    HAL_GPIO_ReadPin                         0x08000b11   Thumb Code    16  stm32f4xx_hal_gpio.o(i.HAL_GPIO_ReadPin)
    HAL_GPIO_TogglePin                       0x08000b21   Thumb Code     8  stm32f4xx_hal_gpio.o(i.HAL_GPIO_TogglePin)
    HAL_GPIO_WritePin                        0x08000b29   Thumb Code    12  stm32f4xx_hal_gpio.o(i.HAL_GPIO_WritePin)
    HAL_GetTick                              0x08000b35   Thumb Code     6  stm32f4xx_hal.o(i.HAL_GetTick)
    HAL_IWDG_Refresh                         0x08000b41   Thumb Code    14  stm32f4xx_hal_iwdg.o(i.HAL_IWDG_Refresh)
    HAL_IncTick                              0x08000b51   Thumb Code    12  stm32f4xx_hal.o(i.HAL_IncTick)
    HAL_Init                                 0x08000b61   Thumb Code    54  stm32f4xx_hal.o(i.HAL_Init)
    HAL_InitTick                             0x08000b9d   Thumb Code    36  stm32f4xx_hal.o(i.HAL_InitTick)
    HAL_MspInit                              0x08000bc5   Thumb Code    86  stm32f4xx_hal_msp.o(i.HAL_MspInit)
    HAL_NVIC_ClearPendingIRQ                 0x08000c1d   Thumb Code    22  stm32f4xx_hal_cortex.o(i.HAL_NVIC_ClearPendingIRQ)
    HAL_NVIC_EnableIRQ                       0x08000c39   Thumb Code    26  stm32f4xx_hal_cortex.o(i.HAL_NVIC_EnableIRQ)
    HAL_NVIC_SetPriority                     0x08000c53   Thumb Code   124  stm32f4xx_hal_cortex.o(i.HAL_NVIC_SetPriority)
    HAL_NVIC_SetPriorityGrouping             0x08000cd1   Thumb Code    32  stm32f4xx_hal_cortex.o(i.HAL_NVIC_SetPriorityGrouping)
    HAL_PWR_EnableBkUpAccess                 0x08000cf9   Thumb Code    20  stm32f4xx_hal_pwr.o(i.HAL_PWR_EnableBkUpAccess)
    HAL_RCCEx_PeriphCLKConfig                0x08000d11   Thumb Code   420  stm32f4xx_hal_rcc_ex.o(i.HAL_RCCEx_PeriphCLKConfig)
    HAL_RCC_ClockConfig                      0x08000ec9   Thumb Code   446  stm32f4xx_hal_rcc.o(i.HAL_RCC_ClockConfig)
    HAL_RCC_EnableCSS                        0x08001099   Thumb Code     8  stm32f4xx_hal_rcc.o(i.HAL_RCC_EnableCSS)
    HAL_RCC_GetHCLKFreq                      0x080010a5   Thumb Code     6  stm32f4xx_hal_rcc.o(i.HAL_RCC_GetHCLKFreq)
    HAL_RCC_GetPCLK1Freq                     0x080010b1   Thumb Code    36  stm32f4xx_hal_rcc.o(i.HAL_RCC_GetPCLK1Freq)
    HAL_RCC_GetPCLK2Freq                     0x080010dd   Thumb Code    36  stm32f4xx_hal_rcc.o(i.HAL_RCC_GetPCLK2Freq)
    HAL_RCC_GetSysClockFreq                  0x08001109   Thumb Code   168  stm32f4xx_hal_rcc.o(i.HAL_RCC_GetSysClockFreq)
    HAL_RCC_OscConfig                        0x080011bd   Thumb Code  1090  stm32f4xx_hal_rcc.o(i.HAL_RCC_OscConfig)
    HAL_RTCEx_BKUPRead                       0x08001609   Thumb Code    18  stm32f4xx_hal_rtc_ex.o(i.HAL_RTCEx_BKUPRead)
    HAL_RTCEx_BKUPWrite                      0x0800161b   Thumb Code    18  stm32f4xx_hal_rtc_ex.o(i.HAL_RTCEx_BKUPWrite)
    HAL_RTC_Init                             0x0800162d   Thumb Code   176  stm32f4xx_hal_rtc.o(i.HAL_RTC_Init)
    HAL_RTC_MspInit                          0x080016e1   Thumb Code    60  rtc.o(i.HAL_RTC_MspInit)
    HAL_SYSTICK_CLKSourceConfig              0x08001725   Thumb Code    40  stm32f4xx_hal_cortex.o(i.HAL_SYSTICK_CLKSourceConfig)
    HAL_SYSTICK_Callback                     0x0800174d   Thumb Code    44  main.o(i.HAL_SYSTICK_Callback)
    HAL_SYSTICK_Config                       0x08001781   Thumb Code    52  stm32f4xx_hal_cortex.o(i.HAL_SYSTICK_Config)
    HAL_SYSTICK_IRQHandler                   0x080017b5   Thumb Code     8  stm32f4xx_hal_cortex.o(i.HAL_SYSTICK_IRQHandler)
    HAL_TIMEx_BreakCallback                  0x080017bd   Thumb Code     2  stm32f4xx_hal_tim_ex.o(i.HAL_TIMEx_BreakCallback)
    HAL_TIMEx_CommutationCallback            0x080017bf   Thumb Code     2  stm32f4xx_hal_tim_ex.o(i.HAL_TIMEx_CommutationCallback)
    HAL_TIMEx_HallSensor_Init                0x080017c1   Thumb Code   196  stm32f4xx_hal_tim_ex.o(i.HAL_TIMEx_HallSensor_Init)
    HAL_TIMEx_HallSensor_MspInit             0x08001885   Thumb Code   160  bldcsensor.o(i.HAL_TIMEx_HallSensor_MspInit)
    HAL_TIMEx_HallSensor_Start               0x08001935   Thumb Code    30  stm32f4xx_hal_tim_ex.o(i.HAL_TIMEx_HallSensor_Start)
    HAL_TIMEx_MasterConfigSynchronization    0x08001953   Thumb Code    98  stm32f4xx_hal_tim_ex.o(i.HAL_TIMEx_MasterConfigSynchronization)
    HAL_TIM_Base_Init                        0x080019b5   Thumb Code    52  stm32f4xx_hal_tim.o(i.HAL_TIM_Base_Init)
    HAL_TIM_Base_MspInit                     0x080019e9   Thumb Code    62  timer.o(i.HAL_TIM_Base_MspInit)
    HAL_TIM_Base_Start_IT                    0x08001a31   Thumb Code    30  stm32f4xx_hal_tim.o(i.HAL_TIM_Base_Start_IT)
    HAL_TIM_Base_Stop_IT                     0x08001a4f   Thumb Code    56  stm32f4xx_hal_tim.o(i.HAL_TIM_Base_Stop_IT)
    HAL_TIM_ConfigClockSource                0x08001a87   Thumb Code   306  stm32f4xx_hal_tim.o(i.HAL_TIM_ConfigClockSource)
    HAL_TIM_IC_CaptureCallback               0x08001bb9   Thumb Code     2  stm32f4xx_hal_tim.o(i.HAL_TIM_IC_CaptureCallback)
    HAL_TIM_IRQHandler                       0x08001bbb   Thumb Code   406  stm32f4xx_hal_tim.o(i.HAL_TIM_IRQHandler)
    HAL_TIM_OC_DelayElapsedCallback          0x08001d51   Thumb Code     2  stm32f4xx_hal_tim.o(i.HAL_TIM_OC_DelayElapsedCallback)
    HAL_TIM_PWM_PulseFinishedCallback        0x08001d53   Thumb Code     2  stm32f4xx_hal_tim.o(i.HAL_TIM_PWM_PulseFinishedCallback)
    HAL_TIM_PeriodElapsedCallback            0x08001d55   Thumb Code    20  timer.o(i.HAL_TIM_PeriodElapsedCallback)
    HAL_TIM_TriggerCallback                  0x08001d71   Thumb Code    54  bldcsensor.o(i.HAL_TIM_TriggerCallback)
    HAL_UART_AbortReceiveCpltCallback        0x08001db1   Thumb Code     2  stm32f4xx_hal_uart.o(i.HAL_UART_AbortReceiveCpltCallback)
    HAL_UART_AbortReceive_IT                 0x08001db5   Thumb Code   114  stm32f4xx_hal_uart.o(i.HAL_UART_AbortReceive_IT)
    HAL_UART_ErrorCallback                   0x08001e2d   Thumb Code     2  stm32f4xx_hal_uart.o(i.HAL_UART_ErrorCallback)
    HAL_UART_IRQHandler                      0x08001e31   Thumb Code   326  stm32f4xx_hal_uart.o(i.HAL_UART_IRQHandler)
    HAL_UART_Init                            0x08001f7d   Thumb Code   114  stm32f4xx_hal_uart.o(i.HAL_UART_Init)
    HAL_UART_MspInit                         0x08001ff1   Thumb Code   426  bsp_usartx.o(i.HAL_UART_MspInit)
    HAL_UART_Receive_IT                      0x080021c1   Thumb Code   100  stm32f4xx_hal_uart.o(i.HAL_UART_Receive_IT)
    HAL_UART_RxCpltCallback                  0x08002225   Thumb Code   130  bsp_usartx.o(i.HAL_UART_RxCpltCallback)
    HAL_UART_Transmit_IT                     0x080022d1   Thumb Code    88  stm32f4xx_hal_uart.o(i.HAL_UART_Transmit_IT)
    HAL_UART_TxCpltCallback                  0x08002329   Thumb Code     2  stm32f4xx_hal_uart.o(i.HAL_UART_TxCpltCallback)
    HardFault_Handler                        0x0800232b   Thumb Code     4  stm32f4xx_it.o(i.HardFault_Handler)
    KEY1_StateRead                           0x08002331   Thumb Code    50  bsp_key.o(i.KEY1_StateRead)
    KEY2_StateRead                           0x08002369   Thumb Code    50  bsp_key.o(i.KEY2_StateRead)
    KEY3_StateRead                           0x080023a1   Thumb Code    50  bsp_key.o(i.KEY3_StateRead)
    KEY4_StateRead                           0x080023d9   Thumb Code    50  bsp_key.o(i.KEY4_StateRead)
    KEY5_StateRead                           0x08002411   Thumb Code    50  bsp_key.o(i.KEY5_StateRead)
    KEY_GPIO_Init                            0x08002449   Thumb Code   190  bsp_key.o(i.KEY_GPIO_Init)
    LED_GPIO_Init                            0x08002511   Thumb Code   192  bsp_led.o(i.LED_GPIO_Init)
    LEDx_StateSet                            0x080025dd   Thumb Code   160  bsp_led.o(i.LEDx_StateSet)
    MOTOR_GPIO_Init                          0x08002685   Thumb Code   206  bsp_motor.o(i.MOTOR_GPIO_Init)
    MX_USART_Init                            0x0800275d   Thumb Code   348  bsp_usartx.o(i.MX_USART_Init)
    MemManage_Handler                        0x080028e9   Thumb Code     4  stm32f4xx_it.o(i.MemManage_Handler)
    MotorHall_Location                       0x080028ed   Thumb Code   108  bldcsensor.o(i.MotorHall_Location)
    MotorLocation_Control                    0x08002969   Thumb Code   172  bsp_motor.o(i.MotorLocation_Control)
    Motor_Automatic                          0x08002a1d   Thumb Code   400  bsp_motor.o(i.Motor_Automatic)
    Motor_BLDC_Init                          0x08002bd1   Thumb Code    18  bsp_motor.o(i.Motor_BLDC_Init)
    Motor_Control                            0x08002bed   Thumb Code   122  bsp_motor.o(i.Motor_Control)
    NMI_Handler                              0x08002c75   Thumb Code     2  stm32f4xx_it.o(i.NMI_Handler)
    PendSV_Handler                           0x08002cb1   Thumb Code     2  stm32f4xx_it.o(i.PendSV_Handler)
    RD901CheckSum                            0x08002cb3   Thumb Code    34  rd905.o(i.RD901CheckSum)
    RTC_EnterInitMode                        0x08002ce9   Thumb Code    62  stm32f4xx_hal_rtc.o(i.RTC_EnterInitMode)
    RTC_Init                                 0x08002d29   Thumb Code   152  rtc.o(i.RTC_Init)
    SVC_Handler                              0x08002dd5   Thumb Code     2  stm32f4xx_it.o(i.SVC_Handler)
    SysTick_Handler                          0x08002dd7   Thumb Code    12  stm32f4xx_it.o(i.SysTick_Handler)
    SystemClock_Config                       0x08002de5   Thumb Code   188  main.o(i.SystemClock_Config)
    SystemInit                               0x08002ea9   Thumb Code    82  system_stm32f4xx.o(i.SystemInit)
    TIM2_IRQHandler                          0x08002f0d   Thumb Code    10  stm32f4xx_it.o(i.TIM2_IRQHandler)
    TIM3_IRQHandler                          0x08002f1d   Thumb Code    10  stm32f4xx_it.o(i.TIM3_IRQHandler)
    TIM4_IRQHandler                          0x08002f2d   Thumb Code    10  stm32f4xx_it.o(i.TIM4_IRQHandler)
    TIM_Base_SetConfig                       0x08002f3d   Thumb Code   184  stm32f4xx_hal_tim.o(i.TIM_Base_SetConfig)
    TIM_CCxChannelCmd                        0x08003021   Thumb Code    28  stm32f4xx_hal_tim.o(i.TIM_CCxChannelCmd)
    TIM_OC2_SetConfig                        0x08003069   Thumb Code   112  stm32f4xx_hal_tim.o(i.TIM_OC2_SetConfig)
    TIM_TI1_SetConfig                        0x0800310d   Thumb Code   122  stm32f4xx_hal_tim.o(i.TIM_TI1_SetConfig)
    Tim_Start                                0x080031d1   Thumb Code    30  timer.o(i.Tim_Start)
    Tim_Stop                                 0x080031f9   Thumb Code    16  timer.o(i.Tim_Stop)
    Transmit_FB                              0x08003211   Thumb Code   118  bsp_usartx.o(i.Transmit_FB)
    UART4_IRQHandler                         0x08003295   Thumb Code    10  stm32f4xx_it.o(i.UART4_IRQHandler)
    UART_IDLE_Callback                       0x08003311   Thumb Code   212  bsp_usartx.o(i.UART_IDLE_Callback)
    US100_Distance                           0x0800386d   Thumb Code   428  us100.o(i.US100_Distance)
    US100_loop                               0x08003a49   Thumb Code    58  us100.o(i.US100_loop)
    USART1_IRQHandler                        0x08003a99   Thumb Code    10  stm32f4xx_it.o(i.USART1_IRQHandler)
    USART2_IRQHandler                        0x08003aa9   Thumb Code    10  stm32f4xx_it.o(i.USART2_IRQHandler)
    USART3_IRQHandler                        0x08003ab9   Thumb Code    16  stm32f4xx_it.o(i.USART3_IRQHandler)
    UsageFault_Handler                       0x08003acd   Thumb Code     4  stm32f4xx_it.o(i.UsageFault_Handler)
    __hardfp_fabs                            0x08003ae5   Thumb Code    20  fabs.o(i.__hardfp_fabs)
    __scatterload_copy                       0x08003af9   Thumb Code    14  handlers.o(i.__scatterload_copy)
    __scatterload_null                       0x08003b07   Thumb Code     2  handlers.o(i.__scatterload_null)
    __scatterload_zeroinit                   0x08003b09   Thumb Code    14  handlers.o(i.__scatterload_zeroinit)
    main                                     0x08003b19   Thumb Code   404  main.o(i.main)
    AHBPrescTable                            0x08003cd0   Data          16  system_stm32f4xx.o(.constdata)
    APBPrescTable                            0x08003ce0   Data           8  system_stm32f4xx.o(.constdata)
    Region$$Table$$Base                      0x08003ce8   Number         0  anon$$obj.o(Region$$Table)
    Region$$Table$$Limit                     0x08003d08   Number         0  anon$$obj.o(Region$$Table)
    clear_data                               0x20000000   Data           4  main.o(.data)
    i_time                                   0x20000004   Data           2  main.o(.data)
    i_txd                                    0x20000006   Data           2  main.o(.data)
    u100_flag                                0x20000008   Data           4  main.o(.data)
    Automatic_Flag                           0x2000000c   Data           4  main.o(.data)
    MLC_Flag                                 0x20000010   Data           4  main.o(.data)
    MOTOR_STOPLC                             0x20000014   Data           4  main.o(.data)
    uwTick                                   0x20000018   Data           4  stm32f4xx_hal.o(.data)
    SystemCoreClock                          0x2000001c   Data           4  system_stm32f4xx.o(.data)
    Us100_RxBuf                              0x20000020   Data           2  bsp_usartx.o(.data)
    Us100_TxBuf                              0x20000022   Data           1  bsp_usartx.o(.data)
    Rd905_i                                  0x20000023   Data           1  bsp_usartx.o(.data)
    Rd901_Data                               0x20000024   Data           4  bsp_usartx.o(.data)
    ptr_Fun_                                 0x20000028   Data           4  bsp_usartx.o(.data)
    DerTa                                    0x2000002c   Data           4  bsp_motor.o(.data)
    Reversal_Flag                            0x20000030   Data           4  bsp_motor.o(.data)
    i_us100                                  0x20000034   Data           4  us100.o(.data)
    us100_fori                               0x20000038   Data           1  us100.o(.data)
    us100_revi                               0x20000039   Data           1  us100.o(.data)
    Len_mm                                   0x2000003a   Data           2  us100.o(.data)
    us100distance                            0x2000003c   Data           2  us100.o(.data)
    Location                                 0x20000040   Data           8  bldcsensor.o(.data)
    husart_debug                             0x2000004c   Data          64  bsp_usartx.o(.bss)
    husart_wifi                              0x2000008c   Data          64  bsp_usartx.o(.bss)
    husart_rs485                             0x200000cc   Data          64  bsp_usartx.o(.bss)
    husart_us100                             0x2000010c   Data          64  bsp_usartx.o(.bss)
    husart_rd905                             0x2000014c   Data          64  bsp_usartx.o(.bss)
    RxBuf                                    0x2000018c   Data          10  bsp_usartx.o(.bss)
    TxBuf                                    0x20000196   Data          10  bsp_usartx.o(.bss)
    Rd905_RxBuf                              0x200001a0   Data          20  bsp_usartx.o(.bss)
    Rd905_TxBuf                              0x200001b4   Data          10  bsp_usartx.o(.bss)
    Msg                                      0x200001c0   Data          28  bsp_usartx.o(.bss)
    Dw_Msg                                   0x200001dc   Data          28  bsp_usartx.o(.bss)
    BLDC                                     0x200001f8   Data          24  bsp_motor.o(.bss)
    htim3_HALL                               0x20000210   Data          60  bldcsensor.o(.bss)
    htim2_HALL                               0x2000024c   Data          60  bldcsensor.o(.bss)
    hrtc                                     0x20000288   Data          32  rtc.o(.bss)
    hiwdg                                    0x200002a8   Data          12  iwdg.o(.bss)
    htim4                                    0x200002b4   Data          60  timer.o(.bss)
    __initial_sp                             0x200012f0   Data           0  startup_stm32f407xx.o(STACK)



==============================================================================

Memory Map of the image

  Image Entry point : 0x08000189

  Load Region LR_IROM1 (Base: 0x08000000, Size: 0x00003d54, Max: 0x00100000, ABSOLUTE)

    Execution Region ER_IROM1 (Exec base: 0x08000000, Load base: 0x08000000, Size: 0x00003d08, Max: 0x00100000, ABSOLUTE)

    Exec Addr    Load Addr    Size         Type   Attr      Idx    E Section Name        Object

    0x08000000   0x08000000   0x00000188   Data   RO            3    RESET               startup_stm32f407xx.o
    0x08000188   0x08000188   0x00000000   Code   RO         9336  * .ARM.Collect$$$$00000000  mc_w.l(entry.o)
    0x08000188   0x08000188   0x00000004   Code   RO         9357    .ARM.Collect$$$$00000001  mc_w.l(entry2.o)
    0x0800018c   0x0800018c   0x00000004   Code   RO         9360    .ARM.Collect$$$$00000004  mc_w.l(entry5.o)
    0x08000190   0x08000190   0x00000000   Code   RO         9362    .ARM.Collect$$$$00000008  mc_w.l(entry7b.o)
    0x08000190   0x08000190   0x00000000   Code   RO         9364    .ARM.Collect$$$$0000000A  mc_w.l(entry8b.o)
    0x08000190   0x08000190   0x00000008   Code   RO         9365    .ARM.Collect$$$$0000000B  mc_w.l(entry9a.o)
    0x08000198   0x08000198   0x00000000   Code   RO         9367    .ARM.Collect$$$$0000000D  mc_w.l(entry10a.o)
    0x08000198   0x08000198   0x00000000   Code   RO         9369    .ARM.Collect$$$$0000000F  mc_w.l(entry11a.o)
    0x08000198   0x08000198   0x00000004   Code   RO         9358    .ARM.Collect$$$$00002712  mc_w.l(entry2.o)
    0x0800019c   0x0800019c   0x00000024   Code   RO            4    .text               startup_stm32f407xx.o
    0x080001c0   0x080001c0   0x00000062   Code   RO         9339    .text               mc_w.l(ldiv.o)
    0x08000222   0x08000222   0x0000002c   Code   RO         9345    .text               mf_w.l(ffltl.o)
    0x0800024e   0x0800024e   0x0000001a   Code   RO         9347    .text               mf_w.l(dfltui.o)
    0x08000268   0x08000268   0x00000042   Code   RO         9349    .text               mf_w.l(ffixl.o)
    0x080002aa   0x080002aa   0x00000026   Code   RO         9351    .text               mf_w.l(f2d.o)
    0x080002d0   0x080002d0   0x00000030   Code   RO         9353    .text               mf_w.l(cdcmple.o)
    0x08000300   0x08000300   0x00000030   Code   RO         9355    .text               mf_w.l(cdrcmple.o)
    0x08000330   0x08000330   0x00000062   Code   RO         9371    .text               mc_w.l(uldiv.o)
    0x08000392   0x08000392   0x0000001e   Code   RO         9373    .text               mc_w.l(llshl.o)
    0x080003b0   0x080003b0   0x00000000   Code   RO         9375    .text               mc_w.l(iusefp.o)
    0x080003b0   0x080003b0   0x0000006e   Code   RO         9376    .text               mf_w.l(fepilogue.o)
    0x0800041e   0x0800041e   0x000000ba   Code   RO         9378    .text               mf_w.l(depilogue.o)
    0x080004d8   0x080004d8   0x00000024   Code   RO         9380    .text               mc_w.l(init.o)
    0x080004fc   0x080004fc   0x00000020   Code   RO         9382    .text               mc_w.l(llushr.o)
    0x0800051c   0x0800051c   0x000001dc   Code   RO           13    i.Analyse_Data_Callback  main.o
    0x080006f8   0x080006f8   0x00000004   Code   RO         8691    i.BusFault_Handler  stm32f4xx_it.o
    0x080006fc   0x080006fc   0x0000001c   Code   RO         8888    i.CheckSum          bsp_usartx.o
    0x08000718   0x08000718   0x00000014   Code   RO         8889    i.DEBUG_NVIC_USART_Init  bsp_usartx.o
    0x0800072c   0x0800072c   0x00000002   Code   RO         8692    i.DebugMon_Handler  stm32f4xx_it.o
    0x0800072e   0x0800072e   0x0000000a   Code   RO         8693    i.EXTI0_IRQHandler  stm32f4xx_it.o
    0x08000738   0x08000738   0x0000000a   Code   RO         8694    i.EXTI1_IRQHandler  stm32f4xx_it.o
    0x08000742   0x08000742   0x0000000a   Code   RO         8695    i.EXTI2_IRQHandler  stm32f4xx_it.o
    0x0800074c   0x0800074c   0x00000038   Code   RO         9141    i.Enable_HALL       bldcsensor.o
    0x08000784   0x08000784   0x00000050   Code   RO         9272    i.Genenral_Timx_Init  timer.o
    0x080007d4   0x080007d4   0x000000d8   Code   RO         9142    i.HALL_TIMx_Init    bldcsensor.o
    0x080008ac   0x080008ac   0x00000028   Code   RO          890    i.HAL_DMA_Abort_IT  stm32f4xx_hal_dma.o
    0x080008d4   0x080008d4   0x0000001e   Code   RO         1206    i.HAL_Delay         stm32f4xx_hal.o
    0x080008f2   0x080008f2   0x00000002   Code   RO          563    i.HAL_GPIO_EXTI_Callback  stm32f4xx_hal_gpio.o
    0x080008f4   0x080008f4   0x0000001c   Code   RO          564    i.HAL_GPIO_EXTI_IRQHandler  stm32f4xx_hal_gpio.o
    0x08000910   0x08000910   0x00000200   Code   RO          565    i.HAL_GPIO_Init     stm32f4xx_hal_gpio.o
    0x08000b10   0x08000b10   0x00000010   Code   RO          567    i.HAL_GPIO_ReadPin  stm32f4xx_hal_gpio.o
    0x08000b20   0x08000b20   0x00000008   Code   RO          568    i.HAL_GPIO_TogglePin  stm32f4xx_hal_gpio.o
    0x08000b28   0x08000b28   0x0000000c   Code   RO          569    i.HAL_GPIO_WritePin  stm32f4xx_hal_gpio.o
    0x08000b34   0x08000b34   0x0000000c   Code   RO         1212    i.HAL_GetTick       stm32f4xx_hal.o
    0x08000b40   0x08000b40   0x0000000e   Code   RO         3837    i.HAL_IWDG_Refresh  stm32f4xx_hal_iwdg.o
    0x08000b4e   0x08000b4e   0x00000002   PAD
    0x08000b50   0x08000b50   0x00000010   Code   RO         1214    i.HAL_IncTick       stm32f4xx_hal.o
    0x08000b60   0x08000b60   0x0000003c   Code   RO         1215    i.HAL_Init          stm32f4xx_hal.o
    0x08000b9c   0x08000b9c   0x00000028   Code   RO         1216    i.HAL_InitTick      stm32f4xx_hal.o
    0x08000bc4   0x08000bc4   0x00000056   Code   RO          341    i.HAL_MspInit       stm32f4xx_hal_msp.o
    0x08000c1a   0x08000c1a   0x00000002   PAD
    0x08000c1c   0x08000c1c   0x0000001c   Code   RO          631    i.HAL_NVIC_ClearPendingIRQ  stm32f4xx_hal_cortex.o
    0x08000c38   0x08000c38   0x0000001a   Code   RO          633    i.HAL_NVIC_EnableIRQ  stm32f4xx_hal_cortex.o
    0x08000c52   0x08000c52   0x0000007c   Code   RO          639    i.HAL_NVIC_SetPriority  stm32f4xx_hal_cortex.o
    0x08000cce   0x08000cce   0x00000002   PAD
    0x08000cd0   0x08000cd0   0x00000028   Code   RO          640    i.HAL_NVIC_SetPriorityGrouping  stm32f4xx_hal_cortex.o
    0x08000cf8   0x08000cf8   0x00000018   Code   RO          449    i.HAL_PWR_EnableBkUpAccess  stm32f4xx_hal_pwr.o
    0x08000d10   0x08000d10   0x000001b8   Code   RO         1408    i.HAL_RCCEx_PeriphCLKConfig  stm32f4xx_hal_rcc_ex.o
    0x08000ec8   0x08000ec8   0x000001d0   Code   RO          993    i.HAL_RCC_ClockConfig  stm32f4xx_hal_rcc.o
    0x08001098   0x08001098   0x0000000c   Code   RO          996    i.HAL_RCC_EnableCSS  stm32f4xx_hal_rcc.o
    0x080010a4   0x080010a4   0x0000000c   Code   RO          998    i.HAL_RCC_GetHCLKFreq  stm32f4xx_hal_rcc.o
    0x080010b0   0x080010b0   0x0000002c   Code   RO         1000    i.HAL_RCC_GetPCLK1Freq  stm32f4xx_hal_rcc.o
    0x080010dc   0x080010dc   0x0000002c   Code   RO         1001    i.HAL_RCC_GetPCLK2Freq  stm32f4xx_hal_rcc.o
    0x08001108   0x08001108   0x000000b4   Code   RO         1002    i.HAL_RCC_GetSysClockFreq  stm32f4xx_hal_rcc.o
    0x080011bc   0x080011bc   0x0000044c   Code   RO         1005    i.HAL_RCC_OscConfig  stm32f4xx_hal_rcc.o
    0x08001608   0x08001608   0x00000012   Code   RO         5039    i.HAL_RTCEx_BKUPRead  stm32f4xx_hal_rtc_ex.o
    0x0800161a   0x0800161a   0x00000012   Code   RO         5040    i.HAL_RTCEx_BKUPWrite  stm32f4xx_hal_rtc_ex.o
    0x0800162c   0x0800162c   0x000000b4   Code   RO         4908    i.HAL_RTC_Init      stm32f4xx_hal_rtc.o
    0x080016e0   0x080016e0   0x00000044   Code   RO         9203    i.HAL_RTC_MspInit   rtc.o
    0x08001724   0x08001724   0x00000028   Code   RO          642    i.HAL_SYSTICK_CLKSourceConfig  stm32f4xx_hal_cortex.o
    0x0800174c   0x0800174c   0x00000034   Code   RO           14    i.HAL_SYSTICK_Callback  main.o
    0x08001780   0x08001780   0x00000034   Code   RO          644    i.HAL_SYSTICK_Config  stm32f4xx_hal_cortex.o
    0x080017b4   0x080017b4   0x00000008   Code   RO          645    i.HAL_SYSTICK_IRQHandler  stm32f4xx_hal_cortex.o
    0x080017bc   0x080017bc   0x00000002   Code   RO         6914    i.HAL_TIMEx_BreakCallback  stm32f4xx_hal_tim_ex.o
    0x080017be   0x080017be   0x00000002   Code   RO         6915    i.HAL_TIMEx_CommutationCallback  stm32f4xx_hal_tim_ex.o
    0x080017c0   0x080017c0   0x000000c4   Code   RO         6922    i.HAL_TIMEx_HallSensor_Init  stm32f4xx_hal_tim_ex.o
    0x08001884   0x08001884   0x000000b0   Code   RO         9143    i.HAL_TIMEx_HallSensor_MspInit  bldcsensor.o
    0x08001934   0x08001934   0x0000001e   Code   RO         6925    i.HAL_TIMEx_HallSensor_Start  stm32f4xx_hal_tim_ex.o
    0x08001952   0x08001952   0x00000062   Code   RO         6931    i.HAL_TIMEx_MasterConfigSynchronization  stm32f4xx_hal_tim_ex.o
    0x080019b4   0x080019b4   0x00000034   Code   RO         6275    i.HAL_TIM_Base_Init  stm32f4xx_hal_tim.o
    0x080019e8   0x080019e8   0x00000048   Code   RO         9274    i.HAL_TIM_Base_MspInit  timer.o
    0x08001a30   0x08001a30   0x0000001e   Code   RO         6280    i.HAL_TIM_Base_Start_IT  stm32f4xx_hal_tim.o
    0x08001a4e   0x08001a4e   0x00000038   Code   RO         6283    i.HAL_TIM_Base_Stop_IT  stm32f4xx_hal_tim.o
    0x08001a86   0x08001a86   0x00000132   Code   RO         6284    i.HAL_TIM_ConfigClockSource  stm32f4xx_hal_tim.o
    0x08001bb8   0x08001bb8   0x00000002   Code   RO         6304    i.HAL_TIM_IC_CaptureCallback  stm32f4xx_hal_tim.o
    0x08001bba   0x08001bba   0x00000196   Code   RO         6317    i.HAL_TIM_IRQHandler  stm32f4xx_hal_tim.o
    0x08001d50   0x08001d50   0x00000002   Code   RO         6320    i.HAL_TIM_OC_DelayElapsedCallback  stm32f4xx_hal_tim.o
    0x08001d52   0x08001d52   0x00000002   Code   RO         6347    i.HAL_TIM_PWM_PulseFinishedCallback  stm32f4xx_hal_tim.o
    0x08001d54   0x08001d54   0x0000001c   Code   RO         9275    i.HAL_TIM_PeriodElapsedCallback  timer.o
    0x08001d70   0x08001d70   0x00000040   Code   RO         9144    i.HAL_TIM_TriggerCallback  bldcsensor.o
    0x08001db0   0x08001db0   0x00000002   Code   RO         7164    i.HAL_UART_AbortReceiveCpltCallback  stm32f4xx_hal_uart.o
    0x08001db2   0x08001db2   0x00000002   PAD
    0x08001db4   0x08001db4   0x00000078   Code   RO         7165    i.HAL_UART_AbortReceive_IT  stm32f4xx_hal_uart.o
    0x08001e2c   0x08001e2c   0x00000002   Code   RO         7174    i.HAL_UART_ErrorCallback  stm32f4xx_hal_uart.o
    0x08001e2e   0x08001e2e   0x00000002   PAD
    0x08001e30   0x08001e30   0x0000014c   Code   RO         7177    i.HAL_UART_IRQHandler  stm32f4xx_hal_uart.o
    0x08001f7c   0x08001f7c   0x00000072   Code   RO         7178    i.HAL_UART_Init     stm32f4xx_hal_uart.o
    0x08001fee   0x08001fee   0x00000002   PAD
    0x08001ff0   0x08001ff0   0x000001d0   Code   RO         8891    i.HAL_UART_MspInit  bsp_usartx.o
    0x080021c0   0x080021c0   0x00000064   Code   RO         7183    i.HAL_UART_Receive_IT  stm32f4xx_hal_uart.o
    0x08002224   0x08002224   0x000000ac   Code   RO         8892    i.HAL_UART_RxCpltCallback  bsp_usartx.o
    0x080022d0   0x080022d0   0x00000058   Code   RO         7188    i.HAL_UART_Transmit_IT  stm32f4xx_hal_uart.o
    0x08002328   0x08002328   0x00000002   Code   RO         7189    i.HAL_UART_TxCpltCallback  stm32f4xx_hal_uart.o
    0x0800232a   0x0800232a   0x00000004   Code   RO         8696    i.HardFault_Handler  stm32f4xx_it.o
    0x0800232e   0x0800232e   0x00000002   PAD
    0x08002330   0x08002330   0x00000038   Code   RO         8834    i.KEY1_StateRead    bsp_key.o
    0x08002368   0x08002368   0x00000038   Code   RO         8835    i.KEY2_StateRead    bsp_key.o
    0x080023a0   0x080023a0   0x00000038   Code   RO         8836    i.KEY3_StateRead    bsp_key.o
    0x080023d8   0x080023d8   0x00000038   Code   RO         8837    i.KEY4_StateRead    bsp_key.o
    0x08002410   0x08002410   0x00000038   Code   RO         8838    i.KEY5_StateRead    bsp_key.o
    0x08002448   0x08002448   0x000000c8   Code   RO         8839    i.KEY_GPIO_Init     bsp_key.o
    0x08002510   0x08002510   0x000000cc   Code   RO         9044    i.LED_GPIO_Init     bsp_led.o
    0x080025dc   0x080025dc   0x000000a8   Code   RO         9045    i.LEDx_StateSet     bsp_led.o
    0x08002684   0x08002684   0x000000d8   Code   RO         8988    i.MOTOR_GPIO_Init   bsp_motor.o
    0x0800275c   0x0800275c   0x0000018c   Code   RO         8893    i.MX_USART_Init     bsp_usartx.o
    0x080028e8   0x080028e8   0x00000004   Code   RO         8697    i.MemManage_Handler  stm32f4xx_it.o
    0x080028ec   0x080028ec   0x0000007c   Code   RO         9145    i.MotorHall_Location  bldcsensor.o
    0x08002968   0x08002968   0x000000b4   Code   RO         8989    i.MotorLocation_Control  bsp_motor.o
    0x08002a1c   0x08002a1c   0x000001b4   Code   RO         8990    i.Motor_Automatic   bsp_motor.o
    0x08002bd0   0x08002bd0   0x0000001c   Code   RO         8991    i.Motor_BLDC_Init   bsp_motor.o
    0x08002bec   0x08002bec   0x00000088   Code   RO         8992    i.Motor_Control     bsp_motor.o
    0x08002c74   0x08002c74   0x00000002   Code   RO         8698    i.NMI_Handler       stm32f4xx_it.o
    0x08002c76   0x08002c76   0x00000002   PAD
    0x08002c78   0x08002c78   0x00000010   Code   RO          646    i.NVIC_GetPriorityGrouping  stm32f4xx_hal_cortex.o
    0x08002c88   0x08002c88   0x00000028   Code   RO          647    i.NVIC_SetPriority  stm32f4xx_hal_cortex.o
    0x08002cb0   0x08002cb0   0x00000002   Code   RO         8699    i.PendSV_Handler    stm32f4xx_it.o
    0x08002cb2   0x08002cb2   0x00000022   Code   RO         9107    i.RD901CheckSum     rd905.o
    0x08002cd4   0x08002cd4   0x00000014   Code   RO         8894    i.RS485_NVIC_USART_Init  bsp_usartx.o
    0x08002ce8   0x08002ce8   0x0000003e   Code   RO         4919    i.RTC_EnterInitMode  stm32f4xx_hal_rtc.o
    0x08002d26   0x08002d26   0x00000002   PAD
    0x08002d28   0x08002d28   0x000000ac   Code   RO         9204    i.RTC_Init          rtc.o
    0x08002dd4   0x08002dd4   0x00000002   Code   RO         8700    i.SVC_Handler       stm32f4xx_it.o
    0x08002dd6   0x08002dd6   0x0000000c   Code   RO         8701    i.SysTick_Handler   stm32f4xx_it.o
    0x08002de2   0x08002de2   0x00000002   PAD
    0x08002de4   0x08002de4   0x000000c4   Code   RO           15    i.SystemClock_Config  main.o
    0x08002ea8   0x08002ea8   0x00000064   Code   RO         8655    i.SystemInit        system_stm32f4xx.o
    0x08002f0c   0x08002f0c   0x00000010   Code   RO         8702    i.TIM2_IRQHandler   stm32f4xx_it.o
    0x08002f1c   0x08002f1c   0x00000010   Code   RO         8703    i.TIM3_IRQHandler   stm32f4xx_it.o
    0x08002f2c   0x08002f2c   0x00000010   Code   RO         8704    i.TIM4_IRQHandler   stm32f4xx_it.o
    0x08002f3c   0x08002f3c   0x000000e4   Code   RO         6359    i.TIM_Base_SetConfig  stm32f4xx_hal_tim.o
    0x08003020   0x08003020   0x0000001c   Code   RO         6360    i.TIM_CCxChannelCmd  stm32f4xx_hal_tim.o
    0x0800303c   0x0800303c   0x00000018   Code   RO         6366    i.TIM_ETR_SetConfig  stm32f4xx_hal_tim.o
    0x08003054   0x08003054   0x00000014   Code   RO         6367    i.TIM_ITRx_SetConfig  stm32f4xx_hal_tim.o
    0x08003068   0x08003068   0x00000078   Code   RO         6369    i.TIM_OC2_SetConfig  stm32f4xx_hal_tim.o
    0x080030e0   0x080030e0   0x0000002a   Code   RO         6373    i.TIM_TI1_ConfigInputStage  stm32f4xx_hal_tim.o
    0x0800310a   0x0800310a   0x00000002   PAD
    0x0800310c   0x0800310c   0x00000098   Code   RO         6374    i.TIM_TI1_SetConfig  stm32f4xx_hal_tim.o
    0x080031a4   0x080031a4   0x0000002c   Code   RO         6375    i.TIM_TI2_ConfigInputStage  stm32f4xx_hal_tim.o
    0x080031d0   0x080031d0   0x00000028   Code   RO         9276    i.Tim_Start         timer.o
    0x080031f8   0x080031f8   0x00000018   Code   RO         9277    i.Tim_Stop          timer.o
    0x08003210   0x08003210   0x00000084   Code   RO         8895    i.Transmit_FB       bsp_usartx.o
    0x08003294   0x08003294   0x00000010   Code   RO         8705    i.UART4_IRQHandler  stm32f4xx_it.o
    0x080032a4   0x080032a4   0x00000014   Code   RO         7191    i.UART_DMAAbortOnError  stm32f4xx_hal_uart.o
    0x080032b8   0x080032b8   0x00000018   Code   RO         7196    i.UART_DMARxOnlyAbortCallback  stm32f4xx_hal_uart.o
    0x080032d0   0x080032d0   0x00000020   Code   RO         7201    i.UART_EndRxTransfer  stm32f4xx_hal_uart.o
    0x080032f0   0x080032f0   0x00000020   Code   RO         7202    i.UART_EndTransmit_IT  stm32f4xx_hal_uart.o
    0x08003310   0x08003310   0x000000f0   Code   RO         8896    i.UART_IDLE_Callback  bsp_usartx.o
    0x08003400   0x08003400   0x0000009a   Code   RO         7204    i.UART_Receive_IT   stm32f4xx_hal_uart.o
    0x0800349a   0x0800349a   0x00000002   PAD
    0x0800349c   0x0800349c   0x00000368   Code   RO         7205    i.UART_SetConfig    stm32f4xx_hal_uart.o
    0x08003804   0x08003804   0x00000068   Code   RO         7206    i.UART_Transmit_IT  stm32f4xx_hal_uart.o
    0x0800386c   0x0800386c   0x000001c8   Code   RO         9074    i.US100_Distance    us100.o
    0x08003a34   0x08003a34   0x00000014   Code   RO         8897    i.US100_NVIC_USART_Init  bsp_usartx.o
    0x08003a48   0x08003a48   0x00000050   Code   RO         9075    i.US100_loop        us100.o
    0x08003a98   0x08003a98   0x00000010   Code   RO         8706    i.USART1_IRQHandler  stm32f4xx_it.o
    0x08003aa8   0x08003aa8   0x00000010   Code   RO         8707    i.USART2_IRQHandler  stm32f4xx_it.o
    0x08003ab8   0x08003ab8   0x00000014   Code   RO         8708    i.USART3_IRQHandler  stm32f4xx_it.o
    0x08003acc   0x08003acc   0x00000004   Code   RO         8709    i.UsageFault_Handler  stm32f4xx_it.o
    0x08003ad0   0x08003ad0   0x00000014   Code   RO         8898    i.WIFI_NVIC_USART_Init  bsp_usartx.o
    0x08003ae4   0x08003ae4   0x00000014   Code   RO         9330    i.__hardfp_fabs     m_wm.l(fabs.o)
    0x08003af8   0x08003af8   0x0000000e   Code   RO         9386    i.__scatterload_copy  mc_w.l(handlers.o)
    0x08003b06   0x08003b06   0x00000002   Code   RO         9387    i.__scatterload_null  mc_w.l(handlers.o)
    0x08003b08   0x08003b08   0x0000000e   Code   RO         9388    i.__scatterload_zeroinit  mc_w.l(handlers.o)
    0x08003b16   0x08003b16   0x00000002   PAD
    0x08003b18   0x08003b18   0x000001b8   Code   RO           16    i.main              main.o
    0x08003cd0   0x08003cd0   0x00000018   Data   RO         8656    .constdata          system_stm32f4xx.o
    0x08003ce8   0x08003ce8   0x00000020   Data   RO         9384    Region$$Table       anon$$obj.o


    Execution Region RW_IRAM1 (Exec base: 0x20000000, Load base: 0x08003d08, Size: 0x000012f0, Max: 0x00020000, ABSOLUTE)

    Exec Addr    Load Addr    Size         Type   Attr      Idx    E Section Name        Object

    0x20000000   0x08003d08   0x00000018   Data   RW           18    .data               main.o
    0x20000018   0x08003d20   0x00000004   Data   RW         1221    .data               stm32f4xx_hal.o
    0x2000001c   0x08003d24   0x00000004   Data   RW         8657    .data               system_stm32f4xx.o
    0x20000020   0x08003d28   0x0000000c   Data   RW         8902    .data               bsp_usartx.o
    0x2000002c   0x08003d34   0x00000008   Data   RW         8994    .data               bsp_motor.o
    0x20000034   0x08003d3c   0x0000000a   Data   RW         9076    .data               us100.o
    0x2000003e   0x08003d46   0x00000002   PAD
    0x20000040   0x08003d48   0x00000008   Data   RW         9147    .data               bldcsensor.o
    0x20000048   0x08003d50   0x00000001   Data   RW         9279    .data               timer.o
    0x20000049   0x08003d51   0x00000003   PAD
    0x2000004c        -       0x000001ac   Zero   RW         8901    .bss                bsp_usartx.o
    0x200001f8        -       0x00000018   Zero   RW         8993    .bss                bsp_motor.o
    0x20000210        -       0x00000078   Zero   RW         9146    .bss                bldcsensor.o
    0x20000288        -       0x00000020   Zero   RW         9205    .bss                rtc.o
    0x200002a8        -       0x0000000c   Zero   RW         9243    .bss                iwdg.o
    0x200002b4        -       0x0000003c   Zero   RW         9278    .bss                timer.o
    0x200002f0        -       0x00001000   Zero   RW            1    STACK               startup_stm32f407xx.o


==============================================================================

Image component sizes


      Code (inc. data)   RO Data    RW Data    ZI Data      Debug   Object Name

       636         66          0          8        120       4377   bldcsensor.o
       480         40          0          0          0       4109   bsp_key.o
       372         20          0          0          0       1824   bsp_led.o
       996         78          0          8         24       6052   bsp_motor.o
      1512        170          0         12        428      11709   bsp_usartx.o
         0          0          0          0         12        248   iwdg.o
      1164         90          0         24          0     706493   main.o
        34          0          0          0          0       1148   rd905.o
       240         28          0          0         32       1937   rtc.o
        36          8        392          0       4096        860   startup_stm32f407xx.o
       158         20          0          4          0       4743   stm32f4xx_hal.o
       374         28          0          0          0      33225   stm32f4xx_hal_cortex.o
        40          0          0          0          0       1219   stm32f4xx_hal_dma.o
       578         50          0          0          0       5120   stm32f4xx_hal_gpio.o
        14          0          0          0          0       1087   stm32f4xx_hal_iwdg.o
        86          0          0          0          0        554   stm32f4xx_hal_msp.o
        24          4          0          0          0        591   stm32f4xx_hal_pwr.o
      1856         84          0          0          0       6360   stm32f4xx_hal_rcc.o
       440         20          0          0          0       1488   stm32f4xx_hal_rcc_ex.o
       242          4          0          0          0       1983   stm32f4xx_hal_rtc.o
        36          0          0          0          0       1911   stm32f4xx_hal_rtc_ex.o
      1514         82          0          0          0      12608   stm32f4xx_hal_tim.o
       328          0          0          0          0       4135   stm32f4xx_hal_tim_ex.o
      1998         20          0          0          0      11425   stm32f4xx_hal_uart.o
       182         40          0          0          0       9820   stm32f4xx_it.o
       100         18         24          4          0       1287   system_stm32f4xx.o
       244         50          0          1         60       3643   timer.o
       536         50          0         10          0       1935   us100.o

    ----------------------------------------------------------------------
     14244        970        448         76       4772     841891   Object Totals
         0          0         32          0          0          0   (incl. Generated)
        24          0          0          5          0          0   (incl. Padding)

    ----------------------------------------------------------------------

      Code (inc. data)   RO Data    RW Data    ZI Data      Debug   Library Member Name

        20          0          0          0          0        124   fabs.o
         0          0          0          0          0          0   entry.o
         0          0          0          0          0          0   entry10a.o
         0          0          0          0          0          0   entry11a.o
         8          4          0          0          0          0   entry2.o
         4          0          0          0          0          0   entry5.o
         0          0          0          0          0          0   entry7b.o
         0          0          0          0          0          0   entry8b.o
         8          4          0          0          0          0   entry9a.o
        30          0          0          0          0          0   handlers.o
        36          8          0          0          0         68   init.o
         0          0          0          0          0          0   iusefp.o
        98          0          0          0          0         84   ldiv.o
        30          0          0          0          0         68   llshl.o
        32          0          0          0          0         68   llushr.o
        98          0          0          0          0         92   uldiv.o
        48          0          0          0          0         68   cdcmple.o
        48          0          0          0          0         68   cdrcmple.o
       186          0          0          0          0        176   depilogue.o
        26          0          0          0          0         76   dfltui.o
        38          0          0          0          0         68   f2d.o
       110          0          0          0          0        168   fepilogue.o
        66          0          0          0          0         76   ffixl.o
        44          0          0          0          0         92   ffltl.o

    ----------------------------------------------------------------------
       932         16          0          0          0       1296   Library Totals
         2          0          0          0          0          0   (incl. Padding)

    ----------------------------------------------------------------------

      Code (inc. data)   RO Data    RW Data    ZI Data      Debug   Library Name

        20          0          0          0          0        124   m_wm.l
       344         16          0          0          0        380   mc_w.l
       566          0          0          0          0        792   mf_w.l

    ----------------------------------------------------------------------
       932         16          0          0          0       1296   Library Totals

    ----------------------------------------------------------------------

==============================================================================


      Code (inc. data)   RO Data    RW Data    ZI Data      Debug   

     15176        986        448         76       4772     830071   Grand Totals
     15176        986        448         76       4772     830071   ELF Image Totals
     15176        986        448         76          0          0   ROM Totals

==============================================================================

    Total RO  Size (Code + RO Data)                15624 (  15.26kB)
    Total RW  Size (RW Data + ZI Data)              4848 (   4.73kB)
    Total ROM Size (Code + RO Data + RW Data)      15700 (  15.33kB)

==============================================================================

