:020000040800F2
:10000000901200209D010008111F0008251900080A
:10001000991E0008F90200088D2800080000000061
:10002000000000000000000000000000851F000824
:100030002D030008000000004D1F0008871F000866
:10004000B7010008B7010008B7010008B7010008B0
:10005000B7010008B70100082F03000839030008A2
:1000600043030008B7010008B7010008B701000802
:10007000B7010008B7010008B7010008B701000880
:10008000B7010008B7010008B7010008B701000870
:10009000B7010008B7010008B7010008B701000860
:1000A000B7010008B7010008B7010008B701000850
:1000B000B7010008B9200008B7010008B70100081F
:1000C000B7010008B7010008B7010008B701000830
:1000D000B70100085D2800086D2800087D28000889
:1000E000B7010008B7010008B7010008B701000810
:1000F000B7010008B7010008C9200008B7010008CF
:10010000B7010008B7010008B7010008B7010008EF
:1001100059210008B7010008B7010008B70100081D
:10012000B7010008B7010008B7010008B7010008CF
:10013000B7010008B7010008B7010008B7010008BF
:10014000B7010008B7010008B7010008B7010008AF
:10015000B7010008B7010008B7010008B70100089F
:10016000B7010008B7010008B7010008B70100088F
:10017000B7010008B7010008B7010008000000003F
:10018000B7010008B7010008DFF80CD000F02EF826
:1001900000480047552A0008901200200648804772
:1001A00006480047FEE7FEE7FEE7FEE7FEE7FEE75C
:1001B000FEE7FEE7FEE7FEE755200008890100089C
:1001C00030B50B46014600202022012409E021FA27
:1001D00002F59D4205D303FA02F5491B04FA02F524
:1001E0002844151EA2F10102F1DC30BD064C074D7A
:1001F00006E0E06840F0010394E8070098471034F7
:10020000AC42F6D3FFF7C4FFC42A0008E42A000872
:1002100038B500200090354D354CA81E4078211F80
:1002200008700020009008E015F8010B04F8010B9D
:100230009DF80000401CC0B200909DF80000062808
:10024000F2DB2B48001F0078602806D0612817D009
:10025000622828D0632846D135E0012001F01EFE37
:100260000120244908700021022001F097FC0021A0
:10027000042001F093FC0121084601F08FFC33E0DB
:10028000022001F00BFE02201A4908700021012013
:1002900001F084FC0021042001F080FC01210220F7
:1002A00001F07CFC20E0032001F0F8FD002101209A
:1002B00001F074FC0021022001F070FC01210420F7
:1002C00001F06CFC10E0062001F0E8FD00210120A7
:1002D00001F064FC0021022001F060FC00210420F8
:1002E00001F05CFC00E000BF00BF38BDB60100209B
:1002F000EC0100202800002000BFFEE710B50246F8
:10030000002003E013780344D8B2521C0B00A1F183
:100310000104E1B2F6D110BD10B50022114625202E
:1003200000F090FA252000F080FA10BD704710B55B
:10033000012000F0EFF810BD10B5022000F0EAF83F
:1003400010BD10B5042000F0E5F810BD00B587B071
:1003500000BF002001903748006840F04000354958
:1003600008600846006800F04000019000BF00BF30
:1003700000BF002001900846006840F0400008607F
:100380000846006800F04000019000BF00BF00BFB9
:10039000002001900846006840F0400008600846D0
:1003A000006800F04000019000BF00BF01200290F3
:1003B000214803900120049002200590002006901F
:1003C00002A91E4800F0B4F8022002901A480390D7
:1003D00001200490022005900020069002A91748F1
:1003E00000F0A6F804200290134803900120049026
:1003F000022005900020069002A9104800F098F80D
:1004000001220021062000F01DFA062000F00DFA5E
:1004100001220021072000F015FA072000F005FA5C
:1004200001220021082000F00DFA082000F0FDF95B
:1004300007B000BD30380240000021100018024013
:10044000014691F83500022803D08020486501203C
:100450007047052081F835000868006820F0010029
:100460000A6810600020F3E731B500F073F9054623
:10047000009C601C00B1641C00BF00F06BF9401BC5
:10048000A042FAD338BD000010B5044601211E4831
:1004900000F04EF970B91D480078012805D11C48BC
:1004A0000068401C1A49086004E019480068401EB2
:1004B000174908600221144800F03AF970B913484E
:1004C0000078012805D112484068401C1049486056
:1004D00004E00F484068401E0D49486004210A4866
:1004E00000F026F970B909480078012805D10848BC
:1004F0008068401C0649886004E005488068401E0A
:100500000349886010BD0000001802402800002048
:100510008002002010B5044604480068204020B145
:10052000024804602046FFF7AFFF10BD143C0140B5
:10053000F8B502460B460025002400200021DCE02F
:10054000012606FA01F51E6806EA0504AC4273D1DD
:100550005E68022E02D05E68122E13D1CF0802F11F
:10056000200656F827004E07F70E0F26BE40B04370
:100570004F07FF0E1E69BE403043CF0802F1200630
:1005800046F8270010684F000326BE40B0431E798E
:1005900006F003064F00BE40304310605E68012E37
:1005A00008D05E68022E05D05E68112E02D05E680B
:1005B000122E13D190684F000326BE40B0434F0067
:1005C000DE68BE4030439060506801268E40B043E4
:1005D0001E79C6F300168E4030435060D0684F003D
:1005E0000326BE40B0434F009E68BE403043D060FB
:1005F0005E6806F08056B6F1805F7DD100BF0026B0
:100600000096404E366846F480463E4F3E603E4679
:10061000366806F48046009600BF00BF3A4E8F0849
:1006200056F827008E07370F0F26BE40B043374ECF
:10063000B24202D1002624E05EE0354EB24201D142
:1006400001261EE0334EB24201D1022619E0324E9D
:10065000B24201D1032614E0304EB24201D1042649
:100660000FE02F4EB24201D105260AE02D4EB242D4
:1006700001D1062605E02C4EB24201D1072600E04A
:1006800008268F073F0FBE4030431F4E8F0846F8A5
:100690002700264E3068A0435E6806F48036B6F523
:1006A000803F00D12043214E3060361D3068A0438A
:1006B0005E6806F40036B6F5003F00D120431B4EBD
:1006C000361D3060361D3068A0435E6806F4801623
:1006D000B6F5801F00D12043144E08363060361D19
:1006E0003068A0435E6806F40016B6F5001F00D11E
:1006F00020430E4E0C363060491C1029FFF420AF09
:10070000F8BD0000443802400838014000000240B3
:100710000004024000080240000C024000100240A9
:100720000014024000180240001C0240003C01403E
:10073000024613690B400BB1012000E00020704716
:1007400042694A40426170470AB1816101E00B048D
:10075000836170470148006870470000080000206E
:1007600002480068401C01490860704708000020EA
:1007700010B50D48006840F400700B490860084649
:10078000006840F4806008600846006840F48070AB
:100790000860032000F094F8002000F007F800F053
:1007A00019F8002010BD0000003C024070B504465E
:1007B000074800684FF47A71B0FBF1F5284600F065
:1007C00061FC00222146501E00F03CF8002070BD64
:1007D0000C00002010B5052000F072F80022114630
:1007E0006FF00B0000F02EF8002211466FF00A00A7
:1007F00000F028F8002211466FF0090000F022F8FE
:1008000000221146501F00F01DF800221146101F53
:1008100000F018F800221146901E00F013F8002294
:100820001146501E00F00EF810BD00BF00F01F0270
:10083000012191404209920002F1E022C2F8001128
:1008400000BF70472DE9F05F80460D461646002731
:1008500001F060FB074639462A46334601F007009F
:10086000C0F1070ABAF1040F02D94FF0040A01E0FF
:10087000C0F1070AD14600F1040ABAF1070F02D20B
:100880004FF0000A01E0A0F1030AD4464FF0010A3C
:100890000AFA09FAAAF1010A0AEA020A0AFA0CFAA1
:1008A0004FF0010B0BFA0CFBABF1010B0BEA030B46
:1008B0004AEA0B042146404601F034FBBDE8F09FB4
:1008C00000BF00F00702064B19684FF6FF031940FE
:1008D000044B0B4343EA0221014B196000BF7047F0
:1008E0000CED00E00000FA0570B504460D46002648
:1008F0006D48006800F00F00A84209D26A490D70E7
:100900000846006800F00F00A84201D0012070BD29
:10091000207800F00200022807D16448006820F027
:10092000F000A168084361490860207800F00100E8
:10093000002877D06068012807D15C480838006833
:10094000C0F34040B8B90120E1E76068022802D056
:100950006068032807D1554808380068C0F3406034
:1009600048B90120D3E7514808380068C0F3400077
:1009700008B90120CBE74D48006820F0030061680A
:1009800008434A490860FFF7E5FE0646606801280B
:1009900010D108E0FFF7DEFE801B41F2883188426B
:1009A00001D90320B3E74148006800F00C00042897
:1009B000F0D137E06068022810D108E0FFF7CAFEE6
:1009C000801B41F28831884201D903209FE73748D4
:1009D000006800F00C000828F0D123E060680328CC
:1009E00010D108E0FFF7B6FE801B41F28831884243
:1009F00001D903208BE72D48006800F00C000C287B
:100A0000F0D10FE008E0FFF7A5FE801B41F288312E
:100A1000884201D903207AE72448006800F00C00DE
:100A20000028F0D12048006800F00F00A84209D942
:100A30001D490D700846006800F00F00A84201D063
:100A4000012064E7207800F00400042807D117484B
:100A5000006820F4E050E1680843144908602078F9
:100A600000F00800082808D11048006820F4604011
:100A7000216940EAC1000D49086000F055F80B49B2
:100A8000096801F0F001F02292FAA2F2B2FA82F2C1
:100A9000D140074A515CC840064908600020FFF772
:100AA00085FE002033E70000003C02400838024089
:100AB000AA2A00080C00002001200149C8647047E0
:100AC0000000474201480068704700000C00002009
:100AD00000B5FFF7F7FF0749096801F4E0514FF44B
:100AE000E05292FAA2F2B2FA82F2D140024A515C8A
:100AF000C84000BD08380240BA2A000800B5FFF718
:100B0000E1FF0749096801F460414FF4604292FA3D
:100B1000A2F2B2FA82F2D140024A515CC84000BD52
:100B200008380240BA2A000870B5002100220023CC
:100B30000020274C246804F00C0424B1042C04D0B9
:100B4000082C41D103E0234840E023483EE0204CFC
:100B5000241F246804F03F011D4C241F246804F462
:100B6000800484B11C4CB4FBF1F5194C241F24689B
:100B700047F6C076344096FAA6F6B6FA86F6F44002
:100B800005FB04F20FE0134CB4FBF1F5104C241FED
:100B9000246847F6C076344096FAA6F6B6FA86F68A
:100BA000F44005FB04F20A4C241F246804F440348A
:100BB0004FF4403595FAA5F5B5FA85F5EC40641C7F
:100BC0006300B2FBF3F001E0024800BF00BF70BD5C
:100BD000083802400024F40000127A0038B50446B8
:100BE0000025207800F00100002874D0F748006844
:100BF00000F00C0004280DD0F448006800F00C0050
:100C0000082813D1F148001F006800F48000B0F5F7
:100C1000800F0BD1ED4808380068C0F34040002831
:100C200059D06068002856D1012038BD00BF6068E7
:100C3000B0F5803F08D1E5480838006840F48030BE
:100C4000E249083908601EE06068B0F5A02F0DD1B8
:100C5000DE480838006840F48020DC490839086024
:100C60000846006840F4803008600CE0D748083837
:100C7000006820F48030D5490839086008460068CB
:100C800020F48020086000BF606890B1FFF762FD2B
:100C9000054606E0FFF75EFD401B642801D90320EE
:100CA000C3E7CA4808380068C0F340400028F1D0C4
:100CB00011E0FFF74FFD054606E0FFF74BFD401B37
:100CC000642801D90320B0E7C04808380068C0F3A1
:100CD00040400028F1D1207800F00200022869D1BC
:100CE000BA48006800F00C0058B1B848006800F03D
:100CF0000C00082821D1B548001F006800F48000CE
:100D0000D8B9B24808380068C0F3400020B1E068A4
:100D1000012801D0012088E7AC480838006820F09D
:100D2000F800F82292FAA2F2B2FA82F22169914016
:100D30000843A649083908603CE0E06828B3012070
:100D4000A3490860FFF706FD054606E0FFF702FD30
:100D5000401B022801D9032067E79C480838006837
:100D6000C0F340000028F1D098480838006820F00F
:100D7000F800F82292FAA2F2B2FA82F221699140C6
:100D8000084392490839086014E00020904908603F
:100D9000FFF7E0FC054606E0FFF7DCFC401B0228FD
:100DA00001D9032041E7894808380068C0F34000B2
:100DB0000028F1D1207800F0080008282CD16069C3
:100DC000A8B1012083490860FFF7C4FC054606E08E
:100DD000FFF7C0FC401B022801D9032025E77B4810
:100DE0006C300068C0F340000028F1D014E000200F
:100DF00078490860FFF7AEFC054606E0FFF7AAFC5D
:100E0000401B022801D903200FE770486C300068AE
:100E1000C0F340000028F1D1207800F0040004283D
:100E20007FD100BF0020009068483830006840F053
:100E300080506649383108600846006800F08050EC
:100E4000009000BF00BF6448006840F480706249B1
:100E50000860FFF77FFC054606E0FFF77BFC401BC0
:100E6000022801D90320E0E65B48006800F48070A6
:100E70000028F2D000BFA068012808D1534868308C
:100E8000006840F001005149683108601DE0A06829
:100E900005280DD14D486830006840F004004B49EA
:100EA000683108600846006840F0010008600CE006
:100EB00046486830006820F0010044496831086005
:100EC0000846006820F00400086000BFA068A0B1D8
:100ED000FFF740FC054608E0FFF73CFC401B41F2F1
:100EE0008831884201D903209FE63848683000687D
:100EF000C0F340000028EFD013E0FFF72BFC0546BD
:100F000008E0FFF727FC401B41F28831884201D9F5
:100F100003208AE62D4868300068C0F340000028AE
:100F2000EFD1A069F0B32948006800F00C00082850
:100F300071D0A069022858D1002025490866FFF722
:100F400009FC054606E0FFF705FC401B022801D915
:100F500003206AE61D4808380068C0F34060002896
:100F6000F1D1D4E90701084347F6C07292FAA2F220
:100F7000B2FA82F2616A914008430122A16AC2EB8F
:100F800051014FF4403292FAA2F2B2FA82F2914049
:100F900008434FF0706292FAA2F2B2FA82F2E16A6A
:100FA000914000E039E008430849091F086001202A
:100FB00007490866FFF7CEFB05460FE0FFF7CAFBBF
:100FC000401B02280AD903202FE6000008380240FF
:100FD00000004742800E4742007000401048006801
:100FE000C0F340600028E9D017E000200D490866F2
:100FF000FFF7B0FB054606E0FFF7ACFB401B0228FD
:1010000001D9032011E606480068C0F340600028BB
:10101000F2D102E0FFE7012007E6002005E600002C
:101020000038024000004742042808D14FF0E02178
:10103000096941F004014FF0E022116107E04FF02F
:10104000E021096921F004014FF0E02211617047AD
:1010500010B50A480088C82805DA08480088401CEE
:101060000649088008E006480068012804D101F01C
:1010700011FB00200149088010BD00000000002085
:101080000400002070B504462546681EB0F1807F3C
:1010900001D301200FE0681E4FF0E02148610F21CD
:1010A0004FF0FF3000F03EFF00204FF0E02188615C
:1010B00007200861002070BD10B5FFF7C9FF10BD03
:1010C00070477047704710B5044620680069C0F348
:1010D0004000D8B12068C068C0F34000B0B16FF0E4
:1010E000020021680861012020762068806900F0F4
:1010F000030018B12046FFF7E5FF05E0204600F0A9
:10110000ADF8204600F0BAF800202076206800698B
:10111000C0F38000D8B12068C068C0F38000B0B1CF
:101120006FF0040021680861022020762068806941
:1011300000F4407018B12046FFF7C4FF05E02046D8
:1011400000F08CF8204600F099F800202076206806
:101150000069C0F3C000D8B12068C068C0F3C00007
:10116000B0B16FF008002168086104202076206883
:10117000C06900F0030018B12046FFF7A3FF05E0A7
:10118000204600F06BF8204600F078F8002020762A
:1011900020680069C0F30010D8B12068C068C0F3AF
:1011A0000010B0B16FF010002168086108202076AF
:1011B0002068C06900F4407018B12046FFF782FF34
:1011C00005E0204600F04AF8204600F057F80020DD
:1011D00020762068006900F0010058B12068C068DE
:1011E00000F0010030B16FF0010021680861204675
:1011F00000F046F820680069C0F3C01058B12068BC
:10120000C068C0F3C01030B16FF080002168086181
:101210002046FFF755FF20680069C0F3801058B1E1
:101220002068C068C0F3801030B16FF040002168C2
:101230000861204600F03EF820680069C0F34010C5
:1012400058B12068C068C0F3401030B16FF0200082
:10125000216808612046FFF734FF10BD0246054BA8
:101260001B68586A044B1B88034499B2014B1B68E6
:1012700059637047380000201000002070470000BC
:101280000A490968096801F01001102906D10849C6
:101290000988491E09B2064A118005E004490988F7
:1012A000491C09B2024A1180704700002002002048
:1012B00024000020704770472DE9F047044620685D
:1012C00005682068C668206847694FF00008C14675
:1012D00005F00F08B8F1000F0AD105F0200038B171
:1012E00006F0200020B1204600F068FFBDE8F0873E
:1012F000B8F1000F6DD007F0010018B906F4907036
:10130000002866D005F0010030B106F4807018B1F5
:10131000E06B40F00100E06305F0040030B107F03D
:10132000010018B1E06B40F00200E06305F002003C
:1013300030B107F0010018B1E06B40F00400E06349
:1013400005F0080030B107F0010018B1E06B40F083
:101350000800E063E06B68B305F0200028B106F0F8
:10136000200010B1204600F029FF20684069C0F33A
:101370008019E06B00F0080010B9B9F1000F22D01D
:10138000204600F0FBFE2068406900F04000B0B14C
:101390002068406920F0400021684861606B50B1CE
:1013A0001748616B0865606BFFF74AF810B1606B16
:1013B000016D88470CE02046FFF77DFF08E02046DE
:1013C000FFF779FF04E02046FFF775FF0020E06398
:1013D0008CE705F0800030B106F0800018B120469F
:1013E00001F0EEF882E705F0400030B106F0400071
:1013F00018B1204600F0D2FE78E700BF76E7000083
:101400006921000810B504460CB9012010BDA0697F
:1014100000B100E000BF94F8390028B9002084F83A
:101420003800204600F028F8242084F8390020688D
:10143000C06820F400502168C860204600F00CFF0E
:101440002068006920F490402168086120684069A4
:1014500020F02A00216848612068C06840F40050EC
:101460002168C8600020E063202084F8390084F8F7
:101470003A000020CAE7000010B596B0044669495A
:101480002068884226D100BF00200190664800688D
:1014900040F01000644908600846006800F0100041
:1014A000019000BF00BF40201190022012901490C4
:1014B0000720159011A95D48FFF73AF88020119098
:1014C00002201290002013900720159011A9574870
:1014D000FFF72EF856492068884228D100BF002027
:1014E00001905148001F006840F400304E49091F28
:1014F00008600846006800F40030019000BF00BF9B
:1015000020200C9002200D900F90072010900CA925
:101510004848FFF70DF840200C9002200D90002065
:101520000E90072010900CA94248FFF701F842499D
:101530002068884245D100BF002001903A48001F32
:10154000006840F480203849091F08600846006898
:1015500000F48020019000BF00BF00BF0020019078
:1015600031481438006840F080002F491439086071
:101570000846006800F08000019000BF00BF081519
:101580000790022008900120099003200A9007206C
:101590000B9007A92548FEF7CBFF4FF4006007909A
:1015A00007A92248FEF7C4FF4FF48070079001207E
:1015B00008900220099000200B9007A91F48FEF711
:1015C000B7FF1F492068884229D100BF0020019041
:1015D0001548001F006840F400201349091F0860E7
:1015E0000846006800F40020019000BF00BF081505
:1015F00002900220039005900820069002A911484D
:10160000FEF796FF4FF40060029002200390002046
:1016100004900820069002A90A48FEF789FF16B038
:1016200010BD000000100140443802400004024098
:1016300000440040000C024000480040001C0240F2
:10164000004C00400008024010B5034693F83A00F1
:10165000202829D101B10AB9012010BD00BF93F89B
:101660003800012801D10220F7E7012083F8380073
:1016700000BF99629A85DA850020D863222083F81A
:101680003A0000BF002083F8380000BF18684069A6
:1016900040F001001C6860611868C06840F49070F8
:1016A0001C68E0600020D8E70220D6E710B50446A9
:1016B0003F492068884221D13E480078AA2800D0BE
:1016C00010BD3C48407A2F2813D107213948401CCF
:1016D000FEF714FE3749097A884203D000203649C4
:1016E0000870EDE73548006800B9E9E7334800685D
:1016F00080470A222F493248FFF7A6FF3149206868
:10170000884204D1022230493048FFF79DFF30491A
:101710002068884204D102222B492E48FFF794FF0B
:101720002D492068884240D113212C4800F00FFC3D
:101730002A49C97C884233D12848C0791E4908719A
:101740002648017A1C4841712448417A1A4881711F
:101750002248817A1848C17190ED010A204880ED35
:10176000000A2049086008460168042000F0B4FC23
:101770001B4890ED000AB5EEC00AF1EE10FA08D051
:1017800090ED000ADFED180AB4EE600AF1EE10FAEF
:1017900003D101201549086002E0002013490860C8
:1017A00014220E491248FFF74FFF00BF88E70000E0
:1017B00000100140B4010020E801002020000020BA
:1017C000740000200044004014000020B4000020F9
:1017D000004C00403401002000480040C8010020B7
:1017E0001C000020180000200000FA430400002024
:1017F000F40000202DE9F84304460D4616461F4626
:101800004FF0000994F8390020285CD105B116B9D1
:101810000120BDE8F88300BF94F83800012801D109
:101820000220F6E7012084F8380000BF0020E063C2
:10183000212084F83900FEF78DFF8146A684E684D6
:101840002BE0E08C401EE084A068B0F5805F16D1EC
:101850004B46002280212046009700F0E5FE08B1AB
:101860000320D6E7A846B8F80000C0F308002168B6
:101870004860206908B9AD1C0FE06D1C0DE04B46B7
:10188000002280212046009700F0CEFE08B1032000
:10189000BFE715F8010B21684860E08C0028D0D123
:1018A0004B46002240212046009700F0BDFE08B1C3
:1018B0000320AEE7202084F8390000BF002084F820
:1018C000380000BFA5E70220A3E710B5034693F850
:1018D0003900202823D101B10AB9012010BD00BF71
:1018E00093F83800012801D10220F7E7012083F89E
:1018F000380000BF19629A84DA840020D86321205E
:1019000083F8390000BF002083F8380000BF186852
:10191000C06840F080001C68E0600020DEE7022024
:10192000DCE7704700BFFEE710B501210B48FEF76A
:10193000FFFE80B91420FEF797FD01210748FEF74E
:10194000F7FE40B900BF01210448FEF7F1FE002870
:10195000F9D0012010BD0020FCE70000001002407B
:1019600010B502210B48FEF7E3FE80B91420FEF704
:101970007BFD02210748FEF7DBFE40B900BF0221D4
:101980000448FEF7D5FE0028F9D0012010BD002044
:10199000FCE700000010024010B504210B48FEF7E0
:1019A000C7FE80B91420FEF75FFD04210748FEF74B
:1019B000BFFE40B900BF04210448FEF7B9FE00286D
:1019C000F9D0012010BD0020FCE70000001002400B
:1019D00010B508210B48FEF7ABFE80B91420FEF7C6
:1019E00043FD08210748FEF7A3FE40B900BF0821C8
:1019F0000448FEF79DFE0028F9D0012010BD00200C
:101A0000FCE700000010024000B587B000BF0020D6
:101A100001902D48006840F010002B4908600846EE
:101A2000006800F01000019000BF00BF00BF002060
:101A300001900846006840F0100008600846006801
:101A400000F01000019000BF00BF012002900020B4
:101A50000390012004900020069002A91B48FEF785
:101A600067FD0220029000200390012004900020D6
:101A7000069002A91548FEF75BFD042002900020A5
:101A80000390012004900020069002A90F48FEF761
:101A90004FFD0820029000200390012004900020B8
:101AA000069002A90948FEF743FD1020029000208D
:101AB0000390012004900020069002A90348FEF73D
:101AC00037FD07B000BD0000303802400010024072
:101AD00000B587B000BF002001902D48006840F09D
:101AE00080002B4908600846006800F080000190E3
:101AF00000BF00BF00BF002001900846006840F012
:101B0000100008600846006800F01000019000BF57
:101B100000BF00BF002001900846006840F01000A0
:101B200008600846006800F01000019000BF00BF88
:101B3000002249151748FEF707FE0022202116480B
:101B4000FEF702FE002240211348FEF7FDFD4FF490
:101B500000700290012003900220059002A90D4818
:101B6000FEF7E6FC20200290012003900220059061
:101B700002A90948FEF7DCFC4020029001200390F6
:101B80000220059002A90448FEF7D2FC07B000BD70
:101B900030380240001C02400010024070B504467C
:101BA0000D46CDB904F0010028B100224FF40071B8
:101BB0002248FEF7C9FD04F0020020B100222021D6
:101BC0001F48FEF7C1FD04F00400F8B100224021D7
:101BD0001B48FEF7B9FD30E0012D18D104F00100DB
:101BE00020B1012251021548FEF7AEFD04F00200BB
:101BF00020B1012220211248FEF7A6FD04F00400C6
:101C000020B1012240210E48FEF79EFD15E004F0B0
:101C1000010020B14FF400710848FEF791FD04F077
:101C2000020018B120210648FEF78AFD04F00400E6
:101C300018B140210248FEF783FD70BD001C024030
:101C40000010024000B587B000BF0020019030486E
:101C5000006840F020002E4908600846006800F047
:101C60002000019000BF00BF00BF00200190084687
:101C7000006840F0080008600846006800F00800AE
:101C8000019000BF00BF00BF00200190084600681F
:101C900040F0080008600846006800F00800019065
:101CA00000BF00BFC81402900120039002200590DD
:101CB0000020069002A91748FEF73AFC082002907F
:101CC00001200390022005900020069002A91248EE
:101CD000FEF72EFC80200290012003900220059048
:101CE0000020069002A90C48FEF722FC0122802168
:101CF0000948FEF729FD002208210748FEF724FDC8
:101D000000224FF400610348FEF71EFD07B000BD3E
:101D10003038024000140240000C024008B500BFF9
:101D2000002000905048006840F002004E490860D2
:101D30000846006800F00200009000BF00BF4B485A
:101D40004B4908604FF4E130486000214848816009
:101D5000C16001610C21416100218161C161FFF716
:101D600051FB0A2243494248FFF76EFCFEF7D4FAC2
:101D700000BF002000903C48006840F008003A494D
:101D800008600846006800F00800009000BF00BF2F
:101D900039483A4908604FF41650486000213748E6
:101DA0008160C16001610C21416100218161C161DB
:101DB000FFF728FB022232493048FFF745FC00F0CC
:101DC00067FD00BF002000902748006840F0020037
:101DD000254908600846006800F00200009000BF36
:101DE00000BF2848284908604FF416504860002179
:101DF00025488160C16001610C2141610021816140
:101E0000C161FFF7FFFA142220491F48FFF71CFCAD
:101E100000F0AEF800BF002000901348006840F0CA
:101E20000400114908600846006800F004000090B2
:101E300000BF00BF1648174908604FF416504860AD
:101E4000002114488160C16001610C2141610021C1
:101E50008161C161FFF7D6FA022209490D48FFF7F7
:101E6000F3FB00F0CBFC08BD30380240001001400D
:101E700074000020B401002000440040B4000020A1
:101E80001400002000480040F4000020C801002099
:101E9000004C00403401002000BFFEE710B50446AE
:101EA000012C0FD1002280211748FEF74DFC0022A3
:101EB00008211548FEF748FC0122D1021348FEF71D
:101EC00043FC20E0022C0FD1002280210E48FEF7B7
:101ED0003BFC012208210C48FEF736FC0122D1020E
:101EE0000A48FEF731FC0EE0032C05D10122D10295
:101EF0000648FEF729FC06E0062C04D101228021C9
:101F00000148FEF721FC10BD000C02400014024005
:101F10007047000002480068C0F3022070470000CC
:101F20000CED00E010B5002807DA0A07140E054A88
:101F300000F00F031B1FD45403E00A07130E024ADC
:101F4000135410BD18ED00E000E400E0704710B538
:101F500002460B460020002104E0545C0444E0B239
:101F60004C1CE1B29942F8DBC443641CE0B210BDE2
:101F700010B5002211462720FEF764FC2720FEF74B
:101F800054FC10BD704710B5FEF7EAFBFFF794F85C
:101F900010BD000010B592B000BF002000902B488B
:101FA000006840F08050294908600846006800F049
:101FB0008050009000BF00BF00BF00200090244868
:101FC000006840F48040224908600846006800F438
:101FD0008040009000BF00BF0120069000040790E1
:101FE00002200C9041050D9108210E914FF4A8712B
:101FF0000F91022110910721119106A8FEF7EEFD25
:102000000F20019002200290002003904FF4A05076
:1020100004904FF480500590052101A8FEF764FC60
:10202000FEF74AFDFEF74EFD4FF47A71B0FBF1F476
:102030002046FFF727F80420FEF7F6FF002211469E
:10204000501EFEF7FFFB12B010BD000040380240EA
:10205000007000401448006840F4700012490860A5
:102060001248006840F001001049086000200F4944
:10207000083108600D4800680D4908400B490860A8
:102080000C48091D0860081F006820F48020091F03
:102090000860002005490C3108604FF000600249DB
:1020A000803908607047000088ED00E00038024089
:1020B000FFFFF6FE1030002410B50248FFF703F8CA
:1020C00010BD00002002002010B50248FEF7FBFF03
:1020D00010BD00003800002073B50D46002400BF7D
:1020E00004E0002019490855601CC4B20A2CF8DB32
:1020F00095ED000A164880ED010A9DF8000014498C
:102100008882AA2011490870012048701048007D7B
:1021100088700F48407DC8700D48007908710C48E0
:10212000407948710A48807988710948C079C87136
:1021300007210648401CFEF7E1F8044908722F20E9
:1021400048720A220348FFF7C0FB7CBDBE01002095
:10215000E80100207400002010B50248FFF7ACF839
:1021600010BD00003401002070B50546AC6B0020A6
:10217000E085E0842046FFF79EF870BD0168C968DD
:1021800021F490710268D1600168496921F0010170
:1021900002685161202180F83A10704710B504465A
:1021A0002068C06820F040002168C860202084F8C2
:1021B00039002046FFF7B5FB002010BD70B504467E
:1021C00094F83A00222844D1A068B0F5805F13D17A
:1021D000A56A206940B920684068C0F308002880DB
:1021E000A06A801CA06219E020684068C0B2288004
:1021F000A06A401CA06211E0206938B920684068DC
:10220000C1B2A26A501CA062117007E02068406849
:1022100000F07F01A26A501CA0621170E08D401E88
:1022200080B2E08598B92068C06820F49070216879
:10223000C8602068406920F00100216848612020C2
:1022400084F83A002046FFF731FA002070BD0020E4
:10225000FCE70220FAE700002DE9F04104460025E2
:102260002068056925F44055E0680543206805614C
:102270002068C56849F20C6085432169A06808435D
:1022800061690843E169084305432068C560206827
:10229000456925F44075A069054320684561E069FA
:1022A000B0F5004F7ED1C4492068884203D0C349AD
:1022B000206888425DD1FEF721FC00EBC00101EBF4
:1022C000001061684900B0FBF1F06421B0FBF1F04F
:1022D0000601FEF713FC00EBC00101EB0010616882
:1022E0004900B0FBF1F7FEF709FC00EBC00101EB80
:1022F000001061684900B0FBF1F06421B0FBF1F01F
:1023000000EBC00101EB0010A7EB8000322101EBD4
:10231000C0006421B0FBF1F000F0F80006EB4006CD
:10232000FEF7ECFB00EBC00101EB00106168490017
:10233000B0FBF1F7FEF7E2FB00EBC00101EB001090
:1023400061684900B0FBF1F06421B0FBF1F000EBF3
:10235000C00101EB0010A7EB8000322101EBC000AF
:102360006421B0FBF1F000F0070030442168886080
:1023700020E1FEF7ADFB00EBC00101EB001061684E
:102380004900B0FBF1F06421B0FBF1F00601FEF76B
:102390009FFB00EBC00101EB001061684900B0FB3E
:1023A000F1F700E045E0FEF793FB00EBC00101EB25
:1023B000001061684900B0FBF1F06421B0FBF1F05E
:1023C00000EBC00101EB0010A7EB8000322101EB14
:1023D000C0006421B0FBF1F000F0F80006EB40060D
:1023E000FEF776FB00EBC00101EB001061684900CD
:1023F000B0FBF1F7FEF76CFB00EBC00101EB001046
:1024000061684900B0FBF1F06421B0FBF1F000EB32
:10241000C00101EB0010A7EB8000322101EBC000EE
:102420006421B0FBF1F000F00700304421688860BF
:10243000C0E061492068884203D060492068884232
:102440005CD1FEF75BFB00EBC00101EB00106168A3
:102450008900B0FBF1F6FEF751FB00EBC00101EB88
:10246000001061688900B0FBF1F06421B0FBF1F06D
:1024700000EBC00101EB0010A6EB8000322101EB64
:1024800000106421B0FBF1F000F0F006FEF736FB1F
:1024900000EBC00101EB001061688900B0FBF1F0B6
:1024A0006421B0FBF1F006EB0016FEF727FB00EB12
:1024B000C00101EB001061688900B0FBF1F7FEF785
:1024C0001DFB00EBC00101EB001061688900B0FB4F
:1024D000F1F06421B0FBF1F000EBC00101EB001062
:1024E000A7EB8000322101EB00106421B0FBF1F07A
:1024F00000F00F003044216888605BE0FEF7E8FAE6
:1025000000EBC00101EB001061688900B0FBF1F63F
:10251000FEF7DEFA00EBC00101EB001061688900F4
:10252000B0FBF1F06421B0FBF1F000EBC00101EB76
:102530000010A6EB8000322101EB00106421B0FBFB
:10254000F1F000F0F006FEF7C3FA00EBC00101EB7A
:10255000001061688900B0FBF1F06421B0FBF1F07C
:1025600006EB0016FEF7B4FA00EBC00101EB001019
:1025700061688900B0FBF1F7FEF7AAFA00EBC00131
:1025800001EB001061688900B0FBF1F06421B0FB41
:10259000F1F000EBC00101EB0010A7EB800032214D
:1025A00001EB00106421B0FBF1F000F00F003044AB
:1025B00021688860BDE8F0810010014000140140EE
:1025C000014691F8390021282CD18868B0F5805F48
:1025D0000FD10A6A1088C0F308000B6858600869B8
:1025E00018B9086A801C086209E0086A401C086281
:1025F00005E00B6A581C086218780B685860C88C94
:10260000401E80B2C88458B90868C06820F08000B5
:102610000B68D8600868C06840F040000B68D8605C
:10262000002070470220FCE72DE9F04104460D46EA
:1026300017469846069E21E0701CF8B12EB1FEF7B1
:1026400089F8A0EB0800B04218D92068C06820F4CF
:10265000D0702168C8602068406920F001002168BE
:102660004861202084F8390084F83A0000BF002037
:1026700084F8380000BF0320BDE8F08120680068BE
:102680002840A84201D1012000E00020B842D3D068
:102690000020F1E710B508215048FEF749F801285D
:1026A0004BD100210220FFF779FA032000F0B0F8A7
:1026B0000446032000F0ACF8B0F5FA7F01DA0120FF
:1026C00000E0002046490968022901D3012100E009
:1026D0000021084050B10020414908600320FFF765
:1026E000DDFB01210846FFF759FA21E0032000F045
:1026F0008FF8B0F5FA7F01DA012000E000203849B8
:102700000968022901D2012100E00021084028B116
:1027100033480068401C3249086009E00020304915
:10272000086000210120FFF739FA0420FFF7B6FB0B
:1027300021462CA000F0B6F800BF08212748FDF77D
:10274000F7FF002848D100210120FFF727FA0420D5
:1027500000F05EF80446B4F5FA7F01DA012000E0EB
:1027600000201F490968022901D3012100E000214E
:10277000084050B100201A4908600320FFF78EFB83
:1027800001210220FFF70AFA21E0042000F040F8BE
:10279000B0F5FA7F01DA012000E000201049096855
:1027A000022901D2012100E00021084028B10C4893
:1027B0000068401C0A49086009E0002008490860D8
:1027C00000210220FFF7EAF90420FFF767FB21460A
:1027D00007A000F067F800BF10BD0000000C024029
:1027E00030000020C7B0BDF8A3BA25640000000087
:1027F000BAF3CDCBA3BA25640000000010B50022C7
:1028000011463420FEF71EF83420FEF70EF810BDF6
:102810002DE9F041044655200C490870032C04D1E1
:1028200001220B48FFF751F806E0042C04D10122E5
:1028300006490848FFF749F807480578467806EB47
:10284000052087B23846BDE8F08100001600002060
:10285000B4000020340100201400002010B502480C
:10286000FEF72AFD10BD00007400002010B50248DC
:10287000FEF722FD10BD0000B400002010B5024894
:10288000FEF71AFD10BD0000F400002000BFFEE7B7
:1028900010B5002211462620FDF7D4FF2620FDF7B3
:1028A000C4FF10BD0FB4054B10B503A9044A02982C
:1028B00000F018F810BC5DF814FB0000392A00087D
:1028C0003400002002E008C8121F08C1002AFAD113
:1028D00070477047002001E001C1121F002AFBD1A0
:1028E000704700002DE9FF4F89B09B460446002544
:1028F00006E025280BD05A460B999047641C6D1CA6
:1029000020780028F5D10DB02846BDE8F08F0027CB
:10291000B8460122474900E0074314F8013F203B35
:1029200002FA03F00842F7D120782E2819D114F8C2
:10293000010F47F004072A280ED06FF02F022078ED
:10294000A0F1300109290CD808EB880102EB410104
:1029500000EB0108641CF2E70A98641C50F8048B31
:102960000A9020780028CED0642808D0692806D0A4
:1029700075281ED05A460B9990476D1C58E00A994D
:102980004FF00A0901C90A91002802DA40422D21BC
:1029900002E0390504D52B218DF82010012103E038
:1029A000F90704D02021F7E78A4608AE0DE00021A0
:1029B000FAE70A994FF00A0901C90A91F7E749466F
:1029C000FDF7FEFB303106F8011D0028F7D1ADEB15
:1029D000060000F12009780701D44FF00108C8452E
:1029E00002DDA8EB090000E000208046002706E099
:1029F00008A85A46C05D0B9990476D1C7F1C57452F
:102A0000F6DB04E030205A460B9990476D1CB8F174
:102A10000001A8F10108F5DC05E016F8010B5A46A3
:102A20000B9990476D1CB9F10001A9F10109F4DC83
:102A3000641C65E70928010013B50C464FF6FF73C7
:102A4000012269460248FEF7D5FE00981CBD000031
:102A500074000020FDF78CFEFFF79CFAFFF7F2F8F8
:102A6000FEF7D2FFFFF75AF9FDF770FCFFF730F8D9
:102A70001AE0FEF759FF012801D1FFF70FFAFEF720
:102A80006FFF012802D10220FFF708FAFEF784FF4A
:102A9000012802D10320FFF701FAFEF799FF012870
:102AA00002D10620FFF7FAF9E3E70000000000007A
:102AB00000000102030406070809000000000102EB
:102AC00003040000E42A0008000000203800000091
:102AD000C42800081C2B00083800002058120000F1
:102AE000D4280008000000000000000000000000E2
:102AF0000024F400FAFF00000000000000000000C5
:102B000000000000110200080000000000000000AA
:0C2B1000000000000000000000000000B9
:040000050800018965
:00000001FF
