:020000040800F2
:10000000701200209D010008DF190008791800080F
:10001000DD19000885020008811F000800000000AB
:10002000000000000000000000000000E7190008C8
:10003000A303000800000000E3190008E919000804
:10004000B7010008B7010008B7010008B7010008B0
:10005000B7010008E5190008B7010008B70100085A
:10006000B7010008B7010008B7010008B701000890
:10007000B701000889020008B701000895020008CE
:10008000B7010008B7010008B7010008B701000870
:10009000B7010008B7010008B7010008B701000860
:1000A000B7010008B7010008B7010008B701000850
:1000B000B7010008B7010008B7010008B701000840
:1000C000B7010008B7010008B7010008B701000830
:1000D000B70100080D1F0008B7010008B7010008AC
:1000E000B7010008B7010008B7010008B701000810
:1000F000B7010008B7010008B7010008B701000800
:10010000B7010008B7010008B7010008B7010008EF
:10011000E11A0008B7010008B7010008B70100089C
:10012000B7010008A1020008B7010008B7010008E4
:10013000B7010008B7010008B7010008B7010008BF
:10014000B7010008B7010008B7010008B7010008AF
:10015000B7010008AD020008B7010008191F000828
:10016000B7010008B7010008B7010008B70100088F
:10017000B7010008B7010008B7010008000000003F
:10018000B7010008B7010008DFF80CD000F068F8EC
:1001900000480047A11F0008701200200648804751
:1001A00006480047FEE7FEE7FEE7FEE7FEE7FEE75C
:1001B000FEE7FEE7FEE7FEE7891A0008890100086E
:1001C0002DE9F05F0546002092469B46884606468C
:1001D000814640241BE0284641464746224600F01F
:1001E0002FF853465A46C01A914110D3114618466B
:1001F000224600F016F82D1A67EB01084F462246FA
:100200000120002100F00DF817EB00094E41201EDF
:10021000A4F10104DFDC484631462A464346BDE8E6
:10022000F09F202A04DB203A00FA02F100207047F8
:100230009140C2F1200320FA03F319439040704724
:10024000202A04DB203A21FA02F00021704721FA2B
:1002500002F3D040C2F12002914008431946704792
:10026000064C074D06E0E06840F0010394E8070003
:1002700098471034AC42F6D3FFF78AFF902000086D
:10028000B0200008FEE70000014800F0EFB80000D1
:10029000EC000020014800F0E9B800004C0100200B
:1002A000014800F0E3B80000AC010020014800F074
:1002B000DDB800000C02002001680A4BCAB2103AF7
:1002C000A3FB02321209084B9B5CC365032A04D9C5
:1002D0006FF30901091D816502E06FF30901816572
:1002E000806D7047ABAAAAAA7020000801460020C2
:1002F0008A6A8B69002B0FD0B3F5005F1DD08AB3DB
:10030000012A30D0022A2ED0032A04D1C96A11F062
:10031000807F00D0012070471AB1012A07D0022A3D
:10032000F9D1C96A11F0807FF5D001207047C96A00
:10033000B1F1C07FFAD1012070475AB1012A0BD028
:10034000022A07D0032AF7D1C96AB1F1C07FF3D1DD
:100350000120704701207047C96A11F0807FFAD0F0
:1003600001207047FFE70120704710B4D0F800C0AB
:10037000DCF8004024F48024CCF80040D0F800C021
:10038000CCF804308368402B05D00368996000687E
:10039000C26010BC704703689A600068C16010BCFE
:1003A0007047704770472DE9F0410446A66D00F094
:1003B0002DFB054694F835000027022806D0802042
:1003C000606584F834700120BDE8F0812068016820
:1003D00021F0160101602068416921F0800141612E
:1003E000206C08B9A06C20B12068016821F00801D8
:1003F00001602068016821F0010101602068006847
:1004000010F0010F12D000F001FB401B052808D9A5
:100410002020606584F83470032084F83500BDE83E
:10042000F0812068006810F0010FECD194F85C00B6
:100430003F2101FA00F0B06084F83470012084F8A4
:1004400035000020BDE8F08190F83510022903D076
:100450008021416501207047052180F83510006832
:10046000016821F001010160002070472DE9F84387
:1004700004464FF00008CDF8008076484FF416513E
:100480000068B0FBF1F7A56D2E6894F85C000821B8
:1004900001FA00F0304211D02068026812F0040F17
:1004A0000CD0026822F00402026094F85C0001FAA9
:1004B00000F0A860606D40F00100606594F85C0099
:1004C0004FF0010909FA00F0304209D0216849696A
:1004D00011F0800F04D0A860606D40F002006065EC
:1004E00094F85C1004208840304209D021680968E3
:1004F00011F0020F04D0A860606D40F00400606548
:1005000094F85C1010208840304224D0216809689B
:1005100011F0080F1FD0A8602068016811F4802F27
:100520000DD0006810F4002F04D0A16C99B12046C2
:10053000884710E0216C71B1204688470BE00168C4
:1005400011F4807F03D1016821F008010160216C62
:1005500009B12046884794F85C102020884030423A
:1005600051D02168096811F0100F4CD0A86094F8A0
:10057000350005280DD02068016811F4802F32D095
:10058000006810F4002F29D0E16B59B3204688474A
:1005900039E02068016821F0160101602068416996
:1005A00021F080014161206C08B9A06C20B1206865
:1005B000016821F00801016094F85C003F2101FA14
:1005C00000F0A86084F8348084F83590216D00290B
:1005D0003ED001B02046BDE8F0430847616C09B148
:1005E000204688470FE0016811F4807F07D1016839
:1005F00021F01001016084F8348084F83590E16BBB
:1006000009B120468847606D002821D0606D10F048
:10061000010F15D0052084F835002068016821F00D
:10062000010101600098401C0090B84204D8206885
:10063000006810F0010FF5D184F8348084F835900B
:10064000E16C002904D001B02046BDE8F043084722
:10065000BDE8F883280000202DE9F041044600F0B1
:10066000D5F90546DCB1002684F83460022084F810
:1006700035002068016821F00101016020680068F0
:1006800010F0010F13D000F0C1F9401B052809D963
:1006900020206065032084F83500BDE8F08101204A
:1006A000BDE8F0812068006810F0010FEBD12168EF
:1006B0000868234A1040A3686268D4F810C01A433F
:1006C000E36843EA0C031A4363691A43A3691A43B4
:1006D000E3691A43236A1A431043626A042A03D166
:1006E000236BE26A1A43104308602068406920F0D7
:1006F0000701606A40EA0105012704280ED1A06ABB
:100700000543E06A50B12046FFF7F0FD30B14020CC
:10071000606584F835700120BDE8F081206845618E
:100720002046FFF7C9FD94F85C103F2202FA01F160
:100730008160666584F835700020BDE8F0810000B6
:100740003F8010F070B504460025A66D94F8340083
:1007500001280DD0012084F8340094F835C0002021
:10076000BCF1010F06D084F834000225284670BD84
:10077000022070BD4FF0020C84F835C06065204641
:10078000FFF7F3FD94F85C003F2101FA00F0B06040
:100790002068016841F016010160206C20B12068DA
:1007A000016841F0080101602068016841F0010121
:1007B0000160DBE72DE9F84F002203248E4E8F4FB6
:1007C0000F25012303FA02F80B6803EA08034345E7
:1007D0007DD1D1F804C0BCF1010F08D0BCF1020FEB
:1007E00005D0BCF1110F02D0BCF1120F1DD1D0F811
:1007F00008904FEA420C04FA0CFA29EA0A09D1F8E7
:100800000CA00AFA0CFC4CEA090CC0F808C0D0F89D
:1008100004C02CEA080C91F80480C8F3001808FA08
:1008200002F848EA0C0CC0F804C0D0F80C904FEA6B
:10083000420C04FA0CF829EA0809D1F808A00AFACF
:100840000CFA4AEA0909C0F80C90D1F80490B9F101
:10085000020F02D0B9F1120F15D14FEAD20900EB05
:100860008909D9F820B04FEA427A4FEADA6A05FAE4
:100870000AFE2BEA0E0BD1F810E00EFA0AFA4AEA49
:100880000B0AC9F820A0D0F8009029EA080891F8CE
:10089000049009F0030909FA0CFC4CEA080CC0F8B2
:1008A00000C0D1F804C01CF0805F10D0D6F800C0A2
:1008B0004CF4804CC6F800C0D6F800C00CF4804C54
:1008C000CDF800C022F0030C0CF1804900E075E087
:1008D00009F59839D9F808C84FEA82784FEA1878AC
:1008E00005FA08FA2CEA0A0AA0F1804CBCF5003C93
:1008F0006AD0A0F1804CBCF5013C68D0A0F1804CDE
:10090000BCF5023C66D0A0F1804CBCF5033C64D041
:10091000A0F1804CBCF5043C62D0A0F1804CBCF549
:10092000053C60D0A0F1804CBCF5063C5ED0A0F147
:10093000804CBCF5073C5CD04FF0080C0CFA08FC6E
:100940004CEA0A0CC9F808C8DFF8B480D8F800C02F
:100950002CEA030CD1F8049019F4803F01D04CEA42
:10096000030CC8F800C0DFF89C80D8F800C02CEA5F
:10097000030CD1F8049019F4003F01D04CEA030CA9
:10098000C8F800C0D7F800C02CEA030CD1F80480E6
:1009900018F4801F01D04CEA030CC7F800C0DFF840
:1009A0006880D8F800C02CEA030CD1F8049019F440
:1009B000001F01D04CEA030CC8F800C0521C102ADA
:1009C000FFF4FFAEBDE8F88F4FF0000CB6E74FF034
:1009D000010CB3E74FF0020CB0E74FF0030CADE7AA
:1009E0004FF0040CAAE74FF0050CA7E74FF0060CF8
:1009F000A4E74FF0070CA1E744380240083C01404F
:100A0000003C0140043C01400C3C0140014880682E
:100A1000704700001C0000200248816802781144E1
:100A2000816070471C00002010B50B48016841F43C
:100A300000710160016841F480610160016841F466
:100A400080710160032000F08FF8002000F006F8AC
:100A500000F026F8002010BD003C024070B50446AE
:100A60000D4D4FF47A712878B1FBF0F00B4909680D
:100A7000B1FBF0F000F0F8FB08B1012070BD102CC4
:100A800007D200222146501E00F03AF86C60002088
:100A900070BD012070BD00001C0000202800002057
:100AA00008B50E48016841F480410160006800F417
:100AB000804000900A48016841F080510160006860
:100AC00000F08050009000221146052000F018F838
:100AD000BDE80840052000F005B800004438024099
:100AE0004038024000280ADB00F01F01012202FA10
:100AF00001F14009800000F1E020C0F800117047CA
:100B000010B4184B1B68C3F30223C3F1070CBCF1EC
:100B1000040F01D94FF0040C1C1D072C01D2002337
:100B200000E0DB1E012404FA0CFCACF1010C0CEA21
:100B30000101994004FA03F35B1E1A401143002897
:100B400006DB00F1E020090180F8001410BC7047BA
:100B500000F00F0000F1E020090180F8141D10BC26
:100B6000704700000CED00E000F00700064A116835
:100B70004FF6FF03194041EA002040F0FD7040F0BD
:100B800080601060704700000CED00E070470000CE
:100B90002DE9F04704460D46002C13D0DFF85491A0
:100BA000D9F80000EFB200F00F00A8420DD289F88A
:100BB0000070D9F8000000F00F00A84205D0012015
:100BC000BDE8F0870120BDE8F08720684A4E10F0AC
:100BD000020F14D010F0040F03D0306840F4E0503E
:100BE0003060207810F0080F03D0306840F4604087
:100BF00030603068A16820F0F00008433060207851
:100C000010F0010F3ED060683C49012808D002284E
:100C10000DD003280BD0096811F0020F28D00AE08C
:100C2000096811F4003F06D10120BDE8F08709688A
:100C300011F0007F19D0316821F0030108433060C2
:100C4000FFF7E4FE80463068616800F00C00B0EB0E
:100C5000810F17D041F2883AFFF7D8FEA0EB0800C9
:100C6000504508D90320BDE8F0870120BDE8F08792
:100C70000120BDE8F0873068616800F00C00B0EB3F
:100C8000810FE9D1D9F8000000F00F00A8420AD97D
:100C900089F80070D9F8000000F00F00A84202D0D7
:100CA0000120BDE8F087207810F0040F05D03068EF
:100CB000E16820F4E05008433060207810F0080F1D
:100CC00006D03068216920F4604040EAC1003060FD
:100CD00000F048F831680A4AC1F30311515CC8407A
:100CE0000849086008480068FFF7B8FE0020BDE822
:100CF000F0870000003C0240083802400038024003
:100D00007820000828000020200000200149012050
:100D1000C8647047000047420148006870470000FF
:100D20002800002000B5FFF7F7FF04490968044ACE
:100D3000C1F38221515CC84000BD00000838024068
:100D40008820000800B5FFF7E7FF04490968044A56
:100D5000C1F34231515CC84000BD00000838024078
:100D60008820000810B51748006810F00C011648DC
:100D700016D04310042912D0082911D1134C216830
:100D800001F03F02216811F4800F0AD02068C0F3FF
:100D90008810A0FB03010023FFF712FA09E01846B0
:100DA00010BD21680023C1F38811A1FB0001FFF7EA
:100DB00007FA2168C1F30141491C4900B0FBF1F079
:100DC00010BD0000083802400024F400043802403E
:100DD00010B50548006810F0800F04D0FFF7D6FE6C
:100DE00002498020087010BD0C3802400E380240C5
:100DF0002DE9F84F0446002C10D02078FA4FFB4D17
:100E000010F0010F63D0386800F00C0004280DD0FA
:100E1000386800F00C00082803D011E00120BDE87C
:100E2000F88FF348006810F4800F09D0286810F498
:100E3000003F4CD06068002849D10120BDE8F88F00
:100E40006068B0F5803F14D0B0F5A02F16D02868A8
:100E500020F480302860286820F4802028606068B2
:100E600010B3FFF7D3FD0646286810F4003F0ED0FC
:100E70002DE0286840F480302860F0E7286840F4CE
:100E800080202860286840F480302860E7E7FFF77A
:100E9000BDFD801B642802D90320BDE8F88F2868B7
:100EA00010F4003FF3D012E0FFF7B0FD06462868CB
:100EB00010F4003F0BD0FFF7A9FD801B642802D976
:100EC0000320BDE8F88F286810F4003FF3D12078A4
:100ED000C84E10F0020F4FF0000957D0386810F0DC
:100EE0000C0F15D0386800F00C00082804D1C04859
:100EF000006810F4800F0BD0E06880B301203060F0
:100F0000FFF784FD8046286810F0020F12D01EE023
:100F1000286810F0020F05D0E068012802D00120F7
:100F2000BDE8F88F2868216920F0F80040EAC10088
:100F300028602BE0FFF76AFDA0EB0800022802D929
:100F40000320BDE8F88F286810F0020FF2D028685F
:100F5000216920F0F80040EAC100286016E0FFE7B0
:100F6000C6F80090FFF752FD8046286810F0020F87
:100F70000CD0FFF74BFDA0EB0800022802D903209C
:100F8000BDE8F88F286810F0020FF2D1207810F039
:100F9000080F35D09848DFF864A26169C1B101211A
:100FA0000160FFF733FD8046DAF8000010F0020F11
:100FB00026D1FFF72BFDA0EB0800022802D9032061
:100FC000BDE8F88FDAF8000010F0020FF1D017E05A
:100FD000C0F80090FFF71AFD8046DAF8000010F024
:100FE000020F0DD0FFF712FDA0EB0800022802D976
:100FF0000320BDE8F88FDAF8000010F0020FF1D1FD
:10100000207810F0040F71D04FF000087C48006881
:1010100010F0805F0AD17A48016841F08051016088
:10102000006800F0805000904FF00108DFF8D4B164
:10103000DBF8000010F4807F1BD1DBF8000040F4E7
:101040008070CBF80000FFF7E1FC8246DBF800007F
:1010500010F4807F0DD1FFF7D9FCA0EB0A00022825
:1010600002D90320BDE8F88FDBF8000010F4807F80
:10107000F1D0A068DFF890B1012818D005281DD064
:10108000DBF8000020F00100CBF80000DBF80000E6
:1010900020F00400CBF80000A06840B3FFF7B6FCD6
:1010A0008246DBF8000010F0020F14D03EE0DBF8BF
:1010B000000040F00100CBF80000EDE7DBF8000095
:1010C00040F00400CBF80000DBF8000040F0010025
:1010D000CBF80000E0E7FFF799FCA0EB0A0141F232
:1010E0008830814204D90320BDE8F88F26E005E06E
:1010F000DBF8000010F0020FEDD017E0FFF786FCE0
:101100008246DBF8000010F0020F0FD0FFF77EFCE4
:10111000A0EB0A0141F28830814202D90320BDE8E8
:10112000F88FDBF8000010F0020FEFD1B8F1010FDB
:1011300004D13348016821F080510160A069E0B317
:10114000396801F00C0108296AD0022810D0C6F8CD
:101150006090FFF75BFC0446286810F0007F2CD0FD
:10116000FFF754FC001B022855D90320BDE8F88F77
:10117000C6F86090FFF74AFC0746286810F0007F29
:101180000BD0FFF743FCC01B022802D90320BDE8A7
:10119000F88F286810F0007FF3D1216AE069A26A15
:1011A0000843616A4FF0FF33890103EB520241EAC1
:1011B0000241084394F82C1000E052E040EA01613B
:1011C0000B48016001203066FFF720FC04462868C8
:1011D00010F0007F45D1FFF719FC001B022815D93C
:1011E0000320BDE8F88F1BE00838024000380240B9
:1011F0000438024000004742800E474274380240E3
:10120000403802400070004070380240286810F0FA
:10121000007FE0D025E0286810F0007FA0D120E01A
:1012200001281CD03868E26900F48001914214D191
:10123000226A00F03F0191420FD147F6C071626A05
:101240000140914209D1A26A00F44031914204D197
:10125000E16A00F07060884203D00120C1E70120FC
:10126000BFE70020BDE70000401EB0F1807F01D342
:10127000012070474FF0E0214861044AF0201070CF
:1012800000208861072008610020704723ED00E0FE
:1012900010B5044620684169C1F3C01194F83920A3
:1012A000212A0BD151B1416921F080014161206BAC
:1012B00008B1FFF778F8204600F0CFFC20684169BC
:1012C000C1F3801194F83A20222A0BD151B141691F
:1012D00021F040014161606B08B1FFF764F82046DE
:1012E00000F0A0FC002010BD7047000010B50446BF
:1012F00022681068D168526900F00F03002B0AD1F0
:1013000010F0200F07D011F0200F04D02046BDE8C8
:10131000104000F0ABBC002B71D002F0010301F4CF
:10132000907C53EA0C0C6AD010F0010F08D011F435
:10133000807F05D0D4F83CC04CF0010CC4F83CC010
:1013400010F0040F08D012F0010F05D0D4F83CC003
:101350004CF0020CC4F83CC010F0020F06D012F0A2
:10136000010F03D0E26B42F00402E26310F0080FB9
:1013700007D001F020021A4303D0E26B42F00802CA
:10138000E263E26B002A2ED010F0200F05D011F09E
:10139000200F02D0204600F069FC20684069C0F3AD
:1013A0008010E16B11F0080F00D108B3204600F067
:1013B00039FC2068416911F0400F15D0416921F0D6
:1013C00040014161606B58B118490165606BFFF7DE
:1013D0003BF8002807D0606B016DBDE8104008475E
:1013E0002046FFF781FF10BD2046FFF77DFF10BDAF
:1013F0002046FFF779FF0020E06310BDFFE710F003
:10140000800F07D011F0800F04D02046BDE81040B7
:1014100000F048BD10F0400FEFD011F0400FECD0BD
:101420002046BDE8104000F00BBC0000491B00083E
:1014300070B50446002C04D094F83900002510B192
:1014400006E0012070BD84F83850204600F022F8F4
:10145000242084F839002068C16821F40051C1605B
:10146000204600F051FC2068016921F4904101619F
:101470002068416921F02A0141612068C16841F476
:101480000051C160E563202084F8390084F83A00F7
:10149000002070BD2DE9F04F87B00446002502956D
:1014A00003950495059506959548D4F800B002215A
:1014B00001220323DFF84C8240270615ABF1804C54
:1014C0004FF00809BCF5984C7FD0DFF83CC2ABF177
:1014D000804E4FF0C00ABEF5883E75D0ABF1804E0D
:1014E000BEF58A3E6CD1DCF800B04BF0200BCCF896
:1014F00000B0DCF800C00CF0200CCDF804C0D0F82F
:1015000000C04CF0040CC0F800C0006800F00400FB
:101510000190CDF808A0039104920593CDF818909E
:1015200002A94046FFF746F9DFF8E4817748C8F89A
:1015300000004FF02069C8F80490C8F80850C8F8B7
:101540000C50C8F81060C8F81450C8F81850C8F803
:101550001C50C8F82050C8F824504046FFF77CF8CB
:1015600008B1FEF71FFFC4F83480C8F83840DFF830
:10157000A8816848C8F80000C8F80490C8F8087046
:10158000C8F80C50C8F81060C8F81450C8F81850C3
:10159000C8F81C50C8F82050C8F824504046FFF73F
:1015A0005BF808B1FEF7FEFEC4F83080C8F838409A
:1015B000002211464720FFF7A3FA4720FFF792FACF
:1015C00007B0BDE8F08F00E070E0DFF850C1DCF854
:1015D00000A04AF4002ACCF800A0DCF800C00CF40B
:1015E000002CCDF804C0D0F800C04CF0040CC0F8BA
:1015F00000C0006800F0040001904FF440600290C9
:10160000039104920593CDF8189002A94046FFF784
:10161000D1F8DFF810814248C8F800004FF00069A7
:10162000C8F80490C8F80850C8F80C50C8F8106002
:10163000C8F81450C8F81850C8F81C50C8F8205002
:10164000C8F824504046FFF707F808B1FEF7AAFE95
:10165000C4F83480C8F83840DFF8D0803248C8F881
:101660000000C8F80490C8F80870C8F80C50C8F812
:101670001060C8F81450C8F81850C8F81C50C8F8C2
:101680002050C8F824504046FEF7E6FF08B1FEF7A8
:1016900089FEC4F83080C8F8384000220121342087
:1016A000FFF72EFA3420FFF71DFA89E7DCF8004037
:1016B00044F01004CCF80040DCF800C00CF0100C32
:1016C000CDF804C0D0F800C04CF0020CC0F800C047
:1016D000006800F002000190CDF808A00391049288
:1016E00005930720069002A91148FFF763F800222E
:1016F00001212520FFF704FA2520FFF7F3F95FE722
:101700003038024000080240443802402864024059
:10171000AC010020A06402400C02002040380240CE
:1017200040600240EC000020706002404C0100204C
:101730000004024037B582B00446134694F83A00DC
:10174000202802D005B0022030BD039A002A36D0EE
:10175000002B34D094F83800012833D0012084F8CD
:101760003800A262A3850025E563222084F83A00B0
:10177000616B1648C863616B15480864616B154856
:10178000C864606B05652068011D606BFEF7DAFFB9
:10179000206801684168019184F83850C16841F4BB
:1017A0008071C1602068416941F001014161206898
:1017B000416941F04001416105B0002030BD05B0F4
:1017C000012030BD05B0022030BD0000A31B000881
:1017D000E11B0008591B00087047704737B50446E5
:1017E00094F83900202802D003B0022030BD0199BE
:1017F000002932D0002A30D094F8380001282FD0A8
:10180000012084F838002162A284E2840025E56387
:10181000212084F83900236B1348D863236B1348C5
:101820001864236B1248D864206B05652068134642
:10183000001DD4F830C002466046FEF783FF2168E1
:101840006FF04000086084F838502068416941F02A
:101850008001416103B0002030BD03B0012030BDE4
:1018600003B0022030BD0000EB1B00081B1C000869
:10187000591B000870477047FEE7000008B519487B
:10188000016841F400110160016801F40011009148
:10189000016841F480010160006800F4800000905C
:1018A000002211460D20FFF72BF90D20FFF71AF942
:1018B000002211460F20FFF723F90F20FFF712F93E
:1018C000002211463920FFF71BF93920FFF70AF9EA
:1018D000002211464520FFF713F9BDE808404520D6
:1018E000FFF700B93038024081B01148016841F07B
:1018F00080010160016801F080010091016841F000
:1019000004010160016801F004010091016841F0E7
:1019100001010160016801F001010091016841F0DD
:1019200002010160006800F00200009001B0704701
:101930003038024010B50C480A4901604FF4165186
:10194000416000218160C16001610C2242618161BE
:10195000C161FFF76DFD002803D0BDE81040FEF720
:1019600021BD10BD004C00402C00002010B50C48DB
:101970000A4901604FF4E131416000218160C1609A
:1019800001610C2242618161C161FFF751FD0028B4
:1019900003D0BDE81040FEF705BD10BD00100140AA
:1019A0006C00002010B50C480A4901604FF4165134
:1019B000416000218160C16001610C22426181614E
:1019C000C161FFF735FD002803D0BDE81040FEF7E8
:1019D000E9BC10BD00140140AC000020FEE7FFF799
:1019E000F7B9704770477047FFF716B830B593B036
:1019F0000024089409940A940B940194029403948B
:101A0000049405941E48016841F08051016000680B
:101A100000F0805000901B48016841F48041016053
:101A2000006800F480400090032006904FF480305E
:101A3000079002250C9580010D9008200E904FF420
:101A4000A8700F9010950420119006A8FFF7D0F908
:101A500008B1FEF7A7FC0F200190029503944FF404
:101A6000A05004904FF480500590052101A8FFF785
:101A70008FF808B1FEF796FCFFF748F913B030BDB8
:101A800040380240007000400F48016841F4700186
:101A900001600E48016841F0010101600C4A00211B
:101AA0001160026822F4102222F080720260031D8D
:101AB000084A1A60026822F4802202600648016027
:101AC000064958060860704788ED00E0003802407B
:101AD00008380240103000240C38024008ED00E0C5
:101AE00038B5154C2068016811F0100F17D000258B
:101AF0000168406800902046FFF7CAFB606B0068F1
:101B000040680E49C0F1020008700D480278012AB1
:101B10000AD0057002220B490748FFF70BFEBDE80B
:101B200038400548FFF7E2BB064A5378127803EBCA
:101B300002224A800570EDE72C00002014000020EE
:101B4000020000200600002010B5806B0021C18536
:101B5000C184FFF7C9FB10BD70B5846B2068406974
:101B6000C0F3C01094F839100025212904D118B110
:101B7000E584204600F071F820684069C0F38010C9
:101B800094F83A10222904D118B1E585204600F0D6
:101B900049F8E06B40F01000E0632046FFF7A4FB3B
:101BA00070BD10B50146886B0968096811F4807F23
:101BB00013D10021C1850168CA6822F48072CA600D
:101BC00001684A6922F001024A6101684A6922F00B
:101BD00040024A61202180F83A10FFF7FDFD10BD58
:101BE00010B5806BFFF7F9FD10BD10B50146886B8D
:101BF0000968096811F4807F02D0FFF73BFE10BD31
:101C00000021C18401684A6922F080024A610068AB
:101C1000C16841F04001C16010BD10B5806BFFF795
:101C20002AFE10BD0168CA6822F49072CA60016879
:101C30004A6922F001024A61202180F83A10704777
:101C400010B50168CA6822F04002CA60202180F8FD
:101C50003910FFF70FFE002010BD0168CA6822F09E
:101C6000C002CA60202180F83910704710B590F882
:101C70003A10222901D0022010BD8168B1F5805FA1
:101C800011D0016919B30168496801F07F02816AC6
:101C90004B1C83620A70C18D491E0904090CC18561
:101CA0001CD0002010BD816A02693AB102685268F6
:101CB000D2B20A80816A491C8162ECE702685268EC
:101CC000C2F308020A80816A891C8162E3E7016825
:101CD0004A68816A4B1C83620A70DCE70168CA6843
:101CE00022F02002CA600168CA6822F48072CA60C9
:101CF00001684A6922F001024A61202180F83A1005
:101D0000FFF76AFD002010BD2DE9F0410446206870
:101D10000169E26821F44051114301612169A06821
:101D2000E26908436169114301432068C26822F4F3
:101D3000037222F414421143C16020684169A26910
:101D400021F4407111434161E0695349534A192715
:101D5000534D32264FF00008B0F5004F27D02068D1
:101D6000904201D0884274D1FEF7ECFF01466068D2
:101D7000830F8200A1FB0701FEF722FA0146A5FBB3
:101D8000002040096FF01802424301EB820106EB8C
:101D90000111A5FB0121490901F0F00202EB00103D
:101DA00001F00F01084421688860BDE8F0812068D7
:101DB000904201D0884225D1FEF7C4FF01466068F9
:101DC0000218A1FB070148EB0803FEF7F9F90346E7
:101DD000A5FB0010410918460A016FF0180359438A
:101DE00000EB810006EBC000A5FB0010400900F0ED
:101DF000F80102EB410100F0070008442168886007
:101E0000BDE8F081FEF78EFF014660680218A1FB75
:101E1000070148EB0803FEF7D3F90346A5FB0010C2
:101E2000410918460A016FF01803594300EB81007D
:101E300006EBC000A5FB0010400900F0F80102EB22
:101E4000410100F00700084421688860BDE8F08186
:101E5000FFE7FEF767FF01466068830F8200A1FB82
:101E60000701FEF7ADF90146A5FB002040096FF020
:101E70001802424301EB820106EB0111A5FB01218F
:101E8000490901F0F00202EB001001F00F010844D3
:101E900021688860BDE8F081001401400010014015
:101EA0001F85EB5190F83910212901D0022070478D
:101EB0008168B1F5805F0CD0016A4A1C0262026839
:101EC00009785160C18C491E0904090CC18410D0E5
:101ED00019E0016A02680988C1F3080151600169CB
:101EE00019B1016A491C0162ECE7016A891C0162AF
:101EF000E8E70168CA6822F08002CA600068C16829
:101F000041F04001C1600020704700000148FFF728
:101F1000EDB900006C00002038B5154C2068016850
:101F200011F0100F17D0002501684068009020467E
:101F3000FFF7AEF9606B006840680E49C0F102001F
:101F400048700D480278012A0AD0057003220B4917
:101F50000748FFF7EFFBBDE838400548FFF7C6B973
:101F6000064A5378127803EB02228A800570EDE767
:101F7000AC00002014000020040000200800002015
:101F8000FEE702E008C8121F08C1002AFAD1704714
:101F90007047002001E001C1121F002AFBD17047E9
:101FA000FEF742FDFFF722FDFFF79EFCFFF766FC00
:101FB000FFF7DCFCFFF7BEFCFFF7F4FC26480068E7
:101FC000C16841F01001C160012224492248FFF795
:101FD000B1FB23480068C16841F01001C1600122D3
:101FE00020491F48FFF7A6FB00261F4C012520694A
:101FF000401C2061E168884208D101221B49164833
:10200000FFF7ECFB0028F2D1E570F0E7B0EB410FF1
:1020100008D1012214491048FFF7E0FB0028E6D15F
:10202000A570E4E701EB4102824208D101220F4989
:102030000B48FFF7D3FB0028D9D16571D7E7B0EB88
:10204000810FD4D12661012207490548FFF7C6FB5D
:102050000028CCD12571CAE72C0000200600002002
:10206000AC0000200800002000000020010000203B
:102070000006101600061016000000000000000008
:10208000010203040607080900000000010203041E
:10209000B0200008000000202C000000821F000873
:1020A000DC2000082C00002044120000921F0008D1
:1020B000555000000000000000000000C02709008B
:1020C000000000000000000000000000010000000F
:0C20D00010000000000000000024F400DC
:040000050800018965
:00000001FF
