:020000040800F2
:10000000901200201D4F00088D4D00088F4D0008F4
:10001000914D0008934D0008954D00080000000028
:10002000000000000000000000000000974D0008E4
:10003000994D0008000000009B4D00089D4D0008F0
:10004000494F00084D4F0008514F0008554F000818
:10005000594F00085D4F0008614F0008654F0008C8
:10006000694F00086D4F0008714F0008754F000878
:10007000794F00087D4F0008814F0008854F000828
:10008000894F00088D4F0008914F0008954F0008D8
:10009000994F00089D4F0008A14F0008A54F000888
:1000A000A94F0008AD4F0008B14F0008B54F000838
:1000B000B94F0008C74D0008BD4F0008C14F0008E8
:1000C000C54F0008C94F0008CD4F0008D14F0008A8
:1000D000D54F0008BD4D0008D94F0008DD4F00087E
:1000E000E14F0008E54F0008E94F0008ED4F000818
:1000F000F14F0008F54F0008A94D0008F94F00081E
:10010000FD4F000801500008055000080950000884
:100110000D50000811500008155000081950000833
:100120001D500008215000082550000829500008E3
:100130002D50000831500008355000083950000893
:100140003D50000841500008455000084950000843
:100150004D50000851500008B34D0008555000089C
:10016000595000085D5000086150000865500008B3
:10017000695000086D500008715000080000000030
:1001800075500008795000082DE9F04F80460FF2B5
:100190001C60A5B017461D46D0E90023CDE9122307
:1001A000002004910D900DF1500A6FF0004900E01D
:1001B000E7190020ADF8020012AB4FF0FF323946CC
:1001C0000DF1020001F089F80446012C04DA3878B8
:1001D000441EA441E443E40FBDF8020025280CBFEF
:1001E000A4F1010BA346BBF1010F0EDB3E4616F84E
:1001F000011B0498C0470028049000F0D2820D989B
:10020000401CBBF1010B0D90F1D1BDF80200252877
:1002100007D100200790089009900A900B900C904D
:1002200005E00028C4D10D98BDE240F0010017F8A8
:10023000011F2029F9D023290DD02B2904D02D29E5
:1002400006D030290AD00CE040F0020080B2EEE780
:1002500040F00400FAE740F00800F7E740F0100033
:10026000F4E72A290ED12968296051F8042B296066
:10027000002A0F9204D5514240F004000F9180B241
:100280007F1C11E000210F9109E00F99494505D02D
:1002900001EB810302EB430130390F917F1C3A7867
:1002A000A2F130010A29F0D339782E2903D04FF07A
:1002B000FF310E911DE017F8011F2A2907D1296887
:1002C00029607F1C51F8042B29600E9211E0002157
:1002D0000E9109E00E99494505D001EB810302EB2F
:1002E000430130390E917F1C3A78A2F130010A297E
:1002F000F0D3ADF840000FF2BC40397801F002F8BD
:1003000008B117F8010B8DF842009DF842006828EB
:1003100002BF39786829622005D06C2804BF38787C
:100320006C2803D171208DF842007F1C14A8069020
:1003300017F8014BB4F125002AD01C3800F0CB800F
:10034000001F022840F2C780133800F0EC80093803
:1003500000F0C180801E00F05381401E00F02C810F
:10036000401E022840F2B780001F00F02581401F88
:1003700000F08280401E00F0D680401E2CD0C01EAF
:100380000BD0801E00F0CF80C01E00F0CC805AE160
:1003900025208DF8500001205EE19DF842006C2878
:1003A0002868286014D050F8046B286005960E9CCD
:1003B000002C04D5304600F0B1FF044606E022468A
:1003C0000021304600F0C6FF00B1841B089444E1D0
:1003D00050F8042B28602FE1296829603C2451F84B
:1003E000040B29600021CDE9020114A80590DDE984
:1003F0000201069E11B908B90E9AB2B10206120F97
:10040000A0EB02123032D2B2631E3A2AA8BF2732C2
:1004100000099A5540EA0170090908BF00281C46E6
:1004200003D0059AA3199A42E8D3A0190590C4F104
:100430003C010E980891814209DA401A0A904FF661
:10044000EF71BDF840000840ADF8400005E100281C
:1004500040F103819DF8400000F01400102840F0A6
:10046000FC800F98079A801A0A9A801A441A012C65
:10047000C0F2F3800A94F0E09DF8420062281AD09E
:10048000682806D06A280CD06C281CD0712808D0A7
:1004900019E02868286050F8041B28600D9808802F
:1004A000DBE02868286050F8042B28600D98C117FD
:1004B000C2E90001D1E02868286050F8041B2860D8
:1004C0000D980870C9E02868286050F8041B28605F
:1004D0000D980860C1E02868C01D20F007022A605E
:1004E000D2E9000108322A60CDE90201002902D5D3
:1004F00007982D210AE0BDF84000810702D5079832
:100500002B2103E0C00705D50798202100F80A1029
:10051000401C079014A8079908180590214602A8C6
:1005200000F090FB99E09DF842006C280DD07128F6
:1005300018BF6A2809D12868C01D20F007022A6068
:10054000D2E9000108322A6005E02968296051F8E3
:10055000040B29600021CDE902019DF842006828C2
:1005600003D1DDE9020180B20BE0622803D1DDE9AD
:100570000201C0B205E0742818BF7A2804D1DDE971
:1005800002010021CDE902019DF8400000072ED5AF
:10059000DDE90201002908BF002828D044F020002E
:1005A000782824D10798302100F80A10401C411CFB
:1005B000079100F80A401AE09DF84200294600F031
:1005C000FDF8CDE90201002902DA07982D210AE0A1
:1005D000BDF84000810702D507982B2103E0C00732
:1005E00005D50798202100F80A10401C079014A890
:1005F000079908180590214602A800F09FFA2CE000
:100600009DF842006C2809D00120079028682860D6
:1006100050F8041B28608DF850101EE028682860F0
:1006200001AA50F8041B2860ADF804100020ADF8B2
:1006300006004FF0FF300E9002A9404600F0F5F89A
:1006400000280AD5ADE025208DF850000120079044
:100650001CB18AF80140022007900F980799401AB0
:100660000A99401A0899401A0B99401A0999401A98
:100670000C99441A9DF84000400710D420208DF8B2
:100680000000002609E001236A4602A9404600F066
:1006900000FE002840F08580761CA642F3DB079E12
:1006A0000DF1500B0AE01BF8011B0498C04700280D
:1006B000049076D00D98401C0D90761E002EF2D13D
:1006C00030208DF800004FF0000B0A9E09E0012356
:1006D0006A4602A9404600F0DCFD002861D10BF11A
:1006E000010BB345F3DB089EDDF814B00AE01BF8FC
:1006F000011B0498C0470028049052D00D98401C5C
:100700000D90761E002EF2D130208DF800004FF0B3
:10071000000B0B9E09E001236A4602A9404600F047
:10072000B8FD00283DD10BF1010BB345F3DB059873
:100730000899099E01EB000B09E01BF8011B0498C6
:10074000C047049068B30D98401C0D90761E002E93
:10075000F3D130208DF800004FF0000B0C9E08E024
:1007600001236A4602A9404600F093FDC8B90BF187
:10077000010BB345F4DB9DF8400040077FF519AD50
:1007800020208DF80000002600E0761CA642BFF66F
:1007900010AD01236A4602A9404600F07AFD002808
:1007A000F3D04FF0FF3025B0BDE8F08F000000001F
:1007B00000000000686A6C747A4C0000622826D041
:1007C00068281DD06A2808D06C2827D0712804D04A
:1007D000742823D07A280CD020E00868C01D20F0AF
:1007E00007000860D0E90023083008601946104669
:1007F00070470A680A6052F8040B0A6000217047CB
:100800000A680A6052F8040B0A6000B20BE00A683A
:100810000A6052F8040B0A6040B204E00A680A60F9
:1008200052F8040B0A60C11770472DE9F44F0D46CA
:1008300094B0D5F830B0BBF1000F804648BF6FF0E0
:10084000004B00F0B3FD696B401801900FF670206B
:10085000D0E90023CDE9022395F83800400702D4FF
:100860000198412806D240200DF1100A01904FF066
:10087000000909E000F0A0FD5FEA000AF7D14FF09F
:10088000FF3058E1ABEB040BBBF1010FC0F2CD80A0
:100890001498018802AA0DF1010000F0E5FD00287E
:1008A000044600F1D5801498008810B9641E00F148
:1008B000CF80A345C0F2B98068690199221891429E
:1008C00080F0A180296AC5F834904042401AA96995
:1008D000401A696A401AE969401AA96AA0EB01093D
:1008E00095F83800400710D420208DF8000000262D
:1008F00009E001236A462946404600F0CAFC002868
:1009000040F0A680761C4E45F3DB6E6957460BE03F
:1009100017F8011BA868C0470028A86000F098805D
:10092000E86A401CE862761E002EF1D130208DF876
:10093000000000272E6A09E001236A462946404646
:1009400000F0A7FC002840F083807F1CB742F3DB57
:10095000AE69EF680AE017F8011BA868C0470028D5
:10096000A86075D0E86A401CE862761E002EF2D1BD
:1009700030208DF8000000276E6A08E001236A46E7
:100980002946404600F085FC002861D17F1CB74213
:10099000F4DBE868A969EE690F180AE017F8011B93
:1009A000A868C0470028A86052D0E86A401CE862E6
:1009B000761E002EF2D130208DF800000027AE6A9E
:1009C00008E001236A462946404600F062FC002800
:1009D0003ED17F1CB742F4DB95F8380040070ED5B6
:1009E00020208DF80000002607E001236A462946F2
:1009F000404600F04EFC58BB761C4E45F5DB4FF0F0
:100A00000009C5F81490224668690DF101015044AF
:100A100000F038FD6869201868611498801C1490F3
:100A2000801E008800287FF42DAF686B6969401A2A
:100A3000296A401AA969401A696A401AE969401A84
:100A4000A96A471A95F83800400710D400240CE032
:100A50004FF0FF3968E0A8682021C0470028A8604F
:100A6000F6D0E86A401CE862641CBC42F3DB6B69A8
:100A700052462946404600F00CFC0028E8D12C6A7A
:100A8000002609E0A8683021C0470028A860DFD010
:100A9000E86A401CE862761CA642F3DBAB69EA68B0
:100AA0002946404600F0F5FB0028D1D16C6A0026AB
:100AB00009E0A8683021C0470028A860C8D0E86ACB
:100AC000401CE862761CA642F3DBE868A969EB6982
:100AD0000A182946404600F0DCFB0028B8D1AC6A71
:100AE000002609E0A8683021C0470028A860AFD0E0
:100AF000E86A401CE862761CA642F3DB95F83800F1
:100B000040070DD5002409E0A8682021C04700282F
:100B1000A8609DD0E86A401CE862641CBC42F3DB1C
:100B2000C5F81490C5F8349004A882451CBF5046FF
:100B300000F0E4FC484615B0BDE8F08F2DE9FA4E10
:100B400005460A462F696F2A08BF082405D041F0E0
:100B50002000782814BF0A2410243C26D5E900017F
:100B6000642A18BF692A81468A4605D1002903DA1A
:100B7000D9F100096AEB4A0ABAF1000F08BFB9F1CE
:100B8000000F0CD1286B50B9082C36D195F83800DD
:100B9000000732D530203B2687F83B002DE0E317D5
:100BA00048465146224600F0E9FCA4FB0023A9EB8D
:100BB00002023032D2B2A6F1010B3A2A5E4603DBC2
:100BC0009DF80030513B9A180BF8072081465FEAE8
:100BD000010A08BFB9F1000F03D0E868F119884293
:100BE000DDD3082C09D195F83800000705D5F05D54
:100BF000302802D0761E3020F055C6F13C00A861A6
:100C0000F119E960296B884208DA081A28624FF660
:100C1000EF71288F08402887BDE8F38E00290ED594
:100C200095F8381001F01401102908D1696B6A6930
:100C3000891A2A6A891A0E1A012EA8BF2E62BDE8E7
:100C4000F38E00002DE9F24F04468EB0D4E9000186
:100C5000CDE9020104AF9DF8380040F0200BBBF154
:100C6000610F0AD0206B002848BF062004D408BFBB
:100C7000BBF1670F01D1012020636168C1F30A5005
:100C800040F2FF7290421CD1080304BF2068002884
:100C900009D10320A0619DF8380061381A2836D3A5
:100CA0000FF2306108E00320A0619DF83800613840
:100CB0001A2829D30FF21461E068032200F0E2FB46
:100CC000BEE1012816DA204600F0CFFC012811DB36
:100CD00000250020BBF1610F20D1E168302201F82E
:100CE000012B4A1CE2609DF83820612A0CBF782253
:100CF00058220FE0626840F2FE3161F31E52451A3D
:100D000062604FF0FF30E5E70FF2BC51D4E70FF21D
:100D1000C051D1E70A706169891C616110B9002670
:100D2000002584E1BBF1610F40F09780206B002823
:100D30004CBF2126461CD4E900ABDDE902010022AC
:100D4000002300F0B3FC36B23ABF8BF00040CDE98F
:100D500002A0CDE902AB06F101082D1F8DF810208D
:100D60000DF1110700E0C71DB8F1010F33DBDDE91C
:100D700002010022002300F0B1FC2CD21C2102A8A9
:100D800000F0C4FCDDE9020100F04AFDA8F107080B
:100D9000B8F1010F814609DB00F06EFD02460B46FB
:100DA000DDE9020100F080FDCDE90201F81D072117
:100DB00005E009F00F0200F8012D4FEA2919B9F1F9
:100DC000010F01DB491EF4D5491E5CBF002200F86B
:100DD000012DF9D5C7E70DF11100391AB142B8BF9D
:100DE0000E4636B230000DF111072FD4884206DAD4
:100DF00004A9411849780829A8BF0F2100DA002169
:100E000004AA821800E0761E12F80139401E8B42B7
:100E1000F9D00F2904D104A941184A78521C4A700C
:100E2000002802D504AF761C2D1D36B2701E0DD4DD
:100E3000C1190A783032D2B23A2A03DB9DF8383031
:100E40003A3B9A18401E01F80129F2D5206B002880
:100E500040F1ED80701E2063E9E0DDE9020100222F
:100E6000002300F023FC3CBF81F00041CDE90201EA
:100E70002DB247F2975068434B49DFF8309190FB11
:100E8000F1F52DB2C5F1070ABAF1010F90461CDB4E
:100E9000DDE902675FEACA7007D542464B46304635
:100EA000394600F0C1FD06460F46404649464246D7
:100EB0004B464FEA6A0A00F0B7FDBAF1000F8046D0
:100EC0008946E7D1CDE9026724E0CAF1000A00268D
:100ED000374F14E05FEACA7007D542464B463046AA
:100EE000394600F0A1FD06460F46404649464246B7
:100EF0004B4600F099FD4FEA6A0A80468946BAF1EE
:100F0000000FE7D1DDE9020132463B4600F05EFE0C
:100F1000CDE90201BBF1660F0CBF05F10A00062006
:100F2000216BDFF890904618142EA8BF13263020AE
:100F30008DF810000DF11107012E3DDBDDE90201F6
:100F400000F084FC07F1080104220A23B0FBF3F34C
:100F500003EB8307A0EB4700303001F8010C0A20B7
:100F6000B3FBF0F000EB8007A3EB47033033521ED6
:100F700001F8023DE9D1083E012E01F10807DBDB53
:100F8000DDE9020100F062FC00F080FC02460B4645
:100F9000DDE9020100F088FC00224B4600F044FD30
:100FA000CDE90201CAE700BFA0860100000024408D
:100FB0000000F03F84D797410DF11100381A0DF170
:100FC000110702E0401E6D1E7F1C39783029F9D0D0
:100FD000BBF1660F02D12DB2691C04E0BBF1650FB5
:100FE0000CBF01210021226B8E1836B2B042B8BF6F
:100FF000064636B231001AD4814204DAC85D35287B
:10100000A8BF392000DA3020CA19521E00E0761E2F
:1010100012F80139491E8342F9D0392802D1C85D3E
:10102000401CC855002902D57F1E761C6D1C2DB2B0
:101030009DF83810009533B23A46204600F003F888
:101040000FB0BDE8F08F2DE9F04786B006468A461E
:1010500090461D4600F003FF012D406A376B90F863
:10106000009002DA01250FF270284AF02000BDF945
:101070003840662808BF641C12D0672876D114F166
:10108000040F79DBBC4277DA96F83800641C00075D
:1010900002D4BD42B8BF2F4624B23F1B48BF002731
:1010A00024B2F068B169012C21DA4A1C30230B54B8
:1010B000012F03DA96F83810090702D502F80090DC
:1010C000521CB261E742B8BF7C4224B26142E719C8
:1010D0007162AF42B8BF3D46B3692DB2F5612A4691
:1010E0004146181800F0CEF9781BB062BAE0081833
:1010F000A54216DA2A46414600F0C4F9B1696918DA
:10110000601B012FB161706203DA96F838000007A6
:1011100005D5F06801F80090F069401CF061B762F5
:10112000A0E02246414600F0ADF9B06920182D1B21
:10113000012F03DA96F83810090703D5F16800F893
:101140000190401C2DB2B061AF42B8BF3D46F0687F
:10115000B3692DB22A4604EB0801181800F092F981
:10116000B0692818B061781B70627BE0BAF1610F3A
:1011700014D14FF0700A16E0BD4204DA96F8381028
:10118000090758BF2F467F1E48BF0027BAF1670FD7
:1011900014BF4FF0450A4FF0650A04E0BAF1410F61
:1011A00008BF4FF0500AB169F0684A1CB261012FC4
:1011B00018F8013B0B5403DA96F83810090715D5D7
:1011C000531CB36102F80090012F0FDB6D1E2DB28E
:1011D000AF42B8BF3D462DB22A464146181800F02E
:1011E00051F9B0692818B061781B7062F068B16974
:1011F0000918200081F800A004D42B20487001F1C8
:10120000020804E02D224A7001F102086442002520
:1012100002AF08E00A22684600F03AFE019807F89B
:10122000010B6D1C009C21B20129F3DA022D06DAB4
:101230004AF02000652804BF302008F8010B4DB9A2
:10124000302008F8010B07E06D1E02A8285C303042
:1012500008F8010B012DF7DAF068B1690818A8EB5E
:101260000000F06196F8380000F0140010280DD14D
:101270007069B1690818716A0818F1690818B16ACB
:101280000818716B8842BCBF081A306206B0BDE80E
:10129000F087F8B504460D4616461F46002004E0C8
:1012A000E86A401CE8627F1E002047B116F8011B67
:1012B000A868A0470028A860F2D14FF0FF30F2BD27
:1012C00000000000000000006E616E004E414E0004
:1012D000696E6600494E46003000F8B504460D467A
:1012E00016461F4600F0DCFD3B46324629462046A6
:1012F00001B0BDE8F04000F0EABD0268531C036095
:10130000117070470278C9B28A421AB11CBF10F836
:10131000012FF9E718BF00207047000000F101031A
:10132000810704D010F8011B89B18107FAD1026846
:10133000B2F10131914311F0803F04BF50F8042F06
:10134000F6E710F8011B11B110F8011BFBE7C01AFA
:1013500070470000C9B2830706D0521E22D310F88E
:10136000013B9942F7D11FE0083A13D302F104027E
:1013700041EA012141EA014150F8043B121F21BF1B
:101380004B40A3F1013C2CEA030C1CF0803FF3D04E
:10139000C9B2001F083210F8013B521E28BF91EA63
:1013A000030FF8D818BF0120401E704780B500F029
:1013B00077FD012002BD000070B5054605F10F0064
:1013C000C408C046C046E400A54232D2082C04D26C
:1013D000082402E0083000F091F822480268110069
:1013E0000CD1011D0A6802B31368A34238BF111D56
:1013F000F8D310E01D68A5420DD2191D0B68002B13
:10140000F8D11268011D00E0191D0B6893420CD041
:101410001D68A542F8D361B10D682A68A2F10803DE
:10142000A3420AD26A680A600FE000F073FD002848
:10143000D0D1C046C046002070BD63190B60121B9E
:101440006E685E600B681A602C60096800291DBF19
:101450004A68002A091D00210160C046C04605F106
:10146000080070BD7002002070B504460D46164697
:1014700000F016FD324629462046BDE8704000F0D7
:1014800019BD000062B38B0708D0521E11F8013B52
:1014900000F8013B00F024808B07F6D1830740F071
:1014A000208000BF103A07D330B4B1E83810103AAA
:1014B000A0E83810F9D230BC530724BFB1E80810B7
:1014C000A0E8081044BF51F8043B40F8043BD207A1
:1014D00024BF31F8022B20F8022B44BF0B78037095
:1014E0007047083A07D3B1E80810083A40F8043BBF
:1014F00040F804CBF7D25307E4E7000000B9704787
:1015000038B5A0F108042068082833D310F0070F7D
:1015100030D1C046C0461848416809B18C4203D258
:101520006160446017E019464B680BB1A342FAD3DF
:101530000B685D18AC421BD3A54204D12268D218B7
:101540000A600C4607E04A681AB123681B199A42E0
:101550000ED362604C60616851B1226813198B42EE
:1015600006D1002303600868801820604868606026
:10157000C046C04631BD0000700200201B4213D19E
:10158000094236D12AB18446B0FBF2F002FB10C208
:10159000704700F0D5BCFCD30022002370470B003D
:1015A0000200002100207047904271EB030CF6D33B
:1015B00070B5B1FA81F4B3FA83F52C1BA340C4F1E2
:1015C000200532FA05F63343A2405FF00046E640BC
:1015D00002E05B085FEA3202841A71EB030524BF64
:1015E000204629467641F4D302000B00300000214A
:1015F00070BD012ACFD970B5140C20D0B1FA81F496
:10160000B2FA82F5C4F120046419B4F12006D6D3ED
:10161000B2405FF00044F440002502E052085FEA67
:101620003303C61A71EB020E24BF30467146644183
:101630006D41F3D302000B002000290070BD0C4661
:10164000B1FBF2F102FB11452D0445EA1045B5FB53
:10165000F2F402FB145580B240EA0545B5FBF2F006
:1016600002FB105240EA044070BD30B4436803F0FE
:10167000004201211B031B0B436004BF0368002BC6
:1016800008D10DE00368DD0F45EA440444605B00C7
:101690000360491E4468E302F4D523031B0B436037
:1016A00043681A434260084630BC70474FF4001C40
:1016B0001CEB410F94BF1CEB430F09E041EA030C04
:1016C00050EA4C0C52EA0C0C03D2994208BF9042EB
:1016D000704714BF8B428242704700004FF4001CD9
:1016E0001CEB410F94BF1CEB430F09E041EA030CD4
:1016F00050EA4C0C52EA0C0C03D28B4208BF8242D7
:10170000704714BF994290427047000070B504467C
:101710000D466068C0F30A5040F2FF71884207D15D
:101720006068000304BF2068002817D0022070BD45
:1017300020B92046FFF799FF012866DA012D0FDB5B
:1017400040F2FF71091A8D420AD3606800284CBF2D
:101750009FED2F0B9FED300B84ED000B012070BD32
:101760004142A942616806DA6FF31E51401941EA0D
:101770000050606040E0401E63684519012205F199
:10178000350062F31F53352801F00041636003D335
:1017900061600020206070BD002015F11F0F04DA89
:1017A000206823600022203562606A4212D0401E09
:1017B00025688041C2F12003C0439D4045EAD070B6
:1017C00025686668D54006FA03F32B4323606368F7
:1017D000D340636062680A43B0F1004F626003D88F
:1017E0000DD12078C0070AD52068401C20602068F1
:1017F00028B96068401C60604FF0FF3070BD6068C1
:10180000884204BF20680028F6D1002070BD00BFC8
:10181000000000000000F0FF000000000000F07F6A
:10182000F446400D40EAC120490006D200F014F809
:10183000004248BF6FF00040604700F00DF84FF0E5
:10184000004188428CBF084640426047400D40EA54
:10185000C120490080F00D8040F00040490DA1F505
:101860008061491C05D4D1F11F0154BFC840C01785
:1018700070474FF000007047010040F10980F446C6
:10188000404200F005F851F000416047010000BF00
:1018900009D0B0FA80F18840C91CC1F584610905FE
:1018A00001EBD02140057047F0B44FF0004591EABC
:1018B000030F44BF6B4000F04FBB00BF841A71EBB5
:1018C000030604D26E40001BB141121973414FF45C
:1018D000001C1CEB410F34BF7CEB430684E00C0D75
:1018E000A4EB1356362E7DDC012E43DC45EAC323E0
:1018F00043EA525312BFD20292025B08240545EA22
:10190000C12141EA5051D2EBC020994125D407D1E1
:10191000B0FA80F610FA06F164D00020203608E014
:10192000B1FA81F6B140C6F1200220FA02F2114369
:10193000B0404FEAF474B4EB465434F001064FEA79
:1019400074040AD8D6F50016760D04F00044F04071
:1019500061FA06F25040F1404840C00A40EA415066
:1019600021F0004128BF5FEA500550F1000044EB30
:10197000D12137E045EAC323DB0A45EAC121C90A80
:10198000B6F120050EDD42EA0242120CC5F1200636
:1019900003FA06F6EB4042EA06056D42984161F112
:1019A00000010DE062FA06F5F240554063FA06FCCC
:1019B00082EA0C02F3405A406D42904161EB030110
:1019C00011F4801F05D1641E620502D06D004041F4
:1019D000494121F48011430875F1004350F10000A2
:1019E00041EB0451F0BC70471CEB410F15D223F0C2
:1019F000004352EA43060BD04FEA4C0CBCEB410FBC
:101A000004D80C0D661E342EB7DDEBE7801A994121
:101A100050EA410608BF0021E4E708BF1CEB430F72
:101A200028BF6FF00001DDE7B0B581EA030C0CF0D0
:101A3000004C40F2FF7515EA11541DBF15EA13570B
:101A4000AC42AF4239E0E41923EA455343F4801332
:101A5000C90241F0004141EA505EC7021100A7FBF4
:101A6000020200284FF00000EEFB01204FF00001C1
:101A7000E3FB072118BF42F0010240180021494151
:101A8000E3FB0E01A4F580640F0302D25200404133
:101A9000494154F101046CDD470872F1004250F1F4
:101AA000000051EB0451A1F580115CBF41EA0C012B
:101AB000B0BD4CEA05510020B0BD05EA1357AC4259
:101AC00014BFAF4241E050EA410E1CBF52EA430E40
:101AD00002E061460020B0BD24423C441BD15FEAD5
:101AE000070EF6D0090302BF01460020AEF1140E26
:101AF000B1FA81F7AEEB070401FA07FE0C37C7F124
:101B0000200100FA07F7C8404EEA000E23EA4553C9
:101B100043F48013A2E733F00043B3FA83F704BF22
:101B2000B2FA82FE77440B3FE41BB7F1200E2FBFC1
:101B300002FA0EF3BB40C7F1200E22FA0EFE38BFA8
:101B400043EA0E03BA40641C82E750EA410E14BF18
:101B500052EA430E6FF000014FF4001717EB430FEA
:101B60008ABF194617EB410FB5E74CEA0551002033
:101B7000B0BDD4F10104B4F120070FDAC4F120079D
:101B8000520828BF42F0010210FA07F501FA07F7E0
:101B9000E1BF2A43E0403843E1400FE0352C98DCB8
:101BA000C7F1200452EA400220FA07F218BF42F0BF
:101BB000010231FA07F0A1400A43002172F100420C
:101BC00050F1000051EB0C01B0BD00002DE9F041D7
:101BD00040F2FF7581EA030C0CF0004C15EA115439
:101BE0001DBF15EA1357AC42AF42E9E0BC41C1F357
:101BF0001301C3F31303801A994143F4801304D2F1
:101C0000641E4000494180185941C90241EA5051BF
:101C1000B1FBF3F603FB1611A2FB0675D7EBC02050
:101C2000A94102D2761E80185941C90241EA505199
:101C3000B1FBF3FE03FB1E11A2FB0E75D7EBC02018
:101C4000A94103D2AEF1010E80185941890241EA3F
:101C50009051760546EA8E2EB1FBF3F603FB161182
:101C6000A2FB0675D7EB8020A94102D2761E801810
:101C70005941C90241EA50514EEA060EB1FBF3F652
:101C800003FB1611A2FB0675D7EBC020A94102D2B7
:101C9000761E80185941C90241EA5051B1FBF3F751
:101CA00003FB1711A2FB0735D3EBC020A94167F155
:101CB00000070CBF004247F0010766F3D5274FEA43
:101CC0001E31B80814F5806414DDBD0775F10042BB
:101CD00050EB0E5051EB045111F5801F5CBF41EAEF
:101CE0000C01BDE8F0814CF07F6141F0E041002043
:101CF000BDE8F081BD076D0840EA0E5041F4801147
:101D0000D4F10104B4F120060ADAC4F1200602007D
:101D1000E04001FA06F3E1401843B24015430EE0FB
:101D2000342C14DCC6F1200445EA40056D0820FA85
:101D300006F2154321FA06F0A1400D43002175F18A
:101D4000004250F1000051EB0C01BDE8F081002091
:101D50005FEA0C01BDE8F081CFB992185B41B3FA9C
:101D600083F704BFB2FA82F6BF190B3FB7F1200622
:101D70002FBF02FA06F3BB40C7F1200622FA06F68F
:101D800038BF3343BA401CB1E419641E2FE77F42C9
:101D900031F00041B1FA81F404BFB0FA80F6A41921
:101DA0000B3CB4F120062FBF00FA06F1A140C4F1AC
:101DB000200620FA06F638BF3143A0403C1B16E748
:101DC000AC421ABF05EA1357AF4214E050EA41068D
:101DD0001CBF52EA4306BFE750EA4107304661465E
:101DE0001CBF41EA0551BDE8F08152EA430C08BF2F
:101DF000C143BDE8F08100204FF4001616EB410FFF
:101E000098BF16EB430F08BF16EB410F24BFC14329
:101E100005E016EB430F0CBF61464CEA0551BDE8E7
:101E2000F081000080B5134800F000F90FF24C0279
:101E30000FF244010160426241600FF2440282638A
:101E400081600FF24402C160016141618161816280
:101E5000C16201634163C2630164416401BD10B5A5
:101E6000044800F0E3F80446206808B9FFF7DAFFF9
:101E7000204610BD00000020000000002E000000E1
:101E800066616C7365000000747275650000000087
:101E900091FBF2F303FB1211C0E90031704700001F
:101EA00080B5DFF80C0000F0C1F8806902BD0000C9
:101EB0009000002030B430B90FF24800D0E900455E
:101EC000C2E900451BE00170012030BC704730B40E
:101ED00031B90FF23800D0E90045C3E900450EE002
:101EE0001AB930BC6FF00100704708B10A7802805F
:101EF0000978481E804130BCC043C00F70470020A5
:101F000030BC70470000000000000000000000002E
:101F1000000000000749086808B100207047064823
:101F2000C008C00008600549C908C900091A016055
:101F3000704700BF800200209712002090140020FC
:101F400070470000F0B44FF0004591EA030C44BF25
:101F50006B40FFF7B3BC00BF841A71EB030603D2DA
:101F6000001BB141121973414FF4001C1CEB410FCF
:101F700034BF7CEB430443E00C0DA4EB1356352E29
:101F800050DC45EAC323DB0A45EAC121C912B6F198
:101F900020050DDD63FA05F6EB4086EA03051242E3
:101FA00018BF45F00105C01851F100010CD213E033
:101FB00062FA06F5F2405540F3415A40B340F3400F
:101FC0005A408018594107D349085FEA30005FEA58
:101FD000350528BF45F0010501F58011420875F16E
:101FE000004250F1000041EB0451F0BC4FF4001CE2
:101FF0001CEB410F38BF70470020090D09057047E1
:102000001CEB410F10D252EA43060BD0BCEB410F40
:1020100005D80C0DAB43661E342EB5DD02E0AB4394
:1020200080185941F0BC7047F0BC70477047000001
:1020300010B50400002C01D1012014E094F93900FE
:10204000002805D1002084F83800200000F042FD6F
:10205000022084F83900211D206800F0CEFA01200A
:1020600084F83900002010BD10B50400002C01D107
:10207000012014E094F93900002805D1002084F8EB
:102080003800200000F00CF8022084F83900211DEF
:10209000206800F0B2FA012084F83900002010BD59
:1020A000704710B504000800002806D004280BD0A3
:1020B000082810D00C2815D01BE02068C06850F00C
:1020C00002002268D06014E02068C06850F004006C
:1020D0002268D0600DE02068C06850F008002268D7
:1020E000D06006E02068C06850F010002268D06020
:1020F000FFE70122206800F02DFB2068DFF8FC10CC
:10210000884204D02068DFF8F810884201D101200D
:1021100000E00020C0B2002805D02068406C50F4D8
:102120000040216848642068006850F00100216880
:102130000860002010BD10B504000800002806D07B
:1021400004280BD0082810D00C2815D01BE02068DC
:10215000C06830F002002268D06014E02068C068D7
:1021600030F004002268D0600DE02068C06830F0D4
:1021700008002268D06006E02068C06830F01000D7
:102180002268D060FFE70022206800F0E3FA2068B0
:10219000DFF86810884204D02068DFF864108842B5
:1021A00001D1012000E00020C0B2002811D0206839
:1021B000006A41F2111108420BD12068006A40F216
:1021C0004441084205D12068406C30F40040216849
:1021D00048642068006A41F2111108420BD120685E
:1021E000006A40F24441084205D120680068400876
:1021F000400021680860002010BD00000000014080
:102200000004014070B504000D00002000210022F0
:10221000002C01D101204AE094F93900002805D1B1
:10222000002084F83800200000F016FD022084F819
:10223000390020688068C008C00021688860211DBE
:10224000206800F0DAF920688068216889692268CE
:10225000126A2B681843DFF878321940AB68AE6910
:1022600053EA06231943DFF86C321940DFF868326D
:102270001940EB68EE6953EA062319432B692E6A6D
:10228000360356EA0313194332F0220232F0880271
:102290006B686D6953EA05131A43236898602068D8
:1022A000816120680262012084F83900002070BD3D
:1022B00010B50400002902D0042906D00BE0012249
:1022C0000021206800F046FA0FE001220421206876
:1022D00000F040FA09E001220021206800F03AFAFB
:1022E00001220421206800F035FA2068006850F0CF
:1022F000010021680860002010BD10B504002068AE
:10230000006980071AD52068C068800716D57FF05D
:10231000020021680861012020762068806910F0A1
:10232000030F03D0200000F065F905E0200000F065
:10233000E6FB200000F05FF90020207620680069AD
:1023400040071AD52068C068400716D57FF0040002
:1023500021680861022020762068806910F4407F9F
:1023600003D0200000F046F905E0200000F0C7FB94
:10237000200000F040F90020207620680069000766
:102380001AD52068C068000716D57FF008002168BC
:102390000861042020762068C06910F0030F03D084
:1023A000200000F027F905E0200000F0A8FB200045
:1023B00000F021F90020207620680069C0061AD5B7
:1023C0002068C068C00616D57FF01000216808613B
:1023D000082020762068C06910F4407F03D02000D8
:1023E00000F008F905E0200000F089FB200000F073
:1023F00002F90020207620680069C0070AD520680D
:10240000C068C00706D57FF0010021680861200080
:1024100000F05EFC2068006900060AD52068C068EC
:10242000000606D57FF0800021680861200000F0DA
:10243000CDFC2068006940060AD52068C0684006C7
:1024400006D57FF0400021680861200000F0D4F834
:102450002068006980060AD52068C068800606D515
:102460007FF0200021680861200000F0AEFC10BD64
:1024700010B5040094F93800012801D1022025E0AC
:10248000012084F83800022084F83900002A06D0A0
:10249000042A08D0082A0AD00C2A0CD00FE02068A1
:1024A00000F068F90BE0206800F019F907E02068F7
:1024B00000F096F903E0206800F0CCF9FFE7012076
:1024C00084F83900002084F83800002010BD000096
:1024D000FCFCFFFFF3F3FFFF0F0FFFFF10B504003D
:1024E000002094F93800012801D1022081E0012068
:1024F00084F83800022084F839002068806830F0C1
:10250000770030F47F40226890600868002855D03A
:10251000102858D020285BD030285ED0402843D0E7
:1025200050282DD0602835D070280DD0B0F5805FB0
:1025300003D0B0F5005F16D054E020688068C00872
:10254000C000216888604DE0CB684A6889682068CF
:1025500000F0F9F92068806830F0770050F07700DB
:10256000216888603EE0CB684A688968206800F08E
:10257000EAF92068806850F480402168886031E082
:10258000CA684968206800F0ABF95021206800F063
:10259000D0F927E0CA684968206800F0B5F96021E1
:1025A000206800F0C6F91DE0CA684968206800F09C
:1025B00097F94021206800F0BCF913E00021206861
:1025C00000F0B7F90EE01021206800F0B2F909E040
:1025D0002021206800F0ADF904E03021206800F0EF
:1025E000A8F9FFE7012084F83900002084F83800BA
:1025F000002010BD70477047704700220268DFF866
:10260000B432984212D0B0F1804F0FD0DFF8A83228
:1026100098420BD0DFF8A432984207D0DFF8A032FE
:10262000984203D0DFF89C32984201D1012300E0A8
:102630000023DBB2002B03D032F070024B681A4348
:10264000DFF8703298422AD0B0F1804F27D0DFF8FF
:102650006832984223D0DFF8643298421FD0DFF806
:10266000603298421BD0DFF85C32984217D0DFF816
:102670005832984213D0DFF8543298420FD0DFF826
:10268000503298420BD0DFF84C32984207D0DFF836
:102690004832984203D0DFF84432984201D10123F6
:1026A00000E00023DBB2002B03D032F44072CB6891
:1026B0001A4302608A68C2620A6882627D4A904256
:1026C00002D0804A904201D1012200E00022D2B221
:1026D000002A01D00969016301214161704730B4CA
:1026E000002200230024026A32F010020262036A10
:1026F0004468826932F4E04232F440720D6852EA72
:10270000052233F020038D6853EA0513694DA84272
:1027100002D06C4DA84201D1012500E00025EDB2A8
:10272000002D10D033F08003CD6853EA051333F049
:10273000400334F4806434F400644D6954EA850441
:102740008D6954EA8504446082614968816303624B
:1027500030BC704710B4002301238B40046A34EA74
:1027600003030362036A12FA01F11943016210BC08
:102770007047000030B4002200230024026A52088F
:1027800052000262036A4468826932F07002920861
:1027900092000D682A4333F002038D682B43454DA8
:1027A000A84202D0474DA84201D1012500E00025F2
:1027B000EDB2002D0DD033F00803CD682B4333F07C
:1027C000040334F4807434F400744D692C438D692F
:1027D0002C434460826149684163036230BC7047A6
:1027E00030B4002200230024026A32F480720262B4
:1027F000036A4468C26932F07002920892000D6860
:102800002A4333F400738D6853EA0523294DA84207
:1028100002D02C4DA84201D1012500E00025EDB2E7
:10282000002D10D033F40063CD6853EA052333F450
:10283000806334F4805434F400544D6954EA051430
:102840008D6954EA05144460C2614968C16303623A
:1028500030BC704730B4002200230024026A32F4F6
:1028600080520262036A4468C26932F4E04232F480
:1028700040720D6852EA052233F400538D6853EA22
:1028800005330C4DA84202D00E4DA84201D10125BE
:1028900000E00025EDB2002D04D034F480444D69F1
:1028A00054EA85144460C26149680164036230BC23
:1028B0007047000000000140000400400008004094
:1028C000000C004000040140004001400044014071
:1028D0000048014000180040001C0040002000405B
:1028E00010B400230024046A036A5B085B000362DF
:1028F000836933F0F00353EA021334F00A040C4303
:102900008361046210BC704710B400230024036A82
:1029100033F0100303628369046A33F4704353EAAB
:10292000023334F0A00454EA01148361046210BC41
:1029300070470022826832F0700289B251F00701BC
:102940000A438260704710B40024846834F47F44E2
:10295000114351EA03210C43846010BC704700000E
:1029600000B587B0002000908A48006850F480705D
:10297000884908608748006810F4807000900098CB
:10298000002000908348006850F0080081490860EA
:102990008048006810F00800009000980020009027
:1029A0007C48006850F008007A490860794800685F
:1029B00010F0080000900098202001900220029062
:1029C000022004900320059001A9734800F000FA4A
:1029D0000820019001200290022004900020059020
:1029E00001A96E4800F0F4F98020019001200290C6
:1029F000022004900020059001A9684800F0E8F941
:102A000000220821654800F0D9FA0022802163489D
:102A100000F0D4FA07B000BD00B595B06048614938
:102A2000086040F217105F49486000205D498860E7
:102A30004FF6FF705B49C86000205A4908610020CA
:102A4000584948615748FFF7F3FA4FF48050109007
:102A500010A95448FFF742FD5248FFF705FB00203C
:102A600000900020019069464E4800F051F9002086
:102A7000099000200A9000200B9000200C9000206C
:102A80000D904FF400500E9000200F9009A945487A
:102A900000F06AF93020029043480088039000203B
:102AA0000490082005900020069000200790002048
:102AB0000890002202A93B48FFF7DAFCFFF750FF1D
:102AC000002200212E2000F007FB2E2000F015FB35
:102AD00015B000BD81B00068314988420DD1002099
:102AE00000903248006850F00200304908602F48DA
:102AF000006810F002000090009801B0704729486B
:102B00000068406A28490988081880B22549096880
:102B10004863704710B52DED028BB0EE408A00245B
:102B2000B5EE408AF1EE10FA05D1012280211B4852
:102B300000F044FA29E0C0B2012805D101220821A1
:102B4000164800F03BFA04E000220821134800F088
:102B500035FA174800684FF48C71B0FBF1F0322160
:102B6000B0FBF1F000EE100AB8EE400A80EE080A61
:102B7000BDEEC00A10EE104A00228021074800F086
:102B80001DFAA4B2600808490880BDEC028B10BD94
:102B9000000000003038024000200240000C0240DB
:102BA00000040140E40100200001002044380240FC
:102BB000FC00002080B54F484F49086000204E4976
:102BC000486000204C4988604FF6FF704A49C86051
:102BD000002049490861032048490860002047490E
:102BE000486001204549886000204449C8600020B1
:102BF0004249086100204149486101203F498861FC
:102C000000203E49C86100203C49086200203A4942
:102C10000968486239493848FFF7F4FA7FF0010043
:102C200035490968086134480068006850F00400BC
:102C300031490968086030480068C06850F00100F8
:102C40002D490968C860002200211D2000F044FAC7
:102C50001D2000F052FA01BD00B587B0006825497B
:102C6000884233D1002000902548006850F00200CF
:102C7000234908602248006810F002000090009884
:102C8000002000901F48006850F004001D490860B3
:102C90001C48006810F0040000900098402001904B
:102CA00002200290012003900220059001A91648FD
:102CB00000F08EF880200190022002900120039005
:102CC0000220059001A9104800F082F807B000BD6D
:102CD000094800680068C00605D50C480088401EF9
:102CE0000A49088004E009480088401C0749088018
:102CF0007047000000040040A801002020020020CE
:102D0000403802403038024000080240840200206F
:102D100090F93820012A01D1022024E0012280F814
:102D20003820022280F839200268526832F070029E
:102D300003685A60026852680B681A4303685A6055
:102D40000268926832F0800203689A6002689268B2
:102D50004968114302689160012180F8391000210F
:102D600080F8381000207047002290F93830012B8D
:102D700001D1022028E0012380F83830120A120223
:102D8000CB681A4332F440728B681A4332F4806283
:102D90004B681A4332F400620B681A4332F48052D3
:102DA0000B691A4332F400524B691A4332F48042E1
:102DB0008B691A4332F4004289690A4301684A6404
:102DC000002180F8381000207047704770470000DD
:102DD00078B4002400230024002237E00825EDB257
:102DE00012F00306F6B2B600B5402C43DFF8E0510E
:102DF000960845F82640DFF8DC4124689C434D687E
:102E0000ED0300D51C43DFF8CC512C60DFF8C8413E
:102E100024689C434D68AD0300D51C43DFF8B851CE
:102E20002C60DFF8B84124689C434D68ED0200D562
:102E30001C43DFF8A8512C60694C24689C434D6802
:102E4000AD0200D51C43664B1C60521C102A80F05A
:102E5000AA80012313FA02F40B682340A342F4D1A1
:102E60004C68022C02D04C68122C15D1D40810EBFF
:102E70008404246A0F2512F00706F6B2B600B540A6
:102E8000AC430D6912F00706F6B2B600B5402C430C
:102E9000D50810EB85052C62046803251600F6B2F0
:102EA0007600B540AC430D7915F003051600F6B277
:102EB0007600B5402C4304604C68012C08D04C6867
:102EC000022C05D04C68112C02D04C68122C17D162
:102ED000846803251600F6B27600B540AC43CD6891
:102EE0001600F6B27600B5402C4384604468012594
:102EF0009540AC434D68C5F3001595402C434460A4
:102F0000C46803251600F6B27600B540AC438D6860
:102F10001600F6B27600B5402C43C4604C68E4005D
:102F200093D5002400942F4C246854F480442D4DF4
:102F30002C602C4C246814F480440094009C244C95
:102F4000950854F825400F2512F00306F6B2B60096
:102F5000B540AC43244DA84201D100253FE7234DA5
:102F6000A84201D101253AE7214DA84201D102250D
:102F700035E7204DA84201D1032530E71E4DA84278
:102F800001D104252BE71D4DA84201D1052526E7D7
:102F90001B4DA84201D1062521E71A4DA8427FF416
:102FA0001DAF07251BE771BC7047006989B2084255
:102FB00001D0012000E0002040B2704752B2002A48
:102FC00002D089B2816102E089B20904816170474F
:102FD00008380140003C0140043C0140083C0140ED
:102FE0000C3C014044380240000002400004024012
:102FF00000080240000C0240001002400014024091
:1030000000180240001C024010F007014848006808
:103010004FF6FF021040474A52EA01210843444953
:103020000860704742480068C0F3022070470121E1
:1030300010F01F029140404A40B2400942F820106F
:10304000704740B2002808D509013C4A40B210F050
:103050000F00801800F8041C03E00901384A40B250
:103060008154704710B410F00700D0F10703052B0E
:1030700001D3042301E0D0F10703041D072C01D282
:10308000002000E0C01E012414FA03F35B1E194067
:103090008140012313FA00F0401E1040084310BC89
:1030A000704780B5411EB1F1807F01D301200EE051
:1030B000401E244908600F215FF0FF30FFF7C1FF79
:1030C000002021490860072020490860002002BD37
:1030D00080B5FFF799FF01BD70B504000D00160023
:1030E0000020FFF79FFF32002900FFF7BBFF010020
:1030F000200040B2FFF7A5FF70BD80B540B2FFF7DA
:1031000096FF01BD80B5FFF7CCFF02BD042806D1B4
:103110000E48006850F004000C49086005E00B48B8
:10312000006830F0040009490860704700000000A2
:103130000CED00E00000FA0500E100E018ED00E011
:1031400000E400E014E000E018E000E010E000E03F
:1031500080B500F0C3F901BD00B593B00020009028
:10316000DFF8D403006850F08050DFF8CC1308601B
:10317000DFF8C403006810F0805000900098002031
:103180000090DFF8B803006850F48040DFF8AC131B
:103190000860DFF8A803006810F4804000900098F1
:1031A000012006905FF48030079002200C905FF4BD
:1031B00080000D9008200E904FF4A8700F90022010
:1031C00010900720119006A800F0D6F90F2001906A
:1031D00002200290002003904FF4A05004904FF47E
:1031E00080500590052101A800F0BAFB00F091FC89
:1031F00000F0D9FC4FF47A71B0FBF1F0FFF782FFD9
:103200000420FFF783FF002200215FF0FF30FFF76B
:1032100063FF13B000BD000070B52DED088B01EE0B
:10322000100A9FED3B8ADFED3A0AF8EEC10A30EE54
:10323000608AB6EE000AB4EE408AF1EE10FA08D5C4
:103240009FEDA50AB4EE408AF1EE10FA01DB9FED86
:10325000308ABB4890ED049BB94890ED06ABB84866
:103260004668B74890ED08BB18EE100A00F0E2FC83
:1032700053EC192BFEF7D8FB04000D003000FEF7CD
:10328000FBFA53EC1A2BFEF7CFFB02000B002000D9
:103290002900FEF709FB04000D00A9488068FEF72D
:1032A000EBFA53EC1B2BFEF7BFFB22002B00FEF7C3
:1032B00049FE00F0E7FC00EE900AA1484068A049F2
:1032C0008860BDEEC80A9E4880ED010AB0EE600A33
:1032D000BDEC088B70BD9A489A49016098489A4A9B
:1032E0009A4BC0E90423964800220023C0E9082332
:1032F000934800220023C0E906230020904948603B
:1033000000208F49886000208D49C8607047000008
:103310000000000010B52DED028BA0B09FED818A5A
:10332000002400200020049000200590002000F0E0
:10333000F1FCFFF711FF00F03BFDFFF7CCFF8048E9
:1033400090ED000ADFED780A20EE208A00F006FEFC
:10335000FFF730FC18217E48FEF7AAFF0A2000F094
:1033600011FDFFF759FB012280217A48FFF726FE65
:1033700000217948FEF7DFFE60E07849774A12685D
:103380000A60764991ED000ADFED680AB4EE600A42
:10339000F1EE10FA02DB7149644A0A606F4991ED5F
:1033A000000ADFED630A20EE200AC0B2FFF7B2FB8D
:1033B0006B48007810F0FE00694908706848007892
:1033C00080073BD5DDED048AA4B200EE104AB8EECA
:1033D000400ADFED580A20EE200A10EE100A00F035
:1033E00029FCCDE90201B8EEE80ADFED520A20EE31
:1033F000200A10EE100A00F01DFCCDE90001049A2D
:10340000584906A800F00AFE06A8FDF787FFA4B2F7
:103410002200554906ABC01800F000FE06A8FDF7D3
:103420007DFF020092B206A9504800F040FE002441
:103430004B48007810F0FD004949087000F014FD79
:10344000012808D1FFF747FF44480021016000210F
:103450004148FEF726FE42480078C007AED54448F2
:10346000B0F900004FF6FF71394A1268526A01FB49
:103470000020049004980599401A0499059100B21F
:10348000002802D500B24042FFE70419B0EE480A16
:103490000498FFF7C1FE314880ED000A2F4890EDF7
:1034A000000AB5EE400AF1EE10FA01D5012000E065
:1034B00000202A4991ED000AB5EE400AF1EE10FA1B
:1034C0007FF55BAF2549254A92ED000AB1EE400A2F
:1034D00081ED000A55E70000FEFFFFBE2548008889
:1034E000401C2449088023480088142190FBF1F2F5
:1034F00001FB1200002806D11948007850F00100A5
:10350000174908700DE01B480088B0F57A7F08DB8A
:103510001348007850F00200114908700020154946
:1035200008807047000000000000F043000048439E
:10353000ABAAAA3F8988083B40380240007000408F
:103540004802002000004842B81E85EB51B8AE3F4B
:10355000A8010020000C0240E401002078020020B5
:1035600088020020204E0008F44E0008640100206C
:10357000840200208602002038B50400002520784F
:10358000C0076FD5DFF86406006810F00C0004284F
:103590000BD0DFF85806006810F00C0008280ED198
:1035A000DFF84C060068400209D5DFF848060068DD
:1035B000800357D56068002854D10120CFE16068AE
:1035C000B0F5803F08D1DFF82C06006850F4803059
:1035D000DFF82016086024E06068B0F5A02F10D155
:1035E000DFF81006006850F48020DFF80816086045
:1035F000DFF80006006850F48030DFF8F815086046
:103600000FE0DFF8F005006830F48030DFF8E415F3
:103610000860DFF8E005006830F48020DFF8D4159A
:103620000860606800280ED000F0A9FB0500DFF8F4
:10363000C4050068800315D400F0A1FB401B652879
:10364000F5D303208BE100F09AFB0500DFF8A40519
:103650000068800306D500F092FB401B6528F5D377
:1036600003207CE1207880072BD5DFF880050068F7
:1036700010F00C0F0BD0DFF87405006810F00C0090
:10368000082837D1DFF868050068400232D4DFF837
:1036900064050068800704D5E068012801D0012096
:1036A0005DE1DFF8500500685FF0F851B1FA81F193
:1036B00030F0F800226912FA01F10843DFF83415FE
:1036C00008602078000762D5606900284CD001208E
:1036D000DFF82415086000F052FB0500DFF81C0538
:1036E0000068800753D400F04AFB401B0328F5D341
:1036F000032034E1E068002823D00120DFF8001522
:10370000086000F03CFB0500DFF8E8040068800773
:1037100006D400F034FB401B0328F5D303201EE140
:10372000DFF8D00400685FF0F851B1FA81F130F0B1
:10373000F800226912FA01F10843DFF8B8140860B2
:10374000BFE70020DFF8B814086000F018FB0500A0
:10375000DFF8A00400688007B3D500F010FB401B21
:103760000328F5D30320FAE00020DFF88C1408606A
:1037700000F005FB0500DFF884040068800706D52B
:1037800000F0FDFA401B0328F5D30320E7E0207882
:1037900040077CD500200090DFF86804006850F0F6
:1037A0008050DFF860140860DFF85804006810F0FB
:1037B000805000900098DFF85004006850F480704A
:1037C000DFF84414086000F0DAFA0500DFF8380486
:1037D0000068C00506D400F0D2FA401B0328F5D3D8
:1037E0000320BCE0A068012808D1DFF820040068AD
:1037F00050F00100DFF81414086023E0A0680528E9
:1038000010D1DFF80804006850F00400DFF8FC1362
:103810000860DFF8F803006850F00100DFF8EC13EF
:1038200008600FE0DFF8E403006840084000DFF8BC
:10383000DC130860DFF8D403006830F00400DFF820
:10384000CC130860A068002810D000F098FA05009A
:10385000DFF8B8030068800719D400F090FA401B25
:1038600041F289318842F3D3032078E000F087FAEF
:103870000500DFF898030068800708D500F07FFA9C
:10388000401B41F289318842F3D3032067E0A069ED
:10389000002863D0DFF85403006810F00C000828FB
:1038A0005AD0A069022844D10020DFF864130860D0
:1038B00000F065FA0500DFF83C030068800106D5DA
:1038C00000F05DFA401B0328F5D3032047E0DFF842
:1038D0004403B0FA80F14FF44040B0FA80F2F02097
:1038E000B0FA80F0E369256A2B43656A15FA01F1A5
:1038F0001943A36A5B085B1E13FA02F21143E26AE2
:1039000012FA00F00843DFF8E81208600120DFF83F
:103910000013086000F033FA0500DFF8D8020068F1
:1039200080011BD400F02BFA401B0328F5D30320A1
:1039300015E00020DFF8D812086000F020FA05003A
:10394000DFF8B0020068800108D500F018FA401BCB
:103950000328F5D3032002E0012000E0002032BD5F
:1039600070B504000D000026DFF8AC02006810F00E
:103970000F00A8420BD2DFF8A0020570DFF8980212
:10398000006810F00F00A84201D00120C0E02078AC
:10399000800709D5DFF85402006830F0F000A16814
:1039A0000843DFF8481208602078C00772D56068C5
:1039B000012806D1DFF83C020068800315D40120FD
:1039C000A6E06068022802D06068032806D1DFF80C
:1039D00024020068800108D4012099E0DFF8140275
:1039E0000068800701D4012092E0DFF8000200683F
:1039F0008008800061680843DFF8F011086000F07B
:103A0000BEF90600606801280FD1DFF8E001006808
:103A100010F00C0004283DD000F0B1F9801B41F2F9
:103A200089318842F1D3032072E0606802280FD107
:103A3000DFF8B801006810F00C0008282AD000F068
:103A40009EF9801B41F289318842F1D303205FE067
:103A5000606803280FD1DFF89401006810F00C00B3
:103A60000C2817D000F08BF9801B41F28931884275
:103A7000F1D303204CE0DFF87401006810F00C0F64
:103A800008D000F07CF9801B41F289318842F2D3E2
:103A900003203DE0DFF88001006810F00F00854250
:103AA0000BD2DFF874010570DFF86C01006810F0CC
:103AB0000F00A84201D001202AE02078400707D556
:103AC0004A48006830F4E050E1680843474908601C
:103AD0002078000708D54548006830F46040216927
:103AE00050EAC1004149086000F017F83F490968F1
:103AF0005FF07062B2FA82F2484B11F0F001D140EF
:103B0000C95CC84046490860002000F020F9002048
:103B100070BD01204349086070470020002000214B
:103B200000203248006810F00C00002804D004285F
:103B300004D0082804D034E03B4833E03B4831E06F
:103B40002B48006810F03F002949096849020DD54B
:103B500027490968354AB2FBF0F047F6C0721140B8
:103B60002C4AB2FA82F2D14048430CE0204909685D
:103B70002D4AB2FBF0F047F6C0721140254AB2FA66
:103B800082F2D14048431A49096811F440314FF498
:103B90004042B2FA82F2D140491C4900B0FBF1F038
:103BA00000E0214870471E480068704780B5FFF765
:103BB000FAFF0E4909685FF46012B2FA82F21C4BF8
:103BC00011F4E051D140C95CC84002BD80B5FFF797
:103BD000EAFF064909685FF4E022B2FA82F2144B68
:103BE00011F46041D140C95CC84002BD08380240B0
:103BF0000438024000380240800E474274380240C8
:103C000000004742403802400070004070380240D7
:103C1000600047420000FE03003C02400C4F0008D9
:103C2000FC0000204C0047420024F40000127A00FF
:103C3000404F00085FF0FF0C1CEAD05114BF6145F3
:103C400006E0C110400721F0E04101F160517047EA
:103C500079B900F0004100020AD0B0FA80FC00FA05
:103C60000CF001F16051A1EB0C5101EBD0214005AA
:103C7000704741020CBF40F4E0016FF000010020EA
:103C8000704700004FEAF17CBCF1E04C2CBFBCF562
:103C9000001F11E05FEA4C0C34BFBCF17F5F2EE0E7
:103CA0005FEA9C0C4FEA0C1C4FEA3C0CC10071F11E
:103CB00000414CEB50707047C90241EA5051C002BC
:103CC00018BF41F0010141F000414FEA6C50C0F1D2
:103CD0000900212810D240EACC7CCCF1200C11FA4A
:103CE0000CF070F10040CCF1200C21FA0CF00CF03B
:103CF000004C40EB0C0070474FEACC707047490015
:103D000011F5001F04D84FEACC10FF30C0057047F2
:103D1000C817704780B52348006850F400702149E7
:103D200008602048006850F480601E4908601D4803
:103D3000006850F480701B4908600320FFF7C8F941
:103D4000002000F004F800F001FD002002BD10B5D5
:103D50000400154800684FF47A71B0FBF1F0FFF7EA
:103D6000D1F9002221005FF0FF30FFF7B5F9002004
:103D700010BD0E480068401C0C49086070470B4895
:103D80000068704731B5FFF7FAFF0400009D15F198
:103D9000010F00D06D1CFFF7F2FF001BA842FAD301
:103DA00031BD0000003C0240FC0000207C020020ED
:103DB00000B587B0002000903848006850F010002F
:103DC000364908603548006810F0100000900098EF
:103DD000002000903148006850F010002F49086022
:103DE0002E48006810F0100000900098012001900B
:103DF00000200290012003900020059001A928488E
:103E0000FEF7E6FF022001900020029001200390BF
:103E10000020059001A92248FEF7DAFF0420019056
:103E200000200290012003900020059001A91C4869
:103E3000FEF7CEFF082001900020029001200390A1
:103E40000020059001A91648FEF7C2FF102001903E
:103E500000200290012003900020059001A9104845
:103E6000FEF7B6FF07B000BD80B501210C48FFF793
:103E70009CF8002810D11420FFF784FF0121084886
:103E8000FFF793F8002807D101210548FFF78DF8C7
:103E90000028F9D0012000E0002002BD30380240A7
:103EA0000010024000B587B000685549884241D1F2
:103EB000002000905348006850F00200514908600B
:103EC0005048006810F00200009000980020009018
:103ED0004C48006850F002004A49086049480068B0
:103EE00010F0020000900098002000904548006803
:103EF00050F48000434908604248006810F4800094
:103F0000009000984020019002200290022004902E
:103F10000720059001A93C48FEF75AFF4020019078
:103F200002200290022004900720059001A9364843
:103F3000FEF74EFF07B000BD80B50022012125200D
:103F4000FFF7CAF82520FFF7D8F801220121462003
:103F5000FFF7C2F84620FFF7D0F801BD80B500207A
:103F600000902A48006850F010002849086027484F
:103F7000006810F010000090009821482449086063
:103F80005FF4E13022494860002021498860002028
:103F90001F49C86000201E4908610C201C49486167
:103FA0001B4800F055F81B481B4908605FF0006093
:103FB0001949486040201849886000201649C860A7
:103FC0004FF48060144908610020134948610020C3
:103FD0001149886100201049C86100200E494862DB
:103FE0005FF400300C4908620B4800F0DFFB0A4820
:103FF00007494863064808498863FFF79DFF01BDEC
:1040000000100140303802400004024044380240B1
:1040100064010020B8640240040100200CB41CB507
:10402000044604A801900A46009401AB694607487B
:1040300078441830FCF7A8F8009A00211170002885
:104040005CBF0098001B16BC5DF80CFBAFD2FFFFF5
:1040500010B50400002C01D1012027E094F93D00A7
:10406000002805D1002084F83C002000FFF71AFF4B
:10407000022084F83D00200000F0CBFA206800699F
:1040800030F48040216808612068406930F02A00DF
:10409000216848612068C06850F400502168C860F9
:1040A00000202064012084F83D00002010BD13B5DD
:1040B000040094F93D00012840D10198002802D065
:1040C00092B2002A01D1012039E094F93C00012884
:1040D00001D1022033E0012084F83C0001986062A5
:1040E0002285628500202064122084F83D000FF2B2
:1040F000C110616BC8630FF2FD10616B08640FF2B1
:104100000120616BC8640020616B086501A892B250
:10411000130021680A1D0168606B00F0B7FB7FF097
:10412000400021680860002084F83C002068406955
:1041300050F0800021684861002000E0022016BD98
:1041400038B50400206800682168C968226852698F
:104150000023002310F00F03002B0FD185060DD58F
:104160008D060BD594F93D00222803D1200000F0E4
:1041700064F902E0200000F0C3F992E0002B78D04F
:10418000D30702D411F4907F73D010F00103DBB297
:10419000002B05D0CB0503D5236C53F0010323641A
:1041A000430708D512F00103DBB2002B03D0236CC8
:1041B00053F002032364830708D512F00103DBB236
:1041C000002B03D0236C53F004032364030708D5AA
:1041D00012F00102D2B2002A03D0226C52F008027F
:1041E0002264226C002A43D080060CD588060AD5AA
:1041F00094F93D00222803D1200000F01EF902E0CE
:10420000200000F07DF920684069800910F001036A
:10421000206C000701D4002B25D0200000F0A8F866
:104220002068406940061AD52068406930F0400097
:1042300021684861A06B00280DD00FF25910A16BC6
:104240000865A06B00F062FB002811D0A06BA16B89
:10425000096D88470CE0200000F028F808E02000F5
:1042600000F024F804E0200000F020F80020206492
:1042700017E002060DD50A060BD594F93D00122869
:1042800003D1200000F090F802E0200000F038F99F
:1042900007E0400605D5480603D5200000F0B9F830
:1042A000FFE731BD704770477047704770470000A7
:1042B00080B50100886B09680968C90512D400211E
:1042C000418590F93D10122912D10168496931F0F8
:1042D0008001026851610168C96851F040010068BD
:1042E000C16005E090F93D10122901D1FFF7DAFF16
:1042F00001BD000080B5806BFFF7D5FF01BD000058
:1043000010B50021846B0020608600206085206845
:104310004069C00910F0010194F93D00122804D150
:10432000002902D0200000F019F8206840698009B7
:1043300010F0010194F93D00222804D1002902D097
:10434000200000F015F8206C50F0100020640120CF
:1043500084F83D002000FFF7A9FF10BD0168C9687F
:1043600031F0C0010268D160012180F83D10704732
:104370000168C96831F490710268D16001684969C7
:104380004908490002685161012180F83D107047D9
:104390000000000080B5806B00214186002141852E
:1043A000FFF784FF01BD000090F93D1012292ED1C6
:1043B0008168B1F5805F10D1416A0988C905C90DCE
:1043C000026851600169002903D1416A891C416278
:1043D00009E0416A491C416205E0416A4A1C4262A7
:1043E000097802685160418D491E418589B20029D2
:1043F0000BD10168C96831F080010268D1600168A1
:10440000C96851F040010068C160002000E002204E
:10441000704780B50168C96831F040010268D16019
:10442000016849694908490002685161012180F821
:104430003D10FFF737FF002002BD80B590F93D1019
:1044400022295BD18168B1F5805F1ED1C16A026902
:10445000002A08D102685268D205D20D0A80C16ACA
:10446000891CC16206E002685268D2B20A80C16A41
:10447000491CC162418E491E418689B200291FD064
:1044800040F2FF11026851601AE00169002906D16B
:10449000C16A4A1CC262026852680A7007E0C16AB7
:1044A0004A1CC2620268526812F07F020A70418E92
:1044B000491E418689B2002902D0FF21026851605D
:1044C000418E002918D10168C96831F020010268C5
:1044D000D1600168C96831F480710268D1600168F7
:1044E00049694908490002685161012180F83D107D
:1044F000FFF7DAFE002002E0002000E0022002BD0B
:1045000080B590F93D10322940F08180418D00291D
:104510002AD001680968090626D58168B1F5805F4F
:1045200010D1416A0988C905C90D02685160016945
:10453000002903D1416A891C416209E0416A491C92
:10454000416205E0416A4A1C426209780268516092
:10455000418D491E4185418D002905D10168C968F9
:1045600031F080010268D160418E002931D00168AC
:10457000096889062DD58168B1F5805F14D1C16ABB
:104580000269002A08D102685268D205D20D0A8059
:10459000C16A891CC16219E002685268D2B20A80FD
:1045A000C16A491CC16211E00169002906D1C16AD2
:1045B0004A1CC262026852680A7007E0C16A4A1C5B
:1045C000C2620268526812F07F020A70418E491E70
:1045D0004186418E002918D10168C96831F0200157
:1045E0000268D1600168C96831F480710268D160E5
:1045F000016849694908490002685161012180F850
:104600003D10FFF752FE002002E0002000E00220F3
:1046100002BD70B5040000202068C06830F00C00B6
:104620002168C8602068006930F47C50A169E269A3
:104630001143226A1143E268114351F400610843B7
:10464000216808612068C0683D490840A168226966
:1046500011436269114351F4004108432168C86065
:104660002068406930F4407021684861206835490D
:10467000884203D020683449884230D1FFF7A6FA37
:104680000600FFF7A3FA0500FFF7A0FA192101FBC6
:1046900006F162685200B1FBF2F16422B1FBF2F163
:1046A000192202FB05F263685B00B2FBF3F21923E7
:1046B000584363685B00B0FBF3F06423B0FBF3F096
:1046C000642303FB1020000132306422B0FBF2F0BF
:1046D00010F00F0050EA0110216888602FE0FFF70A
:1046E00065FA0600FFF762FA0500FFF75FFA192185
:1046F00001FB06F162685200B1FBF2F16422B1FBEA
:10470000F2F1192202FB05F263685B00B2FBF3F2DF
:104710001923584363685B00B0FBF3F06423B0FBDC
:10472000F3F0642303FB1020000132306422B0FB5D
:10473000F2F010F00F0050EA01102168886070BD9F
:10474000F369FFFF001001400014014080B505200F
:10475000FEF7BEFC002200217FF00B00FEF7BCFC40
:10476000002200217FF00A00FEF7B6FC00220021A3
:104770007FF00900FEF7B0FC002200217FF004006A
:10478000FEF7AAFC002200217FF00300FEF7A4FC44
:10479000002200217FF00100FEF79EFC0022002194
:1047A0005FF0FF30FEF798FC01BD000038B5040053
:1047B0000025FFF7E4FA0500002C01D1012064E098
:1047C000606A0028002084F83400022084F8350054
:1047D0002068006840084000216808602068006880
:1047E000C0070BD5FFF7CBFA401B0628F6D32020D5
:1047F0006065032084F83500032046E020680568E2
:10480000DFF8940305406068A1680843E168084345
:104810002169084361690843A1690843E1690843C4
:10482000216A08430543606A042803D1E06A216BCA
:10483000084305432068056020684569ED08ED00E0
:10484000606A0543606A042810D1A06A0543E06AE3
:1048500000280BD0200000F0A9F9002806D0402045
:104860006065012084F8350001200EE02068456174
:10487000200000F079F93F21E26D91408160002035
:104880006065012084F83500002032BD70B5040059
:104890000025A66D94F93400012801D1022034E0EE
:1048A000012084F8340094F93500012827D1022032
:1048B00084F8350000206065200000F03EF93F20BC
:1048C000E16D8840B0602068006850F016002168F3
:1048D00008602068406950F0800021684861206CC1
:1048E000002805D02068006850F0080021680860A2
:1048F0002068006850F001002168086003E0002093
:1049000084F834000225280040B270BD90F93510BB
:10491000022903D080214165012009E0052180F8AA
:1049200035100168096849084900006801600020E5
:104930007047F8B5040000200090DFF868020068B6
:104940004FF41651B0FBF1F5A66D37680820E16D04
:104950008840074211D02068006840070DD52068C4
:10496000006830F00400216808600820E16D88408C
:10497000B060606D50F0010060658848E16D88406E
:1049800007420BD020684069000607D58348E16DD7
:104990008840B060606D50F0020060658048E16D55
:1049A000884007420BD020680068800707D57C4804
:1049B000E16D8840B060606D50F0040060651020CB
:1049C000E16D884007422DD020680068000729D596
:1049D0001020E16D8840B06020680068400311D568
:1049E00020680068000306D4206C00281AD020003C
:1049F000216C884716E0A06C002813D02000A16C21
:104A000088470FE020680068C00505D4206800686A
:104A100030F0080021680860206C002802D02000D7
:104A2000216C88472020E16D8840074260D02068D3
:104A30000068C0065CD52020E16D8840B06094F924
:104A40003500052828D12068006830F0160021685C
:104A500008602068406930F0800021684861206C5F
:104A6000002802D1A06C002805D02068006830F032
:104A70000800216808603F20E16D8840B060002098
:104A800084F83400012084F83500206D002802D01D
:104A90002000216D88474FE020680068400311D551
:104AA00020680068000306D4606C002820D0200035
:104AB000616C88471CE0E06B002819D02000E16B96
:104AC000884715E020680068C0050BD4206800689E
:104AD00030F0100021680860002084F834000120C4
:104AE00084F83500E06B002802D02000E16B884795
:104AF000606D002820D0606DC00717D5052084F8B0
:104B0000350020680068400840002168086000986F
:104B1000401C0090854203D320680068C007F6D48B
:104B2000002084F83400012084F83500E06C00286F
:104B300002D02000E16C8847F1BD30B404682468DD
:104B400034F4802405682C60046863608368402B1B
:104B500004D103689A600068C16003E0036899604B
:104B60000068C26030BC70470178C9B210391822A1
:104B7000B1FBF2F10C4A8A5CC265042905D30168D5
:104B8000890A8902091D816503E00168890A890291
:104B90008165806D704700003F8010F0010080004B
:104BA00004008000FC000020384F00080021826AC9
:104BB0008369002B14D1002A05D0022A03D007D321
:104BC000032A0BD00BE0C06AC00100D501212EE002
:104BD000C06AB0F1C07F00D1012128E027E026E0C3
:104BE0008369B3F5005F15D1002A05D0022A03D0EE
:104BF00004D3032A07D00CE0012118E0C06AC001E9
:104C000000D5012113E0C06AB0F1C07F00D10121BD
:104C10000DE00CE0002A022A02D9D21E02D006E0E2
:104C2000012104E0C06AC00100D50121FFE70800AE
:104C300040B27047816807E00268116853688918BC
:104C40005B18C36008320260C2689142F4D04A1C0B
:104C50008260087870472DE9FF4D00F1080100914E
:104C600000270268520801EBC2010191B8460021F9
:104C7000029103910168490800EBC101406800F00E
:104C8000010501F10804400804EBC00630E0684665
:104C9000FFF7D0FF4FFA80FA0AE000980168081881
:104CA0000099029049680818039000980830009015
:104CB000029803998842F0D010F801BB0290474552
:104CC0000CD1B44208BF00F01DF8276805B14F446D
:104CD000606800EB070808344745F2D0BAF1000FCE
:104CE00007F801BB0AD51AF1010AE8D14745CED130
:104CF000B442CCD1304604B0BDE8F08DBAF1010A1F
:104D0000D6D5F3E7012000F001B8000080B5C04619
:104D1000C046024A11001820ABBEFBE72600020085
:104D20001248006850F4700010490860104800688C
:104D300050F001000E49086000200E4908600C4840
:104D400000680D4908400A4908600C480C49086091
:104D50000748006830F480200549086000200949B0
:104D600008605FF0006008490860704788ED00E067
:104D70000038024008380240FFFFF6FE10300024E1
:104D8000043802400C38024008ED00E07047FEE7AE
:104D9000FEE7FEE7FEE770477047704780B5FEF715
:104DA000E8FFFEF7D5F901BD80B50948FDF7A5FA82
:104DB00001BD80B50748FFF7BCFD01BD80B50648C1
:104DC000FFF7BEF901BD80B50448FDF796FA01BDB5
:104DD000E40100200401002064010020A80100205B
:104DE00019E050F8041BCB0744BFA9F1010359187F
:104DF000121F0023042A41F8043BF9D25FEA827CA7
:104E00000B4604D54FF0000CA1F800C09B1CD10745
:104E100044BF0021197050F8042B002AE1D17047DB
:104E2000B2B6BBF1D6B53A256420B5B1C7B0CEBB9A
:104E3000D6C33A252E32666D6D20CBD9B6C83A2539
:104E40002E3266206D6D2F730A00000010B50749E1
:104E500079441831064C7C44163404E00A68081D75
:104E6000511888470146A142F8D110BD2C0000001E
:104E7000540000004EF68851CEF20001086840F45C
:104E800070000860BFF34F8FBFF36F8F4FF000705B
:104E9000E1EE100A7047000049FFFFFF88010000A3
:104EA0000401002000000000AFFDFFFF0200000031
:104EB00002000000C80100001200000000000020F5
:104EC0000201000000F00BF8002801D0FFF7BEFF40
:104ED0000020C046C046FEF71DFA00F002F801208F
:104EE000704700F001B8000007463846FFF70EFF94
:104EF000FBE700003173C4DAB1E0C2EBC6F7BCC611
:104F0000CAFDD6B53A25640A000000000000000082
:104F10000000000001020304060708090148804759
:104F200001480047214D00082D4F0008C046C046EB
:104F3000FFF7A0FFFFF7C6FF0006101600061016C9
:104F40000000000001020304FFF7FEBFFFF7FEBFF1
:104F5000FFF7FEBFFFF7FEBFFFF7FEBFFFF7FEBF85
:104F6000FFF7FEBFFFF7FEBFFFF7FEBFFFF7FEBF75
:104F7000FFF7FEBFFFF7FEBFFFF7FEBFFFF7FEBF65
:104F8000FFF7FEBFFFF7FEBFFFF7FEBFFFF7FEBF55
:104F9000FFF7FEBFFFF7FEBFFFF7FEBFFFF7FEBF45
:104FA000FFF7FEBFFFF7FEBFFFF7FEBFFFF7FEBF35
:104FB000FFF7FEBFFFF7FEBFFFF7FEBFFFF7FEBF25
:104FC000FFF7FEBFFFF7FEBFFFF7FEBFFFF7FEBF15
:104FD000FFF7FEBFFFF7FEBFFFF7FEBFFFF7FEBF05
:104FE000FFF7FEBFFFF7FEBFFFF7FEBFFFF7FEBFF5
:104FF000FFF7FEBFFFF7FEBFFFF7FEBFFFF7FEBFE5
:10500000FFF7FEBFFFF7FEBFFFF7FEBFFFF7FEBFD4
:10501000FFF7FEBFFFF7FEBFFFF7FEBFFFF7FEBFC4
:10502000FFF7FEBFFFF7FEBFFFF7FEBFFFF7FEBFB4
:10503000FFF7FEBFFFF7FEBFFFF7FEBFFFF7FEBFA4
:10504000FFF7FEBFFFF7FEBFFFF7FEBFFFF7FEBF94
:10505000FFF7FEBFFFF7FEBFFFF7FEBFFFF7FEBF84
:10506000FFF7FEBFFFF7FEBFFFF7FEBFFFF7FEBF74
:10507000FFF7FEBFFFF7FEBFFFF7FEBFE400F8FF3C
:0E508000DC00FAFF8100D0000424F400FAFFE7
:0400000508004F2D73
:00000001FF
