:020000040800F2
:1000000008040020A11F0008751E0008771E0008C4
:10001000791E00087B1E00087D1E000800000000FD
:100020000000000000000000000000007F1E00082B
:10003000811E000800000000831E0008851E0008C5
:10004000CD1F0008D11F0008D51F0008D91F0008C8
:10005000DD1F0008911E0008E11F0008E51F0008D1
:10006000E91F0008ED1F0008F11F0008F51F000838
:10007000F91F0008FD1F00080120000805200008E6
:10008000092000080D200008112000081520000894
:10009000192000081D200008212000082520000844
:1000A000292000082D2000083120000835200008F4
:1000B000392000083D2000084120000845200008A4
:1000C000492000084D200008512000085520000854
:1000D00059200008931E00085D20000861200008D8
:1000E00065200008692000086D20000871200008C4
:1000F00075200008792000087D2000088120000874
:1001000085200008892000088D2000089120000823
:1001100095200008992000089D200008A1200008D3
:10012000A5200008A9200008AD200008B120000883
:10013000B5200008B9200008BD200008C120000833
:10014000C5200008C9200008CD200008D1200008E3
:10015000D5200008D92000089D1E0008DD200008D9
:10016000E1200008E5200008E9200008ED20000853
:10017000F1200008F5200008F92000080000000028
:10018000FD2000080121000810B50400002C01D159
:10019000012033E0A0690028FFD194F8390000283D
:1001A00005D1002084F83800200000F06FFC2420E6
:1001B00084F839002068C06830F400502168C860B5
:1001C000200000F0D7FA2068006930F490402168E0
:1001D00008612068406930F02A0021684861206881
:1001E000C06850F400502168C8600020E0632020FF
:1001F00084F83900202084F83A00002010BD2DE951
:10020000F04182B004000D0016001F005FF00008EE
:1002100094F8390020285DD1002D02D0B6B2002E0E
:1002200001D1012057E094F93800012801D10220C2
:1002300051E0012084F838000020E063212084F898
:10024000390000F00AFD8046A684E68403E02878A1
:10025000216848606D1CE08C002828D0E08C401E8E
:10026000E084A068B0F5805F16D100974346002275
:100270008021200000F091F9002801D003202AE01D
:100280002888C005C00D216848602069002801D178
:10029000AD1CE0E76D1CDEE700974346002280219D
:1002A000200000F07AF90028D1D0032013E0009755
:1002B000434600224021200000F06FF9002801D0C1
:1002C000032008E0202084F83900002084F838005A
:1002D000002000E00220BDE8F68190F83A30202BA3
:1002E00028D1002902D092B2002A01D1012022E0B7
:1002F00090F93830012B01D102201CE0012380F855
:10030000383081628285C2850021C163222180F854
:100310003A10002180F838100168496951F0010154
:10032000026851610168C96851F490710068C16048
:10033000002000E00220704713B5040094F8390053
:10034000202840D10198002802D092B2002A01D181
:10035000012039E094F93800012801D1022033E06E
:10036000012084F8380001982062A284E2840020F1
:10037000E063212084F839000FF28910216BC863F3
:100380000FF2B510216B08640FF2B910216BC8642D
:100390000020216B086501A892B2130021680A1D94
:1003A0000168206B00F0E2FC7FF0400021680860EB
:1003B000002084F838002068406950F080002168EF
:1003C0004861002000E0022016BD38B50400206816
:1003D00000682168C968226852690023002310F070
:1003E0000F03002B07D1850605D58D0603D5200008
:1003F00000F073F982E0002B70D0D30702D411F41F
:10040000907F6BD010F00103DBB2002B05D0CB0541
:1004100003D5E36B53F00103E363430708D512F000
:100420000103DBB2002B03D0E36B53F00203E36361
:10043000830708D512F00103DBB2002B03D0E36B76
:1004400053F00403E363030708D512F00102D2B2AC
:10045000002A03D0E26B52F00802E263E26B002A4A
:100460003BD0800604D5880602D5200000F035F97F
:1004700020684069800910F00103E06B000701D497
:10048000002B25D0200000F0CAF820684069400603
:100490001AD52068406930F0400021684861606BDF
:1004A00000280DD00FF29910616B0865606B00F0A9
:1004B0009DFC002811D0606B616B096D88470CE0D2
:1004C000200000F01EF808E0200000F01AF804E018
:1004D000200000F016F80020E0630FE0020605D5CA
:1004E0000A0603D5200000F0B5F807E0400605D560
:1004F000480603D5200000F0E2F8FFE731BD704761
:100500007047704780B5816B00680068C0050ED4E5
:100510000020C8840868406930F080000A68506193
:100520000868C06850F040000968C86002E0080030
:10053000FFF7E5FF01BD000080B5806BFFF7E0FF2E
:1005400001BD000010B50021846B20684069C0091E
:1005500010F0010194F83900212806D1002904D0B7
:100560000020E084200000F050F8206840698009F5
:1005700010F0010194F83A00222806D1002904D095
:100580000020E085200000F04AF8E06B50F01000F9
:10059000E0632000FFF7B5FF10BD2DE9F041040036
:1005A0000D0016001F00DDF8188020680068284044
:1005B000A84201D1012000E0002076B2B04221D152
:1005C00018F1010FF1D0B8F1000F04D000F045FB95
:1005D000C01B8045E9D22068C06830F4D070216823
:1005E000C8602068406940084000216848612020B8
:1005F00084F83900202084F83A00002084F838007C
:10060000032000E00020BDE8F0810168C96831F0F6
:10061000C0010268D160202180F83910704701685C
:10062000C96831F490710268D1600168496949086C
:10063000490002685161202180F83A10704700009B
:1006400080B5806B0021C1850021C184FFF759FF6F
:1006500001BD000090F8391021292ED18168B1F533
:10066000805F10D1016A0988C905C90D026851600F
:100670000169002903D1016A891C016209E0016A4C
:10068000491C016205E0016A4A1C0262097802689D
:100690005160C18C491EC18489B200290BD1016807
:1006A000C96831F080010268D1600168C96851F001
:1006B00040010068C160002000E00220704780B562
:1006C0000168C96831F040010268D160202180F8DA
:1006D0003910FFF714FF002002BD80B590F83A10E2
:1006E000222945D18168B1F5805F14D1816A026900
:1006F000002A08D102685268D205D20D0A80816AA8
:10070000891C816219E002685268D2B20A80816A4B
:10071000491C816211E00169002906D1816A4A1CE5
:100720008262026852680A7007E0816A4A1C82622B
:100730000268526812F07F020A70C18D491EC1859D
:1007400089B2002912D10168C96831F49071026838
:10075000D160016849694908490002685161202156
:1007600080F83A1000F061FD002002E0002000E077
:10077000022002BD2DE9F04104000020206800693C
:1007800030F44050E1680843216808612068C0687F
:10079000BB490840A1682269114362691143E269BB
:1007A000114308432168C8602068406930F44070F4
:1007B000A169084321684861E069B0F5004F40F045
:1007C000B0802068AF49884203D02068AE49884293
:1007D00053D101F06DF8804601F06AF8060001F08F
:1007E00067F8070001F064F8050001F061F81921CD
:1007F00001FB08F162685200B1FBF2F16422B1FB27
:10080000F2F1192202FB06F263685B00B2FBF3F21D
:10081000192303FB07F366687600B3FBF6F364263F
:10082000B3FBF6F3642606FB1322D20032326423B4
:10083000B2FBF3F212F0F802520012EB011119228E
:1008400002FB05F263685B00B2FBF3F21923584325
:1008500063685B00B0FBF3F06423B0FBF3F0642348
:1008600003FB1020C00032306422B0FBF2F010F025
:10087000070040182168886000E101F009F880460F
:1008800001F006F8060001F003F8070001F000F897
:10089000050000F0FDFF192101FB08F1626852001C
:1008A000B1FBF2F16422B1FBF2F1192202FB06F274
:1008B00063685B00B2FBF3F2192303FB07F366687E
:1008C0007600B3FBF6F36426B3FBF6F3642606FB6F
:1008D0001322D20032326423B2FBF3F212F0F80298
:1008E000520012EB0111192202FB05F263685B0052
:1008F000B2FBF3F21923584363685B00B0FBF3F0DB
:100900006423B0FBF3F0642303FB1020C0003230FB
:100910006422B0FBF2F010F00700401821688860F4
:10092000ACE020685749884203D020685649884285
:1009300052D100F0BDFF804600F0BAFF060000F083
:10094000B7FF070000F0B4FF050000F0B1FF192168
:1009500001FB08F162689200B1FBF2F16422B1FB85
:10096000F2F1192202FB06F263689B00B2FBF3F27C
:10097000192303FB07F36668B600B3FBF6F364269E
:10098000B3FBF6F3642606FB132212013232642312
:10099000B2FBF3F212F0F00212EB0111192202FB8A
:1009A00005F263689B00B2FBF3F2192358436368B6
:1009B0009B00B0FBF3F06423B0FBF3F0642303FB74
:1009C0001020000132306422B0FBF2F010F00F0072
:1009D00040182168886051E000F05AFF804600F01E
:1009E00057FF060000F054FF070000F051FF05001C
:1009F00000F04EFF192101FB08F162689200B1FB83
:100A0000F2F16422B1FBF2F1192202FB06F26368F3
:100A10009B00B2FBF3F2192303FB07F36668B600F1
:100A2000B3FBF6F36426B3FBF6F3642606FB13224E
:100A3000120132326423B2FBF3F212F0F00212EB35
:100A40000111192202FB05F263689B00B2FBF3F26D
:100A50001923584363689B00B0FBF3F06423B0FB99
:100A6000F3F0642303FB1020000132306422B0FB5A
:100A7000F2F010F00F00401821688860BDE8F081A6
:100A8000F369FFFF001001400014014010B586B06B
:100A9000040020684F49884258D1002000904E48F9
:100AA000006850F010004C4908604B48006810F096
:100AB000100000900098002000904848006850F412
:100AC0008000464908604548006810F480000090A6
:100AD0000098402001900220029001200390032002
:100AE00004900720059001A93D4800F015FF8020E3
:100AF000019001A93A4800F00FFF3A483A490860CE
:100B00005FF0006038494860402037498860002025
:100B10003549C8604FF4806033490861002032498C
:100B200048610020304988614FF480702E49C861C7
:100B30005FF400302C49086200202B4948622A48A3
:100B400000F0A4F8284820632748846306B010BD4D
:100B500080B500220121252001F05AF8252001F05E
:100B600068F800220221462001F052F8462001F0E8
:100B700060F801BD80B5002000901848006850F072
:100B80000200164908601548006810F00200009045
:100B900000981048154908605FF4E1301349486037
:100BA00000201249886000201049C86000200F49C9
:100BB00008610C200D49486100200C498861002023
:100BC0000A49C8610948FFF7DFFAFFF7C1FF01BD15
:100BD000000000000010014044380240303802405C
:100BE00000040240B86402406C040020CC040020E1
:100BF00080B52348006850F40070214908602048FF
:100C0000006850F480601E4908601D48006850F478
:100C100080701B490860032000F0F6FF002000F000
:100C200004F801F036F8002002BD10B504001548A4
:100C300000684FF47A71B0FBF1F000F0FFFF002282
:100C400021005FF0FF3000F0E3FF002010BD0E48F0
:100C50000068401C0C49086070470B4800687047EA
:100C600031B5FFF7FAFF0400009D15F1010F00D028
:100C70006D1CFFF7F2FF001BA842FAD331BD000044
:100C8000003C0240000000200C05002038B50400A4
:100C90000025FFF7E2FF0500002C01D1012064E0F0
:100CA000606A0028002084F83400022084F83500AF
:100CB00020680068400840002168086020680068DB
:100CC000C0070BD5FFF7C9FF401B0628F6D320202D
:100CD0006065032084F83500032046E0206805683D
:100CE000DFF8940305406068A1680843E1680843A1
:100CF0002169084361690843A1690843E169084320
:100D0000216A08430543606A042803D1E06A216B25
:100D1000084305432068056020684569ED08ED003B
:100D2000606A0543606A042810D1A06A0543E06A3E
:100D300000280BD0200000F0A9F9002806D04020A0
:100D40006065012084F8350001200EE020684561CF
:100D5000200000F079F93F21E26D91408160002090
:100D60006065012084F83500002032BD70B50400B4
:100D70000025A66D94F93400012801D1022034E049
:100D8000012084F8340094F93500012827D102208D
:100D900084F8350000206065200000F03EF93F2017
:100DA000E16D8840B0602068006850F0160021684E
:100DB00008602068406950F0800021684861206C1C
:100DC000002805D02068006850F0080021680860FD
:100DD0002068006850F001002168086003E00020EE
:100DE00084F834000225280040B270BD90F9351017
:100DF000022903D080214165012009E0052180F806
:100E00003510016809684908490000680160002040
:100E10007047F8B5040000200090DFF86802006811
:100E20004FF41651B0FBF1F5A66D37680820E16D5F
:100E30008840074211D02068006840070DD520681F
:100E4000006830F00400216808600820E16D8840E7
:100E5000B060606D50F0010060658848E16D8840C9
:100E600007420BD020684069000607D58348E16D32
:100E70008840B060606D50F0020060658048E16DB0
:100E8000884007420BD020680068800707D57C485F
:100E9000E16D8840B060606D50F004006065102026
:100EA000E16D884007422DD020680068000729D5F1
:100EB0001020E16D8840B06020680068400311D5C3
:100EC00020680068000306D4206C00281AD0200097
:100ED000216C884716E0A06C002813D02000A16C7C
:100EE00088470FE020680068C00505D420680068C6
:100EF00030F0080021680860206C002802D0200033
:100F0000216C88472020E16D8840074260D020682E
:100F10000068C0065CD52020E16D8840B06094F97F
:100F20003500052828D12068006830F016002168B7
:100F300008602068406930F0800021684861206CBA
:100F4000002802D1A06C002805D02068006830F08D
:100F50000800216808603F20E16D8840B0600020F3
:100F600084F83400012084F83500206D002802D078
:100F70002000216D88474FE020680068400311D5AC
:100F800020680068000306D4606C002820D0200090
:100F9000616C88471CE0E06B002819D02000E16BF1
:100FA000884715E020680068C0050BD420680068F9
:100FB00030F0100021680860002084F8340001201F
:100FC00084F83500E06B002802D02000E16B8847F0
:100FD000606D002820D0606DC00717D5052084F80B
:100FE00035002068006840084000216808600098CB
:100FF000401C0090854203D320680068C007F6D4E7
:10100000002084F83400012084F83500E06C0028CA
:1010100002D02000E16C8847F1BD30B40468246838
:1010200034F4802405682C60046863608368402B76
:1010300004D103689A600068C16003E003689960A6
:101040000068C26030BC70470178C9B210391822FC
:10105000B1FBF2F10C4A8A5CC265042905D3016830
:10106000890A8902091D816503E00168890A8902EC
:101070008165806D704700003F8010F001008000A6
:101080000400800000000020BC1F00080021826ACC
:101090008369002B14D1002A05D0022A03D007D37C
:1010A000032A0BD00BE0C06AC00100D501212EE05D
:1010B000C06AB0F1C07F00D1012128E027E026E01E
:1010C0008369B3F5005F15D1002A05D0022A03D049
:1010D00004D3032A07D00CE0012118E0C06AC00144
:1010E00000D5012113E0C06AB0F1C07F00D1012119
:1010F0000DE00CE0002A022A02D9D21E02D006E03E
:10110000012104E0C06AC00100D50121FFE7080009
:1011100040B2704700B593B0002000904948006885
:1011200050F08050474908604648006810F08050F1
:1011300000900098002000904348006850F48040E0
:10114000414908604048006810F4804000900098D1
:10115000012006905FF48030079002200C905FF42D
:1011600080000D9008200E904FF4A8700F90022080
:1011700010900720119006A800F070F80F20019041
:1011800002200290002003904FF4A05004904FF4EE
:1011900080500590052101A800F054FA00F02BFBC7
:1011A00000F073FB4FF47A71B0FBF1F000F046FDF4
:1011B000042000F047FD002200215FF0FF3000F026
:1011C00027FD13B000BD80B5FFF712FDFFF7A2FFAA
:1011D000FFF7D0FC00F094FD002004E059211B4AE9
:1011E00080B28154401C80B26428F7DB0122184988
:1011F0001848FFF772F8642214491648FFF79CF864
:1012000001224FF40071144800F073FC4FF4FA709F
:10121000FFF726FD00224FF400710F4800F069FC33
:101220004FF4FA70FFF71CFDEAE780B500230122B6
:1012300007490848FEF7E3FF012205490548FFF783
:101240004CF801BD40380240007000400804002006
:1012500010050020CC040020001C024038B504001A
:1012600000252078C0076FD5DFF86406006810F00D
:101270000C0004280BD0DFF85806006810F00C00B2
:1012800008280ED1DFF84C060068400209D5DFF8C7
:1012900048060068800357D56068002854D10120B3
:1012A000CFE16068B0F5803F08D1DFF82C06006818
:1012B00050F48030DFF82016086024E06068B0F554
:1012C000A02F10D1DFF81006006850F48020DFF85E
:1012D00008160860DFF80006006850F48030DFF878
:1012E000F81508600FE0DFF8F005006830F4803092
:1012F000DFF8E4150860DFF8E005006830F48020CE
:10130000DFF8D4150860606800280ED0FFF7A5FC50
:101310000500DFF8C4050068800315D4FFF79DFCC5
:10132000401B6528F5D303208BE1FFF796FC0500F1
:10133000DFF8A4050068800306D5FFF78EFC401B8C
:101340006528F5D303207CE1207880072BD5DFF8D2
:101350008005006810F00C0F0BD0DFF874050068F2
:1013600010F00C00082837D1DFF86805006840024B
:1013700032D4DFF864050068800704D5E0680128EE
:1013800001D001205DE1DFF8500500685FF0F85101
:10139000B1FA81F130F0F800226912FA01F1084344
:1013A000DFF8341508602078000762D560690028EE
:1013B0004CD00120DFF824150860FFF74EFC050033
:1013C000DFF81C050068800753D4FFF746FC401B7C
:1013D0000328F5D3032034E1E068002823D001205E
:1013E000DFF800150860FFF738FC0500DFF8E804B7
:1013F0000068800706D4FFF730FC401B0328F5D3B4
:1014000003201EE1DFF8D00400685FF0F851B1FA64
:1014100081F130F0F800226912FA01F10843DFF897
:10142000B8140860BFE70020DFF8B8140860FFF7C1
:1014300014FC0500DFF8A00400688007B3D5FFF7AF
:101440000CFC401B0328F5D30320FAE00020DFF852
:101450008C140860FFF701FC0500DFF884040068C5
:10146000800706D5FFF7F9FB401B0328F5D30320BF
:10147000E7E0207840077CD500200090DFF8680482
:10148000006850F08050DFF860140860DFF85804FE
:10149000006810F0805000900098DFF85004006859
:1014A00050F48070DFF844140860FFF7D6FB0500A5
:1014B000DFF838040068C00506D4FFF7CEFB401BF8
:1014C0000328F5D30320BCE0A068012808D1DFF889
:1014D0002004006850F00100DFF81414086023E0D5
:1014E000A068052810D1DFF80804006850F0040057
:1014F000DFF8FC130860DFF8F803006850F0010023
:10150000DFF8EC1308600FE0DFF8E4030068400840
:101510004000DFF8DC130860DFF8D403006830F027
:101520000400DFF8CC130860A068002810D0FFF793
:1015300094FB0500DFF8B8030068800719D4FFF7B3
:101540008CFB401B41F289318842F3D3032078E0C1
:10155000FFF783FB0500DFF898030068800708D5D4
:10156000FFF77BFB401B41F289318842F3D3032014
:1015700067E0A069002863D0DFF85403006810F02A
:101580000C0008285AD0A069022844D10020DFF8B6
:1015900064130860FFF761FB0500DFF83C03006897
:1015A000800106D5FFF759FB401B0328F5D3032024
:1015B00047E0DFF84403B0FA80F14FF44040B0FA5E
:1015C00080F2F020B0FA80F0E369256A2B43656A67
:1015D00015FA01F11943A36A5B085B1E13FA02F2C4
:1015E0001143E26A12FA00F00843DFF8E8120860DB
:1015F0000120DFF800130860FFF72FFB0500DFF87C
:10160000D802006880011BD4FFF727FB401B03288A
:10161000F5D3032015E00020DFF8D8120860FFF7AB
:101620001CFB0500DFF8B0020068800108D5FFF759
:1016300014FB401B0328F5D3032002E0012000E047
:10164000002032BD70B504000D000026DFF8AC02AA
:10165000006810F00F00A8420BD2DFF8A00205705E
:10166000DFF89802006810F00F00A84201D00120B6
:10167000C0E02078800709D5DFF85402006830F018
:10168000F000A1680843DFF8481208602078C0071E
:1016900072D56068012806D1DFF83C02006880033B
:1016A00015D40120A6E06068022802D060680328F3
:1016B00006D1DFF824020068800108D4012099E0F7
:1016C000DFF814020068800701D4012092E0DFF8FF
:1016D000000200688008800061680843DFF8F011AC
:1016E0000860FFF7BAFA0600606801280FD1DFF83A
:1016F000E001006810F00C0004283DD0FFF7ADFABF
:10170000801B41F289318842F1D3032072E0606886
:1017100002280FD1DFF8B801006810F00C0008288B
:101720002AD0FFF79AFA801B41F289318842F1D31F
:1017300003205FE0606803280FD1DFF894010068A0
:1017400010F00C000C2817D0FFF787FA801B41F22D
:1017500089318842F1D303204CE0DFF8740100683E
:1017600010F00C0F08D0FFF778FA801B41F2893196
:101770008842F2D303203DE0DFF88001006810F0DA
:101780000F0085420BD2DFF874010570DFF86C01A1
:10179000006810F00F00A84201D001202AE0207854
:1017A000400707D54A48006830F4E050E168084334
:1017B000474908602078000708D54548006830F49C
:1017C0006040216950EAC1004149086000F017F803
:1017D0003F4909685FF07062B2FA82F2484B11F03B
:1017E000F001D140C95CC840464908600020FFF7BD
:1017F0001CFA002070BD012043490860704700209A
:101800000020002100203248006810F00C00002861
:1018100004D0042804D0082804D034E03B4833E046
:101820003B4831E02B48006810F03F002949096827
:1018300049020DD527490968354AB2FBF0F047F651
:10184000C07211402C4AB2FA82F2D14048430CE0F7
:10185000204909682D4AB2FBF0F047F6C0721140EA
:10186000254AB2FA82F2D14048431A49096811F474
:1018700040314FF44042B2FA82F2D140491C490053
:10188000B0FBF1F000E0214870471E480068704747
:1018900080B5FFF7FAFF0E4909685FF46012B2FAEB
:1018A00082F21C4B11F4E051D140C95CC84002BD2A
:1018B00080B5FFF7EAFF064909685FF4E022B2FA53
:1018C00082F2144B11F46041D140C95CC84002BDA2
:1018D000083802400438024000380240800E474277
:1018E0007438024000004742403802400070004017
:1018F00070380240600047420000FE03003C024096
:10190000901F0008000000204C0047420024F40013
:1019100000127A00C41F000878B4002400230024B9
:10192000002237E00825EDB212F00306F6B2B60049
:10193000B5402C43DFF8D051960845F82640DFF833
:10194000CC4124689C434D68ED0300D51C43DFF86F
:10195000BC512C60DFF8B84124689C434D68AD034E
:1019600000D51C43DFF8A8512C60DFF8A84124689B
:101970009C434D68ED0200D51C43DFF898512C6064
:10198000654C24689C434D68AD0200D51C43624BF6
:101990001C60521C102A80F0AA80012313FA02F462
:1019A0000B682340A342F4D14C68022C02D04C684F
:1019B000122C15D1D40810EB8404246A0F2512F0E0
:1019C0000706F6B2B600B540AC430D6912F0070643
:1019D000F6B2B600B5402C43D50810EB85052C6255
:1019E000046803251600F6B27600B540AC430D79C5
:1019F00015F003051600F6B27600B5402C430460DE
:101A00004C68012C08D04C68022C05D04C68112C75
:101A100002D04C68122C17D1846803251600F6B248
:101A20007600B540AC43CD681600F6B27600B540FE
:101A30002C438460446801259540AC434D68C5F350
:101A4000001595402C434460C46803251600F6B287
:101A50007600B540AC438D681600F6B27600B5400E
:101A60002C43C4604C68E40093D5002400942B4CB4
:101A7000246854F48044294D2C60284C246814F4C4
:101A800080440094009C204C950854F825400F2574
:101A900012F00306F6B2B600B540AC43204DA842A2
:101AA00001D100253FE71F4DA84201D101253AE7AA
:101AB0001D4DA84201D1022535E71C4DA84201D198
:101AC000032530E71A4DA84201D104252BE7194D13
:101AD000A84201D1052526E7174DA84201D10625C8
:101AE00021E7164DA8427FF41DAF07251BE771BC07
:101AF000704752B2002A02D089B2816102E089B2F5
:101B0000090481617047000008380140003C014031
:101B1000043C0140083C01400C3C01404438024078
:101B2000000002400004024000080240000C024095
:101B3000001002400014024000180240001C024045
:101B400010F00701484800684FF6FF021040474A6E
:101B500052EA01210843444908607047424800683E
:101B6000C0F302207047012110F01F029140404A4B
:101B700040B2400942F82010704740B2002808D512
:101B800009013C4A40B210F00F00801800F8041C14
:101B900003E00901384A40B28154704710B410F094
:101BA0000700D0F10703052B01D3042301E0D0F196
:101BB0000703041D072C01D2002000E0C01E0124F1
:101BC00014FA03F35B1E19408140012313FA00F05D
:101BD000401E1040084310BC704780B5411EB1F153
:101BE000807F01D301200EE0401E244908600F21B0
:101BF0005FF0FF30FFF7C1FF002021490860072098
:101C000020490860002002BD80B5FFF799FF01BDA3
:101C100070B504000D0016000020FFF79FFF320092
:101C20002900FFF7BBFF0100200040B2FFF7A5FF2E
:101C300070BD80B540B2FFF796FF01BD80B5FFF7DC
:101C4000CCFF02BD042806D10E48006850F0040005
:101C50000C49086005E00B48006830F004000949B1
:101C600008607047000000000CED00E00000FA057D
:101C700000E100E018ED00E000E400E014E000E026
:101C800018E000E010E000E080B500F001F801BDD0
:101C9000704780B50520FFF7B7FF002200217FF0D5
:101CA0000B00FFF7B5FF002200217FF00A00FFF7CD
:101CB000AFFF002200217FF00900FFF7A9FF0022FB
:101CC00000217FF00400FFF7A3FF002200217FF036
:101CD0000300FFF79DFF002200217FF00100FFF7C6
:101CE00097FF002200215FF0FF30FFF791FF0022F5
:101CF00000210520FFF78CFF0520FFF79AFF01BDAB
:101D000000B587B0002000902C48006850F080009B
:101D10002A4908602948006810F080000090009867
:101D2000002000902548006850F01000234908600A
:101D30002248006810F010000090009800200090E9
:101D40001E48006850F010001C4908601B480068DD
:101D500010F010000090009800224FF40071184815
:101D6000FFF7C7FE002220211648FFF7C2FE00221F
:101D700040211448FFF7BDFE4FF400700190012090
:101D800002900220049001A90D48FFF7C5FD202014
:101D90000190012002900220049001A90948FFF758
:101DA000BBFD40200190012002900220049001A977
:101DB0000448FFF7B1FD07B000BD00003038024015
:101DC000001C0240001002401248006850F47000ED
:101DD000104908601048006850F001000E49086082
:101DE00000200E4908600C4800680D4908400A4967
:101DF00008600C480C4908600748006830F48020EF
:101E0000054908600020094908605FF00060084942
:101E10000860704788ED00E0003802400838024052
:101E2000FFFFF6FE10300024043802400C38024058
:101E300008ED00E019E050F8041BCB0744BFA9F1FE
:101E400001035918121F0023042A41F8043BF9D258
:101E50005FEA827C0B4604D54FF0000CA1F800C06D
:101E60009B1CD10744BF0021197050F8042B002A95
:101E7000E1D170477047FEE7FEE7FEE7FEE77047F7
:101E80007047704780B5FEF7E2FEFFF7FDFE01BD2B
:101E9000704780B50448FEF798FA01BD80B5034845
:101EA000FEF7B7FF01BD0000CC0400206C04002049
:101EB00010B450F8041B79B1026843681218083056
:101EC000DC0744BFA9F10104E31852F8044B43F8BE
:101ED000044B091FF9D1ECE710BC704710B5074956
:101EE00079441831064C7C44163404E00A68081D15
:101EF000511888470146A142F8D110BD2C000000BE
:101F00004C0000004EF68851CEF20001086840F403
:101F100070000860BFF34F8FBFF36F8F4FF00070FA
:101F2000E1EE100A704700000DFFFFFF0C010000FA
:101F3000080400200000000079FFFFFF04000000FB
:101F4000C4010000000000200000000000F00BF8B9
:101F5000002801D0FFF7C2FF0020C046C046FFF7AF
:101F600032F900F002F80120704700F001B80000DB
:101F70000746384600F002F8FBE7000080B5C0468F
:101F8000C046024A11001820ABBEFBE72600020043
:101F90000000000000000000010203040607080919
:101FA0000148804701480047C91D0008B11F0008CB
:101FB000C046C046FFF7A6FFFFF7C8FF0006101691
:101FC000000610160000000001020304FFF7FEBF28
:101FD000FFF7FEBFFFF7FEBFFFF7FEBFFFF7FEBF35
:101FE000FFF7FEBFFFF7FEBFFFF7FEBFFFF7FEBF25
:101FF000FFF7FEBFFFF7FEBFFFF7FEBFFFF7FEBF15
:10200000FFF7FEBFFFF7FEBFFFF7FEBFFFF7FEBF04
:10201000FFF7FEBFFFF7FEBFFFF7FEBFFFF7FEBFF4
:10202000FFF7FEBFFFF7FEBFFFF7FEBFFFF7FEBFE4
:10203000FFF7FEBFFFF7FEBFFFF7FEBFFFF7FEBFD4
:10204000FFF7FEBFFFF7FEBFFFF7FEBFFFF7FEBFC4
:10205000FFF7FEBFFFF7FEBFFFF7FEBFFFF7FEBFB4
:10206000FFF7FEBFFFF7FEBFFFF7FEBFFFF7FEBFA4
:10207000FFF7FEBFFFF7FEBFFFF7FEBFFFF7FEBF94
:10208000FFF7FEBFFFF7FEBFFFF7FEBFFFF7FEBF84
:10209000FFF7FEBFFFF7FEBFFFF7FEBFFFF7FEBF74
:1020A000FFF7FEBFFFF7FEBFFFF7FEBFFFF7FEBF64
:1020B000FFF7FEBFFFF7FEBFFFF7FEBFFFF7FEBF54
:1020C000FFF7FEBFFFF7FEBFFFF7FEBFFFF7FEBF44
:1020D000FFF7FEBFFFF7FEBFFFF7FEBFFFF7FEBF34
:1020E000FFF7FEBFFFF7FEBFFFF7FEBFFFF7FEBF24
:1020F000FFF7FEBFFFF7FEBFFFF7FEBFFFF7FEBF14
:08210000FFF7FEBF0024F4000C
:0400000508001FB11F
:00000001FF
