Component: ARM Compiler 5.06 update 6 (build 750) Tool: armlink [4d35ed]

==============================================================================

Section Cross References

    startup_stm32f407xx.o(RESET) refers to startup_stm32f407xx.o(STACK) for __initial_sp
    startup_stm32f407xx.o(RESET) refers to startup_stm32f407xx.o(.text) for Reset_Handler
    startup_stm32f407xx.o(RESET) refers to stm32f4xx_it.o(i.NMI_Handler) for NMI_Handler
    startup_stm32f407xx.o(RESET) refers to stm32f4xx_it.o(i.HardFault_Handler) for HardFault_Handler
    startup_stm32f407xx.o(RESET) refers to stm32f4xx_it.o(i.MemManage_Handler) for MemManage_Handler
    startup_stm32f407xx.o(RESET) refers to stm32f4xx_it.o(i.BusFault_Handler) for BusFault_Handler
    startup_stm32f407xx.o(RESET) refers to stm32f4xx_it.o(i.UsageFault_Handler) for UsageFault_Handler
    startup_stm32f407xx.o(RESET) refers to stm32f4xx_it.o(i.SVC_Handler) for SVC_Handler
    startup_stm32f407xx.o(RESET) refers to stm32f4xx_it.o(i.DebugMon_Handler) for DebugMon_Handler
    startup_stm32f407xx.o(RESET) refers to stm32f4xx_it.o(i.PendSV_Handler) for PendSV_Handler
    startup_stm32f407xx.o(RESET) refers to stm32f4xx_it.o(i.SysTick_Handler) for SysTick_Handler
    startup_stm32f407xx.o(RESET) refers to stm32f4xx_it.o(i.RCC_IRQHandler) for RCC_IRQHandler
    startup_stm32f407xx.o(RESET) refers to stm32f4xx_it.o(i.CAN1_RX0_IRQHandler) for CAN1_RX0_IRQHandler
    startup_stm32f407xx.o(RESET) refers to stm32f4xx_it.o(i.TIM3_IRQHandler) for TIM3_IRQHandler
    startup_stm32f407xx.o(RESET) refers to stm32f4xx_it.o(i.TIM4_IRQHandler) for TIM4_IRQHandler
    startup_stm32f407xx.o(RESET) refers to stm32f4xx_it.o(i.USART2_IRQHandler) for USART2_IRQHandler
    startup_stm32f407xx.o(RESET) refers to stm32f4xx_it.o(i.USART3_IRQHandler) for USART3_IRQHandler
    startup_stm32f407xx.o(RESET) refers to stm32f4xx_it.o(i.TIM5_IRQHandler) for TIM5_IRQHandler
==============================================================================

Removing Unused input sections from the image.

    Removing startup_stm32f407xx.o(HEAP), (1024 bytes).
    Removing main.o(.rev16_text), (4 bytes).
    Removing main.o(.revsh_text), (4 bytes).
    Removing main.o(.rrx_text), (6 bytes).
    Removing main.o(i.HAL_TIM_Base_MspDeInit), (84 bytes).
    Removing main.o(i.WaitTimeOut), (60 bytes).
    Removing stm32f4xx_hal_msp.o(.rev16_text), (4 bytes).
    Removing stm32f4xx_hal_msp.o(.revsh_text), (4 bytes).
    Removing stm32f4xx_hal_msp.o(.rrx_text), (6 bytes).
    Removing stm32f4xx_it.o(.rev16_text), (4 bytes).
    Removing stm32f4xx_it.o(.revsh_text), (4 bytes).
    Removing stm32f4xx_it.o(.rrx_text), (6 bytes).
    Removing app_ethernet.o(.rev16_text), (4 bytes).
    Removing app_ethernet.o(.revsh_text), (4 bytes).
    Removing app_ethernet.o(.rrx_text), (6 bytes).
    Removing app_ethernet.o(i.ETH_PHY_WriteReg), (28 bytes).
    Removing app_ethernet.o(i.LAN8720A_StartAutoNego), (30 bytes).
    Removing app_ethernet.o(i.check_link_state), (38 bytes).
==============================================================================

Image Symbol Table

    Local Symbols

    Symbol Name                              Value     Ov Type        Size  Object(Section)

    ../Drivers/STM32F4xx_HAL_Driver/Src/stm32f4xx_hal.c 0x00000000   Number         0  stm32f4xx_hal.o ABSOLUTE
    ../Drivers/STM32F4xx_HAL_Driver/Src/stm32f4xx_hal_cortex.c 0x00000000   Number         0  stm32f4xx_hal_cortex.o ABSOLUTE
    ../Drivers/STM32F4xx_HAL_Driver/Src/stm32f4xx_hal_dma.c 0x00000000   Number         0  stm32f4xx_hal_dma.o ABSOLUTE
    ../Drivers/STM32F4xx_HAL_Driver/Src/stm32f4xx_hal_dma_ex.c 0x00000000   Number         0  stm32f4xx_hal_dma_ex.o ABSOLUTE
    ../Drivers/STM32F4xx_HAL_Driver/Src/stm32f4xx_hal_flash.c 0x00000000   Number         0  stm32f4xx_hal_flash.o ABSOLUTE
    ../Drivers/STM32F4xx_HAL_Driver/Src/stm32f4xx_hal_flash_ex.c 0x00000000   Number         0  stm32f4xx_hal_flash_ex.o ABSOLUTE
    ../Drivers/STM32F4xx_HAL_Driver/Src/stm32f4xx_hal_gpio.c 0x00000000   Number         0  stm32f4xx_hal_gpio.o ABSOLUTE
    ../Drivers/STM32F4xx_HAL_Driver/Src/stm32f4xx_hal_pwr.c 0x00000000   Number         0  stm32f4xx_hal_pwr.o ABSOLUTE
    ../Drivers/STM32F4xx_HAL_Driver/Src/stm32f4xx_hal_pwr_ex.c 0x00000000   Number         0  stm32f4xx_hal_pwr_ex.o ABSOLUTE
    ../Drivers/STM32F4xx_HAL_Driver/Src/stm32f4xx_hal_rcc.c 0x00000000   Number         0  stm32f4xx_hal_rcc.o ABSOLUTE
    ../Drivers/STM32F4xx_HAL_Driver/Src/stm32f4xx_hal_rcc_ex.c 0x00000000   Number         0  stm32f4xx_hal_rcc_ex.o ABSOLUTE
    ../Drivers/STM32F4xx_HAL_Driver/Src/stm32f4xx_hal_tim.c 0x00000000   Number         0  stm32f4xx_hal_tim.o ABSOLUTE
    ../Drivers/STM32F4xx_HAL_Driver/Src/stm32f4xx_hal_tim_ex.c 0x00000000   Number         0  stm32f4xx_hal_tim_ex.o ABSOLUTE
    ../Drivers/STM32F4xx_HAL_Driver/Src/stm32f4xx_hal_uart.c 0x00000000   Number         0  stm32f4xx_hal_uart.o ABSOLUTE
    ../Src/main.c                            0x00000000   Number         0  main.o ABSOLUTE
    ../Src/stm32f4xx_hal_msp.c               0x00000000   Number         0  stm32f4xx_hal_msp.o ABSOLUTE
    ../Src/stm32f4xx_it.c                    0x00000000   Number         0  stm32f4xx_it.o ABSOLUTE
    ../Src/system_stm32f4xx.c                0x00000000   Number         0  system_stm32f4xx.o ABSOLUTE
    ../clib/../cmprslib/zerorunl.c           0x00000000   Number         0  __dczerorl.o ABSOLUTE
    ../clib/microlib/division.c              0x00000000   Number         0  uldiv.o ABSOLUTE
    ../clib/microlib/division.c              0x00000000   Number         0  uidiv.o ABSOLUTE
    ../clib/microlib/init/entry.s            0x00000000   Number         0  entry5.o ABSOLUTE
    ../clib/microlib/init/entry.s            0x00000000   Number         0  entry11b.o ABSOLUTE
    ../clib/microlib/init/entry.s            0x00000000   Number         0  entry8b.o ABSOLUTE
    ../clib/microlib/init/entry.s            0x00000000   Number         0  entry9a.o ABSOLUTE
    ../clib/microlib/init/entry.s            0x00000000   Number         0  entry7a.o ABSOLUTE
    ../clib/microlib/init/entry.s            0x00000000   Number         0  entry2.o ABSOLUTE
    ../clib/microlib/init/entry.s            0x00000000   Number         0  entry9b.o ABSOLUTE
    ../clib/microlib/init/entry.s            0x00000000   Number         0  entry10a.o ABSOLUTE
    ../clib/microlib/init/entry.s            0x00000000   Number         0  entry10b.o ABSOLUTE
    ../clib/microlib/init/entry.s            0x00000000   Number         0  entry.o ABSOLUTE
    ../clib/microlib/init/entry.s            0x00000000   Number         0  entry7b.o ABSOLUTE
    ../clib/microlib/init/entry.s            0x00000000   Number         0  entry11a.o ABSOLUTE
    ../clib/microlib/init/entry.s            0x00000000   Number         0  entry8a.o ABSOLUTE
    ../clib/microlib/longlong.c              0x00000000   Number         0  llshl.o ABSOLUTE
    ../clib/microlib/longlong.c              0x00000000   Number         0  llsshr.o ABSOLUTE
    ../clib/microlib/longlong.c              0x00000000   Number         0  llushr.o ABSOLUTE
    ../clib/microlib/printf/printf.c         0x00000000   Number         0  printf0.o ABSOLUTE
    ../clib/microlib/printf/printf.c         0x00000000   Number         0  printf8.o ABSOLUTE
    ../clib/microlib/printf/printf.c         0x00000000   Number         0  printf6.o ABSOLUTE
    ../clib/microlib/printf/printf.c         0x00000000   Number         0  printf5.o ABSOLUTE
    ../clib/microlib/printf/printf.c         0x00000000   Number         0  printf4.o ABSOLUTE
    ../clib/microlib/printf/printf.c         0x00000000   Number         0  printf3.o ABSOLUTE
    ../clib/microlib/printf/printf.c         0x00000000   Number         0  printf2.o ABSOLUTE
    ../clib/microlib/printf/printf.c         0x00000000   Number         0  printfa.o ABSOLUTE
    ../clib/microlib/printf/printf.c         0x00000000   Number         0  printf7.o ABSOLUTE
    ../clib/microlib/printf/printf.c         0x00000000   Number         0  printf1.o ABSOLUTE
    ../clib/microlib/printf/printf.c         0x00000000   Number         0  printfb.o ABSOLUTE
    ../clib/microlib/printf/stubs.s          0x00000000   Number         0  stubs.o ABSOLUTE
    ../clib/microlib/stdio/streams.c         0x00000000   Number         0  stdout.o ABSOLUTE
    ../clib/microlib/stdlib/rand.c           0x00000000   Number         0  rand.o ABSOLUTE
    ../clib/microlib/string/memcmp.c         0x00000000   Number         0  memcmp.o ABSOLUTE
    ../clib/microlib/string/memcpy.c         0x00000000   Number         0  memcpyb.o ABSOLUTE
    ../clib/microlib/string/memcpy.c         0x00000000   Number         0  memcpya.o ABSOLUTE
    ../clib/microlib/string/memset.c         0x00000000   Number         0  memseta.o ABSOLUTE
    ../clib/microlib/string/strlen.c         0x00000000   Number         0  strlen.o ABSOLUTE
    ../clib/microlib/string/strncmp.c        0x00000000   Number         0  strncmp.o ABSOLUTE
    ../clib/microlib/stubs.s                 0x00000000   Number         0  iusefp.o ABSOLUTE
    ../fplib/microlib/d2f.c                  0x00000000   Number         0  d2f.o ABSOLUTE
    ../fplib/microlib/f2d.c                  0x00000000   Number         0  f2d.o ABSOLUTE
    ../fplib/microlib/fpadd.c                0x00000000   Number         0  dadd.o ABSOLUTE
    ../fplib/microlib/fpdiv.c                0x00000000   Number         0  ddiv.o ABSOLUTE
    ../fplib/microlib/fpepilogue.c           0x00000000   Number         0  depilogue.o ABSOLUTE
    ../fplib/microlib/fpepilogue.c           0x00000000   Number         0  fepilogue.o ABSOLUTE
    ../fplib/microlib/fpfix.c                0x00000000   Number         0  dfixul.o ABSOLUTE
    ../fplib/microlib/fpflt.c                0x00000000   Number         0  dfltl.o ABSOLUTE
    ../fplib/microlib/fpflt.c                0x00000000   Number         0  dfltui.o ABSOLUTE
    ../fplib/microlib/fpmul.c                0x00000000   Number         0  dmul.o ABSOLUTE
    ..\Drivers\STM32F4xx_HAL_Driver\Src\stm32f4xx_hal.c 0x00000000   Number         0  stm32f4xx_hal.o ABSOLUTE
    ..\Drivers\STM32F4xx_HAL_Driver\Src\stm32f4xx_hal_adc.c 0x00000000   Number         0  stm32f4xx_hal_adc.o ABSOLUTE
    ..\Drivers\STM32F4xx_HAL_Driver\Src\stm32f4xx_hal_adc_ex.c 0x00000000   Number         0  stm32f4xx_hal_adc_ex.o ABSOLUTE
    ..\Drivers\STM32F4xx_HAL_Driver\Src\stm32f4xx_hal_can.c 0x00000000   Number         0  stm32f4xx_hal_can.o ABSOLUTE
    ..\Drivers\STM32F4xx_HAL_Driver\Src\stm32f4xx_hal_cortex.c 0x00000000   Number         0  stm32f4xx_hal_cortex.o ABSOLUTE
    ..\Drivers\STM32F4xx_HAL_Driver\Src\stm32f4xx_hal_crc.c 0x00000000   Number         0  stm32f4xx_hal_crc.o ABSOLUTE
    ..\Drivers\STM32F4xx_HAL_Driver\Src\stm32f4xx_hal_dac.c 0x00000000   Number         0  stm32f4xx_hal_dac.o ABSOLUTE
    ..\Drivers\STM32F4xx_HAL_Driver\Src\stm32f4xx_hal_dac_ex.c 0x00000000   Number         0  stm32f4xx_hal_dac_ex.o ABSOLUTE
    ..\Drivers\STM32F4xx_HAL_Driver\Src\stm32f4xx_hal_dma.c 0x00000000   Number         0  stm32f4xx_hal_dma.o ABSOLUTE
    ..\Drivers\STM32F4xx_HAL_Driver\Src\stm32f4xx_hal_dma_ex.c 0x00000000   Number         0  stm32f4xx_hal_dma_ex.o ABSOLUTE
    ..\Drivers\STM32F4xx_HAL_Driver\Src\stm32f4xx_hal_eth.c 0x00000000   Number         0  stm32f4xx_hal_eth.o ABSOLUTE
    ..\Drivers\STM32F4xx_HAL_Driver\Src\stm32f4xx_hal_flash.c 0x00000000   Number         0  stm32f4xx_hal_flash.o ABSOLUTE
    ..\Drivers\STM32F4xx_HAL_Driver\Src\stm32f4xx_hal_flash_ex.c 0x00000000   Number         0  stm32f4xx_hal_flash_ex.o ABSOLUTE
    ..\Drivers\STM32F4xx_HAL_Driver\Src\stm32f4xx_hal_gpio.c 0x00000000   Number         0  stm32f4xx_hal_gpio.o ABSOLUTE
    ..\Drivers\STM32F4xx_HAL_Driver\Src\stm32f4xx_hal_hcd.c 0x00000000   Number         0  stm32f4xx_hal_hcd.o ABSOLUTE
    ..\Drivers\STM32F4xx_HAL_Driver\Src\stm32f4xx_hal_i2c.c 0x00000000   Number         0  stm32f4xx_hal_i2c.o ABSOLUTE
    ..\Drivers\STM32F4xx_HAL_Driver\Src\stm32f4xx_hal_i2c_ex.c 0x00000000   Number         0  stm32f4xx_hal_i2c_ex.o ABSOLUTE
    ..\Drivers\STM32F4xx_HAL_Driver\Src\stm32f4xx_hal_iwdg.c 0x00000000   Number         0  stm32f4xx_hal_iwdg.o ABSOLUTE
    ..\Drivers\STM32F4xx_HAL_Driver\Src\stm32f4xx_hal_pcd.c 0x00000000   Number         0  stm32f4xx_hal_pcd.o ABSOLUTE
    ..\Drivers\STM32F4xx_HAL_Driver\Src\stm32f4xx_hal_pcd_ex.c 0x00000000   Number         0  stm32f4xx_hal_pcd_ex.o ABSOLUTE
    ..\Drivers\STM32F4xx_HAL_Driver\Src\stm32f4xx_hal_pwr.c 0x00000000   Number         0  stm32f4xx_hal_pwr.o ABSOLUTE
    ..\Drivers\STM32F4xx_HAL_Driver\Src\stm32f4xx_hal_pwr_ex.c 0x00000000   Number         0  stm32f4xx_hal_pwr_ex.o ABSOLUTE
    ..\Drivers\STM32F4xx_HAL_Driver\Src\stm32f4xx_hal_rcc.c 0x00000000   Number         0  stm32f4xx_hal_rcc.o ABSOLUTE
    ..\Drivers\STM32F4xx_HAL_Driver\Src\stm32f4xx_hal_rcc_ex.c 0x00000000   Number         0  stm32f4xx_hal_rcc_ex.o ABSOLUTE
    ..\Drivers\STM32F4xx_HAL_Driver\Src\stm32f4xx_hal_rng.c 0x00000000   Number         0  stm32f4xx_hal_rng.o ABSOLUTE
    ..\Drivers\STM32F4xx_HAL_Driver\Src\stm32f4xx_hal_rtc.c 0x00000000   Number         0  stm32f4xx_hal_rtc.o ABSOLUTE
    ..\Drivers\STM32F4xx_HAL_Driver\Src\stm32f4xx_hal_rtc_ex.c 0x00000000   Number         0  stm32f4xx_hal_rtc_ex.o ABSOLUTE
    ..\Drivers\STM32F4xx_HAL_Driver\Src\stm32f4xx_hal_spi.c 0x00000000   Number         0  stm32f4xx_hal_spi.o ABSOLUTE
    ..\Drivers\STM32F4xx_HAL_Driver\Src\stm32f4xx_hal_sram.c 0x00000000   Number         0  stm32f4xx_hal_sram.o ABSOLUTE
    ..\Drivers\STM32F4xx_HAL_Driver\Src\stm32f4xx_hal_tim.c 0x00000000   Number         0  stm32f4xx_hal_tim.o ABSOLUTE
    ..\Drivers\STM32F4xx_HAL_Driver\Src\stm32f4xx_hal_tim_ex.c 0x00000000   Number         0  stm32f4xx_hal_tim_ex.o ABSOLUTE
    ..\Drivers\STM32F4xx_HAL_Driver\Src\stm32f4xx_hal_uart.c 0x00000000   Number         0  stm32f4xx_hal_uart.o ABSOLUTE
    ..\Drivers\STM32F4xx_HAL_Driver\Src\stm32f4xx_hal_usart.c 0x00000000   Number         0  stm32f4xx_hal_usart.o ABSOLUTE
    ..\Drivers\STM32F4xx_HAL_Driver\Src\stm32f4xx_hal_wwdg.c 0x00000000   Number         0  stm32f4xx_hal_wwdg.o ABSOLUTE
    ..\Drivers\STM32F4xx_HAL_Driver\Src\stm32f4xx_ll_fsmc.c 0x00000000   Number         0  stm32f4xx_ll_fsmc.o ABSOLUTE
    ..\Drivers\STM32F4xx_HAL_Driver\Src\stm32f4xx_ll_usb.c 0x00000000   Number         0  stm32f4xx_ll_usb.o ABSOLUTE
    ..\Middlewares\LwIP\src\api\api_lib.c    0x00000000   Number         0  api_lib.o ABSOLUTE
    ..\Middlewares\LwIP\src\api\api_msg.c    0x00000000   Number         0  api_msg.o ABSOLUTE
    ..\Middlewares\LwIP\src\api\err.c        0x00000000   Number         0  err.o ABSOLUTE
    ..\Middlewares\LwIP\src\api\netbuf.c     0x00000000   Number         0  netbuf.o ABSOLUTE
    ..\Middlewares\LwIP\src\api\netdb.c      0x00000000   Number         0  netdb.o ABSOLUTE
    ..\Middlewares\LwIP\src\api\netifapi.c   0x00000000   Number         0  netifapi.o ABSOLUTE
    ..\Middlewares\LwIP\src\api\sockets.c    0x00000000   Number         0  sockets.o ABSOLUTE
    ..\Middlewares\LwIP\src\api\tcpip.c      0x00000000   Number         0  tcpip.o ABSOLUTE
    ..\Middlewares\LwIP\src\core\def.c       0x00000000   Number         0  def.o ABSOLUTE
    ..\Middlewares\LwIP\src\core\dns.c       0x00000000   Number         0  dns.o ABSOLUTE
    ..\Middlewares\LwIP\src\core\inet_chksum.c 0x00000000   Number         0  inet_chksum.o ABSOLUTE
    ..\Middlewares\LwIP\src\core\init.c      0x00000000   Number         0  init.o ABSOLUTE
    ..\Middlewares\LwIP\src\core\ip.c        0x00000000   Number         0  ip.o ABSOLUTE
    ..\Middlewares\LwIP\src\core\ipv4\autoip.c 0x00000000   Number         0  autoip.o ABSOLUTE
    ..\Middlewares\LwIP\src\core\ipv4\dhcp.c 0x00000000   Number         0  dhcp.o ABSOLUTE
    ..\Middlewares\LwIP\src\core\ipv4\etharp.c 0x00000000   Number         0  etharp.o ABSOLUTE
    ..\Middlewares\LwIP\src\core\ipv4\icmp.c 0x00000000   Number         0  icmp.o ABSOLUTE
    ..\Middlewares\LwIP\src\core\ipv4\igmp.c 0x00000000   Number         0  igmp.o ABSOLUTE
    ..\Middlewares\LwIP\src\core\ipv4\ip4.c  0x00000000   Number         0  ip4.o ABSOLUTE
    ..\Middlewares\LwIP\src\core\ipv4\ip4_addr.c 0x00000000   Number         0  ip4_addr.o ABSOLUTE
    ..\Middlewares\LwIP\src\core\ipv4\ip4_frag.c 0x00000000   Number         0  ip4_frag.o ABSOLUTE
    ..\Middlewares\LwIP\src\core\mem.c       0x00000000   Number         0  mem.o ABSOLUTE
    ..\Middlewares\LwIP\src\core\memp.c      0x00000000   Number         0  memp.o ABSOLUTE
    ..\Middlewares\LwIP\src\core\netif.c     0x00000000   Number         0  netif.o ABSOLUTE
    ..\Middlewares\LwIP\src\core\pbuf.c      0x00000000   Number         0  pbuf.o ABSOLUTE
    ..\Middlewares\LwIP\src\core\raw.c       0x00000000   Number         0  raw.o ABSOLUTE
    ..\Middlewares\LwIP\src\core\stats.c     0x00000000   Number         0  stats.o ABSOLUTE
    ..\Middlewares\LwIP\src\core\sys.c       0x00000000   Number         0  sys.o ABSOLUTE
    ..\Middlewares\LwIP\src\core\tcp.c       0x00000000   Number         0  tcp.o ABSOLUTE
    ..\Middlewares\LwIP\src\core\tcp_in.c    0x00000000   Number         0  tcp_in.o ABSOLUTE
    ..\Middlewares\LwIP\src\core\tcp_out.c   0x00000000   Number         0  tcp_out.o ABSOLUTE
    ..\Middlewares\LwIP\src\core\timeouts.c  0x00000000   Number         0  timeouts.o ABSOLUTE
    ..\Middlewares\LwIP\src\core\udp.c       0x00000000   Number         0  udp.o ABSOLUTE
    ..\Middlewares\LwIP\src\netif\ethernet.c 0x00000000   Number         0  ethernet.o ABSOLUTE
    ..\Src\app_ethernet.c                    0x00000000   Number         0  app_ethernet.o ABSOLUTE
    ..\Src\bsp\BasicTIM\bsp_BasicTIM.c       0x00000000   Number         0  bsp_basictim.o ABSOLUTE
    ..\Src\bsp\GeneralTIM\bsp_GeneralTIM.c   0x00000000   Number         0  bsp_generaltim.o ABSOLUTE
    ..\Src\bsp\GeneralTIM\bsp_US100_TIM.c    0x00000000   Number         0  bsp_us100_tim.o ABSOLUTE
    ..\Src\bsp\MB-host\bsp_MB_host.c         0x00000000   Number         0  bsp_mb_host.o ABSOLUTE
    ..\Src\bsp\RS485\bsp_usartx_RS232.c      0x00000000   Number         0  bsp_usartx_rs232.o ABSOLUTE
    ..\Src\bsp\RS485\bsp_usartx_RS485.c      0x00000000   Number         0  bsp_usartx_rs485.o ABSOLUTE
    ..\Src\bsp\bsp_CAN.c                     0x00000000   Number         0  bsp_can.o ABSOLUTE
    ..\Src\bsp\bsp_usartx_PN532.c            0x00000000   Number         0  bsp_usartx_pn532.o ABSOLUTE
    ..\Src\bsp\key\bsp_key.c                 0x00000000   Number         0  bsp_key.o ABSOLUTE
    ..\Src\bsp\led\bsp_led.c                 0x00000000   Number         0  bsp_led.o ABSOLUTE
    ..\Src\bsp\usart\bsp_US100_usartx.c      0x00000000   Number         0  bsp_us100_usartx.o ABSOLUTE
    ..\Src\bsp\usart\bsp_debug_usart.c       0x00000000   Number         0  bsp_debug_usart.o ABSOLUTE
    ..\Src\ethernetif.c                      0x00000000   Number         0  ethernetif.o ABSOLUTE
    ..\Src\main.c                            0x00000000   Number         0  main.o ABSOLUTE
    ..\Src\stm32f4xx_assert.c                0x00000000   Number         0  stm32f4xx_assert.o ABSOLUTE
    ..\Src\stm32f4xx_hal_msp.c               0x00000000   Number         0  stm32f4xx_hal_msp.o ABSOLUTE
    ..\Src\stm32f4xx_it.c                    0x00000000   Number         0  stm32f4xx_it.o ABSOLUTE
    ..\Src\system_stm32f4xx.c                0x00000000   Number         0  system_stm32f4xx.o ABSOLUTE
    ..\Src\tcp_echoserver.c                  0x00000000   Number         0  tcp_echoserver.o ABSOLUTE
    ..\\Drivers\\STM32F4xx_HAL_Driver\\Src\\stm32f4xx_hal_adc.c 0x00000000   Number         0  stm32f4xx_hal_adc.o ABSOLUTE
    ..\\Drivers\\STM32F4xx_HAL_Driver\\Src\\stm32f4xx_hal_adc_ex.c 0x00000000   Number         0  stm32f4xx_hal_adc_ex.o ABSOLUTE
    ..\\Drivers\\STM32F4xx_HAL_Driver\\Src\\stm32f4xx_hal_can.c 0x00000000   Number         0  stm32f4xx_hal_can.o ABSOLUTE
    ..\\Drivers\\STM32F4xx_HAL_Driver\\Src\\stm32f4xx_hal_crc.c 0x00000000   Number         0  stm32f4xx_hal_crc.o ABSOLUTE
    ..\\Drivers\\STM32F4xx_HAL_Driver\\Src\\stm32f4xx_hal_dac.c 0x00000000   Number         0  stm32f4xx_hal_dac.o ABSOLUTE
    ..\\Drivers\\STM32F4xx_HAL_Driver\\Src\\stm32f4xx_hal_dac_ex.c 0x00000000   Number         0  stm32f4xx_hal_dac_ex.o ABSOLUTE
    ..\\Drivers\\STM32F4xx_HAL_Driver\\Src\\stm32f4xx_hal_eth.c 0x00000000   Number         0  stm32f4xx_hal_eth.o ABSOLUTE
    ..\\Drivers\\STM32F4xx_HAL_Driver\\Src\\stm32f4xx_hal_hcd.c 0x00000000   Number         0  stm32f4xx_hal_hcd.o ABSOLUTE
    ..\\Drivers\\STM32F4xx_HAL_Driver\\Src\\stm32f4xx_hal_i2c.c 0x00000000   Number         0  stm32f4xx_hal_i2c.o ABSOLUTE
    ..\\Drivers\\STM32F4xx_HAL_Driver\\Src\\stm32f4xx_hal_i2c_ex.c 0x00000000   Number         0  stm32f4xx_hal_i2c_ex.o ABSOLUTE
    ..\\Drivers\\STM32F4xx_HAL_Driver\\Src\\stm32f4xx_hal_iwdg.c 0x00000000   Number         0  stm32f4xx_hal_iwdg.o ABSOLUTE
    ..\\Drivers\\STM32F4xx_HAL_Driver\\Src\\stm32f4xx_hal_pcd.c 0x00000000   Number         0  stm32f4xx_hal_pcd.o ABSOLUTE
    ..\\Drivers\\STM32F4xx_HAL_Driver\\Src\\stm32f4xx_hal_pcd_ex.c 0x00000000   Number         0  stm32f4xx_hal_pcd_ex.o ABSOLUTE
    ..\\Drivers\\STM32F4xx_HAL_Driver\\Src\\stm32f4xx_hal_rng.c 0x00000000   Number         0  stm32f4xx_hal_rng.o ABSOLUTE
    ..\\Drivers\\STM32F4xx_HAL_Driver\\Src\\stm32f4xx_hal_rtc.c 0x00000000   Number         0  stm32f4xx_hal_rtc.o ABSOLUTE
    ..\\Drivers\\STM32F4xx_HAL_Driver\\Src\\stm32f4xx_hal_rtc_ex.c 0x00000000   Number         0  stm32f4xx_hal_rtc_ex.o ABSOLUTE
    ..\\Drivers\\STM32F4xx_HAL_Driver\\Src\\stm32f4xx_hal_spi.c 0x00000000   Number         0  stm32f4xx_hal_spi.o ABSOLUTE
    ..\\Drivers\\STM32F4xx_HAL_Driver\\Src\\stm32f4xx_hal_sram.c 0x00000000   Number         0  stm32f4xx_hal_sram.o ABSOLUTE
    ..\\Drivers\\STM32F4xx_HAL_Driver\\Src\\stm32f4xx_hal_usart.c 0x00000000   Number         0  stm32f4xx_hal_usart.o ABSOLUTE
    ..\\Drivers\\STM32F4xx_HAL_Driver\\Src\\stm32f4xx_hal_wwdg.c 0x00000000   Number         0  stm32f4xx_hal_wwdg.o ABSOLUTE
    ..\\Drivers\\STM32F4xx_HAL_Driver\\Src\\stm32f4xx_ll_fsmc.c 0x00000000   Number         0  stm32f4xx_ll_fsmc.o ABSOLUTE
    ..\\Drivers\\STM32F4xx_HAL_Driver\\Src\\stm32f4xx_ll_usb.c 0x00000000   Number         0  stm32f4xx_ll_usb.o ABSOLUTE
    ..\\Middlewares\\LwIP\\src\\core\\tcp_out.c 0x00000000   Number         0  tcp_out.o ABSOLUTE
    ..\\Src\\app_ethernet.c                  0x00000000   Number         0  app_ethernet.o ABSOLUTE
    ..\\Src\\bsp\\BasicTIM\\bsp_BasicTIM.c   0x00000000   Number         0  bsp_basictim.o ABSOLUTE
    ..\\Src\\bsp\\GeneralTIM\\bsp_GeneralTIM.c 0x00000000   Number         0  bsp_generaltim.o ABSOLUTE
    ..\\Src\\bsp\\GeneralTIM\\bsp_US100_TIM.c 0x00000000   Number         0  bsp_us100_tim.o ABSOLUTE
    ..\\Src\\bsp\\MB-host\\bsp_MB_host.c     0x00000000   Number         0  bsp_mb_host.o ABSOLUTE
    ..\\Src\\bsp\\RS485\\bsp_usartx_RS232.c  0x00000000   Number         0  bsp_usartx_rs232.o ABSOLUTE
    ..\\Src\\bsp\\RS485\\bsp_usartx_RS485.c  0x00000000   Number         0  bsp_usartx_rs485.o ABSOLUTE
    ..\\Src\\bsp\\bsp_CAN.c                  0x00000000   Number         0  bsp_can.o ABSOLUTE
    ..\\Src\\bsp\\bsp_usartx_PN532.c         0x00000000   Number         0  bsp_usartx_pn532.o ABSOLUTE
    ..\\Src\\bsp\\key\\bsp_key.c             0x00000000   Number         0  bsp_key.o ABSOLUTE
    ..\\Src\\bsp\\led\\bsp_led.c             0x00000000   Number         0  bsp_led.o ABSOLUTE
    ..\\Src\\bsp\\usart\\bsp_US100_usartx.c  0x00000000   Number         0  bsp_us100_usartx.o ABSOLUTE
    ..\\Src\\bsp\\usart\\bsp_debug_usart.c   0x00000000   Number         0  bsp_debug_usart.o ABSOLUTE
    ..\\Src\\ethernetif.c                    0x00000000   Number         0  ethernetif.o ABSOLUTE
    ..\\Src\\stm32f4xx_assert.c              0x00000000   Number         0  stm32f4xx_assert.o ABSOLUTE
    ..\\Src\\tcp_echoserver.c                0x00000000   Number         0  tcp_echoserver.o ABSOLUTE
    cdrcmple.s                               0x00000000   Number         0  cdrcmple.o ABSOLUTE
    dc.s                                     0x00000000   Number         0  dc.o ABSOLUTE
    handlers.s                               0x00000000   Number         0  handlers.o ABSOLUTE
    init.s                                   0x00000000   Number         0  init.o ABSOLUTE
    startup_stm32f407xx.s                    0x00000000   Number         0  startup_stm32f407xx.o ABSOLUTE
    RESET                                    0x08000000   Section      392  startup_stm32f407xx.o(RESET)
    .ARM.Collect$$$$00000000                 0x08000188   Section        0  entry.o(.ARM.Collect$$$$00000000)
    .ARM.Collect$$$$00000001                 0x08000188   Section        4  entry2.o(.ARM.Collect$$$$00000001)
    .ARM.Collect$$$$00000004                 0x0800018c   Section        4  entry5.o(.ARM.Collect$$$$00000004)
    .ARM.Collect$$$$00000008                 0x08000190   Section        0  entry7b.o(.ARM.Collect$$$$00000008)
    .ARM.Collect$$$$0000000A                 0x08000190   Section        0  entry8b.o(.ARM.Collect$$$$0000000A)
    .ARM.Collect$$$$0000000B                 0x08000190   Section        8  entry9a.o(.ARM.Collect$$$$0000000B)
    .ARM.Collect$$$$0000000D                 0x08000198   Section        0  entry10a.o(.ARM.Collect$$$$0000000D)
    .ARM.Collect$$$$0000000F                 0x08000198   Section        0  entry11a.o(.ARM.Collect$$$$0000000F)
    .ARM.Collect$$$$00002712                 0x08000198   Section        4  entry2.o(.ARM.Collect$$$$00002712)
    __lit__00000000                          0x08000198   Data           4  entry2.o(.ARM.Collect$$$$00002712)
    .text                                    0x0800019c   Section       36  startup_stm32f407xx.o(.text)
    $v0                                      0x0800019c   Number         0  startup_stm32f407xx.o(.text)
    .text                                    0x080001c0   Section        0  rand.o(.text)
    .text                                    0x080001e4   Section        0  memcpya.o(.text)
    .text                                    0x08000208   Section        0  memseta.o(.text)
    .text                                    0x0800022c   Section        0  strlen.o(.text)
    .text                                    0x0800023a   Section        0  memcmp.o(.text)
    .text                                    0x08000254   Section        0  dadd.o(.text)
    .text                                    0x080003a2   Section        0  ddiv.o(.text)
    .text                                    0x08000480   Section        0  dfltl.o(.text)
    .text                                    0x080004a8   Section        0  f2d.o(.text)
    .text                                    0x080004ce   Section        0  d2f.o(.text)
    .text                                    0x08000506   Section        0  uidiv.o(.text)
    .text                                    0x08000532   Section        0  uldiv.o(.text)
    .text                                    0x08000594   Section        0  llshl.o(.text)
    .text                                    0x080005b2   Section        0  llsshr.o(.text)
    .text                                    0x080005d6   Section        0  iusefp.o(.text)
    .text                                    0x080005d6   Section        0  fepilogue.o(.text)
    .text                                    0x08000644   Section        0  depilogue.o(.text)
    .text                                    0x080006fe   Section        0  dmul.o(.text)
    .text                                    0x080007e2   Section        0  dfixul.o(.text)
    .text                                    0x08000814   Section       48  cdrcmple.o(.text)
    .text                                    0x08000844   Section       36  init.o(.text)
    .text                                    0x08000868   Section        0  llushr.o(.text)
    .text                                    0x08000888   Section        0  __dczerorl.o(.text)
    i.BASIC_TIMx_Init                        0x080008c4   Section        0  bsp_basictim.o(i.BASIC_TIMx_Init)
    i.BusFault_Handler                       0x080008f8   Section        0  stm32f4xx_it.o(i.BusFault_Handler)
    i.CAN1_RX0_IRQHandler                    0x080008fc   Section        0  stm32f4xx_it.o(i.CAN1_RX0_IRQHandler)
    i.CAN_Receive_IT                         0x08000908   Section        0  stm32f4xx_hal_can.o(i.CAN_Receive_IT)
    CAN_Receive_IT                           0x08000909   Thumb Code   422  stm32f4xx_hal_can.o(i.CAN_Receive_IT)
    i.CAN_Transmit_IT                        0x08000aae   Section        0  stm32f4xx_hal_can.o(i.CAN_Transmit_IT)
    CAN_Transmit_IT                          0x08000aaf   Thumb Code    84  stm32f4xx_hal_can.o(i.CAN_Transmit_IT)
    i.DHCP_Periodic_Handle                   0x08000b04   Section        0  app_ethernet.o(i.DHCP_Periodic_Handle)
    i.DHCP_Process                           0x08000b30   Section        0  app_ethernet.o(i.DHCP_Process)
    i.DebugMon_Handler                       0x08000d70   Section        0  stm32f4xx_it.o(i.DebugMon_Handler)
    i.ETH_DMAReceptionEnable                 0x08000d72   Section        0  stm32f4xx_hal_eth.o(i.ETH_DMAReceptionEnable)
    ETH_DMAReceptionEnable                   0x08000d73   Thumb Code    16  stm32f4xx_hal_eth.o(i.ETH_DMAReceptionEnable)
    i.ETH_DMATransmissionEnable              0x08000d82   Section        0  stm32f4xx_hal_eth.o(i.ETH_DMATransmissionEnable)
    ETH_DMATransmissionEnable                0x08000d83   Thumb Code    16  stm32f4xx_hal_eth.o(i.ETH_DMATransmissionEnable)
    i.ETH_Delay                              0x08000d94   Section        0  stm32f4xx_hal_eth.o(i.ETH_Delay)
    ETH_Delay                                0x08000d95   Thumb Code    32  stm32f4xx_hal_eth.o(i.ETH_Delay)
    i.ETH_FlushTransmitFIFO                  0x08000db8   Section        0  stm32f4xx_hal_eth.o(i.ETH_FlushTransmitFIFO)
    ETH_FlushTransmitFIFO                    0x08000db9   Thumb Code    46  stm32f4xx_hal_eth.o(i.ETH_FlushTransmitFIFO)
    i.ETH_IRQHandler                         0x08000de8   Section        0  app_ethernet.o(i.ETH_IRQHandler)
    i.ETH_MACAddressConfig                   0x08000e08   Section        0  stm32f4xx_hal_eth.o(i.ETH_MACAddressConfig)
    ETH_MACAddressConfig                     0x08000e09   Thumb Code    42  stm32f4xx_hal_eth.o(i.ETH_MACAddressConfig)
    i.ETH_MACDMAConfig                       0x08000e34   Section        0  stm32f4xx_hal_eth.o(i.ETH_MACDMAConfig)
    ETH_MACDMAConfig                         0x08000e35   Thumb Code   390  stm32f4xx_hal_eth.o(i.ETH_MACDMAConfig)
    i.ETH_MACReceptionEnable                 0x08000fc8   Section        0  stm32f4xx_hal_eth.o(i.ETH_MACReceptionEnable)
    ETH_MACReceptionEnable                   0x08000fc9   Thumb Code    34  stm32f4xx_hal_eth.o(i.ETH_MACReceptionEnable)
    i.ETH_MACTransmissionEnable              0x08000fea   Section        0  stm32f4xx_hal_eth.o(i.ETH_MACTransmissionEnable)
    ETH_MACTransmissionEnable                0x08000feb   Thumb Code    34  stm32f4xx_hal_eth.o(i.ETH_MACTransmissionEnable)
    i.ETH_PHY_ReadReg                        0x0800100c   Section        0  app_ethernet.o(i.ETH_PHY_ReadReg)
    i.ETH_link_check_state                   0x08001028   Section        0  app_ethernet.o(i.ETH_link_check_state)
    i.Ethernet_Link_Periodic_Handle          0x080010b4   Section        0  app_ethernet.o(i.Ethernet_Link_Periodic_Handle)
    i.GENERAL_TIM3_Init                      0x080010dc   Section        0  bsp_us100_tim.o(i.GENERAL_TIM3_Init)
    i.GENERAL_TIM4_Init                      0x08001134   Section        0  bsp_generaltim.o(i.GENERAL_TIM4_Init)
    i.GENERAL_TIMx_Init                      0x080011bc   Section        0  bsp_generaltim.o(i.GENERAL_TIMx_Init)
    i.GetPinStateOfKey1                      0x0800121c   Section        0  bsp_key.o(i.GetPinStateOfKey1)
    i.GetPinStateOfKey2                      0x08001234   Section        0  bsp_key.o(i.GetPinStateOfKey2)
    i.GetPinStateOfKey3                      0x0800124c   Section        0  bsp_key.o(i.GetPinStateOfKey3)
    i.GetPinStateOfKey4                      0x08001264   Section        0  bsp_key.o(i.GetPinStateOfKey4)
    i.GetPinStateOfKey5                      0x0800127c   Section        0  bsp_key.o(i.GetPinStateOfKey5)
    i.HAL_CAN_ConfigFilter                   0x08001294   Section        0  stm32f4xx_hal_can.o(i.HAL_CAN_ConfigFilter)
    i.HAL_CAN_ErrorCallback                  0x080013a4   Section        0  stm32f4xx_hal_can.o(i.HAL_CAN_ErrorCallback)
    i.HAL_CAN_IRQHandler                     0x080013a8   Section        0  stm32f4xx_hal_can.o(i.HAL_CAN_IRQHandler)
    i.HAL_CAN_Init                           0x080015ac   Section        0  stm32f4xx_hal_can.o(i.HAL_CAN_Init)
    i.HAL_CAN_MspInit                        0x08001750   Section        0  bsp_can.o(i.HAL_CAN_MspInit)
    i.HAL_CAN_Receive_IT                     0x080017e0   Section        0  stm32f4xx_hal_can.o(i.HAL_CAN_Receive_IT)
    i.HAL_CAN_RxCpltCallback                 0x080018e8   Section        0  bsp_can.o(i.HAL_CAN_RxCpltCallback)
    i.HAL_CAN_TxCpltCallback                 0x080019ac   Section        0  stm32f4xx_hal_can.o(i.HAL_CAN_TxCpltCallback)
    i.HAL_DMA_Abort_IT                       0x080019ae   Section        0  stm32f4xx_hal_dma.o(i.HAL_DMA_Abort_IT)
    i.HAL_Delay                              0x080019d2   Section        0  stm32f4xx_hal.o(i.HAL_Delay)
    i.HAL_ETH_ConfigMAC                      0x080019f0   Section        0  stm32f4xx_hal_eth.o(i.HAL_ETH_ConfigMAC)
    i.HAL_ETH_DMARxDescListInit              0x08001b28   Section        0  stm32f4xx_hal_eth.o(i.HAL_ETH_DMARxDescListInit)
    i.HAL_ETH_DMATxDescListInit              0x08001ba8   Section        0  stm32f4xx_hal_eth.o(i.HAL_ETH_DMATxDescListInit)
    i.HAL_ETH_GetReceivedFrame_IT            0x08001c36   Section        0  stm32f4xx_hal_eth.o(i.HAL_ETH_GetReceivedFrame_IT)
    i.HAL_ETH_Init                           0x08001cd8   Section        0  stm32f4xx_hal_eth.o(i.HAL_ETH_Init)
    i.HAL_ETH_MspInit                        0x08001f48   Section        0  ethernetif.o(i.HAL_ETH_MspInit)
    i.HAL_ETH_ReadPHYRegister                0x08002050   Section        0  stm32f4xx_hal_eth.o(i.HAL_ETH_ReadPHYRegister)
    i.HAL_ETH_Start                          0x080020dc   Section        0  stm32f4xx_hal_eth.o(i.HAL_ETH_Start)
    i.HAL_ETH_TransmitFrame                  0x08002122   Section        0  stm32f4xx_hal_eth.o(i.HAL_ETH_TransmitFrame)
    i.HAL_ETH_WritePHYRegister               0x08002258   Section        0  stm32f4xx_hal_eth.o(i.HAL_ETH_WritePHYRegister)
    i.HAL_GPIO_Init                          0x080022dc   Section        0  stm32f4xx_hal_gpio.o(i.HAL_GPIO_Init)
    i.HAL_GPIO_ReadPin                       0x080024f8   Section        0  stm32f4xx_hal_gpio.o(i.HAL_GPIO_ReadPin)
    i.HAL_GPIO_TogglePin                     0x08002506   Section        0  stm32f4xx_hal_gpio.o(i.HAL_GPIO_TogglePin)
    i.HAL_GPIO_WritePin                      0x0800250e   Section        0  stm32f4xx_hal_gpio.o(i.HAL_GPIO_WritePin)
    i.HAL_GetTick                            0x0800251c   Section        0  stm32f4xx_hal.o(i.HAL_GetTick)
    i.HAL_IncTick                            0x08002528   Section        0  stm32f4xx_hal.o(i.HAL_IncTick)
    i.HAL_Init                               0x08002538   Section        0  stm32f4xx_hal.o(i.HAL_Init)
    i.HAL_InitTick                           0x0800256c   Section        0  stm32f4xx_hal.o(i.HAL_InitTick)
    i.HAL_MspInit                            0x08002594   Section        0  stm32f4xx_hal_msp.o(i.HAL_MspInit)
    i.HAL_NVIC_EnableIRQ                     0x080025fc   Section        0  stm32f4xx_hal_cortex.o(i.HAL_NVIC_EnableIRQ)
    i.HAL_NVIC_SetPriority                   0x08002614   Section        0  stm32f4xx_hal_cortex.o(i.HAL_NVIC_SetPriority)
    i.HAL_NVIC_SetPriorityGrouping           0x0800267c   Section        0  stm32f4xx_hal_cortex.o(i.HAL_NVIC_SetPriorityGrouping)
    i.HAL_RCC_ClockConfig                    0x080026a0   Section        0  stm32f4xx_hal_rcc.o(i.HAL_RCC_ClockConfig)
    i.HAL_RCC_EnableCSS                      0x08002890   Section        0  stm32f4xx_hal_rcc.o(i.HAL_RCC_EnableCSS)
    i.HAL_RCC_GetHCLKFreq                    0x0800289c   Section        0  stm32f4xx_hal_rcc.o(i.HAL_RCC_GetHCLKFreq)
    i.HAL_RCC_GetPCLK1Freq                   0x080028a8   Section        0  stm32f4xx_hal_rcc.o(i.HAL_RCC_GetPCLK1Freq)
    i.HAL_RCC_GetPCLK2Freq                   0x080028d4   Section        0  stm32f4xx_hal_rcc.o(i.HAL_RCC_GetPCLK2Freq)
    i.HAL_RCC_GetSysClockFreq                0x08002900   Section        0  stm32f4xx_hal_rcc.o(i.HAL_RCC_GetSysClockFreq)
    i.HAL_RCC_OscConfig                      0x0800298c   Section        0  stm32f4xx_hal_rcc.o(i.HAL_RCC_OscConfig)
    i.HAL_SYSTICK_CLKSourceConfig            0x08002dcc   Section        0  stm32f4xx_hal_cortex.o(i.HAL_SYSTICK_CLKSourceConfig)
    i.HAL_SYSTICK_Callback                   0x08002de8   Section        0  stm32f4xx_hal_cortex.o(i.HAL_SYSTICK_Callback)
    i.HAL_SYSTICK_Config                     0x08002dec   Section        0  stm32f4xx_hal_cortex.o(i.HAL_SYSTICK_Config)
    i.HAL_SYSTICK_IRQHandler                 0x08002e14   Section        0  stm32f4xx_hal_cortex.o(i.HAL_SYSTICK_IRQHandler)
    i.HAL_TIM3_Base_MspDeInit                0x08002e1c   Section        0  bsp_us100_tim.o(i.HAL_TIM3_Base_MspDeInit)
    i.HAL_TIM3_IC_CaptureCallback            0x08002e7c   Section        0  bsp_us100_tim.o(i.HAL_TIM3_IC_CaptureCallback)
    i.HAL_TIM3_PeriodElapsedCallback         0x08002f04   Section        0  bsp_us100_tim.o(i.HAL_TIM3_PeriodElapsedCallback)
    i.HAL_TIMEx_BreakCallback                0x08002f14   Section        0  stm32f4xx_hal_tim_ex.o(i.HAL_TIMEx_BreakCallback)
    i.HAL_TIMEx_CommutationCallback          0x08002f16   Section        0  stm32f4xx_hal_tim_ex.o(i.HAL_TIMEx_CommutationCallback)
    i.HAL_TIMEx_MasterConfigSynchronization  0x08002f18   Section        0  stm32f4xx_hal_tim_ex.o(i.HAL_TIMEx_MasterConfigSynchronization)
    i.HAL_TIM_Base_Init                      0x08002f7e   Section        0  stm32f4xx_hal_tim.o(i.HAL_TIM_Base_Init)
    i.HAL_TIM_Base_MspInit                   0x08002fb8   Section        0  bsp_basictim.o(i.HAL_TIM_Base_MspInit)
    i.HAL_TIM_Base_Start                     0x08003004   Section        0  stm32f4xx_hal_tim.o(i.HAL_TIM_Base_Start)
    i.HAL_TIM_Base_Start_IT                  0x0800301e   Section        0  stm32f4xx_hal_tim.o(i.HAL_TIM_Base_Start_IT)
    i.HAL_TIM_ConfigClockSource              0x08003036   Section        0  stm32f4xx_hal_tim.o(i.HAL_TIM_ConfigClockSource)
    i.HAL_TIM_IC_CaptureCallback             0x08003146   Section        0  main.o(i.HAL_TIM_IC_CaptureCallback)
    i.HAL_TIM_IC_ConfigChannel               0x0800314a   Section        0  stm32f4xx_hal_tim.o(i.HAL_TIM_IC_ConfigChannel)
    i.HAL_TIM_IC_Start_IT                    0x08003208   Section        0  stm32f4xx_hal_tim.o(i.HAL_TIM_IC_Start_IT)
    i.HAL_TIM_IRQHandler                     0x0800325c   Section        0  stm32f4xx_hal_tim.o(i.HAL_TIM_IRQHandler)
    i.HAL_TIM_OC_ConfigChannel               0x080033d0   Section        0  stm32f4xx_hal_tim.o(i.HAL_TIM_OC_ConfigChannel)
    i.HAL_TIM_OC_DelayElapsedCallback        0x08003428   Section        0  main.o(i.HAL_TIM_OC_DelayElapsedCallback)
    i.HAL_TIM_OnePulse_Init                  0x0800346c   Section        0  stm32f4xx_hal_tim.o(i.HAL_TIM_OnePulse_Init)
    i.HAL_TIM_OnePulse_MspInit               0x080034b8   Section        0  bsp_generaltim.o(i.HAL_TIM_OnePulse_MspInit)
    i.HAL_TIM_PWM_PulseFinishedCallback      0x080034f4   Section        0  stm32f4xx_hal_tim.o(i.HAL_TIM_PWM_PulseFinishedCallback)
    i.HAL_TIM_PeriodElapsedCallback          0x080034f8   Section        0  main.o(i.HAL_TIM_PeriodElapsedCallback)
    i.HAL_TIM_ReadCapturedValue              0x08003594   Section        0  stm32f4xx_hal_tim.o(i.HAL_TIM_ReadCapturedValue)
    i.HAL_TIM_TriggerCallback                0x080035d8   Section        0  stm32f4xx_hal_tim.o(i.HAL_TIM_TriggerCallback)
    i.HAL_UART_ErrorCallback                 0x080035da   Section        0  stm32f4xx_hal_uart.o(i.HAL_UART_ErrorCallback)
    i.HAL_UART_IRQHandler                    0x080035dc   Section        0  stm32f4xx_hal_uart.o(i.HAL_UART_IRQHandler)
    i.HAL_UART_Init                          0x08003714   Section        0  stm32f4xx_hal_uart.o(i.HAL_UART_Init)
    i.HAL_UART_MspInit                       0x08003778   Section        0  bsp_debug_usart.o(i.HAL_UART_MspInit)
    i.HAL_UART_Receive_IT                    0x0800386c   Section        0  stm32f4xx_hal_uart.o(i.HAL_UART_Receive_IT)
    i.HAL_UART_RxCpltCallback                0x080038b8   Section        0  main.o(i.HAL_UART_RxCpltCallback)
    i.HAL_UART_Transmit                      0x08003944   Section        0  stm32f4xx_hal_uart.o(i.HAL_UART_Transmit)
    i.HAL_UART_TxCpltCallback                0x08003a20   Section        0  stm32f4xx_hal_uart.o(i.HAL_UART_TxCpltCallback)
    i.HardFault_Handler                      0x08003a22   Section        0  stm32f4xx_it.o(i.HardFault_Handler)
    i.KEY_GPIO_Init                          0x08003a24   Section        0  bsp_key.o(i.KEY_GPIO_Init)
    i.KeyCreate                              0x08003adc   Section        0  bsp_key.o(i.KeyCreate)
    i.Key_AccessTimes                        0x08003aec   Section        0  bsp_key.o(i.Key_AccessTimes)
    i.Key_RefreshState                       0x08003afa   Section        0  bsp_key.o(i.Key_RefreshState)
    i.LED_GPIO_Init                          0x08003b80   Section        0  bsp_led.o(i.LED_GPIO_Init)
    i.MB_CRC16                               0x08003c20   Section        0  bsp_mb_host.o(i.MB_CRC16)
    i.MB_CRC16_RS232                         0x08003c58   Section        0  bsp_usartx_rs232.o(i.MB_CRC16_RS232)
    i.MB_ReadCoil_03H_RS232                  0x08003c90   Section        0  bsp_usartx_rs232.o(i.MB_ReadCoil_03H_RS232)
    i.MB_ReadCoil_05H_RS232                  0x08003f4c   Section        0  bsp_usartx_rs232.o(i.MB_ReadCoil_05H_RS232)
    i.MB_ReadCoil_10H_RS232                  0x080040b0   Section        0  bsp_usartx_rs232.o(i.MB_ReadCoil_10H_RS232)
    i.MB_ReadHoldingReg_03H                  0x08004184   Section        0  bsp_mb_host.o(i.MB_ReadHoldingReg_03H)
    i.MX_CAN_Init                            0x080041b8   Section        0  bsp_can.o(i.MX_CAN_Init)
    i.MX_DEBUG_USART_Init                    0x0800422c   Section        0  bsp_debug_usart.o(i.MX_DEBUG_USART_Init)
    i.MX_RS232_USART_Init                    0x08004270   Section        0  bsp_debug_usart.o(i.MX_RS232_USART_Init)
    i.MemManage_Handler                      0x080042c4   Section        0  stm32f4xx_it.o(i.MemManage_Handler)
    i.NMI_Handler                            0x080042c6   Section        0  stm32f4xx_it.o(i.NMI_Handler)
    i.Netif_Config                           0x080042c8   Section        0  app_ethernet.o(i.Netif_Config)
    i.PendSV_Handler                         0x08004318   Section        0  stm32f4xx_it.o(i.PendSV_Handler)
    i.RCC_IRQHandler                         0x0800431a   Section        0  stm32f4xx_it.o(i.RCC_IRQHandler)
    i.RS485_GPIO_Init                        0x0800431c   Section        0  bsp_usartx_rs485.o(i.RS485_GPIO_Init)
    i.RS485_USARTx_Init                      0x080043b4   Section        0  bsp_usartx_rs485.o(i.RS485_USARTx_Init)
    i.RS485_USARTx_Init_4800                 0x08004414   Section        0  bsp_usartx_rs485.o(i.RS485_USARTx_Init_4800)
    i.Rx_RS485_function                      0x08004474   Section        0  main.o(i.Rx_RS485_function)
    i.SVC_Handler                            0x08004664   Section        0  stm32f4xx_it.o(i.SVC_Handler)
    i.SysTick_Handler                        0x08004666   Section        0  stm32f4xx_it.o(i.SysTick_Handler)
    i.SystemClock_Config                     0x08004674   Section        0  main.o(i.SystemClock_Config)
    i.SystemInit                             0x08004710   Section        0  system_stm32f4xx.o(i.SystemInit)
    i.TIM3_IRQHandler                        0x08004768   Section        0  stm32f4xx_it.o(i.TIM3_IRQHandler)
    i.TIM4_IRQHandler                        0x08004774   Section        0  stm32f4xx_it.o(i.TIM4_IRQHandler)
    i.TIM5_IRQHandler                        0x08004780   Section        0  stm32f4xx_it.o(i.TIM5_IRQHandler)
    i.TIM6_DAC_IRQHandler                    0x0800478c   Section        0  stm32f4xx_it.o(i.TIM6_DAC_IRQHandler)
    i.TIM_Base_SetConfig                     0x08004798   Section        0  stm32f4xx_hal_tim.o(i.TIM_Base_SetConfig)
    i.TIM_CCxChannelCmd                      0x08004860   Section        0  stm32f4xx_hal_tim.o(i.TIM_CCxChannelCmd)
    i.TIM_ETR_SetConfig                      0x0800487a   Section        0  stm32f4xx_hal_tim.o(i.TIM_ETR_SetConfig)
    TIM_ETR_SetConfig                        0x0800487b   Thumb Code    22  stm32f4xx_hal_tim.o(i.TIM_ETR_SetConfig)
    i.TIM_ITRx_SetConfig                     0x08004890   Section        0  stm32f4xx_hal_tim.o(i.TIM_ITRx_SetConfig)
    TIM_ITRx_SetConfig                       0x08004891   Thumb Code    16  stm32f4xx_hal_tim.o(i.TIM_ITRx_SetConfig)
    i.TIM_OC1_SetConfig                      0x080048a0   Section        0  stm32f4xx_hal_tim.o(i.TIM_OC1_SetConfig)
    TIM_OC1_SetConfig                        0x080048a1   Thumb Code   104  stm32f4xx_hal_tim.o(i.TIM_OC1_SetConfig)
    i.TIM_OC2_SetConfig                      0x08004908   Section        0  stm32f4xx_hal_tim.o(i.TIM_OC2_SetConfig)
    i.TIM_OC3_SetConfig                      0x08004978   Section        0  stm32f4xx_hal_tim.o(i.TIM_OC3_SetConfig)
    TIM_OC3_SetConfig                        0x08004979   Thumb Code   112  stm32f4xx_hal_tim.o(i.TIM_OC3_SetConfig)
    i.TIM_OC4_SetConfig                      0x080049e8   Section        0  stm32f4xx_hal_tim.o(i.TIM_OC4_SetConfig)
    TIM_OC4_SetConfig                        0x080049e9   Thumb Code    88  stm32f4xx_hal_tim.o(i.TIM_OC4_SetConfig)
    i.TIM_TI1_ConfigInputStage               0x08004a40   Section        0  stm32f4xx_hal_tim.o(i.TIM_TI1_ConfigInputStage)
    TIM_TI1_ConfigInputStage                 0x08004a41   Thumb Code    38  stm32f4xx_hal_tim.o(i.TIM_TI1_ConfigInputStage)
    i.TIM_TI1_SetConfig                      0x08004a66   Section        0  stm32f4xx_hal_tim.o(i.TIM_TI1_SetConfig)
    i.TIM_TI2_ConfigInputStage               0x08004af8   Section        0  stm32f4xx_hal_tim.o(i.TIM_TI2_ConfigInputStage)
    TIM_TI2_ConfigInputStage                 0x08004af9   Thumb Code    36  stm32f4xx_hal_tim.o(i.TIM_TI2_ConfigInputStage)
    i.TIM_TI2_SetConfig                      0x08004b1c   Section        0  stm32f4xx_hal_tim.o(i.TIM_TI2_SetConfig)
    TIM_TI2_SetConfig                        0x08004b1d   Thumb Code    64  stm32f4xx_hal_tim.o(i.TIM_TI2_SetConfig)
    i.TIM_TI3_SetConfig                      0x08004b5c   Section        0  stm32f4xx_hal_tim.o(i.TIM_TI3_SetConfig)
    TIM_TI3_SetConfig                        0x08004b5d   Thumb Code    60  stm32f4xx_hal_tim.o(i.TIM_TI3_SetConfig)
    i.TIM_TI4_SetConfig                      0x08004b98   Section        0  stm32f4xx_hal_tim.o(i.TIM_TI4_SetConfig)
    TIM_TI4_SetConfig                        0x08004b99   Thumb Code    64  stm32f4xx_hal_tim.o(i.TIM_TI4_SetConfig)
    i.TROPIN_GPIO_Init                       0x08004bd8   Section        0  bsp_us100_tim.o(i.TROPIN_GPIO_Init)
    i.UART4_IRQHandler                       0x08004c1c   Section        0  stm32f4xx_it.o(i.UART4_IRQHandler)
    i.UART5_IRQHandler                       0x08004c28   Section        0  stm32f4xx_it.o(i.UART5_IRQHandler)
    i.UART_DMAAbortOnError                   0x08004c34   Section        0  stm32f4xx_hal_uart.o(i.UART_DMAAbortOnError)
    UART_DMAAbortOnError                     0x08004c35   Thumb Code    16  stm32f4xx_hal_uart.o(i.UART_DMAAbortOnError)
    i.UART_EndRxTransfer                     0x08004c44   Section        0  stm32f4xx_hal_uart.o(i.UART_EndRxTransfer)
    UART_EndRxTransfer                       0x08004c45   Thumb Code    28  stm32f4xx_hal_uart.o(i.UART_EndRxTransfer)
    i.UART_EndTransmit_IT                    0x08004c60   Section        0  stm32f4xx_hal_uart.o(i.UART_EndTransmit_IT)
    UART_EndTransmit_IT                      0x08004c61   Thumb Code    26  stm32f4xx_hal_uart.o(i.UART_EndTransmit_IT)
    i.UART_RS232_Tx                          0x08004c7c   Section        0  bsp_debug_usart.o(i.UART_RS232_Tx)
    i.UART_Receive_IT                        0x08004ca0   Section        0  stm32f4xx_hal_uart.o(i.UART_Receive_IT)
    UART_Receive_IT                          0x08004ca1   Thumb Code   146  stm32f4xx_hal_uart.o(i.UART_Receive_IT)
    i.UART_SetConfig                         0x08004d34   Section        0  stm32f4xx_hal_uart.o(i.UART_SetConfig)
    UART_SetConfig                           0x08004d35   Thumb Code   822  stm32f4xx_hal_uart.o(i.UART_SetConfig)
    i.UART_Transmit_IT                       0x08005078   Section        0  stm32f4xx_hal_uart.o(i.UART_Transmit_IT)
    UART_Transmit_IT                         0x08005079   Thumb Code   102  stm32f4xx_hal_uart.o(i.UART_Transmit_IT)
    i.UART_Tx                                0x080050e0   Section        0  bsp_usartx_rs485.o(i.UART_Tx)
    i.UART_WaitOnFlagUntilTimeout            0x08005118   Section        0  stm32f4xx_hal_uart.o(i.UART_WaitOnFlagUntilTimeout)
    UART_WaitOnFlagUntilTimeout              0x08005119   Thumb Code   120  stm32f4xx_hal_uart.o(i.UART_WaitOnFlagUntilTimeout)
    i.US100_TIM3_Init                        0x08005190   Section        0  bsp_us100_tim.o(i.US100_TIM3_Init)
    i.US100_USARTx_Init                      0x080051dc   Section        0  bsp_us100_usartx.o(i.US100_USARTx_Init)
    i.US100_USARTx_Rx_data                   0x0800522c   Section        0  bsp_us100_usartx.o(i.US100_USARTx_Rx_data)
    i.US100_USARTx_main                      0x08005268   Section        0  bsp_us100_usartx.o(i.US100_USARTx_main)
    i.USART2_IRQHandler                      0x080052c8   Section        0  stm32f4xx_it.o(i.USART2_IRQHandler)
    i.USART3_IRQHandler                      0x080052d4   Section        0  stm32f4xx_it.o(i.USART3_IRQHandler)
    i.USART_GPIO_Init                        0x080052e0   Section        0  bsp_us100_usartx.o(i.USART_GPIO_Init)
    i.UsageFault_Handler                     0x08005338   Section        0  stm32f4xx_it.o(i.UsageFault_Handler)
    i.YSF4_TCP_SENDData                      0x0800533c   Section        0  tcp_echoserver.o(i.YSF4_TCP_SENDData)
    i.__0printf                              0x0800554c   Section        0  printfa.o(i.__0printf)
    i.__0sprintf                             0x0800556c   Section        0  printfa.o(i.__0sprintf)
    i.__scatterload_copy                     0x08005594   Section       14  handlers.o(i.__scatterload_copy)
    i.__scatterload_null                     0x080055a2   Section        2  handlers.o(i.__scatterload_null)
    i.__scatterload_zeroinit                 0x080055a4   Section       14  handlers.o(i.__scatterload_zeroinit)
    i._fp_digits                             0x080055b4   Section        0  printfa.o(i._fp_digits)
    _fp_digits                               0x080055b5   Thumb Code   366  printfa.o(i._fp_digits)
    i._printf_core                           0x08005738   Section        0  printfa.o(i._printf_core)
    _printf_core                             0x08005739   Thumb Code  1744  printfa.o(i._printf_core)
    i._printf_post_padding                   0x08005e14   Section        0  printfa.o(i._printf_post_padding)
    _printf_post_padding                     0x08005e15   Thumb Code    36  printfa.o(i._printf_post_padding)
    i._printf_pre_padding                    0x08005e38   Section        0  printfa.o(i._printf_pre_padding)
    _printf_pre_padding                      0x08005e39   Thumb Code    46  printfa.o(i._printf_pre_padding)
    i._sputc                                 0x08005e66   Section        0  printfa.o(i._sputc)
    _sputc                                   0x08005e67   Thumb Code    10  printfa.o(i._sputc)
    i.cyclic_timer                           0x08005e70   Section        0  timeouts.o(i.cyclic_timer)
    cyclic_timer                             0x08005e71   Thumb Code    22  timeouts.o(i.cyclic_timer)
    i.dhcp_arp_reply                         0x08005e8c   Section        0  dhcp.o(i.dhcp_arp_reply)
    i.dhcp_bind                              0x08005eac   Section        0  dhcp.o(i.dhcp_bind)
    dhcp_bind                                0x08005ead   Thumb Code   234  dhcp.o(i.dhcp_bind)
    i.dhcp_check                             0x08005f9c   Section        0  dhcp.o(i.dhcp_check)
    dhcp_check                               0x08005f9d   Thumb Code    52  dhcp.o(i.dhcp_check)
    i.dhcp_coarse_tmr                        0x08005fd0   Section        0  dhcp.o(i.dhcp_coarse_tmr)
    i.dhcp_create_msg                        0x08006038   Section        0  dhcp.o(i.dhcp_create_msg)
    dhcp_create_msg                          0x08006039   Thumb Code   300  dhcp.o(i.dhcp_create_msg)
    i.dhcp_dec_pcb_refcount                  0x0800616c   Section        0  dhcp.o(i.dhcp_dec_pcb_refcount)
    dhcp_dec_pcb_refcount                    0x0800616d   Thumb Code    28  dhcp.o(i.dhcp_dec_pcb_refcount)
    i.dhcp_decline                           0x0800618c   Section        0  dhcp.o(i.dhcp_decline)
    dhcp_decline                             0x0800618d   Thumb Code   130  dhcp.o(i.dhcp_decline)
    i.dhcp_delete_msg                        0x0800621c   Section        0  dhcp.o(i.dhcp_delete_msg)
    dhcp_delete_msg                          0x0800621d   Thumb Code    24  dhcp.o(i.dhcp_delete_msg)
    i.dhcp_discover                          0x08006234   Section        0  dhcp.o(i.dhcp_discover)
    dhcp_discover                            0x08006235   Thumb Code   200  dhcp.o(i.dhcp_discover)
    i.dhcp_fine_tmr                          0x0800630c   Section        0  dhcp.o(i.dhcp_fine_tmr)
    i.dhcp_handle_ack                        0x08006340   Section        0  dhcp.o(i.dhcp_handle_ack)
    dhcp_handle_ack                          0x08006341   Thumb Code   104  dhcp.o(i.dhcp_handle_ack)
    i.dhcp_handle_nak                        0x080063ac   Section        0  dhcp.o(i.dhcp_handle_nak)
    dhcp_handle_nak                          0x080063ad   Thumb Code    34  dhcp.o(i.dhcp_handle_nak)
    i.dhcp_handle_offer                      0x080063d4   Section        0  dhcp.o(i.dhcp_handle_offer)
    dhcp_handle_offer                        0x080063d5   Thumb Code    42  dhcp.o(i.dhcp_handle_offer)
    i.dhcp_inc_pcb_refcount                  0x08006408   Section        0  dhcp.o(i.dhcp_inc_pcb_refcount)
    dhcp_inc_pcb_refcount                    0x08006409   Thumb Code    70  dhcp.o(i.dhcp_inc_pcb_refcount)
    i.dhcp_network_changed                   0x0800645c   Section        0  dhcp.o(i.dhcp_network_changed)
    i.dhcp_option                            0x0800648c   Section        0  dhcp.o(i.dhcp_option)
    dhcp_option                              0x0800648d   Thumb Code    34  dhcp.o(i.dhcp_option)
    i.dhcp_option_byte                       0x080064ae   Section        0  dhcp.o(i.dhcp_option_byte)
    dhcp_option_byte                         0x080064af   Thumb Code    14  dhcp.o(i.dhcp_option_byte)
    i.dhcp_option_long                       0x080064bc   Section        0  dhcp.o(i.dhcp_option_long)
    dhcp_option_long                         0x080064bd   Thumb Code    68  dhcp.o(i.dhcp_option_long)
    i.dhcp_option_short                      0x08006500   Section        0  dhcp.o(i.dhcp_option_short)
    dhcp_option_short                        0x08006501   Thumb Code    32  dhcp.o(i.dhcp_option_short)
    i.dhcp_option_trailer                    0x08006520   Section        0  dhcp.o(i.dhcp_option_trailer)
    dhcp_option_trailer                      0x08006521   Thumb Code    50  dhcp.o(i.dhcp_option_trailer)
    i.dhcp_parse_reply                       0x08006554   Section        0  dhcp.o(i.dhcp_parse_reply)
    dhcp_parse_reply                         0x08006555   Thumb Code   690  dhcp.o(i.dhcp_parse_reply)
    i.dhcp_rebind                            0x08006810   Section        0  dhcp.o(i.dhcp_rebind)
    dhcp_rebind                              0x08006811   Thumb Code   172  dhcp.o(i.dhcp_rebind)
    i.dhcp_reboot                            0x080068c8   Section        0  dhcp.o(i.dhcp_reboot)
    dhcp_reboot                              0x080068c9   Thumb Code   198  dhcp.o(i.dhcp_reboot)
    i.dhcp_recv                              0x0800699c   Section        0  dhcp.o(i.dhcp_recv)
    dhcp_recv                                0x0800699d   Thumb Code   246  dhcp.o(i.dhcp_recv)
    i.dhcp_release                           0x08006aa0   Section        0  dhcp.o(i.dhcp_release)
    i.dhcp_renew                             0x08006b54   Section        0  dhcp.o(i.dhcp_renew)
    i.dhcp_select                            0x08006c0c   Section        0  dhcp.o(i.dhcp_select)
    dhcp_select                              0x08006c0d   Thumb Code   244  dhcp.o(i.dhcp_select)
    i.dhcp_set_state                         0x08006d10   Section        0  dhcp.o(i.dhcp_set_state)
    dhcp_set_state                           0x08006d11   Thumb Code    16  dhcp.o(i.dhcp_set_state)
    i.dhcp_start                             0x08006d20   Section        0  dhcp.o(i.dhcp_start)
    i.dhcp_stop                              0x08006db4   Section        0  dhcp.o(i.dhcp_stop)
    i.dhcp_supplied_address                  0x08006dd8   Section        0  dhcp.o(i.dhcp_supplied_address)
    i.dhcp_t1_timeout                        0x08006df6   Section        0  dhcp.o(i.dhcp_t1_timeout)
    dhcp_t1_timeout                          0x08006df7   Thumb Code    42  dhcp.o(i.dhcp_t1_timeout)
    i.dhcp_t2_timeout                        0x08006e20   Section        0  dhcp.o(i.dhcp_t2_timeout)
    dhcp_t2_timeout                          0x08006e21   Thumb Code    46  dhcp.o(i.dhcp_t2_timeout)
    i.dhcp_timeout                           0x08006e4e   Section        0  dhcp.o(i.dhcp_timeout)
    dhcp_timeout                             0x08006e4f   Thumb Code   124  dhcp.o(i.dhcp_timeout)
    i.do_memp_free_pool                      0x08006eca   Section        0  memp.o(i.do_memp_free_pool)
    do_memp_free_pool                        0x08006ecb   Thumb Code    12  memp.o(i.do_memp_free_pool)
    i.do_memp_malloc_pool                    0x08006ed6   Section        0  memp.o(i.do_memp_malloc_pool)
    do_memp_malloc_pool                      0x08006ed7   Thumb Code    18  memp.o(i.do_memp_malloc_pool)
    i.etharp_cleanup_netif                   0x08006ee8   Section        0  etharp.o(i.etharp_cleanup_netif)
    i.etharp_find_entry                      0x08006f18   Section        0  etharp.o(i.etharp_find_entry)
    etharp_find_entry                        0x08006f19   Thumb Code   262  etharp.o(i.etharp_find_entry)
    i.etharp_free_entry                      0x08007024   Section        0  etharp.o(i.etharp_free_entry)
    etharp_free_entry                        0x08007025   Thumb Code    34  etharp.o(i.etharp_free_entry)
    i.etharp_input                           0x0800704c   Section        0  etharp.o(i.etharp_input)
    i.etharp_output                          0x08007114   Section        0  etharp.o(i.etharp_output)
    i.etharp_output_to_arp_index             0x08007220   Section        0  etharp.o(i.etharp_output_to_arp_index)
    etharp_output_to_arp_index               0x08007221   Thumb Code    92  etharp.o(i.etharp_output_to_arp_index)
    i.etharp_query                           0x08007280   Section        0  etharp.o(i.etharp_query)
    i.etharp_raw                             0x080073a8   Section        0  etharp.o(i.etharp_raw)
    etharp_raw                               0x080073a9   Thumb Code   138  etharp.o(i.etharp_raw)
    i.etharp_request                         0x08007434   Section        0  etharp.o(i.etharp_request)
    i.etharp_request_dst                     0x08007440   Section        0  etharp.o(i.etharp_request_dst)
    etharp_request_dst                       0x08007441   Thumb Code    36  etharp.o(i.etharp_request_dst)
    i.etharp_tmr                             0x08007468   Section        0  etharp.o(i.etharp_tmr)
    i.etharp_update_arp_entry                0x080074cc   Section        0  etharp.o(i.etharp_update_arp_entry)
    etharp_update_arp_entry                  0x080074cd   Thumb Code   126  etharp.o(i.etharp_update_arp_entry)
    i.ethernet_input                         0x08007550   Section        0  ethernet.o(i.ethernet_input)
    i.ethernet_link_check_state              0x080075f8   Section        0  ethernetif.o(i.ethernet_link_check_state)
    i.ethernet_link_status_updated           0x080076dc   Section        0  app_ethernet.o(i.ethernet_link_status_updated)
    i.ethernet_output                        0x08007758   Section        0  ethernet.o(i.ethernet_output)
    i.ethernetif_init                        0x080077ac   Section        0  ethernetif.o(i.ethernetif_init)
    i.ethernetif_input                       0x080077d4   Section        0  ethernetif.o(i.ethernetif_input)
    i.fputc                                  0x080077fc   Section        0  bsp_debug_usart.o(i.fputc)
    i.icmp_dest_unreach                      0x08007818   Section        0  icmp.o(i.icmp_dest_unreach)
    i.icmp_input                             0x08007820   Section        0  icmp.o(i.icmp_input)
    i.icmp_send_response                     0x08007964   Section        0  icmp.o(i.icmp_send_response)
    icmp_send_response                       0x08007965   Thumb Code   114  icmp.o(i.icmp_send_response)
    i.icmp_time_exceeded                     0x080079d6   Section        0  icmp.o(i.icmp_time_exceeded)
    i.inet_chksum_pbuf                       0x080079de   Section        0  inet_chksum.o(i.inet_chksum_pbuf)
    i.ip4_addr_isbroadcast_u32               0x08007a2a   Section        0  ip4_addr.o(i.ip4_addr_isbroadcast_u32)
    i.ip4_frag                               0x08007a7c   Section        0  ip4_frag.o(i.ip4_frag)
    i.ip4_input                              0x08007c20   Section        0  ip4.o(i.ip4_input)
    i.ip4_output_if                          0x08007e14   Section        0  ip4.o(i.ip4_output_if)
    i.ip4_output_if_src                      0x08007e40   Section        0  ip4.o(i.ip4_output_if_src)
    i.ip4_reass                              0x08007efc   Section        0  ip4_frag.o(i.ip4_reass)
    i.ip4_route                              0x0800807c   Section        0  ip4.o(i.ip4_route)
    i.ip4addr_ntoa                           0x080080f0   Section        0  ip4_addr.o(i.ip4addr_ntoa)
    i.ip4addr_ntoa_r                         0x080080fc   Section        0  ip4_addr.o(i.ip4addr_ntoa_r)
    i.ip_frag_alloc_pbuf_custom_ref          0x080081ac   Section        0  ip4_frag.o(i.ip_frag_alloc_pbuf_custom_ref)
    ip_frag_alloc_pbuf_custom_ref            0x080081ad   Thumb Code     6  ip4_frag.o(i.ip_frag_alloc_pbuf_custom_ref)
    i.ip_frag_free_pbuf_custom_ref           0x080081b2   Section        0  ip4_frag.o(i.ip_frag_free_pbuf_custom_ref)
    ip_frag_free_pbuf_custom_ref             0x080081b3   Thumb Code     8  ip4_frag.o(i.ip_frag_free_pbuf_custom_ref)
    i.ip_reass_chain_frag_into_datagram_and_validate 0x080081bc   Section        0  ip4_frag.o(i.ip_reass_chain_frag_into_datagram_and_validate)
    ip_reass_chain_frag_into_datagram_and_validate 0x080081bd   Thumb Code   244  ip4_frag.o(i.ip_reass_chain_frag_into_datagram_and_validate)
    i.ip_reass_dequeue_datagram              0x080082b4   Section        0  ip4_frag.o(i.ip_reass_dequeue_datagram)
    ip_reass_dequeue_datagram                0x080082b5   Thumb Code    28  ip4_frag.o(i.ip_reass_dequeue_datagram)
    i.ip_reass_enqueue_new_datagram          0x080082d4   Section        0  ip4_frag.o(i.ip_reass_enqueue_new_datagram)
    ip_reass_enqueue_new_datagram            0x080082d5   Thumb Code    94  ip4_frag.o(i.ip_reass_enqueue_new_datagram)
    i.ip_reass_free_complete_datagram        0x08008338   Section        0  ip4_frag.o(i.ip_reass_free_complete_datagram)
    ip_reass_free_complete_datagram          0x08008339   Thumb Code   120  ip4_frag.o(i.ip_reass_free_complete_datagram)
    i.ip_reass_remove_oldest_datagram        0x080083b4   Section        0  ip4_frag.o(i.ip_reass_remove_oldest_datagram)
    ip_reass_remove_oldest_datagram          0x080083b5   Thumb Code   118  ip4_frag.o(i.ip_reass_remove_oldest_datagram)
    i.ip_reass_tmr                           0x08008430   Section        0  ip4_frag.o(i.ip_reass_tmr)
    i.ipfrag_free_pbuf_custom                0x08008460   Section        0  ip4_frag.o(i.ipfrag_free_pbuf_custom)
    ipfrag_free_pbuf_custom                  0x08008461   Thumb Code    24  ip4_frag.o(i.ipfrag_free_pbuf_custom)
    i.low_level_init                         0x08008478   Section        0  ethernetif.o(i.low_level_init)
    low_level_init                           0x08008479   Thumb Code   224  ethernetif.o(i.low_level_init)
    i.low_level_input                        0x08008594   Section        0  ethernetif.o(i.low_level_input)
    low_level_input                          0x08008595   Thumb Code   192  ethernetif.o(i.low_level_input)
    i.low_level_output                       0x08008658   Section        0  ethernetif.o(i.low_level_output)
    low_level_output                         0x08008659   Thumb Code   180  ethernetif.o(i.low_level_output)
    i.lwip_IT_handle                         0x08008710   Section        0  ethernetif.o(i.lwip_IT_handle)
    i.lwip_htonl                             0x0800871c   Section        0  def.o(i.lwip_htonl)
    i.lwip_htons                             0x08008734   Section        0  def.o(i.lwip_htons)
    i.lwip_init                              0x0800873e   Section        0  init.o(i.lwip_init)
    i.lwip_standard_chksum                   0x0800875c   Section        0  inet_chksum.o(i.lwip_standard_chksum)
    i.main                                   0x080087b8   Section        0  main.o(i.main)
    i.main_RS232                             0x0800895c   Section        0  main.o(i.main_RS232)
    i.main_RS485                             0x08008a88   Section        0  main.o(i.main_RS485)
    i.mem_free                               0x08008d50   Section        0  mem.o(i.mem_free)
    i.mem_init                               0x08008d7c   Section        0  mem.o(i.mem_init)
    i.mem_malloc                             0x08008db0   Section        0  mem.o(i.mem_malloc)
    i.mem_trim                               0x08008e70   Section        0  mem.o(i.mem_trim)
    i.memp_free                              0x08008f54   Section        0  memp.o(i.memp_free)
    i.memp_init                              0x08008f6c   Section        0  memp.o(i.memp_init)
    i.memp_init_pool                         0x08008f88   Section        0  memp.o(i.memp_init_pool)
    i.memp_malloc                            0x08008fb8   Section        0  memp.o(i.memp_malloc)
    i.netif_add                              0x08008fd0   Section        0  netif.o(i.netif_add)
    i.netif_init                             0x08009028   Section        0  netif.o(i.netif_init)
    i.netif_issue_reports                    0x0800902a   Section        0  netif.o(i.netif_issue_reports)
    netif_issue_reports                      0x0800902b   Thumb Code    30  netif.o(i.netif_issue_reports)
    i.netif_set_addr                         0x08009048   Section        0  netif.o(i.netif_set_addr)
    i.netif_set_default                      0x08009094   Section        0  netif.o(i.netif_set_default)
    i.netif_set_down                         0x080090a0   Section        0  netif.o(i.netif_set_down)
    i.netif_set_gw                           0x080090be   Section        0  netif.o(i.netif_set_gw)
    i.netif_set_ipaddr                       0x080090cc   Section        0  netif.o(i.netif_set_ipaddr)
    i.netif_set_link_callback                0x08009114   Section        0  netif.o(i.netif_set_link_callback)
    i.netif_set_link_down                    0x0800911c   Section        0  netif.o(i.netif_set_link_down)
    i.netif_set_link_up                      0x08009138   Section        0  netif.o(i.netif_set_link_up)
    i.netif_set_netmask                      0x08009176   Section        0  netif.o(i.netif_set_netmask)
    i.netif_set_up                           0x08009184   Section        0  netif.o(i.netif_set_up)
    i.pbuf_alloc                             0x080091a4   Section        0  pbuf.o(i.pbuf_alloc)
    i.pbuf_alloced_custom                    0x080092de   Section        0  pbuf.o(i.pbuf_alloced_custom)
    i.pbuf_cat                               0x08009346   Section        0  pbuf.o(i.pbuf_cat)
    i.pbuf_chain                             0x0800936e   Section        0  pbuf.o(i.pbuf_chain)
    i.pbuf_clen                              0x08009382   Section        0  pbuf.o(i.pbuf_clen)
    i.pbuf_copy                              0x08009396   Section        0  pbuf.o(i.pbuf_copy)
    i.pbuf_copy_partial                      0x0800943e   Section        0  pbuf.o(i.pbuf_copy_partial)
    i.pbuf_free                              0x080094ae   Section        0  pbuf.o(i.pbuf_free)
    i.pbuf_header                            0x0800950c   Section        0  pbuf.o(i.pbuf_header)
    i.pbuf_header_force                      0x08009512   Section        0  pbuf.o(i.pbuf_header_force)
    i.pbuf_header_impl                       0x08009518   Section        0  pbuf.o(i.pbuf_header_impl)
    pbuf_header_impl                         0x08009519   Thumb Code   138  pbuf.o(i.pbuf_header_impl)
    i.pbuf_realloc                           0x080095a2   Section        0  pbuf.o(i.pbuf_realloc)
    i.pbuf_ref                               0x080095fe   Section        0  pbuf.o(i.pbuf_ref)
    i.pbuf_take                              0x0800960a   Section        0  pbuf.o(i.pbuf_take)
    i.plug_holes                             0x08009668   Section        0  mem.o(i.plug_holes)
    plug_holes                               0x08009669   Thumb Code    98  mem.o(i.plug_holes)
    i.sys_check_timeouts                     0x080096d0   Section        0  timeouts.o(i.sys_check_timeouts)
    i.sys_now                                0x0800971c   Section        0  ethernetif.o(i.sys_now)
    i.sys_timeout                            0x08009720   Section        0  timeouts.o(i.sys_timeout)
    i.sys_timeouts_init                      0x080097c8   Section        0  timeouts.o(i.sys_timeouts_init)
    i.tcp_abandon                            0x080097f8   Section        0  tcp.o(i.tcp_abandon)
    i.tcp_abort                              0x080098cc   Section        0  tcp.o(i.tcp_abort)
    i.tcp_accept                             0x080098d2   Section        0  tcp.o(i.tcp_accept)
    i.tcp_accept_null                        0x080098e0   Section        0  tcp.o(i.tcp_accept_null)
    tcp_accept_null                          0x080098e1   Thumb Code    14  tcp.o(i.tcp_accept_null)
    i.tcp_alloc                              0x080098f0   Section        0  tcp.o(i.tcp_alloc)
    i.tcp_arg                                0x080099a0   Section        0  tcp.o(i.tcp_arg)
    i.tcp_bind                               0x080099a8   Section        0  tcp.o(i.tcp_bind)
    i.tcp_close                              0x08009a44   Section        0  tcp.o(i.tcp_close)
    i.tcp_close_shutdown                     0x08009a58   Section        0  tcp.o(i.tcp_close_shutdown)
    tcp_close_shutdown                       0x08009a59   Thumb Code   368  tcp.o(i.tcp_close_shutdown)
    i.tcp_create_segment                     0x08009be4   Section        0  tcp_out.o(i.tcp_create_segment)
    tcp_create_segment                       0x08009be5   Thumb Code   154  tcp_out.o(i.tcp_create_segment)
    i.tcp_echoserver_accept                  0x08009c80   Section        0  tcp_echoserver.o(i.tcp_echoserver_accept)
    tcp_echoserver_accept                    0x08009c81   Thumb Code   130  tcp_echoserver.o(i.tcp_echoserver_accept)
    i.tcp_echoserver_connection_close        0x08009d38   Section        0  tcp_echoserver.o(i.tcp_echoserver_connection_close)
    tcp_echoserver_connection_close          0x08009d39   Thumb Code    66  tcp_echoserver.o(i.tcp_echoserver_connection_close)
    i.tcp_echoserver_error                   0x08009d7a   Section        0  tcp_echoserver.o(i.tcp_echoserver_error)
    tcp_echoserver_error                     0x08009d7b   Thumb Code    10  tcp_echoserver.o(i.tcp_echoserver_error)
    i.tcp_echoserver_poll                    0x08009d84   Section        0  tcp_echoserver.o(i.tcp_echoserver_poll)
    tcp_echoserver_poll                      0x08009d85   Thumb Code    42  tcp_echoserver.o(i.tcp_echoserver_poll)
    i.tcp_echoserver_recv                    0x08009db0   Section        0  tcp_echoserver.o(i.tcp_echoserver_recv)
    tcp_echoserver_recv                      0x08009db1   Thumb Code   204  tcp_echoserver.o(i.tcp_echoserver_recv)
    i.tcp_echoserver_send                    0x08009e98   Section        0  tcp_echoserver.o(i.tcp_echoserver_send)
    tcp_echoserver_send                      0x08009e99   Thumb Code   108  tcp_echoserver.o(i.tcp_echoserver_send)
    i.tcp_eff_send_mss_impl                  0x08009f0c   Section        0  tcp.o(i.tcp_eff_send_mss_impl)
    i.tcp_enqueue_flags                      0x08009f32   Section        0  tcp_out.o(i.tcp_enqueue_flags)
    i.tcp_err                                0x08009ff0   Section        0  tcp.o(i.tcp_err)
    i.tcp_fasttmr                            0x08009ffc   Section        0  tcp.o(i.tcp_fasttmr)
    i.tcp_getoptbyte                         0x0800a05c   Section        0  tcp_in.o(i.tcp_getoptbyte)
    tcp_getoptbyte                           0x0800a05d   Thumb Code    54  tcp_in.o(i.tcp_getoptbyte)
    i.tcp_init                               0x0800a098   Section        0  tcp.o(i.tcp_init)
    i.tcp_input                              0x0800a09c   Section        0  tcp_in.o(i.tcp_input)
    i.tcp_keepalive                          0x0800a46c   Section        0  tcp_out.o(i.tcp_keepalive)
    i.tcp_kill_prio                          0x0800a4c4   Section        0  tcp.o(i.tcp_kill_prio)
    tcp_kill_prio                            0x0800a4c5   Thumb Code    68  tcp.o(i.tcp_kill_prio)
    i.tcp_kill_state                         0x0800a50c   Section        0  tcp.o(i.tcp_kill_state)
    tcp_kill_state                           0x0800a50d   Thumb Code    58  tcp.o(i.tcp_kill_state)
    i.tcp_kill_timewait                      0x0800a54c   Section        0  tcp.o(i.tcp_kill_timewait)
    tcp_kill_timewait                        0x0800a54d   Thumb Code    46  tcp.o(i.tcp_kill_timewait)
    i.tcp_listen_closed                      0x0800a580   Section        0  tcp.o(i.tcp_listen_closed)
    tcp_listen_closed                        0x0800a581   Thumb Code    28  tcp.o(i.tcp_listen_closed)
    i.tcp_listen_input                       0x0800a5a0   Section        0  tcp_in.o(i.tcp_listen_input)
    tcp_listen_input                         0x0800a5a1   Thumb Code   234  tcp_in.o(i.tcp_listen_input)
    i.tcp_listen_with_backlog                0x0800a69c   Section        0  tcp.o(i.tcp_listen_with_backlog)
    i.tcp_netif_ip_addr_changed              0x0800a72c   Section        0  tcp.o(i.tcp_netif_ip_addr_changed)
    i.tcp_netif_ip_addr_changed_pcblist      0x0800a77c   Section        0  tcp.o(i.tcp_netif_ip_addr_changed_pcblist)
    tcp_netif_ip_addr_changed_pcblist        0x0800a77d   Thumb Code    36  tcp.o(i.tcp_netif_ip_addr_changed_pcblist)
    i.tcp_new                                0x0800a7a0   Section        0  tcp.o(i.tcp_new)
    i.tcp_new_port                           0x0800a7a8   Section        0  tcp.o(i.tcp_new_port)
    tcp_new_port                             0x0800a7a9   Thumb Code    88  tcp.o(i.tcp_new_port)
    i.tcp_next_iss                           0x0800a808   Section        0  tcp.o(i.tcp_next_iss)
    i.tcp_output                             0x0800a818   Section        0  tcp_out.o(i.tcp_output)
    i.tcp_output_alloc_header                0x0800aa18   Section        0  tcp_out.o(i.tcp_output_alloc_header)
    tcp_output_alloc_header                  0x0800aa19   Thumb Code   106  tcp_out.o(i.tcp_output_alloc_header)
    i.tcp_output_segment                     0x0800aa84   Section        0  tcp_out.o(i.tcp_output_segment)
    tcp_output_segment                       0x0800aa85   Thumb Code   176  tcp_out.o(i.tcp_output_segment)
    i.tcp_parseopt                           0x0800ab38   Section        0  tcp_in.o(i.tcp_parseopt)
    tcp_parseopt                             0x0800ab39   Thumb Code   114  tcp_in.o(i.tcp_parseopt)
    i.tcp_pbuf_prealloc                      0x0800abb0   Section        0  tcp_out.o(i.tcp_pbuf_prealloc)
    tcp_pbuf_prealloc                        0x0800abb1   Thumb Code    86  tcp_out.o(i.tcp_pbuf_prealloc)
    i.tcp_pcb_purge                          0x0800ac06   Section        0  tcp.o(i.tcp_pcb_purge)
    i.tcp_pcb_remove                         0x0800ac40   Section        0  tcp.o(i.tcp_pcb_remove)
    i.tcp_poll                               0x0800acac   Section        0  tcp.o(i.tcp_poll)
    i.tcp_process                            0x0800acb4   Section        0  tcp_in.o(i.tcp_process)
    tcp_process                              0x0800acb5   Thumb Code  1172  tcp_in.o(i.tcp_process)
    i.tcp_process_refused_data               0x0800b148   Section        0  tcp.o(i.tcp_process_refused_data)
    i.tcp_receive                            0x0800b1c4   Section        0  tcp_in.o(i.tcp_receive)
    tcp_receive                              0x0800b1c5   Thumb Code  1068  tcp_in.o(i.tcp_receive)
    i.tcp_recv                               0x0800b5f0   Section        0  tcp.o(i.tcp_recv)
    i.tcp_recv_null                          0x0800b5f8   Section        0  tcp.o(i.tcp_recv_null)
    i.tcp_recved                             0x0800b620   Section        0  tcp.o(i.tcp_recved)
    i.tcp_remove_listener                    0x0800b67c   Section        0  tcp.o(i.tcp_remove_listener)
    tcp_remove_listener                      0x0800b67d   Thumb Code    22  tcp.o(i.tcp_remove_listener)
    i.tcp_rexmit                             0x0800b692   Section        0  tcp_out.o(i.tcp_rexmit)
    i.tcp_rexmit_fast                        0x0800b6e4   Section        0  tcp_out.o(i.tcp_rexmit_fast)
    i.tcp_rexmit_rto                         0x0800b74c   Section        0  tcp_out.o(i.tcp_rexmit_rto)
    i.tcp_rst                                0x0800b794   Section        0  tcp_out.o(i.tcp_rst)
    i.tcp_seg_free                           0x0800b81c   Section        0  tcp.o(i.tcp_seg_free)
    i.tcp_segs_free                          0x0800b83a   Section        0  tcp.o(i.tcp_segs_free)
    i.tcp_send_empty_ack                     0x0800b84e   Section        0  tcp_out.o(i.tcp_send_empty_ack)
    i.tcp_send_fin                           0x0800b8c2   Section        0  tcp_out.o(i.tcp_send_fin)
    i.tcp_sent                               0x0800b90c   Section        0  tcp.o(i.tcp_sent)
    i.tcp_server_usersent                    0x0800b914   Section        0  tcp_echoserver.o(i.tcp_server_usersent)
    i.tcp_setprio                            0x0800ba70   Section        0  tcp.o(i.tcp_setprio)
    i.tcp_slowtmr                            0x0800ba74   Section        0  tcp.o(i.tcp_slowtmr)
    i.tcp_timer_needed                       0x0800bd1c   Section        0  timeouts.o(i.tcp_timer_needed)
    i.tcp_timewait_input                     0x0800bd50   Section        0  tcp_in.o(i.tcp_timewait_input)
    tcp_timewait_input                       0x0800bd51   Thumb Code   126  tcp_in.o(i.tcp_timewait_input)
    i.tcp_tmr                                0x0800bde8   Section        0  tcp.o(i.tcp_tmr)
    i.tcp_trigger_input_pcb_close            0x0800be0c   Section        0  tcp_in.o(i.tcp_trigger_input_pcb_close)
    i.tcp_update_rcv_ann_wnd                 0x0800be1c   Section        0  tcp.o(i.tcp_update_rcv_ann_wnd)
    i.tcp_write                              0x0800be5a   Section        0  tcp_out.o(i.tcp_write)
    i.tcp_write_checks                       0x0800c12e   Section        0  tcp_out.o(i.tcp_write_checks)
    tcp_write_checks                         0x0800c12f   Thumb Code    78  tcp_out.o(i.tcp_write_checks)
    i.tcp_zero_window_probe                  0x0800c17c   Section        0  tcp_out.o(i.tcp_zero_window_probe)
    i.tcpip_tcp_timer                        0x0800c248   Section        0  timeouts.o(i.tcpip_tcp_timer)
    tcpip_tcp_timer                          0x0800c249   Thumb Code    40  timeouts.o(i.tcpip_tcp_timer)
    i.udp_bind                               0x0800c280   Section        0  udp.o(i.udp_bind)
    i.udp_connect                            0x0800c30c   Section        0  udp.o(i.udp_connect)
    i.udp_init                               0x0800c364   Section        0  udp.o(i.udp_init)
    i.udp_input                              0x0800c368   Section        0  udp.o(i.udp_input)
    i.udp_input_local_match                  0x0800c4ac   Section        0  udp.o(i.udp_input_local_match)
    udp_input_local_match                    0x0800c4ad   Thumb Code    52  udp.o(i.udp_input_local_match)
    i.udp_netif_ip_addr_changed              0x0800c4e4   Section        0  udp.o(i.udp_netif_ip_addr_changed)
    i.udp_new                                0x0800c51c   Section        0  udp.o(i.udp_new)
    i.udp_new_port                           0x0800c540   Section        0  udp.o(i.udp_new_port)
    udp_new_port                             0x0800c541   Thumb Code    70  udp.o(i.udp_new_port)
    i.udp_recv                               0x0800c58c   Section        0  udp.o(i.udp_recv)
    i.udp_remove                             0x0800c594   Section        0  udp.o(i.udp_remove)
    i.udp_sendto_if                          0x0800c5c4   Section        0  udp.o(i.udp_sendto_if)
    i.udp_sendto_if_src                      0x0800c60c   Section        0  udp.o(i.udp_sendto_if_src)
    .constdata                               0x0800c6c6   Section       16  system_stm32f4xx.o(.constdata)
    .constdata                               0x0800c6d6   Section        8  system_stm32f4xx.o(.constdata)
    .constdata                               0x0800c6de   Section      512  bsp_mb_host.o(.constdata)
    auchCRCHi                                0x0800c6de   Data         256  bsp_mb_host.o(.constdata)
    auchCRCLo                                0x0800c7de   Data         256  bsp_mb_host.o(.constdata)
    .constdata                               0x0800c8de   Section      512  bsp_usartx_rs232.o(.constdata)
    auchCRCHi                                0x0800c8de   Data         256  bsp_usartx_rs232.o(.constdata)
    auchCRCLo                                0x0800c9de   Data         256  bsp_usartx_rs232.o(.constdata)
    .constdata                               0x0800cae0   Section        4  ip4_addr.o(.constdata)
    .constdata                               0x0800cae4   Section        4  ip4_addr.o(.constdata)
    .constdata                               0x0800cae8   Section        6  ethernet.o(.constdata)
    .constdata                               0x0800caee   Section        6  ethernet.o(.constdata)
    .constdata                               0x0800caf4   Section       12  memp.o(.constdata)
    .constdata                               0x0800cb00   Section       12  memp.o(.constdata)
    .constdata                               0x0800cb0c   Section       12  memp.o(.constdata)
    .constdata                               0x0800cb18   Section       12  memp.o(.constdata)
    .constdata                               0x0800cb24   Section       12  memp.o(.constdata)
    .constdata                               0x0800cb30   Section       12  memp.o(.constdata)
    .constdata                               0x0800cb3c   Section       12  memp.o(.constdata)
    .constdata                               0x0800cb48   Section       12  memp.o(.constdata)
    .constdata                               0x0800cb54   Section       12  memp.o(.constdata)
    .constdata                               0x0800cb60   Section       36  memp.o(.constdata)
    .constdata                               0x0800cb84   Section       84  tcp.o(.constdata)
    tcp_persist_backoff                      0x0800cb84   Data           7  tcp.o(.constdata)
    tcp_state_str                            0x0800cb8c   Data          44  tcp.o(.constdata)
    tcp_backoff                              0x0800cbb8   Data          13  tcp.o(.constdata)
    .constdata                               0x0800cbd8   Section       40  timeouts.o(.constdata)
    .conststring                             0x0800cc00   Section      118  tcp_echoserver.o(.conststring)
    .conststring                             0x0800cc78   Section      117  tcp.o(.conststring)
    .data                                    0x20000000   Section      130  main.o(.data)
    crc_check_rs232                          0x20000008   Data           2  main.o(.data)
    .data                                    0x20000082   Section        1  main.o(.data)
    .data                                    0x20000083   Section        1  main.o(.data)
    .data                                    0x20000084   Section        1  main.o(.data)
    .data                                    0x20000085   Section        1  main.o(.data)
    .data                                    0x20000088   Section       12  app_ethernet.o(.data)
    .data                                    0x20000094   Section       20  tcp_echoserver.o(.data)
    .data                                    0x200000a8   Section        4  stm32f4xx_hal.o(.data)
    .data                                    0x200000ac   Section        4  system_stm32f4xx.o(.data)
    .data                                    0x200000b0   Section        2  bsp_debug_usart.o(.data)
    .data                                    0x200000b2   Section        2  bsp_debug_usart.o(.data)
    .data                                    0x200000b4   Section        1  bsp_debug_usart.o(.data)
    .data                                    0x200000b5   Section        1  bsp_debug_usart.o(.data)
    .data                                    0x200000b6   Section        3  bsp_usartx_rs232.o(.data)
    .data                                    0x200000c0   Section       32  bsp_can.o(.data)
    .data                                    0x200000e0   Section       16  bsp_us100_usartx.o(.data)
    .data                                    0x200000f0   Section       18  bsp_us100_tim.o(.data)
    .data                                    0x20000104   Section       16  dhcp.o(.data)
    dhcp_pcb_refcount                        0x20000104   Data           1  dhcp.o(.data)
    dhcp_discover_request_options            0x20000105   Data           4  dhcp.o(.data)
    xid                                      0x2000010c   Data           4  dhcp.o(.data)
    dhcp_pcb                                 0x20000110   Data           4  dhcp.o(.data)
    .data                                    0x20000114   Section        1  etharp.o(.data)
    etharp_cached_entry                      0x20000114   Data           1  etharp.o(.data)
    .data                                    0x20000116   Section        2  ip4.o(.data)
    ip_id                                    0x20000116   Data           2  ip4.o(.data)
    .data                                    0x20000118   Section        8  ip4_frag.o(.data)
    ip_reass_pbufcount                       0x20000118   Data           2  ip4_frag.o(.data)
    reassdatagrams                           0x2000011c   Data           4  ip4_frag.o(.data)
    .data                                    0x20000120   Section       12  mem.o(.data)
    ram                                      0x20000120   Data           4  mem.o(.data)
    ram_end                                  0x20000124   Data           4  mem.o(.data)
    lfree                                    0x20000128   Data           4  mem.o(.data)
    .data                                    0x2000012c   Section        4  memp.o(.data)
    memp_tab_UDP_PCB                         0x2000012c   Data           4  memp.o(.data)
    .data                                    0x20000130   Section        4  memp.o(.data)
    memp_tab_TCP_PCB                         0x20000130   Data           4  memp.o(.data)
    .data                                    0x20000134   Section        4  memp.o(.data)
    memp_tab_TCP_PCB_LISTEN                  0x20000134   Data           4  memp.o(.data)
    .data                                    0x20000138   Section        4  memp.o(.data)
    memp_tab_TCP_SEG                         0x20000138   Data           4  memp.o(.data)
    .data                                    0x2000013c   Section        4  memp.o(.data)
    memp_tab_REASSDATA                       0x2000013c   Data           4  memp.o(.data)
    .data                                    0x20000140   Section        4  memp.o(.data)
    memp_tab_FRAG_PBUF                       0x20000140   Data           4  memp.o(.data)
    .data                                    0x20000144   Section        4  memp.o(.data)
    memp_tab_SYS_TIMEOUT                     0x20000144   Data           4  memp.o(.data)
    .data                                    0x20000148   Section        4  memp.o(.data)
    memp_tab_PBUF                            0x20000148   Data           4  memp.o(.data)
    .data                                    0x2000014c   Section        4  memp.o(.data)
    memp_tab_PBUF_POOL                       0x2000014c   Data           4  memp.o(.data)
    .data                                    0x20000150   Section       12  netif.o(.data)
    netif_num                                0x20000150   Data           1  netif.o(.data)
    .data                                    0x2000015c   Section       32  tcp.o(.data)
    tcp_timer                                0x2000015d   Data           1  tcp.o(.data)
    tcp_timer_ctr                            0x2000015e   Data           1  tcp.o(.data)
    tcp_port                                 0x20000160   Data           2  tcp.o(.data)
    iss                                      0x20000164   Data           4  tcp.o(.data)
    .data                                    0x2000017c   Section       36  tcp_in.o(.data)
    flags                                    0x2000017c   Data           1  tcp_in.o(.data)
    recv_flags                               0x2000017d   Data           1  tcp_in.o(.data)
    tcphdr_optlen                            0x2000017e   Data           2  tcp_in.o(.data)
    tcphdr_opt1len                           0x20000180   Data           2  tcp_in.o(.data)
    tcp_optidx                               0x20000182   Data           2  tcp_in.o(.data)
    recv_acked                               0x20000184   Data           2  tcp_in.o(.data)
    tcplen                                   0x20000186   Data           2  tcp_in.o(.data)
    tcphdr                                   0x20000188   Data           4  tcp_in.o(.data)
    tcphdr_opt2                              0x2000018c   Data           4  tcp_in.o(.data)
    seqno                                    0x20000190   Data           4  tcp_in.o(.data)
    ackno                                    0x20000194   Data           4  tcp_in.o(.data)
    recv_data                                0x20000198   Data           4  tcp_in.o(.data)
    .data                                    0x200001a0   Section       12  tcp_out.o(.data)
    .data                                    0x200001ac   Section       12  timeouts.o(.data)
    next_timeout                             0x200001ac   Data           4  timeouts.o(.data)
    timeouts_last_time                       0x200001b0   Data           4  timeouts.o(.data)
    tcpip_tcp_timer_active                   0x200001b4   Data           4  timeouts.o(.data)
    .data                                    0x200001b8   Section        8  udp.o(.data)
    udp_port                                 0x200001b8   Data           2  udp.o(.data)
    .data                                    0x200001c0   Section        4  rand.o(.data)
    _rand_state                              0x200001c0   Data           4  rand.o(.data)
    .data                                    0x200001c4   Section        4  stdout.o(.data)
    .bss                                     0x200001c8   Section      256  main.o(.bss)
    .bss                                     0x200002c8   Section       18  app_ethernet.o(.bss)
    .bss                                     0x200002dc   Section    12520  ethernetif.o(.bss)
    .bss                                     0x200033c4   Section      200  tcp_echoserver.o(.bss)
    .bss                                     0x2000348c   Section      128  bsp_debug_usart.o(.bss)
    .bss                                     0x2000350c   Section      256  bsp_debug_usart.o(.bss)
    .bss                                     0x2000360c   Section      256  bsp_debug_usart.o(.bss)
    .bss                                     0x2000370c   Section      256  bsp_debug_usart.o(.bss)
    .bss                                     0x2000380c   Section      256  bsp_debug_usart.o(.bss)
    .bss                                     0x2000390c   Section      256  bsp_debug_usart.o(.bss)
    .bss                                     0x20003a0c   Section      256  bsp_debug_usart.o(.bss)
    .bss                                     0x20003b0c   Section      256  bsp_debug_usart.o(.bss)
    .bss                                     0x20003c0c   Section      256  bsp_debug_usart.o(.bss)
    .bss                                     0x20003d0c   Section      120  bsp_generaltim.o(.bss)
    .bss                                     0x20003d84   Section       64  bsp_usartx_rs485.o(.bss)
    .bss                                     0x20003dc4   Section       60  bsp_basictim.o(.bss)
    .bss                                     0x20003e00   Section      132  bsp_can.o(.bss)
    TxMessage                                0x20003e44   Data          28  bsp_can.o(.bss)
    RxMessage                                0x20003e60   Data          36  bsp_can.o(.bss)
    .bss                                     0x20003e84   Section     1088  bsp_usartx_pn532.o(.bss)
    .bss                                     0x200042c4   Section       64  bsp_us100_usartx.o(.bss)
    .bss                                     0x20004304   Section       60  bsp_us100_tim.o(.bss)
    .bss                                     0x20004340   Section       50  dhcp.o(.bss)
    .bss                                     0x20004374   Section      240  etharp.o(.bss)
    arp_table                                0x20004374   Data         240  etharp.o(.bss)
    .bss                                     0x20004464   Section       16  ip4_addr.o(.bss)
    str                                      0x20004464   Data          16  ip4_addr.o(.bss)
    .bss                                     0x20004474   Section       24  ip.o(.bss)
    .bss                                     0x2000448c   Section    10259  mem.o(.bss)
    .bss                                     0x20006c9f   Section      195  memp.o(.bss)
    .bss                                     0x20006d62   Section     1483  memp.o(.bss)
    .bss                                     0x2000732d   Section      143  memp.o(.bss)
    .bss                                     0x200073bc   Section      131  memp.o(.bss)
    .bss                                     0x2000743f   Section      163  memp.o(.bss)
    .bss                                     0x200074e2   Section      363  memp.o(.bss)
    .bss                                     0x2000764d   Section      163  memp.o(.bss)
    .bss                                     0x200076f0   Section      163  memp.o(.bss)
    .bss                                     0x20007793   Section     4227  memp.o(.bss)
    .bss                                     0x20008818   Section       16  tcp_in.o(.bss)
    inseg                                    0x20008818   Data          16  tcp_in.o(.bss)
    STACK                                    0x20008828   Section     4096  startup_stm32f407xx.o(STACK)

    Global Symbols

    Symbol Name                              Value     Ov Type        Size  Object(Section)

    BuildAttributes$$THM_ISAv4$E$P$D$K$B$S$7EM$VFPi3$EXTD16$VFPS$VFMA$PE$A:L22UL41UL21$X:L11$S22US41US21$IEEE1$IW$USESV6$~STKCKD$USESV7$~SHL$OTIME$ROPI$EBA8$MICROLIB$REQ8$PRES8$EABIv2 0x00000000   Number         0  anon$$obj.o ABSOLUTE
    __ARM_use_no_argv                        0x00000000   Number         0  main.o ABSOLUTE
    _printf_a                                0x00000000   Number         0  stubs.o ABSOLUTE
    _printf_c                                0x00000000   Number         0  stubs.o ABSOLUTE
    _printf_charcount                        0x00000000   Number         0  stubs.o ABSOLUTE
    _printf_d                                0x00000000   Number         0  stubs.o ABSOLUTE
    _printf_e                                0x00000000   Number         0  stubs.o ABSOLUTE
    _printf_f                                0x00000000   Number         0  stubs.o ABSOLUTE
    _printf_flags                            0x00000000   Number         0  stubs.o ABSOLUTE
    _printf_fp_dec                           0x00000000   Number         0  stubs.o ABSOLUTE
    _printf_fp_hex                           0x00000000   Number         0  stubs.o ABSOLUTE
    _printf_g                                0x00000000   Number         0  stubs.o ABSOLUTE
    _printf_i                                0x00000000   Number         0  stubs.o ABSOLUTE
    _printf_int_dec                          0x00000000   Number         0  stubs.o ABSOLUTE
    _printf_l                                0x00000000   Number         0  stubs.o ABSOLUTE
    _printf_lc                               0x00000000   Number         0  stubs.o ABSOLUTE
    _printf_ll                               0x00000000   Number         0  stubs.o ABSOLUTE
    _printf_lld                              0x00000000   Number         0  stubs.o ABSOLUTE
    _printf_lli                              0x00000000   Number         0  stubs.o ABSOLUTE
    _printf_llo                              0x00000000   Number         0  stubs.o ABSOLUTE
    _printf_llu                              0x00000000   Number         0  stubs.o ABSOLUTE
    _printf_llx                              0x00000000   Number         0  stubs.o ABSOLUTE
    _printf_longlong_dec                     0x00000000   Number         0  stubs.o ABSOLUTE
    _printf_longlong_hex                     0x00000000   Number         0  stubs.o ABSOLUTE
    _printf_longlong_oct                     0x00000000   Number         0  stubs.o ABSOLUTE
    _printf_ls                               0x00000000   Number         0  stubs.o ABSOLUTE
    _printf_mbtowc                           0x00000000   Number         0  stubs.o ABSOLUTE
    _printf_n                                0x00000000   Number         0  stubs.o ABSOLUTE
    _printf_o                                0x00000000   Number         0  stubs.o ABSOLUTE
    _printf_p                                0x00000000   Number         0  stubs.o ABSOLUTE
    _printf_percent                          0x00000000   Number         0  stubs.o ABSOLUTE
    _printf_pre_padding                      0x00000000   Number         0  stubs.o ABSOLUTE
    _printf_return_value                     0x00000000   Number         0  stubs.o ABSOLUTE
    _printf_s                                0x00000000   Number         0  stubs.o ABSOLUTE
    _printf_sizespec                         0x00000000   Number         0  stubs.o ABSOLUTE
    _printf_str                              0x00000000   Number         0  stubs.o ABSOLUTE
    _printf_truncate_signed                  0x00000000   Number         0  stubs.o ABSOLUTE
    _printf_truncate_unsigned                0x00000000   Number         0  stubs.o ABSOLUTE
    _printf_u                                0x00000000   Number         0  stubs.o ABSOLUTE
    _printf_wc                               0x00000000   Number         0  stubs.o ABSOLUTE
    _printf_wctomb                           0x00000000   Number         0  stubs.o ABSOLUTE
    _printf_widthprec                        0x00000000   Number         0  stubs.o ABSOLUTE
    _printf_x                                0x00000000   Number         0  stubs.o ABSOLUTE
    __cpp_initialize__aeabi_                  - Undefined Weak Reference
    __cxa_finalize                            - Undefined Weak Reference
    _clock_init                               - Undefined Weak Reference
    _microlib_exit                            - Undefined Weak Reference
    __Vectors_Size                           0x00000188   Number         0  startup_stm32f407xx.o ABSOLUTE
    __Vectors                                0x08000000   Data           4  startup_stm32f407xx.o(RESET)
    __Vectors_End                            0x08000188   Data           0  startup_stm32f407xx.o(RESET)
    __main                                   0x08000189   Thumb Code     0  entry.o(.ARM.Collect$$$$00000000)
    _main_stk                                0x08000189   Thumb Code     0  entry2.o(.ARM.Collect$$$$00000001)
    _main_scatterload                        0x0800018d   Thumb Code     0  entry5.o(.ARM.Collect$$$$00000004)
    __main_after_scatterload                 0x08000191   Thumb Code     0  entry5.o(.ARM.Collect$$$$00000004)
    _main_clock                              0x08000191   Thumb Code     0  entry7b.o(.ARM.Collect$$$$00000008)
    _main_cpp_init                           0x08000191   Thumb Code     0  entry8b.o(.ARM.Collect$$$$0000000A)
    _main_init                               0x08000191   Thumb Code     0  entry9a.o(.ARM.Collect$$$$0000000B)
    __rt_final_cpp                           0x08000199   Thumb Code     0  entry10a.o(.ARM.Collect$$$$0000000D)
    __rt_final_exit                          0x08000199   Thumb Code     0  entry11a.o(.ARM.Collect$$$$0000000F)
    Reset_Handler                            0x0800019d   Thumb Code     8  startup_stm32f407xx.o(.text)
    ADC_IRQHandler                           0x080001b7   Thumb Code     0  startup_stm32f407xx.o(.text)
    CAN1_RX1_IRQHandler                      0x080001b7   Thumb Code     0  startup_stm32f407xx.o(.text)
    CAN1_SCE_IRQHandler                      0x080001b7   Thumb Code     0  startup_stm32f407xx.o(.text)
    CAN1_TX_IRQHandler                       0x080001b7   Thumb Code     0  startup_stm32f407xx.o(.text)
    CAN2_RX0_IRQHandler                      0x080001b7   Thumb Code     0  startup_stm32f407xx.o(.text)
    CAN2_RX1_IRQHandler                      0x080001b7   Thumb Code     0  startup_stm32f407xx.o(.text)
    CAN2_SCE_IRQHandler                      0x080001b7   Thumb Code     0  startup_stm32f407xx.o(.text)
    CAN2_TX_IRQHandler                       0x080001b7   Thumb Code     0  startup_stm32f407xx.o(.text)
    DCMI_IRQHandler                          0x080001b7   Thumb Code     0  startup_stm32f407xx.o(.text)
    DMA1_Stream0_IRQHandler                  0x080001b7   Thumb Code     0  startup_stm32f407xx.o(.text)
    DMA1_Stream1_IRQHandler                  0x080001b7   Thumb Code     0  startup_stm32f407xx.o(.text)
    DMA1_Stream2_IRQHandler                  0x080001b7   Thumb Code     0  startup_stm32f407xx.o(.text)
    DMA1_Stream3_IRQHandler                  0x080001b7   Thumb Code     0  startup_stm32f407xx.o(.text)
    DMA1_Stream4_IRQHandler                  0x080001b7   Thumb Code     0  startup_stm32f407xx.o(.text)
    DMA1_Stream5_IRQHandler                  0x080001b7   Thumb Code     0  startup_stm32f407xx.o(.text)
    DMA1_Stream6_IRQHandler                  0x080001b7   Thumb Code     0  startup_stm32f407xx.o(.text)
    DMA1_Stream7_IRQHandler                  0x080001b7   Thumb Code     0  startup_stm32f407xx.o(.text)
    DMA2_Stream0_IRQHandler                  0x080001b7   Thumb Code     0  startup_stm32f407xx.o(.text)
    DMA2_Stream1_IRQHandler                  0x080001b7   Thumb Code     0  startup_stm32f407xx.o(.text)
    DMA2_Stream2_IRQHandler                  0x080001b7   Thumb Code     0  startup_stm32f407xx.o(.text)
    DMA2_Stream3_IRQHandler                  0x080001b7   Thumb Code     0  startup_stm32f407xx.o(.text)
    DMA2_Stream4_IRQHandler                  0x080001b7   Thumb Code     0  startup_stm32f407xx.o(.text)
    DMA2_Stream5_IRQHandler                  0x080001b7   Thumb Code     0  startup_stm32f407xx.o(.text)
    DMA2_Stream6_IRQHandler                  0x080001b7   Thumb Code     0  startup_stm32f407xx.o(.text)
    DMA2_Stream7_IRQHandler                  0x080001b7   Thumb Code     0  startup_stm32f407xx.o(.text)
    ETH_WKUP_IRQHandler                      0x080001b7   Thumb Code     0  startup_stm32f407xx.o(.text)
    EXTI0_IRQHandler                         0x080001b7   Thumb Code     0  startup_stm32f407xx.o(.text)
    EXTI15_10_IRQHandler                     0x080001b7   Thumb Code     0  startup_stm32f407xx.o(.text)
    EXTI1_IRQHandler                         0x080001b7   Thumb Code     0  startup_stm32f407xx.o(.text)
    EXTI2_IRQHandler                         0x080001b7   Thumb Code     0  startup_stm32f407xx.o(.text)
    EXTI3_IRQHandler                         0x080001b7   Thumb Code     0  startup_stm32f407xx.o(.text)
    EXTI4_IRQHandler                         0x080001b7   Thumb Code     0  startup_stm32f407xx.o(.text)
    EXTI9_5_IRQHandler                       0x080001b7   Thumb Code     0  startup_stm32f407xx.o(.text)
    FLASH_IRQHandler                         0x080001b7   Thumb Code     0  startup_stm32f407xx.o(.text)
    FMC_IRQHandler                           0x080001b7   Thumb Code     0  startup_stm32f407xx.o(.text)
    FPU_IRQHandler                           0x080001b7   Thumb Code     0  startup_stm32f407xx.o(.text)
    HASH_RNG_IRQHandler                      0x080001b7   Thumb Code     0  startup_stm32f407xx.o(.text)
    I2C1_ER_IRQHandler                       0x080001b7   Thumb Code     0  startup_stm32f407xx.o(.text)
    I2C1_EV_IRQHandler                       0x080001b7   Thumb Code     0  startup_stm32f407xx.o(.text)
    I2C2_ER_IRQHandler                       0x080001b7   Thumb Code     0  startup_stm32f407xx.o(.text)
    I2C2_EV_IRQHandler                       0x080001b7   Thumb Code     0  startup_stm32f407xx.o(.text)
    I2C3_ER_IRQHandler                       0x080001b7   Thumb Code     0  startup_stm32f407xx.o(.text)
    I2C3_EV_IRQHandler                       0x080001b7   Thumb Code     0  startup_stm32f407xx.o(.text)
    OTG_FS_IRQHandler                        0x080001b7   Thumb Code     0  startup_stm32f407xx.o(.text)
    OTG_FS_WKUP_IRQHandler                   0x080001b7   Thumb Code     0  startup_stm32f407xx.o(.text)
    OTG_HS_EP1_IN_IRQHandler                 0x080001b7   Thumb Code     0  startup_stm32f407xx.o(.text)
    OTG_HS_EP1_OUT_IRQHandler                0x080001b7   Thumb Code     0  startup_stm32f407xx.o(.text)
    OTG_HS_IRQHandler                        0x080001b7   Thumb Code     0  startup_stm32f407xx.o(.text)
    OTG_HS_WKUP_IRQHandler                   0x080001b7   Thumb Code     0  startup_stm32f407xx.o(.text)
    PVD_IRQHandler                           0x080001b7   Thumb Code     0  startup_stm32f407xx.o(.text)
    RTC_Alarm_IRQHandler                     0x080001b7   Thumb Code     0  startup_stm32f407xx.o(.text)
    RTC_WKUP_IRQHandler                      0x080001b7   Thumb Code     0  startup_stm32f407xx.o(.text)
    SDIO_IRQHandler                          0x080001b7   Thumb Code     0  startup_stm32f407xx.o(.text)
    SPI1_IRQHandler                          0x080001b7   Thumb Code     0  startup_stm32f407xx.o(.text)
    SPI2_IRQHandler                          0x080001b7   Thumb Code     0  startup_stm32f407xx.o(.text)
    SPI3_IRQHandler                          0x080001b7   Thumb Code     0  startup_stm32f407xx.o(.text)
    TAMP_STAMP_IRQHandler                    0x080001b7   Thumb Code     0  startup_stm32f407xx.o(.text)
    TIM1_BRK_TIM9_IRQHandler                 0x080001b7   Thumb Code     0  startup_stm32f407xx.o(.text)
    TIM1_CC_IRQHandler                       0x080001b7   Thumb Code     0  startup_stm32f407xx.o(.text)
    TIM1_TRG_COM_TIM11_IRQHandler            0x080001b7   Thumb Code     0  startup_stm32f407xx.o(.text)
    TIM1_UP_TIM10_IRQHandler                 0x080001b7   Thumb Code     0  startup_stm32f407xx.o(.text)
    TIM2_IRQHandler                          0x080001b7   Thumb Code     0  startup_stm32f407xx.o(.text)
    TIM7_IRQHandler                          0x080001b7   Thumb Code     0  startup_stm32f407xx.o(.text)
    TIM8_BRK_TIM12_IRQHandler                0x080001b7   Thumb Code     0  startup_stm32f407xx.o(.text)
    TIM8_CC_IRQHandler                       0x080001b7   Thumb Code     0  startup_stm32f407xx.o(.text)
    TIM8_TRG_COM_TIM14_IRQHandler            0x080001b7   Thumb Code     0  startup_stm32f407xx.o(.text)
    TIM8_UP_TIM13_IRQHandler                 0x080001b7   Thumb Code     0  startup_stm32f407xx.o(.text)
    USART1_IRQHandler                        0x080001b7   Thumb Code     0  startup_stm32f407xx.o(.text)
    USART6_IRQHandler                        0x080001b7   Thumb Code     0  startup_stm32f407xx.o(.text)
    WWDG_IRQHandler                          0x080001b7   Thumb Code     0  startup_stm32f407xx.o(.text)
    rand                                     0x080001c1   Thumb Code    20  rand.o(.text)
    srand                                    0x080001d5   Thumb Code     6  rand.o(.text)
    __aeabi_memcpy                           0x080001e5   Thumb Code    36  memcpya.o(.text)
    __aeabi_memcpy4                          0x080001e5   Thumb Code     0  memcpya.o(.text)
    __aeabi_memcpy8                          0x080001e5   Thumb Code     0  memcpya.o(.text)
    __aeabi_memset                           0x08000209   Thumb Code    14  memseta.o(.text)
    __aeabi_memset4                          0x08000209   Thumb Code     0  memseta.o(.text)
    __aeabi_memset8                          0x08000209   Thumb Code     0  memseta.o(.text)
    __aeabi_memclr                           0x08000217   Thumb Code     4  memseta.o(.text)
    __aeabi_memclr4                          0x08000217   Thumb Code     0  memseta.o(.text)
    __aeabi_memclr8                          0x08000217   Thumb Code     0  memseta.o(.text)
    _memset$wrapper                          0x0800021b   Thumb Code    18  memseta.o(.text)
    strlen                                   0x0800022d   Thumb Code    14  strlen.o(.text)
    memcmp                                   0x0800023b   Thumb Code    26  memcmp.o(.text)
    __aeabi_dadd                             0x08000255   Thumb Code   322  dadd.o(.text)
    __aeabi_dsub                             0x08000397   Thumb Code     6  dadd.o(.text)
    __aeabi_drsub                            0x0800039d   Thumb Code     6  dadd.o(.text)
    __aeabi_ddiv                             0x080003a3   Thumb Code   222  ddiv.o(.text)
    __aeabi_l2d                              0x08000481   Thumb Code    40  dfltl.o(.text)
    __aeabi_f2d                              0x080004a9   Thumb Code    38  f2d.o(.text)
    __aeabi_d2f                              0x080004cf   Thumb Code    56  d2f.o(.text)
    __aeabi_uidiv                            0x08000507   Thumb Code     0  uidiv.o(.text)
    __aeabi_uidivmod                         0x08000507   Thumb Code    44  uidiv.o(.text)
    __aeabi_uldivmod                         0x08000533   Thumb Code    98  uldiv.o(.text)
    __aeabi_llsl                             0x08000595   Thumb Code    30  llshl.o(.text)
    _ll_shift_l                              0x08000595   Thumb Code     0  llshl.o(.text)
    __aeabi_lasr                             0x080005b3   Thumb Code    36  llsshr.o(.text)
    _ll_sshift_r                             0x080005b3   Thumb Code     0  llsshr.o(.text)
    __I$use$fp                               0x080005d7   Thumb Code     0  iusefp.o(.text)
    _float_round                             0x080005d7   Thumb Code    18  fepilogue.o(.text)
    _float_epilogue                          0x080005e9   Thumb Code    92  fepilogue.o(.text)
    _double_round                            0x08000645   Thumb Code    30  depilogue.o(.text)
    _double_epilogue                         0x08000663   Thumb Code   156  depilogue.o(.text)
    __aeabi_dmul                             0x080006ff   Thumb Code   228  dmul.o(.text)
    __aeabi_d2ulz                            0x080007e3   Thumb Code    48  dfixul.o(.text)
    __aeabi_cdrcmple                         0x08000815   Thumb Code    48  cdrcmple.o(.text)
    __scatterload                            0x08000845   Thumb Code    28  init.o(.text)
    __scatterload_rt2                        0x08000845   Thumb Code     0  init.o(.text)
    __aeabi_llsr                             0x08000869   Thumb Code    32  llushr.o(.text)
    _ll_ushift_r                             0x08000869   Thumb Code     0  llushr.o(.text)
    __decompress                             0x08000889   Thumb Code     0  __dczerorl.o(.text)
    __decompress0                            0x08000889   Thumb Code    58  __dczerorl.o(.text)
    BASIC_TIMx_Init                          0x080008c5   Thumb Code    44  bsp_basictim.o(i.BASIC_TIMx_Init)
    BusFault_Handler                         0x080008f9   Thumb Code     2  stm32f4xx_it.o(i.BusFault_Handler)
    CAN1_RX0_IRQHandler                      0x080008fd   Thumb Code     6  stm32f4xx_it.o(i.CAN1_RX0_IRQHandler)
    DHCP_Periodic_Handle                     0x08000b05   Thumb Code    38  app_ethernet.o(i.DHCP_Periodic_Handle)
    DHCP_Process                             0x08000b31   Thumb Code   314  app_ethernet.o(i.DHCP_Process)
    DebugMon_Handler                         0x08000d71   Thumb Code     2  stm32f4xx_it.o(i.DebugMon_Handler)
    ETH_IRQHandler                           0x08000de9   Thumb Code    26  app_ethernet.o(i.ETH_IRQHandler)
    ETH_PHY_ReadReg                          0x0800100d   Thumb Code    24  app_ethernet.o(i.ETH_PHY_ReadReg)
    ETH_link_check_state                     0x08001029   Thumb Code   138  app_ethernet.o(i.ETH_link_check_state)
    Ethernet_Link_Periodic_Handle            0x080010b5   Thumb Code    36  app_ethernet.o(i.Ethernet_Link_Periodic_Handle)
    GENERAL_TIM3_Init                        0x080010dd   Thumb Code    80  bsp_us100_tim.o(i.GENERAL_TIM3_Init)
    GENERAL_TIM4_Init                        0x08001135   Thumb Code   122  bsp_generaltim.o(i.GENERAL_TIM4_Init)
    GENERAL_TIMx_Init                        0x080011bd   Thumb Code    88  bsp_generaltim.o(i.GENERAL_TIMx_Init)
    GetPinStateOfKey1                        0x0800121d   Thumb Code    20  bsp_key.o(i.GetPinStateOfKey1)
    GetPinStateOfKey2                        0x08001235   Thumb Code    20  bsp_key.o(i.GetPinStateOfKey2)
    GetPinStateOfKey3                        0x0800124d   Thumb Code    20  bsp_key.o(i.GetPinStateOfKey3)
    GetPinStateOfKey4                        0x08001265   Thumb Code    20  bsp_key.o(i.GetPinStateOfKey4)
    GetPinStateOfKey5                        0x0800127d   Thumb Code    20  bsp_key.o(i.GetPinStateOfKey5)
    HAL_CAN_ConfigFilter                     0x08001295   Thumb Code   268  stm32f4xx_hal_can.o(i.HAL_CAN_ConfigFilter)
    HAL_CAN_ErrorCallback                    0x080013a5   Thumb Code     2  stm32f4xx_hal_can.o(i.HAL_CAN_ErrorCallback)
    HAL_CAN_IRQHandler                       0x080013a9   Thumb Code   500  stm32f4xx_hal_can.o(i.HAL_CAN_IRQHandler)
    HAL_CAN_Init                             0x080015ad   Thumb Code   420  stm32f4xx_hal_can.o(i.HAL_CAN_Init)
    HAL_CAN_MspInit                          0x08001751   Thumb Code   128  bsp_can.o(i.HAL_CAN_MspInit)
    HAL_CAN_Receive_IT                       0x080017e1   Thumb Code   258  stm32f4xx_hal_can.o(i.HAL_CAN_Receive_IT)
    HAL_CAN_RxCpltCallback                   0x080018e9   Thumb Code   172  bsp_can.o(i.HAL_CAN_RxCpltCallback)
    HAL_CAN_TxCpltCallback                   0x080019ad   Thumb Code     2  stm32f4xx_hal_can.o(i.HAL_CAN_TxCpltCallback)
    HAL_DMA_Abort_IT                         0x080019af   Thumb Code    36  stm32f4xx_hal_dma.o(i.HAL_DMA_Abort_IT)
    HAL_Delay                                0x080019d3   Thumb Code    30  stm32f4xx_hal.o(i.HAL_Delay)
    HAL_ETH_ConfigMAC                        0x080019f1   Thumb Code   308  stm32f4xx_hal_eth.o(i.HAL_ETH_ConfigMAC)
    HAL_ETH_DMARxDescListInit                0x08001b29   Thumb Code   128  stm32f4xx_hal_eth.o(i.HAL_ETH_DMARxDescListInit)
    HAL_ETH_DMATxDescListInit                0x08001ba9   Thumb Code   142  stm32f4xx_hal_eth.o(i.HAL_ETH_DMATxDescListInit)
    HAL_ETH_GetReceivedFrame_IT              0x08001c37   Thumb Code   160  stm32f4xx_hal_eth.o(i.HAL_ETH_GetReceivedFrame_IT)
    HAL_ETH_Init                             0x08001cd9   Thumb Code   582  stm32f4xx_hal_eth.o(i.HAL_ETH_Init)
    HAL_ETH_MspInit                          0x08001f49   Thumb Code   242  ethernetif.o(i.HAL_ETH_MspInit)
    HAL_ETH_ReadPHYRegister                  0x08002051   Thumb Code   140  stm32f4xx_hal_eth.o(i.HAL_ETH_ReadPHYRegister)
    HAL_ETH_Start                            0x080020dd   Thumb Code    70  stm32f4xx_hal_eth.o(i.HAL_ETH_Start)
    HAL_ETH_TransmitFrame                    0x08002123   Thumb Code   310  stm32f4xx_hal_eth.o(i.HAL_ETH_TransmitFrame)
    HAL_ETH_WritePHYRegister                 0x08002259   Thumb Code   132  stm32f4xx_hal_eth.o(i.HAL_ETH_WritePHYRegister)
    HAL_GPIO_Init                            0x080022dd   Thumb Code   518  stm32f4xx_hal_gpio.o(i.HAL_GPIO_Init)
    HAL_GPIO_ReadPin                         0x080024f9   Thumb Code    14  stm32f4xx_hal_gpio.o(i.HAL_GPIO_ReadPin)
    HAL_GPIO_TogglePin                       0x08002507   Thumb Code     8  stm32f4xx_hal_gpio.o(i.HAL_GPIO_TogglePin)
    HAL_GPIO_WritePin                        0x0800250f   Thumb Code    14  stm32f4xx_hal_gpio.o(i.HAL_GPIO_WritePin)
    HAL_GetTick                              0x0800251d   Thumb Code     6  stm32f4xx_hal.o(i.HAL_GetTick)
    HAL_IncTick                              0x08002529   Thumb Code    10  stm32f4xx_hal.o(i.HAL_IncTick)
    HAL_Init                                 0x08002539   Thumb Code    48  stm32f4xx_hal.o(i.HAL_Init)
    HAL_InitTick                             0x0800256d   Thumb Code    34  stm32f4xx_hal.o(i.HAL_InitTick)
    HAL_MspInit                              0x08002595   Thumb Code   104  stm32f4xx_hal_msp.o(i.HAL_MspInit)
    HAL_NVIC_EnableIRQ                       0x080025fd   Thumb Code    24  stm32f4xx_hal_cortex.o(i.HAL_NVIC_EnableIRQ)
    HAL_NVIC_SetPriority                     0x08002615   Thumb Code    98  stm32f4xx_hal_cortex.o(i.HAL_NVIC_SetPriority)
    HAL_NVIC_SetPriorityGrouping             0x0800267d   Thumb Code    30  stm32f4xx_hal_cortex.o(i.HAL_NVIC_SetPriorityGrouping)
    HAL_RCC_ClockConfig                      0x080026a1   Thumb Code   474  stm32f4xx_hal_rcc.o(i.HAL_RCC_ClockConfig)
    HAL_RCC_EnableCSS                        0x08002891   Thumb Code     8  stm32f4xx_hal_rcc.o(i.HAL_RCC_EnableCSS)
    HAL_RCC_GetHCLKFreq                      0x0800289d   Thumb Code     6  stm32f4xx_hal_rcc.o(i.HAL_RCC_GetHCLKFreq)
    HAL_RCC_GetPCLK1Freq                     0x080028a9   Thumb Code    36  stm32f4xx_hal_rcc.o(i.HAL_RCC_GetPCLK1Freq)
    HAL_RCC_GetPCLK2Freq                     0x080028d5   Thumb Code    36  stm32f4xx_hal_rcc.o(i.HAL_RCC_GetPCLK2Freq)
    HAL_RCC_GetSysClockFreq                  0x08002901   Thumb Code   126  stm32f4xx_hal_rcc.o(i.HAL_RCC_GetSysClockFreq)
    HAL_RCC_OscConfig                        0x0800298d   Thumb Code  1058  stm32f4xx_hal_rcc.o(i.HAL_RCC_OscConfig)
    HAL_SYSTICK_CLKSourceConfig              0x08002dcd   Thumb Code    28  stm32f4xx_hal_cortex.o(i.HAL_SYSTICK_CLKSourceConfig)
    HAL_SYSTICK_Callback                     0x08002de9   Thumb Code     2  stm32f4xx_hal_cortex.o(i.HAL_SYSTICK_Callback)
    HAL_SYSTICK_Config                       0x08002ded   Thumb Code    36  stm32f4xx_hal_cortex.o(i.HAL_SYSTICK_Config)
    HAL_SYSTICK_IRQHandler                   0x08002e15   Thumb Code     8  stm32f4xx_hal_cortex.o(i.HAL_SYSTICK_IRQHandler)
    HAL_TIM3_Base_MspDeInit                  0x08002e1d   Thumb Code    84  bsp_us100_tim.o(i.HAL_TIM3_Base_MspDeInit)
    HAL_TIM3_IC_CaptureCallback              0x08002e7d   Thumb Code   128  bsp_us100_tim.o(i.HAL_TIM3_IC_CaptureCallback)
    HAL_TIM3_PeriodElapsedCallback           0x08002f05   Thumb Code    10  bsp_us100_tim.o(i.HAL_TIM3_PeriodElapsedCallback)
    HAL_TIMEx_BreakCallback                  0x08002f15   Thumb Code     2  stm32f4xx_hal_tim_ex.o(i.HAL_TIMEx_BreakCallback)
    HAL_TIMEx_CommutationCallback            0x08002f17   Thumb Code     2  stm32f4xx_hal_tim_ex.o(i.HAL_TIMEx_CommutationCallback)
    HAL_TIMEx_MasterConfigSynchronization    0x08002f19   Thumb Code   102  stm32f4xx_hal_tim_ex.o(i.HAL_TIMEx_MasterConfigSynchronization)
    HAL_TIM_Base_Init                        0x08002f7f   Thumb Code    56  stm32f4xx_hal_tim.o(i.HAL_TIM_Base_Init)
    HAL_TIM_Base_MspInit                     0x08002fb9   Thumb Code    72  bsp_basictim.o(i.HAL_TIM_Base_MspInit)
    HAL_TIM_Base_Start                       0x08003005   Thumb Code    26  stm32f4xx_hal_tim.o(i.HAL_TIM_Base_Start)
    HAL_TIM_Base_Start_IT                    0x0800301f   Thumb Code    24  stm32f4xx_hal_tim.o(i.HAL_TIM_Base_Start_IT)
    HAL_TIM_ConfigClockSource                0x08003037   Thumb Code   272  stm32f4xx_hal_tim.o(i.HAL_TIM_ConfigClockSource)
    HAL_TIM_IC_CaptureCallback               0x08003147   Thumb Code     4  main.o(i.HAL_TIM_IC_CaptureCallback)
    HAL_TIM_IC_ConfigChannel                 0x0800314b   Thumb Code   190  stm32f4xx_hal_tim.o(i.HAL_TIM_IC_ConfigChannel)
    HAL_TIM_IC_Start_IT                      0x08003209   Thumb Code    84  stm32f4xx_hal_tim.o(i.HAL_TIM_IC_Start_IT)
    HAL_TIM_IRQHandler                       0x0800325d   Thumb Code   372  stm32f4xx_hal_tim.o(i.HAL_TIM_IRQHandler)
    HAL_TIM_OC_ConfigChannel                 0x080033d1   Thumb Code    86  stm32f4xx_hal_tim.o(i.HAL_TIM_OC_ConfigChannel)
    HAL_TIM_OC_DelayElapsedCallback          0x08003429   Thumb Code    64  main.o(i.HAL_TIM_OC_DelayElapsedCallback)
    HAL_TIM_OnePulse_Init                    0x0800346d   Thumb Code    76  stm32f4xx_hal_tim.o(i.HAL_TIM_OnePulse_Init)
    HAL_TIM_OnePulse_MspInit                 0x080034b9   Thumb Code    54  bsp_generaltim.o(i.HAL_TIM_OnePulse_MspInit)
    HAL_TIM_PWM_PulseFinishedCallback        0x080034f5   Thumb Code     2  stm32f4xx_hal_tim.o(i.HAL_TIM_PWM_PulseFinishedCallback)
    HAL_TIM_PeriodElapsedCallback            0x080034f9   Thumb Code   132  main.o(i.HAL_TIM_PeriodElapsedCallback)
    HAL_TIM_ReadCapturedValue                0x08003595   Thumb Code    68  stm32f4xx_hal_tim.o(i.HAL_TIM_ReadCapturedValue)
    HAL_TIM_TriggerCallback                  0x080035d9   Thumb Code     2  stm32f4xx_hal_tim.o(i.HAL_TIM_TriggerCallback)
    HAL_UART_ErrorCallback                   0x080035db   Thumb Code     2  stm32f4xx_hal_uart.o(i.HAL_UART_ErrorCallback)
    HAL_UART_IRQHandler                      0x080035dd   Thumb Code   306  stm32f4xx_hal_uart.o(i.HAL_UART_IRQHandler)
    HAL_UART_Init                            0x08003715   Thumb Code   100  stm32f4xx_hal_uart.o(i.HAL_UART_Init)
    HAL_UART_MspInit                         0x08003779   Thumb Code   214  bsp_debug_usart.o(i.HAL_UART_MspInit)
    HAL_UART_Receive_IT                      0x0800386d   Thumb Code    76  stm32f4xx_hal_uart.o(i.HAL_UART_Receive_IT)
    HAL_UART_RxCpltCallback                  0x080038b9   Thumb Code   108  main.o(i.HAL_UART_RxCpltCallback)
    HAL_UART_Transmit                        0x08003945   Thumb Code   220  stm32f4xx_hal_uart.o(i.HAL_UART_Transmit)
    HAL_UART_TxCpltCallback                  0x08003a21   Thumb Code     2  stm32f4xx_hal_uart.o(i.HAL_UART_TxCpltCallback)
    HardFault_Handler                        0x08003a23   Thumb Code     2  stm32f4xx_it.o(i.HardFault_Handler)
    KEY_GPIO_Init                            0x08003a25   Thumb Code   174  bsp_key.o(i.KEY_GPIO_Init)
    KeyCreate                                0x08003add   Thumb Code    16  bsp_key.o(i.KeyCreate)
    Key_AccessTimes                          0x08003aed   Thumb Code    14  bsp_key.o(i.Key_AccessTimes)
    Key_RefreshState                         0x08003afb   Thumb Code   132  bsp_key.o(i.Key_RefreshState)
    LED_GPIO_Init                            0x08003b81   Thumb Code   146  bsp_led.o(i.LED_GPIO_Init)
    MB_CRC16                                 0x08003c21   Thumb Code    50  bsp_mb_host.o(i.MB_CRC16)
    MB_CRC16_RS232                           0x08003c59   Thumb Code    50  bsp_usartx_rs232.o(i.MB_CRC16_RS232)
    MB_ReadCoil_03H_RS232                    0x08003c91   Thumb Code   640  bsp_usartx_rs232.o(i.MB_ReadCoil_03H_RS232)
    MB_ReadCoil_05H_RS232                    0x08003f4d   Thumb Code   300  bsp_usartx_rs232.o(i.MB_ReadCoil_05H_RS232)
    MB_ReadCoil_10H_RS232                    0x080040b1   Thumb Code   166  bsp_usartx_rs232.o(i.MB_ReadCoil_10H_RS232)
    MB_ReadHoldingReg_03H                    0x08004185   Thumb Code    48  bsp_mb_host.o(i.MB_ReadHoldingReg_03H)
    MX_CAN_Init                              0x080041b9   Thumb Code   108  bsp_can.o(i.MX_CAN_Init)
    MX_DEBUG_USART_Init                      0x0800422d   Thumb Code    54  bsp_debug_usart.o(i.MX_DEBUG_USART_Init)
    MX_RS232_USART_Init                      0x08004271   Thumb Code    72  bsp_debug_usart.o(i.MX_RS232_USART_Init)
    MemManage_Handler                        0x080042c5   Thumb Code     2  stm32f4xx_it.o(i.MemManage_Handler)
    NMI_Handler                              0x080042c7   Thumb Code     2  stm32f4xx_it.o(i.NMI_Handler)
    Netif_Config                             0x080042c9   Thumb Code    62  app_ethernet.o(i.Netif_Config)
    PendSV_Handler                           0x08004319   Thumb Code     2  stm32f4xx_it.o(i.PendSV_Handler)
    RCC_IRQHandler                           0x0800431b   Thumb Code     2  stm32f4xx_it.o(i.RCC_IRQHandler)
    RS485_GPIO_Init                          0x0800431d   Thumb Code   136  bsp_usartx_rs485.o(i.RS485_GPIO_Init)
    RS485_USARTx_Init                        0x080043b5   Thumb Code    80  bsp_usartx_rs485.o(i.RS485_USARTx_Init)
    RS485_USARTx_Init_4800                   0x08004415   Thumb Code    80  bsp_usartx_rs485.o(i.RS485_USARTx_Init_4800)
    Rx_RS485_function                        0x08004475   Thumb Code   430  main.o(i.Rx_RS485_function)
    SVC_Handler                              0x08004665   Thumb Code     2  stm32f4xx_it.o(i.SVC_Handler)
    SysTick_Handler                          0x08004667   Thumb Code    14  stm32f4xx_it.o(i.SysTick_Handler)
    SystemClock_Config                       0x08004675   Thumb Code   146  main.o(i.SystemClock_Config)
    SystemInit                               0x08004711   Thumb Code    64  system_stm32f4xx.o(i.SystemInit)
    TIM3_IRQHandler                          0x08004769   Thumb Code     6  stm32f4xx_it.o(i.TIM3_IRQHandler)
    TIM4_IRQHandler                          0x08004775   Thumb Code     6  stm32f4xx_it.o(i.TIM4_IRQHandler)
    TIM5_IRQHandler                          0x08004781   Thumb Code     6  stm32f4xx_it.o(i.TIM5_IRQHandler)
    TIM6_DAC_IRQHandler                      0x0800478d   Thumb Code     6  stm32f4xx_it.o(i.TIM6_DAC_IRQHandler)
    TIM_Base_SetConfig                       0x08004799   Thumb Code   178  stm32f4xx_hal_tim.o(i.TIM_Base_SetConfig)
    TIM_CCxChannelCmd                        0x08004861   Thumb Code    26  stm32f4xx_hal_tim.o(i.TIM_CCxChannelCmd)
    TIM_OC2_SetConfig                        0x08004909   Thumb Code   112  stm32f4xx_hal_tim.o(i.TIM_OC2_SetConfig)
    TIM_TI1_SetConfig                        0x08004a67   Thumb Code   146  stm32f4xx_hal_tim.o(i.TIM_TI1_SetConfig)
    TROPIN_GPIO_Init                         0x08004bd9   Thumb Code    58  bsp_us100_tim.o(i.TROPIN_GPIO_Init)
    UART4_IRQHandler                         0x08004c1d   Thumb Code     6  stm32f4xx_it.o(i.UART4_IRQHandler)
    UART5_IRQHandler                         0x08004c29   Thumb Code     6  stm32f4xx_it.o(i.UART5_IRQHandler)
    UART_RS232_Tx                            0x08004c7d   Thumb Code    30  bsp_debug_usart.o(i.UART_RS232_Tx)
    UART_Tx                                  0x080050e1   Thumb Code    46  bsp_usartx_rs485.o(i.UART_Tx)
    US100_TIM3_Init                          0x08005191   Thumb Code    50  bsp_us100_tim.o(i.US100_TIM3_Init)
    US100_USARTx_Init                        0x080051dd   Thumb Code    68  bsp_us100_usartx.o(i.US100_USARTx_Init)
    US100_USARTx_Rx_data                     0x0800522d   Thumb Code    48  bsp_us100_usartx.o(i.US100_USARTx_Rx_data)
    US100_USARTx_main                        0x08005269   Thumb Code    84  bsp_us100_usartx.o(i.US100_USARTx_main)
    USART2_IRQHandler                        0x080052c9   Thumb Code     6  stm32f4xx_it.o(i.USART2_IRQHandler)
    USART3_IRQHandler                        0x080052d5   Thumb Code     6  stm32f4xx_it.o(i.USART3_IRQHandler)
    USART_GPIO_Init                          0x080052e1   Thumb Code    74  bsp_us100_usartx.o(i.USART_GPIO_Init)
    UsageFault_Handler                       0x08005339   Thumb Code     2  stm32f4xx_it.o(i.UsageFault_Handler)
    YSF4_TCP_SENDData                        0x0800533d   Thumb Code   272  tcp_echoserver.o(i.YSF4_TCP_SENDData)
    __0printf                                0x0800554d   Thumb Code    22  printfa.o(i.__0printf)
    __1printf                                0x0800554d   Thumb Code     0  printfa.o(i.__0printf)
    __2printf                                0x0800554d   Thumb Code     0  printfa.o(i.__0printf)
    __c89printf                              0x0800554d   Thumb Code     0  printfa.o(i.__0printf)
    printf                                   0x0800554d   Thumb Code     0  printfa.o(i.__0printf)
    __0sprintf                               0x0800556d   Thumb Code    34  printfa.o(i.__0sprintf)
    __1sprintf                               0x0800556d   Thumb Code     0  printfa.o(i.__0sprintf)
    __2sprintf                               0x0800556d   Thumb Code     0  printfa.o(i.__0sprintf)
    __c89sprintf                             0x0800556d   Thumb Code     0  printfa.o(i.__0sprintf)
    sprintf                                  0x0800556d   Thumb Code     0  printfa.o(i.__0sprintf)
    __scatterload_copy                       0x08005595   Thumb Code    14  handlers.o(i.__scatterload_copy)
    __scatterload_null                       0x080055a3   Thumb Code     2  handlers.o(i.__scatterload_null)
    __scatterload_zeroinit                   0x080055a5   Thumb Code    14  handlers.o(i.__scatterload_zeroinit)
    dhcp_arp_reply                           0x08005e8d   Thumb Code    30  dhcp.o(i.dhcp_arp_reply)
    dhcp_coarse_tmr                          0x08005fd1   Thumb Code    98  dhcp.o(i.dhcp_coarse_tmr)
    dhcp_fine_tmr                            0x0800630d   Thumb Code    48  dhcp.o(i.dhcp_fine_tmr)
    dhcp_network_changed                     0x0800645d   Thumb Code    48  dhcp.o(i.dhcp_network_changed)
    dhcp_release                             0x08006aa1   Thumb Code   172  dhcp.o(i.dhcp_release)
    dhcp_renew                               0x08006b55   Thumb Code   174  dhcp.o(i.dhcp_renew)
    dhcp_start                               0x08006d21   Thumb Code   148  dhcp.o(i.dhcp_start)
    dhcp_stop                                0x08006db5   Thumb Code    36  dhcp.o(i.dhcp_stop)
    dhcp_supplied_address                    0x08006dd9   Thumb Code    30  dhcp.o(i.dhcp_supplied_address)
    etharp_cleanup_netif                     0x08006ee9   Thumb Code    42  etharp.o(i.etharp_cleanup_netif)
    etharp_input                             0x0800704d   Thumb Code   200  etharp.o(i.etharp_input)
    etharp_output                            0x08007115   Thumb Code   254  etharp.o(i.etharp_output)
    etharp_query                             0x08007281   Thumb Code   286  etharp.o(i.etharp_query)
    etharp_request                           0x08007435   Thumb Code     6  etharp.o(i.etharp_request)
    etharp_tmr                               0x08007469   Thumb Code    96  etharp.o(i.etharp_tmr)
    ethernet_input                           0x08007551   Thumb Code   164  ethernet.o(i.ethernet_input)
    ethernet_link_check_state                0x080075f9   Thumb Code   166  ethernetif.o(i.ethernet_link_check_state)
    ethernet_link_status_updated             0x080076dd   Thumb Code    60  app_ethernet.o(i.ethernet_link_status_updated)
    ethernet_output                          0x08007759   Thumb Code    82  ethernet.o(i.ethernet_output)
    ethernetif_init                          0x080077ad   Thumb Code    30  ethernetif.o(i.ethernetif_init)
    ethernetif_input                         0x080077d5   Thumb Code    38  ethernetif.o(i.ethernetif_input)
    fputc                                    0x080077fd   Thumb Code    22  bsp_debug_usart.o(i.fputc)
    icmp_dest_unreach                        0x08007819   Thumb Code     8  icmp.o(i.icmp_dest_unreach)
    icmp_input                               0x08007821   Thumb Code   320  icmp.o(i.icmp_input)
    icmp_time_exceeded                       0x080079d7   Thumb Code     8  icmp.o(i.icmp_time_exceeded)
    inet_chksum_pbuf                         0x080079df   Thumb Code    76  inet_chksum.o(i.inet_chksum_pbuf)
    ip4_addr_isbroadcast_u32                 0x08007a2b   Thumb Code    80  ip4_addr.o(i.ip4_addr_isbroadcast_u32)
    ip4_frag                                 0x08007a7d   Thumb Code   416  ip4_frag.o(i.ip4_frag)
    ip4_input                                0x08007c21   Thumb Code   490  ip4.o(i.ip4_input)
    ip4_output_if                            0x08007e15   Thumb Code    44  ip4.o(i.ip4_output_if)
    ip4_output_if_src                        0x08007e41   Thumb Code   178  ip4.o(i.ip4_output_if_src)
    ip4_reass                                0x08007efd   Thumb Code   378  ip4_frag.o(i.ip4_reass)
    ip4_route                                0x0800807d   Thumb Code   106  ip4.o(i.ip4_route)
    ip4addr_ntoa                             0x080080f1   Thumb Code     8  ip4_addr.o(i.ip4addr_ntoa)
    ip4addr_ntoa_r                           0x080080fd   Thumb Code   172  ip4_addr.o(i.ip4addr_ntoa_r)
    ip_reass_tmr                             0x08008431   Thumb Code    42  ip4_frag.o(i.ip_reass_tmr)
    lwip_IT_handle                           0x08008711   Thumb Code     6  ethernetif.o(i.lwip_IT_handle)
    lwip_htonl                               0x0800871d   Thumb Code    24  def.o(i.lwip_htonl)
    lwip_htons                               0x08008735   Thumb Code    10  def.o(i.lwip_htons)
    lwip_init                                0x0800873f   Thumb Code    30  init.o(i.lwip_init)
    lwip_standard_chksum                     0x0800875d   Thumb Code    90  inet_chksum.o(i.lwip_standard_chksum)
    main                                     0x080087b9   Thumb Code   250  main.o(i.main)
    main_RS232                               0x0800895d   Thumb Code   256  main.o(i.main_RS232)
    main_RS485                               0x08008a89   Thumb Code   672  main.o(i.main_RS485)
    mem_free                                 0x08008d51   Thumb Code    38  mem.o(i.mem_free)
    mem_init                                 0x08008d7d   Thumb Code    44  mem.o(i.mem_init)
    mem_malloc                               0x08008db1   Thumb Code   186  mem.o(i.mem_malloc)
    mem_trim                                 0x08008e71   Thumb Code   224  mem.o(i.mem_trim)
    memp_free                                0x08008f55   Thumb Code    20  memp.o(i.memp_free)
    memp_init                                0x08008f6d   Thumb Code    24  memp.o(i.memp_init)
    memp_init_pool                           0x08008f89   Thumb Code    46  memp.o(i.memp_init_pool)
    memp_malloc                              0x08008fb9   Thumb Code    18  memp.o(i.memp_malloc)
    netif_add                                0x08008fd1   Thumb Code    84  netif.o(i.netif_add)
    netif_init                               0x08009029   Thumb Code     2  netif.o(i.netif_init)
    netif_set_addr                           0x08009049   Thumb Code    76  netif.o(i.netif_set_addr)
    netif_set_default                        0x08009095   Thumb Code     6  netif.o(i.netif_set_default)
    netif_set_down                           0x080090a1   Thumb Code    30  netif.o(i.netif_set_down)
    netif_set_gw                             0x080090bf   Thumb Code    14  netif.o(i.netif_set_gw)
    netif_set_ipaddr                         0x080090cd   Thumb Code    66  netif.o(i.netif_set_ipaddr)
    netif_set_link_callback                  0x08009115   Thumb Code     8  netif.o(i.netif_set_link_callback)
    netif_set_link_down                      0x0800911d   Thumb Code    28  netif.o(i.netif_set_link_down)
    netif_set_link_up                        0x08009139   Thumb Code    62  netif.o(i.netif_set_link_up)
    netif_set_netmask                        0x08009177   Thumb Code    14  netif.o(i.netif_set_netmask)
    netif_set_up                             0x08009185   Thumb Code    32  netif.o(i.netif_set_up)
    pbuf_alloc                               0x080091a5   Thumb Code   314  pbuf.o(i.pbuf_alloc)
    pbuf_alloced_custom                      0x080092df   Thumb Code   104  pbuf.o(i.pbuf_alloced_custom)
    pbuf_cat                                 0x08009347   Thumb Code    40  pbuf.o(i.pbuf_cat)
    pbuf_chain                               0x0800936f   Thumb Code    20  pbuf.o(i.pbuf_chain)
    pbuf_clen                                0x08009383   Thumb Code    20  pbuf.o(i.pbuf_clen)
    pbuf_copy                                0x08009397   Thumb Code   168  pbuf.o(i.pbuf_copy)
    pbuf_copy_partial                        0x0800943f   Thumb Code   112  pbuf.o(i.pbuf_copy_partial)
    pbuf_free                                0x080094af   Thumb Code    94  pbuf.o(i.pbuf_free)
    pbuf_header                              0x0800950d   Thumb Code     6  pbuf.o(i.pbuf_header)
    pbuf_header_force                        0x08009513   Thumb Code     6  pbuf.o(i.pbuf_header_force)
    pbuf_realloc                             0x080095a3   Thumb Code    92  pbuf.o(i.pbuf_realloc)
    pbuf_ref                                 0x080095ff   Thumb Code    12  pbuf.o(i.pbuf_ref)
    pbuf_take                                0x0800960b   Thumb Code    94  pbuf.o(i.pbuf_take)
    sys_check_timeouts                       0x080096d1   Thumb Code    72  timeouts.o(i.sys_check_timeouts)
    sys_now                                  0x0800971d   Thumb Code     4  ethernetif.o(i.sys_now)
    sys_timeout                              0x08009721   Thumb Code   164  timeouts.o(i.sys_timeout)
    sys_timeouts_init                        0x080097c9   Thumb Code    36  timeouts.o(i.sys_timeouts_init)
    tcp_abandon                              0x080097f9   Thumb Code   202  tcp.o(i.tcp_abandon)
    tcp_abort                                0x080098cd   Thumb Code     6  tcp.o(i.tcp_abort)
    tcp_accept                               0x080098d3   Thumb Code    14  tcp.o(i.tcp_accept)
    tcp_alloc                                0x080098f1   Thumb Code   164  tcp.o(i.tcp_alloc)
    tcp_arg                                  0x080099a1   Thumb Code     8  tcp.o(i.tcp_arg)
    tcp_bind                                 0x080099a9   Thumb Code   144  tcp.o(i.tcp_bind)
    tcp_close                                0x08009a45   Thumb Code    20  tcp.o(i.tcp_close)
    tcp_eff_send_mss_impl                    0x08009f0d   Thumb Code    38  tcp.o(i.tcp_eff_send_mss_impl)
    tcp_enqueue_flags                        0x08009f33   Thumb Code   190  tcp_out.o(i.tcp_enqueue_flags)
    tcp_err                                  0x08009ff1   Thumb Code    10  tcp.o(i.tcp_err)
    tcp_fasttmr                              0x08009ffd   Thumb Code    92  tcp.o(i.tcp_fasttmr)
    tcp_init                                 0x0800a099   Thumb Code     2  tcp.o(i.tcp_init)
    tcp_input                                0x0800a09d   Thumb Code   950  tcp_in.o(i.tcp_input)
    tcp_keepalive                            0x0800a46d   Thumb Code    88  tcp_out.o(i.tcp_keepalive)
    tcp_listen_with_backlog                  0x0800a69d   Thumb Code   132  tcp.o(i.tcp_listen_with_backlog)
    tcp_netif_ip_addr_changed                0x0800a72d   Thumb Code    76  tcp.o(i.tcp_netif_ip_addr_changed)
    tcp_new                                  0x0800a7a1   Thumb Code     6  tcp.o(i.tcp_new)
    tcp_next_iss                             0x0800a809   Thumb Code    12  tcp.o(i.tcp_next_iss)
    tcp_output                               0x0800a819   Thumb Code   504  tcp_out.o(i.tcp_output)
    tcp_pcb_purge                            0x0800ac07   Thumb Code    58  tcp.o(i.tcp_pcb_purge)
    tcp_pcb_remove                           0x0800ac41   Thumb Code    90  tcp.o(i.tcp_pcb_remove)
    tcp_poll                                 0x0800acad   Thumb Code     8  tcp.o(i.tcp_poll)
    tcp_process_refused_data                 0x0800b149   Thumb Code   124  tcp.o(i.tcp_process_refused_data)
    tcp_recv                                 0x0800b5f1   Thumb Code     8  tcp.o(i.tcp_recv)
    tcp_recv_null                            0x0800b5f9   Thumb Code    38  tcp.o(i.tcp_recv_null)
    tcp_recved                               0x0800b621   Thumb Code    78  tcp.o(i.tcp_recved)
    tcp_rexmit                               0x0800b693   Thumb Code    82  tcp_out.o(i.tcp_rexmit)
    tcp_rexmit_fast                          0x0800b6e5   Thumb Code   102  tcp_out.o(i.tcp_rexmit_fast)
    tcp_rexmit_rto                           0x0800b74d   Thumb Code    58  tcp_out.o(i.tcp_rexmit_rto)
    tcp_rst                                  0x0800b795   Thumb Code   136  tcp_out.o(i.tcp_rst)
    tcp_seg_free                             0x0800b81d   Thumb Code    30  tcp.o(i.tcp_seg_free)
    tcp_segs_free                            0x0800b83b   Thumb Code    20  tcp.o(i.tcp_segs_free)
    tcp_send_empty_ack                       0x0800b84f   Thumb Code   116  tcp_out.o(i.tcp_send_empty_ack)
    tcp_send_fin                             0x0800b8c3   Thumb Code    74  tcp_out.o(i.tcp_send_fin)
    tcp_sent                                 0x0800b90d   Thumb Code     8  tcp.o(i.tcp_sent)
    tcp_server_usersent                      0x0800b915   Thumb Code   298  tcp_echoserver.o(i.tcp_server_usersent)
    tcp_setprio                              0x0800ba71   Thumb Code     4  tcp.o(i.tcp_setprio)
    tcp_slowtmr                              0x0800ba75   Thumb Code   640  tcp.o(i.tcp_slowtmr)
    tcp_timer_needed                         0x0800bd1d   Thumb Code    36  timeouts.o(i.tcp_timer_needed)
    tcp_tmr                                  0x0800bde9   Thumb Code    30  tcp.o(i.tcp_tmr)
    tcp_trigger_input_pcb_close              0x0800be0d   Thumb Code    12  tcp_in.o(i.tcp_trigger_input_pcb_close)
    tcp_update_rcv_ann_wnd                   0x0800be1d   Thumb Code    62  tcp.o(i.tcp_update_rcv_ann_wnd)
    tcp_write                                0x0800be5b   Thumb Code   724  tcp_out.o(i.tcp_write)
    tcp_zero_window_probe                    0x0800c17d   Thumb Code   202  tcp_out.o(i.tcp_zero_window_probe)
    udp_bind                                 0x0800c281   Thumb Code   132  udp.o(i.udp_bind)
    udp_connect                              0x0800c30d   Thumb Code    82  udp.o(i.udp_connect)
    udp_init                                 0x0800c365   Thumb Code     2  udp.o(i.udp_init)
    udp_input                                0x0800c369   Thumb Code   314  udp.o(i.udp_input)
    udp_netif_ip_addr_changed                0x0800c4e5   Thumb Code    50  udp.o(i.udp_netif_ip_addr_changed)
    udp_new                                  0x0800c51d   Thumb Code    36  udp.o(i.udp_new)
    udp_recv                                 0x0800c58d   Thumb Code     6  udp.o(i.udp_recv)
    udp_remove                               0x0800c595   Thumb Code    44  udp.o(i.udp_remove)
    udp_sendto_if                            0x0800c5c5   Thumb Code    72  udp.o(i.udp_sendto_if)
    udp_sendto_if_src                        0x0800c60d   Thumb Code   186  udp.o(i.udp_sendto_if_src)
    AHBPrescTable                            0x0800c6c6   Data          16  system_stm32f4xx.o(.constdata)
    APBPrescTable                            0x0800c6d6   Data           8  system_stm32f4xx.o(.constdata)
    ip_addr_any                              0x0800cae0   Data           4  ip4_addr.o(.constdata)
    ip_addr_broadcast                        0x0800cae4   Data           4  ip4_addr.o(.constdata)
    ethbroadcast                             0x0800cae8   Data           6  ethernet.o(.constdata)
    ethzero                                  0x0800caee   Data           6  ethernet.o(.constdata)
    memp_UDP_PCB                             0x0800caf4   Data          12  memp.o(.constdata)
    memp_TCP_PCB                             0x0800cb00   Data          12  memp.o(.constdata)
    memp_TCP_PCB_LISTEN                      0x0800cb0c   Data          12  memp.o(.constdata)
    memp_TCP_SEG                             0x0800cb18   Data          12  memp.o(.constdata)
    memp_REASSDATA                           0x0800cb24   Data          12  memp.o(.constdata)
    memp_FRAG_PBUF                           0x0800cb30   Data          12  memp.o(.constdata)
    memp_SYS_TIMEOUT                         0x0800cb3c   Data          12  memp.o(.constdata)
    memp_PBUF                                0x0800cb48   Data          12  memp.o(.constdata)
    memp_PBUF_POOL                           0x0800cb54   Data          12  memp.o(.constdata)
    memp_pools                               0x0800cb60   Data          36  memp.o(.constdata)
    tcp_pcb_lists                            0x0800cbc8   Data          16  tcp.o(.constdata)
    lwip_cyclic_timers                       0x0800cbd8   Data          40  timeouts.o(.constdata)
    Region$$Table$$Base                      0x0800ccf0   Number         0  anon$$obj.o(Region$$Table)
    Region$$Table$$Limit                     0x0800cd10   Number         0  anon$$obj.o(Region$$Table)
    rx_flag                                  0x20000000   Data           1  main.o(.data)
    state_RS232                              0x20000001   Data           1  main.o(.data)
    page_flag                                0x20000002   Data           1  main.o(.data)
    Rx_MSG                                   0x20000004   Data           2  main.o(.data)
    Rx_MSG_RS232                             0x20000006   Data           2  main.o(.data)
    page_switch_count                        0x2000000c   Data           4  main.o(.data)
    page_count                               0x20000010   Data           4  main.o(.data)
    test_RS232_screen_count                  0x20000014   Data           4  main.o(.data)
    test_count1                              0x20000018   Data           4  main.o(.data)
    test_count2                              0x2000001c   Data           4  main.o(.data)
    Control_refresh                          0x20000020   Data           8  main.o(.data)
    key1                                     0x20000028   Data           8  main.o(.data)
    key2                                     0x20000030   Data           8  main.o(.data)
    key3                                     0x20000038   Data           8  main.o(.data)
    key4                                     0x20000040   Data           8  main.o(.data)
    key5                                     0x20000048   Data           8  main.o(.data)
    Temp_converter                           0x20000050   Data          10  main.o(.data)
    Smoke_converter                          0x2000005a   Data          10  main.o(.data)
    Mulpara_converter                        0x20000064   Data          10  main.o(.data)
    Methane_converter                        0x2000006e   Data          10  main.o(.data)
    Battery                                  0x20000078   Data          10  main.o(.data)
    correct_flag                             0x20000082   Data           1  main.o(.data)
    stemp_flag                               0x20000083   Data           1  main.o(.data)
    clear_flag                               0x20000084   Data           1  main.o(.data)
    Is_thres_stamp                           0x20000085   Data           1  main.o(.data)
    DHCP_state                               0x20000088   Data           1  app_ethernet.o(.data)
    DHCPfineTimer                            0x2000008c   Data           4  app_ethernet.o(.data)
    EthernetLinkTimer                        0x20000090   Data           4  app_ethernet.o(.data)
    link_flag                                0x20000094   Data           1  tcp_echoserver.o(.data)
    real_time_data                           0x20000098   Data           4  tcp_echoserver.o(.data)
    tcp_echoserver_pcb                       0x2000009c   Data           4  tcp_echoserver.o(.data)
    tcp_echoserver_es                        0x200000a0   Data           4  tcp_echoserver.o(.data)
    ServerIp                                 0x200000a4   Data           4  tcp_echoserver.o(.data)
    uwTick                                   0x200000a8   Data           4  stm32f4xx_hal.o(.data)
    SystemCoreClock                          0x200000ac   Data           4  system_stm32f4xx.o(.data)
    RxCount                                  0x200000b0   Data           2  bsp_debug_usart.o(.data)
    RxCount_RS232                            0x200000b2   Data           2  bsp_debug_usart.o(.data)
    tmp_Rx_Buf                               0x200000b4   Data           1  bsp_debug_usart.o(.data)
    tmp_Rx_Buf_RS232                         0x200000b5   Data           1  bsp_debug_usart.o(.data)
    begin_address                            0x200000b6   Data           1  bsp_usartx_rs232.o(.data)
    address_leg                              0x200000b7   Data           1  bsp_usartx_rs232.o(.data)
    time                                     0x200000b8   Data           1  bsp_usartx_rs232.o(.data)
    Encoder_value                            0x200000c0   Data           4  bsp_can.o(.data)
    Encoder_value_last                       0x200000c4   Data           4  bsp_can.o(.data)
    Encoder_speed                            0x200000c8   Data           4  bsp_can.o(.data)
    Encoder_value_diff                       0x200000d0   Data           8  bsp_can.o(.data)
    Encoder_value_sum                        0x200000d8   Data           8  bsp_can.o(.data)
    aTxBuffer1                               0x200000e0   Data           1  bsp_us100_usartx.o(.data)
    aTxBuffer2                               0x200000e1   Data           1  bsp_us100_usartx.o(.data)
    flag1                                    0x200000e2   Data           1  bsp_us100_usartx.o(.data)
    flag2                                    0x200000e3   Data           1  bsp_us100_usartx.o(.data)
    aRxBuffer1                               0x200000e4   Data           2  bsp_us100_usartx.o(.data)
    us_100_count1                            0x200000e8   Data           4  bsp_us100_usartx.o(.data)
    us_100_count2                            0x200000ec   Data           4  bsp_us100_usartx.o(.data)
    temp                                     0x200000f0   Data           4  bsp_us100_tim.o(.data)
    ulTmrClk                                 0x200000f4   Data           4  bsp_us100_tim.o(.data)
    ulTime                                   0x200000f8   Data           4  bsp_us100_tim.o(.data)
    strCapture                               0x200000fc   Data           6  bsp_us100_tim.o(.data)
    netif_list                               0x20000154   Data           4  netif.o(.data)
    netif_default                            0x20000158   Data           4  netif.o(.data)
    tcp_active_pcbs_changed                  0x2000015c   Data           1  tcp.o(.data)
    tcp_ticks                                0x20000168   Data           4  tcp.o(.data)
    tcp_bound_pcbs                           0x2000016c   Data           4  tcp.o(.data)
    tcp_listen_pcbs                          0x20000170   Data           4  tcp.o(.data)
    tcp_active_pcbs                          0x20000174   Data           4  tcp.o(.data)
    tcp_tw_pcbs                              0x20000178   Data           4  tcp.o(.data)
    tcp_input_pcb                            0x2000019c   Data           4  tcp_in.o(.data)
    biaozhi                                  0x200001a0   Data           4  tcp_out.o(.data)
    N111                                     0x200001a4   Data           4  tcp_out.o(.data)
    N222                                     0x200001a8   Data           4  tcp_out.o(.data)
    udp_pcbs                                 0x200001bc   Data           4  udp.o(.data)
    __stdout                                 0x200001c4   Data           4  stdout.o(.data)
    weight_data                              0x200001c8   Data          80  main.o(.bss)
    Sensor_data                              0x20000218   Data          44  main.o(.bss)
    reg_value                                0x20000244   Data          76  main.o(.bss)
    gnetif                                   0x20000290   Data          56  main.o(.bss)
    Lwip_data                                0x200002c8   Data          18  app_ethernet.o(.bss)
    DMARxDscrTab                             0x200002dc   Data         128  ethernetif.o(.bss)
    DMATxDscrTab                             0x2000035c   Data         128  ethernetif.o(.bss)
    Rx_Buff                                  0x200003dc   Data        6096  ethernetif.o(.bss)
    Tx_Buff                                  0x20001bac   Data        6096  ethernetif.o(.bss)
    EthHandle                                0x2000337c   Data          72  ethernetif.o(.bss)
    tcp_server_recvbuf                       0x200033c4   Data         100  tcp_echoserver.o(.bss)
    tcp_SendData                             0x20003428   Data         100  tcp_echoserver.o(.bss)
    husart_debug                             0x2000348c   Data          64  bsp_debug_usart.o(.bss)
    husartx_rs232                            0x200034cc   Data          64  bsp_debug_usart.o(.bss)
    Tx_Buf                                   0x2000350c   Data         256  bsp_debug_usart.o(.bss)
    rs232_Rx_Buf                             0x2000360c   Data         256  bsp_debug_usart.o(.bss)
    rs232_Tx_Buf                             0x2000370c   Data         256  bsp_debug_usart.o(.bss)
    Rx_Temp_converter                        0x2000380c   Data         256  bsp_debug_usart.o(.bss)
    Rx_Smoke_converter                       0x2000390c   Data         256  bsp_debug_usart.o(.bss)
    Rx_Mulpara_converter                     0x20003a0c   Data         256  bsp_debug_usart.o(.bss)
    Rx_Methane_converter                     0x20003b0c   Data         256  bsp_debug_usart.o(.bss)
    Rx_Battery                               0x20003c0c   Data         256  bsp_debug_usart.o(.bss)
    htim5                                    0x20003d0c   Data          60  bsp_generaltim.o(.bss)
    htim4                                    0x20003d48   Data          60  bsp_generaltim.o(.bss)
    husartx_rs485                            0x20003d84   Data          64  bsp_usartx_rs485.o(.bss)
    htim6                                    0x20003dc4   Data          60  bsp_basictim.o(.bss)
    hCAN                                     0x20003e00   Data          68  bsp_can.o(.bss)
    husartx_HMI                              0x20003e84   Data          64  bsp_usartx_pn532.o(.bss)
    uart_buff                                0x20003ec4   Data        1024  bsp_usartx_pn532.o(.bss)
    husartx_US100                            0x200042c4   Data          64  bsp_us100_usartx.o(.bss)
    htim3                                    0x20004304   Data          60  bsp_us100_tim.o(.bss)
    dhcp_rx_options_val                      0x20004340   Data          40  dhcp.o(.bss)
    dhcp_rx_options_given                    0x20004368   Data          10  dhcp.o(.bss)
    ip_data                                  0x20004474   Data          24  ip.o(.bss)
    ram_heap                                 0x2000448c   Data       10259  mem.o(.bss)
    memp_memory_UDP_PCB_base                 0x20006c9f   Data         195  memp.o(.bss)
    memp_memory_TCP_PCB_base                 0x20006d62   Data        1483  memp.o(.bss)
    memp_memory_TCP_PCB_LISTEN_base          0x2000732d   Data         143  memp.o(.bss)
    memp_memory_TCP_SEG_base                 0x200073bc   Data         131  memp.o(.bss)
    memp_memory_REASSDATA_base               0x2000743f   Data         163  memp.o(.bss)
    memp_memory_FRAG_PBUF_base               0x200074e2   Data         363  memp.o(.bss)
    memp_memory_SYS_TIMEOUT_base             0x2000764d   Data         163  memp.o(.bss)
    memp_memory_PBUF_base                    0x200076f0   Data         163  memp.o(.bss)
    memp_memory_PBUF_POOL_base               0x20007793   Data        4227  memp.o(.bss)
    __initial_sp                             0x20009828   Data           0  startup_stm32f407xx.o(STACK)



==============================================================================

Memory Map of the image

  Image Entry point : 0x08000189

  Load Region LR_IROM1 (Base: 0x08000000, Size: 0x0000ced8, Max: 0x00100000, ABSOLUTE, COMPRESSED[0x0000cd4c])

    Execution Region ER_IROM1 (Exec base: 0x08000000, Load base: 0x08000000, Size: 0x0000cd10, Max: 0x00100000, ABSOLUTE)

    Exec Addr    Load Addr    Size         Type   Attr      Idx    E Section Name        Object

    0x08000000   0x08000000   0x00000188   Data   RO            3    RESET               startup_stm32f407xx.o
    0x08000188   0x08000188   0x00000000   Code   RO        10460  * .ARM.Collect$$$$00000000  mc_w.l(entry.o)
    0x08000188   0x08000188   0x00000004   Code   RO        10751    .ARM.Collect$$$$00000001  mc_w.l(entry2.o)
    0x0800018c   0x0800018c   0x00000004   Code   RO        10754    .ARM.Collect$$$$00000004  mc_w.l(entry5.o)
    0x08000190   0x08000190   0x00000000   Code   RO        10756    .ARM.Collect$$$$00000008  mc_w.l(entry7b.o)
    0x08000190   0x08000190   0x00000000   Code   RO        10758    .ARM.Collect$$$$0000000A  mc_w.l(entry8b.o)
    0x08000190   0x08000190   0x00000008   Code   RO        10759    .ARM.Collect$$$$0000000B  mc_w.l(entry9a.o)
    0x08000198   0x08000198   0x00000000   Code   RO        10761    .ARM.Collect$$$$0000000D  mc_w.l(entry10a.o)
    0x08000198   0x08000198   0x00000000   Code   RO        10763    .ARM.Collect$$$$0000000F  mc_w.l(entry11a.o)
    0x08000198   0x08000198   0x00000004   Code   RO        10752    .ARM.Collect$$$$00002712  mc_w.l(entry2.o)
    0x0800019c   0x0800019c   0x00000024   Code   RO            4    .text               startup_stm32f407xx.o
    0x080001c0   0x080001c0   0x00000024   Code   RO        10463    .text               mc_w.l(rand.o)
    0x080001e4   0x080001e4   0x00000024   Code   RO        10466    .text               mc_w.l(memcpya.o)
    0x08000208   0x08000208   0x00000024   Code   RO        10468    .text               mc_w.l(memseta.o)
    0x0800022c   0x0800022c   0x0000000e   Code   RO        10470    .text               mc_w.l(strlen.o)
    0x0800023a   0x0800023a   0x0000001a   Code   RO        10472    .text               mc_w.l(memcmp.o)
    0x08000254   0x08000254   0x0000014e   Code   RO        10739    .text               mf_w.l(dadd.o)
    0x080003a2   0x080003a2   0x000000de   Code   RO        10741    .text               mf_w.l(ddiv.o)
    0x08000480   0x08000480   0x00000028   Code   RO        10745    .text               mf_w.l(dfltl.o)
    0x080004a8   0x080004a8   0x00000026   Code   RO        10747    .text               mf_w.l(f2d.o)
    0x080004ce   0x080004ce   0x00000038   Code   RO        10749    .text               mf_w.l(d2f.o)
    0x08000506   0x08000506   0x0000002c   Code   RO        10766    .text               mc_w.l(uidiv.o)
    0x08000532   0x08000532   0x00000062   Code   RO        10768    .text               mc_w.l(uldiv.o)
    0x08000594   0x08000594   0x0000001e   Code   RO        10770    .text               mc_w.l(llshl.o)
    0x080005b2   0x080005b2   0x00000024   Code   RO        10772    .text               mc_w.l(llsshr.o)
    0x080005d6   0x080005d6   0x00000000   Code   RO        10774    .text               mc_w.l(iusefp.o)
    0x080005d6   0x080005d6   0x0000006e   Code   RO        10775    .text               mf_w.l(fepilogue.o)
    0x08000644   0x08000644   0x000000ba   Code   RO        10777    .text               mf_w.l(depilogue.o)
    0x080006fe   0x080006fe   0x000000e4   Code   RO        10779    .text               mf_w.l(dmul.o)
    0x080007e2   0x080007e2   0x00000030   Code   RO        10781    .text               mf_w.l(dfixul.o)
    0x08000812   0x08000812   0x00000002   PAD
    0x08000814   0x08000814   0x00000030   Code   RO        10783    .text               mf_w.l(cdrcmple.o)
    0x08000844   0x08000844   0x00000024   Code   RO        10785    .text               mc_w.l(init.o)
    0x08000868   0x08000868   0x00000020   Code   RO        10787    .text               mc_w.l(llushr.o)
    0x08000888   0x08000888   0x0000003a   Code   RO        10797    .text               mc_w.l(__dczerorl.o)
    0x080008c2   0x080008c2   0x00000002   PAD
    0x080008c4   0x080008c4   0x00000034   Code   RO         7823    i.BASIC_TIMx_Init   bsp_basictim.o
    0x080008f8   0x080008f8   0x00000002   Code   RO          759    i.BusFault_Handler  stm32f4xx_it.o
    0x080008fa   0x080008fa   0x00000002   PAD
    0x080008fc   0x080008fc   0x0000000c   Code   RO          760    i.CAN1_RX0_IRQHandler  stm32f4xx_it.o
    0x08000908   0x08000908   0x000001a6   Code   RO         3838    i.CAN_Receive_IT    stm32f4xx_hal_can.o
    0x08000aae   0x08000aae   0x00000054   Code   RO         3839    i.CAN_Transmit_IT   stm32f4xx_hal_can.o
    0x08000b02   0x08000b02   0x00000002   PAD
    0x08000b04   0x08000b04   0x0000002c   Code   RO          906    i.DHCP_Periodic_Handle  app_ethernet.o
    0x08000b30   0x08000b30   0x00000240   Code   RO          907    i.DHCP_Process      app_ethernet.o
    0x08000d70   0x08000d70   0x00000002   Code   RO          761    i.DebugMon_Handler  stm32f4xx_it.o
    0x08000d72   0x08000d72   0x00000010   Code   RO         4254    i.ETH_DMAReceptionEnable  stm32f4xx_hal_eth.o
    0x08000d82   0x08000d82   0x00000010   Code   RO         4256    i.ETH_DMATransmissionEnable  stm32f4xx_hal_eth.o
    0x08000d92   0x08000d92   0x00000002   PAD
    0x08000d94   0x08000d94   0x00000024   Code   RO         4257    i.ETH_Delay         stm32f4xx_hal_eth.o
    0x08000db8   0x08000db8   0x0000002e   Code   RO         4258    i.ETH_FlushTransmitFIFO  stm32f4xx_hal_eth.o
    0x08000de6   0x08000de6   0x00000002   PAD
    0x08000de8   0x08000de8   0x00000020   Code   RO          908    i.ETH_IRQHandler    app_ethernet.o
    0x08000e08   0x08000e08   0x0000002a   Code   RO         4259    i.ETH_MACAddressConfig  stm32f4xx_hal_eth.o
    0x08000e32   0x08000e32   0x00000002   PAD
    0x08000e34   0x08000e34   0x00000194   Code   RO         4260    i.ETH_MACDMAConfig  stm32f4xx_hal_eth.o
    0x08000fc8   0x08000fc8   0x00000022   Code   RO         4262    i.ETH_MACReceptionEnable  stm32f4xx_hal_eth.o
    0x08000fea   0x08000fea   0x00000022   Code   RO         4264    i.ETH_MACTransmissionEnable  stm32f4xx_hal_eth.o
    0x0800100c   0x0800100c   0x0000001c   Code   RO          909    i.ETH_PHY_ReadReg   app_ethernet.o
    0x08001028   0x08001028   0x0000008a   Code   RO          911    i.ETH_link_check_state  app_ethernet.o
    0x080010b2   0x080010b2   0x00000002   PAD
    0x080010b4   0x080010b4   0x00000028   Code   RO          912    i.Ethernet_Link_Periodic_Handle  app_ethernet.o
    0x080010dc   0x080010dc   0x00000058   Code   RO         8342    i.GENERAL_TIM3_Init  bsp_us100_tim.o
    0x08001134   0x08001134   0x00000088   Code   RO         7392    i.GENERAL_TIM4_Init  bsp_generaltim.o
    0x080011bc   0x080011bc   0x00000060   Code   RO         7393    i.GENERAL_TIMx_Init  bsp_generaltim.o
    0x0800121c   0x0800121c   0x00000018   Code   RO         7314    i.GetPinStateOfKey1  bsp_key.o
    0x08001234   0x08001234   0x00000018   Code   RO         7315    i.GetPinStateOfKey2  bsp_key.o
    0x0800124c   0x0800124c   0x00000018   Code   RO         7316    i.GetPinStateOfKey3  bsp_key.o
    0x08001264   0x08001264   0x00000018   Code   RO         7317    i.GetPinStateOfKey4  bsp_key.o
    0x0800127c   0x0800127c   0x00000018   Code   RO         7318    i.GetPinStateOfKey5  bsp_key.o
    0x08001294   0x08001294   0x00000110   Code   RO         3840    i.HAL_CAN_ConfigFilter  stm32f4xx_hal_can.o
    0x080013a4   0x080013a4   0x00000002   Code   RO         3842    i.HAL_CAN_ErrorCallback  stm32f4xx_hal_can.o
    0x080013a6   0x080013a6   0x00000002   PAD
    0x080013a8   0x080013a8   0x00000204   Code   RO         3845    i.HAL_CAN_IRQHandler  stm32f4xx_hal_can.o
    0x080015ac   0x080015ac   0x000001a4   Code   RO         3846    i.HAL_CAN_Init      stm32f4xx_hal_can.o
    0x08001750   0x08001750   0x00000090   Code   RO         7926    i.HAL_CAN_MspInit   bsp_can.o
    0x080017e0   0x080017e0   0x00000102   Code   RO         3850    i.HAL_CAN_Receive_IT  stm32f4xx_hal_can.o
    0x080018e2   0x080018e2   0x00000006   PAD
    0x080018e8   0x080018e8   0x000000c4   Code   RO         7927    i.HAL_CAN_RxCpltCallback  bsp_can.o
    0x080019ac   0x080019ac   0x00000002   Code   RO         3855    i.HAL_CAN_TxCpltCallback  stm32f4xx_hal_can.o
    0x080019ae   0x080019ae   0x00000024   Code   RO         1794    i.HAL_DMA_Abort_IT  stm32f4xx_hal_dma.o
    0x080019d2   0x080019d2   0x0000001e   Code   RO         2110    i.HAL_Delay         stm32f4xx_hal.o
    0x080019f0   0x080019f0   0x00000138   Code   RO         4266    i.HAL_ETH_ConfigMAC  stm32f4xx_hal_eth.o
    0x08001b28   0x08001b28   0x00000080   Code   RO         4267    i.HAL_ETH_DMARxDescListInit  stm32f4xx_hal_eth.o
    0x08001ba8   0x08001ba8   0x0000008e   Code   RO         4268    i.HAL_ETH_DMATxDescListInit  stm32f4xx_hal_eth.o
    0x08001c36   0x08001c36   0x000000a0   Code   RO         4272    i.HAL_ETH_GetReceivedFrame_IT  stm32f4xx_hal_eth.o
    0x08001cd6   0x08001cd6   0x00000002   PAD
    0x08001cd8   0x08001cd8   0x00000270   Code   RO         4275    i.HAL_ETH_Init      stm32f4xx_hal_eth.o
    0x08001f48   0x08001f48   0x00000108   Code   RO         1124    i.HAL_ETH_MspInit   ethernetif.o
    0x08002050   0x08002050   0x0000008c   Code   RO         4278    i.HAL_ETH_ReadPHYRegister  stm32f4xx_hal_eth.o
    0x080020dc   0x080020dc   0x00000046   Code   RO         4280    i.HAL_ETH_Start     stm32f4xx_hal_eth.o
    0x08002122   0x08002122   0x00000136   Code   RO         4282    i.HAL_ETH_TransmitFrame  stm32f4xx_hal_eth.o
    0x08002258   0x08002258   0x00000084   Code   RO         4284    i.HAL_ETH_WritePHYRegister  stm32f4xx_hal_eth.o
    0x080022dc   0x080022dc   0x0000021c   Code   RO         1479    i.HAL_GPIO_Init     stm32f4xx_hal_gpio.o
    0x080024f8   0x080024f8   0x0000000e   Code   RO         1481    i.HAL_GPIO_ReadPin  stm32f4xx_hal_gpio.o
    0x08002506   0x08002506   0x00000008   Code   RO         1482    i.HAL_GPIO_TogglePin  stm32f4xx_hal_gpio.o
    0x0800250e   0x0800250e   0x0000000e   Code   RO         1483    i.HAL_GPIO_WritePin  stm32f4xx_hal_gpio.o
    0x0800251c   0x0800251c   0x0000000c   Code   RO         2116    i.HAL_GetTick       stm32f4xx_hal.o
    0x08002528   0x08002528   0x00000010   Code   RO         2118    i.HAL_IncTick       stm32f4xx_hal.o
    0x08002538   0x08002538   0x00000034   Code   RO         2119    i.HAL_Init          stm32f4xx_hal.o
    0x0800256c   0x0800256c   0x00000028   Code   RO         2120    i.HAL_InitTick      stm32f4xx_hal.o
    0x08002594   0x08002594   0x00000068   Code   RO          507    i.HAL_MspInit       stm32f4xx_hal_msp.o
    0x080025fc   0x080025fc   0x00000018   Code   RO         1547    i.HAL_NVIC_EnableIRQ  stm32f4xx_hal_cortex.o
    0x08002614   0x08002614   0x00000068   Code   RO         1553    i.HAL_NVIC_SetPriority  stm32f4xx_hal_cortex.o
    0x0800267c   0x0800267c   0x00000024   Code   RO         1554    i.HAL_NVIC_SetPriorityGrouping  stm32f4xx_hal_cortex.o
    0x080026a0   0x080026a0   0x000001f0   Code   RO         1897    i.HAL_RCC_ClockConfig  stm32f4xx_hal_rcc.o
    0x08002890   0x08002890   0x0000000c   Code   RO         1900    i.HAL_RCC_EnableCSS  stm32f4xx_hal_rcc.o
    0x0800289c   0x0800289c   0x0000000c   Code   RO         1902    i.HAL_RCC_GetHCLKFreq  stm32f4xx_hal_rcc.o
    0x080028a8   0x080028a8   0x0000002c   Code   RO         1904    i.HAL_RCC_GetPCLK1Freq  stm32f4xx_hal_rcc.o
    0x080028d4   0x080028d4   0x0000002c   Code   RO         1905    i.HAL_RCC_GetPCLK2Freq  stm32f4xx_hal_rcc.o
    0x08002900   0x08002900   0x0000008c   Code   RO         1906    i.HAL_RCC_GetSysClockFreq  stm32f4xx_hal_rcc.o
    0x0800298c   0x0800298c   0x00000440   Code   RO         1909    i.HAL_RCC_OscConfig  stm32f4xx_hal_rcc.o
    0x08002dcc   0x08002dcc   0x0000001c   Code   RO         1556    i.HAL_SYSTICK_CLKSourceConfig  stm32f4xx_hal_cortex.o
    0x08002de8   0x08002de8   0x00000002   Code   RO         1557    i.HAL_SYSTICK_Callback  stm32f4xx_hal_cortex.o
    0x08002dea   0x08002dea   0x00000002   PAD
    0x08002dec   0x08002dec   0x00000028   Code   RO         1558    i.HAL_SYSTICK_Config  stm32f4xx_hal_cortex.o
    0x08002e14   0x08002e14   0x00000008   Code   RO         1559    i.HAL_SYSTICK_IRQHandler  stm32f4xx_hal_cortex.o
    0x08002e1c   0x08002e1c   0x00000060   Code   RO         8343    i.HAL_TIM3_Base_MspDeInit  bsp_us100_tim.o
    0x08002e7c   0x08002e7c   0x00000088   Code   RO         8345    i.HAL_TIM3_IC_CaptureCallback  bsp_us100_tim.o
    0x08002f04   0x08002f04   0x00000010   Code   RO         8346    i.HAL_TIM3_PeriodElapsedCallback  bsp_us100_tim.o
    0x08002f14   0x08002f14   0x00000002   Code   RO         2352    i.HAL_TIMEx_BreakCallback  stm32f4xx_hal_tim_ex.o
    0x08002f16   0x08002f16   0x00000002   Code   RO         2353    i.HAL_TIMEx_CommutationCallback  stm32f4xx_hal_tim_ex.o
    0x08002f18   0x08002f18   0x00000066   Code   RO         2369    i.HAL_TIMEx_MasterConfigSynchronization  stm32f4xx_hal_tim_ex.o
    0x08002f7e   0x08002f7e   0x00000038   Code   RO         2593    i.HAL_TIM_Base_Init  stm32f4xx_hal_tim.o
    0x08002fb6   0x08002fb6   0x00000002   PAD
    0x08002fb8   0x08002fb8   0x0000004c   Code   RO         7824    i.HAL_TIM_Base_MspInit  bsp_basictim.o
    0x08003004   0x08003004   0x0000001a   Code   RO         2596    i.HAL_TIM_Base_Start  stm32f4xx_hal_tim.o
    0x0800301e   0x0800301e   0x00000018   Code   RO         2598    i.HAL_TIM_Base_Start_IT  stm32f4xx_hal_tim.o
    0x08003036   0x08003036   0x00000110   Code   RO         2602    i.HAL_TIM_ConfigClockSource  stm32f4xx_hal_tim.o
    0x08003146   0x08003146   0x00000004   Code   RO           14    i.HAL_TIM_IC_CaptureCallback  main.o
    0x0800314a   0x0800314a   0x000000be   Code   RO         2623    i.HAL_TIM_IC_ConfigChannel  stm32f4xx_hal_tim.o
    0x08003208   0x08003208   0x00000054   Code   RO         2631    i.HAL_TIM_IC_Start_IT  stm32f4xx_hal_tim.o
    0x0800325c   0x0800325c   0x00000174   Code   RO         2635    i.HAL_TIM_IRQHandler  stm32f4xx_hal_tim.o
    0x080033d0   0x080033d0   0x00000056   Code   RO         2636    i.HAL_TIM_OC_ConfigChannel  stm32f4xx_hal_tim.o
    0x08003426   0x08003426   0x00000002   PAD
    0x08003428   0x08003428   0x00000044   Code   RO           15    i.HAL_TIM_OC_DelayElapsedCallback  main.o
    0x0800346c   0x0800346c   0x0000004c   Code   RO         2652    i.HAL_TIM_OnePulse_Init  stm32f4xx_hal_tim.o
    0x080034b8   0x080034b8   0x0000003c   Code   RO         7394    i.HAL_TIM_OnePulse_MspInit  bsp_generaltim.o
    0x080034f4   0x080034f4   0x00000002   Code   RO         2665    i.HAL_TIM_PWM_PulseFinishedCallback  stm32f4xx_hal_tim.o
    0x080034f6   0x080034f6   0x00000002   PAD
    0x080034f8   0x080034f8   0x0000009c   Code   RO           16    i.HAL_TIM_PeriodElapsedCallback  main.o
    0x08003594   0x08003594   0x00000044   Code   RO         2673    i.HAL_TIM_ReadCapturedValue  stm32f4xx_hal_tim.o
    0x080035d8   0x080035d8   0x00000002   Code   RO         2676    i.HAL_TIM_TriggerCallback  stm32f4xx_hal_tim.o
    0x080035da   0x080035da   0x00000002   Code   RO         3253    i.HAL_UART_ErrorCallback  stm32f4xx_hal_uart.o
    0x080035dc   0x080035dc   0x00000138   Code   RO         3256    i.HAL_UART_IRQHandler  stm32f4xx_hal_uart.o
    0x08003714   0x08003714   0x00000064   Code   RO         3257    i.HAL_UART_Init     stm32f4xx_hal_uart.o
    0x08003778   0x08003778   0x000000f4   Code   RO         7007    i.HAL_UART_MspInit  bsp_debug_usart.o
    0x0800386c   0x0800386c   0x0000004c   Code   RO         3262    i.HAL_UART_Receive_IT  stm32f4xx_hal_uart.o
    0x080038b8   0x080038b8   0x0000008c   Code   RO           17    i.HAL_UART_RxCpltCallback  main.o
    0x08003944   0x08003944   0x000000dc   Code   RO         3265    i.HAL_UART_Transmit  stm32f4xx_hal_uart.o
    0x08003a20   0x08003a20   0x00000002   Code   RO         3268    i.HAL_UART_TxCpltCallback  stm32f4xx_hal_uart.o
    0x08003a22   0x08003a22   0x00000002   Code   RO          762    i.HardFault_Handler  stm32f4xx_it.o
    0x08003a24   0x08003a24   0x000000b8   Code   RO         7319    i.KEY_GPIO_Init     bsp_key.o
    0x08003adc   0x08003adc   0x00000010   Code   RO         7320    i.KeyCreate         bsp_key.o
    0x08003aec   0x08003aec   0x0000000e   Code   RO         7322    i.Key_AccessTimes   bsp_key.o
    0x08003afa   0x08003afa   0x00000084   Code   RO         7323    i.Key_RefreshState  bsp_key.o
    0x08003b7e   0x08003b7e   0x00000002   PAD
    0x08003b80   0x08003b80   0x000000a0   Code   RO         7434    i.LED_GPIO_Init     bsp_led.o
    0x08003c20   0x08003c20   0x00000038   Code   RO         7467    i.MB_CRC16          bsp_mb_host.o
    0x08003c58   0x08003c58   0x00000038   Code   RO         7859    i.MB_CRC16_RS232    bsp_usartx_rs232.o
    0x08003c90   0x08003c90   0x000002bc   Code   RO         7860    i.MB_ReadCoil_03H_RS232  bsp_usartx_rs232.o
    0x08003f4c   0x08003f4c   0x00000164   Code   RO         7861    i.MB_ReadCoil_05H_RS232  bsp_usartx_rs232.o
    0x080040b0   0x080040b0   0x000000d4   Code   RO         7862    i.MB_ReadCoil_10H_RS232  bsp_usartx_rs232.o
    0x08004184   0x08004184   0x00000034   Code   RO         7469    i.MB_ReadHoldingReg_03H  bsp_mb_host.o
    0x080041b8   0x080041b8   0x00000074   Code   RO         7928    i.MX_CAN_Init       bsp_can.o
    0x0800422c   0x0800422c   0x00000044   Code   RO         7008    i.MX_DEBUG_USART_Init  bsp_debug_usart.o
    0x08004270   0x08004270   0x00000054   Code   RO         7009    i.MX_RS232_USART_Init  bsp_debug_usart.o
    0x080042c4   0x080042c4   0x00000002   Code   RO          763    i.MemManage_Handler  stm32f4xx_it.o
    0x080042c6   0x080042c6   0x00000002   Code   RO          764    i.NMI_Handler       stm32f4xx_it.o
    0x080042c8   0x080042c8   0x00000050   Code   RO          914    i.Netif_Config      app_ethernet.o
    0x08004318   0x08004318   0x00000002   Code   RO          765    i.PendSV_Handler    stm32f4xx_it.o
    0x0800431a   0x0800431a   0x00000002   Code   RO          766    i.RCC_IRQHandler    stm32f4xx_it.o
    0x0800431c   0x0800431c   0x00000098   Code   RO         7774    i.RS485_GPIO_Init   bsp_usartx_rs485.o
    0x080043b4   0x080043b4   0x00000060   Code   RO         7775    i.RS485_USARTx_Init  bsp_usartx_rs485.o
    0x08004414   0x08004414   0x00000060   Code   RO         7776    i.RS485_USARTx_Init_4800  bsp_usartx_rs485.o
    0x08004474   0x08004474   0x000001f0   Code   RO           18    i.Rx_RS485_function  main.o
    0x08004664   0x08004664   0x00000002   Code   RO          767    i.SVC_Handler       stm32f4xx_it.o
    0x08004666   0x08004666   0x0000000e   Code   RO          768    i.SysTick_Handler   stm32f4xx_it.o
    0x08004674   0x08004674   0x0000009c   Code   RO           19    i.SystemClock_Config  main.o
    0x08004710   0x08004710   0x00000058   Code   RO         6969    i.SystemInit        system_stm32f4xx.o
    0x08004768   0x08004768   0x0000000c   Code   RO          769    i.TIM3_IRQHandler   stm32f4xx_it.o
    0x08004774   0x08004774   0x0000000c   Code   RO          770    i.TIM4_IRQHandler   stm32f4xx_it.o
    0x08004780   0x08004780   0x0000000c   Code   RO          771    i.TIM5_IRQHandler   stm32f4xx_it.o
    0x0800478c   0x0800478c   0x0000000c   Code   RO          772    i.TIM6_DAC_IRQHandler  stm32f4xx_it.o
    0x08004798   0x08004798   0x000000c8   Code   RO         2677    i.TIM_Base_SetConfig  stm32f4xx_hal_tim.o
    0x08004860   0x08004860   0x0000001a   Code   RO         2678    i.TIM_CCxChannelCmd  stm32f4xx_hal_tim.o
    0x0800487a   0x0800487a   0x00000016   Code   RO         2684    i.TIM_ETR_SetConfig  stm32f4xx_hal_tim.o
    0x08004890   0x08004890   0x00000010   Code   RO         2685    i.TIM_ITRx_SetConfig  stm32f4xx_hal_tim.o
    0x080048a0   0x080048a0   0x00000068   Code   RO         2686    i.TIM_OC1_SetConfig  stm32f4xx_hal_tim.o
    0x08004908   0x08004908   0x00000070   Code   RO         2687    i.TIM_OC2_SetConfig  stm32f4xx_hal_tim.o
    0x08004978   0x08004978   0x00000070   Code   RO         2688    i.TIM_OC3_SetConfig  stm32f4xx_hal_tim.o
    0x080049e8   0x080049e8   0x00000058   Code   RO         2689    i.TIM_OC4_SetConfig  stm32f4xx_hal_tim.o
    0x08004a40   0x08004a40   0x00000026   Code   RO         2691    i.TIM_TI1_ConfigInputStage  stm32f4xx_hal_tim.o
    0x08004a66   0x08004a66   0x00000092   Code   RO         2692    i.TIM_TI1_SetConfig  stm32f4xx_hal_tim.o
    0x08004af8   0x08004af8   0x00000024   Code   RO         2693    i.TIM_TI2_ConfigInputStage  stm32f4xx_hal_tim.o
    0x08004b1c   0x08004b1c   0x00000040   Code   RO         2694    i.TIM_TI2_SetConfig  stm32f4xx_hal_tim.o
    0x08004b5c   0x08004b5c   0x0000003c   Code   RO         2695    i.TIM_TI3_SetConfig  stm32f4xx_hal_tim.o
    0x08004b98   0x08004b98   0x00000040   Code   RO         2696    i.TIM_TI4_SetConfig  stm32f4xx_hal_tim.o
    0x08004bd8   0x08004bd8   0x00000044   Code   RO         8347    i.TROPIN_GPIO_Init  bsp_us100_tim.o
    0x08004c1c   0x08004c1c   0x0000000c   Code   RO          773    i.UART4_IRQHandler  stm32f4xx_it.o
    0x08004c28   0x08004c28   0x0000000c   Code   RO          774    i.UART5_IRQHandler  stm32f4xx_it.o
    0x08004c34   0x08004c34   0x00000010   Code   RO         3270    i.UART_DMAAbortOnError  stm32f4xx_hal_uart.o
    0x08004c44   0x08004c44   0x0000001c   Code   RO         3280    i.UART_EndRxTransfer  stm32f4xx_hal_uart.o
    0x08004c60   0x08004c60   0x0000001a   Code   RO         3281    i.UART_EndTransmit_IT  stm32f4xx_hal_uart.o
    0x08004c7a   0x08004c7a   0x00000002   PAD
    0x08004c7c   0x08004c7c   0x00000024   Code   RO         7010    i.UART_RS232_Tx     bsp_debug_usart.o
    0x08004ca0   0x08004ca0   0x00000092   Code   RO         3283    i.UART_Receive_IT   stm32f4xx_hal_uart.o
    0x08004d32   0x08004d32   0x00000002   PAD
    0x08004d34   0x08004d34   0x00000344   Code   RO         3284    i.UART_SetConfig    stm32f4xx_hal_uart.o
    0x08005078   0x08005078   0x00000066   Code   RO         3285    i.UART_Transmit_IT  stm32f4xx_hal_uart.o
    0x080050de   0x080050de   0x00000002   PAD
    0x080050e0   0x080050e0   0x00000038   Code   RO         7777    i.UART_Tx           bsp_usartx_rs485.o
    0x08005118   0x08005118   0x00000078   Code   RO         3286    i.UART_WaitOnFlagUntilTimeout  stm32f4xx_hal_uart.o
    0x08005190   0x08005190   0x0000004c   Code   RO         8349    i.US100_TIM3_Init   bsp_us100_tim.o
    0x080051dc   0x080051dc   0x00000050   Code   RO         8286    i.US100_USARTx_Init  bsp_us100_usartx.o
    0x0800522c   0x0800522c   0x0000003c   Code   RO         8287    i.US100_USARTx_Rx_data  bsp_us100_usartx.o
    0x08005268   0x08005268   0x00000060   Code   RO         8288    i.US100_USARTx_main  bsp_us100_usartx.o
    0x080052c8   0x080052c8   0x0000000c   Code   RO          775    i.USART2_IRQHandler  stm32f4xx_it.o
    0x080052d4   0x080052d4   0x0000000c   Code   RO          776    i.USART3_IRQHandler  stm32f4xx_it.o
    0x080052e0   0x080052e0   0x00000058   Code   RO         8289    i.USART_GPIO_Init   bsp_us100_usartx.o
    0x08005338   0x08005338   0x00000002   Code   RO          777    i.UsageFault_Handler  stm32f4xx_it.o
    0x0800533a   0x0800533a   0x00000002   PAD
    0x0800533c   0x0800533c   0x00000210   Code   RO         1232    i.YSF4_TCP_SENDData  tcp_echoserver.o
    0x0800554c   0x0800554c   0x00000020   Code   RO        10711    i.__0printf         mc_w.l(printfa.o)
    0x0800556c   0x0800556c   0x00000028   Code   RO        10713    i.__0sprintf        mc_w.l(printfa.o)
    0x08005594   0x08005594   0x0000000e   Code   RO        10791    i.__scatterload_copy  mc_w.l(handlers.o)
    0x080055a2   0x080055a2   0x00000002   Code   RO        10792    i.__scatterload_null  mc_w.l(handlers.o)
    0x080055a4   0x080055a4   0x0000000e   Code   RO        10793    i.__scatterload_zeroinit  mc_w.l(handlers.o)
    0x080055b2   0x080055b2   0x00000002   PAD
    0x080055b4   0x080055b4   0x00000184   Code   RO        10718    i._fp_digits        mc_w.l(printfa.o)
    0x08005738   0x08005738   0x000006dc   Code   RO        10719    i._printf_core      mc_w.l(printfa.o)
    0x08005e14   0x08005e14   0x00000024   Code   RO        10720    i._printf_post_padding  mc_w.l(printfa.o)
    0x08005e38   0x08005e38   0x0000002e   Code   RO        10721    i._printf_pre_padding  mc_w.l(printfa.o)
    0x08005e66   0x08005e66   0x0000000a   Code   RO        10723    i._sputc            mc_w.l(printfa.o)
    0x08005e70   0x08005e70   0x0000001c   Code   RO        10286    i.cyclic_timer      timeouts.o
    0x08005e8c   0x08005e8c   0x0000001e   Code   RO         8449    i.dhcp_arp_reply    dhcp.o
    0x08005eaa   0x08005eaa   0x00000002   PAD
    0x08005eac   0x08005eac   0x000000f0   Code   RO         8450    i.dhcp_bind         dhcp.o
    0x08005f9c   0x08005f9c   0x00000034   Code   RO         8451    i.dhcp_check        dhcp.o
    0x08005fd0   0x08005fd0   0x00000068   Code   RO         8453    i.dhcp_coarse_tmr   dhcp.o
    0x08006038   0x08006038   0x00000134   Code   RO         8454    i.dhcp_create_msg   dhcp.o
    0x0800616c   0x0800616c   0x00000020   Code   RO         8455    i.dhcp_dec_pcb_refcount  dhcp.o
    0x0800618c   0x0800618c   0x00000090   Code   RO         8456    i.dhcp_decline      dhcp.o
    0x0800621c   0x0800621c   0x00000018   Code   RO         8457    i.dhcp_delete_msg   dhcp.o
    0x08006234   0x08006234   0x000000d8   Code   RO         8458    i.dhcp_discover     dhcp.o
    0x0800630c   0x0800630c   0x00000034   Code   RO         8459    i.dhcp_fine_tmr     dhcp.o
    0x08006340   0x08006340   0x0000006c   Code   RO         8460    i.dhcp_handle_ack   dhcp.o
    0x080063ac   0x080063ac   0x00000028   Code   RO         8461    i.dhcp_handle_nak   dhcp.o
    0x080063d4   0x080063d4   0x00000034   Code   RO         8462    i.dhcp_handle_offer  dhcp.o
    0x08006408   0x08006408   0x00000054   Code   RO         8463    i.dhcp_inc_pcb_refcount  dhcp.o
    0x0800645c   0x0800645c   0x00000030   Code   RO         8465    i.dhcp_network_changed  dhcp.o
    0x0800648c   0x0800648c   0x00000022   Code   RO         8466    i.dhcp_option       dhcp.o
    0x080064ae   0x080064ae   0x0000000e   Code   RO         8467    i.dhcp_option_byte  dhcp.o
    0x080064bc   0x080064bc   0x00000044   Code   RO         8468    i.dhcp_option_long  dhcp.o
    0x08006500   0x08006500   0x00000020   Code   RO         8469    i.dhcp_option_short  dhcp.o
    0x08006520   0x08006520   0x00000032   Code   RO         8470    i.dhcp_option_trailer  dhcp.o
    0x08006552   0x08006552   0x00000002   PAD
    0x08006554   0x08006554   0x000002bc   Code   RO         8471    i.dhcp_parse_reply  dhcp.o
    0x08006810   0x08006810   0x000000b8   Code   RO         8472    i.dhcp_rebind       dhcp.o
    0x080068c8   0x080068c8   0x000000d4   Code   RO         8473    i.dhcp_reboot       dhcp.o
    0x0800699c   0x0800699c   0x00000104   Code   RO         8474    i.dhcp_recv         dhcp.o
    0x08006aa0   0x08006aa0   0x000000b4   Code   RO         8475    i.dhcp_release      dhcp.o
    0x08006b54   0x08006b54   0x000000b8   Code   RO         8476    i.dhcp_renew        dhcp.o
    0x08006c0c   0x08006c0c   0x00000104   Code   RO         8477    i.dhcp_select       dhcp.o
    0x08006d10   0x08006d10   0x00000010   Code   RO         8478    i.dhcp_set_state    dhcp.o
    0x08006d20   0x08006d20   0x00000094   Code   RO         8480    i.dhcp_start        dhcp.o
    0x08006db4   0x08006db4   0x00000024   Code   RO         8481    i.dhcp_stop         dhcp.o
    0x08006dd8   0x08006dd8   0x0000001e   Code   RO         8482    i.dhcp_supplied_address  dhcp.o
    0x08006df6   0x08006df6   0x0000002a   Code   RO         8483    i.dhcp_t1_timeout   dhcp.o
    0x08006e20   0x08006e20   0x0000002e   Code   RO         8484    i.dhcp_t2_timeout   dhcp.o
    0x08006e4e   0x08006e4e   0x0000007c   Code   RO         8485    i.dhcp_timeout      dhcp.o
    0x08006eca   0x08006eca   0x0000000c   Code   RO         9357    i.do_memp_free_pool  memp.o
    0x08006ed6   0x08006ed6   0x00000012   Code   RO         9358    i.do_memp_malloc_pool  memp.o
    0x08006ee8   0x08006ee8   0x00000030   Code   RO         8742    i.etharp_cleanup_netif  etharp.o
    0x08006f18   0x08006f18   0x0000010c   Code   RO         8744    i.etharp_find_entry  etharp.o
    0x08007024   0x08007024   0x00000028   Code   RO         8745    i.etharp_free_entry  etharp.o
    0x0800704c   0x0800704c   0x000000c8   Code   RO         8747    i.etharp_input      etharp.o
    0x08007114   0x08007114   0x0000010c   Code   RO         8748    i.etharp_output     etharp.o
    0x08007220   0x08007220   0x00000060   Code   RO         8749    i.etharp_output_to_arp_index  etharp.o
    0x08007280   0x08007280   0x00000128   Code   RO         8750    i.etharp_query      etharp.o
    0x080073a8   0x080073a8   0x0000008a   Code   RO         8751    i.etharp_raw        etharp.o
    0x08007432   0x08007432   0x00000002   PAD
    0x08007434   0x08007434   0x0000000c   Code   RO         8752    i.etharp_request    etharp.o
    0x08007440   0x08007440   0x00000028   Code   RO         8753    i.etharp_request_dst  etharp.o
    0x08007468   0x08007468   0x00000064   Code   RO         8754    i.etharp_tmr        etharp.o
    0x080074cc   0x080074cc   0x00000084   Code   RO         8755    i.etharp_update_arp_entry  etharp.o
    0x08007550   0x08007550   0x000000a8   Code   RO         9118    i.ethernet_input    ethernet.o
    0x080075f8   0x080075f8   0x000000e4   Code   RO         1125    i.ethernet_link_check_state  ethernetif.o
    0x080076dc   0x080076dc   0x0000007c   Code   RO          916    i.ethernet_link_status_updated  app_ethernet.o
    0x08007758   0x08007758   0x00000052   Code   RO         9119    i.ethernet_output   ethernet.o
    0x080077aa   0x080077aa   0x00000002   PAD
    0x080077ac   0x080077ac   0x00000028   Code   RO         1126    i.ethernetif_init   ethernetif.o
    0x080077d4   0x080077d4   0x00000026   Code   RO         1127    i.ethernetif_input  ethernetif.o
    0x080077fa   0x080077fa   0x00000002   PAD
    0x080077fc   0x080077fc   0x0000001c   Code   RO         7012    i.fputc             bsp_debug_usart.o
    0x08007818   0x08007818   0x00000008   Code   RO         8839    i.icmp_dest_unreach  icmp.o
    0x08007820   0x08007820   0x00000144   Code   RO         8840    i.icmp_input        icmp.o
    0x08007964   0x08007964   0x00000072   Code   RO         8841    i.icmp_send_response  icmp.o
    0x080079d6   0x080079d6   0x00000008   Code   RO         8842    i.icmp_time_exceeded  icmp.o
    0x080079de   0x080079de   0x0000004c   Code   RO         9199    i.inet_chksum_pbuf  inet_chksum.o
    0x08007a2a   0x08007a2a   0x00000050   Code   RO         8940    i.ip4_addr_isbroadcast_u32  ip4_addr.o
    0x08007a7a   0x08007a7a   0x00000002   PAD
    0x08007a7c   0x08007a7c   0x000001a4   Code   RO         8994    i.ip4_frag          ip4_frag.o
    0x08007c20   0x08007c20   0x000001f4   Code   RO         8883    i.ip4_input         ip4.o
    0x08007e14   0x08007e14   0x0000002c   Code   RO         8885    i.ip4_output_if     ip4.o
    0x08007e40   0x08007e40   0x000000bc   Code   RO         8886    i.ip4_output_if_src  ip4.o
    0x08007efc   0x08007efc   0x00000180   Code   RO         8995    i.ip4_reass         ip4_frag.o
    0x0800807c   0x0800807c   0x00000074   Code   RO         8887    i.ip4_route         ip4.o
    0x080080f0   0x080080f0   0x0000000c   Code   RO         8943    i.ip4addr_ntoa      ip4_addr.o
    0x080080fc   0x080080fc   0x000000b0   Code   RO         8944    i.ip4addr_ntoa_r    ip4_addr.o
    0x080081ac   0x080081ac   0x00000006   Code   RO         8996    i.ip_frag_alloc_pbuf_custom_ref  ip4_frag.o
    0x080081b2   0x080081b2   0x00000008   Code   RO         8997    i.ip_frag_free_pbuf_custom_ref  ip4_frag.o
    0x080081ba   0x080081ba   0x00000002   PAD
    0x080081bc   0x080081bc   0x000000f8   Code   RO         8998    i.ip_reass_chain_frag_into_datagram_and_validate  ip4_frag.o
    0x080082b4   0x080082b4   0x00000020   Code   RO         8999    i.ip_reass_dequeue_datagram  ip4_frag.o
    0x080082d4   0x080082d4   0x00000064   Code   RO         9000    i.ip_reass_enqueue_new_datagram  ip4_frag.o
    0x08008338   0x08008338   0x0000007c   Code   RO         9001    i.ip_reass_free_complete_datagram  ip4_frag.o
    0x080083b4   0x080083b4   0x0000007c   Code   RO         9002    i.ip_reass_remove_oldest_datagram  ip4_frag.o
    0x08008430   0x08008430   0x00000030   Code   RO         9003    i.ip_reass_tmr      ip4_frag.o
    0x08008460   0x08008460   0x00000018   Code   RO         9004    i.ipfrag_free_pbuf_custom  ip4_frag.o
    0x08008478   0x08008478   0x0000011c   Code   RO         1129    i.low_level_init    ethernetif.o
    0x08008594   0x08008594   0x000000c4   Code   RO         1130    i.low_level_input   ethernetif.o
    0x08008658   0x08008658   0x000000b8   Code   RO         1131    i.low_level_output  ethernetif.o
    0x08008710   0x08008710   0x0000000c   Code   RO         1132    i.lwip_IT_handle    ethernetif.o
    0x0800871c   0x0800871c   0x00000018   Code   RO         9149    i.lwip_htonl        def.o
    0x08008734   0x08008734   0x0000000a   Code   RO         9150    i.lwip_htons        def.o
    0x0800873e   0x0800873e   0x0000001e   Code   RO         9266    i.lwip_init         init.o
    0x0800875c   0x0800875c   0x0000005a   Code   RO         9206    i.lwip_standard_chksum  inet_chksum.o
    0x080087b6   0x080087b6   0x00000002   PAD
    0x080087b8   0x080087b8   0x000001a4   Code   RO           21    i.main              main.o
    0x0800895c   0x0800895c   0x0000012c   Code   RO           22    i.main_RS232        main.o
    0x08008a88   0x08008a88   0x000002c8   Code   RO           23    i.main_RS485        main.o
    0x08008d50   0x08008d50   0x0000002c   Code   RO         9313    i.mem_free          mem.o
    0x08008d7c   0x08008d7c   0x00000034   Code   RO         9314    i.mem_init          mem.o
    0x08008db0   0x08008db0   0x000000c0   Code   RO         9315    i.mem_malloc        mem.o
    0x08008e70   0x08008e70   0x000000e4   Code   RO         9316    i.mem_trim          mem.o
    0x08008f54   0x08008f54   0x00000018   Code   RO         9359    i.memp_free         memp.o
    0x08008f6c   0x08008f6c   0x0000001c   Code   RO         9361    i.memp_init         memp.o
    0x08008f88   0x08008f88   0x0000002e   Code   RO         9362    i.memp_init_pool    memp.o
    0x08008fb6   0x08008fb6   0x00000002   PAD
    0x08008fb8   0x08008fb8   0x00000018   Code   RO         9363    i.memp_malloc       memp.o
    0x08008fd0   0x08008fd0   0x00000058   Code   RO         9460    i.netif_add         netif.o
    0x08009028   0x08009028   0x00000002   Code   RO         9462    i.netif_init        netif.o
    0x0800902a   0x0800902a   0x0000001e   Code   RO         9464    i.netif_issue_reports  netif.o
    0x08009048   0x08009048   0x0000004c   Code   RO         9466    i.netif_set_addr    netif.o
    0x08009094   0x08009094   0x0000000c   Code   RO         9467    i.netif_set_default  netif.o
    0x080090a0   0x080090a0   0x0000001e   Code   RO         9468    i.netif_set_down    netif.o
    0x080090be   0x080090be   0x0000000e   Code   RO         9469    i.netif_set_gw      netif.o
    0x080090cc   0x080090cc   0x00000048   Code   RO         9470    i.netif_set_ipaddr  netif.o
    0x08009114   0x08009114   0x00000008   Code   RO         9471    i.netif_set_link_callback  netif.o
    0x0800911c   0x0800911c   0x0000001c   Code   RO         9472    i.netif_set_link_down  netif.o
    0x08009138   0x08009138   0x0000003e   Code   RO         9473    i.netif_set_link_up  netif.o
    0x08009176   0x08009176   0x0000000e   Code   RO         9474    i.netif_set_netmask  netif.o
    0x08009184   0x08009184   0x00000020   Code   RO         9475    i.netif_set_up      netif.o
    0x080091a4   0x080091a4   0x0000013a   Code   RO         9571    i.pbuf_alloc        pbuf.o
    0x080092de   0x080092de   0x00000068   Code   RO         9572    i.pbuf_alloced_custom  pbuf.o
    0x08009346   0x08009346   0x00000028   Code   RO         9573    i.pbuf_cat          pbuf.o
    0x0800936e   0x0800936e   0x00000014   Code   RO         9574    i.pbuf_chain        pbuf.o
    0x08009382   0x08009382   0x00000014   Code   RO         9575    i.pbuf_clen         pbuf.o
    0x08009396   0x08009396   0x000000a8   Code   RO         9577    i.pbuf_copy         pbuf.o
    0x0800943e   0x0800943e   0x00000070   Code   RO         9578    i.pbuf_copy_partial  pbuf.o
    0x080094ae   0x080094ae   0x0000005e   Code   RO         9580    i.pbuf_free         pbuf.o
    0x0800950c   0x0800950c   0x00000006   Code   RO         9582    i.pbuf_header       pbuf.o
    0x08009512   0x08009512   0x00000006   Code   RO         9583    i.pbuf_header_force  pbuf.o
    0x08009518   0x08009518   0x0000008a   Code   RO         9584    i.pbuf_header_impl  pbuf.o
    0x080095a2   0x080095a2   0x0000005c   Code   RO         9588    i.pbuf_realloc      pbuf.o
    0x080095fe   0x080095fe   0x0000000c   Code   RO         9589    i.pbuf_ref          pbuf.o
    0x0800960a   0x0800960a   0x0000005e   Code   RO         9593    i.pbuf_take         pbuf.o
    0x08009668   0x08009668   0x00000068   Code   RO         9317    i.plug_holes        mem.o
    0x080096d0   0x080096d0   0x0000004c   Code   RO        10287    i.sys_check_timeouts  timeouts.o
    0x0800971c   0x0800971c   0x00000004   Code   RO         1133    i.sys_now           ethernetif.o
    0x08009720   0x08009720   0x000000a8   Code   RO        10289    i.sys_timeout       timeouts.o
    0x080097c8   0x080097c8   0x00000030   Code   RO        10290    i.sys_timeouts_init  timeouts.o
    0x080097f8   0x080097f8   0x000000d4   Code   RO         9743    i.tcp_abandon       tcp.o
    0x080098cc   0x080098cc   0x00000006   Code   RO         9744    i.tcp_abort         tcp.o
    0x080098d2   0x080098d2   0x0000000e   Code   RO         9745    i.tcp_accept        tcp.o
    0x080098e0   0x080098e0   0x0000000e   Code   RO         9746    i.tcp_accept_null   tcp.o
    0x080098ee   0x080098ee   0x00000002   PAD
    0x080098f0   0x080098f0   0x000000b0   Code   RO         9747    i.tcp_alloc         tcp.o
    0x080099a0   0x080099a0   0x00000008   Code   RO         9748    i.tcp_arg           tcp.o
    0x080099a8   0x080099a8   0x0000009c   Code   RO         9749    i.tcp_bind          tcp.o
    0x08009a44   0x08009a44   0x00000014   Code   RO         9750    i.tcp_close         tcp.o
    0x08009a58   0x08009a58   0x0000018c   Code   RO         9751    i.tcp_close_shutdown  tcp.o
    0x08009be4   0x08009be4   0x0000009a   Code   RO        10160    i.tcp_create_segment  tcp_out.o
    0x08009c7e   0x08009c7e   0x00000002   PAD
    0x08009c80   0x08009c80   0x000000b8   Code   RO         1233    i.tcp_echoserver_accept  tcp_echoserver.o
    0x08009d38   0x08009d38   0x00000042   Code   RO         1235    i.tcp_echoserver_connection_close  tcp_echoserver.o
    0x08009d7a   0x08009d7a   0x0000000a   Code   RO         1236    i.tcp_echoserver_error  tcp_echoserver.o
    0x08009d84   0x08009d84   0x0000002a   Code   RO         1237    i.tcp_echoserver_poll  tcp_echoserver.o
    0x08009dae   0x08009dae   0x00000002   PAD
    0x08009db0   0x08009db0   0x000000e8   Code   RO         1238    i.tcp_echoserver_recv  tcp_echoserver.o
    0x08009e98   0x08009e98   0x00000074   Code   RO         1239    i.tcp_echoserver_send  tcp_echoserver.o
    0x08009f0c   0x08009f0c   0x00000026   Code   RO         9754    i.tcp_eff_send_mss_impl  tcp.o
    0x08009f32   0x08009f32   0x000000be   Code   RO        10161    i.tcp_enqueue_flags  tcp_out.o
    0x08009ff0   0x08009ff0   0x0000000a   Code   RO         9755    i.tcp_err           tcp.o
    0x08009ffa   0x08009ffa   0x00000002   PAD
    0x08009ffc   0x08009ffc   0x00000060   Code   RO         9756    i.tcp_fasttmr       tcp.o
    0x0800a05c   0x0800a05c   0x0000003c   Code   RO        10095    i.tcp_getoptbyte    tcp_in.o
    0x0800a098   0x0800a098   0x00000002   Code   RO         9757    i.tcp_init          tcp.o
    0x0800a09a   0x0800a09a   0x00000002   PAD
    0x0800a09c   0x0800a09c   0x000003d0   Code   RO        10096    i.tcp_input         tcp_in.o
    0x0800a46c   0x0800a46c   0x00000058   Code   RO        10162    i.tcp_keepalive     tcp_out.o
    0x0800a4c4   0x0800a4c4   0x00000048   Code   RO         9758    i.tcp_kill_prio     tcp.o
    0x0800a50c   0x0800a50c   0x00000040   Code   RO         9759    i.tcp_kill_state    tcp.o
    0x0800a54c   0x0800a54c   0x00000034   Code   RO         9760    i.tcp_kill_timewait  tcp.o
    0x0800a580   0x0800a580   0x00000020   Code   RO         9761    i.tcp_listen_closed  tcp.o
    0x0800a5a0   0x0800a5a0   0x000000fc   Code   RO        10097    i.tcp_listen_input  tcp_in.o
    0x0800a69c   0x0800a69c   0x00000090   Code   RO         9762    i.tcp_listen_with_backlog  tcp.o
