:020000040800F2
:10000000D81000209D010008A31B0008E51A000875
:10001000A11B0008870200086920000800000000FA
:10002000000000000000000000000000A91B000804
:10003000BD04000800000000A51B0008AB1B000861
:10004000B7010008B7010008B7010008B7010008B0
:10005000B7010008A71B0008B7010008B701000896
:10006000B7010008B7010008B7010008B701000890
:10007000B7010008B7010008B7010008B701000880
:10008000B7010008B7010008B7010008B701000870
:1000900089020008B7010008B7010008B70100088D
:1000A000B7010008B7010008B7010008B701000850
:1000B000B7010008B7010008B7010008B701000840
:1000C000B7010008B7010008B7010008B701000830
:1000D000B7010008B7010008B7010008B701000820
:1000E000B7010008B7010008B7010008B701000810
:1000F000B7010008B7010008B7010008B701000800
:10010000B7010008B7010008B7010008B7010008EF
:10011000B7010008B7010008B7010008B7010008DF
:10012000B7010008B7010008B7010008B7010008CF
:10013000B7010008B7010008B7010008B7010008BF
:10014000B7010008B7010008B7010008B7010008AF
:10015000B7010008B7010008B7010008B70100089F
:10016000B7010008B7010008B7010008B70100088F
:10017000B7010008B7010008B7010008000000003F
:10018000B7010008B7010008DFF80CD000F04AF80A
:100190000048004789230008D810002006488047FF
:1001A00006480047FEE7FEE7FEE7FEE7FEE7FEE75C
:1001B000FEE7FEE7FEE7FEE7551C000889010008A0
:1001C0002DE9F05F0546002092469B46884606468C
:1001D000814640241BE0284641464746224600F01F
:1001E00042F853465A46C01A914110D31146184658
:1001F000224600F029F82D1A67EB01084F462246E7
:100200000120002100F020F817EB00094E41201ECC
:10021000A4F10104DFDC484631462A464346BDE8E6
:10022000F09F0000064C074D06E0E06840F0010337
:1002300094E8070098471034AC42F6D3FFF7A8FFC4
:10024000D0240008F0240008202A04DB203A00FA19
:1002500002F1002070479140C2F1200320FA03F31D
:10026000194390407047202A04DB203A21FA02F01B
:100270000021704721FA02F3D040C2F120029140E0
:10028000084319467047FEE7014800F0A3B9000093
:100290005000002010B500297ED0826B4FF4D87337
:1002A000D0F800C003EB01135CF803C00CF0040CA1
:1002B000C2F808C0BCF1000F77D0D0F800C05CF8DD
:1002C00003C04FEADC0CC2F804C0D0F800C05CF8F0
:1002D000033003F00203D3604FF4DA73D0F800C0A8
:1002E00003EB01135CF803C00CF00F0CC2F810C054
:1002F0001162D0F800C05CF80330C3F30723D36168
:100300004FF4DC73D0F800C003EB01135CF803C0BA
:1003100082F814C0D0F800C05CF803C04FEA1C2C6F
:1003200082F815C0D0F800C05CF803C04FEA1C4C3E
:1003300082F816C0D0F800C05CF803301B0ED375ED
:100340004FF4DE73D0F800C003EB01135CF803C078
:1003500082F818C0D0F800C05CF803C04FEA1C2C2B
:1003600082F819C0D0F800C05CF803C04FEA1C4CFA
:1003700082F81AC0D0F800C05CF803301B0ED376A8
:100380002022D9B103681A610268536923F050032F
:10039000536190F83C2001E005E006E0222A15D0E8
:1003A000322A13D017E0426B78E7D0F800C05CF82F
:1003B00003C04FEA5C5CC2F800C086E70368DA60FD
:1003C0000268536923F00A035361E2E70268536944
:1003D00023F40F4353611223012269B190F83C10BA
:1003E00052291FD0622920D0722922D080F83C20C7
:1003F00000F08EFB002010BD90F83C10422906D082
:10040000622907D0722909D080F83C20F0E780F8F3
:100410003C30EDE7322180F83C10E9E7522180F8CA
:100420003C10E5E780F83C30E2E7222180F83C1000
:10043000DEE7422180F83C10DAE70000094840F28C
:10044000E971026B1160026B00219160026BD16057
:10045000026B02211161026BAB211175006BCD2182
:10046000417570475000002010B501684A6922F0BC
:1004700001024A6190F83C10122904D101684A69CE
:1004800022F40F424A6190F83C1042290AD05229C6
:100490000CD072290ED0012180F83C1000F0C6FC6F
:1004A000002010BD222180F83C10F7E7322180F8AF
:1004B0003C10F3E7622180F83C10EFE77047000042
:1004C000087D012282404148D0F8003243F0010308
:1004D000C0F80032D0F8003223F47C53C0F8003268
:1004E000D0F80032D1F824C043EA0C23C0F800321F
:1004F000D0F81C329343C0F81C32CB69002B1AD1C0
:10050000D0F80C329343C0F80C32B1F80CC04B68F1
:100510006CF31F43D1F814C000EBCC0CCCF8403284
:10052000B1F808C00B686CF31F43D1F814C000EB9E
:10053000CC0CCCF84432CB69012B1AD1D0F80C3258
:100540001343C0F80C32B1F800C04B686CF31F4382
:10055000D1F814C000EBCC0CCCF84032B1F808C094
:10056000CB686CF31F43D1F814C000EBCC0CCCF873
:1005700044328B693BB1D0F804321343C0F80432E3
:100580000B6933B10AE0D0F804329343C0F8043267
:10059000F6E7D0F814329343C0F814320B69012BFC
:1005A00004D1D0F814321343C0F81432096A012977
:1005B00004D1D0F81C121143C0F81C12D0F800125C
:1005C00021F00101C0F800120020704700640040D3
:1005D0007047000070B5044600252068C168C1F36B
:1005E00000114269C2F3C0021023002902D00AB1EF
:1005F0005D01C36020680169C1F300114269C2F363
:10060000801219B112B145F4806503612068416917
:1006100011F0010F32D081686B4A32EA010120D01B
:1006200000218268694B33EA02021CD000228368F1
:10063000DFF89CC13CEA030317D0002311431943A0
:100640001CD08168C1F340018268C2F340228068F7
:10065000C0F340401143084309D02046FFF704FF90
:1006600007E00121DDE70122E1E70123E6E745F4A8
:10067000006520688168574A114381602068C1681D
:1006800001F003014069C0F3400021B118B100211D
:100690002046FFF7FFFD2068016901F00301406972
:1006A000C0F3001021B118B101212046FFF7F2FD7F
:1006B000206C284320642068816901F001024169AF
:1006C000C1F300214369C3F3C0332AB121B11BB187
:1006D000216C41F0010121648169C1F3400142694B
:1006E000C2F340224369C3F3C03329B122B11BB125
:1006F000216C41F0020121648169C1F380024169EA
:10070000C1F380214369C3F3C0332AB121B11BB1C6
:10071000216C41F004012164816911F0700F08D04F
:1007200000214269C2F3C0224369C3F3C03311B14F
:1007300036E00121F5E79AB393B3816901F07001C6
:1007400040291BD006DC102909D020290CD03029E3
:1007500022D10EE0502916D060291DD118E0216C5D
:1007600041F00801216417E0216C41F0100121647F
:1007700012E0216C41F0200121640DE0216C41F078
:100780004001216408E0216C41F08001216403E014
:10079000216C41F480712164816921F070018161D3
:1007A000206C00280FD0216804204860012084F8C4
:1007B0003C002068416921F05B0121F40F41416157
:1007C0002046FFF705FF70BD03000004000300088A
:1007D00000000310190501002DE9F0410446002630
:1007E000002C04D094F83C00002718B107E0012049
:1007F000BDE8F08184F83D70204600F0BFF802208B
:1008000084F83C002068016821F002010160206842
:10081000016841F00101016000F018FC0546206804
:1008200040684FF0030810F0010F10D100F00EFCEB
:10083000401B0A2806D984F83C8084F83D700320C8
:10084000BDE8F0812068406810F0010FEED020680C
:10085000416811F0010F70D0A169012950D00168E1
:1008600021F080010160E06901284ED02068016814
:1008700021F040010160206A01284CD02068016805
:1008800021F020010160606A01284AD020680168D7
:1008900021F010010160A06A012848D02068016899
:1008A00021F008010160E06A012847D02068016852
:1008B00021F004010160E168A068626908432169D0
:1008C000114308436168491E08432168C8612068D4
:1008D000016821F00101016000F0B8FB05462068C5
:1008E000406810F0010F34D000F0B0FB401B0A2824
:1008F0002AD984F83C8084F83D700320BDE8F0815B
:10090000016841F080010160ADE72068016841F0B5
:1009100040010160AFE72068016841F020010160FB
:10092000B1E72068016841F010010160B3E7206879
:10093000016841F008010160B5E710E02068016836
:1009400041F004010160B6E72068406810F0010F33
:10095000CAD12068406810F0010F00D10126012E95
:1009600005D0042084F83C000120BDE8F081276414
:10097000012084F83C000020BDE8F08170B586B00D
:100980000068A0F18041B1F5C84135D11B4802682B
:1009900042F000720260006800F000700090184899
:1009A000026842F480720260026802F4807200926F
:1009B000026842F002020260006800F0020000904B
:1009C0004FF40075019502240294039109260596BF
:1009D00001A90C4800F02CFA0195029404940596A4
:1009E00001A9094800F024FA00221146142000F061
:1009F000A9FB142000F09AFB06B070BD40380240FD
:100A000030380240000402400020024010B40029A7
:100A10000FD190F83C20222A0ED090F83C20422A98
:100A20000AD090F83C20622A06D090F83C20722A26
:100A300002D0012903D012E010BC0220704790F8C8
:100A40003C20322A37D090F83C20522A33D090F8FC
:100A50003C20622A2FD090F83C20722A2BD090F8AC
:100A60003D20012A2AD0012280F83D204FF0620C5F
:100A7000722331B390F83C20122A38D0222A3AD07F
:100A8000422A3BD0322280F83C20002303640268D3
:100A9000D2F814C048F601744CEA040CC2F814C031
:100AA00080F83D3069B30068416941F0500141610F
:100AB00010BC0020704710BC0220704710BC022000
:100AC000704790F83C20122A07D0322A09D0522AC7
:100AD0000AD0222280F83C20D7E7422280F83C202E
:100AE000D3E780F83CC0D0E780F83C30CDE7522215
:100AF00080F83C20C9E780F83CC0C6E780F83C306D
:100B0000C3E70068416941F00A014161D0E7000094
:100B100070B505460FA001F0A9FA16A001F0A6FADB
:100B2000194C606B416819A001F0A0FA606B016973
:100B30001CA001F09BFA616B20A04A7D097D01F0A9
:100B400095FA00212846FFF761FF284955200870D3
:100B500070BD00000AB3C9B9A6BDD3CAD5B5BDA141
:100B6000B0D6F7BBFAA1B1B7B5BBD8B5C4CAFDBE04
:100B7000DD0A2000BDD3CAD5B5BDB5C4B1A8CEC469
:100B8000CEAAA3BA0A00000050000020A1B7C0A955
:100B9000D5B94944BAC54578744964A3BA307825B3
:100BA000780A0000A1B7BDD3CAD5B5BDCAFDBEDD68
:100BB000B6CEB3A4B6C8A3BA25640A00A1B7CAFDCD
:100BC000BEDDB6CEB5C4C4DAC8DD3A446174615B3B
:100BD000305D3D203078255820A3AC446174615BC2
:100BE000315D3D30782558200A00000000000020CB
:100BF0002DE9F05F04460E462268906810F0806F81
:100C000008D1906810F0006F04D1906810F0805FF8
:100C100000F0008194F83D00012813D0012084F8F1
:100C20003D0094F83C0022280FD0322811D06228D1
:100C300013D0122084F83C00906810F0806F10D020
:100C4000002515E00220BDE8F09F422084F83C001A
:100C5000F2E7522084F83C00EEE7722084F83C0072
:100C6000EAE7906810F0006F01D0012500E002254E
:100C70004FF4C07000EB0510115801F00101115044
:100C8000216B8B68002B75D0226852F800C04CEAAB
:100C90000303D1F80CC049684CEAC1011943115053
:100CA000216B0A7C02F00F020A614FF4C2712268C4
:100CB00001EB0511535823F00F035350226853588A
:100CC000D4F830C0DCF810C043EA0C035350216B59
:100CD0000A7DCB7D42EA03628B7D497D1B0443EA9A
:100CE000012111434FF4C473226803EB0513D15063
:100CF000216B0A7ECB7E42EA03628B7E497E1B0417
:100D000043EA012111434FF4C673226803EB051334
:100D1000D15021680A5842F001020A5000F096F9B9
:100D20000746DFF8FC80DFF8FC90DFF8FCA04FF00E
:100D3000000B55B3012D2ED0206880683AEA0000E0
:100D400040D0B6F1FF3F35D026B100F07FF9C01B8F
:100D5000B0422FD9032084F83C0015B3012D24D0D4
:100D600021684FF40000886084F83DB00320BDE89E
:100D7000F09FFFE722681358D1F80CC0098843EAB6
:100D80000C0343EA415111508AE72068806838EA31
:100D9000000017D0D5E72068806839EA000011D03C
:100DA000CFE7216880208860DEE721684FF40040AB
:100DB0008860D9E7B5B1012D1AD0206880683AEA79
:100DC0000000BED194F83C00422817D0522819D018
:100DD00072281BD0012084F83C0084F83DB000202C
:100DE000BDE8F09F2068806838EA0000A9D1E9E7F3
:100DF0002068806839EA0000A3D1E3E7222084F864
:100E00003C00EAE7322084F83C00E6E7622084F800
:100E10003C00E2E7042084F83C000120BDE8F09F9C
:100E200003000004000300080000031070470000E6
:100E30002DE9F84F0022DFF80082DFF80092DFF89A
:100E400000A24FF0030E0F27012303FA02F50B68EF
:100E50002B40AB427DD1D1F804C0BCF1020F02D0CF
:100E6000BCF1120F12D14FEAD20C00EB8C0CDCF863
:100E700020605407E40E07FA04FB26EA0B06D1F8BB
:100E800010B00BFA04F43443CCF8204006684FEA63
:100E9000420C0EFA0CF4A64391F804B00BF0030BCD
:100EA0000BFA0CFB4BEA060606604E68012E05D0D5
:100EB000022E03D0112E01D0122E11D18668A64326
:100EC000D1F80CB00BFA0CFB4BEA060686604668BC
:100ED00026EA05050E79C6F30016964035434560AF
:100EE000C56825EA04048D6805FA0CFC4CEA040C7C
:100EF000C0F80CC0D1F804C01CF0805F7DD0D8F8D9
:100F000000C04CF4804CC8F800C0D8F800C00CF405
:100F1000804CCDF800C022F0030C0CF1804404F5A5
:100F20009834D4F808C895072D0F07FA05F62CEA6F
:100F30000606A0F1804CBCF5003C64D0A0F1804CCA
:100F4000BCF5013C62D0A0F1804CBCF5023C60D005
:100F500000E052E0A0F1804CBCF5033C5CD0A0F175
:100F6000804CBCF5043C5AD0A0F1804CBCF5053C4B
:100F700058D0A0F1804CBCF5063C56D0A0F1804C76
:100F8000BCF5073C54D04FF0080C0CFA05FC4CEAB9
:100F9000060CC4F808C8D9F800C02CEA030C4C6849
:100FA00014F4803F01D04CEA030CC9F800C0254C72
:100FB000D4F800C02CEA030C4D6815F4003F01D0B2
:100FC0004CEA030CC4F800C0DAF800C02CEA030CA9
:100FD0004C6814F4801F01D04CEA030CCAF800C01E
:100FE000194CD4F800C02CEA030C4D6815F4001F0E
:100FF00001D04CEA030CC4F800C0521C102AFFF4C4
:1010000023AFBDE8F88F4FF0000CBEE74FF0010CA6
:10101000BBE74FF0020CB8E74FF0030CB5E74FF019
:10102000040CB2E74FF0050CAFE74FF0060CACE74D
:101030004FF0070CA9E7000044380240003C014093
:10104000083C0140043C01400C3C01400148006860
:10105000704700000400002002480168491C01603C
:10106000704700000400002010B50B48016841F4EF
:1010700000710160016841F480610160016841F420
:1010800080710160032000F091F8002000F006F864
:1010900000F018F8002010BD003C024010B50446D6
:1010A00007484FF47A720068B0FBF2F000F036FCAB
:1010B00000222146501E00F045F8002010BD00001F
:1010C0000800002010B5032000F070F8002211463F
:1010D0006FF00B0000F036F8002211466FF00A00A6
:1010E00000F030F8002211466FF0090000F02AF8F5
:1010F00000221146501F00F025F800221146101F53
:1011000000F020F800221146901E00F01BF800228B
:101110001146501E00F016F800221146052000F07E
:1011200011F8BDE810400520AFF3008000F01F016A
:10113000012202FA01F14009800000F1E020C0F82C
:101140000011704710B4184B1B68C3F30223C3F19E
:10115000070CBCF1040F01D94FF0040C1C1D072C27
:1011600001D2002300E0DB1E012404FA0CFCACF1E8
:10117000010C0CEA0101994004FA03F35B1E1A40CA
:101180001143002808DA00F00F0000F1E020090107
:1011900080F8141D10BC704700F1E020090180F8B0
:1011A000001410BC704700000CED00E000F00700D8
:1011B000064A11684FF6FF03194041EA002040F04B
:1011C000FD7040F080601060704700000CED00E0A2
:1011D0002DE9F05F04460E46DFF8D091D9F8000003
:1011E000F7B200F00F00B0420AD289F80070D9F8C7
:1011F000000000F00F00B04202D00120BDE8F09FD7
:101200002078DFF8AC8110F0020F07D0D8F800008A
:10121000A16820F0F0000843C8F80000207810F022
:10122000010F51D060686349012808D002280DD011
:1012300003280BD0096811F0020F2ED00AE00968CC
:1012400011F4003F06D10120BDE8F09F096811F0BC
:10125000007F1FD0D8F8001021F003010843C8F820
:101260000000FFF7F3FE0546606841F2883A012866
:1012700016D0022829D003283CD0D8F8000010F05E
:101280000C0F51D0FFF7E2FE401B504547D9032019
:10129000BDE8F09F0120BDE8F09F0120BDE8F09F70
:1012A000D8F8000000F00C0004283DD0FFF7CEFE77
:1012B000401B504502D90320BDE8F09FD8F800003C
:1012C00000F00C000428F1D12EE0D8F8000000F066
:1012D0000C00082828D0FFF7B9FE401B504502D962
:1012E0000320BDE8F09FD8F8000000F00C000828AB
:1012F000F1D119E0D8F800004FF00C0B3BEA0000E8
:1013000012D0FFF7A3FE401B504502D90320BDE8D1
:10131000F09FD8F800003BEA0000F2D104E0D8F8D2
:10132000000010F00C0FADD1D9F8000000F00F0054
:10133000B0420AD989F80070D9F8000000F00F0017
:10134000B04202D00120BDE8F09F207810F0040FD9
:1013500007D0D8F80000E16820F4E0500843C8F84E
:101360000000207810F0080F08D0D8F8000021699C
:1013700020F4604040EAC100C8F8000000F058F8CE
:10138000D8F80010F02292FAA2F201F0F001B2FABD
:1013900082F2D140084A515CC840084908600020E8
:1013A000FFF77CFE0020BDE8F09F0000003C0240FB
:1013B0000838024000380240B82400080800002025
:1013C00001490120C8647047000047420148006895
:1013D000704700000800002000B5FFF7F7FF07493D
:1013E00009684FF4E05292FAA2F201F4E051B2FA25
:1013F00082F2D140024A515CC84000BD0838024028
:10140000C824000800B5FFF7E1FF074909684FF459
:10141000604292FAA2F201F46041B2FA82F2D14043
:10142000024A515CC84000BD08380240C824000888
:1014300010B41F48006810F00C011E481BD04FEA82
:10144000600C042916D0082915D11B4A116801F037
:101450003F01136813F4800F47F6C0730DD0BCFB37
:10146000F1F01168194093FAA3F3B3FA83F3D9406A
:1014700048430CE0604610BC7047B0FBF1F01168C7
:10148000194093FAA3F3B3FA83F3D94048431168A0
:101490004FF4403292FAA2F201F44031B2FA82F2F1
:1014A000D140491C4900B0FBF1F010BC704700006E
:1014B000083802400024F400043802402DE9F84FB7
:1014C0000446DFF81C842078A8F1040710F0010F0F
:1014D000A7F1040560D0D8F8000000F00C00042843
:1014E00009D0D8F8000000F00C0008280DD13868A9
:1014F00010F4800F09D0286810F4003F4CD06068C9
:10150000002849D10120BDE8F88F6068B0F5803F20
:1015100014D0B0F5A02F16D0286820F480302860B1
:10152000286820F480202860606810B3FFF78EFDE3
:101530000646286810F4003F0ED02DE0286840F4DD
:1015400080302860F0E7286840F480202860286810
:1015500040F480302860E7E7FFF778FD801B6428BF
:1015600002D90320BDE8F88F286810F4003FF3D0BB
:1015700012E0FFF76BFD0646286810F4003F0BD021
:10158000FFF764FD801B642802D90320BDE8F88FB3
:10159000286810F4003FF3D12078DFF8489310F06A
:1015A000020F4FF0000663D0D8F800004FF0F80BA0
:1015B00010F00C0F16D0D8F8000000F00C0008282E
:1015C00003D1386810F4800F0CD0E068C8B3012054
:1015D000C9F80000FFF73AFD8246286810F0020FB4
:1015E00016D022E0286810F0020F05D0E06801282C
:1015F00002D00120BDE8F88F28689BFAABF2216980
:10160000B2FA82F220F0F8009140084328602FE0FF
:10161000FFF71CFDA0EB0A00022802D90320BDE859
:10162000F88F286810F0020FF2D028689BFAABF20E
:101630002169B2FA82F220F0F80091400843286054
:1016400016E0FFE7C9F80060FFF700FD8246286852
:1016500010F0020F0CD0FFF7F9FCA0EB0A000228F3
:1016600002D90320BDE8F88F286810F0020FF2D1EC
:10167000207810F0080F34D09B48DFF870B2616911
:10168000C1B101210160FFF7E1FC8246DBF80000F7
:1016900010F0020F25D1FFF7D9FCA0EB0A000228B9
:1016A00002D90320BDE8F88FDBF8000010F0020F2C
:1016B000F1D016E00660FFF7C9FC8246DBF80000B7
:1016C00010F0020F0DD0FFF7C1FCA0EB0A000228BA
:1016D00002D90320BDE8F88FDBF8000010F0020FFC
:1016E000F1D1207810F0040F43D08148016841F017
:1016F00080510160006800F080500090DFF8F4B184
:10170000DBF8000040F48070CBF80000FFF79EFC8F
:101710008246DBF8000010F4807F0DD1FFF796FCC5
:10172000A0EB0A00022802D90320BDE8F88FDBF8FD
:10173000000010F4807FF1D0A068DFF8BCB1012870
:1017400018D005281DD0DBF8000020F00100CBF8F0
:101750000000DBF8000020F00400CBF80000A068D7
:1017600068B3FFF773FC8246DBF8000010F0020F4D
:1017700014D03CE0DBF8000040F00100CBF80000A2
:10178000EDE7DBF8000040F00400CBF80000DBF8E8
:10179000000040F00100CBF80000E0E7FFF756FC46
:1017A000A0EB0A0141F28830814202D90320BDE852
:1017B000F88FDBF8000010F0020FEFD017E0FFF712
:1017C00045FC8246DBF8000010F0020F0FD0FFF757
:1017D0003DFCA0EB0A0141F28830814202D903208E
:1017E000BDE8F88FDBF8000010F0020FEFD1A06920
:1017F000F0B3D8F8001001F00C0108296CD00228D1
:1018000010D0C9F86060FFF721FC0446286810F08A
:10181000007F5ED0FFF71AFC001B022855D9032079
:10182000BDE8F88FC9F86060FFF710FC064628682D
:1018300010F0007F0BD0FFF709FC801B022802D9B3
:101840000320BDE8F88F286810F0007FF3D1216AEB
:10185000E0694FF0FF3340EA010247F6C07191FAA8
:10186000A1F1606AB1FA81F100FA01F1A06A00E029
:101870002FE003EB50004FF4403393FAA3F3B3FA95
:1018800083F39840084310434FF0706292FAA2F23B
:10189000E16AB2FA82F29140084338600120C9F847
:1018A0006000FFF7D3FB0446286810F0007F10D1DA
:1018B000FFF7CCFB001B022802D90320BDE8F88FFC
:1018C000286810F0007FF3D003E0286810F0007F54
:1018D000A0D10020BDE8F88F0120BDE8F88F0000FE
:1018E0000838024000004742800E474274380240E8
:1018F0004038024000700040703802404FF0E02154
:10190000042804D0086920F00400086170470869C1
:1019100040F004000861704770470000401EB0F1BD
:10192000807F01D3012070474FF0E0214861044AD5
:10193000F0201070002088610720086100207047A7
:1019400023ED00E010B5FFF7E7FF10BD70B50446CA
:10195000002C04D094F83900002510B106E00120D5
:1019600070BD84F83850204600F022F8242084F816
:1019700039002068C16821F40051C160204600F0A0
:1019800095F92068016921F490410161206841695D
:1019900021F02A0141612068C16841F40051C16011
:1019A000E563202084F8390084F83A00002070BDF7
:1019B00010B586B00068A0F18041B1F588311DD125
:1019C0000F48016841F010010160006800F010004C
:1019D00000904020019002200290012003900320FB
:1019E000049007200590074C01A92046FFF720FA34
:1019F0008021019101A92046FFF71AFA06B010BD17
:101A000044380240000402402DE9F84304460D46E4
:101A100091461E4694F83900202802D00220BDE8E5
:101A2000F8834DB3B9F1000F26D094F8380001289F
:101A300025D0012084F838000027E763212084F8AE
:101A40003900FFF703FB8046A4F82490A4F8269001
:101A5000E08CA0B3E08C401EE084A068B0F5805F0D
:101A600010D04346002280212046009600F0C0FAA4
:101A7000F0B10320BDE8F8830120BDE8F88302201F
:101A8000BDE8F8834346002280212046009600F0FE
:101A9000AFFA10B10320BDE8F88328882168C0F3AD
:101AA00008004860206908B16D1C05E0AD1C03E02A
:101AB000216815F8010B4860E08C0028CAD1434624
:101AC000002240212046009600F092FA10B1032037
:101AD000BDE8F883202084F8390084F838700020AD
:101AE000BDE8F883FEE7000030B58BB01A4819490D
:101AF000016000F14401016300F1600141630321D1
:101B0000416000248460C4604FF4A02101614FF45F
:101B1000C001416184610125C5610562446284623E
:101B2000C462FEF759FE0594069407954CF207002F
:101B3000009048F20C0001904CF2D820029047F639
:101B4000F27003900494089569460348FEF7B8FCC8
:101B50000BB030BD006400405000002082B0002176
:101B60000C48026842F002020260006800F00200C5
:101B700001900A48084A02604FF4E13242608160F5
:101B8000C16001610C2242618161C16102B0FFF755
:101B9000DDBE00003038024000100140100000207F
:101BA000FEE7704770477047704710B5FFF754FA6B
:101BB000BDE81040FFF7C6BE30B593B000252348FE
:101BC000016841F080510160006800F08050009091
:101BD0001F48016841F480410160006800F48040C2
:101BE0000090012006900004079002240C948001CC
:101BF0000D9008200E904FF4A8700F9010940720BD
:101C0000119006A8FFF75AFC0F200190029403954B
:101C10004FF4A0500490E0020590052101A8FFF7C1
:101C2000D7FAFFF7CDFBFFF7D1FB4FF47A71B0FB8A
:101C3000F1F0FFF773FE0420FFF760FE002211466B
:101C4000501EFFF77FFA13B030BD0000403802404D
:101C5000007000400F48016841F4700101600E48B7
:101C6000016841F0010101600C4A00211160026825
:101C700022F4102222F080720260031D084A1A60CA
:101C8000026822F480220260064801600649580674
:101C90000860704788ED00E00038024008380240D4
:101CA000103000240C38024008ED00E02DE9F0412E
:101CB00004462068016921F44051E2681143016142
:101CC0002068C16821F4037121F414412369A268DA
:101CD000D4F81CC01A43636943EA0C031A43114346
:101CE000C1602068416921F44071A26911434161DA
:101CF000E069BC4ABC49BD4D3226B0F5004F5ED00C
:101D00002068884202D0904240F01281FFF77AFBAF
:101D100000EBC00101EB001061688900B0FBF1F736
:101D2000FFF770FB00EBC00101EB00106168890058
:101D3000B0FBF1F0A5FB001040096FF0180148431B
:101D400007EB800006EB0010A5FB0010400900F037
:101D5000F007FFF757FB00EBC00101EB00106168D3
:101D60008900B0FBF1F0A5FB0010400907EB00175C
:101D7000FFF748FB00EBC00101EB00106168890030
:101D8000B0FBF1F8FFF73EFB00EBC00101EB0010E8
:101D900061688900B0FBF1F0A5FB001040096FF00D
:101DA0001801484308EB800006EB0010A5FB00106B
:101DB0002168C0F3431038448860BDE8F081206892
:101DC000884201D0904259D1FFF71CFB00EBC001C3
:101DD00001EB001061684900B0FBF1F0A5FB0010B9
:101DE00040090701FFF70EFB00EBC00101EB0010FB
:101DF00061684900B0FBF1F8FFF704FB00EBC0019C
:101E000001EB001061684900B0FBF1F0A5FB001088
:101E100040096FF01801484308EB800006EBC00052
:101E2000A5FB0010400900F0F80007EB4007FFF7A2
:101E3000E9FA00EBC00101EB001061684900B0FB5A
:101E4000F1F8FFF7DFFA00EBC00101EB0010616869
:101E50004900B0FBF1F0A5FB001040096FF018013C
:101E6000484308EB800006EBC000A5FB001021688A
:101E7000C0F3421038448860BDE8F081FFF7ACFA47
:101E800000EBC00101EB001061684900B0FBF1F00C
:101E9000A5FB001040090701FFF79EFA00EBC00107
:101EA00001EB001061684900B0FBF1F8FFF794FA0C
:101EB00000EBC00101EB001061684900B0FBF1F0DC
:101EC000A5FB001040096FF01801484308EB8000A3
:101ED00006EBC000A5FB0010400900F0F80007EB7E
:101EE0004007FFF779FA00EBC00101EB00106168D1
:101EF0004900B0FBF1F8FFF76FFA00EBC00101EB0E
:101F0000001061684900B0FBF1F0A5FB001040092A
:101F10006FF01801484308EB800006EBC000A5FBFA
:101F200000102168C0F3421038448860BDE8F08199
:101F3000FFF752FA00EBC00101EB00106168890065
:101F4000B0FBF1F7FFF748FA00EBC00101EB00101E
:101F500061688900B0FBF1F0A5FB001040096FF04B
:101F60001801484307EB800006EB0010A5FB0010AA
:101F7000400900F0F007FFF72FFA00EBC00101EB7A
:101F8000001061688900B0FBF1F0A5FB001040096A
:101F900007EB0017FFF720FA00EBC00101EB001080
:101FA00061688900B0FBF1F8FFF716FA00EBC00199
:101FB00001EB001061688900B0FBF1F0A5FB001097
:101FC00040096FF01801484308EB800006EB001051
:101FD000A5FB00102168C0F3431038448860BDE8B9
:101FE000F081000000140140001001401F85EB51FA
:101FF0002DE9F0410446069D884617461E46206896
:10200000006838EA000020D00020B84227D1B5F19E
:10201000FF3F1CD025B1FFF719F8801BA84216D945
:102020002068C16821F4D071C1602068416921F045
:1020300001014161202084F8390084F83A00002031
:1020400084F838000320BDE8F0810120DDE7206836
:10205000006838EA000005D00020B842D7D0002040
:10206000BDE8F0810120F8E7FEE700000FB4054B62
:1020700010B503A9044A029800F018F810BC5DF8E6
:1020800014FB00006D2300080C00002002E008C8CB
:10209000121F08C1002AFAD170477047002001E0E2
:1020A00001C1121F002AFBD1704700002DE9FF4F2C
:1020B0008DB09B460F460446002606E025280BD02F
:1020C0005A460F999047641C761C20780028F5D159
:1020D00011B03046BDE8F08F0025A846012298498E
:1020E00000E0054314F8013F203B02FA03F00842E8
:1020F000F7D120782E2817D114F8010F45F00405E8
:102100002A280ED06FF02F022078A0F13001092983
:102110000AD808EB880102EB410100EB0108641CBE
:10212000F2E757F8048B641C20786C280DD004DC8F
:102130004C2812D06A2811D104E074280DD07A28D6
:102140000CD10AE045F4001507E0617845F48015EC
:10215000814202D1641C05F58015641C2278692A2D
:1021600045D008DC002AB3D0582A69D0632A10D0A1
:10217000642A08D13BE0702A67D0732A13D0752AED
:102180005CD0782A5CD010465A460F999047761C4E
:10219000D3E017F8040B8DF8000000208DF8010043
:1021A000E946012003E057F8049B4FF0FF30690730
:1021B0004FF0000501D40AE06D1C45450DDA85425B
:1021C000FADB19F805100029F6D106E06D1C8542EE
:1021D000FCDB19F805100029F8D12E4404E019F8A9
:1021E000010B5A460F9990476D1EF8D2A5E00A20C0
:1021F0000021CDE90801C5F3025002280DD001CF1E
:10220000C117031E71F100030DDA4FF0000CD0EB83
:102210000C006CEB01012D2308E0FF1D27F00707E0
:10222000F7E80201EDE72B0504D52B238DF82830C4
:1022300001233BE0EB0739D02023F7E70A2000E039
:1022400010200021CDE9080107E01020002145F011
:102250000405CDE908014FF00808C5F30250022833
:102260000FD001CF00214FF0000A2B071FD5702A95
:102270000DD0DDE908C38CF0100C5CEA030C0CD027
:1022800015E0FF1D27F00707F7E80201EBE7402202
:102290008DF828204FF0010A0BE050EA010306D028
:1022A00030238DF828308DF8292002239A46582AA9
:1022B00004D024A20DF120090B9209E026A2F9E72F
:1022C000DDE90823FDF77CFF0B9B9B5C09F8013DD2
:1022D00050EA0102F4D1ADEB090020300890680704
:1022E00001D44FF001080899884502DDA8EB0100F0
:1022F00000E000208046002506E00AA85A46405D1E
:102300000F9990476D1C761C5545F6DB04E0302094
:102310005A460F999047761CB8F10001A8F10108C0
:10232000F5DC05E019F8010B5A460F999047761C29
:102330000899481E08900029F4DC641CC5E60000DA
:10234000092801003031323334353637383961628B
:10235000636465660000000030313233343536374F
:1023600038394142434445460000000013B54FF65A
:10237000FF73012269460348FFF746FB009802B04D
:1023800010BD000010000020FEF76EFEFFF714FCE9
:10239000FFF7E4FB16A0FFF769FE1FA0FFF766FE3C
:1023A000FFF7A2FB00212448FEF730FB224C234D0F
:1023B000002628785528FCD1FEF740F820A0FFF72A
:1023C00055FE206B416824A0FFF750FE206B016989
:1023D00027A0FFF74BFE206B427D017D2AA0FFF76F
:1023E00045FE0A211448FEF703FC2E70E1E70000C9
:1023F0002A2A2A2A2A20D5E2CAC7D2BBB8F6CBABF2
:1024000043414ECDA8D1B6CAB5D1E92A2A2A2A2AF3
:102410002A2A2A200A000000202020D5E2CAC7204C
:10242000A1B0B4D3BBFAB6CBA1B120B5C4B7B4C088
:10243000A1D0C5CFA20A000050000020000000205B
:10244000BDABD2AAB7A2CBCDB5C4B1A8CEC4C4DAB5
:10245000C8DDCEAAA3BA0A00A1B7C0A9D5B949441C
:10246000BAC54578744964A3BA307825780A000063
:10247000A1B7B4FDB7A2CBCDCAFDBEDDB6CEB3A425
:10248000B6C8A3BA25640A00A1B7CAFDBEDDB6CEA0
:10249000B5C4C4DAC8DD3A446174615B305D3D3077
:1024A00078255820A3AC446174615B315D3D307880
:1024B0002558200A00000000000000000000000075
:1024C00001020304060708090000000001020304DA
:1024D000F024000800000020100000008C200008FC
:1024E0000025000810000020C81000009C200008F3
:1024F00000000000000000000024F40000000000C4
:040000050800018965
:00000001FF
