:020000040800F2
:1000000050120020A14F00083D4E00083F4E00084E
:10001000414E0008434E0008454E00080000000015
:10002000000000000000000000000000474E000833
:10003000494E0008000000004B4E00084D4E0008DD
:10004000C54F0008C94F0008CD4F0008D14F000828
:10005000D54F0008594E0008D94F0008DD4F000861
:10006000E14F0008E54F0008E94F0008ED4F000898
:10007000F14F0008F54F0008F94F0008FD4F000848
:100080000150000805500008095000080D500008F4
:100090001150000815500008195000081D500008A4
:1000A0002150000825500008295000082D50000854
:1000B0003150000835500008395000083D50000804
:1000C0004150000845500008495000084D500008B4
:1000D0005150000855500008595000085D50000864
:1000E0006150000865500008695000086D50000814
:1000F0007150000875500008795000087D500008C4
:100100008150000885500008895000088D50000873
:100110005B4E000891500008955000089950000867
:100120009D500008A1500008A5500008A9500008E3
:10013000AD500008B1500008B5500008B950000893
:10014000BD500008C1500008C5500008C950000843
:10015000CD500008D1500008D5500008D9500008F3
:10016000DD500008E1500008E5500008E9500008A3
:10017000ED500008F1500008F550000800000000A4
:10018000F9500008FD5000080000000000000000C9
:10019000000000000000000000000000000000005F
:1001A000000000000000000000000000000000004F
:1001B00000000000000000000000000000006000DF
:1001C000600060006000600060006000600060002F
:1001D00060006000600020000000000070007000FF
:1001E000700000000000000000000000000000009F
:1001F0009801980198019801980000000000000003
:1002000000000000000000000000000000000000EE
:1002100000000000000000000000000000000000DE
:1002200010031003100318031801FF07FF0708014C
:1002300088018801FF07FF078C008C008C00840078
:10024000C4000000000000000000000000002000CA
:10025000F000F801AC032C032C032C003C007800C8
:10026000E000E001A003260326032E03AC03FC01FB
:10027000F00020002000000000000000000000004E
:100280000C021E01120112019200920052005E0047
:100290002C03A00790049004D004880488048407E9
:1002A0000403000000000000000000000000000047
:1002B0007000F8008C008C018C00CC0078003800B5
:1002C0003C003E066606E602C60386038E07FC0671
:1002D00070000000000000000000000000000000AE
:1002E000300030003000300030000000000000001E
:1002F00000000000000000000000000000000000FE
:1003000000000000000000000000000000000006E7
:10031000000380018000C000C00040004000600079
:1003200060006000400040004000C000800080018C
:1003300000030006000000000000000002000600AC
:100340000C000800180010003000200020002000E1
:1003500020002000200020003000100018000800BD
:100360000C00060002000000000000000000000079
:100370006000600062046606FE07F801F000FC03FE
:100380006E076204600060000000000000000000D2
:10039000000000000000000000000000000000005D
:1003A000000000000000600060006000600060006D
:1003B000FF07600060006000600060000000000057
:1003C000000000000000000000000000000000002D
:1003D000000000000000000000000000000000001D
:1003E0000000000000000000000000000C000C00F5
:1003F0000C000800040000000000000000000000E5
:1004000000000000000000000000000000000000EC
:10041000FF070000000000000000000000000000D6
:1004200000000000000000000000000000000000CC
:1004300000000000000000000000000000000000BC
:100440000000000000000000000000000C000C0094
:100450000C0000000000000000000000000000048C
:10046000000400020002000180018000C000400082
:10047000200020001000100008000C0004000600FE
:10048000020000000000000000000000000000006A
:100490007000F8019C030C03060306060606060618
:1004A000060606060606060606030C039C03F8016C
:1004B00060000000000000000000000000000000DC
:1004C00040006000700078006C0064006000600014
:1004D000600060006000600060006000600060001C
:1004E000000000000000000000000000000000000C
:1004F000F000FC018C0306030603000300038001E7
:100500008001C0006000700038001C000C00FE0775
:1005100000000000000000000000000000000000DB
:10052000F000F8010C030603060300030003E001DA
:10053000E001800300030006060606038C03F801B1
:10054000700000000000000000000000000000003B
:1005500000018001C001C001E001B001B0019801BB
:100560008C018C018601FF0FFF0F8001800180014B
:10057000000000000000000000000000000000007B
:100580000000FC030C000C000C000400FE01CE0374
:100590000603000300060006030306038603FC01AE
:1005A00070000000000000000000000000000000DB
:1005B000C001C0006000600030001800F800FC03BB
:1005C0000C07060606060606060606060C03F803D2
:1005D000F00000000000000000000000000000002B
:1005E0000000FE0700060003000380018001C00038
:1005F000C000600060006000300030003000180073
:1006000000000000000000000000000000000000EA
:100610007000FC010C030603060306038C03FC01B7
:10062000FC018E0306060606060606060E03FC01FE
:10063000F0000000000000000000000000000000CA
:100640007000FC018E03060306070307060306037A
:100650008E03FC01F001C000E000600030003000BB
:100660001800000000000000000000000000000072
:1006700000000000000000000000000060006000BA
:1006800000000000000000000000000060006000AA
:1006900060000000000000000000000000000000FA
:1006A000000000000000000000000000600060008A
:1006B000000000000000000000000000600060007A
:1006C000600020002000000000000000000000008A
:1006D000000400038001C0006000300018000C001E
:1006E00006000C00180030006000C000800100030C
:1006F00000040000000000000000000000000000F6
:1007000000000000000000000000FF0700000000E3
:1007100000000000FF07FF070000000000000000CD
:1007200000000000000000000000000000000000C9
:1007300002000600080030006000C00080010003D5
:10074000000600038001C0006000300008000600C1
:100750000200000000000000000000000000000097
:100760007000F8019C030C03060300038003C00122
:10077000C000600060002000000000006000600019
:100780006000000000000000000000000000000009
:10079000E000180104020404E20592059A05990498
:1007A00089048904C904CA02BA03020004000801CA
:1007B000F000000000000000000000000000000049
:1007C000600060007000F000F000D800980198010F
:1007D00098018C01FC03FC030E03060706060606BF
:1007E000070E0000000000000000000000000000F4
:1007F0003E00FE0186030603060706070603FE0108
:10080000FE01060306060606060606078603FE0325
:100810007E0000000000000000000000000000005A
:10082000E000F8011C030C060E0606060600060092
:1008300006000600060606060E060C071C03F80155
:10084000E0000000000000000000000000000000C8
:100850000E00FE00C601860306030607060606060E
:10086000060606060606060706038603C601FE0000
:100870001E0000000000000000000000000000005A
:10088000FE03FE0306000600060006000600FE0347
:10089000FE03060006000600060006000600FE072E
:1008A000FE07000000000000000000000000000043
:1008B000FE07FE070600060006000600060006000A
:1008C000FE010600060006000600060006000600FF
:1008D0000600000000000000000000000000000012
:1008E0006000F8019C030C030E07060606000600D4
:1008F000C607C607060606060E060C071C07F807FD
:100900006006000000000000000000000000000081
:100910000606060606060606060606060606FE077E
:10092000FE0706060606060606060606060606066E
:1009300006060000000000000000000000000000AB
:1009400060006000600060006000600060006000A7
:100950006000600060006000600060006000600097
:100960006000000000000000000000000000000027
:10097000000700070007000700070007000700073F
:10098000000700070607060306030E039C03F80191
:1009900070000000000000000000000000000000E7
:1009A000060606038601C601E600660036003E0024
:1009B0007E00EE00C600C601860186030603060718
:1009C000060600000000000000000000000000001B
:1009D00006000600060006000600060006000600E7
:1009E0000600060006000600060006000600FE07D8
:1009F000FE070000000000000000000000000000F2
:100A00000E070E070E078E079E079E079E079E067F
:100A10009606F606F606F606760666066606660686
:100A2000660600000000000000000000000000005A
:100A300006060E060E061E061E061E06360636069E
:100A400066066606C606C606860786078607060782
:100A50000607000000000000000000000000000089
:100A60007000F8019C030E0306070606060606063C
:100A7000060606060606060606070E039C03F80190
:100A800070000000000000000000000000000000F6
:100A90003E00FE0186030606060606060606060753
:100AA000FE03FE0106000600060006000600060022
:100AB0000600000000000000000000000000000030
:100AC0007000F8019C030E030607060606060606DC
:100AD000060606060606C606C6078E039C03F8032E
:100AE0007003000000000000000000000000000093
:100AF0003E00FE0186030607060606060607860375
:100B0000FE01FE00C60086018601060306030607F5
:100B100006060000000000000000000000000000C9
:100B20007000F8018C030E0306030E001C00780011
:100B3000F001C00300070606060606070E03FC01C7
:100B4000F0000000000000000000000000000000B5
:100B5000FE07FE076000600060006000600060004B
:100B60006000600060006000600060006000600085
:100B70006000000000000000000000000000000015
:100B80000606060606060606060606060606060605
:100B90000606060606060606060606078C03FC037E
:100BA000F000000000000000000000000000000055
:100BB00003060706060606070E030C030C038C014A
:100BC0009C0198019801D800F000F00070006000CE
:100BD00060000000000000000000000000000000B5
:100BE000630E6306630673067606F606D606D60619
:100BF000D60696029E039E039C038C038C038C03F3
:100C00000C010000000000000000000000000000D7
:100C100006060E030C038C019801D800F00070004A
:100C20006000F000F00098019C010C030E03060721
:100C300007060000000000000000000000000000A7
:100C40000706060606030C038C019801D800F00085
:100C50007000600060006000600060006000600084
:100C60006000000000000000000000000000000024
:100C7000FE07FE07000300038001C001C000600002
:100C800060003000380018000C000C000600FE0761
:100C9000FE0700000000000000000000E007E00781
:100CA0002000200020002000200020002000200044
:100CB0002000200020002000200020002000200034
:100CC0002000E007E0070000000000000000000036
:100CD000060004000C000800180018001000300086
:100CE0002000600060004000C00080008001000122
:100CF0000001000300020000000000007E007E00F2
:100D000060006000600060006000600060006000E3
:100D100060006000600060006000600060006000D3
:100D200060007E007E00000000000000F000D8019E
:100D30008C0106020000000000000000000000001E
:100D400000000000000000000000000000000000A3
:100D50000000000000000000000000000000000093
:100D60000000000000000000000000000000000083
:100D70000000000000000000000000000000000073
:100D8000000000000000FF0F0000000030006000C5
:100D9000C000C000000000000000000000000000D3
:100DA0000000000000000000000000000000000043
:100DB0000000000000000000000000000000000033
:100DC000000000000000000000000000F801FC032B
:100DD0000C030003F0037C030E0306038603FC03ED
:100DE00038060000000000000000000000000000C5
:100DF000060006000600060006000600F601DE03F7
:100E00000E03060306070606060706038E03FE0109
:100E1000E6000000000000000000000000000000EC
:100E2000000000000000000000000000F801FC03CA
:100E30000E03060306000600060606070C03F8016B
:100E4000F0000000000000000000000000000000B2
:100E5000000300030003000300030003F803DC03A6
:100E60000E03060306030603060306038C03FC03B6
:100E700070030000000000000000000000000000FF
:100E8000000000000000000000000000F8019C03CA
:100E90000C030603FE070600060006070C03F80114
:100EA000F000000000000000000000000000000052
:100EB0008003E0073004300030003000FE03FE0302
:100EC00030003000300030003000300030003000A2
:100ED00030000000000000000000000000000000E2
:100EE000000000000000000000000000F807DC0126
:100EF0008C018C018C01DC01FC0006007C00F803F5
:100F0000060606060E03FC010000000000000000BB
:100F1000060006000600060006000600E601B6030D
:100F20000E030E0606060606060606060606060654
:100F300006060000000000000000000000000000A5
:100F40000000600060000000000000006000600021
:100F50006000600060006000600060006000600091
:100F60006000000000000000000000000000000021
:100F7000000080018001000000000000800180016D
:100F80008001800180018001800180018001800159
:100F900080018001FC007C000000000000000000D7
:100FA0000600060006000600060006008603C601CD
:100FB000E60076007E00DE00CE0086010603060312
:100FC0000606000000000000000000000000000015
:100FD0006000600060006000600060006000600011
:100FE0006000600060006000600060006000600001
:100FF0006000000000000000000000000000000091
:101000000000000000000000000000003B07FF0798
:101010006704630463046304630463046304630494
:101020006304000000000000000000000000000059
:10103000000000000000000000000000E601B60310
:101040000E030E0606060606060606060606060633
:101050000606000000000000000000000000000084
:10106000000000000000000000000000F800FC0389
:101070000E03060606060606060606078C03F8019A
:1010800070000000000000000000000000000000F0
:10109000000000000000000000000000F600FE0359
:1010A0000E03060306070606060706038E03FE0167
:1010B000E600060006000600000000000000000038
:1010C000000000000000000000000000F803FC0326
:1010D0000E03060306030603060306038C03FC0344
:1010E0007003000300030003000000000000000084
:1010F0000000000000000000000000008C01EC0176
:101100003C001C001C000C000C000C000C000C002F
:101110000C000000000000000000000000000000C3
:10112000000000000000000000000000F8019C0327
:101130000C030C007C00F001000304030C03FC030F
:10114000F0000000000000000000000000000000AF
:10115000000000003000300030003000FE03FE03CD
:101160003000300030003000300030003000E0034C
:10117000C0030000000000000000000000000000AC
:101180000000000000000000000000000606060647
:101190000606060606060606060706078E07FC066E
:1011A0003806000000000000000000000000000001
:1011B000000000000000000000000000060606031A
:1011C0000C030C038C0198019800D000F000700013
:1011D00060000000000000000000000000000000AF
:1011E000000000000000000000000000630663062D
:1011F00072067606D606D60294039C039C038C01E5
:101200008C01000000000000000000000000000051
:101210000000000000000000000000000E038C0130
:101220009801F00070007000F000D8018C010C03F0
:1012300006060000000000000000000000000000A2
:101240000000000000000000000000000606060389
:101250000C030C038C0198019800F000F000700062
:10126000600060003C001C00000000000000000066
:10127000000000000000000000000000FC03FC0370
:101280008001C00060007000380018000C00FE03F0
:10129000FE03000000000000000000008003800149
:1012A0008000800080008000800080008000C000FE
:1012B000E000C0008000800080008000800080008E
:1012C000800080018003000060006000600060001A
:1012D000600060006000600060006000600060000E
:1012E00060006000600060006000600060006000FE
:1012F0006000600060006000000000000E00180048
:10130000180018001800180018001800180018001D
:1013100030003000180018001800180018001800DD
:10132000180018000E000000000038047C06C603F8
:10133000800100000000000000000000000000002C
:10134000000000000000000000000000000000009D
:10135000000000000000000000B587B0DFF8F408CE
:101360000068002840F0C5800120DFF8E818086018
:1013700000200090DFF8E008006850F04000DFF83F
:10138000D8180860DFF8D008006810F0400000901E
:10139000009800200090DFF8C008006850F020009E
:1013A000DFF8B4180860DFF8B008006810F020001B
:1013B0000090009800200090DFF89C08006850F032
:1013C0000400DFF894180860DFF88C08006810F05B
:1013D00004000090009800200090DFF87C0800686E
:1013E00050F02000DFF870180860DFF86C08006823
:1013F00010F020000090009800200090DFF85808BE
:10140000006850F01000DFF850180860DFF8480856
:10141000006810F010000090009800200090DFF8A5
:101420003808006850F00800DFF82C180860DFF872
:101430002808006810F00800009000980020009034
:10144000DFF8CC08006850F00100DFF8C41808602D
:10145000DFF8BC08006810F001000090009801203F
:10146000019002200290022004900C20059001A916
:10147000DFF8A00800F02CFD4FF48050019002200E
:1014800002900220049001A9DFF88C0800F020FDF2
:101490004FF68070019002200290022004900C20F0
:1014A000059001A9DFF8740800F012FD4CF23370CA
:1014B000019002200290022004900C20059001A9C6
:1014C000DFF85C0800F004FD00224FF40071DFF843
:1014D000540800F0EAFD4FF40070019001200290E2
:1014E000002004900C20059001A9DFF8380800F0D6
:1014F000EFFC07B000BD80B5FFF72EFF01BD00B5C2
:1015000087B05FF02040DFF820180860DFF81C0883
:10151000DFF8141848600620DFF80C1888600020F7
:10152000DFF80418C8600020DFF8FC1708611020FD
:10153000DFF8F41748610020DFF8EC17886100201D
:10154000DFF8E417C8610020DFF8DC17086200202C
:10155000DFF8D41748624FF48050DFF8CC17886268
:101560000020DFF8C417C8620020DFF8BC1708634A
:101570000020DFF8B41748630020DFF8AC17886359
:101580000020DFF8A417486402200090002001909A
:101590000520029000200390002004900020059078
:1015A000002006906A466946DFF87C0700F0A4FD3B
:1015B00007B000BD80B5E0205FF0D8410880002072
:1015C000DFF86C1708800720DFF864170880102008
:1015D000DFF85C1708800920DFF85417088017200F
:1015E000DFF84C1708800B20DFF8441708804120F3
:1015F000DFF83C1708808920DFF8341708804B207B
:10160000DFF82C1708800A20DFF8241708800C2048
:10161000DFF81C1708800E20DFF814170880182048
:10162000DFF80C1708801B20DFF8041708800F2054
:10163000DFF8FC160880E1205FF0D8410880002028
:10164000DFF8EC1608801720DFF8E41608801A206F
:10165000DFF8DC1608800420DFF8D41608800E209E
:10166000DFF8CC1608800620DFF8C41608802F208B
:10167000DFF8BC1608804520DFF8B4160880432048
:10168000DFF8AC1608800220DFF8A41608800A20D4
:10169000DFF89C1608800920DFF8941608803220B5
:1016A000DFF88C1608803620DFF8841608800F20BB
:1016B000DFF87C160880F7205FF0D8410880A92069
:1016C000DFF86C1608805120DFF8641608802C20A3
:1016D000DFF85C1608808220DFF854160880C020EE
:1016E0005FF0D84108801120DFF8441608800920F7
:1016F000DFF83C160880C1205FF0D8410880412007
:10170000DFF82C160880C5205FF0D8410880002043
:10171000DFF81C1608800A20DFF8141608808020E5
:10172000DFF80C160880B1205FF0D8410880B020A7
:10173000DFF8FC1508801120DFF8F4150880B420CC
:101740005FF0D84108800220DFF8E4150880B62059
:101750005FF0D84108800220DFF8D41508802220ED
:10176000DFF8CC150880B7205FF0D8410880C6208C
:10177000DFF8BC150880BE205FF0D841088000204B
:10178000DFF8AC1508800420DFF8A4150880E920F4
:101790005FF0D84108800020DFF894150880012010
:1017A00000F066F83A205FF0D84108805520DFF855
:1017B0008015088011205FF0D8410880782000F063
:1017C00001FD29205FF0D841088001BD82B00420CE
:1017D0005FF0D8410880DFF858050088ADF80000B8
:1017E000DFF84C050088C0B2ADF80200DFF8400514
:1017F0000088C0B2ADF80400DFF834050088C0B23C
:10180000ADF80600BDF80200BDF80410090211EBA6
:101810000040BDF8061010FA81F002B0704780B5A4
:10182000FFF76DFEFFF7D2FFDFF808150860DFF85D
:1018300004050068DFF80015884206D0DFF8F404DC
:10184000006848F26601884201D1FFF7B3FE00202C
:1018500000904FF4F0734FF4A0720021002000F0CC
:1018600024F9142000F0AEFCDFF8C804006802BDC3
:10187000C0B2012808D0C0F0CA80032866D034D393
:10188000042800F09480C2E036205FF0D841088040
:101890000820DFF89C1408802A205FF0D8410880D7
:1018A0000020DFF88C1408800020DFF88414088002
:1018B0000120DFF87C1408803F20DFF874140880D2
:1018C0002B205FF0D84108800020DFF864140880E6
:1018D0000020DFF85C1408800120DFF85414088031
:1018E000DF20DFF84C14088091E036205FF0D8410B
:1018F00008806820DFF8381408802A205FF0D8417B
:1019000008800020DFF8281408800020DFF8201469
:1019100008800120DFF818140880DF20DFF8101499
:1019200008802B205FF0D84108800020DFF80014E9
:1019300008800020DFF8F81308800120DFF8F0139A
:1019400008803F20DFF8E813088060E036205FF071
:10195000D8410880C820DFF8D81308802A205FF01B
:10196000D84108800020DFF8C81308800020DFF885
:10197000C01308800120DFF8B81308803F20DFF88B
:10198000B01308802B205FF0D84108800020DFF8DA
:10199000A01308800020DFF8981308800120DFF8EA
:1019A000901308803F20DFF8881308802FE036204E
:1019B0005FF0D8410880A820DFF8741308802A203F
:1019C0005FF0D84108800020DFF864130880002011
:1019D000DFF85C1308800120DFF854130880DF2053
:1019E000DFF84C1308802B205FF0D84108800020DE
:1019F000DFF83C1308800020DFF834130880012052
:101A0000DFF82C1308803F20DFF8241308802C20F7
:101A10005FF0D8410880704730B42A245FF0D84581
:101A20002C800400A4B2240ADFF804532C80C4B232
:101A3000DFF8FC522C8092B212FA80F4641E241259
:101A4000DFF8EC522C801018401EC0B2DFF8E02204
:101A500010802B205FF0D8421080080080B2000A6E
:101A6000DFF8CC221080C8B2DFF8C42210809BB20D
:101A700013FA81F0401E0012DFF8B42210805818CB
:101A8000401EC0B2DFF8A812088030BC70470022A8
:101A90002C225FF0D8431A80002203E0DFF8903256
:101AA0001980521C8242F9D3704738B514001D00CA
:101AB0002B009BB2220092B289B280B2FFF7ACFF3A
:101AC0000499A4B2ADB205FB04F0FFF7E0FF31BD0D
:101AD00070B51D00B2F12006049C9DF91420102A57
:101AE00024D11023082289B280B2FFF795FF2C2061
:101AF0005FF0D8410880002000E0401CC0B21028F0
:101B000051DA8E49F6B211EB0611C0B2415C0022E7
:101B100004E0874B1D80C9B24908521CD2B2082A82
:101B2000EBDACB07F5D5824B1C80F4E718230C22A7
:101B300089B280B2FFF770FF2C205FF0D841088097
:101B4000002000E0401CC0B230282CDA7C49F6B2FC
:101B5000302202FB0611C0B2415C002204E0744B4B
:101B60001D80C9B24908521CD2B2082A04DACB0738
:101B7000F5D56F4B1C80F4E7401C7149F6B230225A
:101B800002FB0611C0B2415C002204E0684B1D80DC
:101B9000C9B24908521CD2B2042AD3DACB07F5D510
:101BA000634B1C80F4E770BD7CB504000E0015008B
:101BB000002001900020009062480078002812D098
:101BC00000F016FB00F000FC0190642000F0FAFA2F
:101BD00000F0D7FB0090019A00995B4800F034FCBC
:101BE000002058490870307871786DB2102D13D1EB
:101BF000C0B25E22C9B202FB0010544908184FF46B
:101C000080714843082190FBF1F0202210F520411B
:101C1000200000F08DFB12E0C0B25E22C9B202FBD0
:101C200000104A4908184FF410714843082190FBEE
:101C3000F1F0482210F59621200000F079FB207881
:101C4000FF2804D16078FF2801D1002000E00120A6
:101C500076BD0000400200203038024070B592B0DE
:101C600016001D00169C9DF95C20102A26D1102319
:101C7000102289B280B2FFF7CFFE2C205FF0D8414E
:101C80000880102231006846FFF78EFF002100E037
:101C9000491CC9B2202938DA6846C9B2085C00225A
:101CA00004E0234B1D80C0B24008521CD2B2082A67
:101CB000EEDAC307F5D51E4B1C80F4E71823182273
:101CC00089B280B2FFF7A8FE2C205FF0D8410880CF
:101CD000182231006846FFF767FF002100E0491C29
:101CE000C9B2482911DA6846C9B2085C002204E08A
:101CF0000F4B1D80C0B24008521CD2B2082AEEDA47
:101D0000C307F5D50A4B1C80F4E712B070BD000084
:101D1000383802400014024000180240001002400F
:101D2000000C02400008024014010020040100A041
:101D30000200006C3C020020668054007C470008D2
:101D400088010008B8000020084E000841C4FFFFC9
:101D50002DE9F04383B08046894615001E000A9C99
:101D60009DF92C7029E01FFA88F818F10800B0F5E9
:101D7000A07F03DD5FF0000819F110091FFA89F94F
:101D800019F11000B0F5F07F03DD5FF000085FF09F
:101D9000000910200190200080B2009033009BB217
:101DA00095F90000020052B2494689B2404680B21D
:101DB000FFF78EFE6D1C18F108082878002800F047
:101DC0008480287880282DDA7FB2102FCBD01FFA9C
:101DD00088F818F10C00B0F5A07F03DD5FF0000873
:101DE00019F118091FFA89F919F11800B0F5F07FF7
:101DF00003DD5FF000085FF000091820019020006B
:101E000080B2009033009BB295F90000020052B2FC
:101E1000494689B2404680B2FFF75AFE6D1C18F160
:101E20000C08CAE77FB2102F27D11FFA88F818F1E3
:101E30001000B0F5A07F03DD5FF0000819F1100974
:101E40001FFA89F919F11000B0F5F07F03DD5FF09A
:101E500000085FF0000910200190200080B200907F
:101E600033009BB22A00494689B2404680B2FFF750
:101E7000F5FEAD1C18F110089FE71FFA88F818F15D
:101E80001800B0F5A07F03DD5FF0000819F1180914
:101E90001FFA89F919F11800B0F5F07F03DD5FF042
:101EA00000085FF0000918200190200080B2009027
:101EB00033009BB22A00494689B2404680B2FFF700
:101EC000CDFEAD1C18F1180877E7BDE8F7830000D8
:101ED00078B4002400230024002237E00825EDB266
:101EE00012F00306F6B2B600B5402C43DFF8D0512D
:101EF000960845F82640DFF8CC4124689C434D689D
:101F0000ED0300D51C43DFF8BC512C60DFF8B8416D
:101F100024689C434D68AD0300D51C43DFF8A851ED
:101F20002C60DFF8A84124689C434D68ED0200D581
:101F30001C43DFF898512C60654C24689C434D6825
:101F4000AD0200D51C43624B1C60521C102A80F06D
:101F5000AA80012313FA02F40B682340A342F4D1B0
:101F60004C68022C02D04C68122C15D1D40810EB0E
:101F70008404246A0F2512F00706F6B2B600B540B5
:101F8000AC430D6912F00706F6B2B600B5402C431B
:101F9000D50810EB85052C62046803251600F6B2FF
:101FA0007600B540AC430D7915F003051600F6B286
:101FB0007600B5402C4304604C68012C08D04C6876
:101FC000022C05D04C68112C02D04C68122C17D171
:101FD000846803251600F6B27600B540AC43CD68A0
:101FE0001600F6B27600B5402C43846044680125A3
:101FF0009540AC434D68C5F3001595402C434460B3
:10200000C46803251600F6B27600B540AC438D686F
:102010001600F6B27600B5402C43C4604C68E4006C
:1020200093D5002400942B4C246854F48044294D0B
:102030002C60284C246814F480440094009C204CAC
:10204000950854F825400F2512F00306F6B2B600A5
:10205000B540AC43204DA84201D100253FE71F4DBC
:10206000A84201D101253AE71D4DA84201D1022520
:1020700035E71C4DA84201D1032530E71A4DA8428F
:1020800001D104252BE7194DA84201D1052526E7EA
:10209000174DA84201D1062521E7164DA8427FF42D
:1020A0001DAF07251BE771BC704752B2002A02D052
:1020B00089B2816102E089B2090481617047000040
:1020C00008380140003C0140043C0140083C01400C
:1020D0000C3C014044380240000002400004024031
:1020E00000080240000C02400010024000140240B0
:1020F00000180240001C024070B504000D001600DC
:10210000002C01D1012024E094F94900002805D1D8
:10211000002084F848002000FFF7EDF914F10801D1
:10212000206800F0A3F9A2682900206800F0CAF92D
:10213000236BA2683100606800F0E6F92068A168AE
:1021400050F8210050F001002168A26841F82200F7
:10215000002070BD80B52348006850F4007021490C
:1021600008602048006850F480601E4908601D48DF
:10217000006850F480701B490860032000F04CFA9E
:10218000002000F004F800F08CFA002002BD10B529
:102190000400154800684FF47A71B0FBF1F000F0CC
:1021A00055FA002221005FF0FF3000F039FA0020DC
:1021B00010BD0E480068401C0C49086070470B4871
:1021C0000068704731B5FFF7FAFF0400009D15F174
:1021D000010F00D06D1CFFF7F2FF001BA842FAD3DD
:1021E00031BD0000003C0240B40000204402002049
:1021F00080B5DFF83C02DFF83C1208604FF48270D3
:10220000DFF8301248600020DFF8281288600020D4
:10221000DFF82012C8600220DFF8181208610120E0
:10222000DFF8101248614FF40070DFF8081288617F
:102230000820DFF80012C8610020DFF8F8110862FA
:102240000020DFF8F01148620020DFF8E811886212
:102250000A20DFF8E011C862DFF8D80100F058FA70
:1022600001BD00B587B00068DFF8C41188425DD1B8
:1022700000200090DFF8C001006850F48040DFF8D3
:10228000B8110860DFF8B001006810F480400090D9
:10229000009800200090DFF8A401006850F48070DE
:1022A000DFF898110860DFF89401006810F480707E
:1022B0000090009800200090DFF88001006850F046
:1022C0000400DFF878110860DFF87001006810F092
:1022D0000400009000980A20019002200290022041
:1022E00004900520059001A9DFF85401FFF7F0FDE7
:1022F0000420019002200290002003900520059008
:1023000001A9DFF84001FFF7E3FD01220121DFF819
:102310003001FFF7CAFE0120019001200290052044
:10232000059001A9DFF81801FFF7D2FD07B000BD45
:1023300070B504000D001600002201214048FFF78F
:10234000B4FE032000F05EF8280CC0B200F05AF88A
:10235000280AC0B200F056F82800C0B200F052F8C7
:1023600004E0FF2000F04EF82070641C3000461E90
:1023700080B20028F5D1012201213148FFF795FEF6
:1023800070BD70B500200024002500260022012128
:102390002B48FFF78AFE9F2000F034F8FF2000F062
:1023A00031F80400FF2000F02DF80500FF2000F0B8
:1023B00029F80600012201212148FFF776FE2802B4
:1023C00050EA0440304370BD10B5002400220121C2
:1023D0001B48FFF76AFEAB2000F014F8FF2000F066
:1023E00011F8FF2000F00EF8FF2000F00BF8FF209E
:1023F00000F008F80400012201211148FFF755FE02
:10240000200010BD00B583B08DF805007FF07F403F
:102410000090012301AA0DF10501064800F0BFF963
:10242000002802D0FF208DF804009DF804000EBDA6
:1024300000380040BC0000204038024030380240E4
:1024400000200240000802400EB400B582B003A98B
:10245000009102466B460121034878440A3000F09F
:102460000DFB06BC5DF810FBBD2A000010B4002275
:102470000A6850F82220344B1A404B688C6823437A
:10248000CC6823430C6923434C6923438C69234361
:10249000CC6923430C6A23434C6A23438C6A23434D
:1024A000CC6A2343CC6B23430C6B23431A438B68C6
:1024B000082B01D152F04002096840F82120002089
:1024C00010BC704730B4002310EB82035B6813F03C
:1024D00040430C684D6854EA05148D6854EA05249D
:1024E000CD6854EA05440D696D1E54EA05544D69E2
:1024F000AD1E54EA0564896921430B4310EB820049
:102500004360002030BC704730B40024B3F5804FE6
:1025100013D150F822400D4B1C400B684D6853EA14
:1025200005138D6853EA0523CD6853EA054389698D
:1025300019430C4340F8224003E07FF0704140F81B
:102540002210002030BC70478000F0FF0000F0CF68
:1025500010F00701484800684FF6FF021040474A54
:1025600052EA012108434449086070474248006824
:10257000C0F302207047012110F01F029140404A31
:1025800040B2400942F82010704740B2002808D5F8
:1025900009013C4A40B210F00F00801800F8041CFA
:1025A00003E00901384A40B28154704710B410F07A
:1025B0000700D0F10703052B01D3042301E0D0F17C
:1025C0000703041D072C01D2002000E0C01E0124D7
:1025D00014FA03F35B1E19408140012313FA00F043
:1025E000401E1040084310BC704780B5411EB1F139
:1025F000807F01D301200EE0401E244908600F2196
:102600005FF0FF30FFF7C1FF00202149086007207D
:1026100020490860002002BD80B5FFF799FF01BD89
:1026200070B504000D0016000020FFF79FFF320078
:102630002900FFF7BBFF0100200040B2FFF7A5FF14
:1026400070BD80B540B2FFF796FF01BD80B5FFF7C2
:10265000CCFF02BD042806D10E48006850F00400EB
:102660000C49086005E00B48006830F00400094997
:1026700008607047000000000CED00E00000FA0563
:1026800000E100E018ED00E000E400E014E000E00C
:1026900018E000E010E000E080B500F001F801BDB6
:1026A000704780B50320FFF7B7FF002200217FF0BD
:1026B0000B00FFF7B5FF002200217FF00A00FFF7B3
:1026C000AFFF002200217FF00900FFF7A9FF0022E1
:1026D00000217FF00400FFF7A3FF002200217FF01C
:1026E0000300FFF79DFF002200217FF00100FFF7AC
:1026F00097FF002200215FF0FF30FFF791FF0022DB
:1027000000210520FFF78CFF0520FFF79AFF01BD90
:1027100010B50400002C01D101203FE0606A0028C0
:102720000020A06294F95100002805D1002084F80F
:1027300050002000FFF795FD022084F8510020682A
:10274000006830F04000216808606068A1680843B4
:10275000E16808432169084361690843A16911F4EC
:1027600000710843E1690843216A0843A16A0843EC
:1027700021680860A069000C10F00400616A084339
:10278000216848602068C06930F400602168C86131
:1027900000206065012084F85100002010BD2DE963
:1027A000F04782B004000E0017009A460020002176
:1027B0005FF000095FF00108002594F9500001283E
:1027C00001D10220F3E0012084F85000FFF7F7FC6C
:1027D000814694F951006168012809D0B1F5827FE2
:1027E00004D1A168002901D1042801D00225D6E036
:1027F000002E06D0002F04D01FFA8AFABAF1000F7B
:1028000001D10125CBE094F95100012802D1052026
:1028100084F8510000206065A763A4F83EA0A4F8E6
:102820003CA02663A4F836A0A4F834A000202064BD
:102830000020606420680068400605D420680068B5
:1028400050F0400021680860DDF828A0E068B0F58D
:10285000006F40D16068002802D0E08E012806D1C8
:1028600030882168C860B61CE08E401EE086E08E8D
:10287000002802D1E08F00286ED0B8F1000F0FD0F1
:10288000E08E00280CD020688068800708D530884A
:102890002168C860B61CE08E401EE0865FF000082C
:1028A000E08F00280CD020688068C00708D5206819
:1028B000C0683880BF1CE08F401EE0875FF00108D1
:1028C0001AF1010FD3D0FFF77AFCB0EB09005045A5
:1028D000CDD3032563E06068002802D0E08E012894
:1028E00006D1307821680873761CE08E401EE086A1
:1028F000E08E002802D1E08F00282DD0B8F1000F23
:102900000FD0E08E00280CD020688068800708D5A2
:10291000307821680873761CE08E401EE0865FF0F8
:102920000008E08F00280CD020688068C00708D518
:102930002068C06838707F1CE08F401EE0875FF021
:1029400001081AF1010FD3D0FFF739FCB0EB0900F1
:102950005045CDD3032522E0CDF800905346012207
:102960000221200000F025F8002801D0032516E000
:102970004A465146200000F06DF8002803D001259A
:10298000202060650BE0A068002808D1002000909E
:102990002068C0680090206880680090009801203E
:1029A00084F85100002084F85000280040B2BDE8AF
:1029B000F6872DE9F04104000D0016001F00DDF838
:1029C0001880206880682840A84201D1012000E0DA
:1029D0000020B0423BD017F1010FF2D0002F05D0FC
:1029E000FFF7EDFBB0EB0800B842EAD3206840687F
:1029F00030F0E000216848606068B0F5827F0DD15A
:102A0000A068B0F5004F03D0A068B0F5806F05D185
:102A10002068006830F0400021680860A06AB0F5C6
:102A2000005F0CD1206800684DF6FF7108402168F6
:102A300008602068006850F4005021680860012098
:102A400084F85100002084F85000032000E00020AA
:102A5000BDE8F08110B582B0040000920B000022A6
:102A600080212000FFF7A5FF002805D0606D50F001
:102A700020006065032000E0002016BD2DE9F04F26
:102A800080460FF2847095B092461D46D0E900232F
:102A9000CDE9132303AE00200391B0610DF1340999
:102AA00000E0A2440020ADF8020013AB4FF0FF326B
:102AB00051460DF1020000F0B3FB0446012C05DA8B
:102AC0009AF80000441EA441E443E40FBDF802005C
:102AD00025280CBFA4F1010BA346BBF1010F0EDBAF
:102AE000574617F8011B0398C0470028039000F0D1
:102AF000CE81B069401CBBF1010BB061F1D1BDF8D2
:102B00000200252804D10020F0603061706105E0EA
:102B10000028C6D1B069BCE140F001001AF8011FDD
:102B20002029F9D023290DD02B2904D02D2906D016
:102B300030290AD00CE040F0020080B2EEE740F00D
:102B40000400FAE740F00800F7E740F01000F4E76F
:102B50002A290FD12968296051F8042B2960002AFD
:102B6000326204D5514240F00400316280B20AF171
:102B7000010A15E0002131620CE0316A6FF0004378
:102B8000994205D001EB810302EB430130393162F8
:102B90000AF1010A9AF80020A2F130010A29ECD3C7
:102BA0009AF800102E2903D04FF0FF31F16122E096
:102BB0001AF8011F2A2908D1296829600AF1010A97
:102BC00051F8042B2960F26115E00021F1610CE05D
:102BD000F1696FF00043994205D001EB810302EBEC
:102BE00043013039F1610AF1010A9AF80020A2F19B
:102BF00030010A29ECD3B0840FF214609AF8001067
:102C000000F01EFB08B11AF8010B8DF832009DF898
:102C10003200682804BF9AF80000682804D16220B6
:102C20008DF832000AF1010A0DA8B0601AF8014BC4
:102C3000252C13D0582C40D0632C00F09880642CA5
:102C400018BF692C71D06F2C37D0702C2BD0732CFF
:102C50000AD0752C18BF782C2FD0ABE00120F06083
:102C600025208DF83400AFE09DF832006C282868EC
:102C7000286014D050F8044B28607460F769002F66
:102C800004D5204600F0E8FA074606E03A4600215F
:102C9000204600F0FDFA00B1071B376194E050F8C0
:102CA000042B28607FE02868286050F8041B286007
:102CB00002910DA87060782155E09DF832006C28D3
:102CC0000DD0712818BF6A2809D12868C01D20F0CE
:102CD00007022A60D2E9000108322A6004E029686C
:102CE000296051F8040B296002909DF83200682891
:102CF00002D102A8008803E0622802D102A800786D
:102D0000029096F82400000728D5029830B344F0CA
:102D10002000782822D1F068302100F80910401CEA
:102D2000411CF16000F8094018E09DF83200294686
:102D300000F0B2F80028029002D5F0682D2109E0D9
:102D4000B08C810702D5F0682B2103E0C00705D5C0
:102D5000F068202100F80910401CF0600DA8F1680F
:102D600008187060214602A800F0CFF92CE09DF809
:102D700032006C2809D00120F0602868286050F8E3
:102D8000041B28608DF834101EE02868286001AA12
:102D900050F8041B2860ADF804100020ADF80600C0
:102DA0004FF0FF30F06102A9404600F09BF8002888
:102DB0000AD56CE00120F06025208DF834001CB1AC
:102DC0000220F06089F80140306AF168401A7169A8
:102DD000401A3169441A96F8240040070FD4202085
:102DE0008DF80000002708E001236A4602A940464A
:102DF00000F0F2F900284AD17F1CA742F4DBF76803
:102E00000DF1340B0AE01BF8011B0398C0470028A2
:102E100003903CD0B069401CB0617F1E002FF2D1FE
:102E200030208DF800004FF0000B776908E0012397
:102E30006A4602A9404600F0CFF940BB0BF1010BF6
:102E4000BB45F4DB3769D6F804B009E01BF8011B79
:102E50000398C0470390D0B1B069401CB0617F1E99
:102E6000002FF3D196F8240040077FF51BAE2020F9
:102E70008DF8000000E07F1CA742BFF613AE0123CF
:102E80006A4602A9404600F0A7F90028F3D04FF0A7
:102E9000FF3015B0BDE8F08F622815D068280CD03F
:102EA0006C2818BF742816D07A2814D10A680A60D2
:102EB00052F8040B0A60002170470A680A6052F851
:102EC000040B0A6000B20BE00A680A6052F8040BB7
:102ED0000A6040B204E00A680A6052F8040B0A6013
:102EE000C11770472DE9F44F0D4694B0D5F820A0D6
:102EF000BAF1000F804648BF6FF0004A00F0F4F9C5
:102F0000696A401801900FF21030D0E90023CDE932
:102F1000022395F82800400702D40198412805D2E1
:102F200040200DF110090190002607E000F0E2F9C1
:102F30005FEA0009F8D1AAE7AAEB040ABAF1010F87
:102F4000C0F28B801498018802AA0DF1010000F0F4
:102F500029FA0028044600F18E801498008810B9E0
:102F6000641E00F18880A24577DB28690199221848
:102F7000914260D26E624042A969401A6969461A5C
:102F800095F8280040070FD420208DF80000002776
:102F900008E001236A462946404600F01DF9002852
:102FA00069D17F1CB742F4DB2F69CB460AE01BF8DE
:102FB000011B6868C047002868605CD0E869401C55
:102FC000E8617F1E002FF2D130208DF800004FF015
:102FD000000BAF6909E001236A462946404600F02C
:102FE000FBF8002847D10BF1010BBB45F3DB6F6900
:102FF000D5F808B009E01BF8011B6868C047686095
:10300000C8B3E869401CE8617F1E002FF3D195F832
:10301000280040070DD520208DF8000007E001238F
:103020006A462946404600F0D7F820BB7F1CB742CD
:10303000F5DB00262E61224628690DF10101484486
:1030400000F0BEF92869201828611498801C14909B
:10305000801E008800287FF46FAF686A2969401AD3
:10306000A969401A6969A0EB010A95F82800400790
:1030700010D400240CE04FF0FF363EE068682021B9
:10308000C04700286860F6D0E869401CE861641C0D
:103090005445F3DB2B694A462946404600F09CF82C
:1030A0000028E8D1AC69002709E068683021C047F2
:1030B00000286860DFD0E869401CE8617F1CA742F7
:1030C000F3DB6B69AA682946404600F085F80028C2
:1030D000D1D195F8280040070DD5002409E0686893
:1030E0002021C04700286860C5D0E869401CE8611D
:1030F000641C5445F3DB2E616E6204A881451CBF3D
:10310000484600F099F93046C3E6F0B4C2686F292A
:1031100008BF082405D041F02003782B14BF0A24EF
:10312000102418230668642918BF6929374602D17C
:10313000002E48BF7F425FB9056A4DB9082C27D1E0
:1031400090F82810090723D530211723D1751FE0E7
:10315000B7FBF4F604FB16773037FFB25D1E3A2F4B
:10316000A4BFA1F1510C6744AF542B46370003D0E4
:1031700085689E18B542EBD3082C09D190F8281029
:10318000090705D5995C302902D05B1E302199547E
:103190009A188260C3F11801026A4161914208DA0B
:1031A000511A81614FF6EF72018D11400185F0BC1B
:1031B0007047002A0ED590F8282002F01402102A39
:1031C00008D1426A0369D21A8369D21A531A012BB1
:1031D000A8BF8361F0BC7047F8B504460D4616469B
:1031E0001F46002004E0E869401CE8617F1E0020C3
:1031F00047B116F8011B6868A04700286860F2D143
:103200004FF0FF30F2BD00000000000000000000A1
:10321000686C747A4C0000000000000000000000A0
:10322000F8B504460D4616461F4600F045F93B46E4
:1032300032462946204601B0BDE8F04000F053B9BF
:103240000278C9B28A421AB11CBF10F8012FF9E7FF
:1032500018BF00207047000000F10103810704D06F
:1032600010F8011B89B18107FAD10268B2F101316E
:10327000914311F0803F04BF50F8042FF6E710F897
:10328000011B11B110F8011BFBE7C01A70470000C9
:10329000C9B2830706D0521E22D310F8013B9942CF
:1032A000F7D11FE0083A13D302F1040241EA0121E9
:1032B00041EA014150F8043B121F21BF4B40A3F1EA
:1032C000013C2CEA030C1CF0803FF3D0C9B2001F74
:1032D000083210F8013B521E28BF91EA030FF8D8BC
:1032E00018BF0120401E704780B500F0E5F80120AE
:1032F00002BD000070B5054605F10F00C408C046C8
:10330000C046E400A54232D2082C04D2082402E0D0
:10331000083000F091F82248026811000CD1011D1C
:103320000A6802B31368A34238BF111DF8D310E036
:103330001D68A5420DD2191D0B68002BF8D112682B
:10334000011D00E0191D0B6893420CD01D68A542B9
:10335000F8D361B10D682A68A2F10803A3420AD22A
:103360006A680A600FE000F0E1F80028D0D1C0469A
:10337000C046002070BD63190B60121B6E685E6052
:103380000B681A602C60096800291DBF4A68002A72
:10339000091D00210160C046C04605F1080070BD4E
:1033A0003402002070B504460D46164600F084F83D
:1033B000324629462046BDE8704000F087B800003C
:1033C00062B38B0708D0521E11F8013B00F8013B95
:1033D00000F024808B07F6D1830740F0208000BFE7
:1033E000103A07D330B4B1E83810103AA0E83810DA
:1033F000F9D230BC530724BFB1E80810A0E8081088
:1034000044BF51F8043B40F8043BD20724BF31F8D5
:10341000022B20F8022B44BF0B7803707047083A48
:1034200007D3B1E80810083A40F8043B40F804CB51
:10343000F7D25307E4E7000000B9704738B5A0F1B0
:1034400008042068082833D310F0070F30D1C04695
:10345000C0461848416809B18C4203D2616044609B
:1034600017E019464B680BB1A342FAD30B685D18FD
:10347000AC421BD3A54204D12268D2180A600C4684
:1034800007E04A681AB123681B199A420ED362609A
:103490004C60616851B1226813198B4206D1002338
:1034A000036008688018206048686060C046C046B5
:1034B00031BD00003402002080B5DFF80C0000F0C0
:1034C0004BF8806902BD00000800002030B430B91C
:1034D0000FF24800D0E90045C2E900451BE0017049
:1034E000012030BC704730B431B90FF23800D0E958
:1034F0000045C3E900450EE01AB930BC6FF0010089
:10350000704708B10A7802800978481E804130BCB3
:10351000C043C00F7047002030BC7047000000005F
:1035200000000000000000000000000007490868DB
:1035300008B1002070470648C008C000086005496F
:10354000C908C900091A0160704700BF480200207D
:1035500057120020501400207047000010B50400DE
:10356000002C01D1012033E0A0690028FFD194F89C
:103570003900002805D1002084F83800200000F030
:10358000D1FB242084F839002068C06830F4005052
:103590002168C860200000F039FA2068006930F422
:1035A0009040216808612068406930F02A00216855
:1035B00048612068C06850F400502168C86000204D
:1035C000E063202084F83900202084F83A000020AD
:1035D00010BD2DE9F04182B004000D0016001F005F
:1035E0005FF0000894F8390020285DD1002D02D04A
:1035F000B6B2002E01D1012057E094F9380001281D
:1036000001D1022051E0012084F838000020E0635D
:10361000212084F83900FEF7D2FD8046A684E68496
:1036200003E02878216848606D1CE08C002828D0D1
:10363000E08C401EE084A068B0F5805F16D1009752
:10364000434600228021200000F0FCF8002801D031
:1036500003202AE02888C005C00D21684860206941
:10366000002801D1AD1CE0E76D1CDEE70097434662
:1036700000228021200000F0E5F80028D1D00320AE
:1036800013E00097434600224021200000F0DAF8C2
:10369000002801D0032008E0202084F83900002011
:1036A00084F83800002000E00220BDE8F68190F8A0
:1036B0003A30202B28D1002902D092B2002A01D121
:1036C000012022E090F93830012B01D102201CE0CA
:1036D000012380F8383081628285C2850021C16370
:1036E000222180F83A10002180F8381001684969D9
:1036F00051F00101026851610168C96851F490718B
:103700000068C160002000E00220704738B5040066
:10371000206800682168C968226852690023002374
:1037200010F00F03002B07D1850605D58D0603D5B4
:10373000200000F01EF982E0002B70D0D30702D4E5
:1037400011F4907F6BD010F00103DBB2002B05D099
:10375000CB0503D5E36B53F00103E363430708D5BF
:1037600012F00103DBB2002B03D0E36B53F0020332
:10377000E363830708D512F00103DBB2002B03D00B
:10378000E36B53F00403E363030708D512F001026F
:10379000D2B2002A03D0E26B52F00802E263E26B7D
:1037A000002A3BD0800604D5880602D5200000F010
:1037B000E0F820684069800910F00103E06B000721
:1037C00001D4002B25D0200000F074F82068406957
:1037D00040061AD52068406930F0400021684861F1
:1037E000606B00280DD00FF2F100616B0865606B13
:1037F00000F002FB002811D0606B616B096D8847F7
:103800000CE0200000F01DF808E0200000F019F89E
:1038100004E0200000F015F80020E0630FE002064D
:1038200005D50A0603D5200000F060F807E0400641
:1038300005D5480603D5200000F08DF8FFE731BD1F
:10384000704770472DE9F04104000D0016001F007D
:10385000DDF81880206800682840A84201D10120C6
:1038600000E0002076B2B04221D118F1010FF1D072
:10387000B8F1000F04D0FEF7A2FCC01B8045E9D2CE
:103880002068C06830F4D0702168C8602068406942
:103890004008400021684861202084F83900202039
:1038A00084F83A00002084F83800032000E000206B
:1038B000BDE8F0810168C96831F490710268D16097
:1038C000016849694908490002685161202180F86E
:1038D0003A1070470000000080B5806B0021C18560
:1038E0000021C184FFF7ADFF01BD000090F8391041
:1038F00021292ED18168B1F5805F10D1016A098834
:10390000C905C90D026851600169002903D1016A26
:10391000891C016209E0016A491C016205E0016A33
:103920004A1C0262097802685160C18C491EC18438
:1039300089B200290BD10168C96831F080010268A1
:10394000D1600168C96851F040010068C160002081
:1039500000E00220704780B50168C96831F040017D
:103960000268D160202180F83910FFF769FF00203C
:1039700002BD80B590F83A10222945D18168B1F591
:10398000805F14D1816A0269002A08D102685268F6
:10399000D205D20D0A80816A891C816219E0026811
:1039A0005268D2B20A80816A491C816211E00169C1
:1039B000002906D1816A4A1C8262026852680A7034
:1039C00007E0816A4A1C82620268526812F07F0234
:1039D0000A70C18D491EC18589B2002912D10168C2
:1039E000C96831F490710268D16001684969490879
:1039F000490002685161202180F83A1000F0B5FAC0
:103A0000002002E0002000E0022002BD2DE9F0418C
:103A1000040000202068006930F44050E168084349
:103A2000216808612068C068BB490840A168226914
:103A3000114362691143E269114308432168C86078
:103A40002068406930F44070A169084321684861EA
:103A5000E069B0F5004F40F0B0802068AF4988427F
:103A600003D02068AE49884253D100F0F1FD804672
:103A700000F0EEFD060000F0EBFD070000F0E8FDB1
:103A8000050000F0E5FD192101FB08F16268520014
:103A9000B1FBF2F16422B1FBF2F1192202FB06F252
:103AA00063685B00B2FBF3F2192303FB07F366685C
:103AB0007600B3FBF6F36426B3FBF6F3642606FB4D
:103AC0001322D20032326423B2FBF3F212F0F80276
:103AD000520012EB0111192202FB05F263685B0030
:103AE000B2FBF3F21923584363685B00B0FBF3F0B9
:103AF0006423B0FBF3F0642303FB1020C0003230DA
:103B00006422B0FBF2F010F00700401821688860D2
:103B100000E100F08DFD804600F08AFD060000F017
:103B200087FD070000F084FD050000F081FD1921EC
:103B300001FB08F162685200B1FBF2F16422B1FBB3
:103B4000F2F1192202FB06F263685B00B2FBF3F2AA
:103B5000192303FB07F366687600B3FBF6F36426CC
:103B6000B3FBF6F3642606FB1322D2003232642341
:103B7000B2FBF3F212F0F802520012EB011119221B
:103B800002FB05F263685B00B2FBF3F219235843B2
:103B900063685B00B0FBF3F06423B0FBF3F06423D5
:103BA00003FB1020C00032306422B0FBF2F010F0B2
:103BB0000700401821688860ACE0206857498842B7
:103BC00003D020685649884252D100F041FD80461A
:103BD00000F03EFD060000F03BFD070000F038FD60
:103BE000050000F035FD192101FB08F16268920023
:103BF000B1FBF2F16422B1FBF2F1192202FB06F2F1
:103C000063689B00B2FBF3F2192303FB07F36668BA
:103C1000B600B3FBF6F36426B3FBF6F3642606FBAB
:103C20001322120132326423B2FBF3F212F0F002DB
:103C300012EB0111192202FB05F263689B00B2FB33
:103C4000F3F21923584363689B00B0FBF3F064233D
:103C5000B0FBF3F0642303FB102000013230642238
:103C6000B0FBF2F010F00F0040182168886051E0BE
:103C700000F0DEFC804600F0DBFC060000F0D8FC23
:103C8000070000F0D5FC050000F0D2FC192101FB73
:103C900008F162689200B1FBF2F16422B1FBF2F12B
:103CA000192202FB06F263689B00B2FBF3F21923B0
:103CB00003FB07F36668B600B3FBF6F36426B3FBB9
:103CC000F6F3642606FB1322120132326423B2FBA0
:103CD000F3F212F0F00212EB0111192202FB05F2CD
:103CE00063689B00B2FBF3F21923584363689B009F
:103CF000B0FBF3F06423B0FBF3F0642303FB10206C
:103D0000000132306422B0FBF2F010F00F004018D6
:103D100021688860BDE8F081F369FFFF0010014071
:103D20000014014000B587B000682E49884221D1B7
:103D3000002000902C48006850F010002A490860CC
:103D40002948006810F01000009000984020019071
:103D50000220029001200390032004900720059088
:103D600001A92248FEF7B4F88020019001A91F485C
:103D7000FEF7AEF807B000BD80B5002000901C48EB
:103D8000006850F002001A4908601948006810F0F5
:103D90000200009000981348164908605FF4E13073
:103DA0001449486000201349886000201149C86008
:103DB0000020104908610C200E49486100200D497F
:103DC000886100200B49C8610A48FFF7C7FB01BDA5
:103DD00001B54FF6FF73012269460648FFF7F9FB6C
:103DE000009802BD00100140443802400004024027
:103DF00030380240B401002090F93510022903D078
:103E000080214165012009E0052180F83510016815
:103E100009684908490000680160002070470000F7
:103E200000B593B0002000906748006850F08050C3
:103E3000654908606448006810F080500090009860
:103E4000002000906148006850F480405F4908609D
:103E50005E48006810F480400090009801200690B1
:103E60005FF48030079002200C905FF480000D908A
:103E700008200E904FF4A8700F9002201090072099
:103E8000119006A800F0BAF80F20019002200290CD
:103E9000002003904FF4A05004904FF48050059000
:103EA000052101A800F09EFA00F075FB00F0BDFBB3
:103EB0004FF47A71B0FBF1F0FEF7C8FB0420FEF777
:103EC000C9FB002200215FF0FF30FEF7A9FB13B011
:103ED00000BD00B583B0FEF73DF9FFF7A1FFFFF786
:103EE0004BFF00F018FCFDF79AFC01003848FEF784
:103EF000ABFA002000904FF4F0734FF4A072002151
:103F00000020FDF7D2FD01224FF400713148FEF789
:103F1000CCF8182001901F20009000232E4A322157
:103F20004620FDF715FF02222C492D48FFF7BFFB65
:103F30004FF6FF7301222B492948FFF74AFB012066
:103F4000294908704FF47A70FEF73CF94FF6FF7379
:103F5000012226492248FFF73CFB01202449087032
:103F60004FF47A70FEF72EF9E2E780B51E4800782C
:103F7000012813D1194800784FF48071174A5278FC
:103F800001FB002189B21B48FEF75EFA00201649AA
:103F90000870012211491248FFF789FB1448007884
:103FA00001280FD10D480078B0F12D01C9B2124897
:103FB000FEF74AFA00200E49087002220749084815
:103FC000FFF775FB01BD0000403802400070004063
:103FD000704F000800080240804F00084C0200208B
:103FE000F4010020B90000204E020020BA00002099
:103FF0004F020020484F00085C4F000838B504000D
:1040000000252078C0076FD5DFF86406006810F03F
:104010000C0004280BD0DFF85806006810F00C00E4
:1040200008280ED1DFF84C060068400209D5DFF8F9
:1040300048060068800357D56068002854D10120E5
:10404000CFE16068B0F5803F08D1DFF82C0600684A
:1040500050F48030DFF82016086024E06068B0F586
:10406000A02F10D1DFF81006006850F48020DFF890
:1040700008160860DFF80006006850F48030DFF8AA
:10408000F81508600FE0DFF8F005006830F48030C4
:10409000DFF8E4150860DFF8E005006830F4802000
:1040A000DFF8D4150860606800280ED0FEF787F8A6
:1040B0000500DFF8C4050068800315D4FEF77FF81B
:1040C000401B6528F5D303208BE1FEF778F8050047
:1040D000DFF8A4050068800306D5FEF770F8401BE2
:1040E0006528F5D303207CE1207880072BD5DFF805
:1040F0008005006810F00C0F0BD0DFF87405006825
:1041000010F00C00082837D1DFF86805006840027D
:1041100032D4DFF864050068800704D5E068012820
:1041200001D001205DE1DFF8500500685FF0F85133
:10413000B1FA81F130F0F800226912FA01F1084376
:10414000DFF8341508602078000762D56069002820
:104150004CD00120DFF824150860FEF730F8050088
:10416000DFF81C050068800753D4FEF728F8401BD1
:104170000328F5D3032034E1E068002823D0012090
:10418000DFF800150860FEF71AF80500DFF8E8040C
:104190000068800706D4FEF712F8401B0328F5D309
:1041A00003201EE1DFF8D00400685FF0F851B1FA97
:1041B00081F130F0F800226912FA01F10843DFF8CA
:1041C000B8140860BFE70020DFF8B8140860FDF7F6
:1041D000F6FF0500DFF8A00400688007B3D5FDF7FF
:1041E000EEFF401B0328F5D30320FAE00020DFF8A0
:1041F0008C140860FDF7E3FF0500DFF88404006815
:10420000800706D5FDF7DBFF401B0328F5D303200D
:10421000E7E0207840077CD500200090DFF86804B4
:10422000006850F08050DFF860140860DFF8580430
:10423000006810F0805000900098DFF8500400688B
:1042400050F48070DFF844140860FDF7B8FF0500F3
:10425000DFF838040068C00506D4FDF7B0FF401B46
:104260000328F5D30320BCE0A068012808D1DFF8BB
:104270002004006850F00100DFF81414086023E007
:10428000A068052810D1DFF80804006850F0040089
:10429000DFF8FC130860DFF8F803006850F0010055
:1042A000DFF8EC1308600FE0DFF8E4030068400873
:1042B0004000DFF8DC130860DFF8D403006830F05A
:1042C0000400DFF8CC130860A068002810D0FDF7C8
:1042D00076FF0500DFF8B8030068800719D4FDF702
:1042E0006EFF401B41F289318842F3D3032078E00E
:1042F000FDF765FF0500DFF898030068800708D523
:10430000FDF75DFF401B41F289318842F3D3032062
:1043100067E0A069002863D0DFF85403006810F05C
:104320000C0008285AD0A069022844D10020DFF8E8
:1043300064130860FDF743FF0500DFF83C030068E5
:10434000800106D5FDF73BFF401B0328F5D3032072
:1043500047E0DFF84403B0FA80F14FF44040B0FA90
:1043600080F2F020B0FA80F0E369256A2B43656A99
:1043700015FA01F11943A36A5B085B1E13FA02F2F6
:104380001143E26A12FA00F00843DFF8E81208600D
:104390000120DFF800130860FDF711FF0500DFF8CA
:1043A000D802006880011BD4FDF709FF401B0328D9
:1043B000F5D3032015E00020DFF8D8120860FDF7E0
:1043C000FEFE0500DFF8B0020068800108D5FDF7A9
:1043D000F6FE401B0328F5D3032002E0012000E095
:1043E000002032BD70B504000D000026DFF8AC02DD
:1043F000006810F00F00A8420BD2DFF8A002057091
:10440000DFF89802006810F00F00A84201D00120E8
:10441000C0E02078800709D5DFF85402006830F04A
:10442000F000A1680843DFF8481208602078C00750
:1044300072D56068012806D1DFF83C02006880036D
:1044400015D40120A6E06068022802D06068032825
:1044500006D1DFF824020068800108D4012099E029
:10446000DFF814020068800701D4012092E0DFF831
:10447000000200688008800061680843DFF8F011DE
:104480000860FDF79CFE0600606801280FD1DFF888
:10449000E001006810F00C0004283DD0FDF78FFE0D
:1044A000801B41F289318842F1D3032072E06068B9
:1044B00002280FD1DFF8B801006810F00C000828BE
:1044C0002AD0FDF77CFE801B41F289318842F1D36E
:1044D00003205FE0606803280FD1DFF894010068D3
:1044E00010F00C000C2817D0FDF769FE801B41F27C
:1044F00089318842F1D303204CE0DFF87401006871
:1045000010F00C0F08D0FDF75AFE801B41F28931E4
:104510008842F2D303203DE0DFF88001006810F00C
:104520000F0085420BD2DFF874010570DFF86C01D3
:10453000006810F00F00A84201D001202AE0207886
:10454000400707D54A48006830F4E050E168084366
:10455000474908602078000708D54548006830F4CE
:104560006040216950EAC1004149086000F017F835
:104570003F4909685FF07062B2FA82F2484B11F06D
:10458000F001D140C95CC840464908600020FDF7F1
:10459000FEFD002070BD01204349086070470020E7
:1045A0000020002100203248006810F00C00002894
:1045B00004D0042804D0082804D034E03B4833E079
:1045C0003B4831E02B48006810F03F00294909685A
:1045D00049020DD527490968354AB2FBF0F047F684
:1045E000C07211402C4AB2FA82F2D14048430CE02A
:1045F000204909682D4AB2FBF0F047F6C07211401D
:10460000254AB2FA82F2D14048431A49096811F4A6
:1046100040314FF44042B2FA82F2D140491C490085
:10462000B0FBF1F000E0214870471E480068704779
:1046300080B5FFF7FAFF0E4909685FF46012B2FA1D
:1046400082F21C4B11F4E051D140C95CC84002BD5C
:1046500080B5FFF7EAFF064909685FF4E022B2FA85
:1046600082F2144B11F46041D140C95CC84002BDD4
:10467000083802400438024000380240800E4742A9
:104680007438024000004742403802400070004049
:1046900070380240600047420000FE03003C0240C8
:1046A000904F0008B40000204C0047420024F40062
:1046B00000127A00BC4F000800B587B000200090BF
:1046C0002948006850F0040027490860264800681F
:1046D00010F004000090009800200090234800682B
:1046E00050F40020214908602048006810F40020A0
:1046F000009000984FF44060019002200290012049
:104700000390032004900820059001A91848FDF7A4
:10471000DFFB07B000BD80B5FFF7CEFF1548164997
:1047200008604FF416501449486000201249886010
:1047300000201149C86000200F4908610C200E4973
:10474000486100200C49886100200B49C8610A4873
:10475000FEF704FF002201213420FDF761FF342021
:10476000FDF76FFF01BD00003038024040380240C5
:1047700000080240004C0040F4010020000000004E
:1047800000000000000000000000000000001818F9
:104790001818180808080800181800000000003C45
:1047A000242400000000000000000000000000447D
:1047B0002424FF242424FF22121200000000083CBD
:1047C0002E6A0E0C38686A6A2E1C0800000000264B
:1047D00025151D1668585454526200000000001C34
:1047E0003434140C0E4A5363F61C00000000000819
:1047F0000808000000000000000000000000402049
:104800003010101010101010202040000000020482
:104810000408080808080808040603000000001837
:10482000187E183C5A181800000000000000000014
:1048300000080808FF080808000000000000000049
:10484000000000000000000006060200000000005A
:10485000000000007F0000000000000000000000D9
:1048600000000000000000000606000000000040FC
:104870002020101008080404020100000000003C81
:1048800026424242424242623418000000000010B8
:10489000181E1A1818181818181800000000003CE4
:1048A00066426020301008047E7E00000000003C5C
:1048B0006642603030604042261800000000002050
:1048C000303828242622FF20202000000000007C11
:1048D00006020A3E62404063361C000000000010E1
:1048E00018080C3E46C2C242663C00000000007E32
:1048F00040602030101808080C0C00000000003C3C
:104900006242623E3E424342663C00000000003C80
:1049100062434363363C1018080C0000000000009E
:10492000000000180000000018180000000000003F
:1049300000000018000000001818080000000040E7
:1049400020100806020408102040000000000000AB
:1049500000007F0000007F00000000000000000257
:104960000408102040201008060200000000003C4F
:104970006662603010080000080800000000003C7B
:104980004279696555555529023C00000000001820
:1049900018183C24243E664242C300000000003E3A
:1049A0006242423E3E4242427E1E00000000003C07
:1049B00066424202024242466C3800000000001E7D
:1049C00032624242424242623E0E00000000007EDD
:1049D0000202027E7E0202027E7E00000000007E55
:1049E000020202023E020202020200000000003C3B
:1049F00066424202727242466C5800000000004259
:104A00004242427E7E424242424200000000001882
:104A10001818181818181818181800000000004066
:104A200040404040404042623E1C000000000062A6
:104A300022121A0E1E12322262C200000000000270
:104A400002020202020202027E7E000000000066F4
:104A5000666666765E5A5A5A5A4A0000000000425C
:104A600046464E4A5A527262626200000000003CA2
:104A70006642424343434262261800000000003E63
:104A8000624242427E0E0202020200000000003C2E
:104A90006642424343435272267800000000003EC3
:104AA000624242623E123222624200000000003C3A
:104AB0006662060C38604242663C00000000007EE0
:104AC00018181818181818181818000000000042B4
:104AD0004242424242424242663C000000000043E1
:104AE0004262662624341C1818180000000000D901
:104AF0005B5B5A5A56566666262600000000006226
:104B000026241C18181C34266243000000000043B1
:104B10006226341C18181818181800000000007EAF
:104B200060203010080C04067E7E00000078080823
:104B300008080808080808080808780000000002AB
:104B4000040404080810101020204040001E10101B
:104B5000101010101010101010101E000018344209
:104B60000000000000000000000000000000000045
:104B70000000000000000000000000FF000C181002
:104B80000000000000000000000000000000000025
:104B90000000003C62706E62725C00000000000267
:104BA0000202023E62424262661A000000000000F9
:104BB0000000003C62020242661C0000000000404F
:104BC0004040407E62424262665C0000000000009D
:104BD0000000003C627E024266380000000000785F
:104BE0000808087E080808080808000000000000FF
:104BF0000000007C22223C023E62423E0000000295
:104C00000202027A4642424242420000000000187C
:104C100018000018181818181818000000000030A4
:104C200030000030303030303030321E00000002B2
:104C3000020202321A1E1622624200000000001810
:104C40001818181818181818181800000000000074
:104C5000000000EFDBDBDBDBDBDB00000000000043
:104C60000000007A4642424242420000000000003A
:104C70000000003C62424242661800000000000052
:104C80000000003E62424262661A0202000000001A
:104C90000000007E62424262665C4040000000000C
:104CA000000000340C0404040404000000000000B0
:104CB0000000003C66063842663C00000000000030
:104CC0000808083F080808084870000000000000B5
:104CD0000000004242424262765C00000000000098
:104CE000000000426624241C181800000000000088
:104CF000000000DB5B5A566626240000000000001E
:104D0000000000263418183C264200000000000075
:104D1000000000426624241C1818080E0000000041
:104D20000000007E30100804067E00000060303075
:104D30003030303010303030303020001818181833
:104D40001818181818181818181818180006040435
:104D5000040404040804040404040400044E72005F
:104D60000000000000000000000000000F48006884
:104D700050F001000D49086000200D4908600B4803
:104D800000680C490840094908600B480B49086055
:104D90000648006830F48020044908600020084973
:104DA00008605FF000600749086070470038024003
:104DB00008380240FFFFF6FE10300024043802409D
:104DC0000C38024008ED00E019E050F8041BCB0756
:104DD00044BFA9F101035918121F0023042A41F806
:104DE000043BF9D25FEA827C0B4604D54FF0000CFD
:104DF000A1F800C09B1CD10744BF0021197050F8D6
:104E0000042B002AE1D17047466C61736849442045
:104E1000697320307825582C20204D616E756661AD
:104E200063747572657220446576696365204944D0
:104E300020697320307825580A0000007047FEE78B
:104E4000FEE7FEE7FEE770477047704780B5FDF765
:104E5000B0F9FDF721FC01BD704780B50148FEF7B0
:104E600055FC01BDF401002010B450F8041B79B1C9
:104E70000268436812180830DC0744BFA9F1010436
:104E8000E31852F8044B43F8044B091FF9D1ECE73F
:104E900010BC704710B5074979441831064C7C4462
:104EA000163404E00A68081D511888470146A142DB
:104EB000F8D110BD08000000280000000DFFFFFF22
:104EC00094010000BC000020000000009DFFFFFFD7
:104ED000BC0000002C0200000000002000000000C8
:104EE00000F00BF8002801D0FFF7D4FF0020C046E7
:104EF000C046FEF7EEFF00F002F80120704700F018
:104F000001B800000746384600F002F8FBE7000051
:104F100080B5C046C046024A11001820ABBEFBE770
:104F20002600020038B504460D46284600F006F873
:104F3000A84218BF0024204632BD00000149FEF7F8
:104F400047BF00BF74000020B2E2C1BFB5C4BEE0DD
:104F5000C0EBCEAA3A25646D6D0A0000B2E2C1BF73
:104F6000B5C4CEC2B6C8CEAAA3BA2564A1E60A00CB
:104F70004C43442049443D3078253038580A0000DD
:104F8000B3ACC9F9B2A8BEE0C0EBB2E2C1BF000049
:104F900000000000000000000102030406070809E9
:104FA00001488047014800476D4D0008B14F000897
:104FB000C046C046C046C046FFF792FF0000000052
:104FC00001020304FFF7FEBFFFF7FEBFFFF7FEBFBE
:104FD000FFF7FEBFFFF7FEBFFFF7FEBFFFF7FEBF05
:104FE000FFF7FEBFFFF7FEBFFFF7FEBFFFF7FEBFF5
:104FF000FFF7FEBFFFF7FEBFFFF7FEBFFFF7FEBFE5
:10500000FFF7FEBFFFF7FEBFFFF7FEBFFFF7FEBFD4
:10501000FFF7FEBFFFF7FEBFFFF7FEBFFFF7FEBFC4
:10502000FFF7FEBFFFF7FEBFFFF7FEBFFFF7FEBFB4
:10503000FFF7FEBFFFF7FEBFFFF7FEBFFFF7FEBFA4
:10504000FFF7FEBFFFF7FEBFFFF7FEBFFFF7FEBF94
:10505000FFF7FEBFFFF7FEBFFFF7FEBFFFF7FEBF84
:10506000FFF7FEBFFFF7FEBFFFF7FEBFFFF7FEBF74
:10507000FFF7FEBFFFF7FEBFFFF7FEBFFFF7FEBF64
:10508000FFF7FEBFFFF7FEBFFFF7FEBFFFF7FEBF54
:10509000FFF7FEBFFFF7FEBFFFF7FEBFFFF7FEBF44
:1050A000FFF7FEBFFFF7FEBFFFF7FEBFFFF7FEBF34
:1050B000FFF7FEBFFFF7FEBFFFF7FEBFFFF7FEBF24
:1050C000FFF7FEBFFFF7FEBFFFF7FEBFFFF7FEBF14
:1050D000FFF7FEBFFFF7FEBFFFF7FEBFFFF7FEBF04
:1050E000FFF7FEBFFFF7FEBFFFF7FEBFFFF7FEBFF4
:1050F000FFF7FEBFFFF7FEBFFFF7FEBFFFF7FEBFE4
:10510000000000000000000000000000000000009F
:10511000000000000000000000000000000000008F
:10512000000000000000000000000000000000007F
:10513000000000000000000000000000000000006F
:10514000000000000000000000000000000000005F
:10515000000000000000000000000000000000004F
:10516000000000000000000000000000000000003F
:10517000000000000204010164010020B4010020CD
:10518000640100206401002064010020B1000020BF
:105190009800002000000000000000000000000057
:1051A00000000000000000000000000000000000FF
:0C51B000000000000024F4000155500035
:0400000508004FB1EF
:00000001FF
