:020000040800F2
:10000000A01000209D01000847150008FD140008FD
:100010004515000811020008ED1D00080000000051
:100020000000000000000000000000004D15000866
:100030001302000800000000491500084F150008D1
:10004000B7010008B7010008B7010008B7010008B0
:10005000B70100084B150008B7010008B7010008F8
:10006000B7010008B7010008B7010008B701000890
:10007000B7010008B7010008B7010008B701000880
:10008000B7010008B7010008B7010008B701000870
:10009000B7010008B7010008B7010008B701000860
:1000A000B7010008B7010008B7010008B701000850
:1000B000B701000851160008B7010008B701000891
:1000C000B7010008B7010008B7010008B701000830
:1000D000B7010008B7010008B7010008B701000820
:1000E000B7010008B7010008B7010008B701000810
:1000F000B7010008B7010008B7010008B701000800
:10010000B7010008B7010008B7010008B7010008EF
:10011000B7010008B7010008B7010008B7010008DF
:10012000B7010008B7010008B7010008B7010008CF
:10013000B7010008B7010008B7010008B7010008BF
:10014000B7010008B7010008B7010008B7010008AF
:10015000B7010008B7010008B7010008B70100089F
:10016000B7010008B7010008B7010008B70100088F
:10017000B7010008B7010008B7010008000000003F
:10018000B7010008B7010008DFF80CD000F02EF826
:1001900000480047A11F0008A01000200648804723
:1001A00006480047FEE7FEE7FEE7FEE7FEE7FEE75C
:1001B000FEE7FEE7FEE7FEE7F91500088901000803
:1001C00030B50B46014600202022012409E021FA27
:1001D00002F59D4205D303FA02F5491B04FA02F524
:1001E0002844151EA2F10102F1DC30BD064C074D7A
:1001F00006E0E06840F0010394E8070098471034F7
:10020000AC42F6D3FFF7C4FFD01F0008F01F000870
:10021000FEE7704710B58AB01348124901605321B8
:100220004160002484604FF6FF71C160046100F0FA
:1002300074FE4FF48050069006A90B4800F09EFE15
:100240000494059404A9084800F034FE00940120A9
:1002500001900294039400226946034800F018FFBD
:100260000AB010BD000400406000002031B500F06D
:1002700023F90546009CB4F1FF3F00D0641C00F058
:100280001BF9401BA042FAD338BD00002DE9F84FFE
:100290000022DFF80082DFF80092DFF800A24FF0C2
:1002A000030E0F27012303FA02F50B682B40AB4224
:1002B0007DD1D1F804C0BCF1020F02D0BCF1120F05
:1002C00012D14FEAD20C00EB8C0CDCF82060540702
:1002D000E40E07FA04FB26EA0B06D1F810B00BFA7D
:1002E00004F43443CCF8204006684FEA420C0EFA7E
:1002F0000CF4A64391F804B00BF0030B0BFA0CFBC3
:100300004BEA060606604E68012E05D0022E03D089
:10031000112E01D0122E11D18668A643D1F80CB04F
:100320000BFA0CFB4BEA06068660466826EA0505D2
:100330000E79C6F30016964035434560C56825EA38
:1003400004048D6805FA0CFC4CEA040CC0F80CC0DF
:10035000D1F804C01CF0805F7DD0D8F800C04CF408
:10036000804CC8F800C0D8F800C00CF4804CCDF820
:1003700000C022F0030C0CF1804404F59834D4F84A
:1003800008C895072D0F07FA05F62CEA0606A0F116
:10039000804CBCF5003C64D0A0F1804CBCF5013C25
:1003A00062D0A0F1804CBCF5023C60D000E052E08D
:1003B000A0F1804CBCF5033C5CD0A0F1804CBCF5B6
:1003C000043C5AD0A0F1804CBCF5053C58D0A0F1BB
:1003D000804CBCF5063C56D0A0F1804CBCF5073CE7
:1003E00054D04FF0080C0CFA05FC4CEA060CC4F88B
:1003F00008C8D9F800C02CEA030C4C6814F4803FFC
:1004000001D04CEA030CC9F800C0254CD4F800C058
:100410002CEA030C4D6815F4003F01D04CEA030CA4
:10042000C4F800C0DAF800C02CEA030C4C6814F4DD
:10043000801F01D04CEA030CCAF800C0194CD4F854
:1004400000C02CEA030C4D6815F4001F01D04CEAE3
:10045000030CC4F800C0521C102AFFF423AFBDE8FF
:10046000F88F4FF0000CBEE74FF0010CBBE74FF0E8
:10047000020CB8E74FF0030CB5E74FF0040CB2E7FD
:100480004FF0050CAFE74FF0060CACE74FF0070C50
:10049000A9E7000044380240003C0140083C01400C
:1004A000043C01400C3C0140002A01D081617047AE
:1004B000090481617047000001480068704700002E
:1004C0000000002002480168491C016070470000DC
:1004D0000000002010B50B48016841F40071016074
:1004E000016841F480610160016841F4807101603C
:1004F000032000F091F8002000F006F800F018F852
:10050000002010BD003C024010B5044607484FF4DF
:100510007A720068B0FBF2F000F036FC002221464F
:10052000501E00F045F8002010BD0000040000201F
:1005300010B5052000F070F8002211466FF00B0096
:1005400000F036F8002211466FF00A0000F030F893
:10055000002211466FF0090000F02AF8002211462F
:10056000501F00F025F800221146101F00F020F85F
:1005700000221146901E00F01BF800221146501E6A
:1005800000F016F800221146052000F011F8BDE831
:1005900010400520AFF3008000F01F01012202FA95
:1005A00001F14009800000F1E020C0F8001170471F
:1005B00010B4184B1B68C3F30223C3F1070CBCF142
:1005C000040F01D94FF0040C1C1D072C01D200238D
:1005D00000E0DB1E012404FA0CFCACF1010C0CEA77
:1005E0000101994004FA03F35B1E1A4011430028ED
:1005F00008DA00F00F0000F1E020090180F8141D76
:1006000010BC704700F1E020090180F8001410BC14
:10061000704700000CED00E000F00700064A11688A
:100620004FF6FF03194041EA002040F0FD7040F012
:1006300080601060704700000CED00E02DE9F05F75
:1006400004460E46DFF8D091D9F80000F7B200F06A
:100650000F00B0420AD289F80070D9F8000000F00B
:100660000F00B04202D00120BDE8F09F2078DFF8F3
:10067000AC8110F0020F07D0D8F80000A16820F07C
:10068000F0000843C8F80000207810F0010F51D0A6
:1006900060686349012808D002280DD003280BD0D8
:1006A000096811F0020F2ED00AE0096811F4003F2A
:1006B00006D10120BDE8F09F096811F0007F1FD02E
:1006C000D8F8001021F003010843C8F80000FFF734
:1006D000F3FE0546606841F2883A012816D00228E8
:1006E00029D003283CD0D8F8000010F00C0F51D0CE
:1006F000FFF7E2FE401B504547D90320BDE8F09FBD
:100700000120BDE8F09F0120BDE8F09FD8F800006F
:1007100000F00C0004283DD0FFF7CEFE401B5045F2
:1007200002D90320BDE8F09FD8F8000000F00C00CB
:100730000428F1D12EE0D8F8000000F00C000828C1
:1007400028D0FFF7B9FE401B504502D90320BDE871
:10075000F09FD8F8000000F00C000828F1D119E053
:10076000D8F800004FF00C0B3BEA000012D0FFF766
:10077000A3FE401B504502D90320BDE8F09FD8F8E6
:1007800000003BEA0000F2D104E0D8F8000010F0CD
:100790000C0FADD1D9F8000000F00F00B0420AD91B
:1007A00089F80070D9F8000000F00F00B04202D0C4
:1007B0000120BDE8F09F207810F0040F07D0D8F892
:1007C0000000E16820F4E0500843C8F800002078F9
:1007D00010F0080F08D0D8F80000216920F460401C
:1007E00040EAC100C8F8000000F058F8D8F800103E
:1007F000F02292FAA2F201F0F001B2FA82F2D140B4
:10080000084A515CC840084908600020FFF77CFE98
:100810000020BDE8F09F0000003C02400838024084
:1008200000380240B61F00080400002001490120E2
:10083000C8647047000047420148006870470000E4
:100840000400002000B5FFF7F7FF074909684FF4DF
:10085000E05292FAA2F201F4E051B2FA82F2D140EF
:10086000024A515CC84000BD08380240C61F00085B
:1008700000B5FFF7E1FF074909684FF4604292FABB
:10088000A2F201F46041B2FA82F2D140024A515C14
:10089000C84000BD08380240C61F000810B41F48F9
:1008A000006810F00C011E481BD04FEA600C0429B0
:1008B00016D0082915D11B4A116801F03F011368B1
:1008C00013F4800F47F6C0730DD0BCFBF1F0116834
:1008D000194093FAA3F3B3FA83F3D94048430CE0E9
:1008E000604610BC7047B0FBF1F01168194093FAF4
:1008F000A3F3B3FA83F3D940484311684FF440326D
:1009000092FAA2F201F44031B2FA82F2D140491CCB
:100910004900B0FBF1F010BC7047000008380240FD
:100920000024F400043802402DE9F84F0446DFF8B3
:100930001C842078A8F1040710F0010FA7F104052A
:1009400060D0D8F8000000F00C00042809D0D8F8D6
:10095000000000F00C0008280DD1386810F4800F5A
:1009600009D0286810F4003F4CD06068002849D1B5
:100970000120BDE8F88F6068B0F5803F14D0B0F575
:10098000A02F16D0286820F480302860286820F432
:1009900080202860606810B3FFF78EFD0646286847
:1009A00010F4003F0ED02DE0286840F4803028601D
:1009B000F0E7286840F480202860286840F4803000
:1009C0002860E7E7FFF778FD801B642802D9032041
:1009D000BDE8F88F286810F4003FF3D012E0FFF76D
:1009E0006BFD0646286810F4003F0BD0FFF764FD4E
:1009F000801B642802D90320BDE8F88F286810F412
:100A0000003FF3D12078DFF8489310F0020F4FF049
:100A1000000663D0D8F800004FF0F80B10F00C0F70
:100A200016D0D8F8000000F00C00082803D1386870
:100A300010F4800F0CD0E068C8B30120C9F80000A2
:100A4000FFF73AFD8246286810F0020F16D022E028
:100A5000286810F0020F05D0E068012802D00120BC
:100A6000BDE8F88F28689BFAABF22169B2FA82F2EE
:100A700020F0F8009140084328602FE0FFF71CFDAC
:100A8000A0EB0A00022802D90320BDE8F88F2868ED
:100A900010F0020FF2D028689BFAABF22169B2FA8B
:100AA00082F220F0F80091400843286016E0FFE74A
:100AB000C9F80060FFF700FD8246286810F0020FB9
:100AC0000CD0FFF7F9FCA0EB0A00022802D90320A2
:100AD000BDE8F88F286810F0020FF2D1207810F0EE
:100AE000080F34D09B48DFF870B26169C1B10121B1
:100AF0000160FFF7E1FC8246DBF8000010F0020F16
:100B000025D1FFF7D9FCA0EB0A00022802D9032067
:100B1000BDE8F88FDBF8000010F0020FF1D016E00E
:100B20000660FFF7C9FC8246DBF8000010F0020FF8
:100B30000DD0FFF7C1FCA0EB0A00022802D9032068
:100B4000BDE8F88FDBF8000010F0020FF1D120783B
:100B500010F0040F43D08148016841F080510160DA
:100B6000006800F080500090DFF8F4B1DBF800007E
:100B700040F48070CBF80000FFF79EFC8246DBF863
:100B8000000010F4807F0DD1FFF796FCA0EB0A0067
:100B9000022802D90320BDE8F88FDBF8000010F42A
:100BA000807FF1D0A068DFF8BCB1012818D00528FB
:100BB0001DD0DBF8000020F00100CBF80000DBF8CE
:100BC000000020F00400CBF80000A06868B3FFF735
:100BD00073FC8246DBF8000010F0020F14D03CE0FA
:100BE000DBF8000040F00100CBF80000EDE7DBF897
:100BF000000040F00400CBF80000DBF8000040F0FB
:100C00000100CBF80000E0E7FFF756FCA0EB0A017B
:100C100041F28830814202D90320BDE8F88FDBF829
:100C2000000010F0020FEFD017E0FFF745FC8246FE
:100C3000DBF8000010F0020F0FD0FFF73DFCA0EB37
:100C40000A0141F28830814202D90320BDE8F88FC1
:100C5000DBF8000010F0020FEFD1A069F0B3D8F874
:100C6000001001F00C0108296CD0022810D0C9F83E
:100C70006060FFF721FC0446286810F0007F5ED01A
:100C8000FFF71AFC001B022855D90320BDE8F88F96
:100C9000C9F86060FFF710FC0646286810F0007F76
:100CA0000BD0FFF709FC801B022802D90320BDE806
:100CB000F88F286810F0007FF3D1216AE0694FF0C7
:100CC000FF3340EA010247F6C07191FAA1F1606A70
:100CD000B1FA81F100FA01F1A06A00E02FE003EB24
:100CE00050004FF4403393FAA3F3B3FA83F39840E0
:100CF000084310434FF0706292FAA2F2E16AB2FA2E
:100D000082F29140084338600120C9F86000FFF783
:100D1000D3FB0446286810F0007F10D1FFF7CCFB0E
:100D2000001B022802D90320BDE8F88F286810F0C4
:100D3000007FF3D003E0286810F0007FA0D10020EE
:100D4000BDE8F88F0120BDE8F88F000008380240A8
:100D500000004742800E474274380240403802404B
:100D600000700040703802404FF0E021042804D0A9
:100D7000086920F0040008617047086940F0040029
:100D80000861704770470000401EB0F1807F01D3BA
:100D9000012070474FF0E0214861044AF0201070B4
:100DA00000208861072008610020704723ED00E0E3
:100DB00010B5FFF7E7FF10BD00B587B0002113485D
:100DC000026842F002020260006800F00200019036
:100DD0000F48026842F004020260006800F004005C
:100DE000019040200290022003900490059106900B
:100DF00002A90848FFF74AFA002211461D20FFF712
:100E0000D7FB1D20FFF7C8FB07B000BD40380240EC
:100E100030380240000802402DE9F04184B01E4FF6
:100E20000024DFF8788078780125E61E002819D0A4
:100E30000021404600F073FA7880009401950294F6
:100E4000039400226946404600F022F9D8F80000D9
:100E500006610021404600F07AF97C703D7004B0D4
:100E6000BDE8F081D8F800004462BC807C8002209C
:100E7000009001950294039400226946074800F00F
:100E800007F9D8F8000006610021044800F05FF976
:100E90007D7004B0BDE8F0811400002060000020E7
:100EA00002488188491C818070470000140000209E
:100EB0007047704710B490F83820012A2AD00123D7
:100EC00080F83830022280F839200268D2F804C055
:100ED0002CF0700CC2F804C00268D2F804C00C6890
:100EE0004CEA040CC2F804C00268D2F808C02CF026
:100EF000800CC2F808C00268D2F808C049684CEA01
:100F00000101916080F83930002180F8381010BC60
:100F10000020704710BC0220704710B50446002C1A
:100F200003D094F8390010B107E0012010BD002073
:100F300084F83800204600F00CF8022084F83900CC
:100F4000211D206800F08AFB012084F83900002070
:100F500010BD0068A0F18041B1F5806101D1FFF7BB
:100F60002BBF70470168CA6842F00102CA6000687E
:100F7000016841F0010101600020704770B504462E
:100F800094F83800012818D0012584F83850022040
:100F900084F839002068826822F0770222F47F42C8
:100FA0008260086850283AD00EDC20285FD006DC2A
:100FB000002852D0102863D154E0022070BD3028A0
:100FC0005AD040285CD13EE0602832D070280CD046
:100FD000B0F5805F03D0B0F5005F51D113E0206819
:100FE000816821F0070181604AE0CB684A6889681E
:100FF000206800F0A4FB2068816821F0770141F0AF
:10100000770181603CE0CB684A688968206800F01D
:1010100096FB2068816841F48041816030E0CA68B5
:101020004968206800F09EFB5021206800F092FB88
:1010300026E0CA684968206800F0F0FB602120685B
:1010400000F088FB1CE0CA684968206800F08AFB51
:101050004021206800F07EFB12E00021206800F0B3
:1010600079FB0DE01021206800F074FB08E02021DE
:10107000206800F06FFB03E03021206800F06AFB7D
:1010800084F83950002084F8380070BDFFF7C4BEE2
:1010900070B504460D4694F83800012821D0012689
:1010A00084F83860022084F83900E2B1042A2BD099
:1010B000082A3BD0EB686A682968206800F0FEFBCC
:1010C0002068C16921F44061C1612068C169AA68D2
:1010D00041EA0221C16184F83960002084F83800B7
:1010E00070BD022070BDEB686A682968206800F056
:1010F0004CFB2068816921F00C01816120688169C5
:10110000AA6811438161E6E7EB686A68296820688C
:1011100000F096FB2068816921F4406181612068BC
:101120008169AA6841EA02218161D4E7EB686A68B3
:101130002968206800F0A4FB2068C16921F00C0137
:10114000C1612068C169AA681143C161C3E710B5D4
:1011500004460029226806D0042909D008290CD0A9
:101160000C2913D10EE0D06840F00200D0600DE0F1
:10117000D06840F00400D06008E0D06840F008007B
:10118000D06003E0D06840F01000D06001222068F9
:1011900000F0C8FA2068016841F0010101600020F8
:1011A00010BD70B50446206801694FF0000511F0CC
:1011B000020F17D0C16811F0020F13D0E91E0161B0
:1011C000012020762068806910F0030F03D02046AC
:1011D000FFF75CFF05E0204600F09DF8204600F098
:1011E0009BF825762068016911F0040F18D0C168BA
:1011F00011F0040F14D06FF0040101610220207679
:101200002068806910F4407F03D02046FFF73EFF3E
:1012100005E0204600F07FF8204600F07DF82576B6
:101220002068016911F0080F18D0C16811F0080F8B
:1012300014D06FF008010161042020762068C06995
:1012400010F0030F03D02046FFF720FF05E02046F3
:1012500000F061F8204600F05FF82576206801690B
:1012600011F0100F18D0C16811F0100F14D06FF0EA
:1012700010010161082020762068C06910F4407FC9
:1012800003D02046FFF702FF05E0204600F043F8B8
:10129000204600F041F825762068016911F0010F21
:1012A00009D0C16811F0010F05D06FF00101016193
:1012B000204600F032F82068016911F0800F09D053
:1012C000C16811F0800F05D06FF0800101612046E8
:1012D000FFF7EEFD2068016911F0400F09D0C168E9
:1012E00011F0400F05D06FF040010161204600F081
:1012F00038F82068016911F0200F0BD0C16811F097
:10130000200F07D06FF0200101612046BDE870403A
:10131000FFF7CFBD70BD70477047FFF7C1BD00221A
:1013200090F83830012B0AD0012380F8383041B1D1
:10133000042909D008290AD00C290DD10AE002207D
:10134000704701684A6B07E001688A6B04E0016836
:10135000CA6B01E001680A6C002180F83810104661
:101360007047704770B50446002C04D094F83900DB
:10137000002510B106E0012070BD84F838502046E9
:1013800000F022F8242084F839002068C16821F494
:101390000051C160204600F0D3FA2068016921F4B1
:1013A000904101612068416921F02A014161206872
:1013B000C16841F40051C160E563202084F8390020
:1013C00084F83A00002070BD10B586B00068A0F126
:1013D0008041B1F588311DD10F48016841F01001FD
:1013E0000160006800F01000009040200190022091
:1013F0000290012003900320049007200590074CE1
:1014000001A92046FEF742FF8021019101A9204653
:10141000FEF73CFF06B010BD443802400004024015
:101420002DE9F84304460D4691461E4694F83900CE
:10143000202802D00220BDE8F8834DB3B9F1000F97
:1014400026D094F83800012825D0012084F83800EF
:101450000027E763212084F83900FFF72DF8804644
:10146000A4F82490A4F82690E08CA0B3E08C401E51
:10147000E084A068B0F5805F10D043460022802150
:101480002046009600F0FEFBF0B10320BDE8F88393
:101490000120BDE8F8830220BDE8F883434600221E
:1014A00080212046009600F0EDFB10B10320BDE83E
:1014B000F88328882168C0F308004860206908B1D3
:1014C0006D1C05E0AD1C03E0216815F8010B4860B8
:1014D000E08C0028CAD143460022402120460096D5
:1014E00000F0D0FB10B10320BDE8F883202084F881
:1014F000390084F838700020BDE8F883FEE700006A
:1015000082B000210C48026842F0020202600068CA
:1015100000F0020001900A48084A02604FF4E132EC
:1015200042608160C16001610C2242618161C161E0
:1015300002B0FFF717BF0000303802400010014032
:1015400020000020FEE7704770477047704710B5D5
:10155000FEF7B8FFBDE81040FFF72ABC30B593B0E6
:1015600000252348016841F080510160006800F0C7
:10157000805000901F48016841F48041016000687C
:1015800000F480400090012006900004079002249F
:101590000C9480010D9008200E904FF4A8700F90CD
:1015A00010940720119006A8FFF7BEF90F200190B4
:1015B000029403954FF4A0500490E0020590052199
:1015C00001A8FFF73BF8FFF731F9FFF735F94FF4C2
:1015D0007A71B0FBF1F0FFF7D7FB0420FFF7C4FBF3
:1015E00000221146501EFEF7E3FF13B030BD00008D
:1015F00040380240007000400F48016841F470011B
:1016000001600E48016841F0010101600C4A0021AF
:101610001160026822F4102222F080720260031D21
:10162000084A1A60026822F48022026006480160BB
:10163000064958060860704788ED00E0003802400F
:1016400008380240103000240C38024008ED00E059
:101650000148FFF7A6BD000060000020F0B402685A
:101660002B4BDFF8B0C02C4D2C4E2D4C98420AD09D
:10167000B0F1804F07D0604505D0A84203D0B042FA
:1016800001D0A04203D122F070024F683A43984241
:1016900028D0B0F1804F25D0604523D0A84221D07A
:1016A000B0421FD0A0421DD0A0F1804CBCF5A03CA0
:1016B00018D0A0F1804CBCF5A23C13D0A0F1804C16
:1016C000BCF5A43C0ED0A0F1804CBCF5C05C09D0A8
:1016D000A0F1804CBCF5E05C04D0A0F1804CBCF5DE
:1016E000005C05D122F44072D1F80CC04CEA020231
:1016F00002608A68C2620A688262984201D0A0428F
:1017000001D10969016301214161F0BC704700000A
:10171000000001400004004000080040000C0040B0
:101720000004014001238B40D0F820C02CEA0303C1
:101730000362036A02FA01F1194301627047D0F8AB
:1017400008C02CF47F4C42EA0322114341EA0C0109
:1017500081607047826822F07002114341F00701F6
:1017600081607047036AD0F820C02CF0010CC0F8EB
:1017700020C0D0F818C02CF0F00C4CEA021223F074
:101780000A03194382610162704730B4D0F820C067
:101790002CF0010CC0F820C0D0F818C0046AA0F1E9
:1017A0008045B5F5803534D0B0F1804F31D0A0F10F
:1017B0008045B5F580652CD0A0F18045B5F5006574
:1017C00027D0A0F18045B5F5406522D0A0F1804535
:1017D000B5F582351DD0A0F18045B5F5A03518D0FE
:1017E000A0F18045B5F5C05513D02CF0030242F0AE
:1017F000010222F0F0024FF0F00C0CEA03131A433E
:1018000024F00A0301F00A0119438261016230BC2D
:1018100070472CF0030C4CEA0202EAE7036A23F05B
:1018200010030362D0F818C0036A2CF4704C4CEA21
:10183000023223F0A00343EA011182610162704782
:1018400010B4D0F820C02CF0100CC0F820C084696F
:10185000D0F820C024F4407444EA022222F47042FA
:101860004FF4704404EA03331A432CF0A0034FF002
:10187000A00C0CEA011119438261016210BC70478F
:1018800010B4D0F820C02CF4807CC0F820C0C4690B
:10189000D0F820C024F00304224322F0F002F02408
:1018A00004EA03131A432CF420634FF4206C0CEA6F
:1018B00001211943C261016210BC704710B4D0F815
:1018C00020C02CF4805CC0F820C0C469D0F820C0CF
:1018D00024F4407444EA022222F470424FF470442B
:1018E00004EA03331A432CF420434FF4204C0CEA4F
:1018F00001311943C261016210BC704730B587B035
:1019000000240D48016841F004010160006800F006
:1019100004000190094D002280212846FEF7C4FDF5
:101920008021029101210391059402A92846FEF726
:10193000ADFC07B030BD0000303802400008024066
:101940002DE9F04104462068016921F44051E26824
:10195000114301612068C16821F4037121F414412D
:101960002369A268D4F81CC01A43636943EA0C03D4
:101970001A431143C1602068416921F44071A26992
:1019800011434161E069BC4ABC49BD4D3226B0F506
:10199000004F5ED02068884202D0904240F0128111
:1019A000FEF766FF00EBC00101EB001061688900E3
:1019B000B0FBF1F7FEF75CFF00EBC00101EB00109C
:1019C00061688900B0FBF1F0A5FB001040096FF0E1
:1019D0001801484307EB800006EB0010A5FB001040
:1019E000400900F0F007FEF743FF00EBC00101EBF8
:1019F000001061688900B0FBF1F0A5FB0010400900
:101A000007EB0017FEF734FF00EBC00101EB0010FD
:101A100061688900B0FBF1F8FEF72AFF00EBC00116
:101A200001EB001061688900B0FBF1F0A5FB00102C
:101A300040096FF01801484308EB800006EB0010E6
:101A4000A5FB00102168C0F3431038448860BDE84E
:101A5000F0812068884201D0904259D1FEF708FFFA
:101A600000EBC00101EB001061684900B0FBF1F030
:101A7000A5FB001040090701FEF7FAFE00EBC001CC
:101A800001EB001061684900B0FBF1F8FEF7F0FED1
:101A900000EBC00101EB001061684900B0FBF1F000
:101AA000A5FB001040096FF01801484308EB8000C7
:101AB00006EBC000A5FB0010400900F0F80007EBA2
:101AC0004007FEF7D5FE00EBC00101EB0010616896
:101AD0004900B0FBF1F8FEF7CBFE00EBC00101EBD3
:101AE000001061684900B0FBF1F0A5FB001040094F
:101AF0006FF01801484308EB800006EBC000A5FB1F
:101B000000102168C0F3421038448860BDE8F081BD
:101B1000FEF798FE00EBC00101EB00106168490080
:101B2000B0FBF1F0A5FB001040090701FEF78AFEAB
:101B300000EBC00101EB001061684900B0FBF1F857
:101B4000FEF780FE00EBC00101EB00106168490068
:101B5000B0FBF1F0A5FB001040096FF018014843FD
:101B600008EB800006EBC000A5FB0010400900F068
:101B7000F80007EB4007FEF765FE00EBC00101EB44
:101B8000001061684900B0FBF1F8FEF75BFE00EB66
:101B9000C00101EB001061684900B0FBF1F0A5FB4A
:101BA000001040096FF01801484308EB800006EB75
:101BB000C000A5FB00102168C0F3421038448860C3
:101BC000BDE8F081FEF73EFE00EBC00101EB001026
:101BD00061688900B0FBF1F7FEF734FE00EBC0014D
:101BE00001EB001061688900B0FBF1F0A5FB00106B
:101BF00040096FF01801484307EB800006EB001026
:101C0000A5FB0010400900F0F007FEF71BFE00EBFB
:101C1000C00101EB001061688900B0FBF1F0A5FB89
:101C20000010400907EB0017FEF70CFE00EBC001A7
:101C300001EB001061688900B0FBF1F8FEF702FECD
:101C400000EBC00101EB001061688900B0FBF1F00E
:101C5000A5FB001040096FF01801484308EB800015
:101C600006EB0010A5FB00102168C0F343103844B8
:101C70008860BDE8F08100000014014000100140C0
:101C80001F85EB512DE9F0410446069D8846174615
:101C90001E462068006838EA000020D00020B842C4
:101CA00027D1B5F1FF3F1CD025B1FEF705FC801B05
:101CB000A84216D92068C16821F4D071C16020689B
:101CC000416921F001014161202084F8390084F844
:101CD0003A00002084F838000320BDE8F08101209C
:101CE000DDE72068006838EA000005D00020B8422F
:101CF000D7D00020BDE8F0810120F8E701B4002230
:101D00000098002807D90C20401EC0B2FCD2521CFB
:101D100000988242F7D301B07047000010B5FEF77B
:101D200079FAFFF7EBFD0AA000F062F8FEF784FDF8
:101D30000A49A1FB00100A49000948600948FFF759
:101D400011F9BDE8104000210648FFF700BA000075
:101D5000B3ACC9F9B2A8B2E2BEE00A001F725931B1
:101D6000080000206000002010B5194C01228021DD
:101D70002046FEF799FB1420FFF7C0FF00228021C8
:101D80002046FEF791FB134C207801281FD1A08834
:101D90006188C0EB0040A4F10C02084490605168D7
:101DA000B0FBF1F301FB13004FF4AA7148434FF469
:101DB000FA61B0FBF1F1116007A000F019F8002002
:101DC0002070BDE810404FF47A70FEF74FBA10BD96
:101DD00000080240140000203E3EB2E2B5C3BEE05F
:101DE000C0EBCEAAA3BA25646D6D0A00FEE7000021
:101DF0000FB4054B10B503A9044A029800F018F877
:101E000010BC5DF814FB0000851F00081C000020BA
:101E100002E008C8121F08C1002AFAD170477047B3
:101E2000002001E001C1121F002AFBD17047000011
:101E30002DE9FF4F89B09B460446002506E0252882
:101E40000BD05A460B999047641C6D1C20780028D3
:101E5000F5D10DB02846BDE8F08F0027B846012225
:101E6000474900E0074314F8013F203B02FA03F022
:101E70000842F7D120782E2819D114F8010F47F025
:101E800004072A280ED06FF02F022078A0F130012D
:101E900009290CD808EB880102EB410100EB01088D
:101EA000641CF2E70A98641C50F8048B0A902078AE
:101EB0000028CED0642808D0692806D075281ED006
:101EC0005A460B9990476D1C58E00A994FF00A0941
:101ED00001C90A91002802DA40422D2102E03905A9
:101EE00004D52B218DF82010012103E0F90704D03F
:101EF0002021F7E78A4608AE0DE00021FAE70A99AB
:101F00004FF00A0901C90A91F7E74946FEF758F967
:101F1000303106F8011D0028F7D1ADEB060000F1C5
:101F20002009780701D44FF00108C84502DDA8EB6D
:101F3000090000E000208046002706E008A85A4675
:101F4000C05D0B9990476D1C7F1C5745F6DB04E084
:101F500030205A460B9990476D1CB8F10001A8F14A
:101F60000108F5DC05E016F8010B5A460B9990477D
:101F70006D1CB9F10001A9F10109F4DC641C65E7ED
:101F80000928010013B54FF6FF7301226946034883
:101F9000FFF746FA009802B010BD000020000020B4
:101FA000FEF798FAFFF7DAFAFFF7AAFAFFF7B6FE9C
:101FB000FFF7DAFEFCE7000000000000000001026D
:101FC00003040607080900000000010203040000E2
:101FD000F01F00080000002020000000101E000874
:101FE000102000082000002080100000201E0008A3
:101FF000000000000024F4000000000000000000C9
:1020000000000000000000000000000000000000D0
:040000050800018965
:00000001FF
