:020000040800F2
:10000000E005002075BE000869BC00086BBC000854
:100010006DBC00086FBC000871BC00080000000047
:1000200000000000000000000000000073BC000899
:1000300075BC00080000000077BC000879BC00080F
:100040002DBF000831BF000835BF000839BF0008C8
:100050003DBF000885BC000841BF000845BF00083F
:1000600049BF00084DBF000851BF000855BF000838
:1000700059BF00085DBF000861BF000865BF0008E8
:1000800069BF00086DBF000871BF000875BF000898
:1000900079BF00087DBF000881BF000885BF000848
:1000A00089BF00088DBF000891BF000895BF0008F8
:1000B00099BF00089DBF0008A1BF0008A5BF0008A8
:1000C000A9BF0008ADBF0008B1BF0008B5BF000858
:1000D000B9BF0008BDBF0008C1BF0008C5BF000808
:1000E000C9BF0008CDBF0008D1BF0008D5BF0008B8
:1000F000D9BF0008DDBF0008E1BF0008E5BF000868
:10010000E9BF0008EDBF0008F1BF0008F5BF000817
:10011000F9BF0008FDBF000801C0000805C00008C5
:1001200009C000080DC0000811C0000815C0000873
:1001300019C00008455800081DC0000821C000086B
:1001400025C0000829C000082DC0000831C00008E3
:1001500035C0000839C000083DC0000841C0000893
:1001600045C0000849C000084DC0000851C0000843
:1001700055C0000859C000085DC00008000000001C
:1001800061C0000865C0000830B583B00400606835
:10019000DFF8341C08606089142803DA200001F0BD
:1001A0002EFB37BDDFF8240C0168DFF8200C406916
:1001B00001F074FC002806D1DFF8100C007D10F06F
:1001C000F000E02800D1E9E7DFF8FC0B0068808947
:1001D00001F0D8FC80B2000BC0B28000C0B214287D
:1001E00005DB21890200D2B292B2914200D2D5E75A
:1001F000C0B2B0F11401DFF8D82B11800021DFF874
:10020000D42B116061890200D2B292B291420CD318
:10021000DFF8BC1B0988DFF8C02B1180C0B2414257
:1002200009B2200001F0DFFA2DE07FF01301200079
:1002300001F0D9FA6089DFF8A01B0880DFF8900B85
:100240000088DFF8941B0988451ADFF88C0BB0F999
:10025000000000B2414209B2200001F0C4FA206857
:100260004089ADB2A84299D320684068DFF8641B8A
:100270000860280000B2414209B2206801F0B3FAD8
:100280002089401B2081DFF8400B0068008801F0C6
:1002900079FCDFF8341B09680880DFF82C0B006854
:1002A000408801F06FFCDFF8201B09684880DFF808
:1002B000180B0168486801F06CFCDFF80C1B09683A
:1002C0004860DFF8181B0860DFF8FC0A01688868DE
:1002D00001F05FFCDFF8F01A09688860DFF8001BA6
:1002E0000860DFF8E40A0068C08901F04BFCDFF821
:1002F000D81A0968C881DFF8D00A0068808901F03F
:1003000041FC10F03F00DFF8DC1A0870DFF8D40A77
:1003100000780321084201D0012000E0002021895B
:100320004018DFF8C41A08800021DFF8C00A056809
:1003300001E02900ED68002D24D0288BDFF8882A01
:10034000126812889042F4D1E88ADFF87C2A126899
:1003500052889042EDD16868DFF8702A12699042A5
:10036000E7D12868DFF8642A52699042E1D1002978
:1003700008D0E868C860DFF8740A0068E860DFF851
:100380006C0A0560002D55D1DFF8640A056800E0AD
:10039000ED68002D20D0288BDFF82C1A0968098819
:1003A0008842F5D1E88ADFF8201A0968498888422E
:1003B000EED16868DFF8141A09698842E8D1286824
:1003C000DFF8081A49698842E2D1280000F0FEF9F6
:1003D000200001F014FAE4E60021DFF8180A0068B2
:1003E00001E00100C068002811D0C28ADFF8D839C6
:1003F0001B685B889A42F4D10268DFF8D0395B69E8
:100400009A4204D0002802D00268002AE9D10028CC
:1004100010D0002908D0C268CA60DFF8D81909686E
:10042000C160DFF8D019086000F035F9200001F054
:10043000E6F9B6E6002D00F007810020DFF8B819D4
:1004400008602089DFF8B0190881DFF8AC09446042
:10045000DFF874090068DFF8A019C8600020DFF831
:100460009C1908600020DFF8981908700020DFF858
:10047000A81C0880DFF86C090078000703D5607BB2
:1004800050F001006073286F00280ED0280002F0A1
:1004900021F810F10D0F07D0286F002805D0DFF8E4
:1004A00048090088002800D09FE0DFF8580905605F
:1004B000280000F0D8F940B210F10D0F00F095803F
:1004C000DFF83C090078000713D5D5F8880000282C
:1004D00005D07FF00D012869D5F8882090472900C4
:1004E000DFF8080902F07BF92900012002F063FA25
:1004F0007BE00020DFF8200C0088002814D0DFF813
:10050000180C0288A86F002805D092B2290028692B
:10051000AB6F984700E0002040B210F10D0F64D09F
:100520000020DFF8F41B0880DFF8D4080078C0064C
:1005300016D5A87EC00609D4D5F88800002805D0B5
:100540007FF00E012869D5F8882090472900DFF850
:100550009C0802F044F92900012002F02CFA44E042
:10056000DFF89808006800282AD0A87EC00608D5C1
:10057000DFF88808006801F042F9280001F09FFCCC
:1005800033E0E86F002808D00023DFF87008026825
:1005900029002869EC6FA04707E00023DFF85C081A
:1005A00002682900002001F0F2FF40B210F10D0FA7
:1005B0001BD040B2002803D0DFF84008006828674D
:1005C000DFF83C080078800608D5286F002823D083
:1005D000286F407B50F02000296F48730020DFF81F
:1005E00024180860280002F0ECFD0020DFF8141841
:1005F00008600020DFF804180860DFF8FC07406896
:10060000002847D0DFF8F007406801F0F8F8002034
:10061000DFF8E41748603DE0288D40F668318842F5
:1006200002D0288D401C2885E86F002806D00023C2
:10063000002229002869EC6FA04700E0002040B2AA
:1006400010F10D0FCAD1D0E7DFF87C070068808970
:1006500001F098FA40071AD4DFF86C0700680088A8
:100660000190DFF86407006840880090DFF8983751
:10067000DFF89827DFF864070068DFF86C1709884F
:1006800010FA81F1DFF85807006802F027FF200018
:1006900001F0B5F885E530B583B00400DFF8440714
:1006A0000078400700F19180DFF838070078C00635
:1006B0001BD5DFF81407006800880190DFF80807F1
:1006C000006840880090DFF84037DFF84027DFF807
:1006D0000C070068DFF81017098810FA81F1DFF8BD
:1006E0000007006802F0FAFE6FE0DFF8F806007815
:1006F00080076AD5607D01F0C1FF0500002D0ED195
:10070000002C09D0A069002806D05FF0FF3200213C
:100710002069A369984701E07FF00F0055E0DFF8FA
:10072000AC0640692860DFF8A40600696860E08ACA
:10073000E882DFF894060068008828830320287583
:10074000DFF898060068401C6862686AE862DFF8B3
:100750008C060068401E2865206928616C67207A35
:1007600010F00C002872DFF884060068E860DFF8FB
:100770007C06056003F027F80120DFF8B81C08703C
:10078000280000F05BFEDFF840060068C089A5F88D
:100790005C00B5F85C00A5F85E00B5F85C00A5F853
:1007A0004A00291D688E02F056F86886122128003A
:1007B00002F051FC40B2002804D00021280001F0D2
:1007C00011FB02E0280002F0FCFC37BD00B583B04D
:1007D000DFF810160978490744D4DFF808160978BD
:1007E00089072BD5DFF8F4150968426A891A0029B0
:1007F0002DD4DFF8E8150968426A891A028D891A32
:10080000012924DADFF8C005006800880190DFF8CC
:10081000B805006840880090DFF8EC35DFF8EC257B
:10082000DFF8B8050068DFF8C015098810FA81F113
:10083000DFF8AC05006802F051FE13E0DFF8A41504
:100840000978C90703D5DFF8F01B09680162DFF8F2
:1008500098150988002905D0817E51F00201817622
:1008600002F0AFFC07BD1CB5040000210020DFF83A
:100870007405007840073BD594F91400022807D18D
:10088000DFF85C050068E26C90421DD101211BE09D
:10089000DFF848050068626A904201D1012113E047
:1008A000DFF838050068626A801A00280CD4DFF887
:1008B0002C050068626A801A228D801A012803DAEA
:1008C000A07E50F00200A076C9B200290ED0DFF859
:1008D0003005007850F00800DFF824150870A07E7D
:1008E00010F0FE00A0767FF00D006CE200206AE2BE
:1008F000DFF8F004007880070DD594F91400022881
:1009000009D094F91400032805D0A07E50F002000D
:10091000A076002057E2A07EC00603D4DFF8180BB3
:1009200000682062002084F89200200000F086FD1C
:1009300094F91400022814D0C0F04482042800F076
:100940005A81C0F0BD80062800F0BA81C0F06181F4
:10095000082800F0E881C0F04E81092800F01B82D1
:1009600030E2DFF8740B007810F01200122840F02B
:100970008180DFF86C040068616C491C884279D181
:10098000DFF858040068401C6062606AE062DFF8CB
:10099000500400686064DFF830040068C089A4F87F
:1009A0005C00B4F85C00A4F85E00DFF83004006876
:1009B000401E206504202075211D608E01F04BFF34
:1009C0006086B4F85C00A4F84A00608E400041F2F2
:1009D0001D11884202D3608E400001E041F21C10DC
:1009E000618E8900814203D2608E80B280000BE06C
:1009F000608E400041F21D11884203D3608E80B2A8
:100A0000400001E041F21C10A4F84800B4F8620074
:100A1000401EA4F86200E06E002803D1A06E0168B9
:100A2000A16601E00168E16601F0A0FDE06E00282A
:100A300003D15FF0FF30208604E0002020860020F4
:100A400084F84200D4F88000002806D0002221005B
:100A50002069D4F88030984700E0002040B210F1BF
:100A60000D0F02D17FF00C00ADE1A07E50F002002E
:100A7000A07624E0DFF8600A0078C0061FD5DFF812
:100A80004803006800880190DFF83C030068408854
:100A90000090DFF87433DFF87423DFF84003006858
:100AA000DFF84413098810FA81F1DFF83403006895
:100AB00002F014FD00202086200002F04FFD81E1AD
:100AC000DFF8140A0078C00640F18680C448006848
:100AD000616C401A401E002869D4C1480068E16C6E
:100AE000401A012863DA04202075606F002802D1C3
:100AF0007FF005000FE0606F00280AD0606F80690A
:100B0000002806D0002221002069636F9B69984766
:100B100001E07FF00F0040B2002809D040B210F190
:100B20000D0F02D0200001F0CAF97FF00C004AE15D
:100B3000200000F06DF9B4F85C00A4F84A00DFF87A
:100B4000D8050088002806D0DFF8CC050088401EB4
:100B5000DFF8C4150880608E400041F21D11884204
:100B600002D3608E400001E041F21C10618E8900CA
:100B7000814203D2608E80B280000BE0608E400024
:100B800041F21D11884203D3608E80B2400001E023
:100B900041F21C10A4F8480099480078800629D535
:100BA000A07E50F00200A0760720207522E0864843
:100BB0000068008801908448006840880090924B4B
:100BC000924A864800688849098810FA81F1844869
:100BD000006802F083FC0DE0DFF8FC080078800775
:100BE00008D57E480068616A491E884202D120000B
:100BF00002F0CEFCE6E0200000F00AF98048007820
:100C0000800605D5A07E50F00200A0760720207552
:100C1000D8E0200000F0FCF87948007880063FD545
:100C2000DFF8B4080078C00633D56D480068E16C81
:100C300088422ED1A06E00282BD1A07E50F0020059
:100C4000A076200001F0A4FD68480068A04205D10C
:100C500066480068C068654908600AE06348006843
:100C600000E0C068002804D0C168A142F9D1E16861
:100C7000C1600020E0600120DFF8B81708700A208A
:100C800020755B480068E0605948046002F09BFDF5
:100C900015E0A07E50F00200A076082020750EE03E
:100CA000DFF834080078C00609D54D480068E16CCB
:100CB000884204D1A06E002801D10620207581E071
:100CC000200000F0A5F84E48007880062AD5A07EC6
:100CD00050F00200A076200001F05AFD4348006861
:100CE000A04205D141480068C068404908600AE058
:100CF0003E48006800E0C068002804D0C168A142F6
:100D0000F9D1E168C1600020E0600120DFF824171C
:100D100008700A20207536480068E0603448046096
:100D200002F051FD4EE0200000F072F8DFF8A80755
:100D30000078C0062ED52A480068E16C884229D187
:100D4000A06E002826D1200001F022FD274800686F
:100D5000A04205D125480068C068244908600AE01F
:100D60002248006800E0C068002804D0C168A142A1
:100D7000F9D1E168C1600020E0600120DFF8B4161D
:100D800008700A2020751A480068E060184804605E
:100D900002F019FD16E0200000F03AF8DFF83807FD
:100DA0000078C0060DD50E480068E16C884208D175
:100DB000A06E002805D11248007850F010001049AC
:100DC0000870FFE7002016BD747F0020A07E002081
:100DD000A47F0020787F0020A67F00207C7F002059
:100DE000807F0020B67F0020AC7F0020647F002041
:100DF000687F0020607F0020DC7E0020847F002050
:100E0000B77F0020887F0020B07E0020B47E0020C5
:100E100038B504000025DFF8C0060078C00640F1B0
:100E2000C181B4F85C00616D11FA80F0216DDFF8CA
:100E3000AC261268891A00291AD4216DDFF89C2685
:100E40001268914206D1616DDFF89C251268891AFB
:100E500000290DD4616DDFF890251268914235D1DB
:100E6000B4F85C10DFF878261268D28991422DD24E
:100E7000DFF86C160968C989A4F85C10B4F85E1034
:100E8000B4F85C20914203D2B4F85C10A4F85E1070
:100E9000DFF8481609682165DFF84C1509686165B7
:100EA000B4F85C1000290AD194F8911000290DD1F2
:100EB000002184F89010012184F8911006E094F844
:100EC0009110002902D0002184F89110DFF8181544
:100ED0000968626C891A012945DADFF80816098861
:100EE000002939D1616DB4F85C2011FA82F1814298
:100EF00032D1B4F9300000282ED4606CDFF8E81449
:100F00000968884228D1012594F8430094F84310D9
:100F1000491CC9B2884204D294F84300401C84F8AA
:100F2000430094F8430004280FDBB4F84800B4F8F9
:100F30004810628E511889B288420DD2B4F8480028
:100F4000618E0818A4F8480006E094F843000328CE
:100F500002D1200002F049FB002D40F0C9800020A2
:100F600084F84300C4E0DFF880040068616C401A34
:100F7000401E002800F19780DFF86C040068E16CE7
:100F8000401A012880F28F80A07E400707D5A07EFE
:100F900010F0FB00A076B4F84A00A4F84800002046
:100FA00084F84200B4F93C00C010B4F93E10401877
:100FB000A4F84000002084F84300DFF82C04006807
:100FC000606494F91400042842DBB4F84800B4F8D3
:100FD0004A1088420FD2B4F84800B4F84810628E24
:100FE000511889B2884233D2B4F84800618E08188B
:100FF000A4F848002CE0B4F84800618E628E51439A
:10100000B4F8482091FBF2F10818B4F8481080B207
:1010100081421DD2A4F848001AE0E56EE06E006837
:10102000E066686800F01FFC686800F01CFCB4F81B
:101030006210081AA4F86200374800882989081845
:1010400035490880280001F091FAB4F862000028C0
:10105000E06E00281BD0E06EC168486800F099FD82
:101060000500E06EC068808900F08CFD0321084215
:1010700001D0012000E00020E16E098915FA81F11C
:101080004018DFF864130968401A0128C5DBE06ED8
:10109000002803D15FF0FF30208601E00020208689
:1010A0000020E07624E0200002F04BF820E0A56E5E
:1010B000A06E0068A066A06E002802D10020A4F8EF
:1010C0006400686800F0CFFB686800F0CCFBB4F8FF
:1010D0006210081AA4F862000F48008829890818CD
:1010E0000D490880280001F041FAB4F86200002898
:1010F000A06E002822D0A06EC168486800F049FDAB
:101100000500A06EC068808900F03CFD0321084204
:1011100004D0012003E000BFAA7F00200020B249D4
:101120000968491BA26E1289891A081A002805D479
:10113000AD480068E16C401A0128B8DBB4F86000E3
:10114000DFF8A41309880818A4F86000606B002871
:1011500028D0A06BA4490968401A002822D5B648B7
:101160000068616B401A00B2B4F93C10B0EBE100CA
:10117000A18F4118A18700B2002801D500B24042DA
:1011800000B2B4F93E10B0EBA100E18F4018E08747
:10119000B4F93C00C010B4F93E104018A4F8400067
:1011A00000206063DFF83C030088002800F008811D
:1011B00094F91400072880F20381606ADFF81C1399
:1011C0000968401A401E002844D4606ADFF80C13F6
:1011D0000968401ADFF80C130988401A401C0128DE
:1011E00038DAC2484068616ABC4A1268891ABF4A44
:1011F000526852898A4214DABC4A52681289521AD9
:1012000005E04389C91A02810023438100684389AC
:101210008B42F6DB494209B200F0E5FA002807D01C
:1012200006E0494209B2B148406800F0DCFA002803
:10123000AE480089616AA94A1268891A401AAB4906
:101240000881606AA5490860A848C068A349096880
:10125000416009E0A1480068616A401A002803D58E
:10126000A07E50F00200A0769C480068616A401A97
:10127000002800F1A18099480068616A401A218D18
:10128000401A401C012880F29780606A93490968DF
:10129000884240F08D809548C068808900F072FCDB
:1012A0000321084201D0012000E000208F49098974
:1012B00040188C490880208D8A49098888423ED28E
:1012C0008A48C068808900F05DFCC00712D5874855
:1012D000C068808900F056FC10F03E0000F052FC1F
:1012E0008249C96889894CF2FF02114008437F494D
:1012F000C9688881208D7D4908817C48C0688089C3
:1013000000F040FC800704D578480089401E7749EA
:101310000881764801897548406800F0DEF9734815
:10132000C068808900F02EFC0321084201D0012012
:1013300000E000206D49098940186A490880674823
:1013400000686849098810FA81F06062208D65495B
:101350000988401A2085200000F06FFE634840682D
:101360000089002806D06148406861490860002073
:101370005E4948605D48C068808900F003FCC00792
:1013800005D55C48007850F020005A490870A07ECE
:10139000C00708D5A07E10F0FE00A076A07E50F019
:1013A0000200A07603E0A07E50F00100A0761AE0D3
:1013B000200001F0C6FE16E0200001F0C2FE12E09F
:1013C00046480068616A401A002808D4434800680B
:1013D000616A401A218D401A401C012803DBA07E5F
:1013E00050F00200A07631BD807F002042480068A6
:1013F000002805D0414800884149098888420AD21E
:101400003748006814303D4909884A1C3B4B1A8014
:1014100089B2085C0DE03948008839490988401ACA
:1014200036490988491C354A118033490968C0B2D8
:10143000405C7047B27F0020587F002038B5040020
:101440003048008800283FD000202C490880FFE762
:101450002A4800882B490988884235D2FFF7C6FF01
:10146000C0B2002803D0022802D0F1D31FE02BE045
:10147000FFF7BCFF042806D1224800881F490988CD
:10148000891C884200DA1FE0FFF7B0FF0502FFF772
:10149000ADFF0543ADB240F2B550854202DAADB2C0
:1014A000002D02D140F2B455FFE76586D0E7FFF783
:1014B0009DFFC0B2022807DB10490988C0B2801E18
:1014C00040180E490880C3E731BD0A48007850F043
:1014D0001000084908707047B67F00207C7F00200C
:1014E000747F0020AC7F0020AA7F0020DC7E0020DB
:1014F000847F0020B77F0020787F0020A87F002015
:10150000A67F0020A47F0020F8B50E00140040B292
:10151000002806D002281AD017D304281BD018D3CD
:101520001BE0362764B2002C69D0022C00F08880C2
:10153000C0F08680032C40F09480082001F028FA47
:101540000500002D0BD1002058E02227EAE70E27E6
:10155000E8E70027E6E70027E4E700204EE02C73E9
:1015600000202860BFB278191030C01C80088000AD
:1015700068602E81B6B2BFB2F81C80088000D0F53A
:101580000070864201D2300006E0BFB2F81C4FF670
:10159000FC710840D0F5007068810120E8812F00BF
:1015A000B6B26889361A0AE04FF40071418110F131
:1015B000100141600121C1814189761A0700012E85
:1015C00017DB082001F0E4F9002804D1280000F01E
:1015D00016F9002012E0047300214173002101601C
:1015E00038600681310089B2B1F5007FDCD231006C
:1015F000DCE70120E881002068732800F2BD17F1C4
:1016000013004FF6FC710840B6B2F11C4FF6FC72A5
:101610001140081880B202F091FA0500002D01D1A6
:101620000020EBE7BFB278191030C01C80088000A2
:1016300068602E8128896881002028602C73D8E793
:10164000072001F0A5F90500002D01D10020D5E704
:10165000002068602E8128896881002028602C7312
:10166000C7E70020CAE730B440B2002806D00228FD
:1016700012D00FD3042813D010D313E036240398CC
:10168000A4B2E51CAD08AD0015FA81F5A8420BD255
:10169000002020E02224F2E70E24F0E70024EEE709
:1016A0000024ECE7002016E00020186002980028D3
:1016B00006D0A4B2E41CA408A4002018586001E0DD
:1016C00000205860022058731981188958811A73B4
:1016D0000120D881180030BC704738B504000D00D7
:1016E0002089ADB285422AD2ADB22089281A05E000
:1016F00061896D1A21894118218124686189ADB2FF
:10170000A942F5D3207B00280ED16089ADB2854275
:101710000AD0607B800707D46068001B291889B253
:10172000200002F095F9040065816089208120681D
:10173000002802D0206800F062F80020206031BD4F
:1017400030B409B2002901D0002801D1002039E0CD
:1017500009B2002908D509B24D424389ADB2AB4266
:1017600001D201202EE001E00D00ADB2037B446800
:101770009BB2002B02D09BB2032B0BD1426809B263
:10178000521A4260426810F110039A4213D2446028
:10179000012017E09BB2022B02D09BB2012B20D17B
:1017A00009B2002910D54389ADB2AB420CD34268CF
:1017B00009B2521A426042898A1842810289891804
:1017C0000181002030BC704709B2012907DBD2B289
:1017D000002A04D0426809B2521A4260EBE70120A5
:1017E000F0E70120EEE780B5002209B2FFF7A8FF7D
:1017F00002BD80B5012209B2FFF7A2FF02BD38B5D4
:10180000002801D100202DE0002403E002F008F9B7
:10181000641C2800002823D0C189491EC181C189C8
:1018200089B200291AD10568017B427B920702D553
:1018300001698847ECE789B2032904D10100082037
:1018400001F0B9F8E4E789B2012902D089B202298E
:10185000DCD10100072001F0AEF8D9E70020D9E77C
:101860002000C0B232BD002101E0491C0068002800
:10187000FBD1080080B27047002802D0C189491C02
:10188000C1817047002801D0002900D10DE004E09B
:1018900002890B899A18028100680268002AF7D130
:1018A00002890B899A1802810160704710B50C00FB
:1018B0002100FFF7E7FF2000FFF7DEFF10BD2DE955
:1018C000F84304000D0000260027002C05D0002D51
:1018D00003D020892989884202D27FF00F004DE091
:1018E0006089B6B2801B6989BFB2C91B884203DB1D
:1018F0006889B0EB070802E06089B0EB06081FFAC0
:1019000088F86868BFB239186068B6B216EB00098B
:101910004246484602F08AF918EB060618EB07071C
:101920006889BFB2874201D300272D686089B6B2AB
:10193000864208D100262468002C04D1002D02D054
:101940007FF00F001AE0002D09D0688929898842AC
:1019500005D12868002802D07FF005000EE0002C99
:1019600009D060892189884205D12068002802D0E9
:101970007FF0050002E0002DB2D10020BDE8F28327
:101980002DE9F04780460C0015000027B8F1000F44
:1019900001D1002040E0002C01D100203CE00026D5
:1019A000B8F1000F01D0002C01D1002034E01FE07D
:1019B000B8F80A00B0EB0309ADB21FFA89F94D453A
:1019C00000D2A9461FFA89F9D8F804009BB2191869
:1019D000B6B216EB040A4A46504602F027F919EB54
:1019E000070719EB0606B5EB09050023D8F80080B8
:1019F000ADB2002D0ED0B8F1000F0BD09BB2002B72
:101A0000D6D0B8F80A009BB28342D1D3B8F80A0006
:101A10001B1AEBE7380080B2BDE8F0872DE9F843E8
:101A200007000C0015000026002F02D17FF00F00E8
:101A300032E0002C02D17FF00F002DE0388992B205
:101A4000904202D25FF0FF3026E0002F05D0002C3C
:101A500003D0388992B2904202D27FF00F001BE08F
:101A600016E0A84678891FFA88F8404501D2B7F8F1
:101A70000A801FFA88F8B6B23119D7F804904246A6
:101A8000484602F0D3F8B5EB080518EB06063F68A8
:101A9000ADB2002DE5D10020BDE8F28310B4020004
:101AA000C343002B01D0002801D101201AE091F896
:101AB00033309B0701D4002014E04B68984201D1D9
:101AC00000200FE08B681A404B688C6823409A42D4
:101AD00007D18A6890438968C943884201D10120AF
:101AE00000E0002010BC704780B51022014900F0D2
:101AF00003F802BDCC7E0020FCB5030008000021E5
:101B00001B680193030001AC002504E02E261E7023
:101B10005B1C641C6D1CEDB2042D2FDA00262778A7
:101B20005FF00A0C97FBFCFE0CFB1E7794F800C0DC
:101B30005FF00A0E9CFBFEFC84F800C03037EC46D8
:101B4000F6B206F80C70761C2778002FE7D1370024
:101B50007E1EFFB2002F0BD00F00791C974201DBD5
:101B600000200EE06F46F6B2F75D1F705B1CEEE7DB
:101B70000E00711C9642C9DB002002E05B1E0021B2
:101B80001970F6BD010089B2090A51EA002080B23D
:101B9000704710F47F41090251EA0061020A12F411
:101BA0007F42114351EA106070470268531C036082
:101BB00011707047704780B500F054FCDFF8B00A30
:101BC0000078401CDFF8A81A0870DFF8A40A007833
:101BD000C00701D500F0B8FA01BD05E0426F8A42A6
:101BE00001D100224267C0680028F7D1704738B59C
:101BF0000400012508E02100DFF8780A50F82500EC
:101C00000068FFF7EAFF6D1C042DF4D331BD30B539
:101C100083B00400C9B2002959D094F914000428F3
:101C200003D094F91400072851D1206F002804D163
:101C3000208D40F66831884249D0208B0190E08A9F
:101C40000090231D2200616AE06C01F047FC200037
:101C500000F09EFDDFF8200A0068A04207D1DFF8FF
:101C6000180A0068C068DFF8101A08600BE0DFF897
:101C7000080A006800E0C068002804D0C168A142DA
:101C8000F9D1E168C1600020E0600120DFF8A81A06
:101C9000087094F9140004280BD10A202075DFF88D
:101CA0009C0A0068E060DFF8940A046001F08BFD94
:101CB0000BE0DFF88C0A0068A04202D1FFF705FCB8
:101CC00003E02100012000F076FE00207CE094F982
:101CD000140000280AD001282DD002283AD0032869
:101CE00048D0042850D0072858D061E00025E08A69
:101CF00000281AD0DFF84C0A0068A04207D1DFF8AC
:101D0000440A0068C068DFF83C1A08600BE0DFF89E
:101D1000340A006800E0C068002804D0C168A1420D
:101D2000F9D1E168C1600020E0602100012000F0ED
:101D300042FE00243EE000252000FFF758FF21006E
:101D4000DFF8040A00F04BFD2100022000F033FE12
:101D500000242FE000252100DFF81C0900F03FFDE2
:101D60000120DFF8D41908702100012000F023FEC3
:101D700000241FE0200000F06BFE05006DB2002D76
:101D800001D10520207515E0200000F061FE05005E
:101D90006DB2002D01D1052020750BE0200000F070
:101DA00057FE05006DB2002D01D10920207501E01C
:101DB00000250024002C05D06DB2002D02D120009A
:101DC00001F0FFF9280040B23EBD80B590F9141033
:101DD000012903D0817E51F0100181760121FFF7A6
:101DE00016FF02BD2DE9FC47040094F914000A28EF
:101DF00009D12100DFF8440900F0F1FC21000120A5
:101E000000F0D9FD59E000250026E76CD4F82480C5
:101E1000D4F88890D4F810A094F9140000281ED1AA
:101E2000E08A002826D0DFF81C090068A04207D10C
:101E3000DFF810090068C068DFF8081908600BE0D7
:101E4000DFF80009006800E0C068002804D0C1681D
:101E5000A142F9D1E168C1600020E0600AE00D0014
:101E6000E68A2100DFF8100800F0B9FC0120DFF855
:101E7000841A0870E06E002802D0E06E00F06DFB5E
:101E8000A06E002802D0A06E00F067FB002D09D0E4
:101E9000208B0190B6B20096231D220041463800E7
:101EA00001F01CFB2100012000F085FD48460028C0
:101EB00003D07FF00C015046C847BDE8F38780B5DA
:101EC0000121FFF78FFF01BDF8B504000D001000E0
:101ED0000422002D01D1DFF8205A002C01D0002D62
:101EE00002D17FF005004AE094F91410002902D0D5
:101EF0007FF0050043E080B2002807D100F0EEF843
:101F000080B2002825D17FF0010038E0002100E0F8
:101F1000491C91421DDADFF85C3753F821301B6809
:101F200000E0DB68002BF3D0DE8A80B28642F8D175
:101F3000002B0BD01E68002E08D0002D06D02E6876
:101F4000002E03D01E682F68BE42EAD17FF0070042
:101F500015E0002D08D02968002905D0002D01D1F9
:101F6000002100E029682160E082DFF89009006824
:101F7000E060DFF88809046001F025FC0020F2BD74
:101F800080B50800FFF79BFF7FF00C0002BD38B55D
:101F9000040094F91400002801D000204CE094F9CA
:101FA0001400012801D1200046E0022000F0F0FCDE
:101FB0000500002D01D100203EE020692861E08A63
:101FC000E88201202875607D6875207A2872A07AE1
:101FD000A872607A687220682860E08A00281AD0A7
:101FE000DFF860070068A04207D1DFF858070068F3
:101FF000C068DFF8501708600BE0DFF8480700689A
:1020000000E0C068002804D0C168A142F9D1E168AD
:10201000C1600020E0602100012000F0CCFCDFF86E
:10202000E008A861DFF820070068E860DFF818071B
:10203000056001F0C8FB280032BD416A028D11FA2B
:1020400082F1428E40F2B5539A4202DB40F2B45222
:1020500000E0428EC36ACB1A9A1A002A04D4028D79
:102060004285C06A081A0CE0416AC26A891A0129CD
:1020700002DB0021418503E0C16A426A891A418579
:102080000020704710B50400208D08182085208D91
:1020900040F66931884203DB40F6683020850EE067
:1020A000208D00280BD194F91400072803D094F94F
:1020B0001400092803D140F668302085FFE720008E
:1020C000FFF7BBFF40F2DA21884206DBA07E50F02A
:1020D0000200A076200001F074F810BD10B40020BA
:1020E000FFE7DFF8201809884A1CDFF818381A8043
:1020F00089B24FF6FF72914204D14FF44041DFF8AC
:1021000004281180002100E0491CC9B2042916DA14
:10211000DFF86025C9B252F82120126800E0D268C9
:10212000002AF1D0D38ADFF8DC472488A342F6D115
:10213000401C80B2B0F5804FD3DB002002E0DFF816
:10214000C407008810BC7047F0B583B00020DFF8EA
:10215000B8070068401CDFF8B0170860DFF8AC076C
:102160000078401CDFF8A417087026E0E868DFF864
:1021700008150860F6B2002E09D0288B0190E88A75
:1021800000902B1D2A00696AE86C01F0A7F92E69FE
:102190002900ED68012000F00EFC0020DFF8981502
:1021A00008703800002803D07FF00C013000B847D9
:1021B000DFF884050078002805D00024DFF8B80493
:1021C000056800E0ED68002D00F02681687FDFF8EB
:1021D0003C1709788842F5D0DFF830070078687737
:1021E0000027002695F91400022805D195F8420031
:1021F000062801D17F1C75E095F842000C2801D11A
:102200007F1C6FE095F89100002827D0DFF80007C9
:1022100095F89110081810F8010C95F89010C0B2BC
:10222000814204D295F89010491C85F8901095F8D9
:102230009010C0B2814255D3280001F03DFA002829
:1022400050D1002085F8900095F89100072849D2D8
:1022500095F89100401C85F8910043E0B5F93000F5
:10226000002802D4288E401C2886E86E002839D029
:10227000B5F93000B5F94010884233DB95F9140008
:1022800002280DD0B5F93C00C010B5F93E10401839
:10229000DFF8801695F8422051568840A5F8400096
:1022A00000202886B5F84800B5F85C10884202D2B4
:1022B000B5F8480001E0B5F85C0080B24008A5F828
:1022C0004A00B5F84A00698E490089B2884203D2B3
:1022D000688E4000A5F84A00688EA5F848002800DE
:1022E00001F03CF995F9140006280AD1A87EC00631
:1022F00007D5DFF814060068296A401A292800D398
:102300007F1C287A000738D595F91400042803D0DB
:1023100095F91400072830D1D5F88C00DFF8F815AE
:1023200008184FF4FA71B0FBF1F0DFF8DC1509681A
:102330002A6A891A884202D27F1C761C1DE0D5F8D1
:102340008C0095F89210DFF8D42502FB01004FF4C1
:10235000FA71B0FBF1F0DFF8B01509682A6A891A42
:1023600088420AD2280001F07BF940B2002804D14B
:1023700095F89200401C85F8920095F91400032806
:1023800007D1DFF884050068296A401A292800D39C
:102390007F1C95F91400092807D1DFF86C05006847
:1023A000296A401AF12800D37F1CFFB2002F0AD0FF
:1023B000D5F88870280000F0EBF9002C3FF4D6AE79
:1023C000E868E060D6E62C00ED68E07E401CE07630
:1023D000E07E217F8842FFF4F6AE0020E076002008
:1023E000DFF854130870D4F88400002805D02100C9
:1023F0002069D4F88420904700E00020DFF83813EB
:10240000097800297FF4D9AE40B200287FF4DBAE12
:10241000200000F0D6FED6E60024C848056807E094
:10242000E868C64908602900ED68012000F0C3FA99
:10243000002D16D00027DFF8D0040068296A401A62
:10244000F12800D37F1CFFB2002F07D0280000F036
:102450009FF9002CE4D0E868E060E4E72C00ED6828
:10246000E6E7F7BD38B5DFF8A4040078401CDFF8D4
:102470009C1408701FE0DFF8940400786077A07E59
:10248000C0070AD5A07E50F00200A076200000F020
:1024900098FEA07E10F0FC00A076E568206F002872
:1024A0000CD00020A4490870200000F013F8A248C6
:1024B0000078002802D07048046800E02C00002C4E
:1024C00007D0607FDFF8441409788842D3D1E468EC
:1024D000F5E731BDF8B50400206F457B266F00207D
:1024E0002067E06F002806D0002332002100206919
:1024F000E76FB84705E0002332002100002000F01C
:1025000046F840B200281BD1A80624D5208D40F6FD
:102510006831884202D0208D401C2085E06F002861
:1025200006D00023002221002069E46FA04700E0CC
:10253000002040B210F10D0F0DD17FF00C000BE028
:1025400040B210F10D0F02D17FF00C0004E02667BD
:102550007FF0040000E00020F2BD10B503E0046845
:1025600000F004F820000028F9D110BD10B50400D7
:10257000002C09D06068002802D06068FFF73FF99E
:102580002100032000F017FA10BD4175704710B507
:1025900008001400002C07D02189FFF773FD2000EC
:1025A000FFF72DF9002010BD5BB2002BFAD1FFF729
:1025B0000CFCF8E738B5C0B2802801DB7F20FFE7CC
:1025C000002300212C4A126810E0547DC0B2A042C2
:1025D0000BD3CD4C2468156A641B9C4205D3CA48B2
:1025E0000068116A431A1100507DD268002AECD1AC
:1025F000002902D00800FFF762FC31BD38B5002386
:1026000000221D49096810E091F9144040B284424B
:102610000AD1BD4C24680D6A641B9C4204D3BA4A9B
:1026200012680B6AD31A0A00C9680029ECD1002A83
:1026300003D000211000FFF7D5FB31BD10B50022FB
:1026400000203E4909680BE0AF4B1B680C6A1B1B5E
:10265000934204D3AC4800680A6A821A0800C96829
:102660000029F1D1002801D0FFF729FC10BD00009E
:10267000B37F002024BE0008647F002038B5050029
:10268000012000F085F90400002C21D1FFF7D6FFCE
:10269000012000F07DF90400002C19D10920FFF77A
:1026A000ADFF012000F074F90400002C10D10820C7
:1026B000FFF7A4FF012000F06BF90400002C07D104
:1026C0002800C0B2FFF776FF012000F061F9040096
:1026D000002C2FD094210022200001F0E3FA657530
:1026E00041F2D060A4F8600040F668306085608DEB
:1026F0002085FF20A0724FF4067060860620A4F8A3
:1027000040000620E0875FF0FF3020860120A4F81B
:10271000480000F096F86065E0646064A0657A485F
:10272000006820627948007860777E48E0677E48DC
:10273000C4F88C00200032BDB27F0020687F0020EA
:10274000887F00205C7F0020607F002080B54020D3
:10275000FFF794FF02BD002800D0016170470028F8
:1027600000D0C1677047002800D0816770470028FB
:1027700001D0C0F888107047002804D090F91420C8
:10278000012A00D181617047C0F884100277704738
:1027900010B5040094F9140000281FD094F9140017
:1027A0000A281BD094F91400012817D0206F0028A4
:1027B00004D0206FFFF723F8002020675FF0FF3080
:1027C0002086A06EFFF7C9FEE06EFFF7C6FE002070
:1027D000A066A06EE0660020A4F8640010BD10B5ED
:1027E0000C000168A14203D10168C968016009E0D9
:1027F000006800E0C068002804D0C168A142F9D197
:10280000E168C1600020E0602000FFF7C1FF94F99B
:1028100014000A280DD094F91400012809D0A07ED4
:10282000C00706D5A07E50F00200A076200000F080
:10283000C8FC94F914000128002020750020E082D3
:1028400010BD3A48006830490968081837490860DF
:1028500036480068704710B50400080001F056FAC9
:10286000002802D1200080B20CE0B0F92A0000B2AA
:10287000002805D02838A4B280B2844200D30400D6
:10288000200080B210BD38B50400080003E0C56820
:10289000FFF715FB2800002805D001682268914247
:1028A000F5D0C068F7E731BD38B504000D00002C45
:1028B0001ED0206800281BD0194801682000FFF7AF
:1028C000E2FF0E4801682000FFF7DDFF002D0FD06A
:1028D000286800280CD01648006807E0C168026824
:1028E00023689A4201D12A68026008000028F5D1C5
:1028F00031BD0000B27F002024BF00085C7F0020B3
:10290000811F0008D8010020587F0020B47F0020DC
:102910001CBF000814BE0008B84C0A00F8240100CF
:10292000647F00208F25000800DD6D000800002076
:10293000607F00200021826811604168C91C8A08FC
:102940009200002107E083681B68136083681A60A7
:1029500003889A18491C43889942F4DB704710B5E4
:10296000002406E01B48A4B250F82400FFF7E2FF61
:10297000641CA4B2092CF5D310BD81680968002934
:1029800004D00A6880680260080000E000207047F8
:1029900080B540B2092801DB002005E00D4940B2B6
:1029A00051F82000FFF7E9FF02BD826812680A6053
:1029B00080680160704780B540B2092807DA0029B5
:1029C00005D0044A40B252F82000FFF7EEFF01BDE7
:1029D00000000000A0BB00082DE9F04104000F003A
:1029E000100098460022C01910F1140189B201208C
:1029F000FEF78AFD0500002D27D06E68E08AFFF7FC
:102A0000C1F83080208BFFF7BDF87080C6F80480D5
:102A1000606AFFF7BEF8B060BFB2042097FBF0F029
:102A2000401D000350F0100080B2FFF7ABF8B081FA
:102A3000608DFFF7A7F8F0810020308200207082BF
:102A4000606A618D10FA81F0E0622800BDE8F081D3
:102A500038B50400A06E00281AD0A56E00E02D68DD
:102A600028680028FBD1E8688089FFF78BF80721E8
:102A700008420DD10120FFF785F8E96889890843EC
:102A8000E9688881A07E50F02000A076002003E055
:102A90000121200000F0DFFA32BD2DE9F047814628
:102AA0008A4616009846089CE00701D5042000E0FD
:102AB0000020A10701D5002100E00021220701D557
:102AC000002200E00022081817180320FFF760FF1B
:102AD0000500002D04D15046FEF791FE002039E09C
:102AE000AC7200202860C5F804A0BAF80800FFB254
:102AF000C01B288114215046FEF775FE002804D023
:102B00002800FFF733FD002024E068684068E86093
:102B1000B9F81600FFF736F8E9680880B9F8180028
:102B2000FFF730F8E96848804046FFF732F8E96877
:102B30004860FFB2042097FBF0F0401DF6B256EA61
:102B4000003080B2FFF71EF8E96888810020E9684C
:102B500048822800BDE8F08770B50C001D002300F6
:102B6000A4B292B2944220D2059989070CD4049E53
:102B7000B17E490619D40699002905D0B16E002905
:102B800002D1F16E002910D092B2A4B204F2B75172
:102B9000890889008A4201D2130006E0A4B204F237
:102BA000B7514FF6FC7212EA01030022190089B2F4
:102BB00040B2FEF7A9FC002801D1002005E04189C0
:102BC000091B298004810189418170BD90F914207D
:102BD000042A0ED090F91420072A0AD090F9142064
:102BE000022A06D090F91420032A02D07FF00A00AE
:102BF00026E089B2002901D1002021E0B0F8602050
:102C000089B28A4206D2817E51F0800181765FF0DE
:102C1000FF3015E0B0F86210082905DAB0F862104C
:102C20004FF6FD72914206D3817E51F0800181768C
:102C30005FF0FF3004E0B0F862000028FFD1002010
:102C400070472DE9FE4F88B0050000200590002751
:102C50005FF0000A0020069000265FF000080020C8
:102C60008DF80E0000208DF80F000020ADF80C004C
:102C70000024B5F85E00022190FBF1F0698E8142DC
:102C800003DA688EADF8100006E0B5F85E000221A8
:102C900090FBF1F0ADF81000BDF81000002804D052
:102CA000BDF81000ADF8100002E0688EADF810001D
:102CB0000898002802D17FF00F00A1E0BDF8241091
:102CC0002800FFF783FF40B2002801D040B297E010
:102CD000B5F86290A86E002800F0BD80AF6E00E0ED
:102CE0003F6838680028FBD1B87AC00701D50420B6
:102CF00000E00020B97A890701D5002100E0002119
:102D0000BA7A120701D5002200E000220818101834
:102D1000BDF810103A89891A0A1AB5F86400ADF89E
:102D20000C00BDF80C00002823D0BA46BDF80C00FA
:102D3000BDF82410884202D2BDF80C0001E0BDF8B5
:102D4000240092B2824201DA14000AE0BDF80C00BD
:102D5000BDF82410884202D2BDF80C4001E0BDF855
:102D6000244014EB0808BDF80C00001BADF80C0063
:102D7000121BBDF824001FFA88F8804573D292B266
:102D8000002A70D0388900286DD092B2BDF8240096
:102D90001FFA88F8B0EB0800824202DAADF8122080
:102DA00005E0BDF82400B0EB0800ADF81200BA460B
:102DB0009DF82800C00734D5012002909DF8280016
:102DC0000190009503AB92B2BDF812100420FFF7FA
:102DD000C3FE0590002816D1A87E50F08000A8768A
:102DE0000598002802D00598FEF709FD002E02D0B4
:102DF0003000FFF7B2FBB5F8620000285FF0FF304B
:102E00000BB0BDE8F08FBDF8122008981FFA88F8C3
:102E100018EB00010598D0F804B0584600F006FF02
:102E20000FE00122BDF812100420FEF76DFB0590A3
:102E30000028D1D008981FFA88F818EB00000599EF
:102E40004860BDF8120010EB08080598FEF70BFD6E
:102E500010EB090907E006E00698C0F800A0CDF8DD
:102E600018A01BEB0808BDF824001FFA88F880455D
:102E700080F08B80BDF82400B0EB0800BDF8101086
:102E80009DF80E20B1EB020B1FFA8BFB80B283453D
:102E900000D383469DF82800C0072AD5002E01D113
:102EA000012000E00020C0B202909DF828000190AF
:102EB000009503ABBDF810209DF80E005BFA80F181
:102EC00089B20020FFF748FE0190002884D01FFA45
:102ED0008BFB5A4608981FFA88F818EB00010198F6
:102EE00040689DF80E3013EB000A504600F09EFE3D
:102EF00023E00122594689B20020FEF705FB8246F5
:102F0000BAF1000F3FF468AF08981FFA88F818EB81
:102F10000000CAF8040000229DF80E1089B20020BB
:102F2000FEF7F2FA0190002803D15046FEF767FC45
:102F300052E751460198FEF7A5FC0198FEF793FC75
:102F400010EB09091FFA89F9B9F1090F05DA1FFA1F
:102F500089F94FF6FD70814503D30198FEF74FFCC8
:102F60003AE79DF80F000090A86D10FA88F3002250
:102F700001992800FFF791FD824600283FF42CAF0D
:102F8000002E7FF469AF564669E7A4B2002C24D026
:102F9000D7F804801BE0B8F808002018A8F808004B
:102FA000D8F80000002810D1A4B222000899D8F85F
:102FB0000400B8F80A3013EB000B584600F036FE58
:102FC000B8F80A002018A8F80A00D8F80080B8F16C
:102FD000000FE0D1388920183881BDF80C00A5F821
:102FE00064000598002808D005997868FEF74AFC27
:102FF00038890599098908183881002F01D1AE66F2
:1030000000E03E60A86DBDF8241010FA81F0A865BC
:10301000B5F86000BDF82410401AA5F86000A5F8C6
:103020006290B5F862000028BAF1000F11D0DAF80A
:103030000C0000280DD09DF82800800709D4082036
:10304000FEF7A0FDDAF80C1089890843DAF80C10B5
:1030500088810020D4E670B582B004000D000026FF
:103060000021B4F86200082805DAB4F862004FF6CF
:10307000FD71884208D3E80706D4A07E50F0800096
:10308000A0765FF0FF305BE0A80700D50126F007CF
:1030900001D5042000E00020B10701D5002100E0A7
:1030A0000021320701D5002200E000220818111883
:1030B0000022C9B289B20020FEF726FA002806D104
:1030C000A07E50F08000A0765FF0FF3038E0F6B2CE
:1030D0000096A36D2A00D2B201002000FFF7DDFCAC
:1030E000002806D1A07E50F08000A0765FF0FF306F
:1030F00026E0A16E002901D1A06606E0A16E00E0E5
:1031000009680A68002AFBD108600021A4F864104D
:1031100003210D4202D0A16D491CA165E90703D529
:10312000A17E51F02001A1764068FEF79CFBB4F827
:1031300062104018A4F86200B4F862000028002071
:1031400076BD70B584B004000025E06CFEF721FD6B
:1031500003000022EDB2290089B22000FFF73CFCF9
:103160000600002E06D1A07E50F00300A0767FF06E
:10317000010024E0201D00F0C9FD002802D17FF0ED
:1031800003050BE0029006200190607A0090A37A7C
:10319000221D2100300000F004FF05003000FEF782
:1031A0002EFB6DB2002D04D0A07E50F00300A0765F
:1031B00003E0A07E10F0FC00A076280040B204B02E
:1031C00070BD2DE9F0470400C2480068A04201D15B
:1031D00000208FE0B4F85C00B4F84810884202D2B6
:1031E000B4F85C5001E0B4F84850D4F86880A07E90
:1031F000800713D5B8F1000F0CD0D8F80C10486830
:10320000FEF7C7FC616C401AB8F8081010FA81F09C
:10321000854203D22000FFF794FF6BE0E76E002F9A
:1032200004D000E03F6838680028FBD1201D00F082
:103230006DFD0600002E02D17FF003005AE0002C45
:1032400002D02068002811D1002E01D0301D00E0EE
:103250000020002802D17FF003004BE000682060CE
:1032600004E04046FFF782F9D4F86880B8F1000F17
:1032700035D0D8F80C104868FEF78BFC616C401A0A
:10328000B8F8081010FA81F0854228D3D8F80C005D
:103290008089FEF777FCE06E002817D0A07E4421DD
:1032A000084213D1A06E002808D0A06E0068002844
:1032B0000CD1A06E0089618E884207D2B4F86000FC
:1032C000002803D0B4F86200082801DB012000E0E8
:1032D0000020002810D1A07EA02108420CD1A06EB1
:1032E000002802D10020A4F86400A07E10F07F0026
:1032F000A0760020BDE8F08794F91400022809D0D8
:103300001020FEF73FFCD8F80C1089890843D8F844
:103310000C10888132002100404600F07DF840B258
:10332000002805D0A17E51F08001A17640B2E1E7EE
:10333000D8F80000A06694F91400022803D0A07EFB
:1033400010F0FC00A076D8F80C104868FEF721FCBD
:103350008146D8F80C008089FEF714FC032108424E
:1033600001D0012000E00020B8F8081019FA81F11E
:103370004018E16C091A002900D5E064D8F80C0067
:103380008089FEF7FFFB0321084201D0012000E005
:103390000020B8F8081010FA81F000283FF461AF5F
:1033A0000020C8F80000E06E002803D1C4F86C804B
:1033B000474659E7D8F80C104868FEF7EAFB814603
:1033C000F9684868FEF7E5FBB9EB000000281FD557
:1033D00014F16C0901E0D9F80090D9F80000002838
:1033E0000FD0D9F80000C1684868FEF7D2FB8246CA
:1033F000D8F80C104868FEF7CCFBBAEB00000028A8
:10340000E9D4D9F80000C8F80000C9F800802BE71B
:10341000C7F800803F6827E7FEB504000D001600DE
:103420006068C089012801D0002051E0686AFEF779
:10343000B0FBE1688860688DFEF7A4FBE168C88195
:10344000686A698D10FA81F0E862E06810F114078B
:10345000A07AC0070BD5291D40F2B450FFF7FBF945
:1034600080B250F00170FEF794FB38603F1DB5F953
:103470003000002801D500202886686B002807D17D
:10348000154800686863E1684868FEF782FBA86336
:10349000E06861684968401A61684989091A626888
:1034A000518161680989081A61680881E06861686A
:1034B00048600020E1680882029606200190687A40
:1034C0000090AB7A2A1D2900606800F06AFD40B2C6
:1034D000FEBD0000887F0020587F00202DE9FE43BC
:1034E0008046894614001D00002214210120FEF7A9
:1034F0000BF80600002E2FD077680A98FEF742FBE3
:1035000038800B98FEF73EFB78804046FEF741FB83
:1035100078604846FEF73DFBB86045F21400FEF7C0
:1035200031FBB88146F60B00F8810020388200207C
:103530007882280000F0EAFB00280AD002900620DA
:10354000019000200090FF232A002100300000F0AD
:1035500028FD3000FEF753F9BDE8F78380B5C16E52
:10356000002914D0C16E00E009680A68002AFBD166
:10357000826E0A60C16E81660021C16690F84210B9
:10358000491C80F8421000214163FFF71AFE01BD7B
:10359000F8B50400E06E002826D0E56E2868E066E5
:1035A00014F1680600E03668306800280CD03068F6
:1035B000C1684868FEF7EDFA0700E9684868FEF759
:1035C000E8FA381A0028EED4306828603560286898
:1035D000002802D10020A4F8640094F84200401CA6
:1035E00084F8420000206063F1BD10B50400E06E75
:1035F000002834D0A07E400731D42000FFF7C8FF58
:10360000B4F85C00B4F84810884207D2B4F85C0003
:10361000022190FBF1F0A4F84A0006E0B4F848005B
:10362000022190FBF1F0A4F84A00B4F84A00618E40
:10363000B0EB410F04D2608E80B24000A4F84A0083
:10364000B4F84A00618E0322514311FA80F0A4F8C5
:103650004800A07E50F00400A0760020208610BD17
:103660003EB50400E06C401EFEF793FA0300002212
:1036700000212000FFF7B0F90500002D02D15FF016
:10368000FF3018E0201D00F041FB002802D17FF040
:1036900003040BE002900620019000200090A37A22
:1036A000221D2100280000F07CFC04002800FEF709
:1036B000A6F8200040B23EBD2DE9F04184B00500DF
:1036C000EE6E002E00D1AE6E002E01D1002061E022
:1036D000F0688089FEF756FAC00705D530890028C2
:1036E00002D15FF0010801E05FF000085FFA88F89E
:1036F000B8F1000F01D0002200E00122F068436819
:1037000092B200212800FFF767F90400002C02D1D3
:103710005FF0FF303EE067685FFA88F8B8F1000FAD
:1037200009D01120FEF72EFAB9894CF2FF021140A0
:103730000843B8810BE0606810F1140170680089DB
:103740003289831A9BB201227068FEF719F9F16879
:103750004868FEF71EFA401CE96C091A002900D5DA
:10376000E864281D00F0D2FA002802D17FF003059A
:103770000BE002900620019000200090AB7A2A1DF9
:103780002900200000F00DFC05002000FEF737F8AE
:10379000280040B204B0BDE8F081000080B5FEF71B
:1037A0000AFA68480068002803D1674800680028C2
:1037B00005D000226549FA2000F039F802E0002027
:1037C0006349086001BD80B56148006800280FD1D9
:1037D0005C480068002803D15B480068002807D0D7
:1037E00001205B49086000225849FA2000F01FF8C8
:1037F00001BD10B50400606880472200554920686B
:1038000000F015F810BD10B5012409E0524810EB86
:10381000C4025049504850F8340000F008F8641CC5
:10382000052CF3D300F0FCFE4C49086010BDF8B540
:1038300004000E0017000620FFF7AAF80500002D6F
:1038400052D000F0EDFE46490968002903D100215D
:10385000424A106002E041490968411A002028608C
:10386000AE60EF60081968603D480068002802D12A
:103870003B48056038E03A480068406884420CD212
:10388000374800684068001B35490968486034487B
:10389000006828603248056026E03148006800E092
:1038A0000068002820D069684268891A6960016848
:1038B000002904D06968026852689142F0D2016818
:1038C000002906D0016849686A68891A026851604F
:1038D00007E069688C4204D22149096849680919DE
:1038E0006960016829600560F1BDF8B51C48006891
:1038F000002825D000F094FE18490968441A0025D4
:1039000017480168002918D04868844215D301255A
:10391000124800684A681018104A10604868241A53
:1039200008680F4A10608E68CF680620FFF743F8DA
:103930003000002801D03800B047EDB2002DDED1B4
:10394000F1BD0000647F0020687F00209D370008E3
:10395000947F0020F3370008E4BA0008907F00202D
:103960008C7F0020AD49096802885118884216D022
:103970000A79002A13D1AA4A126891420FD0A94AA3
:1039800012688A4201D1A74A10600A880280A34ABD
:103990001268821AA14B1B680988C9184A809F497E
:1039A000096842885118814212D00A79002A0FD141
:1039B0009C4A1268824201D19A4A116002880A80A8
:1039C000964A1268891A954A1268008880184180C0
:1039D0007047954880088000904908608F480068CB
:1039E0004FF42051018000214180002101718B485A
:1039F000006810F520508A4908600120884909684C
:103A000008714FF420508649096808804FF420500F
:103A10008349096848808148006882490860704786
:103A200080B5002813D07D490968884203D37C49BA
:103A30000968884200D30AE00838002101717949F9
:103A40000968884201D277490860FFF78BFF01BD02
:103A500070B489B2C91C4FF6FC72114089B20C29AE
:103A600000D20C2189B2B1F5205F01D9002063E0BA
:103A70006A4A1268904203D3694A1268904200D39E
:103A80005AE0B0F10802654B1B68D31A14889BB248
:103A9000E41A083CA4B289B28C4201D200204BE067
:103AA00089B2A4B2A14247D05C4D2D681688751921
:103AB0002E79002E1FD12C88C9180831594E36682E
:103AC000AE4205D1554D2D6889B24D19554E356020
:103AD000524D2D6889B24D1900262E712C806B80B5
:103AE00011802A88B2F5205F26D04C4A12682B88B4
:103AF0009A18518020E0A4B289B211F11405AC42A9
:103B00001AD3C9180831454C246889B20D19454C9F
:103B10002468A54201D2434C256000242C711488EE
:103B20002C806B8011802A88B2F5205F04D03B4A3C
:103B300012682B889A18518070BC704710B480B2FC
:103B4000002801D1002067E080B2C01C4FF6FC7154
:103B5000084080B20C2800D20C2080B2B0F5205F63
:103B600001D9002058E02F4909682C4A1268891AA7
:103B700003E02A4A126889B2895A89B280B2D0F524
:103B80002052914247D2254A126889B28A18137985
:103B9000002BEED1138889B25B1A083B80B28342B6
:103BA000E7D3138889B25B1A083B80B210F1140482
:103BB000A34217D340180830184B1B6880B2C318B3
:103BC00000241C7114881C805980108001211171FF
:103BD0001988B1F5205F07D0104909681B8859186A
:103BE000488001E0012010710E48006882420FD128
:103BF0000C48006803E00949096800884018017909
:103C0000002903D0064909688842F4D105490860B3
:103C100012F1080000E0002010BC70471C7F00205B
:103C2000207F0020247F0020E307002062B38B0761
:103C300008D0521E11F8013B00F8013B00F024802F
:103C40008B07F6D1830740F0208000BF103A07D3DE
:103C500030B4B1E83810103AA0E83810F9D230BCCE
:103C6000530724BFB1E80810A0E8081044BF51F87A
:103C7000043B40F8043BD20724BF31F8022B20F864
:103C8000022B44BF0B7803707047083A07D3B1E8A2
:103C90000810083A40F8043B40F804CBF7D2530729
:103CA000E4E7000062F30F2262F31F42401810F0B5
:103CB000030308D0C91A1FD3DB0748BF00F8012D42
:103CC00028BF20F8022D130030B4144615461039D1
:103CD00028BF20E93C00FAD8490728BF20E90C009A
:103CE00048BF40F8042D890028BF20F8022D48BFA6
:103CF00000F8012D30BC7047C91818BF00F8012D1D
:103D0000CB0728BF00F8012D7047000010B4010058
:103D1000DFF86803006800E00068002819D090F818
:103D2000332012F00502052AF6D14268002AF3D0AA
:103D30000A6883681A404368846823409A421DD009
:103D400090F833209207E7D40A68C3689A42E3D117
:103D500014E0CB48006800280CD0C948006890F8EF
:103D6000330010F00500052804D1C54800684068FC
:103D7000002801D1002001E0C148006810BC704754
:103D80002DE9F04704000D005FF001086668307807
:103D9000C0B20009C0B2042804D02000FDF72FFDF6
:103DA0000020FCE0307810F00F07BFB2BF00708831
:103DB000FDF7E8FE814620891FFA89F9814504D282
:103DC000494689B22000FDF788FC6089BFB2B8423D
:103DD00007D320891FFA89F9484502D3BFB2142FAF
:103DE00004DA2000FDF70BFD0020D8E03069A5497A
:103DF0004861F068A3490861A248007D10F0F00016
:103E0000E0280BD195F83300C00704D56868002876
:103E100001D0A9462DE05FF000092AE05FF0010A19
:103E2000A94699F83300C00711D5D9F80400002835
:103E30000DD094484069D9F80410884206D049460C
:103E400090484069FDF72AFE002800D011E0BAF141
:103E5000000F05D05FF0000A8848D0F8009001E01C
:103E6000D9F80090A94501D1D9F80090B9F1000F17
:103E7000D7D1B9F1000F0BD1707A112808D1BFB298
:103E8000B8194088B0F5884F02D1A9465FF0000804
:103E9000B8F1000F15D07B480069002811D0290027
:103EA00078480069FDF7FAFD002805D17548007CC7
:103EB00010F0F000E02804D12000FDF7A0FC002065
:103EC0006DE0B9F1000F04D12000FDF798FC00204F
:103ED00065E0F0884FF63F71084208D0200000F0FE
:103EE00036FD0400002C01D1002058E066686548CA
:103EF000C0F800906348456062488660307810F0F2
:103F00000F0080B280005F498881380000B24142D2
:103F100009B22000FDF767FC707A01280DD0062851
:103F200006D011280ED12900200000F034FF23E034
:103F300029002000FCF728F91EE02900200001F0EC
:103F400047F919E049464F484069FDF7A7FD0028A9
:103F50000FD14C48007D10F0F000E02809D0390066
:103F600009B22000FDF745FC66600221200001F047
:103F700001FA2000FDF743FC0020424908600020C0
:103F80004049486000203F49886000203D498881C1
:103F900000203C49086100203A4948610020BDE802
:103FA000F0873EB50C00089D002A05D0002902D0FC
:103FB0000968002900D12C1D0295079901910699E5
:103FC0000091DBB2210000F001F83EBD2DE9F8437D
:103FD00004000E0017009946002F36D05FF0140839
:103FE00014212000FDF7FFFB002802D07FF0010024
:103FF00041E0656885F8089009986872386828611A
:104000001FFA88F8042098FBF0F050F04000287068
:10401000089868702089FDF7B5FD68800020E88069
:1040200019480088FDF7AEFDA88017480088401C9D
:1040300015490880002E03D114480068E86001E0AB
:104040003068E8600020688103E0656828690090B6
:104050006F460A98418D002909D0418D22899142ED
:1040600005D23A000100200000F052FD03E03A00C2
:10407000210043699847BDE8F28300004C7F00208F
:10408000507F0020A07E0020A07F002024BF0008D9
:1040900000B587B000200090DFF88C05006850F074
:1040A0000100DFF884150860DFF87C05006810F077
:1040B00001000090009800200090DFF86C05006877
:1040C00050F00400DFF860150860DFF85C05006858
:1040D00010F004000090009800200090DFF84805E0
:1040E000006850F00200DFF840150860DFF838057E
:1040F000006810F002000090009800200090DFF8A7
:104100002805006850F04000DFF81C150860DFF853
:104110001805006810F04000009000980020009002
:10412000DFF80405006850F00070DFF8FC14086048
:10413000DFF8F404006810F0007000900098002090
:104140000090DFF8E404006850F08060DFF8D814D5
:104150000860DFF8D404006810F0806000900098D8
:1041600000200090DFF8C004006850F00060DFF825
:10417000B8140860DFF8B004006810F00060009028
:10418000009801220421DFF8A40401F031FA042090
:104190000190012002900020039002200490002052
:1041A000059001A9DFF8840401F02CF93220019078
:1041B0000220029000200390032004900B20059021
:1041C00001A9DFF86C0401F01DF98620019002209E
:1041D000029000200390032004900B20059001A979
:1041E000DFF8500401F00EF94FF4D04001900220A6
:1041F000029000200390032004900B20059001A959
:10420000DFF8340401F0FEF8002201213D2001F026
:104210007DFA3D2001F08BFA07B000BD80B5DFF8D4
:104220001C0400F0DAF901BDF8B5060000270024EF
:10423000002501F0BCFA96F83310490716D502287C
:1042400014D2DFF8FC0301F05DFC300001F02BFD1F
:10425000300001F058FD0120DFF8E8130870DFF8A6
:10426000E813DFF8D80301F05FFD3CE096F8331067
:10427000490738D4022836D3022806D019D3042897
:104280000ED008D3052810D013E04FF400654FF48A
:10429000804401270DE000254FF48044012708E009
:1042A0004FF400650024012703E0002500240127C6
:1042B000FFE7002F17D0300001F007FDDFF88C0377
:1042C000C560DFF8880384600021DFF8800302F016
:1042D0006FF8DFF87C0301F015FCDFF86C13DFF8F2
:1042E0005C0301F021FDF1BD10B584B00400002095
:1042F000009001A8DFF85C130CC90CC0083908381D
:10430000DFF85403DFF84413086001A8DFF83C131A
:1043100048610120DFF8341348604FF48040DFF833
:104320002C1388604FF40060C849C8605FF4000037
:10433000C64908620120C54988610020C349C86197
:104340000020C2490882C14801F0F2FC002809D1CE
:10435000C24801F0D7FB94F8330050F0040084F811
:10436000330002E0BE4801F0CDFB0423BD4ABE4944
:10437000B64801F016FE0423BC4ABD49B34801F01B
:104380004BFE062084F82C00022084F82D0000202B
:1043900084F82E00002084F82F00002084F83000DC
:1043A000002084F83100002084F8320040F2DC5014
:1043B000608594F8330050F00A0084F83300A34875
:1043C00001F0D1FF6A461121A04801F04CFF00988E
:1043D00050F003000090009A11219C4801F084FFE6
:1043E0006A461221994801F03EFF009850F02000E3
:1043F0000090009A1221954801F076FF1FBD2DE92B
:10440000F0479248C06A856800265FF000080024E3
:104410005FF000098D48C76A5FF000088A460EE029
:104420002200DAF8040019EB000118EB05094846F0
:10443000FFF7FCFB14EB0808A619DAF800A0BAF1A4
:10444000000F32D03868002802D57FF0070031E035
:10445000BAF80A405FF000090DE0BD68A8F2F45018
:10446000041909F2F450B0EB080906F2F450B0EB6D
:1044700008065FF0000818EB040040F2F55188428E
:10448000CED340F2F450B0EB0802DAF8040019EB96
:10449000000118EB05052800FFF7C8FBFF68386826
:1044A0000028DAD57FF0070004E03100674801F00A
:1044B000F1FD00206549096841F21402515889064E
:1044C0000BD52021614A126841F214039950002152
:1044D0005E4A126841F20403995040B2BDE8F08789
:1044E0002DE9F04700255FF000095FF0000A002485
:1044F0000020564801F068FE002801D000206AE044
:104500005248C16B5148D0F8408089B2002905D08B
:10451000032289B20420FCF7F7FF0500002D35D0F7
:104520004A48076B5FF000092E0029E040F2F45082
:10453000B0EB090219EB080170681AEB000840465D
:10454000FFF774FBFF68D7F80880A9F2F45004194C
:104550000AF2F450B0EB090A5FF0000919EB04000D
:1045600040F2F5518842E1D2220019EB080170684F
:104570001AEB000A5046FFF759FB14EB090936689D
:10458000002E03D074895FF0000AE7E72F48076B1D
:10459000002005E0396851F000413960FF68401C97
:1045A0002A49896B8842F5D3002028498863274827
:1045B000006841F21401085800060BD580202349F9
:1045C000096841F21402505000202049096841F264
:1045D000080250502800BDE8F08738B504002000DC
:1045E000FFF77EFF0500002D0AD021002800226978
:1045F000904740B2002803D02800FDF700F90025BD
:1046000031BD80B5732180F83410742180F83510E5
:104610001849416118498161FFF766FE002002BD1B
:1046200080B502F070F902BD30380240000402404B
:10463000000802400000024000180240407E0020B6
:104640001CBD0008B57F0020795A0008B87D002005
:104650009CBD00080CBF000800800240E4BD0008BB
:10466000F4BD0008C4470020847C0020F42F002003
:10467000047C002067970008FF43000838B5002538
:10468000DFF85C06046804E0E07F401EE077250068
:104690002468002C08D0E07F0028F5D12000246891
:1046A000290000F002F8F4E731BD2DE9F0410400E3
:1046B0000D000026002D606840688188002915D112
:1046C000676801686160142214F10801D7F804805A
:1046D0004046FFF7ABFA0121380000F052FE3800E7
:1046E000FDF7C1F886193800FDF789F8676809E019
:1046F0007868B84607684046FDF7B5F88619404621
:10470000FDF77DF8002FF3D12900200000F081F89B
:10471000DFF8D0050088801BDFF8C8150880B6B226
:104720003000BDE8F081F8B504000D00002600203F
:10473000002200210027DFF8A8351B680EE090F862
:104740001FC093F81FE0F44501D318001100D3F8FF
:1047500000C0BCF1000F00D01A001B68002B1FD056
:10476000D4F80CC0D3F814E0E6450BD1D4F810C04F
:10477000D3F818E0E64505D1B3F80CC0B4F804E06E
:10478000F44502D05FF0010C01E05FF0000CBCF1D9
:10479000000FDCD07F1C0028D1D118001100D6E713
:1047A000002802D0FFF781FF8619AE4201DA022FFE
:1047B000BDDA3000F2BD70B504000E000420FEF733
:1047C000E7F80500002D0DD131002000FFF7ABFF09
:1047D000B04203DB0420FEF7DBF80500002D01D119
:1047E000002015E0202100222800FFF75BFA0320BB
:1047F000E877DFF8EC0400682860DFF8E40405607F
:10480000142215F1080621003000FFF70FFA2800E6
:1048100070BD80B5DFF8C8241268824204D10168F7
:10482000DFF8BC24116001E002680A600100042086
:10483000FEF7C1F801BD2DE9F84305000C00002684
:104840000127D4F80490B9F80200FDF79BF980B273
:1048500099F8001011F00F01B0EB8108B9F80600CB
:10486000FDF790F9C004C00C80B2C100606800225E
:104870000260818018EB0101C1806A6808E0002EA7
:1048800004D0F2888B889A4200D000270A680E0074
:10489000002A24D051688388B1F804C0634529D226
:1048A0000260002E1AD08388B6F806C0634503D391
:1048B0008988C38899420FD22000FCF7D4FFDFF823
:1048C00024140988081ADFF81C1408802000FCF75B
:1048D00096FF0020BDE8F283346000E06C60002A9F
:1048E00012D1002E0FD03460F188828891420BD013
:1048F000002709E082888B889A42DDD08288CB88A5
:104900009A42BCD2D8E76C60A97FC9071DD5002F99
:1049100019D06968002904D0696849688988002924
:1049200001D000270FE00600026801E006000268DF
:10493000002A05D05068F18882889142F6D000277D
:10494000002F00D001683800C4E70020C2E72DE93D
:10495000F04705006E68307810F00F0080001428D2
:1049600005D02800FCF74BFF0020BDE8F087F08859
:10497000FDF708F9C004C00C80B2C7007088FDF7CD
:1049800001F980B2317811F00F01B0EB81082800F5
:10499000FCF769FF8146D34800881FFA89F919FAA4
:1049A00080F00B2810DB1FFA89F949463000FFF729
:1049B000BAFE002807D0CB4800881FFA89F919FAF7
:1049C00080F00B2800DBCCE7C548046800E02468D1
:1049D000002C10D0F0686169814209D13069A16969
:1049E000814205D1A089B188884201D1012000E02F
:1049F00000200028EBD0002C09D11FFA89F9494684
:104A00003000FFF7D8FE0400002C11D1A9E7F08890
:104A1000FDF7B8F8C0040BD1E089FDF7B3F8C00486
:104A200006D0142214F1080A31005046FFF7FEF8B0
:104A3000AC48008819EB0000AA490880B0798006CC
:104A400006D4A07F50F00100A07718EB0700A083E8
:104A500029002000FFF7EFFE002840D0A08B143083
:104A6000A08360684068076860684668142214F193
:104A700008013000FFF7DAF8A08BFDF783F87080AB
:104A80000020F0800020708165680AE07E687FF079
:104A900013013800FCF7A7FE39002800FCF7F2FEEE
:104AA0003768002FF2D18E480068844201D100217E
:104AB00008E08B48016800E00968002902D0086816
:104AC000A042F9D12000FFF7A4FE2800FCF7CBFE9E
:104AD00084490988081A83490880280045E700208E
:104AE00043E780B50520FDF753FF02BD80B5010007
:104AF0000520FDF760FF01BD10B5040060690028C6
:104B000002D06069FCF77BFE2000FFF7EFFF10BDCD
:104B10002DE9F64F85B004000598408D1438082122
:104B200090FBF1F0ADF80E001425002660680490AB
:104B3000DDF8108098F8000010F00F0080001428B5
:104B400002D07FF0050062E0B8F80600FDF71AF821
:104B5000C104C90CADF80C10800402D57FF005002B
:104B600055E020891438ADF808002FE00021BDF889
:104B70000C00C004C00C002901D150F4005080B2D8
:104B8000FDF700F8A8F80600BDF80A00143080B25E
:104B9000FCF7F8FFA8F802000020A8F80A00069A1F
:104BA00039000598059B5B6998473800FCF727FE9C
:104BB000BDF80800BDF80A10401AADF80800BDF8AD
:104BC0000C00BDF80E100818ADF80C00BDF8080078
:104BD000002800F08280BDF80800BDF80E10B0EB90
:104BE000C10F04DABDF80800ADF80A0005E0BDF811
:104BF0000E0080B2C000ADF80A000022142102208D
:104C0000FCF782FC0700002F04D15FF0FF3007B0F3
:104C1000BDE8F08F14220499D7F804804046FFF7CE
:104C200005F8D7F80480BDF80A9001E00025246853
:104C30001FFA89F9B9F1000F44D06089461B1FFAA9
:104C400089F9B6B2B14501D24E46FFE7B6B2002EA1
:104C5000ECD0FFF746FF8246BAF1000F03D13800CF
:104C6000FCF7CDFDD1E7300080B201906068ADB2B5
:104C70002818009053460222310089B20420FCF724
:104C8000F2FC8346BBF1000F06D15046FFF72EFF22
:104C90003800FCF7B4FDB8E72000FCF7EDFDCAF8DA
:104CA00014401148CAF8100059463800FCF7EAFDD4
:104CB000B9EB06091FFA89F9B9F1000FB8D0002540
:104CC0002468B5E775190598408D1438BDF80810AB
:104CD0008842FFF64BAF012149E7002097E700002B
:104CE000187F0020A27F0020F94A000870470020AA
:104CF000FFE7DFF8C81409884A1CDFF8C0341A80BF
:104D000089B24FF6FF72914204D14FF44041DFF86F
:104D1000AC241180DFF8A814096800E0C9680029F4
:104D20000CD04A8ADFF894341B889A42F6D1401C92
:104D300080B2B0F5804FDCDB002002E0DFF87C04BD
:104D400000887047D2B2002A16D0002812D002681C
:104D5000002A0FD0DFF86C24526912F1010F09D03C
:104D600000688A681040DFF85C2452698968114045
:104D700088420ED101200DE0002808D001680029EA
:104D800005D00068DFF83C144969884201D1012050
:104D900000E0002070472DE9F84F04000D000020CE
:104DA0006089082803DA2000FCF729FDB1E0D4F877
:104DB0000480DFF810040168DFF808044069FCF79C
:104DC0006DFE0600B8F80000FCF7DCFE0700B8F83E
:104DD0000200FCF7D7FE81465FF000085FF0000A92
:104DE0005FF0000BDFF8D803D0F8008002E0C24685
:104DF000D8F80C80B8F1000F35D0B8F812001FFABF
:104E000089F94845F3D13200D2B229004046FFF774
:104E100099FF0028EBD098F81000400703D4BBF1AD
:104E2000000F00D1C346B8F81400BFB2B842DED1BB
:104E3000D8F80400002806D0D8F80400DFF884135E
:104E400009698842D3D1BAF1000F0CD0D8F80C0010
:104E5000CAF80C00DFF868030068C8F80C00DFF837
:104E60006003C0F80080B8F1000F00D1D846B8F157
:104E7000000F01D0012008E06868DFF84813496995
:104E8000884201D1012000E00020C0B200283DD0BE
:104E90007FF007012000FCF7A6FC002803D02000CB
:104EA000FCF7ADFC35E0B8F1000F13D0D8F81800CE
:104EB00000280BD0BFB20097DFF80C332200414628
:104EC000D8F81C00D8F81840A04722E02000FCF7D2
:104ED00096FC1EE0F6B2002E14D1DFF8E802007D49
:104EE00010F0F000E0280DD0DFF8D802B0F90C0087
:104EF00010F1080109B22000FCF77BFC032120001F
:104F000000F038FA2000FCF77AFC02E02000FCF701
:104F100076FCBDE8F18F7CB5002801D0002A02D1D3
:104F20007FF0050019E0069C002807D00568002DD9
:104F300004D0057815F0F005E02D01D1251D07E01E
:104F400005686668B54202D07FF0050005E00500FF
:104F5000019500949BB200F001F876BD2DE9FE4367
:104F600004000D0016001F00002C01D0002E02D1FD
:104F70007FF0050059E0608A00280DD1628A210087
:104F8000200000F054F881464FFA89F9B9F1000F7A
:104F900002D0484640B248E008212800FCF723FC34
:104FA000002813D0002208210120FCF7ADFA80462A
:104FB000B8F1000F02D15FF0FF3036E028890028F9
:104FC00005D029004046FCF771FC00E0A846D8F85F
:104FD0000490608AFCF7D6FDA9F80000380080B282
:104FE000FCF7D0FDA9F802000020A9F80600B8F8E7
:104FF0000800FCF7C7FDA9F804001120A37A0A995C
:105000000291C0B20190607A0090DBB232000B993D
:105010004046FEF7DBFF8146A84504D04046FCF73A
:10502000EEFB5FF00008484640B2BDE8FE8370B575
:1050300004000E001000002E00D1644E002C01D0A0
:10504000002E02D17FF0050037E000255C49096899
:1050500000E0C968002902D08C42FAD1012580B253
:10506000002807D1FFF743FE80B2002815D17FF05A
:10507000070022E05249096800E0C96800290CD005
:105080008C42FAD04A8A80B28242F6D10A683368EA
:105090009A42F2D17FF007000FE0002E01D10021EB
:1050A00000E0316821606082EDB2002D04D14448F7
:1050B0000068E06042480460002070BD70B50400E4
:1050C0000D001600002C01D0002D02D17FF005004C
:1050D00027E0608A002809D1628A21002000FFF7BA
:1050E000A6FF40B2002801D040B21AE0002D01D145
:1050F000002000E028686060A682207C50F0040058
:1051000020742F48006800E0C068002803D0844263
:10511000FAD1002005E02A480068E06028480460D1
:10512000002070BD8161C261704780B52449096863
:10513000814205D122490968C968214A11600DE000
:105140001F49096800E0C968002907D0CA68002A19
:10515000F9D0CA688242F6D1C268CA600100002054
:10516000FDF729FC01BD10B50020FDF711FC04007E
:10517000002C06D0202100222000FEF793FDFF2006
:10518000A072200010BD10B4002813D00268002ABD
:1051900010D000290ED00A68002A0BD0084A1268E5
:1051A00006E013680468A34201D10B681360D2685B
:1051B000002AF6D110BC704700000000DA01002080
:1051C000987F0020A07E0020B07E002024BF000831
:1051D0002DE9F04784B004000D006448D0F8088041
:1051E00098F8000010F00F0000B2860036B2142EBE
:1051F00003DA2000FCF703FB16E060890428F8D3EB
:1052000060680078C0B20100002902D0082901D0EE
:1052100090E0A6E0564F5548007D10F0F000E028E1
:1052200004D12000FCF7EBFABDE8FF874F48016886
:105230004E484069FCF732FC0028F2D1208908284A
:10524000D7D3200001F0AAFB002803D02000FCF7F0
:10525000D6FAE9E716F10E0109B22000FCF7C3FA0D
:1052600000285CD000222089311889B20220FCF786
:105270004BF98146B9F1000FD3D0B9F80A0036B224
:1052800016F10801884203D24846FCF7B8FAC8E78D
:1052900036B2D9F804A0320041465046FEF7C6FCAB
:1052A00036B2714209B24846FCF79DFA002803D095
:1052B0004846FCF7A4FAB4E721004846FCF7FFFA99
:1052C000002803D04846FCF79AFAAAE72000FCF72A
:1052D00096FA4C46D4F80480310009B22000FCF75D
:1052E00082FA00281AD160683968C1601F490969CB
:1052F0000161002188F800100021A8F80210FF21A8
:10530000017200214181029501200190002000904E
:10531000FF23002239002000FEF743FE21E016F1B2
:105320000E0000B2414209B22000FCF75CFA0028EE
:10533000D0D076E7C0B2032813D0C0B20B2810D06B
:10534000C0B20C280DD0C0B204280AD0C0B20528C3
:1053500007D0C0B20D2804D0C0B20E2801D0C0B210
:1053600011282000FCF74BFA5EE70000A07E002029
:10537000B47E002080B50A00D2B2032100F008F804
:1053800001BD80B50A00D2B20B2100F001F801BDC9
:105390002DE9F04385B0070088469146002224217C
:1053A0000120FCF7B1F80400002C28D07E68656865
:1053B00085F8008085F801900020A8800020E88012
:1053C0001C227968606810F108073800FEF72EFC8F
:1053D000F068039003A8FEF799FC00280CD0002188
:1053E000698002900120019000200090FF2303AA11
:1053F00000212000FEF7D5FD2000FCF700FA05B0E3
:10540000BDE8F08378B4002400230024002237E0B4
:105410000825EDB212F00306F6B2B600B5402C43F3
:10542000DFF8E051960845F82640DFF8DC412468B3
:105430009C434D68ED0300D51C43DFF8CC512C6034
:10544000DFF8C84124689C434D68AD0300D51C4378
:10545000DFF8B8512C60DFF8B84124689C434D68F0
:10546000ED0200D51C43DFF8A8512C60694C24687C
:105470009C434D68AD0200D51C43664B1C60521C1A
:10548000102A80F0AA80012313FA02F40B6823404B
:10549000A342F4D14C68022C02D04C68122C15D1D6
:1054A000D40810EB8404246A0F2512F00706F6B224
:1054B000B600B540AC430D6912F00706F6B2B6006F
:1054C000B5402C43D50810EB85052C6204680325F4
:1054D0001600F6B27600B540AC430D7915F0030521
:1054E0001600F6B27600B5402C4304604C68012CDF
:1054F00008D04C68022C05D04C68112C02D04C68A6
:10550000122C17D1846803251600F6B27600B54038
:10551000AC43CD681600F6B27600B5402C438460EB
:10552000446801259540AC434D68C5F3001595408E
:105530002C434460C46803251600F6B27600B540DB
:10554000AC438D681600F6B27600B5402C43C460BB
:105550004C68E40093D5002400942F4C246854F444
:1055600080442D4D2C602C4C246814F4804400940D
:10557000009C244C950854F825400F2512F0030692
:10558000F6B2B600B540AC43244DA84201D1002587
:105590003FE7234DA84201D101253AE7214DA8421A
:1055A00001D1022535E7204DA84201D1032530E77E
:1055B0001E4DA84201D104252BE71D4DA84201D163
:1055C000052526E71B4DA84201D1062521E71A4DE6
:1055D000A8427FF41DAF07251BE771BC7047006927
:1055E00089B2084201D0012000E0002040B270479B
:1055F00052B2002A02D089B2816102E089B2090464
:105600008161704708380140003C0140043C014082
:10561000083C01400C3C014044380240000002407C
:105620000004024000080240000C0240001002404A
:105630000014024000180240001C024010F0070154
:10564000484800684FF6FF021040474A52EA0121DD
:10565000084344490860704742480068C0F302208C
:105660007047012110F01F029140404A40B24009AA
:1056700042F82010704740B2002808D509013C4A82
:1056800040B210F00F00801800F8041C03E009017C
:10569000384A40B28154704710B410F00700D0F17E
:1056A0000703052B01D3042301E0D0F10703041DF8
:1056B000072C01D2002000E0C01E012414FA03F3DD
:1056C0005B1E19408140012313FA00F0401E104078
:1056D000084310BC704780B5411EB1F1807F01D3F3
:1056E00001200EE0401E244908600F215FF0FF30CA
:1056F000FFF7C1FF0020214908600720204908600A
:10570000002002BD80B5FFF799FF01BD70B5040010
:105710000D0016000020FFF79FFF32002900FFF761
:10572000BBFF0100200040B2FFF7A5FF70BD80B5B0
:1057300040B2FFF796FF01BD80B5FFF7CCFF02BD79
:10574000042806D10E48006850F004000C49086097
:1057500005E00B48006830F0040009490860704714
:10576000000000000CED00E00000FA0500E100E0A0
:1057700018ED00E000E400E014E000E018E000E0D4
:1057800010E000E080B500F001F801BD70470000B6
:1057900080B50A00010089B2DFF8180300F063FD4C
:1057A000002802D05FF0FF3000E0002002BD80B58D
:1057B0000020009069460120FFF7EAFF69460120BA
:1057C000FFF7E6FF0098400701D4012039E0694661
:1057D0000020FFF7DDFF0098C00413D4009810F4F8
:1057E0000450B0F5045F01D102202AE00098800443
:1057F00001D5032025E00098C00501D5042020E054
:1058000005201EE069461F20FFF7C2FF0098C00474
:1058100001D4062015E0009810F01C00182801D1D2
:1058200002200EE0009810F01C00082801D103208F
:1058300007E0009810F01C00142801D1042000E0BB
:10584000052002BD80B5FEF7E9FC5FF48030994980
:10585000096841F21402505040209649096841F20B
:105860001402505001BD30B587B00400002500205F
:10587000002091480078012805D002280DD0052885
:1058800000F0AA80AFE002208B490870200001F0F0
:10589000DEFA8A4800F036F9A5E0874801788848A2
:1058A00000F030F9200002F070F9002865D00320E4
:1058B00081490870656800208249C87000208149CC
:1058C000887000207F49487002207E4908707D481A
:1058D000C07800907B4883787A484278794801788C
:1058E000794800F00FF9280E76494872280C75495E
:1058F0000872280A7349C871724885717148407AE4
:1059000000907048037A6F48C2796E4881796F4879
:1059100000F0F8F8A068010E6A4A5173010C694A58
:105920001173010A674AD172664988726548407BE3
:1059300000906448037B6348C27A6248817A644875
:1059400000F0E0F8E068010E5E4A5174010C5D4A17
:105950001174010A5B4AD1735A4988735948407CD3
:1059600000905848037C5748C27B5648817B594871
:1059700000F0C8F802F01CF92DE0606A807A052872
:1059800029DB04204C490870200001F089FD5248B1
:1059900060607FF07F40A0605048E060201DFCF711
:1059A000A3F8020042A101A802F010FB4C4800F04D
:1059B000A9F801A94B4800F0A5F80E20414948720A
:1059C000032040490872A8203E49C871C0203D49C3
:1059D000887102F0EDF806E0200001F061FD002082
:1059E00035490870FFE707B030BD10B5040000F07E
:1059F0008AFF3D490968401AB0F5FA7F06D300F0E6
:105A000082FF394908602000FFF72DFF10BD10B557
:105A1000040000F078FF35490968401A642806D36D
:105A200000F071FF314908602000FEF7FDFB10BD5A
:105A300000B587B002F0E4FA002005900020049041
:105A4000002003902A4802902A48019000200090EC
:105A500003AB04AA05A9284800F067F8264800F01F
:105A6000F5F8254800F008F80FF20D01224800F083
:105A70005BF907B000BD000080B590F83300400727
:105A80000CD51E4800F03EF81B4800F0EBF8012052
:105A900009490870184801F0DAF908E0164800F0E2
:105AA00002F9052004490870154800F02BF801BDE3
:105AB00025730000B87D0020AE7F002094BA000856
:105AC000C4BD0008B87E002034BB000808BC000834
:105AD00058BB00087CBB0008C0A8030EC0A8030187
:105AE00088BD000804BD0008087F00200C7F00204E
:105AF000EDAF000803460008407E0020D4BD00083A
:105B0000BCBA00080EB400B582B003A900910246E9
:105B10006B460121034878440A3002F07FFA06BC44
:105B20005DF810FB4162000070472DE9F041040070
:105B30000D0016001F00002060600020A060002003
:105B4000E060002084F833000421002214F12408CE
:105B50004046FEF7A7F8032084F828000020E06103
:105B6000069820623B48007884F83600394800786F
:105B7000401C38490870089820613B003200290019
:105B8000200000F00FF8200007998847002801D076
:105B9000002005E03048006820602F4804602000A5
:105BA000BDE8F081F8B504000D0016001F00002DBF
:105BB00002D0286800280CD12900200000F016F837
:105BC0003100200000F03BF83900200000F030F8F0
:105BD0000BE03100200000F032F83900200000F026
:105BE00027F82900200000F001F8F1BD38B50400C5
:105BF0000D00002D02D02868009002E018480068CF
:105C0000009000986168884211D06946201DFCF719
:105C10004BFE6946201DFFF7B6FA002D01D100208A
:105C200000E0286860600121200000F02EF831BDFE
:105C3000002901D1002100E00968C16070470029F6
:105C400001D1002100E009688160704703490860C4
:105C500070470000B17F00204C7F0020507F002063
:105C600024BF000880B590F83310C9070CD490F811
:105C7000331051F0010180F8331090F833104907C8
:105C800002D5032100F001F801BD80B5C90709D58F
:105C90004168002906D090F83310090702D5011D8C
:105CA00003F005FF01BD80B590F83310C9070BD58F
:105CB00090F8331011F0FE0180F8331090F8331093
:105CC000090701D503F048FC01BD10B5040094F8A4
:105CD0003300400716D494F8330050F0040084F8E1
:105CE0003300200001F0F7F894F83300C00703D523
:105CF00003212000FFF7C9FFE069002802D020003F
:105D0000E169884710BD80B590F8331049070AD57E
:105D100090F8331011F0FB0180F83310C1690029AD
:105D200001D0C169884701BD002800D0C16170471A
:105D30007CB50400002600200090DFF8440A00260D
:105D40000025002C01D101202AE194F8440000280C
:105D500005D1002084F845002000FEF799F90020C5
:105D60000190DFF8000B006850F48040DFF8F41A6F
:105D70000860DFF8F00A006810F480400190019894
:105D8000DFF8E40A006830F40000DFF8DC1A08608D
:105D9000DFF8D40A0068216A0843DFF8CC1A0860EB
:105DA000206810F58050006850F00100216811F55E
:105DB0008051086000F0A7FD0600206810F58050B3
:105DC0000068C0070DD500F09EFD801BB0F5FA7F7E
:105DD000F3D9032084F84400002084F84500032010
:105DE000DEE02068066936F01C0604F084F9DFF86E
:105DF0007C1A411ADFF8782A914202D256F008063E
:105E00001CE0DFF8701A411ADFF86C2A914202D2C6
:105E100056F00C0612E0DFF86819411ADFF85C2A28
:105E200091420BD3DFF8581A401ADFF8581A88420B
:105E300002D256F0040601E056F010062068066112
:105E40004FF400420021200000F04EFA002809D053
:105E500001252900200000F044FB012084F84400C3
:105E600001209DE0FF2000F051FD6068002873D004
:105E700000F049FD06006A460121200000F0F3F918
:105E800000F041FD801B41F2893188420CD301258D
:105E90002900200000F025FB012084F844000020A8
:105EA00084F8450003207BE000984007E3D54FF4D9
:105EB00080520021200000F017FA002809D00125A7
:105EC0002900200000F00DFB012084F8440001208F
:105ED00066E000F018FD06006A460121200000F08F
:105EE000C2F900F010FD801B41F2893188420CD3C9
:105EF00001252900200000F0F4FA012084F8440074
:105F0000002084F8450003204AE000988006E3D58D
:105F10006A461021200000F0A6F9002809D00125CA
:105F20002900200000F0DDFA012084F8440001205F
:105F300036E00098400703D54FF40060E06001E0D0
:105F40000020E0600098800702D50020A0601FE0DC
:105F50004FF48040A0601BE0E068C00880B2A168F8
:105F6000490889B251EA00020021200000F0BCF982
:105F7000002809D001252900200000F0B2FA0120F4
:105F800084F8440001200BE040F6FF7000F0BEFCF6
:105F90002900200000F0A5FA012084F84400002028
:105FA00076BD70B4002490F94540012C01D1022047
:105FB00030E0012480F84540022480F84440C1626A
:105FC000002401E0E960641C9C4218D211EB4415E6
:105FD0005FF480162E6040F2F45606FB0426AE6095
:105FE000C669002E03D12E6856F440062E605E1E50
:105FF000B442E7D211EB44162036EE60E3E70268C4
:1060000041F210039950012180F84410002180F8DA
:106010004510002070BC704770B4002490F94540D2
:10602000012C01D1022033E0012480F845400224F4
:1060300080F844408162002401E0E960641C9C42D5
:106040001BD211EB44155FF000462E6044F2F4566B
:106050006E6040F2F45606FB0426AE608669012E9F
:1060600003D16E68760076086E605E1EB442E4D29C
:1060700011EB44162036EE60E0E7026841F20C03B3
:106080009950012180F84410002180F8451000202B
:1060900070BC704730B400220024002390F94520E2
:1060A000012A01D102208DE0012280F84520022240
:1060B00080F84420002907D1012180F844100021F4
:1060C00080F8451001207DE0C26A1268002A07D5D9
:1060D000122180F84410002180F84510012071E061
:1060E00040F2F55291420DD340F2F452B1FBF2F27C
:1060F00040F2F453B1FBF3F403FB1413002B02D072
:10610000521C00E00122012A13D1C26A126852F027
:106110004052C36A1A60C904C90CC26A5160C16A9C
:10612000096851F00041C26A1160C16AC968C16260
:1061300031E000232DE0C46A246834F04054C56A7D
:106140002C60002B05D1C46A246854F08054C56AC1
:106150002C6040F2F454C56A6C60541EA3420ED108
:10616000C46A246854F00054C56A2C60541E40F27E
:10617000F45505FB1414E404E40CC56A6C60C46AAD
:10618000246854F00044C56A2C60C46AE468C462A0
:106190005B1C9342CFD3016841F214025158490766
:1061A00009D50421026841F21403995000210268C4
:1061B00041F204039950012180F84410002180F835
:1061C0004510002030BC7047002190F9451001298E
:1061D00001D1022046E0012180F84510022180F81B
:1061E0004410816A0968002935D4816A0968C905A3
:1061F0001DD5816B491C8163816B012901D1816AA5
:106200000163816A4163816A0968C1F30D41091F15
:10621000C163016B89680164816AC9688162012177
:1062200080F84410002180F8451000201AE0816AAF
:106230000968890509D5816A01630021416301214B
:106240008163816AC968816205E0816B491C816351
:10625000816AC9688162012180F84410002180F8B8
:10626000451001207047F8B50400150000260027EE
:1062700094F84400822801D1022034E0822084F87E
:1062800044002068066916F01C06208AC00210F43B
:106290007840064389B2880110F4F860064336F06E
:1062A000020656F001062068066100F02CFB07008C
:1062B00001E020680669F0070DD500F024FBC01B43
:1062C000B0F5803FF5D3012084F84400002084F825
:1062D0004500032007E02068406980B22860012063
:1062E00084F844000020F2BD70B5040000250026AB
:1062F00094F84400422801D1022033E0422084F87F
:1063000044002068056915F01C05208AC00210F4BD
:106310007840054389B2880110F4F860054355F0D0
:10632000020555F0010592B22068426120680561BE
:1063300000F0E9FA060001E020680569E8070DD5DC
:1063400000F0E1FA801BB0F5803FF5D3012084F81E
:106350004400002084F84500032003E0012084F875
:106360004400002070BD10B5040094F945000128D8
:1063700001D102201BE0012084F84500022084F8AE
:106380004400200000F0FEF9200000F010FA200088
:1063900000F038FA200000F01FFA200000F027FA81
:1063A000012084F84400002084F84500002010BD3E
:1063B00070B504000D00002694F94500012801D1B4
:1063C00002208DE0012084F84500022084F844007A
:1063D000002D6DD020680668DFF8AC040640286800
:1063E00069680843A9680843E9680843A168084345
:1063F0002969084369690843E1680843A9690843B2
:10640000E9690843296A0843696A0843A96A084395
:1064100006432068066020680668012000F076FACE
:1064200020680660E86A296B0843696B0843A96B1A
:106430000843E96B0843296C0843696C0843A96C5D
:1064400008432168486020684668012000F05EFA31
:1064500020684660E86C21688860286D2168C86003
:10646000206886694FF641700640686DA96D51EA53
:106470000040E96D0843296E0843696E0843A96E20
:10648000084306432068866120688669012000F081
:106490003DFA20688661E86E296F08432168C8616B
:1064A0002068C669012000F031FA2068C66110E05A
:1064B0002068066836F49046A068E1680843064301
:1064C0002068066020680668012000F01FFA206836
:1064D0000660012084F84400002084F84500002074
:1064E00070BD30B5ADB004000025002905D04FF4D3
:1064F0000060E0604FF48040A06000201090002019
:106500001190002012900020139000201490002081
:106510001590E069002803D14FF48060169001E0E7
:10652000002016904FF40070179000201890002063
:10653000199000201A9000201B9000201C904020F1
:106540001D9000201E9000201F9000202090002011
:1065500021900020229000202390002024900020F1
:106560002590802026900020279000202890002051
:10657000299000202A9000202B9000202C90206849
:106580000568C148054010981199084312990843BD
:1065900013990843A16808431499084315990843BF
:1065A000E168084316990843179908431899084366
:1065B000199908431A990843054320680560206823
:1065C0000568012000F0A2F9206805601B981C995D
:1065D00008431D9908431E9908431F9908432099B1
:1065E000084321990843229908432168486020689C
:1065F0004568012000F08AF92068456023982168E9
:10660000886024982168C860206885694FF64170C9
:1066100005402598269951EA004027990843289972
:106620000843299908432A9908430543206885614E
:1066300020688569012000F069F9206885612B9840
:106640002C9908432168C8612068C569012000F0C1
:106650005DF92068C561002000905FF00070019036
:10666000002002905FF400100390002004900020AE
:1066700005900020069000200790042008905FF00D
:10668000007009905FF480300A905FF480000B90F6
:106690004FF400500C9080200D9000200E900020B0
:1066A0000F90206841F218010D5878480540009875
:1066B0000199084302990843039908430499084340
:1066C0000599084306990843079908430899084320
:1066D0000543206841F218010D50206841F218016D
:1066E0000D58012000F012F9206841F218010D50F8
:1066F00009980A9908430B9908430C9908430D9986
:1067000008430E9950EA81000F99084350F40000A5
:10671000216811F580510860206810F580500568E7
:10672000012000F0F3F8206810F580500560A069A2
:1067300001280BD1206841F21C01085840F4803038
:1067400050F04000216841F21C0250506269002163
:10675000200000F002F82DB030BD5079137953EAD3
:1067600000204B4B5850D07893781B0453EA0060BC
:10677000537850EA032012781043464A505070472D
:106780000087930310B582B00400002000902068B9
:10679000006850F0080021680860206800680090D8
:1067A000012000F04CF800982168086013BD10B576
:1067B00082B00400002000902068006850F00400BF
:1067C00021680860206800680090012000F037F818
:1067D00000982168086013BD016841F21802515801
:1067E00051F40051006841F21802115070470168DD
:1067F00041F21802515851F00201006841F21802AA
:106800001150704710B582B004000020009020683D
:1068100041F21801085850F48010216841F2180222
:106820005050206841F2180108580090012000F0F3
:1068300006F80098216841F21802505013BD81B04B
:1068400015490968C9084FF47A72B1FBF2F148435F
:10685000009000BF0098411E00910028F9D101B0BE
:10686000704700004438024004380140002D3101D7
:10687000C0E1E400C00E160240787D01005A6202B9
:1068800000E1F50580F0FA020F8120FF233FDEF8DA
:1068900040800240448002400400002080B523482C
:1068A000006850F40070214908602048006850F4E6
:1068B00080601E4908601D48006850F480701B49C4
:1068C00008600320FEF71EFF002000F004F803F02C
:1068D00059FC002002BD10B50400154800684FF4B3
:1068E0007A71B0FBF1F0FEF727FF002221005FF084
:1068F000FF30FEF70BFF002010BD0E480068401C63
:106900000C49086070470B480068704731B5FFF7C5
:10691000FAFF0400009D15F1010F00D06D1CFFF778
:10692000F2FF001BA842FAD331BD0000003C024038
:1069300004000020547F002018B40022ADF800208D
:10694000002210F00103002B06D0012904DB04789B
:106950008DF80140401C491E04E0048812FA84F2BC
:10696000801C891E0229F8DA012902DB00788DF8E3
:106970000000BDF8000012FA80F2100C10FA82F24A
:10698000100C10FA82F2002B04D0D0B2C2F307210F
:1069900051EA0022100080B212BC704770B50500A9
:1069A0000026002418E069896868FFF7C5FF16FA19
:1069B00080F6300C10FA86F66889022190FBF1F21D
:1069C00002FB1102002A06D0D4F10104F0B2C6F392
:1069D000072151EA00262D68002DE4D1E4B2002CF5
:1069E00004D0F0B2C6F3072151EA0026F04380B28A
:1069F00070BD000080B5DFF88C0A007800282ED129
:106A0000FEF7B1FBDFF8801A0860DFF87C0A006847
:106A1000002802D15FF0FF3029E0DFF86C0A00683F
:106A2000007A50F02000DFF8601A096808724422EA
:106A3000DFF8581ADFF8500A0068FEF7F8FA432228
:106A4000DFF8481ADFF8400A0068FEF737FB00223B
:106A5000DFF83C1ADFF8300A0068FEF763FBDFF866
:106A6000240A0078401CDFF81C1A0870002002BDC0
:106A700080B5DFF8100A0078401EDFF8081A0870A9
:106A8000DFF8000A0078002808D1DFF8FC09006868
:106A9000FEF74BFB0020DFF8F019086001BD10B5D0
:106AA0000400606A0C2100F00DFDDFF8E039DFF82A
:106AB000DC29DFF8D8192000FFF774F8200000F077
:106AC0007BFA10BD38B505006C6A0821200000F083
:106AD000F9FC002214F12801280002F0CBFEA07A74
:106AE000FF2802D0A07A401CA0724FF4FA7080B246
:106AF00000F2F3104FF4FA7190FBF1F0E08231BD37
:106B000038B50400656ADFF8AC0A807800280BD03D
:106B1000DFF880098068FBF73CF8686269680869FB
:106B2000A862200000F001F831BDF0B583B0060086
:106B3000746A0121200000F0C5FC0322210030000E
:106B400000F037FF05006DB2002D4CD10222392133
:106B5000200000F0C1FC718D200000F0D9FC04225F
:106B60003221200000F0B8FCA06AFBF712F8010007
:106B7000200000F0E2FC04223621200000F0ACFCF2
:106B8000606AFBF706F80100200000F0D6FC042242
:106B90003721200000F0A0FC002707E0DFF8F8080C
:106BA000FFB2395C200000F0AAFC7F1CFFB2042F6A
:106BB000F4D3200000F0C9FFA08A10F1F00189B2DF
:106BC000E068FAF78AFDDFF8C408019000964323D5
:106BD000DFF8C828E168DFF8B0080068FEF7BEF902
:106BE000200000F0A3FFA07AFF2802D0A07A401C6A
:106BF000A072A07A062804DA012094F90A108840CD
:106C000000E03C204FF47A7110FB01F080B200F2FA
:106C1000F3104FF4FA7190FBF1F0E082280040B2DB
:106C2000FEBD10B5DFF8780C04680CE0818B0029FC
:106C300008D0818B4A1E828389B2012902D12000AB
:106C400000F07EF82468002C23D0606A0028F9D078
:106C5000417A0029F6D0418C00290DD0018C491CC5
:106C60000184018C428C914206D1200000F0AEFBE1
:106C7000200000F0A1F9E5E7C18B0029D6D0C18B37
:106C80004A1EC28389B20129D0D1200000F075F8D4
:106C9000D8E710BD10B5DFF8080C046809E0C18A18
:106CA000012905D1C18A491EC182200000F00EF8D9
:106CB0002468002C09D0606A0028F9D0C18A022912
:106CC000EDDBC18A491EC182F2E710BD10B5040098
:106CD000606A417A0C2902D0417A062903D120004A
:106CE00000F06AF92BE0417A01290DD1807A06285B
:106CF00003DA2000FFF719FF21E0200000F066FB17
:106D0000200000F059F91AE0417A08290AD1807A66
:106D1000022803DA2000FFF7D5FE10E0200000F083
:106D2000B2F90CE0417A032909D1807A022803DA0A
:106D3000200000F0E3FA02E0200000F03DF910BD71
:106D400010B5446A617A012905D0617A0A2902D016
:106D5000617A052910D100F01AFA608B218C401A53
:106D6000022190FBF1F0012806DB608B218C401A98
:106D7000022190FBF1F0A08310BD10B5446A617A46
:106D8000012908D0617A0A2905D0617A052902D043
:106D9000617A042910D100F056FA608C218C401AD7
:106DA000022190FBF1F0012806DB608C218C401A57
:106DB000022190FBF1F0E08310BD10B5446A002081
:106DC000E06200202063DFF8EC07C078002803D0E1
:106DD000DFF8C006C0686063DFF8D80700790028D4
:106DE00004D0DFF8B0060069A06302E0606B4008E1
:106DF000A063DFF8C0074079002804D0DFF89406CC
:106E00004069E06304E0606B07214843C008E06329
:106E100061680869A062DFF89C078079002808D0C3
:106E2000DFF870068069FAF7B4FEE0620120E072D4
:106E300001E00020E072DFF87C07C079002805D06F
:106E4000DFF85006C069FAF7A4FE206310BD38B51C
:106E50000400002C02D17FF00F003BE094F83300D7
:106E6000C00702D47FF00F0034E0656A608DB0F592
:106E7000107F02DA5FF0FF302CE0002D0AD14020B5
:106E8000FCF75CFE0500002D02D15FF0FF3021E031
:106E9000656204E0287A002801D0FFF7E9FD40216F
:106EA00000222800FCF7FEFEFFF7A4FD002802D018
:106EB0005FF0FF300EE001202872200000F07CF827
:106EC00040B2002805D0200000F0EAFA5FF0FF3061
:106ED00000E040B232BD80B5416A002911D04A7A43
:106EE000002A09D0D21E022A01D9D21F05D10022C0
:106EF0008A7200F003FA04E003E000228A7200F0D4
:106F00005BF801BD80B500280BD0426A002A08D08A
:106F1000537A082B05D10968926A914201D100F099
:106F200001F801BD7CB50600746A00250C21200023
:106F300000F0C8FA04222100300000F03AFD0500FC
:106F40006DB2002D25D104223221200000F0C4FAB8
:106F5000A06AFAF71EFE0100200000F0EEFA200001
:106F600000F0F3FDA08A10F1F00189B2E068FAF7B1
:106F7000B4FBDFF81805019000964323DFF81C25C9
:106F8000E168DFF804050068FDF7E8FF200000F085
:106F9000CDFDA07AFF2802D0A07A401CA07242F258
:106FA000107080B200F2F3104FF4FA7190FBF1F020
:106FB000E082280040B276BDF0B583B00600746A66
:106FC00000250020A0620621200000F07BFA0122AB
:106FD0002100300000F0EDFC05006DB2002D34D131
:106FE00002223921200000F077FA718D200000F094
:106FF0008FFA04223721200000F06EFA002707E004
:10700000DFF89404FFB2395C200000F078FA7F1CAE
:10701000FFB2042FF4D3200000F097FDA08A10F1F6
:10702000F00189B2E068FAF758FBDFF860040190DC
:1070300000964323DFF86424E168DFF84C0400681D
:10704000FDF78CFF200000F071FDA07AFF2802D030
:10705000A07A401CA072A07A062804DA012094F9D4
:107060000A10884000E03C204FF47A7110FB01F0D8
:1070700080B200F2F3104FF4FA7190FBF1F0E0826D
:10708000280040B2FEBD30B583B00400002C7DD096
:10709000656A002D7AD000202884686B10F1010FFA
:1070A0000FD0686B1E303C21B0FBF1F0B0F5803F93
:1070B00001D34FF6FF706884688C002801D101204D
:1070C0006884A86B10F1010F11D0A86B1E303C2111
:1070D000B0FBF1F0B0F5803F01D34FF6FF7028838D
:1070E000288B002801D101202883288BA883E86BF6
:1070F00010F1010F11D0E86B1E303C21B0FBF1F014
:10710000B0F5803F01D34FF6FF706883688B00288D
:1071100001D101206883688BE883288B698B8842C2
:1071200004D3688B002801D000202883E87A002847
:1071300002D0E86A019011E095F82800C0B28028DA
:1071400002DAFF20019009E0C0B2C02803DB7FF023
:107150007F40019002E04FF6FF700190286B009095
:107160000098002807D1A86A01990840009000986B
:1071700050F0807000900A21280000F0A3F96B46BF
:1071800001AA15F128012000FEF70CFD37BDF8B566
:107190000600746A0521200000F094F90322210002
:1071A000300000F006FC05006DB2002D2FD1022248
:1071B0003921200000F090F9718D200000F0A8F92D
:1071C00004223721200000F087F9002706E0B248AA
:1071D000FFB2395C200000F092F97F1CFFB2042F4F
:1071E000F5D3200000F0B1FCA08A10F1F00189B2C3
:1071F000E068FAF772FA0096432314F12402E1687A
:10720000A1480068FDF787FE200000F08FFCA07AFF
:10721000FF2802D0A07A401CA072A07A0A2805DAC2
:10722000A07A4FF4FA6110FB01F001E044F620600F
:1072300080B200F2F3104FF4FA7190FBF1F0E082AB
:10724000280040B2F2BDF8B50600746A042120009F
:1072500000F038F903222100300000F0AAFB0500FD
:107260006DB2002D2ED102223921200000F034F918
:10727000718D200000F04CF904223721200000F02D
:107280002BF9002706E08448FFB2395C200000F0AB
:1072900036F97F1CFFB2042FF5D3200000F055FC17
:1072A000A08A10F1F00189B2E068FAF716FA0096A8
:1072B00043237A4AE16874480068FDF72CFE2000F9
:1072C00000F034FCA07AFF2802D0A07A401CA07203
:1072D000A07A0A2805DAA07A4FF47A7110FB01F03F
:1072E00001E042F2107080B200F2F3104FF4FA7134
:1072F00090FBF1F0E082280040B2F2BDF8B5060044
:10730000746A0321200000F0DDF803222100300020
:1073100000F04FFB05006DB2002D3BD10222392158
:10732000200000F0D9F84FF41071200000F0F0F8C0
:1073300004223221200000F0CFF8A06AFAF729FCDD
:107340000100200000F0F9F804223721200000F0AD
:10735000C3F8002706E05048FFB2395C200000F077
:10736000CEF87F1CFFB2042FF5D3200000F0EDFB18
:10737000A08A10F1F00189B2E068FAF7AEF9009640
:107380004323464AE16840480068FDF7C4FD2000F9
:1073900000F0CCFBA07AFF2802D0A07A401CA0729B
:1073A000A07A0A2805DAA07A4FF47A7110FB01F06E
:1073B00001E042F2107080B200F2F3104FF4FA7163
:1073C00090FBF1F0E082280040B2F2BD7CB50400F1
:1073D000656A002D02D17FF00F0051E0686A0190CC
:1073E000200000F0D2FB06000021280000F06AF81F
:1073F000002068620020A8620020E8620020286364
:107400000020E863A8636863002068842884E88318
:10741000A883F6B2002E01D1002031E00722290016
:10742000200000F0C6FA060076B2002E20D1042219
:107430003621280000F050F80198FAF7AAFB010065
:10744000280000F07AF8280000F07FFBA88A10F1ED
:10745000F00189B2E868FAF740F90094432301AAE1
:10746000E96809480068FDF756FD280000F05EFB5A
:10747000064B064A05492000FEF794FB300040B257
:1074800076BD0000AF7F0020107F002024BF0008E1
:10749000A5780008787E00200000002028BF0008A2
:1074A00010B500280DD0446A002C0AD0002120001D
:1074B00000F008F8207A002803D0FFF7D9FA00205E
:1074C000207210BD427AC9B2914204D041720021AB
:1074D00081720021C182704710B4838A5C1C84824F
:1074E00004699BB21B1983F8F010818A4B1C8382BC
:1074F000006989B2081880F8F02010BC7047828AB1
:10750000531C8382006992B2101880F8F010704703
:1075100010B4828A531C838289B20B0A046992B226
:10752000121982F8F030828A531C8382006992B269
:10753000101880F8F01010BC704710B4828A531CE9
:1075400083820B0E046992B2121982F8F030828A9B
:10755000531C83820B0C046992B2121982F8F0302A
:10756000828A531C83820B0A046992B2121982F830
:10757000F030828A531C8382006992B2101880F81E
:10758000F01010BC704700002DE9F24F84B00500E8
:107590000020029000240A2001900022054E01994B
:1075A0003000FCF77FFB049840892C2804D27FF040
:1075B000010071E1EC7E0020049840686860F026CC
:1075C0000498078903E0002002906C26EC27049DB4
:1075D00004E06889361A68893F1A2D68002D03D0A7
:1075E0006889B6B28642F4D2002D02D17FF0010044
:1075F00052E16868019002E02D6868680190002DF2
:1076000000F028810198B6B2305CFF2800F022819A
:10761000B6B2BFB2BE4280F01D810198B6B2305CF6
:107620005FF000095FF0FF3816F1020AB6B2711C74
:107630006A89914204DA0199B6B27118497807E073
:107640002968002903D029684968097800E00021E9
:107650008946C0B2002812D0012814D003281BD0BC
:10766000062826D0332841D0342848D035284FD09A
:10767000362856D03A285DD03B2864D06CE00021F3
:107680008946761E6AE0C9B2042902D07FF005005F
:1076900002E15FF0060861E05FF00409C9B25FFA39
:1076A00089F9494502D27FF00500F5E05FF007084F
:1076B00054E0C9B2042091FBF0F202FB1012002A40
:1076C00002D07FF00500E7E0C9B2082901DA894657
:1076D00001E05FF00809C9B25FFA89F9494502D2B1
:1076E0007FF00500D8E05FF0080837E0C9B2042950
:1076F00002D07FF00500CFE05FF003082EE0C9B2B2
:10770000012902D07FF00500C6E05FF0000825E007
:10771000C9B2012902D07FF00500BDE05FF0010889
:107720001CE0C9B2042902D07FF00500B4E05FF08C
:10773000020813E0C9B2042902D07FF00500ABE0D3
:107740005FF004080AE0C9B2042902D07FF0050006
:10775000A2E05FF0050801E05FF00009C9B2881CF3
:1077600086195FFA89F9B9F1000F62D00020009004
:1077700011E00120DFF8A01308F801000098FAF7E3
:1077800008FADFF8981341F82800B9F104091AF152
:10779000040A18F10108DFF8800318F80000002837
:1077A00047D15FFA89F9B9F1040F03DA5FFA89F971
:1077B000CB4601E05FF0040B53469BB25A4692B2AF
:1077C00069462800FAF7DCF81FFA8BFB584502D00F
:1077D0007FF0010060E05FFA89F9B9F1050F0BDB7A
:1077E0005FFA89F9042099FBF0F101FB109100295F
:1077F000BFD07FF005004FE05FFA89F9B9F1040FBF
:1078000004D10098FAF7C5F900900AE05FFA89F907
:10781000B9F1010F02D07FF005003DE09DF80000B6
:1078200000900120BC4908F801000098BB4941F8CC
:1078300028006889B6B28642FFF4E1AE6889361A3C
:1078400068893F1AB6B2BFB2BE4203D2BFB2002FA0
:107850007FF4D2AEB0480078002812D0AF4800685C
:107860000021AD4A1170012802D10120029008E0E8
:10787000022801D1012404E0032802D101240120BF
:107880000290029800287FF49EAE002C03D00024C2
:107890002C266C279BE6002005B0BDE8F08F000089
:1078A0004C7F002070B514009D484668756A616879
:1078B000002D02D0287A002800D172E060892C289F
:1078C0006FDB087802286CD1002000E0401C96F89D
:1078D0002C20C0B290420FD2C0B206280CD2C0B247
:1078E000102809D2C0B2821992F82D20C0B24318D4
:1078F0001B7F9A42EAD054E04868FAF74AF92968AF
:1079000088424ED121002800FFF73EFE002848D1D2
:1079100081484078002844D080484068C0B205289B
:1079200021D1687A01280ED13000FFF746FA96F887
:107930003300000703D53000FFF7C4F831E0300012
:10794000FFF7A1FB2DE0687A032805D0687A0428A8
:1079500002D0687A052824D13000FFF72EFA3000D3
:10796000FFF791FB1DE0C0B206280FD1697A032909
:1079700008D0697A012905D0697A042902D0697A88
:10798000052903D13000FFF78AF80AE0C0B20228C7
:1079900007D1687A062804D10020E8823000FFF77A
:1079A000AFF8002D01D0002068602000F9F727FF14
:1079B00070BD70B504000D001600002C02D17FF0E0
:1079C0000F00A7E0002D02D17FF00500A2E0002209
:1079D0004FF49A710020F9F797FDE860E8680028F5
:1079E00002D15FF0FF3095E0F6B2032E09D0A87AFD
:1079F000002803D102F0FEFB4A49086049480068AC
:107A00002860E86840682861012029690870012021
:107A10002969487094F82C00296988700020296928
:107A2000C8702868FAF7B5F8296948600020296904
:107A3000088100202969488128690021C160F6B2C7
:107A4000082E0ED0F6B2042E0BD0F6B2072E08D0B8
:107A5000F6B2032E08D1687A052802D0687A042885
:107A600002D128696168C160286900210161286923
:107A700000214161286900218161002005E0002189
:107A80002A6980B282181177401C80B210280DD26A
:107A900094F82C1080B289B28842F0D280B20628C5
:107AA000EDD280B2011991F82D10E9E7002006E02F
:107AB00000212A6980B2821882F82C10401C80B202
:107AC0004028F5D3002006E000212A6980B2821800
:107AD00082F86C10401C80B28028F5D328691249C6
:107AE000C0F8EC100020A882002005E0296980B2CF
:107AF000411881F8F000401C80B24428F6D30122DE
:107B000035212800FFF7E8FC3100C9B22800FFF753
:107B1000F6FC002070BD0000EC7E0020787E002086
:107B2000A07E0020147F00206382536310B5040000
:107B3000002C09D0E068002802D0E068F9F75FFE69
:107B40000020E0600020206110BD00281CD0818A48
:107B50004A1C8282FF22036989B2C91881F8F02089
:107B600008E0818A4A1C82820022036989B2C9180E
:107B700081F8F020818A442903D3017D0322114238
:107B800002D0818A4429ECD3704700280ED0416A84
:107B900000290BD0406A417A0A2902D0407A052890
:107BA00001D1012000E00020C0B200E000207047B9
:107BB00038B50024B349B44802F018FCFAF7C6FD02
:107BC0000500002D33D0B148FDF79CFF0020B049DF
:107BD000087040F2D242AF492800FAF775F940B276
:107BE000002822D1AC48FDF78DFFFF212800FAF7CD
:107BF000CEF90FF2FD01FAF7BFFDA848FDF782FFAD
:107C0000A748407A0090A648037AA548C279A448BC
:107C10008179A448FDF776FF40F2D241A248FDF7F2
:107C200071FFA248FDF76EFF2FE001242DE0012433
:107C30002BE09F48FCF7D1FCFBF757FE924802F07F
:107C4000DFFB0021904802F026FC002809D099486B
:107C5000FDF758FF280000F01CF801218A4802F0C7
:107C60001AFC8B480078012809D100208849087047
:107C70000021280000F088F98F48FDF743FF8C4869
:107C8000FDF7C5FE8A48FDF7B0FEE4B2002CD0D067
:107C900031BD38B504002569002D21D08748006822
:107CA00002F002FC0100032289B20020F9F72CFC4B
:107CB000A8608248006802F0F7FB020092B27F4899
:107CC0000168A868F9F7AAFE2900200000F01FF952
:107CD000A868002802D0A868F9F791FD002004E008
:107CE0002000FAF7ECF87FF00C0040B232BD000043
:107CF00010B582B00C0001212000FAF746FC0C20E0
:107D0000FBF71CFF01006E480160002936D00120FE
:107D100008704C6000204870002088602000FAF74E
:107D20001AFD0FF269012000FAF719FD0FF2A511F3
:107D30002000FAF71CFD01220FF2A5112000FAF72E
:107D400023FD60685F4908706068000A5D494870FB
:107D50006068000C5B4988706068000E5949C87003
:107D60005848C0780090574883785648427855481C
:107D700001785548FDF7C6FE002004E0200000F021
:107D800003F95FF0FF3040B216BD00002DE9F0416D
:107D900007000C00160098460025002E0BD103208A
:107DA0003870B868002803D13900200000F0ECF8E2
:107DB0005FF0000862E04FFA88F8B8F1000F07D0D2
:107DC000002E04D00020B8603000F9F718FD55E00F
:107DD0003878012838D1002E33D0642100223B4F5F
:107DE0003800FBF75FFF370000E03F68002F1FD02F
:107DF000D5F164007989884209D2D5F164027968A5
:107E0000324815EB00084046FBF710FF07E07A897F
:107E100079682E4815EB00084046FBF707FF2B4911
:107E20002B48FDF76FFE788915FA80F5652DDCD3B8
:107E300031892000FAF726F93000F9F7E0FC5FF00D
:107E400000085FF0000819E0387803280BD1318969
:107E50002000FAF717F90020B8603000F9F7CFFCDE
:107E60005FF000080AE031892000FAF70BF90020E2
:107E7000B8603000F9F7C3FC5FF00008404640B23C
:107E8000BDE8F081CDA30008F87E002034BE0008D4
:107E9000B57F002024BF000844BE000854BE00087F
:107EA000B87E0020A4BC0008B0BD000824BA0008B9
:107EB000407E002034BD000864BE00080C00002095
:107EC0006C7F0020707F002048BC0008047D0020EB
:107ED0004CBD000880B5002801D0FBF7A1FD01BD15
:107EE00080B50A0000280BD08168002906D10178EE
:107EF000032903D10100100000F046F8002004E03F
:107F00001000F9F7DCFF7FF00C0040B202BD2DE954
:107F1000F04104000D00002714E0B6F80A80306834
:107F2000A860A868002802D0A868F9F7A5FC30006E
:107F3000F9F765FCC0B20028F9D0414689B22000AB
:107F4000FAF7A0F87FB2002F1CD1A868002819D03A
:107F5000B4F86000A9684989884213D3AE68012348
:107F6000728971682000FAF76CFE07007FB2002F5B
:107F7000D3D07FB217F1010FE4D1AE602000FBF740
:107F800020F9DFE7BDE8F08138B504000D000021DD
:107F90002000FAF7E0FB00212000FAF7E4FB0021C3
:107FA0002000FAF7DCFB00212000FAF7E0FB0022BA
:107FB00000212000FAF7E8FB002D02D02800FBF793
:107FC0002FFD2000F9F701FF31BD00000CB41CB5F6
:107FD000044604A801900A46009401AB694607488C
:107FE0007844183000F01AF8009A00211170002827
:107FF0005CBF0098001B16BC5DF80CFBAF9BFFFF3D
:1080000080B5FBF7E6FCFAF7AAFCFDF78DFDFCF75F
:108010006DFEF9F7CFFDFBF7F6FB01BD2DE9F04F43
:1080200080460FF23060A5B015461E46D0E9002309
:10803000CDE91223002004910D900DF1500A6FF04C
:10804000004900E065190020ADF8020012AB4FF0C6
:10805000FF3229460DF1020002F041FA0446012CDC
:1080600004DA2878441EA441E443E40FBDF802007A
:1080700025280CBFA4F1010BA346BBF1010F0EDBB9
:108080002F4617F8011B0498C0470028049000F001
:10809000F3800D98401CBBF1010B0D90F1D1BDF8A0
:1080A0000200252807D100200790089009900A9027
:1080B0000B900C9005E00028C4D10D98D2E240F05E
:1080C000010015F8011F2029F9D023290DD02B29F3
:1080D00004D02D2906D030290AD00CE040F002004F
:1080E00080B2EEE740F00400FAE740F00800F7E75E
:1080F00040F01000F4E72A290ED13168316051F8C0
:10810000042B3160002A0F9204D5514240F0040044
:108110000F9180B26D1C11E000210F9109E00F99C1
:10812000494505D001EB810302EB430130390F9142
:108130006D1C2A78A2F130010A29F0D329782E2962
:1081400003D04FF0FF310E911DE015F8011F2A29D1
:1081500007D1316831606D1C51F8042B31600E92EB
:1081600011E000210E9109E00E99494505D001EB7F
:10817000810302EB430130390E916D1C2A78A2F184
:1081800030010A29F0D3ADF840000FF2D040297831
:1081900002F0B6F908B115F8010B8DF842009DF810
:1081A0004200682802BF29786829622005D06C281F
:1081B00004BF28786C2803D171208DF842006D1C13
:1081C00014A8069015F8014BB4F125002AD01C38EC
:1081D00000F0D480001F022840F2D080133800F055
:1081E000F580093800F0CA80801E00F05C81401ED6
:1081F00000F03581401E022840F2C080001F00F0D0
:108200002E81401F00F08B80401E00F0DF80401E5A
:1082100035D0C01E0BD0801E00F0D880C01E00F0EC
:10822000D58063E125208DF85000012067E19DF89D
:1082300042006C283068306014D050F8047B306005
:1082400005970E9C002C04D5384602F02DF9044603
:1082500006E022460021384602F05EF900B1C41B58
:1082600008944DE150F8042B306002A9404600F01C
:1082700033FA002840F144814FF0FF30F2E13168D9
:1082800031603C2451F8040B31600021CDE902013A
:1082900014A80590DDE90201069F11B908B90E9AEC
:1082A000B2B10206120FA0EB02123032D2B2631E3C
:1082B0003A2AA8BF27320009DA5540EA01700909B5
:1082C00008BF00281C4603D0059AE3199A42E8D358
:1082D000E0190590C4F13C010E980891814209DA39
:1082E000401A0A904FF6EF71BDF840000840ADF813
:1082F000400005E1002840F103819DF8400000F0B6
:108300001400102840F0FC800F98079A801A0A9AEF
:10831000801A441A012CC0F2F3800A94F0E09DF810
:10832000420062281AD0682806D06A280CD06C282F
:108330001CD0712808D019E03068306050F8041B58
:1083400030600D980880DBE03068306050F8042B16
:1083500030600D98C117C2E90001D1E0306830608B
:1083600050F8041B30600D980870C9E03068306028
:1083700050F8041B30600D980860C1E03068C01DE3
:1083800020F007023260D2E9000108323260CDE904
:108390000201002902D507982D210AE0BDF840000E
:1083A000810702D507982B2103E0C00705D5079860
:1083B000202100F80A10401C079014A807990818FB
:1083C0000590214602A800F091FB99E09DF842003B
:1083D0006C280DD0712818BF6A2809D13068C01DDB
:1083E00020F007023260D2E900010832326005E075
:1083F0003168316051F8040B31600021CDE9020190
:108400009DF84200682803D1DDE9020180B20BE04B
:10841000622803D1DDE90201C0B205E0742818BF6B
:108420007A2804D1DDE902010021CDE902019DF89D
:10843000400000072ED5DDE90201002908BF002811
:1084400028D044F02000782824D10798302100F863
:108450000A10401C411C079100F80A401AE09DF8E0
:108460004200314600F001F9CDE90201002902DAAB
:1084700007982D210AE0BDF84000810702D5079832
:108480002B2103E0C00705D50798202100F80A102A
:10849000401C079014A8079908180590214602A8C7
:1084A00000F0A0FA2CE09DF842006C2809D00120D1
:1084B00007903068306050F8041B30608DF8501021
:1084C0001EE03068306001AA50F8041B3060ADF83F
:1084D00004100020ADF8060002A94FF0FF300E9006
:1084E000404600F0F9F800280AD5C5E625208DF8A9
:1084F0005000012007901CB18AF80140022007902B
:108500000F980799401A0A99401A0899401A0B992E
:10851000401A0999401A0C99441A9DF840004007E6
:1085200010D42020012C8DF800000BDB27460123FE
:108530006A4602A9404600F000FE00287FF49CAE87
:108540007F1EF4D1DDF81CB0BBF1000F14AF0DD0CD
:1085500017F8011B0498C047002804903FF48CAE24
:108560000D98401CBBF1010B0D90F1D130208DF81E
:1085700000000A9F012F0ADB01236A4602A9404638
:1085800000F0DBFD00287FF477AE7F1EF4D1DDF82C
:1085900020B0059FBBF1000F0DD017F8011B049808
:1085A000C047002804903FF467AE0D98401CBBF113
:1085B000010B0D90F1D130208DF800000B9F012FA1
:1085C0000ADB01236A4602A9404600F0B6FD0028F6
:1085D0007FF452AE7F1EF4D105980899DDF824B0DF
:1085E0000F18BBF1000F0DD017F8011B0498C047FE
:1085F000002804903FF440AE0D98401CBBF1010BE5
:108600000D90F1D130208DF800000C9F012F0ADB76
:1086100001236A4602A9404600F08FFD00287FF43E
:108620002BAE7F1EF4D19DF8400040077FF50BADC7
:108630002020012C8DF80000FFF605AD01236A46CD
:1086400002A9404600F079FD00287FF415AE641EB3
:10865000F4D1F8E40000000000000000686A6C74C7
:108660007A4C000025B0BDE8F08F622826D068283B
:108670001DD06A2808D06C2827D0712804D074280F
:1086800023D07A280CD020E00868C01D20F0070015
:108690000860D0E90023083008601946104670478A
:1086A0000A680A6052F8040B0A60002170470A68E1
:1086B0000A6052F8040B0A6000B20BE00A680A6014
:1086C00052F8040B0A6040B204E00A680A6052F8EB
:1086D000040B0A60C11770472DE9F44F0D4694B0A2
:1086E000D5F830A0BAF1000F804648BF6FF0004ABD
:1086F00001F03EFF696B401801900FF66C20D0E945
:108700000023CDE9022395F83800400702D40198F0
:10871000412805D240200DF110090190002609E002
:1087200001F02CFF5FEA0009F8D14FF0FF3056E16D
:10873000AAEB040ABAF1010FC0F2CE8014980188A6
:1087400002AA0DF1010001F071FF0028044600F1BA
:10875000DE801498008810B9641E00F1D880A2450C
:10876000C0F2BA80686901992218914280F0A28013
:108770006E634042296A401AA969401A696A401A20
:10878000E969401AA96A461A95F83800400710D4DA
:108790002020012E8DF800000BDB374601236A46AE
:1087A0002946404600F0C9FC002840F0B0807F1EFA
:1087B000F4D1D5F814B0BBF1000F4F460DD017F827
:1087C000011BA868C0470028A86000F0A080E86AE4
:1087D000401CBBF1010BE862F1D130208DF80000A4
:1087E0002F6A012F0ADB01236A462946404600F022
:1087F000A4FC002840F08B807F1EF4D1D5F818B07F
:10880000EF68BBF1000F0CD017F8011BA868C04738
:108810000028A8607BD0E86A401CBBF1010BE8622D
:10882000F2D130208DF800006F6A012F09DB01239F
:108830006A462946404600F080FC002867D17F1E2A
:10884000F5D1E868A969D5F81CB00F18BBF1000F85
:108850000CD017F8011BA868C0470028A86056D0A4
:10886000E86A401CBBF1010BE862F2D130208DF8C0
:108870000000AF6A012F09DB01236A462946404602
:1088800000F05BFC002842D17F1EF5D195F838003E
:1088900040070DD52020012E8DF8000008DB0123B4
:1088A0006A462946404600F048FC80BB761EF6D159
:1088B00000266E61224668690DF101014844FBF70C
:1088C000B5F96869201868611498801C1490801E9E
:1088D000008800287FF42CAF686B6969401A296A08
:1088E000401AA969401A696A401AE969401AA96AD6
:1088F000A0EB010A95F83800400710D4BAF1010F37
:108900000DDB5446A8682021C047A86010B94FF07D
:10891000FF365DE0E86A401C641EE862F2D16B69D4
:108920004A462946404600F008FC0028EFD12C6A50
:10893000012C0ADBA8683021C0470028A860E6D0D7
:10894000E86A401C641EE862F4D1AB69EA68294613
:10895000404600F0F2FB0028D9D16C6A012C0ADBFA
:10896000A8683021C0470028A860D0D0E86A401C21
:10897000641EE862F4D1E868A969EB690A1829461F
:10898000404600F0DAFB0028C1D1AC6A012C0ADBBA
:10899000A8683021C0470028A860B8D0E86A401C09
:1089A000641EE862F4D195F8380040070ED5BAF19C
:1089B000010F0BDBA8682021C0470028A860A6D0C3
:1089C000E86A401CBAF1010AE862F3D16E616E6395
:1089D00004A881451CBF484601F036FE304615B05C
:1089E000BDE8F08F2DE9FA4E05460A462F696F2A39
:1089F00008BF082405D041F02000782814BF0A24BD
:108A000010243C26D5E90001642A18BF692A814652
:108A10008A4605D1002903DAD9F100096AEB4A0A2E
:108A2000BAF1000F08BFB9F1000F0CD1286B50B993
:108A3000082C36D195F83800000732D530203B2677
:108A400087F83B002DE0E31748465146224601F0E7
:108A50003BFEA4FB0023A9EB02023032D2B2A6F106
:108A6000010B3A2A5E4603DB9DF80030513B9A1811
:108A70000BF8072081465FEA010A08BFB9F1000F31
:108A800003D0E868F1198842DDD3082C09D195F8A4
:108A90003800000705D5F05D302802D0761E302062
:108AA000F055C6F13C00A861F119E960296B8842D4
:108AB00008DA081A28624FF6EF71288F08402887D5
:108AC000BDE8F38E00290ED595F8381001F0140199
:108AD000102908D1696B6A69891A2A6A891A0E1ADB
:108AE000012EA8BF2E62BDE8F38E00002DE9F24FE3
:108AF00004468EB0D4E90001CDE9020104AF9DF82F
:108B0000380040F0200BBBF1610F0AD0206B002829
:108B100048BF062004D408BFBBF1670F01D1012074
:108B200020636168C1F30A5040F2FF7290421CD189
:108B3000080304BF2068002809D10320A0619DF824
:108B4000380061381A2836D30FF2306108E003206C
:108B5000A0619DF8380061381A2829D30FF21461FA
:108B6000E0680322FBF762F8BEE1012816DA20462E
:108B700001F021FE012811DB00250020BBF1610F6F
:108B800020D1E168302201F8012B4A1CE2609DF8F7
:108B90003820612A0CBF782258220FE0626840F228
:108BA000FE3161F31E52451A62604FF0FF30E5E777
:108BB0000FF2BC51D4E70FF2C051D1E70A706169DE
:108BC000891C616110B90026002584E1BBF1610FA9
:108BD00040F09880206B00284CBF2126461CD4E929
:108BE00000ABDDE902010022002301F005FE36B2F0
:108BF0003ABF8BF00040CDE902A0CDE902AB06F10F
:108C000001082D1FB8F1010F8DF810200DF111078B
:108C100036DBDDE902010022002301F005FE2FD240
:108C20001C2102A801F018FEDDE9020101F09EFE00
:108C3000A8F10708B8F1010F814609DB01F0C2FE77
:108C400002460B46DDE9020101F0D4FECDE9020146
:108C5000F81D072105E009F00F0200F8012D4FEA89
:108C60002919B9F1010F01DB491EF4D5491E5CBF7A
:108C7000002200F8012DF9D5C71DB8F1010FC8DA9F
:108C80000DF11100391AB142B8BF0E4636B23000AC
:108C90000DF111072FD4884206DA04A9411849784A
:108CA0000829A8BF0F2100DA002104AA821800E0D9
:108CB000761E12F80139401E8B42F9D00F2904D1DB
:108CC00004A941184A78521C4A70002802D504AF02
:108CD000761C2D1D36B2701E0DD4C1190A783032A3
:108CE000D2B23A2A03DB9DF838303A3B9A18401E3C
:108CF00001F80129F2D5206B002840F1EC80701EAC
:108D00002063E8E0DDE902010022002301F074FDA8
:108D10003CBF81F00041CDE902012DB247F29750EE
:108D200068434B49DFF82C9190FBF1F52DB2C5F16A
:108D3000070ABAF1010F90461CDBDDE902675FEA22
:108D4000CA7007D542464B463046394601F012FFFD
:108D500006460F464046494642464B464FEA6A0A97
:108D600001F008FFBAF1000F80468946E7D1CDE94E
:108D7000026724E0CAF1000A0026374F14E05FEAD8
:108D8000CA7007D542464B463046394601F0F2FEDE
:108D900006460F464046494642464B4601F0EAFE2B
:108DA0004FEA6A0A80468946BAF1000FE7D1DDE949
:108DB000020132463B4601F0AFFFCDE90201BBF1B3
:108DC000660F0CBF05F10A000620216BDFF88C90BE
:108DD0004618142EA8BF132630208DF810000DF170
:108DE0001107012E3CDBDDE9020101F0D5FD07F1A1
:108DF000080104220A23B0FBF3F303EB8307A0EB83
:108E00004700303001F8010C0A20B3FBF0F000EB12
:108E10008007A3EB47033033521E01F8023DE9D12E
:108E2000083E012E01F10807DBDBDDE9020101F05C
:108E3000B3FD01F0D1FD02460B46DDE9020101F070
:108E4000D9FD00224B4601F095FECDE90201CAE7AB
:108E5000A0860100000024400000F03F84D7974125
:108E60000DF11100381A0DF1110702E0401E6D1EC0
:108E70007F1C39783029F9D0BBF1660F02D12DB2B1
:108E8000691C04E0BBF1650F0CBF01210021226BBE
:108E90008E1836B2B042B8BF064636B231001AD488
:108EA000814204DAC85D3528A8BF392000DA3020B5
:108EB000CA19521E00E0761E12F80139491E83427B
:108EC000F9D0392802D1C85D401CC855002902D507
:108ED0007F1E761C6D1C2DB29DF83810009533B2A4
:108EE0003A46204600F003F80FB0BDE8F08F2DE9B8
:108EF000F04786B006468A4690461D4602F055F871
:108F0000012D406A376B90F8009002DA01250FF2CC
:108F100070284AF02000BDF93840662808BF641C5C
:108F200012D0672876D114F1040F79DBBC4277DACE
:108F300096F83800641C000702D4BD42B8BF2F4623
:108F400024B23F1B48BF002724B2F068B169012C4E
:108F500021DA4A1C30230B54012F03DA96F838101B
:108F6000090702D502F80090521CB261E742B8BF6F
:108F70007C4224B26142E7197162AF42B8BF3D46FC
:108F8000B3692DB2F5612A4641461818FAF74EFE2C
:108F9000781BB062BAE00818A54216DA2A464146A4
:108FA000FAF744FEB1696918601B012FB161706264
:108FB00003DA96F83800000705D5F06801F800904C
:108FC000F069401CF061B762A0E022464146FAF722
:108FD0002DFEB06920182D1B012F03DA96F83810EA
:108FE000090703D5F16800F80190401C2DB2B0616B
:108FF000AF42B8BF3D46F068B3692DB22A4604EBD4
:1090000008011818FAF712FEB0692818B061781B29
:1090100070627BE0BAF1610F14D14FF0700A16E074
:10902000BD4204DA96F83810090758BF2F467F1E54
:1090300048BF0027BAF1670F14BF4FF0450A4FF041
:10904000650A04E0BAF1410F08BF4FF0500AB16958
:10905000F0684A1CB261012F18F8013B0B5403DA87
:1090600096F83810090715D5531CB36102F8009023
:10907000012F0FDB6D1E2DB2AF42B8BF3D462DB2A2
:109080002A4641461818FAF7D1FDB0692818B06190
:10909000781B7062F068B1690918200081F800A09F
:1090A00004D42B20487001F1020804E02D224A70FC
:1090B00001F102086442002502AF08E00A22684676
:1090C00001F08CFF019807F8010B6D1C009C21B288
:1090D0000129F3DA022D06DA4AF02000652804BFE0
:1090E000302008F8010B4DB9302008F8010B07E0DB
:1090F0006D1E02A8285C303008F8010B012DF7DA4C
:10910000F068B1690818A8EB0000F06196F8380023
:1091100000F0140010280DD17069B1690818716A47
:109120000818F1690818B16A0818716B8842BCBF49
:10913000081A306206B0BDE8F087F8B504460D465F
:1091400016461F46002077B116F8011BA868A047F5
:10915000A86030B1E86A401CE86200207F1EF3D1AD
:10916000F2BD4FF0FF30F2BD000000000000000033
:109170006E616E004E414E00696E6600494E4600BB
:109180003000000010B50400DFF82C09182101FBA5
:109190000400006800280ED0DFF81C09182101FB2C
:1091A00004000068F8F72BFB0020DFF80C191822E8
:1091B00002FB041108600020DFF8FC18182202FBF3
:1091C0000411087510BD10B5002419E0DFF8E80897
:1091D000E4B2182101FB0400007D01280FD1DFF863
:1091E000D808E4B2182101FB0400011DDFF8C8080B
:1091F000E4B2182202FB0400806800F058FC641CF2
:10920000E4B20A2C5DDADFF8B008E4B2182101FB01
:109210000400007DC0B20028F1D0DFF89C08E4B261
:10922000182101FB0400408A401CDFF88C18E4B2CE
:10923000182202FB04114882DFF87C08E4B21821EE
:1092400001FB0400408AB0F5967F11DADFF8680868
:10925000E4B2182101FB0400007D01280DD1DFF8E4
:109260005808E4B2182101FB0400408A052804DBF9
:10927000E4B22000FFF786FFC1E7DFF83C08E4B264
:10928000182101FB0400007D032808D10420DFF829
:109290002818E4B2182202FB04110875AFE7DFF8C2
:1092A0001808E4B2182101FB0400007D04288DD1C8
:1092B0000220DFF80418E4B2182202FB041108753A
:1092C0009DE710BD2DE9F84F04000A200A220A2369
:1092D00000250A2600275FF0000C5FF0000E002535
:1092E0001DE05FFA88F8B8F1020F17DBDFF8C887D6
:1092F000EDB25FF0180909FB0588B8F812801FFA73
:109300008EFEF0450AD32A0052B2DFF8ACE7EDB288
:109310005FF0180808FB05EEBEF812E06D1CEDB218
:109320000A2D6BDADFF89087EDB25FF0180909FBC0
:10933000058898F814805BB20A2B07D15FFA88F889
:10934000B8F1000F02D12B005BB2E7E75FFA88F8B3
:10935000B8F1000FE2D0002C0FD0D4F80090DFF865
:1093600058A7EDB25FF0180B0BFB05AADAF804A0C2
:10937000D14502D1280040B26DE05FFA88F8B8F11B
:10938000010FAED1DFF83087EDB25FF0180909FBAD
:109390000588D8F80080B8F1000F16D0DFF81887DC
:1093A000EDB25FF0180909FB0588B8F81280BFB26A
:1093B000B845B3D32E0076B2DFF8FC76EDB25FF09D
:1093C000180808FB05777F8AA8E7DFF8EC86EDB27E
:1093D0005FF0180909FB0588B8F812801FFA8CFCA9
:1093E000E0459BD3280040B2DFF8CCC6EDB25FF079
:1093F000180808FB05CCBCF812C08FE78D0704D411
:109400005BB20A2B04D1C90702D45FF0FF3022E01F
:109410005BB20A2B02DADBB21D0008E052B20A2A64
:109420001BDAD2B21500EDB22800FFF7ABFE002C1C
:1094300007D02068DFF88016EDB2182202FB051174
:1094400048600020DFF87016EDB2182202FB05110B
:109450004882280040B2BDE8F28F40B20A2802DA02
:10946000C0B20500DFE776B20A2E02DA3500EDB2AF
:10947000D9E75FF0FF30EEE7F8B504000E00150005
:109480001F00002E0DD0306800280AD0210030685F
:10949000F8F704FB002804D1307810F0F000E02841
:1094A00002D17FF00F0056E022003900C9B230002F
:1094B000FFF708FF060076B2002E02D5300040B25A
:1094C00049E00220DFF8F01576B2182216FB0211EF
:1094D0000875DFF8E40576B2182116FB01008460F8
:1094E0000622DFF8D40576B2182116FB010010F130
:1094F0000C0729003800FAF799FB0020DFF8B815AF
:1095000076B2182216FB02114882DFF8AC0576B25B
:10951000182116FB0100006800281BD0DFF8980511
:1095200076B2182116FB010007680020DFF88815C5
:1095300076B2182216FB021108604FF4006000900A
:109540002B0014F12D023900200001F0AFFD38008E
:10955000F8F755F90020F2BD38B50400002517E0F2
:10956000DFF85405EDB2182101FB0500007DC0B203
:1095700000280CD0DFF84005EDB2182101FB0500F2
:109580008068A04203D1EDB22800FFF7FBFD6D1CFF
:10959000EDB20A2DE4DB31BDFEB504000D00002D57
:1095A0007BD066683088B0F5807F08D13079062896
:1095B00005D17079042802D17088082803D02000D2
:1095C000F8F71DF969E0042216F10E0101AF380029
:1095D000FAF72CFB042216F1180102AF3800FAF753
:1095E00025FB6868002801D1002706E00298696819
:1095F000884201D1012700E00027FFB2002F01D0EF
:10960000012300E00223DBB216F1080201A92800C1
:10961000FFF732FFF088B0F5807F03D0B0F5007F10
:1096200033D037E0FFB2002F2ED00220F8F7AAFA8D
:10963000F080042216F10E0116F118073800FAF72F
:10964000F5FA0422291D16F10E073800FAF7EEFA92
:10965000062216F1080116F112073800FAF7E6FAA9
:10966000062215F12D0116F108073800FAF7DEFA87
:1096700040F60600009016F1120316F108022100D0
:10968000280001F013FDFFE704E001A92800FDF721
:1096900039FCFFE72000F8F7B2F8F7BD70B582B0EB
:1096A00004000D001600DFF81004F6B2182101FBCB
:1096B0000600007D022844D1DFF8FC03F6B2182131
:1096C00001FB0600408AB0F58E7F14DDDFF8E80369
:1096D000F6B2182101FB0600011D200000F0E7F999
:1096E00000282ED10320DFF8D013F6B2182202FB97
:1096F0000611087525E0DFF8C003F6B2182101FB5A
:109700000600408AB0F5877F1BDBDFF8AC03F6B2BA
:10971000182101FB060010F10C02DFF89C03F6B2E1
:10972000182101FB0600011D200000F0AFF9002800
:1097300007D10320DFF88013F6B2182202FB0611CE
:1097400008754FF400600090DFF86C03F6B2182142
:1097500001FB060010F10C0314F12D02290020007A
:1097600001F0A4FC76BDFEB504000D001600370024
:1097700021003068F8F792F900280AD0CF4B4FF457
:109780000060009014F12D022900200001F08EFCF1
:10979000FEBD307810F0F000E02815D101208DF8E2
:1097A000040000208DF805005E208DF8060070781A
:1097B00010F07F008DF80700B0788DF80800F07881
:1097C0008DF8090001ABDAE73068A16808406168EC
:1097D000A268114088420AD0306880B24FF6A96171
:1097E000884204D0E06800281BD014F10C07B2486E
:1097F000B3490978182202FB0100007D022813DB1F
:109800003868AD49AE4A1278182303FB0211496843
:10981000884209D1AA48027829002000FFF73EFFBC
:10982000B6E77FF00300B3E7002000E0401C40B241
:109830000A2819DAA04940B2182210FB0211097D4A
:109840000229F3DB39689C4A40B2182310FB03223B
:1098500052689142EAD19A4908700200D2B22900B6
:109860002000FFF71BFF93E72A003900200000F0DB
:1098700001F88DE72DE9F04782B006000F001400D3
:1098800016F12D085FF0FF395FF0000A31003868EB
:10989000F8F704F9002809D1387810F0F000E02832
:1098A00004D0002F02D03868002802D17FF00F00CA
:1098B00096E0320001213800FFF704FD05006DB28B
:1098C000002D02D5280040B28AE07B486DB21821F5
:1098D00015FB0100007D00280ED15FF0010A012078
:1098E00075496DB2182215FB0211087572486DB2E8
:1098F000182115FB01008660BAF1000F01D1002C80
:1099000009D13900300000F0D2F88146002C02D194
:10991000484640B264E068486DB2182115FB01006A
:10992000007D022812DB664805704FF4006000904D
:1099300061486DB2182115FB010010F10C0342467D
:109940002100300001F0B2FB814647E05A486DB279
:10995000182115FB0100007D01283FD100202600C1
:1099600000E03668002E03D0317B0129F9D00120B8
:10997000002812D0002231890220F7F7C5FD060029
:10998000002E0ED021003000F7F799FF002808D0F4
:109990003000F7F734FF002603E026003000F7F729
:1099A0006BFF002E18D044486DB2182115FB010042
:1099B0000068002807D040486DB2182115FB01004F
:1099C0000068F7F71CFF3C486DB2182115FB010039
:1099D00006605FF0000901E05FF0FF39484640B2E1
:1099E000BDE8F6872DE9F84F04000D0016009A46F1
:1099F0005FF0000800221C210220F7F785FD070018
:109A0000002F02D15FF0FF303EE0D7F804900D98B0
:109A1000F8F7B8F8A9F80600062219F1080B514624
:109A20005846FAF703F906220B9919F1120A504623
:109A3000FAF7FCF804220A9919F10E0A5046FAF7CF
:109A4000F5F804220C9919F1180A5046FAF7EEF8C5
:109A50004FF48070A9F800000820A9F80200062041
:109A600089F80400042089F8050040F606000090FB
:109A700033002A003900200001F018FB3800F7F706
:109A8000BEFE0027404640B2BDE8F28F00B585B06B
:109A90000123039302910B490191011D009110F1E3
:109AA0002D0310F12D01FFF79DFF05B000BD80B51E
:109AB000024AFFF7EBFF02BD50770020FCBE000812
:109AC000B07F002004BF000838B5040000252078CE
:109AD000C0076FD5DFF86406006810F00C0004289A
:109AE0000BD0DFF85806006810F00C0008280ED1E3
:109AF000DFF84C060068400209D5DFF84806006828
:109B0000800357D56068002854D10120CFE16068F8
:109B1000B0F5803F08D1DFF82C06006850F48030A3
:109B2000DFF82016086024E06068B0F5A02F10D19F
:109B3000DFF81006006850F48020DFF8081608608F
:109B4000DFF80006006850F48030DFF8F815086090
:109B50000FE0DFF8F005006830F48030DFF8E4153E
:109B60000860DFF8E005006830F48020DFF8D415E5
:109B70000860606800280ED0FCF7C5FE0500DFF81D
:109B8000C4050068800315D4FCF7BDFE401B6528A2
:109B9000F5D303208BE1FCF7B6FE0500DFF8A40542
:109BA0000068800306D5FCF7AEFE401B6528F5D3A0
:109BB00003207CE1207880072BD5DFF88005006842
:109BC00010F00C0F0BD0DFF87405006810F00C00DB
:109BD000082837D1DFF868050068400232D4DFF882
:109BE00064050068800704D5E068012801D00120E1
:109BF0005DE1DFF8500500685FF0F851B1FA81F1DE
:109C000030F0F800226912FA01F10843DFF8341548
:109C100008602078000762D5606900284CD00120D8
:109C2000DFF824150860FCF76EFE0500DFF81C0560
:109C30000068800753D4FCF766FE401B0328F5D369
:109C4000032034E1E068002823D00120DFF800156C
:109C50000860FCF758FE0500DFF8E804006880079C
:109C600006D4FCF750FE401B0328F5D303201EE169
:109C7000DFF8D00400685FF0F851B1FA81F130F0FC
:109C8000F800226912FA01F10843DFF8B8140860FD
:109C9000BFE70020DFF8B8140860FCF734FE0500C9
:109CA000DFF8A00400688007B3D5FCF72CFE401B4A
:109CB0000328F5D30320FAE00020DFF88C140860B5
:109CC000FCF721FE0500DFF884040068800706D554
:109CD000FCF719FE401B0328F5D30320E7E02078AA
:109CE00040077CD500200090DFF86804006850F041
:109CF0008050DFF860140860DFF85804006810F046
:109D0000805000900098DFF85004006850F4807094
:109D1000DFF844140860FCF7F6FD0500DFF83804AE
:109D20000068C00506D4FCF7EEFD401B0328F5D300
:109D30000320BCE0A068012808D1DFF820040068F7
:109D400050F00100DFF81414086023E0A068052833
:109D500010D1DFF80804006850F00400DFF8FC13AD
:109D60000860DFF8F803006850F00100DFF8EC133A
:109D700008600FE0DFF8E403006840084000DFF807
:109D8000DC130860DFF8D403006830F00400DFF86B
:109D9000CC130860A068002810D0FCF7B4FD0500C3
:109DA000DFF8B8030068800719D4FCF7ACFD401B4E
:109DB00041F289318842F3D3032078E0FCF7A3FD18
:109DC0000500DFF898030068800708D5FCF79BFDC5
:109DD000401B41F289318842F3D3032067E0A06938
:109DE000002863D0DFF85403006810F00C00082846
:109DF0005AD0A069022844D10020DFF8641308601B
:109E0000FCF781FD0500DFF83C030068800106D502
:109E1000FCF779FD401B0328F5D3032047E0DFF86A
:109E20004403B0FA80F14FF44040B0FA80F2F020E1
:109E3000B0FA80F0E369256A2B43656A15FA01F1EF
:109E40001943A36A5B085B1E13FA02F21143E26A2C
:109E500012FA00F00843DFF8E81208600120DFF88A
:109E600000130860FCF74FFD0500DFF8D80200681A
:109E700080011BD4FCF747FD401B0328F5D30320CA
:109E800015E00020DFF8D8120860FCF73CFD050063
:109E9000DFF8B0020068800108D5FCF734FD401BF4
:109EA0000328F5D3032002E0012000E0002032BDAA
:109EB00070B504000D000026DFF8AC02006810F059
:109EC0000F00A8420BD2DFF8A0020570DFF898025D
:109ED000006810F00F00A84201D00120C0E02078F7
:109EE000800709D5DFF85402006830F0F000A1685F
:109EF0000843DFF8481208602078C00772D5606810
:109F0000012806D1DFF83C020068800315D4012047
:109F1000A6E06068022802D06068032806D1DFF856
:109F200024020068800108D4012099E0DFF81402BF
:109F30000068800701D4012092E0DFF80002006889
:109F40008008800061680843DFF8F0110860FCF7C2
:109F5000DAFC0600606801280FD1DFF8E001006834
:109F600010F00C0004283DD0FCF7CDFC801B41F222
:109F700089318842F1D3032072E0606802280FD152
:109F8000DFF8B801006810F00C0008282AD0FCF7B0
:109F9000BAFC801B41F289318842F1D303205FE093
:109FA000606803280FD1DFF89401006810F00C00FE
:109FB0000C2817D0FCF7A7FC801B41F2893188429E
:109FC000F1D303204CE0DFF87401006810F00C0FAF
:109FD00008D0FCF798FC801B41F289318842F2D30B
:109FE00003203DE0DFF88001006810F00F0085429B
:109FF0000BD2DFF874010570DFF86C01006810F017
:10A000000F00A84201D001202AE02078400707D5A0
:10A010004A48006830F4E050E16808434749086066
:10A020002078000708D54548006830F46040216971
:10A0300050EAC1004149086000F017F83F4909683B
:10A040005FF07062B2FA82F2484B11F0F001D14039
:10A05000C95CC840464908600020FCF73CFC002071
:10A0600070BD012043490860704700200020002196
:10A0700000203248006810F00C00002804D00428AA
:10A0800004D0082804D034E03B4833E03B4831E0BA
:10A090002B48006810F03F002949096849020DD596
:10A0A00027490968354AB2FBF0F047F6C072114003
:10A0B0002C4AB2FA82F2D14048430CE020490968A8
:10A0C0002D4AB2FBF0F047F6C0721140254AB2FAB1
:10A0D00082F2D14048431A49096811F440314FF4E3
:10A0E0004042B2FA82F2D140491C4900B0FBF1F083
:10A0F00000E0214870471E480068704780B5FFF7B0
:10A10000FAFF0E4909685FF46012B2FA82F21C4B42
:10A1100011F4E051D140C95CC84002BD80B5FFF7E1
:10A12000EAFF064909685FF4E022B2FA82F2144BB2
:10A1300011F46041D140C95CC84002BD08380240FA
:10A140000438024000380240800E47427438024012
:10A150000000474240380240007000407038024022
:10A16000600047420000FE03003C024004BE0008BD
:10A17000040000204C0047420024F40000127A0042
:10A1800014BF000880B50320FBF7BCFA00220021B1
:10A190007FF00B00FBF7BAFA002200217FF00A00E3
:10A1A000FBF7B4FA002200217FF00900FBF7AEFABA
:10A1B000002200217FF00400FBF7A8FA0022002112
:10A1C0007FF00300FBF7A2FA002200217FF00100DC
:10A1D000FBF79CFA002200215FF0FF30FBF796FAB4
:10A1E000002200210520FBF791FA0520FBF79FFADA
:10A1F00001BD0000F8B5344F384600F080FF04463A
:10A20000381D00F07CFF054607F1080000F077FFDD
:10A21000064607F10C0000F072FF23782B492C4A08
:10A22000002B40D12B6802FB03132B60082702FB95
:10A2300003132B6002FB03132B6002FB03132B6041
:10A2400002FB03132B6002FB03132B6002FB0313BF
:10A250002B6002FB03132B600346D5F800C002FB02
:10A260000C1CC5F800C043F804CB7F1ED5F800C015
:10A2700002FB0C1CC5F800C043F804CBD5F800C0A5
:10A2800002FB0C1CC5F800C043F804CBD5F800C095
:10A2900002FB0C1CC5F800C043F804CBDDD1C36F32
:10A2A0003360012323702B6802FB0311296031788E
:10A2B00001F01F0150F8212032602A6840F8212067
:10A2C000306880008008F2BD500000205FF36E3CD3
:10A2D0000D66190000B587B0002000904148006865
:10A2E00050F010003F4908603E48006810F0100030
:10A2F00000900098002000903A48006850F010004C
:10A30000384908603748006810F010000090009845
:10A31000002000903348006850F010003149086078
:10A320003048006810F01000009000980020009065
:10A330002C48006850F010002A490860294800683D
:10A3400010F0100000900098002000902548006850
:10A3500050F01000234908602248006810F01000F7
:10A3600000900098012001900020029001200390AD
:10A3700001A91D48FBF746F8022001900020029039
:10A380000120039001A91848FBF73CF80420019034
:10A39000002002900120039001A91348FBF732F836
:10A3A00008200190002002900120039001A90E488E
:10A3B000FBF728F810200190002002900120039064
:10A3C00001A90948FBF71EF807B000BD80B50121BF
:10A3D0000548FBF704F9002801D1012000E0002026
:10A3E00002BD000030380240001002400160002130
:10A3F000017102214171022181710021C1717047F7
:10A4000010B5040094F90500012821D042D3032897
:10A4100027D002D3042809D03CE0206880470028D8
:10A4200003D00020E0710420607133E0E0790A304D
:10A43000E071E0790A280ADB20688047002804D010
:10A440000120A0710120607101E00220607121E013
:10A4500020688047002803D10020E071032060714C
:10A4600018E0E0790A30E071E0790A2812DB206810
:10A47000804700280CD10120A07102206071207952
:10A48000401C20712079FB2804DBFA20207101E0B8
:10A490000120607110BD49B2C90701D500210171C9
:10A4A0000079C0B27047000000F10103810704D0B9
:10A4B00010F8011B89B18107FAD10268B2F10131AC
:10A4C000914311F0803F04BF50F8042FF6E710F8D5
:10A4D000011B11B110F8011BFBE7C01A7047F8B55A
:10A4E00004460D4616461F4600F00AFE3B4632461D
:10A4F0002946204601B0BDE8F04000F018BE00003B
:10A500000278C9B28A421AB11CBF10F8012FF9E7CC
:10A5100018BF002070470000C9B2830706D0521E42
:10A5200022D310F8013B9942F7D11FE0083A13D328
:10A5300002F1040241EA012141EA014150F8043BE1
:10A54000121F21BF4B40A3F1013C2CEA030C1CF06D
:10A55000803FF3D0C9B2001F083210F8013B521EF1
:10A5600028BF91EA030FF8D818BF0120401E70479A
:10A5700080B500F0C5FD012002BD000070B50546A4
:10A5800005F10F00C408C046C046E400A54232D21F
:10A59000082C04D2082402E0083000F055F82248C4
:10A5A000026811000CD1011D0A6802B31368A342AE
:10A5B00038BF111DF8D310E01D68A5420DD2191D3A
:10A5C0000B68002BF8D11268011D00E0191D0B6803
:10A5D00093420CD01D68A542F8D361B10D682A687A
:10A5E000A2F10803A3420AD26A680A600FE000F0F1
:10A5F000C1FD0028D0D1C046C046002070BD6319FF
:10A600000B60121B6E685E600B681A602C60096834
:10A6100000291DBF4A68002A091D00210160C046AB
:10A62000C04605F1080070BD007F002070B50446EB
:10A630000D46164600F064FD324629462046BDE828
:10A64000704000F067BD000000B9704738B5A0F158
:10A6500008042068082833D310F0070F30D1C04613
:10A66000C0461848416809B18C4203D26160446019
:10A6700017E019464B680BB1A342FAD30B685D187B
:10A68000AC421BD3A54204D12268D2180A600C4602
:10A6900007E04A681AB123681B199A420ED3626018
:10A6A0004C60616851B1226813198B4206D10023B6
:10A6B000036008688018206048686060C046C04633
:10A6C00031BD0000007F00201B4213D1094236D16A
:10A6D0002AB18446B0FBF2F002FB10C2704700F0D2
:10A6E0005FBDFCD30022002370470B000200002155
:10A6F00000207047904271EB030CF6D370B5B1FAAD
:10A7000081F4B3FA83F52C1BA340C4F1200532FA7F
:10A7100005F63343A2405FF00046E64002E05B08E6
:10A720005FEA3202841A71EB030524BF20462946F2
:10A730007641F4D302000B003000002170BD012AE5
:10A74000CFD970B5140C20D0B1FA81F4B2FA82F5E9
:10A75000C4F120046419B4F12006D6D3B2405FF0EE
:10A760000044F440002502E052085FEA3303C61AB1
:10A7700071EB020E24BF3046714664416D41F3D344
:10A7800002000B002000290070BD0C46B1FBF2F165
:10A7900002FB11452D0445EA1045B5FBF2F402FB1E
:10A7A000145580B240EA0545B5FBF2F002FB1052A9
:10A7B00040EA044070BD30B4436803F00042012118
:10A7C0001B031B0B436004BF0368002B08D10DE083
:10A7D0000368DD0F45EA440444605B000360491EE2
:10A7E0004468E302F4D523031B0B436043681A4318
:10A7F0004260084630BC70474FF4001C1CEB410F10
:10A8000094BF1CEB430F09E041EA030C50EA4C0CE7
:10A8100052EA0C0C03D2994208BF9042704714BF11
:10A820008B428242704700004FF4001C1CEB410F2A
:10A8300094BF1CEB430F09E041EA030C50EA4C0CB7
:10A8400052EA0C0C03D28B4208BF8242704714BFFD
:10A85000994290427047000070B504460D4660680A
:10A86000C0F30A5040F2FF71884207D160680003CC
:10A8700004BF2068002817D0022070BD20B92046F0
:10A88000FFF799FF012866DA012D0FDB40F2FF7117
:10A89000091A8D420AD3606800284CBF9FED2F0B28
:10A8A0009FED300B84ED000B012070BD4142A942A9
:10A8B000616806DA6FF31E51401941EA005060608A
:10A8C00040E0401E63684519012205F1350062F33E
:10A8D0001F53352801F00041636003D361600020FD
:10A8E000206070BD002015F11F0F04DA206823607E
:10A8F0000022203562606A4212D0401E25688041E5
:10A90000C2F12003C0439D4045EAD07025686668C7
:10A91000D54006FA03F32B4323606368D34063609A
:10A9200062680A43B0F1004F626003D80DD120780D
:10A93000C0070AD52068401C2060206828B96068DC
:10A94000401C60604FF0FF3070BD6068884204BFFB
:10A9500020680028F6D1002070BD00BF0000000074
:10A960000000F0FF000000000000F07FF446400D02
:10A9700040EAC120490006D200F014F8004248BF66
:10A980006FF00040604700F00DF84FF00041884242
:10A990008CBF084640426047400D40EAC120490054
:10A9A00080F00D8040F00040490DA1F58061491C08
:10A9B00005D4D1F11F0154BFC840C01770474FF0F4
:10A9C00000007047010040F10980F446404200F069
:10A9D00005F851F000416047010000BF09D0B0FA0E
:10A9E00080F18840C91CC1F58461090501EBD021C3
:10A9F00040057047F0B44FF0004591EA030F44BFA3
:10AA00006B4000F0CFBB00BF841A71EB030604D289
:10AA10006E40001BB141121973414FF4001C1CEB36
:10AA2000410F34BF7CEB430684E00C0DA4EB1356BE
:10AA3000362E7DDC012E43DC45EAC32343EA525324
:10AA400012BFD20292025B08240545EAC12141EA05
:10AA50005051D2EBC020994125D407D1B0FA80F6ED
:10AA600010FA06F164D00020203608E0B1FA81F631
:10AA7000B140C6F1200220FA02F21143B0404FEA81
:10AA8000F474B4EB465434F001064FEA74040AD867
:10AA9000D6F50016760D04F00044F04061FA06F297
:10AAA0005040F1404840C00A40EA415021F0004186
:10AAB00028BF5FEA500550F1000044EBD12137E098
:10AAC00045EAC323DB0A45EAC121C90AB6F12005DC
:10AAD0000EDD42EA0242120CC5F1200603FA06F628
:10AAE000EB4042EA06056D42984161F100010DE03C
:10AAF00062FA06F5F240554063FA06FC82EA0C025F
:10AB0000F3405A406D42904161EB030111F4801F04
:10AB100005D1641E620502D06D004041494121F417
:10AB20008011430875F1004350F1000041EB0451DE
:10AB3000F0BC70471CEB410F15D223F0004352EAE2
:10AB400043060BD04FEA4C0CBCEB410F04D80C0D64
:10AB5000661E342EB7DDEBE7801A994150EA4106B4
:10AB600008BF0021E4E708BF1CEB430F28BF6FF0CC
:10AB70000001DDE7B0B581EA030C0CF0004C40F2B7
:10AB8000FF7515EA11541DBF15EA1357AC42AF42C9
:10AB900039E0E41923EA455343F48013C90241F034
:10ABA000004141EA505EC7021100A7FB02020028E3
:10ABB0004FF00000EEFB01204FF00001E3FB072106
:10ABC00018BF42F00102401800214941E3FB0E0189
:10ABD000A4F580640F0302D252004041494154F170
:10ABE00001046CDD470872F1004250F1000051EBA6
:10ABF0000451A1F580115CBF41EA0C01B0BD4CEAE3
:10AC000005510020B0BD05EA1357AC4214BFAF4256
:10AC100041E050EA410E1CBF52EA430E02E0614699
:10AC20000020B0BD24423C441BD15FEA070EF6D0A1
:10AC3000090302BF01460020AEF1140EB1FA81F7FC
:10AC4000AEEB070401FA07FE0C37C7F1200100FA4A
:10AC500007F7C8404EEA000E23EA455343F4801339
:10AC6000A2E733F00043B3FA83F704BFB2FA82FEDF
:10AC700077440B3FE41BB7F1200E2FBF02FA0EF30F
:10AC8000BB40C7F1200E22FA0EFE38BF43EA0E0386
:10AC9000BA40641C82E750EA410E14BF52EA430EE8
:10ACA0006FF000014FF4001717EB430F8ABF1946EE
:10ACB00017EB410FB5E74CEA05510020B0BDD4F1C8
:10ACC0000104B4F120070FDAC4F12007520828BFAD
:10ACD00042F0010210FA07F501FA07F7E1BF2A4333
:10ACE000E0403843E1400FE0352C98DCC7F1200408
:10ACF00052EA400220FA07F218BF42F0010231FA8C
:10AD000007F0A1400A43002172F1004250F1000017
:10AD100051EB0C01B0BD00002DE9F04140F2FF7590
:10AD200081EA030C0CF0004C15EA11541DBF15EA22
:10AD30001357AC42AF42E9E0BC41C1F31301C3F386
:10AD40001303801A994143F4801304D2641E400017
:10AD5000494180185941C90241EA5051B1FBF3F60B
:10AD600003FB1611A2FB0675D7EBC020A94102D246
:10AD7000761E80185941C90241EA5051B1FBF3FED9
:10AD800003FB1E11A2FB0E75D7EBC020A94103D215
:10AD9000AEF1010E80185941890241EA90517605C1
:10ADA00046EA8E2EB1FBF3F603FB1611A2FB0675E5
:10ADB000D7EB8020A94102D2761E80185941C902E2
:10ADC00041EA50514EEA060EB1FBF3F603FB1611B1
:10ADD000A2FB0675D7EBC020A94102D2761E8018CF
:10ADE0005941C90241EA5051B1FBF3F703FB171176
:10ADF000A2FB0735D3EBC020A94167F100070CBFC8
:10AE0000004247F0010766F3D5274FEA1E31B80824
:10AE100014F5806414DDBD0775F1004250EB0E504F
:10AE200051EB045111F5801F5CBF41EA0C01BDE8F4
:10AE3000F0814CF07F6141F0E0410020BDE8F081FD
:10AE4000BD076D0840EA0E5041F48011D4F10104B1
:10AE5000B4F120060ADAC4F120060200E04001FA4B
:10AE600006F3E1401843B24015430EE0342C14DCE5
:10AE7000C6F1200445EA40056D0820FA06F21543A4
:10AE800021FA06F0A1400D43002175F1004250F176
:10AE9000000051EB0C01BDE8F08100205FEA0C01DD
:10AEA000BDE8F081CFB992185B41B3FA83F704BFD4
:10AEB000B2FA82F6BF190B3FB7F120062FBF02FA94
:10AEC00006F3BB40C7F1200622FA06F638BF33432B
:10AED000BA401CB1E419641E2FE77F4231F00041F3
:10AEE000B1FA81F404BFB0FA80F6A4190B3CB4F1B6
:10AEF00020062FBF00FA06F1A140C4F1200620FA77
:10AF000006F638BF3143A0403C1B16E7AC421ABFDF
:10AF100005EA1357AF4214E050EA41061CBF52EA5B
:10AF20004306BFE750EA4107304661461CBF41EA8D
:10AF30000551BDE8F08152EA430C08BFC143BDE8AA
:10AF4000F08100204FF4001616EB410F98BF16EB6E
:10AF5000430F08BF16EB410F24BFC14305E016EBBA
:10AF6000430F0CBF61464CEA0551BDE8F08100007B
:10AF700080B5134800F0C3F80FF24C020FF2440101
:10AF80000160426241600FF24402826381600FF20D
:10AF90004402C1600161416181618162C1620163FA
:10AFA0004163C2630164416401BD10B5044800F00F
:10AFB000A6F80446206808B9FFF7DAFF204610BD5E
:10AFC000DC000020000000002E00000066616C73B1
:10AFD00065000000747275650000000091FBF2F3DB
:10AFE00003FB1211C0E9003170470000F8B50400FE
:10AFF0000D000E2660890F2804DA2000F6F7FFFB0B
:10B000000020F2BD606887890178C90717D50178EB
:10B0100001290AD14178002911D180785E280ED10A
:10B02000607B50F01000607309E006221E4900F0BA
:10B0300023F9002803D1607B50F008006073BFB291
:10B04000082F03D0B7F5C16F17D02CE095F8330067
:10B050000007D2D5608936B2B04207DB36B2714202
:10B0600009B22000F6F7BFFB002800D0C5E7290091
:10B070002000F8F785FE0020C3E795F833000007AD
:10B08000BBD5608936B2B04207DB36B2714209B235
:10B090002000F6F7A8FB002800D0AEE7290020002A
:10B0A000FEF77AFAE7E7A8E7FCBE00082DE9F843C7
:10B0B00004000D0016001F000898F6F763FD814696
:10B0C0000E212800F6F78FFB002802D07FF0010048
:10B0D00013E0D5F80480A8F80C9006223900404609
:10B0E000F8F7A4FD062218F1060731003800F8F73A
:10B0F0009DFD29002000A2699047BDE8F2837047BA
:10B1000080B5DFF80C00FFF7FAFF806902BD000090
:10B110006C01002030B430B90FF24800D0E900458E
:10B12000C2E900451BE00170012030BC704730B41B
:10B1300031B90FF23800D0E90045C3E900450EE00F
:10B140001AB930BC6FF00100704708B10A7802806C
:10B150000978481E804130BCC043C00F70470020B2
:10B1600030BC70470000000000000000000000003C
:10B17000000000000749086808B100207047064831
:10B18000C008C00008600549C908C900091A016063
:10B19000704700BF9C7F0020E7050020E0070020EB
:10B1A00070470000841A71EB030603D2001BB14103
:10B1B000121973414FF4001C1CEB410F34BF7CEBA0
:10B1C000430443E00C0DA4EB1356352E50DC45EA46
:10B1D000C323DB0A45EAC121C912B6F120050DDD02
:10B1E00063FA05F6EB4086EA0305124218BF45F004
:10B1F0000105C01851F100010CD213E062FA06F506
:10B20000F2405540F3415A40B340F3405A40801851
:10B21000594107D349085FEA30005FEA350528BF86
:10B2200045F0010501F58011420875F1004250F129
:10B23000000041EB0451F0BC4FF4001C1CEB410F2B
:10B2400038BF70470020090D090570471CEB410FFE
:10B2500010D252EA43060BD0BCEB410F05D80C0DBF
:10B26000AB43661E342EB5DD02E0AB438018594176
:10B27000F0BC7047F0BC70470300002013F0030FD0
:10B2800009D0521E22BF13F8010B11F801CBB0EB0D
:10B290000C00F3D07047121F22BF53F8040B51F873
:10B2A00004CB6045F7D0121D0AD200BA9CFA8CFC80
:10B2B000B0EB0C0038BF6FF0000088BF0120704772
:10B2C000521E22BF13F8010B11F801CBB0EB0C009A
:10B2D000F6D0521C08BF10467047000010B504009D
:10B2E000002C01D1012033E0A0690028FFD194F89F
:10B2F0003900002805D1002084F83800200000F033
:10B300005BFA242084F839002068C06830F40050CB
:10B310002168C860200000F0C2F82068006930F49D
:10B320009040216808612068406930F02A00216857
:10B3300048612068C06850F400502168C86000204F
:10B34000E063202084F83900202084F83A000020AF
:10B3500010BD2DE9F04182B004000D0016001F0061
:10B360005FF0000894F8390020285DD1002D02D04C
:10B37000B6B2002E01D1012057E094F9380001281F
:10B3800001D1022051E0012084F838000020E06360
:10B39000212084F83900FBF7B6FA8046A684E684BB
:10B3A00003E02878216848606D1CE08C002828D0D4
:10B3B000E08C401EE084A068B0F5805F16D1009755
:10B3C000434600228021200000F031F8002801D0FF
:10B3D00003202AE02888C005C00D21684860206944
:10B3E000002801D1AD1CE0E76D1CDEE70097434665
:10B3F00000228021200000F01AF80028D1D003207C
:10B4000013E00097434600224021200000F00FF88F
:10B41000002801D0032008E0202084F83900002013
:10B4200084F83800002000E00220BDE8F6812DE914
:10B43000F04104000D0016001F00DDF818802068A0
:10B4400000682840A84201D1012000E0002076B227
:10B45000B04221D118F1010FF1D0B8F1000F04D0A2
:10B46000FBF751FAC01B8045E9D22068C06830F470
:10B47000D0702168C8602068406940084000216899
:10B480004861202084F83900202084F83A00002008
:10B4900084F83800032000E00020BDE8F0812DE9A9
:10B4A000F041040000202068006930F44050E16859
:10B4B0000843216808612068C068BC490840A16849
:10B4C0002269114362691143E2691143084321680B
:10B4D000C8602068406930F44070A1690843216861
:10B4E0004861E069B0F5004F40F0B0802068B04995
:10B4F000884203D02068AF49884253D1FEF70EFE40
:10B500008046FEF70BFE0600FEF708FE0700FEF77A
:10B5100005FE0500FEF702FE192101FB08F1626835
:10B520005200B1FBF2F16422B1FBF2F1192202FBED
:10B5300006F263685B00B2FBF3F2192303FB07F327
:10B5400066687600B3FBF6F36426B3FBF6F3642675
:10B5500006FB1322D20032326423B2FBF3F212F064
:10B56000F802520012EB0111192202FB05F2636886
:10B570005B00B2FBF3F21923584363685B00B0FB36
:10B58000F3F06423B0FBF3F0642303FB1020C0004E
:10B5900032306422B0FBF2F010F00700401821684E
:10B5A000886000E1FEF7AAFD8046FEF7A7FD0600D1
:10B5B000FEF7A4FD0700FEF7A1FD0500FEF79EFDC6
:10B5C000192101FB08F162685200B1FBF2F164221B
:10B5D000B1FBF2F1192202FB06F263685B00B2FBD9
:10B5E000F3F2192303FB07F366687600B3FBF6F367
:10B5F0006426B3FBF6F3642606FB1322D200323234
:10B600006423B2FBF3F212F0F802520012EB0111C4
:10B61000192202FB05F263685B00B2FBF3F2192307
:10B62000584363685B00B0FBF3F06423B0FBF3F0B6
:10B63000642303FB1020C00032306422B0FBF2F020
:10B6400010F00700401821688860ACE02068584975
:10B65000884203D020685749884252D1FEF75EFDE8
:10B660008046FEF75BFD0600FEF758FD0700FEF77B
:10B6700055FD0500FEF752FD192101FB08F1626836
:10B680009200B1FBF2F16422B1FBF2F1192202FB4C
:10B6900006F263689B00B2FBF3F2192303FB07F386
:10B6A0006668B600B3FBF6F36426B3FBF6F36426D4
:10B6B00006FB1322120132326423B2FBF3F212F0C2
:10B6C000F00212EB0111192202FB05F263689B00E4
:10B6D000B2FBF3F21923584363689B00B0FBF3F00D
:10B6E0006423B0FBF3F0642303FB1020000132302D
:10B6F0006422B0FBF2F010F00F004018216888605F
:10B7000051E0FEF7FBFC8046FEF7F8FC0600FEF772
:10B71000F5FC0700FEF7F2FC0500FEF7EFFC19212F
:10B7200001FB08F162689200B1FBF2F16422B1FB07
:10B73000F2F1192202FB06F263689B00B2FBF3F2FE
:10B74000192303FB07F36668B600B3FBF6F3642620
:10B75000B3FBF6F3642606FB132212013232642394
:10B76000B2FBF3F212F0F00212EB0111192202FB0C
:10B7700005F263689B00B2FBF3F219235843636838
:10B780009B00B0FBF3F06423B0FBF3F0642303FBF6
:10B790001020000132306422B0FBF2F010F00F00F4
:10B7A000401821688860BDE8F0810000F369FFFF60
:10B7B000001001400014014000B587B000682B491B
:10B7C00088421BD1002000902948006850F01000EA
:10B7D000274908602648006810F010000090009883
:10B7E000C0200190022002900120039003200490C9
:10B7F0000720059001A91F48F9F704FE07B000BD16
:10B8000080B5002000901C48006850F002001A49E2
:10B8100008601948006810F0020000900098134872
:10B82000164908605FF4E13014494860002013496C
:10B83000886000201149C8600020104908610C2070
:10B840000E49486100200D49886100200B49C861FC
:10B850000A48FFF743FD01BD01B54FF6FF73012212
:10B8600069460648FFF775FD009802BD00100140CB
:10B87000443802400004024030380240007E00207C
:10B8800000B593B0002000903748006850F0805019
:10B89000354908603448006810F0805000900098E6
:10B8A000002000903148006850F480402F49086023
:10B8B0002E48006810F48040009000980120069007
:10B8C0005FF48030079002200C905FF480000D90B0
:10B8D00008200E904FF4A8700F90022010900720BF
:10B8E000119006A8FEF7F0F80F20019002200290B8
:10B8F000002003904FF4A05004904FF48050059026
:10B90000052101A8FEF7D4FAFEF7ABFBFEF7F3FB27
:10B910004FF47A71B0FBF1F0F9F70EFF0420F9F75C
:10B920000FFF002200215FF0FF30F9F7EFFE13B0A8
:10B9300000BD80B5FAF7B2FFFFF7A2FFFFF760FF87
:10B94000FEF7C8FC0A48FAF7DDF8FAF771F809487B
:10B95000F8F743FEF7F7C9FF0648FAF758F8054825
:10B96000FAF743F8F3E70000403802400070004067
:10B9700088BC0008407E00201248006850F4700027
:10B98000104908601048006850F001000E49086036
:10B9900000200E4908600C4800680D4908400A491B
:10B9A00008600C480C4908600748006830F48020A3
:10B9B000054908600020094908605FF000600849F7
:10B9C0000860704788ED00E0003802400838024007
:10B9D000FFFFF6FE10300024043802400C3802400D
:10B9E00008ED00E019E050F8041BCB0744BFA9F1B3
:10B9F00001035918121F0023042A41F8043BF9D20D
:10BA00005FEA827C0B4604D54FF0000CA1F800C021
:10BA10009B1CD10744BF0021197050F8042B002A49
:10BA2000E1D1704720C7EBC5E4D6C3B4AEBFDACDD1
:10BA3000F8C2E7D6FACAD6B6CBCEAA636C69656EF1
:10BA400074A3ACB8F9BEDD4950D2D4BCB0506F720B
:10BA500074B5E3BBF7C1ACBDD30A000030B50168D3
:10BA600042688468091801EB5203D20748BF4C446E
:10BA70000C30994200D130BD11F9012B11F8015B56
:10BA8000002A04F8015B02D5521CF9D1F1E7521EDD
:10BA9000F4D5EEE7202053746174653A204C6F6F43
:10BAA0006B696E6720666F7220444843502073654F
:10BAB00072766572202E2E2E0A00000054686520D2
:10BAC0006E6574776F726B206361626C6520697359
:10BAD000206E6F7420636F6E6E6563746564200AF8
:10BAE00000000000FA000000B71B0008E803000097
:10BAF0007D460008E8030000C791000860EA0000E6
:10BB0000236C0008F4010000956C000810B507498B
:10BB100079441831064C7C44163404E00A68081D48
:10BB2000511888470146A142F8D110BDBC00000061
:10BB3000D8000000204D41432020B5D8D6B73A2088
:10BB4000202020202020202025642025642025641A
:10BB50002025640A00000000204448435020474547
:10BB60005420D7D3CDF8D1DAC2EB3A202564202572
:10BB7000642025642025640A000000002044484316
:10BB8000502047455420C4ACC8CFCDF8B9D83A208E
:10BB900025642025642025642025640A0000000017
:10BBA00084BE000890BE00089CBE0008A8BE000825
:10BBB000B4BE0008C0BE0008CCBE0008D8BE000855
:10BBC000E4BE00084EF68851CEF20001086840F449
:10BBD00070000860BFF34F8FBFF36F8F4FF000709E
:10BBE000E1EE100A70470000FDFDFFFFD87700006E
:10BBF000E00700200000000065FEFFFF6C0400006D
:10BC00008E0000000000002020444843502047459B
:10BC1000542049503A2020202020202564202564EB
:10BC20002025642025640A0053544D3332483720C0
:10BC3000544350205365727665722073656E64209C
:10BC4000646174610D0A0000C1ACBDD3B5C4B5E731
:10BC5000C4D4B6CB4950CEAAA3BA2564202564200B
:10BC600025642025640A00007047FEE7FEE7FEE732
:10BC7000FEE770477047704780B5FAF73EFEF9F768
:10BC800081FD01BD7047000059532D4650726FCDA4
:10BC9000F8C2E7B2E2CAD4A3AC70696E67B2E2CA76
:10BCA000D40A000020B7FECEF1C6F7204950A3BA4F
:10BCB00020202025642025642025642025640A0096
:10BCC00000F00BF8002801D0FFF720FF0020C0464D
:10BCD000C046FFF72EFE00F002F80120704700F08A
:10BCE00001B800000746384600F002F8FBE7000004
:10BCF00080B5C046C046024A11001820ABBEFBE723
:10BD00002600020053746174696320495020616405
:10BD100064726573733A2025730A0000B6CFBFAA18
:10BD2000CDF8CFDFA3ACD0E8D6D8C1ACC1ACBDD381
:10BD30000A0000006B657931BCFCB0B4CFC2A3AC83
:10BD4000B7A2CBCDCAFDBEDD0A0000007463705FF0
:10BD50007365727665725F726563766275663D259E
:10BD6000730A000038B504460D46284600F006F870
:10BD7000A84218BF0024204632BD00000149FFF749
:10BD80006BBD00BF10000020444843502054696D33
:10BD9000656F7574202121200A000000C1ACBDD35D
:10BDA000CDF8CFDFA3ACC5E4D6C34D41430A0000B4
:10BDB00020B7FECEF1C6F720706F7274A3BA256467
:10BDC0000A000000444843505F73746174653D2568
:10BDD000640A0000B3C9B9A6C1ACBDD3CDF8BFA8F1
:10BDE0000A000000455448B3F5CABCBBAFB3C9B99B
:10BDF000A60A0000455448B3F5CABCBBAFCAA7B0F9
:10BE0000DC0A000000000000000000000102030442
:10BE100006070809010203040506070707070707C5
:10BE200007000000607F00205C7F0020647F00200E
:10BE3000687F002020B4B4BDA8D0C2544350B3C919
:10BE4000B9A60A0020544350B0F3B6A8B3C9B9A6A6
:10BE50000A00000020BDF8C8EBBCE0CCFDD7B4CC94
:10BE6000AC0A0000B6CFBFAA746370C1B4BDD30AD8
:10BE700000000000014880470148004779B90008E8
:10BE8000F1BE00082000060040780020287F002036
:10BE900094000A00187000202C7F00201C00050070
:10BEA000F07A0020307F002010000800807B002006
:10BEB000347F00202000050004790020387F002016
:10BEC00018000F00E47500203C7F002010000A00DD
:10BED000A8790020407F002010000A004C7A002042
:10BEE000447F002010020800945F0020487F00205B
:10BEF000C046C046FFF766FEFFF7E2FEFFFFFFFF0A
:10BF0000FFFF000000000000000000000200000031
:10BF100000000000000000000102030403060C18EA
:10BF20003060780000000000FFFFFFFFFFF7FEBF5A
:10BF3000FFF7FEBFFFF7FEBFFFF7FEBFFFF7FEBF35
:10BF4000FFF7FEBFFFF7FEBFFFF7FEBFFFF7FEBF25
:10BF5000FFF7FEBFFFF7FEBFFFF7FEBFFFF7FEBF15
:10BF6000FFF7FEBFFFF7FEBFFFF7FEBFFFF7FEBF05
:10BF7000FFF7FEBFFFF7FEBFFFF7FEBFFFF7FEBFF5
:10BF8000FFF7FEBFFFF7FEBFFFF7FEBFFFF7FEBFE5
:10BF9000FFF7FEBFFFF7FEBFFFF7FEBFFFF7FEBFD5
:10BFA000FFF7FEBFFFF7FEBFFFF7FEBFFFF7FEBFC5
:10BFB000FFF7FEBFFFF7FEBFFFF7FEBFFFF7FEBFB5
:10BFC000FFF7FEBFFFF7FEBFFFF7FEBFFFF7FEBFA5
:10BFD000FFF7FEBFFFF7FEBFFFF7FEBFFFF7FEBF95
:10BFE000FFF7FEBFFFF7FEBFFFF7FEBFFFF7FEBF85
:10BFF000FFF7FEBFFFF7FEBFFFF7FEBFFFF7FEBF75
:10C00000FFF7FEBFFFF7FEBFFFF7FEBFFFF7FEBF64
:10C01000FFF7FEBFFFF7FEBFFFF7FEBFFFF7FEBF54
:10C02000FFF7FEBFFFF7FEBFFFF7FEBFFFF7FEBF44
:10C03000FFF7FEBFFFF7FEBFFFF7FEBFFFF7FEBF34
:10C04000FFF7FEBFFFF7FEBFFFF7FEBFFFF7FEBF24
:10C05000FFF7FEBFFFF7FEBFFFF7FEBFFFF7FEBF14
:10C06000FFF7FEBFFFF7FEBF2F01031C060024F4FD
:10C07000006E19000028BC000802040101687D0060
:10C0800020B87D0020687D0020687D0020687D004C
:10C09000204D00002034000020DC0000018100DC85
:0FC0A00000F8FFDC00FAFF8100D00002C000C0F2
:040000050800BEF140
:00000001FF
