:020000040800F2
:10000000B88F00209D010008732D0008C32A000846
:10001000712D000815030008553800080000000085
:10002000000000000000000000000000212F000878
:100030008505000800000000C52D0008232F0008DA
:10004000B7010008B7010008B7010008B7010008B0
:10005000B7010008C72D0008B7010008B701000864
:10006000B7010008B7010008B7010008B701000890
:10007000B7010008B7010008B7010008B701000880
:10008000B7010008B7010008B7010008B701000870
:10009000B7010008B7010008B7010008B701000860
:1000A000B7010008B7010008B7010008B701000850
:1000B000B7010008B7010008B7010008B701000840
:1000C000B7010008B7010008B7010008B701000830
:1000D000B7010008B7010008B70100084938000857
:1000E000B7010008B7010008B7010008B701000810
:1000F000B7010008B7010008B7010008B701000800
:10010000B7010008B701000825300008B701000852
:10011000B7010008B701000831300008B701000836
:10012000B7010008B7010008B7010008B7010008CF
:10013000B7010008FD050008B7010008B701000875
:10014000B7010008B7010008B7010008B7010008AF
:10015000B7010008B7010008B7010008B70100089F
:10016000B7010008B7010008B7010008B70100088F
:10017000B7010008B7010008B7010008000000003F
:10018000B7010008B7010008DFF80CD000F078F8DC
:1001900000480047CD650008B88F0020064880471A
:1001A00006480047FEE7FEE7FEE7FEE7FEE7FEE75C
:1001B000FEE7FEE7FEE7FEE7CD2F00088901000815
:1001C0000649074A0868504343F239021044086060
:1001D000400870470149086070470000580100203E
:1001E0006D4EC64140EA01039B0703D009E008C9F0
:1001F000121F08C0042AFAD203E011F8013B00F8EC
:10020000013B521EF9D27047D2B201E000F8012B37
:10021000491EFBD270470022F6E710B513460A4686
:1002200004461946FFF7F0FF204610BD421C10F8A7
:10023000011B0029FBD1801A704730B5044600200D
:10024000034600E05B1C934203D2E05CCD5C401BA4
:10025000F8D030BD30B50B460146002020220124E5
:1002600009E021FA02F59D4205D303FA02F5491B84
:1002700004FA02F52844151EA2F10102F1DC30BD9A
:10028000064C074D06E0E06840F0010394E80700E3
:1002900098471034AC42F6D3FFF77AFF74A30008F6
:1002A00094A3000830B58C1810F8012B12F00F033E
:1002B00001D110F8013B120906D110F8012B03E01F
:1002C00010F8015B01F8015B5B1EF9D101E001F858
:1002D000013B521EFBD1A142E6D3002030BD0000FD
:1002E00010B582B00A4809490160532141600024D9
:1002F000846040F2E731C16001F0D3FD00940194C5
:100300006946034801F09AFD02B010BD001000409C
:10031000903A0020FEE7000070B5054601F00CF9A8
:10032000074C6168401AB0F5FA7F07D301F004F971
:1003300060602846BDE8704000F004B870BD000061
:10034000700000202DE9F04186B004464C4E307814
:10035000022701280DD04FF00008022813D00528ED
:1003600004D1204604F030FC86F8008006B0BDE8D9
:10037000F0813770204604F0DDFB42A003F06CFBF7
:1003800006B0BDE8F081317848A003F065FB204657
:1003900004F02CFC494D002845D0032030706668DD
:1003A000424685F80380AA706A7039462F7013465A
:1003B00043A0009203F050FB300E6872C6F307436F
:1003C0002B72C6F30722EA71F1B2A971009045A021
:1003D00003F042FBA0684FEA106C85F80DC0C0F333
:1003E00007432B73C0F30722EA72C1B2A97245A07A
:1003F000CDF800C003F030FBE0684FEA106C85F8E0
:1004000011C0C0F307432B74C0F30722EA73C1B2D3
:10041000A97345A0CDF800C003F01EFB03F01CFA41
:1004200006B0BDE8F081606A807A0428F8D904201B
:100430003070204604F0C8FB444860606FF07F4095
:10044000A0604348E060201D05F05CFD024641A12C
:1004500001A803F011FB40A003F0FEFA01A943A09C
:1004600003F0FAFA0E2068720A202872A820E871B8
:10047000C020A87103F0F0F906B0BDE8F0810000DB
:1004800070000020202053746174653A204C6F6F17
:100490006B696E6720666F72204448435020736515
:1004A00072766572202E2E2E0A00000044484350BA
:1004B0005F73746174653D25640A000010020020BA
:1004C000204D41432020B5D8D6B73A202020202007
:1004D0002020202025642025642025642025640A0E
:1004E0000000000020444843502047455420495014
:1004F0003A20202020202025642025642025642007
:1005000025640A0020444843502047455420D7D34F
:10051000CDF8D1DAC2EB3A20256420256420256489
:100520002025640A0000000020444843502047452D
:100530005420C4ACC8CFCDF8B9D83A2025642025C2
:10054000642025642025640A00000000C0A80A0E6B
:10055000C0A80A0125730000444843502054696D27
:10056000656F7574202121200A00000053746174A6
:10057000696320495020616464726573733A202571
:10058000730A00007047006800F58050816941F0EF
:10059000020181617047006800F58050816941F473
:1005A000005181617047000081B007494FF4FA5251
:1005B0000968B1FBF2F14843009000BF0098411E6A
:1005C0000091FAD201B070479400002038B504467B
:1005D000206800F58050816941F4801181612068B4
:1005E00000F58050806900900120FFF7DDFF216851
:1005F000009801F58051886138BD000010B505F004
:1006000091FF05484FF48031006800F5805041614A
:100610004021416110BD0000C4320020107953799F
:1006200040EA032301F1804000F520300364117893
:10063000D37841EA0361937852781B0443EA02229B
:1006400011434164704700002DE9F041AEB004460B
:10065000002904D04FF40060E060C000A0600025D5
:10066000109511951295139514951595E06900282C
:100670007DD016954FF400701790189519951A951E
:100680001B951C954FF04008CDF874801E951F9562
:1006900020952195229523952495259580272697A9
:1006A0002795289529952A952B952C9520680168E2
:1006B000474A1140E368A2681A43169B1A4342F462
:1006C00000721143016020680668012000F08EF975
:1006D000206806602068C0F8048020684668012011
:1006E00000F084F920684660206885602068C56055
:1006F000206881694FF64172114041F080018161AB
:1007000020688669012000F071F920688661206800
:10071000C5612068C669012000F068F92068C661DB
:100720000095B80401900295011103910495059577
:100730000695079504210891099040120A908001BE
:100740000B9040120C900D970E950F95206800F5B8
:10075000805081691F4A114041F0040141F0087145
:100760008161206800F580508569012000E019E072
:1007700000F03CF9206800F580508561216816483A
:1007800001F580510860206800F58050056801205F
:1007900000F02CF9206800F580500560A069012860
:1007A00004D00CE04FF48060169063E7206800F5F9
:1007B0008050C16941F0400141F48031C1616269FA
:1007C0002EB02046BDE8F0410021FFF727BF000012
:1007D0000F8120FF233FDEF88020C10238B5044698
:1007E0002068016841F00401016020680068009001
:1007F0000120FFF7D9FE21680098086038BD38B5A0
:1008000004462068016841F0080101602068006822
:1008100000900120FFF7C8FE21680098086038BDED
:1008200010B50A460146044800F020FC10B14FF014
:10083000FF3010BD002010BDC432002008B50020DC
:10084000009069460120FFF7EBFF69460120FFF7A2
:10085000E7FF009810F0040F19D069460020FFF759
:10086000DFFF009810F4805F13D069461F20FFF768
:10087000D7FF009810F4805F1DD000F01C001828EE
:100880001BD008281BD014281BD0052008BD012030
:1008900008BD4FF40451814304D010F4005F03D02D
:1008A000032008BD022008BD10F4807F01D0042081
:1008B00008BD052008BD062008BD022008BD032094
:1008C00008BD042008BD000070B5054600F034FEE8
:1008D000064CA168401A642807D300F02DFEA060E2
:1008E0002846BDE8704004F091BD70BD7000002046
:1008F00030B58DB015481449016053214160002482
:1009000084604FF6FF75C5600461082101F09CFC0E
:100910004FF48050089008A90C4801F016FB3020D5
:10092000019002950394082004900594069407947E
:10093000002201A9054801F04BFC042201A903484B
:1009400001F046FC0DB030BD000C0040143A002010
:1009500010B50121034800F0DDFD08B1002010BDF5
:10096000012010BD0010024010B50221034800F024
:10097000D1FD08B1002010BD012010BD00100240C3
:1009800010B50421034800F0C5FD08B1002010BDDA
:10099000012010BD0010024010B50821034800F0EE
:1009A000B9FD08B1002010BD012010BD00100240AB
:1009B00010B51021034800F0ADFD08B1002010BDB6
:1009C000012010BD0010024090F83510022903D01C
:1009D0008021416501207047052180F835100068AD
:1009E000016821F0010101600020704731B500F07D
:1009F000A3FD0546009CB4F1FF3F00D0641C00F04D
:100A00009BFD401BA042FAD338BD00002DE9F04108
:100A100005460C4695F84500012877D0012785F852
:100A20004570022085F84400002C72D028680168C7
:100A3000434A114063682268D4F80CC01A43A36883
:100A400043EA0C031A43AB681A4323691A436369E8
:100A50001A43EB681A43A3691A43E3691A43236AEA
:100A60001A43636A1A43A36A1A4311430160286850
:100A700006680120FFF7BAFF28680660216BE06A6C
:100A8000A26B0843616B11430843E16B0843216C7F
:100A90000843616C0843A16C0843296848602868D2
:100AA00046680120FFF7A2FF286846602968E06CCD
:100AB00088602968206DC860286881694FF6417296
:100AC0001140E36DA26DB4F854C01A43236E43EA9B
:100AD0000C431A43636E1A43A36E1A431143816198
:100AE000286886690120FFF781FF28688661216FE9
:100AF000E06E08432968C8612868C4690120FFF7CF
:100B000075FF2868C46114E000E002E00220BDE83F
:100B1000F0812868016821F49041EB68AA681A43C3
:100B200011430160286804680120FFF75FFF28680F
:100B3000046085F84470002085F84500BDE8F08128
:100B40000F8120FF2DE9F0034FF0000C90F8454095
:100B5000012C21D0012780F84570022480F8444000
:100B60008162002B21D94FF0004944F2F4585E1EF7
:100B700001EB4C14C4F80090C4F80480CCEBCC1505
:100B800005EB450502EB8505A5608569B44507D2EF
:100B900004F12005E56004E0BDE8F00302207047A1
:100BA000E1600CF1010C9C45E2D3026802F5805231
:100BB000D16080F84470002180F84510BDE8F00352
:100BC000002070472DE9F003002490F845C0BCF1E7
:100BD000010F1BD0012780F845704FF0020C80F800
:100BE00044C0C162002B27D94FF480185E1E01EB70
:100BF000441CCCF80080C4EBC41505EB450502EBA2
:100C00008505CCF80850C56925B109E0BDE8F003B9
:100C100002207047DCF8005045F44009CCF8009001
:100C2000B44204D20CF12005CCF80C5001E0CCF811
:100C30000C10641C9C42DAD3026802F580521161E8
:100C400080F84470002180F84510BDE8F0030020D2
:100C5000704710B4002290F84510012908D00123F4
:100C600080F84530022180F844104FF0000C1FE05E
:100C700010BC02207047521C0C6804F44074B4F598
:100C8000007F0BD00C6814F4407F0CD0826A426362
:100C9000826B521C8263012A10D010E001638363CF
:100CA000C968816204E0846B641C8463C9688162E2
:100CB000816A0C6814F0004F12D013E001630A68D7
:100CC000C2F30D42121FC263026B92680264C968CC
:100CD000816280F8443080F845C010BC0020704725
:100CE000042AC8D380F8443080F845C010BC0120E5
:100CF000704700002DE9F04383B0044600270297B7
:100D0000B846002C03D094F8440020B108E003B0AA
:100D10000120BDE8F08384F84570204600F022F9F8
:100D20008648016841F480410160006800F4804019
:100D300001908348016821F4000101600168226A82
:100D400011430160206800F58050016841F0010105
:100D5000016000F0F1FB0546206800F58050006856
:100D600010F0010F14D000F0E7FB401BB0F5FA7F44
:100D700007D9032084F8440084F8457003B0BDE827
:100D8000F083206800F58050006810F0010FEAD170
:100D90002068006920F01C0500F08EFD69496A4A50
:100DA0000144914202D245F0080516E06749684ABD
:100DB0000144914202D245F00C050EE06549664AB5
:100DC0000144914209D3654908446549884202D2E9
:100DD00045F0040501E045F01005206805614FF479
:100DE00000420021204600F045FA4FF0010948B1C9
:100DF00001212046FFF728FC84F8449003B001202D
:100E0000BDE8F083FF20FFF7F1FD606800286FD098
:100E100000F092FB064641F2883502AA01212046E5
:100E200000F024F900F088FB801BA8420BD90121B7
:100E30002046FFF709FC84F8449084F8457003B01D
:100E40000320BDE8F083029810F0040FE5D04FF4C2
:100E500080520021204600F00DFA48B101212046C1
:100E6000FFF7F2FB84F8449003B00120BDE8F08363
:100E700000F062FB064602AA0121204600F0F6F8C7
:100E800000F05AFB801BA8420BD901212046FFF736
:100E9000DBFB84F8449084F8457003B00320BDE880
:100EA000F083029810F0200FE5D002AA102120460E
:100EB00000F0DCF848B101212046FFF7C5FB84F8BB
:100EC000449003B00120BDE8F083029810F0040FB5
:100ED00003D04FF40061E16000E0E76010F0020F22
:100EE00001D0A7601FE04FF48040A0601BE0FFE747
:100EF000E068A168C0F3CF00C1F34F0140EA0102EE
:100F00000021204600F0B6F948B101212046FFF744
:100F10009BFB84F8449003B00120BDE8F08340F6C9
:100F2000FF70FFF763FD41462046FFF78DFB84F815
:100F3000449003B00020BDE8F08300004438024034
:100F40000438014000D3CEFEC0E1E40040F1E9FDE9
:100F500040787D0100796CFC005A6202001F0AFA99
:100F600080F0FA02F0B587B000243B48016841F0F8
:100F700001010160016801F001010191016841F086
:100F800004010160016801F004010191016841F070
:100F900002010160016801F002010191016841F064
:100FA00040010160016801F040010191016841F0D8
:100FB00000710160016801F000710191016841F068
:100FC00080610160016801F080610191016841F078
:100FD00000610160006800F0006001901F4E012276
:100FE0000421304600F0A1FA04210291012103916D
:100FF000049402250595069402A9304600F07CF978
:101000003220029003950494032605960B27069739
:1010100002A9134800F070F9862002900395049409
:101020000596069702A90F4800F066F94FF4D040E4
:101030000290039504940596069702A90A4800F0C9
:101040005BF9002201213D2000F0F2FA3D2000F082
:10105000E3FA07B0F0BD000030380240000402405F
:101060000008024000000240001802402DE9F04153
:101070000446174694F8440082282CD0822084F835
:1010800044002068026902F01C02238A4FF4784C65
:101090000CEAC3231A434FF4F86303EA81111143A6
:1010A00021F0020141F00106066100F045FA054613
:1010B00016F0010F4FF0010615D000F03DFA401B6D
:1010C000B0F5803F0AD384F84460002084F84500DE
:1010D0000320BDE8F0810220BDE8F08120680069AE
:1010E00010F0010FE9D12068406980B2386084F8BF
:1010F00044600020BDE8F08170B5044694F84500D6
:1011000001281AD0012584F84550022084F84400B3
:101110002046FFF774FB2046FFF760FB2046FFF7F1
:1011200055FA2046FFF737FA2046FFF72CFA84F8E5
:101130004450002084F8450070BD022070BD2DE9A8
:10114000F001002290F84530012B17D0012580F8DE
:101150004550022380F84430002499B1D0F82CC0C7
:10116000DCF8003013F0004F14D0122180F8441046
:1011700080F84540BDE8F00101207047BDE8F0016E
:101180000220704780F8445080F84540BDE8F001E7
:101190000120704740F2F456B14208D9B1FBF6F392
:1011A000B1FBF6F706FB171717B15B1C00E0012334
:1011B000012B16D0002B48D9C3F10107C7EBC71785
:1011C00007EB470701EB8701A3F1010CC1F30C0703
:1011D000C16AD1F8008028F04058C1F800809AB167
:1011E00019E0DCF8002042F04052CCF80020C26A3E
:1011F000C1F30C015160C16A0A6842F000420A6002
:10120000C16AC968C16220E0C16AD1F8008048F0B3
:101210008058C1F80080C16A4E60624508D1C16A39
:10122000D1F8008048F00058C1F80080C16A4F60D2
:10123000C16AD1F8008048F00048C1F80080C16A56
:10124000C968C162521C9A42C2D3016801F580513B
:101250004A6912F0040F05D004224A61016801F5C1
:1012600080514C6080F8445080F84540BDE8F00162
:101270000020704770B5044694F84400422830D0EE
:10128000422084F844002068036903F01C03B4F88A
:1012900010C04FF4784505EACC2C4CEA03034FF418
:1012A000F86C0CEA8111194341F0020141F001068A
:1012B00091B241612068066100F03EF9054616F0E2
:1012C000010F4FF0010613D000F036F9401BB0F5C6
:1012D000803F08D384F84460002084F84500032050
:1012E00070BD022070BD2068006910F0010FEBD1C5
:1012F00084F84460002070BD2DE9F84F0022DFF82B
:101300000082DFF80092DFF800A24FF0030E0F27F3
:10131000012303FA02F50B682B40AB427DD1D1F8D3
:1013200004C0BCF1020F02D0BCF1120F12D14FEA7F
:10133000D20C00EB8C0CDCF820605407E40E07FAAA
:1013400004FB26EA0B06D1F810B00BFA04F4344380
:10135000CCF8204006684FEA420C0EFA0CF4A64383
:1013600091F804B00BF0030B0BFA0CFB4BEA0606EA
:1013700006604E68012E05D0022E03D0112E01D03A
:10138000122E11D18668A643D1F80CB00BFA0CFBD3
:101390004BEA06068660466826EA05050E79C6F31E
:1013A0000016964035434560C56825EA04048D68FB
:1013B00005FA0CFC4CEA040CC0F80CC0D1F804C0CF
:1013C0001CF0805F7DD0D8F800C04CF4804CC8F889
:1013D00000C0D8F800C00CF4804CCDF800C022F05A
:1013E000030C0CF1804404F59834D4F808C8950730
:1013F0002D0F07FA05F62CEA0606A0F1804CBCF585
:10140000003C64D0A0F1804CBCF5013C62D0A0F15E
:10141000804CBCF5023C60D000E052E0A0F1804C72
:10142000BCF5033C5CD0A0F1804CBCF5043C5AD028
:10143000A0F1804CBCF5053C58D0A0F1804CBCF527
:10144000063C56D0A0F1804CBCF5073C54D04FF080
:10145000080C0CFA05FC4CEA060CC4F808C8D9F8CC
:1014600000C02CEA030C4C6814F4803F01D04CEA15
:10147000030CC9F800C0254CD4F800C02CEA030CBA
:101480004D6815F4003F01D04CEA030CC4F800C0CD
:10149000DAF800C02CEA030C4C6814F4801F01D069
:1014A0004CEA030CCAF800C0194CD4F800C02CEA6E
:1014B000030C4D6815F4001F01D04CEA030CC4F86E
:1014C00000C0521C102AFFF423AFBDE8F88F4FF084
:1014D000000CBEE74FF0010CBBE74FF0020CB8E781
:1014E0004FF0030CB5E74FF0040CB2E74FF0050CDA
:1014F000AFE74FF0060CACE74FF0070CA9E7000090
:1015000044380240003C0140083C0140043C01409A
:101510000C3C01400069084201D0012070470020C6
:1015200070474269514041617047002A01D0816192
:1015300070470904816170470148006870470000E6
:101540009000002002480168491C016070470000BB
:101550009000002010B50B48016841F40071016053
:10156000016841F480610160016841F480710160AB
:10157000032000F091F8002000F006F800F018F8C1
:10158000002010BD003C024010B5044607484FF44F
:101590007A720068B0FBF2F000F036FC00222146BF
:1015A000501E00F045F8002010BD000094000020FF
:1015B00010B5032000F070F8002211466FF00B0008
:1015C00000F036F8002211466FF00A0000F030F803
:1015D000002211466FF0090000F02AF8002211469F
:1015E000501F00F025F800221146101F00F020F8CF
:1015F00000221146901E00F01BF800221146501EDA
:1016000000F016F800221146052000F011F8BDE8A0
:1016100010400520AFF3008000F01F01012202FA04
:1016200001F14009800000F1E020C0F8001170478E
:1016300010B4184B1B68C3F30223C3F1070CBCF1B1
:10164000040F01D94FF0040C1C1D072C01D20023FC
:1016500000E0DB1E012404FA0CFCACF1010C0CEAE6
:101660000101994004FA03F35B1E1A40114300285C
:1016700008DA00F00F0000F1E020090180F8141DE5
:1016800010BC704700F1E020090180F8001410BC84
:10169000704700000CED00E000F00700064A1168FA
:1016A0004FF6FF03194041EA002040F0FD7040F082
:1016B00080601060704700000CED00E02DE9F05FE5
:1016C00004460E46DFF8D091D9F80000F7B200F0DA
:1016D0000F00B0420AD289F80070D9F8000000F07B
:1016E0000F00B04202D00120BDE8F09F2078DFF863
:1016F000AC8110F0020F07D0D8F80000A16820F0EC
:10170000F0000843C8F80000207810F0010F51D015
:1017100060686349012808D002280DD003280BD047
:10172000096811F0020F2ED00AE0096811F4003F99
:1017300006D10120BDE8F09F096811F0007F1FD09D
:10174000D8F8001021F003010843C8F80000FFF7A3
:10175000F3FE0546606841F2883A012816D0022857
:1017600029D003283CD0D8F8000010F00C0F51D03D
:10177000FFF7E2FE401B504547D90320BDE8F09F2C
:101780000120BDE8F09F0120BDE8F09FD8F80000DF
:1017900000F00C0004283DD0FFF7CEFE401B504562
:1017A00002D90320BDE8F09FD8F8000000F00C003B
:1017B0000428F1D12EE0D8F8000000F00C00082831
:1017C00028D0FFF7B9FE401B504502D90320BDE8E1
:1017D000F09FD8F8000000F00C000828F1D119E0C3
:1017E000D8F800004FF00C0B3BEA000012D0FFF7D6
:1017F000A3FE401B504502D90320BDE8F09FD8F856
:1018000000003BEA0000F2D104E0D8F8000010F03C
:101810000C0FADD1D9F8000000F00F00B0420AD98A
:1018200089F80070D9F8000000F00F00B04202D033
:101830000120BDE8F09F207810F0040F07D0D8F801
:101840000000E16820F4E0500843C8F80000207868
:1018500010F0080F08D0D8F80000216920F460408B
:1018600040EAC100C8F8000000F058F8D8F80010AD
:10187000F02292FAA2F201F0F001B2FA82F2D14023
:10188000084A515CC840084908600020FFF77CFE08
:101890000020BDE8F09F0000003C024008380240F4
:1018A00000380240C29F0008940000200149012036
:1018B000C864704700004742014800687047000054
:1018C0009400002000B5FFF7F7FF074909684FF4BF
:1018D000E05292FAA2F201F4E051B2FA82F2D1405F
:1018E000024A515CC84000BD08380240D29F00083F
:1018F00000B5FFF7E1FF074909684FF4604292FA2B
:10190000A2F201F46041B2FA82F2D140024A515C83
:10191000C84000BD08380240D29F000810B41F48DC
:10192000006810F00C011E481BD04FEA600C04291F
:1019300016D0082915D11B4A116801F03F01136820
:1019400013F4800F47F6C0730DD0BCFBF1F01168A3
:10195000194093FAA3F3B3FA83F3D94048430CE058
:10196000604610BC7047B0FBF1F01168194093FA63
:10197000A3F3B3FA83F3D940484311684FF44032DC
:1019800092FAA2F201F44031B2FA82F2D140491C3B
:101990004900B0FBF1F010BC70470000083802406D
:1019A0000024F400043802402DE9F84F0446DFF823
:1019B0001C842078A8F1040710F0010FA7F104059A
:1019C00060D0D8F8000000F00C00042809D0D8F846
:1019D000000000F00C0008280DD1386810F4800FCA
:1019E00009D0286810F4003F4CD06068002849D125
:1019F0000120BDE8F88F6068B0F5803F14D0B0F5E5
:101A0000A02F16D0286820F480302860286820F4A1
:101A100080202860606810B3FFF78EFD06462868B6
:101A200010F4003F0ED02DE0286840F4803028608C
:101A3000F0E7286840F480202860286840F480306F
:101A40002860E7E7FFF778FD801B642802D90320B0
:101A5000BDE8F88F286810F4003FF3D012E0FFF7DC
:101A60006BFD0646286810F4003F0BD0FFF764FDBD
:101A7000801B642802D90320BDE8F88F286810F481
:101A8000003FF3D12078DFF8489310F0020F4FF0B9
:101A9000000663D0D8F800004FF0F80B10F00C0FE0
:101AA00016D0D8F8000000F00C00082803D13868E0
:101AB00010F4800F0CD0E068C8B30120C9F8000012
:101AC000FFF73AFD8246286810F0020F16D022E098
:101AD000286810F0020F05D0E068012802D001202C
:101AE000BDE8F88F28689BFAABF22169B2FA82F25E
:101AF00020F0F8009140084328602FE0FFF71CFD1C
:101B0000A0EB0A00022802D90320BDE8F88F28685C
:101B100010F0020FF2D028689BFAABF22169B2FAFA
:101B200082F220F0F80091400843286016E0FFE7B9
:101B3000C9F80060FFF700FD8246286810F0020F28
:101B40000CD0FFF7F9FCA0EB0A00022802D9032011
:101B5000BDE8F88F286810F0020FF2D1207810F05D
:101B6000080F34D09B48DFF870B26169C1B1012120
:101B70000160FFF7E1FC8246DBF8000010F0020F85
:101B800025D1FFF7D9FCA0EB0A00022802D90320D7
:101B9000BDE8F88FDBF8000010F0020FF1D016E07E
:101BA0000660FFF7C9FC8246DBF8000010F0020F68
:101BB0000DD0FFF7C1FCA0EB0A00022802D90320D8
:101BC000BDE8F88FDBF8000010F0020FF1D12078AB
:101BD00010F0040F43D08148016841F0805101604A
:101BE000006800F080500090DFF8F4B1DBF80000EE
:101BF00040F48070CBF80000FFF79EFC8246DBF8D3
:101C0000000010F4807F0DD1FFF796FCA0EB0A00D6
:101C1000022802D90320BDE8F88FDBF8000010F499
:101C2000807FF1D0A068DFF8BCB1012818D005286A
:101C30001DD0DBF8000020F00100CBF80000DBF83D
:101C4000000020F00400CBF80000A06868B3FFF7A4
:101C500073FC8246DBF8000010F0020F14D03CE069
:101C6000DBF8000040F00100CBF80000EDE7DBF806
:101C7000000040F00400CBF80000DBF8000040F06A
:101C80000100CBF80000E0E7FFF756FCA0EB0A01EB
:101C900041F28830814202D90320BDE8F88FDBF899
:101CA000000010F0020FEFD017E0FFF745FC82466E
:101CB000DBF8000010F0020F0FD0FFF73DFCA0EBA7
:101CC0000A0141F28830814202D90320BDE8F88F31
:101CD000DBF8000010F0020FEFD1A069F0B3D8F8E4
:101CE000001001F00C0108296CD0022810D0C9F8AE
:101CF0006060FFF721FC0446286810F0007F5ED08A
:101D0000FFF71AFC001B022855D90320BDE8F88F05
:101D1000C9F86060FFF710FC0646286810F0007FE5
:101D20000BD0FFF709FC801B022802D90320BDE875
:101D3000F88F286810F0007FF3D1216AE0694FF036
:101D4000FF3340EA010247F6C07191FAA1F1606ADF
:101D5000B1FA81F100FA01F1A06A00E02FE003EB93
:101D600050004FF4403393FAA3F3B3FA83F398404F
:101D7000084310434FF0706292FAA2F2E16AB2FA9D
:101D800082F29140084338600120C9F86000FFF7F3
:101D9000D3FB0446286810F0007F10D1FFF7CCFB7E
:101DA000001B022802D90320BDE8F88F286810F034
:101DB000007FF3D003E0286810F0007FA0D100205E
:101DC000BDE8F88F0120BDE8F88F00000838024018
:101DD00000004742800E47427438024040380240BB
:101DE00000700040703802404FF0E021042804D019
:101DF000086920F0040008617047086940F0040099
:101E00000861704770470000401EB0F1807F01D329
:101E1000012070474FF0E0214861044AF020107023
:101E200000208861072008610020704723ED00E052
:101E300010B5FFF7E7FF10BD7047704710B490F87A
:101E40003820012A2AD0012380F83830022280F875
:101E500039200268D2F804C02CF0700CC2F804C01B
:101E60000268D2F804C00C684CEA040CC2F804C042
:101E70000268D2F808C02CF0800CC2F808C00268D2
:101E8000D2F808C049684CEA0101916080F8393005
:101E9000002180F8381010BC0020704710BC0220D0
:101EA000704710B50446002C03D094F8390010B1E7
:101EB00007E0012010BD002084F83800204600F023
:101EC0000DF8022084F83900211D206801F0B6F8D1
:101ED000012084F83900002010BD000008B500681A
:101EE000A0F18041B1F5805112D10A48016841F05A
:101EF00010010160006800F0100000900022012134
:101F00003620FFF795FBBDE808403620FFF784BB7D
:101F100008BD000040380240022180F839100168F5
:101F20000A6842F001020A60012180F8391000209D
:101F300070470168CA6842F00102CA60006801681F
:101F400041F0010101600020704770B5044694F82B
:101F50003800012818D0012584F83850022084F870
:101F600039002068826822F0770222F47F42826082
:101F7000086850283AD00EDC20285FD006DC002804
:101F800052D0102863D154E0022070BD30285AD0BE
:101F900040285CD13EE0602832D070280CD0B0F5EB
:101FA000805F03D0B0F5005F51D113E020688168F5
:101FB00021F0070181604AE0CB684A68896820689F
:101FC00001F0A0F82068816821F0770141F07701E5
:101FD00081603CE0CB684A688968206801F092F82B
:101FE0002068816841F48041816030E0CA684968B6
:101FF000206801F06AF95021206801F08EF826E08F
:10200000CA684968206801F073F96021206801F00E
:1020100084F81CE0CA684968206801F056F940213C
:10202000206801F07AF812E00021206801F075F8CC
:102030000DE01021206801F070F808E020212068F0
:1020400001F06BF803E03021206801F066F884F8B5
:102050003950002084F8380070BD704770B50446D0
:10206000206801694FF0000511F0020F17D0C16818
:1020700011F0020F13D0E91E0161012020762068C3
:10208000806910F0030F03D02046FFF7E6FF05E05C
:10209000204600F0C9F8204600F01AF9257620689D
:1020A000016911F0040F18D0C16811F0040F14D0A9
:1020B0006FF004010161022020762068806910F42D
:1020C000407F03D02046FFF7C8FF05E0204600F020
:1020D000ABF8204600F0FCF825762068016911F085
:1020E000080F18D0C16811F0080F14D06FF0080164
:1020F0000161042020762068C06910F0030F03D02E
:102100002046FFF7AAFF05E0204600F08DF82046A4
:1021100000F0DEF825762068016911F0100F18D064
:10212000C16811F0100F14D06FF010010161082088
:1021300020762068C06910F4407F03D02046FFF766
:102140008CFF05E0204600F06FF8204600F0C0F854
:1021500025762068016911F0010F09D0C16811F0DE
:10216000010F05D06FF001010161204600F0B2F8C7
:102170002068016911F0800F09D0C16811F0800F4B
:1021800005D06FF0800101612046FFF755FE206801
:10219000016911F0400F09D0C16811F0400F05D05E
:1021A0006FF040010161204600F004FA20680169E7
:1021B00011F0200F0BD0C16811F0200F07D06FF085
:1021C000200101612046BDE87040FFF736BE70BDBA
:1021D00070B5044694F8380001280DD0012584F824
:1021E0003850022084F8390042B1042A0AD0082A63
:1021F0000CD00C2A11D10DE0022070BD206800F037
:1022000094FF0AE0206800F0C4FF06E0206800F0B8
:10221000F8FF02E0206801F02CF884F83950002023
:1022200084F8380070BD000006484188B1F5004FC1
:1022300003D04FF6FF71418070474FF40041418059
:10224000704700000000002070B504460D46002CC9
:1022500003D094F8390010B107E0012070BD0020D0
:1022600084F83800204600F015F8022084F8390080
:10227000211D206800F0E2FE2068016821F00801BD
:1022800001602068016829430160012084F8390059
:10229000002070BD08B50068A0F18041B1F5406133
:1022A00012D10A48016841F008010160006800F09D
:1022B00008000090002211463220FFF7B9F9BDE86E
:1022C00008403220FFF7A8B908BD0000403802409E
:1022D000704700002DE9F05F0446A9492068A94D28
:1022E000096888420ED16888A74BB0F5004F21D00D
:1022F000002220211846FFF718F90220688068683C
:10230000401C6860A1492068096888427ED1A04FBE
:102310007888401C80B2788007F1300ADFF874B208
:102320009AF80610002407F15809012607F14E0813
:1023300081B908E0012220211846FFF7F6F84FF492
:1023400000406880DBE799F80710012925D1B0F536
:10235000FA7F22D9FC717C808AF806408AF80760EF
:102360008D48C4710A30C47188F8074089F8074065
:102370006C80BAF80420BAF802109AF8000000F055
:10238000BBFC2E7085480179C07841EA002000EE40
:10239000100AB8EE400A8BED0A0AF879012807D135
:1023A0007888C82804D9FC7100F08AFD8AF8076093
:1023B0009AF80700012838D17888B0F5FA7F34D927
:1023C0007C808AF806408AF807407348C67100F19D
:1023D0000A01CC7188F8074089F807406C80828830
:1023E0004188007800F088FC2E706D480179C27831
:1023F00041EA02224AF2D73102FB0112920D00EEAD
:10240000102AB8EE400A8BED010A00E0B5E08279AF
:10241000407942EA00200A4600FB0210800D00EEDF
:10242000100AB8EE400A8BED020A5B48C079012819
:1024300022D17888B0F5FA7F1ED97C808AF80640D0
:102440008AF807405448C4710A30C67188F80740BA
:1024500089F807406C8082884188007800F04CFC45
:102460002E7050480179C07841EA002000EE100A31
:10247000B8EE400A8BED030A4B48C079012844D1DD
:102480007888B0F5FA7F40D9FC717C808AF80640E4
:102490008AF807404048C4710A30C47188F8076060
:1024A00089F807406C80B8F80420B8F8021098F852
:1024B000000000F021FC2E703C48817A427A41EA0B
:1024C000022100EE101AB8EE400A8BED040A017BDF
:1024D000C27A41EA022100EE101AB8EE400A8BEDF2
:1024E000050A817B427B41EA022100EE101AB8EE18
:1024F000400A8BED060A017CC07B41EA002000EE19
:10250000100AB8EE400A8BED070AF879022807D1C5
:102510007888C82804D9FC7100F0A2FC88F807600C
:1025200098F80700012825D17888B0F5FA7F21D9DD
:102530007C808AF806408AF807401748C4710A3040
:10254000C47188F8074089F807606C80B9F80420E6
:10255000B9F8021099F8000000F0CEFB2E70144874
:102560000179C07841EA002000EE100AB8EE400A76
:102570008BED080AA868401CA860BDE8F09F000029
:10258000143A00200000002000100240903A002081
:102590000C000020600100204600002014390020BB
:1025A000143500201436002050000020143700207D
:1025B000143800207047704710B504462268106830
:1025C000D168526900F00F03002B0AD110F0200FE0
:1025D00007D011F0200F04D02046BDE8104000F0D5
:1025E000BCBE002B6BD002F0010301F4907C53EAD7
:1025F0000C0364D010F0010F06D011F4807F03D0DB
:10260000E36B43F00103E36310F0040F06D012F014
:10261000010F03D0E36B43F00203E36310F0020FFA
:1026200006D012F0010F03D0E36B43F00403E36321
:1026300010F0080F06D012F0010F03D0E26B42F049
:102640000802E263E26B002A2ED010F0200F05D0C2
:1026500011F0200F02D0204600F07FFE2068406974
:10266000C0F38010E16B11F0080F00D108B32046D1
:1026700000F058FE2068416911F0400F15D0416903
:1026800021F040014161606B58B118490165606BF0
:10269000FEF79AF9002807D0606B016DBDE8104085
:1026A00008472046FFF787FF10BD2046FFF783FF4E
:1026B00010BD2046FFF77FFF0020E06310BD10F043
:1026C000800F07D011F0800F04D02046BDE81040E5
:1026D00001F02EB810F0400FF0D011F0400FEDD007
:1026E0002046BDE8104000F02BBE00001533000866
:1026F00070B50446002C04D094F83900002510B1C0
:1027000006E0012070BD84F83850204600F022F821
:10271000242084F839002068C16821F40051C16088
:10272000204600F063FE2068016921F490410161B8
:102730002068416921F02A0141612068C16841F4A3
:102740000051C160E563202084F8390084F83A0024
:10275000002070BD00B587B00068A0F18041B1F5E0
:10276000883116D10C48016841F010010160006801
:1027700000F010000190C020029002200390012080
:102780000490032005900720069002A90348FEF755
:10279000B3FD07B000BD0000443802400004024011
:1027A00090F83A30202B01D002207047D1B1CAB145
:1027B00090F83830012B17D081628285C2850021C4
:1027C000C163222280F83A2080F8381001684A69F3
:1027D00042F001024A610068C16841F49071C16031
:1027E0000020704701207047022070472DE9F05FFC
:1027F0006C4988427ED16C480127DFF8B0B1C079BE
:10280000DFF8AC91DFF8ACA16B4E6C4C4FF4004894
:10281000002518B3708820B1A0F57F40FF380DD196
:1028200005E0778025806248FFF776FB06E04FF4ED
:1028300000715846FEF775FEA6F802809AF800006F
:102840005F49228888542088401C2080D9F80000E5
:102850004562012257495348FFF7A2FF5948C07902
:1028600018B3708820B1A0F57F40FF380DD105E086
:10287000778025804E48FFF74FFB06E04FF400714C
:102880005846FEF74EFEA6F802809AF800004E4920
:10289000228888542088401C2080D9F80000456296
:1028A000012244493F48FFF77BFF4848C07928B3DD
:1028B000708820B1A0F57F40FF380DD105E077800A
:1028C00025803B48FFF728FB06E04FF4007158468F
:1028D000FEF727FEA6F802809AF800003C492288FD
:1028E00088542088401C2080D9F8000045620122CD
:1028F000304900E053E02B48FFF752FF3548C079DC
:1029000018B3708820B1A0F57F40FF380DD105E0E5
:10291000778025802648FFF7FFFA06E04FF4007124
:102920005846FEF7FEFDA6F802809AF800002A49F4
:10293000228888542088401C2080D9F800004562F5
:1029400001221C491748FFF72BFF2448C0790028B3
:1029500025D0708820B1A0F57F40FF380DD105E06B
:10296000778025801248FFF7D7FA06E04FF4007110
:102970005846FEF7D6FDA6F802809AF800001849DE
:10298000228888542088401C2080D9F800004562A5
:10299000BDE8F05F012207490248FFF701BFBDE82B
:1029A000F09F0000503A00203C000020001C024034
:1029B000143A00209A000020000000209800002017
:1029C000143500204600002014360020500000205E
:1029D000143700205A000020143800206400002022
:1029E000143900202DE9F84304460D4691461E4651
:1029F00094F83900202802D00220BDE8F8834DB3B6
:102A0000B9F1000F26D094F83800012825D0012014
:102A100084F838000027E763212084F83900FEF7A6
:102A20008BFD8046A4F82490A4F82690E08CA0B3F7
:102A3000E08C401EE084A068B0F5805F10D0434673
:102A4000002280212046009600F0C2FEF0B1032053
:102A5000BDE8F8830120BDE8F8830220BDE8F883D3
:102A60004346002280212046009600F0B1FE10B1BE
:102A70000320BDE8F88328882168C0F30800486077
:102A8000206908B16D1C05E0AD1C03E0216815F854
:102A9000010B4860E08C0028CAD143460022402147
:102AA0002046009600F094FE10B10320BDE8F883A4
:102AB000202084F8390084F838700020BDE8F883BD
:102AC0007047FEE770B586B000252A48016841F0DE
:102AD00010010160016801F010010091016841F0EE
:102AE00010010160016801F010010091016841F0DE
:102AF00010010160016801F010010091016841F0CE
:102B000010010160016801F010010091016841F0BD
:102B100010010160006800F0100000900124019491
:102B200002950394144E01A93046FEF7E5FB0220FE
:102B300001900295039401A93046FEF7DDFB0420C5
:102B400001900295039401A93046FEF7D5FB0820B9
:102B500001900295039401A93046FEF7CDFB1020A9
:102B600001900295039401A93046FEF7C5FB06B01B
:102B700070BD0000303802400010024001600021AA
:102B80000171022242718271C171704711F0010F0F
:102B900001D0002101710079704770B5044600250D
:102BA000607901281DD0022811D0012502260328B2
:102BB0001FD004280AD1E0790A30C0B2E0710A2897
:102BC00004D32068804750B1A571657170BD20683D
:102BD00080470028FAD0E5710420607170BD6671ED
:102BE00070BD206880470028FAD1E571032060712C
:102BF00070BDE0790A30C0B2E0710A28F8D32068CD
:102C0000804708B1657170BDA57166712079401C5F
:102C1000C0B22071FA28F6D9FA20207170BD0000E8
:102C2000F0B587B02348016841F080010160016878
:102C300001F080010191016841F01001016001681B
:102C400001F010010191016841F01001016000687C
:102C500000F010000190184F00224FF40071384628
:102C6000FEF763FC154E002220213046FEF75DFC86
:102C7000002240213046FEF758FC701502900124D6
:102C800003940225059502A93846FEF735FB20215D
:102C900002910394059502A93046FEF72DFB4020D2
:102CA00002900394059502A93046FEF725FB07B074
:102CB000F0BD000030380240001C0240001002400D
:102CC00030B4FF239C464A1ED2B20ED3094C04F501
:102CD000807510F8011B81EA0C0114F801C08CEA20
:102CE000030C6B5C521ED2B2F3D230BC4CEA032010
:102CF00070470000DA9F000810B50B4C20700320CD
:102D00006070080AA070E170100A207106216271DB
:102D10002046FFF7D5FFA071000A0821E071204688
:102D2000BDE8104000F038BD1434002082B000210E
:102D30000C48026842F002020260006800F00200E3
:102D400001900A48084A02604FF4E1324260816013
:102D5000C16001610C2242618161C16102B0FFF773
:102D6000C7BC00003038024000100140D4330020BE
:102D7000FEE7704700B587B003F0EBFB002006903C
:102D8000059004900B490C4A01920291009004AB0B
:102D900005AA06A9094803F001FE084803F060FEF1
:102DA000064802F0A5FB0649044803F099FE07B067
:102DB00000BD000065530008C1550008D80100207F
:102DC000F154000870477047F0B587B000262048DE
:102DD000016841F480210160006800F480200190C6
:102DE0001C48016841F002010160016801F0020124
:102DF0000191016841F080010160006800F08000ED
:102E000001904FF4806002900224039405940725FA
:102E10000695114F02A93846FEF76EFAA1020291FB
:102E200003940496069502A93846FEF765FA0B4D01
:102E30000022E1012846FEF778FBE1010291012121
:102E40000391059402A92846FEF756FA07B0F0BD93
:102E5000403802403038024000040240001C02406A
:102E600010B5FFF7B1FF1348114901604FF49651B7
:102E7000416000218160C16001610C224261816179
:102E8000C161FFF735FC012211462720FEF7D0FB78
:102E90002720FEF7C1FB00224FF480710648FEF7A1
:102EA00044FBBDE81040012204490248FFF778BC0A
:102EB00000480040503A0020001C02409A000020C8
:102EC00010B5FFF781FF1348114901604FF4965187
:102ED000416000218160C16001610C224261816119
:102EE000C161FFF705FC012211462720FEF7A0FB78
:102EF0002720FEF791FB00224FF480710648FEF771
:102F000014FBBDE81040012204490248FFF748BC09
:102F100000480040503A0020001C02409A00002067
:102F2000704710B5FEF70EFBBDE81040FEF780BFFE
:102F300030B593B000252348016841F0805101600D
:102F4000006800F0805000901F48016841F4804103
:102F50000160006800F480400090012006900004A9
:102F6000079002240C9480010D9008200E904FF4DD
:102F7000A8700F9010940720119006A8FEF714FD7A
:102F80000F200190029403954FF4A0500490E002AA
:102F90000590052101A8FEF791FBFEF787FCFEF7DF
:102FA0008BFC4FF47A71B0FBF1F0FEF72DFF04209B
:102FB000FEF71AFF00221146501EFEF739FB13B030
:102FC00030BD000040380240007000400F480168EA
:102FD00041F4700101600E48016841F00101016097
:102FE0000C4A00211160026822F4102222F0807243
:102FF0000260031D084A1A60026822F480220260FF
:1030000006480160064958060860704788ED00E0F0
:103010000038024008380240103000240C380240CA
:1030200008ED00E00148FFF719B80000143A00204D
:103030000148FFF713B80000903A0020F0B402688E
:103040002B4BDFF8B0C02C4D2C4E2D4C98420AD0A3
:10305000B0F1804F07D0604505D0A84203D0B04200
:1030600001D0A04203D122F070024F683A43984247
:1030700028D0B0F1804F25D0604523D0A84221D080
:10308000B0421FD0A0421DD0A0F1804CBCF5A03CA6
:1030900018D0A0F1804CBCF5A23C13D0A0F1804C1C
:1030A000BCF5A43C0ED0A0F1804CBCF5C05C09D0AE
:1030B000A0F1804CBCF5E05C04D0A0F1804CBCF5E4
:1030C000005C05D122F44072D1F80CC04CEA020237
:1030D00002608A68C2620A688262984201D0A04295
:1030E00001D10969016301214161F0BC7047000011
:1030F000000001400004004000080040000C0040B7
:1031000000040140D0F808C02CF47F4C42EA0322AE
:10311000114341EA0C0181607047826822F070021D
:10312000114341F007018160704710B4026A22F038
:1031300001020262036A4268D0F818C02CF0700CD9
:103140002CF0030C0C6844EA0C0C23F002038C688E
:103150002343A0F18044B4F5803404D0A0F180442E
:10316000B4F582340DD123F00803CC68234323F057
:10317000040322F4807222F400724C6922438C69A9
:1031800022434260C0F818C049684163036210BC22
:10319000704710B4026A22F010020262036A4268A9
:1031A000D0F818C02CF4E04C2CF4407C0C684CEAAD
:1031B000042C23F020038C6843EA0413A0F180441C
:1031C000B4F5803404D0A0F18044B4F5823410D139
:1031D00023F08003CC6843EA041323F0400322F475
:1031E000806222F400624C6942EA84028C6942EAFD
:1031F00084024260C0F818C049688163036210BC51
:10320000704710B4026A22F480720262036A426854
:10321000D0F81CC02CF0700C2CF0030C0C6844EAA5
:103220000C0C23F400738C6843EA0423A0F180445F
:10323000B4F5803404D0A0F18044B4F5823410D1C8
:1032400023F40063CC6843EA042323F4806322F46C
:10325000805222F400524C6942EA04128C6942EA1C
:1032600004124260C0F81CC04968C163036210BC0C
:10327000704710B4026A22F480520262D0F820C073
:103280004268C36923F4E04323F440730C6843EAC3
:1032900004232CF4005C8C684CEA043CA0F18044CC
:1032A000B4F5803404D0A0F18044B4F5823404D164
:1032B00022F480424C6942EA84124260C361496848
:1032C0000164C0F820C010BC7047036AD0F820C069
:1032D0002CF0010CC0F820C0D0F818C02CF0F00C75
:1032E0004CEA021223F00A0319438261016270471B
:1032F000036A23F010030362D0F818C0036A2CF4A9
:10330000704C4CEA023223F0A00343EA01118261BF
:103310000162704710B5806B0021C185C184FFF741
:103320004AF910BD0168CA6822F49072CA60016847
:103330004A6922F001024A61202180F83A10704760
:1033400010B50168CA6822F04002CA60202180F8E6
:103350003910FFF7B5FB002010BD10B590F83A10FA
:10336000222901D0022010BD8168B1F5805F11D003
:10337000016919B30168496801F07F02816A4B1C39
:1033800083620A70C18D491E0904090CC1851CD0D5
:10339000002010BD816A02693AB102685268D2B257
:1033A0000A80816A491C8162ECE702685268C2F3B4
:1033B00008020A80816A891C8162E3E701684A6821
:1033C000816A4B1C83620A70DCE70168CA6822F4D8
:1033D0009072CA6001684A6922F001024A612021A4
:1033E00080F83A10FFF702FA002010BD2DE9F041F5
:1033F00004462068016921F44051E26811430161EB
:103400002068C16821F4037121F414412369A26882
:10341000D4F81CC01A43636943EA0C031A431143EE
:10342000C1602068416921F44071A2691143416182
:10343000E069BC4ABC49BD4D3226B0F5004F5ED0B4
:103440002068884202D0904240F01281FEF750FA84
:1034500000EBC00101EB001061688900B0FBF1F7DF
:10346000FEF746FA00EBC00101EB0010616889002D
:10347000B0FBF1F0A5FB001040096FF018014843C4
:1034800007EB800006EB0010A5FB0010400900F0E0
:10349000F007FEF72DFA00EBC00101EB00106168A8
:1034A0008900B0FBF1F0A5FB0010400907EB001705
:1034B000FEF71EFA00EBC00101EB00106168890005
:1034C000B0FBF1F8FEF714FA00EBC00101EB0010BD
:1034D00061688900B0FBF1F0A5FB001040096FF0B6
:1034E0001801484308EB800006EB0010A5FB001014
:1034F0002168C0F3431038448860BDE8F08120683B
:10350000884201D0904259D1FEF7F2F900EBC00198
:1035100001EB001061684900B0FBF1F0A5FB001061
:1035200040090701FEF7E4F900EBC00101EB0010D0
:1035300061684900B0FBF1F8FEF7DAF900EBC00171
:1035400001EB001061684900B0FBF1F0A5FB001031
:1035500040096FF01801484308EB800006EBC000FB
:10356000A5FB0010400900F0F80007EB4007FEF74C
:10357000BFF900EBC00101EB001061684900B0FB2E
:10358000F1F8FEF7B5F900EBC00101EB001061683E
:103590004900B0FBF1F0A5FB001040096FF01801E5
:1035A000484308EB800006EBC000A5FB0010216833
:1035B000C0F3421038448860BDE8F081FEF782F91C
:1035C00000EBC00101EB001061684900B0FBF1F0B5
:1035D000A5FB001040090701FEF774F900EBC001DC
:1035E00001EB001061684900B0FBF1F8FEF76AF9E1
:1035F00000EBC00101EB001061684900B0FBF1F085
:10360000A5FB001040096FF01801484308EB80004B
:1036100006EBC000A5FB0010400900F0F80007EB26
:103620004007FEF74FF900EBC00101EB00106168A5
:103630004900B0FBF1F8FEF745F900EBC00101EBE2
:10364000001061684900B0FBF1F0A5FB00104009D3
:103650006FF01801484308EB800006EBC000A5FBA3
:1036600000102168C0F3421038448860BDE8F08142
:10367000FEF728F900EBC00101EB0010616889003A
:10368000B0FBF1F7FEF71EF900EBC00101EB0010F3
:1036900061688900B0FBF1F0A5FB001040096FF0F4
:1036A0001801484307EB800006EB0010A5FB001053
:1036B000400900F0F007FEF705F900EBC00101EB4F
:1036C000001061688900B0FBF1F0A5FB0010400913
:1036D00007EB0017FEF7F6F800EBC00101EB001056
:1036E00061688900B0FBF1F8FEF7ECF800EBC0016F
:1036F00001EB001061688900B0FBF1F0A5FB001040
:1037000040096FF01801484308EB800006EB0010F9
:10371000A5FB00102168C0F3431038448860BDE861
:10372000F081000000140140001001401F85EB51A2
:1037300090F83910212901D0022070478168B1F535
:10374000805F0CD0016A4A1C0262026809785160ED
:10375000C18C491E0904090CC18410D019E0016A0A
:1037600002680988C1F308015160016919B1016A51
:10377000491C0162ECE7016A891C0162E8E7016803
:10378000CA6822F08002CA600068C16841F0400146
:10379000C16000207047000070B505460E460A4C17
:1037A000012211022046FDF7C0FE4FF6FF7332469C
:1037B00029460648FFF716F90022A1152046BDE864
:1037C0007040FDF7B2BE0000001C0240503A0020DD
:1037D0002DE9F0410446069D884617461E4620689E
:1037E000006838EA000020D00020B84227D1B5F1A7
:1037F000FF3F1CD025B1FDF79FFE801BA84216D9C4
:103800002068C16821F4D071C1602068416921F04D
:1038100001014161202084F8390084F83A00002039
:1038200084F838000320BDE8F0810120DDE720683E
:10383000006838EA000005D00020B842D7D0002048
:10384000BDE8F0810120F8E70148FEF7B5BE0000B1
:10385000503A0020FEE700002DE9F84300243E49DD
:103860003E48FFF78BF904F081FC05463CA06968EF
:1038700000F0F2F8C820FDF7B9F83E4EA046002D42
:103880002CD03DA000F0E8F886F8008040F2D2424B
:103890003D49284603F06EFD08B101241FE03BA01E
:1038A00000F0DAF8FF21284604F0DEFB3B4903F084
:1038B000F6FC3BA000F0D0F83D48417A0091037A35
:1038C000C27981793BA000F0C7F840F2D24140A014
:1038D00000F0C2F843A000F0BFF800E00124002C83
:1038E00038D14E4F4E4801F07FFE03F0D7FB1B4806
:1038F000FFF753F900211948FFF748F998B197ED00
:10390000010ABDEEC00A86ED010A46A000F0A4F847
:10391000284605F0E5FC49A0696800F09DF8012102
:103920000E48FFF733F96420FDF760F8307801287E
:1039300008D186F800800021284603F0E3FE42A06B
:1039400000F08AF83648FCF7BFFF3548FCF7E4FC86
:10395000002CC7D0BDE8F8835109000814000020EE
:10396000CED2D4DAD5E2C0EFD6B4D0D0C1CB256464
:103970000A0000007C00002020B4B4BDA8D0C254CE
:103980004350B3C9B9A60A00DCA100082054435033
:10399000B0F3B6A8B3C9B9A60A0000004D76000876
:1039A00020BDF8C8EBBCE0CCFDD7B4CCAC0A00001D
:1039B0001002002020B7FECEF1C6F7204950A3BA6E
:1039C00020202025642025642025642025640A0009
:1039D00020B7FECEF1C6F720706F7274A3BA2564CB
:1039E0000A00000020C7EBC5E4D6C3B4AEBFDACDF1
:1039F000F8C2E7D6FACAD6B6CBCEAA636C69656EB2
:103A000074A3ACB8F9BEDD4950D2D4BCB0506F72CB
:103A100074B5E3BBF7C1ACBDD30A00006001002060
:103A2000D80100206B657931BCFCB0B4CFC2A3AC27
:103A3000B7A2CBCDCAFDBEDD0A0000006E6577706F
:103A400063623A25640A0000B6CFBFAA746370C1EE
:103A5000B4BDD30A000000000FB4054B10B503A994
:103A6000044A029800F02CF810BC5DF814FB00002A
:103A7000115600085C0100200FB4084B10B504A9D2
:103A800002AA039800F01CF8044602A9002000F0E6
:103A9000F3F8204610BC5DF814FB0000793C0008E8
:103AA00002E008C8121F08C1002AFAD17047704707
:103AB000002001E001C1121F002AFBD17047000065
:103AC0002DE9FF4F8BB09A460F460546002606E0CB
:103AD00025280BD052460D9990476D1C761C2878EE
:103AE0000028F5D10FB03046BDE8F08F0024A04685
:103AF0000122604900E0044315F8013F203B02FA2F
:103B000003F00842F7D128782E2817D115F8010FB5
:103B100044F004042A280ED06FF02F022878A0F178
:103B2000300109290AD808EB880102EB410100EBBA
:103B300001086D1CF2E757F8048B6D1C2878692882
:103B40003ED006DC0028CDD063280BD0642804D1F9
:103B500036E0732810D075284BD052460D99904707
:103B6000761C85E017F8040B8DF8000000208DF816
:103B70000100E946012003E057F8049B4FF0FF30B5
:103B800061074FF0000401D40AE0641C44450DDADB
:103B90008442FADB19F804100029F6D106E0641C0F
:103BA0008442FCDB19F804100029F8D1264404E013
:103BB00019F8010B52460D999047641EF8D257E050
:103BC00001CF4FF00A0B002802DA40422D2102E01B
:103BD000210504D52B218DF82410012103E0E107F4
:103BE00005D02021F7E70DF1200908910CE0002114
:103BF000F9E701CF4FF00A0BF9E75946FCF72AFB2A
:103C000001F1300209F8012D0028F6D1ADEB0900D1
:103C100000F1200B600701D44FF00108D84502DD08
:103C2000A8EB0B0000E000208046002406E009A875
:103C30005246005D0D999047641C761C089884429A
:103C4000F5DB04E0302052460D999047761CB8F120
:103C50000001A8F10108F5DC05E019F8010B524656
:103C60000D999047761CBBF10001ABF1010BF4DC20
:103C70006D1C34E7092801000A68531C0B601070A2
:103C80007047000010B504466068804722462068EF
:103C9000BDE81040014903F029BA0000853C000846
:103CA00000280BD0426A002A08D0537A082B05D18D
:103CB0000968926A914201D100F072B97047000020
:103CC00030B583B00546002D6DD06C6A002C6AD0EB
:103CD00000212184606B354BB0F1FF3F4FF00102B2
:103CE0000CD01E30A3FB00C04009B0F5803F01D3CB
:103CF0004FF6FF7080B2608400B96284A06BB0F1AF
:103D0000FF3F0ED01E30A3FB00C04009B0F5803F3E
:103D100001D34FF6FF7080B2208300B92283208B3D
:103D2000A083E06BB0F1FF3F0ED01E30A3FB00304C
:103D30004009B0F5803F01D34FF6FF7080B2608339
:103D400000B96283608BE083228B608B824201D357
:103D500000B12183E07A10B1E06A02900FE094F89C
:103D600028007F2802D8FF20029008E0C02803D353
:103D70006FF07F40029002E04FF6FF700290206BE0
:103D8000019028B9A06A0299084040F08070019023
:103D90000A21204600F0C6FE01AB02AA04F1280168
:103DA000284602F037FE03B030BD000089888888BD
:103DB00070B505466C6A0821204600F0B3FE00226B
:103DC00004F12801284601F065F9A07AFF2801D204
:103DD000401CA07240F2E7304FF4FA71B0FBF1F0F2
:103DE000E08270BD10B518480468002C2AD0616AC2
:103DF00009B3487AF8B1488C68B1088C401C80B28D
:103E000008844A8C904206D1204600F053FD20469B
:103E100000F01AF913E0C88B18B1421ECA830128BA
:103E200006D0888B38B1421E8A83012804D006E070
:103E3000204600F0FFFE02E0204600F0E6FE246887
:103E4000002CD4D110BD0000EC0000202DE9F04181
:103E500005460C461646002D0ED08CB100224FF4BC
:103E60009A71104602F084FEE06068B1032E14D00F
:103E7000A07A414F60B10EE06FF00F00BDE8F08115
:103E80006FF00500BDE8F0814FF0FF30BDE8F08134
:103E9000FCF796F9B860B8682060E0684068206177
:103EA0000121017020694170216995F82C0088700A
:103EB00020690027C770206802F03AFB216948603A
:103EC00020690781206947812069C760082E0AD0D0
:103ED000042E08D0072E06D0032E07D1607A0528BD
:103EE00001D0042802D121696868C860206907618F
:103EF0002069476120698761002095F82C10814274
:103F000005D9062803D2291891F82D1000E00021C8
:103F1000226900F11C03D154401C80B21028ECD35C
:103F20000020216900F12C028F54401C80B24028EF
:103F3000F7D30020216900F16C028F54401C80B23D
:103F40008028F7D321690D48C1F8EC00A782002032
:103F5000216900F1F0028854401C80B24428F7D354
:103F600001223521204600F09BF93146204600F021
:103F7000A8F90020BDE8F0819C0000206382536313
:103F800010B5064C2078401EC0B22070002804D125
:103F9000E06805F07DFF0020E06010BD9C0000207F
:103FA00070B582B005466C6A0C21204600F0BAFD5F
:103FB000042221462846FFF749FF0646300021D15A
:103FC00004223221204600F06BF9A06A02F0B0FA18
:103FD0000146204600F07CF9204600F0ABF9A08AAB
:103FE000F03081B2E06802F0C2FF0E4801900F4845
:103FF000009543230C4AE168C06805F085FF204620
:1040000000F016F8A07AFF2801D2401CA07242F6F8
:1040100003104FF4FA71B0FBF1F0E08202B03046C9
:1040200070BD0000DCA10008E0A100089C00002099
:1040300010B50446002C06D0E06808B102F01DFF60
:104040000020E060206110BD2DE9F04182B0804683
:10405000D8F824400020A0620621204600F062FD2E
:10406000012221464046FFF7F1FE074638002FD1D6
:1040700002223921204600F013F9B8F82A10204610
:1040800000F048F904223721204600F009F9002504
:104090001F4E2046715D00F014F9681CC5B2042D56
:1040A000F7D3204600F046F9A08AF03081B2E068EC
:1040B00002F05DFF174801901848CDF800804323B7
:1040C000154AE168C06805F01FFF2046FFF7B0FF02
:1040D000A07AFF2801D2401CA072A07A062803D241
:1040E000012101FA00F000E03C2000EB4001C1EBAF
:1040F000C0104FF6FF7101EAC00000F2F3104FF458
:10410000FA71B0FBF1F0E08202B03846BDE8F08110
:104110009D000020DCA10008E0A100089C00002018
:1041200070B50B480468002C11D00025606A58B1A6
:10413000C18A012903D9A1F10101C18204E003D19F
:10414000C582204600F08DFD2468002CEED170BDA4
:10415000EC00002070B5446A0021E1622163174E33
:10416000A6F12805F078002801D0E868606330796E
:1041700010B12869A06302E0606B4008A063707909
:1041800010B16869E06304E0606BC0EBC000C00878
:10419000E06360680069A062B07930B1A86902F09C
:1041A000C7F9E0620120E07200E0E172F0790028D6
:1041B00003D0E86902F0BCF9206370BDF43A002036
:1041C00010B50446606A0C2100F0ACFC054B20469B
:1041D0001A46114602F01EFC2046BDE81040FFF7CB
:1041E00033BF0000DCA1000870B505466C6A0948C1
:1041F000807800280CD00848806802F099F9606245
:1042000060680069A0622846BDE8704000F008BC04
:1042100070BD0000F43A0020CC3A002010B5114CDB
:104220002078002815D105F0F7FDE060B0B1017AE3
:1042300041F02001017244220B4905F09FFC43220A
:104240000949E06805F0E0FC00220849E06805F053
:104250001BFE2078401C2070002010BD4FF0FF3066
:1042600010BD00009C000020DCA10008B147000840
:10427000426A002A13D0517A002304290CD004DCAE
:1042800000290CD0032904D106E0052904D00A290D
:1042900002D09372FFF7D8BE937200F01FBA704736
:1042A000838A03F1010CA0F814C0D0F810C0F033D9
:1042B0000CF80310818A4B1C83820069F031425450
:1042C0007047828A531C83820069F03281547047A0
:1042D000828A4FEA116C531C83820369F03203F81F
:1042E00002C0828A4FEA114C531C83820369F03268
:1042F00003F802C0828A4FEA112C531C838203699F
:10430000F03203F802C0828A531C83820069F032C3
:1043100081547047828A4FEA112C531C83820369AF
:10432000F03203F802C0828A531C83820069F032A3
:1043300081547047002815D0818AFF234A1C82824D
:104340000269F0315354002204E04B1C838203695C
:10435000F0315A54818A442902D311F0030F01D05D
:104360004429F2D3704700002DE9F34F83B004468F
:104370000021029101910A21A848FBF74CFF049902
:1043800049892C2904D205B06FF00100BDE8F08FF7
:10439000049949686160F0260498B0F80880049F89
:1043A00006E0311A8EB2A8EB00001FFA80F83F68D1
:1043B00017B17889B042F4D917B1D7F804A0F8E062
:1043C00005B06FF00100BDE8F08F4FF0FF34B11C75
:1043D0001FFA81F97989721C914203D90AEB06010F
:1043E000497805E0396811B14968097800E0002191
:1043F0000D46342858D00BDC03282BD003DCD8B171
:1044000001280DD11DE006282ED0332808D141E027
:10441000352852D0362859D03A2860D03B2867D06A
:1044200000257018801C86B2002D6ED000200090F0
:104430007A48005DA8B3ABE000210D46701E86B23D
:10444000EFE7042904D005B06FF00500BDE8F08F58
:104450000624E6E70425042904D205B06FF0050020
:10446000BDE8F08F0724DCE711F0030F04D005B09E
:104470006FF00500BDE8F08F082901D20D4600E07D
:104480000825A94204D205B06FF00500BDE8F08F01
:104490000824C6E7042905D005B06FF00500BDE883
:1044A000F08F2EE00324BCE7012904D005B06FF0A3
:1044B0000500BDE8F08F0024B3E7012904D005B062
:1044C0006FF00500BDE8F08F0124AAE7042904D0AD
:1044D00005B06FF00500BDE8F08F0224A1E70429C4
:1044E00004D005B06FF00500BDE8F08F042498E714
:1044F000042904D005B06FF00500BDE8F08F052455
:104500008FE7042D02D2AB4602E041E04FF0040BEE
:104510004B465A466946384602F077FC584504D067
:1045200005B06FF00100BDE8F08F042D18D915F02B
:10453000030F04D005B06FF00500BDE8F08F3749D8
:1045400001200855009801F0F3FF354941F8240097
:10455000281FC5B209F104001FFA80F9641C67E73F
:10456000042D06D0012D09D005B06FF00500BDE87F
:10457000F08F009801F0DCFF009002E09DF8000051
:1045800000902648012101552838009940F8241050
:104590007889B0420DD8311A8EB2A8EB00001FFA0C
:1045A00080F846450DD2B8F1000F0AD03F68D7F821
:1045B00004A037B11AF80600FF2802D04645FFF4E0
:1045C00004AF164A1078A0B1A2F1280000680021BB
:1045D0001170012804D0022805D0032806D008E075
:1045E0000120029005E00120019002E001200190ED
:1045F0000290029828B1002002906C264FF0EC083F
:10460000CDE6019828B1002001902C264FF06C08CF
:10461000C5E605B00020BDE8F08F0000F43A0020A8
:10462000CC3A00202DE9F84307467D6A042128464C
:1046300000F078FA032229463846FFF707FC804647
:104640005FEA08002BD1022239212846FFF728FE15
:10465000798D2846FFF75EFE042237212846FFF7B2
:104660001FFE00241A4E2846315DFFF72AFE601C0B
:10467000C4B2042CF7D32846FFF75CFEA88AF030BA
:1046800081B2E86802F073FC134800974323114A93
:10469000E968C06805F014FC2846FFF7C9FCA87A51
:1046A000FF2801D2401CA872A87A0A2803D24FF42E
:1046B0007A71484301E042F2107080B200F2F310C8
:1046C0004FF4FA71B0FBF1F0E8824046BDE8F883A0
:1046D0009D000020E0A100089C0000202DE9F84387
:1046E00007467C6A0321204600F01CFA032221467B
:1046F0003846FFF7ABFB80465FEA080038D102225C
:1047000039212046FFF7CCFD4FF410712046FFF70A
:1047100001FE042232212046FFF7C2FDA06A01F00B
:1047200007FF01462046FFF7D3FD0422372120462C
:10473000FFF7B6FD00251B4E2046715DFFF7C1FD5A
:10474000681CC5B2042DF7D32046FFF7F3FDA08AFD
:10475000F03081B2E06802F00AFC1448009743236D
:10476000114AE168C06805F0ABFB2046FFF760FC2A
:10477000A07AFF2801D2401CA072A07A0A2803D296
:104780004FF47A71484301E042F2107080B200F2B7
:10479000F3104FF4FA71B0FBF1F0E0824046BDE84F
:1047A000F88300009D000020E0A100089C0000208C
:1047B0002DE9F04116463C4845686C6A736800274D
:1047C000002C69D0207A002866D070892C2863D309
:1047D0001878022860D1002095F82C1001E0401CC8
:1047E000C0B281420BD9062809D22A1803EB000C6B
:1047F00092F82D209CF81CC062454DD1EFE7586817
:1048000001F096FE2168884246D131462046FFF7E6
:10481000ABFD10BB25484078F8B125480079052844
:1048200002D0062821D029E0607A012806D003288A
:1048300014D0042812D0052810D02DE02846FFF708
:1048400089FC95F8330010F0080F03D02846FFF7D5
:10485000AFFA21E02846FFF733FA1DE02846FFF7BC
:1048600079FC2846FFF72CFA16E0637A032B08D070
:10487000012B06D0042B04D0052B02D0022804D033
:104880000AE02846FFF79CFC06E0607A062803D180
:10489000E7822846FFF7A8FC04B167603046BDE810
:1048A000F04102F0EABA0000003C0020F43A002097
:1048B000CC3A002070B582B005466C6A002C1FD03F
:1048C000606A0190284600F091F9064600212046D2
:1048D00000F028F900206062A062E0622063E063DB
:1048E000A063606360842084E083A08366B10722B4
:1048F00021462846FFF7AAFA0646300007D026E0F0
:1049000002B06FF00F0070BD02B0002070BD042235
:1049100036212046FFF7C4FC019801F009FE01464C
:104920002046FFF7D5FC2046FFF704FDA08AF030B3
:1049300081B2E06802F01BFB09480095432301AAFD
:10494000E168C06805F0BCFA2046FFF771FB054B33
:1049500028461A46114602F05DF802B0304670BD96
:104960009C000020DCA100082DE9F84307467C6A82
:104970000521204600F0D6F8032221463846FFF7ED
:1049800065FA80465FEA08002CD1022239212046D0
:10499000FFF786FC798D2046FFF7BCFC0422372107
:1049A0002046FFF77DFC00251B4E2046715DFFF77A
:1049B00088FC681CC5B2042DF7D32046FFF7BAFC6B
:1049C000A08AF03081B2E06802F0D1FA1348009773
:1049D000432304F12402E168C06805F071FA20461F
:1049E000FFF726FBA07AFF2801D2401CA072A07A14
:1049F0000A2803D24FF4FA61484301E044F62060EC
:104A000080B200F2F3104FF4FA71B0FBF1F0E082E3
:104A10004046BDE8F88300009D0000209C00002077
:104A20002DE9F04182B08046D8F82440012120468B
:104A300000F078F8032221464046FFF707FA0746C0
:104A4000380047D1022239212046FFF729FCB8F867
:104A50002A102046FFF75EFC042232212046FFF791
:104A60001FFCA06A01F064FD01462046FFF730FC00
:104A7000042236212046FFF713FC606A01F058FD3E
:104A800001462046FFF724FC042237212046FFF789
:104A900007FC00251F4E2046715DFFF712FC681CC5
:104AA000C5B2042DF7D32046FFF744FCA08AF030AE
:104AB00081B2E06802F05BFA174801901848CDF81F
:104AC00000804323154AE168C06805F01DFA2046BE
:104AD000FFF7AEFAA07AFF2801D2401CA072A07A9C
:104AE000062803D2012101FA00F000E03C2000EB8F
:104AF0004001C1EBC0104FF6FF7101EAC00000F2A7
:104B0000F3104FF4FA71B0FBF1F0E08202B03846D6
:104B1000BDE8F0819D000020DCA10008E0A10008B4
:104B20009C000020427A8A4203D0417200218172A7
:104B3000C182704770B50546002D0CD095F8330042
:104B400010F0010F0AD06C6A688DB0F5107F08D2A2
:104B50004FF0FF3070BD6FF00F0070BD6FF00F00B1
:104B600070BDD4B1207A08B1FFF70AFA00212160A4
:104B70006160A160E16021616161A161E161216227
:104B80006162A162E16221636163A163E163FFF796
:104B900045FB60B14FF0FF3070BD402001F0EEFDED
:104BA00004460CB16C62E1E74FF0FF3070BD0120AC
:104BB00020722846FFF748FA0028F7D0284600F070
:104BC00003F84FF0FF3070BD10B500280DD0446AD7
:104BD000002C0AD000212046FFF7A4FF207A0028ED
:104BE00003D0FFF7CDF90020207210BD00280AD0B5
:104BF000406A40B1407A0A2803D0052801D000203D
:104C00007047012070470020704710B5446A617AF0
:104C1000012903D00A2901D005290AD1FFF7A4FEF2
:104C2000608B218C401A022803DB00EBD070400817
:104C3000A08310BD10B5446A617A012905D00A2904
:104C400003D0052901D004290AD1FFF7EBFC608CC1
:104C5000218C401A022803DB00EBD0704008E0836F
:104C600010BD10B50446616A4A7A0C2A0FD0062A94
:104C70000DD0012A10D0082A1ED0032A2ED1887AFE
:104C8000022826D22046BDE81040FFF727BD204667
:104C9000BDE81040FFF7D8B9887A052804D8204627
:104CA000BDE81040FFF7BCBE2046FFF703FE2046DC
:104CB000BDE81040FFF7C8B9887A012804D820461B
:104CC000BDE81040FFF774B82046BDE81040FEF77D
:104CD000F7BF2046BDE81040FFF7B6B910BD8268A7
:104CE00012680A608068016070478168086800285F
:104CF00002D002680A6070470020704770B5054610
:104D00000024094E04EB440006EBC000017D29B1EC
:104D10008068A84202D1204600F08EF8601CC4B220
:104D20000A2CEFD370BD0000003B00202DE9F74FA7
:104D300005464FF00A0AD3460A2300209E46002764
:104D4000804681463B4900EB400601EBC602117DDF
:104D50000A2B00D151B1A9B155B1D5F800C05468A2
:104D6000A44505D103B040B2BDE8F08F43B209E0DD
:104D7000012910D0022905D3518A494502D34FFA9F
:104D800080FB8946401CC0B20A28DBD3019810F092
:104D9000020F1DD112E0274951F8361039B1B2F88F
:104DA00012C0BC45EED34FFA80FE6746EAE7548A4C
:104DB0004445E7D34FFA80FAA046E3E70A2B03D134
:104DC000019810F0010F03D00A2B06DADCB218E0CC
:104DD00003B04FF0FF30BDE8F08FBBF10A0F02DAED
:104DE0000BF0FF040AE0BAF10A0F02DA0AF0FF043E
:104DF00004E0BEF10A0F17DA0EF0FF04204600F0BF
:104E00001BF835B10B4804EB440200EBC2002968E3
:104E10004160084804EB440200EBC20000214182DB
:104E200003B060B2BDE8F08F03B04FF0FF30BDE8D3
:104E3000F08F0000003B002070B5084D00EB4004EF
:104E4000002655F83400002803D002F016F845F883
:104E5000346005EBC400067570BD0000003B002007
:104E6000F0B583B007460D46002D10D07C68208831
:104E7000B0F5807F08D12079062805D16079042813
:104E800002D16088082804D0384601F0F6FF03B04C
:104E9000F0BDD4F80E000290A0690190696819B1C4
:104EA000884203D1012602E0002600E000260EB170
:104EB000012300E0022304F1080202A9284600F0C1
:104EC0000FFAE088B0F5807F03D0B0F5007F26D1DF
:104ED00021E0FEB1022001F037FBE080D4F80E00A3
:104EE000A0616868C4F80E00A068C4F81200A08928
:104EF000E082D5F82D00A060B5F83100A08140F621
:104F00000600009004F1120304F108023946284615
:104F100000F02CFB03E002A92846FEF7C1FE38464C
:104F200001F0ABFF03B0F0BD70B584B005460E468E
:104F300014462946206800F082FC08B13A4B40E054
:104F4000206800F0F001E02926D0A9686B6800EA2B
:104F5000010219408A4208D080B2A0F57E41A939E9
:104F600003D0E868C0B305F10C04304B30481A7820
:104F700002EB420100EBC10191F814C0BCF1020F39
:104F80002FD3D4F800C049688C452AD13146284631
:104F900000F050F804B070BD01208DF8080000202A
:104FA0008DF809005E208DF80A00607800F07F001F
:104FB0008DF80B00A0788DF80C00E0788DF80D00CE
:104FC00002AB4FF40060009005F12D0231462846F7
:104FD00000F0CCFA04B070BDFFE704B06FF003003E
:104FE00070BD002101EB410200EBC20292F814C037
:104FF000BCF1020F0CD3D4F800C05268944507D11D
:10500000CAB21A703146284600F014F804B070BDD8
:10501000491C49B20A29E5DB32462146284600F000
:1050200039F804B070BD0000E4A10008AC00002015
:10503000003B0020F8B505460E46154802EB42013C
:1050400000EBC104207D022816D1618A0327B1F547
:105050008E7F06D9211D284600F0F6F860B9277525
:105060000AE0B1F5877F07D304F10C02211D284621
:1050700000F0F0F800B927754FF40060009004F1DB
:105080000C0305F12D023146284600F06FFAF8BDF9
:10509000003B00202DE9F04F83B08246884616463B
:1050A0000AF12D0002904FF0FF344FF0000B5146F3
:1050B000D8F8000000F0C3FBA8B9D8F8000000F051
:1050C000F001E0290FD0B8F1000F0CD058B15246D2
:1050D00001214046FFF72AFE81465FEA090007D515
:1050E00003B0BDE8F08F03B06FF00F00BDE8F08FA4
:1050F000304809EB490700EBC705287D28B94FF078
:10510000010B01202875C5F808A0BBF1000F00D1E4
:105110002EB94146504600F097F804469EB1287DCE
:10512000DFF89080022812D3234880F800904FF4D3
:105130000060009005F10C0331465046029A00F0E1
:1051400015FA044631E003B02046BDE8F08F01288F
:105150002BD100213446207B012801D0012102E01F
:105160002468002CF7D181B121890022022001F0AE
:10517000FFFC05466DB13146284601F0F2FD40B115
:10518000284601F07AFE002503E03546284601F066
:105190001CFF45B158F8370008B101F06EFE48F821
:1051A0003750002401E04FF0FF3403B02046BDE843
:1051B000F08F0000003B0020AC0000202DE9FF4FE5
:1051C00081B00EAE994696E8C0094FF0000A002261
:1051D0001C21022001F0CCFC054628002ED06C6872
:1051E000584601F0B1F9E080D9F80000A060B9F8A4
:1051F0000400A0813868C4F81200B888E0823068E2
:10520000C4F80E00D8F80000A0614FF48070208030
:1052100008206080062020710420607140F606009E
:1052200000902946039B029A019800F09FF92846B6
:1052300001F023FE05B05046BDE8F08F05B04FF0F9
:10524000FF30BDE8F08F0000014A00F003B8000015
:10525000E4A1000810B584B001230393DFF818C05F
:10526000041D029100F12D03CDF804C000941946ED
:10527000FFF7A4FF04B010BDEAA100082DE9F0413A
:1052800000240426154D022704EB440005EBC00260
:10529000117DE9B1508A401C80B25082B0F5967FF2
:1052A00003D2012905D1052803D32046FFF7C4FD09
:1052B0000EE0032904D0042904D0012904D007E01A
:1052C000167505E0177503E0111D9068FFF7BCFF28
:1052D000601CC4B20A2CD7D3BDE8F081003B00208B
:1052E000F8B505460C4616461F46002C34D02068FB
:1052F000002831D0294600F0A2FA68BB207800F0DF
:10530000F000E02828D02A4639462046FFF70EFD57
:10531000002820DB124A00EB400102EBC10002230F
:10532000037585603368C360B388038200234382BA
:1053300052F8314074B142F831304FF400600090BF
:10534000334605F12D022146284600F00FF920468C
:1053500001F093FD0020F8BD6FF00F00F8BD0000D4
:10536000003B002070B504460E4660890E2840D9E7
:1053700060688589027812F0010F15D0012A05D0E6
:1053800006222149FAF759FF50B10DE0417859B989
:1053900080785E2808D1607B40F01000607303E0E5
:1053A000607B40F0080060736FF00D01082D03D0A2
:1053B000B5F5C16F1DD110E096F8330010F0080F5D
:1053C00017D060890E2814DB204601F085FD80B9D6
:1053D0003146204600F02EFB14E096F8330010F022
:1053E000080F06D060890E2803DB204601F074FD0B
:1053F00020B1204601F041FD002070BD314620461D
:10540000FFF72EFD002070BDE4A100082DE9F0415A
:105410000746002400250026FBF710FA97F8331002
:1054200011F0040F13D0012811D822A0FEF714FBAD
:10543000384601F01BFB384601F056FB234901209A
:105440000870BDE8F0412249224801F049BB11F043
:10545000040F2CD101282AD9022806D0032809D00C
:1054600004280BD005280ED10CE04FF40066F5009F
:10547000012408E04FF48045012404E04FF4006665
:10548000012400E00124002C11D0384601F03AFB41
:105490001148C66085600021FBF7B8FA0FA0FEF73F
:1054A000DBFABDE8F0410A490A4801F019BBBDE842
:1054B000F0810000B6CFBFAACDF8CFDFA3ACD0E813
:1054C000D6D8C1ACC1ACBDD30A0000007C0000201E
:1054D000F1540008D8010020C4320020C1ACBDD373
:1054E000CDF8CFDFA3ACC5E4D6C34D41430A0000DD
:1054F00010B590F833000D4C10F0040F0CD00CA038
:10550000FEF7AAFA0E4801F023FB01202070BDE847
:1055100010400B48FFF70EBB094801F0A7FA052021
:105520002070BDE8104007A0FEF796BA700000207A
:10553000B3C9B9A6C1ACBDD3CDF8BFA80A0000005D
:10554000D8010020546865206E6574776F726B20F7
:105550006361626C65206973206E6F7420636F6E87
:105560006E6563746564200A000000002DE9F04157
:1055700007460E4615461C46069800F0E5FF804695
:105580000E21304601F0A8FC18B16FF00100BDE813
:10559000F081D6F804C0ACF80C802068CCF800008C
:1055A000A088ACF804002868CCF80600A888ACF8FD
:1055B0000A0031463846BA69BDE8F041104700009C
:1055C00010B5732180F83410742180F83510044927
:1055D00041610449816100F059FE002010BD0000C6
:1055E000294F00086D64000870B50446204600F09D
:1055F000DBFE0546280009D0226921469047002895
:1056000004D02846BDE8704001F037BC70BD0000F2
:1056100013B54FF6FF73012269460348FDF7E2F91F
:10562000009802B010BD0000D43300200A460321C8
:1056300000F0A2B82DE9F04784B0044688464D4FEB
:10564000D7F808A09AF800000007850E142D7DDB1E
:10565000608904287AD36068017800297ED00829FF
:105660007CD107F11409786900F0F001E0294FD0EE
:10567000396800F0E4F800284AD12089082873D35B
:10568000204600F0B6F828B104B02046BDE8F04747
:1056900001F0F3BB05F10E0001B20E46204601F009
:1056A0001BFC70B320890022284481B2022001F043
:1056B0005FFA0646FEB1708905F10801884203D2FF
:1056C000304601F0DAFB23E02A4651467068FAF7CB
:1056D00089FD684201B2304601F0FEFB18B1304648
:1056E00001F0CBFB14E02146304601F03AFB18B143
:1056F000304601F0C2FB0BE0204601F0BEFB344611
:105700000CE0FFE7704201B2204601F0E5FB28B152
:1057100004B02046BDE8F04701F0AFBB66682946FB
:10572000204601F0D9FB90B96068D9F80010C1603B
:1057300039690161002131707180FF22027241815B
:105740000120FF230022CDF8088001E00CE005E0F5
:10575000009101904946204600F066FA04B02046C8
:10576000BDE8F04701F089BB04B02046BDE8F04732
:1057700001F083BB003C00202DE9F04385B00646D4
:105780008846914600222421012001F0F1F90546C6
:10579000280027D077686C6884F8008084F801902E
:1057A0004FF00008A4F80480A4F8068068687168C7
:1057B00008301C22FAF716FDF868049004A800F0DF
:1057C00067FB60B1A4F80280012101910290FF23E0
:1057D00004AACDF800800021284600F025FA2846CA
:1057E00001F04BFB05B0BDE8F0830A460B21FFF743
:1057F000C3BF70B5054600240026002D16D0698968
:10580000686800F0B5FE204481B201EB1044A87A2C
:1058100010F0010F07D0C6F10100C6B2E0B2C4F328
:10582000072141EA00242D68002DE8D126B1E0B21D
:10583000C4F3072141EA0024E04380B270BD81B087
:105840000090B0F1FF3F0CD002000AD091F8332055
:1058500012F0020F08D04A68824208D1002001B03D
:105860007047012001B07047002001B0704789687F
:1058700000EA01030A40934203D10843B0F1FF3F1D
:1058800002D0002001B07047012001B07047000035
:105890002DE9F74F88B004460998408D1438C11798
:1058A00000EB5170C0F3CF0003901426002760680E
:1058B00005900598017801F00F01052903D00BB080
:1058C000B81FBDE8F08FC08800F03EFEC0F30C01A9
:1058D000029110F4005F04D00BB06FF00500BDE83A
:1058E000F08F208914381FFA80F8B8F1000F70D0BB
:1058F0000398C00007900398B8EBC00F01D2404650
:1059000000E007981FFA80FA00221421022001F01B
:105910002FF906900698002856D0069841680598F9
:1059200002680A6042684A6082688A60C268CA6027
:105930000069086106984068049055466DB3608917
:10594000801B87B2BD4200D22F467FB300F038FBE8
:1059500081465FEA09002DD060684B4630440090D4
:10596000022239460197042001F09FF98346BBF1DA
:10597000000F23D0204601F028FBC9F814402C4822
:10598000C9F810005946069801F0C3F9E81B85B222
:105990000DB100262468002DD1D1F01986B20998E6
:1059A000408D1438404515DB012114E0FFE7002647
:1059B0002468F0E7069801F060FA05E0484600F038
:1059C00002FB069801F059FA0BB04FF0FF30BDE82A
:1059D000F08F29E000210298C0F30C0009B940F4CF
:1059E000005000F0B1FD0499C8800AF1140080B2A3
:1059F00000F0AAFD04994880049900204881099884
:105A00000A9A069943699847069801F036FAA8EB76
:105A10000A001FFA80F803990298084480B20290A5
:105A2000B8F1000F7FF467AF0BB00020BDE8F08F36
:105A3000756200082DE9F05F07460E464FF0010A37
:105A40007D6804212878B1EB101F05D0384601F09D
:105A500014FA0020BDE8F09F00F00F004FF6FF7130
:105A600001EA8008688800F06FFD04463889A0428A
:105A700003D92146384601F07AFA7889404505D3A2
:105A80003889A04202D3B8F1140F05D2384601F08C
:105A9000F4F90020BDE8F09FDFF884B12869CBF865
:105AA0001400E968CBF8101000F0F000E02812D0E4
:105AB0004FF00109344694F8330010F0010F15D06F
:105AC000616899B1DBF8140088421DD02146FFF7C8
:105AD000B6FEC8B90AE096F8330010F0010F03D003
:105AE000706808B134460FE000240DE0B9F1000FF2
:105AF00004D04FF000094B48046800E02468B44229
:105B000000D12468002CD6D15CB9687A112808D15C
:105B100005EB08004088B0F5884F02D134464FF0BD
:105B2000000ABAF1000F0CD0DBF8100048B1314682
:105B3000FFF785FE88BB9BF8100000F0F000E0281E
:105B40002DD05CB3E88830F0C00005D0384600F0B6
:105B5000DFF807467FB37D68CBF80040CBF80460E0
:105B6000CBF8085028780007800EABF80C000FFA2D
:105B700088F8C8F1000001B2384601F0ADF9687A42
:105B8000012826D006281FD0112818D02146DBF87E
:105B90001400FFF754FE08B32FE000E005E038469C
:105BA00001F06BF90020BDE8F09F384601F065F97F
:105BB0000020BDE8F09FFFE70020BDE8F09F3146E0
:105BC000384604F04FF81BE03146384601F04CFFF0
:105BD00016E031463846FFF72DFD11E09BF8140022
:105BE00000F0F000E02808D04146384601F077F98F
:105BF0007D6002213846FFF719FD384601F03DF976
:105C00000020CBF80000CBF80400CBF80800ABF87C
:105C10000C00CBF81000CBF81400BDE8F09F00009A
:105C2000003C0020EC00002070B584B0DDF828C0F6
:105C3000099D089C002A05D00E0001D00E680EB9FF
:105C40000CF10401CDF808C00195009400F002F8B1
:105C500004B070BD2DE9F84F0546DDF82CA0DDF845
:105C600028900C9F884616469B46002E34D014215F
:105C7000284601F031F918B16FF00100BDE8F88F46
:105C80006C6884F808B084F809A030682061452069
:105C9000207084F80190288900F056FC60804FF055
:105CA0000009A4F80690DFF860A0BAF8000000F040
:105CB0004BFCA080BAF80000401CAAF80000B8F124
:105CC000000F05D0D8F80000E060A4F80A9007E0C3
:105CD0000E480068E060F8E76868006900906E466A
:105CE000788D48B12989814206D9324639462846FD
:105CF000FFF7CEFDBDE8F88F7B693246294638466E
:105D00009847BDE8F88F0000AE000020DCA1000835
:105D10002DE9F0478246DAF80450287800F00F00A9
:105D200005287DD1E88800F00FFCC0044FEA104838
:105D3000688800F009FC297801F00F01494200EB66
:105D400081001FFA80F9504601F001F806464F4FD6
:105D5000398888190A2809D93146284600F034FACA
:105D600000285DD0388830440A2859D87C6874B13E
:105D7000E8686169814207D1A1692A69914203D12A
:105D8000A189AA88914202D02468002CF1D134B1B3
:105D9000E88800F0D9FBC004C00C08D017E03146F9
:105DA000284600F0A1F90446200068D00FE0E08901
:105DB00000F0CAFBC004C00C09D02868A060686865
:105DC000E060A8682061E86860612869A06138889F
:105DD00030443880A87910F0200F06D1A07F40F021
:105DE0000100A07708EB0900A0835146204600F08F
:105DF000EFF8002840D0A08B1430A083606846687C
:105E00003568A0683060E06870602069B0606069E3
:105E1000F060A0693061A08B00F096FB708000E01C
:105E20002DE00020F0807081D4F8048065B16E68A8
:105E30006FF01301284601F04FF82946404600F064
:105E400068FF3568002DF2D179688C4201D10021BC
:105E500006E029B10868A04202D001460029F9D124
:105E6000204600F031F9404600F071FF3988081AE9
:105E700038804046BDE8F0870020BDE8F0875046F6
:105E800000F0FBFF0020BDE8F0870000B00000201C
:105E900030B404461948006800281DD090F833102B
:105EA00011F0010F15D011F0040F12D0D0F804C07A
:105EB000BCF1000F0DD02268836802EA03050CEAEA
:105EC00003039D4217D011F0020F02D1C1688A422C
:105ED00011D000680028E1D10948006850B190F85D
:105EE000331011F0010F05D011F0040F02D04168FA
:105EF000002900D1002030BC70470000EC000020D9
:105F0000F00000201022014900F002B8F03B002010
:105F10002DE9F04F034682B008464FF0000C196897
:105F20000191034601AEE046DFF890A0E9464FF04C
:105F30002E0B00243578AAFB05E7F908494201EB4E
:105F4000810105EB41074FF0CD0E15FB0EF1CD0A97
:105F5000357007F1300E2746641CE4B209F807E0FB
:105F6000002DE7D1611EC9B20FD364460CF1010CBC
:105F7000944203DB02B00020BDE8F08F19F8014025
:105F800003F8014B491EC9B2EFD261460CF1010C76
:105F9000914203DB02B00020BDE8F08F03F801BBA3
:105FA000761C08F1010101F0FF08B8F1040FC0D31D
:105FB000002103F8011C02B0BDE8F08FCDCCCCCCA1
:105FC000052000F0DFBC0146052000F0A9BC000060
:105FD0002DE9F04707460E4600240125D6F8048037
:105FE000B8F8020000F0B0FA98F8001001F00F01C4
:105FF000494200EB8109B8F8060000F0A5FAC00498
:10600000010C736800201860998001EB09001FFAE9
:1060100080F8A3F806807A68F2B15068B0F804C03E
:1060200061450CD21A6044B1B4F806C061453CD356
:106030008088804539D826600EE07E600CE034D040
:10604000C288914231D31CB1E288624500D000255C
:1060500002680446002AE0D142B934B12660E088E3
:106060009988884202D0002500E07E60B87F10F059
:10607000010F17D09DB1786810B14068808808B1D1
:1060800000250CE0196851B14868D988828891428E
:1060900001D0002503E0034601680029F4D1284619
:1060A000BDE8F0870020BDE8F087304600F04FFEE5
:1060B00004490A88101A0880304600F0DEFE0020ED
:1060C000BDE8F087B00000200B4606490268D1F811
:1060D00004C0844501D14A6000E01A6001460420F2
:1060E00000F01EBCB000002070B505460E4604202E
:1060F00000F048FC044654B93146284600F064F8E4
:10610000B04203DB042000F03DFC0446CCB100218A
:106110006160A160E16021616161A161E1610320D1
:10612000E07709484168216044602868A060686899
:10613000E060A8682061E86860612869A061204685
:1061400070BD002070BD0000B00000202DE9F041BE
:1061500006460F460025746860688188002917D1BB
:10616000006870606068B1680160F1684160316921
:1061700081607169C160B169016101212046FFF749
:1061800034FB204600F0E3FD0546204600F075FE96
:10619000746864B16068A0460468404600F0D7FDAA
:1061A000284485B2404600F068FE002CF2D1394602
:1061B0003046FFF789FF03490888401B08802846BE
:1061C000BDE8F081B00000202DE9F04705460F46FC
:1061D0000026DFF86C800020002184460024D8F8D7
:1061E0000420EAB1D5F80C9053694B4509D1936965
:1061F000D5F810A0534504D19389B5F804A05345B0
:1062000008D0641CC0B1D37F90F81FA0534501D8BB
:1062100010468C46136803B111461A46002AE3D192
:1062200018B16146FFF792FF0644BE4201DA012C25
:10623000D1DC3046BDE8F08710468C46EAE7000026
:10624000B000002070B5002509484468002C0DD02E
:10625000E07F20B1401EE0772546246804E0204618
:1062600024682946FFF772FF002CF1D170BD0000B1
:10627000B000002010B504466069002801D000F08D
:10628000FCFD2046BDE81040FFF79DBE30B583B051
:1062900004460025029535A04168006801910090F0
:1062A000354834490160C0F814D0012141608A03A7
:1062B0008260CA02C260CA0502628161C56105824C
:1062C000FAF718FD002847D02CA0FDF7C5FB0423E2
:1062D0002E4A2F492848FAF775FC2E4A0423A2F5C6
:1062E00080712548FAF72EFC062084F82C00022045
:1062F00084F82D0084F82E5084F82F5084F8305004
:1063000084F8315084F8325040F2DC50608594F8C3
:10631000330040F00A0084F833001748FAF7ECFE27
:1063200002AA11211448FAF7A1FE029840F00302D4
:10633000029211211048FAF79DFF02AA12210E487D
:10634000FAF794FE029840F02002029212210A48C5
:10635000FAF790FF03B030BD0FA0FDF77DFB94F876
:10636000330040F0040084F83300B0E7020000007E
:106370000000000000800240C4320020455448B3B1
:10638000F5CABCBBAFCAA7B0DC0A0000F41A0020F3
:10639000A402002024030020455448B3F5CABCBB26
:1063A000AFB3C9B9A60A00002DE9F84F002000904C
:1063B00000242D48FAF74DFC10B10020BDE8F88FFD
:1063C0002948818F89B2D0F840A021B1032204204E
:1063D00000F0CEFB0090009840B32348D0F8308006
:1063E000009F40F2F45B7D8900262819584512D998
:1063F0007868ABEB04090AEB040130444A46F9F72C
:10640000F1FED8F80C80D8F808A0A5EB09054E4499
:1064100000245D45ECD878680AEB040130442A4634
:10642000F9F7E0FE2C443F68002FDCD10E4A106BD8
:106430000021936B002B08D9036843F000430360ED
:10644000C068491C936B8B42F6D800219163106899
:1064500000F58050426912F0800F02D08022426124
:1064600081600098BDE8F88FC43200202DE9F05F0C
:106470000F462B48C66AD6F808B04FF0000A002431
:10648000002F3AD0306810F0004F02D06FF00700B4
:1064900038E07D894FF00009291940F2F45081421B
:1064A0001ED940F2F450A0EB04087868424600EB95
:1064B00009010BEB0400F9F795FEF668306810F05F
:1064C000004F02D06FF007001CE0D6F808B040F291
:1064D000F450A5EB0805C144C24400248542E0D82D
:1064E00078682A4600EB09010BEB0400F9F77AFE05
:1064F0002C44AA443F68002FC4D151460848FAF7FB
:106500001EFE00200649096801F580514A6912F013
:10651000200F03D020224A6100224A60BDE8F09F8C
:10652000C43200200148FFF75FB80000D801002006
:10653000010600F47F4241EA022100F47F0241EAB1
:10654000122141EA106070470106090C41EA10204F
:10655000704710B500F0F8F800F0EEF900F04AFAD4
:1065600003F07EFB01F07EFABDE8104000F012BEA1
:1065700081B00022009200F00103002B06D0002918
:1065800004DD10F801CB8DF801C0491E012905DD9D
:1065900030F802CB6244891E0129F9DC002902DDB2
:1065A00000788DF80000BDF80000104481B201EBC6
:1065B000104081B201EB104023B1C1B2C0F30720FB
:1065C00040EA012080B201B070470000FAF7C2FF34
:1065D000FCF7AEFCFCF7AAFBF9F782FE2748FBF7B5
:1065E000A8FCFAF785F9FCF71BFBFCF739FC2449FA
:1065F0002448FCF7C3FA24492448FCF7BFFA24498D
:106600002448FCF7BBFA24492448FCF7B7FA24498C
:106610002448FCF7B3FA24490868C26842F0020231
:10662000C2600868C26842F00102C2600A6840F2B3
:10663000EE2050630A6840F2D660D062C8601B4901
:10664000002048801A49022088801AA0FDF704FA29
:1066500021A0FDF701FAFCF735FA28A0FDF7FCF9B7
:10666000FCF788FB2C48FEF7BFFF00F017FD2A4817
:10667000FAF72AF92848F9F74FFEF3E7903A002095
:106680005109000814000020690900081C000020BE
:106690008109000824000020990900082C0000202E
:1066A000B109000834000020143A00200000002046
:1066B0008C010020202D2D2D2D2D2D2D4D6F646250
:1066C0007573CDA8D0C5D0ADD2E9C0FDB3CC2D2D0A
:1066D0002D2D2D2D200A000059732D463450726F38
:1066E00020204D6F64627573D6F7BBFA2020525498
:1066F00055CDA8D0C5C4A3CABD0A000059532D4624
:1067000050726FCDF8C2E7B2E2CAD4A3AC70696E22
:1067100067B2E2CAD40A0000D801002000280FD0D6
:1067200008490A6890420BD34A68904208D2083858
:10673000002202718A68904200D2886000F07ABC20
:1067400070470000B80000200A480B4B20F00300FF
:1067500018604FF42052028000214180017100F541
:10676000205159604FF0010C81F804C00A804A8022
:10677000986070471B3C0020B8000020F0B400284F
:106780000DD0C01C20F0030323F480330C2B00D267
:106790000C23B3F5205F05D9F0BC00207047F0BC96
:1067A00000207047244DD5F800C0AA68A2EB0C0069
:1067B00080B2C3F5205484423AD90CEB00010E7923
:1067C0008EBB0E88361A083E9E422DD30C8803F1EC
:1067D0001407241A083C0126BC4213D3034408338F
:1067E0009CB20CEB040300271F710F881F80588098
:1067F0000C800E711888B0F5205F04D00CF10203F4
:10680000C45200E00E71914203D008E0108800EB02
:106810000C02107910B168688242F7D1AA60F0BC0E
:1068200001F108007047FFE73CF800008442C4D83B
:10683000F0BC002070470000B80000202DE9F003F4
:10684000C91C21F0030121F480310C2900D20C2154
:10685000B1F5205F03D90020BDE8F00370472F4F4A
:10686000D7F800C06045F7D37A689042F4D2A0F11F
:106870000803A3EB0C0292B21C88A51A083DAEB225
:10688000B14204D94FF00000BDE8F0037047FBD0DF
:106890006444224D94F804904FF000082D68B9F13B
:1068A000000F05F102051DD001F11404B442EBD82C
:1068B000114408318CB20CEB0401D7F808C06145D3
:1068C00000D2B96081F80480B3F800C0A1F800C01C
:1068D0004A801C800988B1F5205FD5D04C53BDE8B3
:1068E000F003704726881144083189B2D7F8089020
:1068F000A14502D10CEB0104BC608C448CF80480EF
:10690000ACF80060ACF802201980BCF80020B2F5A9
:10691000205FE4D05153BDE8F0037047B800002079
:10692000092806D2002904D0024A52F82000FEF7B6
:10693000D6B970475CA2000830B50024044D55F864
:10694000240000F007F8601C84B2092CF7D330BD96
:106950005CA200088268002111604168C91C21F016
:10696000030100224388002B0ADD83681B680B604B
:106970008368196003881944521C43889342F4DCED
:1069800070470000092801D300207047024951F8E0
:106990002000FEF7AAB900005CA200082DE9F04132
:1069A0000446DDF820C0069E079D00206060A060C0
:1069B000E06084F833006062032784F82870E061A7
:1069C00026620B4E307884F83600401C3070C4F8D4
:1069D00010C0204600F01EF82046A84710B1002045
:1069E000BDE8F0817068206074602046BDE8F081E9
:1069F000E8000020704711F0010F0AD0416800291B
:106A000007D090F8331011F0080F02D0011DFEF7E7
:106A10001BBC70472DE9F04107460C4615461E4643
:106A2000002C0FD0216869B12946384600F089F85A
:106A30003146384600F029F821463846BDE8F04195
:106A400000F02AB82146384600F026F82946384694
:106A500000F077F831463846BDE8F04100F015B84F
:106A60000149886070470000E800002090F833106A
:106A700011F0010F08D021F0010180F8331011F05E
:106A8000080F01D0FEF73AB97047002902D0096813
:106A9000C16070470021FBE738B504460D46002D64
:106AA00002D02868009002E00C480068009000982E
:106AB000616888420ED06946201D01F01DFB6946C1
:106AC000201D03F08DF935B1286860600121204652
:106AD000FFF791FF38BD0020F7E70000DCA10008B8
:106AE000002800D0C161704790F8331011F0040FF6
:106AF00007D021F0040180F83310C169002900D0CB
:106B00000847704710B5044694F8330010F0040F9E
:106B100016D140F0040084F833002046FDF7A8FBAE
:106B200094F8330010F0010F03D003212046FFF743
:106B300062FFE169002903D02046BDE81040084704
:106B400010BD002902D00968816070470021FBE771
:106B500090F8331011F0010F09D141F0010180F8D4
:106B6000331011F0040F02D00321FFF744BF704728
:106B70002DE9F0470D46164605281CD2DFE800F047
:106B8000030507090B00362706E0222704E00E273D
:106B900002E0002700E000274FF001094FF0000855
:106BA000002E4FD0012E6AD0022E68D0032E05D0C1
:106BB0000020BDE8F0870020BDE8F0870820FFF73F
:106BC000E1FE0446200034D02673C4F80080E019AA
:106BD000133020F0030060602581F81C20F00300D2
:106BE000C0F50070A84200D9284680B26081A4F8A0
:106BF0000E9027462D1A002D4DDD0820FFF7C2FE0E
:106C0000D0B1067380F80D80C0F800803860A9B25A
:106C10000181B1F5007F01D34FF40071418100F192
:106C200010024260A0F80E906D1A0746002DE4DCB9
:106C300031E00020BDE8F087204600F01EF900207A
:106C4000BDE8F08707F11300E91C20F0030021F0F4
:106C50000301084480B2FFF791FD044620000BD0E9
:106C6000E019133020F00300606025816581C4F8CD
:106C7000008084F80C800EE00020BDE8F08707203B
:106C8000FFF780FE04466CB1C4F80480258165815D
:106C9000C4F800802673A4F80E9084F80D80204676
:106CA000BDE8F0870020BDE8F08730B40546DDF888
:106CB00008C0039C1846052D16D2DFE805F0030531
:106CC00007090B00362306E0222304E00E2302E02E
:106CD000002300E00023DB1C23F003035D18A54222
:106CE00005D930BC0020704730BC0020704700241C
:106CF0000460BCF1000F02D06344436000E04460D4
:106D0000022343730181418102730121C18130BC9F
:106D10007047002810D000290ED002683AB10289CD
:106D20000B891A44028100680268002AF7D102899F
:106D30000B891A4402810160704710B50C46214648
:106D4000FFF7E7FF2046BDE8104000F03EB9002104
:106D5000002804D0491C89B200680028FAD10846EE
:106D600070472DE9F04105460C4600260027002D0E
:106D700004D01CB128892189884203D26FF00F000A
:106D8000BDE8F0816889811B6089C01B814202DBFC
:106D90001FFA80F801E01FFA81F860684246C119C5
:106DA00068683044F9F71EFA06EB080086B207EB74
:106DB000080087B26089B84201D800272468688932
:106DC000B04207D100262D6825B91CB16FF00F0025
:106DD000BDE8F0814CB160892189884205D12068E5
:106DE00018B16FF00500BDE8F0814DB168892989BF
:106DF000884205D1286818B16FF00500BDE8F08120
:106E0000002CBFD10020BDE8F0812DE9F047894674
:106E100016464FF00008002805D0B9F1000F05D044
:106E20000027044623E00020BDE8F0870020BDE8ED
:106E3000F0872BB16089984202D8181A83B215E006
:106E40006089C01A85B2B54200D9354660682A46C5
:106E5000C11809EB0700F9F7C5F908EB05001FFA9F
:106E600080F8781987B2701B86B2002324680EB1AF
:106E7000002CDED14046BDE8F08770B500280AD06E
:106E80000024C189491E89B2C18131B10020002886
:106E9000F7D1204670BD002070BD0568017B427BA4
:106EA00012F0020F02D00169884707E0032909D0D8
:106EB00001290CD002290AD0FFF730FC601CC4B2B3
:106EC0002846E4E701460820FFF72AFDF6E70146D9
:106ED0000720FFF725FDF1E7002200F003B80122AB
:106EE000AFF3008010B4002909D040B10ADA4B4258
:106EF0009CB24389A34206D210BC0120704710BC4B
:106F0000002070478CB2037BD0F804C043B1032B40
:106F100006D0022B10D0012B0ED010BC01207047E0
:106F2000ACEB0102426000F110039A4213D2C0F8A8
:106F300004C010BC01207047002906DA4389A3422F
:106F400003D3ACEB0102426005E000290CDD5AB12D
:106F5000ACEB0102426042890A4442810289114439
:106F6000018110BC0020704710BC0120704770B533
:106F700002898A4228D98A1A0D4604466089A842A5
:106F800009D26089281A85B220891044208124689A
:106F90006089A842F5D3207B70B96089A8420BD0E4
:106FA000607B10F0020F07D1A088001B284481B23B
:106FB0002046FFF743FC044665812581206808B11F
:106FC000FFF75BFF0020206070BD002802D0C18960
:106FD000491CC18170472DE9F041884614460027BD
:106FE000002808D0B8F1000F09D0018991420AD2D7
:106FF000781EBDE8F0816FF00F00BDE8F0816FF002
:107000000F00BDE8F08106468CB125467089A84284
:1070100000D2054608EB07012A467068F9F7E2F846
:10702000601B84B2781987B23668002CEDD100203D
:10703000BDE8F08110B4DFF860C00188DCF8002002
:107040001144931C884210D00C7974B9DCF80440C8
:10705000A1420AD0DCF808408C4201D1CCF80800EB
:107060000C8804800988841ACC52418811448142DA
:107070000FD00C79002C0CD1DCF80840844201D1EF
:10708000CCF80810B0F800C0A1F800C00088891A38
:10709000C15210BC70470000B80000202DE9F0413B
:1070A000104F386800281BD000F01EF87968441A89
:1070B0000025396891B14868A0420FD801257A6847
:1070C00002447A60241A086838608E68D1F80C800F
:1070D0000620FFF725FC0EB14046B047002DE7D152
:1070E000BDE8F08144010020FAF726BA2DE9F0410D
:1070F00005460E4617460620FFF744FC04462000CE
:1071000016D0FFF7F1FF0146DFF884C0DCF800304D
:10711000002B0FD0DCF80400A1EB00004FF00001C1
:107120002160A660E7602844606008D1CCF8004088
:10713000BDE8F0814FF00000CCF80410EEE758688D
:10714000A84206D9401B58602360CCF80040BDE837
:10715000F0811846616842688A1A6260016819B154
:10716000D1F804C0944511D9026822B14A68636815
:10717000D21A4A6005E06168A94202D959682944D7
:107180006160016821600460BDE8F0810846E1E7C4
:107190004401002070B50124074D084905EBC402E5
:1071A00055F83400FFF7A2FF641C052CF5D3FFF758
:1071B0009BFF0349486070BDD4A20008853C0008CD
:1071C000440100202DE9F04F83B00446207D0A28B9
:1071D00037D000250027D4F84C90D4F824A0D4F858
:1071E0008860D4F810B0DFF8A880002834D00D46AD
:1071F000E78A214608F1180001F008FA012088F812
:107200000000E06E08B101F0FEFFA06E08B101F0D1
:10721000FAFF45B1208B0190231D2246514600976D
:10722000484601F09DFF21460120FFF779FB002E23
:107230002AD003B05846B446BDE8F04F6FF00C01B9
:1072400060472146134801F0E1F903B02146BDE84B
:10725000F04F0120FFF764BBE08A0028D1D0D8F8B6
:107260001000A04203D1C068C8F8100009E040B186
:10727000C168A14202D1E168C16002E0084600286D
:10728000F6D10020E060BCE703B0BDE8F08F00005D
:10729000F4000020100100200121FFF793BF002817
:1072A00003D0027D012A00D18161704710B50846E4
:1072B000FFF7F2FF6FF00C0010BD000070B505463F
:1072C0000120FFF75FFB0446ECB900F025FE01202A
:1072D000FFF758FB0446B4B9092000F0FDFD01207A
:1072E000FFF750FB044674B9082000F0F5FD0120BB
:1072F000FFF748FB044634B9284600F0C9FD0120D9
:10730000FFF740FB04464CB394212046F8F783FF77
:10731000657541F2D060A4F860004010608520855A
:10732000FF20A0724FF4067060860620A4F840008B
:10733000E087C01F20860120A4F8480000F04AFF23
:107340006065E0646064A0650548C168216280787A
:1073500060770448E0670448C4F88C00204670BD9C
:10736000F4000020C58F000800DD6D00002800D06B
:10737000016170472DE9F04105460C460426002CBA
:1073800000D1204C35B12CB1287D38B16FF005000B
:10739000BDE8F0816FF00500BDE8F081AAB14FF0C3
:1073A000000C194F57F82C000068C8B1C18A9142EF
:1073B00013D130B1016821B11CB123680BB19942DE
:1073C0000BD16FF00700BDE8F08100F0D3FE02465C
:1073D000100009D1801EBDE8F081C0680028E5D109
:1073E0000CF1010CB445DDDB14B1206800B128605C
:1073F000EA8206480169E960056102F00DF90020A2
:10740000BDE8F081DCA10008C4A20008F40000205F
:10741000017D012903D0817E41F010018176012197
:10742000AFF300802DE9F04383B004460026207DB1
:10743000584F4FF00108002944D0042801D00728F4
:1074400040D1216F21B9218DA1F53062683A39D040
:10745000218BE08A01910090231D2246616AE06C35
:1074600001F07EFE204601F0B4F8B869A04202D1D6
:10747000C068B86109E040B1C168A14202D1E168C9
:10748000C16002E008460028F6D1E66087F8008077
:10749000207D042806D040480068A0420AD102F0AE
:1074A00033F90BE00A202075F869E060FC6102F016
:1074B000B3F803E021460120FFF732FA03B00020C1
:1074C000BDE8F0834FF00509082855D2DFE800F049
:1074D000041E2C394254544B0025E08A80B138698F
:1074E000A04202D1C068386109E040B1C168A14240
:1074F00002D1E168C16002E008460028F6D1E660EA
:1075000021460120FFF70CFA002437E00025204631
:1075100000F01CFD2146214801F078F821460220A8
:10752000FFF7FEF9002429E0002521461C4801F060
:107530006DF887F8008021460120FFF7F1F900245B
:107540001CE0204601F0A3FE0546280016D184F871
:10755000149013E0204601F09AFE054628000DD154
:1075600084F814900AE0204601F091FE05462800B8
:1075700004D10920207501E00025002434B12DB983
:10758000204600F02FFE07A0FCF766FA03B028465D
:10759000BDE8F083F4000020340100200801002041
:1075A0000C01002036363636363636360A000000F4
:1075B0002DE9F0478046089E0F4691469A4616F000
:1075C000010F01D0042500E000250320FFF7DAF9C0
:1075D000041E11D0A6720026266067603889401B01
:1075E000208114213846FFF777FC58B1204601F07E
:1075F000FBFD0020BDE8F0873846FFF73EFC002089
:10760000BDE8F08760684068E060B8F81600FEF7F3
:107610009BFFE1680880B8F81800FEF795FFE16865
:1076200048805046FEF784FFE1684860052000EB83
:10763000950049EA003080B2FEF786FFE168888154
:10764000E06846822046BDE8F087000038B50C4669
:107650000121204601F08AFE0C20FFF78FF8014639
:107660001B48C16000292CD0012008704C6000200C
:10767000487088602046FFF779FE1649204601F0E1
:107680009DFC1549204600F099F901221349204636
:1076900000F0F2FF6068DFF848C0C1B28CF800105B
:1076A000C0F307228CF80120C0F307438CF80230A6
:1076B000000E8CF8030000900AA0FCF7CDF9002022
:1076C00038BD204600F01EF84FF0FF3038BD0000F6
:1076D0007C0000207D77000847770008517700087C
:1076E0008C000020C1ACBDD3B5C4B5E7C4D4B6CBC3
:1076F0004950CEAAA3BA25642025642025642025FC
:10770000640A000070B505460C4600212846FFF7C4
:107710002DFE0021284601F0DFFD0021284601F062
:107720004DFC0021284600F049F900221146284668
:1077300000F0A2FF14B12046FEF7F0FF2846BDE896
:107740007040FFF765BE002801D0FEF7E7BF704725
:1077500010B50A460146002909D0886828B908787A
:10776000032802D11046FFF7CDFF002010BD1046C0
:10777000FFF792FD6FF00C0010BD00002DE9F047FF
:107780000646884617461C460025002F09D0A94604
:1077900094B1C6F808903846FFF76FFB2046BDE865
:1077A000F08703203070B06818B931464046FFF7C3
:1077B000A9FF0020BDE8F087307801280DD003280C
:1077C00036D03989404601F011FCC6F80890384699
:1077D000FFF753FB0020BDE8F08764211A48F8F753
:1077E0001AFD3C46184E6289C5F16400824206D9F2
:1077F000C5F1640270196168F8F7F4FC03E07019D0
:107800006168F8F7EFFC104910A0FCF725F96089D2
:107810000544642D02D82468002CE4D139894046FF
:1078200001F0E4FB3846FFF728FB0020BDE8F087B5
:107830003989404601F0DAFBC6F808903846FFF770
:107840001CFB0020BDE8F0870C3300207463705FE0
:107850007365727665725F726563766275663D25E3
:10786000730A00002DE9F04107460E46002523E08B
:1078700001233846616801F06EFF0546280003D0F9
:10788000B5F1FF3F18D110E0B4F80A802068B0606D
:1078900008B1FFF79AFB2046FFF7EFFA0028FAD06D
:1078A0004146384601F0A2FB06E0B460384600F0DD
:1078B00099FC07A0FCF7D0F8002D07D1B468002C84
:1078C00004D06289B7F860008242D1D9BDE8F08166
:1078D000313131313131000010B504460846FEF730
:1078E000D7FA50B1B0F92A0028B1283880B28442C2
:1078F00000D220460446204610BD204610BDF8B5F3
:1079000004460D460026B4F86200082802D315F09C
:10791000010F08D015F0020F00D0012616F0010F5C
:1079200008D0042107E0A07E40F08000A0764FF050
:10793000FF30F8BD002100221046FFF719F958B1B9
:10794000009601462A462046A36DFFF731FE021E2F
:1079500009D0A06E70B110E0A07E40F08000A0764B
:107960004FF0FF30F8BDA07E40F08000A0764FF0D1
:10797000FF30F8BDA26604E0084601680029FBD18B
:1079800002600020A4F8640005F0020005F0010187
:10799000084302D0A06D401CA06515F0010F03D074
:1079A000A07E40F02000A0765068FFF7D0F9B4F830
:1079B00062100844A4F862000020F8BD002801D03D
:1079C000C0F88810704700002DE9F041154EB078DE
:1079D000401CB0700027B469002C21D0617FB078C2
:1079E00081421AD06077A07E10F0010F09D040F0DC
:1079F0000200A076204600F0F5FBA07E20F00300F8
:107A0000A076E568206F30B13770204601F082F82B
:107A100030780028DFD12C4600E0E468002CDDD16E
:107A2000BDE8F081F4000020DFF834C06046DCF8E7
:107A30001020C088411C89B2002A03D0BCF8043051
:107A4000984206D2DCF80C201432ACF80610105C18
:107A50007047C01AACF80610C0B2105C7047000046
:107A600014010020704700002DE9F04F83B0054657
:107A7000EB4E6868F06068891428C0F0CA81E94F4D
:107A800039687869FDF7DBFE002840F0C281387D57
:107A900000F0F000E02800F0BC81F0688089FEF77B
:107AA00053FD000B80001428C0F0B3812989814266
:107AB000C0F0AF81A0F1140189B27180002232615F
:107AC0006A89824205D3B18041422846FFF704FA11
:107AD0001CE06FF013012846FFF7FEF96889B080BB
:107AE0007188091A8CB2404201B22846FFF7F4F9B6
:107AF00028684189A142C0F08C81416831616142AE
:107B000009B2FFF7E9F92889001B2881F06800888D
:107B1000FEF71AFD0146F06801804088FEF714FD6B
:107B20000146F06841804068FEF702FD0146F068BA
:107B3000416071618068FEF7FBFC0146F06881607E
:107B4000B161C089FEF700FD0146F068C1818089FE
:107B5000FEF7FAFC00F03F033370298913F0030F9E
:107B600001D0012000E00020084470810020DFF8EF
:107B7000B8A2DAF80040A1461CB3F1683A69D7F818
:107B80001480B1F800C0B4F818B0E34515D1B4F8CA
:107B900016B0B1F802E0F3450FD1D4F804B0934524
:107BA0000BD1D4F800B0C34507D150B1E168C16032
:107BB000C4F80C90CAF8004003E02046E468002CAA
:107BC000E1D1ECBB9948046814B3F0683A69D7F87E
:107BD00014C00188B4F81880884516D1B4F816800E
:107BE000B0F80290C84510D1D4F8048090450CD16B
:107BF000D4F80080E04508D1204601F027FD03B00D
:107C00002846BDE8F04FFFF738B9E468002CE1D111
:107C10000022DFF81CA2DAF80000814690B1F1687A
:107C2000D7F81480B1F802C0C18A614504D1016857
:107C3000414507D030B129B10246C068002800E0B4
:107C400010E0F1D170B12AB1C168D160C0F80C90D8
:107C5000CAF8000000F08AF903B02846BDE8F04FEA
:107C6000FFF70BB9002C6ED0DFF8C8810027C8F8E9
:107C700000702889A8F80800C8F80450F068C8F80F
:107C80000C00F7617770378113F0080F03D0687B21
:107C900040F001006873206F50B1204600F03AFFB9
:107CA00010F10D0F42D0206F10B1708900283DD126
:107CB0003462204600F0E4FC10F10D0F36D07078ED
:107CC00010F0080F0FD0D4F888201AB16FF00D0112
:107CD000206990472146544800F098FC2146012035
:107CE000FEF71EFE6DE00020328942B1A36F13B192
:107CF00021462069984710F10D0F62D037817078C6
:107D000010F0100F13D0A07E10F0100F06D1D4F891
:107D100088201AB16FF00E01206990472146424831
:107D200000F074FC21460120FEF7FAFD49E0F069FD
:107D300010B3A17E11F0100F06D0FFF79EF8204679
:107D4000FFF7AAFA3DE049E0D4F87CC0BCF1000F8F
:107D500006D025690246002321462846E04705E073
:107D6000002302462146184601F02CF910F10D0FB0
:107D700027D008B1F0692067707810F0200F1CD070
:107D8000206F20B1417B41F02001417315E0208D2F
:107D9000A0F53061683901D0401C2085D4F87CC042
:107DA000BCF1000F05D000231A4621462069E047A8
:107DB00000E0002010F10D0F03D03762204600F0E4
:107DC00011FA3762F761D8F80400002803D0FFF7F2
:107DD00054F8C8F8047003B0BDE8F08FF0688089EB
:107DE000FEF7B2FB10F0040F0DD1F06807F110039D
:107DF0001A1D0188408801910090718970690144C1
:107E0000B06901F0ADF903B02846BDE8F04FFFF7C7
:107E100034B803B02846BDE8F04FFFF72EB8000095
:107E200014010020003C00200C0100201001002063
:107E300008010020A47F002030B583B00446E06C28
:107E4000401EFEF775FB034600221146204600F057
:107E5000C9FA0546ADB1201DFEF71AF8A8B10621F2
:107E60000022009201910290A37A221D2146284609
:107E7000FDF7DAFE04462846FEF7FFFF03B0204672
:107E800030BD03B04FF0FF3030BD6FF00304F2E7B8
:107E900030B47F2801D97F2300E003464FF0000C67
:107EA00000240C49886968B1CD68427D9A4206D8A1
:107EB000016A691A614502D38C4604461346C068BC
:107EC0000028F2D1002C03D0204630BCFFF7E4B9E3
:107ED00030BC7047F400002030B4844600230020FA
:107EE0000C498A69002A0CD0CC68117D614505D106
:107EF000116A611A994201D30B461046D268002AD2
:107F0000F3D1002803D030BC0021FFF75BB930BCAF
:107F100070470000F4000020002300200A4AD169C5
:107F200000290BD0D2F80CC00A6AACEB02029A42CC
:107F300001D313460846C9680029F5D1002801D0AD
:107F4000FFF7AAB970470000F400002070B506469C
:107F50000124054D314655F82400006801F074F8FD
:107F6000641C042CF6D370BDC4A20008F0B583B025
:107F70000546394E307810F0040F11D1374F10F00C
:107F8000100F0FD0F06807F110031A1D0188408808
:107F900001910090718970690144B06901F0E0F8C5
:107FA00003B0F0BD10F0020FFAD0687DFFF786F93C
:107FB000044620003CD07869206038696060E88A17
:107FC000E082F06800882083032020757069411CDE
:107FD0006162E162401E2065286920616567287A38
:107FE00000F00C0020721E480168E160046001F09E
:107FF00013FB1C4901200870204600F083FAF0684A
:10800000C089A4F85C00A4F85E00A4F84A00608E61
:10801000211DFFF761FC608612212046FFF76FFCEF
:1080200098B103B02046BDE8F0400021FFF7CAB880
:10803000002DB5D0AB69002BB2D0286903B04FF04A
:10804000FF32BDE8F0400021184703B02046BDE8EC
:10805000F04000F0C7B8000014010020003C0020F0
:108060000C010020F400002070B50446207D00289B
:1080700001D0002070BD0220FEF784FC05462800D8
:1080800018D020692861E08AE88201202875607D87
:108090006875207A2872A07AA872607A687220685F
:1080A0002860E08AA0B111490869A04204D1C068E3
:1080B00008610BE0002070BD40B1C168A14202D14F
:1080C000E168C16002E008460028F6D10020E060C7
:1080D00021460120FEF724FC0548A86105480168F7
:1080E000E960056001F098FA284670BDF4000020B0
:1080F000AD7200080801002070B504460D46002C42
:108100001FD0206800281CD00E4E2046B16900F018
:108110001BF82046316900F017F8002D11D02868AF
:1081200000280ED006F114000268002A09D0D06899
:1081300011682368994201D1296811600246002A1A
:10814000F5D170BDF400002070B505460846002842
:108150000BD001682A68914204D1C468FFF79CF8EB
:10816000204600E0C0680028F3D170BD4020FFF732
:10817000A5B80000F0B44FF0000C144C144D4FF6AD
:10818000FF764FF44047A888411CA980B04200D137
:10819000AF800021AA8854F82100006878B1C38A12
:1081A000934209D10CF101001FFA80FCBCF5804F0D
:1081B000E9D3F0BC00207047C0680028EFD1481C0C
:1081C000C1B20429E7D3A888F0BC7047C4A2000854
:1081D000F40000200249CA6888681044886070472B
:1081E000F40000202DE9F05F04467C480068A042BE
:1081F00002D10020BDE8F09FB4F85C80B4F84800DC
:10820000804500D38046A56EA07E10F0020F0FD0EF
:108210004DB1E8684068FEF78BF9616C401A298916
:108220000844404504D92046BDE8F05F00F0F5BFA2
:10823000E76E0FB903E0074638680028FBD1201D20
:10824000FDF726FE81466648016811B944600121A8
:1082500001600168012905D14168A14202D0846012
:1082600002210160B9F1000F03D034B1206820B1C0
:1082700008E06FF00300BDE8F09F09F1040020B1B1
:10828000006820604FF0000A91E06FF00300BDE845
:10829000F09FE8688089FEF757F9E06EA8B1A17EEB
:1082A00011F0440F11D1A06E28B102686AB900899B
:1082B000628E904209D2B4F8600030B1B4F8620026
:1082C000082802D211F0A00F7DD0207D022807D00F
:1082D0001020FEF739F90146E8688289114381814F
:1082E0004A462146284600F0B3F828B1A17E41F065
:1082F0008001A176BDE8F09F2868A066207D022855
:1083000003D0A07E20F00300A076E8684068FEF766
:108310000FF90646E8688089FEF716F910F0030F9A
:1083200001D0012000E00020298930440844E16C9C
:10833000091A00D5E064E8688089FEF705F910F0B5
:10834000030F01D0012000E000202989C8422AD073
:10835000C5F800A0E06E68B1E8684068FEF7E8F88C
:108360000646F8684068FEF7E3F8301A18D504F1BD
:108370006C0603E0E5662F4618E03668306858B1B1
:10838000C0684068FEF7D4F88346E8684068FEF7A6
:10839000CFF8BBEB0000F0D430682860356005E012
:1083A0003D602F4602E0284600F01EFFA56E55B145
:1083B000E8684068FEF7BCF8616C401A29890844F7
:1083C00040457FF666AFA06E08B9A4F864A0A07E11
:1083D00020F08000A0760020BDE8F09F340100204E
:1083E000380100202DE9F04105460E469846B018A8
:1083F000143081B200220120FEF7BAFB07461FB3FA
:108400007C68E88AFEF7A0F82080288BFEF79CF8AD
:108410006080C4F80480686AFEF78AF8A0600520CE
:1084200000EB9600102141EA003080B2FEF78CF894
:10843000A081688DFEF788F8E081002020826082AC
:10844000698D686A0844E8623846BDE8F08100003A
:10845000F0B583B005460C4617466868C089012808
:1084600002D003B00020F0BD606AFEF761F8E96851
:108470008860608DFEF768F8E968C881618D606A80
:108480000844E062E86800F11406A87A10F0010FD1
:1084900009D0211D40F2B450FFF71EFA40F00170E0
:1084A000FEF746F83060B4F930000026002800DA04
:1084B0002686606B38B9124800686063E8684068D7
:1084C000FEF736F8A0636968A8898A88801A4A8905
:1084D000121A4A8169680A89101A08816968E8686D
:1084E0004860E8680682607A062101910297009050
:1084F000A37A221D21466868FDF796FB03B0F0BD04
:10850000000100202DE9F04106461B4D6888002837
:1085100019D04FF00000E88015D940F2B457FFF7AA
:1085200083FA00280FD0012809D002280DD0FFF7C8
:108530007BFA022807D3E9880844801EE880E8888F
:1085400069888842EBD3BDE8F081FFF76DFA042813
:10855000F9D1E8886988801C8842F4D8FFF764FA6A
:108560000402FFF761FA2043B84200D808B940F28C
:10857000B4507086E3E700001401002070B50C468B
:108580001D46069E059B0499A446944214D213F0FE
:10859000020F08D18B7E13F0400F0DD11EB18B6EF0
:1085A0000BB9C96E41B104F2B75121F003019142F8
:1085B00000D80A461FFA82FC00226146FEF7D8FA6C
:1085C00028B14189091B29800481448170BD0020A4
:1085D00070BD70B50446207D002816D00A2814D03E
:1085E000012812D0206F002510B1FEF746FC256748
:1085F0004FF0FF302086A06E00F005FEE06E00F028
:1086000002FEA566E566A4F8645070BD70B502462A
:108610000C461068A04202D1C068106009E040B169
:10862000C168A14202D1E168C16002E008460028A9
:10863000F6D10025E5602046FFF7CBFF207D0A2814
:108640000ED001280CD0A07E10F0010F08D040F011
:108650000200A0762046FFF7C5FD03A0FBF7FCF95A
:108660002575E58270BD0000313031303130313058
:108670003130313031300A00C0F884100277704751
:108680002DE9F04F83B0044600208146DFF86CB43A
:108690009BF8001011F0040F2FD0217D022906D085
:1086A000616ADBF81420914208D1012011E0E16CED
:1086B000DBF8182091420CD101200AE0531A08D4AB
:1086C000238D1944511A002903DCA17E41F00201D7
:1086D000A17670B19BF8010040F008008BF8010012
:1086E000A07E20F00100A07603B06FF00D00BDE881
:1086F000F08F03B00020BDE8F08F11F0020F0CD016
:10870000207D022809D0032807D0A07E40F0020077
:10871000A07603B00020BDE8F08FA07E10F0100F0F
:1087200002D1F748006820624FF0000A84F892A056
:108730002046FFF7E7FE207D0127801E0423F14A33
:10874000DFF8C483F14EF24D082880F0D381DFE8D2
:1087500000F0048FEEEDECEEEBEA9BF8000010F079
:10876000100F68D010F0020F65D0616C01F1010CA0
:10877000DBF818108C455ED1DBF81400421C6262F5
:10878000E2626164DBF80C10C989A4F85C10A4F8FB
:108790005E10401E20652375608E211DFFF79CF83A
:1087A0006086B4F85C10A4F84A1041F21C12B2EBD7
:1087B000400F01D2410001E041F21C11B1EB800FEA
:1087C00001D9800006E0B2EB400F01D2400001E089
:1087D00041F21C10A4F84800B4F86200401EA4F84E
:1087E0006200E06ED0B10168E16600F0FDFCE06E71
:1087F000C0B1A4F830A084F842A0D4F8803023B1EE
:108800000022214620699847814619F10D0F0DD0AD
:10881000A07E40F00200A07600F06CB9A06E016866
:10882000A166E2E74FF0FF302086E6E703B06FF085
:108830000C00BDE8F08F10F0100F00F05B81DBF84A
:108840000C0002F11003143201884088019100905D
:10885000BBF80A10DBF814000144DBF8180000F044
:108860007FFCA4F830A0204600F056FC00F042B98E
:108870009BF8000010F0100F6BD0616CDBF8180053
:10888000411A012954D4E16C411A002950DC2375A6
:10889000606F30B183693BB100222146206998475F
:1088A00004E06FF0050001E06FF00F0050B110F12F
:1088B0000D0F02D02046FEF7EFFC03B06FF00C0066
:1088C000BDE8F08F204600F063F9B4F85C00A4F82E
:1088D0004A00BBF8080010B1401EABF80800608EDB
:1088E00041F21C12B2EB400F01D2410001E041F213
:1088F0001C11B1EB800F01D9800006E0B2EB400FF4
:1089000001D2400001E041F21C10A4F848009BF89D
:10891000010010F0200F52D0A07E40F00200A0769F
:1089200007202075E6E0D0E0A3E079E02DE01DE02F
:10893000DBF80C100B88498801930091BBF80A30D2
:10894000DBF81410194402F11003143200F008FC93
:10895000D0E010F0020F32D0606ADBF81410401E35
:1089600088422CD1204600F07AFBC3E0204600F07C
:108970000FF99BF8010010F0200F20D0A07E40F0EE
:108980000200A07607202075B4E0204600F000F930
:108990009BF8010010F0200F33D09BF8000010F07E
:1089A000100F06D0E06CDBF81810884201D1A06EE1
:1089B00030B1A07E40F00200A0760820207599E03A
:1089C000A07E40F00200A0762046FFF702FE286855
:1089D000A04202D1C068286009E040B1C168A1424C
:1089E00002D1E168C16002E008460028F6D188F8AB
:1089F00000700A2020753068E060346000F00CFEE2
:108A000078E09BF8000010F0100F73D0E06CDBF8FA
:108A1000181088426ED1A06E50BB0620207569E008
:108A2000204600F0B5F89BF8010010F0200F61D04F
:108A3000A07E40F00200A0762046FFF7CAFD28681D
:108A4000A04202D1C068286009E040B1C168A142DB
:108A500002D1E168C16002E008460028F6D188F83A
:108A600000700A2020753068E060346000F0D4FDAA
:108A700040E0204600F08CF89BF8000010F0100F4A
:108A800038D0E06CDBF81810884233D1A06E88BB78
:108A90002046FFF79EFD2868A04202D1C0682860EA
:108AA00009E040B1C168A14202D1E168C16002E0C1
:108AB00008460028F6D188F800700A202075306832
:108AC000E060346000F0A8FD14E0204600F060F89B
:108AD0009BF8000010F0100F0CD0E06CDBF81810C1
:108AE000884207D1A06E28B99BF8010040F0100021
:108AF0008BF8010003B00020BDE8F08F14010020C6
:108B000000010020003C0020F400002010010020A3
:108B10000C01002070B50446256F6E7B0020206795
:108B2000D4F87CC0BCF1000F05D000232A462146B2
:108B30002069E04705E000232A462146184600F058
:108B400041FA30B110F10D0F1FD025676FF004000E
:108B500070BD16F0200F13D0218DA1F53062683A58
:108B600001D0491C2185D4F87CC0BCF1000F04D091
:108B700000231A4621462069E04710F10D0F01D06D
:108B8000002070BD6FF00C0070BD6FF00C0070BD68
:108B90002DE9F04104460025F64F2E46387810F0B6
:108BA000100F00F03581B4F85C30606D03EB000C01
:108BB000226D7969B2EB01080BD48A4202D1BA69FD
:108BC000821A06D4BA69904216D1F868C0899842D0
:108BD00012D9F868C089A4F85C00B4F85E2082421B
:108BE00001D2A4F85E002165B969616560B194F8AD
:108BF000910008B184F89160626CB869811A00290B
:108C000038DC798951B130E094F891000028F3D133
:108C100084F89060012084F89100EDE7B4F85C30AE
:108C2000616D1944614520D1B4F9301000291CDB75
:108C300082421AD1012594F84300411CC9B28142F5
:108C400001D984F8431094F84300032809D9B4F8F3
:108C50004800618E014489B2814206D9A4F84810C7
:108C600003E002D1204600F023FA002D6DD184F8F4
:108C700043608AE001296DD4E16C411A002969DC66
:108C8000A17E11F0040F06D021F00401A176B4F802
:108C90004A10A4F8481084F84260E18FB4F93C20EF
:108CA00001EBE201A4F8401084F843606064207D89
:108CB00004282CD3B4F84800B4F84A10884207D2EC
:108CC000618E014489B2814221D9A4F848101EE086
:108CD000618E494391FBF0F1014489B2884216D27A
:108CE000A4F8481013E02868E0666868FEF72FF8DB
:108CF0006868FEF72CF8B4F86210081AA4F862004D
:108D00002889398908443881284600F06DFAE06ED8
:108D1000B8B1C0684068FDF70BFC0546E06EC0685E
:108D20008089FDF711FC10F0030F01D0012000E055
:108D300000202844E56E29890844B969401A0028B2
:108D4000D1DDE06E10B12686E6761EE04FF0FF30F2
:108D50002086F9E7204600F060FA16E02868A06651
:108D600008B9A4F864606868FDF7F1FF6868FDF76A
:108D7000EEFFB4F86210081AA4F862002889398955
:108D800008443881284600F02FFAA06ED0B1C068A0
:108D90004068FDF7CDFB0546A06EC0688089FDF7F1
:108DA000D3FB10F0030F01D0012000E00020284485
:108DB000A56E29890144B869411A03D4E16C401AAF
:108DC0000028CBDDB4F8600039890844A4F86000BD
:108DD000606BE8B1A16BBA69891A19D5664909882F
:108DE000081AB4F93C10A0EBE10000B2014409B24A
:108DF000A187002801DA404200B2B4F93E20A0EB7E
:108E0000A2001044E08700EBE100A4F84000666394
:108E10007B89002B7ED0207D07287BD2606A7A690F
:108E2000564D811A012926D41344C31A5B1C002B0A
:108E300021DC686842898A420FDA0289521A92B2AA
:108E40004389C91A02814681006843898B42F7DB56
:108E5000494209B2FEF740F803E0494209B2FEF781
:108E60003BF8BA8A606A2989821A891A298178614D
:108E7000E968486005E0101A03D5A07E40F00200C2
:108E8000A076606A79690A1A73D4228D02448A1A1C
:108E9000521C002A7EDC884277D1E8688089FDF781
:108EA00053FB10F0030F01D0012000E000202989BE
:108EB000084480B27881218D814235D2E86880896A
:108EC000FDF742FB10F0010F0FD0E8688089FDF735
:108ED0003BFBC0F344004000FDF736FB0146E86869
:108EE000828922F47C5211438181208D2881E86897
:108EF0008089FDF729FB10F0020F02D02889401E5F
:108F0000288129896868FEF732F8E8688089FDF7CA
:108F10001BFB00E043E010F0030F01D0012000E054
:108F2000002029890844788178897969014461623F
:108F3000218D081A2085204600F0EEFB6868018923
:108F400009B1F8616E60E8688089FDF7FDFA10F0FC
:108F5000010F03D0787840F020007870A07E10F0E8
:108F6000010F0ED020F0010040F00200A076BDE815
:108F7000F0810FE01401002000010020A47F0020F8
:108F800003E040F00100A076F1E72046BDE8F041A3
:108F900000F043B92046BDE8F04100F03EB9606AF8
:108FA00079690A1A05D4228D1044081A401C002839
:108FB000DDDDA07E40F00200A076D8E7002800D0DA
:108FC000C167704710B508461446002C06D02189A9
:108FD00000F00CF82046FDF750FF00E00BB1002038
:108FE00010BDBDE81040FEF713BA000010B50446EE
:108FF000208D084480B2208540F66831884201D92E
:10900000218506E028B9207D072801D0092800D154
:109010002185204600F080FB40F2DA2188420BDBFC
:10902000A07E40F00200A0762046FFF7DBF8BDE806
:10903000104002A0FAF710BD10BD000037373737D7
:109040003737370A00000000002807D00022436F9E
:109050008B4200D14267C0680028F8D170472DE9E3
:10906000F0410546EE6E002E20D03068E86605F12E
:10907000680400E02468206850B1C0684068FDF7CB
:1090800057FA0746F0684068FDF752FA381AF1D4EB
:109090002068306026603168002009B9A5F86400B6
:1090A00095F84210491C85F842106863BDE8F081CC
:1090B00010B50446E06E00282CD0A07E10F0040FFE
:1090C00028D12046FFF7CBFFB4F84800B4F85C1075
:1090D000884203D94808A4F84A0002E04008A4F8EE
:1090E0004A00B4F84A10608EB1EB400F05D24FF63B
:1090F000FF7101EA4001A4F84A10B4F84A1000EBED
:1091000040000844A4F84800A07E40F00400A07687
:109110000020208610BD000010B5C16E002917D0B8
:1091200000E011460A68002AFBD1826E0A60C16E17
:1091300081660021C16690F84220521C80F84220CE
:109140004163FFF74FF8BDE8104002A0FAF784BC76
:1091500010BD00003232323232323232323200004E
:109160002DE9F04F83B083460D9F0C9E8A469146B1
:109170009846002214210120FDF7FAFC054628003C
:109180002FD06C683046FDF7DFF920803846FDF7B8
:10919000DBF960805846FDF7CBF960605046FDF77B
:1091A000C7F9A06045F21400FDF7CEF9A08146F69C
:1091B0000B00E0810026268266824046FCF768FEAE
:1091C00048B1062101910290FF234246009649468C
:1091D0002846FCF729FD03B02846BDE8F04FFDF70F
:1091E0004CBE03B0BDE8F08F10B50446002C09D08A
:1091F000606808B1FDF741FE2146BDE8104003203C
:10920000FDF78EBB10BD10B5002805D00468FFF730
:10921000EBFF20460028F9D110BD70B584B004469C
:109220000025E06CFDF784F903460022294620461C
:10923000FFF7D8F80646C6B1201DFCF729FEE0B1BD
:10924000617A0622019200910290A37A221D2146A2
:109250003046FCF7E9FC05463046FDF70EFE7DB1D1
:10926000A07E40F00300A0760EE0A07E40F0030058
:10927000A07604B06FF0010070BD6FF00305EBE75E
:10928000A07E20F00300A07604B0284670BD70B523
:109290000546AC6E002C01D10AE00C46216800297D
:1092A000FBD1E0688089FDF74FF910F0070F05D07A
:1092B0002846BDE870400121FEF721BB0120FDF7E3
:1092C00043F90146E068828911438181A87E40F01C
:1092D0002000A876002070BD002800D0816770476C
:1092E00070B505462C69002C24D0154815A142689C
:1092F0001548FAF7C1FB1448F6F798FF81B203222C
:109300000020FDF735FCA0600F48F6F78FFF82B212
:109310000D49A068FDF75FFE21462846FEF7A2FA38
:109320000AA06968FAF798FBA06808B1FDF7A5FDE7
:10933000002070BD2846FDF7AFFF6FF00C0070BD38
:109340007C00002025640A0070330020B9FEB9FEBD
:10935000B9FEB9FEB9FECED2D4DAD5E2C0EFCAE486
:10936000B3F6B0A12E25640A0000000041757047D5
:109370002DE9F04F83B09E4FF868401CF860B87834
:10938000401CB870DFF86CA24FF4FA7B4FF0000974
:109390000026BC69002C00F00981617FB878814209
:1093A00002D1E46800F0FFB860770025A846207D70
:1093B000022803D194F84210062918D094F84210DC
:1093C0000C2916D094F89120FAB112F80A0094F8FA
:1093D0009010814202D2491C84F8901094F89010A9
:1093E000814246D3204600F047FB20B141E00125F1
:1093F0003FE001253DE084F8909094F89100072823
:1094000037D2401C84F8910033E0B4F93020002AB0
:1094100001DB521C2286E26E5AB3B4F93020B4F953
:1094200040309A4225DB022809D0E08FB4F93C2075
:1094300000EBE200704A515C8840A4F84000A4F8B8
:109440003090B4F84800B4F85C10884200D3084665
:109450004108A4F84A10608E4FF6FF7202EA4002FB
:10946000914201D2A4F84A20A4F848002046FFF710
:1094700053FE207D06280AD1A17E11F0100F06D0E0
:10948000216AFA68511A282901D9691CCDB2217ABA
:1094900011F0080F28D0042801D0072824D15748FC
:1094A000D4F88C10FB680844B0FBFBF2206A181A51
:1094B000824204D2681CC5B24FF0010814E094F84F
:1094C000922042F29F4312FB03F201EBC201B1FB77
:1094D000FBF1814208D22046FEF7AEFC20B994F899
:1094E0009200401C84F89200207D032806D1216A56
:1094F000FA68511A282901D9691CCDB2092806D168
:10950000206AF968081AF02801D9681CC5B26DB341
:10951000D4F888502046FFF75CF816B1E068F06098
:1095200001E0E068B861B8F1000F0CD0208BE18A4F
:1095300000910190231D2246616AE06CFFF710FE46
:109540002FA0FAF789FAD4F810802146E4680120A8
:10955000FDF7E6F987F800901DB16FF00C01404669
:10956000A847387800287FF413AF1CE02646E4684B
:10957000F07E401CC0B2F076317F884213D386F86B
:109580001B9087F80090D6F884201AB131463069D4
:10959000904700E00020397800297FF4F9AE10B937
:1095A0003046FEF71FFE002C7FF4F7AE0025FC6965
:1095B000002C1AD00020216AFA68511AF02900D92B
:1095C000012070B12046FFF704F815B1E068E860AB
:1095D00001E0E068F8612146E4680120FDF7A0F9A8
:1095E00001E02546E468002CE4D103B0BDE8F08F2B
:1095F000F40000207FA20008B4A20008B84C0A00C2
:10960000CED2D4DAD5E2C0EFCAE4B3F6D4B6B3CC46
:10961000B6CBBFDABAC500000848816800290CD172
:109620000749084A09681268114306D00121816080
:1096300000220549FA20FDF759BD7047440100207A
:109640000C01002010010020459B000800B583B0EC
:10965000DFF878C09CF8001011F0040F1DD111F054
:10966000020F1CD0426ADCF814108B1A1DD4038D33
:109670001A448A1A002A18DCDCF80C000288408898
:1096800001920090BCF80A000144114800F1100357
:109690001A1DDCF81800FFF763FD03B000BD11F0E0
:1096A000010F02D00B4909680162BCF80A100029B9
:1096B000F3D0817E41F002018176FEF793FD03B085
:1096C00005A05DF804EBFAF7C7B90000140100200B
:1096D000003C002000010020353535353535350A90
:1096E0000000000010B5FEF76FF906494878401CED
:1096F000487010F0010F03D0BDE81040FFF738BEEE
:1097000010BD0000F40000200248417841F0100133
:10971000417070471401002030B4048D436A1A1957
:10972000B0F832C040F2B455C16AAC4500D9AC467D
:109730008C44B2EB0C0C03D4448530BC501A7047F7
:109740005A1A002A02DD0021418501E0C91A41852B
:1097500030BC002070472DE9FF4F8BB00546904686
:1097600000200990002600270890824600240790D8
:10977000069005908146688EB5F85E10B0EB510FEB
:1097800001D2014600E0490801B9014604910C9854
:1097900060B14146284600F048F9002808D1B5F8E4
:1097A00062B0A86E00286CD0064605E06FF00F008E
:1097B0000FB0BDE8F08F064630680028FBD1B07AC4
:1097C00010F0010F01D0042000E0002031890A18B8
:1097D0000498801A82B2B5F864000590B8B1374693
:1097E000404501D2034600E04346934201D99146E9
:1097F00004E0404501D2814600E0C14604EB090384
:109800009CB2A0EB09000590A2EB090082B244458E
:1098100037D2B2B3A9B3A8EB0400904200DD1046E2
:1098200080B2039037460E9810F0010F14D001213A
:109830000E980291019005AB009504200399FEF764
:109840009DFE099000287ED00C98039A0119099872
:109850004068F6F7C7FC0BE0012204200399FDF7EE
:1098600087F9099000286ED00C9801190998416079
:109870000398204484B20998FDF769FA58441FFA06
:1098800080FB444565D204990798081A0A90A8EB12
:10989000040080B20A9989B2884200D90846039030
:1098A0000E9810F0010F1DD0BAF1000F18D0002053
:1098B0000E9902900191079903980095084481B28E
:1098C00005AB0020049AFEF759FE071E53D00C98F2
:1098D0007A68011907981044039AF6F783FC17E099
:1098E0000120E5E7012200200399FDF741F90290EC
:1098F00048B30C980119029841600022104607995C
:10990000FDF736F9071E2FD038460299FDF701FA08
:109910003846FDF71CFA58441FFA80FBBBF1080FCC
:1099200026D806980090A86D0022031939462846CB
:10993000FDF73EFE071E1ED0BAF1000F2FD008988B
:109940000760089700E016E00398204484B244457D
:109950009DD3B9F1000F34D074687CB3208948449A
:1099600020812068E8B126E00298FDF786FA02E03F
:109970003846FDF782FAA87E40F08000A876099864
:1099800010B10998FDF779FABAF1000F02D05046EC
:10999000FFF739FC0FB04FF0FF30BDE8F08FBA464B
:1099A000CFE7618960684A4608440C99F6F71AFCCB
:1099B0006089484460812468002CCFD130894844B4
:1099C0003081BDF81400A5F86400099840B17068B2
:1099D0000999FDF79EF90998318900890844308179
:1099E000A6B1C6F800A0A86D4044A865B5F860000F
:1099F000A0EB0800A5F86000A5F862B08FB1F86888
:109A000078B10E9810F0020F03D00AE0C5F868A0F4
:109A1000E9E70820FCF798FD0146F86882891143C0
:109A200081810FB00020BDE8F08F027D042A08D0AC
:109A3000072A06D0022A04D0032A02D06FF00A00B7
:109A4000704751B1B0F860208A4208D2817E41F05F
:109A5000800181764FF0FF30704700207047B0F8EA
:109A60006210082901D200207047817E41F08001F8
:109A700081764FF0FF3070472DE9F04184B0054604
:109A8000EC6E002C00D1AC6E0CB3E0688089FCF762
:109A90005BFD10F0010F01D02089E0B10027E7B194
:109AA0000022E068002143682846FEF79BFC8046C0
:109AB0005FEA080013D0D8F80460AFB11120FCF7BA
:109AC00043FDB18921F47C510843B08116E004B014
:109AD0000020BDE8F0810127E1E70122E1E704B0C1
:109AE0004FF0FF30BDE8F08106F114016068238972
:109AF0000289D21A93B20122FDF787F9E068406823
:109B0000FCF716FD401CE96C091A00D5E864281D15
:109B1000FCF7BEF990B1062100220092019102905B
:109B2000AB7A2A1D29464046FCF77EF8044640469B
:109B3000FDF7A3F904B02046BDE8F0816FF00304FF
:109B4000F5E7000010B5FFF7CDFD084808490068AB
:109B50000968084306D00022BDE810400549FA20F4
:109B6000FDF7C4BA04490020886010BD0C01002034
:109B700010010020459B0008440100202DE9F04120
:109B800004460D46002D00D11D4D4CB145B10026B7
:109B90001C4F7B68184653B19C4205D1012606E054
:109BA0006FF00500BDE8F081DB68002BF4D16AB1ED
:109BB000C0B1844213D0418A914210D101682B6810
:109BC00099420CD16FF00700BDE8F08100F036F942
:109BD0000246100006D16FF00700BDE8F081C068B2
:109BE0000028E6D125B128682060628216B104E021
:109BF0000020F9E77868E0607C600020BDE8F08133
:109C0000DCA100085001002070B504460D46164640
:109C1000002C03D015B1628A1AB108E06FF005007C
:109C200070BD21462046FFF7A9FF0028F8D128681B
:109C30006060A682207C40F004002074074A5068CF
:109C4000014630B1844201D1002070BDC0680028B7
:109C5000F8D1E1605460002070BD00005001002088
:109C6000704700002DE9F34F83B08146B9F80A0030
:109C7000082805D205B04846BDE8F04FFDF7FDB80D
:109C8000D9F80440DFF81881D8F80010D8F814008B
:109C9000FBF7D5FD02902088FCF756FC074660884C
:109CA000FCF752FC824600260025DFF8F8B0DBF80E
:109CB0000440FCB1608A50451DD12046029A0499A7
:109CC00000F072F8B8B1207C10F0040F01D105B992
:109CD0002546A08AB8420ED1606818B1D8F8101095
:109CE000884208D136B1E068F060DBF80400E0603B
:109CF000CBF8044003E02646E468002CDAD104B92E
:109D00002C460CB1012008E00498D8F814104068E3
:109D1000884201D1012000E00020D0B36FF007019C
:109D20004846FDF7D9F828B105B04846BDE8F04FE0
:109D3000FDF7A3B8A4B1D4F818C0BCF1000F09D046
:109D4000009708F110034A462146E069E04705B054
:109D5000BDE8F08F05B04846BDE8F04FFDF78DB87F
:109D6000029880B998F8140000F0F000E0280AD0BA
:109D7000B8F80C00083001B24846FDF7B0F80321EE
:109D80004846FBF753FC05B04846BDE8F04FFDF7E9
:109D900074B805B04846BDE8F04FFDF76EB8000056
:109DA000003C0020500100200C4B002A5B690CD0C5
:109DB00048B1006838B1B3F1FF3F04D0896808406A
:109DC0001940884208D10120704718B1006808B1D5
:109DD000984201D10120704700207047003C0020CC
:109DE000002815D00268002A12D0002910D00A6875
:109DF000002A0DD0074A5268002A09D01368D0F80B
:109E000000C0634501D10B681360D268002AF5D108
:109E1000704700005001002010B50020FCF7B2FD93
:109E200000280AD00021016041608160C1600161A9
:109E300041618161C161FF21817210BD70B4002355
:109E4000104C4FF6FF754FF44046D4F804C02088FC
:109E5000411C2180A84200D12680604670B1218833
:109E6000428A8A4207D1581C83B2B3F5804FEED3A1
:109E700070BC00207047C0680028F1D1208870BCF9
:109E800070470000500100208161C26170470000EE
:109E90000A494A68824202D1D2684A600AE04AB15D
:109EA000D36823B1834202D1C168D16002E01A466F
:109EB000002AF5D101460020FCF732BD50010020F8
:109EC00030B583B0DDF818C000280ED06AB1046840
:109ED0007CB104F0F005E02D0BD0DCF80450AC426E
:109EE0000AD003B06FF0050030BD03B06FF005007D
:109EF00030BD0CF1040400E00446CDF800C001942C
:109F000000F002F803B030BD2DE9F04F83B00446F5
:109F1000DDF834A0DDF830800F4691469B46002CDA
:109F200005D0B9F1000F02D0628A2AB10AE06FF0C1
:109F3000050003B0BDE8F08F21462046FFF71EFE66
:109F40000028F6D108213846FCF7C6FF98B1002258
:109F500008210120FCF70CFE0546280006D03889B0
:109F600050B139462846FCF7E8FE05E003B04FF053
:109F7000FF30BDE8F08F3D466E68608AFCF7E4FA7A
:109F800030805846FCF7E0FA70800020F080288985
:109F9000FCF7DAFAB0801120A37A617A009101907F
:109FA0004A46CDF8088051462846FBF753FE044642
:109FB000BD4202D02846FCF760FF03B02046BDE852
:109FC000F08F0000000000000000010203040607FB
:109FD0000809000000000102030400C1814001C023
:109FE000804101C0804100C1814001C0804100C169
:109FF000814000C1814001C0804101C0804100C159
:10A00000814000C1814001C0804100C1814001C048
:10A01000804101C0804100C1814001C0804100C138
:10A02000814000C1814001C0804100C1814001C028
:10A03000804101C0804100C1814000C1814001C018
:10A04000804101C0804100C1814001C0804100C108
:10A05000814000C1814001C0804101C0804100C1F8
:10A06000814000C1814001C0804100C1814001C0E8
:10A07000804101C0804100C1814000C1814001C0D8
:10A08000804101C0804100C1814001C0804100C1C8
:10A09000814000C1814001C0804100C1814001C0B8
:10A0A000804101C0804100C1814001C0804100C1A8
:10A0B000814000C1814001C0804101C0804100C198
:10A0C000814000C1814001C0804100C1814001C088
:10A0D000804101C0804100C1814000C0C101C30373
:10A0E00002C2C60607C705C5C404CC0C0DCD0FCFF0
:10A0F000CE0E0ACACB0BC90908C8D81819D91BDB60
:10A10000DA1A1EDEDF1FDD1D1CDC14D4D515D717AF
:10A1100016D6D21213D311D1D010F03031F133F35F
:10A12000F23236F6F737F53534F43CFCFD3DFF3FAF
:10A130003EFEFA3A3BFB39F9F83828E8E929EB2BDF
:10A140002AEAEE2E2FEF2DEDEC2CE42425E527E76F
:10A15000E62622E2E323E12120E0A06061A163A3DF
:10A16000A26266A6A767A56564A46CACAD6DAF6F6F
:10A170006EAEAA6A6BAB69A9A86878B8B979BB7BDF
:10A180007ABABE7E7FBF7DBDBC7CB47475B577B72F
:10A19000B67672B2B373B17170B05090915193535F
:10A1A000529296565797559594549C5C5D9D5F9F2F
:10A1B0009E5E5A9A9B5B99595898884849894B8B5F
:10A1C0008A4A4E8E8F4F8D4D4C8C448485458747EF
:10A1D00046868242438341818040000000000000A7
:10A1E000FFFFFFFFFFFFFFFFFFFF00000000000079
:10A1F000200006002B640020C400002094000A0008
:10A20000EE640020C80000201C000500B96A002090
:10A21000CC00002010000800486B0020D000002077
:10A2200020000500CB6B0020D400002018000F0098
:10A230006E6C0020D800002010000A00D96D0020AC
:10A24000DC00002010000A007C6E0020E0000020EE
:10A25000100208001F6F0020E4000020F0A1000899
:10A26000FCA1000808A2000814A2000820A200080F
:10A270002CA2000838A2000844A2000850A200083E
:10A2800003060C183060780020A3000848A30008DB
:10A2900068A3000828A3000814A30008FCA2000873
:10A2A00008A300085CA3000834A300083CA300082E
:10A2B00050A3000801020304050607070707070764
:10A2C0000700000008010020040100200C0100200C
:10A2D00010010020FA000000E5960008E8030000E5
:10A2E00045620008E80300007D52000860EA0000B3
:10A2F000E53D0008F40100002141000846494E5F99
:10A30000574149545F31000046494E5F5741495417
:10A310005F32000045535441424C49534845440084
:10A32000434C4F534544000053594E5F52435644EB
:10A3300000000000434C4F53494E47004C415354DA
:10A340005F41434B000000004C495354454E000010
:10A3500054494D455F57414954000000434C4F5309
:10A36000455F57414954000053594E5F53454E5481
:10A370000000000094A3000800000020600100001D
:10A38000A4020008C8A3000860010020588E000045
:10A39000B03A0008013D4210440200015702000893
:10A3A000009B416603000700635708000300840315
:10A3B000062D03002800027324F4055901031C062E
:08A3C00032C003546E19F2C013
:040000050800018965
:00000001FF
