Component: ARM Compiler 5.06 update 6 (build 750) Tool: armlink [4d35ed]

==============================================================================

Section Cross References

    startup_stm32f407xx.o(RESET) refers to startup_stm32f407xx.o(STACK) for __initial_sp
    startup_stm32f407xx.o(RESET) refers to startup_stm32f407xx.o(.text) for Reset_Handler
    startup_stm32f407xx.o(RESET) refers to stm32f4xx_it.o(i.NMI_Handler) for NMI_Handler
    startup_stm32f407xx.o(RESET) refers to stm32f4xx_it.o(i.HardFault_Handler) for HardFault_Handler
    startup_stm32f407xx.o(RESET) refers to stm32f4xx_it.o(i.MemManage_Handler) for MemManage_Handler
    startup_stm32f407xx.o(RESET) refers to stm32f4xx_it.o(i.BusFault_Handler) for BusFault_Handler
    startup_stm32f407xx.o(RESET) refers to stm32f4xx_it.o(i.UsageFault_Handler) for UsageFault_Handler
    startup_stm32f407xx.o(RESET) refers to port.o(.emb_text) for SVC_Handler
    startup_stm32f407xx.o(RESET) refers to stm32f4xx_it.o(i.DebugMon_Handler) for DebugMon_Handler
    startup_stm32f407xx.o(RESET) refers to stm32f4xx_it.o(i.SysTick_Handler) for SysTick_Handler
    startup_stm32f407xx.o(RESET) refers to stm32f4xx_it.o(i.RCC_IRQHandler) for RCC_IRQHandler
    startup_stm32f407xx.o(RESET) refers to stm32f4xx_it.o(i.CAN1_RX0_IRQHandler) for CAN1_RX0_IRQHandler
    startup_stm32f407xx.o(RESET) refers to stm32f4xx_it.o(i.UART4_IRQHandler) for UART4_IRQHandler
    startup_stm32f407xx.o(RESET) refers to stm32f4xx_it.o(i.TIM6_DAC_IRQHandler) for TIM6_DAC_IRQHandler
    startup_stm32f407xx.o(RESET) refers to stm32f4xx_it.o(i.ETH_IRQHandler) for ETH_IRQHandler
    startup_stm32f407xx.o(RESET) refers to stm32f4xx_it.o(i.USART6_IRQHandler) for USART6_IRQHandler
    startup_stm32f407xx.o(.text) refers to system_stm32f4xx.o(i.SystemInit) for SystemInit
    startup_stm32f407xx.o(.text) refers to entry.o(.ARM.Collect$$$$00000000) for __main
==============================================================================

Removing Unused input sections from the image.

    Removing startup_stm32f407xx.o(HEAP), (512 bytes).
    Removing main.o(.rev16_text), (4 bytes).
    Removing main.o(.revsh_text), (4 bytes).
    Removing main.o(.rrx_text), (6 bytes).
    Removing main.o(.data), (4 bytes).
    Removing main.o(.data), (8 bytes).
    Removing main.o(.data), (8 bytes).
    Removing main.o(.data), (4 bytes).
    Removing main.o(.data), (4 bytes).
    Removing main.o(.data), (8 bytes).
    Removing stm32f4xx_hal_msp.o(.rev16_text), (4 bytes).
    Removing stm32f4xx_hal_msp.o(.revsh_text), (4 bytes).
    Removing stm32f4xx_hal_msp.o(.rrx_text), (6 bytes).
    Removing stm32f4xx_it.o(.rev16_text), (4 bytes).
    Removing stm32f4xx_it.o(.revsh_text), (4 bytes).
    Removing stm32f4xx_it.o(.rrx_text), (6 bytes).
    Removing app_ethernet.o(.rev16_text), (4 bytes).
    Removing app_ethernet.o(.revsh_text), (4 bytes).
==============================================================================

Image Symbol Table

    Local Symbols

    Symbol Name                              Value     Ov Type        Size  Object(Section)

    ../Drivers/STM32F4xx_HAL_Driver/Src/stm32f4xx_hal.c 0x00000000   Number         0  stm32f4xx_hal.o ABSOLUTE
    ../Drivers/STM32F4xx_HAL_Driver/Src/stm32f4xx_hal_cortex.c 0x00000000   Number         0  stm32f4xx_hal_cortex.o ABSOLUTE
    ../Drivers/STM32F4xx_HAL_Driver/Src/stm32f4xx_hal_dma.c 0x00000000   Number         0  stm32f4xx_hal_dma.o ABSOLUTE
    ../Drivers/STM32F4xx_HAL_Driver/Src/stm32f4xx_hal_dma_ex.c 0x00000000   Number         0  stm32f4xx_hal_dma_ex.o ABSOLUTE
    ../Drivers/STM32F4xx_HAL_Driver/Src/stm32f4xx_hal_flash.c 0x00000000   Number         0  stm32f4xx_hal_flash.o ABSOLUTE
    ../Drivers/STM32F4xx_HAL_Driver/Src/stm32f4xx_hal_flash_ex.c 0x00000000   Number         0  stm32f4xx_hal_flash_ex.o ABSOLUTE
    ../Drivers/STM32F4xx_HAL_Driver/Src/stm32f4xx_hal_flash_ramfunc.c 0x00000000   Number         0  stm32f4xx_hal_flash_ramfunc.o ABSOLUTE
    ../Drivers/STM32F4xx_HAL_Driver/Src/stm32f4xx_hal_gpio.c 0x00000000   Number         0  stm32f4xx_hal_gpio.o ABSOLUTE
    ../Drivers/STM32F4xx_HAL_Driver/Src/stm32f4xx_hal_pwr.c 0x00000000   Number         0  stm32f4xx_hal_pwr.o ABSOLUTE
    ../Drivers/STM32F4xx_HAL_Driver/Src/stm32f4xx_hal_pwr_ex.c 0x00000000   Number         0  stm32f4xx_hal_pwr_ex.o ABSOLUTE
    ../Drivers/STM32F4xx_HAL_Driver/Src/stm32f4xx_hal_rcc.c 0x00000000   Number         0  stm32f4xx_hal_rcc.o ABSOLUTE
    ../Drivers/STM32F4xx_HAL_Driver/Src/stm32f4xx_hal_rcc_ex.c 0x00000000   Number         0  stm32f4xx_hal_rcc_ex.o ABSOLUTE
    ../Drivers/STM32F4xx_HAL_Driver/Src/stm32f4xx_hal_tim.c 0x00000000   Number         0  stm32f4xx_hal_tim.o ABSOLUTE
    ../Drivers/STM32F4xx_HAL_Driver/Src/stm32f4xx_hal_tim_ex.c 0x00000000   Number         0  stm32f4xx_hal_tim_ex.o ABSOLUTE
    ../Drivers/STM32F4xx_HAL_Driver/Src/stm32f4xx_hal_uart.c 0x00000000   Number         0  stm32f4xx_hal_uart.o ABSOLUTE
    ../Src/main.c                            0x00000000   Number         0  main.o ABSOLUTE
    ../Src/stm32f4xx_hal_msp.c               0x00000000   Number         0  stm32f4xx_hal_msp.o ABSOLUTE
    ../Src/stm32f4xx_it.c                    0x00000000   Number         0  stm32f4xx_it.o ABSOLUTE
    ../Src/system_stm32f4xx.c                0x00000000   Number         0  system_stm32f4xx.o ABSOLUTE
    ../clib/../cmprslib/zerorunl.c           0x00000000   Number         0  __dczerorl.o ABSOLUTE
    ../clib/microlib/division.c              0x00000000   Number         0  uldiv.o ABSOLUTE
    ../clib/microlib/division.c              0x00000000   Number         0  uidiv.o ABSOLUTE
    ../clib/microlib/init/entry.s            0x00000000   Number         0  entry8a.o ABSOLUTE
    ../clib/microlib/init/entry.s            0x00000000   Number         0  entry8b.o ABSOLUTE
    ../clib/microlib/init/entry.s            0x00000000   Number         0  entry9a.o ABSOLUTE
    ../clib/microlib/init/entry.s            0x00000000   Number         0  entry9b.o ABSOLUTE
    ../clib/microlib/init/entry.s            0x00000000   Number         0  entry10b.o ABSOLUTE
    ../clib/microlib/init/entry.s            0x00000000   Number         0  entry7a.o ABSOLUTE
    ../clib/microlib/init/entry.s            0x00000000   Number         0  entry11a.o ABSOLUTE
    ../clib/microlib/init/entry.s            0x00000000   Number         0  entry11b.o ABSOLUTE
    ../clib/microlib/init/entry.s            0x00000000   Number         0  entry5.o ABSOLUTE
    ../clib/microlib/init/entry.s            0x00000000   Number         0  entry10a.o ABSOLUTE
    ../clib/microlib/init/entry.s            0x00000000   Number         0  entry.o ABSOLUTE
    ../clib/microlib/init/entry.s            0x00000000   Number         0  entry2.o ABSOLUTE
    ../clib/microlib/init/entry.s            0x00000000   Number         0  entry7b.o ABSOLUTE
    ../clib/microlib/longlong.c              0x00000000   Number         0  llsshr.o ABSOLUTE
    ../clib/microlib/longlong.c              0x00000000   Number         0  llushr.o ABSOLUTE
    ../clib/microlib/longlong.c              0x00000000   Number         0  llshl.o ABSOLUTE
    ../clib/microlib/malloc/malloc.c         0x00000000   Number         0  malloc.o ABSOLUTE
    ../clib/microlib/malloc/malloc.c         0x00000000   Number         0  mallocra.o ABSOLUTE
    ../clib/microlib/malloc/malloc.c         0x00000000   Number         0  malloca.o ABSOLUTE
    ../clib/microlib/malloc/malloc.c         0x00000000   Number         0  mallocr.o ABSOLUTE
    ../clib/microlib/malloc/mvars.c          0x00000000   Number         0  mvars.o ABSOLUTE
    ../clib/microlib/printf/printf.c         0x00000000   Number         0  printfa.o ABSOLUTE
    ../clib/microlib/printf/printf.c         0x00000000   Number         0  printf8.o ABSOLUTE
    ../clib/microlib/printf/printf.c         0x00000000   Number         0  printfb.o ABSOLUTE
    ../clib/microlib/printf/printf.c         0x00000000   Number         0  printf0.o ABSOLUTE
    ../clib/microlib/printf/printf.c         0x00000000   Number         0  printf1.o ABSOLUTE
    ../clib/microlib/printf/printf.c         0x00000000   Number         0  printf2.o ABSOLUTE
    ../clib/microlib/printf/printf.c         0x00000000   Number         0  printf3.o ABSOLUTE
    ../clib/microlib/printf/printf.c         0x00000000   Number         0  printf4.o ABSOLUTE
    ../clib/microlib/printf/printf.c         0x00000000   Number         0  printf5.o ABSOLUTE
    ../clib/microlib/printf/printf.c         0x00000000   Number         0  printf6.o ABSOLUTE
    ../clib/microlib/printf/printf.c         0x00000000   Number         0  printf7.o ABSOLUTE
    ../clib/microlib/printf/stubs.s          0x00000000   Number         0  stubs.o ABSOLUTE
    ../clib/microlib/stdio/streams.c         0x00000000   Number         0  stdout.o ABSOLUTE
    ../clib/microlib/stdlib/rand.c           0x00000000   Number         0  rand.o ABSOLUTE
    ../clib/microlib/string/memcmp.c         0x00000000   Number         0  memcmp.o ABSOLUTE
    ../clib/microlib/string/memcpy.c         0x00000000   Number         0  memcpyb.o ABSOLUTE
    ../clib/microlib/string/memcpy.c         0x00000000   Number         0  memcpya.o ABSOLUTE
    ../clib/microlib/string/memset.c         0x00000000   Number         0  memseta.o ABSOLUTE
    ../clib/microlib/string/strcpy.c         0x00000000   Number         0  strcpy.o ABSOLUTE
    ../clib/microlib/string/strlen.c         0x00000000   Number         0  strlen.o ABSOLUTE
    ../clib/microlib/string/strncmp.c        0x00000000   Number         0  strncmp.o ABSOLUTE
    ../clib/microlib/stubs.s                 0x00000000   Number         0  iusefp.o ABSOLUTE
    ../fplib/microlib/f2d.c                  0x00000000   Number         0  f2d.o ABSOLUTE
    ../fplib/microlib/fpadd.c                0x00000000   Number         0  dadd.o ABSOLUTE
    ../fplib/microlib/fpdiv.c                0x00000000   Number         0  ddiv.o ABSOLUTE
    ../fplib/microlib/fpepilogue.c           0x00000000   Number         0  depilogue.o ABSOLUTE
    ../fplib/microlib/fpfix.c                0x00000000   Number         0  dfixul.o ABSOLUTE
    ../fplib/microlib/fpmul.c                0x00000000   Number         0  dmul.o ABSOLUTE
    ..\Drivers\STM32F4xx_HAL_Driver\Src\stm32f4xx_hal.c 0x00000000   Number         0  stm32f4xx_hal.o ABSOLUTE
    ..\Drivers\STM32F4xx_HAL_Driver\Src\stm32f4xx_hal_adc.c 0x00000000   Number         0  stm32f4xx_hal_adc.o ABSOLUTE
    ..\Drivers\STM32F4xx_HAL_Driver\Src\stm32f4xx_hal_adc_ex.c 0x00000000   Number         0  stm32f4xx_hal_adc_ex.o ABSOLUTE
    ..\Drivers\STM32F4xx_HAL_Driver\Src\stm32f4xx_hal_can.c 0x00000000   Number         0  stm32f4xx_hal_can.o ABSOLUTE
    ..\Drivers\STM32F4xx_HAL_Driver\Src\stm32f4xx_hal_cec.c 0x00000000   Number         0  stm32f4xx_hal_cec.o ABSOLUTE
    ..\Drivers\STM32F4xx_HAL_Driver\Src\stm32f4xx_hal_cortex.c 0x00000000   Number         0  stm32f4xx_hal_cortex.o ABSOLUTE
    ..\Drivers\STM32F4xx_HAL_Driver\Src\stm32f4xx_hal_crc.c 0x00000000   Number         0  stm32f4xx_hal_crc.o ABSOLUTE
    ..\Drivers\STM32F4xx_HAL_Driver\Src\stm32f4xx_hal_cryp.c 0x00000000   Number         0  stm32f4xx_hal_cryp.o ABSOLUTE
    ..\Drivers\STM32F4xx_HAL_Driver\Src\stm32f4xx_hal_cryp_ex.c 0x00000000   Number         0  stm32f4xx_hal_cryp_ex.o ABSOLUTE
    ..\Drivers\STM32F4xx_HAL_Driver\Src\stm32f4xx_hal_dac.c 0x00000000   Number         0  stm32f4xx_hal_dac.o ABSOLUTE
    ..\Drivers\STM32F4xx_HAL_Driver\Src\stm32f4xx_hal_dac_ex.c 0x00000000   Number         0  stm32f4xx_hal_dac_ex.o ABSOLUTE
    ..\Drivers\STM32F4xx_HAL_Driver\Src\stm32f4xx_hal_dcmi.c 0x00000000   Number         0  stm32f4xx_hal_dcmi.o ABSOLUTE
    ..\Drivers\STM32F4xx_HAL_Driver\Src\stm32f4xx_hal_dcmi_ex.c 0x00000000   Number         0  stm32f4xx_hal_dcmi_ex.o ABSOLUTE
    ..\Drivers\STM32F4xx_HAL_Driver\Src\stm32f4xx_hal_dfsdm.c 0x00000000   Number         0  stm32f4xx_hal_dfsdm.o ABSOLUTE
    ..\Drivers\STM32F4xx_HAL_Driver\Src\stm32f4xx_hal_dma.c 0x00000000   Number         0  stm32f4xx_hal_dma.o ABSOLUTE
    ..\Drivers\STM32F4xx_HAL_Driver\Src\stm32f4xx_hal_dma2d.c 0x00000000   Number         0  stm32f4xx_hal_dma2d.o ABSOLUTE
    ..\Drivers\STM32F4xx_HAL_Driver\Src\stm32f4xx_hal_dma_ex.c 0x00000000   Number         0  stm32f4xx_hal_dma_ex.o ABSOLUTE
    ..\Drivers\STM32F4xx_HAL_Driver\Src\stm32f4xx_hal_dsi.c 0x00000000   Number         0  stm32f4xx_hal_dsi.o ABSOLUTE
    ..\Drivers\STM32F4xx_HAL_Driver\Src\stm32f4xx_hal_eth.c 0x00000000   Number         0  stm32f4xx_hal_eth.o ABSOLUTE
    ..\Drivers\STM32F4xx_HAL_Driver\Src\stm32f4xx_hal_flash.c 0x00000000   Number         0  stm32f4xx_hal_flash.o ABSOLUTE
    ..\Drivers\STM32F4xx_HAL_Driver\Src\stm32f4xx_hal_flash_ex.c 0x00000000   Number         0  stm32f4xx_hal_flash_ex.o ABSOLUTE
    ..\Drivers\STM32F4xx_HAL_Driver\Src\stm32f4xx_hal_flash_ramfunc.c 0x00000000   Number         0  stm32f4xx_hal_flash_ramfunc.o ABSOLUTE
    ..\Drivers\STM32F4xx_HAL_Driver\Src\stm32f4xx_hal_fmpi2c.c 0x00000000   Number         0  stm32f4xx_hal_fmpi2c.o ABSOLUTE
    ..\Drivers\STM32F4xx_HAL_Driver\Src\stm32f4xx_hal_fmpi2c_ex.c 0x00000000   Number         0  stm32f4xx_hal_fmpi2c_ex.o ABSOLUTE
    ..\Drivers\STM32F4xx_HAL_Driver\Src\stm32f4xx_hal_gpio.c 0x00000000   Number         0  stm32f4xx_hal_gpio.o ABSOLUTE
    ..\Drivers\STM32F4xx_HAL_Driver\Src\stm32f4xx_hal_hash.c 0x00000000   Number         0  stm32f4xx_hal_hash.o ABSOLUTE
    ..\Drivers\STM32F4xx_HAL_Driver\Src\stm32f4xx_hal_hash_ex.c 0x00000000   Number         0  stm32f4xx_hal_hash_ex.o ABSOLUTE
    ..\Drivers\STM32F4xx_HAL_Driver\Src\stm32f4xx_hal_hcd.c 0x00000000   Number         0  stm32f4xx_hal_hcd.o ABSOLUTE
    ..\Drivers\STM32F4xx_HAL_Driver\Src\stm32f4xx_hal_i2c.c 0x00000000   Number         0  stm32f4xx_hal_i2c.o ABSOLUTE
    ..\Drivers\STM32F4xx_HAL_Driver\Src\stm32f4xx_hal_i2c_ex.c 0x00000000   Number         0  stm32f4xx_hal_i2c_ex.o ABSOLUTE
    ..\Drivers\STM32F4xx_HAL_Driver\Src\stm32f4xx_hal_i2s.c 0x00000000   Number         0  stm32f4xx_hal_i2s.o ABSOLUTE
    ..\Drivers\STM32F4xx_HAL_Driver\Src\stm32f4xx_hal_i2s_ex.c 0x00000000   Number         0  stm32f4xx_hal_i2s_ex.o ABSOLUTE
    ..\Drivers\STM32F4xx_HAL_Driver\Src\stm32f4xx_hal_irda.c 0x00000000   Number         0  stm32f4xx_hal_irda.o ABSOLUTE
    ..\Drivers\STM32F4xx_HAL_Driver\Src\stm32f4xx_hal_iwdg.c 0x00000000   Number         0  stm32f4xx_hal_iwdg.o ABSOLUTE
    ..\Drivers\STM32F4xx_HAL_Driver\Src\stm32f4xx_hal_lptim.c 0x00000000   Number         0  stm32f4xx_hal_lptim.o ABSOLUTE
    ..\Drivers\STM32F4xx_HAL_Driver\Src\stm32f4xx_hal_ltdc.c 0x00000000   Number         0  stm32f4xx_hal_ltdc.o ABSOLUTE
    ..\Drivers\STM32F4xx_HAL_Driver\Src\stm32f4xx_hal_ltdc_ex.c 0x00000000   Number         0  stm32f4xx_hal_ltdc_ex.o ABSOLUTE
    ..\Drivers\STM32F4xx_HAL_Driver\Src\stm32f4xx_hal_mmc.c 0x00000000   Number         0  stm32f4xx_hal_mmc.o ABSOLUTE
    ..\Drivers\STM32F4xx_HAL_Driver\Src\stm32f4xx_hal_nand.c 0x00000000   Number         0  stm32f4xx_hal_nand.o ABSOLUTE
    ..\Drivers\STM32F4xx_HAL_Driver\Src\stm32f4xx_hal_nor.c 0x00000000   Number         0  stm32f4xx_hal_nor.o ABSOLUTE
    ..\Drivers\STM32F4xx_HAL_Driver\Src\stm32f4xx_hal_pccard.c 0x00000000   Number         0  stm32f4xx_hal_pccard.o ABSOLUTE
    ..\Drivers\STM32F4xx_HAL_Driver\Src\stm32f4xx_hal_pcd.c 0x00000000   Number         0  stm32f4xx_hal_pcd.o ABSOLUTE
    ..\Drivers\STM32F4xx_HAL_Driver\Src\stm32f4xx_hal_pcd_ex.c 0x00000000   Number         0  stm32f4xx_hal_pcd_ex.o ABSOLUTE
    ..\Drivers\STM32F4xx_HAL_Driver\Src\stm32f4xx_hal_pwr.c 0x00000000   Number         0  stm32f4xx_hal_pwr.o ABSOLUTE
    ..\Drivers\STM32F4xx_HAL_Driver\Src\stm32f4xx_hal_pwr_ex.c 0x00000000   Number         0  stm32f4xx_hal_pwr_ex.o ABSOLUTE
    ..\Drivers\STM32F4xx_HAL_Driver\Src\stm32f4xx_hal_qspi.c 0x00000000   Number         0  stm32f4xx_hal_qspi.o ABSOLUTE
    ..\Drivers\STM32F4xx_HAL_Driver\Src\stm32f4xx_hal_rcc.c 0x00000000   Number         0  stm32f4xx_hal_rcc.o ABSOLUTE
    ..\Drivers\STM32F4xx_HAL_Driver\Src\stm32f4xx_hal_rcc_ex.c 0x00000000   Number         0  stm32f4xx_hal_rcc_ex.o ABSOLUTE
    ..\Drivers\STM32F4xx_HAL_Driver\Src\stm32f4xx_hal_rng.c 0x00000000   Number         0  stm32f4xx_hal_rng.o ABSOLUTE
    ..\Drivers\STM32F4xx_HAL_Driver\Src\stm32f4xx_hal_rtc.c 0x00000000   Number         0  stm32f4xx_hal_rtc.o ABSOLUTE
    ..\Drivers\STM32F4xx_HAL_Driver\Src\stm32f4xx_hal_rtc_ex.c 0x00000000   Number         0  stm32f4xx_hal_rtc_ex.o ABSOLUTE
    ..\Drivers\STM32F4xx_HAL_Driver\Src\stm32f4xx_hal_sai.c 0x00000000   Number         0  stm32f4xx_hal_sai.o ABSOLUTE
    ..\Drivers\STM32F4xx_HAL_Driver\Src\stm32f4xx_hal_sai_ex.c 0x00000000   Number         0  stm32f4xx_hal_sai_ex.o ABSOLUTE
    ..\Drivers\STM32F4xx_HAL_Driver\Src\stm32f4xx_hal_sd.c 0x00000000   Number         0  stm32f4xx_hal_sd.o ABSOLUTE
    ..\Drivers\STM32F4xx_HAL_Driver\Src\stm32f4xx_hal_sdram.c 0x00000000   Number         0  stm32f4xx_hal_sdram.o ABSOLUTE
    ..\Drivers\STM32F4xx_HAL_Driver\Src\stm32f4xx_hal_smartcard.c 0x00000000   Number         0  stm32f4xx_hal_smartcard.o ABSOLUTE
    ..\Drivers\STM32F4xx_HAL_Driver\Src\stm32f4xx_hal_spdifrx.c 0x00000000   Number         0  stm32f4xx_hal_spdifrx.o ABSOLUTE
    ..\Drivers\STM32F4xx_HAL_Driver\Src\stm32f4xx_hal_spi.c 0x00000000   Number         0  stm32f4xx_hal_spi.o ABSOLUTE
    ..\Drivers\STM32F4xx_HAL_Driver\Src\stm32f4xx_hal_sram.c 0x00000000   Number         0  stm32f4xx_hal_sram.o ABSOLUTE
    ..\Drivers\STM32F4xx_HAL_Driver\Src\stm32f4xx_hal_tim.c 0x00000000   Number         0  stm32f4xx_hal_tim.o ABSOLUTE
    ..\Drivers\STM32F4xx_HAL_Driver\Src\stm32f4xx_hal_tim_ex.c 0x00000000   Number         0  stm32f4xx_hal_tim_ex.o ABSOLUTE
    ..\Drivers\STM32F4xx_HAL_Driver\Src\stm32f4xx_hal_uart.c 0x00000000   Number         0  stm32f4xx_hal_uart.o ABSOLUTE
    ..\Drivers\STM32F4xx_HAL_Driver\Src\stm32f4xx_hal_usart.c 0x00000000   Number         0  stm32f4xx_hal_usart.o ABSOLUTE
    ..\Drivers\STM32F4xx_HAL_Driver\Src\stm32f4xx_hal_wwdg.c 0x00000000   Number         0  stm32f4xx_hal_wwdg.o ABSOLUTE
    ..\Drivers\STM32F4xx_HAL_Driver\Src\stm32f4xx_ll_adc.c 0x00000000   Number         0  stm32f4xx_ll_adc.o ABSOLUTE
    ..\Drivers\STM32F4xx_HAL_Driver\Src\stm32f4xx_ll_crc.c 0x00000000   Number         0  stm32f4xx_ll_crc.o ABSOLUTE
    ..\Drivers\STM32F4xx_HAL_Driver\Src\stm32f4xx_ll_dac.c 0x00000000   Number         0  stm32f4xx_ll_dac.o ABSOLUTE
    ..\Drivers\STM32F4xx_HAL_Driver\Src\stm32f4xx_ll_dma.c 0x00000000   Number         0  stm32f4xx_ll_dma.o ABSOLUTE
    ..\Drivers\STM32F4xx_HAL_Driver\Src\stm32f4xx_ll_dma2d.c 0x00000000   Number         0  stm32f4xx_ll_dma2d.o ABSOLUTE
    ..\Drivers\STM32F4xx_HAL_Driver\Src\stm32f4xx_ll_exti.c 0x00000000   Number         0  stm32f4xx_ll_exti.o ABSOLUTE
    ..\Drivers\STM32F4xx_HAL_Driver\Src\stm32f4xx_ll_fmc.c 0x00000000   Number         0  stm32f4xx_ll_fmc.o ABSOLUTE
    ..\Drivers\STM32F4xx_HAL_Driver\Src\stm32f4xx_ll_fsmc.c 0x00000000   Number         0  stm32f4xx_ll_fsmc.o ABSOLUTE
    ..\Drivers\STM32F4xx_HAL_Driver\Src\stm32f4xx_ll_gpio.c 0x00000000   Number         0  stm32f4xx_ll_gpio.o ABSOLUTE
    ..\Drivers\STM32F4xx_HAL_Driver\Src\stm32f4xx_ll_i2c.c 0x00000000   Number         0  stm32f4xx_ll_i2c.o ABSOLUTE
    ..\Drivers\STM32F4xx_HAL_Driver\Src\stm32f4xx_ll_lptim.c 0x00000000   Number         0  stm32f4xx_ll_lptim.o ABSOLUTE
    ..\Drivers\STM32F4xx_HAL_Driver\Src\stm32f4xx_ll_pwr.c 0x00000000   Number         0  stm32f4xx_ll_pwr.o ABSOLUTE
    ..\Drivers\STM32F4xx_HAL_Driver\Src\stm32f4xx_ll_rcc.c 0x00000000   Number         0  stm32f4xx_ll_rcc.o ABSOLUTE
    ..\Drivers\STM32F4xx_HAL_Driver\Src\stm32f4xx_ll_rng.c 0x00000000   Number         0  stm32f4xx_ll_rng.o ABSOLUTE
    ..\Drivers\STM32F4xx_HAL_Driver\Src\stm32f4xx_ll_rtc.c 0x00000000   Number         0  stm32f4xx_ll_rtc.o ABSOLUTE
    ..\Drivers\STM32F4xx_HAL_Driver\Src\stm32f4xx_ll_sdmmc.c 0x00000000   Number         0  stm32f4xx_ll_sdmmc.o ABSOLUTE
    ..\Drivers\STM32F4xx_HAL_Driver\Src\stm32f4xx_ll_spi.c 0x00000000   Number         0  stm32f4xx_ll_spi.o ABSOLUTE
    ..\Drivers\STM32F4xx_HAL_Driver\Src\stm32f4xx_ll_tim.c 0x00000000   Number         0  stm32f4xx_ll_tim.o ABSOLUTE
    ..\Drivers\STM32F4xx_HAL_Driver\Src\stm32f4xx_ll_usart.c 0x00000000   Number         0  stm32f4xx_ll_usart.o ABSOLUTE
    ..\Drivers\STM32F4xx_HAL_Driver\Src\stm32f4xx_ll_usb.c 0x00000000   Number         0  stm32f4xx_ll_usb.o ABSOLUTE
    ..\Drivers\STM32F4xx_HAL_Driver\Src\stm32f4xx_ll_utils.c 0x00000000   Number         0  stm32f4xx_ll_utils.o ABSOLUTE
    ..\Middlewares\Third_Party\FreeRTOS\Source\CMSIS_RTOS\cmsis_os.c 0x00000000   Number         0  cmsis_os.o ABSOLUTE
    ..\Middlewares\Third_Party\FreeRTOS\Source\croutine.c 0x00000000   Number         0  croutine.o ABSOLUTE
    ..\Middlewares\Third_Party\FreeRTOS\Source\event_groups.c 0x00000000   Number         0  event_groups.o ABSOLUTE
    ..\Middlewares\Third_Party\FreeRTOS\Source\list.c 0x00000000   Number         0  list.o ABSOLUTE
    ..\Middlewares\Third_Party\FreeRTOS\Source\portable\MemMang\heap_4.c 0x00000000   Number         0  heap_4.o ABSOLUTE
    ..\Middlewares\Third_Party\FreeRTOS\Source\portable\RVDS\ARM_CM4F\port.c 0x00000000   Number         0  port.o ABSOLUTE
    ..\Middlewares\Third_Party\FreeRTOS\Source\queue.c 0x00000000   Number         0  queue.o ABSOLUTE
    ..\Middlewares\Third_Party\FreeRTOS\Source\tasks.c 0x00000000   Number         0  tasks.o ABSOLUTE
    ..\Middlewares\Third_Party\FreeRTOS\Source\timers.c 0x00000000   Number         0  timers.o ABSOLUTE
    ..\Middlewares\Third_Party\LwIP\src\api\api_lib.c 0x00000000   Number         0  api_lib.o ABSOLUTE
    ..\Middlewares\Third_Party\LwIP\src\api\api_msg.c 0x00000000   Number         0  api_msg.o ABSOLUTE
    ..\Middlewares\Third_Party\LwIP\src\api\err.c 0x00000000   Number         0  err.o ABSOLUTE
    ..\Middlewares\Third_Party\LwIP\src\api\netbuf.c 0x00000000   Number         0  netbuf.o ABSOLUTE
    ..\Middlewares\Third_Party\LwIP\src\api\netdb.c 0x00000000   Number         0  netdb.o ABSOLUTE
    ..\Middlewares\Third_Party\LwIP\src\api\netifapi.c 0x00000000   Number         0  netifapi.o ABSOLUTE
    ..\Middlewares\Third_Party\LwIP\src\api\sockets.c 0x00000000   Number         0  sockets.o ABSOLUTE
    ..\Middlewares\Third_Party\LwIP\src\api\tcpip.c 0x00000000   Number         0  tcpip.o ABSOLUTE
    ..\Middlewares\Third_Party\LwIP\src\core\def.c 0x00000000   Number         0  def.o ABSOLUTE
    ..\Middlewares\Third_Party\LwIP\src\core\dns.c 0x00000000   Number         0  dns.o ABSOLUTE
    ..\Middlewares\Third_Party\LwIP\src\core\inet_chksum.c 0x00000000   Number         0  inet_chksum.o ABSOLUTE
    ..\Middlewares\Third_Party\LwIP\src\core\init.c 0x00000000   Number         0  init.o ABSOLUTE
    ..\Middlewares\Third_Party\LwIP\src\core\ip.c 0x00000000   Number         0  ip.o ABSOLUTE
    ..\Middlewares\Third_Party\LwIP\src\core\ipv4\autoip.c 0x00000000   Number         0  autoip.o ABSOLUTE
    ..\Middlewares\Third_Party\LwIP\src\core\ipv4\dhcp.c 0x00000000   Number         0  dhcp.o ABSOLUTE
    ..\Middlewares\Third_Party\LwIP\src\core\ipv4\etharp.c 0x00000000   Number         0  etharp.o ABSOLUTE
    ..\Middlewares\Third_Party\LwIP\src\core\ipv4\icmp.c 0x00000000   Number         0  icmp.o ABSOLUTE
    ..\Middlewares\Third_Party\LwIP\src\core\ipv4\igmp.c 0x00000000   Number         0  igmp.o ABSOLUTE
    ..\Middlewares\Third_Party\LwIP\src\core\ipv4\ip4.c 0x00000000   Number         0  ip4.o ABSOLUTE
    ..\Middlewares\Third_Party\LwIP\src\core\ipv4\ip4_addr.c 0x00000000   Number         0  ip4_addr.o ABSOLUTE
    ..\Middlewares\Third_Party\LwIP\src\core\ipv4\ip4_frag.c 0x00000000   Number         0  ip4_frag.o ABSOLUTE
    ..\Middlewares\Third_Party\LwIP\src\core\mem.c 0x00000000   Number         0  mem.o ABSOLUTE
    ..\Middlewares\Third_Party\LwIP\src\core\memp.c 0x00000000   Number         0  memp.o ABSOLUTE
    ..\Middlewares\Third_Party\LwIP\src\core\netif.c 0x00000000   Number         0  netif.o ABSOLUTE
    ..\Middlewares\Third_Party\LwIP\src\core\pbuf.c 0x00000000   Number         0  pbuf.o ABSOLUTE
    ..\Middlewares\Third_Party\LwIP\src\core\raw.c 0x00000000   Number         0  raw.o ABSOLUTE
    ..\Middlewares\Third_Party\LwIP\src\core\stats.c 0x00000000   Number         0  stats.o ABSOLUTE
    ..\Middlewares\Third_Party\LwIP\src\core\sys.c 0x00000000   Number         0  sys.o ABSOLUTE
    ..\Middlewares\Third_Party\LwIP\src\core\tcp.c 0x00000000   Number         0  tcp.o ABSOLUTE
    ..\Middlewares\Third_Party\LwIP\src\core\tcp_in.c 0x00000000   Number         0  tcp_in.o ABSOLUTE
    ..\Middlewares\Third_Party\LwIP\src\core\tcp_out.c 0x00000000   Number         0  tcp_out.o ABSOLUTE
    ..\Middlewares\Third_Party\LwIP\src\core\timeouts.c 0x00000000   Number         0  timeouts.o ABSOLUTE
    ..\Middlewares\Third_Party\LwIP\src\core\udp.c 0x00000000   Number         0  udp.o ABSOLUTE
    ..\Middlewares\Third_Party\LwIP\src\netif\ethernet.c 0x00000000   Number         0  ethernet.o ABSOLUTE
    ..\Middlewares\Third_Party\LwIP\system\OS\sys_arch.c 0x00000000   Number         0  sys_arch.o ABSOLUTE
    ..\Src\Interrupt_operation.c             0x00000000   Number         0  interrupt_operation.o ABSOLUTE
    ..\Src\app_ethernet.c                    0x00000000   Number         0  app_ethernet.o ABSOLUTE
    ..\Src\bsp\BasicTIM\bsp_BasicTIM.c       0x00000000   Number         0  bsp_basictim.o ABSOLUTE
    ..\Src\bsp\CAN\bsp_CAN.c                 0x00000000   Number         0  bsp_can.o ABSOLUTE
    ..\Src\bsp\key\bsp_key.c                 0x00000000   Number         0  bsp_key.o ABSOLUTE
    ..\Src\bsp\led\bsp_led.c                 0x00000000   Number         0  bsp_led.o ABSOLUTE
    ..\Src\bsp\usart\bsp_debug_usart.c       0x00000000   Number         0  bsp_debug_usart.o ABSOLUTE
    ..\Src\bsp\usart\bsp_usartx_us100.c      0x00000000   Number         0  bsp_usartx_us100.o ABSOLUTE
    ..\Src\ethernetif.c                      0x00000000   Number         0  ethernetif.o ABSOLUTE
    ..\Src\main.c                            0x00000000   Number         0  main.o ABSOLUTE
    ..\Src\public_data.c                     0x00000000   Number         0  public_data.o ABSOLUTE
    ..\Src\stm32f4xx_assert.c                0x00000000   Number         0  stm32f4xx_assert.o ABSOLUTE
    ..\Src\stm32f4xx_hal_msp.c               0x00000000   Number         0  stm32f4xx_hal_msp.o ABSOLUTE
    ..\Src\stm32f4xx_it.c                    0x00000000   Number         0  stm32f4xx_it.o ABSOLUTE
    ..\Src\system_stm32f4xx.c                0x00000000   Number         0  system_stm32f4xx.o ABSOLUTE
    ..\Src\tcp_echoserver.c                  0x00000000   Number         0  tcp_echoserver.o ABSOLUTE
    ..\\Drivers\\STM32F4xx_HAL_Driver\\Src\\stm32f4xx_hal_adc.c 0x00000000   Number         0  stm32f4xx_hal_adc.o ABSOLUTE
    ..\\Drivers\\STM32F4xx_HAL_Driver\\Src\\stm32f4xx_hal_adc_ex.c 0x00000000   Number         0  stm32f4xx_hal_adc_ex.o ABSOLUTE
    ..\\Drivers\\STM32F4xx_HAL_Driver\\Src\\stm32f4xx_hal_can.c 0x00000000   Number         0  stm32f4xx_hal_can.o ABSOLUTE
    ..\\Drivers\\STM32F4xx_HAL_Driver\\Src\\stm32f4xx_hal_cec.c 0x00000000   Number         0  stm32f4xx_hal_cec.o ABSOLUTE
    ..\\Drivers\\STM32F4xx_HAL_Driver\\Src\\stm32f4xx_hal_crc.c 0x00000000   Number         0  stm32f4xx_hal_crc.o ABSOLUTE
    ..\\Drivers\\STM32F4xx_HAL_Driver\\Src\\stm32f4xx_hal_cryp.c 0x00000000   Number         0  stm32f4xx_hal_cryp.o ABSOLUTE
    ..\\Drivers\\STM32F4xx_HAL_Driver\\Src\\stm32f4xx_hal_cryp_ex.c 0x00000000   Number         0  stm32f4xx_hal_cryp_ex.o ABSOLUTE
    ..\\Drivers\\STM32F4xx_HAL_Driver\\Src\\stm32f4xx_hal_dac.c 0x00000000   Number         0  stm32f4xx_hal_dac.o ABSOLUTE
    ..\\Drivers\\STM32F4xx_HAL_Driver\\Src\\stm32f4xx_hal_dac_ex.c 0x00000000   Number         0  stm32f4xx_hal_dac_ex.o ABSOLUTE
    ..\\Drivers\\STM32F4xx_HAL_Driver\\Src\\stm32f4xx_hal_dcmi.c 0x00000000   Number         0  stm32f4xx_hal_dcmi.o ABSOLUTE
    ..\\Drivers\\STM32F4xx_HAL_Driver\\Src\\stm32f4xx_hal_dcmi_ex.c 0x00000000   Number         0  stm32f4xx_hal_dcmi_ex.o ABSOLUTE
    ..\\Drivers\\STM32F4xx_HAL_Driver\\Src\\stm32f4xx_hal_dfsdm.c 0x00000000   Number         0  stm32f4xx_hal_dfsdm.o ABSOLUTE
    ..\\Drivers\\STM32F4xx_HAL_Driver\\Src\\stm32f4xx_hal_dma2d.c 0x00000000   Number         0  stm32f4xx_hal_dma2d.o ABSOLUTE
    ..\\Drivers\\STM32F4xx_HAL_Driver\\Src\\stm32f4xx_hal_dsi.c 0x00000000   Number         0  stm32f4xx_hal_dsi.o ABSOLUTE
    ..\\Drivers\\STM32F4xx_HAL_Driver\\Src\\stm32f4xx_hal_eth.c 0x00000000   Number         0  stm32f4xx_hal_eth.o ABSOLUTE
    ..\\Drivers\\STM32F4xx_HAL_Driver\\Src\\stm32f4xx_hal_fmpi2c.c 0x00000000   Number         0  stm32f4xx_hal_fmpi2c.o ABSOLUTE
    ..\\Drivers\\STM32F4xx_HAL_Driver\\Src\\stm32f4xx_hal_fmpi2c_ex.c 0x00000000   Number         0  stm32f4xx_hal_fmpi2c_ex.o ABSOLUTE
    ..\\Drivers\\STM32F4xx_HAL_Driver\\Src\\stm32f4xx_hal_hash.c 0x00000000   Number         0  stm32f4xx_hal_hash.o ABSOLUTE
    ..\\Drivers\\STM32F4xx_HAL_Driver\\Src\\stm32f4xx_hal_hash_ex.c 0x00000000   Number         0  stm32f4xx_hal_hash_ex.o ABSOLUTE
    ..\\Drivers\\STM32F4xx_HAL_Driver\\Src\\stm32f4xx_hal_hcd.c 0x00000000   Number         0  stm32f4xx_hal_hcd.o ABSOLUTE
    ..\\Drivers\\STM32F4xx_HAL_Driver\\Src\\stm32f4xx_hal_i2c.c 0x00000000   Number         0  stm32f4xx_hal_i2c.o ABSOLUTE
    ..\\Drivers\\STM32F4xx_HAL_Driver\\Src\\stm32f4xx_hal_i2c_ex.c 0x00000000   Number         0  stm32f4xx_hal_i2c_ex.o ABSOLUTE
    ..\\Drivers\\STM32F4xx_HAL_Driver\\Src\\stm32f4xx_hal_i2s.c 0x00000000   Number         0  stm32f4xx_hal_i2s.o ABSOLUTE
    ..\\Drivers\\STM32F4xx_HAL_Driver\\Src\\stm32f4xx_hal_i2s_ex.c 0x00000000   Number         0  stm32f4xx_hal_i2s_ex.o ABSOLUTE
    ..\\Drivers\\STM32F4xx_HAL_Driver\\Src\\stm32f4xx_hal_irda.c 0x00000000   Number         0  stm32f4xx_hal_irda.o ABSOLUTE
    ..\\Drivers\\STM32F4xx_HAL_Driver\\Src\\stm32f4xx_hal_iwdg.c 0x00000000   Number         0  stm32f4xx_hal_iwdg.o ABSOLUTE
    ..\\Drivers\\STM32F4xx_HAL_Driver\\Src\\stm32f4xx_hal_lptim.c 0x00000000   Number         0  stm32f4xx_hal_lptim.o ABSOLUTE
    ..\\Drivers\\STM32F4xx_HAL_Driver\\Src\\stm32f4xx_hal_ltdc.c 0x00000000   Number         0  stm32f4xx_hal_ltdc.o ABSOLUTE
    ..\\Drivers\\STM32F4xx_HAL_Driver\\Src\\stm32f4xx_hal_ltdc_ex.c 0x00000000   Number         0  stm32f4xx_hal_ltdc_ex.o ABSOLUTE
    ..\\Drivers\\STM32F4xx_HAL_Driver\\Src\\stm32f4xx_hal_mmc.c 0x00000000   Number         0  stm32f4xx_hal_mmc.o ABSOLUTE
    ..\\Drivers\\STM32F4xx_HAL_Driver\\Src\\stm32f4xx_hal_nand.c 0x00000000   Number         0  stm32f4xx_hal_nand.o ABSOLUTE
    ..\\Drivers\\STM32F4xx_HAL_Driver\\Src\\stm32f4xx_hal_nor.c 0x00000000   Number         0  stm32f4xx_hal_nor.o ABSOLUTE
    ..\\Drivers\\STM32F4xx_HAL_Driver\\Src\\stm32f4xx_hal_pccard.c 0x00000000   Number         0  stm32f4xx_hal_pccard.o ABSOLUTE
    ..\\Drivers\\STM32F4xx_HAL_Driver\\Src\\stm32f4xx_hal_pcd.c 0x00000000   Number         0  stm32f4xx_hal_pcd.o ABSOLUTE
    ..\\Drivers\\STM32F4xx_HAL_Driver\\Src\\stm32f4xx_hal_pcd_ex.c 0x00000000   Number         0  stm32f4xx_hal_pcd_ex.o ABSOLUTE
    ..\\Drivers\\STM32F4xx_HAL_Driver\\Src\\stm32f4xx_hal_qspi.c 0x00000000   Number         0  stm32f4xx_hal_qspi.o ABSOLUTE
    ..\\Drivers\\STM32F4xx_HAL_Driver\\Src\\stm32f4xx_hal_rng.c 0x00000000   Number         0  stm32f4xx_hal_rng.o ABSOLUTE
    ..\\Drivers\\STM32F4xx_HAL_Driver\\Src\\stm32f4xx_hal_rtc.c 0x00000000   Number         0  stm32f4xx_hal_rtc.o ABSOLUTE
    ..\\Drivers\\STM32F4xx_HAL_Driver\\Src\\stm32f4xx_hal_rtc_ex.c 0x00000000   Number         0  stm32f4xx_hal_rtc_ex.o ABSOLUTE
    ..\\Drivers\\STM32F4xx_HAL_Driver\\Src\\stm32f4xx_hal_sai.c 0x00000000   Number         0  stm32f4xx_hal_sai.o ABSOLUTE
    ..\\Drivers\\STM32F4xx_HAL_Driver\\Src\\stm32f4xx_hal_sai_ex.c 0x00000000   Number         0  stm32f4xx_hal_sai_ex.o ABSOLUTE
    ..\\Drivers\\STM32F4xx_HAL_Driver\\Src\\stm32f4xx_hal_sd.c 0x00000000   Number         0  stm32f4xx_hal_sd.o ABSOLUTE
    ..\\Drivers\\STM32F4xx_HAL_Driver\\Src\\stm32f4xx_hal_sdram.c 0x00000000   Number         0  stm32f4xx_hal_sdram.o ABSOLUTE
    ..\\Drivers\\STM32F4xx_HAL_Driver\\Src\\stm32f4xx_hal_smartcard.c 0x00000000   Number         0  stm32f4xx_hal_smartcard.o ABSOLUTE
    ..\\Drivers\\STM32F4xx_HAL_Driver\\Src\\stm32f4xx_hal_spdifrx.c 0x00000000   Number         0  stm32f4xx_hal_spdifrx.o ABSOLUTE
    ..\\Drivers\\STM32F4xx_HAL_Driver\\Src\\stm32f4xx_hal_spi.c 0x00000000   Number         0  stm32f4xx_hal_spi.o ABSOLUTE
    ..\\Drivers\\STM32F4xx_HAL_Driver\\Src\\stm32f4xx_hal_sram.c 0x00000000   Number         0  stm32f4xx_hal_sram.o ABSOLUTE
    ..\\Drivers\\STM32F4xx_HAL_Driver\\Src\\stm32f4xx_hal_usart.c 0x00000000   Number         0  stm32f4xx_hal_usart.o ABSOLUTE
    ..\\Drivers\\STM32F4xx_HAL_Driver\\Src\\stm32f4xx_hal_wwdg.c 0x00000000   Number         0  stm32f4xx_hal_wwdg.o ABSOLUTE
    ..\\Drivers\\STM32F4xx_HAL_Driver\\Src\\stm32f4xx_ll_fmc.c 0x00000000   Number         0  stm32f4xx_ll_fmc.o ABSOLUTE
    ..\\Drivers\\STM32F4xx_HAL_Driver\\Src\\stm32f4xx_ll_fsmc.c 0x00000000   Number         0  stm32f4xx_ll_fsmc.o ABSOLUTE
    ..\\Drivers\\STM32F4xx_HAL_Driver\\Src\\stm32f4xx_ll_sdmmc.c 0x00000000   Number         0  stm32f4xx_ll_sdmmc.o ABSOLUTE
    ..\\Drivers\\STM32F4xx_HAL_Driver\\Src\\stm32f4xx_ll_usb.c 0x00000000   Number         0  stm32f4xx_ll_usb.o ABSOLUTE
    ..\\Drivers\\STM32F4xx_HAL_Driver\\Src\\stm32f4xx_ll_utils.c 0x00000000   Number         0  stm32f4xx_ll_utils.o ABSOLUTE
    ..\\Middlewares\\Third_Party\\FreeRTOS\\Source\\CMSIS_RTOS\\cmsis_os.c 0x00000000   Number         0  cmsis_os.o ABSOLUTE
    ..\\Middlewares\\Third_Party\\FreeRTOS\\Source\\portable\\RVDS\\ARM_CM4F\\port.c 0x00000000   Number         0  port.o ABSOLUTE
    ..\\Src\\Interrupt_operation.c           0x00000000   Number         0  interrupt_operation.o ABSOLUTE
    ..\\Src\\app_ethernet.c                  0x00000000   Number         0  app_ethernet.o ABSOLUTE
    ..\\Src\\bsp\\BasicTIM\\bsp_BasicTIM.c   0x00000000   Number         0  bsp_basictim.o ABSOLUTE
    ..\\Src\\bsp\\CAN\\bsp_CAN.c             0x00000000   Number         0  bsp_can.o ABSOLUTE
    ..\\Src\\bsp\\key\\bsp_key.c             0x00000000   Number         0  bsp_key.o ABSOLUTE
    ..\\Src\\bsp\\led\\bsp_led.c             0x00000000   Number         0  bsp_led.o ABSOLUTE
    ..\\Src\\bsp\\usart\\bsp_debug_usart.c   0x00000000   Number         0  bsp_debug_usart.o ABSOLUTE
    ..\\Src\\bsp\\usart\\bsp_usartx_us100.c  0x00000000   Number         0  bsp_usartx_us100.o ABSOLUTE
    ..\\Src\\ethernetif.c                    0x00000000   Number         0  ethernetif.o ABSOLUTE
    ..\\Src\\public_data.c                   0x00000000   Number         0  public_data.o ABSOLUTE
    ..\\Src\\stm32f4xx_assert.c              0x00000000   Number         0  stm32f4xx_assert.o ABSOLUTE
    ..\\Src\\tcp_echoserver.c                0x00000000   Number         0  tcp_echoserver.o ABSOLUTE
    cdrcmple.s                               0x00000000   Number         0  cdrcmple.o ABSOLUTE
    dc.s                                     0x00000000   Number         0  dc.o ABSOLUTE
    handlers.s                               0x00000000   Number         0  handlers.o ABSOLUTE
    init.s                                   0x00000000   Number         0  init.o ABSOLUTE
    startup_stm32f407xx.s                    0x00000000   Number         0  startup_stm32f407xx.o ABSOLUTE
    RESET                                    0x08000000   Section      392  startup_stm32f407xx.o(RESET)
    .ARM.Collect$$$$00000000                 0x08000188   Section        0  entry.o(.ARM.Collect$$$$00000000)
    .ARM.Collect$$$$00000001                 0x08000188   Section        4  entry2.o(.ARM.Collect$$$$00000001)
    .ARM.Collect$$$$00000004                 0x0800018c   Section        4  entry5.o(.ARM.Collect$$$$00000004)
    .ARM.Collect$$$$00000008                 0x08000190   Section        0  entry7b.o(.ARM.Collect$$$$00000008)
    .ARM.Collect$$$$0000000A                 0x08000190   Section        0  entry8b.o(.ARM.Collect$$$$0000000A)
    .ARM.Collect$$$$0000000B                 0x08000190   Section        8  entry9a.o(.ARM.Collect$$$$0000000B)
    .ARM.Collect$$$$0000000D                 0x08000198   Section        0  entry10a.o(.ARM.Collect$$$$0000000D)
    .ARM.Collect$$$$0000000F                 0x08000198   Section        0  entry11a.o(.ARM.Collect$$$$0000000F)
    .ARM.Collect$$$$00002712                 0x08000198   Section        4  entry2.o(.ARM.Collect$$$$00002712)
    __lit__00000000                          0x08000198   Data           4  entry2.o(.ARM.Collect$$$$00002712)
    .emb_text                                0x0800019c   Section      186  port.o(.emb_text)
    $v0                                      0x0800019c   Number         0  port.o(.emb_text)
    .text                                    0x08000258   Section       36  startup_stm32f407xx.o(.text)
    $v0                                      0x08000258   Number         0  startup_stm32f407xx.o(.text)
    .text                                    0x0800027c   Section        0  rand.o(.text)
    .text                                    0x080002a0   Section        0  memcpya.o(.text)
    .text                                    0x080002c4   Section        0  memseta.o(.text)
    .text                                    0x080002e8   Section        0  strlen.o(.text)
    .text                                    0x080002f6   Section        0  memcmp.o(.text)
    .text                                    0x08000310   Section        0  strcpy.o(.text)
    .text                                    0x08000322   Section        0  f2d.o(.text)
    .text                                    0x08000348   Section        0  uidiv.o(.text)
    .text                                    0x08000374   Section        0  uldiv.o(.text)
    .text                                    0x080003d6   Section        0  dadd.o(.text)
    .text                                    0x080003d6   Section        0  iusefp.o(.text)
    .text                                    0x08000524   Section        0  dmul.o(.text)
    .text                                    0x08000608   Section        0  ddiv.o(.text)
    .text                                    0x080006e6   Section        0  dfixul.o(.text)
    .text                                    0x08000718   Section       48  cdrcmple.o(.text)
    .text                                    0x08000748   Section       36  init.o(.text)
    .text                                    0x0800076c   Section        0  llshl.o(.text)
    .text                                    0x0800078a   Section        0  llushr.o(.text)
    .text                                    0x080007aa   Section        0  llsshr.o(.text)
    .text                                    0x080007ce   Section        0  depilogue.o(.text)
    .text                                    0x08000888   Section        0  __dczerorl.o(.text)
    i.BASIC_TIMx_Init                        0x080008c4   Section        0  bsp_basictim.o(i.BASIC_TIMx_Init)
    i.BusFault_Handler                       0x08000900   Section        0  stm32f4xx_it.o(i.BusFault_Handler)
    i.CAN1_RX0_IRQHandler                    0x08000904   Section        0  stm32f4xx_it.o(i.CAN1_RX0_IRQHandler)
    i.CAN_Receive_IT                         0x08000910   Section        0  stm32f4xx_hal_can.o(i.CAN_Receive_IT)
    CAN_Receive_IT                           0x08000911   Thumb Code   422  stm32f4xx_hal_can.o(i.CAN_Receive_IT)
    i.CAN_Transmit_IT                        0x08000ab6   Section        0  stm32f4xx_hal_can.o(i.CAN_Transmit_IT)
    CAN_Transmit_IT                          0x08000ab7   Thumb Code    84  stm32f4xx_hal_can.o(i.CAN_Transmit_IT)
    i.DHCP_thread                            0x08000b0c   Section        0  app_ethernet.o(i.DHCP_thread)
    i.DebugMon_Handler                       0x08000c5c   Section        0  stm32f4xx_it.o(i.DebugMon_Handler)
    i.ETH_DMAReceptionEnable                 0x08000c5e   Section        0  stm32f4xx_hal_eth.o(i.ETH_DMAReceptionEnable)
    ETH_DMAReceptionEnable                   0x08000c5f   Thumb Code    16  stm32f4xx_hal_eth.o(i.ETH_DMAReceptionEnable)
    i.ETH_DMATransmissionEnable              0x08000c6e   Section        0  stm32f4xx_hal_eth.o(i.ETH_DMATransmissionEnable)
    ETH_DMATransmissionEnable                0x08000c6f   Thumb Code    16  stm32f4xx_hal_eth.o(i.ETH_DMATransmissionEnable)
    i.ETH_Delay                              0x08000c80   Section        0  stm32f4xx_hal_eth.o(i.ETH_Delay)
    ETH_Delay                                0x08000c81   Thumb Code    32  stm32f4xx_hal_eth.o(i.ETH_Delay)
    i.ETH_FlushTransmitFIFO                  0x08000ca4   Section        0  stm32f4xx_hal_eth.o(i.ETH_FlushTransmitFIFO)
    ETH_FlushTransmitFIFO                    0x08000ca5   Thumb Code    46  stm32f4xx_hal_eth.o(i.ETH_FlushTransmitFIFO)
    i.ETH_IRQHandler                         0x08000cd4   Section        0  stm32f4xx_it.o(i.ETH_IRQHandler)
    i.ETH_MACAddressConfig                   0x08000ce0   Section        0  stm32f4xx_hal_eth.o(i.ETH_MACAddressConfig)
    ETH_MACAddressConfig                     0x08000ce1   Thumb Code    42  stm32f4xx_hal_eth.o(i.ETH_MACAddressConfig)
    i.ETH_MACDMAConfig                       0x08000d0c   Section        0  stm32f4xx_hal_eth.o(i.ETH_MACDMAConfig)
    ETH_MACDMAConfig                         0x08000d0d   Thumb Code   390  stm32f4xx_hal_eth.o(i.ETH_MACDMAConfig)
    i.ETH_MACReceptionEnable                 0x08000ea0   Section        0  stm32f4xx_hal_eth.o(i.ETH_MACReceptionEnable)
    ETH_MACReceptionEnable                   0x08000ea1   Thumb Code    34  stm32f4xx_hal_eth.o(i.ETH_MACReceptionEnable)
    i.ETH_MACTransmissionEnable              0x08000ec2   Section        0  stm32f4xx_hal_eth.o(i.ETH_MACTransmissionEnable)
    ETH_MACTransmissionEnable                0x08000ec3   Thumb Code    34  stm32f4xx_hal_eth.o(i.ETH_MACTransmissionEnable)
    i.ETH_PHY_ReadReg                        0x08000ee4   Section        0  app_ethernet.o(i.ETH_PHY_ReadReg)
    i.ETH_link_check_state                   0x08000f00   Section        0  app_ethernet.o(i.ETH_link_check_state)
    i.Ethernet_Link_Periodic_Handle          0x08000f8c   Section        0  app_ethernet.o(i.Ethernet_Link_Periodic_Handle)
    i.HAL_CAN_ConfigFilter                   0x08000fb4   Section        0  stm32f4xx_hal_can.o(i.HAL_CAN_ConfigFilter)
    i.HAL_CAN_ErrorCallback                  0x080010c4   Section        0  stm32f4xx_hal_can.o(i.HAL_CAN_ErrorCallback)
    i.HAL_CAN_IRQHandler                     0x080010c8   Section        0  stm32f4xx_hal_can.o(i.HAL_CAN_IRQHandler)
    i.HAL_CAN_Init                           0x080012cc   Section        0  stm32f4xx_hal_can.o(i.HAL_CAN_Init)
    i.HAL_CAN_MspInit                        0x08001470   Section        0  bsp_can.o(i.HAL_CAN_MspInit)
    i.HAL_CAN_Receive_IT                     0x08001500   Section        0  stm32f4xx_hal_can.o(i.HAL_CAN_Receive_IT)
    i.HAL_CAN_RxCpltCallback                 0x08001604   Section        0  bsp_can.o(i.HAL_CAN_RxCpltCallback)
    i.HAL_CAN_TxCpltCallback                 0x08001734   Section        0  stm32f4xx_hal_can.o(i.HAL_CAN_TxCpltCallback)
    i.HAL_DMA_Abort_IT                       0x08001736   Section        0  stm32f4xx_hal_dma.o(i.HAL_DMA_Abort_IT)
    i.HAL_Delay                              0x0800175a   Section        0  stm32f4xx_hal.o(i.HAL_Delay)
    i.HAL_ETH_ConfigMAC                      0x08001778   Section        0  stm32f4xx_hal_eth.o(i.HAL_ETH_ConfigMAC)
    i.HAL_ETH_DMARxDescListInit              0x080018b0   Section        0  stm32f4xx_hal_eth.o(i.HAL_ETH_DMARxDescListInit)
    i.HAL_ETH_DMATxDescListInit              0x08001930   Section        0  stm32f4xx_hal_eth.o(i.HAL_ETH_DMATxDescListInit)
    i.HAL_ETH_ErrorCallback                  0x080019be   Section        0  stm32f4xx_hal_eth.o(i.HAL_ETH_ErrorCallback)
    i.HAL_ETH_GetReceivedFrame_IT            0x080019c0   Section        0  stm32f4xx_hal_eth.o(i.HAL_ETH_GetReceivedFrame_IT)
    i.HAL_ETH_IRQHandler                     0x08001a60   Section        0  stm32f4xx_hal_eth.o(i.HAL_ETH_IRQHandler)
    i.HAL_ETH_Init                           0x08001ae8   Section        0  stm32f4xx_hal_eth.o(i.HAL_ETH_Init)
    i.HAL_ETH_MspInit                        0x08001d58   Section        0  ethernetif.o(i.HAL_ETH_MspInit)
    i.HAL_ETH_ReadPHYRegister                0x08001e60   Section        0  stm32f4xx_hal_eth.o(i.HAL_ETH_ReadPHYRegister)
    i.HAL_ETH_RxCpltCallback                 0x08001eec   Section        0  ethernetif.o(i.HAL_ETH_RxCpltCallback)
    i.HAL_ETH_Start                          0x08001ef8   Section        0  stm32f4xx_hal_eth.o(i.HAL_ETH_Start)
    i.HAL_ETH_TransmitFrame                  0x08001f3e   Section        0  stm32f4xx_hal_eth.o(i.HAL_ETH_TransmitFrame)
    i.HAL_ETH_TxCpltCallback                 0x08002074   Section        0  stm32f4xx_hal_eth.o(i.HAL_ETH_TxCpltCallback)
    i.HAL_ETH_WritePHYRegister               0x08002076   Section        0  stm32f4xx_hal_eth.o(i.HAL_ETH_WritePHYRegister)
    i.HAL_GPIO_Init                          0x080020fc   Section        0  stm32f4xx_hal_gpio.o(i.HAL_GPIO_Init)
    i.HAL_GPIO_WritePin                      0x08002318   Section        0  stm32f4xx_hal_gpio.o(i.HAL_GPIO_WritePin)
    i.HAL_GetTick                            0x08002328   Section        0  stm32f4xx_hal.o(i.HAL_GetTick)
    i.HAL_IncTick                            0x08002334   Section        0  stm32f4xx_hal.o(i.HAL_IncTick)
    i.HAL_Init                               0x08002344   Section        0  stm32f4xx_hal.o(i.HAL_Init)
    i.HAL_InitTick                           0x08002378   Section        0  stm32f4xx_hal.o(i.HAL_InitTick)
    i.HAL_MspInit                            0x080023a0   Section        0  stm32f4xx_hal_msp.o(i.HAL_MspInit)
    i.HAL_NVIC_EnableIRQ                     0x080023a6   Section        0  stm32f4xx_hal_cortex.o(i.HAL_NVIC_EnableIRQ)
    i.HAL_NVIC_SetPriority                   0x080023c0   Section        0  stm32f4xx_hal_cortex.o(i.HAL_NVIC_SetPriority)
    i.HAL_NVIC_SetPriorityGrouping           0x08002428   Section        0  stm32f4xx_hal_cortex.o(i.HAL_NVIC_SetPriorityGrouping)
    i.HAL_RCC_ClockConfig                    0x0800244c   Section        0  stm32f4xx_hal_rcc.o(i.HAL_RCC_ClockConfig)
    i.HAL_RCC_EnableCSS                      0x0800263c   Section        0  stm32f4xx_hal_rcc.o(i.HAL_RCC_EnableCSS)
    i.HAL_RCC_GetHCLKFreq                    0x08002648   Section        0  stm32f4xx_hal_rcc.o(i.HAL_RCC_GetHCLKFreq)
    i.HAL_RCC_GetPCLK1Freq                   0x08002654   Section        0  stm32f4xx_hal_rcc.o(i.HAL_RCC_GetPCLK1Freq)
    i.HAL_RCC_GetPCLK2Freq                   0x08002680   Section        0  stm32f4xx_hal_rcc.o(i.HAL_RCC_GetPCLK2Freq)
    i.HAL_RCC_GetSysClockFreq                0x080026ac   Section        0  stm32f4xx_hal_rcc.o(i.HAL_RCC_GetSysClockFreq)
    i.HAL_RCC_OscConfig                      0x08002738   Section        0  stm32f4xx_hal_rcc.o(i.HAL_RCC_OscConfig)
    i.HAL_SYSTICK_CLKSourceConfig            0x08002b78   Section        0  stm32f4xx_hal_cortex.o(i.HAL_SYSTICK_CLKSourceConfig)
    i.HAL_SYSTICK_Config                     0x08002b94   Section        0  stm32f4xx_hal_cortex.o(i.HAL_SYSTICK_Config)
    i.HAL_TIMEx_BreakCallback                0x08002bbc   Section        0  stm32f4xx_hal_tim_ex.o(i.HAL_TIMEx_BreakCallback)
    i.HAL_TIMEx_CommutationCallback          0x08002bbe   Section        0  stm32f4xx_hal_tim_ex.o(i.HAL_TIMEx_CommutationCallback)
    i.HAL_TIMEx_MasterConfigSynchronization  0x08002bc0   Section        0  stm32f4xx_hal_tim_ex.o(i.HAL_TIMEx_MasterConfigSynchronization)
    i.HAL_TIM_Base_Init                      0x08002c26   Section        0  stm32f4xx_hal_tim.o(i.HAL_TIM_Base_Init)
    i.HAL_TIM_Base_MspInit                   0x08002c60   Section        0  bsp_basictim.o(i.HAL_TIM_Base_MspInit)
    i.HAL_TIM_Base_Start_IT                  0x08002c9c   Section        0  stm32f4xx_hal_tim.o(i.HAL_TIM_Base_Start_IT)
    i.HAL_TIM_IC_CaptureCallback             0x08002cb4   Section        0  stm32f4xx_hal_tim.o(i.HAL_TIM_IC_CaptureCallback)
    i.HAL_TIM_IRQHandler                     0x08002cb6   Section        0  stm32f4xx_hal_tim.o(i.HAL_TIM_IRQHandler)
    i.HAL_TIM_OC_DelayElapsedCallback        0x08002e2a   Section        0  stm32f4xx_hal_tim.o(i.HAL_TIM_OC_DelayElapsedCallback)
    i.HAL_TIM_PWM_PulseFinishedCallback      0x08002e2c   Section        0  stm32f4xx_hal_tim.o(i.HAL_TIM_PWM_PulseFinishedCallback)
    i.HAL_TIM_PeriodElapsedCallback          0x08002e30   Section        0  bsp_basictim.o(i.HAL_TIM_PeriodElapsedCallback)
    i.HAL_TIM_TriggerCallback                0x08002e54   Section        0  stm32f4xx_hal_tim.o(i.HAL_TIM_TriggerCallback)
    i.HAL_UART_ErrorCallback                 0x08002e56   Section        0  stm32f4xx_hal_uart.o(i.HAL_UART_ErrorCallback)
    i.HAL_UART_IRQHandler                    0x08002e58   Section        0  stm32f4xx_hal_uart.o(i.HAL_UART_IRQHandler)
    i.HAL_UART_Init                          0x08002f90   Section        0  stm32f4xx_hal_uart.o(i.HAL_UART_Init)
    i.HAL_UART_MspInit                       0x08002ff4   Section        0  bsp_debug_usart.o(i.HAL_UART_MspInit)
    i.HAL_UART_Receive_IT                    0x0800304c   Section        0  stm32f4xx_hal_uart.o(i.HAL_UART_Receive_IT)
    i.HAL_UART_RxCpltCallback                0x08003098   Section        0  interrupt_operation.o(i.HAL_UART_RxCpltCallback)
    i.HAL_UART_Transmit                      0x080030c0   Section        0  stm32f4xx_hal_uart.o(i.HAL_UART_Transmit)
    i.HAL_UART_TxCpltCallback                0x0800319c   Section        0  stm32f4xx_hal_uart.o(i.HAL_UART_TxCpltCallback)
    i.HardFault_Handler                      0x0800319e   Section        0  stm32f4xx_it.o(i.HardFault_Handler)
    i.LED_GPIO_Init                          0x080031a0   Section        0  bsp_led.o(i.LED_GPIO_Init)
    i.MX_CAN_Init                            0x08003240   Section        0  bsp_can.o(i.MX_CAN_Init)
    i.MX_DEBUG_USART_Init                    0x080032b4   Section        0  bsp_debug_usart.o(i.MX_DEBUG_USART_Init)
    i.MemManage_Handler                      0x080032f8   Section        0  stm32f4xx_it.o(i.MemManage_Handler)
    i.NMI_Handler                            0x080032fa   Section        0  stm32f4xx_it.o(i.NMI_Handler)
    i.Netif_Config                           0x080032fc   Section        0  app_ethernet.o(i.Netif_Config)
    i.RCC_IRQHandler                         0x08003350   Section        0  stm32f4xx_it.o(i.RCC_IRQHandler)
    i.StartThread                            0x08003354   Section        0  main.o(i.StartThread)
    StartThread                              0x08003355   Thumb Code    86  main.o(i.StartThread)
    i.SysTick_Handler                        0x080033c8   Section        0  stm32f4xx_it.o(i.SysTick_Handler)
    i.SystemClock_Config                     0x080033d8   Section        0  main.o(i.SystemClock_Config)
    i.SystemInit                             0x08003474   Section        0  system_stm32f4xx.o(i.SystemInit)
    i.TIM6_DAC_IRQHandler                    0x080034cc   Section        0  stm32f4xx_it.o(i.TIM6_DAC_IRQHandler)
    i.TIM_Base_SetConfig                     0x080034d8   Section        0  stm32f4xx_hal_tim.o(i.TIM_Base_SetConfig)
    i.UART4_IRQHandler                       0x080035a0   Section        0  stm32f4xx_it.o(i.UART4_IRQHandler)
    i.UART_DMAAbortOnError                   0x080035ac   Section        0  stm32f4xx_hal_uart.o(i.UART_DMAAbortOnError)
    UART_DMAAbortOnError                     0x080035ad   Thumb Code    16  stm32f4xx_hal_uart.o(i.UART_DMAAbortOnError)
    i.UART_EndRxTransfer                     0x080035bc   Section        0  stm32f4xx_hal_uart.o(i.UART_EndRxTransfer)
    UART_EndRxTransfer                       0x080035bd   Thumb Code    28  stm32f4xx_hal_uart.o(i.UART_EndRxTransfer)
    i.UART_EndTransmit_IT                    0x080035d8   Section        0  stm32f4xx_hal_uart.o(i.UART_EndTransmit_IT)
    UART_EndTransmit_IT                      0x080035d9   Thumb Code    26  stm32f4xx_hal_uart.o(i.UART_EndTransmit_IT)
    i.UART_Receive_IT                        0x080035f2   Section        0  stm32f4xx_hal_uart.o(i.UART_Receive_IT)
    UART_Receive_IT                          0x080035f3   Thumb Code   146  stm32f4xx_hal_uart.o(i.UART_Receive_IT)
    i.UART_SetConfig                         0x08003684   Section        0  stm32f4xx_hal_uart.o(i.UART_SetConfig)
    UART_SetConfig                           0x08003685   Thumb Code   822  stm32f4xx_hal_uart.o(i.UART_SetConfig)
    i.UART_Transmit_IT                       0x080039c8   Section        0  stm32f4xx_hal_uart.o(i.UART_Transmit_IT)
    UART_Transmit_IT                         0x080039c9   Thumb Code   102  stm32f4xx_hal_uart.o(i.UART_Transmit_IT)
    i.UART_WaitOnFlagUntilTimeout            0x08003a2e   Section        0  stm32f4xx_hal_uart.o(i.UART_WaitOnFlagUntilTimeout)
    UART_WaitOnFlagUntilTimeout              0x08003a2f   Thumb Code   120  stm32f4xx_hal_uart.o(i.UART_WaitOnFlagUntilTimeout)
    i.US100_USART4_Rx_data                   0x08003aa8   Section        0  bsp_usartx_us100.o(i.US100_USART4_Rx_data)
    i.US100_USART6_Init                      0x08003b0c   Section        0  bsp_usartx_us100.o(i.US100_USART6_Init)
    i.US100_USART6_Rx_data                   0x08003b9c   Section        0  bsp_usartx_us100.o(i.US100_USART6_Rx_data)
    i.US100_USART6_main                      0x08003c00   Section        0  bsp_usartx_us100.o(i.US100_USART6_main)
    i.USART6_IRQHandler                      0x08003c7c   Section        0  stm32f4xx_it.o(i.USART6_IRQHandler)
    i.USART_GPIO_Init                        0x08003c88   Section        0  bsp_usartx_us100.o(i.USART_GPIO_Init)
    i.UsageFault_Handler                     0x08003d28   Section        0  stm32f4xx_it.o(i.UsageFault_Handler)
    i.__0printf                              0x08003d2c   Section        0  printfa.o(i.__0printf)
    i.__0sprintf                             0x08003d4c   Section        0  printfa.o(i.__0sprintf)
    i.__scatterload_copy                     0x08003d74   Section       14  handlers.o(i.__scatterload_copy)
    i.__scatterload_null                     0x08003d82   Section        2  handlers.o(i.__scatterload_null)
    i.__scatterload_zeroinit                 0x08003d84   Section       14  handlers.o(i.__scatterload_zeroinit)
    i._fp_digits                             0x08003d94   Section        0  printfa.o(i._fp_digits)
    _fp_digits                               0x08003d95   Thumb Code   366  printfa.o(i._fp_digits)
    i._printf_core                           0x08003f18   Section        0  printfa.o(i._printf_core)
    _printf_core                             0x08003f19   Thumb Code  1744  printfa.o(i._printf_core)
    i._printf_post_padding                   0x080045f4   Section        0  printfa.o(i._printf_post_padding)
    _printf_post_padding                     0x080045f5   Thumb Code    36  printfa.o(i._printf_post_padding)
    i._printf_pre_padding                    0x08004618   Section        0  printfa.o(i._printf_pre_padding)
    _printf_pre_padding                      0x08004619   Thumb Code    46  printfa.o(i._printf_pre_padding)
    i._sputc                                 0x08004646   Section        0  printfa.o(i._sputc)
    _sputc                                   0x08004647   Thumb Code    10  printfa.o(i._sputc)
    i.accept_function                        0x08004650   Section        0  api_msg.o(i.accept_function)
    accept_function                          0x08004651   Thumb Code   244  api_msg.o(i.accept_function)
    i.alloc_socket                           0x08004748   Section        0  sockets.o(i.alloc_socket)
    alloc_socket                             0x08004749   Thumb Code   104  sockets.o(i.alloc_socket)
    i.cyclic_timer                           0x080047b4   Section        0  timeouts.o(i.cyclic_timer)
    cyclic_timer                             0x080047b5   Thumb Code    22  timeouts.o(i.cyclic_timer)
    i.dhcp_arp_reply                         0x080047d0   Section        0  dhcp.o(i.dhcp_arp_reply)
    i.dhcp_bind                              0x080047f0   Section        0  dhcp.o(i.dhcp_bind)
    dhcp_bind                                0x080047f1   Thumb Code   234  dhcp.o(i.dhcp_bind)
    i.dhcp_check                             0x080048e0   Section        0  dhcp.o(i.dhcp_check)
    dhcp_check                               0x080048e1   Thumb Code    52  dhcp.o(i.dhcp_check)
    i.dhcp_coarse_tmr                        0x08004914   Section        0  dhcp.o(i.dhcp_coarse_tmr)
    i.dhcp_create_msg                        0x0800497c   Section        0  dhcp.o(i.dhcp_create_msg)
    dhcp_create_msg                          0x0800497d   Thumb Code   300  dhcp.o(i.dhcp_create_msg)
    i.dhcp_dec_pcb_refcount                  0x08004ab0   Section        0  dhcp.o(i.dhcp_dec_pcb_refcount)
    dhcp_dec_pcb_refcount                    0x08004ab1   Thumb Code    28  dhcp.o(i.dhcp_dec_pcb_refcount)
    i.dhcp_decline                           0x08004ad0   Section        0  dhcp.o(i.dhcp_decline)
    dhcp_decline                             0x08004ad1   Thumb Code   130  dhcp.o(i.dhcp_decline)
    i.dhcp_delete_msg                        0x08004b60   Section        0  dhcp.o(i.dhcp_delete_msg)
    dhcp_delete_msg                          0x08004b61   Thumb Code    24  dhcp.o(i.dhcp_delete_msg)
    i.dhcp_discover                          0x08004b78   Section        0  dhcp.o(i.dhcp_discover)
    dhcp_discover                            0x08004b79   Thumb Code   200  dhcp.o(i.dhcp_discover)
    i.dhcp_fine_tmr                          0x08004c50   Section        0  dhcp.o(i.dhcp_fine_tmr)
    i.dhcp_handle_ack                        0x08004c84   Section        0  dhcp.o(i.dhcp_handle_ack)
    dhcp_handle_ack                          0x08004c85   Thumb Code   104  dhcp.o(i.dhcp_handle_ack)
    i.dhcp_handle_nak                        0x08004cf0   Section        0  dhcp.o(i.dhcp_handle_nak)
    dhcp_handle_nak                          0x08004cf1   Thumb Code    34  dhcp.o(i.dhcp_handle_nak)
    i.dhcp_handle_offer                      0x08004d18   Section        0  dhcp.o(i.dhcp_handle_offer)
    dhcp_handle_offer                        0x08004d19   Thumb Code    42  dhcp.o(i.dhcp_handle_offer)
    i.dhcp_inc_pcb_refcount                  0x08004d4c   Section        0  dhcp.o(i.dhcp_inc_pcb_refcount)
    dhcp_inc_pcb_refcount                    0x08004d4d   Thumb Code    70  dhcp.o(i.dhcp_inc_pcb_refcount)
    i.dhcp_network_changed                   0x08004da0   Section        0  dhcp.o(i.dhcp_network_changed)
    i.dhcp_option                            0x08004dd0   Section        0  dhcp.o(i.dhcp_option)
    dhcp_option                              0x08004dd1   Thumb Code    34  dhcp.o(i.dhcp_option)
    i.dhcp_option_byte                       0x08004df2   Section        0  dhcp.o(i.dhcp_option_byte)
    dhcp_option_byte                         0x08004df3   Thumb Code    14  dhcp.o(i.dhcp_option_byte)
    i.dhcp_option_long                       0x08004e00   Section        0  dhcp.o(i.dhcp_option_long)
    dhcp_option_long                         0x08004e01   Thumb Code    68  dhcp.o(i.dhcp_option_long)
    i.dhcp_option_short                      0x08004e44   Section        0  dhcp.o(i.dhcp_option_short)
    dhcp_option_short                        0x08004e45   Thumb Code    32  dhcp.o(i.dhcp_option_short)
    i.dhcp_option_trailer                    0x08004e64   Section        0  dhcp.o(i.dhcp_option_trailer)
    dhcp_option_trailer                      0x08004e65   Thumb Code    50  dhcp.o(i.dhcp_option_trailer)
    i.dhcp_parse_reply                       0x08004e98   Section        0  dhcp.o(i.dhcp_parse_reply)
    dhcp_parse_reply                         0x08004e99   Thumb Code   690  dhcp.o(i.dhcp_parse_reply)
    i.dhcp_rebind                            0x08005154   Section        0  dhcp.o(i.dhcp_rebind)
    dhcp_rebind                              0x08005155   Thumb Code   172  dhcp.o(i.dhcp_rebind)
    i.dhcp_reboot                            0x0800520c   Section        0  dhcp.o(i.dhcp_reboot)
    dhcp_reboot                              0x0800520d   Thumb Code   198  dhcp.o(i.dhcp_reboot)
    i.dhcp_recv                              0x080052e0   Section        0  dhcp.o(i.dhcp_recv)
    dhcp_recv                                0x080052e1   Thumb Code   246  dhcp.o(i.dhcp_recv)
    i.dhcp_release                           0x080053e4   Section        0  dhcp.o(i.dhcp_release)
    i.dhcp_renew                             0x08005498   Section        0  dhcp.o(i.dhcp_renew)
    i.dhcp_select                            0x08005550   Section        0  dhcp.o(i.dhcp_select)
    dhcp_select                              0x08005551   Thumb Code   244  dhcp.o(i.dhcp_select)
    i.dhcp_set_state                         0x08005654   Section        0  dhcp.o(i.dhcp_set_state)
    dhcp_set_state                           0x08005655   Thumb Code    16  dhcp.o(i.dhcp_set_state)
    i.dhcp_start                             0x08005664   Section        0  dhcp.o(i.dhcp_start)
    i.dhcp_stop                              0x080056f8   Section        0  dhcp.o(i.dhcp_stop)
    i.dhcp_supplied_address                  0x0800571c   Section        0  dhcp.o(i.dhcp_supplied_address)
    i.dhcp_t1_timeout                        0x0800573a   Section        0  dhcp.o(i.dhcp_t1_timeout)
    dhcp_t1_timeout                          0x0800573b   Thumb Code    42  dhcp.o(i.dhcp_t1_timeout)
    i.dhcp_t2_timeout                        0x08005764   Section        0  dhcp.o(i.dhcp_t2_timeout)
    dhcp_t2_timeout                          0x08005765   Thumb Code    46  dhcp.o(i.dhcp_t2_timeout)
    i.dhcp_timeout                           0x08005792   Section        0  dhcp.o(i.dhcp_timeout)
    dhcp_timeout                             0x08005793   Thumb Code   124  dhcp.o(i.dhcp_timeout)
    i.do_memp_free_pool                      0x0800580e   Section        0  memp.o(i.do_memp_free_pool)
    do_memp_free_pool                        0x0800580f   Thumb Code    28  memp.o(i.do_memp_free_pool)
    i.do_memp_malloc_pool                    0x0800582a   Section        0  memp.o(i.do_memp_malloc_pool)
    do_memp_malloc_pool                      0x0800582b   Thumb Code    40  memp.o(i.do_memp_malloc_pool)
    i.eTaskGetState                          0x08005854   Section        0  tasks.o(i.eTaskGetState)
    i.err_tcp                                0x080058c0   Section        0  api_msg.o(i.err_tcp)
    err_tcp                                  0x080058c1   Thumb Code   218  api_msg.o(i.err_tcp)
    i.err_to_errno                           0x0800599c   Section        0  err.o(i.err_to_errno)
    i.etharp_cleanup_netif                   0x080059b8   Section        0  etharp.o(i.etharp_cleanup_netif)
    i.etharp_find_entry                      0x080059e8   Section        0  etharp.o(i.etharp_find_entry)
    etharp_find_entry                        0x080059e9   Thumb Code   262  etharp.o(i.etharp_find_entry)
    i.etharp_free_entry                      0x08005af4   Section        0  etharp.o(i.etharp_free_entry)
    etharp_free_entry                        0x08005af5   Thumb Code    34  etharp.o(i.etharp_free_entry)
    i.etharp_input                           0x08005b1c   Section        0  etharp.o(i.etharp_input)
    i.etharp_output                          0x08005be4   Section        0  etharp.o(i.etharp_output)
    i.etharp_output_to_arp_index             0x08005cf0   Section        0  etharp.o(i.etharp_output_to_arp_index)
    etharp_output_to_arp_index               0x08005cf1   Thumb Code    92  etharp.o(i.etharp_output_to_arp_index)
    i.etharp_query                           0x08005d50   Section        0  etharp.o(i.etharp_query)
    i.etharp_raw                             0x08005e78   Section        0  etharp.o(i.etharp_raw)
    etharp_raw                               0x08005e79   Thumb Code   138  etharp.o(i.etharp_raw)
    i.etharp_request                         0x08005f04   Section        0  etharp.o(i.etharp_request)
    i.etharp_request_dst                     0x08005f10   Section        0  etharp.o(i.etharp_request_dst)
    etharp_request_dst                       0x08005f11   Thumb Code    36  etharp.o(i.etharp_request_dst)
    i.etharp_tmr                             0x08005f38   Section        0  etharp.o(i.etharp_tmr)
    i.etharp_update_arp_entry                0x08005f9c   Section        0  etharp.o(i.etharp_update_arp_entry)
    etharp_update_arp_entry                  0x08005f9d   Thumb Code   126  etharp.o(i.etharp_update_arp_entry)
    i.ethernet_input                         0x08006020   Section        0  ethernet.o(i.ethernet_input)
    i.ethernet_link_check_state              0x080060c8   Section        0  ethernetif.o(i.ethernet_link_check_state)
    i.ethernet_link_status_updated           0x080061a0   Section        0  app_ethernet.o(i.ethernet_link_status_updated)
    i.ethernet_output                        0x0800621c   Section        0  ethernet.o(i.ethernet_output)
    i.ethernetif_init                        0x08006270   Section        0  ethernetif.o(i.ethernetif_init)
    i.ethernetif_input                       0x08006298   Section        0  ethernetif.o(i.ethernetif_input)
    ethernetif_input                         0x08006299   Thumb Code    50  ethernetif.o(i.ethernetif_input)
    i.event_callback                         0x080062d0   Section        0  sockets.o(i.event_callback)
    event_callback                           0x080062d1   Thumb Code   300  sockets.o(i.event_callback)
    i.fputc                                  0x08006400   Section        0  bsp_debug_usart.o(i.fputc)
    i.free                                   0x0800641c   Section        0  malloc.o(i.free)
    i.free_socket                            0x0800646c   Section        0  sockets.o(i.free_socket)
    free_socket                              0x0800646d   Thumb Code    58  sockets.o(i.free_socket)
    i.get_socket                             0x080064a8   Section        0  sockets.o(i.get_socket)
    get_socket                               0x080064a9   Thumb Code    36  sockets.o(i.get_socket)
    i.icmp_dest_unreach                      0x080064d4   Section        0  icmp.o(i.icmp_dest_unreach)
    i.icmp_input                             0x080064dc   Section        0  icmp.o(i.icmp_input)
    i.icmp_send_response                     0x08006620   Section        0  icmp.o(i.icmp_send_response)
    icmp_send_response                       0x08006621   Thumb Code   114  icmp.o(i.icmp_send_response)
    i.icmp_time_exceeded                     0x08006692   Section        0  icmp.o(i.icmp_time_exceeded)
    i.inHandlerMode                          0x0800669a   Section        0  cmsis_os.o(i.inHandlerMode)
    inHandlerMode                            0x0800669b   Thumb Code    16  cmsis_os.o(i.inHandlerMode)
    i.inet_chksum_pbuf                       0x080066aa   Section        0  inet_chksum.o(i.inet_chksum_pbuf)
    i.ip4_addr_isbroadcast_u32               0x080066f6   Section        0  ip4_addr.o(i.ip4_addr_isbroadcast_u32)
    i.ip4_frag                               0x08006748   Section        0  ip4_frag.o(i.ip4_frag)
    i.ip4_input                              0x080068ec   Section        0  ip4.o(i.ip4_input)
    i.ip4_output_if                          0x08006ae0   Section        0  ip4.o(i.ip4_output_if)
    i.ip4_output_if_src                      0x08006b0c   Section        0  ip4.o(i.ip4_output_if_src)
    i.ip4_reass                              0x08006bc8   Section        0  ip4_frag.o(i.ip4_reass)
    i.ip4_route                              0x08006d48   Section        0  ip4.o(i.ip4_route)
    i.ip4addr_ntoa                           0x08006dbc   Section        0  ip4_addr.o(i.ip4addr_ntoa)
    i.ip4addr_ntoa_r                         0x08006dc8   Section        0  ip4_addr.o(i.ip4addr_ntoa_r)
    i.ip_frag_alloc_pbuf_custom_ref          0x08006e78   Section        0  ip4_frag.o(i.ip_frag_alloc_pbuf_custom_ref)
    ip_frag_alloc_pbuf_custom_ref            0x08006e79   Thumb Code     6  ip4_frag.o(i.ip_frag_alloc_pbuf_custom_ref)
    i.ip_frag_free_pbuf_custom_ref           0x08006e7e   Section        0  ip4_frag.o(i.ip_frag_free_pbuf_custom_ref)
    ip_frag_free_pbuf_custom_ref             0x08006e7f   Thumb Code     8  ip4_frag.o(i.ip_frag_free_pbuf_custom_ref)
    i.ip_reass_chain_frag_into_datagram_and_validate 0x08006e88   Section        0  ip4_frag.o(i.ip_reass_chain_frag_into_datagram_and_validate)
    ip_reass_chain_frag_into_datagram_and_validate 0x08006e89   Thumb Code   244  ip4_frag.o(i.ip_reass_chain_frag_into_datagram_and_validate)
    i.ip_reass_dequeue_datagram              0x08006f80   Section        0  ip4_frag.o(i.ip_reass_dequeue_datagram)
    ip_reass_dequeue_datagram                0x08006f81   Thumb Code    28  ip4_frag.o(i.ip_reass_dequeue_datagram)
    i.ip_reass_enqueue_new_datagram          0x08006fa0   Section        0  ip4_frag.o(i.ip_reass_enqueue_new_datagram)
    ip_reass_enqueue_new_datagram            0x08006fa1   Thumb Code    94  ip4_frag.o(i.ip_reass_enqueue_new_datagram)
    i.ip_reass_free_complete_datagram        0x08007004   Section        0  ip4_frag.o(i.ip_reass_free_complete_datagram)
    ip_reass_free_complete_datagram          0x08007005   Thumb Code   120  ip4_frag.o(i.ip_reass_free_complete_datagram)
    i.ip_reass_remove_oldest_datagram        0x08007080   Section        0  ip4_frag.o(i.ip_reass_remove_oldest_datagram)
    ip_reass_remove_oldest_datagram          0x08007081   Thumb Code   118  ip4_frag.o(i.ip_reass_remove_oldest_datagram)
    i.ip_reass_tmr                           0x080070fc   Section        0  ip4_frag.o(i.ip_reass_tmr)
    i.ipfrag_free_pbuf_custom                0x0800712c   Section        0  ip4_frag.o(i.ipfrag_free_pbuf_custom)
    ipfrag_free_pbuf_custom                  0x0800712d   Thumb Code    24  ip4_frag.o(i.ipfrag_free_pbuf_custom)
    i.low_level_init                         0x08007144   Section        0  ethernetif.o(i.low_level_init)
    low_level_init                           0x08007145   Thumb Code   270  ethernetif.o(i.low_level_init)
    i.low_level_input                        0x08007298   Section        0  ethernetif.o(i.low_level_input)
    low_level_input                          0x08007299   Thumb Code   192  ethernetif.o(i.low_level_input)
    i.low_level_output                       0x0800735c   Section        0  ethernetif.o(i.low_level_output)
    low_level_output                         0x0800735d   Thumb Code   180  ethernetif.o(i.low_level_output)
    i.lwip_accept                            0x08007414   Section        0  sockets.o(i.lwip_accept)
    i.lwip_bind                              0x08007584   Section        0  sockets.o(i.lwip_bind)
    i.lwip_close                             0x080075f4   Section        0  sockets.o(i.lwip_close)
    i.lwip_htonl                             0x08007644   Section        0  def.o(i.lwip_htonl)
    i.lwip_htons                             0x0800765c   Section        0  def.o(i.lwip_htons)
    i.lwip_init                              0x08007666   Section        0  init.o(i.lwip_init)
    i.lwip_listen                            0x08007688   Section        0  sockets.o(i.lwip_listen)
    i.lwip_netconn_do_bind                   0x080076ec   Section        0  api_msg.o(i.lwip_netconn_do_bind)
    i.lwip_netconn_do_close                  0x08007750   Section        0  api_msg.o(i.lwip_netconn_do_close)
    i.lwip_netconn_do_close_internal         0x080077f0   Section        0  api_msg.o(i.lwip_netconn_do_close_internal)
    lwip_netconn_do_close_internal           0x080077f1   Thumb Code   384  api_msg.o(i.lwip_netconn_do_close_internal)
    i.lwip_netconn_do_delconn                0x0800797c   Section        0  api_msg.o(i.lwip_netconn_do_delconn)
    i.lwip_netconn_do_getaddr                0x08007a50   Section        0  api_msg.o(i.lwip_netconn_do_getaddr)
    i.lwip_netconn_do_listen                 0x08007af4   Section        0  api_msg.o(i.lwip_netconn_do_listen)
    i.lwip_netconn_do_newconn                0x08007bd4   Section        0  api_msg.o(i.lwip_netconn_do_newconn)
    i.lwip_netconn_do_recv                   0x08007c12   Section        0  api_msg.o(i.lwip_netconn_do_recv)
    i.lwip_netconn_do_send                   0x08007c70   Section        0  api_msg.o(i.lwip_netconn_do_send)
    i.lwip_netconn_do_write                  0x08007ce4   Section        0  api_msg.o(i.lwip_netconn_do_write)
    i.lwip_netconn_do_writemore              0x08007d78   Section        0  api_msg.o(i.lwip_netconn_do_writemore)
    lwip_netconn_do_writemore                0x08007d79   Thumb Code   374  api_msg.o(i.lwip_netconn_do_writemore)
    i.lwip_recv                              0x08007eee   Section        0  sockets.o(i.lwip_recv)
    i.lwip_recvfrom                          0x08007f08   Section        0  sockets.o(i.lwip_recvfrom)
    i.lwip_send                              0x08008124   Section        0  sockets.o(i.lwip_send)
    i.lwip_sendto                            0x080081cc   Section        0  sockets.o(i.lwip_sendto)
    i.lwip_setsockopt                        0x080082a8   Section        0  sockets.o(i.lwip_setsockopt)
    i.lwip_setsockopt_impl                   0x08008320   Section        0  sockets.o(i.lwip_setsockopt_impl)
    lwip_setsockopt_impl                     0x08008321   Thumb Code   352  sockets.o(i.lwip_setsockopt_impl)
    i.lwip_socket                            0x08008480   Section        0  sockets.o(i.lwip_socket)
    i.lwip_standard_chksum                   0x08008500   Section        0  inet_chksum.o(i.lwip_standard_chksum)
    i.lwip_write                             0x0800855a   Section        0  sockets.o(i.lwip_write)
    i.main                                   0x08008560   Section        0  main.o(i.main)
    i.makeFreeRtosPriority                   0x080085a4   Section        0  cmsis_os.o(i.makeFreeRtosPriority)
    makeFreeRtosPriority                     0x080085a5   Thumb Code    12  cmsis_os.o(i.makeFreeRtosPriority)
    i.mem_free                               0x080085b0   Section        0  mem.o(i.mem_free)
    i.mem_init                               0x08008600   Section        0  mem.o(i.mem_init)
    i.mem_malloc                             0x0800863c   Section        0  mem.o(i.mem_malloc)
    i.mem_trim                               0x08008718   Section        0  mem.o(i.mem_trim)
    i.memp_free                              0x08008814   Section        0  memp.o(i.memp_free)
    i.memp_init                              0x0800882c   Section        0  memp.o(i.memp_init)
    i.memp_init_pool                         0x08008848   Section        0  memp.o(i.memp_init_pool)
    i.memp_malloc                            0x08008878   Section        0  memp.o(i.memp_malloc)
    i.netbuf_delete                          0x08008890   Section        0  netbuf.o(i.netbuf_delete)
    i.netbuf_free                            0x080088b4   Section        0  netbuf.o(i.netbuf_free)
    i.netbuf_ref                             0x080088cc   Section        0  netbuf.o(i.netbuf_ref)
    i.netconn_accept                         0x08008910   Section        0  api_lib.o(i.netconn_accept)
    i.netconn_alloc                          0x08008998   Section        0  api_msg.o(i.netconn_alloc)
    i.netconn_apimsg                         0x08008a16   Section        0  api_lib.o(i.netconn_apimsg)
    netconn_apimsg                           0x08008a17   Thumb Code    26  api_lib.o(i.netconn_apimsg)
    i.netconn_bind                           0x08008a30   Section        0  api_lib.o(i.netconn_bind)
    i.netconn_close_shutdown                 0x08008a64   Section        0  api_lib.o(i.netconn_close_shutdown)
    netconn_close_shutdown                   0x08008a65   Thumb Code    40  api_lib.o(i.netconn_close_shutdown)
    i.netconn_delete                         0x08008a90   Section        0  api_lib.o(i.netconn_delete)
    i.netconn_drain                          0x08008ac4   Section        0  api_msg.o(i.netconn_drain)
    netconn_drain                            0x08008ac5   Thumb Code   196  api_msg.o(i.netconn_drain)
    i.netconn_free                           0x08008b8c   Section        0  api_msg.o(i.netconn_free)
    i.netconn_getaddr                        0x08008bbc   Section        0  api_lib.o(i.netconn_getaddr)
    i.netconn_listen_with_backlog            0x08008bfc   Section        0  api_lib.o(i.netconn_listen_with_backlog)
    i.netconn_new_with_proto_and_callback    0x08008c20   Section        0  api_lib.o(i.netconn_new_with_proto_and_callback)
    i.netconn_recv                           0x08008c80   Section        0  api_lib.o(i.netconn_recv)
    i.netconn_recv_data                      0x08008cf0   Section        0  api_lib.o(i.netconn_recv_data)
    netconn_recv_data                        0x08008cf1   Thumb Code   240  api_lib.o(i.netconn_recv_data)
    i.netconn_recv_tcp_pbuf                  0x08008de4   Section        0  api_lib.o(i.netconn_recv_tcp_pbuf)
    i.netconn_send                           0x08008dfc   Section        0  api_lib.o(i.netconn_send)
    i.netconn_write_partly                   0x08008e20   Section        0  api_lib.o(i.netconn_write_partly)
    i.netif_add                              0x08008ea0   Section        0  netif.o(i.netif_add)
    i.netif_init                             0x08008ef8   Section        0  netif.o(i.netif_init)
    i.netif_issue_reports                    0x08008efa   Section        0  netif.o(i.netif_issue_reports)
    netif_issue_reports                      0x08008efb   Thumb Code    30  netif.o(i.netif_issue_reports)
    i.netif_set_addr                         0x08008f18   Section        0  netif.o(i.netif_set_addr)
    i.netif_set_default                      0x08008f64   Section        0  netif.o(i.netif_set_default)
    i.netif_set_down                         0x08008f70   Section        0  netif.o(i.netif_set_down)
    i.netif_set_gw                           0x08008f8e   Section        0  netif.o(i.netif_set_gw)
    i.netif_set_ipaddr                       0x08008f9c   Section        0  netif.o(i.netif_set_ipaddr)
    i.netif_set_link_callback                0x08008fe4   Section        0  netif.o(i.netif_set_link_callback)
    i.netif_set_link_down                    0x08008fec   Section        0  netif.o(i.netif_set_link_down)
    i.netif_set_link_up                      0x08009008   Section        0  netif.o(i.netif_set_link_up)
    i.netif_set_netmask                      0x08009046   Section        0  netif.o(i.netif_set_netmask)
    i.netif_set_up                           0x08009054   Section        0  netif.o(i.netif_set_up)
    i.osDelay                                0x08009074   Section        0  cmsis_os.o(i.osDelay)
    i.osKernelStart                          0x08009084   Section        0  cmsis_os.o(i.osKernelStart)
    i.osKernelSysTick                        0x0800908e   Section        0  cmsis_os.o(i.osKernelSysTick)
    i.osMessageCreate                        0x080090a6   Section        0  cmsis_os.o(i.osMessageCreate)
    i.osMessageDelete                        0x080090b0   Section        0  cmsis_os.o(i.osMessageDelete)
    i.osMessageGet                           0x080090c8   Section        0  cmsis_os.o(i.osMessageGet)
    i.osMessagePut                           0x08009174   Section        0  cmsis_os.o(i.osMessagePut)
    i.osMessageWaiting                       0x080091d8   Section        0  cmsis_os.o(i.osMessageWaiting)
    i.osMutexCreate                          0x080091f6   Section        0  cmsis_os.o(i.osMutexCreate)
    i.osMutexRelease                         0x080091fc   Section        0  cmsis_os.o(i.osMutexRelease)
    i.osMutexWait                            0x0800924c   Section        0  cmsis_os.o(i.osMutexWait)
    i.osSemaphoreCreate                      0x080092b8   Section        0  cmsis_os.o(i.osSemaphoreCreate)
    i.osSemaphoreDelete                      0x080092e8   Section        0  cmsis_os.o(i.osSemaphoreDelete)
    i.osSemaphoreRelease                     0x08009300   Section        0  cmsis_os.o(i.osSemaphoreRelease)
    i.osSemaphoreWait                        0x08009350   Section        0  cmsis_os.o(i.osSemaphoreWait)
    i.osSystickHandler                       0x080093bc   Section        0  cmsis_os.o(i.osSystickHandler)
    i.osThreadCreate                         0x080093d0   Section        0  cmsis_os.o(i.osThreadCreate)
    i.osThreadTerminate                      0x08009404   Section        0  cmsis_os.o(i.osThreadTerminate)
    i.pbuf_alloc                             0x0800940e   Section        0  pbuf.o(i.pbuf_alloc)
    i.pbuf_alloced_custom                    0x08009548   Section        0  pbuf.o(i.pbuf_alloced_custom)
    i.pbuf_cat                               0x080095b0   Section        0  pbuf.o(i.pbuf_cat)
    i.pbuf_chain                             0x080095d8   Section        0  pbuf.o(i.pbuf_chain)
    i.pbuf_clen                              0x080095ec   Section        0  pbuf.o(i.pbuf_clen)
    i.pbuf_copy                              0x08009600   Section        0  pbuf.o(i.pbuf_copy)
    i.pbuf_copy_partial                      0x080096a8   Section        0  pbuf.o(i.pbuf_copy_partial)
    i.pbuf_free                              0x08009718   Section        0  pbuf.o(i.pbuf_free)
    i.pbuf_header                            0x08009784   Section        0  pbuf.o(i.pbuf_header)
    i.pbuf_header_force                      0x0800978a   Section        0  pbuf.o(i.pbuf_header_force)
    i.pbuf_header_impl                       0x08009790   Section        0  pbuf.o(i.pbuf_header_impl)
    pbuf_header_impl                         0x08009791   Thumb Code   138  pbuf.o(i.pbuf_header_impl)
    i.pbuf_realloc                           0x0800981a   Section        0  pbuf.o(i.pbuf_realloc)
    i.pbuf_ref                               0x08009876   Section        0  pbuf.o(i.pbuf_ref)
    i.pcb_new                                0x08009894   Section        0  api_msg.o(i.pcb_new)
    pcb_new                                  0x08009895   Thumb Code    92  api_msg.o(i.pcb_new)
    i.plug_holes                             0x080098f4   Section        0  mem.o(i.plug_holes)
    plug_holes                               0x080098f5   Thumb Code    98  mem.o(i.plug_holes)
    i.poll_tcp                               0x0800995c   Section        0  api_msg.o(i.poll_tcp)
    poll_tcp                                 0x0800995d   Thumb Code   100  api_msg.o(i.poll_tcp)
    i.prvAddCurrentTaskToDelayedList         0x080099c0   Section        0  tasks.o(i.prvAddCurrentTaskToDelayedList)
    prvAddCurrentTaskToDelayedList           0x080099c1   Thumb Code   110  tasks.o(i.prvAddCurrentTaskToDelayedList)
    i.prvAddNewTaskToReadyList               0x08009a38   Section        0  tasks.o(i.prvAddNewTaskToReadyList)
    prvAddNewTaskToReadyList                 0x08009a39   Thumb Code   126  tasks.o(i.prvAddNewTaskToReadyList)
    i.prvCheckTasksWaitingTermination        0x08009ac4   Section        0  tasks.o(i.prvCheckTasksWaitingTermination)
    prvCheckTasksWaitingTermination          0x08009ac5   Thumb Code    78  tasks.o(i.prvCheckTasksWaitingTermination)
    i.prvCopyDataFromQueue                   0x08009b1c   Section        0  queue.o(i.prvCopyDataFromQueue)
    prvCopyDataFromQueue                     0x08009b1d   Thumb Code    36  queue.o(i.prvCopyDataFromQueue)
    i.prvCopyDataToQueue                     0x08009b40   Section        0  queue.o(i.prvCopyDataToQueue)
    prvCopyDataToQueue                       0x08009b41   Thumb Code   110  queue.o(i.prvCopyDataToQueue)
    i.prvDeleteTCB                           0x08009bae   Section        0  tasks.o(i.prvDeleteTCB)
    prvDeleteTCB                             0x08009baf   Thumb Code    20  tasks.o(i.prvDeleteTCB)
    i.prvHeapInit                            0x08009bc4   Section        0  heap_4.o(i.prvHeapInit)
    prvHeapInit                              0x08009bc5   Thumb Code    70  heap_4.o(i.prvHeapInit)
    i.prvIdleTask                            0x08009c14   Section        0  tasks.o(i.prvIdleTask)
    prvIdleTask                              0x08009c15   Thumb Code    30  tasks.o(i.prvIdleTask)
    i.prvInitialiseMutex                     0x08009c3c   Section        0  queue.o(i.prvInitialiseMutex)
    prvInitialiseMutex                       0x08009c3d   Thumb Code    24  queue.o(i.prvInitialiseMutex)
    i.prvInitialiseNewQueue                  0x08009c54   Section        0  queue.o(i.prvInitialiseNewQueue)
    prvInitialiseNewQueue                    0x08009c55   Thumb Code    34  queue.o(i.prvInitialiseNewQueue)
    i.prvInitialiseNewTask                   0x08009c76   Section        0  tasks.o(i.prvInitialiseNewTask)
    prvInitialiseNewTask                     0x08009c77   Thumb Code   144  tasks.o(i.prvInitialiseNewTask)
    i.prvInitialiseTaskLists                 0x08009d08   Section        0  tasks.o(i.prvInitialiseTaskLists)
    prvInitialiseTaskLists                   0x08009d09   Thumb Code    66  tasks.o(i.prvInitialiseTaskLists)
    i.prvInsertBlockIntoFreeList             0x08009d68   Section        0  heap_4.o(i.prvInsertBlockIntoFreeList)
    prvInsertBlockIntoFreeList               0x08009d69   Thumb Code    84  heap_4.o(i.prvInsertBlockIntoFreeList)
    i.prvIsQueueEmpty                        0x08009dc4   Section        0  queue.o(i.prvIsQueueEmpty)
    prvIsQueueEmpty                          0x08009dc5   Thumb Code    26  queue.o(i.prvIsQueueEmpty)
    i.prvIsQueueFull                         0x08009dde   Section        0  queue.o(i.prvIsQueueFull)
    prvIsQueueFull                           0x08009ddf   Thumb Code    30  queue.o(i.prvIsQueueFull)
    i.prvListTasksWithinSingleList           0x08009dfc   Section        0  tasks.o(i.prvListTasksWithinSingleList)
    prvListTasksWithinSingleList             0x08009dfd   Thumb Code    96  tasks.o(i.prvListTasksWithinSingleList)
    i.prvResetNextTaskUnblockTime            0x08009e5c   Section        0  tasks.o(i.prvResetNextTaskUnblockTime)
    prvResetNextTaskUnblockTime              0x08009e5d   Thumb Code    30  tasks.o(i.prvResetNextTaskUnblockTime)
    i.prvTaskCheckFreeStackSpace             0x08009e80   Section        0  tasks.o(i.prvTaskCheckFreeStackSpace)
    prvTaskCheckFreeStackSpace               0x08009e81   Thumb Code    24  tasks.o(i.prvTaskCheckFreeStackSpace)
    i.prvTaskExitError                       0x08009e98   Section        0  port.o(i.prvTaskExitError)
    prvTaskExitError                         0x08009e99   Thumb Code    42  port.o(i.prvTaskExitError)
    i.prvUnlockQueue                         0x08009ec8   Section        0  queue.o(i.prvUnlockQueue)
    prvUnlockQueue                           0x08009ec9   Thumb Code   104  queue.o(i.prvUnlockQueue)
    i.prvWriteNameToBuffer                   0x08009f30   Section        0  tasks.o(i.prvWriteNameToBuffer)
    prvWriteNameToBuffer                     0x08009f31   Thumb Code    38  tasks.o(i.prvWriteNameToBuffer)
    i.pvPortMalloc                           0x08009f58   Section        0  heap_4.o(i.pvPortMalloc)
    i.pvTaskIncrementMutexHeldCount          0x0800a03c   Section        0  tasks.o(i.pvTaskIncrementMutexHeldCount)
    i.pxPortInitialiseStack                  0x0800a054   Section        0  port.o(i.pxPortInitialiseStack)
    i.recv_tcp                               0x0800a080   Section        0  api_msg.o(i.recv_tcp)
    recv_tcp                                 0x0800a081   Thumb Code   124  api_msg.o(i.recv_tcp)
    i.recv_udp                               0x0800a0fc   Section        0  api_msg.o(i.recv_udp)
    recv_udp                                 0x0800a0fd   Thumb Code   122  api_msg.o(i.recv_udp)
    i.sent_tcp                               0x0800a176   Section        0  api_msg.o(i.sent_tcp)
    sent_tcp                                 0x0800a177   Thumb Code    88  api_msg.o(i.sent_tcp)
    i.setup_tcp                              0x0800a1d0   Section        0  api_msg.o(i.setup_tcp)
    setup_tcp                                0x0800a1d1   Thumb Code    50  api_msg.o(i.setup_tcp)
    i.sys_arch_mbox_fetch                    0x0800a214   Section        0  sys_arch.o(i.sys_arch_mbox_fetch)
    i.sys_arch_mbox_tryfetch                 0x0800a276   Section        0  sys_arch.o(i.sys_arch_mbox_tryfetch)
    i.sys_arch_protect                       0x0800a2ac   Section        0  sys_arch.o(i.sys_arch_protect)
    i.sys_arch_sem_wait                      0x0800a2c4   Section        0  sys_arch.o(i.sys_arch_sem_wait)
    i.sys_arch_unprotect                     0x0800a300   Section        0  sys_arch.o(i.sys_arch_unprotect)
    i.sys_check_timeouts                     0x0800a30c   Section        0  timeouts.o(i.sys_check_timeouts)
    sys_check_timeouts                       0x0800a30d   Thumb Code    84  timeouts.o(i.sys_check_timeouts)
    i.sys_init                               0x0800a368   Section        0  sys_arch.o(i.sys_init)
    i.sys_mbox_free                          0x0800a380   Section        0  sys_arch.o(i.sys_mbox_free)
    i.sys_mbox_new                           0x0800a394   Section        0  sys_arch.o(i.sys_mbox_new)
    i.sys_mbox_set_invalid                   0x0800a3c0   Section        0  sys_arch.o(i.sys_mbox_set_invalid)
    i.sys_mbox_trypost                       0x0800a3c6   Section        0  sys_arch.o(i.sys_mbox_trypost)
    i.sys_mbox_valid                         0x0800a3dc   Section        0  sys_arch.o(i.sys_mbox_valid)
    i.sys_mutex_lock                         0x0800a3ea   Section        0  sys_arch.o(i.sys_mutex_lock)
    i.sys_mutex_new                          0x0800a3f4   Section        0  sys_arch.o(i.sys_mutex_new)
    i.sys_mutex_unlock                       0x0800a410   Section        0  sys_arch.o(i.sys_mutex_unlock)
    i.sys_now                                0x0800a416   Section        0  ethernetif.o(i.sys_now)
    i.sys_sem_free                           0x0800a41a   Section        0  sys_arch.o(i.sys_sem_free)
    i.sys_sem_new                            0x0800a420   Section        0  sys_arch.o(i.sys_sem_new)
    i.sys_sem_set_invalid                    0x0800a44a   Section        0  sys_arch.o(i.sys_sem_set_invalid)
    i.sys_sem_signal                         0x0800a450   Section        0  sys_arch.o(i.sys_sem_signal)
    i.sys_sem_valid                          0x0800a456   Section        0  sys_arch.o(i.sys_sem_valid)
    i.sys_thread_new                         0x0800a464   Section        0  sys_arch.o(i.sys_thread_new)
    i.sys_timeout                            0x0800a48c   Section        0  timeouts.o(i.sys_timeout)
    i.sys_timeouts_init                      0x0800a534   Section        0  timeouts.o(i.sys_timeouts_init)
    i.sys_timeouts_mbox_fetch                0x0800a564   Section        0  timeouts.o(i.sys_timeouts_mbox_fetch)
    i.sys_timeouts_sleeptime                 0x0800a5a0   Section        0  timeouts.o(i.sys_timeouts_sleeptime)
    sys_timeouts_sleeptime                   0x0800a5a1   Thumb Code    40  timeouts.o(i.sys_timeouts_sleeptime)
    i.tcp_abandon                            0x0800a5cc   Section        0  tcp.o(i.tcp_abandon)
    i.tcp_abort                              0x0800a6a0   Section        0  tcp.o(i.tcp_abort)
    i.tcp_accept                             0x0800a6a6   Section        0  tcp.o(i.tcp_accept)
    i.tcp_accept_null                        0x0800a6b4   Section        0  tcp.o(i.tcp_accept_null)
    tcp_accept_null                          0x0800a6b5   Thumb Code    14  tcp.o(i.tcp_accept_null)
    i.tcp_alloc                              0x0800a6c4   Section        0  tcp.o(i.tcp_alloc)
    i.tcp_arg                                0x0800a774   Section        0  tcp.o(i.tcp_arg)
    i.tcp_bind                               0x0800a77c   Section        0  tcp.o(i.tcp_bind)
    i.tcp_close                              0x0800a818   Section        0  tcp.o(i.tcp_close)
    i.tcp_close_shutdown                     0x0800a82c   Section        0  tcp.o(i.tcp_close_shutdown)
    tcp_close_shutdown                       0x0800a82d   Thumb Code   362  tcp.o(i.tcp_close_shutdown)
    i.tcp_create_segment                     0x0800a9a8   Section        0  tcp_out.o(i.tcp_create_segment)
    tcp_create_segment                       0x0800a9a9   Thumb Code   154  tcp_out.o(i.tcp_create_segment)
    i.tcp_eff_send_mss_impl                  0x0800aa42   Section        0  tcp.o(i.tcp_eff_send_mss_impl)
    i.tcp_enqueue_flags                      0x0800aa68   Section        0  tcp_out.o(i.tcp_enqueue_flags)
    i.tcp_err                                0x0800ab26   Section        0  tcp.o(i.tcp_err)
    i.tcp_fasttmr                            0x0800ab30   Section        0  tcp.o(i.tcp_fasttmr)
    i.tcp_getoptbyte                         0x0800ab90   Section        0  tcp_in.o(i.tcp_getoptbyte)
    tcp_getoptbyte                           0x0800ab91   Thumb Code    54  tcp_in.o(i.tcp_getoptbyte)
    i.tcp_init                               0x0800abcc   Section        0  tcp.o(i.tcp_init)
    i.tcp_input                              0x0800abd0   Section        0  tcp_in.o(i.tcp_input)
    i.tcp_keepalive                          0x0800afa0   Section        0  tcp_out.o(i.tcp_keepalive)
    i.tcp_kill_prio                          0x0800aff8   Section        0  tcp.o(i.tcp_kill_prio)
    tcp_kill_prio                            0x0800aff9   Thumb Code    68  tcp.o(i.tcp_kill_prio)
    i.tcp_kill_state                         0x0800b040   Section        0  tcp.o(i.tcp_kill_state)
    tcp_kill_state                           0x0800b041   Thumb Code    58  tcp.o(i.tcp_kill_state)
    i.tcp_kill_timewait                      0x0800b080   Section        0  tcp.o(i.tcp_kill_timewait)
    tcp_kill_timewait                        0x0800b081   Thumb Code    46  tcp.o(i.tcp_kill_timewait)
    i.tcp_listen_closed                      0x0800b0b4   Section        0  tcp.o(i.tcp_listen_closed)
    tcp_listen_closed                        0x0800b0b5   Thumb Code    28  tcp.o(i.tcp_listen_closed)
    i.tcp_listen_input                       0x0800b0d4   Section        0  tcp_in.o(i.tcp_listen_input)
    tcp_listen_input                         0x0800b0d5   Thumb Code   234  tcp_in.o(i.tcp_listen_input)
    i.tcp_listen_with_backlog                0x0800b1d0   Section        0  tcp.o(i.tcp_listen_with_backlog)
    i.tcp_netif_ip_addr_changed              0x0800b260   Section        0  tcp.o(i.tcp_netif_ip_addr_changed)
    i.tcp_netif_ip_addr_changed_pcblist      0x0800b2b0   Section        0  tcp.o(i.tcp_netif_ip_addr_changed_pcblist)
    tcp_netif_ip_addr_changed_pcblist        0x0800b2b1   Thumb Code    36  tcp.o(i.tcp_netif_ip_addr_changed_pcblist)
    i.tcp_new                                0x0800b2d4   Section        0  tcp.o(i.tcp_new)
    i.tcp_new_port                           0x0800b2dc   Section        0  tcp.o(i.tcp_new_port)
    tcp_new_port                             0x0800b2dd   Thumb Code    88  tcp.o(i.tcp_new_port)
    i.tcp_next_iss                           0x0800b33c   Section        0  tcp.o(i.tcp_next_iss)
    i.tcp_output                             0x0800b34c   Section        0  tcp_out.o(i.tcp_output)
    i.tcp_output_alloc_header                0x0800b530   Section        0  tcp_out.o(i.tcp_output_alloc_header)
    tcp_output_alloc_header                  0x0800b531   Thumb Code   106  tcp_out.o(i.tcp_output_alloc_header)
    i.tcp_output_segment                     0x0800b59c   Section        0  tcp_out.o(i.tcp_output_segment)
    tcp_output_segment                       0x0800b59d   Thumb Code   176  tcp_out.o(i.tcp_output_segment)
    i.tcp_parseopt                           0x0800b650   Section        0  tcp_in.o(i.tcp_parseopt)
    tcp_parseopt                             0x0800b651   Thumb Code   114  tcp_in.o(i.tcp_parseopt)
    i.tcp_pbuf_prealloc                      0x0800b6c8   Section        0  tcp_out.o(i.tcp_pbuf_prealloc)
    tcp_pbuf_prealloc                        0x0800b6c9   Thumb Code    86  tcp_out.o(i.tcp_pbuf_prealloc)
    i.tcp_pcb_purge                          0x0800b71e   Section        0  tcp.o(i.tcp_pcb_purge)
    i.tcp_pcb_remove                         0x0800b758   Section        0  tcp.o(i.tcp_pcb_remove)
    i.tcp_poll                               0x0800b7ac   Section        0  tcp.o(i.tcp_poll)
    i.tcp_process                            0x0800b7b4   Section        0  tcp_in.o(i.tcp_process)
    tcp_process                              0x0800b7b5   Thumb Code  1172  tcp_in.o(i.tcp_process)
    i.tcp_process_refused_data               0x0800bc48   Section        0  tcp.o(i.tcp_process_refused_data)
    i.tcp_receive                            0x0800bcc4   Section        0  tcp_in.o(i.tcp_receive)
    tcp_receive                              0x0800bcc5   Thumb Code  1068  tcp_in.o(i.tcp_receive)
    i.tcp_recv                               0x0800c0f0   Section        0  tcp.o(i.tcp_recv)
    i.tcp_recv_null                          0x0800c0f8   Section        0  tcp.o(i.tcp_recv_null)
    i.tcp_recved                             0x0800c11e   Section        0  tcp.o(i.tcp_recved)
    i.tcp_remove_listener                    0x0800c166   Section        0  tcp.o(i.tcp_remove_listener)
    tcp_remove_listener                      0x0800c167   Thumb Code    22  tcp.o(i.tcp_remove_listener)
    i.tcp_rexmit                             0x0800c17c   Section        0  tcp_out.o(i.tcp_rexmit)
    i.tcp_rexmit_fast                        0x0800c1ce   Section        0  tcp_out.o(i.tcp_rexmit_fast)
    i.tcp_rexmit_rto                         0x0800c234   Section        0  tcp_out.o(i.tcp_rexmit_rto)
    i.tcp_rst                                0x0800c262   Section        0  tcp_out.o(i.tcp_rst)
    i.tcp_seg_free                           0x0800c2ea   Section        0  tcp.o(i.tcp_seg_free)
    i.tcp_segs_free                          0x0800c308   Section        0  tcp.o(i.tcp_segs_free)
    i.tcp_send_empty_ack                     0x0800c31c   Section        0  tcp_out.o(i.tcp_send_empty_ack)
    i.tcp_send_fin                           0x0800c390   Section        0  tcp_out.o(i.tcp_send_fin)
    i.tcp_sent                               0x0800c3da   Section        0  tcp.o(i.tcp_sent)
    i.tcp_shutdown                           0x0800c3e2   Section        0  tcp.o(i.tcp_shutdown)
    i.tcp_slowtmr                            0x0800c440   Section        0  tcp.o(i.tcp_slowtmr)
    i.tcp_timer_needed                       0x0800c6cc   Section        0  timeouts.o(i.tcp_timer_needed)
    i.tcp_timewait_input                     0x0800c700   Section        0  tcp_in.o(i.tcp_timewait_input)
    tcp_timewait_input                       0x0800c701   Thumb Code   120  tcp_in.o(i.tcp_timewait_input)
    i.tcp_tmr                                0x0800c784   Section        0  tcp.o(i.tcp_tmr)
    i.tcp_trigger_input_pcb_close            0x0800c7a8   Section        0  tcp_in.o(i.tcp_trigger_input_pcb_close)
    i.tcp_update_rcv_ann_wnd                 0x0800c7b8   Section        0  tcp.o(i.tcp_update_rcv_ann_wnd)
    i.tcp_write                              0x0800c7f6   Section        0  tcp_out.o(i.tcp_write)
    i.tcp_write_checks                       0x0800caca   Section        0  tcp_out.o(i.tcp_write_checks)
    tcp_write_checks                         0x0800cacb   Thumb Code    78  tcp_out.o(i.tcp_write_checks)
    i.tcp_zero_window_probe                  0x0800cb18   Section        0  tcp_out.o(i.tcp_zero_window_probe)
    i.tcpecho_init                           0x0800cbe4   Section        0  tcp_echoserver.o(i.tcpecho_init)
    i.tcpecho_thread                         0x0800cc0c   Section        0  tcp_echoserver.o(i.tcpecho_thread)
    tcpecho_thread                           0x0800cc0d   Thumb Code   290  tcp_echoserver.o(i.tcpecho_thread)
    i.tcpip_init                             0x0800cd9c   Section        0  tcpip.o(i.tcpip_init)
    i.tcpip_send_msg_wait_sem                0x0800cde0   Section        0  tcpip.o(i.tcpip_send_msg_wait_sem)
    i.tcpip_tcp_timer                        0x0800ce00   Section        0  timeouts.o(i.tcpip_tcp_timer)
    tcpip_tcp_timer                          0x0800ce01   Thumb Code    40  timeouts.o(i.tcpip_tcp_timer)
    i.tcpip_thread                           0x0800ce38   Section        0  tcpip.o(i.tcpip_thread)
    tcpip_thread                             0x0800ce39   Thumb Code   102  tcpip.o(i.tcpip_thread)
    i.tryget_socket                          0x0800ceac   Section        0  sockets.o(i.tryget_socket)
    tryget_socket                            0x0800cead   Thumb Code    30  sockets.o(i.tryget_socket)
    i.udp_bind                               0x0800ced0   Section        0  udp.o(i.udp_bind)
    i.udp_connect                            0x0800cf5c   Section        0  udp.o(i.udp_connect)
    i.udp_init                               0x0800cfb4   Section        0  udp.o(i.udp_init)
    i.udp_input                              0x0800cfb8   Section        0  udp.o(i.udp_input)
    i.udp_input_local_match                  0x0800d0fc   Section        0  udp.o(i.udp_input_local_match)
    udp_input_local_match                    0x0800d0fd   Thumb Code    52  udp.o(i.udp_input_local_match)
    i.udp_netif_ip_addr_changed              0x0800d134   Section        0  udp.o(i.udp_netif_ip_addr_changed)
    i.udp_new                                0x0800d16c   Section        0  udp.o(i.udp_new)
    i.udp_new_port                           0x0800d190   Section        0  udp.o(i.udp_new_port)
    udp_new_port                             0x0800d191   Thumb Code    70  udp.o(i.udp_new_port)
    i.udp_recv                               0x0800d1dc   Section        0  udp.o(i.udp_recv)
    i.udp_remove                             0x0800d1e4   Section        0  udp.o(i.udp_remove)
    i.udp_send                               0x0800d214   Section        0  udp.o(i.udp_send)
    i.udp_sendto                             0x0800d226   Section        0  udp.o(i.udp_sendto)
    i.udp_sendto_if                          0x0800d25a   Section        0  udp.o(i.udp_sendto_if)
    i.udp_sendto_if_src                      0x0800d2a2   Section        0  udp.o(i.udp_sendto_if_src)
    i.uxListRemove                           0x0800d35c   Section        0  list.o(i.uxListRemove)
    i.uxQueueMessagesWaiting                 0x0800d380   Section        0  queue.o(i.uxQueueMessagesWaiting)
    i.uxQueueMessagesWaitingFromISR          0x0800d3a6   Section        0  queue.o(i.uxQueueMessagesWaitingFromISR)
    i.uxTaskGetSystemState                   0x0800d3c0   Section        0  tasks.o(i.uxTaskGetSystemState)
    i.vListInitialise                        0x0800d474   Section        0  list.o(i.vListInitialise)
    i.vListInitialiseItem                    0x0800d48a   Section        0  list.o(i.vListInitialiseItem)
    i.vListInsert                            0x0800d490   Section        0  list.o(i.vListInsert)
    i.vListInsertEnd                         0x0800d4c6   Section        0  list.o(i.vListInsertEnd)
    i.vPortEnterCritical                     0x0800d4e0   Section        0  port.o(i.vPortEnterCritical)
    i.vPortExitCritical                      0x0800d520   Section        0  port.o(i.vPortExitCritical)
    i.vPortFree                              0x0800d54c   Section        0  heap_4.o(i.vPortFree)
    i.vPortSetupTimerInterrupt               0x0800d5a8   Section        0  port.o(i.vPortSetupTimerInterrupt)
    i.vPortValidateInterruptPriority         0x0800d5c8   Section        0  port.o(i.vPortValidateInterruptPriority)
    i.vQueueDelete                           0x0800d61c   Section        0  queue.o(i.vQueueDelete)
    i.vQueueUnregisterQueue                  0x0800d644   Section        0  queue.o(i.vQueueUnregisterQueue)
    i.vTaskDelay                             0x0800d66c   Section        0  tasks.o(i.vTaskDelay)
    i.vTaskDelete                            0x0800d6bc   Section        0  tasks.o(i.vTaskDelete)
    i.vTaskGetInfo                           0x0800d76c   Section        0  tasks.o(i.vTaskGetInfo)
    i.vTaskGetRunTimeStats                   0x0800d7e8   Section        0  tasks.o(i.vTaskGetRunTimeStats)
    i.vTaskLED2                              0x0800d8b8   Section        0  main.o(i.vTaskLED2)
    vTaskLED2                                0x0800d8b9   Thumb Code    12  main.o(i.vTaskLED2)
    i.vTaskList                              0x0800d8c8   Section        0  tasks.o(i.vTaskList)
    i.vTaskMissedYield                       0x0800d98c   Section        0  tasks.o(i.vTaskMissedYield)
    i.vTaskPlaceOnEventList                  0x0800d998   Section        0  tasks.o(i.vTaskPlaceOnEventList)
    i.vTaskPriorityInherit                   0x0800d9cc   Section        0  tasks.o(i.vTaskPriorityInherit)
    i.vTaskSetTimeOutState                   0x0800da58   Section        0  tasks.o(i.vTaskSetTimeOutState)
    i.vTaskStartScheduler                    0x0800da7c   Section        0  tasks.o(i.vTaskStartScheduler)
    i.vTaskSuspendAll                        0x0800daf4   Section        0  tasks.o(i.vTaskSuspendAll)
    i.vTaskSwitchContext                     0x0800db04   Section        0  tasks.o(i.vTaskSwitchContext)
    i.vTaskTaskUserIF                        0x0800db80   Section        0  main.o(i.vTaskTaskUserIF)
    vTaskTaskUserIF                          0x0800db81   Thumb Code    58  main.o(i.vTaskTaskUserIF)
    i.xPortStartScheduler                    0x0800dc3c   Section        0  port.o(i.xPortStartScheduler)
    i.xPortSysTickHandler                    0x0800dd30   Section        0  port.o(i.xPortSysTickHandler)
    i.xQueueCreateCountingSemaphore          0x0800dd5c   Section        0  queue.o(i.xQueueCreateCountingSemaphore)
    i.xQueueCreateMutex                      0x0800dd98   Section        0  queue.o(i.xQueueCreateMutex)
    i.xQueueGenericCreate                    0x0800ddb0   Section        0  queue.o(i.xQueueGenericCreate)
    i.xQueueGenericReceive                   0x0800ddf4   Section        0  queue.o(i.xQueueGenericReceive)
    i.xQueueGenericReset                     0x0800df88   Section        0  queue.o(i.xQueueGenericReset)
    i.xQueueGenericSend                      0x0800e018   Section        0  queue.o(i.xQueueGenericSend)
    i.xQueueGenericSendFromISR               0x0800e188   Section        0  queue.o(i.xQueueGenericSendFromISR)
    i.xQueueGiveFromISR                      0x0800e244   Section        0  queue.o(i.xQueueGiveFromISR)
    i.xQueueReceiveFromISR                   0x0800e2e4   Section        0  queue.o(i.xQueueReceiveFromISR)
    i.xTaskCheckForTimeOut                   0x0800e380   Section        0  tasks.o(i.xTaskCheckForTimeOut)
    i.xTaskCreate                            0x0800e3f8   Section        0  tasks.o(i.xTaskCreate)
    i.xTaskGetSchedulerState                 0x0800e460   Section        0  tasks.o(i.xTaskGetSchedulerState)
    i.xTaskGetTickCount                      0x0800e47c   Section        0  tasks.o(i.xTaskGetTickCount)
    i.xTaskGetTickCountFromISR               0x0800e488   Section        0  tasks.o(i.xTaskGetTickCountFromISR)
    i.xTaskIncrementTick                     0x0800e498   Section        0  tasks.o(i.xTaskIncrementTick)
    i.xTaskPriorityDisinherit                0x0800e568   Section        0  tasks.o(i.xTaskPriorityDisinherit)
    i.xTaskRemoveFromEventList               0x0800e604   Section        0  tasks.o(i.xTaskRemoveFromEventList)
    i.xTaskResumeAll                         0x0800e67c   Section        0  tasks.o(i.xTaskResumeAll)
    .constdata                               0x0800e748   Section       60  main.o(.constdata)
    .constdata                               0x0800e784   Section       20  ethernetif.o(.constdata)
    .constdata                               0x0800e798   Section       16  system_stm32f4xx.o(.constdata)
    .constdata                               0x0800e7a8   Section        8  system_stm32f4xx.o(.constdata)
    .constdata                               0x0800e7b0   Section        4  ip4_addr.o(.constdata)
    .constdata                               0x0800e7b4   Section        4  ip4_addr.o(.constdata)
    .constdata                               0x0800e7b8   Section       68  err.o(.constdata)
    err_to_errno_table                       0x0800e7b8   Data          68  err.o(.constdata)
    .constdata                               0x0800e7fc   Section        6  ethernet.o(.constdata)
    .constdata                               0x0800e802   Section        6  ethernet.o(.constdata)
    .constdata                               0x0800e808   Section       12  sys_arch.o(.constdata)
    .constdata                               0x0800e814   Section       12  memp.o(.constdata)
    .constdata                               0x0800e820   Section       12  memp.o(.constdata)
    .constdata                               0x0800e82c   Section       12  memp.o(.constdata)
    .constdata                               0x0800e838   Section       12  memp.o(.constdata)
    .constdata                               0x0800e844   Section       12  memp.o(.constdata)
    .constdata                               0x0800e850   Section       12  memp.o(.constdata)
    .constdata                               0x0800e85c   Section       12  memp.o(.constdata)
    .constdata                               0x0800e868   Section       12  memp.o(.constdata)
    .constdata                               0x0800e874   Section       12  memp.o(.constdata)
    .constdata                               0x0800e880   Section       12  memp.o(.constdata)
    .constdata                               0x0800e88c   Section       12  memp.o(.constdata)
    .constdata                               0x0800e898   Section       12  memp.o(.constdata)
    .constdata                               0x0800e8a4   Section       12  memp.o(.constdata)
    .constdata                               0x0800e8b0   Section       52  memp.o(.constdata)
    .constdata                               0x0800e8e4   Section       84  tcp.o(.constdata)
    tcp_persist_backoff                      0x0800e8e4   Data           7  tcp.o(.constdata)
    tcp_state_str                            0x0800e8ec   Data          44  tcp.o(.constdata)
    tcp_backoff                              0x0800e918   Data          13  tcp.o(.constdata)
    .constdata                               0x0800e938   Section       40  timeouts.o(.constdata)
    .conststring                             0x0800e960   Section      102  main.o(.conststring)
    .conststring                             0x0800e9c8   Section        6  ethernetif.o(.conststring)
    .conststring                             0x0800e9d0   Section       76  bsp_can.o(.conststring)
    .conststring                             0x0800ea1c   Section      117  tcp.o(.conststring)
    .data                                    0x20000000   Section        4  main.o(.data)
    xHandleTaskUserIF                        0x20000000   Data           4  main.o(.data)
    .data                                    0x20000004   Section        8  app_ethernet.o(.data)
    .data                                    0x2000000c   Section        4  ethernetif.o(.data)
    .data                                    0x20000010   Section        4  stm32f4xx_hal.o(.data)
    .data                                    0x20000014   Section        4  system_stm32f4xx.o(.data)
    .data                                    0x20000018   Section       24  bsp_can.o(.data)
    .data                                    0x20000030   Section       10  bsp_usartx_us100.o(.data)
    .data                                    0x2000003c   Section        4  bsp_basictim.o(.data)
    .data                                    0x20000040   Section       68  tasks.o(.data)
    uxDeletedTasksWaitingCleanUp             0x20000044   Data           4  tasks.o(.data)
    uxCurrentNumberOfTasks                   0x20000048   Data           4  tasks.o(.data)
    xTickCount                               0x2000004c   Data           4  tasks.o(.data)
    uxTopReadyPriority                       0x20000050   Data           4  tasks.o(.data)
    xSchedulerRunning                        0x20000054   Data           4  tasks.o(.data)
    uxPendedTicks                            0x20000058   Data           4  tasks.o(.data)
    xYieldPending                            0x2000005c   Data           4  tasks.o(.data)
    xNumOfOverflows                          0x20000060   Data           4  tasks.o(.data)
    uxTaskNumber                             0x20000064   Data           4  tasks.o(.data)
    xNextTaskUnblockTime                     0x20000068   Data           4  tasks.o(.data)
    xIdleTaskHandle                          0x2000006c   Data           4  tasks.o(.data)
    uxSchedulerSuspended                     0x20000070   Data           4  tasks.o(.data)
    ulTaskSwitchedInTime                     0x20000074   Data           4  tasks.o(.data)
    ulTotalRunTime                           0x20000078   Data           4  tasks.o(.data)
    pxDelayedTaskList                        0x2000007c   Data           4  tasks.o(.data)
    pxOverflowDelayedTaskList                0x20000080   Data           4  tasks.o(.data)
    .data                                    0x20000084   Section       24  heap_4.o(.data)
    pxEnd                                    0x20000084   Data           4  heap_4.o(.data)
    xFreeBytesRemaining                      0x20000088   Data           4  heap_4.o(.data)
    xMinimumEverFreeBytesRemaining           0x2000008c   Data           4  heap_4.o(.data)
    xBlockAllocatedBit                       0x20000090   Data           4  heap_4.o(.data)
    xStart                                   0x20000094   Data           8  heap_4.o(.data)
    .data                                    0x2000009c   Section       12  port.o(.data)
    ucMaxSysCallPriority                     0x2000009c   Data           1  port.o(.data)
    uxCriticalNesting                        0x200000a0   Data           4  port.o(.data)
    ulMaxPRIGROUPValue                       0x200000a4   Data           4  port.o(.data)
    .data                                    0x200000a8   Section       16  dhcp.o(.data)
    dhcp_pcb_refcount                        0x200000a8   Data           1  dhcp.o(.data)
    dhcp_discover_request_options            0x200000a9   Data           4  dhcp.o(.data)
    xid                                      0x200000b0   Data           4  dhcp.o(.data)
    dhcp_pcb                                 0x200000b4   Data           4  dhcp.o(.data)
    .data                                    0x200000b8   Section        1  etharp.o(.data)
    etharp_cached_entry                      0x200000b8   Data           1  etharp.o(.data)
    .data                                    0x200000ba   Section        2  ip4.o(.data)
    ip_id                                    0x200000ba   Data           2  ip4.o(.data)
    .data                                    0x200000bc   Section        8  ip4_frag.o(.data)
    ip_reass_pbufcount                       0x200000bc   Data           2  ip4_frag.o(.data)
    reassdatagrams                           0x200000c0   Data           4  ip4_frag.o(.data)
    .data                                    0x200000c4   Section        1  api_msg.o(.data)
    .data                                    0x200000c8   Section        8  sockets.o(.data)
    select_cb_list                           0x200000c8   Data           4  sockets.o(.data)
    select_cb_ctr                            0x200000cc   Data           4  sockets.o(.data)
    .data                                    0x200000d0   Section       16  tcpip.o(.data)
    tcpip_init_done                          0x200000d0   Data           4  tcpip.o(.data)
    tcpip_init_done_arg                      0x200000d4   Data           4  tcpip.o(.data)
    mbox                                     0x200000d8   Data           4  tcpip.o(.data)
    .data                                    0x200000e0   Section        4  sys_arch.o(.data)
    .data                                    0x200000e4   Section        4  sys_arch.o(.data)
    .data                                    0x200000e8   Section       16  mem.o(.data)
    ram                                      0x200000e8   Data           4  mem.o(.data)
    ram_end                                  0x200000ec   Data           4  mem.o(.data)
    lfree                                    0x200000f0   Data           4  mem.o(.data)
    mem_mutex                                0x200000f4   Data           4  mem.o(.data)
    .data                                    0x200000f8   Section        4  memp.o(.data)
    memp_tab_UDP_PCB                         0x200000f8   Data           4  memp.o(.data)
    .data                                    0x200000fc   Section        4  memp.o(.data)
    memp_tab_TCP_PCB                         0x200000fc   Data           4  memp.o(.data)
    .data                                    0x20000100   Section        4  memp.o(.data)
    memp_tab_TCP_PCB_LISTEN                  0x20000100   Data           4  memp.o(.data)
    .data                                    0x20000104   Section        4  memp.o(.data)
    memp_tab_TCP_SEG                         0x20000104   Data           4  memp.o(.data)
    .data                                    0x20000108   Section        4  memp.o(.data)
    memp_tab_REASSDATA                       0x20000108   Data           4  memp.o(.data)
    .data                                    0x2000010c   Section        4  memp.o(.data)
    memp_tab_FRAG_PBUF                       0x2000010c   Data           4  memp.o(.data)
    .data                                    0x20000110   Section        4  memp.o(.data)
    memp_tab_NETBUF                          0x20000110   Data           4  memp.o(.data)
    .data                                    0x20000114   Section        4  memp.o(.data)
    memp_tab_NETCONN                         0x20000114   Data           4  memp.o(.data)
    .data                                    0x20000118   Section        4  memp.o(.data)
    memp_tab_TCPIP_MSG_API                   0x20000118   Data           4  memp.o(.data)
    .data                                    0x2000011c   Section        4  memp.o(.data)
    memp_tab_TCPIP_MSG_INPKT                 0x2000011c   Data           4  memp.o(.data)
    .data                                    0x20000120   Section        4  memp.o(.data)
    memp_tab_SYS_TIMEOUT                     0x20000120   Data           4  memp.o(.data)
    .data                                    0x20000124   Section        4  memp.o(.data)
    memp_tab_PBUF                            0x20000124   Data           4  memp.o(.data)
    .data                                    0x20000128   Section        4  memp.o(.data)
    memp_tab_PBUF_POOL                       0x20000128   Data           4  memp.o(.data)
    .data                                    0x2000012c   Section       12  netif.o(.data)
    netif_num                                0x2000012c   Data           1  netif.o(.data)
    .data                                    0x20000138   Section       32  tcp.o(.data)
    tcp_timer                                0x20000139   Data           1  tcp.o(.data)
    tcp_timer_ctr                            0x2000013a   Data           1  tcp.o(.data)
    tcp_port                                 0x2000013c   Data           2  tcp.o(.data)
    iss                                      0x20000140   Data           4  tcp.o(.data)
    .data                                    0x20000158   Section       36  tcp_in.o(.data)
    flags                                    0x20000158   Data           1  tcp_in.o(.data)
    recv_flags                               0x20000159   Data           1  tcp_in.o(.data)
    tcphdr_optlen                            0x2000015a   Data           2  tcp_in.o(.data)
    tcphdr_opt1len                           0x2000015c   Data           2  tcp_in.o(.data)
    tcp_optidx                               0x2000015e   Data           2  tcp_in.o(.data)
    recv_acked                               0x20000160   Data           2  tcp_in.o(.data)
    tcplen                                   0x20000162   Data           2  tcp_in.o(.data)
    tcphdr                                   0x20000164   Data           4  tcp_in.o(.data)
    tcphdr_opt2                              0x20000168   Data           4  tcp_in.o(.data)
    seqno                                    0x2000016c   Data           4  tcp_in.o(.data)
    ackno                                    0x20000170   Data           4  tcp_in.o(.data)
    recv_data                                0x20000174   Data           4  tcp_in.o(.data)
    .data                                    0x2000017c   Section       12  timeouts.o(.data)
    next_timeout                             0x2000017c   Data           4  timeouts.o(.data)
    timeouts_last_time                       0x20000180   Data           4  timeouts.o(.data)
    tcpip_tcp_timer_active                   0x20000184   Data           4  timeouts.o(.data)
    .data                                    0x20000188   Section        8  udp.o(.data)
    udp_port                                 0x20000188   Data           2  udp.o(.data)
    .data                                    0x20000190   Section        4  rand.o(.data)
    _rand_state                              0x20000190   Data           4  rand.o(.data)
    .data                                    0x20000194   Section        4  stdout.o(.data)
    .data                                    0x20000198   Section        4  mvars.o(.data)
    .bss                                     0x2000019c   Section       56  main.o(.bss)
    .bss                                     0x200001d4   Section    12520  ethernetif.o(.bss)
    .bss                                     0x200032bc   Section       88  public_data.o(.bss)
    .bss                                     0x20003314   Section       64  bsp_debug_usart.o(.bss)
    .bss                                     0x20003354   Section      132  bsp_can.o(.bss)
    TxMessage                                0x20003398   Data          28  bsp_can.o(.bss)
    RxMessage                                0x200033b4   Data          36  bsp_can.o(.bss)
    .bss                                     0x200033d8   Section      128  bsp_usartx_us100.o(.bss)
    .bss                                     0x20003458   Section       60  bsp_basictim.o(.bss)
    .bss                                     0x20003494   Section       64  queue.o(.bss)
    .bss                                     0x200034d4   Section      240  tasks.o(.bss)
    pxReadyTasksLists                        0x200034d4   Data         140  tasks.o(.bss)
    xDelayedTaskList1                        0x20003560   Data          20  tasks.o(.bss)
    xDelayedTaskList2                        0x20003574   Data          20  tasks.o(.bss)
    xPendingReadyList                        0x20003588   Data          20  tasks.o(.bss)
    xTasksWaitingTermination                 0x2000359c   Data          20  tasks.o(.bss)
    xSuspendedTaskList                       0x200035b0   Data          20  tasks.o(.bss)
    .bss                                     0x200035c4   Section    17408  heap_4.o(.bss)
    ucHeap                                   0x200035c4   Data       17408  heap_4.o(.bss)
    .bss                                     0x200079c4   Section       50  dhcp.o(.bss)
    .bss                                     0x200079f8   Section      240  etharp.o(.bss)
    arp_table                                0x200079f8   Data         240  etharp.o(.bss)
    .bss                                     0x20007ae8   Section       16  ip4_addr.o(.bss)
    str                                      0x20007ae8   Data          16  ip4_addr.o(.bss)
    .bss                                     0x20007af8   Section       80  sockets.o(.bss)
    sockets                                  0x20007af8   Data          80  sockets.o(.bss)
    .bss                                     0x20007b48   Section       24  ip.o(.bss)
    .bss                                     0x20007b60   Section    10259  mem.o(.bss)
    .bss                                     0x2000a373   Section      195  memp.o(.bss)
    .bss                                     0x2000a436   Section     1483  memp.o(.bss)
    .bss                                     0x2000aa01   Section      143  memp.o(.bss)
    .bss                                     0x2000aa90   Section      131  memp.o(.bss)
    .bss                                     0x2000ab13   Section      163  memp.o(.bss)
    .bss                                     0x2000abb6   Section      363  memp.o(.bss)
    .bss                                     0x2000ad21   Section       35  memp.o(.bss)
    .bss                                     0x2000ad44   Section      179  memp.o(.bss)
    .bss                                     0x2000adf7   Section      131  memp.o(.bss)
    .bss                                     0x2000ae7a   Section      131  memp.o(.bss)
    .bss                                     0x2000aefd   Section      163  memp.o(.bss)
    .bss                                     0x2000afa0   Section      163  memp.o(.bss)
    .bss                                     0x2000b043   Section     4131  memp.o(.bss)
    .bss                                     0x2000c068   Section       16  tcp_in.o(.bss)
    inseg                                    0x2000c068   Data          16  tcp_in.o(.bss)
    STACK                                    0x2000c078   Section     4096  startup_stm32f407xx.o(STACK)

    Global Symbols

    Symbol Name                              Value     Ov Type        Size  Object(Section)

    BuildAttributes$$THM_ISAv4$E$P$D$K$B$S$7EM$VFPi3$EXTD16$VFPS$VFMA$PE$A:L22UL41UL21$X:L11$S22US41US21$IEEE1$IW$USESV6$~STKCKD$USESV7$~SHL$OTIME$ROPI$EBA8$MICROLIB$REQ8$PRES8$EABIv2 0x00000000   Number         0  anon$$obj.o ABSOLUTE
    __ARM_use_no_argv                        0x00000000   Number         0  main.o ABSOLUTE
    _printf_a                                0x00000000   Number         0  stubs.o ABSOLUTE
    _printf_c                                0x00000000   Number         0  stubs.o ABSOLUTE
    _printf_charcount                        0x00000000   Number         0  stubs.o ABSOLUTE
    _printf_d                                0x00000000   Number         0  stubs.o ABSOLUTE
    _printf_e                                0x00000000   Number         0  stubs.o ABSOLUTE
    _printf_f                                0x00000000   Number         0  stubs.o ABSOLUTE
    _printf_flags                            0x00000000   Number         0  stubs.o ABSOLUTE
    _printf_fp_dec                           0x00000000   Number         0  stubs.o ABSOLUTE
    _printf_fp_hex                           0x00000000   Number         0  stubs.o ABSOLUTE
    _printf_g                                0x00000000   Number         0  stubs.o ABSOLUTE
    _printf_i                                0x00000000   Number         0  stubs.o ABSOLUTE
    _printf_int_dec                          0x00000000   Number         0  stubs.o ABSOLUTE
    _printf_l                                0x00000000   Number         0  stubs.o ABSOLUTE
    _printf_lc                               0x00000000   Number         0  stubs.o ABSOLUTE
    _printf_ll                               0x00000000   Number         0  stubs.o ABSOLUTE
    _printf_lld                              0x00000000   Number         0  stubs.o ABSOLUTE
    _printf_lli                              0x00000000   Number         0  stubs.o ABSOLUTE
    _printf_llo                              0x00000000   Number         0  stubs.o ABSOLUTE
    _printf_llu                              0x00000000   Number         0  stubs.o ABSOLUTE
    _printf_llx                              0x00000000   Number         0  stubs.o ABSOLUTE
    _printf_longlong_dec                     0x00000000   Number         0  stubs.o ABSOLUTE
    _printf_longlong_hex                     0x00000000   Number         0  stubs.o ABSOLUTE
    _printf_longlong_oct                     0x00000000   Number         0  stubs.o ABSOLUTE
    _printf_ls                               0x00000000   Number         0  stubs.o ABSOLUTE
    _printf_mbtowc                           0x00000000   Number         0  stubs.o ABSOLUTE
    _printf_n                                0x00000000   Number         0  stubs.o ABSOLUTE
    _printf_o                                0x00000000   Number         0  stubs.o ABSOLUTE
    _printf_p                                0x00000000   Number         0  stubs.o ABSOLUTE
    _printf_percent                          0x00000000   Number         0  stubs.o ABSOLUTE
    _printf_pre_padding                      0x00000000   Number         0  stubs.o ABSOLUTE
    _printf_return_value                     0x00000000   Number         0  stubs.o ABSOLUTE
    _printf_s                                0x00000000   Number         0  stubs.o ABSOLUTE
    _printf_sizespec                         0x00000000   Number         0  stubs.o ABSOLUTE
    _printf_str                              0x00000000   Number         0  stubs.o ABSOLUTE
    _printf_truncate_signed                  0x00000000   Number         0  stubs.o ABSOLUTE
    _printf_truncate_unsigned                0x00000000   Number         0  stubs.o ABSOLUTE
    _printf_u                                0x00000000   Number         0  stubs.o ABSOLUTE
    _printf_wc                               0x00000000   Number         0  stubs.o ABSOLUTE
    _printf_wctomb                           0x00000000   Number         0  stubs.o ABSOLUTE
    _printf_widthprec                        0x00000000   Number         0  stubs.o ABSOLUTE
    _printf_x                                0x00000000   Number         0  stubs.o ABSOLUTE
    __cpp_initialize__aeabi_                  - Undefined Weak Reference
    __cxa_finalize                            - Undefined Weak Reference
    _clock_init                               - Undefined Weak Reference
    _microlib_exit                            - Undefined Weak Reference
    __Vectors_Size                           0x00000188   Number         0  startup_stm32f407xx.o ABSOLUTE
    __Vectors                                0x08000000   Data           4  startup_stm32f407xx.o(RESET)
    __Vectors_End                            0x08000188   Data           0  startup_stm32f407xx.o(RESET)
    __main                                   0x08000189   Thumb Code     0  entry.o(.ARM.Collect$$$$00000000)
    _main_stk                                0x08000189   Thumb Code     0  entry2.o(.ARM.Collect$$$$00000001)
    _main_scatterload                        0x0800018d   Thumb Code     0  entry5.o(.ARM.Collect$$$$00000004)
    __main_after_scatterload                 0x08000191   Thumb Code     0  entry5.o(.ARM.Collect$$$$00000004)
    _main_clock                              0x08000191   Thumb Code     0  entry7b.o(.ARM.Collect$$$$00000008)
    _main_cpp_init                           0x08000191   Thumb Code     0  entry8b.o(.ARM.Collect$$$$0000000A)
    _main_init                               0x08000191   Thumb Code     0  entry9a.o(.ARM.Collect$$$$0000000B)
    __rt_final_cpp                           0x08000199   Thumb Code     0  entry10a.o(.ARM.Collect$$$$0000000D)
    __rt_final_exit                          0x08000199   Thumb Code     0  entry11a.o(.ARM.Collect$$$$0000000F)
    SVC_Handler                              0x0800019d   Thumb Code    28  port.o(.emb_text)
    __asm___6_port_c_39a90d8d__prvStartFirstTask 0x080001bd   Thumb Code    28  port.o(.emb_text)
    __asm___6_port_c_39a90d8d__prvEnableVFP  0x080001dd   Thumb Code    16  port.o(.emb_text)
    PendSV_Handler                           0x080001f1   Thumb Code    92  port.o(.emb_text)
    vPortGetIPSR                             0x08000251   Thumb Code     6  port.o(.emb_text)
    Reset_Handler                            0x08000259   Thumb Code     8  startup_stm32f407xx.o(.text)
    ADC_IRQHandler                           0x08000273   Thumb Code     0  startup_stm32f407xx.o(.text)
    CAN1_RX1_IRQHandler                      0x08000273   Thumb Code     0  startup_stm32f407xx.o(.text)
    CAN1_SCE_IRQHandler                      0x08000273   Thumb Code     0  startup_stm32f407xx.o(.text)
    CAN1_TX_IRQHandler                       0x08000273   Thumb Code     0  startup_stm32f407xx.o(.text)
    CAN2_RX0_IRQHandler                      0x08000273   Thumb Code     0  startup_stm32f407xx.o(.text)
    CAN2_RX1_IRQHandler                      0x08000273   Thumb Code     0  startup_stm32f407xx.o(.text)
    CAN2_SCE_IRQHandler                      0x08000273   Thumb Code     0  startup_stm32f407xx.o(.text)
    CAN2_TX_IRQHandler                       0x08000273   Thumb Code     0  startup_stm32f407xx.o(.text)
    DCMI_IRQHandler                          0x08000273   Thumb Code     0  startup_stm32f407xx.o(.text)
    DMA1_Stream0_IRQHandler                  0x08000273   Thumb Code     0  startup_stm32f407xx.o(.text)
    DMA1_Stream1_IRQHandler                  0x08000273   Thumb Code     0  startup_stm32f407xx.o(.text)
    DMA1_Stream2_IRQHandler                  0x08000273   Thumb Code     0  startup_stm32f407xx.o(.text)
    DMA1_Stream3_IRQHandler                  0x08000273   Thumb Code     0  startup_stm32f407xx.o(.text)
    DMA1_Stream4_IRQHandler                  0x08000273   Thumb Code     0  startup_stm32f407xx.o(.text)
    DMA1_Stream5_IRQHandler                  0x08000273   Thumb Code     0  startup_stm32f407xx.o(.text)
    DMA1_Stream6_IRQHandler                  0x08000273   Thumb Code     0  startup_stm32f407xx.o(.text)
    DMA1_Stream7_IRQHandler                  0x08000273   Thumb Code     0  startup_stm32f407xx.o(.text)
    DMA2_Stream0_IRQHandler                  0x08000273   Thumb Code     0  startup_stm32f407xx.o(.text)
    DMA2_Stream1_IRQHandler                  0x08000273   Thumb Code     0  startup_stm32f407xx.o(.text)
    DMA2_Stream2_IRQHandler                  0x08000273   Thumb Code     0  startup_stm32f407xx.o(.text)
    DMA2_Stream3_IRQHandler                  0x08000273   Thumb Code     0  startup_stm32f407xx.o(.text)
    DMA2_Stream4_IRQHandler                  0x08000273   Thumb Code     0  startup_stm32f407xx.o(.text)
    DMA2_Stream5_IRQHandler                  0x08000273   Thumb Code     0  startup_stm32f407xx.o(.text)
    DMA2_Stream6_IRQHandler                  0x08000273   Thumb Code     0  startup_stm32f407xx.o(.text)
    DMA2_Stream7_IRQHandler                  0x08000273   Thumb Code     0  startup_stm32f407xx.o(.text)
    ETH_WKUP_IRQHandler                      0x08000273   Thumb Code     0  startup_stm32f407xx.o(.text)
    EXTI0_IRQHandler                         0x08000273   Thumb Code     0  startup_stm32f407xx.o(.text)
    EXTI15_10_IRQHandler                     0x08000273   Thumb Code     0  startup_stm32f407xx.o(.text)
    EXTI1_IRQHandler                         0x08000273   Thumb Code     0  startup_stm32f407xx.o(.text)
    EXTI2_IRQHandler                         0x08000273   Thumb Code     0  startup_stm32f407xx.o(.text)
    EXTI3_IRQHandler                         0x08000273   Thumb Code     0  startup_stm32f407xx.o(.text)
    EXTI4_IRQHandler                         0x08000273   Thumb Code     0  startup_stm32f407xx.o(.text)
    EXTI9_5_IRQHandler                       0x08000273   Thumb Code     0  startup_stm32f407xx.o(.text)
    FLASH_IRQHandler                         0x08000273   Thumb Code     0  startup_stm32f407xx.o(.text)
    FMC_IRQHandler                           0x08000273   Thumb Code     0  startup_stm32f407xx.o(.text)
    FPU_IRQHandler                           0x08000273   Thumb Code     0  startup_stm32f407xx.o(.text)
    HASH_RNG_IRQHandler                      0x08000273   Thumb Code     0  startup_stm32f407xx.o(.text)
    I2C1_ER_IRQHandler                       0x08000273   Thumb Code     0  startup_stm32f407xx.o(.text)
    I2C1_EV_IRQHandler                       0x08000273   Thumb Code     0  startup_stm32f407xx.o(.text)
    I2C2_ER_IRQHandler                       0x08000273   Thumb Code     0  startup_stm32f407xx.o(.text)
    I2C2_EV_IRQHandler                       0x08000273   Thumb Code     0  startup_stm32f407xx.o(.text)
    I2C3_ER_IRQHandler                       0x08000273   Thumb Code     0  startup_stm32f407xx.o(.text)
    I2C3_EV_IRQHandler                       0x08000273   Thumb Code     0  startup_stm32f407xx.o(.text)
    OTG_FS_IRQHandler                        0x08000273   Thumb Code     0  startup_stm32f407xx.o(.text)
    OTG_FS_WKUP_IRQHandler                   0x08000273   Thumb Code     0  startup_stm32f407xx.o(.text)
    OTG_HS_EP1_IN_IRQHandler                 0x08000273   Thumb Code     0  startup_stm32f407xx.o(.text)
    OTG_HS_EP1_OUT_IRQHandler                0x08000273   Thumb Code     0  startup_stm32f407xx.o(.text)
    OTG_HS_IRQHandler                        0x08000273   Thumb Code     0  startup_stm32f407xx.o(.text)
    OTG_HS_WKUP_IRQHandler                   0x08000273   Thumb Code     0  startup_stm32f407xx.o(.text)
    PVD_IRQHandler                           0x08000273   Thumb Code     0  startup_stm32f407xx.o(.text)
    RTC_Alarm_IRQHandler                     0x08000273   Thumb Code     0  startup_stm32f407xx.o(.text)
    RTC_WKUP_IRQHandler                      0x08000273   Thumb Code     0  startup_stm32f407xx.o(.text)
    SDIO_IRQHandler                          0x08000273   Thumb Code     0  startup_stm32f407xx.o(.text)
    SPI1_IRQHandler                          0x08000273   Thumb Code     0  startup_stm32f407xx.o(.text)
    SPI2_IRQHandler                          0x08000273   Thumb Code     0  startup_stm32f407xx.o(.text)
    SPI3_IRQHandler                          0x08000273   Thumb Code     0  startup_stm32f407xx.o(.text)
    TAMP_STAMP_IRQHandler                    0x08000273   Thumb Code     0  startup_stm32f407xx.o(.text)
    TIM1_BRK_TIM9_IRQHandler                 0x08000273   Thumb Code     0  startup_stm32f407xx.o(.text)
    TIM1_CC_IRQHandler                       0x08000273   Thumb Code     0  startup_stm32f407xx.o(.text)
    TIM1_TRG_COM_TIM11_IRQHandler            0x08000273   Thumb Code     0  startup_stm32f407xx.o(.text)
    TIM1_UP_TIM10_IRQHandler                 0x08000273   Thumb Code     0  startup_stm32f407xx.o(.text)
    TIM2_IRQHandler                          0x08000273   Thumb Code     0  startup_stm32f407xx.o(.text)
    TIM3_IRQHandler                          0x08000273   Thumb Code     0  startup_stm32f407xx.o(.text)
    TIM4_IRQHandler                          0x08000273   Thumb Code     0  startup_stm32f407xx.o(.text)
    TIM5_IRQHandler                          0x08000273   Thumb Code     0  startup_stm32f407xx.o(.text)
    TIM7_IRQHandler                          0x08000273   Thumb Code     0  startup_stm32f407xx.o(.text)
    TIM8_BRK_TIM12_IRQHandler                0x08000273   Thumb Code     0  startup_stm32f407xx.o(.text)
    TIM8_CC_IRQHandler                       0x08000273   Thumb Code     0  startup_stm32f407xx.o(.text)
    TIM8_TRG_COM_TIM14_IRQHandler            0x08000273   Thumb Code     0  startup_stm32f407xx.o(.text)
    TIM8_UP_TIM13_IRQHandler                 0x08000273   Thumb Code     0  startup_stm32f407xx.o(.text)
    UART5_IRQHandler                         0x08000273   Thumb Code     0  startup_stm32f407xx.o(.text)
    USART1_IRQHandler                        0x08000273   Thumb Code     0  startup_stm32f407xx.o(.text)
    USART2_IRQHandler                        0x08000273   Thumb Code     0  startup_stm32f407xx.o(.text)
    USART3_IRQHandler                        0x08000273   Thumb Code     0  startup_stm32f407xx.o(.text)
    WWDG_IRQHandler                          0x08000273   Thumb Code     0  startup_stm32f407xx.o(.text)
    rand                                     0x0800027d   Thumb Code    20  rand.o(.text)
    srand                                    0x08000291   Thumb Code     6  rand.o(.text)
    __aeabi_memcpy                           0x080002a1   Thumb Code    36  memcpya.o(.text)
    __aeabi_memcpy4                          0x080002a1   Thumb Code     0  memcpya.o(.text)
    __aeabi_memcpy8                          0x080002a1   Thumb Code     0  memcpya.o(.text)
    __aeabi_memset                           0x080002c5   Thumb Code    14  memseta.o(.text)
    __aeabi_memset4                          0x080002c5   Thumb Code     0  memseta.o(.text)
    __aeabi_memset8                          0x080002c5   Thumb Code     0  memseta.o(.text)
    __aeabi_memclr                           0x080002d3   Thumb Code     4  memseta.o(.text)
    __aeabi_memclr4                          0x080002d3   Thumb Code     0  memseta.o(.text)
    __aeabi_memclr8                          0x080002d3   Thumb Code     0  memseta.o(.text)
    _memset$wrapper                          0x080002d7   Thumb Code    18  memseta.o(.text)
    strlen                                   0x080002e9   Thumb Code    14  strlen.o(.text)
    memcmp                                   0x080002f7   Thumb Code    26  memcmp.o(.text)
    strcpy                                   0x08000311   Thumb Code    18  strcpy.o(.text)
    __aeabi_f2d                              0x08000323   Thumb Code    38  f2d.o(.text)
    __aeabi_uidiv                            0x08000349   Thumb Code     0  uidiv.o(.text)
    __aeabi_uidivmod                         0x08000349   Thumb Code    44  uidiv.o(.text)
    __aeabi_uldivmod                         0x08000375   Thumb Code    98  uldiv.o(.text)
    __I$use$fp                               0x080003d7   Thumb Code     0  iusefp.o(.text)
    __aeabi_dadd                             0x080003d7   Thumb Code   322  dadd.o(.text)
    __aeabi_dsub                             0x08000519   Thumb Code     6  dadd.o(.text)
    __aeabi_drsub                            0x0800051f   Thumb Code     6  dadd.o(.text)
    __aeabi_dmul                             0x08000525   Thumb Code   228  dmul.o(.text)
    __aeabi_ddiv                             0x08000609   Thumb Code   222  ddiv.o(.text)
    __aeabi_d2ulz                            0x080006e7   Thumb Code    48  dfixul.o(.text)
    __aeabi_cdrcmple                         0x08000719   Thumb Code    48  cdrcmple.o(.text)
    __scatterload                            0x08000749   Thumb Code    28  init.o(.text)
    __scatterload_rt2                        0x08000749   Thumb Code     0  init.o(.text)
    __aeabi_llsl                             0x0800076d   Thumb Code    30  llshl.o(.text)
    _ll_shift_l                              0x0800076d   Thumb Code     0  llshl.o(.text)
    __aeabi_llsr                             0x0800078b   Thumb Code    32  llushr.o(.text)
    _ll_ushift_r                             0x0800078b   Thumb Code     0  llushr.o(.text)
    __aeabi_lasr                             0x080007ab   Thumb Code    36  llsshr.o(.text)
    _ll_sshift_r                             0x080007ab   Thumb Code     0  llsshr.o(.text)
    _double_round                            0x080007cf   Thumb Code    30  depilogue.o(.text)
    _double_epilogue                         0x080007ed   Thumb Code   156  depilogue.o(.text)
    __decompress                             0x08000889   Thumb Code     0  __dczerorl.o(.text)
    __decompress0                            0x08000889   Thumb Code    58  __dczerorl.o(.text)
    BASIC_TIMx_Init                          0x080008c5   Thumb Code    52  bsp_basictim.o(i.BASIC_TIMx_Init)
    BusFault_Handler                         0x08000901   Thumb Code     2  stm32f4xx_it.o(i.BusFault_Handler)
    CAN1_RX0_IRQHandler                      0x08000905   Thumb Code     6  stm32f4xx_it.o(i.CAN1_RX0_IRQHandler)
    DHCP_thread                              0x08000b0d   Thumb Code   192  app_ethernet.o(i.DHCP_thread)
    DebugMon_Handler                         0x08000c5d   Thumb Code     2  stm32f4xx_it.o(i.DebugMon_Handler)
    ETH_IRQHandler                           0x08000cd5   Thumb Code     6  stm32f4xx_it.o(i.ETH_IRQHandler)
    ETH_PHY_ReadReg                          0x08000ee5   Thumb Code    24  app_ethernet.o(i.ETH_PHY_ReadReg)
    ETH_link_check_state                     0x08000f01   Thumb Code   138  app_ethernet.o(i.ETH_link_check_state)
    Ethernet_Link_Periodic_Handle            0x08000f8d   Thumb Code    36  app_ethernet.o(i.Ethernet_Link_Periodic_Handle)
    HAL_CAN_ConfigFilter                     0x08000fb5   Thumb Code   268  stm32f4xx_hal_can.o(i.HAL_CAN_ConfigFilter)
    HAL_CAN_ErrorCallback                    0x080010c5   Thumb Code     2  stm32f4xx_hal_can.o(i.HAL_CAN_ErrorCallback)
    HAL_CAN_IRQHandler                       0x080010c9   Thumb Code   500  stm32f4xx_hal_can.o(i.HAL_CAN_IRQHandler)
    HAL_CAN_Init                             0x080012cd   Thumb Code   420  stm32f4xx_hal_can.o(i.HAL_CAN_Init)
    HAL_CAN_MspInit                          0x08001471   Thumb Code   128  bsp_can.o(i.HAL_CAN_MspInit)
    HAL_CAN_Receive_IT                       0x08001501   Thumb Code   258  stm32f4xx_hal_can.o(i.HAL_CAN_Receive_IT)
    HAL_CAN_RxCpltCallback                   0x08001605   Thumb Code   232  bsp_can.o(i.HAL_CAN_RxCpltCallback)
    HAL_CAN_TxCpltCallback                   0x08001735   Thumb Code     2  stm32f4xx_hal_can.o(i.HAL_CAN_TxCpltCallback)
    HAL_DMA_Abort_IT                         0x08001737   Thumb Code    36  stm32f4xx_hal_dma.o(i.HAL_DMA_Abort_IT)
    HAL_Delay                                0x0800175b   Thumb Code    30  stm32f4xx_hal.o(i.HAL_Delay)
    HAL_ETH_ConfigMAC                        0x08001779   Thumb Code   308  stm32f4xx_hal_eth.o(i.HAL_ETH_ConfigMAC)
    HAL_ETH_DMARxDescListInit                0x080018b1   Thumb Code   128  stm32f4xx_hal_eth.o(i.HAL_ETH_DMARxDescListInit)
    HAL_ETH_DMATxDescListInit                0x08001931   Thumb Code   142  stm32f4xx_hal_eth.o(i.HAL_ETH_DMATxDescListInit)
    HAL_ETH_ErrorCallback                    0x080019bf   Thumb Code     2  stm32f4xx_hal_eth.o(i.HAL_ETH_ErrorCallback)
    HAL_ETH_GetReceivedFrame_IT              0x080019c1   Thumb Code   160  stm32f4xx_hal_eth.o(i.HAL_ETH_GetReceivedFrame_IT)
    HAL_ETH_IRQHandler                       0x08001a61   Thumb Code   136  stm32f4xx_hal_eth.o(i.HAL_ETH_IRQHandler)
    HAL_ETH_Init                             0x08001ae9   Thumb Code   582  stm32f4xx_hal_eth.o(i.HAL_ETH_Init)
    HAL_ETH_MspInit                          0x08001d59   Thumb Code   242  ethernetif.o(i.HAL_ETH_MspInit)
    HAL_ETH_ReadPHYRegister                  0x08001e61   Thumb Code   140  stm32f4xx_hal_eth.o(i.HAL_ETH_ReadPHYRegister)
    HAL_ETH_RxCpltCallback                   0x08001eed   Thumb Code     8  ethernetif.o(i.HAL_ETH_RxCpltCallback)
    HAL_ETH_Start                            0x08001ef9   Thumb Code    70  stm32f4xx_hal_eth.o(i.HAL_ETH_Start)
    HAL_ETH_TransmitFrame                    0x08001f3f   Thumb Code   310  stm32f4xx_hal_eth.o(i.HAL_ETH_TransmitFrame)
    HAL_ETH_TxCpltCallback                   0x08002075   Thumb Code     2  stm32f4xx_hal_eth.o(i.HAL_ETH_TxCpltCallback)
    HAL_ETH_WritePHYRegister                 0x08002077   Thumb Code   132  stm32f4xx_hal_eth.o(i.HAL_ETH_WritePHYRegister)
    HAL_GPIO_Init                            0x080020fd   Thumb Code   518  stm32f4xx_hal_gpio.o(i.HAL_GPIO_Init)
    HAL_GPIO_WritePin                        0x08002319   Thumb Code    14  stm32f4xx_hal_gpio.o(i.HAL_GPIO_WritePin)
    HAL_GetTick                              0x08002329   Thumb Code     6  stm32f4xx_hal.o(i.HAL_GetTick)
    HAL_IncTick                              0x08002335   Thumb Code    10  stm32f4xx_hal.o(i.HAL_IncTick)
    HAL_Init                                 0x08002345   Thumb Code    48  stm32f4xx_hal.o(i.HAL_Init)
    HAL_InitTick                             0x08002379   Thumb Code    34  stm32f4xx_hal.o(i.HAL_InitTick)
    HAL_MspInit                              0x080023a1   Thumb Code     6  stm32f4xx_hal_msp.o(i.HAL_MspInit)
    HAL_NVIC_EnableIRQ                       0x080023a7   Thumb Code    24  stm32f4xx_hal_cortex.o(i.HAL_NVIC_EnableIRQ)
    HAL_NVIC_SetPriority                     0x080023c1   Thumb Code    98  stm32f4xx_hal_cortex.o(i.HAL_NVIC_SetPriority)
    HAL_NVIC_SetPriorityGrouping             0x08002429   Thumb Code    30  stm32f4xx_hal_cortex.o(i.HAL_NVIC_SetPriorityGrouping)
    HAL_RCC_ClockConfig                      0x0800244d   Thumb Code   474  stm32f4xx_hal_rcc.o(i.HAL_RCC_ClockConfig)
    HAL_RCC_EnableCSS                        0x0800263d   Thumb Code     8  stm32f4xx_hal_rcc.o(i.HAL_RCC_EnableCSS)
    HAL_RCC_GetHCLKFreq                      0x08002649   Thumb Code     6  stm32f4xx_hal_rcc.o(i.HAL_RCC_GetHCLKFreq)
    HAL_RCC_GetPCLK1Freq                     0x08002655   Thumb Code    36  stm32f4xx_hal_rcc.o(i.HAL_RCC_GetPCLK1Freq)
    HAL_RCC_GetPCLK2Freq                     0x08002681   Thumb Code    36  stm32f4xx_hal_rcc.o(i.HAL_RCC_GetPCLK2Freq)
    HAL_RCC_GetSysClockFreq                  0x080026ad   Thumb Code   126  stm32f4xx_hal_rcc.o(i.HAL_RCC_GetSysClockFreq)
    HAL_RCC_OscConfig                        0x08002739   Thumb Code  1058  stm32f4xx_hal_rcc.o(i.HAL_RCC_OscConfig)
    HAL_SYSTICK_CLKSourceConfig              0x08002b79   Thumb Code    28  stm32f4xx_hal_cortex.o(i.HAL_SYSTICK_CLKSourceConfig)
    HAL_SYSTICK_Config                       0x08002b95   Thumb Code    36  stm32f4xx_hal_cortex.o(i.HAL_SYSTICK_Config)
    HAL_TIMEx_BreakCallback                  0x08002bbd   Thumb Code     2  stm32f4xx_hal_tim_ex.o(i.HAL_TIMEx_BreakCallback)
    HAL_TIMEx_CommutationCallback            0x08002bbf   Thumb Code     2  stm32f4xx_hal_tim_ex.o(i.HAL_TIMEx_CommutationCallback)
    HAL_TIMEx_MasterConfigSynchronization    0x08002bc1   Thumb Code   102  stm32f4xx_hal_tim_ex.o(i.HAL_TIMEx_MasterConfigSynchronization)
    HAL_TIM_Base_Init                        0x08002c27   Thumb Code    56  stm32f4xx_hal_tim.o(i.HAL_TIM_Base_Init)
    HAL_TIM_Base_MspInit                     0x08002c61   Thumb Code    54  bsp_basictim.o(i.HAL_TIM_Base_MspInit)
    HAL_TIM_Base_Start_IT                    0x08002c9d   Thumb Code    24  stm32f4xx_hal_tim.o(i.HAL_TIM_Base_Start_IT)
    HAL_TIM_IC_CaptureCallback               0x08002cb5   Thumb Code     2  stm32f4xx_hal_tim.o(i.HAL_TIM_IC_CaptureCallback)
    HAL_TIM_IRQHandler                       0x08002cb7   Thumb Code   372  stm32f4xx_hal_tim.o(i.HAL_TIM_IRQHandler)
    HAL_TIM_OC_DelayElapsedCallback          0x08002e2b   Thumb Code     2  stm32f4xx_hal_tim.o(i.HAL_TIM_OC_DelayElapsedCallback)
    HAL_TIM_PWM_PulseFinishedCallback        0x08002e2d   Thumb Code     2  stm32f4xx_hal_tim.o(i.HAL_TIM_PWM_PulseFinishedCallback)
    HAL_TIM_PeriodElapsedCallback            0x08002e31   Thumb Code    28  bsp_basictim.o(i.HAL_TIM_PeriodElapsedCallback)
    HAL_TIM_TriggerCallback                  0x08002e55   Thumb Code     2  stm32f4xx_hal_tim.o(i.HAL_TIM_TriggerCallback)
    HAL_UART_ErrorCallback                   0x08002e57   Thumb Code     2  stm32f4xx_hal_uart.o(i.HAL_UART_ErrorCallback)
    HAL_UART_IRQHandler                      0x08002e59   Thumb Code   306  stm32f4xx_hal_uart.o(i.HAL_UART_IRQHandler)
    HAL_UART_Init                            0x08002f91   Thumb Code   100  stm32f4xx_hal_uart.o(i.HAL_UART_Init)
    HAL_UART_MspInit                         0x08002ff5   Thumb Code    80  bsp_debug_usart.o(i.HAL_UART_MspInit)
    HAL_UART_Receive_IT                      0x0800304d   Thumb Code    76  stm32f4xx_hal_uart.o(i.HAL_UART_Receive_IT)
    HAL_UART_RxCpltCallback                  0x08003099   Thumb Code    30  interrupt_operation.o(i.HAL_UART_RxCpltCallback)
    HAL_UART_Transmit                        0x080030c1   Thumb Code   220  stm32f4xx_hal_uart.o(i.HAL_UART_Transmit)
    HAL_UART_TxCpltCallback                  0x0800319d   Thumb Code     2  stm32f4xx_hal_uart.o(i.HAL_UART_TxCpltCallback)
    HardFault_Handler                        0x0800319f   Thumb Code     2  stm32f4xx_it.o(i.HardFault_Handler)
    LED_GPIO_Init                            0x080031a1   Thumb Code   146  bsp_led.o(i.LED_GPIO_Init)
    MX_CAN_Init                              0x08003241   Thumb Code   108  bsp_can.o(i.MX_CAN_Init)
    MX_DEBUG_USART_Init                      0x080032b5   Thumb Code    54  bsp_debug_usart.o(i.MX_DEBUG_USART_Init)
    MemManage_Handler                        0x080032f9   Thumb Code     2  stm32f4xx_it.o(i.MemManage_Handler)
    NMI_Handler                              0x080032fb   Thumb Code     2  stm32f4xx_it.o(i.NMI_Handler)
    Netif_Config                             0x080032fd   Thumb Code    66  app_ethernet.o(i.Netif_Config)
    RCC_IRQHandler                           0x08003351   Thumb Code     2  stm32f4xx_it.o(i.RCC_IRQHandler)
    SysTick_Handler                          0x080033c9   Thumb Code    14  stm32f4xx_it.o(i.SysTick_Handler)
    SystemClock_Config                       0x080033d9   Thumb Code   146  main.o(i.SystemClock_Config)
    SystemInit                               0x08003475   Thumb Code    64  system_stm32f4xx.o(i.SystemInit)
    TIM6_DAC_IRQHandler                      0x080034cd   Thumb Code     6  stm32f4xx_it.o(i.TIM6_DAC_IRQHandler)
    TIM_Base_SetConfig                       0x080034d9   Thumb Code   178  stm32f4xx_hal_tim.o(i.TIM_Base_SetConfig)
    UART4_IRQHandler                         0x080035a1   Thumb Code     6  stm32f4xx_it.o(i.UART4_IRQHandler)
    US100_USART4_Rx_data                     0x08003aa9   Thumb Code    82  bsp_usartx_us100.o(i.US100_USART4_Rx_data)
    US100_USART6_Init                        0x08003b0d   Thumb Code   118  bsp_usartx_us100.o(i.US100_USART6_Init)
    US100_USART6_Rx_data                     0x08003b9d   Thumb Code    84  bsp_usartx_us100.o(i.US100_USART6_Rx_data)
    US100_USART6_main                        0x08003c01   Thumb Code   106  bsp_usartx_us100.o(i.US100_USART6_main)
    USART6_IRQHandler                        0x08003c7d   Thumb Code     6  stm32f4xx_it.o(i.USART6_IRQHandler)
    USART_GPIO_Init                          0x08003c89   Thumb Code   142  bsp_usartx_us100.o(i.USART_GPIO_Init)
    UsageFault_Handler                       0x08003d29   Thumb Code     2  stm32f4xx_it.o(i.UsageFault_Handler)
    __0printf                                0x08003d2d   Thumb Code    22  printfa.o(i.__0printf)
    __1printf                                0x08003d2d   Thumb Code     0  printfa.o(i.__0printf)
    __2printf                                0x08003d2d   Thumb Code     0  printfa.o(i.__0printf)
    __c89printf                              0x08003d2d   Thumb Code     0  printfa.o(i.__0printf)
    printf                                   0x08003d2d   Thumb Code     0  printfa.o(i.__0printf)
    __0sprintf                               0x08003d4d   Thumb Code    34  printfa.o(i.__0sprintf)
    __1sprintf                               0x08003d4d   Thumb Code     0  printfa.o(i.__0sprintf)
    __2sprintf                               0x08003d4d   Thumb Code     0  printfa.o(i.__0sprintf)
    __c89sprintf                             0x08003d4d   Thumb Code     0  printfa.o(i.__0sprintf)
    sprintf                                  0x08003d4d   Thumb Code     0  printfa.o(i.__0sprintf)
    __scatterload_copy                       0x08003d75   Thumb Code    14  handlers.o(i.__scatterload_copy)
    __scatterload_null                       0x08003d83   Thumb Code     2  handlers.o(i.__scatterload_null)
    __scatterload_zeroinit                   0x08003d85   Thumb Code    14  handlers.o(i.__scatterload_zeroinit)
    dhcp_arp_reply                           0x080047d1   Thumb Code    30  dhcp.o(i.dhcp_arp_reply)
    dhcp_coarse_tmr                          0x08004915   Thumb Code    98  dhcp.o(i.dhcp_coarse_tmr)
    dhcp_fine_tmr                            0x08004c51   Thumb Code    48  dhcp.o(i.dhcp_fine_tmr)
    dhcp_network_changed                     0x08004da1   Thumb Code    48  dhcp.o(i.dhcp_network_changed)
    dhcp_release                             0x080053e5   Thumb Code   172  dhcp.o(i.dhcp_release)
    dhcp_renew                               0x08005499   Thumb Code   174  dhcp.o(i.dhcp_renew)
    dhcp_start                               0x08005665   Thumb Code   148  dhcp.o(i.dhcp_start)
    dhcp_stop                                0x080056f9   Thumb Code    36  dhcp.o(i.dhcp_stop)
    dhcp_supplied_address                    0x0800571d   Thumb Code    30  dhcp.o(i.dhcp_supplied_address)
    eTaskGetState                            0x08005855   Thumb Code    96  tasks.o(i.eTaskGetState)
    err_to_errno                             0x0800599d   Thumb Code    24  err.o(i.err_to_errno)
    etharp_cleanup_netif                     0x080059b9   Thumb Code    42  etharp.o(i.etharp_cleanup_netif)
    etharp_input                             0x08005b1d   Thumb Code   200  etharp.o(i.etharp_input)
    etharp_output                            0x08005be5   Thumb Code   254  etharp.o(i.etharp_output)
    etharp_query                             0x08005d51   Thumb Code   286  etharp.o(i.etharp_query)
    etharp_request                           0x08005f05   Thumb Code     6  etharp.o(i.etharp_request)
    etharp_tmr                               0x08005f39   Thumb Code    96  etharp.o(i.etharp_tmr)
    ethernet_input                           0x08006021   Thumb Code   164  ethernet.o(i.ethernet_input)
    ethernet_link_check_state                0x080060c9   Thumb Code   160  ethernetif.o(i.ethernet_link_check_state)
    ethernet_link_status_updated             0x080061a1   Thumb Code    60  app_ethernet.o(i.ethernet_link_status_updated)
    ethernet_output                          0x0800621d   Thumb Code    82  ethernet.o(i.ethernet_output)
    ethernetif_init                          0x08006271   Thumb Code    30  ethernetif.o(i.ethernetif_init)
    fputc                                    0x08006401   Thumb Code    22  bsp_debug_usart.o(i.fputc)
    free                                     0x0800641d   Thumb Code    76  malloc.o(i.free)
    icmp_dest_unreach                        0x080064d5   Thumb Code     8  icmp.o(i.icmp_dest_unreach)
    icmp_input                               0x080064dd   Thumb Code   320  icmp.o(i.icmp_input)
    icmp_time_exceeded                       0x08006693   Thumb Code     8  icmp.o(i.icmp_time_exceeded)
    inet_chksum_pbuf                         0x080066ab   Thumb Code    76  inet_chksum.o(i.inet_chksum_pbuf)
    ip4_addr_isbroadcast_u32                 0x080066f7   Thumb Code    80  ip4_addr.o(i.ip4_addr_isbroadcast_u32)
    ip4_frag                                 0x08006749   Thumb Code   416  ip4_frag.o(i.ip4_frag)
    ip4_input                                0x080068ed   Thumb Code   490  ip4.o(i.ip4_input)
    ip4_output_if                            0x08006ae1   Thumb Code    44  ip4.o(i.ip4_output_if)
    ip4_output_if_src                        0x08006b0d   Thumb Code   178  ip4.o(i.ip4_output_if_src)
    ip4_reass                                0x08006bc9   Thumb Code   378  ip4_frag.o(i.ip4_reass)
    ip4_route                                0x08006d49   Thumb Code   106  ip4.o(i.ip4_route)
    ip4addr_ntoa                             0x08006dbd   Thumb Code     8  ip4_addr.o(i.ip4addr_ntoa)
    ip4addr_ntoa_r                           0x08006dc9   Thumb Code   172  ip4_addr.o(i.ip4addr_ntoa_r)
    ip_reass_tmr                             0x080070fd   Thumb Code    42  ip4_frag.o(i.ip_reass_tmr)
    lwip_accept                              0x08007415   Thumb Code   360  sockets.o(i.lwip_accept)
    lwip_bind                                0x08007585   Thumb Code   106  sockets.o(i.lwip_bind)
    lwip_close                               0x080075f5   Thumb Code    74  sockets.o(i.lwip_close)
    lwip_htonl                               0x08007645   Thumb Code    24  def.o(i.lwip_htonl)
    lwip_htons                               0x0800765d   Thumb Code    10  def.o(i.lwip_htons)
    lwip_init                                0x08007667   Thumb Code    34  init.o(i.lwip_init)
    lwip_listen                              0x08007689   Thumb Code    96  sockets.o(i.lwip_listen)
    lwip_netconn_do_bind                     0x080076ed   Thumb Code   100  api_msg.o(i.lwip_netconn_do_bind)
    lwip_netconn_do_close                    0x08007751   Thumb Code   156  api_msg.o(i.lwip_netconn_do_close)
    lwip_netconn_do_delconn                  0x0800797d   Thumb Code   206  api_msg.o(i.lwip_netconn_do_delconn)
    lwip_netconn_do_getaddr                  0x08007a51   Thumb Code   164  api_msg.o(i.lwip_netconn_do_getaddr)
    lwip_netconn_do_listen                   0x08007af5   Thumb Code   220  api_msg.o(i.lwip_netconn_do_listen)
    lwip_netconn_do_newconn                  0x08007bd5   Thumb Code    62  api_msg.o(i.lwip_netconn_do_newconn)
    lwip_netconn_do_recv                     0x08007c13   Thumb Code    94  api_msg.o(i.lwip_netconn_do_recv)
    lwip_netconn_do_send                     0x08007c71   Thumb Code   116  api_msg.o(i.lwip_netconn_do_send)
    lwip_netconn_do_write                    0x08007ce5   Thumb Code   142  api_msg.o(i.lwip_netconn_do_write)
    lwip_recv                                0x08007eef   Thumb Code    24  sockets.o(i.lwip_recv)
    lwip_recvfrom                            0x08007f09   Thumb Code   536  sockets.o(i.lwip_recvfrom)
    lwip_send                                0x08008125   Thumb Code   162  sockets.o(i.lwip_send)
    lwip_sendto                              0x080081cd   Thumb Code   216  sockets.o(i.lwip_sendto)
    lwip_setsockopt                          0x080082a9   Thumb Code   110  sockets.o(i.lwip_setsockopt)
    lwip_socket                              0x08008481   Thumb Code   120  sockets.o(i.lwip_socket)
    lwip_standard_chksum                     0x08008501   Thumb Code    90  inet_chksum.o(i.lwip_standard_chksum)
    lwip_write                               0x0800855b   Thumb Code     6  sockets.o(i.lwip_write)
    main                                     0x08008561   Thumb Code    62  main.o(i.main)
    mem_free                                 0x080085b1   Thumb Code    72  mem.o(i.mem_free)
    mem_init                                 0x08008601   Thumb Code    50  mem.o(i.mem_init)
    mem_malloc                               0x0800863d   Thumb Code   210  mem.o(i.mem_malloc)
    mem_trim                                 0x08008719   Thumb Code   244  mem.o(i.mem_trim)
    memp_free                                0x08008815   Thumb Code    20  memp.o(i.memp_free)
    memp_init                                0x0800882d   Thumb Code    24  memp.o(i.memp_init)
    memp_init_pool                           0x08008849   Thumb Code    46  memp.o(i.memp_init_pool)
    memp_malloc                              0x08008879   Thumb Code    18  memp.o(i.memp_malloc)
    netbuf_delete                            0x08008891   Thumb Code    36  netbuf.o(i.netbuf_delete)
    netbuf_free                              0x080088b5   Thumb Code    24  netbuf.o(i.netbuf_free)
    netbuf_ref                               0x080088cd   Thumb Code    66  netbuf.o(i.netbuf_ref)
    netconn_accept                           0x08008911   Thumb Code   130  api_lib.o(i.netconn_accept)
    netconn_alloc                            0x08008999   Thumb Code   126  api_msg.o(i.netconn_alloc)
    netconn_bind                             0x08008a31   Thumb Code    42  api_lib.o(i.netconn_bind)
    netconn_delete                           0x08008a91   Thumb Code    48  api_lib.o(i.netconn_delete)
    netconn_free                             0x08008b8d   Thumb Code    48  api_msg.o(i.netconn_free)
    netconn_getaddr                          0x08008bbd   Thumb Code    58  api_lib.o(i.netconn_getaddr)
    netconn_listen_with_backlog              0x08008bfd   Thumb Code    30  api_lib.o(i.netconn_listen_with_backlog)
    netconn_new_with_proto_and_callback      0x08008c21   Thumb Code    92  api_lib.o(i.netconn_new_with_proto_and_callback)
    netconn_recv                             0x08008c81   Thumb Code   112  api_lib.o(i.netconn_recv)
    netconn_recv_tcp_pbuf                    0x08008de5   Thumb Code    24  api_lib.o(i.netconn_recv_tcp_pbuf)
    netconn_send                             0x08008dfd   Thumb Code    32  api_lib.o(i.netconn_send)
    netconn_write_partly                     0x08008e21   Thumb Code   122  api_lib.o(i.netconn_write_partly)
    netif_add                                0x08008ea1   Thumb Code    84  netif.o(i.netif_add)
    netif_init                               0x08008ef9   Thumb Code     2  netif.o(i.netif_init)
    netif_set_addr                           0x08008f19   Thumb Code    76  netif.o(i.netif_set_addr)
    netif_set_default                        0x08008f65   Thumb Code     6  netif.o(i.netif_set_default)
    netif_set_down                           0x08008f71   Thumb Code    30  netif.o(i.netif_set_down)
    netif_set_gw                             0x08008f8f   Thumb Code    14  netif.o(i.netif_set_gw)
    netif_set_ipaddr                         0x08008f9d   Thumb Code    66  netif.o(i.netif_set_ipaddr)
    netif_set_link_callback                  0x08008fe5   Thumb Code     8  netif.o(i.netif_set_link_callback)
    netif_set_link_down                      0x08008fed   Thumb Code    28  netif.o(i.netif_set_link_down)
    netif_set_link_up                        0x08009009   Thumb Code    62  netif.o(i.netif_set_link_up)
    netif_set_netmask                        0x08009047   Thumb Code    14  netif.o(i.netif_set_netmask)
    netif_set_up                             0x08009055   Thumb Code    32  netif.o(i.netif_set_up)
    osDelay                                  0x08009075   Thumb Code    16  cmsis_os.o(i.osDelay)
    osKernelStart                            0x08009085   Thumb Code    10  cmsis_os.o(i.osKernelStart)
    osKernelSysTick                          0x0800908f   Thumb Code    24  cmsis_os.o(i.osKernelSysTick)
    osMessageCreate                          0x080090a7   Thumb Code    10  cmsis_os.o(i.osMessageCreate)
    osMessageDelete                          0x080090b1   Thumb Code    24  cmsis_os.o(i.osMessageDelete)
    osMessageGet                             0x080090c9   Thumb Code   168  cmsis_os.o(i.osMessageGet)
    osMessagePut                             0x08009175   Thumb Code    96  cmsis_os.o(i.osMessagePut)
    osMessageWaiting                         0x080091d9   Thumb Code    30  cmsis_os.o(i.osMessageWaiting)
    osMutexCreate                            0x080091f7   Thumb Code     6  cmsis_os.o(i.osMutexCreate)
    osMutexRelease                           0x080091fd   Thumb Code    76  cmsis_os.o(i.osMutexRelease)
    osMutexWait                              0x0800924d   Thumb Code   104  cmsis_os.o(i.osMutexWait)
    osSemaphoreCreate                        0x080092b9   Thumb Code    48  cmsis_os.o(i.osSemaphoreCreate)
    osSemaphoreDelete                        0x080092e9   Thumb Code    24  cmsis_os.o(i.osSemaphoreDelete)
    osSemaphoreRelease                       0x08009301   Thumb Code    76  cmsis_os.o(i.osSemaphoreRelease)
    osSemaphoreWait                          0x08009351   Thumb Code   104  cmsis_os.o(i.osSemaphoreWait)
    osSystickHandler                         0x080093bd   Thumb Code    20  cmsis_os.o(i.osSystickHandler)
    osThreadCreate                           0x080093d1   Thumb Code    52  cmsis_os.o(i.osThreadCreate)
    osThreadTerminate                        0x08009405   Thumb Code    10  cmsis_os.o(i.osThreadTerminate)
    pbuf_alloc                               0x0800940f   Thumb Code   314  pbuf.o(i.pbuf_alloc)
    pbuf_alloced_custom                      0x08009549   Thumb Code   104  pbuf.o(i.pbuf_alloced_custom)
    pbuf_cat                                 0x080095b1   Thumb Code    40  pbuf.o(i.pbuf_cat)
    pbuf_chain                               0x080095d9   Thumb Code    20  pbuf.o(i.pbuf_chain)
    pbuf_clen                                0x080095ed   Thumb Code    20  pbuf.o(i.pbuf_clen)
    pbuf_copy                                0x08009601   Thumb Code   168  pbuf.o(i.pbuf_copy)
    pbuf_copy_partial                        0x080096a9   Thumb Code   112  pbuf.o(i.pbuf_copy_partial)
    pbuf_free                                0x08009719   Thumb Code   108  pbuf.o(i.pbuf_free)
    pbuf_header                              0x08009785   Thumb Code     6  pbuf.o(i.pbuf_header)
    pbuf_header_force                        0x0800978b   Thumb Code     6  pbuf.o(i.pbuf_header_force)
    pbuf_realloc                             0x0800981b   Thumb Code    92  pbuf.o(i.pbuf_realloc)
    pbuf_ref                                 0x08009877   Thumb Code    28  pbuf.o(i.pbuf_ref)
    pvPortMalloc                             0x08009f59   Thumb Code   218  heap_4.o(i.pvPortMalloc)
    pvTaskIncrementMutexHeldCount            0x0800a03d   Thumb Code    20  tasks.o(i.pvTaskIncrementMutexHeldCount)
    pxPortInitialiseStack                    0x0800a055   Thumb Code    38  port.o(i.pxPortInitialiseStack)
    sys_arch_mbox_fetch                      0x0800a215   Thumb Code    98  sys_arch.o(i.sys_arch_mbox_fetch)
    sys_arch_mbox_tryfetch                   0x0800a277   Thumb Code    52  sys_arch.o(i.sys_arch_mbox_tryfetch)
    sys_arch_protect                         0x0800a2ad   Thumb Code    18  sys_arch.o(i.sys_arch_protect)
    sys_arch_sem_wait                        0x0800a2c5   Thumb Code    60  sys_arch.o(i.sys_arch_sem_wait)
    sys_arch_unprotect                       0x0800a301   Thumb Code     8  sys_arch.o(i.sys_arch_unprotect)
    sys_init                                 0x0800a369   Thumb Code    14  sys_arch.o(i.sys_init)
    sys_mbox_free                            0x0800a381   Thumb Code    20  sys_arch.o(i.sys_mbox_free)
    sys_mbox_new                             0x0800a395   Thumb Code    40  sys_arch.o(i.sys_mbox_new)
    sys_mbox_set_invalid                     0x0800a3c1   Thumb Code     6  sys_arch.o(i.sys_mbox_set_invalid)
    sys_mbox_trypost                         0x0800a3c7   Thumb Code    22  sys_arch.o(i.sys_mbox_trypost)
    sys_mbox_valid                           0x0800a3dd   Thumb Code    14  sys_arch.o(i.sys_mbox_valid)
    sys_mutex_lock                           0x0800a3eb   Thumb Code    10  sys_arch.o(i.sys_mutex_lock)
    sys_mutex_new                            0x0800a3f5   Thumb Code    28  sys_arch.o(i.sys_mutex_new)
    sys_mutex_unlock                         0x0800a411   Thumb Code     6  sys_arch.o(i.sys_mutex_unlock)
    sys_now                                  0x0800a417   Thumb Code     4  ethernetif.o(i.sys_now)
    sys_sem_free                             0x0800a41b   Thumb Code     6  sys_arch.o(i.sys_sem_free)
    sys_sem_new                              0x0800a421   Thumb Code    42  sys_arch.o(i.sys_sem_new)
    sys_sem_set_invalid                      0x0800a44b   Thumb Code     6  sys_arch.o(i.sys_sem_set_invalid)
    sys_sem_signal                           0x0800a451   Thumb Code     6  sys_arch.o(i.sys_sem_signal)
    sys_sem_valid                            0x0800a457   Thumb Code    14  sys_arch.o(i.sys_sem_valid)
    sys_thread_new                           0x0800a465   Thumb Code    38  sys_arch.o(i.sys_thread_new)
    sys_timeout                              0x0800a48d   Thumb Code   164  timeouts.o(i.sys_timeout)
    sys_timeouts_init                        0x0800a535   Thumb Code    36  timeouts.o(i.sys_timeouts_init)
    sys_timeouts_mbox_fetch                  0x0800a565   Thumb Code    56  timeouts.o(i.sys_timeouts_mbox_fetch)
    tcp_abandon                              0x0800a5cd   Thumb Code   202  tcp.o(i.tcp_abandon)
    tcp_abort                                0x0800a6a1   Thumb Code     6  tcp.o(i.tcp_abort)
    tcp_accept                               0x0800a6a7   Thumb Code    14  tcp.o(i.tcp_accept)
    tcp_alloc                                0x0800a6c5   Thumb Code   164  tcp.o(i.tcp_alloc)
    tcp_arg                                  0x0800a775   Thumb Code     8  tcp.o(i.tcp_arg)
    tcp_bind                                 0x0800a77d   Thumb Code   144  tcp.o(i.tcp_bind)
    tcp_close                                0x0800a819   Thumb Code    20  tcp.o(i.tcp_close)
    tcp_eff_send_mss_impl                    0x0800aa43   Thumb Code    38  tcp.o(i.tcp_eff_send_mss_impl)
    tcp_enqueue_flags                        0x0800aa69   Thumb Code   190  tcp_out.o(i.tcp_enqueue_flags)
    tcp_err                                  0x0800ab27   Thumb Code    10  tcp.o(i.tcp_err)
    tcp_fasttmr                              0x0800ab31   Thumb Code    92  tcp.o(i.tcp_fasttmr)
    tcp_init                                 0x0800abcd   Thumb Code     2  tcp.o(i.tcp_init)
    tcp_input                                0x0800abd1   Thumb Code   950  tcp_in.o(i.tcp_input)
    tcp_keepalive                            0x0800afa1   Thumb Code    88  tcp_out.o(i.tcp_keepalive)
    tcp_listen_with_backlog                  0x0800b1d1   Thumb Code   132  tcp.o(i.tcp_listen_with_backlog)
    tcp_netif_ip_addr_changed                0x0800b261   Thumb Code    76  tcp.o(i.tcp_netif_ip_addr_changed)
    tcp_new                                  0x0800b2d5   Thumb Code     6  tcp.o(i.tcp_new)
    tcp_next_iss                             0x0800b33d   Thumb Code    12  tcp.o(i.tcp_next_iss)
    tcp_output                               0x0800b34d   Thumb Code   478  tcp_out.o(i.tcp_output)
    tcp_pcb_purge                            0x0800b71f   Thumb Code    58  tcp.o(i.tcp_pcb_purge)
    tcp_pcb_remove                           0x0800b759   Thumb Code    84  tcp.o(i.tcp_pcb_remove)
    tcp_poll                                 0x0800b7ad   Thumb Code     8  tcp.o(i.tcp_poll)
    tcp_process_refused_data                 0x0800bc49   Thumb Code   124  tcp.o(i.tcp_process_refused_data)
    tcp_recv                                 0x0800c0f1   Thumb Code     8  tcp.o(i.tcp_recv)
    tcp_recv_null                            0x0800c0f9   Thumb Code    38  tcp.o(i.tcp_recv_null)
    tcp_recved                               0x0800c11f   Thumb Code    72  tcp.o(i.tcp_recved)
    tcp_rexmit                               0x0800c17d   Thumb Code    82  tcp_out.o(i.tcp_rexmit)
    tcp_rexmit_fast                          0x0800c1cf   Thumb Code   102  tcp_out.o(i.tcp_rexmit_fast)
    tcp_rexmit_rto                           0x0800c235   Thumb Code    46  tcp_out.o(i.tcp_rexmit_rto)
    tcp_rst                                  0x0800c263   Thumb Code   136  tcp_out.o(i.tcp_rst)
    tcp_seg_free                             0x0800c2eb   Thumb Code    30  tcp.o(i.tcp_seg_free)
    tcp_segs_free                            0x0800c309   Thumb Code    20  tcp.o(i.tcp_segs_free)
    tcp_send_empty_ack                       0x0800c31d   Thumb Code   116  tcp_out.o(i.tcp_send_empty_ack)
    tcp_send_fin                             0x0800c391   Thumb Code    74  tcp_out.o(i.tcp_send_fin)
    tcp_sent                                 0x0800c3db   Thumb Code     8  tcp.o(i.tcp_sent)
    tcp_shutdown                             0x0800c3e3   Thumb Code    94  tcp.o(i.tcp_shutdown)
    tcp_slowtmr                              0x0800c441   Thumb Code   634  tcp.o(i.tcp_slowtmr)
    tcp_timer_needed                         0x0800c6cd   Thumb Code    36  timeouts.o(i.tcp_timer_needed)
    tcp_tmr                                  0x0800c785   Thumb Code    30  tcp.o(i.tcp_tmr)
    tcp_trigger_input_pcb_close              0x0800c7a9   Thumb Code    12  tcp_in.o(i.tcp_trigger_input_pcb_close)
    tcp_update_rcv_ann_wnd                   0x0800c7b9   Thumb Code    62  tcp.o(i.tcp_update_rcv_ann_wnd)
    tcp_write                                0x0800c7f7   Thumb Code   724  tcp_out.o(i.tcp_write)
    tcp_zero_window_probe                    0x0800cb19   Thumb Code   202  tcp_out.o(i.tcp_zero_window_probe)
    tcpecho_init                             0x0800cbe5   Thumb Code    20  tcp_echoserver.o(i.tcpecho_init)
    tcpip_init                               0x0800cd9d   Thumb Code    48  tcpip.o(i.tcpip_init)
    tcpip_send_msg_wait_sem                  0x0800cde1   Thumb Code    26  tcpip.o(i.tcpip_send_msg_wait_sem)
    udp_bind                                 0x0800ced1   Thumb Code   132  udp.o(i.udp_bind)
    udp_connect                              0x0800cf5d   Thumb Code    82  udp.o(i.udp_connect)
    udp_init                                 0x0800cfb5   Thumb Code     2  udp.o(i.udp_init)
    udp_input                                0x0800cfb9   Thumb Code   314  udp.o(i.udp_input)
    udp_netif_ip_addr_changed                0x0800d135   Thumb Code    50  udp.o(i.udp_netif_ip_addr_changed)
    udp_new                                  0x0800d16d   Thumb Code    36  udp.o(i.udp_new)
    udp_recv                                 0x0800d1dd   Thumb Code     6  udp.o(i.udp_recv)
    udp_remove                               0x0800d1e5   Thumb Code    44  udp.o(i.udp_remove)
    udp_send                                 0x0800d215   Thumb Code    18  udp.o(i.udp_send)
    udp_sendto                               0x0800d227   Thumb Code    52  udp.o(i.udp_sendto)
    udp_sendto_if                            0x0800d25b   Thumb Code    72  udp.o(i.udp_sendto_if)
    udp_sendto_if_src                        0x0800d2a3   Thumb Code   186  udp.o(i.udp_sendto_if_src)
    uxListRemove                             0x0800d35d   Thumb Code    36  list.o(i.uxListRemove)
    uxQueueMessagesWaiting                   0x0800d381   Thumb Code    38  queue.o(i.uxQueueMessagesWaiting)
    uxQueueMessagesWaitingFromISR            0x0800d3a7   Thumb Code    24  queue.o(i.uxQueueMessagesWaitingFromISR)
    uxTaskGetSystemState                     0x0800d3c1   Thumb Code   158  tasks.o(i.uxTaskGetSystemState)
    vListInitialise                          0x0800d475   Thumb Code    22  list.o(i.vListInitialise)
    vListInitialiseItem                      0x0800d48b   Thumb Code     6  list.o(i.vListInitialiseItem)
    vListInsert                              0x0800d491   Thumb Code    54  list.o(i.vListInsert)
    vListInsertEnd                           0x0800d4c7   Thumb Code    24  list.o(i.vListInsertEnd)
    vPortEnterCritical                       0x0800d4e1   Thumb Code    54  port.o(i.vPortEnterCritical)
    vPortExitCritical                        0x0800d521   Thumb Code    38  port.o(i.vPortExitCritical)
    vPortFree                                0x0800d54d   Thumb Code    88  heap_4.o(i.vPortFree)
    vPortSetupTimerInterrupt                 0x0800d5a9   Thumb Code    26  port.o(i.vPortSetupTimerInterrupt)
    vPortValidateInterruptPriority           0x0800d5c9   Thumb Code    74  port.o(i.vPortValidateInterruptPriority)
    vQueueDelete                             0x0800d61d   Thumb Code    40  queue.o(i.vQueueDelete)
    vQueueUnregisterQueue                    0x0800d645   Thumb Code    36  queue.o(i.vQueueUnregisterQueue)
    vTaskDelay                               0x0800d66d   Thumb Code    70  tasks.o(i.vTaskDelay)
    vTaskDelete                              0x0800d6bd   Thumb Code   160  tasks.o(i.vTaskDelete)
    vTaskGetInfo                             0x0800d76d   Thumb Code   118  tasks.o(i.vTaskGetInfo)
    vTaskGetRunTimeStats                     0x0800d7e9   Thumb Code   174  tasks.o(i.vTaskGetRunTimeStats)
    vTaskList                                0x0800d8c9   Thumb Code   176  tasks.o(i.vTaskList)
    vTaskMissedYield                         0x0800d98d   Thumb Code     8  tasks.o(i.vTaskMissedYield)
    vTaskPlaceOnEventList                    0x0800d999   Thumb Code    48  tasks.o(i.vTaskPlaceOnEventList)
    vTaskPriorityInherit                     0x0800d9cd   Thumb Code   130  tasks.o(i.vTaskPriorityInherit)
    vTaskSetTimeOutState                     0x0800da59   Thumb Code    32  tasks.o(i.vTaskSetTimeOutState)
    vTaskStartScheduler                      0x0800da7d   Thumb Code    96  tasks.o(i.vTaskStartScheduler)
    vTaskSuspendAll                          0x0800daf5   Thumb Code    10  tasks.o(i.vTaskSuspendAll)
    vTaskSwitchContext                       0x0800db05   Thumb Code   112  tasks.o(i.vTaskSwitchContext)
    xPortStartScheduler                      0x0800dc3d   Thumb Code   214  port.o(i.xPortStartScheduler)
    xPortSysTickHandler                      0x0800dd31   Thumb Code    38  port.o(i.xPortSysTickHandler)
    xQueueCreateCountingSemaphore            0x0800dd5d   Thumb Code    60  queue.o(i.xQueueCreateCountingSemaphore)
    xQueueCreateMutex                        0x0800dd99   Thumb Code    24  queue.o(i.xQueueCreateMutex)
    xQueueGenericCreate                      0x0800ddb1   Thumb Code    68  queue.o(i.xQueueGenericCreate)
    xQueueGenericReceive                     0x0800ddf5   Thumb Code   400  queue.o(i.xQueueGenericReceive)
    xQueueGenericReset                       0x0800df89   Thumb Code   138  queue.o(i.xQueueGenericReset)
    xQueueGenericSend                        0x0800e019   Thumb Code   362  queue.o(i.xQueueGenericSend)
    xQueueGenericSendFromISR                 0x0800e189   Thumb Code   188  queue.o(i.xQueueGenericSendFromISR)
    xQueueGiveFromISR                        0x0800e245   Thumb Code   160  queue.o(i.xQueueGiveFromISR)
    xQueueReceiveFromISR                     0x0800e2e5   Thumb Code   154  queue.o(i.xQueueReceiveFromISR)
    xTaskCheckForTimeOut                     0x0800e381   Thumb Code   114  tasks.o(i.xTaskCheckForTimeOut)
    xTaskCreate                              0x0800e3f9   Thumb Code   104  tasks.o(i.xTaskCreate)
    xTaskGetSchedulerState                   0x0800e461   Thumb Code    24  tasks.o(i.xTaskGetSchedulerState)
    xTaskGetTickCount                        0x0800e47d   Thumb Code     6  tasks.o(i.xTaskGetTickCount)
    xTaskGetTickCountFromISR                 0x0800e489   Thumb Code    12  tasks.o(i.xTaskGetTickCountFromISR)
    xTaskIncrementTick                       0x0800e499   Thumb Code   200  tasks.o(i.xTaskIncrementTick)
    xTaskPriorityDisinherit                  0x0800e569   Thumb Code   146  tasks.o(i.xTaskPriorityDisinherit)
    xTaskRemoveFromEventList                 0x0800e605   Thumb Code   108  tasks.o(i.xTaskRemoveFromEventList)
    xTaskResumeAll                           0x0800e67d   Thumb Code   190  tasks.o(i.xTaskResumeAll)
    AHBPrescTable                            0x0800e798   Data          16  system_stm32f4xx.o(.constdata)
    APBPrescTable                            0x0800e7a8   Data           8  system_stm32f4xx.o(.constdata)
    ip_addr_any                              0x0800e7b0   Data           4  ip4_addr.o(.constdata)
    ip_addr_broadcast                        0x0800e7b4   Data           4  ip4_addr.o(.constdata)
    ethbroadcast                             0x0800e7fc   Data           6  ethernet.o(.constdata)
    ethzero                                  0x0800e802   Data           6  ethernet.o(.constdata)
    os_mutex_def_lwip_sys_mutex              0x0800e808   Data           4  sys_arch.o(.constdata)
    memp_UDP_PCB                             0x0800e814   Data          12  memp.o(.constdata)
    memp_TCP_PCB                             0x0800e820   Data          12  memp.o(.constdata)
    memp_TCP_PCB_LISTEN                      0x0800e82c   Data          12  memp.o(.constdata)
    memp_TCP_SEG                             0x0800e838   Data          12  memp.o(.constdata)
    memp_REASSDATA                           0x0800e844   Data          12  memp.o(.constdata)
    memp_FRAG_PBUF                           0x0800e850   Data          12  memp.o(.constdata)
    memp_NETBUF                              0x0800e85c   Data          12  memp.o(.constdata)
    memp_NETCONN                             0x0800e868   Data          12  memp.o(.constdata)
    memp_TCPIP_MSG_API                       0x0800e874   Data          12  memp.o(.constdata)
    memp_TCPIP_MSG_INPKT                     0x0800e880   Data          12  memp.o(.constdata)
    memp_SYS_TIMEOUT                         0x0800e88c   Data          12  memp.o(.constdata)
    memp_PBUF                                0x0800e898   Data          12  memp.o(.constdata)
    memp_PBUF_POOL                           0x0800e8a4   Data          12  memp.o(.constdata)
    memp_pools                               0x0800e8b0   Data          52  memp.o(.constdata)
    tcp_pcb_lists                            0x0800e928   Data          16  tcp.o(.constdata)
    lwip_cyclic_timers                       0x0800e938   Data          40  timeouts.o(.constdata)
    Region$$Table$$Base                      0x0800ea94   Number         0  anon$$obj.o(Region$$Table)
    Region$$Table$$Limit                     0x0800eab4   Number         0  anon$$obj.o(Region$$Table)
    DHCP_state                               0x20000004   Data           1  app_ethernet.o(.data)
    EthernetLinkTimer                        0x20000008   Data           4  app_ethernet.o(.data)
    s_xSemaphore                             0x2000000c   Data           4  ethernetif.o(.data)
    uwTick                                   0x20000010   Data           4  stm32f4xx_hal.o(.data)
    SystemCoreClock                          0x20000014   Data           4  system_stm32f4xx.o(.data)
    first_flag                               0x20000018   Data           1  bsp_can.o(.data)
    Encoder_value                            0x2000001a   Data           2  bsp_can.o(.data)
    Encoder_value_last                       0x2000001c   Data           2  bsp_can.o(.data)
    Encoder_value_diff                       0x2000001e   Data           2  bsp_can.o(.data)
    Encoder_speed                            0x20000020   Data           4  bsp_can.o(.data)
    Encoder_value_sum                        0x20000028   Data           8  bsp_can.o(.data)
    aTxBuffer1                               0x20000030   Data           1  bsp_usartx_us100.o(.data)
    aTxBuffer2                               0x20000031   Data           1  bsp_usartx_us100.o(.data)
    flag1                                    0x20000032   Data           1  bsp_usartx_us100.o(.data)
    flag2                                    0x20000033   Data           1  bsp_usartx_us100.o(.data)
    flag3                                    0x20000034   Data           1  bsp_usartx_us100.o(.data)
    flag4                                    0x20000035   Data           1  bsp_usartx_us100.o(.data)
    aRxBuffer1                               0x20000036   Data           2  bsp_usartx_us100.o(.data)
    aRxBuffer2                               0x20000038   Data           2  bsp_usartx_us100.o(.data)
    ulHighFrequencyTimerTicks                0x2000003c   Data           4  bsp_basictim.o(.data)
    pxCurrentTCB                             0x20000040   Data           4  tasks.o(.data)
    netconn_aborted                          0x200000c4   Data           1  api_msg.o(.data)
    lock_tcpip_core                          0x200000dc   Data           4  tcpip.o(.data)
    errno                                    0x200000e0   Data           4  sys_arch.o(.data)
    lwip_sys_mutex                           0x200000e4   Data           4  sys_arch.o(.data)
    netif_list                               0x20000130   Data           4  netif.o(.data)
    netif_default                            0x20000134   Data           4  netif.o(.data)
    tcp_active_pcbs_changed                  0x20000138   Data           1  tcp.o(.data)
    tcp_ticks                                0x20000144   Data           4  tcp.o(.data)
    tcp_bound_pcbs                           0x20000148   Data           4  tcp.o(.data)
    tcp_listen_pcbs                          0x2000014c   Data           4  tcp.o(.data)
    tcp_active_pcbs                          0x20000150   Data           4  tcp.o(.data)
    tcp_tw_pcbs                              0x20000154   Data           4  tcp.o(.data)
    tcp_input_pcb                            0x20000178   Data           4  tcp_in.o(.data)
    udp_pcbs                                 0x2000018c   Data           4  udp.o(.data)
    __stdout                                 0x20000194   Data           4  stdout.o(.data)
    __microlib_freelist                      0x20000198   Data           4  mvars.o(.data)
    gnetif                                   0x2000019c   Data          56  main.o(.bss)
    DMARxDscrTab                             0x200001d4   Data         128  ethernetif.o(.bss)
    DMATxDscrTab                             0x20000254   Data         128  ethernetif.o(.bss)
    Rx_Buff                                  0x200002d4   Data        6096  ethernetif.o(.bss)
    Tx_Buff                                  0x20001aa4   Data        6096  ethernetif.o(.bss)
    EthHandle                                0x20003274   Data          72  ethernetif.o(.bss)
    Tx_TCP_data                              0x200032bc   Data          88  public_data.o(.bss)
    husart_debug                             0x20003314   Data          64  bsp_debug_usart.o(.bss)
    hCAN                                     0x20003354   Data          68  bsp_can.o(.bss)
    husart4_US100                            0x200033d8   Data          64  bsp_usartx_us100.o(.bss)
    husart6_US100                            0x20003418   Data          64  bsp_usartx_us100.o(.bss)
    htimx                                    0x20003458   Data          60  bsp_basictim.o(.bss)
    xQueueRegistry                           0x20003494   Data          64  queue.o(.bss)
    dhcp_rx_options_val                      0x200079c4   Data          40  dhcp.o(.bss)
    dhcp_rx_options_given                    0x200079ec   Data          10  dhcp.o(.bss)
    ip_data                                  0x20007b48   Data          24  ip.o(.bss)
    ram_heap                                 0x20007b60   Data       10259  mem.o(.bss)
    memp_memory_UDP_PCB_base                 0x2000a373   Data         195  memp.o(.bss)
    memp_memory_TCP_PCB_base                 0x2000a436   Data        1483  memp.o(.bss)
    memp_memory_TCP_PCB_LISTEN_base          0x2000aa01   Data         143  memp.o(.bss)
    memp_memory_TCP_SEG_base                 0x2000aa90   Data         131  memp.o(.bss)
    memp_memory_REASSDATA_base               0x2000ab13   Data         163  memp.o(.bss)
    memp_memory_FRAG_PBUF_base               0x2000abb6   Data         363  memp.o(.bss)
    memp_memory_NETBUF_base                  0x2000ad21   Data          35  memp.o(.bss)
    memp_memory_NETCONN_base                 0x2000ad44   Data         179  memp.o(.bss)
    memp_memory_TCPIP_MSG_API_base           0x2000adf7   Data         131  memp.o(.bss)
    memp_memory_TCPIP_MSG_INPKT_base         0x2000ae7a   Data         131  memp.o(.bss)
    memp_memory_SYS_TIMEOUT_base             0x2000aefd   Data         163  memp.o(.bss)
    memp_memory_PBUF_base                    0x2000afa0   Data         163  memp.o(.bss)
    memp_memory_PBUF_POOL_base               0x2000b043   Data        4131  memp.o(.bss)
    __initial_sp                             0x2000d078   Data           0  startup_stm32f407xx.o(STACK)



==============================================================================

Memory Map of the image

  Image Entry point : 0x08000189

  Load Region LR_IROM1 (Base: 0x08000000, Size: 0x0000ec50, Max: 0x00100000, ABSOLUTE, COMPRESSED[0x0000ead4])

    Execution Region ER_IROM1 (Exec base: 0x08000000, Load base: 0x08000000, Size: 0x0000eab4, Max: 0x00100000, ABSOLUTE)

    Exec Addr    Load Addr    Size         Type   Attr      Idx    E Section Name        Object

    0x08000000   0x08000000   0x00000188   Data   RO            3    RESET               startup_stm32f407xx.o
    0x08000188   0x08000188   0x00000000   Code   RO        13864  * .ARM.Collect$$$$00000000  mc_w.l(entry.o)
    0x08000188   0x08000188   0x00000004   Code   RO        14175    .ARM.Collect$$$$00000001  mc_w.l(entry2.o)
    0x0800018c   0x0800018c   0x00000004   Code   RO        14178    .ARM.Collect$$$$00000004  mc_w.l(entry5.o)
    0x08000190   0x08000190   0x00000000   Code   RO        14180    .ARM.Collect$$$$00000008  mc_w.l(entry7b.o)
    0x08000190   0x08000190   0x00000000   Code   RO        14182    .ARM.Collect$$$$0000000A  mc_w.l(entry8b.o)
    0x08000190   0x08000190   0x00000008   Code   RO        14183    .ARM.Collect$$$$0000000B  mc_w.l(entry9a.o)
    0x08000198   0x08000198   0x00000000   Code   RO        14185    .ARM.Collect$$$$0000000D  mc_w.l(entry10a.o)
    0x08000198   0x08000198   0x00000000   Code   RO        14187    .ARM.Collect$$$$0000000F  mc_w.l(entry11a.o)
    0x08000198   0x08000198   0x00000004   Code   RO        14176    .ARM.Collect$$$$00002712  mc_w.l(entry2.o)
    0x0800019c   0x0800019c   0x000000ba   Code   RO        11183    .emb_text           port.o
    0x08000256   0x08000256   0x00000002   PAD
    0x08000258   0x08000258   0x00000024   Code   RO            4    .text               startup_stm32f407xx.o
    0x0800027c   0x0800027c   0x00000024   Code   RO        13867    .text               mc_w.l(rand.o)
    0x080002a0   0x080002a0   0x00000024   Code   RO        13870    .text               mc_w.l(memcpya.o)
    0x080002c4   0x080002c4   0x00000024   Code   RO        13872    .text               mc_w.l(memseta.o)
    0x080002e8   0x080002e8   0x0000000e   Code   RO        13874    .text               mc_w.l(strlen.o)
    0x080002f6   0x080002f6   0x0000001a   Code   RO        13876    .text               mc_w.l(memcmp.o)
    0x08000310   0x08000310   0x00000012   Code   RO        13878    .text               mc_w.l(strcpy.o)
    0x08000322   0x08000322   0x00000026   Code   RO        14173    .text               mf_w.l(f2d.o)
    0x08000348   0x08000348   0x0000002c   Code   RO        14190    .text               mc_w.l(uidiv.o)
    0x08000374   0x08000374   0x00000062   Code   RO        14192    .text               mc_w.l(uldiv.o)
    0x080003d6   0x080003d6   0x00000000   Code   RO        14196    .text               mc_w.l(iusefp.o)
    0x080003d6   0x080003d6   0x0000014e   Code   RO        14197    .text               mf_w.l(dadd.o)
    0x08000524   0x08000524   0x000000e4   Code   RO        14199    .text               mf_w.l(dmul.o)
    0x08000608   0x08000608   0x000000de   Code   RO        14201    .text               mf_w.l(ddiv.o)
    0x080006e6   0x080006e6   0x00000030   Code   RO        14203    .text               mf_w.l(dfixul.o)
    0x08000716   0x08000716   0x00000002   PAD
    0x08000718   0x08000718   0x00000030   Code   RO        14205    .text               mf_w.l(cdrcmple.o)
    0x08000748   0x08000748   0x00000024   Code   RO        14207    .text               mc_w.l(init.o)
    0x0800076c   0x0800076c   0x0000001e   Code   RO        14209    .text               mc_w.l(llshl.o)
    0x0800078a   0x0800078a   0x00000020   Code   RO        14211    .text               mc_w.l(llushr.o)
    0x080007aa   0x080007aa   0x00000024   Code   RO        14213    .text               mc_w.l(llsshr.o)
    0x080007ce   0x080007ce   0x000000ba   Code   RO        14215    .text               mf_w.l(depilogue.o)
    0x08000888   0x08000888   0x0000003a   Code   RO        14225    .text               mc_w.l(__dczerorl.o)
    0x080008c2   0x080008c2   0x00000002   PAD
    0x080008c4   0x080008c4   0x0000003c   Code   RO        10005    i.BASIC_TIMx_Init   bsp_basictim.o
    0x08000900   0x08000900   0x00000002   Code   RO          737    i.BusFault_Handler  stm32f4xx_it.o
    0x08000902   0x08000902   0x00000002   PAD
    0x08000904   0x08000904   0x0000000c   Code   RO          738    i.CAN1_RX0_IRQHandler  stm32f4xx_it.o
    0x08000910   0x08000910   0x000001a6   Code   RO         3922    i.CAN_Receive_IT    stm32f4xx_hal_can.o
    0x08000ab6   0x08000ab6   0x00000054   Code   RO         3923    i.CAN_Transmit_IT   stm32f4xx_hal_can.o
    0x08000b0a   0x08000b0a   0x00000002   PAD
    0x08000b0c   0x08000b0c   0x00000150   Code   RO          840    i.DHCP_thread       app_ethernet.o
    0x08000c5c   0x08000c5c   0x00000002   Code   RO          739    i.DebugMon_Handler  stm32f4xx_it.o
    0x08000c5e   0x08000c5e   0x00000010   Code   RO         4606    i.ETH_DMAReceptionEnable  stm32f4xx_hal_eth.o
    0x08000c6e   0x08000c6e   0x00000010   Code   RO         4608    i.ETH_DMATransmissionEnable  stm32f4xx_hal_eth.o
    0x08000c7e   0x08000c7e   0x00000002   PAD
    0x08000c80   0x08000c80   0x00000024   Code   RO         4609    i.ETH_Delay         stm32f4xx_hal_eth.o
    0x08000ca4   0x08000ca4   0x0000002e   Code   RO         4610    i.ETH_FlushTransmitFIFO  stm32f4xx_hal_eth.o
    0x08000cd2   0x08000cd2   0x00000002   PAD
    0x08000cd4   0x08000cd4   0x0000000c   Code   RO          740    i.ETH_IRQHandler    stm32f4xx_it.o
    0x08000ce0   0x08000ce0   0x0000002a   Code   RO         4611    i.ETH_MACAddressConfig  stm32f4xx_hal_eth.o
    0x08000d0a   0x08000d0a   0x00000002   PAD
    0x08000d0c   0x08000d0c   0x00000194   Code   RO         4612    i.ETH_MACDMAConfig  stm32f4xx_hal_eth.o
    0x08000ea0   0x08000ea0   0x00000022   Code   RO         4614    i.ETH_MACReceptionEnable  stm32f4xx_hal_eth.o
    0x08000ec2   0x08000ec2   0x00000022   Code   RO         4616    i.ETH_MACTransmissionEnable  stm32f4xx_hal_eth.o
    0x08000ee4   0x08000ee4   0x0000001c   Code   RO          841    i.ETH_PHY_ReadReg   app_ethernet.o
    0x08000f00   0x08000f00   0x0000008a   Code   RO          843    i.ETH_link_check_state  app_ethernet.o
    0x08000f8a   0x08000f8a   0x00000002   PAD
    0x08000f8c   0x08000f8c   0x00000028   Code   RO          844    i.Ethernet_Link_Periodic_Handle  app_ethernet.o
    0x08000fb4   0x08000fb4   0x00000110   Code   RO         3924    i.HAL_CAN_ConfigFilter  stm32f4xx_hal_can.o
    0x080010c4   0x080010c4   0x00000002   Code   RO         3926    i.HAL_CAN_ErrorCallback  stm32f4xx_hal_can.o
    0x080010c6   0x080010c6   0x00000002   PAD
    0x080010c8   0x080010c8   0x00000204   Code   RO         3929    i.HAL_CAN_IRQHandler  stm32f4xx_hal_can.o
    0x080012cc   0x080012cc   0x000001a4   Code   RO         3930    i.HAL_CAN_Init      stm32f4xx_hal_can.o
    0x08001470   0x08001470   0x00000090   Code   RO         9880    i.HAL_CAN_MspInit   bsp_can.o
    0x08001500   0x08001500   0x00000102   Code   RO         3934    i.HAL_CAN_Receive_IT  stm32f4xx_hal_can.o
    0x08001602   0x08001602   0x00000002   PAD
    0x08001604   0x08001604   0x00000130   Code   RO         9881    i.HAL_CAN_RxCpltCallback  bsp_can.o
    0x08001734   0x08001734   0x00000002   Code   RO         3939    i.HAL_CAN_TxCpltCallback  stm32f4xx_hal_can.o
