:020000040800F2
:1000000008100020BD0F00080D0F0008150F000894
:10001000170F0008190F00081B0F00080000000050
:100020000000000000000000000000001D0F00089C
:100030001F0F000800000000210F0008230F000818
:10004000E10F0008E50F0008E90F0008ED0F0008B8
:10005000F10F0008F50F0008F90F0008FD0F000868
:100060000110000805100008091000080D10000814
:100070001110000815100008191000081D100008C4
:100080002110000825100008291000082D10000874
:100090003110000835100008391000083D10000824
:1000A0004110000845100008491000084D100008D4
:1000B0005110000855100008591000085D10000884
:1000C0006110000865100008691000086D10000834
:1000D0007110000875100008791000087D100008E4
:1000E0008110000885100008891000088D10000894
:1000F0009110000895100008991000089D10000844
:10010000A1100008A5100008A9100008AD100008F3
:10011000B1100008B5100008B9100008BD100008A3
:10012000C1100008C5100008C9100008CD10000853
:10013000D1100008D5100008D9100008DD10000803
:10014000E1100008E5100008E9100008ED100008B3
:10015000F1100008F5100008F9100008FD10000863
:100160000111000805110008091100080D1100080F
:1001700011110008151100081911000800000000F5
:100180001D1100082111000838B504000025207851
:10019000C0076FD5DFF83C06006810F00C0004289B
:1001A0000BD0DFF83006006810F00C0008280ED1E4
:1001B000DFF824060068400209D5DFF82006006851
:1001C000800357D56068002854D10120CFE16068D2
:1001D000B0F5803F08D1DFF80406006850F48030A5
:1001E000DFF8F815086024E06068B0F5A02F10D1A2
:1001F000DFF8E805006850F48020DFF8E0150860BB
:10020000DFF8D805006850F48030DFF8D0150860BA
:100210000FE0DFF8C805006830F48030DFF8BC1567
:100220000860DFF8B805006830F48020DFF8AC150E
:100230000860606800280ED000F029FB0500DFF898
:100240009C050068800315D400F021FB401B652845
:10025000F5D303208BE100F01AFB0500DFF87C05E5
:100260000068800306D500F012FB401B6528F5D31B
:1002700003207CE1207880072BD5DFF85805006843
:1002800010F00C0F0BD0DFF84C05006810F00C00DC
:10029000082837D1DFF840050068400232D4DFF883
:1002A0003C050068800704D5E068012801D00120E2
:1002B0005DE1DFF8280500685FF0F851B1FA81F1DF
:1002C00030F0F800226912FA01F10843DFF80C154A
:1002D00008602078000762D5606900284CD00120B2
:1002E000DFF8FC14086000F0D2FA0500DFF8F4042F
:1002F0000068800753D400F0CAFA401B0328F5D3E6
:10030000032034E1E068002823D00120DFF8D8146E
:10031000086000F0BCFA0500DFF8C0040068800740
:1003200006D400F0B4FA401B0328F5D303201EE1E5
:10033000DFF8A80400685FF0F851B1FA81F130F0FD
:10034000F800226912FA01F10843DFF890140860FE
:10035000BFE70020DFF89014086000F098FA05006D
:10036000DFF8780400688007B3D500F090FA401BEE
:100370000328F5D30320FAE00020DFF864140860B6
:1003800000F085FA0500DFF85C040068800706D5F8
:1003900000F07DFA401B0328F5D30320E7E0207826
:1003A00040077CD500200090DFF84004006850F042
:1003B0008050DFF838140860DFF83004006810F06F
:1003C000805000900098DFF82804006850F4807096
:1003D000DFF81C14086000F05AFA0500DFF810047A
:1003E0000068C00506D400F052FA401B0328F5D37C
:1003F0000320BCE0A068012808D1DFF8F8030068FA
:1004000050F00100DFF8EC13086023E0A068052835
:1004100010D1DFF8E003006850F00400DFF8D413D7
:100420000860DFF8D003006850F00100DFF8C41363
:1004300008600FE0DFF8BC03006840084000DFF808
:10044000B4130860DFF8AC03006830F00400DFF894
:10045000A4130860A068002810D000F018FA050066
:10046000DFF890030068800719D400F010FA401BF1
:1004700041F289318842F3D3032078E000F007FA93
:100480000500DFF870030068800708D500F0FFF969
:10049000401B41F289318842F3D3032067E0A06911
:1004A000002863D0DFF82C03006810F00C00082847
:1004B0005AD0A069022844D10020DFF83C1308601C
:1004C00000F0E5F90500DFF814030068800106D5A7
:1004D00000F0DDF9401B0328F5D3032047E0DFF8E7
:1004E0001C03B0FA80F14FF44040B0FA80F2F020E3
:1004F000B0FA80F0E369256A2B43656A15FA01F1C9
:100500001943A36A5B085B1E13FA02F21143E26A05
:1005100012FA00F00843DFF8C01208600120DFF88B
:10052000D812086000F0B3F90500DFF8B0020068E7
:1005300080011BD400F0ABF9401B0328F5D3032046
:1005400015E00020DFF8B012086000F0A0F9050007
:10055000DFF888020068800108D500F098F9401B98
:100560000328F5D3032002E0012000E0002032BD83
:1005700070B504000D000026DFF88402006810F05A
:100580000F00A8420BD2DFF878020570DFF8700286
:10059000006810F00F00A84201D00120C0E02078D0
:1005A000800709D5DFF82C02006830F0F000A16860
:1005B0000843DFF8201208602078C00772D5606811
:1005C000012806D1DFF814020068800315D4012049
:1005D000A6E06068022802D06068032806D1DFF830
:1005E000FC010068800108D4012099E0DFF8EC01EB
:1005F0000068800701D4012092E0DFF8D80100688C
:100600008008800061680843DFF8C811086000F0C6
:100610003EF90600606801280FD1DFF8B8010068D4
:1006200010F00C0004283DD000F031F9801B41F29D
:1006300089318842F1D3032072E0606802280FD12B
:10064000DFF89001006810F00C0008282AD000F0B4
:100650001EF9801B41F289318842F1D303205FE00B
:10066000606803280FD1DFF86C01006810F00C00FF
:100670000C2817D000F00BF9801B41F28931884219
:10068000F1D303204CE0DFF84C01006810F00C0FB0
:1006900008D000F0FCF8801B41F289318842F2D387
:1006A00003203DE0DFF85801006810F00F0085429C
:1006B0000BD2DFF84C010570DFF84401006810F040
:1006C0000F00A84201D001202AE02078400707D57A
:1006D0004048006830F4E050E16808433D49086054
:1006E0002078000708D53B48006830F46040216955
:1006F00050EAC1003749086000F017F83549096829
:100700005FF07062B2FA82F23E4B11F0F001D1401C
:10071000C95CC8403C490860002000F0A0F80020F7
:1007200070BD012039490860704700200020002179
:1007300000202848006810F00C00002804D004288D
:1007400004D0082804D034E0314833E0314831E0A7
:100750002148006810F03F001F49096849020DD583
:100760001D4909682B4AB2FBF0F047F6C0721140F0
:10077000224AB2FA82F2D14048430CE01649096895
:10078000234AB2FBF0F047F6C07211401B4AB2FA9E
:1007900082F2D14048431049096811F440314FF4C6
:1007A0004042B2FA82F2D140491C4900B0FBF1F05C
:1007B00000E01748704714480068704780B5164835
:1007C0000068000604D500F02BF88020134908705B
:1007D00001BD0000083802400438024000380240E1
:1007E000800E4742743802400000474240380240C1
:1007F0000070004070380240600047420000FE0375
:10080000003C0240AC0F0008000000204C004742B2
:100810000024F40000127A000C3802400E38024026
:100820007047000080B51B48006850F400701949FB
:1008300008601848006850F4806016490860154840
:10084000006850F4807013490860032000F082F8BB
:10085000002000F004F800F0BAF8002002BD10B546
:1008600004000D4800684FF47A71B0FBF1F000F01D
:1008700086F8002221005FF0FF3000F06FF80020C2
:1008800010BD06480068401C0449086070470348D2
:1008900000687047003C0240000000200400002077
:1008A00010F00701404800684FF6FF0210403F4A31
:1008B00052EA012108433C49086070473A48006801
:1008C000C0F30220704740B2002808D50901384A19
:1008D00040B210F00F00801800F8041C03E009017A
:1008E000344A40B28154704710B410F00700D0F180
:1008F0000703052B01D3042301E0D0F10703041DF6
:10090000072C01D2002000E0C01E012414FA03F3DA
:100910005B1E19408140012313FA00F0401E104075
:10092000084310BC704780B5411EB1F1807F01D3F0
:1009300001200EE0401E204908600F215FF0FF30CB
:10094000FFF7C1FF00201D49086007201C4908600F
:10095000002002BD80B5FFF7A3FF01BD70B5040004
:100960000D0016000020FFF7A9FF32002900FFF755
:10097000BBFF0100200040B2FFF7A5FF70BD80B5AE
:10098000FFF7D1FF02BD042806D10D48006850F0E2
:1009900004000B49086005E00948006830F00400D5
:1009A00007490860704700000CED00E00000FA0500
:1009B00018ED00E000E400E014E000E018E000E0E2
:1009C00010E000E080B500F001F801BD704780B58F
:1009D0000520FFF7BFFF002200217FF00B00FFF78B
:1009E000BDFF002200217FF00A00FFF7B7FF0022C1
:1009F00000217FF00900FFF7B1FF002200217FF006
:100A00000400FFF7ABFF002200217FF00300FFF797
:100A1000A5FF002200217FF00100FFF79FFF0022C9
:100A200000215FF0FF30FFF799FF01BD78B400248B
:100A300000230024002237E00825EDB212F003065F
:100A4000F6B2B600B5402C43DFF8D051960845F811
:100A50002640DFF8CC4124689C434D68ED0300D567
:100A60001C43DFF8BC512C60DFF8B84124689C437C
:100A70004D68AD0300D51C43DFF8A8512C60DFF8AA
:100A8000A84124689C434D68ED0200D51C43DFF863
:100A900098512C60654C24689C434D68AD0200D58C
:100AA0001C43624B1C60521C102A80F0AA80012358
:100AB00013FA02F40B682340A342F4D14C68022CD1
:100AC00002D04C68122C15D1D40810EB8404246A8F
:100AD0000F2512F00706F6B2B600B540AC430D691B
:100AE00012F00706F6B2B600B5402C43D50810EB5D
:100AF00085052C62046803251600F6B27600B54021
:100B0000AC430D7915F003051600F6B27600B5403A
:100B10002C4304604C68012C08D04C68022C05D092
:100B20004C68112C02D04C68122C17D18468032514
:100B30001600F6B27600B540AC43CD681600F6B2AA
:100B40007600B5402C438460446801259540AC4351
:100B50004D68C5F3001595402C434460C4680325D7
:100B60001600F6B27600B540AC438D681600F6B2BA
:100B70007600B5402C43C4604C68E40093D5002453
:100B800000942B4C246854F48044294D2C60284C4C
:100B9000246814F480440094009C204C950854F878
:100BA00025400F2512F00306F6B2B600B540AC435F
:100BB000204DA84201D100253FE71F4DA84201D199
:100BC00001253AE71D4DA84201D1022535E71C4D0C
:100BD000A84201D1032530E71A4DA84201D10425CE
:100BE0002BE7194DA84201D1052526E7174DA8424C
:100BF00001D1062521E7164DA8427FF41DAF072538
:100C00001BE771BC704752B2002A02D089B28161E1
:100C100002E089B209048161704700000838014090
:100C2000003C0140043C0140083C01400C3C0140B8
:100C30004438024000000240000402400008024024
:100C4000000C024000100240001402400018024054
:100C5000001C024080B5FFF7E5FD00F003F800F04E
:100C60006FF8FEE700B593B00020009030480068B0
:100C700050F080502E4908602D48006810F08050D8
:100C800000900098002000902A48006850F48040AE
:100C9000284908602748006810F4804000900098B8
:100CA000012006905FF48030079002200C905FF4E2
:100CB00080000D9008200E904FF4A8700F90022035
:100CC00010900420119006A8FFF75EFA002803D0C8
:100CD0008721194800F032F80F200190022002907D
:100CE000002003904FF4A05004904FF480500590E2
:100CF000052101A8FFF73CFC002803D095210E48F0
:100D000000F01CF8FFF70DFDFFF755FD4FF47A7169
:100D1000B0FBF1F0FFF733FE0420FFF734FE0022B2
:100D200000215FF0FF30FFF719FE13B000BD000097
:100D300040380240007000405C0E0008FEE70000F2
:100D400000B587B0002000902648006850F01000E1
:100D5000244908602348006810F0100000900098B3
:100D6000002000901F48006850F080001D49086076
:100D70001C48006810F0800000900098002000904F
:100D80001848006850F001001649086015480068CE
:100D900010F0010000900098012260211248FFF736
:100DA00032FF01224FF400711048FFF72CFF602042
:100DB000019001200290002003900020049001A9DE
:100DC0000948FFF733FE4FF40070019001200290B4
:100DD000002003900020049001A90448FFF726FE9C
:100DE00007B000BD3038024000100240001C024035
:100DF0001248006850F470001049086010480068FC
:100E000050F001000E49086000200E4908600C48AF
:100E100000680D4908400A4908600C480C49086000
:100E20000748006830F4802005490860002009491F
:100E300008605FF0006008490860704788ED00E0D6
:100E40000038024008380240FFFFF6FE1030002450
:100E5000043802400C38024008ED00E0433A5C558B
:100E6000736572735C79696E67736869375C446532
:100E7000736B746F705CBBF9B1BEC2E3BBFAC0FDAB
:100E8000B3CCD0DEB8C42DCDEA5C595346345F48AC
:100E9000414C2D3030302E2053544D333243756247
:100EA000654D58C8EDBCFECAB9D3C35C5372635CD0
:100EB0006D61696E2E63000010B450F8041B79B1A7
:100EC0000268436812180830DC0744BFA9F1010426
:100ED000E31852F8044B43F8044B091FF9D1ECE72F
:100EE00010BC704710B5074979441831064C7C4452
:100EF000163404E00A68081D511888470146A142CB
:100F0000F8D110BD500000006000000080B5FFF770
:100F100055FC01BDFEE7FEE7FEE7FEE770477047C0
:100F2000704780B5FFF7ADFCFFF74CFD01BD000039
:100F30004EF68851CEF20001086840F47000086057
:100F4000BFF34F8FBFF36F8F4FF00070E1EE100AC9
:100F50007047000065FFFFFF080000007C000000F4
:100F6000000000200000000000F00BF8002801D075
:100F7000FFF7B8FF0020C046C046FFF76BFE00F049
:100F800002F80120704700F001B80000074638461B
:100F900000F002F8FBE7000080B5C046C046024AF8
:100FA00011001820ABBEFBE7260002000000000085
:100FB00000000000010203040607080901488047F9
:100FC00001480047F10D0008CD0F0008C046C0469B
:100FD000FFF7AEFFFFF7C8FF0024F4000000000099
:100FE000FFF7FEBFFFF7FEBFFFF7FEBFFFF7FEBF35
:100FF000FFF7FEBFFFF7FEBFFFF7FEBFFFF7FEBF25
:10100000FFF7FEBFFFF7FEBFFFF7FEBFFFF7FEBF14
:10101000FFF7FEBFFFF7FEBFFFF7FEBFFFF7FEBF04
:10102000FFF7FEBFFFF7FEBFFFF7FEBFFFF7FEBFF4
:10103000FFF7FEBFFFF7FEBFFFF7FEBFFFF7FEBFE4
:10104000FFF7FEBFFFF7FEBFFFF7FEBFFFF7FEBFD4
:10105000FFF7FEBFFFF7FEBFFFF7FEBFFFF7FEBFC4
:10106000FFF7FEBFFFF7FEBFFFF7FEBFFFF7FEBFB4
:10107000FFF7FEBFFFF7FEBFFFF7FEBFFFF7FEBFA4
:10108000FFF7FEBFFFF7FEBFFFF7FEBFFFF7FEBF94
:10109000FFF7FEBFFFF7FEBFFFF7FEBFFFF7FEBF84
:1010A000FFF7FEBFFFF7FEBFFFF7FEBFFFF7FEBF74
:1010B000FFF7FEBFFFF7FEBFFFF7FEBFFFF7FEBF64
:1010C000FFF7FEBFFFF7FEBFFFF7FEBFFFF7FEBF54
:1010D000FFF7FEBFFFF7FEBFFFF7FEBFFFF7FEBF44
:1010E000FFF7FEBFFFF7FEBFFFF7FEBFFFF7FEBF34
:1010F000FFF7FEBFFFF7FEBFFFF7FEBFFFF7FEBF24
:10110000FFF7FEBFFFF7FEBFFFF7FEBFFFF7FEBF13
:10111000FFF7FEBFFFF7FEBFFFF7FEBFFFF7FEBF03
:04112000FFF7FEBF18
:0400000508000FCD13
:00000001FF
