:020000040800F2
:10000000400900209D010008E71200083112000895
:10001000E5120008A9020008991600080000000077
:10002000000000000000000000000000EF120008C7
:100030004103000800000000EB120008F112000864
:10004000B7010008B7010008B7010008B7010008B0
:10005000B7010008ED120008B7010008B701000859
:10006000B7010008B7010008B7010008B701000890
:10007000B7010008B7010008B7010008B701000880
:10008000AD020008B9020008B7010008B701000876
:10009000B7010008B7010008B7010008B701000860
:1000A000B7010008B7010008B7010008B701000850
:1000B000B7010008B7010008B7010008B701000840
:1000C000B7010008B7010008B7010008B701000830
:1000D000B7010008B701000885160008B70100083D
:1000E000B7010008B7010008B7010008B701000810
:1000F000B7010008B7010008B7010008B701000800
:10010000B7010008B7010008B7010008B7010008EF
:10011000B7010008B7010008B7010008B7010008DF
:10012000B7010008B7010008B7010008B7010008CF
:10013000B7010008B7010008B7010008B7010008BF
:10014000B7010008B7010008B7010008B7010008AF
:10015000B7010008B7010008B7010008B70100089F
:10016000B7010008B7010008B7010008B70100088F
:10017000B7010008B7010008B7010008000000003F
:10018000B7010008B7010008DFF80CD000F07AF8DA
:1001900000480047F916000840090020064880473B
:1001A00006480047FEE7FEE7FEE7FEE7FEE7FEE75C
:1001B000FEE7FEE7FEE7FEE781130008890100087D
:1001C0002DE9F05F0546002092469B46884606468C
:1001D000814640241BE0284641464746224600F01F
:1001E00041F853465A46C01A914110D31146184659
:1001F000224600F028F82D1A67EB01084F462246E8
:100200000120002100F01FF817EB00094E41201ECD
:10021000A4F10104DFDC484631462A464346BDE8E6
:10022000F09FD2B201E000F8012B491EFBD27047CB
:100230000022F6E710B513460A4604461946FFF7B2
:10024000F0FF204610BD202A04DB203A00FA02F11C
:10025000002070479140C2F1200320FA03F31943B4
:1002600090407047202A04DB203A21FA02F0002156
:10027000704721FA02F3D040C2F1200291400843B6
:1002800019467047064C074D06E0E06840F0010350
:1002900094E8070098471034AC42F6D3FFF778FF94
:1002A000C4170008E4170008FEE70000014800F04A
:1002B0005BB8000080040020014800F055B8000041
:1002C000E004002001681823CAB2103AB2FBF3F22E
:1002D000054B6FF30901032A9B5CC36500D9091D17
:1002E0008165084670470000A417000810B5014654
:1002F00000208B698A6A4FF0C07453B1B3F5005F78
:1003000015D072B1012A0CD0022A0AD0032A09D1D1
:1003100004E01AB1012A06D0022A03D1C96AC90130
:1003200000D5012010BDC96AA142FAD010BD002A33
:10033000F7D0012AF2D0022AF3D0032AF3D010BD5D
:100340007047704790F83510022903D0802141652D
:1003500001207047052180F835100068016821F000
:1003600001010160002070472DE9F84304464FF079
:100370000009CDF8009063484FF41651A56D006850
:10038000B0FBF1F72E6894F85C20082101FA02F026
:1003900030420FD02068026852070BD5026822F065
:1003A0000402026094F85C008140A960606D40F036
:1003B0000100606594F85C104FF0010808FA01F044
:1003C000304208D021684969090604D5A860606DEB
:1003D00040F00200606594F85C10042088403042D0
:1003E00008D021680968890704D5A860606D40F0CD
:1003F0000400606594F85C1010208840304218D0EA
:1004000021680968090714D5A860206801684903B4
:1004100004D50068000308D5A16C07E00168C90590
:1004200003D4016821F008010160216C09B1204664
:10043000884794F85C1020208840304231D02168F1
:100440000968C9062DD5A86094F8350005282068EC
:10045000016806D0490347D5006800031DD4616CCC
:100460001CE021F0160101602068416921F0800143
:100470004161206C08B9A06C20B12068016821F0AE
:100480000801016094F85C103F208840A86084F85F
:10049000349084F83580216D1FE0E16B09B120466E
:1004A0008847606D00282BD0606DC00714D00520F0
:1004B00084F835002068016821F00101016000988E
:1004C000401C0090B84203D820680068C007F6D1ED
:1004D00084F8349084F83580E16C002910D001B0A4
:1004E0002046BDE8F04308470168C905D5D4016836
:1004F00021F01001016084F8349084F83580CCE755
:10050000BDE8F8833C0000202DE9F041044600F0EE
:1005100051F905465CB1002684F83460022084F865
:1005200035002068016821F0010101600DE0012023
:10053000BDE8F08100F03EF9401B052805D92020D8
:100540006065032084F83500F2E720680068C00782
:10055000F0D121680A6820480240D4E90103184319
:10056000D4E903352B43184363691843A36918433F
:10057000E3691843236A18431043626A042A03D1CB
:10058000D4E90B231A431043086020684069656A68
:1005900020F0070128460D43012704280CD1A06A4A
:1005A0000543E06A40B12046FFF7A0FE20B140209D
:1005B000606584F83570BAE7206845612046FFF72A
:1005C00081FE94F85C203F2191408160666584F84B
:1005D00035700020ACE700003F8010F070B5044695
:1005E00000F0E8F80546601C02D004480078044496
:1005F00000F0E0F8401BA042FAD370BD30000020AC
:100600002DE9F84FDFF880B100224FF003094FF0D9
:100610000F0A0BF1040E01250B6895402B40AB42ED
:1006200072D14C68012C05D0022C03D0112C01D0C2
:10063000122C10D18668540009FA04F7BE43CF6823
:10064000A7403743876046680C79AE43C4F3001473
:10065000944034434460C468570009FA07F58E6833
:10066000AC43BE402643C6604C68022C01D0122C1D
:1006700012D1D40800EB840CDCF820605407E40E9F
:100680000AFA04F826EA0806D1F8108008FA04F8F5
:1006900048EA0608CCF820800468AC430D7905F0E0
:1006A0000305BD40254305604C68E40065D5374C23
:1006B000256845F480452560246822F0030504F48C
:1006C00080440094324C2E19D6F808789407250FF0
:1006D0000AFA05F4A7432F4CA04201D1002424E0DC
:1006E0002D4CA04201D101241FE02C4CA04201D18D
:1006F00002241AE02A4CA04201D1032415E0294C1F
:10070000A04202D1042410E037E0274CA04201D1DE
:1007100005240AE0254CA04201D1062405E0244C22
:10072000A04201D1072400E00824AC403C43C6F8B5
:100730000848DBF800405D464E689C43F60300D550
:100740001C432C60DEF8004075464E689C43B6039F
:1007500000D51C432C600C4D08352C684E689C431A
:10076000F60200D51C432C60074D0C352C684E68F2
:100770009C43B60200D51C432C60521C102AFFF487
:100780004AAFBDE8F88F0000003C01404438024009
:100790000030014000000240000402400008024016
:1007A000000C0240001002400014024000180240F9
:1007B000001C0240014880687047000030000020A3
:1007C000024881680278114481607047300000203F
:1007D0000B4810B5016841F400710160016841F4F3
:1007E00080610160016841F480710160032000F0C4
:1007F00077F8002000F006F800F024F8002010BD83
:10080000003C024070B50D4D04464FF47A712878D3
:10081000B1FBF0F00A490968B1FBF0F000F018FBF9
:1008200048B9102C07D200222146501E00F038F89B
:1008300000206C6070BD012070BD00003000002001
:100840003C0000200E4808B5016841F48041016079
:10085000006800F4804000900948001F016841F0E2
:10086000805101600068002200F080500090114625
:10087000052000F015F8BDE80840052000F002B89A
:1008800044380240002809DB00F01F02012191409A
:100890004009800000F1E020C0F80011704700001E
:1008A000F0B40E4B1B68C3F30223C3F10704042CFE
:1008B00000D904241D1D072D01D2002300E0DB1EFA
:1008C000012606FA04F56D1E0D409D409E40761EE1
:1008D000164045EA0601F0BC00F0DFBE0CED00E07A
:1008E000064A00F0070110684FF6FF03184040EA7F
:1008F0000120034908431060704700000CED00E040
:100900000000FA05704700002DE9F0470D4604008D
:1009100065D0DFF81491D9F80000EFB200F00F00B5
:10092000A84207D289F80070D9F8000000F00F0043
:10093000A84254D120683D4E810712D5400703D507
:10094000306840F4E05030602078000703D530680C
:1009500040F4604030603068A16820F0F000084347
:1009600030602078C0072DD03049606808390128F0
:1009700012D0022813D0032811D009688907002952
:100980002DDA316821F0030101433160FFF712FFD6
:10099000804641F2883A0EE009688903EFE709686A
:1009A0008901ECE7FFF706FFA0EB0801514502D9EA
:1009B0000320BDE8F0873068616800F00C00B0EB00
:1009C000810FEFD1D9F80010484601F00F01A9427C
:1009D00007D90770006800F00F00A84201D001207D
:1009E000E7E72078400705D53068E16820F4E0505B
:1009F000084330602078000706D53068216920F46C
:100A0000604040EAC100306000F03EF83168084ABA
:100A1000C1F30311515CC8400649086006480068EC
:100A2000FFF7F0FE0020C4E7003C02400838024017
:100A3000AC1700083C0000203400002001490120D0
:100A4000C8647047000047420448054900680968C7
:100A5000044AC1F38221515CC84070473C00002029
:100A600008380240BC1700080448054900680968B6
:100A7000044AC1F34231515CC84070473C00002039
:100A800008380240BC170008154810B5006810F07F
:100A90000C01144813D0431004290FD008290ED19B
:100AA0000F4C241F216801F03F022168490207D53D
:100AB0002068C0F38810A0FB030106E0184610BDB3
:100AC0002168C1F38811A1FB00010023FFF778FB27
:100AD0002168C1F30141491C4900B0FBF1F010BD90
:100AE000083802400024F400054810B500680006EC
:100AF00005D5FFF707FF02498020891C087010BD4B
:100B00000C3802402DE9F84F040075D02078DFF84A
:100B100028B3CA4DC00748D0DBF800105846C1F3CF
:100B20008101012908D00068C0F3810002280AD1A0
:100B3000281D0068400206D52868800335D5606806
:100B40000028E2D031E06068B0F5803F10D0B0F509
:100B5000A02F286810D020F480302860286820F466
:100B6000802028606068A0B1FFF724FE06460CE0F4
:100B7000286840F48030F4E740F480202860F7E7EC
:100B8000FFF718FE801B642872D828688003F7D509
:100B90000BE0FFF70FFE064604E0FFF70BFE801B9D
:100BA0006428F1D828688003F7D42078DFF8909281
:100BB00080074FF0000A3ED5DBF80010584611F0D0
:100BC0000C0F09D00068C0F3810002280BD19A48AD
:100BD000001F0068400206D42868800715D5E06829
:100BE000012809D111E0E068B8B10120C9F800007E
:100BF000FFF7E0FD064605E01AE1FFF7DBFD801B8D
:100C00000228C1D828688007F7D52868216920F014
:100C1000F80040EAC10028600DE0C9F800A0FFF725
:100C2000C9FD064604E0FFF7C5FD801B02281FD85A
:100C300028688007F7D42078000722D57E4F8148A6
:100C400061696C3771B101210160FFF7B3FD0646A0
:100C500004E0FFF7AFFD801B022809D83868800741
:100C6000F7D50EE0C0F800A0FFF7A4FD064605E0AA
:100C700082E0FFF79FFD801B02287DD8386880073F
:100C8000F7D42078400765D56B484FF0000838301E
:100C90000068C0000BD468483830016841F08051CA
:100CA000016000684FF0010800F080500090664F2E
:100CB0003868C0050FD4386840F480703860FFF79A
:100CC00079FD064604E0FFF775FD801B022853D826
:100CD0003868C005F7D5584FA068683701280FD08D
:100CE0000528386810D020F001003860386820F0FE
:100CF00004003860A068B0B1FFF75CFD06460EE066
:100D0000386840F00100F4E740F004003860F7E78D
:100D1000FFF750FD811B41F28830814264D838686A
:100D20008007F5D50DE0FFF745FD064606E0FFF725
:100D300041FD811B41F28830814255D838688007D7
:100D4000F5D4B8F1000F05D03B483830016821F0E8
:100D500080510160A069C0B3DBF800205946C2F39E
:100D60008102022A47D00228504606D0C9F8600006
:100D7000FFF720FD04463AE036E04F46C9F8600030
:100D8000FFF718FD064604E0FFF714FD801B02285C
:100D90002AD828688001F7D4D4E907010843A16A5A
:100DA0002A4A490802EB0141626A41EA821108437A
:100DB00094F82C1040EA01611F48001F01600120D7
:100DC0003866FFF7F7FC044605E033E0FFF7F2FC76
:100DD000001B022808D828688001F7D52AE0FFF711
:100DE000E9FC001B022802D90320BDE8F88F28681F
:100DF0008001F4D41EE00128F7D00868E26900F40D
:100E00008001914214D1226A00F03F0191420FD13A
:100E100047F6C071626A0140914209D1A26A00F4AA
:100E20004031914204D1E16A00F07060884201D003
:100E30000120DAE70020D8E70838024000380240F5
:100E400000004742800E4742007000400000FFFF54
:100E500010B5401EB0F1807F01D3012010BD4FF0CE
:100E6000E02460610F21601700F017FC0020A061F2
:100E700007202061002010BD7047000070B5026897
:100E800004461068D168536910F00F0F52D003F078
:100E9000010501F490762E435FD0C20705D0CA0544
:100EA00003D5E26B42F00102E263420705D5DA079F
:100EB00003D0E26B42F00202E263820705D5DA0753
:100EC00003D0E26B42F00402E263020707D501F0AF
:100ED00020022A4303D0E26B42F00802E263E26B95
:100EE000002A33D0800604D5880602D5204600F0BB
:100EF00087FA20684069E16BC0F38010090700D4CD
:100F000028B3204600F06EFA2068416949061AD5D8
:100F1000416921F040014161606BA0B11B4901654D
:100F2000606BFFF70FFA002810D0606B016DBDE811
:100F300070400847830610D58B060ED52046BDE8C5
:100F4000704000F05DBA2046FFF796FF70BD204666
:100F5000FFF792FF0020E06370BD030606D50B0685
:100F600004D52046BDE8704000F02ABB4006F3D50A
:100F70004806F1D5D168204621F04001D1602021FA
:100F800084F8391000F053F970BD0000D513000843
:100F900070B5040004D094F83900002510B106E0C3
:100FA000012070BD84F83850204600F023F824203A
:100FB00084F839002068C16821F40051C1602046DE
:100FC00000F06AFA2068016921F49041016120680B
:100FD000416921F02A0141612068C16841F4005152
:100FE000C160E563202084F8390084F83A000020CD
:100FF00070BD00002DE9F04186B00446142168461A
:10100000FFF716F935482168814263D1344800253D
:10101000016841F400310160006800F4003005907F
:101020002F481038016841F0080101600068012173
:1010300000F008000590602000900220CDE9010139
:1010400003900720049069462648FFF7D9FA274EF7
:1010500025484FF000673060C6E901754FF480689D
:10106000C6E903587561B561F56135623046756250
:10107000FFF74AFA08B1FFF764F96663B4631B4EE1
:10108000194860361830E6E802074020A6E821013A
:10109000164846F814596030B561F56135627562DD
:1010A000FFF732FA08B1FFF74CF926630022114628
:1010B0002620B463FFF7F4FB2620FFF7E3FB0B4881
:1010C0006FF020014038026811600068C16821F0AB
:1010D0002001C16006B0BDE8F0810000004400407E
:1010E00040380240000C024088600240800400202A
:1010F00090F83A30202B22D1F9B1F2B190F8383083
:10110000012B1CD081628285C2850021C16322220D
:1011100080F83A2080F838100168CA6842F480727A
:10112000CA6001684A6942F001024A610068C16808
:1011300041F02001C160002070470120704702206B
:101140007047704708484188B1F5806F0BD201782D
:10115000064A4388D1544188491C418001460122F6
:101160000348FFF7C5BF7047000000204000002083
:10117000400400202DE9F843044690F839001E464B
:1011800017460D46202850D1B5B1AFB194F83800BC
:1011900001284AD0012084F838004FF00008C4F834
:1011A0003C80212084F83900FFF704FBA7848146A6
:1011B000E78484F8388026E00120BDE8F883E08CDD
:1011C000401EE084A0684B46B0F5805F4FF00002FF
:1011D0004FF080012046009603D000F022FAE8B9D3
:1011E0000DE000F01EFAC8B928882168C0F3080095
:1011F0004860206908B16D1C05E0AD1C03E0216862
:1012000015F8010B4860E08C0028D8D14B4600222D
:1012100040212046009600F004FA08B10320CCE7F4
:10122000202084F839000020C7E70220C5E7704776
:10123000FEE700000D4808B5016841F400110160A7
:101240000068002200F40010009011461020FFF703
:1012500027FB1020FFF716FB002211461120FFF795
:101260001FFBBDE808401120FFF70CBB30380240DF
:101270000D4808B5016841F080010160016801F086
:1012800080010091016841F001010160016801F0F5
:1012900001010091016841F008010160006800F05F
:1012A0000800009008BD0000303802400C4810B51E
:1012B0000A4901604FF4E1314160002181600C2254
:1012C000C160C0E904128161C161FFF761FE0028BD
:1012D00003D0BDE81040FFF734B810BD0044004013
:1012E00040040020FEE7FFF7FFBB704770477047E0
:1012F000FFF766BA30B593B030216846FEF798FF25
:1013000014210CA8FEF794FF1B480025016841F04A
:1013100080510160006800F080501190174801680A
:1013200041F4804101600068022400F48040119083
:10133000032000904FF4803001908001CDE90640F9
:10134000082008904FF4A870CDE9090404200B9000
:101350006846FFF7D7FB0CA90F2081E831004FF456
:10136000A0500F90E002109005210CA8FFF7CCFAD6
:10137000FFF764FB13B030BD4038024000700040FE
:101380001048016841F4700101600F48016841F0A4
:10139000010101600C4A00210832116002680B4B08
:1013A0001A400260031D0A4A1A60026822F4802271
:1013B000026005480C300160024958068039086017
:1013C0007047000088ED00E000380240FFFFF6FEA5
:1013D0001030002410B5806B0021C185C184FFF757
:1013E0004BFD10BD0168CA6822F49072CA600168A2
:1013F0004A6922F001024A61202180F83A107047C0
:1014000010B590F83A10222901D0022010BD816851
:10141000B1F5805F11D00169002901681FD04968CA
:1014200001F07F03816A4A1C82620B70C18D491EE4
:101430000904090CC18518D02BE00269816A002AD1
:101440000268526805D0D2B20A80816A491C816262
:10145000ECE7C2F308020A80816A891CF7E74A6850
:10146000816A4B1C83620A70E0E70168CA6822F057
:101470002002CA600168CA6822F48072CA600168EA
:101480004A6922F001024A61202180F83A10FFF7F0
:1014900059FE002010BD00002DE9F041044600680F
:1014A0000169E26821F4405111430161A16820699A
:1014B000E26901436069104301432068C26849F250
:1014C0000C639A430A43C26020684169A26921F40F
:1014D000407111434161E069192764253226B0F556
:1014E000004F354A354920684FF0000806D0884241
:1014F00001D0904236D1FFF7B7FA35E0884201D0EB
:10150000904202D1FFF7B0FA01E0FFF79DFA61685F
:101510004A18A0FB070148EB0803FEF751FE0146FD
:10152000B0FBF5F00201B1FBF5F06FF01803584382
:1015300001EB800006EBC000B0FBF5F000F0F80016
:1015400002EB4002B1FBF5F0584301EB800006EBE3
:10155000C000B0FBF5F000F007002168104488607F
:10156000BDE8F081FFF770FA01466068830F8200E2
:10157000A1FB0701FEF724FE0146B0FBF5F06FF07A
:101580001802504301EB800006EB0010B0FBF5F0B1
:1015900000F0F002B1FBF5F002EB0012B1FBF5F048
:1015A0006FF01803584301EB800006EB0010B0FB0E
:1015B000F5F000F00F00D0E70014014000100140EA
:1015C00090F83910212901D0022070478168B1F5C7
:1015D000805F016A0BD04A1C026202680978516080
:1015E000C18C491E0904090CC1840ED017E009887A
:1015F0000268C1F30801516001690029016A02D043
:10160000491C0162ECE7891CFBE70168CA6822F00B
:101610008002CA600068C16841F04001C1600020DA
:1016200070472DE9F0411E46174688460446069D40
:101630001CE0681C1AD025B1FFF7BCF8801BA8423B
:1016400014D92068C16821F4D071C1602068416953
:1016500021F001014161202084F8390084F83A002A
:10166000002084F838000320BDE8F081206801687C
:1016700038EA010004D00020B842DAD00020F3E7B5
:101680000120F9E710B5FFF75CFDBDE81040014807
:10169000FFF7F4BB40040020FEE70907090E00280D
:1016A00004DB00F1E02080F80014704700F00F0028
:1016B00000F1E02080F8141D704702E008C8121FF6
:1016C00008C1002AFAD170477047002001E001C12B
:1016D000121F002AFBD17047054A002140F2014049
:1016E0005180044A401E0004000C1154FAD1704786
:1016F0000000002040000020FFF76AF8FFF7FAFD25
:10170000FFF7B6FDFFF796FDFFF7D0FD0122034975
:101710000348FFF7EDFC00F005F8FCE700000020AF
:1017200040040020F8B51C4E1C4D00244FF6FF77F6
:101730003B460B221A491848FFF71CFD3068016828
:10174000C9430906FBD4B420FEF748FF14482438E7
:101750004088ADF80000D8B1687AC8B10B20295C88
:10176000401C2144C0B2CCB21728F8D36042E97DB6
:10177000C0B281420CD10A48E97C20380170297D31
:101780004170697D8170A97DC170FFF7A5FFF8BD2B
:10179000FFF7A2FFCCE7000040040020400000203B
:1017A000240000200006101600061016000000009D
:1017B0000000000001020304060708090000000001
:1017C00001020304E41700080000002040000000AC
:1017D000BA16000824180008400000200009000084
:1017E000CA16000800000000000000000000000011
:1017F000555500000000000000000000000000003F
:10180000FF03FDD4140117000000FF04FCD44A01BB
:1018100000E10000010000001000000000000000D6
:041820000024F400AC
:040000050800018965
:00000001FF
