:020000040800F2
:10000000581000209D010008EF110008FD0F0008A6
:10001000ED11000887020008191D0008000000000B
:100020000000000000000000000000003D18000873
:100030000B0300080000000009160008591800080A
:10004000B7010008B7010008B7010008B7010008B0
:10005000B70100080D170008B7010008B701000834
:10006000B7010008B7010008B7010008B701000890
:10007000B7010008B7010008B7010008B701000880
:10008000B7010008B7010008B7010008B701000870
:10009000B7010008B7010008B7010008B701000860
:1000A000B7010008B7010008B7010008B701000850
:1000B000B7010008B7010008B7010008B701000840
:1000C000B7010008B7010008B7010008B701000830
:1000D000B7010008B7010008B7010008B701000820
:1000E000B7010008B7010008B7010008B701000810
:1000F000B7010008B7010008B7010008B701000800
:10010000B7010008B7010008B7010008B7010008EF
:10011000B7010008B7010008B7010008B7010008DF
:10012000B7010008B7010008B7010008B7010008CF
:10013000B7010008B7010008B7010008B7010008BF
:10014000B7010008B7010008B7010008B7010008AF
:10015000B7010008B7010008B7010008B70100089F
:10016000B7010008B7010008B7010008B70100088F
:10017000B7010008B7010008B7010008000000003F
:10018000B7010008B7010008DFF80CD000F04AF80A
:1001900000480047452200085810002006488047C4
:1001A00006480047FEE7FEE7FEE7FEE7FEE7FEE75C
:1001B000FEE7FEE7FEE7FEE70519000889010008F3
:1001C0002DE9F05F0546002092469B46884606468C
:1001D000814640241BE0284641464746224600F01F
:1001E00042F853465A46C01A914110D31146184658
:1001F000224600F029F82D1A67EB01084F462246E7
:100200000120002100F020F817EB00094E41201ECC
:10021000A4F10104DFDC484631462A464346BDE8E6
:10022000F09F0000064C074D06E0E06840F0010337
:1002300094E8070098471034AC42F6D3FFF7A8FFC4
:10024000AC220008CC220008202A04DB203A00FA65
:1002500002F1002070479140C2F1200320FA03F31D
:10026000194390407047202A04DB203A21FA02F01B
:100270000021704721FA02F3D040C2F120029140E0
:10028000084319467047FEE72DE9F04105460F4641
:1002900016460421052000F02BF80021012001F072
:1002A0003DFD80210A2001F0CAFA0024002F07D961
:1002B000295D092001F032FD601CC4B2BC42F7D3B5
:1002C0000321012001F02AFDFF24052001F020FA7E
:1002D000611ECCB214B110F0040FF6D0222001F050
:1002E00017FA3070212001F013FA7070BDE8F08128
:1002F00070B505460C46284601F00AFA20EA0401CA
:100300002846BDE8704001F009BD704731B500F0E6
:1003100029F90546009CB4F1FF3F00D0641C00F0B1
:1003200021F9401BA042FAD338BD00002DE9F84F57
:100330000022DFF80082DFF80092DFF800A24FF021
:10034000030E0F27012303FA02F50B682B40AB4283
:100350007DD1D1F804C0BCF1020F02D0BCF1120F64
:1003600012D14FEAD20C00EB8C0CDCF82060540761
:10037000E40E07FA04FB26EA0B06D1F810B00BFADC
:1003800004F43443CCF8204006684FEA420C0EFADD
:100390000CF4A64391F804B00BF0030B0BFA0CFB22
:1003A0004BEA060606604E68012E05D0022E03D0E9
:1003B000112E01D0122E11D18668A643D1F80CB0AF
:1003C0000BFA0CFB4BEA06068660466826EA050532
:1003D0000E79C6F30016964035434560C56825EA98
:1003E00004048D6805FA0CFC4CEA040CC0F80CC03F
:1003F000D1F804C01CF0805F7DD0D8F800C04CF468
:10040000804CC8F800C0D8F800C00CF4804CCDF87F
:1004100000C022F0030C0CF1804404F59834D4F8A9
:1004200008C895072D0F07FA05F62CEA0606A0F175
:10043000804CBCF5003C64D0A0F1804CBCF5013C84
:1004400062D0A0F1804CBCF5023C60D000E052E0EC
:10045000A0F1804CBCF5033C5CD0A0F1804CBCF515
:10046000043C5AD0A0F1804CBCF5053C58D0A0F11A
:10047000804CBCF5063C56D0A0F1804CBCF5073C46
:1004800054D04FF0080C0CFA05FC4CEA060CC4F8EA
:1004900008C8D9F800C02CEA030C4C6814F4803F5B
:1004A00001D04CEA030CC9F800C0254CD4F800C0B8
:1004B0002CEA030C4D6815F4003F01D04CEA030C04
:1004C000C4F800C0DAF800C02CEA030C4C6814F43D
:1004D000801F01D04CEA030CCAF800C0194CD4F8B4
:1004E00000C02CEA030C4D6815F4001F01D04CEA43
:1004F000030CC4F800C0521C102AFFF423AFBDE85F
:10050000F88F4FF0000CBEE74FF0010CBBE74FF047
:10051000020CB8E74FF0030CB5E74FF0040CB2E75C
:100520004FF0050CAFE74FF0060CACE74FF0070CAF
:10053000A9E7000044380240003C0140083C01406B
:10054000043C01400C3C01400069084201D00120FC
:10055000704700207047002A01D08161704709046C
:100560008161704701480068704700000C0000205E
:1005700002480168491C0160704700000C0000201F
:1005800010B50B48016841F400710160016841F445
:1005900080610160016841F480710160032000F016
:1005A00091F8002000F006F800F018F8002010BDC7
:1005B000003C024010B5044607484FF47A720068C8
:1005C000B0FBF2F000F036FC00222146501E00F095
:1005D00045F8002010BD00001000002010B50320D9
:1005E00000F070F8002211466FF00B0000F036F8B2
:1005F000002211466FF00A0000F030F80022114688
:100600006FF0090000F02AF800221146501F00F098
:1006100025F800221146101F00F020F80022114694
:10062000901E00F01BF800221146501E00F016F834
:1006300000221146052000F011F8BDE81040052009
:10064000AFF3008000F01F01012202FA01F140091E
:10065000800000F1E020C0F80011704710B4184B82
:100660001B68C3F30223C3F1070CBCF1040F01D9CB
:100670004FF0040C1C1D072C01D2002300E0DB1EF0
:10068000012404FA0CFCACF1010C0CEA01019940C4
:1006900004FA03F35B1E1A401143002808DA00F045
:1006A0000F0000F1E020090180F8141D10BC704714
:1006B00000F1E020090180F8001410BC7047000030
:1006C0000CED00E000F00700064A11684FF6FF034A
:1006D000194041EA002040F0FD7040F08060106059
:1006E000704700000CED00E02DE9F05F04460E4677
:1006F000DFF8D091D9F80000F7B200F00F00B04257
:100700000AD289F80070D9F8000000F00F00B0425A
:1007100002D00120BDE8F09F2078DFF8AC8110F016
:10072000020F07D0D8F80000A16820F0F0000843BD
:10073000C8F80000207810F0010F51D060686349BC
:10074000012808D002280DD003280BD0096811F029
:10075000020F2ED00AE0096811F4003F06D10120F3
:10076000BDE8F09F096811F0007F1FD0D8F8001095
:1007700021F003010843C8F80000FFF7F3FE054627
:10078000606841F2883A012816D0022829D003284F
:100790003CD0D8F8000010F00C0F51D0FFF7E2FE6B
:1007A000401B504547D90320BDE8F09F0120BDE81C
:1007B000F09F0120BDE8F09FD8F8000000F00C0089
:1007C00004283DD0FFF7CEFE401B504502D9032040
:1007D000BDE8F09FD8F8000000F00C000428F1D12B
:1007E0002EE0D8F8000000F00C00082828D0FFF711
:1007F000B9FE401B504502D90320BDE8F09FD8F850
:10080000000000F00C000828F1D119E0D8F8000031
:100810004FF00C0B3BEA000012D0FFF7A3FE401B89
:10082000504502D90320BDE8F09FD8F800003BEA0C
:100830000000F2D104E0D8F8000010F00C0FADD1A8
:10084000D9F8000000F00F00B0420AD989F8007012
:10085000D9F8000000F00F00B04202D00120BDE83E
:10086000F09F207810F0040F07D0D8F80000E1685E
:1008700020F4E0500843C8F80000207810F0080F7A
:1008800008D0D8F80000216920F4604040EAC10097
:10089000C8F8000000F058F8D8F80010F02292FADA
:1008A000A2F201F0F001B2FA82F2D140084A515CA2
:1008B000C840084908600020FFF77CFE0020BDE822
:1008C000F09F0000003C024008380240003802401F
:1008D000942200081000002001490120C8647047DC
:1008E00000004742014800687047000010000020E7
:1008F00000B5FFF7F7FF074909684FF4E05292FA95
:10090000A2F201F4E051B2FA82F2D140024A515C03
:10091000C84000BD08380240A422000800B5FFF717
:10092000E1FF074909684FF4604292FAA2F201F42C
:100930006041B2FA82F2D140024A515CC84000BD27
:1009400008380240A422000810B41F48006810F0C4
:100950000C011E481BD04FEA600C042916D0082950
:1009600015D11B4A116801F03F01136813F4800F81
:1009700047F6C0730DD0BCFBF1F01168194093FA33
:10098000A3F3B3FA83F3D94048430CE0604610BCAC
:100990007047B0FBF1F01168194093FAA3F3B3FA72
:1009A00083F3D940484311684FF4403292FAA2F2DF
:1009B00001F44031B2FA82F2D140491C4900B0FB47
:1009C000F1F010BC70470000083802400024F40029
:1009D000043802402DE9F84F0446DFF81C842078E3
:1009E000A8F1040710F0010FA7F1040560D0D8F8B2
:1009F000000000F00C00042809D0D8F8000000F036
:100A00000C0008280DD1386810F4800F09D0286830
:100A100010F4003F4CD06068002849D10120BDE8A7
:100A2000F88F6068B0F5803F14D0B0F5A02F16D0D5
:100A3000286820F480302860286820F4802028600E
:100A4000606810B3FFF78EFD0646286810F4003F7B
:100A50000ED02DE0286840F480302860F0E7286848
:100A600040F480202860286840F480302860E7E760
:100A7000FFF778FD801B642802D90320BDE8F88FBA
:100A8000286810F4003FF3D012E0FFF76BFD064634
:100A9000286810F4003F0BD0FFF764FD801B64282A
:100AA00002D90320BDE8F88F286810F4003FF3D185
:100AB0002078DFF8489310F0020F4FF0000663D063
:100AC000D8F800004FF0F80B10F00C0F16D0D8F843
:100AD000000000F00C00082803D1386810F4800FE3
:100AE0000CD0E068C8B30120C9F80000FFF73AFD58
:100AF0008246286810F0020F16D022E0286810F015
:100B0000020F05D0E068012802D00120BDE8F88F6F
:100B100028689BFAABF22169B2FA82F220F0F80061
:100B20009140084328602FE0FFF71CFDA0EB0A006E
:100B3000022802D90320BDE8F88F286810F0020FC0
:100B4000F2D028689BFAABF22169B2FA82F220F067
:100B5000F80091400843286016E0FFE7C9F80060FC
:100B6000FFF700FD8246286810F0020F0CD0FFF757
:100B7000F9FCA0EB0A00022802D90320BDE8F88F97
:100B8000286810F0020FF2D1207810F0080F34D04E
:100B90009B48DFF870B26169C1B101210160FFF7C4
:100BA000E1FC8246DBF8000010F0020F25D1FFF7D0
:100BB000D9FCA0EB0A00022802D90320BDE8F88F77
:100BC000DBF8000010F0020FF1D016E00660FFF72E
:100BD000C9FC8246DBF8000010F0020F0DD0FFF7D1
:100BE000C1FCA0EB0A00022802D90320BDE8F88F5F
:100BF000DBF8000010F0020FF1D1207810F0040FA4
:100C000043D08148016841F080510160006800F0E4
:100C100080500090DFF8F4B1DBF8000040F4807001
:100C2000CBF80000FFF79EFC8246DBF8000010F4D2
:100C3000807F0DD1FFF796FCA0EB0A00022802D9B5
:100C40000320BDE8F88FDBF8000010F4807FF1D0BE
:100C5000A068DFF8BCB1012818D005281DD0DBF84A
:100C6000000020F00100CBF80000DBF8000020F0CD
:100C70000400CBF80000A06868B3FFF773FC82465D
:100C8000DBF8000010F0020F14D03CE0DBF80000AD
:100C900040F00100CBF80000EDE7DBF8000040F089
:100CA0000400CBF80000DBF8000040F00100CBF8B6
:100CB0000000E0E7FFF756FCA0EB0A0141F28830A4
:100CC000814202D90320BDE8F88FDBF8000010F064
:100CD000020FEFD017E0FFF745FC8246DBF800007B
:100CE00010F0020F0FD0FFF73DFCA0EB0A0141F21C
:100CF0008830814202D90320BDE8F88FDBF800007C
:100D000010F0020FEFD1A069F0B3D8F8001001F095
:100D10000C0108296CD0022810D0C9F86060FFF7D8
:100D200021FC0446286810F0007F5ED0FFF71AFC13
:100D3000001B022855D90320BDE8F88FC9F8606070
:100D4000FFF710FC0646286810F0007F0BD0FFF775
:100D500009FC801B022802D90320BDE8F88F28680F
:100D600010F0007FF3D1216AE0694FF0FF3340EAD1
:100D7000010247F6C07191FAA1F1606AB1FA81F1FE
:100D800000FA01F1A06A00E02FE003EB50004FF4FD
:100D9000403393FAA3F3B3FA83F398400843104324
:100DA0004FF0706292FAA2F2E16AB2FA82F29140D6
:100DB000084338600120C9F86000FFF7D3FB044600
:100DC000286810F0007F10D1FFF7CCFB001B022831
:100DD00002D90320BDE8F88F286810F0007FF3D017
:100DE00003E0286810F0007FA0D10020BDE8F88F54
:100DF0000120BDE8F88F000008380240000047429B
:100E0000800E474274380240403802400070004073
:100E1000703802404FF0E021042804D0086920F027
:100E2000040008617047086940F0040008617047D9
:100E300070470000401EB0F1807F01D30120704751
:100E40004FF0E0214861044AF020107000208861D2
:100E5000072008610020704723ED00E010B5FFF780
:100E6000E7FF10BD70B50446002C04D094F839009B
:100E7000002510B106E0012070BD84F838502046EE
:100E800000F022F8242084F839002068C16821F499
:100E90000051C160204600F061FD2068016921F425
:100EA000904101612068416921F02A014161206877
:100EB000C16841F40051C160E563202084F8390025
:100EC00084F83A00002070BD10B586B00068A0F12B
:100ED0008041B1F588311DD10F48016841F0100102
:100EE0000160006800F01000009040200190022096
:100EF0000290012003900320049007200590074CE6
:100F000001A92046FFF712FA8021019101A920468C
:100F1000FFF70CFA06B010BD44380240000402404E
:100F20002DE9F84304460D4691461E4694F83900D3
:100F3000202802D00220BDE8F8834DB3B9F1000F9C
:100F400026D094F83800012825D0012084F83800F4
:100F50000027E763212084F83900FFF703FB804670
:100F6000A4F82490A4F82690E08CA0B3E08C401E56
:100F7000E084A068B0F5805F10D043460022802155
:100F80002046009600F08CFEF0B10320BDE8F88307
:100F90000120BDE8F8830220BDE8F8834346002223
:100FA00080212046009600F07BFE10B10320BDE8B2
:100FB000F88328882168C0F308004860206908B1D8
:100FC0006D1C05E0AD1C03E0216815F8010B4860BD
:100FD000E08C0028CAD143460022402120460096DA
:100FE00000F05EFE10B10320BDE8F883202084F8F5
:100FF000390084F838700020BDE8F883FEE700006F
:1010000094B035A0836842680168C068089307926D
:101010000691099000200290039004900590324EB2
:1010200002AD0AA9522000F004FA262803D00AA92A
:10103000522000F0FEF92628F3D10AA800F0E6F8C5
:101040002628EED19DF82B009DF82A1000910190E2
:101050009DF829309DF8282024A10BA800F08AFED5
:101060000BA92BA000F076FE9DF8280030709DF8AB
:10107000290070709DF82A00B0709DF82B00F07068
:101080000AA800F045FA2628CBD1174B09211A1DD2
:10109000602000F0F1F8262803D01FA000F05AFECF
:1010A000BFE721A000F056FE06A9092000F066FA6D
:1010B0002628B6D102A9092000F094F91EA000F05C
:1010C00049FE002420A0295D00F044FE601CC4B24B
:1010D000102CF7D3A5E7000001020304050607085A
:1010E0000910111213141516000000205468652011
:1010F000436172642049442069733A202530325894
:101100002530325825303258253032580000000042
:1011100025730D0A00000000D1E9D6A4BFA8CAA714
:10112000B0DC0D0A00000000D1E9D6A4BFA8B3C905
:10113000B9A60D0A00000000B6C1B3F6CAFDBEDDB7
:10114000CEAAA3BA0A0000002532780A00000000E7
:1011500010B5412826D108210846FFF7C9F83D21DE
:10116000112000F0DBFD8621172000F0D7FD7F2144
:10117000262000F0D3FD1E212D2000F0CFFD002100
:101180002C2000F0CBFD8D212A2000F0C7FD3E2150
:101190002B2000F0C3FD0220FFF7B8F8BDE8104097
:1011A00000F026B810BD000082B000210C48026893
:1011B00042F002020260006800F0020001900A485A
:1011C000084A02604FF4E13242608160C16001610F
:1011D0000C2242618161C16102B0FFF743BE000091
:1011E000303802400010014018000020FEE7704730
:1011F00010B5142000F08CFA10F0030F05D1032174
:10120000BDE81040142000F01ABB10BD70B588B0C6
:101210000546002408210846FFF76AF800210D2042
:1012200000F07CFD80210E20FFF762F893208DF8FE
:101230000C0020208DF80D0002A8009003AB0222C4
:1012400003A90C2000F03BF80646262E0DD1002104
:1012500003AA505C6854505C4440481CC1B2042945
:10126000F7D3505CA04200D0BB2680210E2000F0B6
:10127000E6FA08B0304670BD10B588B08DF80C00A5
:101280008DF80D101068CDF80E009088ADF81200A2
:101290001868059002A8009003AB0C2203A90E2049
:1012A00000F00DF80446262C05D1082000F030FA95
:1012B00010F0080F00D1BB2408B0204610BD2DE966
:1012C000FF5F8246DDF838908B4616464FF0BB082C
:1012D00000250027BAF10C0F05D0BAF10E0F04D18A
:1012E0001225102701E07725302745F080010220E4
:1012F00000F014FD80210420FEF7FAFF00210120F8
:1013000000F00CFD80210A2000F099FA0024002E44
:1013100007D91BF80410092000F000FD641CB4423A
:10132000F7D35146012000F0F9FCBAF10C0F03D1BC
:1013300080210D2000F083FA4FF47A74042000F02D
:10134000E7F90646641E24B116F0010F01D13E42B2
:10135000F4D080210D20FEF7CBFF3CB1062000F039
:10136000D7F910F01B0F0DD04FF0BB0880210C20D7
:1013700000F065FA0021012000F0D0FC04B04046E6
:10138000BDE8F09F4FF0260806EA050010F0010FB7
:1013900001D04FF0CC08BAF10C0FE7D10A2000F0D1
:1013A000B7F904460C2000F0B3F900F0070028B1AB
:1013B000611E00EBC100C9F8000002E0E000C9F8BE
:1013C000000004B90124122C00D912240025002C9D
:1013D000CCD9092000F09CF9039948556D1CA54211
:1013E000F7D3C3E730B587B00D4630218DF808102C
:1013F0008DF8090002ACA21C022102A8FEF744FFEE
:1014000001A8009002AB042202A90C20FFF757FFAD
:10141000262802D10199902902D007B0BB2030BD07
:101420000022A15CA954511CCAB2102AF9D307B0FA
:1014300030BD30B587B005460C4608210846FEF79A
:1014400057FF07210D2000F069FC0321142000F054
:10145000F6F98DF8085001A8009002AB012202A90C
:101460000C20FFF72CFF262802D10199102902D069
:1014700007B0BB2030BD9DF8081021709DF8091001
:10148000617007B030BD000010B5204C0122D102C0
:101490002046FFF760F80120FEF738FF0022E11434
:1014A0002046FFF758F80120FEF730FF0122D10255
:1014B0002046FFF750F80120FEF728FF0F210120FA
:1014C00000F02CFC012000F023F910F0100FF9D1EE
:1014D0000120FEF71BFF3D21112000F01FFC1E2103
:1014E0002D2000F01BFC00212C2000F017FC8D218A
:1014F0002A2000F013FC3E212B2000F00FFC40219D
:10150000BDE81040152000F009BC000000080240B2
:1015100000B587B093218DF8081070218DF809105F
:1015200000218DF80E1002AA02EB010C435C8CF82E
:1015300002309DF80E3010F801C083EA0C038DF8DC
:101540000E30491CC9B20429EED3D21D072102A8CE
:10155000FEF79AFE08210846FEF7CAFE01A8009091
:1015600002AB092202A90C20FFF7A9FE262802D10E
:101570000199182900D0BB2007B000BD70B588B014
:101580000D46A0218DF80C108DF80D0003ACA21CA7
:10159000022103A8FEF778FE02AE03AB042203A9E2
:1015A0000C200096FFF78BFE262808D1029904290B
:1015B00005D19DF80C1001F00F010A2900D0BB20C5
:1015C00026281FD10020295C2154401CC0B21028BD
:1015D000F9D304F11002102103A8FEF755FE03AB66
:1015E000122203A90C200096FFF769FE262808D1D5
:1015F0000299042905D19DF80C1001F00F010A2968
:1016000000D0BB2008B070BD7047000010B500F0DE
:101610000FF8064C0122D1022046FEF79CFF20461F
:101620000122BDE810409102FEF795BF000802407C
:101630002DE9F04786B000262F48016841F480511B
:101640000160006800F4805000902C48016841F06F
:1016500004010160016801F004010091016841F09A
:1016600001010160016801F001010091016841F090
:1016700002010160016801F002010091016841F07E
:1016800004010160006800F0040000904FF48060E5
:1016900001904FF00208CDF8108001240294DFF889
:1016A000609001A94846FEF741FE202701970325D7
:1016B0000495029401A91348FEF738FE102001900A
:1016C00004950294DFF840A001A95046FEF72EFED3
:1016D00001970495029601A95046FEF727FEE00205
:1016E0000190CDF81080029401A94846FEF71EFE35
:1016F00006B0BDE8F08700004438024030380240B0
:101700000008024000000240000402407047000050
:1017100070B57E2101EA400040F08004094D0022AE
:101720004FF480612846FEF716FF204600F046F889
:1017300000F00AF80446012291022846FEF70BFF4A
:10174000204670BD000802402DE9F0410025194FE8
:10175000194E6006040E002220213046FEF7FBFEE3
:101760000320FEF7D3FD1420FEF7D0FD20213846DC
:10177000FEF7EAFE012801D144F001040220FEF741
:10178000C5FD0320FEF7C2FD1420FEF7BFFD0122B8
:1017900020213046FEF7DFFE0320FEF7B7FD1420C0
:1017A000FEF7B4FD681CC5B2082DD2D32046BDE8B3
:1017B000F081000000040240000002402DE9F041E9
:1017C000054600241B4F1C4E15F0800F05D001224A
:1017D00010213846FEF7BFFE04E0002210213846F3
:1017E000FEF7B9FE0320FEF791FD1420FEF78EFDF3
:1017F000002220213046FEF7AEFE0120FEF786FDD6
:101800000320FEF783FD1420FEF780FD0122202136
:101810003046FEF7A0FE0320FEF778FD1420FEF709
:1018200075FD6806050E601CC4B2082CCCD3BDE85B
:10183000F08100000004024000000240704770B5D3
:1018400005460C462846FFF763FF40EA0401284698
:10185000BDE8704000F062BA10B5FEF789FEBDE841
:101860001040FFF7FBBA000030B593B000252248C6
:10187000016841F080510160006800F080500090E4
:101880001E48016841F480410160006800F4804016
:101890000090012006900004079002240C9480011F
:1018A0000D9008200E904FF4A8700F901094072010
:1018B000119006A8FFF78EF80F200190029403956F
:1018C0004FF4A0500490E0020590052101A8FEF716
:1018D0000BFFFFF701F8FFF705F80949B0FBF1F03E
:1018E000FFF7A8FA0420FFF795FA00221146501ED0
:1018F000FEF7B4FE13B030BD403802400070004027
:10190000A08601000F48016841F4700101600E4893
:10191000016841F0010101600C4A00211160026878
:1019200022F4102222F080720260031D084A1A601D
:10193000026822F4802202600648016006495806C7
:101940000860704788ED00E0003802400838024027
:10195000103000240C38024008ED00E02DE9F04181
:1019600004462068016921F44051E2681143016195
:101970002068C16821F4037121F414412369A2682D
:10198000D4F81CC01A43636943EA0C031A43114399
:10199000C1602068416921F44071A269114341612D
:1019A000E069BC4ABC49BD4D3226B0F5004F5ED05F
:1019B0002068884202D0904240F01281FEF7AEFFCC
:1019C00000EBC00101EB001061688900B0FBF1F78A
:1019D000FEF7A4FF00EBC00101EB00106168890075
:1019E000B0FBF1F0A5FB001040096FF0180148436F
:1019F00007EB800006EB0010A5FB0010400900F08B
:101A0000F007FEF78BFF00EBC00101EB00106168EF
:101A10008900B0FBF1F0A5FB0010400907EB0017AF
:101A2000FEF77CFF00EBC00101EB0010616889004C
:101A3000B0FBF1F8FEF772FF00EBC00101EB001004
:101A400061688900B0FBF1F0A5FB001040096FF060
:101A50001801484308EB800006EB0010A5FB0010BE
:101A60002168C0F3431038448860BDE8F0812068E5
:101A7000884201D0904259D1FEF750FF00EBC001DF
:101A800001EB001061684900B0FBF1F0A5FB00100C
:101A900040090701FEF742FF00EBC00101EB001017
:101AA00061684900B0FBF1F8FEF738FF00EBC001B8
:101AB00001EB001061684900B0FBF1F0A5FB0010DC
:101AC00040096FF01801484308EB800006EBC000A6
:101AD000A5FB0010400900F0F80007EB4007FEF7F7
:101AE0001DFF00EBC00101EB001061684900B0FB75
:101AF000F1F8FEF713FF00EBC00101EB0010616885
:101B00004900B0FBF1F0A5FB001040096FF018018F
:101B1000484308EB800006EBC000A5FB00102168DD
:101B2000C0F3421038448860BDE8F081FEF7E0FE63
:101B300000EBC00101EB001061684900B0FBF1F05F
:101B4000A5FB001040090701FEF7D2FE00EBC00123
:101B500001EB001061684900B0FBF1F8FEF7C8FE28
:101B600000EBC00101EB001061684900B0FBF1F02F
:101B7000A5FB001040096FF01801484308EB8000F6
:101B800006EBC000A5FB0010400900F0F80007EBD1
:101B90004007FEF7ADFE00EBC00101EB00106168ED
:101BA0004900B0FBF1F8FEF7A3FE00EBC00101EB2A
:101BB000001061684900B0FBF1F0A5FB001040097E
:101BC0006FF01801484308EB800006EBC000A5FB4E
:101BD00000102168C0F3421038448860BDE8F081ED
:101BE000FEF786FE00EBC00101EB00106168890082
:101BF000B0FBF1F7FEF77CFE00EBC00101EB00103B
:101C000061688900B0FBF1F0A5FB001040096FF09E
:101C10001801484307EB800006EB0010A5FB0010FD
:101C2000400900F0F007FEF763FE00EBC00101EB96
:101C3000001061688900B0FBF1F0A5FB00104009BD
:101C400007EB0017FEF754FE00EBC00101EB00109C
:101C500061688900B0FBF1F8FEF74AFE00EBC001B5
:101C600001EB001061688900B0FBF1F0A5FB0010EA
:101C700040096FF01801484308EB800006EB0010A4
:101C8000A5FB00102168C0F3431038448860BDE80C
:101C9000F081000000140140001001401F85EB514D
:101CA0002DE9F0410446069D884617461E462068E9
:101CB000006838EA000020D00020B84227D1B5F1F2
:101CC000FF3F1CD025B1FEF74DFC801BA84216D962
:101CD0002068C16821F4D071C1602068416921F099
:101CE00001014161202084F8390084F83A00002085
:101CF00084F838000320BDE8F0810120DDE720688A
:101D0000006838EA000005D00020B842D7D0002093
:101D1000BDE8F0810120F8E7FEE7000070B50E464F
:101D20007E2202EA40040A4D00224FF480612846D8
:101D3000FEF711FC2046FFF741FD3046FFF73EFD60
:101D40002846BDE8704001229102FEF704BC000065
:101D5000000802400FB4054B10B503A9044A0298CD
:101D600000F02CF810BC5DF814FB000029220008DC
:101D7000140000200FB4084B10B504A902AA039860
:101D800000F01CF8044602A9002000F048FA2046A2
:101D900010BC5DF814FB00001F22000802E008C818
:101DA000121F08C1002AFAD170477047002001E0D5
:101DB00001C1121F002AFBD1704700002DE9FF4F1F
:101DC0008DB00F460546002606E025280BD0DDE93C
:101DD0000F1290476D1C761C28780028F5D111B0A1
:101DE0003046BDE8F08F0024A246A1460122EC490E
:101DF00000E0044315F8013F203B02FA03F00842DB
:101E0000F7D128782A2810D06FF02F022878A0F177
:101E10003001092914D80AEB8A0102EB410144F090
:101E2000020400EB010A6D1CF0E701CF5FEA000A33
:101E300003D544F40054CAF1000A44F002046D1CB6
:101E400028782E2817D115F8010F44F004042A2809
:101E50000ED06FF02F022878A0F1300109290AD89E
:101E600009EB890102EB410100EB01096D1CF2E76E
:101E700057F8049B6D1C28786C280FD006DC4C2882
:101E800017D068280DD06A2814D104E0742810D027
:101E90007A280FD10DE044F400140AE044F48014D1
:101EA00001E044F440146978814202D104F58014C1
:101EB0006D1C6D1C2A786E2A1FD00CDC632A31D071
:101EC00004DC002A8BD0582A11D1A3E0642A68D000
:101ED000692A0CD165E0732A2ED004DC6F2A73D0F6
:101EE000702A04D19BE0752A6FD0782A6ED01046F4
:101EF000DDE90F129047761C50E1C4F3025002282E
:101F000006D0032809D0042801CF09D0066045E196
:101F100001CFF117C0E9006140E101CF06803DE14A
:101F200006703BE117F8040B8DF8000000208DF8D7
:101F30000100EB46012003E057F804BB4FF0FF30EF
:101F400061074FF0000102D40DE008F1010188465D
:101F500049450FDA8045F8DB1BF808100029F4D159
:101F600008E008F1010188468142FADB1BF80810FD
:101F70000029F6D1DDE90F23AAEB080081462146AE
:101F800000F036F9304400EB080604E0DDE90F12FA
:101F90001BF8010B9047B8F10108F7D221464846DB
:101FA000F7E00A21C4F302534FF0000B0891022B13
:101FB00004D001CFC117032B09D00AE0FF1D27F081
:101FC0000707F7E8020108E032E01FE020E000B276
:101FD000C117042B01D140B2C117031E71F10003D8
:101FE00007DA4FF0000CD0EB0C006CEB01012D2355
:101FF00002E0230504D52B238DF82430012303E0D0
:10200000E30701D02023F7E7984658E00A2110E0C3
:1020100010210EE010204FF0000B08900CE0102172
:102020004FF0000B44F004044FF00809089103E05E
:1020300008214FF0000B0891C4F30253022B04D087
:1020400001CF0021032B06D006E0FF1D27F0070774
:10205000F7E8020103E080B2042B00D1C0B24FF0D8
:10206000000823072BD5702A07D0DDF820C08CF09C
:10207000100C5CEA0B0C05D00EE040238DF82430E8
:10208000012308E050EA010306D030238DF8243004
:102090008DF8252002239846DDF820C08CF0080C2E
:1020A0005CEA0B0C0BD150EA010301D1630706D5A2
:1020B00030238DF824304FF00108A9F10109582A86
:1020C00004D038A20B9208AA0A920BE03AA2F9E7D0
:1020D0005B46089AFEF774F80B9B9B5C0A9A521EAB
:1020E0000A92137050EA0102F2D10A98ADEB000097
:1020F00000F1200B600702D524F4803401E04FF09A
:102100000109D94502DDA9EB0B0000E0002000EB3E
:102110000B0141440890AAEB010AE00306D4DDE973
:102120000F232146504600F063F806444FF00009A3
:1021300008E009A911F80900DDE90F12904709F13B
:102140000109761CC145F4DBE0030CD5DDE90F2362
:102150002146504600F04CF8064404E0DDE90F1239
:1021600030209047761C0899481E08900029F5DC1D
:1021700008E00A980A990078491C0A91DDE90F12D3
:102180009047761CBBF10001ABF1010BF1DC21465D
:102190005046DDE90F2300F019F806446D1C1BE6DC
:1021A000092801003031323334353637383961622D
:1021B00063646566000000003031323334353637F1
:1021C0003839414243444546000000002DE9F041C2
:1021D000044600251E461746880404D405E0394607
:1021E0002020B0476D1C641EF9D52846BDE8F0815B
:1021F0002DE9F041044600251E469046C80301D54E
:10220000302700E02027880404D505E04146384601
:10221000B0476D1C641EF9D52846BDE8F0810A68F8
:10222000531C0B601070704713B54FF6FF730122FB
:1022300069460348FEF774FE009802B010BD000026
:1022400018000020FEF79CF9FFF70EFBFEF7ACFF2D
:1022500007A0FFF77FFDFFF7D9F9FFF715F9412038
:10226000FEF776FF06A0FFF775FDFEF7C9FE00003A
:102270005243353232B3F5CABCBBAF0A000000008E
:102280005243353232B3F5CABCBBAFCDEAB3C90A4B
:102290000000000000000000000000000102030434
:1022A000060708090000000001020304CC22000810
:1022B00000000020180000009C1D0008E422000817
:1022C0001800002040100000AC1D000800000000B5
:1022D000FFFFFFFFFFFF0000000000000024F400EC
:0422E00000000000FA
:040000050800018965
:00000001FF
