Component: ARM Compiler 5.06 update 6 (build 750) Tool: armlink [4d35ed]

==============================================================================

Section Cross References

    startup_stm32f407xx.o(RESET) refers to startup_stm32f407xx.o(STACK) for __initial_sp
    startup_stm32f407xx.o(RESET) refers to startup_stm32f407xx.o(.text) for Reset_Handler
    startup_stm32f407xx.o(RESET) refers to stm32f4xx_it.o(i.NMI_Handler) for NMI_Handler
    startup_stm32f407xx.o(RESET) refers to stm32f4xx_it.o(i.HardFault_Handler) for HardFault_Handler
    startup_stm32f407xx.o(RESET) refers to stm32f4xx_it.o(i.MemManage_Handler) for MemManage_Handler
    startup_stm32f407xx.o(RESET) refers to stm32f4xx_it.o(i.BusFault_Handler) for BusFault_Handler
    startup_stm32f407xx.o(RESET) refers to stm32f4xx_it.o(i.UsageFault_Handler) for UsageFault_Handler
    startup_stm32f407xx.o(RESET) refers to stm32f4xx_it.o(i.SVC_Handler) for SVC_Handler
    startup_stm32f407xx.o(RESET) refers to stm32f4xx_it.o(i.DebugMon_Handler) for DebugMon_Handler
    startup_stm32f407xx.o(RESET) refers to stm32f4xx_it.o(i.PendSV_Handler) for PendSV_Handler
    startup_stm32f407xx.o(RESET) refers to stm32f4xx_it.o(i.SysTick_Handler) for SysTick_Handler
    startup_stm32f407xx.o(RESET) refers to stm32f4xx_it.o(i.RCC_IRQHandler) for RCC_IRQHandler
    startup_stm32f407xx.o(RESET) refers to app_ethernet.o(i.ETH_IRQHandler) for ETH_IRQHandler
    startup_stm32f407xx.o(.text) refers to system_stm32f4xx.o(i.SystemInit) for SystemInit
    startup_stm32f407xx.o(.text) refers to entry.o(.ARM.Collect$$$$00000000) for __main
    main.o(i.SystemClock_Config) refers to stm32f4xx_hal_rcc.o(i.HAL_RCC_OscConfig) for HAL_RCC_OscConfig
    main.o(i.SystemClock_Config) refers to stm32f4xx_hal_rcc.o(i.HAL_RCC_ClockConfig) for HAL_RCC_ClockConfig
    main.o(i.SystemClock_Config) refers to stm32f4xx_hal_rcc.o(i.HAL_RCC_EnableCSS) for HAL_RCC_EnableCSS
==============================================================================

Removing Unused input sections from the image.

    Removing startup_stm32f407xx.o(HEAP), (1024 bytes).
    Removing main.o(.rev16_text), (4 bytes).
    Removing main.o(.revsh_text), (4 bytes).
    Removing main.o(.rrx_text), (6 bytes).
    Removing main.o(.data), (8 bytes).
    Removing main.o(.data), (8 bytes).
    Removing main.o(.data), (8 bytes).
    Removing main.o(.data), (8 bytes).
    Removing stm32f4xx_hal_msp.o(.rev16_text), (4 bytes).
    Removing stm32f4xx_hal_msp.o(.revsh_text), (4 bytes).
    Removing stm32f4xx_hal_msp.o(.rrx_text), (6 bytes).
    Removing stm32f4xx_it.o(.rev16_text), (4 bytes).
    Removing stm32f4xx_it.o(.revsh_text), (4 bytes).
    Removing stm32f4xx_it.o(.rrx_text), (6 bytes).
    Removing app_ethernet.o(.rev16_text), (4 bytes).
    Removing app_ethernet.o(.revsh_text), (4 bytes).
    Removing app_ethernet.o(.rrx_text), (6 bytes).
    Removing app_ethernet.o(i.ETH_PHY_WriteReg), (28 bytes).
==============================================================================

Image Symbol Table

    Local Symbols

    Symbol Name                              Value     Ov Type        Size  Object(Section)

    ../Drivers/STM32F4xx_HAL_Driver/Src/stm32f4xx_hal.c 0x00000000   Number         0  stm32f4xx_hal.o ABSOLUTE
    ../Drivers/STM32F4xx_HAL_Driver/Src/stm32f4xx_hal_cortex.c 0x00000000   Number         0  stm32f4xx_hal_cortex.o ABSOLUTE
    ../Drivers/STM32F4xx_HAL_Driver/Src/stm32f4xx_hal_dma.c 0x00000000   Number         0  stm32f4xx_hal_dma.o ABSOLUTE
    ../Drivers/STM32F4xx_HAL_Driver/Src/stm32f4xx_hal_dma_ex.c 0x00000000   Number         0  stm32f4xx_hal_dma_ex.o ABSOLUTE
    ../Drivers/STM32F4xx_HAL_Driver/Src/stm32f4xx_hal_flash.c 0x00000000   Number         0  stm32f4xx_hal_flash.o ABSOLUTE
    ../Drivers/STM32F4xx_HAL_Driver/Src/stm32f4xx_hal_flash_ex.c 0x00000000   Number         0  stm32f4xx_hal_flash_ex.o ABSOLUTE
    ../Drivers/STM32F4xx_HAL_Driver/Src/stm32f4xx_hal_gpio.c 0x00000000   Number         0  stm32f4xx_hal_gpio.o ABSOLUTE
    ../Drivers/STM32F4xx_HAL_Driver/Src/stm32f4xx_hal_pwr.c 0x00000000   Number         0  stm32f4xx_hal_pwr.o ABSOLUTE
    ../Drivers/STM32F4xx_HAL_Driver/Src/stm32f4xx_hal_pwr_ex.c 0x00000000   Number         0  stm32f4xx_hal_pwr_ex.o ABSOLUTE
    ../Drivers/STM32F4xx_HAL_Driver/Src/stm32f4xx_hal_rcc.c 0x00000000   Number         0  stm32f4xx_hal_rcc.o ABSOLUTE
    ../Drivers/STM32F4xx_HAL_Driver/Src/stm32f4xx_hal_rcc_ex.c 0x00000000   Number         0  stm32f4xx_hal_rcc_ex.o ABSOLUTE
    ../Drivers/STM32F4xx_HAL_Driver/Src/stm32f4xx_hal_tim.c 0x00000000   Number         0  stm32f4xx_hal_tim.o ABSOLUTE
    ../Drivers/STM32F4xx_HAL_Driver/Src/stm32f4xx_hal_tim_ex.c 0x00000000   Number         0  stm32f4xx_hal_tim_ex.o ABSOLUTE
    ../Drivers/STM32F4xx_HAL_Driver/Src/stm32f4xx_hal_uart.c 0x00000000   Number         0  stm32f4xx_hal_uart.o ABSOLUTE
    ../Src/main.c                            0x00000000   Number         0  main.o ABSOLUTE
    ../Src/stm32f4xx_hal_msp.c               0x00000000   Number         0  stm32f4xx_hal_msp.o ABSOLUTE
    ../Src/stm32f4xx_it.c                    0x00000000   Number         0  stm32f4xx_it.o ABSOLUTE
    ../Src/system_stm32f4xx.c                0x00000000   Number         0  system_stm32f4xx.o ABSOLUTE
    ../clib/microlib/division.c              0x00000000   Number         0  uldiv.o ABSOLUTE
    ../clib/microlib/division.c              0x00000000   Number         0  uidiv.o ABSOLUTE
    ../clib/microlib/init/entry.s            0x00000000   Number         0  entry10b.o ABSOLUTE
    ../clib/microlib/init/entry.s            0x00000000   Number         0  entry10a.o ABSOLUTE
    ../clib/microlib/init/entry.s            0x00000000   Number         0  entry9b.o ABSOLUTE
    ../clib/microlib/init/entry.s            0x00000000   Number         0  entry9a.o ABSOLUTE
    ../clib/microlib/init/entry.s            0x00000000   Number         0  entry8b.o ABSOLUTE
    ../clib/microlib/init/entry.s            0x00000000   Number         0  entry.o ABSOLUTE
    ../clib/microlib/init/entry.s            0x00000000   Number         0  entry7b.o ABSOLUTE
    ../clib/microlib/init/entry.s            0x00000000   Number         0  entry7a.o ABSOLUTE
    ../clib/microlib/init/entry.s            0x00000000   Number         0  entry5.o ABSOLUTE
    ../clib/microlib/init/entry.s            0x00000000   Number         0  entry2.o ABSOLUTE
    ../clib/microlib/init/entry.s            0x00000000   Number         0  entry8a.o ABSOLUTE
    ../clib/microlib/init/entry.s            0x00000000   Number         0  entry11b.o ABSOLUTE
    ../clib/microlib/init/entry.s            0x00000000   Number         0  entry11a.o ABSOLUTE
    ../clib/microlib/longlong.c              0x00000000   Number         0  llsshr.o ABSOLUTE
    ../clib/microlib/longlong.c              0x00000000   Number         0  llushr.o ABSOLUTE
    ../clib/microlib/longlong.c              0x00000000   Number         0  llshl.o ABSOLUTE
    ../clib/microlib/printf/printf.c         0x00000000   Number         0  printf7.o ABSOLUTE
    ../clib/microlib/printf/printf.c         0x00000000   Number         0  printfb.o ABSOLUTE
    ../clib/microlib/printf/printf.c         0x00000000   Number         0  printf1.o ABSOLUTE
    ../clib/microlib/printf/printf.c         0x00000000   Number         0  printf2.o ABSOLUTE
    ../clib/microlib/printf/printf.c         0x00000000   Number         0  printf5.o ABSOLUTE
    ../clib/microlib/printf/printf.c         0x00000000   Number         0  printf3.o ABSOLUTE
    ../clib/microlib/printf/printf.c         0x00000000   Number         0  printf0.o ABSOLUTE
    ../clib/microlib/printf/printf.c         0x00000000   Number         0  printf4.o ABSOLUTE
    ../clib/microlib/printf/printf.c         0x00000000   Number         0  printf6.o ABSOLUTE
    ../clib/microlib/printf/printf.c         0x00000000   Number         0  printfa.o ABSOLUTE
    ../clib/microlib/printf/printf.c         0x00000000   Number         0  printf8.o ABSOLUTE
    ../clib/microlib/printf/stubs.s          0x00000000   Number         0  stubs.o ABSOLUTE
    ../clib/microlib/stdio/streams.c         0x00000000   Number         0  stdout.o ABSOLUTE
    ../clib/microlib/stdlib/rand.c           0x00000000   Number         0  rand.o ABSOLUTE
    ../clib/microlib/string/memcmp.c         0x00000000   Number         0  memcmp.o ABSOLUTE
    ../clib/microlib/string/memcpy.c         0x00000000   Number         0  memcpyb.o ABSOLUTE
    ../clib/microlib/string/memcpy.c         0x00000000   Number         0  memcpya.o ABSOLUTE
    ../clib/microlib/string/memset.c         0x00000000   Number         0  memseta.o ABSOLUTE
    ../clib/microlib/string/strlen.c         0x00000000   Number         0  strlen.o ABSOLUTE
    ../clib/microlib/string/strncmp.c        0x00000000   Number         0  strncmp.o ABSOLUTE
    ../clib/microlib/stubs.s                 0x00000000   Number         0  iusefp.o ABSOLUTE
    ../fplib/microlib/fpadd.c                0x00000000   Number         0  dadd.o ABSOLUTE
    ../fplib/microlib/fpdiv.c                0x00000000   Number         0  ddiv.o ABSOLUTE
    ../fplib/microlib/fpepilogue.c           0x00000000   Number         0  depilogue.o ABSOLUTE
    ../fplib/microlib/fpfix.c                0x00000000   Number         0  dfixul.o ABSOLUTE
    ../fplib/microlib/fpmul.c                0x00000000   Number         0  dmul.o ABSOLUTE
    ..\Drivers\STM32F4xx_HAL_Driver\Src\stm32f4xx_hal.c 0x00000000   Number         0  stm32f4xx_hal.o ABSOLUTE
    ..\Drivers\STM32F4xx_HAL_Driver\Src\stm32f4xx_hal_adc.c 0x00000000   Number         0  stm32f4xx_hal_adc.o ABSOLUTE
    ..\Drivers\STM32F4xx_HAL_Driver\Src\stm32f4xx_hal_adc_ex.c 0x00000000   Number         0  stm32f4xx_hal_adc_ex.o ABSOLUTE
    ..\Drivers\STM32F4xx_HAL_Driver\Src\stm32f4xx_hal_can.c 0x00000000   Number         0  stm32f4xx_hal_can.o ABSOLUTE
    ..\Drivers\STM32F4xx_HAL_Driver\Src\stm32f4xx_hal_cortex.c 0x00000000   Number         0  stm32f4xx_hal_cortex.o ABSOLUTE
    ..\Drivers\STM32F4xx_HAL_Driver\Src\stm32f4xx_hal_crc.c 0x00000000   Number         0  stm32f4xx_hal_crc.o ABSOLUTE
    ..\Drivers\STM32F4xx_HAL_Driver\Src\stm32f4xx_hal_dac.c 0x00000000   Number         0  stm32f4xx_hal_dac.o ABSOLUTE
    ..\Drivers\STM32F4xx_HAL_Driver\Src\stm32f4xx_hal_dac_ex.c 0x00000000   Number         0  stm32f4xx_hal_dac_ex.o ABSOLUTE
    ..\Drivers\STM32F4xx_HAL_Driver\Src\stm32f4xx_hal_dma.c 0x00000000   Number         0  stm32f4xx_hal_dma.o ABSOLUTE
    ..\Drivers\STM32F4xx_HAL_Driver\Src\stm32f4xx_hal_dma_ex.c 0x00000000   Number         0  stm32f4xx_hal_dma_ex.o ABSOLUTE
    ..\Drivers\STM32F4xx_HAL_Driver\Src\stm32f4xx_hal_eth.c 0x00000000   Number         0  stm32f4xx_hal_eth.o ABSOLUTE
    ..\Drivers\STM32F4xx_HAL_Driver\Src\stm32f4xx_hal_flash.c 0x00000000   Number         0  stm32f4xx_hal_flash.o ABSOLUTE
    ..\Drivers\STM32F4xx_HAL_Driver\Src\stm32f4xx_hal_flash_ex.c 0x00000000   Number         0  stm32f4xx_hal_flash_ex.o ABSOLUTE
    ..\Drivers\STM32F4xx_HAL_Driver\Src\stm32f4xx_hal_gpio.c 0x00000000   Number         0  stm32f4xx_hal_gpio.o ABSOLUTE
    ..\Drivers\STM32F4xx_HAL_Driver\Src\stm32f4xx_hal_hcd.c 0x00000000   Number         0  stm32f4xx_hal_hcd.o ABSOLUTE
    ..\Drivers\STM32F4xx_HAL_Driver\Src\stm32f4xx_hal_i2c.c 0x00000000   Number         0  stm32f4xx_hal_i2c.o ABSOLUTE
    ..\Drivers\STM32F4xx_HAL_Driver\Src\stm32f4xx_hal_i2c_ex.c 0x00000000   Number         0  stm32f4xx_hal_i2c_ex.o ABSOLUTE
    ..\Drivers\STM32F4xx_HAL_Driver\Src\stm32f4xx_hal_iwdg.c 0x00000000   Number         0  stm32f4xx_hal_iwdg.o ABSOLUTE
    ..\Drivers\STM32F4xx_HAL_Driver\Src\stm32f4xx_hal_pcd.c 0x00000000   Number         0  stm32f4xx_hal_pcd.o ABSOLUTE
    ..\Drivers\STM32F4xx_HAL_Driver\Src\stm32f4xx_hal_pcd_ex.c 0x00000000   Number         0  stm32f4xx_hal_pcd_ex.o ABSOLUTE
    ..\Drivers\STM32F4xx_HAL_Driver\Src\stm32f4xx_hal_pwr.c 0x00000000   Number         0  stm32f4xx_hal_pwr.o ABSOLUTE
    ..\Drivers\STM32F4xx_HAL_Driver\Src\stm32f4xx_hal_pwr_ex.c 0x00000000   Number         0  stm32f4xx_hal_pwr_ex.o ABSOLUTE
    ..\Drivers\STM32F4xx_HAL_Driver\Src\stm32f4xx_hal_rcc.c 0x00000000   Number         0  stm32f4xx_hal_rcc.o ABSOLUTE
    ..\Drivers\STM32F4xx_HAL_Driver\Src\stm32f4xx_hal_rcc_ex.c 0x00000000   Number         0  stm32f4xx_hal_rcc_ex.o ABSOLUTE
    ..\Drivers\STM32F4xx_HAL_Driver\Src\stm32f4xx_hal_rng.c 0x00000000   Number         0  stm32f4xx_hal_rng.o ABSOLUTE
    ..\Drivers\STM32F4xx_HAL_Driver\Src\stm32f4xx_hal_rtc.c 0x00000000   Number         0  stm32f4xx_hal_rtc.o ABSOLUTE
    ..\Drivers\STM32F4xx_HAL_Driver\Src\stm32f4xx_hal_rtc_ex.c 0x00000000   Number         0  stm32f4xx_hal_rtc_ex.o ABSOLUTE
    ..\Drivers\STM32F4xx_HAL_Driver\Src\stm32f4xx_hal_spi.c 0x00000000   Number         0  stm32f4xx_hal_spi.o ABSOLUTE
    ..\Drivers\STM32F4xx_HAL_Driver\Src\stm32f4xx_hal_sram.c 0x00000000   Number         0  stm32f4xx_hal_sram.o ABSOLUTE
    ..\Drivers\STM32F4xx_HAL_Driver\Src\stm32f4xx_hal_tim.c 0x00000000   Number         0  stm32f4xx_hal_tim.o ABSOLUTE
    ..\Drivers\STM32F4xx_HAL_Driver\Src\stm32f4xx_hal_tim_ex.c 0x00000000   Number         0  stm32f4xx_hal_tim_ex.o ABSOLUTE
    ..\Drivers\STM32F4xx_HAL_Driver\Src\stm32f4xx_hal_uart.c 0x00000000   Number         0  stm32f4xx_hal_uart.o ABSOLUTE
    ..\Drivers\STM32F4xx_HAL_Driver\Src\stm32f4xx_hal_usart.c 0x00000000   Number         0  stm32f4xx_hal_usart.o ABSOLUTE
    ..\Drivers\STM32F4xx_HAL_Driver\Src\stm32f4xx_hal_wwdg.c 0x00000000   Number         0  stm32f4xx_hal_wwdg.o ABSOLUTE
    ..\Drivers\STM32F4xx_HAL_Driver\Src\stm32f4xx_ll_fsmc.c 0x00000000   Number         0  stm32f4xx_ll_fsmc.o ABSOLUTE
    ..\Drivers\STM32F4xx_HAL_Driver\Src\stm32f4xx_ll_usb.c 0x00000000   Number         0  stm32f4xx_ll_usb.o ABSOLUTE
    ..\Middlewares\LwIP\src\api\api_lib.c    0x00000000   Number         0  api_lib.o ABSOLUTE
    ..\Middlewares\LwIP\src\api\api_msg.c    0x00000000   Number         0  api_msg.o ABSOLUTE
    ..\Middlewares\LwIP\src\api\err.c        0x00000000   Number         0  err.o ABSOLUTE
    ..\Middlewares\LwIP\src\api\netbuf.c     0x00000000   Number         0  netbuf.o ABSOLUTE
    ..\Middlewares\LwIP\src\api\netdb.c      0x00000000   Number         0  netdb.o ABSOLUTE
    ..\Middlewares\LwIP\src\api\netifapi.c   0x00000000   Number         0  netifapi.o ABSOLUTE
    ..\Middlewares\LwIP\src\api\sockets.c    0x00000000   Number         0  sockets.o ABSOLUTE
    ..\Middlewares\LwIP\src\api\tcpip.c      0x00000000   Number         0  tcpip.o ABSOLUTE
    ..\Middlewares\LwIP\src\core\def.c       0x00000000   Number         0  def.o ABSOLUTE
    ..\Middlewares\LwIP\src\core\dns.c       0x00000000   Number         0  dns.o ABSOLUTE
    ..\Middlewares\LwIP\src\core\inet_chksum.c 0x00000000   Number         0  inet_chksum.o ABSOLUTE
    ..\Middlewares\LwIP\src\core\init.c      0x00000000   Number         0  init.o ABSOLUTE
    ..\Middlewares\LwIP\src\core\ip.c        0x00000000   Number         0  ip.o ABSOLUTE
    ..\Middlewares\LwIP\src\core\ipv4\autoip.c 0x00000000   Number         0  autoip.o ABSOLUTE
    ..\Middlewares\LwIP\src\core\ipv4\dhcp.c 0x00000000   Number         0  dhcp.o ABSOLUTE
    ..\Middlewares\LwIP\src\core\ipv4\etharp.c 0x00000000   Number         0  etharp.o ABSOLUTE
    ..\Middlewares\LwIP\src\core\ipv4\icmp.c 0x00000000   Number         0  icmp.o ABSOLUTE
    ..\Middlewares\LwIP\src\core\ipv4\igmp.c 0x00000000   Number         0  igmp.o ABSOLUTE
    ..\Middlewares\LwIP\src\core\ipv4\ip4.c  0x00000000   Number         0  ip4.o ABSOLUTE
    ..\Middlewares\LwIP\src\core\ipv4\ip4_addr.c 0x00000000   Number         0  ip4_addr.o ABSOLUTE
    ..\Middlewares\LwIP\src\core\ipv4\ip4_frag.c 0x00000000   Number         0  ip4_frag.o ABSOLUTE
    ..\Middlewares\LwIP\src\core\mem.c       0x00000000   Number         0  mem.o ABSOLUTE
    ..\Middlewares\LwIP\src\core\memp.c      0x00000000   Number         0  memp.o ABSOLUTE
    ..\Middlewares\LwIP\src\core\netif.c     0x00000000   Number         0  netif.o ABSOLUTE
    ..\Middlewares\LwIP\src\core\pbuf.c      0x00000000   Number         0  pbuf.o ABSOLUTE
    ..\Middlewares\LwIP\src\core\raw.c       0x00000000   Number         0  raw.o ABSOLUTE
    ..\Middlewares\LwIP\src\core\stats.c     0x00000000   Number         0  stats.o ABSOLUTE
    ..\Middlewares\LwIP\src\core\sys.c       0x00000000   Number         0  sys.o ABSOLUTE
    ..\Middlewares\LwIP\src\core\tcp.c       0x00000000   Number         0  tcp.o ABSOLUTE
    ..\Middlewares\LwIP\src\core\tcp_in.c    0x00000000   Number         0  tcp_in.o ABSOLUTE
    ..\Middlewares\LwIP\src\core\tcp_out.c   0x00000000   Number         0  tcp_out.o ABSOLUTE
    ..\Middlewares\LwIP\src\core\timeouts.c  0x00000000   Number         0  timeouts.o ABSOLUTE
    ..\Middlewares\LwIP\src\core\udp.c       0x00000000   Number         0  udp.o ABSOLUTE
    ..\Middlewares\LwIP\src\netif\ethernet.c 0x00000000   Number         0  ethernet.o ABSOLUTE
    ..\Src\app_ethernet.c                    0x00000000   Number         0  app_ethernet.o ABSOLUTE
    ..\Src\bsp\key\bsp_key.c                 0x00000000   Number         0  bsp_key.o ABSOLUTE
    ..\Src\bsp\usart\bsp_debug_usart.c       0x00000000   Number         0  bsp_debug_usart.o ABSOLUTE
    ..\Src\ethernetif.c                      0x00000000   Number         0  ethernetif.o ABSOLUTE
    ..\Src\main.c                            0x00000000   Number         0  main.o ABSOLUTE
    ..\Src\stm32f4xx_assert.c                0x00000000   Number         0  stm32f4xx_assert.o ABSOLUTE
    ..\Src\stm32f4xx_hal_msp.c               0x00000000   Number         0  stm32f4xx_hal_msp.o ABSOLUTE
    ..\Src\stm32f4xx_it.c                    0x00000000   Number         0  stm32f4xx_it.o ABSOLUTE
    ..\Src\system_stm32f4xx.c                0x00000000   Number         0  system_stm32f4xx.o ABSOLUTE
    ..\Src\tcp_echoserver.c                  0x00000000   Number         0  tcp_echoserver.o ABSOLUTE
    ..\\Drivers\\STM32F4xx_HAL_Driver\\Src\\stm32f4xx_hal_adc.c 0x00000000   Number         0  stm32f4xx_hal_adc.o ABSOLUTE
    ..\\Drivers\\STM32F4xx_HAL_Driver\\Src\\stm32f4xx_hal_adc_ex.c 0x00000000   Number         0  stm32f4xx_hal_adc_ex.o ABSOLUTE
    ..\\Drivers\\STM32F4xx_HAL_Driver\\Src\\stm32f4xx_hal_can.c 0x00000000   Number         0  stm32f4xx_hal_can.o ABSOLUTE
    ..\\Drivers\\STM32F4xx_HAL_Driver\\Src\\stm32f4xx_hal_crc.c 0x00000000   Number         0  stm32f4xx_hal_crc.o ABSOLUTE
    ..\\Drivers\\STM32F4xx_HAL_Driver\\Src\\stm32f4xx_hal_dac.c 0x00000000   Number         0  stm32f4xx_hal_dac.o ABSOLUTE
    ..\\Drivers\\STM32F4xx_HAL_Driver\\Src\\stm32f4xx_hal_dac_ex.c 0x00000000   Number         0  stm32f4xx_hal_dac_ex.o ABSOLUTE
    ..\\Drivers\\STM32F4xx_HAL_Driver\\Src\\stm32f4xx_hal_eth.c 0x00000000   Number         0  stm32f4xx_hal_eth.o ABSOLUTE
    ..\\Drivers\\STM32F4xx_HAL_Driver\\Src\\stm32f4xx_hal_hcd.c 0x00000000   Number         0  stm32f4xx_hal_hcd.o ABSOLUTE
    ..\\Drivers\\STM32F4xx_HAL_Driver\\Src\\stm32f4xx_hal_i2c.c 0x00000000   Number         0  stm32f4xx_hal_i2c.o ABSOLUTE
    ..\\Drivers\\STM32F4xx_HAL_Driver\\Src\\stm32f4xx_hal_i2c_ex.c 0x00000000   Number         0  stm32f4xx_hal_i2c_ex.o ABSOLUTE
    ..\\Drivers\\STM32F4xx_HAL_Driver\\Src\\stm32f4xx_hal_iwdg.c 0x00000000   Number         0  stm32f4xx_hal_iwdg.o ABSOLUTE
    ..\\Drivers\\STM32F4xx_HAL_Driver\\Src\\stm32f4xx_hal_pcd.c 0x00000000   Number         0  stm32f4xx_hal_pcd.o ABSOLUTE
    ..\\Drivers\\STM32F4xx_HAL_Driver\\Src\\stm32f4xx_hal_pcd_ex.c 0x00000000   Number         0  stm32f4xx_hal_pcd_ex.o ABSOLUTE
    ..\\Drivers\\STM32F4xx_HAL_Driver\\Src\\stm32f4xx_hal_rng.c 0x00000000   Number         0  stm32f4xx_hal_rng.o ABSOLUTE
    ..\\Drivers\\STM32F4xx_HAL_Driver\\Src\\stm32f4xx_hal_rtc.c 0x00000000   Number         0  stm32f4xx_hal_rtc.o ABSOLUTE
    ..\\Drivers\\STM32F4xx_HAL_Driver\\Src\\stm32f4xx_hal_rtc_ex.c 0x00000000   Number         0  stm32f4xx_hal_rtc_ex.o ABSOLUTE
    ..\\Drivers\\STM32F4xx_HAL_Driver\\Src\\stm32f4xx_hal_spi.c 0x00000000   Number         0  stm32f4xx_hal_spi.o ABSOLUTE
    ..\\Drivers\\STM32F4xx_HAL_Driver\\Src\\stm32f4xx_hal_sram.c 0x00000000   Number         0  stm32f4xx_hal_sram.o ABSOLUTE
    ..\\Drivers\\STM32F4xx_HAL_Driver\\Src\\stm32f4xx_hal_usart.c 0x00000000   Number         0  stm32f4xx_hal_usart.o ABSOLUTE
    ..\\Drivers\\STM32F4xx_HAL_Driver\\Src\\stm32f4xx_hal_wwdg.c 0x00000000   Number         0  stm32f4xx_hal_wwdg.o ABSOLUTE
    ..\\Drivers\\STM32F4xx_HAL_Driver\\Src\\stm32f4xx_ll_fsmc.c 0x00000000   Number         0  stm32f4xx_ll_fsmc.o ABSOLUTE
    ..\\Drivers\\STM32F4xx_HAL_Driver\\Src\\stm32f4xx_ll_usb.c 0x00000000   Number         0  stm32f4xx_ll_usb.o ABSOLUTE
    ..\\Middlewares\\LwIP\\src\\core\\tcp_out.c 0x00000000   Number         0  tcp_out.o ABSOLUTE
    ..\\Src\\app_ethernet.c                  0x00000000   Number         0  app_ethernet.o ABSOLUTE
    ..\\Src\\bsp\\key\\bsp_key.c             0x00000000   Number         0  bsp_key.o ABSOLUTE
    ..\\Src\\bsp\\usart\\bsp_debug_usart.c   0x00000000   Number         0  bsp_debug_usart.o ABSOLUTE
    ..\\Src\\ethernetif.c                    0x00000000   Number         0  ethernetif.o ABSOLUTE
    ..\\Src\\stm32f4xx_assert.c              0x00000000   Number         0  stm32f4xx_assert.o ABSOLUTE
    ..\\Src\\tcp_echoserver.c                0x00000000   Number         0  tcp_echoserver.o ABSOLUTE
    cdrcmple.s                               0x00000000   Number         0  cdrcmple.o ABSOLUTE
    dc.s                                     0x00000000   Number         0  dc.o ABSOLUTE
    handlers.s                               0x00000000   Number         0  handlers.o ABSOLUTE
    init.s                                   0x00000000   Number         0  init.o ABSOLUTE
    startup_stm32f407xx.s                    0x00000000   Number         0  startup_stm32f407xx.o ABSOLUTE
    RESET                                    0x08000000   Section      392  startup_stm32f407xx.o(RESET)
    .ARM.Collect$$$$00000000                 0x08000188   Section        0  entry.o(.ARM.Collect$$$$00000000)
    .ARM.Collect$$$$00000001                 0x08000188   Section        4  entry2.o(.ARM.Collect$$$$00000001)
    .ARM.Collect$$$$00000004                 0x0800018c   Section        4  entry5.o(.ARM.Collect$$$$00000004)
    .ARM.Collect$$$$00000008                 0x08000190   Section        0  entry7b.o(.ARM.Collect$$$$00000008)
    .ARM.Collect$$$$0000000A                 0x08000190   Section        0  entry8b.o(.ARM.Collect$$$$0000000A)
    .ARM.Collect$$$$0000000B                 0x08000190   Section        8  entry9a.o(.ARM.Collect$$$$0000000B)
    .ARM.Collect$$$$0000000D                 0x08000198   Section        0  entry10a.o(.ARM.Collect$$$$0000000D)
    .ARM.Collect$$$$0000000F                 0x08000198   Section        0  entry11a.o(.ARM.Collect$$$$0000000F)
    .ARM.Collect$$$$00002712                 0x08000198   Section        4  entry2.o(.ARM.Collect$$$$00002712)
    __lit__00000000                          0x08000198   Data           4  entry2.o(.ARM.Collect$$$$00002712)
    .text                                    0x0800019c   Section       36  startup_stm32f407xx.o(.text)
    $v0                                      0x0800019c   Number         0  startup_stm32f407xx.o(.text)
    .text                                    0x080001c0   Section        0  rand.o(.text)
    .text                                    0x080001e4   Section        0  memcpya.o(.text)
    .text                                    0x08000208   Section        0  memseta.o(.text)
    .text                                    0x0800022c   Section        0  strlen.o(.text)
    .text                                    0x0800023a   Section        0  memcmp.o(.text)
    .text                                    0x08000254   Section        0  uidiv.o(.text)
    .text                                    0x08000280   Section       36  init.o(.text)
    i.BusFault_Handler                       0x080002a4   Section        0  stm32f4xx_it.o(i.BusFault_Handler)
    i.DHCP_Periodic_Handle                   0x080002a8   Section        0  app_ethernet.o(i.DHCP_Periodic_Handle)
    i.DHCP_Process                           0x080002d4   Section        0  app_ethernet.o(i.DHCP_Process)
    i.DebugMon_Handler                       0x08000514   Section        0  stm32f4xx_it.o(i.DebugMon_Handler)
    i.ETH_DMAReceptionEnable                 0x08000516   Section        0  stm32f4xx_hal_eth.o(i.ETH_DMAReceptionEnable)
    ETH_DMAReceptionEnable                   0x08000517   Thumb Code    16  stm32f4xx_hal_eth.o(i.ETH_DMAReceptionEnable)
    i.ETH_DMATransmissionEnable              0x08000526   Section        0  stm32f4xx_hal_eth.o(i.ETH_DMATransmissionEnable)
    ETH_DMATransmissionEnable                0x08000527   Thumb Code    16  stm32f4xx_hal_eth.o(i.ETH_DMATransmissionEnable)
    i.ETH_Delay                              0x08000538   Section        0  stm32f4xx_hal_eth.o(i.ETH_Delay)
    ETH_Delay                                0x08000539   Thumb Code    32  stm32f4xx_hal_eth.o(i.ETH_Delay)
    i.ETH_FlushTransmitFIFO                  0x0800055c   Section        0  stm32f4xx_hal_eth.o(i.ETH_FlushTransmitFIFO)
    ETH_FlushTransmitFIFO                    0x0800055d   Thumb Code    46  stm32f4xx_hal_eth.o(i.ETH_FlushTransmitFIFO)
    i.ETH_IRQHandler                         0x0800058c   Section        0  app_ethernet.o(i.ETH_IRQHandler)
    i.ETH_MACAddressConfig                   0x080005ac   Section        0  stm32f4xx_hal_eth.o(i.ETH_MACAddressConfig)
    ETH_MACAddressConfig                     0x080005ad   Thumb Code    42  stm32f4xx_hal_eth.o(i.ETH_MACAddressConfig)
    i.ETH_MACDMAConfig                       0x080005d8   Section        0  stm32f4xx_hal_eth.o(i.ETH_MACDMAConfig)
    ETH_MACDMAConfig                         0x080005d9   Thumb Code   390  stm32f4xx_hal_eth.o(i.ETH_MACDMAConfig)
    i.ETH_MACReceptionEnable                 0x0800076c   Section        0  stm32f4xx_hal_eth.o(i.ETH_MACReceptionEnable)
    ETH_MACReceptionEnable                   0x0800076d   Thumb Code    34  stm32f4xx_hal_eth.o(i.ETH_MACReceptionEnable)
    i.ETH_MACTransmissionEnable              0x0800078e   Section        0  stm32f4xx_hal_eth.o(i.ETH_MACTransmissionEnable)
    ETH_MACTransmissionEnable                0x0800078f   Thumb Code    34  stm32f4xx_hal_eth.o(i.ETH_MACTransmissionEnable)
    i.ETH_PHY_ReadReg                        0x080007b0   Section        0  app_ethernet.o(i.ETH_PHY_ReadReg)
    i.ETH_link_check_state                   0x080007cc   Section        0  app_ethernet.o(i.ETH_link_check_state)
    i.Ethernet_Link_Periodic_Handle          0x08000858   Section        0  app_ethernet.o(i.Ethernet_Link_Periodic_Handle)
    i.GetPinStateOfKey1                      0x08000880   Section        0  bsp_key.o(i.GetPinStateOfKey1)
    i.HAL_Delay                              0x08000898   Section        0  stm32f4xx_hal.o(i.HAL_Delay)
    i.HAL_ETH_ConfigMAC                      0x080008b8   Section        0  stm32f4xx_hal_eth.o(i.HAL_ETH_ConfigMAC)
    i.HAL_ETH_DMARxDescListInit              0x080009f0   Section        0  stm32f4xx_hal_eth.o(i.HAL_ETH_DMARxDescListInit)
    i.HAL_ETH_DMATxDescListInit              0x08000a70   Section        0  stm32f4xx_hal_eth.o(i.HAL_ETH_DMATxDescListInit)
    i.HAL_ETH_GetReceivedFrame_IT            0x08000afe   Section        0  stm32f4xx_hal_eth.o(i.HAL_ETH_GetReceivedFrame_IT)
    i.HAL_ETH_Init                           0x08000ba0   Section        0  stm32f4xx_hal_eth.o(i.HAL_ETH_Init)
    i.HAL_ETH_MspInit                        0x08000e10   Section        0  ethernetif.o(i.HAL_ETH_MspInit)
    i.HAL_ETH_ReadPHYRegister                0x08000f18   Section        0  stm32f4xx_hal_eth.o(i.HAL_ETH_ReadPHYRegister)
    i.HAL_ETH_Start                          0x08000fa4   Section        0  stm32f4xx_hal_eth.o(i.HAL_ETH_Start)
    i.HAL_ETH_TransmitFrame                  0x08000fea   Section        0  stm32f4xx_hal_eth.o(i.HAL_ETH_TransmitFrame)
    i.HAL_ETH_WritePHYRegister               0x08001120   Section        0  stm32f4xx_hal_eth.o(i.HAL_ETH_WritePHYRegister)
    i.HAL_GPIO_Init                          0x080011a4   Section        0  stm32f4xx_hal_gpio.o(i.HAL_GPIO_Init)
    i.HAL_GPIO_ReadPin                       0x080013c0   Section        0  stm32f4xx_hal_gpio.o(i.HAL_GPIO_ReadPin)
    i.HAL_GPIO_WritePin                      0x080013ce   Section        0  stm32f4xx_hal_gpio.o(i.HAL_GPIO_WritePin)
    i.HAL_GetTick                            0x080013dc   Section        0  stm32f4xx_hal.o(i.HAL_GetTick)
    i.HAL_IncTick                            0x080013e8   Section        0  stm32f4xx_hal.o(i.HAL_IncTick)
    i.HAL_Init                               0x080013f8   Section        0  stm32f4xx_hal.o(i.HAL_Init)
    i.HAL_InitTick                           0x0800142c   Section        0  stm32f4xx_hal.o(i.HAL_InitTick)
    i.HAL_MspInit                            0x08001454   Section        0  stm32f4xx_hal_msp.o(i.HAL_MspInit)
    i.HAL_NVIC_EnableIRQ                     0x080014bc   Section        0  stm32f4xx_hal_cortex.o(i.HAL_NVIC_EnableIRQ)
    i.HAL_NVIC_SetPriority                   0x080014d4   Section        0  stm32f4xx_hal_cortex.o(i.HAL_NVIC_SetPriority)
    i.HAL_NVIC_SetPriorityGrouping           0x0800153c   Section        0  stm32f4xx_hal_cortex.o(i.HAL_NVIC_SetPriorityGrouping)
    i.HAL_RCC_ClockConfig                    0x08001560   Section        0  stm32f4xx_hal_rcc.o(i.HAL_RCC_ClockConfig)
    i.HAL_RCC_EnableCSS                      0x08001750   Section        0  stm32f4xx_hal_rcc.o(i.HAL_RCC_EnableCSS)
    i.HAL_RCC_GetHCLKFreq                    0x0800175c   Section        0  stm32f4xx_hal_rcc.o(i.HAL_RCC_GetHCLKFreq)
    i.HAL_RCC_GetPCLK1Freq                   0x08001768   Section        0  stm32f4xx_hal_rcc.o(i.HAL_RCC_GetPCLK1Freq)
    i.HAL_RCC_GetPCLK2Freq                   0x08001794   Section        0  stm32f4xx_hal_rcc.o(i.HAL_RCC_GetPCLK2Freq)
    i.HAL_RCC_GetSysClockFreq                0x080017c0   Section        0  stm32f4xx_hal_rcc.o(i.HAL_RCC_GetSysClockFreq)
    i.HAL_RCC_OscConfig                      0x0800184c   Section        0  stm32f4xx_hal_rcc.o(i.HAL_RCC_OscConfig)
    i.HAL_SYSTICK_CLKSourceConfig            0x08001c8c   Section        0  stm32f4xx_hal_cortex.o(i.HAL_SYSTICK_CLKSourceConfig)
    i.HAL_SYSTICK_Callback                   0x08001ca8   Section        0  stm32f4xx_hal_cortex.o(i.HAL_SYSTICK_Callback)
    i.HAL_SYSTICK_Config                     0x08001cac   Section        0  stm32f4xx_hal_cortex.o(i.HAL_SYSTICK_Config)
    i.HAL_SYSTICK_IRQHandler                 0x08001cd4   Section        0  stm32f4xx_hal_cortex.o(i.HAL_SYSTICK_IRQHandler)
    i.HAL_UART_Init                          0x08001cdc   Section        0  stm32f4xx_hal_uart.o(i.HAL_UART_Init)
    i.HAL_UART_MspInit                       0x08001d40   Section        0  bsp_debug_usart.o(i.HAL_UART_MspInit)
    i.HAL_UART_Transmit                      0x08001d8c   Section        0  stm32f4xx_hal_uart.o(i.HAL_UART_Transmit)
    i.HardFault_Handler                      0x08001e68   Section        0  stm32f4xx_it.o(i.HardFault_Handler)
    i.KEY_GPIO_Init                          0x08001e6c   Section        0  bsp_key.o(i.KEY_GPIO_Init)
    i.KeyCreate                              0x08001f24   Section        0  bsp_key.o(i.KeyCreate)
    i.Key_AccessTimes                        0x08001f34   Section        0  bsp_key.o(i.Key_AccessTimes)
    i.Key_RefreshState                       0x08001f42   Section        0  bsp_key.o(i.Key_RefreshState)
    i.MX_DEBUG_USART_Init                    0x08001fc8   Section        0  bsp_debug_usart.o(i.MX_DEBUG_USART_Init)
    i.MemManage_Handler                      0x0800200c   Section        0  stm32f4xx_it.o(i.MemManage_Handler)
    i.NMI_Handler                            0x0800200e   Section        0  stm32f4xx_it.o(i.NMI_Handler)
    i.Netif_Config                           0x08002010   Section        0  app_ethernet.o(i.Netif_Config)
    i.PendSV_Handler                         0x08002060   Section        0  stm32f4xx_it.o(i.PendSV_Handler)
    i.RCC_IRQHandler                         0x08002062   Section        0  stm32f4xx_it.o(i.RCC_IRQHandler)
    i.SVC_Handler                            0x08002064   Section        0  stm32f4xx_it.o(i.SVC_Handler)
    i.SysTick_Handler                        0x08002066   Section        0  stm32f4xx_it.o(i.SysTick_Handler)
    i.SystemClock_Config                     0x08002074   Section        0  main.o(i.SystemClock_Config)
    i.SystemInit                             0x08002110   Section        0  system_stm32f4xx.o(i.SystemInit)
    i.UART_SetConfig                         0x08002168   Section        0  stm32f4xx_hal_uart.o(i.UART_SetConfig)
    UART_SetConfig                           0x08002169   Thumb Code   822  stm32f4xx_hal_uart.o(i.UART_SetConfig)
    i.UART_WaitOnFlagUntilTimeout            0x080024ac   Section        0  stm32f4xx_hal_uart.o(i.UART_WaitOnFlagUntilTimeout)
    UART_WaitOnFlagUntilTimeout              0x080024ad   Thumb Code   120  stm32f4xx_hal_uart.o(i.UART_WaitOnFlagUntilTimeout)
    i.UsageFault_Handler                     0x08002524   Section        0  stm32f4xx_it.o(i.UsageFault_Handler)
    i.YSF4_TCP_SENDData                      0x08002528   Section        0  tcp_echoserver.o(i.YSF4_TCP_SENDData)
    i.__0printf$3                            0x08002734   Section        0  printf3.o(i.__0printf$3)
    i.__0sprintf$3                           0x08002754   Section        0  printf3.o(i.__0sprintf$3)
    i.__scatterload_copy                     0x0800277c   Section       14  handlers.o(i.__scatterload_copy)
    i.__scatterload_null                     0x0800278a   Section        2  handlers.o(i.__scatterload_null)
    i.__scatterload_zeroinit                 0x0800278c   Section       14  handlers.o(i.__scatterload_zeroinit)
    i._printf_core                           0x0800279c   Section        0  printf3.o(i._printf_core)
    _printf_core                             0x0800279d   Thumb Code   436  printf3.o(i._printf_core)
    i._sputc                                 0x08002954   Section        0  printf3.o(i._sputc)
    _sputc                                   0x08002955   Thumb Code    10  printf3.o(i._sputc)
    i.cyclic_timer                           0x08002960   Section        0  timeouts.o(i.cyclic_timer)
    cyclic_timer                             0x08002961   Thumb Code    22  timeouts.o(i.cyclic_timer)
    i.dhcp_arp_reply                         0x0800297c   Section        0  dhcp.o(i.dhcp_arp_reply)
    i.dhcp_bind                              0x0800299c   Section        0  dhcp.o(i.dhcp_bind)
    dhcp_bind                                0x0800299d   Thumb Code   234  dhcp.o(i.dhcp_bind)
    i.dhcp_check                             0x08002a8c   Section        0  dhcp.o(i.dhcp_check)
    dhcp_check                               0x08002a8d   Thumb Code    52  dhcp.o(i.dhcp_check)
    i.dhcp_coarse_tmr                        0x08002ac0   Section        0  dhcp.o(i.dhcp_coarse_tmr)
    i.dhcp_create_msg                        0x08002b28   Section        0  dhcp.o(i.dhcp_create_msg)
    dhcp_create_msg                          0x08002b29   Thumb Code   300  dhcp.o(i.dhcp_create_msg)
    i.dhcp_dec_pcb_refcount                  0x08002c5c   Section        0  dhcp.o(i.dhcp_dec_pcb_refcount)
    dhcp_dec_pcb_refcount                    0x08002c5d   Thumb Code    28  dhcp.o(i.dhcp_dec_pcb_refcount)
    i.dhcp_decline                           0x08002c7c   Section        0  dhcp.o(i.dhcp_decline)
    dhcp_decline                             0x08002c7d   Thumb Code   130  dhcp.o(i.dhcp_decline)
    i.dhcp_delete_msg                        0x08002d0c   Section        0  dhcp.o(i.dhcp_delete_msg)
    dhcp_delete_msg                          0x08002d0d   Thumb Code    24  dhcp.o(i.dhcp_delete_msg)
    i.dhcp_discover                          0x08002d24   Section        0  dhcp.o(i.dhcp_discover)
    dhcp_discover                            0x08002d25   Thumb Code   200  dhcp.o(i.dhcp_discover)
    i.dhcp_fine_tmr                          0x08002dfc   Section        0  dhcp.o(i.dhcp_fine_tmr)
    i.dhcp_handle_ack                        0x08002e30   Section        0  dhcp.o(i.dhcp_handle_ack)
    dhcp_handle_ack                          0x08002e31   Thumb Code   104  dhcp.o(i.dhcp_handle_ack)
    i.dhcp_handle_nak                        0x08002e9c   Section        0  dhcp.o(i.dhcp_handle_nak)
    dhcp_handle_nak                          0x08002e9d   Thumb Code    34  dhcp.o(i.dhcp_handle_nak)
    i.dhcp_handle_offer                      0x08002ec4   Section        0  dhcp.o(i.dhcp_handle_offer)
    dhcp_handle_offer                        0x08002ec5   Thumb Code    42  dhcp.o(i.dhcp_handle_offer)
    i.dhcp_inc_pcb_refcount                  0x08002ef8   Section        0  dhcp.o(i.dhcp_inc_pcb_refcount)
    dhcp_inc_pcb_refcount                    0x08002ef9   Thumb Code    70  dhcp.o(i.dhcp_inc_pcb_refcount)
    i.dhcp_network_changed                   0x08002f4c   Section        0  dhcp.o(i.dhcp_network_changed)
    i.dhcp_option                            0x08002f7c   Section        0  dhcp.o(i.dhcp_option)
    dhcp_option                              0x08002f7d   Thumb Code    34  dhcp.o(i.dhcp_option)
    i.dhcp_option_byte                       0x08002f9e   Section        0  dhcp.o(i.dhcp_option_byte)
    dhcp_option_byte                         0x08002f9f   Thumb Code    14  dhcp.o(i.dhcp_option_byte)
    i.dhcp_option_long                       0x08002fac   Section        0  dhcp.o(i.dhcp_option_long)
    dhcp_option_long                         0x08002fad   Thumb Code    68  dhcp.o(i.dhcp_option_long)
    i.dhcp_option_short                      0x08002ff0   Section        0  dhcp.o(i.dhcp_option_short)
    dhcp_option_short                        0x08002ff1   Thumb Code    32  dhcp.o(i.dhcp_option_short)
    i.dhcp_option_trailer                    0x08003010   Section        0  dhcp.o(i.dhcp_option_trailer)
    dhcp_option_trailer                      0x08003011   Thumb Code    50  dhcp.o(i.dhcp_option_trailer)
    i.dhcp_parse_reply                       0x08003044   Section        0  dhcp.o(i.dhcp_parse_reply)
    dhcp_parse_reply                         0x08003045   Thumb Code   690  dhcp.o(i.dhcp_parse_reply)
    i.dhcp_rebind                            0x08003300   Section        0  dhcp.o(i.dhcp_rebind)
    dhcp_rebind                              0x08003301   Thumb Code   172  dhcp.o(i.dhcp_rebind)
    i.dhcp_reboot                            0x080033b8   Section        0  dhcp.o(i.dhcp_reboot)
    dhcp_reboot                              0x080033b9   Thumb Code   198  dhcp.o(i.dhcp_reboot)
    i.dhcp_recv                              0x0800348c   Section        0  dhcp.o(i.dhcp_recv)
    dhcp_recv                                0x0800348d   Thumb Code   246  dhcp.o(i.dhcp_recv)
    i.dhcp_release                           0x08003590   Section        0  dhcp.o(i.dhcp_release)
    i.dhcp_renew                             0x08003644   Section        0  dhcp.o(i.dhcp_renew)
    i.dhcp_select                            0x080036fc   Section        0  dhcp.o(i.dhcp_select)
    dhcp_select                              0x080036fd   Thumb Code   244  dhcp.o(i.dhcp_select)
    i.dhcp_set_state                         0x08003800   Section        0  dhcp.o(i.dhcp_set_state)
    dhcp_set_state                           0x08003801   Thumb Code    16  dhcp.o(i.dhcp_set_state)
    i.dhcp_start                             0x08003810   Section        0  dhcp.o(i.dhcp_start)
    i.dhcp_stop                              0x080038a4   Section        0  dhcp.o(i.dhcp_stop)
    i.dhcp_supplied_address                  0x080038c8   Section        0  dhcp.o(i.dhcp_supplied_address)
    i.dhcp_t1_timeout                        0x080038e6   Section        0  dhcp.o(i.dhcp_t1_timeout)
    dhcp_t1_timeout                          0x080038e7   Thumb Code    42  dhcp.o(i.dhcp_t1_timeout)
    i.dhcp_t2_timeout                        0x08003910   Section        0  dhcp.o(i.dhcp_t2_timeout)
    dhcp_t2_timeout                          0x08003911   Thumb Code    46  dhcp.o(i.dhcp_t2_timeout)
    i.dhcp_timeout                           0x0800393e   Section        0  dhcp.o(i.dhcp_timeout)
    dhcp_timeout                             0x0800393f   Thumb Code   124  dhcp.o(i.dhcp_timeout)
    i.do_memp_free_pool                      0x080039ba   Section        0  memp.o(i.do_memp_free_pool)
    do_memp_free_pool                        0x080039bb   Thumb Code    12  memp.o(i.do_memp_free_pool)
    i.do_memp_malloc_pool                    0x080039c6   Section        0  memp.o(i.do_memp_malloc_pool)
    do_memp_malloc_pool                      0x080039c7   Thumb Code    18  memp.o(i.do_memp_malloc_pool)
    i.etharp_cleanup_netif                   0x080039d8   Section        0  etharp.o(i.etharp_cleanup_netif)
    i.etharp_find_entry                      0x08003a08   Section        0  etharp.o(i.etharp_find_entry)
    etharp_find_entry                        0x08003a09   Thumb Code   262  etharp.o(i.etharp_find_entry)
    i.etharp_free_entry                      0x08003b14   Section        0  etharp.o(i.etharp_free_entry)
    etharp_free_entry                        0x08003b15   Thumb Code    34  etharp.o(i.etharp_free_entry)
    i.etharp_input                           0x08003b3c   Section        0  etharp.o(i.etharp_input)
    i.etharp_output                          0x08003c04   Section        0  etharp.o(i.etharp_output)
    i.etharp_output_to_arp_index             0x08003d10   Section        0  etharp.o(i.etharp_output_to_arp_index)
    etharp_output_to_arp_index               0x08003d11   Thumb Code    92  etharp.o(i.etharp_output_to_arp_index)
    i.etharp_query                           0x08003d70   Section        0  etharp.o(i.etharp_query)
    i.etharp_raw                             0x08003e98   Section        0  etharp.o(i.etharp_raw)
    etharp_raw                               0x08003e99   Thumb Code   138  etharp.o(i.etharp_raw)
    i.etharp_request                         0x08003f24   Section        0  etharp.o(i.etharp_request)
    i.etharp_request_dst                     0x08003f30   Section        0  etharp.o(i.etharp_request_dst)
    etharp_request_dst                       0x08003f31   Thumb Code    36  etharp.o(i.etharp_request_dst)
    i.etharp_tmr                             0x08003f58   Section        0  etharp.o(i.etharp_tmr)
    i.etharp_update_arp_entry                0x08003fbc   Section        0  etharp.o(i.etharp_update_arp_entry)
    etharp_update_arp_entry                  0x08003fbd   Thumb Code   126  etharp.o(i.etharp_update_arp_entry)
    i.ethernet_input                         0x08004040   Section        0  ethernet.o(i.ethernet_input)
    i.ethernet_link_check_state              0x080040e8   Section        0  ethernetif.o(i.ethernet_link_check_state)
    i.ethernet_link_status_updated           0x080041cc   Section        0  app_ethernet.o(i.ethernet_link_status_updated)
    i.ethernet_output                        0x08004248   Section        0  ethernet.o(i.ethernet_output)
    i.ethernetif_init                        0x0800429c   Section        0  ethernetif.o(i.ethernetif_init)
    i.ethernetif_input                       0x080042c4   Section        0  ethernetif.o(i.ethernetif_input)
    i.fputc                                  0x080042ec   Section        0  bsp_debug_usart.o(i.fputc)
    i.icmp_dest_unreach                      0x08004308   Section        0  icmp.o(i.icmp_dest_unreach)
    i.icmp_input                             0x08004310   Section        0  icmp.o(i.icmp_input)
    i.icmp_send_response                     0x08004454   Section        0  icmp.o(i.icmp_send_response)
    icmp_send_response                       0x08004455   Thumb Code   114  icmp.o(i.icmp_send_response)
    i.icmp_time_exceeded                     0x080044c6   Section        0  icmp.o(i.icmp_time_exceeded)
    i.inet_chksum_pbuf                       0x080044ce   Section        0  inet_chksum.o(i.inet_chksum_pbuf)
    i.ip4_addr_isbroadcast_u32               0x0800451a   Section        0  ip4_addr.o(i.ip4_addr_isbroadcast_u32)
    i.ip4_frag                               0x0800456c   Section        0  ip4_frag.o(i.ip4_frag)
    i.ip4_input                              0x08004710   Section        0  ip4.o(i.ip4_input)
    i.ip4_output_if                          0x08004904   Section        0  ip4.o(i.ip4_output_if)
    i.ip4_output_if_src                      0x08004930   Section        0  ip4.o(i.ip4_output_if_src)
    i.ip4_reass                              0x080049ec   Section        0  ip4_frag.o(i.ip4_reass)
    i.ip4_route                              0x08004b6c   Section        0  ip4.o(i.ip4_route)
    i.ip4addr_ntoa                           0x08004be0   Section        0  ip4_addr.o(i.ip4addr_ntoa)
    i.ip4addr_ntoa_r                         0x08004bec   Section        0  ip4_addr.o(i.ip4addr_ntoa_r)
    i.ip_frag_alloc_pbuf_custom_ref          0x08004c9c   Section        0  ip4_frag.o(i.ip_frag_alloc_pbuf_custom_ref)
    ip_frag_alloc_pbuf_custom_ref            0x08004c9d   Thumb Code     6  ip4_frag.o(i.ip_frag_alloc_pbuf_custom_ref)
    i.ip_frag_free_pbuf_custom_ref           0x08004ca2   Section        0  ip4_frag.o(i.ip_frag_free_pbuf_custom_ref)
    ip_frag_free_pbuf_custom_ref             0x08004ca3   Thumb Code     8  ip4_frag.o(i.ip_frag_free_pbuf_custom_ref)
    i.ip_reass_chain_frag_into_datagram_and_validate 0x08004cac   Section        0  ip4_frag.o(i.ip_reass_chain_frag_into_datagram_and_validate)
    ip_reass_chain_frag_into_datagram_and_validate 0x08004cad   Thumb Code   244  ip4_frag.o(i.ip_reass_chain_frag_into_datagram_and_validate)
    i.ip_reass_dequeue_datagram              0x08004da4   Section        0  ip4_frag.o(i.ip_reass_dequeue_datagram)
    ip_reass_dequeue_datagram                0x08004da5   Thumb Code    28  ip4_frag.o(i.ip_reass_dequeue_datagram)
    i.ip_reass_enqueue_new_datagram          0x08004dc4   Section        0  ip4_frag.o(i.ip_reass_enqueue_new_datagram)
    ip_reass_enqueue_new_datagram            0x08004dc5   Thumb Code    94  ip4_frag.o(i.ip_reass_enqueue_new_datagram)
    i.ip_reass_free_complete_datagram        0x08004e28   Section        0  ip4_frag.o(i.ip_reass_free_complete_datagram)
    ip_reass_free_complete_datagram          0x08004e29   Thumb Code   120  ip4_frag.o(i.ip_reass_free_complete_datagram)
    i.ip_reass_remove_oldest_datagram        0x08004ea4   Section        0  ip4_frag.o(i.ip_reass_remove_oldest_datagram)
    ip_reass_remove_oldest_datagram          0x08004ea5   Thumb Code   118  ip4_frag.o(i.ip_reass_remove_oldest_datagram)
    i.ip_reass_tmr                           0x08004f20   Section        0  ip4_frag.o(i.ip_reass_tmr)
    i.ipfrag_free_pbuf_custom                0x08004f50   Section        0  ip4_frag.o(i.ipfrag_free_pbuf_custom)
    ipfrag_free_pbuf_custom                  0x08004f51   Thumb Code    24  ip4_frag.o(i.ipfrag_free_pbuf_custom)
    i.low_level_init                         0x08004f68   Section        0  ethernetif.o(i.low_level_init)
    low_level_init                           0x08004f69   Thumb Code   224  ethernetif.o(i.low_level_init)
    i.low_level_input                        0x08005084   Section        0  ethernetif.o(i.low_level_input)
    low_level_input                          0x08005085   Thumb Code   192  ethernetif.o(i.low_level_input)
    i.low_level_output                       0x08005148   Section        0  ethernetif.o(i.low_level_output)
    low_level_output                         0x08005149   Thumb Code   180  ethernetif.o(i.low_level_output)
    i.lwip_IT_handle                         0x08005200   Section        0  ethernetif.o(i.lwip_IT_handle)
    i.lwip_htonl                             0x0800520c   Section        0  def.o(i.lwip_htonl)
    i.lwip_htons                             0x08005224   Section        0  def.o(i.lwip_htons)
    i.lwip_init                              0x0800522e   Section        0  init.o(i.lwip_init)
    i.lwip_standard_chksum                   0x0800524c   Section        0  inet_chksum.o(i.lwip_standard_chksum)
    i.main                                   0x080052a8   Section        0  main.o(i.main)
    i.mem_free                               0x080052fc   Section        0  mem.o(i.mem_free)
    i.mem_init                               0x08005328   Section        0  mem.o(i.mem_init)
    i.mem_malloc                             0x0800535c   Section        0  mem.o(i.mem_malloc)
    i.mem_trim                               0x0800541c   Section        0  mem.o(i.mem_trim)
    i.memp_free                              0x08005500   Section        0  memp.o(i.memp_free)
    i.memp_init                              0x08005518   Section        0  memp.o(i.memp_init)
    i.memp_init_pool                         0x08005534   Section        0  memp.o(i.memp_init_pool)
    i.memp_malloc                            0x08005564   Section        0  memp.o(i.memp_malloc)
    i.netif_add                              0x0800557c   Section        0  netif.o(i.netif_add)
    i.netif_init                             0x080055d4   Section        0  netif.o(i.netif_init)
    i.netif_issue_reports                    0x080055d6   Section        0  netif.o(i.netif_issue_reports)
    netif_issue_reports                      0x080055d7   Thumb Code    30  netif.o(i.netif_issue_reports)
    i.netif_set_addr                         0x080055f4   Section        0  netif.o(i.netif_set_addr)
    i.netif_set_default                      0x08005640   Section        0  netif.o(i.netif_set_default)
    i.netif_set_down                         0x0800564c   Section        0  netif.o(i.netif_set_down)
    i.netif_set_gw                           0x0800566a   Section        0  netif.o(i.netif_set_gw)
    i.netif_set_ipaddr                       0x08005678   Section        0  netif.o(i.netif_set_ipaddr)
    i.netif_set_link_callback                0x080056c0   Section        0  netif.o(i.netif_set_link_callback)
    i.netif_set_link_down                    0x080056c8   Section        0  netif.o(i.netif_set_link_down)
    i.netif_set_link_up                      0x080056e4   Section        0  netif.o(i.netif_set_link_up)
    i.netif_set_netmask                      0x08005722   Section        0  netif.o(i.netif_set_netmask)
    i.netif_set_up                           0x08005730   Section        0  netif.o(i.netif_set_up)
    i.pbuf_alloc                             0x08005750   Section        0  pbuf.o(i.pbuf_alloc)
    i.pbuf_alloced_custom                    0x0800588a   Section        0  pbuf.o(i.pbuf_alloced_custom)
    i.pbuf_cat                               0x080058f2   Section        0  pbuf.o(i.pbuf_cat)
    i.pbuf_chain                             0x0800591a   Section        0  pbuf.o(i.pbuf_chain)
    i.pbuf_clen                              0x0800592e   Section        0  pbuf.o(i.pbuf_clen)
    i.pbuf_copy                              0x08005942   Section        0  pbuf.o(i.pbuf_copy)
    i.pbuf_copy_partial                      0x080059ea   Section        0  pbuf.o(i.pbuf_copy_partial)
    i.pbuf_free                              0x08005a5a   Section        0  pbuf.o(i.pbuf_free)
    i.pbuf_header                            0x08005ab8   Section        0  pbuf.o(i.pbuf_header)
    i.pbuf_header_force                      0x08005abe   Section        0  pbuf.o(i.pbuf_header_force)
    i.pbuf_header_impl                       0x08005ac4   Section        0  pbuf.o(i.pbuf_header_impl)
    pbuf_header_impl                         0x08005ac5   Thumb Code   138  pbuf.o(i.pbuf_header_impl)
    i.pbuf_realloc                           0x08005b4e   Section        0  pbuf.o(i.pbuf_realloc)
    i.pbuf_ref                               0x08005baa   Section        0  pbuf.o(i.pbuf_ref)
    i.pbuf_take                              0x08005bb6   Section        0  pbuf.o(i.pbuf_take)
    i.plug_holes                             0x08005c14   Section        0  mem.o(i.plug_holes)
    plug_holes                               0x08005c15   Thumb Code    98  mem.o(i.plug_holes)
    i.sys_check_timeouts                     0x08005c7c   Section        0  timeouts.o(i.sys_check_timeouts)
    i.sys_now                                0x08005cc8   Section        0  ethernetif.o(i.sys_now)
    i.sys_timeout                            0x08005ccc   Section        0  timeouts.o(i.sys_timeout)
    i.sys_timeouts_init                      0x08005d74   Section        0  timeouts.o(i.sys_timeouts_init)
    i.tcp_abandon                            0x08005da4   Section        0  tcp.o(i.tcp_abandon)
    i.tcp_abort                              0x08005e78   Section        0  tcp.o(i.tcp_abort)
    i.tcp_accept                             0x08005e7e   Section        0  tcp.o(i.tcp_accept)
    i.tcp_accept_null                        0x08005e8c   Section        0  tcp.o(i.tcp_accept_null)
    tcp_accept_null                          0x08005e8d   Thumb Code    14  tcp.o(i.tcp_accept_null)
    i.tcp_alloc                              0x08005e9c   Section        0  tcp.o(i.tcp_alloc)
    i.tcp_arg                                0x08005f4c   Section        0  tcp.o(i.tcp_arg)
    i.tcp_bind                               0x08005f54   Section        0  tcp.o(i.tcp_bind)
    i.tcp_close                              0x08005ff0   Section        0  tcp.o(i.tcp_close)
    i.tcp_close_shutdown                     0x08006004   Section        0  tcp.o(i.tcp_close_shutdown)
    tcp_close_shutdown                       0x08006005   Thumb Code   368  tcp.o(i.tcp_close_shutdown)
    i.tcp_create_segment                     0x08006190   Section        0  tcp_out.o(i.tcp_create_segment)
    tcp_create_segment                       0x08006191   Thumb Code   154  tcp_out.o(i.tcp_create_segment)
    i.tcp_echoserver_accept                  0x0800622c   Section        0  tcp_echoserver.o(i.tcp_echoserver_accept)
    tcp_echoserver_accept                    0x0800622d   Thumb Code   130  tcp_echoserver.o(i.tcp_echoserver_accept)
    i.tcp_echoserver_connection_close        0x080062e4   Section        0  tcp_echoserver.o(i.tcp_echoserver_connection_close)
    tcp_echoserver_connection_close          0x080062e5   Thumb Code    66  tcp_echoserver.o(i.tcp_echoserver_connection_close)
    i.tcp_echoserver_error                   0x08006326   Section        0  tcp_echoserver.o(i.tcp_echoserver_error)
    tcp_echoserver_error                     0x08006327   Thumb Code    10  tcp_echoserver.o(i.tcp_echoserver_error)
    i.tcp_echoserver_poll                    0x08006330   Section        0  tcp_echoserver.o(i.tcp_echoserver_poll)
    tcp_echoserver_poll                      0x08006331   Thumb Code    42  tcp_echoserver.o(i.tcp_echoserver_poll)
    i.tcp_echoserver_recv                    0x0800635c   Section        0  tcp_echoserver.o(i.tcp_echoserver_recv)
    tcp_echoserver_recv                      0x0800635d   Thumb Code   204  tcp_echoserver.o(i.tcp_echoserver_recv)
    i.tcp_echoserver_send                    0x08006444   Section        0  tcp_echoserver.o(i.tcp_echoserver_send)
    tcp_echoserver_send                      0x08006445   Thumb Code   108  tcp_echoserver.o(i.tcp_echoserver_send)
    i.tcp_eff_send_mss_impl                  0x080064b8   Section        0  tcp.o(i.tcp_eff_send_mss_impl)
    i.tcp_enqueue_flags                      0x080064de   Section        0  tcp_out.o(i.tcp_enqueue_flags)
    i.tcp_err                                0x0800659c   Section        0  tcp.o(i.tcp_err)
    i.tcp_fasttmr                            0x080065a8   Section        0  tcp.o(i.tcp_fasttmr)
    i.tcp_getoptbyte                         0x0800661c   Section        0  tcp_in.o(i.tcp_getoptbyte)
    tcp_getoptbyte                           0x0800661d   Thumb Code    54  tcp_in.o(i.tcp_getoptbyte)
    i.tcp_init                               0x08006658   Section        0  tcp.o(i.tcp_init)
    i.tcp_input                              0x0800665c   Section        0  tcp_in.o(i.tcp_input)
    i.tcp_keepalive                          0x08006a2c   Section        0  tcp_out.o(i.tcp_keepalive)
    i.tcp_kill_prio                          0x08006a84   Section        0  tcp.o(i.tcp_kill_prio)
    tcp_kill_prio                            0x08006a85   Thumb Code    68  tcp.o(i.tcp_kill_prio)
    i.tcp_kill_state                         0x08006acc   Section        0  tcp.o(i.tcp_kill_state)
    tcp_kill_state                           0x08006acd   Thumb Code    58  tcp.o(i.tcp_kill_state)
    i.tcp_kill_timewait                      0x08006b0c   Section        0  tcp.o(i.tcp_kill_timewait)
    tcp_kill_timewait                        0x08006b0d   Thumb Code    46  tcp.o(i.tcp_kill_timewait)
    i.tcp_listen_closed                      0x08006b40   Section        0  tcp.o(i.tcp_listen_closed)
    tcp_listen_closed                        0x08006b41   Thumb Code    28  tcp.o(i.tcp_listen_closed)
    i.tcp_listen_input                       0x08006b60   Section        0  tcp_in.o(i.tcp_listen_input)
    tcp_listen_input                         0x08006b61   Thumb Code   234  tcp_in.o(i.tcp_listen_input)
    i.tcp_listen_with_backlog                0x08006c5c   Section        0  tcp.o(i.tcp_listen_with_backlog)
    i.tcp_netif_ip_addr_changed              0x08006cec   Section        0  tcp.o(i.tcp_netif_ip_addr_changed)
    i.tcp_netif_ip_addr_changed_pcblist      0x08006d3c   Section        0  tcp.o(i.tcp_netif_ip_addr_changed_pcblist)
    tcp_netif_ip_addr_changed_pcblist        0x08006d3d   Thumb Code    36  tcp.o(i.tcp_netif_ip_addr_changed_pcblist)
    i.tcp_new                                0x08006d60   Section        0  tcp.o(i.tcp_new)
    i.tcp_new_port                           0x08006d68   Section        0  tcp.o(i.tcp_new_port)
    tcp_new_port                             0x08006d69   Thumb Code    88  tcp.o(i.tcp_new_port)
    i.tcp_next_iss                           0x08006dc8   Section        0  tcp.o(i.tcp_next_iss)
    i.tcp_output                             0x08006dd8   Section        0  tcp_out.o(i.tcp_output)
    i.tcp_output_alloc_header                0x0800700c   Section        0  tcp_out.o(i.tcp_output_alloc_header)
    tcp_output_alloc_header                  0x0800700d   Thumb Code   106  tcp_out.o(i.tcp_output_alloc_header)
    i.tcp_output_segment                     0x08007078   Section        0  tcp_out.o(i.tcp_output_segment)
    tcp_output_segment                       0x08007079   Thumb Code   176  tcp_out.o(i.tcp_output_segment)
    i.tcp_parseopt                           0x0800712c   Section        0  tcp_in.o(i.tcp_parseopt)
    tcp_parseopt                             0x0800712d   Thumb Code   114  tcp_in.o(i.tcp_parseopt)
    i.tcp_pbuf_prealloc                      0x080071a4   Section        0  tcp_out.o(i.tcp_pbuf_prealloc)
    tcp_pbuf_prealloc                        0x080071a5   Thumb Code    86  tcp_out.o(i.tcp_pbuf_prealloc)
    i.tcp_pcb_purge                          0x080071fa   Section        0  tcp.o(i.tcp_pcb_purge)
    i.tcp_pcb_remove                         0x08007234   Section        0  tcp.o(i.tcp_pcb_remove)
    i.tcp_poll                               0x080072a0   Section        0  tcp.o(i.tcp_poll)
    i.tcp_process                            0x080072a8   Section        0  tcp_in.o(i.tcp_process)
    tcp_process                              0x080072a9   Thumb Code  1172  tcp_in.o(i.tcp_process)
    i.tcp_process_refused_data               0x0800773c   Section        0  tcp.o(i.tcp_process_refused_data)
    i.tcp_receive                            0x080077b8   Section        0  tcp_in.o(i.tcp_receive)
    tcp_receive                              0x080077b9   Thumb Code  1068  tcp_in.o(i.tcp_receive)
    i.tcp_recv                               0x08007be4   Section        0  tcp.o(i.tcp_recv)
    i.tcp_recv_null                          0x08007bec   Section        0  tcp.o(i.tcp_recv_null)
    i.tcp_recved                             0x08007c14   Section        0  tcp.o(i.tcp_recved)
    i.tcp_remove_listener                    0x08007c70   Section        0  tcp.o(i.tcp_remove_listener)
    tcp_remove_listener                      0x08007c71   Thumb Code    22  tcp.o(i.tcp_remove_listener)
    i.tcp_rexmit                             0x08007c86   Section        0  tcp_out.o(i.tcp_rexmit)
    i.tcp_rexmit_fast                        0x08007cd8   Section        0  tcp_out.o(i.tcp_rexmit_fast)
    i.tcp_rexmit_rto                         0x08007d40   Section        0  tcp_out.o(i.tcp_rexmit_rto)
    i.tcp_rst                                0x08007d88   Section        0  tcp_out.o(i.tcp_rst)
    i.tcp_seg_free                           0x08007e10   Section        0  tcp.o(i.tcp_seg_free)
    i.tcp_segs_free                          0x08007e2e   Section        0  tcp.o(i.tcp_segs_free)
    i.tcp_send_empty_ack                     0x08007e42   Section        0  tcp_out.o(i.tcp_send_empty_ack)
    i.tcp_send_fin                           0x08007eb6   Section        0  tcp_out.o(i.tcp_send_fin)
    i.tcp_sent                               0x08007f00   Section        0  tcp.o(i.tcp_sent)
    i.tcp_server_usersent                    0x08007f08   Section        0  tcp_echoserver.o(i.tcp_server_usersent)
    i.tcp_setprio                            0x08007f94   Section        0  tcp.o(i.tcp_setprio)
    i.tcp_slowtmr                            0x08007f98   Section        0  tcp.o(i.tcp_slowtmr)
    i.tcp_timer_needed                       0x08008240   Section        0  timeouts.o(i.tcp_timer_needed)
    i.tcp_timewait_input                     0x08008274   Section        0  tcp_in.o(i.tcp_timewait_input)
    tcp_timewait_input                       0x08008275   Thumb Code   126  tcp_in.o(i.tcp_timewait_input)
    i.tcp_tmr                                0x0800830c   Section        0  tcp.o(i.tcp_tmr)
    i.tcp_trigger_input_pcb_close            0x08008330   Section        0  tcp_in.o(i.tcp_trigger_input_pcb_close)
    i.tcp_update_rcv_ann_wnd                 0x08008340   Section        0  tcp.o(i.tcp_update_rcv_ann_wnd)
    i.tcp_write                              0x0800837e   Section        0  tcp_out.o(i.tcp_write)
    i.tcp_write_checks                       0x08008652   Section        0  tcp_out.o(i.tcp_write_checks)
    tcp_write_checks                         0x08008653   Thumb Code    78  tcp_out.o(i.tcp_write_checks)
    i.tcp_zero_window_probe                  0x080086a0   Section        0  tcp_out.o(i.tcp_zero_window_probe)
    i.tcpip_tcp_timer                        0x0800876c   Section        0  timeouts.o(i.tcpip_tcp_timer)
    tcpip_tcp_timer                          0x0800876d   Thumb Code    40  timeouts.o(i.tcpip_tcp_timer)
    i.udp_bind                               0x080087a4   Section        0  udp.o(i.udp_bind)
    i.udp_connect                            0x08008830   Section        0  udp.o(i.udp_connect)
    i.udp_init                               0x08008888   Section        0  udp.o(i.udp_init)
    i.udp_input                              0x0800888c   Section        0  udp.o(i.udp_input)
    i.udp_input_local_match                  0x080089d0   Section        0  udp.o(i.udp_input_local_match)
    udp_input_local_match                    0x080089d1   Thumb Code    52  udp.o(i.udp_input_local_match)
    i.udp_netif_ip_addr_changed              0x08008a08   Section        0  udp.o(i.udp_netif_ip_addr_changed)
    i.udp_new                                0x08008a40   Section        0  udp.o(i.udp_new)
    i.udp_new_port                           0x08008a64   Section        0  udp.o(i.udp_new_port)
    udp_new_port                             0x08008a65   Thumb Code    70  udp.o(i.udp_new_port)
    i.udp_recv                               0x08008ab0   Section        0  udp.o(i.udp_recv)
    i.udp_remove                             0x08008ab8   Section        0  udp.o(i.udp_remove)
    i.udp_sendto_if                          0x08008ae8   Section        0  udp.o(i.udp_sendto_if)
    i.udp_sendto_if_src                      0x08008b30   Section        0  udp.o(i.udp_sendto_if_src)
    .constdata                               0x08008bea   Section       16  system_stm32f4xx.o(.constdata)
    .constdata                               0x08008bfa   Section        8  system_stm32f4xx.o(.constdata)
    .constdata                               0x08008c04   Section        4  ip4_addr.o(.constdata)
    .constdata                               0x08008c08   Section        4  ip4_addr.o(.constdata)
    .constdata                               0x08008c0c   Section        6  ethernet.o(.constdata)
    .constdata                               0x08008c12   Section        6  ethernet.o(.constdata)
    .constdata                               0x08008c18   Section       12  memp.o(.constdata)
    .constdata                               0x08008c24   Section       12  memp.o(.constdata)
    .constdata                               0x08008c30   Section       12  memp.o(.constdata)
    .constdata                               0x08008c3c   Section       12  memp.o(.constdata)
    .constdata                               0x08008c48   Section       12  memp.o(.constdata)
    .constdata                               0x08008c54   Section       12  memp.o(.constdata)
    .constdata                               0x08008c60   Section       12  memp.o(.constdata)
    .constdata                               0x08008c6c   Section       12  memp.o(.constdata)
    .constdata                               0x08008c78   Section       12  memp.o(.constdata)
    .constdata                               0x08008c84   Section       36  memp.o(.constdata)
    .constdata                               0x08008ca8   Section       84  tcp.o(.constdata)
    tcp_persist_backoff                      0x08008ca8   Data           7  tcp.o(.constdata)
    tcp_state_str                            0x08008cb0   Data          44  tcp.o(.constdata)
    tcp_backoff                              0x08008cdc   Data          13  tcp.o(.constdata)
    .constdata                               0x08008cfc   Section       40  timeouts.o(.constdata)
    .conststring                             0x08008d24   Section      117  tcp.o(.conststring)
    .data                                    0x20000000   Section        8  main.o(.data)
    .data                                    0x20000008   Section       12  app_ethernet.o(.data)
    .data                                    0x20000014   Section       20  tcp_echoserver.o(.data)
    .data                                    0x20000028   Section        4  stm32f4xx_hal.o(.data)
    .data                                    0x2000002c   Section        4  system_stm32f4xx.o(.data)
    .data                                    0x20000030   Section       16  dhcp.o(.data)
    dhcp_pcb_refcount                        0x20000030   Data           1  dhcp.o(.data)
    dhcp_discover_request_options            0x20000031   Data           4  dhcp.o(.data)
    xid                                      0x20000038   Data           4  dhcp.o(.data)
    dhcp_pcb                                 0x2000003c   Data           4  dhcp.o(.data)
    .data                                    0x20000040   Section        1  etharp.o(.data)
    etharp_cached_entry                      0x20000040   Data           1  etharp.o(.data)
    .data                                    0x20000042   Section        2  ip4.o(.data)
    ip_id                                    0x20000042   Data           2  ip4.o(.data)
    .data                                    0x20000044   Section        8  ip4_frag.o(.data)
    ip_reass_pbufcount                       0x20000044   Data           2  ip4_frag.o(.data)
    reassdatagrams                           0x20000048   Data           4  ip4_frag.o(.data)
    .data                                    0x2000004c   Section       12  mem.o(.data)
    ram                                      0x2000004c   Data           4  mem.o(.data)
    ram_end                                  0x20000050   Data           4  mem.o(.data)
    lfree                                    0x20000054   Data           4  mem.o(.data)
    .data                                    0x20000058   Section        4  memp.o(.data)
    memp_tab_UDP_PCB                         0x20000058   Data           4  memp.o(.data)
    .data                                    0x2000005c   Section        4  memp.o(.data)
    memp_tab_TCP_PCB                         0x2000005c   Data           4  memp.o(.data)
    .data                                    0x20000060   Section        4  memp.o(.data)
    memp_tab_TCP_PCB_LISTEN                  0x20000060   Data           4  memp.o(.data)
    .data                                    0x20000064   Section        4  memp.o(.data)
    memp_tab_TCP_SEG                         0x20000064   Data           4  memp.o(.data)
    .data                                    0x20000068   Section        4  memp.o(.data)
    memp_tab_REASSDATA                       0x20000068   Data           4  memp.o(.data)
    .data                                    0x2000006c   Section        4  memp.o(.data)
    memp_tab_FRAG_PBUF                       0x2000006c   Data           4  memp.o(.data)
    .data                                    0x20000070   Section        4  memp.o(.data)
    memp_tab_SYS_TIMEOUT                     0x20000070   Data           4  memp.o(.data)
    .data                                    0x20000074   Section        4  memp.o(.data)
    memp_tab_PBUF                            0x20000074   Data           4  memp.o(.data)
    .data                                    0x20000078   Section        4  memp.o(.data)
    memp_tab_PBUF_POOL                       0x20000078   Data           4  memp.o(.data)
    .data                                    0x2000007c   Section       12  netif.o(.data)
    netif_num                                0x2000007c   Data           1  netif.o(.data)
    .data                                    0x20000088   Section       32  tcp.o(.data)
    tcp_timer                                0x20000089   Data           1  tcp.o(.data)
    tcp_timer_ctr                            0x2000008a   Data           1  tcp.o(.data)
    tcp_port                                 0x2000008c   Data           2  tcp.o(.data)
    iss                                      0x20000090   Data           4  tcp.o(.data)
    .data                                    0x200000a8   Section       36  tcp_in.o(.data)
    flags                                    0x200000a8   Data           1  tcp_in.o(.data)
    recv_flags                               0x200000a9   Data           1  tcp_in.o(.data)
    tcphdr_optlen                            0x200000aa   Data           2  tcp_in.o(.data)
    tcphdr_opt1len                           0x200000ac   Data           2  tcp_in.o(.data)
    tcp_optidx                               0x200000ae   Data           2  tcp_in.o(.data)
    recv_acked                               0x200000b0   Data           2  tcp_in.o(.data)
    tcplen                                   0x200000b2   Data           2  tcp_in.o(.data)
    tcphdr                                   0x200000b4   Data           4  tcp_in.o(.data)
    tcphdr_opt2                              0x200000b8   Data           4  tcp_in.o(.data)
    seqno                                    0x200000bc   Data           4  tcp_in.o(.data)
    ackno                                    0x200000c0   Data           4  tcp_in.o(.data)
    recv_data                                0x200000c4   Data           4  tcp_in.o(.data)
    .data                                    0x200000cc   Section       12  tcp_out.o(.data)
    .data                                    0x200000d8   Section       12  timeouts.o(.data)
    next_timeout                             0x200000d8   Data           4  timeouts.o(.data)
    timeouts_last_time                       0x200000dc   Data           4  timeouts.o(.data)
    tcpip_tcp_timer_active                   0x200000e0   Data           4  timeouts.o(.data)
    .data                                    0x200000e4   Section        8  udp.o(.data)
    udp_port                                 0x200000e4   Data           2  udp.o(.data)
    .data                                    0x200000ec   Section        4  rand.o(.data)
    _rand_state                              0x200000ec   Data           4  rand.o(.data)
    .data                                    0x200000f0   Section        4  stdout.o(.data)
    .bss                                     0x200000f4   Section       56  main.o(.bss)
    .bss                                     0x2000012c   Section       18  app_ethernet.o(.bss)
    .bss                                     0x20000140   Section    12520  ethernetif.o(.bss)
    .bss                                     0x20003228   Section      200  tcp_echoserver.o(.bss)
    .bss                                     0x200032f0   Section       64  bsp_debug_usart.o(.bss)
    .bss                                     0x20003330   Section       50  dhcp.o(.bss)
    .bss                                     0x20003364   Section      240  etharp.o(.bss)
    arp_table                                0x20003364   Data         240  etharp.o(.bss)
    .bss                                     0x20003454   Section       16  ip4_addr.o(.bss)
    str                                      0x20003454   Data          16  ip4_addr.o(.bss)
    .bss                                     0x20003464   Section       24  ip.o(.bss)
    .bss                                     0x2000347c   Section    10259  mem.o(.bss)
    .bss                                     0x20005c8f   Section      195  memp.o(.bss)
    .bss                                     0x20005d52   Section     1483  memp.o(.bss)
    .bss                                     0x2000631d   Section      143  memp.o(.bss)
    .bss                                     0x200063ac   Section      131  memp.o(.bss)
    .bss                                     0x2000642f   Section      163  memp.o(.bss)
    .bss                                     0x200064d2   Section      363  memp.o(.bss)
    .bss                                     0x2000663d   Section      163  memp.o(.bss)
    .bss                                     0x200066e0   Section      163  memp.o(.bss)
    .bss                                     0x20006783   Section     4227  memp.o(.bss)
    .bss                                     0x20007808   Section       16  tcp_in.o(.bss)
    inseg                                    0x20007808   Data          16  tcp_in.o(.bss)
    STACK                                    0x20007818   Section     4096  startup_stm32f407xx.o(STACK)

    Global Symbols

    Symbol Name                              Value     Ov Type        Size  Object(Section)

    BuildAttributes$$THM_ISAv4$E$P$D$K$B$S$7EM$VFPi3$EXTD16$VFPS$VFMA$PE$A:L22UL41UL21$X:L11$S22US41US21$IEEE1$IW$USESV6$~STKCKD$USESV7$~SHL$OTIME$ROPI$EBA8$MICROLIB$REQ8$PRES8$EABIv2 0x00000000   Number         0  anon$$obj.o ABSOLUTE
    __ARM_use_no_argv                        0x00000000   Number         0  main.o ABSOLUTE
    _printf_a                                0x00000000   Number         0  stubs.o ABSOLUTE
    _printf_c                                0x00000000   Number         0  stubs.o ABSOLUTE
    _printf_charcount                        0x00000000   Number         0  stubs.o ABSOLUTE
    _printf_d                                0x00000000   Number         0  stubs.o ABSOLUTE
    _printf_e                                0x00000000   Number         0  stubs.o ABSOLUTE
    _printf_f                                0x00000000   Number         0  stubs.o ABSOLUTE
    _printf_flags                            0x00000000   Number         0  stubs.o ABSOLUTE
    _printf_fp_dec                           0x00000000   Number         0  stubs.o ABSOLUTE
    _printf_fp_hex                           0x00000000   Number         0  stubs.o ABSOLUTE
    _printf_g                                0x00000000   Number         0  stubs.o ABSOLUTE
    _printf_i                                0x00000000   Number         0  stubs.o ABSOLUTE
    _printf_int_dec                          0x00000000   Number         0  stubs.o ABSOLUTE
    _printf_l                                0x00000000   Number         0  stubs.o ABSOLUTE
    _printf_lc                               0x00000000   Number         0  stubs.o ABSOLUTE
    _printf_ll                               0x00000000   Number         0  stubs.o ABSOLUTE
    _printf_lld                              0x00000000   Number         0  stubs.o ABSOLUTE
    _printf_lli                              0x00000000   Number         0  stubs.o ABSOLUTE
    _printf_llo                              0x00000000   Number         0  stubs.o ABSOLUTE
    _printf_llu                              0x00000000   Number         0  stubs.o ABSOLUTE
    _printf_llx                              0x00000000   Number         0  stubs.o ABSOLUTE
    _printf_longlong_dec                     0x00000000   Number         0  stubs.o ABSOLUTE
    _printf_longlong_hex                     0x00000000   Number         0  stubs.o ABSOLUTE
    _printf_longlong_oct                     0x00000000   Number         0  stubs.o ABSOLUTE
    _printf_ls                               0x00000000   Number         0  stubs.o ABSOLUTE
    _printf_mbtowc                           0x00000000   Number         0  stubs.o ABSOLUTE
    _printf_n                                0x00000000   Number         0  stubs.o ABSOLUTE
    _printf_o                                0x00000000   Number         0  stubs.o ABSOLUTE
    _printf_p                                0x00000000   Number         0  stubs.o ABSOLUTE
    _printf_percent                          0x00000000   Number         0  stubs.o ABSOLUTE
    _printf_pre_padding                      0x00000000   Number         0  stubs.o ABSOLUTE
    _printf_return_value                     0x00000000   Number         0  stubs.o ABSOLUTE
    _printf_s                                0x00000000   Number         0  stubs.o ABSOLUTE
    _printf_sizespec                         0x00000000   Number         0  stubs.o ABSOLUTE
    _printf_str                              0x00000000   Number         0  stubs.o ABSOLUTE
    _printf_truncate_signed                  0x00000000   Number         0  stubs.o ABSOLUTE
    _printf_truncate_unsigned                0x00000000   Number         0  stubs.o ABSOLUTE
    _printf_u                                0x00000000   Number         0  stubs.o ABSOLUTE
    _printf_wc                               0x00000000   Number         0  stubs.o ABSOLUTE
    _printf_wctomb                           0x00000000   Number         0  stubs.o ABSOLUTE
    _printf_widthprec                        0x00000000   Number         0  stubs.o ABSOLUTE
    _printf_x                                0x00000000   Number         0  stubs.o ABSOLUTE
    __cpp_initialize__aeabi_                  - Undefined Weak Reference
    __cxa_finalize                            - Undefined Weak Reference
    __decompress                              - Undefined Weak Reference
    _clock_init                               - Undefined Weak Reference
    _microlib_exit                            - Undefined Weak Reference
    __Vectors_Size                           0x00000188   Number         0  startup_stm32f407xx.o ABSOLUTE
    __Vectors                                0x08000000   Data           4  startup_stm32f407xx.o(RESET)
    __Vectors_End                            0x08000188   Data           0  startup_stm32f407xx.o(RESET)
    __main                                   0x08000189   Thumb Code     0  entry.o(.ARM.Collect$$$$00000000)
    _main_stk                                0x08000189   Thumb Code     0  entry2.o(.ARM.Collect$$$$00000001)
    _main_scatterload                        0x0800018d   Thumb Code     0  entry5.o(.ARM.Collect$$$$00000004)
    __main_after_scatterload                 0x08000191   Thumb Code     0  entry5.o(.ARM.Collect$$$$00000004)
    _main_clock                              0x08000191   Thumb Code     0  entry7b.o(.ARM.Collect$$$$00000008)
    _main_cpp_init                           0x08000191   Thumb Code     0  entry8b.o(.ARM.Collect$$$$0000000A)
    _main_init                               0x08000191   Thumb Code     0  entry9a.o(.ARM.Collect$$$$0000000B)
    __rt_final_cpp                           0x08000199   Thumb Code     0  entry10a.o(.ARM.Collect$$$$0000000D)
    __rt_final_exit                          0x08000199   Thumb Code     0  entry11a.o(.ARM.Collect$$$$0000000F)
    Reset_Handler                            0x0800019d   Thumb Code     8  startup_stm32f407xx.o(.text)
    ADC_IRQHandler                           0x080001b7   Thumb Code     0  startup_stm32f407xx.o(.text)
    CAN1_RX0_IRQHandler                      0x080001b7   Thumb Code     0  startup_stm32f407xx.o(.text)
    CAN1_RX1_IRQHandler                      0x080001b7   Thumb Code     0  startup_stm32f407xx.o(.text)
    CAN1_SCE_IRQHandler                      0x080001b7   Thumb Code     0  startup_stm32f407xx.o(.text)
    CAN1_TX_IRQHandler                       0x080001b7   Thumb Code     0  startup_stm32f407xx.o(.text)
    CAN2_RX0_IRQHandler                      0x080001b7   Thumb Code     0  startup_stm32f407xx.o(.text)
    CAN2_RX1_IRQHandler                      0x080001b7   Thumb Code     0  startup_stm32f407xx.o(.text)
    CAN2_SCE_IRQHandler                      0x080001b7   Thumb Code     0  startup_stm32f407xx.o(.text)
    CAN2_TX_IRQHandler                       0x080001b7   Thumb Code     0  startup_stm32f407xx.o(.text)
    DCMI_IRQHandler                          0x080001b7   Thumb Code     0  startup_stm32f407xx.o(.text)
    DMA1_Stream0_IRQHandler                  0x080001b7   Thumb Code     0  startup_stm32f407xx.o(.text)
    DMA1_Stream1_IRQHandler                  0x080001b7   Thumb Code     0  startup_stm32f407xx.o(.text)
    DMA1_Stream2_IRQHandler                  0x080001b7   Thumb Code     0  startup_stm32f407xx.o(.text)
    DMA1_Stream3_IRQHandler                  0x080001b7   Thumb Code     0  startup_stm32f407xx.o(.text)
    DMA1_Stream4_IRQHandler                  0x080001b7   Thumb Code     0  startup_stm32f407xx.o(.text)
    DMA1_Stream5_IRQHandler                  0x080001b7   Thumb Code     0  startup_stm32f407xx.o(.text)
    DMA1_Stream6_IRQHandler                  0x080001b7   Thumb Code     0  startup_stm32f407xx.o(.text)
    DMA1_Stream7_IRQHandler                  0x080001b7   Thumb Code     0  startup_stm32f407xx.o(.text)
    DMA2_Stream0_IRQHandler                  0x080001b7   Thumb Code     0  startup_stm32f407xx.o(.text)
    DMA2_Stream1_IRQHandler                  0x080001b7   Thumb Code     0  startup_stm32f407xx.o(.text)
    DMA2_Stream2_IRQHandler                  0x080001b7   Thumb Code     0  startup_stm32f407xx.o(.text)
    DMA2_Stream3_IRQHandler                  0x080001b7   Thumb Code     0  startup_stm32f407xx.o(.text)
    DMA2_Stream4_IRQHandler                  0x080001b7   Thumb Code     0  startup_stm32f407xx.o(.text)
    DMA2_Stream5_IRQHandler                  0x080001b7   Thumb Code     0  startup_stm32f407xx.o(.text)
    DMA2_Stream6_IRQHandler                  0x080001b7   Thumb Code     0  startup_stm32f407xx.o(.text)
    DMA2_Stream7_IRQHandler                  0x080001b7   Thumb Code     0  startup_stm32f407xx.o(.text)
    ETH_WKUP_IRQHandler                      0x080001b7   Thumb Code     0  startup_stm32f407xx.o(.text)
    EXTI0_IRQHandler                         0x080001b7   Thumb Code     0  startup_stm32f407xx.o(.text)
    EXTI15_10_IRQHandler                     0x080001b7   Thumb Code     0  startup_stm32f407xx.o(.text)
    EXTI1_IRQHandler                         0x080001b7   Thumb Code     0  startup_stm32f407xx.o(.text)
    EXTI2_IRQHandler                         0x080001b7   Thumb Code     0  startup_stm32f407xx.o(.text)
    EXTI3_IRQHandler                         0x080001b7   Thumb Code     0  startup_stm32f407xx.o(.text)
    EXTI4_IRQHandler                         0x080001b7   Thumb Code     0  startup_stm32f407xx.o(.text)
    EXTI9_5_IRQHandler                       0x080001b7   Thumb Code     0  startup_stm32f407xx.o(.text)
    FLASH_IRQHandler                         0x080001b7   Thumb Code     0  startup_stm32f407xx.o(.text)
    FMC_IRQHandler                           0x080001b7   Thumb Code     0  startup_stm32f407xx.o(.text)
    FPU_IRQHandler                           0x080001b7   Thumb Code     0  startup_stm32f407xx.o(.text)
    HASH_RNG_IRQHandler                      0x080001b7   Thumb Code     0  startup_stm32f407xx.o(.text)
    I2C1_ER_IRQHandler                       0x080001b7   Thumb Code     0  startup_stm32f407xx.o(.text)
    I2C1_EV_IRQHandler                       0x080001b7   Thumb Code     0  startup_stm32f407xx.o(.text)
    I2C2_ER_IRQHandler                       0x080001b7   Thumb Code     0  startup_stm32f407xx.o(.text)
    I2C2_EV_IRQHandler                       0x080001b7   Thumb Code     0  startup_stm32f407xx.o(.text)
    I2C3_ER_IRQHandler                       0x080001b7   Thumb Code     0  startup_stm32f407xx.o(.text)
    I2C3_EV_IRQHandler                       0x080001b7   Thumb Code     0  startup_stm32f407xx.o(.text)
    OTG_FS_IRQHandler                        0x080001b7   Thumb Code     0  startup_stm32f407xx.o(.text)
    OTG_FS_WKUP_IRQHandler                   0x080001b7   Thumb Code     0  startup_stm32f407xx.o(.text)
    OTG_HS_EP1_IN_IRQHandler                 0x080001b7   Thumb Code     0  startup_stm32f407xx.o(.text)
    OTG_HS_EP1_OUT_IRQHandler                0x080001b7   Thumb Code     0  startup_stm32f407xx.o(.text)
    OTG_HS_IRQHandler                        0x080001b7   Thumb Code     0  startup_stm32f407xx.o(.text)
    OTG_HS_WKUP_IRQHandler                   0x080001b7   Thumb Code     0  startup_stm32f407xx.o(.text)
    PVD_IRQHandler                           0x080001b7   Thumb Code     0  startup_stm32f407xx.o(.text)
    RTC_Alarm_IRQHandler                     0x080001b7   Thumb Code     0  startup_stm32f407xx.o(.text)
    RTC_WKUP_IRQHandler                      0x080001b7   Thumb Code     0  startup_stm32f407xx.o(.text)
    SDIO_IRQHandler                          0x080001b7   Thumb Code     0  startup_stm32f407xx.o(.text)
    SPI1_IRQHandler                          0x080001b7   Thumb Code     0  startup_stm32f407xx.o(.text)
    SPI2_IRQHandler                          0x080001b7   Thumb Code     0  startup_stm32f407xx.o(.text)
    SPI3_IRQHandler                          0x080001b7   Thumb Code     0  startup_stm32f407xx.o(.text)
    TAMP_STAMP_IRQHandler                    0x080001b7   Thumb Code     0  startup_stm32f407xx.o(.text)
    TIM1_BRK_TIM9_IRQHandler                 0x080001b7   Thumb Code     0  startup_stm32f407xx.o(.text)
    TIM1_CC_IRQHandler                       0x080001b7   Thumb Code     0  startup_stm32f407xx.o(.text)
    TIM1_TRG_COM_TIM11_IRQHandler            0x080001b7   Thumb Code     0  startup_stm32f407xx.o(.text)
    TIM1_UP_TIM10_IRQHandler                 0x080001b7   Thumb Code     0  startup_stm32f407xx.o(.text)
    TIM2_IRQHandler                          0x080001b7   Thumb Code     0  startup_stm32f407xx.o(.text)
    TIM3_IRQHandler                          0x080001b7   Thumb Code     0  startup_stm32f407xx.o(.text)
    TIM4_IRQHandler                          0x080001b7   Thumb Code     0  startup_stm32f407xx.o(.text)
    TIM5_IRQHandler                          0x080001b7   Thumb Code     0  startup_stm32f407xx.o(.text)
    TIM6_DAC_IRQHandler                      0x080001b7   Thumb Code     0  startup_stm32f407xx.o(.text)
    TIM7_IRQHandler                          0x080001b7   Thumb Code     0  startup_stm32f407xx.o(.text)
    TIM8_BRK_TIM12_IRQHandler                0x080001b7   Thumb Code     0  startup_stm32f407xx.o(.text)
    TIM8_CC_IRQHandler                       0x080001b7   Thumb Code     0  startup_stm32f407xx.o(.text)
    TIM8_TRG_COM_TIM14_IRQHandler            0x080001b7   Thumb Code     0  startup_stm32f407xx.o(.text)
    TIM8_UP_TIM13_IRQHandler                 0x080001b7   Thumb Code     0  startup_stm32f407xx.o(.text)
    UART4_IRQHandler                         0x080001b7   Thumb Code     0  startup_stm32f407xx.o(.text)
    UART5_IRQHandler                         0x080001b7   Thumb Code     0  startup_stm32f407xx.o(.text)
    USART1_IRQHandler                        0x080001b7   Thumb Code     0  startup_stm32f407xx.o(.text)
    USART2_IRQHandler                        0x080001b7   Thumb Code     0  startup_stm32f407xx.o(.text)
    USART3_IRQHandler                        0x080001b7   Thumb Code     0  startup_stm32f407xx.o(.text)
    USART6_IRQHandler                        0x080001b7   Thumb Code     0  startup_stm32f407xx.o(.text)
    WWDG_IRQHandler                          0x080001b7   Thumb Code     0  startup_stm32f407xx.o(.text)
    rand                                     0x080001c1   Thumb Code    20  rand.o(.text)
    srand                                    0x080001d5   Thumb Code     6  rand.o(.text)
    __aeabi_memcpy                           0x080001e5   Thumb Code    36  memcpya.o(.text)
    __aeabi_memcpy4                          0x080001e5   Thumb Code     0  memcpya.o(.text)
    __aeabi_memcpy8                          0x080001e5   Thumb Code     0  memcpya.o(.text)
    __aeabi_memset                           0x08000209   Thumb Code    14  memseta.o(.text)
    __aeabi_memset4                          0x08000209   Thumb Code     0  memseta.o(.text)
    __aeabi_memset8                          0x08000209   Thumb Code     0  memseta.o(.text)
    __aeabi_memclr                           0x08000217   Thumb Code     4  memseta.o(.text)
    __aeabi_memclr4                          0x08000217   Thumb Code     0  memseta.o(.text)
    __aeabi_memclr8                          0x08000217   Thumb Code     0  memseta.o(.text)
    _memset$wrapper                          0x0800021b   Thumb Code    18  memseta.o(.text)
    strlen                                   0x0800022d   Thumb Code    14  strlen.o(.text)
    memcmp                                   0x0800023b   Thumb Code    26  memcmp.o(.text)
    __aeabi_uidiv                            0x08000255   Thumb Code     0  uidiv.o(.text)
    __aeabi_uidivmod                         0x08000255   Thumb Code    44  uidiv.o(.text)
    __scatterload                            0x08000281   Thumb Code    28  init.o(.text)
    __scatterload_rt2                        0x08000281   Thumb Code     0  init.o(.text)
    BusFault_Handler                         0x080002a5   Thumb Code     2  stm32f4xx_it.o(i.BusFault_Handler)
    DHCP_Periodic_Handle                     0x080002a9   Thumb Code    38  app_ethernet.o(i.DHCP_Periodic_Handle)
    DHCP_Process                             0x080002d5   Thumb Code   314  app_ethernet.o(i.DHCP_Process)
    DebugMon_Handler                         0x08000515   Thumb Code     2  stm32f4xx_it.o(i.DebugMon_Handler)
    ETH_IRQHandler                           0x0800058d   Thumb Code    26  app_ethernet.o(i.ETH_IRQHandler)
    ETH_PHY_ReadReg                          0x080007b1   Thumb Code    24  app_ethernet.o(i.ETH_PHY_ReadReg)
    ETH_link_check_state                     0x080007cd   Thumb Code   138  app_ethernet.o(i.ETH_link_check_state)
    Ethernet_Link_Periodic_Handle            0x08000859   Thumb Code    36  app_ethernet.o(i.Ethernet_Link_Periodic_Handle)
    GetPinStateOfKey1                        0x08000881   Thumb Code    20  bsp_key.o(i.GetPinStateOfKey1)
    HAL_Delay                                0x08000899   Thumb Code    30  stm32f4xx_hal.o(i.HAL_Delay)
    HAL_ETH_ConfigMAC                        0x080008b9   Thumb Code   308  stm32f4xx_hal_eth.o(i.HAL_ETH_ConfigMAC)
    HAL_ETH_DMARxDescListInit                0x080009f1   Thumb Code   128  stm32f4xx_hal_eth.o(i.HAL_ETH_DMARxDescListInit)
    HAL_ETH_DMATxDescListInit                0x08000a71   Thumb Code   142  stm32f4xx_hal_eth.o(i.HAL_ETH_DMATxDescListInit)
    HAL_ETH_GetReceivedFrame_IT              0x08000aff   Thumb Code   160  stm32f4xx_hal_eth.o(i.HAL_ETH_GetReceivedFrame_IT)
    HAL_ETH_Init                             0x08000ba1   Thumb Code   582  stm32f4xx_hal_eth.o(i.HAL_ETH_Init)
    HAL_ETH_MspInit                          0x08000e11   Thumb Code   242  ethernetif.o(i.HAL_ETH_MspInit)
    HAL_ETH_ReadPHYRegister                  0x08000f19   Thumb Code   140  stm32f4xx_hal_eth.o(i.HAL_ETH_ReadPHYRegister)
    HAL_ETH_Start                            0x08000fa5   Thumb Code    70  stm32f4xx_hal_eth.o(i.HAL_ETH_Start)
    HAL_ETH_TransmitFrame                    0x08000feb   Thumb Code   310  stm32f4xx_hal_eth.o(i.HAL_ETH_TransmitFrame)
    HAL_ETH_WritePHYRegister                 0x08001121   Thumb Code   132  stm32f4xx_hal_eth.o(i.HAL_ETH_WritePHYRegister)
    HAL_GPIO_Init                            0x080011a5   Thumb Code   518  stm32f4xx_hal_gpio.o(i.HAL_GPIO_Init)
    HAL_GPIO_ReadPin                         0x080013c1   Thumb Code    14  stm32f4xx_hal_gpio.o(i.HAL_GPIO_ReadPin)
    HAL_GPIO_WritePin                        0x080013cf   Thumb Code    14  stm32f4xx_hal_gpio.o(i.HAL_GPIO_WritePin)
    HAL_GetTick                              0x080013dd   Thumb Code     6  stm32f4xx_hal.o(i.HAL_GetTick)
    HAL_IncTick                              0x080013e9   Thumb Code    10  stm32f4xx_hal.o(i.HAL_IncTick)
    HAL_Init                                 0x080013f9   Thumb Code    48  stm32f4xx_hal.o(i.HAL_Init)
    HAL_InitTick                             0x0800142d   Thumb Code    34  stm32f4xx_hal.o(i.HAL_InitTick)
    HAL_MspInit                              0x08001455   Thumb Code   104  stm32f4xx_hal_msp.o(i.HAL_MspInit)
    HAL_NVIC_EnableIRQ                       0x080014bd   Thumb Code    24  stm32f4xx_hal_cortex.o(i.HAL_NVIC_EnableIRQ)
    HAL_NVIC_SetPriority                     0x080014d5   Thumb Code    98  stm32f4xx_hal_cortex.o(i.HAL_NVIC_SetPriority)
    HAL_NVIC_SetPriorityGrouping             0x0800153d   Thumb Code    30  stm32f4xx_hal_cortex.o(i.HAL_NVIC_SetPriorityGrouping)
    HAL_RCC_ClockConfig                      0x08001561   Thumb Code   474  stm32f4xx_hal_rcc.o(i.HAL_RCC_ClockConfig)
    HAL_RCC_EnableCSS                        0x08001751   Thumb Code     8  stm32f4xx_hal_rcc.o(i.HAL_RCC_EnableCSS)
    HAL_RCC_GetHCLKFreq                      0x0800175d   Thumb Code     6  stm32f4xx_hal_rcc.o(i.HAL_RCC_GetHCLKFreq)
    HAL_RCC_GetPCLK1Freq                     0x08001769   Thumb Code    36  stm32f4xx_hal_rcc.o(i.HAL_RCC_GetPCLK1Freq)
    HAL_RCC_GetPCLK2Freq                     0x08001795   Thumb Code    36  stm32f4xx_hal_rcc.o(i.HAL_RCC_GetPCLK2Freq)
    HAL_RCC_GetSysClockFreq                  0x080017c1   Thumb Code   126  stm32f4xx_hal_rcc.o(i.HAL_RCC_GetSysClockFreq)
    HAL_RCC_OscConfig                        0x0800184d   Thumb Code  1058  stm32f4xx_hal_rcc.o(i.HAL_RCC_OscConfig)
    HAL_SYSTICK_CLKSourceConfig              0x08001c8d   Thumb Code    28  stm32f4xx_hal_cortex.o(i.HAL_SYSTICK_CLKSourceConfig)
    HAL_SYSTICK_Callback                     0x08001ca9   Thumb Code     2  stm32f4xx_hal_cortex.o(i.HAL_SYSTICK_Callback)
    HAL_SYSTICK_Config                       0x08001cad   Thumb Code    36  stm32f4xx_hal_cortex.o(i.HAL_SYSTICK_Config)
    HAL_SYSTICK_IRQHandler                   0x08001cd5   Thumb Code     8  stm32f4xx_hal_cortex.o(i.HAL_SYSTICK_IRQHandler)
    HAL_UART_Init                            0x08001cdd   Thumb Code   100  stm32f4xx_hal_uart.o(i.HAL_UART_Init)
    HAL_UART_MspInit                         0x08001d41   Thumb Code    66  bsp_debug_usart.o(i.HAL_UART_MspInit)
    HAL_UART_Transmit                        0x08001d8d   Thumb Code   220  stm32f4xx_hal_uart.o(i.HAL_UART_Transmit)
    HardFault_Handler                        0x08001e69   Thumb Code     2  stm32f4xx_it.o(i.HardFault_Handler)
    KEY_GPIO_Init                            0x08001e6d   Thumb Code   174  bsp_key.o(i.KEY_GPIO_Init)
    KeyCreate                                0x08001f25   Thumb Code    16  bsp_key.o(i.KeyCreate)
    Key_AccessTimes                          0x08001f35   Thumb Code    14  bsp_key.o(i.Key_AccessTimes)
    Key_RefreshState                         0x08001f43   Thumb Code   132  bsp_key.o(i.Key_RefreshState)
    MX_DEBUG_USART_Init                      0x08001fc9   Thumb Code    54  bsp_debug_usart.o(i.MX_DEBUG_USART_Init)
    MemManage_Handler                        0x0800200d   Thumb Code     2  stm32f4xx_it.o(i.MemManage_Handler)
    NMI_Handler                              0x0800200f   Thumb Code     2  stm32f4xx_it.o(i.NMI_Handler)
    Netif_Config                             0x08002011   Thumb Code    62  app_ethernet.o(i.Netif_Config)
    PendSV_Handler                           0x08002061   Thumb Code     2  stm32f4xx_it.o(i.PendSV_Handler)
    RCC_IRQHandler                           0x08002063   Thumb Code     2  stm32f4xx_it.o(i.RCC_IRQHandler)
    SVC_Handler                              0x08002065   Thumb Code     2  stm32f4xx_it.o(i.SVC_Handler)
    SysTick_Handler                          0x08002067   Thumb Code    14  stm32f4xx_it.o(i.SysTick_Handler)
    SystemClock_Config                       0x08002075   Thumb Code   146  main.o(i.SystemClock_Config)
    SystemInit                               0x08002111   Thumb Code    64  system_stm32f4xx.o(i.SystemInit)
    UsageFault_Handler                       0x08002525   Thumb Code     2  stm32f4xx_it.o(i.UsageFault_Handler)
    YSF4_TCP_SENDData                        0x08002529   Thumb Code   264  tcp_echoserver.o(i.YSF4_TCP_SENDData)
    __0printf$3                              0x08002735   Thumb Code    22  printf3.o(i.__0printf$3)
    __1printf$3                              0x08002735   Thumb Code     0  printf3.o(i.__0printf$3)
    __2printf                                0x08002735   Thumb Code     0  printf3.o(i.__0printf$3)
    __0sprintf$3                             0x08002755   Thumb Code    34  printf3.o(i.__0sprintf$3)
    __1sprintf$3                             0x08002755   Thumb Code     0  printf3.o(i.__0sprintf$3)
    __2sprintf                               0x08002755   Thumb Code     0  printf3.o(i.__0sprintf$3)
    __scatterload_copy                       0x0800277d   Thumb Code    14  handlers.o(i.__scatterload_copy)
    __scatterload_null                       0x0800278b   Thumb Code     2  handlers.o(i.__scatterload_null)
    __scatterload_zeroinit                   0x0800278d   Thumb Code    14  handlers.o(i.__scatterload_zeroinit)
    dhcp_arp_reply                           0x0800297d   Thumb Code    30  dhcp.o(i.dhcp_arp_reply)
    dhcp_coarse_tmr                          0x08002ac1   Thumb Code    98  dhcp.o(i.dhcp_coarse_tmr)
    dhcp_fine_tmr                            0x08002dfd   Thumb Code    48  dhcp.o(i.dhcp_fine_tmr)
    dhcp_network_changed                     0x08002f4d   Thumb Code    48  dhcp.o(i.dhcp_network_changed)
    dhcp_release                             0x08003591   Thumb Code   172  dhcp.o(i.dhcp_release)
    dhcp_renew                               0x08003645   Thumb Code   174  dhcp.o(i.dhcp_renew)
    dhcp_start                               0x08003811   Thumb Code   148  dhcp.o(i.dhcp_start)
    dhcp_stop                                0x080038a5   Thumb Code    36  dhcp.o(i.dhcp_stop)
    dhcp_supplied_address                    0x080038c9   Thumb Code    30  dhcp.o(i.dhcp_supplied_address)
    etharp_cleanup_netif                     0x080039d9   Thumb Code    42  etharp.o(i.etharp_cleanup_netif)
    etharp_input                             0x08003b3d   Thumb Code   200  etharp.o(i.etharp_input)
    etharp_output                            0x08003c05   Thumb Code   254  etharp.o(i.etharp_output)
    etharp_query                             0x08003d71   Thumb Code   286  etharp.o(i.etharp_query)
    etharp_request                           0x08003f25   Thumb Code     6  etharp.o(i.etharp_request)
    etharp_tmr                               0x08003f59   Thumb Code    96  etharp.o(i.etharp_tmr)
    ethernet_input                           0x08004041   Thumb Code   164  ethernet.o(i.ethernet_input)
    ethernet_link_check_state                0x080040e9   Thumb Code   166  ethernetif.o(i.ethernet_link_check_state)
    ethernet_link_status_updated             0x080041cd   Thumb Code    60  app_ethernet.o(i.ethernet_link_status_updated)
    ethernet_output                          0x08004249   Thumb Code    82  ethernet.o(i.ethernet_output)
    ethernetif_init                          0x0800429d   Thumb Code    30  ethernetif.o(i.ethernetif_init)
    ethernetif_input                         0x080042c5   Thumb Code    38  ethernetif.o(i.ethernetif_input)
    fputc                                    0x080042ed   Thumb Code    22  bsp_debug_usart.o(i.fputc)
    icmp_dest_unreach                        0x08004309   Thumb Code     8  icmp.o(i.icmp_dest_unreach)
    icmp_input                               0x08004311   Thumb Code   320  icmp.o(i.icmp_input)
    icmp_time_exceeded                       0x080044c7   Thumb Code     8  icmp.o(i.icmp_time_exceeded)
    inet_chksum_pbuf                         0x080044cf   Thumb Code    76  inet_chksum.o(i.inet_chksum_pbuf)
    ip4_addr_isbroadcast_u32                 0x0800451b   Thumb Code    80  ip4_addr.o(i.ip4_addr_isbroadcast_u32)
    ip4_frag                                 0x0800456d   Thumb Code   416  ip4_frag.o(i.ip4_frag)
    ip4_input                                0x08004711   Thumb Code   490  ip4.o(i.ip4_input)
    ip4_output_if                            0x08004905   Thumb Code    44  ip4.o(i.ip4_output_if)
    ip4_output_if_src                        0x08004931   Thumb Code   178  ip4.o(i.ip4_output_if_src)
    ip4_reass                                0x080049ed   Thumb Code   378  ip4_frag.o(i.ip4_reass)
    ip4_route                                0x08004b6d   Thumb Code   106  ip4.o(i.ip4_route)
    ip4addr_ntoa                             0x08004be1   Thumb Code     8  ip4_addr.o(i.ip4addr_ntoa)
    ip4addr_ntoa_r                           0x08004bed   Thumb Code   172  ip4_addr.o(i.ip4addr_ntoa_r)
    ip_reass_tmr                             0x08004f21   Thumb Code    42  ip4_frag.o(i.ip_reass_tmr)
    lwip_IT_handle                           0x08005201   Thumb Code     6  ethernetif.o(i.lwip_IT_handle)
    lwip_htonl                               0x0800520d   Thumb Code    24  def.o(i.lwip_htonl)
    lwip_htons                               0x08005225   Thumb Code    10  def.o(i.lwip_htons)
    lwip_init                                0x0800522f   Thumb Code    30  init.o(i.lwip_init)
    lwip_standard_chksum                     0x0800524d   Thumb Code    90  inet_chksum.o(i.lwip_standard_chksum)
    main                                     0x080052a9   Thumb Code    50  main.o(i.main)
    mem_free                                 0x080052fd   Thumb Code    38  mem.o(i.mem_free)
    mem_init                                 0x08005329   Thumb Code    44  mem.o(i.mem_init)
    mem_malloc                               0x0800535d   Thumb Code   186  mem.o(i.mem_malloc)
    mem_trim                                 0x0800541d   Thumb Code   224  mem.o(i.mem_trim)
    memp_free                                0x08005501   Thumb Code    20  memp.o(i.memp_free)
    memp_init                                0x08005519   Thumb Code    24  memp.o(i.memp_init)
    memp_init_pool                           0x08005535   Thumb Code    46  memp.o(i.memp_init_pool)
    memp_malloc                              0x08005565   Thumb Code    18  memp.o(i.memp_malloc)
    netif_add                                0x0800557d   Thumb Code    84  netif.o(i.netif_add)
    netif_init                               0x080055d5   Thumb Code     2  netif.o(i.netif_init)
    netif_set_addr                           0x080055f5   Thumb Code    76  netif.o(i.netif_set_addr)
    netif_set_default                        0x08005641   Thumb Code     6  netif.o(i.netif_set_default)
    netif_set_down                           0x0800564d   Thumb Code    30  netif.o(i.netif_set_down)
    netif_set_gw                             0x0800566b   Thumb Code    14  netif.o(i.netif_set_gw)
    netif_set_ipaddr                         0x08005679   Thumb Code    66  netif.o(i.netif_set_ipaddr)
    netif_set_link_callback                  0x080056c1   Thumb Code     8  netif.o(i.netif_set_link_callback)
    netif_set_link_down                      0x080056c9   Thumb Code    28  netif.o(i.netif_set_link_down)
    netif_set_link_up                        0x080056e5   Thumb Code    62  netif.o(i.netif_set_link_up)
    netif_set_netmask                        0x08005723   Thumb Code    14  netif.o(i.netif_set_netmask)
    netif_set_up                             0x08005731   Thumb Code    32  netif.o(i.netif_set_up)
    pbuf_alloc                               0x08005751   Thumb Code   314  pbuf.o(i.pbuf_alloc)
    pbuf_alloced_custom                      0x0800588b   Thumb Code   104  pbuf.o(i.pbuf_alloced_custom)
    pbuf_cat                                 0x080058f3   Thumb Code    40  pbuf.o(i.pbuf_cat)
    pbuf_chain                               0x0800591b   Thumb Code    20  pbuf.o(i.pbuf_chain)
    pbuf_clen                                0x0800592f   Thumb Code    20  pbuf.o(i.pbuf_clen)
    pbuf_copy                                0x08005943   Thumb Code   168  pbuf.o(i.pbuf_copy)
    pbuf_copy_partial                        0x080059eb   Thumb Code   112  pbuf.o(i.pbuf_copy_partial)
    pbuf_free                                0x08005a5b   Thumb Code    94  pbuf.o(i.pbuf_free)
    pbuf_header                              0x08005ab9   Thumb Code     6  pbuf.o(i.pbuf_header)
    pbuf_header_force                        0x08005abf   Thumb Code     6  pbuf.o(i.pbuf_header_force)
    pbuf_realloc                             0x08005b4f   Thumb Code    92  pbuf.o(i.pbuf_realloc)
    pbuf_ref                                 0x08005bab   Thumb Code    12  pbuf.o(i.pbuf_ref)
    pbuf_take                                0x08005bb7   Thumb Code    94  pbuf.o(i.pbuf_take)
    sys_check_timeouts                       0x08005c7d   Thumb Code    72  timeouts.o(i.sys_check_timeouts)
    sys_now                                  0x08005cc9   Thumb Code     4  ethernetif.o(i.sys_now)
    sys_timeout                              0x08005ccd   Thumb Code   164  timeouts.o(i.sys_timeout)
    sys_timeouts_init                        0x08005d75   Thumb Code    36  timeouts.o(i.sys_timeouts_init)
    tcp_abandon                              0x08005da5   Thumb Code   202  tcp.o(i.tcp_abandon)
    tcp_abort                                0x08005e79   Thumb Code     6  tcp.o(i.tcp_abort)
    tcp_accept                               0x08005e7f   Thumb Code    14  tcp.o(i.tcp_accept)
    tcp_alloc                                0x08005e9d   Thumb Code   164  tcp.o(i.tcp_alloc)
    tcp_arg                                  0x08005f4d   Thumb Code     8  tcp.o(i.tcp_arg)
    tcp_bind                                 0x08005f55   Thumb Code   144  tcp.o(i.tcp_bind)
    tcp_close                                0x08005ff1   Thumb Code    20  tcp.o(i.tcp_close)
    tcp_eff_send_mss_impl                    0x080064b9   Thumb Code    38  tcp.o(i.tcp_eff_send_mss_impl)
    tcp_enqueue_flags                        0x080064df   Thumb Code   190  tcp_out.o(i.tcp_enqueue_flags)
    tcp_err                                  0x0800659d   Thumb Code    10  tcp.o(i.tcp_err)
    tcp_fasttmr                              0x080065a9   Thumb Code    98  tcp.o(i.tcp_fasttmr)
    tcp_init                                 0x08006659   Thumb Code     2  tcp.o(i.tcp_init)
    tcp_input                                0x0800665d   Thumb Code   950  tcp_in.o(i.tcp_input)
    tcp_keepalive                            0x08006a2d   Thumb Code    88  tcp_out.o(i.tcp_keepalive)
    tcp_listen_with_backlog                  0x08006c5d   Thumb Code   132  tcp.o(i.tcp_listen_with_backlog)
    tcp_netif_ip_addr_changed                0x08006ced   Thumb Code    76  tcp.o(i.tcp_netif_ip_addr_changed)
    tcp_new                                  0x08006d61   Thumb Code     6  tcp.o(i.tcp_new)
    tcp_next_iss                             0x08006dc9   Thumb Code    12  tcp.o(i.tcp_next_iss)
    tcp_output                               0x08006dd9   Thumb Code   516  tcp_out.o(i.tcp_output)
    tcp_pcb_purge                            0x080071fb   Thumb Code    58  tcp.o(i.tcp_pcb_purge)
    tcp_pcb_remove                           0x08007235   Thumb Code    90  tcp.o(i.tcp_pcb_remove)
    tcp_poll                                 0x080072a1   Thumb Code     8  tcp.o(i.tcp_poll)
    tcp_process_refused_data                 0x0800773d   Thumb Code   124  tcp.o(i.tcp_process_refused_data)
    tcp_recv                                 0x08007be5   Thumb Code     8  tcp.o(i.tcp_recv)
    tcp_recv_null                            0x08007bed   Thumb Code    38  tcp.o(i.tcp_recv_null)
    tcp_recved                               0x08007c15   Thumb Code    78  tcp.o(i.tcp_recved)
    tcp_rexmit                               0x08007c87   Thumb Code    82  tcp_out.o(i.tcp_rexmit)
    tcp_rexmit_fast                          0x08007cd9   Thumb Code   102  tcp_out.o(i.tcp_rexmit_fast)
    tcp_rexmit_rto                           0x08007d41   Thumb Code    58  tcp_out.o(i.tcp_rexmit_rto)
    tcp_rst                                  0x08007d89   Thumb Code   136  tcp_out.o(i.tcp_rst)
    tcp_seg_free                             0x08007e11   Thumb Code    30  tcp.o(i.tcp_seg_free)
    tcp_segs_free                            0x08007e2f   Thumb Code    20  tcp.o(i.tcp_segs_free)
    tcp_send_empty_ack                       0x08007e43   Thumb Code   116  tcp_out.o(i.tcp_send_empty_ack)
    tcp_send_fin                             0x08007eb7   Thumb Code    74  tcp_out.o(i.tcp_send_fin)
    tcp_sent                                 0x08007f01   Thumb Code     8  tcp.o(i.tcp_sent)
    tcp_server_usersent                      0x08007f09   Thumb Code    96  tcp_echoserver.o(i.tcp_server_usersent)
    tcp_setprio                              0x08007f95   Thumb Code     4  tcp.o(i.tcp_setprio)
    tcp_slowtmr                              0x08007f99   Thumb Code   640  tcp.o(i.tcp_slowtmr)
    tcp_timer_needed                         0x08008241   Thumb Code    36  timeouts.o(i.tcp_timer_needed)
    tcp_tmr                                  0x0800830d   Thumb Code    30  tcp.o(i.tcp_tmr)
    tcp_trigger_input_pcb_close              0x08008331   Thumb Code    12  tcp_in.o(i.tcp_trigger_input_pcb_close)
    tcp_update_rcv_ann_wnd                   0x08008341   Thumb Code    62  tcp.o(i.tcp_update_rcv_ann_wnd)
    tcp_write                                0x0800837f   Thumb Code   724  tcp_out.o(i.tcp_write)
    tcp_zero_window_probe                    0x080086a1   Thumb Code   202  tcp_out.o(i.tcp_zero_window_probe)
    udp_bind                                 0x080087a5   Thumb Code   132  udp.o(i.udp_bind)
    udp_connect                              0x08008831   Thumb Code    82  udp.o(i.udp_connect)
    udp_init                                 0x08008889   Thumb Code     2  udp.o(i.udp_init)
    udp_input                                0x0800888d   Thumb Code   314  udp.o(i.udp_input)
    udp_netif_ip_addr_changed                0x08008a09   Thumb Code    50  udp.o(i.udp_netif_ip_addr_changed)
    udp_new                                  0x08008a41   Thumb Code    36  udp.o(i.udp_new)
    udp_recv                                 0x08008ab1   Thumb Code     6  udp.o(i.udp_recv)
    udp_remove                               0x08008ab9   Thumb Code    44  udp.o(i.udp_remove)
    udp_sendto_if                            0x08008ae9   Thumb Code    72  udp.o(i.udp_sendto_if)
    udp_sendto_if_src                        0x08008b31   Thumb Code   186  udp.o(i.udp_sendto_if_src)
    AHBPrescTable                            0x08008bea   Data          16  system_stm32f4xx.o(.constdata)
    APBPrescTable                            0x08008bfa   Data           8  system_stm32f4xx.o(.constdata)
    ip_addr_any                              0x08008c04   Data           4  ip4_addr.o(.constdata)
    ip_addr_broadcast                        0x08008c08   Data           4  ip4_addr.o(.constdata)
    ethbroadcast                             0x08008c0c   Data           6  ethernet.o(.constdata)
    ethzero                                  0x08008c12   Data           6  ethernet.o(.constdata)
    memp_UDP_PCB                             0x08008c18   Data          12  memp.o(.constdata)
    memp_TCP_PCB                             0x08008c24   Data          12  memp.o(.constdata)
    memp_TCP_PCB_LISTEN                      0x08008c30   Data          12  memp.o(.constdata)
    memp_TCP_SEG                             0x08008c3c   Data          12  memp.o(.constdata)
    memp_REASSDATA                           0x08008c48   Data          12  memp.o(.constdata)
    memp_FRAG_PBUF                           0x08008c54   Data          12  memp.o(.constdata)
    memp_SYS_TIMEOUT                         0x08008c60   Data          12  memp.o(.constdata)
    memp_PBUF                                0x08008c6c   Data          12  memp.o(.constdata)
    memp_PBUF_POOL                           0x08008c78   Data          12  memp.o(.constdata)
    memp_pools                               0x08008c84   Data          36  memp.o(.constdata)
    tcp_pcb_lists                            0x08008cec   Data          16  tcp.o(.constdata)
    lwip_cyclic_timers                       0x08008cfc   Data          40  timeouts.o(.constdata)
    Region$$Table$$Base                      0x08008d9c   Number         0  anon$$obj.o(Region$$Table)
    Region$$Table$$Limit                     0x08008dbc   Number         0  anon$$obj.o(Region$$Table)
    key1                                     0x20000000   Data           8  main.o(.data)
    DHCP_state                               0x20000008   Data           1  app_ethernet.o(.data)
    DHCPfineTimer                            0x2000000c   Data           4  app_ethernet.o(.data)
    EthernetLinkTimer                        0x20000010   Data           4  app_ethernet.o(.data)
    link_flag                                0x20000014   Data           1  tcp_echoserver.o(.data)
    real_time_data                           0x20000018   Data           4  tcp_echoserver.o(.data)
    tcp_echoserver_pcb                       0x2000001c   Data           4  tcp_echoserver.o(.data)
    tcp_echoserver_es                        0x20000020   Data           4  tcp_echoserver.o(.data)
    ServerIp                                 0x20000024   Data           4  tcp_echoserver.o(.data)
    uwTick                                   0x20000028   Data           4  stm32f4xx_hal.o(.data)
    SystemCoreClock                          0x2000002c   Data           4  system_stm32f4xx.o(.data)
    netif_list                               0x20000080   Data           4  netif.o(.data)
    netif_default                            0x20000084   Data           4  netif.o(.data)
    tcp_active_pcbs_changed                  0x20000088   Data           1  tcp.o(.data)
    tcp_ticks                                0x20000094   Data           4  tcp.o(.data)
    tcp_bound_pcbs                           0x20000098   Data           4  tcp.o(.data)
    tcp_listen_pcbs                          0x2000009c   Data           4  tcp.o(.data)
    tcp_active_pcbs                          0x200000a0   Data           4  tcp.o(.data)
    tcp_tw_pcbs                              0x200000a4   Data           4  tcp.o(.data)
    tcp_input_pcb                            0x200000c8   Data           4  tcp_in.o(.data)
    biaozhi                                  0x200000cc   Data           4  tcp_out.o(.data)
    N111                                     0x200000d0   Data           4  tcp_out.o(.data)
    N222                                     0x200000d4   Data           4  tcp_out.o(.data)
    udp_pcbs                                 0x200000e8   Data           4  udp.o(.data)
    __stdout                                 0x200000f0   Data           4  stdout.o(.data)
    gnetif                                   0x200000f4   Data          56  main.o(.bss)
    Lwip_data                                0x2000012c   Data          18  app_ethernet.o(.bss)
    DMARxDscrTab                             0x20000140   Data         128  ethernetif.o(.bss)
    DMATxDscrTab                             0x200001c0   Data         128  ethernetif.o(.bss)
    Rx_Buff                                  0x20000240   Data        6096  ethernetif.o(.bss)
    Tx_Buff                                  0x20001a10   Data        6096  ethernetif.o(.bss)
    EthHandle                                0x200031e0   Data          72  ethernetif.o(.bss)
    tcp_server_recvbuf                       0x20003228   Data         100  tcp_echoserver.o(.bss)
    tcp_SendData                             0x2000328c   Data         100  tcp_echoserver.o(.bss)
    husart_debug                             0x200032f0   Data          64  bsp_debug_usart.o(.bss)
    dhcp_rx_options_val                      0x20003330   Data          40  dhcp.o(.bss)
    dhcp_rx_options_given                    0x20003358   Data          10  dhcp.o(.bss)
    ip_data                                  0x20003464   Data          24  ip.o(.bss)
    ram_heap                                 0x2000347c   Data       10259  mem.o(.bss)
    memp_memory_UDP_PCB_base                 0x20005c8f   Data         195  memp.o(.bss)
    memp_memory_TCP_PCB_base                 0x20005d52   Data        1483  memp.o(.bss)
    memp_memory_TCP_PCB_LISTEN_base          0x2000631d   Data         143  memp.o(.bss)
    memp_memory_TCP_SEG_base                 0x200063ac   Data         131  memp.o(.bss)
    memp_memory_REASSDATA_base               0x2000642f   Data         163  memp.o(.bss)
    memp_memory_FRAG_PBUF_base               0x200064d2   Data         363  memp.o(.bss)
    memp_memory_SYS_TIMEOUT_base             0x2000663d   Data         163  memp.o(.bss)
    memp_memory_PBUF_base                    0x200066e0   Data         163  memp.o(.bss)
    memp_memory_PBUF_POOL_base               0x20006783   Data        4227  memp.o(.bss)
    __initial_sp                             0x20008818   Data           0  startup_stm32f407xx.o(STACK)



==============================================================================

Memory Map of the image

  Image Entry point : 0x08000189

  Load Region LR_IROM1 (Base: 0x08000000, Size: 0x00008eb0, Max: 0x00100000, ABSOLUTE)

    Execution Region ER_IROM1 (Exec base: 0x08000000, Load base: 0x08000000, Size: 0x00008dbc, Max: 0x00100000, ABSOLUTE)

    Exec Addr    Load Addr    Size         Type   Attr      Idx    E Section Name        Object

    0x08000000   0x08000000   0x00000188   Data   RO            3    RESET               startup_stm32f407xx.o
    0x08000188   0x08000188   0x00000000   Code   RO         8464  * .ARM.Collect$$$$00000000  mc_w.l(entry.o)
    0x08000188   0x08000188   0x00000004   Code   RO         8743    .ARM.Collect$$$$00000001  mc_w.l(entry2.o)
    0x0800018c   0x0800018c   0x00000004   Code   RO         8746    .ARM.Collect$$$$00000004  mc_w.l(entry5.o)
    0x08000190   0x08000190   0x00000000   Code   RO         8748    .ARM.Collect$$$$00000008  mc_w.l(entry7b.o)
    0x08000190   0x08000190   0x00000000   Code   RO         8750    .ARM.Collect$$$$0000000A  mc_w.l(entry8b.o)
    0x08000190   0x08000190   0x00000008   Code   RO         8751    .ARM.Collect$$$$0000000B  mc_w.l(entry9a.o)
    0x08000198   0x08000198   0x00000000   Code   RO         8753    .ARM.Collect$$$$0000000D  mc_w.l(entry10a.o)
    0x08000198   0x08000198   0x00000000   Code   RO         8755    .ARM.Collect$$$$0000000F  mc_w.l(entry11a.o)
    0x08000198   0x08000198   0x00000004   Code   RO         8744    .ARM.Collect$$$$00002712  mc_w.l(entry2.o)
    0x0800019c   0x0800019c   0x00000024   Code   RO            4    .text               startup_stm32f407xx.o
    0x080001c0   0x080001c0   0x00000024   Code   RO         8467    .text               mc_w.l(rand.o)
    0x080001e4   0x080001e4   0x00000024   Code   RO         8470    .text               mc_w.l(memcpya.o)
    0x08000208   0x08000208   0x00000024   Code   RO         8472    .text               mc_w.l(memseta.o)
    0x0800022c   0x0800022c   0x0000000e   Code   RO         8474    .text               mc_w.l(strlen.o)
    0x0800023a   0x0800023a   0x0000001a   Code   RO         8476    .text               mc_w.l(memcmp.o)
    0x08000254   0x08000254   0x0000002c   Code   RO         8758    .text               mc_w.l(uidiv.o)
    0x08000280   0x08000280   0x00000024   Code   RO         8773    .text               mc_w.l(init.o)
    0x080002a4   0x080002a4   0x00000002   Code   RO          443    i.BusFault_Handler  stm32f4xx_it.o
    0x080002a6   0x080002a6   0x00000002   PAD
    0x080002a8   0x080002a8   0x0000002c   Code   RO          524    i.DHCP_Periodic_Handle  app_ethernet.o
    0x080002d4   0x080002d4   0x00000240   Code   RO          525    i.DHCP_Process      app_ethernet.o
    0x08000514   0x08000514   0x00000002   Code   RO          444    i.DebugMon_Handler  stm32f4xx_it.o
    0x08000516   0x08000516   0x00000010   Code   RO         3751    i.ETH_DMAReceptionEnable  stm32f4xx_hal_eth.o
    0x08000526   0x08000526   0x00000010   Code   RO         3753    i.ETH_DMATransmissionEnable  stm32f4xx_hal_eth.o
    0x08000536   0x08000536   0x00000002   PAD
    0x08000538   0x08000538   0x00000024   Code   RO         3754    i.ETH_Delay         stm32f4xx_hal_eth.o
    0x0800055c   0x0800055c   0x0000002e   Code   RO         3755    i.ETH_FlushTransmitFIFO  stm32f4xx_hal_eth.o
    0x0800058a   0x0800058a   0x00000002   PAD
    0x0800058c   0x0800058c   0x00000020   Code   RO          526    i.ETH_IRQHandler    app_ethernet.o
    0x080005ac   0x080005ac   0x0000002a   Code   RO         3756    i.ETH_MACAddressConfig  stm32f4xx_hal_eth.o
    0x080005d6   0x080005d6   0x00000002   PAD
    0x080005d8   0x080005d8   0x00000194   Code   RO         3757    i.ETH_MACDMAConfig  stm32f4xx_hal_eth.o
    0x0800076c   0x0800076c   0x00000022   Code   RO         3759    i.ETH_MACReceptionEnable  stm32f4xx_hal_eth.o
    0x0800078e   0x0800078e   0x00000022   Code   RO         3761    i.ETH_MACTransmissionEnable  stm32f4xx_hal_eth.o
    0x080007b0   0x080007b0   0x0000001c   Code   RO          527    i.ETH_PHY_ReadReg   app_ethernet.o
    0x080007cc   0x080007cc   0x0000008a   Code   RO          529    i.ETH_link_check_state  app_ethernet.o
    0x08000856   0x08000856   0x00000002   PAD
    0x08000858   0x08000858   0x00000028   Code   RO          530    i.Ethernet_Link_Periodic_Handle  app_ethernet.o
    0x08000880   0x08000880   0x00000018   Code   RO         6557    i.GetPinStateOfKey1  bsp_key.o
    0x08000898   0x08000898   0x0000001e   Code   RO         1607    i.HAL_Delay         stm32f4xx_hal.o
    0x080008b6   0x080008b6   0x00000002   PAD
    0x080008b8   0x080008b8   0x00000138   Code   RO         3763    i.HAL_ETH_ConfigMAC  stm32f4xx_hal_eth.o
    0x080009f0   0x080009f0   0x00000080   Code   RO         3764    i.HAL_ETH_DMARxDescListInit  stm32f4xx_hal_eth.o
    0x08000a70   0x08000a70   0x0000008e   Code   RO         3765    i.HAL_ETH_DMATxDescListInit  stm32f4xx_hal_eth.o
    0x08000afe   0x08000afe   0x000000a0   Code   RO         3769    i.HAL_ETH_GetReceivedFrame_IT  stm32f4xx_hal_eth.o
    0x08000b9e   0x08000b9e   0x00000002   PAD
    0x08000ba0   0x08000ba0   0x00000270   Code   RO         3772    i.HAL_ETH_Init      stm32f4xx_hal_eth.o
    0x08000e10   0x08000e10   0x00000108   Code   RO          633    i.HAL_ETH_MspInit   ethernetif.o
    0x08000f18   0x08000f18   0x0000008c   Code   RO         3775    i.HAL_ETH_ReadPHYRegister  stm32f4xx_hal_eth.o
    0x08000fa4   0x08000fa4   0x00000046   Code   RO         3777    i.HAL_ETH_Start     stm32f4xx_hal_eth.o
    0x08000fea   0x08000fea   0x00000136   Code   RO         3779    i.HAL_ETH_TransmitFrame  stm32f4xx_hal_eth.o
    0x08001120   0x08001120   0x00000084   Code   RO         3781    i.HAL_ETH_WritePHYRegister  stm32f4xx_hal_eth.o
    0x080011a4   0x080011a4   0x0000021c   Code   RO          976    i.HAL_GPIO_Init     stm32f4xx_hal_gpio.o
    0x080013c0   0x080013c0   0x0000000e   Code   RO          978    i.HAL_GPIO_ReadPin  stm32f4xx_hal_gpio.o
    0x080013ce   0x080013ce   0x0000000e   Code   RO          980    i.HAL_GPIO_WritePin  stm32f4xx_hal_gpio.o
    0x080013dc   0x080013dc   0x0000000c   Code   RO         1613    i.HAL_GetTick       stm32f4xx_hal.o
    0x080013e8   0x080013e8   0x00000010   Code   RO         1615    i.HAL_IncTick       stm32f4xx_hal.o
    0x080013f8   0x080013f8   0x00000034   Code   RO         1616    i.HAL_Init          stm32f4xx_hal.o
    0x0800142c   0x0800142c   0x00000028   Code   RO         1617    i.HAL_InitTick      stm32f4xx_hal.o
    0x08001454   0x08001454   0x00000068   Code   RO          419    i.HAL_MspInit       stm32f4xx_hal_msp.o
    0x080014bc   0x080014bc   0x00000018   Code   RO         1044    i.HAL_NVIC_EnableIRQ  stm32f4xx_hal_cortex.o
    0x080014d4   0x080014d4   0x00000068   Code   RO         1050    i.HAL_NVIC_SetPriority  stm32f4xx_hal_cortex.o
    0x0800153c   0x0800153c   0x00000024   Code   RO         1051    i.HAL_NVIC_SetPriorityGrouping  stm32f4xx_hal_cortex.o
    0x08001560   0x08001560   0x000001f0   Code   RO         1394    i.HAL_RCC_ClockConfig  stm32f4xx_hal_rcc.o
    0x08001750   0x08001750   0x0000000c   Code   RO         1397    i.HAL_RCC_EnableCSS  stm32f4xx_hal_rcc.o
    0x0800175c   0x0800175c   0x0000000c   Code   RO         1399    i.HAL_RCC_GetHCLKFreq  stm32f4xx_hal_rcc.o
    0x08001768   0x08001768   0x0000002c   Code   RO         1401    i.HAL_RCC_GetPCLK1Freq  stm32f4xx_hal_rcc.o
    0x08001794   0x08001794   0x0000002c   Code   RO         1402    i.HAL_RCC_GetPCLK2Freq  stm32f4xx_hal_rcc.o
    0x080017c0   0x080017c0   0x0000008c   Code   RO         1403    i.HAL_RCC_GetSysClockFreq  stm32f4xx_hal_rcc.o
    0x0800184c   0x0800184c   0x00000440   Code   RO         1406    i.HAL_RCC_OscConfig  stm32f4xx_hal_rcc.o
    0x08001c8c   0x08001c8c   0x0000001c   Code   RO         1053    i.HAL_SYSTICK_CLKSourceConfig  stm32f4xx_hal_cortex.o
    0x08001ca8   0x08001ca8   0x00000002   Code   RO         1054    i.HAL_SYSTICK_Callback  stm32f4xx_hal_cortex.o
    0x08001caa   0x08001caa   0x00000002   PAD
    0x08001cac   0x08001cac   0x00000028   Code   RO         1055    i.HAL_SYSTICK_Config  stm32f4xx_hal_cortex.o
    0x08001cd4   0x08001cd4   0x00000008   Code   RO         1056    i.HAL_SYSTICK_IRQHandler  stm32f4xx_hal_cortex.o
    0x08001cdc   0x08001cdc   0x00000064   Code   RO         2754    i.HAL_UART_Init     stm32f4xx_hal_uart.o
    0x08001d40   0x08001d40   0x0000004c   Code   RO         6504    i.HAL_UART_MspInit  bsp_debug_usart.o
    0x08001d8c   0x08001d8c   0x000000dc   Code   RO         2762    i.HAL_UART_Transmit  stm32f4xx_hal_uart.o
    0x08001e68   0x08001e68   0x00000002   Code   RO          445    i.HardFault_Handler  stm32f4xx_it.o
    0x08001e6a   0x08001e6a   0x00000002   PAD
    0x08001e6c   0x08001e6c   0x000000b8   Code   RO         6562    i.KEY_GPIO_Init     bsp_key.o
    0x08001f24   0x08001f24   0x00000010   Code   RO         6563    i.KeyCreate         bsp_key.o
    0x08001f34   0x08001f34   0x0000000e   Code   RO         6565    i.Key_AccessTimes   bsp_key.o
    0x08001f42   0x08001f42   0x00000084   Code   RO         6566    i.Key_RefreshState  bsp_key.o
    0x08001fc6   0x08001fc6   0x00000002   PAD
    0x08001fc8   0x08001fc8   0x00000044   Code   RO         6505    i.MX_DEBUG_USART_Init  bsp_debug_usart.o
    0x0800200c   0x0800200c   0x00000002   Code   RO          446    i.MemManage_Handler  stm32f4xx_it.o
    0x0800200e   0x0800200e   0x00000002   Code   RO          447    i.NMI_Handler       stm32f4xx_it.o
    0x08002010   0x08002010   0x00000050   Code   RO          532    i.Netif_Config      app_ethernet.o
    0x08002060   0x08002060   0x00000002   Code   RO          448    i.PendSV_Handler    stm32f4xx_it.o
    0x08002062   0x08002062   0x00000002   Code   RO          449    i.RCC_IRQHandler    stm32f4xx_it.o
    0x08002064   0x08002064   0x00000002   Code   RO          450    i.SVC_Handler       stm32f4xx_it.o
    0x08002066   0x08002066   0x0000000e   Code   RO          451    i.SysTick_Handler   stm32f4xx_it.o
    0x08002074   0x08002074   0x0000009c   Code   RO           13    i.SystemClock_Config  main.o
    0x08002110   0x08002110   0x00000058   Code   RO         6466    i.SystemInit        system_stm32f4xx.o
    0x08002168   0x08002168   0x00000344   Code   RO         2781    i.UART_SetConfig    stm32f4xx_hal_uart.o
    0x080024ac   0x080024ac   0x00000078   Code   RO         2783    i.UART_WaitOnFlagUntilTimeout  stm32f4xx_hal_uart.o
    0x08002524   0x08002524   0x00000002   Code   RO          452    i.UsageFault_Handler  stm32f4xx_it.o
    0x08002526   0x08002526   0x00000002   PAD
    0x08002528   0x08002528   0x0000020c   Code   RO          734    i.YSF4_TCP_SENDData  tcp_echoserver.o
    0x08002734   0x08002734   0x00000020   Code   RO         8571    i.__0printf$3       mc_w.l(printf3.o)
    0x08002754   0x08002754   0x00000028   Code   RO         8573    i.__0sprintf$3      mc_w.l(printf3.o)
    0x0800277c   0x0800277c   0x0000000e   Code   RO         8785    i.__scatterload_copy  mc_w.l(handlers.o)
    0x0800278a   0x0800278a   0x00000002   Code   RO         8786    i.__scatterload_null  mc_w.l(handlers.o)
    0x0800278c   0x0800278c   0x0000000e   Code   RO         8787    i.__scatterload_zeroinit  mc_w.l(handlers.o)
    0x0800279a   0x0800279a   0x00000002   PAD
    0x0800279c   0x0800279c   0x000001b8   Code   RO         8578    i._printf_core      mc_w.l(printf3.o)
    0x08002954   0x08002954   0x0000000a   Code   RO         8580    i._sputc            mc_w.l(printf3.o)
    0x0800295e   0x0800295e   0x00000002   PAD
    0x08002960   0x08002960   0x0000001c   Code   RO         8290    i.cyclic_timer      timeouts.o
    0x0800297c   0x0800297c   0x0000001e   Code   RO         6645    i.dhcp_arp_reply    dhcp.o
    0x0800299a   0x0800299a   0x00000002   PAD
    0x0800299c   0x0800299c   0x000000f0   Code   RO         6646    i.dhcp_bind         dhcp.o
    0x08002a8c   0x08002a8c   0x00000034   Code   RO         6647    i.dhcp_check        dhcp.o
    0x08002ac0   0x08002ac0   0x00000068   Code   RO         6649    i.dhcp_coarse_tmr   dhcp.o
    0x08002b28   0x08002b28   0x00000134   Code   RO         6650    i.dhcp_create_msg   dhcp.o
    0x08002c5c   0x08002c5c   0x00000020   Code   RO         6651    i.dhcp_dec_pcb_refcount  dhcp.o
    0x08002c7c   0x08002c7c   0x00000090   Code   RO         6652    i.dhcp_decline      dhcp.o
    0x08002d0c   0x08002d0c   0x00000018   Code   RO         6653    i.dhcp_delete_msg   dhcp.o
    0x08002d24   0x08002d24   0x000000d8   Code   RO         6654    i.dhcp_discover     dhcp.o
    0x08002dfc   0x08002dfc   0x00000034   Code   RO         6655    i.dhcp_fine_tmr     dhcp.o
    0x08002e30   0x08002e30   0x0000006c   Code   RO         6656    i.dhcp_handle_ack   dhcp.o
    0x08002e9c   0x08002e9c   0x00000028   Code   RO         6657    i.dhcp_handle_nak   dhcp.o
    0x08002ec4   0x08002ec4   0x00000034   Code   RO         6658    i.dhcp_handle_offer  dhcp.o
    0x08002ef8   0x08002ef8   0x00000054   Code   RO         6659    i.dhcp_inc_pcb_refcount  dhcp.o
    0x08002f4c   0x08002f4c   0x00000030   Code   RO         6661    i.dhcp_network_changed  dhcp.o
    0x08002f7c   0x08002f7c   0x00000022   Code   RO         6662    i.dhcp_option       dhcp.o
    0x08002f9e   0x08002f9e   0x0000000e   Code   RO         6663    i.dhcp_option_byte  dhcp.o
    0x08002fac   0x08002fac   0x00000044   Code   RO         6664    i.dhcp_option_long  dhcp.o
    0x08002ff0   0x08002ff0   0x00000020   Code   RO         6665    i.dhcp_option_short  dhcp.o
    0x08003010   0x08003010   0x00000032   Code   RO         6666    i.dhcp_option_trailer  dhcp.o
    0x08003042   0x08003042   0x00000002   PAD
    0x08003044   0x08003044   0x000002bc   Code   RO         6667    i.dhcp_parse_reply  dhcp.o
    0x08003300   0x08003300   0x000000b8   Code   RO         6668    i.dhcp_rebind       dhcp.o
    0x080033b8   0x080033b8   0x000000d4   Code   RO         6669    i.dhcp_reboot       dhcp.o
    0x0800348c   0x0800348c   0x00000104   Code   RO         6670    i.dhcp_recv         dhcp.o
    0x08003590   0x08003590   0x000000b4   Code   RO         6671    i.dhcp_release      dhcp.o
    0x08003644   0x08003644   0x000000b8   Code   RO         6672    i.dhcp_renew        dhcp.o
    0x080036fc   0x080036fc   0x00000104   Code   RO         6673    i.dhcp_select       dhcp.o
    0x08003800   0x08003800   0x00000010   Code   RO         6674    i.dhcp_set_state    dhcp.o
    0x08003810   0x08003810   0x00000094   Code   RO         6676    i.dhcp_start        dhcp.o
    0x080038a4   0x080038a4   0x00000024   Code   RO         6677    i.dhcp_stop         dhcp.o
    0x080038c8   0x080038c8   0x0000001e   Code   RO         6678    i.dhcp_supplied_address  dhcp.o
    0x080038e6   0x080038e6   0x0000002a   Code   RO         6679    i.dhcp_t1_timeout   dhcp.o
    0x08003910   0x08003910   0x0000002e   Code   RO         6680    i.dhcp_t2_timeout   dhcp.o
    0x0800393e   0x0800393e   0x0000007c   Code   RO         6681    i.dhcp_timeout      dhcp.o
    0x080039ba   0x080039ba   0x0000000c   Code   RO         7462    i.do_memp_free_pool  memp.o
    0x080039c6   0x080039c6   0x00000012   Code   RO         7463    i.do_memp_malloc_pool  memp.o
    0x080039d8   0x080039d8   0x00000030   Code   RO         6867    i.etharp_cleanup_netif  etharp.o
    0x08003a08   0x08003a08   0x0000010c   Code   RO         6869    i.etharp_find_entry  etharp.o
    0x08003b14   0x08003b14   0x00000028   Code   RO         6870    i.etharp_free_entry  etharp.o
    0x08003b3c   0x08003b3c   0x000000c8   Code   RO         6872    i.etharp_input      etharp.o
    0x08003c04   0x08003c04   0x0000010c   Code   RO         6873    i.etharp_output     etharp.o
    0x08003d10   0x08003d10   0x00000060   Code   RO         6874    i.etharp_output_to_arp_index  etharp.o
    0x08003d70   0x08003d70   0x00000128   Code   RO         6875    i.etharp_query      etharp.o
    0x08003e98   0x08003e98   0x0000008a   Code   RO         6876    i.etharp_raw        etharp.o
    0x08003f22   0x08003f22   0x00000002   PAD
    0x08003f24   0x08003f24   0x0000000c   Code   RO         6877    i.etharp_request    etharp.o
    0x08003f30   0x08003f30   0x00000028   Code   RO         6878    i.etharp_request_dst  etharp.o
    0x08003f58   0x08003f58   0x00000064   Code   RO         6879    i.etharp_tmr        etharp.o
    0x08003fbc   0x08003fbc   0x00000084   Code   RO         6880    i.etharp_update_arp_entry  etharp.o
    0x08004040   0x08004040   0x000000a8   Code   RO         7230    i.ethernet_input    ethernet.o
    0x080040e8   0x080040e8   0x000000e4   Code   RO          634    i.ethernet_link_check_state  ethernetif.o
    0x080041cc   0x080041cc   0x0000007c   Code   RO          534    i.ethernet_link_status_updated  app_ethernet.o
    0x08004248   0x08004248   0x00000052   Code   RO         7231    i.ethernet_output   ethernet.o
    0x0800429a   0x0800429a   0x00000002   PAD
    0x0800429c   0x0800429c   0x00000028   Code   RO          635    i.ethernetif_init   ethernetif.o
    0x080042c4   0x080042c4   0x00000026   Code   RO          636    i.ethernetif_input  ethernetif.o
    0x080042ea   0x080042ea   0x00000002   PAD
    0x080042ec   0x080042ec   0x0000001c   Code   RO         6507    i.fputc             bsp_debug_usart.o
    0x08004308   0x08004308   0x00000008   Code   RO         6957    i.icmp_dest_unreach  icmp.o
    0x08004310   0x08004310   0x00000144   Code   RO         6958    i.icmp_input        icmp.o
    0x08004454   0x08004454   0x00000072   Code   RO         6959    i.icmp_send_response  icmp.o
    0x080044c6   0x080044c6   0x00000008   Code   RO         6960    i.icmp_time_exceeded  icmp.o
    0x080044ce   0x080044ce   0x0000004c   Code   RO         7311    i.inet_chksum_pbuf  inet_chksum.o
    0x0800451a   0x0800451a   0x00000050   Code   RO         7052    i.ip4_addr_isbroadcast_u32  ip4_addr.o
    0x0800456a   0x0800456a   0x00000002   PAD
    0x0800456c   0x0800456c   0x000001a4   Code   RO         7106    i.ip4_frag          ip4_frag.o
    0x08004710   0x08004710   0x000001f4   Code   RO         6995    i.ip4_input         ip4.o
    0x08004904   0x08004904   0x0000002c   Code   RO         6997    i.ip4_output_if     ip4.o
    0x08004930   0x08004930   0x000000bc   Code   RO         6998    i.ip4_output_if_src  ip4.o
    0x080049ec   0x080049ec   0x00000180   Code   RO         7107    i.ip4_reass         ip4_frag.o
    0x08004b6c   0x08004b6c   0x00000074   Code   RO         6999    i.ip4_route         ip4.o
    0x08004be0   0x08004be0   0x0000000c   Code   RO         7055    i.ip4addr_ntoa      ip4_addr.o
    0x08004bec   0x08004bec   0x000000b0   Code   RO         7056    i.ip4addr_ntoa_r    ip4_addr.o
    0x08004c9c   0x08004c9c   0x00000006   Code   RO         7108    i.ip_frag_alloc_pbuf_custom_ref  ip4_frag.o
    0x08004ca2   0x08004ca2   0x00000008   Code   RO         7109    i.ip_frag_free_pbuf_custom_ref  ip4_frag.o
    0x08004caa   0x08004caa   0x00000002   PAD
    0x08004cac   0x08004cac   0x000000f8   Code   RO         7110    i.ip_reass_chain_frag_into_datagram_and_validate  ip4_frag.o
    0x08004da4   0x08004da4   0x00000020   Code   RO         7111    i.ip_reass_dequeue_datagram  ip4_frag.o
    0x08004dc4   0x08004dc4   0x00000064   Code   RO         7112    i.ip_reass_enqueue_new_datagram  ip4_frag.o
    0x08004e28   0x08004e28   0x0000007c   Code   RO         7113    i.ip_reass_free_complete_datagram  ip4_frag.o
    0x08004ea4   0x08004ea4   0x0000007c   Code   RO         7114    i.ip_reass_remove_oldest_datagram  ip4_frag.o
    0x08004f20   0x08004f20   0x00000030   Code   RO         7115    i.ip_reass_tmr      ip4_frag.o
    0x08004f50   0x08004f50   0x00000018   Code   RO         7116    i.ipfrag_free_pbuf_custom  ip4_frag.o
    0x08004f68   0x08004f68   0x0000011c   Code   RO          638    i.low_level_init    ethernetif.o
    0x08005084   0x08005084   0x000000c4   Code   RO          639    i.low_level_input   ethernetif.o
    0x08005148   0x08005148   0x000000b8   Code   RO          640    i.low_level_output  ethernetif.o
    0x08005200   0x08005200   0x0000000c   Code   RO          641    i.lwip_IT_handle    ethernetif.o
    0x0800520c   0x0800520c   0x00000018   Code   RO         7261    i.lwip_htonl        def.o
    0x08005224   0x08005224   0x0000000a   Code   RO         7262    i.lwip_htons        def.o
    0x0800522e   0x0800522e   0x0000001e   Code   RO         7378    i.lwip_init         init.o
    0x0800524c   0x0800524c   0x0000005a   Code   RO         7318    i.lwip_standard_chksum  inet_chksum.o
    0x080052a6   0x080052a6   0x00000002   PAD
    0x080052a8   0x080052a8   0x00000054   Code   RO           14    i.main              main.o
    0x080052fc   0x080052fc   0x0000002c   Code   RO         7418    i.mem_free          mem.o
    0x08005328   0x08005328   0x00000034   Code   RO         7419    i.mem_init          mem.o
    0x0800535c   0x0800535c   0x000000c0   Code   RO         7420    i.mem_malloc        mem.o
    0x0800541c   0x0800541c   0x000000e4   Code   RO         7421    i.mem_trim          mem.o
    0x08005500   0x08005500   0x00000018   Code   RO         7464    i.memp_free         memp.o
    0x08005518   0x08005518   0x0000001c   Code   RO         7466    i.memp_init         memp.o
    0x08005534   0x08005534   0x0000002e   Code   RO         7467    i.memp_init_pool    memp.o
    0x08005562   0x08005562   0x00000002   PAD
    0x08005564   0x08005564   0x00000018   Code   RO         7468    i.memp_malloc       memp.o
    0x0800557c   0x0800557c   0x00000058   Code   RO         7565    i.netif_add         netif.o
    0x080055d4   0x080055d4   0x00000002   Code   RO         7567    i.netif_init        netif.o
    0x080055d6   0x080055d6   0x0000001e   Code   RO         7569    i.netif_issue_reports  netif.o
    0x080055f4   0x080055f4   0x0000004c   Code   RO         7571    i.netif_set_addr    netif.o
    0x08005640   0x08005640   0x0000000c   Code   RO         7572    i.netif_set_default  netif.o
    0x0800564c   0x0800564c   0x0000001e   Code   RO         7573    i.netif_set_down    netif.o
    0x0800566a   0x0800566a   0x0000000e   Code   RO         7574    i.netif_set_gw      netif.o
    0x08005678   0x08005678   0x00000048   Code   RO         7575    i.netif_set_ipaddr  netif.o
    0x080056c0   0x080056c0   0x00000008   Code   RO         7576    i.netif_set_link_callback  netif.o
    0x080056c8   0x080056c8   0x0000001c   Code   RO         7577    i.netif_set_link_down  netif.o
    0x080056e4   0x080056e4   0x0000003e   Code   RO         7578    i.netif_set_link_up  netif.o
    0x08005722   0x08005722   0x0000000e   Code   RO         7579    i.netif_set_netmask  netif.o
    0x08005730   0x08005730   0x00000020   Code   RO         7580    i.netif_set_up      netif.o
    0x08005750   0x08005750   0x0000013a   Code   RO         7676    i.pbuf_alloc        pbuf.o
    0x0800588a   0x0800588a   0x00000068   Code   RO         7677    i.pbuf_alloced_custom  pbuf.o
    0x080058f2   0x080058f2   0x00000028   Code   RO         7678    i.pbuf_cat          pbuf.o
    0x0800591a   0x0800591a   0x00000014   Code   RO         7679    i.pbuf_chain        pbuf.o
    0x0800592e   0x0800592e   0x00000014   Code   RO         7680    i.pbuf_clen         pbuf.o
    0x08005942   0x08005942   0x000000a8   Code   RO         7682    i.pbuf_copy         pbuf.o
    0x080059ea   0x080059ea   0x00000070   Code   RO         7683    i.pbuf_copy_partial  pbuf.o
    0x08005a5a   0x08005a5a   0x0000005e   Code   RO         7685    i.pbuf_free         pbuf.o
    0x08005ab8   0x08005ab8   0x00000006   Code   RO         7687    i.pbuf_header       pbuf.o
    0x08005abe   0x08005abe   0x00000006   Code   RO         7688    i.pbuf_header_force  pbuf.o
    0x08005ac4   0x08005ac4   0x0000008a   Code   RO         7689    i.pbuf_header_impl  pbuf.o
    0x08005b4e   0x08005b4e   0x0000005c   Code   RO         7693    i.pbuf_realloc      pbuf.o
    0x08005baa   0x08005baa   0x0000000c   Code   RO         7694    i.pbuf_ref          pbuf.o
    0x08005bb6   0x08005bb6   0x0000005e   Code   RO         7698    i.pbuf_take         pbuf.o
    0x08005c14   0x08005c14   0x00000068   Code   RO         7422    i.plug_holes        mem.o
    0x08005c7c   0x08005c7c   0x0000004c   Code   RO         8291    i.sys_check_timeouts  timeouts.o
    0x08005cc8   0x08005cc8   0x00000004   Code   RO          642    i.sys_now           ethernetif.o
    0x08005ccc   0x08005ccc   0x000000a8   Code   RO         8293    i.sys_timeout       timeouts.o
    0x08005d74   0x08005d74   0x00000030   Code   RO         8294    i.sys_timeouts_init  timeouts.o
    0x08005da4   0x08005da4   0x000000d4   Code   RO         7848    i.tcp_abandon       tcp.o
    0x08005e78   0x08005e78   0x00000006   Code   RO         7849    i.tcp_abort         tcp.o
    0x08005e7e   0x08005e7e   0x0000000e   Code   RO         7850    i.tcp_accept        tcp.o
    0x08005e8c   0x08005e8c   0x0000000e   Code   RO         7851    i.tcp_accept_null   tcp.o
    0x08005e9a   0x08005e9a   0x00000002   PAD
    0x08005e9c   0x08005e9c   0x000000b0   Code   RO         7852    i.tcp_alloc         tcp.o
    0x08005f4c   0x08005f4c   0x00000008   Code   RO         7853    i.tcp_arg           tcp.o
    0x08005f54   0x08005f54   0x0000009c   Code   RO         7854    i.tcp_bind          tcp.o
    0x08005ff0   0x08005ff0   0x00000014   Code   RO         7855    i.tcp_close         tcp.o
    0x08006004   0x08006004   0x0000018c   Code   RO         7856    i.tcp_close_shutdown  tcp.o
    0x08006190   0x08006190   0x0000009a   Code   RO         8177    i.tcp_create_segment  tcp_out.o
    0x0800622a   0x0800622a   0x00000002   PAD
    0x0800622c   0x0800622c   0x000000b8   Code   RO          735    i.tcp_echoserver_accept  tcp_echoserver.o
    0x080062e4   0x080062e4   0x00000042   Code   RO          737    i.tcp_echoserver_connection_close  tcp_echoserver.o
    0x08006326   0x08006326   0x0000000a   Code   RO          738    i.tcp_echoserver_error  tcp_echoserver.o
    0x08006330   0x08006330   0x0000002a   Code   RO          739    i.tcp_echoserver_poll  tcp_echoserver.o
    0x0800635a   0x0800635a   0x00000002   PAD
    0x0800635c   0x0800635c   0x000000e8   Code   RO          740    i.tcp_echoserver_recv  tcp_echoserver.o
    0x08006444   0x08006444   0x00000074   Code   RO          741    i.tcp_echoserver_send  tcp_echoserver.o
    0x080064b8   0x080064b8   0x00000026   Code   RO         7859    i.tcp_eff_send_mss_impl  tcp.o
    0x080064de   0x080064de   0x000000be   Code   RO         8178    i.tcp_enqueue_flags  tcp_out.o
    0x0800659c   0x0800659c   0x0000000a   Code   RO         7860    i.tcp_err           tcp.o
    0x080065a6   0x080065a6   0x00000002   PAD
    0x080065a8   0x080065a8   0x00000074   Code   RO         7861    i.tcp_fasttmr       tcp.o
    0x0800661c   0x0800661c   0x0000003c   Code   RO         8115    i.tcp_getoptbyte    tcp_in.o
    0x08006658   0x08006658   0x00000002   Code   RO         7862    i.tcp_init          tcp.o
    0x0800665a   0x0800665a   0x00000002   PAD
    0x0800665c   0x0800665c   0x000003d0   Code   RO         8116    i.tcp_input         tcp_in.o
    0x08006a2c   0x08006a2c   0x00000058   Code   RO         8179    i.tcp_keepalive     tcp_out.o
    0x08006a84   0x08006a84   0x00000048   Code   RO         7863    i.tcp_kill_prio     tcp.o
    0x08006acc   0x08006acc   0x00000040   Code   RO         7864    i.tcp_kill_state    tcp.o
    0x08006b0c   0x08006b0c   0x00000034   Code   RO         7865    i.tcp_kill_timewait  tcp.o
    0x08006b40   0x08006b40   0x00000020   Code   RO         7866    i.tcp_listen_closed  tcp.o
    0x08006b60   0x08006b60   0x000000fc   Code   RO         8117    i.tcp_listen_input  tcp_in.o
    0x08006c5c   0x08006c5c   0x00000090   Code   RO         7867    i.tcp_listen_with_backlog  tcp.o
    0x08006cec   0x08006cec   0x00000050   Code   RO         7868    i.tcp_netif_ip_addr_changed  tcp.o
    0x08006d3c   0x08006d3c   0x00000024   Code   RO         7869    i.tcp_netif_ip_addr_changed_pcblist  tcp.o
    0x08006d60   0x08006d60   0x00000006   Code   RO         7870    i.tcp_new           tcp.o
    0x08006d66   0x08006d66   0x00000002   PAD
    0x08006d68   0x08006d68   0x00000060   Code   RO         7872    i.tcp_new_port      tcp.o
    0x08006dc8   0x08006dc8   0x00000010   Code   RO         7873    i.tcp_next_iss      tcp.o
    0x08006dd8   0x08006dd8   0x00000234   Code   RO         8180    i.tcp_output        tcp_out.o
    0x0800700c   0x0800700c   0x0000006a   Code   RO         8181    i.tcp_output_alloc_header  tcp_out.o
    0x08007076   0x08007076   0x00000002   PAD
    0x08007078   0x08007078   0x000000b4   Code   RO         8182    i.tcp_output_segment  tcp_out.o
    0x0800712c   0x0800712c   0x00000078   Code   RO         8118    i.tcp_parseopt      tcp_in.o
    0x080071a4   0x080071a4   0x00000056   Code   RO         8183    i.tcp_pbuf_prealloc  tcp_out.o
    0x080071fa   0x080071fa   0x0000003a   Code   RO         7874    i.tcp_pcb_purge     tcp.o
    0x08007234   0x08007234   0x0000006c   Code   RO         7875    i.tcp_pcb_remove    tcp.o
    0x080072a0   0x080072a0   0x00000008   Code   RO         7876    i.tcp_poll          tcp.o
    0x080072a8   0x080072a8   0x00000494   Code   RO         8119    i.tcp_process       tcp_in.o
    0x0800773c   0x0800773c   0x0000007c   Code   RO         7877    i.tcp_process_refused_data  tcp.o
    0x080077b8   0x080077b8   0x0000042c   Code   RO         8120    i.tcp_receive       tcp_in.o
    0x08007be4   0x08007be4   0x00000008   Code   RO         7878    i.tcp_recv          tcp.o
    0x08007bec   0x08007bec   0x00000026   Code   RO         7879    i.tcp_recv_null     tcp.o
    0x08007c12   0x08007c12   0x00000002   PAD
    0x08007c14   0x08007c14   0x0000005c   Code   RO         7880    i.tcp_recved        tcp.o
    0x08007c70   0x08007c70   0x00000016   Code   RO         7881    i.tcp_remove_listener  tcp.o
    0x08007c86   0x08007c86   0x00000052   Code   RO         8184    i.tcp_rexmit        tcp_out.o
    0x08007cd8   0x08007cd8   0x00000066   Code   RO         8185    i.tcp_rexmit_fast   tcp_out.o
    0x08007d3e   0x08007d3e   0x00000002   PAD
    0x08007d40   0x08007d40   0x00000048   Code   RO         8186    i.tcp_rexmit_rto    tcp_out.o
    0x08007d88   0x08007d88   0x00000088   Code   RO         8187    i.tcp_rst           tcp_out.o
    0x08007e10   0x08007e10   0x0000001e   Code   RO         7882    i.tcp_seg_free      tcp.o
    0x08007e2e   0x08007e2e   0x00000014   Code   RO         7883    i.tcp_segs_free     tcp.o
    0x08007e42   0x08007e42   0x00000074   Code   RO         8188    i.tcp_send_empty_ack  tcp_out.o
    0x08007eb6   0x08007eb6   0x0000004a   Code   RO         8189    i.tcp_send_fin      tcp_out.o
    0x08007f00   0x08007f00   0x00000008   Code   RO         7884    i.tcp_sent          tcp.o
    0x08007f08   0x08007f08   0x0000008c   Code   RO          742    i.tcp_server_usersent  tcp_echoserver.o
    0x08007f94   0x08007f94   0x00000004   Code   RO         7885    i.tcp_setprio       tcp.o
    0x08007f98   0x08007f98   0x000002a8   Code   RO         7887    i.tcp_slowtmr       tcp.o
    0x08008240   0x08008240   0x00000034   Code   RO         8297    i.tcp_timer_needed  timeouts.o
    0x08008274   0x08008274   0x00000098   Code   RO         8121    i.tcp_timewait_input  tcp_in.o
    0x0800830c   0x0800830c   0x00000024   Code   RO         7888    i.tcp_tmr           tcp.o
    0x08008330   0x08008330   0x00000010   Code   RO         8122    i.tcp_trigger_input_pcb_close  tcp_in.o
    0x08008340   0x08008340   0x0000003e   Code   RO         7890    i.tcp_update_rcv_ann_wnd  tcp.o
    0x0800837e   0x0800837e   0x000002d4   Code   RO         8190    i.tcp_write         tcp_out.o
    0x08008652   0x08008652   0x0000004e   Code   RO         8191    i.tcp_write_checks  tcp_out.o
    0x080086a0   0x080086a0   0x000000ca   Code   RO         8192    i.tcp_zero_window_probe  tcp_out.o
    0x0800876a   0x0800876a   0x00000002   PAD
    0x0800876c   0x0800876c   0x00000038   Code   RO         8298    i.tcpip_tcp_timer   timeouts.o
    0x080087a4   0x080087a4   0x0000008c   Code   RO         8355    i.udp_bind          udp.o
    0x08008830   0x08008830   0x00000058   Code   RO         8356    i.udp_connect       udp.o
    0x08008888   0x08008888   0x00000002   Code   RO         8358    i.udp_init          udp.o
    0x0800888a   0x0800888a   0x00000002   PAD
    0x0800888c   0x0800888c   0x00000144   Code   RO         8359    i.udp_input         udp.o
    0x080089d0   0x080089d0   0x00000038   Code   RO         8360    i.udp_input_local_match  udp.o
    0x08008a08   0x08008a08   0x00000038   Code   RO         8361    i.udp_netif_ip_addr_changed  udp.o
    0x08008a40   0x08008a40   0x00000024   Code   RO         8362    i.udp_new           udp.o
    0x08008a64   0x08008a64   0x0000004c   Code   RO         8364    i.udp_new_port      udp.o
    0x08008ab0   0x08008ab0   0x00000006   Code   RO         8365    i.udp_recv          udp.o
    0x08008ab6   0x08008ab6   0x00000002   PAD
    0x08008ab8   0x08008ab8   0x00000030   Code   RO         8366    i.udp_remove        udp.o
    0x08008ae8   0x08008ae8   0x00000048   Code   RO         8369    i.udp_sendto_if     udp.o
    0x08008b30   0x08008b30   0x000000ba   Code   RO         8370    i.udp_sendto_if_src  udp.o
    0x08008bea   0x08008bea   0x00000010   Data   RO         6467    .constdata          system_stm32f4xx.o
    0x08008bfa   0x08008bfa   0x00000008   Data   RO         6468    .constdata          system_stm32f4xx.o
    0x08008c02   0x08008c02   0x00000002   PAD
    0x08008c04   0x08008c04   0x00000004   Data   RO         7059    .constdata          ip4_addr.o
    0x08008c08   0x08008c08   0x00000004   Data   RO         7060    .constdata          ip4_addr.o
    0x08008c0c   0x08008c0c   0x00000006   Data   RO         7232    .constdata          ethernet.o
    0x08008c12   0x08008c12   0x00000006   Data   RO         7233    .constdata          ethernet.o
    0x08008c18   0x08008c18   0x0000000c   Data   RO         7479    .constdata          memp.o
    0x08008c24   0x08008c24   0x0000000c   Data   RO         7480    .constdata          memp.o
    0x08008c30   0x08008c30   0x0000000c   Data   RO         7481    .constdata          memp.o
    0x08008c3c   0x08008c3c   0x0000000c   Data   RO         7482    .constdata          memp.o
    0x08008c48   0x08008c48   0x0000000c   Data   RO         7483    .constdata          memp.o
    0x08008c54   0x08008c54   0x0000000c   Data   RO         7484    .constdata          memp.o
    0x08008c60   0x08008c60   0x0000000c   Data   RO         7485    .constdata          memp.o
    0x08008c6c   0x08008c6c   0x0000000c   Data   RO         7486    .constdata          memp.o
    0x08008c78   0x08008c78   0x0000000c   Data   RO         7487    .constdata          memp.o
    0x08008c84   0x08008c84   0x00000024   Data   RO         7488    .constdata          memp.o
    0x08008ca8   0x08008ca8   0x00000054   Data   RO         7891    .constdata          tcp.o
    0x08008cfc   0x08008cfc   0x00000028   Data   RO         8299    .constdata          timeouts.o
    0x08008d24   0x08008d24   0x00000075   Data   RO         7892    .conststring        tcp.o
    0x08008d99   0x08008d99   0x00000003   PAD
    0x08008d9c   0x08008d9c   0x00000020   Data   RO         8783    Region$$Table       anon$$obj.o


    Execution Region RW_IRAM1 (Exec base: 0x20000000, Load base: 0x08008dbc, Size: 0x00008818, Max: 0x00020000, ABSOLUTE)

    Exec Addr    Load Addr    Size         Type   Attr      Idx    E Section Name        Object

    0x20000000   0x08008dbc   0x00000008   Data   RW           16    .data               main.o
    0x20000008   0x08008dc4   0x0000000c   Data   RW          536    .data               app_ethernet.o
    0x20000014   0x08008dd0   0x00000014   Data   RW          746    .data               tcp_echoserver.o
    0x20000028   0x08008de4   0x00000004   Data   RW         1622    .data               stm32f4xx_hal.o
    0x2000002c   0x08008de8   0x00000004   Data   RW         6469    .data               system_stm32f4xx.o
    0x20000030   0x08008dec   0x00000010   Data   RW         6683    .data               dhcp.o
    0x20000040   0x08008dfc   0x00000001   Data   RW         6882    .data               etharp.o
    0x20000041   0x08008dfd   0x00000001   PAD
    0x20000042   0x08008dfe   0x00000002   Data   RW         7000    .data               ip4.o
    0x20000044   0x08008e00   0x00000008   Data   RW         7117    .data               ip4_frag.o
    0x2000004c   0x08008e08   0x0000000c   Data   RW         7424    .data               mem.o
    0x20000058   0x08008e14   0x00000004   Data   RW         7489    .data               memp.o
    0x2000005c   0x08008e18   0x00000004   Data   RW         7490    .data               memp.o
    0x20000060   0x08008e1c   0x00000004   Data   RW         7491    .data               memp.o
    0x20000064   0x08008e20   0x00000004   Data   RW         7492    .data               memp.o
    0x20000068   0x08008e24   0x00000004   Data   RW         7493    .data               memp.o
    0x2000006c   0x08008e28   0x00000004   Data   RW         7494    .data               memp.o
    0x20000070   0x08008e2c   0x00000004   Data   RW         7495    .data               memp.o
    0x20000074   0x08008e30   0x00000004   Data   RW         7496    .data               memp.o
    0x20000078   0x08008e34   0x00000004   Data   RW         7497    .data               memp.o
    0x2000007c   0x08008e38   0x0000000c   Data   RW         7581    .data               netif.o
    0x20000088   0x08008e44   0x00000020   Data   RW         7893    .data               tcp.o
    0x200000a8   0x08008e64   0x00000024   Data   RW         8124    .data               tcp_in.o
    0x200000cc   0x08008e88   0x0000000c   Data   RW         8193    .data               tcp_out.o
    0x200000d8   0x08008e94   0x0000000c   Data   RW         8300    .data               timeouts.o
    0x200000e4   0x08008ea0   0x00000008   Data   RW         8371    .data               udp.o
    0x200000ec   0x08008ea8   0x00000004   Data   RW         8468    .data               mc_w.l(rand.o)
    0x200000f0   0x08008eac   0x00000004   Data   RW         8757    .data               mc_w.l(stdout.o)
    0x200000f4        -       0x00000038   Zero   RW           15    .bss                main.o
    0x2000012c        -       0x00000012   Zero   RW          535    .bss                app_ethernet.o
    0x2000013e   0x08008eb0   0x00000002   PAD
    0x20000140        -       0x000030e8   Zero   RW          643    .bss                ethernetif.o
    0x20003228        -       0x000000c8   Zero   RW          743    .bss                tcp_echoserver.o
    0x200032f0        -       0x00000040   Zero   RW         6508    .bss                bsp_debug_usart.o
    0x20003330        -       0x00000032   Zero   RW         6682    .bss                dhcp.o
    0x20003362   0x08008eb0   0x00000002   PAD
    0x20003364        -       0x000000f0   Zero   RW         6881    .bss                etharp.o
    0x20003454        -       0x00000010   Zero   RW         7058    .bss                ip4_addr.o
    0x20003464        -       0x00000018   Zero   RW         7405    .bss                ip.o
    0x2000347c        -       0x00002813   Zero   RW         7423    .bss                mem.o
    0x20005c8f        -       0x000000c3   Zero   RW         7470    .bss                memp.o
    0x20005d52        -       0x000005cb   Zero   RW         7471    .bss                memp.o
    0x2000631d        -       0x0000008f   Zero   RW         7472    .bss                memp.o
    0x200063ac        -       0x00000083   Zero   RW         7473    .bss                memp.o
    0x2000642f        -       0x000000a3   Zero   RW         7474    .bss                memp.o
    0x200064d2        -       0x0000016b   Zero   RW         7475    .bss                memp.o
    0x2000663d        -       0x000000a3   Zero   RW         7476    .bss                memp.o
    0x200066e0        -       0x000000a3   Zero   RW         7477    .bss                memp.o
    0x20006783        -       0x00001083   Zero   RW         7478    .bss                memp.o
    0x20007806   0x08008eb0   0x00000002   PAD
    0x20007808        -       0x00000010   Zero   RW         8123    .bss                tcp_in.o
    0x20007818        -       0x00001000   Zero   RW            1    STACK               startup_stm32f407xx.o


==============================================================================

Image component sizes


      Code (inc. data)   RO Data    RW Data    ZI Data      Debug   Object Name

      1062        364          0         12         18      13106   app_ethernet.o
         0          0          0          0          0       1508   autoip.o
       172         30          0          0         64       2468   bsp_debug_usart.o
       370         14          0          0          0       3553   bsp_key.o
        34          0          0          0          0       1098   def.o
      4154        176          0         16         50      32363   dhcp.o
      1638         66          0          1        240      12791   etharp.o
       250          4         12          0          0       2694   ethernet.o
      1250        168          0          0      12520       7956   ethernetif.o
       454          4          0          0          0       4038   icmp.o
       166          0          0          0          0       9402   inet_chksum.o
        30          0          0          0          0        556   init.o
         0          0          0          0         24       3006   ip.o
       848         30          0          2          0      16103   ip4.o
       268          8          8          0         16       9062   ip4_addr.o
      1518         40          0          8          0      11414   ip4_frag.o
       240         44          0          8         56     710669   main.o
       620         30          0         12      10259       5737   mem.o
       152         14        144         36       7031       9930   memp.o
       468         16          0         12          0      11747   netif.o
      1220         12          0          0          0      12815   pbuf.o
        36          8        392          0       4096        848   startup_stm32f407xx.o
       150         22          0          4          0       4547   stm32f4xx_hal.o
       242         16          0          0          0      32017   stm32f4xx_hal_cortex.o
      2646         64          0          0          0      16002   stm32f4xx_hal_eth.o
       568         22          0          0          0       3307   stm32f4xx_hal_gpio.o
       104          0          0          0          0        550   stm32f4xx_hal_msp.o
      1836         92          0          0          0       7124   stm32f4xx_hal_rcc.o
      1276         14          0          0          0       4080   stm32f4xx_hal_uart.o
        32          0          0          0          0       4771   stm32f4xx_it.o
        88         24         24          4          0       1215   system_stm32f4xx.o
      3064        214        201         32          0      37731   tcp.o
      1314        394          0         20        200       8381   tcp_echoserver.o
      3816        130          0         36         16      19283   tcp_in.o
      2954         66          0         12          0      18043   tcp_out.o
       428         58         40         12          0       5759   timeouts.o
      1090         44          0          8          0      12297   udp.o

    ----------------------------------------------------------------------
     34622       2188        858        236      34596    1057971   Object Totals
         0          0         32          0          0          0   (incl. Generated)
        64          0          5          1          6          0   (incl. Padding)

    ----------------------------------------------------------------------

      Code (inc. data)   RO Data    RW Data    ZI Data      Debug   Library Member Name

         0          0          0          0          0          0   entry.o
         0          0          0          0          0          0   entry10a.o
         0          0          0          0          0          0   entry11a.o
         8          4          0          0          0          0   entry2.o
         4          0          0          0          0          0   entry5.o
         0          0          0          0          0          0   entry7b.o
         0          0          0          0          0          0   entry8b.o
         8          4          0          0          0          0   entry9a.o
        30          0          0          0          0          0   handlers.o
        36          8          0          0          0         68   init.o
        26          0          0          0          0         80   memcmp.o
        36          0          0          0          0         68   memcpya.o
        36          0          0          0          0        108   memseta.o
       522         20          0          0          0        336   printf3.o
        36         10          0          4          0        136   rand.o
         0          0          0          4          0          0   stdout.o
        14          0          0          0          0         68   strlen.o
        44          0          0          0          0         80   uidiv.o

    ----------------------------------------------------------------------
       804         46          0          8          0        944   Library Totals
         4          0          0          0          0          0   (incl. Padding)

    ----------------------------------------------------------------------

      Code (inc. data)   RO Data    RW Data    ZI Data      Debug   Library Name

       800         46          0          8          0        944   mc_w.l

    ----------------------------------------------------------------------
       804         46          0          8          0        944   Library Totals

    ----------------------------------------------------------------------

==============================================================================


      Code (inc. data)   RO Data    RW Data    ZI Data      Debug   

     35426       2234        858        244      34596    1031055   Grand Totals
     35426       2234        858        244      34596    1031055   ELF Image Totals
     35426       2234        858        244          0          0   ROM Totals

==============================================================================

    Total RO  Size (Code + RO Data)                36284 (  35.43kB)
    Total RW  Size (RW Data + ZI Data)             34840 (  34.02kB)
    Total ROM Size (Code + RO Data + RW Data)      36528 (  35.67kB)

==============================================================================

