:020000040800F2
:1000000030D00020590200084B2C0008632B000858
:10001000492C0008A3080008A935000800000000CA
:100020000000000000000000000000009D0100082A
:10003000FD0B000800000000F1010008E92C000899
:1000400073020008730200087302000873020008BC
:1000500073020008A12C0008730200087302000854
:10006000730200087302000873020008730200089C
:10007000730200087302000873020008730200088C
:10008000730200087302000873020008730200087C
:10009000A508000873020008730200087302000834
:1000A000730200087302000873020008730200085C
:1000B000730200087302000873020008730200084C
:1000C000730200087302000873020008730200083C
:1000D000730200087302000873020008730200082C
:1000E000730200087302000873020008730200081C
:1000F000730200087302000873020008730200080C
:1001000073020008730200087302000873020008FB
:10011000ED2D000873020008730200087302000846
:1001200073020008730200087302000873020008DB
:1001300073020008750C00087302000873020008BF
:1001400073020008730200087302000873020008BB
:10015000730200087302000873020008FD340008EF
:10016000730200087302000873020008730200089B
:100170007302000873020008730200080000000008
:100180007302000873020008DFF80CD000F0CCFA0C
:1001900000480047717D000830D000202B4B1968C3
:1001A0000868B0E8F04F80F30988BFF36F8F4FF015
:1001B000000080F3118870470000000006480068C6
:1001C000006880F3088862B661B6BFF34F8FBFF353
:1001D0006F8F00DF00BF00BF08ED00E0DFF80C000C
:1001E000016841F470010160704700BF88ED00E0D4
:1001F000EFF30980BFF36F8F144B1A681EF0100FD6
:1002000008BF20ED108A20E9F04F106008B44FF0CD
:10021000500080F31188BFF34F8FBFF36F8F0CF046
:10022000BFFE4FF0000080F3118808BC1968086811
:10023000B0E8F04F1EF0100F08BFB0EC108A80F34A
:100240000988BFF36F8F704700BF00BF3C000020DC
:10025000EFF30580704700000648804706480047D6
:10026000FEE7FEE7FEE7FEE7FEE7FEE7FEE7FEE766
:10027000FEE7FEE7952D0008890100080649074AB8
:100280000868504343F23902104408604008704740
:100290000149086070470000840100206D4EC6418E
:1002A00040EA01039B0703D009E008C9121F08C0F8
:1002B000042AFAD203E011F8013B00F8013B521E78
:1002C000F9D27047D2B201E000F8012B491EFBD2EF
:1002D00070470022F6E710B513460A460446194651
:1002E000FFF7F0FF204610BD30B50446002003465E
:1002F00000E05B1C934203D2E05CCD5C401BF8D075
:1003000030BD00F0004230F000400AD0C10D01F5D0
:100310006071C0F3160042EA0151C2084007114360
:10032000704700200146704730B50B46014600205B
:100330002022012409E021FA02F59D4205D303FAA7
:1003400002F5491B04FA02F52844151EA2F1010228
:10035000F1DC30BD2DE9F05F0546002092469B465A
:1003600088460646814640241BE0284641464746CB
:10037000224600F0FAF953465A46C01A914110D36A
:1003800011461846224600F0E1F92D1A67EB0108E4
:100390004F4622460120002100F0D8F917EB000952
:1003A0004E41201EA4F10104DFDC484631462A46B6
:1003B0004346BDE8F09F2DE9FE4F804681EA0300E9
:1003C000C00F0C46009021F0004123F00045B8EB2F
:1003D0000200A94105D24046214690461C460B46E4
:1003E000024623F00040104347D0270DC7F30A0010
:1003F000C3F30A510290401A019040286BDAC3F30C
:10040000130040F4801B0098924620B10023D2EBE9
:10041000030A63EB0B0B01985946C0F140025046AA
:1004200000F094F906460D4650465946019A00F0F0
:10043000ACF910EB08006141002487EA115284EA0C
:10044000E7731A4340D0009A62B3019A012A4FEA37
:10045000075215DC001B61EB02014FF0004202EA7B
:100460000752CDE90042001C41F5801132462B466F
:1004700000F0ACF903B0BDE8F08F40462146F9E743
:10048000001B61EB0201001C41F5801300185B4169
:100490002018A2F5001747EB030140EAD570B61902
:1004A0006D4111E06D084FEA360645EAC0754FEA26
:1004B0000752001B61EB0201001C41F58011490845
:1004C0004FEA30000019514132462B4603B0BDE8D7
:1004D000F04F00F06CB90098012240000023D0EBEF
:1004E000020263EBE073009821464FEAE074B8EB38
:1004F000000061EB0401E9E783F000435BE781F072
:10050000004158E72DE9FE4F81EA030404F000445E
:1005100021F0004100944FF0000B23F0004350EA1B
:1005200001045ED052EA03045BD0C3F30A54C1F362
:100530000A552C44A4F2F3340194A0FB0254C1F3F5
:10054000130141F48011C3F3130343F4801301FB3F
:10055000024400FB034E840A970A44EA815447EAA6
:100560008357A4FB076802958D0A05FB07854FEAB0
:10057000932C04FB0C542705029D4FEA065847EACA
:100580001637B5EB08056EEB070C870E920E47EA9F
:10059000811742EA8312A7FB0201B6EB0B0164EB61
:1005A00000042B0D43EA0C335E1844EB1C50DA4672
:1005B0005146E7FB0201C5F313044FEA0B3343EA4C
:1005C00014534FEA0432019C43EA0603A4F10C04DD
:1005D0000294009CCDE900B400F0F8F803B0BDE847
:1005E000F08F00200146F9E72DE9F04D81EA030480
:1005F00004F0004B21F0004514464FF0000A23F0B0
:10060000004150EA050220D054EA01021DD0C5F392
:100610000A570246C5F31303C1F31300C1F30A5688
:1006200040F4801543F48013A7EB0608101BD64650
:1006300008F2FD3873EB050002D308F1010801E070
:1006400092185B41B8F1000F03DA00200146BDE8C3
:10065000F08D00204FF48011064684460EE0171BF3
:1006600073EB050705D3121B63EB050306434CEA46
:10067000010C49084FEA300092185B4150EA01072B
:10068000EDD152EA030012D082EA040083EA0501A8
:10069000084305D0101BAB4106D20122002306E01F
:1006A00000224FF0004302E06FF0010253101AEBFA
:1006B00006004CEB085110EB0A0041EB0B01BDE8C2
:1006C000F04D00F074B8C1F30A52C1F3130140F2C7
:1006D000FF3341F480119A4202DA0020014670474C
:1006E00040F233439A42A2F2334202DC524200F01B
:1006F0003CB800F02BB8000030B5041E71F10004C6
:1007000004DB4FF00044404264EB0101141E73F11E
:10071000000405DB1C464FF00043524263EB040328
:10072000994208BF904230BD064C074D06E0E06894
:1007300040F0010394E8070098471034AC42F6D328
:10074000FFF726FD08DE000828DE0008202A04DB6B
:10075000203A00FA02F1002070479140C2F12003D4
:1007600020FA03F3194390407047202A04DB203A13
:1007700021FA02F00021704721FA02F3D040C2F1C1
:1007800020029140084319467047202A06DBCB1708
:10079000203A41FA02F043EAE07306E041FA02F33C
:1007A000D040C2F12002914008431946704710B56D
:1007B000141E73F1000408DA401C41F10001921884
:1007C0005B411A4301D120F0010010BD2DE9F04D2D
:1007D00092469B4611B1B1FA81F202E0B0FA80F282
:1007E00020329046FFF7B2FF04460F4640EA0A0067
:1007F00041EA0B0153465A46084313D0114653EAC7
:10080000010019D0C8F140025046FFF7AEFF05467F
:100810000E46504659464246FFF798FF084305D01A
:10082000012004E020463946BDE8F08D0020054354
:1008300046EAE0762C4337430A986305E40AA0EBC6
:1008400008000022FD0A44EA47540A3002D500207D
:100850000146E9E7010510196941DDE9084500197C
:100860006941BDE8F04DA2E730B58C1810F8012BB6
:1008700012F00F0301D110F8013B120906D110F854
:10088000012B03E010F8015B01F8015B5B1EF9D15D
:1008900001E001F8013B521EFBD1A142E6D300204A
:1008A00030BDFEE7014800F057BB00004833002090
:1008B00010B500297ED0826B4FF4D873D0F800C0F9
:1008C00003EB01135CF803C00CF0040CC2F808C081
:1008D000BCF1000F77D0D0F800C05CF803C04FEA3D
:1008E000DC0CC2F804C0D0F800C05CF8033003F0A0
:1008F0000203D3604FF4DA73D0F800C003EB0113A6
:100900005CF803C00CF00F0CC2F810C01162D0F8F4
:1009100000C05CF80330C3F30723D3614FF4DC73EA
:10092000D0F800C003EB01135CF803C082F814C0D8
:10093000D0F800C05CF803C04FEA1C2C82F815C048
:10094000D0F800C05CF803C04FEA1C4C82F816C017
:10095000D0F800C05CF803301B0ED3754FF4DE7383
:10096000D0F800C003EB01135CF803C082F818C094
:10097000D0F800C05CF803C04FEA1C2C82F819C004
:10098000D0F800C05CF803C04FEA1C4C82F81AC0D3
:10099000D0F800C05CF803301B0ED3762022D9B10A
:1009A00003681A610268536923F05003536190F899
:1009B0003C2001E005E006E0222A15D0322A13D0BF
:1009C00017E0426B78E7D0F800C05CF803C04FEA4C
:1009D0005C5CC2F800C086E70368DA6002685369AD
:1009E00023F00A035361E2E70268536923F40F43DB
:1009F00053611223012269B190F83C1052291FD093
:100A0000622920D0722922D080F83C2000F028FCF6
:100A1000002010BD90F83C10422906D0622907D072
:100A2000722909D080F83C20F0E780F83C30EDE7EF
:100A3000322180F83C10E9E7522180F83C10E5E7CC
:100A400080F83C30E2E7222180F83C10DEE74221CA
:100A500080F83C10DAE710B501684A6922F001021B
:100A60004A6190F83C10122904D101684A6922F4C5
:100A70000F424A6190F83C1042290AD052290CD00A
:100A800072290ED0012180F83C1000F081FC00207A
:100A900010BD222180F83C10F7E7322180F83C108D
:100AA000F3E7622180F83C10EFE7000088B00446CD
:100AB0000227DFF8B8A02E4D4FF003084FF00409CD
:100AC0006FF07F4B00262878012808D0022811D02B
:100AD0000528F8D1204604F04FFA2E70F3E766603F
:100AE000A660E6602F70204604F0FCF921A002F019
:100AF0005DFDE8E7204604F051FA80B185F80080FA
:100B0000201D05F063FD024624A1684602F05EFD4B
:100B1000694623A002F04AFD0BF016FCD3E7606A99
:100B2000807A0428CFD985F80090204604F024FA72
:100B3000CDF81CA0CDF818B02448059005AB06AA46
:100B400007A9204607F0ECFD201D05F03FFD0246F9
:100B500012A1684602F03AFD1DA002F027FD694689
:100B600020A002F023FD0BF0EFFBACE7C0A8010EC4
:100B700000000020202053746174653A204C6F6F90
:100B80006B696E6720666F7220444843502073651E
:100B900072766572202E2E2E0A000000257300004A
:100BA000495020616464726573732061737369676F
:100BB0006E6564206279206120444843502073654B
:100BC000727665723A2025730A000000C0A8010100
:100BD000444843502054696D656F7574202121206D
:100BE0000A000000537461746963204950206164F5
:100BF00064726573733A2025730A000070470068B9
:100C000000F58050816941F0020181617047006800
:100C100000F58050816941F4005181617047000006
:100C200081B007494FF4FA520968B1FBF2F1484329
:100C3000009000BF0098411E0091FAD201B07047A9
:100C40001000002038B50446206800F58050816906
:100C500041F480118161206800F580508069009026
:100C60000120FFF7DDFF2168009801F580518861C0
:100C700038BD0000014800F021BD000068320020AE
:100C80001079537940EA032301F1804000F52030C8
:100C900003641178D37841EA0361937852781B0496
:100CA00043EA022211434164704700002DE9F041FC
:100CB000AEB00446002904D04FF40060E060C000EC
:100CC000A060002510951195129513951495159512
:100CD000E06900287DD016954FF4007017901895A4
:100CE00019951A951B951C954FF04008CDF8748006
:100CF0001E951F9520952195229523952495259540
:100D0000802726972795289529952A952B952C9508
:100D100020680168474A1140E368A2681A43169B9D
:100D20001A4342F4007211430160206806680120F2
:100D300000F041FB206806602068C0F8048020684D
:100D40004668012000F037FB206846602068856017
:100D50002068C560206881694FF64172114041F0FA
:100D60008001816120688669012000F024FB2068F1
:100D700086612068C5612068C669012000F01BFB00
:100D80002068C6610095B804019002950111039195
:100D90000495059506950795042108910990401240
:100DA0000A9080010B9040120C900D970E950F95B4
:100DB000206800F5805081691F4A114041F004010C
:100DC00041F008718161206800F58050856901203B
:100DD00000E019E000F0EFFA206800F5805085612E
:100DE0002168164801F580510860206800F58050A0
:100DF0000568012000F0DFFA206800F580500560EA
:100E0000A069012804D00CE04FF48060169063E7DD
:100E1000206800F58050C16941F0400141F4803103
:100E2000C16162692EB02046BDE8F0410021FFF7A4
:100E300027BF00000F8120FF233FDEF88020C10282
:100E400038B504462068016841F00401016020685B
:100E5000006800900120FFF7E3FE21680098086019
:100E600038BD38B504462068016841F008010160CA
:100E70002068006800900120FFF7D2FE21680098EA
:100E8000086038BD10B50A460146044800F016FE59
:100E900010B14FF0FF3010BD002010BD68320020AF
:100EA00008B50020009069460120FFF7EBFF694676
:100EB0000120FFF7E7FF009810F0040F19D06946F2
:100EC0000020FFF7DFFF009810F4805F13D0694621
:100ED0001F20FFF7D7FF009810F4805F1DD000F0AF
:100EE0001C0018281BD008281BD014281BD0052054
:100EF00008BD012008BD4FF40451814304D010F413
:100F0000005F03D0032008BD022008BD10F4807FDD
:100F100001D0042008BD052008BD062008BD022020
:100F200008BD032008BD042008BD000070B50546BB
:100F300001F028F8064C6168401A642807D301F0D4
:100F400021F860602846BDE8704004F0C5BC70BD63
:100F5000000000207047000070B50446002520689E
:100F6000C168C1F300114269C2F3C0021023002915
:100F700002D00AB15D01C36020680169C1F30011AC
:100F80004269C2F3801219B112B145F48065036160
:100F90002068416911F0010F32D081686B4A32EA52
:100FA000010120D000218268694B33EA02021CD083
:100FB00000228368DFF89CC13CEA030317D00023BA
:100FC000114319431CD08168C1F340018268C2F308
:100FD00040228068C0F340401143084309D02046B6
:100FE000FFF739FD07E00121DDE70122E1E70123F9
:100FF000E6E745F4006520688168574A114381603F
:101000002068C16801F003014069C0F3400021B1CC
:1010100018B100212046FFF74BFC2068016901F060
:1010200003014069C0F3001021B118B1012120462D
:10103000FFF73EFC206C284320642068816901F0A2
:1010400001024169C1F300214369C3F3C0332AB1EE
:1010500021B11BB1216C41F0010121648169C1F30F
:1010600040014269C2F340224369C3F3C03329B14E
:1010700022B11BB1216C41F0020121648169C1F3ED
:1010800080024169C1F380214369C3F3C0332AB1AF
:1010900021B11BB1216C41F004012164816911F07F
:1010A000700F08D000214269C2F3C0224369C3F324
:1010B000C03311B136E00121F5E79AB393B38169EA
:1010C00001F0700140291BD006DC102909D020292D
:1010D0000CD0302922D10EE0502916D060291DD124
:1010E00018E0216C41F00801216417E0216C41F007
:1010F0001001216412E0216C41F0200121640DE017
:10110000216C41F04001216408E0216C41F0800134
:10111000216403E0216C41F480712164816921F034
:1011200070018161206C00280FD021680420486084
:10113000012084F83C002068416921F05B0121F422
:101140000F4141612046FFF705FF70BD0300000419
:1011500000030008000003101905010010B4002965
:101160000FD190F83C20222A0ED090F83C20422A41
:101170000AD090F83C20622A06D090F83C20722ACF
:1011800002D0012903D012E010BC0220704790F871
:101190003C20322A37D090F83C20522A33D090F8A5
:1011A0003C20622A2FD090F83C20722A2BD090F855
:1011B0003D20012A2AD0012280F83D204FF0620C08
:1011C000722331B390F83C20122A38D0222A3AD028
:1011D000422A3BD0322280F83C200023036402687C
:1011E000D2F814C048F601744CEA040CC2F814C0DA
:1011F00080F83D3069B30068416941F050014161B8
:1012000010BC0020704710BC0220704710BC0220A8
:10121000704790F83C20122A07D0322A09D0522A6F
:101220000AD0222280F83C20D7E7422280F83C20D6
:10123000D3E780F83CC0D0E780F83C30CDE75222BD
:1012400080F83C20C9E780F83CC0C6E780F83C3015
:10125000C3E70068416941F00A014161D0E700003D
:101260002DE9F84306463848436B1868012865D1D4
:10127000D97D1A7E93F819C09B7E4FEA0C4C41EA47
:1012800002204CEA0363314F184303B27B80B888D5
:10129000181A0FFA80FCA7F806C000EE10CADFED9E
:1012A0002C0AB8EEC00A80EE201A87ED021A3878B0
:1012B00000B3384642F6E068456904691CEB080F44
:1012C0000ADA0CF5C0404FEAE07C201845EB0C0C24
:1012D000C7F814C0386116E042F6E06084450ADDC4
:1012E000ACF5C0404FEAE07C201845EB0C0CC7F889
:1012F00014C0386107E04FEAEC7014EB0C0C684145
:10130000C7F810C07861BB80012038701148009385
:1013100002F04CF9B7F906100FA002F047F912A03D
:101320007B693A6902F042F9B868FEF7EAFF41ECDE
:10133000100B12A053EC102B02F038F93046BDE828
:10134000F8430021FFF70ABF4833002018000020AF
:101350006F12833A44DD0008A1B7C6ABB2EE203A63
:1013600020256420200A0000A1B7BEE0C0EB203A8F
:1013700020256C6C6420200A00000000A1B7CBD9A6
:10138000B6C8203A20252E306620200A0000000032
:10139000704790F83510022903D080214165012063
:1013A0007047052180F835100068016821F00101BF
:1013B00001600020704731B500F0E4FD0546009C57
:1013C000B4F1FF3F00D0641C00F0DCFD401BA042E4
:1013D000FAD338BD2DE9F04105460C4695F8450095
:1013E000012877D0012785F84570022085F8440050
:1013F000002C72D028680168434A11406368226853
:10140000D4F80CC01A43A36843EA0C031A43AB6830
:101410001A4323691A4363691A43EB681A43A369A1
:101420001A43E3691A43236A1A43636A1A43A36A95
:101430001A4311430160286806680120FFF7BBFFCB
:1014400028680660216BE06AA26B0843616B114358
:101450000843E16B0843216C0843616C0843A16CAD
:10146000084329684860286846680120FFF7A3FF01
:10147000286846602968E06C88602968206DC8602B
:10148000286881694FF641721140E36DA26DB4F88E
:1014900054C01A43236E43EA0C431A43636E1A4343
:1014A000A36E1A4311438161286886690120FFF702
:1014B00082FF28688661216FE06E08432968C86151
:1014C0002868C4690120FFF776FF2868C46114E02A
:1014D00000E002E00220BDE8F0812868016821F404
:1014E0009041EB68AA681A431143016028680468B8
:1014F0000120FFF760FF2868046085F84470002031
:1015000085F84500BDE8F0810F8120FF2DE9F0034B
:101510004FF0000C90F84540012C21D0012780F8B5
:101520004570022480F844408162002B21D94FF09D
:10153000004944F2F4585E1E01EB4C14C4F80090CC
:10154000C4F80480CCEBCC1505EB450502EB850512
:10155000A5608569B44507D204F12005E56004E083
:10156000BDE8F00302207047E1600CF1010C9C45DE
:10157000E2D3026802F58052D16080F84470002105
:1015800080F84510BDE8F003002070472DE9F00316
:10159000002490F845C0BCF1010F1BD0012780F852
:1015A00045704FF0020C80F844C0C162002B27D96F
:1015B0004FF480185E1E01EB441CCCF80080C4EB95
:1015C000C41505EB450502EB8505CCF80850C56947
:1015D00025B109E0BDE8F00302207047DCF80050B7
:1015E00045F44009CCF80090B44204D20CF1200537
:1015F000CCF80C5001E0CCF80C10641C9C42DAD3FF
:10160000026802F58052116180F84470002180F870
:101610004510BDE8F00300207047704710B4002269
:1016200090F84510012908D0012380F845300221A7
:1016300080F844104FF0000C1FE010BC02207047EF
:10164000521C0C6804F44074B4F5007F0BD00C6895
:1016500014F4407F0CD0826A4263826B521C826316
:10166000012A10D010E001638363C968816204E03D
:10167000846B641C8463C9688162816A0C6814F09D
:10168000004F12D013E001630A68C2F30D42121F2B
:10169000C263026B92680264C968816280F8443058
:1016A00080F845C010BC00207047042AC8D380F8D9
:1016B000443080F845C010BC0120704770B5044626
:1016C000206800F5805041694FF0000611F0400F8E
:1016D0004FF001050CD0204600F036FA216840207A
:1016E00001F58051486184F8445084F845600EE06B
:1016F000406910F0010F0AD0204600F0E9FA206896
:1017000000F58050456184F8445084F845602168B4
:101710004FF4803001F580514861206800F5805019
:10172000406910F4004F0CD02046FFF776FF216887
:101730004FF4004001F58051486184F8445084F82A
:10174000456070BD2DE9F04383B004460027029741
:10175000B846002C03D094F8440020B108E003B050
:101760000120BDE8F08384F84570204600F022F99E
:101770008648016841F480410160006800F48040BF
:1017800001908348016821F4000101600168226A28
:1017900011430160206800F58050016841F00101AB
:1017A000016000F0EFFB0546206800F580500068FE
:1017B00010F0010F14D000F0E5FB401BB0F5FA7FEC
:1017C00007D9032084F8440084F8457003B0BDE8CD
:1017D000F083206800F58050006810F0010FEAD116
:1017E0002068006920F01C0500F05CFD69496A4A28
:1017F0000144914202D245F0080516E06749684A63
:101800000144914202D245F00C050EE06549664A5A
:101810000144914209D3654908446549884202D28E
:1018200045F0040501E045F01005206805614FF41E
:1018300000420021204600F04CFA4FF0010948B167
:1018400001212046FFF732FA84F8449003B00120CA
:10185000BDE8F083FF20FFF7AEFD606800286FD081
:1018600000F090FB064641F2883502AA012120468D
:1018700000F024F900F086FB801BA8420BD901215F
:101880002046FFF713FA84F8449084F8457003B0BB
:101890000320BDE8F083029810F0040FE5D04FF468
:1018A00080520021204600F014FA48B10121204660
:1018B000FFF7FCF984F8449003B00120BDE8F08301
:1018C00000F060FB064602AA0121204600F0F6F86F
:1018D00000F058FB801BA8420BD901212046FFF7DE
:1018E000E5F984F8449084F8457003B00320BDE81E
:1018F000F083029810F0200FE5D002AA10212046B4
:1019000000F0DCF848B101212046FFF7CFF984F858
:10191000449003B00120BDE8F083029810F0040F5A
:1019200003D04FF40061E16000E0E76010F0020FC7
:1019300001D0A7601FE04FF48040A0601BE0FFE7EC
:10194000E068A168C0F3CF00C1F34F0140EA010293
:101950000021204600F0BDF948B101212046FFF7E3
:10196000A5F984F8449003B00120BDE8F08340F667
:10197000FF70FFF720FD41462046FFF797F984F8F6
:10198000449003B00020BDE8F083000044380240DA
:101990000438014000D3CEFEC0E1E40040F1E9FD8F
:1019A00040787D0100796CFC005A6202001F0AFA3F
:1019B00080F0FA02F0B587B000243B48016841F09E
:1019C00001010160016801F001010191016841F02C
:1019D00004010160016801F004010191016841F016
:1019E00002010160016801F002010191016841F00A
:1019F00040010160016801F040010191016841F07E
:101A000000710160016801F000710191016841F00D
:101A100080610160016801F080610191016841F01D
:101A200000610160006800F0006001901F4E01221B
:101A30000421304600F09EFA042102910121039115
:101A4000049402250595069402A9304600F084F915
:101A50003220029003950494032605960B270697DF
:101A600002A9134800F078F98620029003950494A7
:101A70000596069702A90F4800F06EF94FF4D04082
:101A80000290039504940596069702A90A4800F06F
:101A900063F9002205213D2000F0C0FA3D2000F04E
:101AA000B0FA07B0F0BD0000303802400004024038
:101AB0000008024000000240001802402DE9F041F9
:101AC0000446174694F8440082282CD0822084F8DB
:101AD00044002068026902F01C02238A4FF4784C0B
:101AE0000CEAC3231A434FF4F86303EA811111434C
:101AF00021F0020141F00106066100F043FA0546BB
:101B000016F0010F4FF0010615D000F03BFA401B14
:101B1000B0F5803F0AD384F84460002084F8450083
:101B20000320BDE8F0810220BDE8F0812068006953
:101B300010F0010FE9D12068406980B2386084F864
:101B400044600020BDE8F0810148006806F0DCBF79
:101B50000800002070B5044694F8450001281AD00A
:101B6000012584F84550022084F844002046FFF700
:101B700078F92046FFF764F92046FFF763F820461E
:101B8000FFF745F82046FFF73AF884F84450002064
:101B900084F8450070BD022070BD2DE9F0010022DF
:101BA00090F84530012B17D0012580F845500223CD
:101BB00080F84430002499B1D0F82CC0DCF8003013
:101BC00013F0004F14D0122180F8441080F84540E3
:101BD000BDE8F00101207047BDE8F0010220704728
:101BE00080F8445080F84540BDE8F001012070477E
:101BF00040F2F456B14208D9B1FBF6F3B1FBF6F767
:101C000006FB171717B15B1C00E00123012B16D050
:101C1000002B48D9C3F10107C7EBC71707EB4707EC
:101C200001EB8701A3F1010CC1F30C07C16AD1F8E4
:101C3000008028F04058C1F800809AB119E0DCF823
:101C4000002042F04052CCF80020C26AC1F30C01DF
:101C50005160C16A0A6842F000420A60C16AC968FC
:101C6000C16220E0C16AD1F8008048F08058C1F814
:101C70000080C16A4E60624508D1C16AD1F8008017
:101C800048F00058C1F80080C16A4F60C16AD1F8BD
:101C9000008048F00048C1F80080C16AC968C1628C
:101CA000521C9A42C2D3016801F580514A6912F070
:101CB000040F05D004224A61016801F580514C608F
:101CC00080F8445080F84540BDE8F001002070479E
:101CD000704770B5044694F84400422830D0422042
:101CE00084F844002068036903F01C03B4F810C0B2
:101CF0004FF4784505EACC2C4CEA03034FF4F86C1A
:101D00000CEA8111194341F0020141F0010691B240
:101D100041612068066100F035F9054616F0010FB3
:101D20004FF0010613D000F02DF9401BB0F5803FB5
:101D300008D384F84460002084F84500032070BD77
:101D4000022070BD2068006910F0010FEBD184F80B
:101D50004460002070BD00002DE9F84F0022DFF83C
:101D60000082DFF80092DFF800A24FF0030E0F2789
:101D7000012303FA02F50B682B40AB427DD1D1F869
:101D800004C0BCF1020F02D0BCF1120F12D14FEA15
:101D9000D20C00EB8C0CDCF820605407E40E07FA40
:101DA00004FB26EA0B06D1F810B00BFA04F4344316
:101DB000CCF8204006684FEA420C0EFA0CF4A64319
:101DC00091F804B00BF0030B0BFA0CFB4BEA060680
:101DD00006604E68012E05D0022E03D0112E01D0D0
:101DE000122E11D18668A643D1F80CB00BFA0CFB69
:101DF0004BEA06068660466826EA05050E79C6F3B4
:101E00000016964035434560C56825EA04048D6890
:101E100005FA0CFC4CEA040CC0F80CC0D1F804C064
:101E20001CF0805F7DD0D8F800C04CF4804CC8F81E
:101E300000C0D8F800C00CF4804CCDF800C022F0EF
:101E4000030C0CF1804404F59834D4F808C89507C5
:101E50002D0F07FA05F62CEA0606A0F1804CBCF51A
:101E6000003C64D0A0F1804CBCF5013C62D0A0F1F4
:101E7000804CBCF5023C60D000E052E0A0F1804C08
:101E8000BCF5033C5CD0A0F1804CBCF5043C5AD0BE
:101E9000A0F1804CBCF5053C58D0A0F1804CBCF5BD
:101EA000063C56D0A0F1804CBCF5073C54D04FF016
:101EB000080C0CFA05FC4CEA060CC4F808C8D9F862
:101EC00000C02CEA030C4C6814F4803F01D04CEAAB
:101ED000030CC9F800C0254CD4F800C02CEA030C50
:101EE0004D6815F4003F01D04CEA030CC4F800C063
:101EF000DAF800C02CEA030C4C6814F4801F01D0FF
:101F00004CEA030CCAF800C0194CD4F800C02CEA03
:101F1000030C4D6815F4001F01D04CEA030CC4F803
:101F200000C0521C102AFFF423AFBDE8F88F4FF019
:101F3000000CBEE74FF0010CBBE74FF0020CB8E716
:101F40004FF0030CB5E74FF0040CB2E74FF0050C6F
:101F5000AFE74FF0060CACE74FF0070CA9E7000025
:101F600044380240003C0140083C0140043C014030
:101F70000C3C0140002A01D0816170470904816155
:101F80007047000001480068704700000C00002006
:101F900002480168491C0160704700000C000020E5
:101FA00010B50B48016841F400710160016841F40B
:101FB00080610160016841F480710160032000F0DC
:101FC00061F8002000F006F800F018F8002010BDBD
:101FD000003C024010B5044607484FF47A7200688E
:101FE000B0FBF2F000F004FC00222146501E00F08D
:101FF00015F8002010BD000010000020032000F0A4
:1020000041B800F01F01012202FA01F140098000ED
:1020100000F1E020C0F800117047000010B4184B28
:102020001B68C3F30223C3F1070CBCF1040F01D9F1
:102030004FF0040C1C1D072C01D2002300E0DB1E16
:10204000012404FA0CFCACF1010C0CEA01019940EA
:1020500004FA03F35B1E1A401143002808DA00F06B
:102060000F0000F1E020090180F8141D10BC70473A
:1020700000F1E020090180F8001410BC7047000056
:102080000CED00E000F00700064A11684FF6FF0370
:10209000194041EA002040F0FD7040F0806010607F
:1020A000704700000CED00E02DE9F05F04460E469D
:1020B000DFF8D091D9F80000F7B200F00F00B0427D
:1020C0000AD289F80070D9F8000000F00F00B04281
:1020D00002D00120BDE8F09F2078DFF8AC8110F03D
:1020E000020F07D0D8F80000A16820F0F0000843E4
:1020F000C8F80000207810F0010F51D060686349E3
:10210000012808D002280DD003280BD0096811F04F
:10211000020F2ED00AE0096811F4003F06D1012019
:10212000BDE8F09F096811F0007F1FD0D8F80010BB
:1021300021F003010843C8F80000FFF723FF05461C
:10214000606841F2883A012816D0022829D0032875
:102150003CD0D8F8000010F00C0F51D0FFF712FF60
:10216000401B504547D90320BDE8F09F0120BDE842
:10217000F09F0120BDE8F09FD8F8000000F00C00AF
:1021800004283DD0FFF7FEFE401B504502D9032036
:10219000BDE8F09FD8F8000000F00C000428F1D151
:1021A0002EE0D8F8000000F00C00082828D0FFF737
:1021B000E9FE401B504502D90320BDE8F09FD8F846
:1021C000000000F00C000828F1D119E0D8F8000058
:1021D0004FF00C0B3BEA000012D0FFF7D3FE401B80
:1021E000504502D90320BDE8F09FD8F800003BEA33
:1021F0000000F2D104E0D8F8000010F00C0FADD1CF
:10220000D9F8000000F00F00B0420AD989F8007038
:10221000D9F8000000F00F00B04202D00120BDE864
:10222000F09F207810F0040F07D0D8F80000E16884
:1022300020F4E0500843C8F80000207810F0080FA0
:1022400008D0D8F80000216920F4604040EAC100BD
:10225000C8F8000000F058F8D8F80010F02292FA00
:10226000A2F201F0F001B2FA82F2D140084A515CC8
:10227000C840084908600020FFF7ACFE0020BDE818
:10228000F09F0000003C0240083802400038024045
:102290005CDB00081000002001490120C864704781
:1022A000000047420148006870470000100000200D
:1022B00000B5FFF7F7FF074909684FF4E05292FABB
:1022C000A2F201F4E051B2FA82F2D140024A515C2A
:1022D000C84000BD083802406CDB000800B5FFF7BD
:1022E000E1FF074909684FF4604292FAA2F201F453
:1022F0006041B2FA82F2D140024A515CC84000BD4E
:10230000083802406CDB000810B41F48006810F069
:102310000C011E481BD04FEA600C042916D0082976
:1023200015D11B4A116801F03F01136813F4800FA7
:1023300047F6C0730DD0BCFBF1F01168194093FA59
:10234000A3F3B3FA83F3D94048430CE0604610BCD2
:102350007047B0FBF1F01168194093FAA3F3B3FA98
:1023600083F3D940484311684FF4403292FAA2F205
:1023700001F44031B2FA82F2D140491C4900B0FB6D
:10238000F1F010BC70470000083802400024F4004F
:10239000043802402DE9F84F0446DFF81C84207809
:1023A000A8F1040710F0010FA7F1040560D0D8F8D8
:1023B000000000F00C00042809D0D8F8000000F05C
:1023C0000C0008280DD1386810F4800F09D0286857
:1023D00010F4003F4CD06068002849D10120BDE8CE
:1023E000F88F6068B0F5803F14D0B0F5A02F16D0FC
:1023F000286820F480302860286820F48020286035
:10240000606810B3FFF7BEFD0646286810F4003F71
:102410000ED02DE0286840F480302860F0E728686E
:1024200040F480202860286840F480302860E7E786
:10243000FFF7A8FD801B642802D90320BDE8F88FB0
:10244000286810F4003FF3D012E0FFF79BFD06462A
:10245000286810F4003F0BD0FFF794FD801B642820
:1024600002D90320BDE8F88F286810F4003FF3D1AB
:102470002078DFF8489310F0020F4FF0000663D089
:10248000D8F800004FF0F80B10F00C0F16D0D8F869
:10249000000000F00C00082803D1386810F4800F09
:1024A0000CD0E068C8B30120C9F80000FFF76AFD4E
:1024B0008246286810F0020F16D022E0286810F03B
:1024C000020F05D0E068012802D00120BDE8F88F96
:1024D00028689BFAABF22169B2FA82F220F0F80088
:1024E0009140084328602FE0FFF74CFDA0EB0A0065
:1024F000022802D90320BDE8F88F286810F0020FE7
:10250000F2D028689BFAABF22169B2FA82F220F08D
:10251000F80091400843286016E0FFE7C9F8006022
:10252000FFF730FD8246286810F0020F0CD0FFF74D
:1025300029FDA0EB0A00022802D90320BDE8F88F8C
:10254000286810F0020FF2D1207810F0080F34D074
:102550009B48DFF870B26169C1B101210160FFF7EA
:1025600011FD8246DBF8000010F0020F25D1FFF7C5
:1025700009FDA0EB0A00022802D90320BDE8F88F6C
:10258000DBF8000010F0020FF1D016E00660FFF754
:10259000F9FC8246DBF8000010F0020F0DD0FFF7C7
:1025A000F1FCA0EB0A00022802D90320BDE8F88F55
:1025B000DBF8000010F0020FF1D1207810F0040FCA
:1025C00043D08148016841F080510160006800F00B
:1025D00080500090DFF8F4B1DBF8000040F4807028
:1025E000CBF80000FFF7CEFC8246DBF8000010F4C9
:1025F000807F0DD1FFF7C6FCA0EB0A00022802D9AC
:102600000320BDE8F88FDBF8000010F4807FF1D0E4
:10261000A068DFF8BCB1012818D005281DD0DBF870
:10262000000020F00100CBF80000DBF8000020F0F3
:102630000400CBF80000A06868B3FFF7A3FC824653
:10264000DBF8000010F0020F14D03CE0DBF80000D3
:1026500040F00100CBF80000EDE7DBF8000040F0AF
:102660000400CBF80000DBF8000040F00100CBF8DC
:102670000000E0E7FFF786FCA0EB0A0141F288309A
:10268000814202D90320BDE8F88FDBF8000010F08A
:10269000020FEFD017E0FFF775FC8246DBF8000071
:1026A00010F0020F0FD0FFF76DFCA0EB0A0141F212
:1026B0008830814202D90320BDE8F88FDBF80000A2
:1026C00010F0020FEFD1A069F0B3D8F8001001F0BC
:1026D0000C0108296CD0022810D0C9F86060FFF7FF
:1026E00051FC0446286810F0007F5ED0FFF74AFCDA
:1026F000001B022855D90320BDE8F88FC9F8606097
:10270000FFF740FC0646286810F0007F0BD0FFF76B
:1027100039FC801B022802D90320BDE8F88F286805
:1027200010F0007FF3D1216AE0694FF0FF3340EAF7
:10273000010247F6C07191FAA1F1606AB1FA81F124
:1027400000FA01F1A06A00E02FE003EB50004FF423
:10275000403393FAA3F3B3FA83F39840084310434A
:102760004FF0706292FAA2F2E16AB2FA82F29140FC
:10277000084338600120C9F86000FFF703FC0446F5
:10278000286810F0007F10D1FFF7FCFB001B022827
:1027900002D90320BDE8F88F286810F0007FF3D03D
:1027A00003E0286810F0007FA0D10020BDE8F88F7A
:1027B0000120BDE8F88F00000838024000004742C1
:1027C000800E47427438024040380240007000409A
:1027D000703802404FF0E021042804D0086920F04E
:1027E000040008617047086940F004000861704700
:1027F000401EB0F1807F01D3012070474FF0E021EF
:102800004861044AF02010700020886107200861A8
:102810000020704723ED00E07047000010B504462B
:1028200022681068D168526900F00F03002B0AD1AA
:1028300010F0200F07D011F0200F04D02046BDE883
:10284000104000F0FCBA002B6BD002F0010301F441
:10285000907C53EA0C0364D010F0010F06D011F401
:10286000807F03D0E36B43F00103E36310F0040FB8
:1028700006D012F0010F03D0E36B43F00203E363D1
:1028800010F0020F06D012F0010F03D0E36B43F0FB
:102890000403E36310F0080F06D012F0010F03D019
:1028A000E26B42F00802E263E26B002A2ED010F0E5
:1028B000200F05D011F0200F02D0204600F0BFFA03
:1028C00020684069C0F38010E16B11F0080F00D15F
:1028D00008B3204600F098FA2068416911F0400FD3
:1028E00015D0416921F040014161606B58B1184930
:1028F0000165606BFEF74DFD002807D0606B016D30
:10290000BDE8104008472046FFF786FF10BD20466F
:10291000FFF782FF10BD2046FFF77EFF0020E06337
:1029200010BD10F0800F07D011F0800F04D02046AA
:10293000BDE8104000F06EBC10F0400FF0D011F078
:10294000400FEDD02046BDE8104000F06BBA00000B
:10295000F92D000870B50446002C04D094F8390015
:10296000002510B106E0012070BD84F838502046E3
:1029700000F022F8242084F839002068C16821F48E
:102980000051C160204600F0A3FA2068016921F4DB
:10299000904101612068416921F02A01416120686C
:1029A000C16841F40051C160E563202084F839001A
:1029B00084F83A00002070BD10B586B00068A0F120
:1029C0008041B1F588311DD10F48016841F01001F7
:1029D0000160006800F0100000904020019002208B
:1029E0000290012003900320049007200590074CDB
:1029F00001A92046FFF7B0F98021019101A92046E5
:102A0000FFF7AAF906B010BD4438024000040240A6
:102A100090F83A30202B01D002207047D1B1CAB1D2
:102A200090F83830012B17D081628285C285002151
:102A3000C163222280F83A2080F8381001684A6980
:102A400042F001024A610068C16841F49071C160BE
:102A500000207047012070470220704710B50446DF
:102A60000648844201D100F045FC0548844203D168
:102A7000BDE8104000F0C4BC10BD0000CC33002005
:102A80000C3400202DE9F84304460D4691461E46BD
:102A900094F83900202802D00220BDE8F8834DB315
:102AA000B9F1000F26D094F83800012825D0012074
:102AB00084F838000027E763212084F83900FFF705
:102AC00061FA8046A4F82490A4F82690E08CA0B384
:102AD000E08C401EE084A068B0F5805F10D04346D3
:102AE000002280212046009600F0C7FBF0B10320B1
:102AF000BDE8F8830120BDE8F8830220BDE8F88333
:102B00004346002280212046009600F0B6FB10B11B
:102B10000320BDE8F88328882168C0F308004860D6
:102B2000206908B16D1C05E0AD1C03E0216815F8B3
:102B3000010B4860E08C0028CAD1434600224021A6
:102B40002046009600F099FB10B10320BDE8F88301
:102B5000202084F8390084F838700020BDE8F8831C
:102B60007047FEE7F0B587B02348016841F0800167
:102B70000160016801F080010191016841F01001DC
:102B80000160016801F010010191016841F010013C
:102B90000160006800F010000190184F00224FF40F
:102BA00000713846FFF7E6F9154E00222021304625
:102BB000FFF7E0F9002240213046FFF7DBF97015FE
:102BC0000290012403940225059502A93846FFF7D7
:102BD000C3F8202102910394059502A93046FFF71E
:102BE000BBF8402002900394059502A93046FFF7F8
:102BF000B3F807B0F0BD000030380240001C0240BE
:102C00000010024082B000210C48026842F002022B
:102C10000260006800F0020001900A48084A026061
:102C20004FF4E13242608160C16001610C22426177
:102C30008161C16102B0FFF78DBE000030380240F3
:102C40000010014008330020FEE7704700B587B050
:102C50000021084609F056FC0020069005900490DB
:102C60000B490C4A01920291009004AB05AA06A9F7
:102C7000094805F019FD084805F078FD064802F0FE
:102C800097FE0649044805F0B1FD07B000BD0000FD
:102C900031580008815A000890010020B1590008FD
:102CA000704700008AB0FFF7D1FF0D4C04F114000B
:102CB00090E80F100792CDE9083C0691059009496C
:102CC00005A805F089FF2834B4E80F108DE80F102F
:102CD0000021684605F080FF002005F097FFFBE724
:102CE0000CDB00089001002010B5FFF751F9BDE89A
:102CF000104005F067BF000030B593B000252348B1
:102D0000016841F080510160006800F0805000903F
:102D10001F48016841F480410160006800F4804070
:102D20000090012006900004079002240C9480017A
:102D30000D9008200E904FF4A8700F90109407206B
:102D4000119006A8FFF726FB0F200190029403952F
:102D50004FF4A0500490E0020590052101A8FFF770
:102D6000A3F9FFF799FAFFF79DFA4FF47A71B0FBD8
:102D7000F1F0FFF73DFD0420FFF72CFD00220F21AD
:102D8000501EFFF74BF913B030BD00004038024031
:102D9000007000400F48016841F4700101600E4866
:102DA000016841F0010101600C4A002111600268D4
:102DB00022F4102222F080720260031D084A1A6079
:102DC000026822F480220260064801600649580623
:102DD0000860704788ED00E0003802400838024083
:102DE000103000240C38024008ED00E00148FFF7E5
:102DF00015BD0000CC33002010B5806B0021C185CB
:102E0000C184FFF709FD10BD0168CA6822F4907201
:102E1000CA6001684A6922F001024A61202180F8F3
:102E20003A10704710B50168CA6822F04002CA60C3
:102E3000202180F83910FFF793FE002010BD10B557
:102E400090F83A10222901D0022010BD8168B1F516
:102E5000805F11D0016919B30168496801F07F02F0
:102E6000816A4B1C83620A70C18D491E0904090CDA
:102E7000C1851CD0002010BD816A02693AB1026888
:102E80005268D2B20A80816A491C8162ECE702680A
:102E90005268C2F308020A80816A891C8162E3E7F2
:102EA00001684A68816A4B1C83620A70DCE701682A
:102EB000CA6822F49072CA6001684A6922F001026D
:102EC0004A61202180F83A10FFF7C8FD002010BDAC
:102ED0002DE9F04104462068016921F44051E2687F
:102EE000114301612068C16821F4037121F4144188
:102EF0002369A268D4F81CC01A43636943EA0C032F
:102F00001A431143C1602068416921F44071A269EC
:102F100011434161E069BC4ABC49BD4D3226B0F560
:102F2000004F5ED02068884202D0904240F012816B
:102F3000FFF7D4F900EBC00101EB001061688900D4
:102F4000B0FBF1F7FFF7CAF900EBC00101EB00108D
:102F500061688900B0FBF1F0A5FB001040096FF03B
:102F60001801484307EB800006EB0010A5FB00109A
:102F7000400900F0F007FFF7B1F900EBC00101EBE9
:102F8000001061688900B0FBF1F0A5FB001040095A
:102F900007EB0017FFF7A2F900EBC00101EB0010EF
:102FA00061688900B0FBF1F8FFF798F900EBC00108
:102FB00001EB001061688900B0FBF1F0A5FB001087
:102FC00040096FF01801484308EB800006EB001041
:102FD000A5FB00102168C0F3431038448860BDE8A9
:102FE000F0812068884201D0904259D1FFF776F9EC
:102FF00000EBC00101EB001061684900B0FBF1F08B
:10300000A5FB001040090701FFF768F900EBC001BC
:1030100001EB001061684900B0FBF1F8FFF75EF9C1
:1030200000EBC00101EB001061684900B0FBF1F05A
:10303000A5FB001040096FF01801484308EB800021
:1030400006EBC000A5FB0010400900F0F80007EBFC
:103050004007FFF743F900EBC00101EB0010616886
:103060004900B0FBF1F8FFF739F900EBC00101EBC3
:10307000001061684900B0FBF1F0A5FB00104009A9
:103080006FF01801484308EB800006EBC000A5FB79
:1030900000102168C0F3421038448860BDE8F08118
:1030A000FFF706F900EBC00101EB00106168490071
:1030B000B0FBF1F0A5FB001040090701FFF7F8F89D
:1030C00000EBC00101EB001061684900B0FBF1F8B2
:1030D000FFF7EEF800EBC00101EB0010616849005A
:1030E000B0FBF1F0A5FB001040096FF01801484358
:1030F00008EB800006EBC000A5FB0010400900F0C3
:10310000F80007EB4007FFF7D3F800EBC00101EB35
:10311000001061684900B0FBF1F8FFF7C9F800EB57
:10312000C00101EB001061684900B0FBF1F0A5FBA4
:10313000001040096FF01801484308EB800006EBCF
:10314000C000A5FB00102168C0F34210384488601D
:10315000BDE8F081FFF7ACF800EBC00101EB001017
:1031600061688900B0FBF1F7FFF7A2F800EBC0013E
:1031700001EB001061688900B0FBF1F0A5FB0010C5
:1031800040096FF01801484307EB800006EB001080
:10319000A5FB0010400900F0F007FFF789F800EBED
:1031A000C00101EB001061688900B0FBF1F0A5FBE4
:1031B0000010400907EB0017FFF77AF800EBC00199
:1031C00001EB001061688900B0FBF1F8FFF770F8BF
:1031D00000EBC00101EB001061688900B0FBF1F069
:1031E000A5FB001040096FF01801484308EB800070
:1031F00006EB0010A5FB00102168C0F34310384413
:103200008860BDE8F081000000140140001001401A
:103210001F85EB5190F83910212901D00220704709
:103220008168B1F5805F0CD0016A4A1C02620268B5
:1032300009785160C18C491E0904090CC18410D061
:1032400019E0016A02680988C1F308015160016947
:1032500019B1016A491C0162ECE7016A891C01622B
:10326000E8E70168CA6822F08002CA600068C168A5
:1032700041F04001C160002070472DE9F041044653
:10328000069D884617461E462068006838EA0000FA
:1032900020D00020B84227D1B5F1FF3F1CD025B186
:1032A000FEF770FE801BA84216D92068C16821F481
:1032B000D071C1602068416921F001014161202085
:1032C00084F8390084F83A00002084F8380003209C
:1032D000BDE8F0810120DDE72068006838EA0000E1
:1032E00005D00020B842D7D00020BDE8F0810120F1
:1032F000F8E7000070B5154E0025B41DB078012820
:1033000006D0012221461248FFF782FB257070BDCE
:103310006078217800EB012081B200EE101A0D4890
:10332000B8EE400A80ED0B0AB1F5FA7F02D2012215
:10333000C26400E0C56408A000F038F9B570BDE8CB
:103340007040012209490248FFF762BB30000020AB
:10335000CC330020B032002034B2E2C1BFB5C4BECD
:10336000E0C0EBCEAA3A25646D6D0A00360000205D
:1033700070B500F0C9F81D481B4901604FF416569E
:10338000466000248460C46004610C25456184614A
:10339000C461FFF7DFFA002203213420FEF73EFE6E
:1033A0003420FEF72EFE022211491048FFF730FBB1
:1033B00011481049016046608460C4600461456141
:1033C0008461C461FFF7C6FA002204214720FEF79A
:1033D00025FE4720FEF715FEBDE870400222074992
:1033E0000548FFF715BB0000004C0040CC3300201F
:1033F00036000020001401400C340020380000206A
:1034000070B5164E002506F108043079012806D063
:10341000012221461248FFF7FBFA257070BD607843
:10342000217800EB012081B200EE101A0D48B8EEB1
:10343000400A80ED0C0AB1F5FA7F02D20122026542
:1034400000E0056508A000F0B1F83571BDE87040F6
:1034500001220A490248FFF7DBBA000030000020D1
:103460000C340020B032002036B2E2C1BFB5C4BE79
:10347000E0C0EBCEAA3A25646D6D0A00380000204A
:1034800070B5C82005F0FAF94FF6FF73012217490D
:103490001748FFF7F7FA154D012400B9AC70C820A2
:1034A00005F0ECF94FF6FF73012212491048FFF7BF
:1034B000E9FA00B9EC70C82005F0E0F94FF6FF73A7
:1034C00001220A490C48FFF7DDFA00B92C71C82027
:1034D00005F0D4F94FF6FF73012206490648FFF7BD
:1034E000D1FA002800D16C7170BD000030000020BE
:1034F000CC330020310000200C3400200148FFF7BD
:103500008DB900000C3400202DE9F0438BB0224C23
:10351000206840F004002060206800F00400009063
:103520001E48016841F400210160006800F4002099
:1035300000904FF4406006900225079501260896FA
:10354000032709974FF00808CDF82880DFF850903E
:1035500006A94846FEF700FC206840F00400206001
:10356000206800F0040000900E49086840F0200038
:103570000860086800F020000090C02001900295CB
:1035800003960497CDF8148001A94846FEF7E4FBA2
:103590000BB0BDE8F08300003038024040380240F4
:1035A0000008024044380240FEE700000FB4054B1B
:1035B00010B503A9044A029800F0EEF810BC5DF8BB
:1035C00014FB0000115C0008880100200FB4084BB8
:1035D00010B504A902AA039800F0DEF8044602A977
:1035E000002000F070FC204610BC5DF814FB0000C9
:1035F000C73E000802E008C8121F08C1002AFAD11D
:1036000070477047002001E001C1121F002AFBD162
:10361000704700002DE9FF5F82B00021DDE9043032
:10362000020DDDF840B0034318D044F61050A2F26A
:10363000FF3242431514119801281FD0A5EB0B004F
:10364000401C5FEA000A4FF000064E4FDFF8389149
:10365000B046504615D5CAF1000413E01198012474
:103660004AA3012801D16FEA0B010298119AC0E91F
:103670000031C0E9024206B0BDE8F09FCBF1000086
:10368000DFE704460021404A491842EB0450CDE9E7
:10369000001012E0E00707D032463B46404649465C
:1036A000FCF730FF8046894632463B4610461946B5
:1036B000FCF728FF06460F466410002CEAD1DDE92E
:1036C0000401DDE90023BAF1000F06DAFCF71AFF66
:1036D00042464B46FCF716FF05E0FCF785FF4246E5
:1036E0004B46FCF781FF04460E460022284BFDF7AF
:1036F00003F803D84FF0FF30014607E00022254BC6
:1037000020463146FCF757FEFCF7DDFF102409E0A8
:10371000002C0ADB0A220023FCF71CFE039B30323C
:103720001A55641E50EA0102F2D1641C039AC4F1D6
:1037300011031444119A012A03D0012208430DD128
:103740000AE0084304D000204FF0110B119072E7FB
:10375000A3EB0B056D1E0DE05B4504DD4FF0000291
:1037600005F1010504E003DA4FF00002A5F10105BF
:10377000002AECD002981199C0E90231C0E9004555
:1037800079E70000000014400000F03F3000000026
:103790000000F0430000E03F2DE9FF4F95B09B464D
:1037A0008946064600250FE2252877D100242746C2
:1037B000F84A0121059400E0044316F8013F203B3C
:1037C00001FA03F01042F7D130782A2811D06FF0B7
:1037D0002F033078A0F13002092A16D8059A44F058
:1037E000020402EB820203EB42021044761C0590B5
:1037F000EFE759F8042B0592002A03DA504244F40B
:103800000054059044F00204761C30782E2816D11E
:1038100016F8010F44F004042A280DD06FF02F028F
:103820003078A0F13003092B09D807EB870302EBAE
:103830004303C718761CF3E759F8047B761C3078ED
:103840006C280FD006DC4C2817D068280DD06A28C9
:1038500014D104E0742810D07A280FD10DE044F47C
:1038600000140AE044F4801401E044F44014727837
:10387000824202D104F58014761C761C30786628CA
:103880000BD013DC582877D009DC002875D04528E8
:10389000F6D04628F4D047281AD19DE118E06328D5
:1038A00035D0642879D0652812D195E1702873D07D
:1038B00008DC6728F1D069286FD06E280DD06F28FA
:1038C00006D1B5E073282CD0752875D0782874D02F
:1038D0005A46179990476D1C75E1C4F302500228AF
:1038E00009D003280DD0D9F8001004280DD00D60A0
:1038F00009F1040967E1D9F80010EA17C1E900529B
:10390000F6E7D9F800100D80F2E70D70F0E719F82E
:10391000041B8DF8001000208DF80100EA460120FC
:1039200003E059F804AB4FF0FF3061074FF000019E
:1039300002D40DE008F101018846B9420FDA804552
:10394000F8DB1AF808100029F4D108E008F10101A9
:1039500088468142FADB1AF808100029F6D105984A
:103960005B46A0EB080721463846179A00F094FA08
:10397000284400EB080507E04DE029E10DE01AF8C6
:10398000010B5A4617999047B8F10108F7D25B46E8
:1039900021463846179A13E142E00A220092C4F306
:1039A00002524FF0000A022A08D059F804CB032A29
:1039B0004FEAEC710AD00DE029E02AE009F1070195
:1039C00021F00702F2E802C1914609E00FFA8CFCEF
:1039D0004FEAEC71042A03D14FFA8CFC4FEAEC71E8
:1039E000002907DA0A460021DCF1000C61EB020134
:1039F0002D2202E0220504D52B228DF8042001227D
:103A000003E0E20701D02022F7E7904659E00A21BF
:103A100002E010220DE010214FF0000A00910BE0AF
:103A200010224FF0000A44F004040827009203E03B
:103A300008224FF0000A0092C4F30252022A05D075
:103A400059F804CB0021032A08D009E009F1070145
:103A500021F00702F2E802C1914605E01FFA8CFC52
:103A6000042A01D10CF0FF0C4FF00008220728D5E2
:103A7000702806D0009B83F0100353EA0A0305D098
:103A80000EE040228DF80420012208E05CEA0102E9
:103A900006D030228DF804208DF8050002229046D1
:103AA000009B83F0080353EA0A030AD15CEA01028F
:103AB00001D1620705D530228DF804204FF00108AE
:103AC0007F1E582804D034A003900EA802900DE069
:103AD00036A0F9E753466046009AFCF73BFC844663
:103AE0000398825C0298401E029002705CEA01001A
:103AF000F0D1029806A9081A00F1200A600702D541
:103B000024F4803400E00127574502DDA7EB0A00CA
:103B100000E0002000EB0A01009005984144401AA3
:103B20000590E00306D45B462146179A059800F0FD
:103B3000B3F90544002706E001A85A46C05D17996D
:103B400090476D1C7F1C4745F6DBE0030CD55B46B8
:103B50002146179A059800F09FF9054404E03020AB
:103B60005A46179990476D1C0099481E00900029ED
:103B7000F5DC08E0029802995A460078491C029147
:103B8000179990476D1CBAF10001AAF1010AF1DC06
:103B900065E1000009280100303132333435363711
:103BA0003839616263646566000000003031323389
:103BB0003435363738394142434445460000000029
:103BC00000F058F90544761C307800287FF4ECADFD
:103BD00019B02846BDE8F08F620700D4062709F126
:103BE000070222F0070CFCE80223E14603F000483C
:103BF0005FEA080C02D00FF2702C0DE05FEA045C63
:103C000002D50FF2682C07E05FEAC47C02D00FF205
:103C1000602C01E0AFF2700C4FF0FF3823F000434E
:103C2000CDF850C065280CD006DC452809D04628C0
:103C30001DD047283DD13DE0662818D067287ED1A9
:103C400038E00021112F01DB112000E0781CCDE9C4
:103C5000000106A90EA8FFF7DDFCDDE90F010E9AB1
:103C600003910021009207F1010A04914DE04FF009
:103C700000400097CDE9011006A90EA8FFF7CAFC85
:103C8000DDE90F0203920E9B11990022DDF80CA0D2
:103C90000093049211B9791C00EB010AB7EB0A00FA
:103CA00004D4C0F1FF3007F1010A0490AAEB070029
:103CB000019044E0012F00DA01270021112F01DDDE
:103CC000112000E03846CDE9000106A90EA8FFF753
:103CD000A1FCDDE90F010E9A0391002104910092ED
:103CE000BA4621070CD40399514500DA8A46BAF145
:103CF000010F05DD009AAAF10101515C302908D0BD
:103D0000B84202DA10F1040F06DA0121CDE9011000
:103D100015E0AAF10101E9E7002805DC0499014456
:103D20000491AAEB000102E0411C514500DD8A46E6
:103D30000499401A401C01904FF000400290200767
:103D400004D40198504501DBCDF8048000208DF8A3
:103D50004F0002980DF14F07B0F1004F25D02B20F6
:103D60000E9002984FF0020800280CDA40420290B0
:103D70002D200E9007E00A210298FCF7D5FA303189
:103D8000029007F8011DB8F10001A8F10108F2DC6A
:103D900002980028EFD1791E0E980870307800F054
:103DA000200040F0450007F8020D12A8C01B00F1EA
:103DB00007081498007800B1012000EB0A0101986F
:103DC00001EBE07105984144401A401E0590E00364
:103DD00006D45B462146179A059800F05DF8054425
:103DE0001498007818B15A46179990476D1CE00353
:103DF00024D55B462146179A059800F04DF80544F6
:103E00001CE00498002807DBDDE90301884203DD9C
:103E10000098405C179901E0179930205A46904766
:103E2000049805F10105401C04900198401E019082
:103E300004D12E205A46179990476D1CBAF1000103
:103E4000AAF1010ADDDC05E017F8010B5A461799C3
:103E500090476D1CB8F10001A8F10108F4DC5B4645
:103E60002146179A0598ABE62D0000002B000000B4
:103E7000200000002DE9F041044600251E461746AB
:103E8000880404D405E039462020B0476D1C641E28
:103E9000F9D52846BDE8F0812DE9F041044600251A
:103EA0001E469046C80301D5302700E0202788042D
:103EB00004D505E041463846B0476D1C641EF9D56F
:103EC0002846BDE8F0810A68531C0B6010707047EB
:103ED0002DE9F04104460E461746002C41D004F16E
:103EE000140005F02DFE00283FD0002E41D0207890
:103EF000A16A04F055F90546002D4AD06E602846A7
:103F000005F018FD2F72294604F1140005F00DFE8E
:103F100000284ED06C680021204605F0DDFF00210E
:103F2000204607F097FC0021204607F008FE0022FB
:103F30001146204606F0ECFF0021204606F0A5F9C8
:103F40000020686005F1100005F0CCFD05F11000BF
:103F500005F0E8FD284604F01DFA4FF0FF30BDE8FB
:103F6000F0816FF00500BDE8F0816FF00500BDE85D
:103F7000F081144904F1140005F0D7FD28B9A36AB3
:103F80001BB100221146204698476FF00500BDE89E
:103F9000F0810C4904F1140005F0C7FD28B9A36AAB
:103FA0001BB100221146204698474FF0FF30BDE874
:103FB000F081A36A1BB100221146204698470020D9
:103FC000BDE8F081B80000202DE9F04106460F461B
:103FD0000024174D05F01CFD04EB840155F8211059
:103FE00041B105F03FFD641C042CF3DB4FF0FF30C2
:103FF000BDE8F08104EB840845F8286005F032FD47
:1040000005EB88000022426002814281317801F094
:10401000F001102907D001218181C281027442740C
:104020002046BDE8F0810FB10121F5E70021F3E75B
:10403000B07A002010B504466068804722462068A8
:10404000BDE81040014905F0D3BD0000354000082F
:1040500000280BD0426A002A08D0537A082B05D1D9
:104060000968926A914201D100F072B9704700006C
:1040700030B583B00546002D6DD06C6A002C6AD037
:1040800000212184606B354BB0F1FF3F4FF00102FE
:104090000CD01E30A3FB00C04009B0F5803F01D317
:1040A0004FF6FF7080B2608400B96284A06BB0F1FB
:1040B000FF3F0ED01E30A3FB00C04009B0F5803F8B
:1040C00001D34FF6FF7080B2208300B92283208B8A
:1040D000A083E06BB0F1FF3F0ED01E30A3FB003099
:1040E0004009B0F5803F01D34FF6FF7080B2608386
:1040F00000B96283608BE083228B608B824201D3A4
:1041000000B12183E07A10B1E06A02900FE094F8E8
:1041100028007F2802D8FF20029008E0C02803D39F
:104120006FF07F40029002E04FF6FF700290206B2C
:10413000019028B9A06A0299084040F0807001906F
:104140000A21204600F0C6FE01AB02AA04F12801B4
:10415000284604F0E5FA03B030BD0000898888885D
:1041600070B505466C6A0821204600F0B3FE0022B7
:1041700004F12801284601F0F3F9A07AFF2801D2C2
:10418000401CA07240F2E7304FF4FA71B0FBF1F03E
:10419000E08270BD10B518480468002C2AD0616A0E
:1041A00009B3487AF8B1488C68B1088C401C80B2D9
:1041B00008844A8C904206D1204600F053FD2046E8
:1041C00000F01AF913E0C88B18B1421ECA83012807
:1041D00006D0888B38B1421E8A83012804D006E0BD
:1041E000204600F0FFFE02E0204600F0E6FE2468D4
:1041F000002CD4D110BD0000240100202DE9F04195
:1042000005460C461646002D0ED08CB100224FF408
:104210009A71104604F0FFFCE06068B1032E14D0E0
:10422000A07A414F60B10EE06FF00F00BDE8F08161
:104230006FF00500BDE8F0814FF0FF30BDE8F08180
:10424000FCF71CF8B860B8682060E068406820613E
:104250000121017020694170216995F82C00887056
:1042600020690027C770206802F0F4FD21694860CA
:1042700020690781206947812069C760082E0AD01C
:10428000042E08D0072E06D0032E07D1607A052809
:1042900001D0042802D121696868C86020690761DB
:1042A0002069476120698761002095F82C108142C0
:1042B00005D9062803D2291891F82D1000E0002115
:1042C000226900F11C03D154401C80B21028ECD3A9
:1042D0000020216900F12C028F54401C80B240283C
:1042E000F7D30020216900F16C028F54401C80B28A
:1042F0008028F7D321690D48C1F8EC00A78200207F
:10430000216900F1F0028854401C80B24428F7D3A0
:1043100001223521204600F09BF93146204600F06D
:10432000A8F90020BDE8F0819C000020638253635F
:1043300010B5064C2078401EC0B22070002804D171
:10434000E06808F005FB0020E06010BD9C00002044
:1043500070B582B005466C6A0C21204600F0BAFDAB
:10436000042221462846FFF749FF0646300021D1A6
:1043700004223221204600F06BF9A06A02F06AFDA7
:104380000146204600F07CF9204600F0ABF9A08AF7
:10439000F03081B2E06804F044FE0E4801900F480E
:1043A000009543230C4AE168C06808F030FB2046C2
:1043B00000F016F8A07AFF2801D2401CA07242F645
:1043C00003104FF4FA71B0FBF1F0E08202B0304616
:1043D00070BD000074DB000878DB00089C00002042
:1043E00010B50446002C06D0E06808B104F098FD32
:1043F0000020E060206110BD2DE9F04182B08046D0
:10440000D8F824400020A0620621204600F062FD7A
:10441000012221464046FFF7F1FE074638002FD122
:1044200002223921204600F013F9B8F82A1020465C
:1044300000F048F904223721204600F009F9002550
:104440001F4E2046715D00F014F9681CC5B2042DA2
:10445000F7D3204600F046F9A08AF03081B2E06838
:1044600004F0DFFD174801901848CDF80080432381
:10447000154AE168C06808F0CAFA2046FFF7B0FFA5
:10448000A07AFF2801D2401CA072A07A062803D28D
:10449000012101FA00F000E03C2000EB4001C1EBFB
:1044A000C0104FF6FF7101EAC00000F2F3104FF4A4
:1044B000FA71B0FBF1F0E08202B03846BDE8F0815D
:1044C0009D00002074DB000878DB00089C000020C1
:1044D00070B50B480468002C11D00025606A58B1F3
:1044E000C18A012903D9A1F10101C18204E003D1EC
:1044F000C582204600F08DFD2468002CEED170BDF1
:104500002401002070B5446A0021E1622163174E46
:10451000A6F12805F078002801D0E86860633079BA
:1045200010B12869A06302E0606B4008A063707955
:1045300010B16869E06304E0606BC0EBC000C008C4
:10454000E06360680069A062B07930B1A86902F0E8
:1045500081FCE0620120E07200E0E172F079002865
:1045600003D0E86902F076FC206370BDA4790020D6
:1045700010B50446606A0C2100F0ACFC054B2046E7
:104580001A46114604F0CCF82046BDE81040FFF76B
:1045900033BF000074DB000870B505466C6A09483B
:1045A000807800280CD00848806802F053FC6062D4
:1045B00060680069A0622846BDE8704000F008BC51
:1045C00070BD0000A47900207C79002010B5114C4A
:1045D0002078002815D108F07FF9E060B0B1017AA9
:1045E00041F02001017244220B4908F027F84322D0
:1045F0000949E06808F068F800220849E06808F016
:10460000A3F92078401C2070002010BD4FF0FF302F
:1046100010BD00009C00002074DB0008614B000806
:10462000426A002A13D0517A002304290CD004DCFA
:1046300000290CD0032904D106E0052904D00A2959
:1046400002D09372FFF7D8BE937200F01FBA704782
:10465000838A03F1010CA0F814C0D0F810C0F03325
:104660000CF80310818A4B1C83820069F03142549C
:104670007047828A531C83820069F03281547047EC
:10468000828A4FEA116C531C83820369F03203F86B
:1046900002C0828A4FEA114C531C83820369F032B4
:1046A00003F802C0828A4FEA112C531C83820369EB
:1046B000F03203F802C0828A531C83820069F03210
:1046C00081547047828A4FEA112C531C83820369FC
:1046D000F03203F802C0828A531C83820069F032F0
:1046E00081547047002815D0818AFF234A1C82829A
:1046F0000269F0315354002204E04B1C83820369A9
:10470000F0315A54818A442902D311F0030F01D0A9
:104710004429F2D3704700002DE9F34F83B00446DB
:104720000021029101910A21A848FBF7D2FD0499CA
:1047300049892C2904D205B06FF00100BDE8F08F43
:10474000049949686160F0260498B0F80880049FD5
:1047500006E0311A8EB2A8EB00001FFA80F83F681D
:1047600017B17889B042F4D917B1D7F804A0F8E0AE
:1047700005B06FF00100BDE8F08F4FF0FF34B11CC1
:104780001FFA81F97989721C914203D90AEB06015B
:10479000497805E0396811B14968097800E00021DD
:1047A0000D46342858D00BDC03282BD003DCD8B1BD
:1047B00001280DD11DE006282ED0332808D141E074
:1047C000352852D0362859D03A2860D03B2867D0B7
:1047D00000257018801C86B2002D6ED0002000903D
:1047E0007A48005DA8B3ABE000210D46701E86B28A
:1047F000EFE7042904D005B06FF00500BDE8F08FA5
:104800000624E6E70425042904D205B06FF005006C
:10481000BDE8F08F0724DCE711F0030F04D005B0EA
:104820006FF00500BDE8F08F082901D20D4600E0C9
:104830000825A94204D205B06FF00500BDE8F08F4D
:104840000824C6E7042905D005B06FF00500BDE8CF
:10485000F08F2EE00324BCE7012904D005B06FF0EF
:104860000500BDE8F08F0024B3E7012904D005B0AE
:104870006FF00500BDE8F08F0124AAE7042904D0F9
:1048800005B06FF00500BDE8F08F0224A1E7042910
:1048900004D005B06FF00500BDE8F08F042498E760
:1048A000042904D005B06FF00500BDE8F08F0524A1
:1048B0008FE7042D02D2AB4602E041E04FF0040B3B
:1048C0004B465A466946384604F0F2FA584504D039
:1048D00005B06FF00100BDE8F08F042D18D915F078
:1048E000030F04D005B06FF00500BDE8F08F374925
:1048F00001200855009802F0ADFA354941F824002E
:10490000281FC5B209F104001FFA80F9641C67E78B
:10491000042D06D0012D09D005B06FF00500BDE8CB
:10492000F08F009802F096FA009002E09DF80000E7
:1049300000902648012101552838009940F824109C
:104940007889B0420DD8311A8EB2A8EB00001FFA58
:1049500080F846450DD2B8F1000F0AD03F68D7F86D
:1049600004A037B11AF80600FF2802D04645FFF42C
:1049700004AF164A1078A0B1A2F128000068002107
:104980001170012804D0022805D0032806D008E0C1
:104990000120029005E00120019002E00120019039
:1049A0000290029828B1002002906C264FF0EC088B
:1049B000CDE6019828B1002001902C264FF06C081C
:1049C000C5E605B00020BDE8F08F0000A479002006
:1049D0007C7900202DE9F84307467D6A04212846AA
:1049E00000F078FA032229463846FFF707FC804694
:1049F0005FEA08002BD1022239212846FFF728FE62
:104A0000798D2846FFF75EFE042237212846FFF7FE
:104A10001FFE00241A4E2846315DFFF72AFE601C57
:104A2000C4B2042CF7D32846FFF75CFEA88AF03006
:104A300081B2E86804F0F5FA134800974323114A5D
:104A4000E968C06807F0BFFF2846FFF7C9FCA87AED
:104A5000FF2801D2401CA872A87A0A2803D24FF47A
:104A60007A71484301E042F2107080B200F2F31014
:104A70004FF4FA71B0FBF1F0E8824046BDE8F883EC
:104A80009D00002078DB00089C0000202DE9F84301
:104A900007467C6A0321204600F01CFA03222146C7
:104AA0003846FFF7ABFB80465FEA080038D10222A8
:104AB00039212046FFF7CCFD4FF410712046FFF757
:104AC00001FE042232212046FFF7C2FDA06A02F057
:104AD000C1F901462046FFF7D3FD042237212046C5
:104AE000FFF7B6FD00251B4E2046715DFFF7C1FDA7
:104AF000681CC5B2042DF7D32046FFF7F3FDA08A4A
:104B0000F03081B2E06804F08CFA14480097432337
:104B1000114AE168C06807F056FF2046FFF760FCC5
:104B2000A07AFF2801D2401CA072A07A0A2803D2E2
:104B30004FF47A71484301E042F2107080B200F203
:104B4000F3104FF4FA71B0FBF1F0E0824046BDE89B
:104B5000F88300009D00002078DB00089C00002006
:104B60002DE9F04116463C4845686C6A7368002799
:104B7000002C69D0207A002866D070892C2863D355
:104B80001878022860D1002095F82C1001E0401C14
:104B9000C0B281420BD9062809D22A1803EB000CB7
:104BA00092F82D209CF81CC062454DD1EFE7586863
:104BB00002F050F92168884246D131462046FFF77D
:104BC000ABFD10BB25484078F8B125480079052891
:104BD00002D0062821D029E0607A012806D00328D7
:104BE00014D0042812D0052810D02DE02846FFF755
:104BF00089FC95F8330010F0080F03D02846FFF722
:104C0000AFFA21E02846FFF733FA1DE02846FFF708
:104C100079FC2846FFF72CFA16E0637A032B08D0BC
:104C2000012B06D0042B04D0052B02D0022804D07F
:104C30000AE02846FFF79CFC06E0607A062803D1CC
:104C4000E7822846FFF7A8FC04B167603046BDE85C
:104C5000F04104F065B90000007B0020A479002039
:104C60007C79002070B582B005466C6A002C1FD09C
:104C7000606A0190284600F091F90646002120461E
:104C800000F028F900206062A062E0622063E06327
:104C9000A063606360842084E083A08366B1072200
:104CA00021462846FFF7AAFA0646300007D026E03C
:104CB00002B06FF00F0070BD02B0002070BD042282
:104CC00036212046FFF7C4FC019802F0C3F80146E4
:104CD0002046FFF7D5FC2046FFF704FDA08AF03000
:104CE00081B2E06804F09DF909480095432301AAC8
:104CF000E168C06807F067FE2046FFF771FB054BCF
:104D000028461A46114603F00BFD02B0304670BD2E
:104D10009C00002074DB00082DE9F84307467C6AFC
:104D20000521204600F0D6F8032221463846FFF739
:104D300065FA80465FEA08002CD10222392120461C
:104D4000FFF786FC798D2046FFF7BCFC0422372153
:104D50002046FFF77DFC00251B4E2046715DFFF7C6
:104D600088FC681CC5B2042DF7D32046FFF7BAFCB7
:104D7000A08AF03081B2E06804F053F9134800973C
:104D8000432304F12402E168C06807F01CFE2046BA
:104D9000FFF726FBA07AFF2801D2401CA072A07A60
:104DA0000A2803D24FF4FA61484301E044F6206038
:104DB00080B200F2F3104FF4FA71B0FBF1F0E08230
:104DC0004046BDE8F88300009D0000209C000020C4
:104DD0002DE9F04182B08046D8F8244001212046D8
:104DE00000F078F8032221464046FFF707FA07460D
:104DF000380047D1022239212046FFF729FCB8F8B4
:104E00002A102046FFF75EFC042232212046FFF7DD
:104E10001FFCA06A02F01EF801462046FFF730FC96
:104E2000042236212046FFF713FC606A02F012F8D4
:104E300001462046FFF724FC042237212046FFF7D5
:104E400007FC00251F4E2046715DFFF712FC681C11
:104E5000C5B2042DF7D32046FFF744FCA08AF030FA
:104E600081B2E06804F0DDF8174801901848CDF8E9
:104E700000804323154AE168C06807F0C8FD20465A
:104E8000FFF7AEFAA07AFF2801D2401CA072A07AE8
:104E9000062803D2012101FA00F000E03C2000EBDB
:104EA0004001C1EBC0104FF6FF7101EAC00000F2F3
:104EB000F3104FF4FA71B0FBF1F0E08202B0384623
:104EC000BDE8F0819D00002074DB000878DB00085D
:104ED0009C000020427A8A4203D0417200218172F4
:104EE000C182704770B50546002D0CD095F833008F
:104EF00010F0010F0AD06C6A688DB0F5107F08D2EF
:104F00004FF0FF3070BD6FF00F0070BD6FF00F00FD
:104F100070BDD4B1207A08B1FFF70AFA00212160F0
:104F20006160A160E16021616161A161E161216273
:104F30006162A162E16221636163A163E163FFF7E2
:104F400045FB60B14FF0FF3070BD402002F07AFFAA
:104F500004460CB16C62E1E74FF0FF3070BD0120F8
:104F600020722846FFF748FA0028F7D0284600F0BC
:104F700003F84FF0FF3070BD10B500280DD0446A23
:104F8000002C0AD000212046FFF7A4FF207A002839
:104F900003D0FFF7CDF90020207210BD00280AD001
:104FA000406A40B1407A0A2803D0052801D0002089
:104FB0007047012070470020704710B5446A617A3D
:104FC000012903D00A2901D005290AD1FFF7A4FE3F
:104FD000608B218C401A022803DB00EBD070400864
:104FE000A08310BD10B5446A617A012905D00A2951
:104FF00003D0052901D004290AD1FFF7EBFC608C0E
:10500000218C401A022803DB00EBD0704008E083BB
:1050100010BD10B50446616A4A7A0C2A0FD0062AE0
:105020000DD0012A10D0082A1ED0032A2ED1887A4A
:10503000022826D22046BDE81040FFF727BD2046B3
:10504000BDE81040FFF7D8B9887A052804D8204673
:10505000BDE81040FFF7BCBE2046FFF703FE204628
:10506000BDE81040FFF7C8B9887A012804D8204667
:10507000BDE81040FFF774B82046BDE81040FEF7C9
:10508000F7BF2046BDE81040FFF7B6B910BD70B5B8
:1050900005460C4604F0BCFCA96809682160A968B3
:1050A0000C60BDE8704004F0DDBC10B5044604F0AF
:1050B000AFFC0146A068046834B12268026008466B
:1050C00004F0D0FC204610BD084604F0CBFC0020C4
:1050D00010BD2DE9F04104460E4600276760657853
:1050E0006770042D52D004F093FC267204F0BAFCD1
:1050F000A36A1BB10022042120469847A36A1BB172
:105100000022114620469847A36A1BB100220221C3
:105110002046984704F1100004F012FD20B1002150
:1051200004F1100004F001FD04F1140004F008FD86
:1051300020B1002104F1140004F0F7FC012D03D08C
:10514000042D01D0032D2FD1207FC0F3800120F04A
:1051500004002077002927D1606A0671606A006820
:1051600000F10C05284604F028FD67624CB104F0FC
:105170004FFC94F9081011F10D0F00DD267204F0B8
:1051800071FC2846BDE8F04104F014BD0026002C57
:10519000AED004F03DFC94F9081011F10D0F00DDC4
:1051A000277204F05FFCA3E7BDE8F081002802DC71
:1051B0004142112901DB052070470249A1EB800023
:1051C000006870477CDB000870B505460024094E76
:1051D00004EB440006EBC000017D29B18068A842C1
:1051E00002D1204600F08EF8601CC4B20A2CEFD326
:1051F00070BD0000B07900202DE9F74F05464FF053
:105200000A0AD3460A2300209E460027804681468C
:105210003B4900EB400601EBC602117D0A2B00D191
:1052200051B1A9B155B1D5F800C05468A44505D114
:1052300003B040B2BDE8F08F43B209E0012910D0BD
:10524000022905D3518A494502D34FFA80FB89468A
:10525000401CC0B20A28DBD3019810F0020F1DD108
:1052600012E0274951F8361039B1B2F812C0BC45E6
:10527000EED34FFA80FE6746EAE7548A4445E7D307
:105280004FFA80FAA046E3E70A2B03D1019810F009
:10529000010F03D00A2B06DADCB218E003B04FF09E
:1052A000FF30BDE8F08FBBF10A0F02DA0BF0FF040C
:1052B0000AE0BAF10A0F02DA0AF0FF0404E0BEF1D4
:1052C0000A0F17DA0EF0FF04204600F01BF835B184
:1052D0000B4804EB440200EBC20029684160084817
:1052E00004EB440200EBC2000021418203B060B233
:1052F000BDE8F08F03B04FF0FF30BDE8F08F000045
:10530000B079002070B5084D00EB4004002655F838
:105310003400002803D003F003FE45F8346005EBA9
:10532000C400067570BD0000B0790020F0B583B0F0
:1053300007460D46002D10D07C682088B0F5807F90
:1053400008D12079062805D16079042802D1608827
:10535000082804D0384603F0E3FD03B0F0BDD4F8CC
:105360000E000290A0690190696819B1884203D1CA
:10537000012602E0002600E000260EB1012300E035
:10538000022304F1080202A9284600F00FFAE0887F
:10539000B0F5807F03D0B0F5007F26D121E0FEB1CB
:1053A000022001F063FDE080D4F80E00A06168687F
:1053B000C4F80E00A068C4F81200A089E082D5F8F5
:1053C0002D00A060B5F83100A08140F606000090E5
:1053D00004F1120304F108023946284600F026FBC6
:1053E00003E002A92846FEF733FE384603F098FD95
:1053F00003B0F0BD70B584B005460E46144629468C
:10540000206800F080FD08B13A4B40E0206800F0D1
:10541000F001E02926D0A9686B6800EA0102194072
:105420008A4208D080B2A0F57E41A93903D0E8684D
:10543000C0B305F10C04304B30481A7802EB42013E
:1054400000EBC10191F814C0BCF1020F2FD3D4F8C6
:1054500000C049688C452AD13146284600F050F8F2
:1054600004B070BD01208DF8080000208DF80900FF
:105470005E208DF80A00607800F07F008DF80B0048
:10548000A0788DF80C00E0788DF80D0002AB4FF499
:105490000060009005F12D023146284600F0C6FA62
:1054A00004B070BDFFE704B06FF0030070BD0021D1
:1054B00001EB410200EBC20292F814C0BCF1020FF2
:1054C0000CD3D4F800C05268944507D1CAB21A7000
:1054D0003146284600F014F804B070BD491C49B2AA
:1054E0000A29E5DB32462146284600F039F804B0A7
:1054F00070BD0000C0DB0008AC000020B0790020C7
:10550000F8B505460E46154802EB420100EBC10412
:10551000207D022816D1618A0327B1F58E7F06D936
:10552000211D284600F0F6F860B927750AE0B1F5AC
:10553000877F07D304F10C02211D284600F0F0F804
:1055400000B927754FF40060009004F10C0305F1D9
:105550002D023146284600F069FAF8BDB0790020E6
:105560002DE9F04F83B08246884616460AF12D0099
:1055700002904FF0FF344FF0000B5146D8F8000076
:1055800000F0C1FCA8B9D8F8000000F0F001E02953
:105590000FD0B8F1000F0CD058B15246012140464F
:1055A000FFF72AFE81465FEA090007D503B0BDE890
:1055B000F08F03B06FF00F00BDE8F08F304809EBBB
:1055C000490700EBC705287D28B94FF0010B0120E2
:1055D0002875C5F808A0BBF1000F00D12EB94146CF
:1055E000504600F097F804469EB1287DDFF8908081
:1055F000022812D3234880F800904FF400600090F6
:1056000005F10C0331465046029A00F00FFA0446A9
:1056100031E003B02046BDE8F08F01282BD10021F6
:105620003446207B012801D0012102E02468002CAF
:10563000F7D181B121890022022003F0ECFA05465E
:105640006DB13146284603F0DFFB40B1284603F038
:1056500067FC002503E03546284603F010FD45B100
:1056600058F8370008B103F05BFC48F837500024C5
:1056700001E04FF0FF3403B02046BDE8F08F00009A
:10568000B0790020AC0000202DE9FF4F81B00EAEB4
:10569000994696E8C0094FF0000A00221C2102201A
:1056A00003F0B9FA054628002ED06C68584601F080
:1056B000DDFBE080D9F80000A060B9F80400A0810B
:1056C0003868C4F81200B888E0823068C4F80E0068
:1056D000D8F80000A0614FF480702080082060801E
:1056E000062020710420607140F6060000902946D3
:1056F000039B029A019800F099F9284603F010FCE8
:1057000005B05046BDE8F08F05B04FF0FF30BDE862
:10571000F08F0000014A00F003B80000C0DB000871
:1057200010B584B001230393DFF818C0041D029163
:1057300000F12D03CDF804C000941946FFF7A4FF33
:1057400004B010BDC6DB00082DE9F041002404269A
:10575000154D022704EB440005EBC002117DE9B1B1
:10576000508A401C80B25082B0F5967F03D2012946
:1057700005D1052803D32046FFF7C4FD0EE0032919
:1057800004D0042904D0012904D007E0167505E0EF
:10579000177503E0111D9068FFF7BCFF601CC4B2D1
:1057A0000A2CD7D3BDE8F081B0790020F8B50546C2
:1057B0000C4616461F46002C34D02068002831D0F5
:1057C000294600F0A0FB68BB207800F0F000E0283C
:1057D00028D02A4639462046FFF70EFD002820DB58
:1057E000124A00EB400102EBC10002230375856001
:1057F0003368C360B38803820023438252F8314088
:1058000074B142F831304FF400600090334605F136
:105810002D022146284600F009F9204603F080FBBE
:105820000020F8BD6FF00F00F8BD0000B079002037
:1058300070B504460E4660890E2840D96068858997
:10584000027812F0010F15D0012A05D00622214955
:10585000FAF74AFD50B10DE0417859B980785E28D9
:1058600008D1607B40F01000607303E0607B40F083
:10587000080060736FF00D01082D03D0B5F5C16FFE
:105880001DD110E096F8330010F0080F17D0608992
:105890000E2814DB204603F079FB80B93146204600
:1058A00000F02CFC14E096F8330010F0080F06D03E
:1058B00060890E2803DB204603F068FB20B12046F8
:1058C00003F02EFB002070BD31462046FFF72EFD71
:1058D000002070BDC0DB00082DE9F0410746002420
:1058E00000250026FBF7DCFA97F8331011F0040FBF
:1058F00010D001280ED820A0FDF758FE384602F03F
:105900003BFF384602F076FFBDE8F04120492148D0
:1059100002F06CBF11F0040F2CD101282AD9022803
:1059200006D0032809D004280BD005280ED10CE09E
:105930004FF40066F500012408E04FF4804501248F
:1059400004E04FF40066012400E00124002C11D093
:10595000384602F05DFF1048C66085600021FBF705
:1059600039FD0EA0FDF722FEBDE8F04108490948C7
:1059700002F03CBFBDE8F081B6CFBFAACDF8CFDFC3
:10598000A3ACD0E8D6D8D0C2C1ACBDD30A000000C9
:10599000B15900089001002068320020C1ACBDD38D
:1059A000CDF8CFDFA3ACC5E4D6C34D41430A000018
:1059B00010B590F833000D4C10F0040F0CD00CA073
:1059C000FDF7F4FD0E4802F049FF01202070BDE80C
:1059D00010400B48FFF786BA094802F0CDFE0520BB
:1059E0002070BDE8104007A0FDF7E0BD00000020DA
:1059F000B3C9B9A6C1ACBDD3CDF8BFA80A00000099
:105A000090010020546865206E6574776F726B207A
:105A10006361626C65206973206E6F7420636F6EC2
:105A20006E6563746564200A000000002DE9F04192
:105A300007460E4615461C46069801F017FA8046A2
:105A40000E21304603F0A2FA18B16FF00100BDE854
:105A5000F081D6F804C0ACF80C802068CCF80000C7
:105A6000A088ACF804002868CCF80600A888ACF838
:105A70000A0031463846BA69BDE8F04110470000D7
:105A800010B5732180F83410742180F83510044962
:105A900041610449816100F05DFF002010BD0000FC
:105AA000F55300086D6B000805460C4E4FF0FF31B2
:105AB000306803F051F80028F8D1284600F0F4FFD0
:105AC00004463CB12A6929462046904710B1204639
:105AD00003F026FA002CF0D1E8E7000008000020CF
:105AE0002DE9F84F04460F46002C7DD0A669002E04
:105AF0000DDA03F08DFFA669002E06DA0FB9711ECC
:105B0000A161BDE8F84F03F0ADBF03F0ABFF304635
:105B100000F0D2F80546280076D003F079FF009017
:105B20004FF0010B052F14D2DFE807F003070B0E2F
:105B300011006889401C68810BE06889401E6881FB
:105B400007E0A5F80CB004E00020A88101E0A5F86A
:105B50000EB0687C90B1F01706EB5070C71006F0DD
:105B60000700DFF8A8A00BFA00F8DAF80040002CD4
:105B700045D0DAF80490606928B131E00098BDE8BA
:105B8000F84F03F06FBF0020B5F90A10002908DDB7
:105B9000A16831B1042E04D2C95D11EA080F00D00A
:105BA0000120A98949B140B9E16831B1042E04D27C
:105BB000C95D11EA080F00D00120E98949B140B957
:105BC000216931B1042E04D2C95D11EA080F00D059
:105BD000012028B1C4F814B004F1180003F0EAFF62
:105BE000009803F03FFF00E00EE003F011FF00908B
:105BF000DAF804008145B8D12468002CB9D10098A6
:105C0000BDE8F84F03F02EBFBDE8F88FBC000020C0
:105C100013B54FF6FF73012269460348FCF732FFC4
:105C2000009802B010BD00000833002010B5002815
:105C300021D0114B0022001F196803E0814203D8D4
:105C40000A4649680029F9D152B11368841A9C4266
:105C500004D1006818441060104602E0506000E073
:105C6000186039B102680B1A934203D10B681A44C9
:105C700002604968416010BD8C0100202DE9F041AF
:105C800004460F466668002565602581257403F08B
:105C9000BFFE256003F0E6FE002E0AD027B1304695
:105CA000BDE8F04103F03CB93046BDE8F04102F0F8
:105CB000F3B9BDE8F081000009220849042802D3A5
:105CC0000A6000207047064B00EB800003EB800069
:105CD0000368002BF6D10A6000207047D400002032
:105CE000B07A00200A46032100F0A2B82DE9F0475F
:105CF00084B0044688464D4FD7F808A09AF80000B3
:105D00000007850E142D7DDB608904287AD3606836
:105D1000017800297ED008297CD107F1140978691F
:105D200000F0F001E0294FD0396800F0ECF80028CD
:105D30004AD12089082873D3204600F0BEF828B144
:105D400004B02046BDE8F04703F0EAB805F10E00C4
:105D500001B20E46204603F019F970B320890022E3
:105D6000284481B2022002F056FF0646FEB1708937
:105D700005F10801884203D2304603F0D1F823E050
:105D80002A4651467068FAF78BFA684201B23046EB
:105D900003F0FCF818B1304603F0C2F814E02146D5
:105DA000304603F031F818B1304603F0B9F80BE093
:105DB000204603F0B5F834460CE0FFE7704201B22C
:105DC000204603F0E3F828B104B02046BDE8F047D0
:105DD00003F0A6B866682946204603F0D7F890B9C4
:105DE0006068D9F80010C160396901610021317023
:105DF0007180FF22027241810120FF230022CDF831
:105E0000088001E00CE005E0009101904946204641
:105E100000F06EFA04B02046BDE8F04703F080B809
:105E200004B02046BDE8F04703F07AB8007B0020BC
:105E30002DE9F04385B0064688469146002224218C
:105E4000012002F0E8FE0546280027D077686C683C
:105E500084F8008084F801904FF00008A4F80480D2
:105E6000A4F806806868716808301C22FAF718FAEE
:105E7000F868049004A800F06FFB60B1A4F80280F9
:105E8000012101910290FF2304AACDF80080002196
:105E9000284600F02DFA284603F042F805B0BDE888
:105EA000F0830A460B21FFF7C3BFEFF305800028FC
:105EB00001D0012070470020704770B505460024CE
:105EC0000026002D16D06989686801F021FF204462
:105ED00081B201EB1044A87A10F0010F07D0C6F18F
:105EE0000100C6B2E0B2C4F3072141EA00242D68E4
:105EF000002DE8D126B1E0B2C4F3072141EA002425
:105F0000E04380B270BD81B00090B0F1FF3F0CD093
:105F100002000AD091F8332012F0020F08D04A682C
:105F2000824208D1002001B07047012001B07047C3
:105F3000002001B07047896800EA01030A409342DB
:105F400003D10843B0F1FF3F02D0002001B07047F9
:105F5000012001B0704700002DE9F74F88B00446DA
:105F60000998408D1438C11700EB5170C0F3CF0071
:105F7000039014260027606805900598017801F0C9
:105F80000F01052903D00BB0B81FBDE8F08FC08802
:105F900000F06CFFC0F30C01029110F4005F04D01C
:105FA0000BB06FF00500BDE8F08F208914381FFAA0
:105FB00080F8B8F1000F70D00398C00007900398E4
:105FC000B8EBC00F01D2404600E007981FFA80FAF4
:105FD00000221421022002F01EFE069006980028DE
:105FE00056D006984168059802680A6042684A607F
:105FF00082688A60C268CA60006908610698406861
:10600000049055466DB36089801B87B2BD4200D2B3
:106010002F467FB300F038FB81465FEA09002DD0A0
:1060200060684B46304400900222394601970420B4
:1060300002F08EFE8346BBF1000F23D0204603F012
:106040001EF8C9F814402C48C9F8100059460698A3
:1060500002F0B2FEE81B85B20DB100262468002DC7
:10606000D1D1F01986B20998408D1438404515DB1E
:10607000012114E0FFE700262468F0E7069802F00B
:106080004FFF05E0484600F002FB069802F048FF8B
:106090000BB04FF0FF30BDE8F08F29E000210298EF
:1060A000C0F30C0009B940F4005000F0DFFE049981
:1060B000C8800AF1140080B200F0D8FE049948802C
:1060C00004990020488109980A9A069943699847DB
:1060D000069802F025FFA8EB0A001FFA80F8039942
:1060E0000298084480B20290B8F1000F7FF467AFC5
:1060F0000BB00020BDE8F08F3D6900082DE9F05F8E
:1061000007460E464FF0010A7D6804212878B1EB5E
:10611000101F05D0384602F003FF0020BDE8F09FB5
:1061200000F00F004FF6FF7101EA8008688800F068
:106130009DFE04463889A04203D92146384602F024
:1061400070FF7889404505D33889A04202D3B8F161
:10615000140F05D2384602F0E3FE0020BDE8F09FA0
:10616000DFF884B12869CBF81400E968CBF8101087
:1061700000F0F000E02812D04FF00109344694F806
:10618000330010F0010F15D0616899B1DBF81400ED
:1061900088421DD02146FFF7B6FEC8B90AE096F83E
:1061A000330010F0010F03D0706808B134460FE0DF
:1061B00000240DE0B9F1000F04D04FF000094B4866
:1061C000046800E02468B44200D12468002CD6D1D1
:1061D0005CB9687A112808D105EB08004088B0F551
:1061E000884F02D134464FF0000ABAF1000F0CD0AC
:1061F000DBF8100048B13146FFF785FE88BB9BF8FD
:10620000100000F0F000E0282DD05CB3E88830F0FA
:10621000C00005D0384600F0DFF807467FB37D6840
:10622000CBF80040CBF80460CBF808502878000782
:10623000800EABF80C000FFA88F8C8F1000001B22C
:10624000384602F0A3FE687A012826D006281FD01F
:10625000112818D02146DBF81400FFF754FE08B3CC
:106260002FE000E005E0384602F05AFE0020BDE8CD
:10627000F09F384602F054FE0020BDE8F09FFFE793
:106280000020BDE8F09F3146384606F04BFA1BE08F
:106290003146384604F04EF816E031463846FFF7EE
:1062A00025FD11E09BF8140000F0F000E02808D074
:1062B0004146384602F06DFE7D6002213846FFF708
:1062C00011FD384602F02CFE0020CBF80000CBF880
:1062D0000400CBF80800ABF80C00CBF81000CBF8AA
:1062E0001400BDE8F09F0000007B00202401002086
:1062F00070B584B0DDF828C0099D089C002A05D03F
:106300000E0001D00E680EB90CF10401CDF808C0E2
:106310000195009400F002F804B070BD2DE9F84F2B
:106320000546DDF82CA0DDF828900C9F884616461F
:106330009B46002E34D01421284602F027FE18B1C7
:106340006FF00100BDE8F88F6C6884F808B084F83D
:1063500009A0306820614520207084F801902889C8
:1063600000F084FD60804FF00009A4F80690DFF88B
:1063700060A0BAF8000000F079FDA080BAF8000033
:10638000401CAAF80000B8F1000F05D0D8F80000B2
:10639000E060A4F80A9007E00E480068E060F8E7C3
:1063A0006868006900906E46788D48B129898142FD
:1063B00006D9324639462846FFF7CEFDBDE8F88FAC
:1063C0007B693246294638469847BDE8F88F000079
:1063D000AE00002074DB00082DE9F0478246DAF8B1
:1063E0000450287800F00F0005287DD1E88800F0DF
:1063F0003DFDC0044FEA1048688800F037FD297859
:1064000001F00F01494200EB81001FFA80F950466C
:1064100002F0F0FC06464F4F398888190A2809D93E
:106420003146284600F034FA00285DD038883044E0
:106430000A2859D87C6874B1E8686169814207D13B
:10644000A1692A69914203D1A189AA88914202D007
:106450002468002CF1D134B1E88800F007FDC004B5
:10646000C00C08D017E03146284600F0A1F90446D8
:10647000200068D00FE0E08900F0F8FCC004C00CF8
:1064800009D02868A0606868E060A8682061E868B2
:1064900060612869A061388830443880A87910F09C
:1064A000200F06D1A07F40F00100A07708EB090083
:1064B000A0835146204600F0EFF8002840D0A08B82
:1064C0001430A083606846683568A0683060E06872
:1064D00070602069B0606069F060A0693061A08B75
:1064E00000F0C4FC708000E02DE00020F08070819E
:1064F000D4F8048065B16E686FF01301284602F08D
:1065000045FD2946404602F057FC3568002DF2D182
:1065100079688C4201D1002106E029B10868A042C7
:1065200002D001460029F9D1204600F031F9404659
:1065300002F060FC3988081A38804046BDE8F087D0
:106540000020BDE8F087504602F0EAFC0020BDE8DC
:10655000F0870000B000002030B4044619480068FD
:1065600000281DD090F8331011F0010F15D011F054
:10657000040F12D0D0F804C0BCF1000F0DD0226877
:10658000836802EA03050CEA03039D4217D011F069
:10659000020F02D1C1688A4211D000680028E1D1FF
:1065A0000948006850B190F8331011F0010F05D080
:1065B00011F0040F02D04168002900D1002030BC46
:1065C000704700002401002028010020102201490A
:1065D00000F002B8A07A00202DE9F04F034682B007
:1065E00008464FF0000C19680191034601AEE046E1
:1065F000DFF890A0E9464FF02E0B00243578AAFB77
:1066000005E7F908494201EB810105EB41074FF02D
:10661000CD0E15FB0EF1CD0A357007F1300E274671
:10662000641CE4B209F807E0002DE7D1611EC9B28D
:106630000FD364460CF1010C944203DB02B000203E
:10664000BDE8F08F19F8014003F8014B491EC9B2AB
:10665000EFD261460CF1010C914203DB02B0002045
:10666000BDE8F08F03F801BB761C08F1010101F0D1
:10667000FF08B8F1040FC0D3002103F8011C02B0D9
:10668000BDE8F08FCDCCCCCC052001F0F9BC0146A3
:10669000052001F0C3BC00002DE9F04707460E4677
:1066A00000240125D6F80480B8F8020000F0DEFBD3
:1066B00098F8001001F00F01494200EB8109B8F889
:1066C000060000F0D3FBC004010C736800201860C2
:1066D000998001EB09001FFA80F8A3F806807A6818
:1066E000F2B15068B0F804C061450CD21A6044B1F0
:1066F000B4F806C061453CD38088804539D826600F
:106700000EE07E600CE034D0C288914231D31CB1DF
:10671000E288624500D0002502680446002AE0D1E4
:1067200042B934B12660E0889988884202D00025B9
:1067300000E07E60B87F10F0010F17D09DB178683F
:1067400010B14068808808B100250CE0196851B18B
:106750004868D9888288914201D0002503E0034629
:1067600001680029F4D12846BDE8F0870020BDE883
:10677000F087304602F03EFB04490A88101A088070
:10678000304602F0CDFB0020BDE8F087B0000020CD
:106790000B4606490268D1F804C0844501D14A601D
:1067A00000E01A600146042001F038BCB00000206F
:1067B00070B505460E46042001F062FC044654B94B
:1067C0003146284600F064F8B04203DB042001F0B3
:1067D00057FC0446CCB100216160A160E1602161F9
:1067E0006161A161E1610320E077094841682160AE
:1067F00044602868A0606868E060A8682061E86874
:1068000060612869A061204670BD002070BD000055
:10681000B00000202DE9F04106460F4600257468BF
:1068200060688188002917D1006870606068B1686D
:106830000160F1684160316981607169C160B1696D
:10684000016101212046FFF72CFB204602F0D2FA1D
:106850000546204602F064FB746864B16068A04697
:106860000468404602F0C6FA284485B2404602F069
:1068700057FB002CF2D139463046FFF789FF034918
:106880000888401B08802846BDE8F081B000002041
:106890002DE9F04705460F460026DFF86C80002002
:1068A000002184460024D8F80420EAB1D5F80C90E1
:1068B00053694B4509D19369D5F810A0534504D1CC
:1068C0009389B5F804A0534508D0641CC0B1D37FA8
:1068D00090F81FA0534501D810468C46136803B1A9
:1068E00011461A46002AE3D118B16146FFF792FF1C
:1068F0000644BE4201DA012CD1DC3046BDE8F08707
:1069000010468C46EAE70000B000002070B5002574
:1069100009484468002C0DD0E07F20B1401EE0778C
:106920002546246804E0204624682946FFF772FFC4
:10693000002CF1D170BD0000B000002010B504465D
:106940006069002801D002F0EBFA2046BDE8104053
:10695000FFF79DBE30B589B004460025089541A0DB
:10696000416800680791069041484049016006A9C6
:106970004161012141608A038260CA02C260CA0586
:1069800002628161C5610582FAF7DCFE00285ED0F3
:1069900038A0FCF70BFE04233A4A3B493448FAF787
:1069A000F5FD3A4A0423A2F580713148FAF7AEFDAD
:1069B000062084F82C00022084F82D0084F82E5044
:1069C00084F82F5084F8305084F8315084F83250D5
:1069D00040F2DC50608594F8330040F00A0084F8FF
:1069E00033000595012105A802F06AF828490860DE
:1069F000284890E80E1000698DE80E10049021469A
:106A0000684602F0E9F81A48FBF7A4F808AA022140
:106A10001748FBF753F808AA11211548FBF74EF861
:106A2000089840F00302089211211148FBF751F930
:106A300008AA12210E48FBF741F8089840F02002FE
:106A4000089212210A48FBF744F909B030BD12A0A0
:106A5000FCF7ACFD94F8330040F0040084F83300F8
:106A600099E70000020000000000000000800240E2
:106A700068320020455448B3F5CABCBBAFCAA7B0C2
:106A8000DC0A0000981A002048020020C8020020FA
:106A90000800002048DB0008455448B3F5CABCBBD9
:106AA000AFB3C9B9A60A00002DE9F84F0020009045
:106AB00000242D48FAF7B2FD10B10020BDE8F88F90
:106AC0002948818F89B2D0F840A021B10322042047
:106AD00002F0A1F80090009840B32348D0F830802D
:106AE000009F40F2F45B7D8900262819584512D991
:106AF0007868ABEB04090AEB040130444A46F9F725
:106B0000CFFBD8F80C80D8F808A0A5EB09054E44B7
:106B100000245D45ECD878680AEB040130442A462D
:106B2000F9F7BEFB2C443F68002FDCD10E4A106BF6
:106B30000021936B002B08D9036843F000430360E6
:106B4000C068491C936B8B42F6D800219163106892
:106B500000F58050426912F0800F02D0802242611D
:106B600081600098BDE8F88F683200202DE9F05F61
:106B70000F462B48C66AD6F808B04FF0000A00242A
:106B8000002F3AD0306810F0004F02D06FF00700AD
:106B900038E07D894FF00009291940F2F450814214
:106BA0001ED940F2F450A0EB04087868424600EB8E
:106BB00009010BEB0400F9F773FBF668306810F07D
:106BC000004F02D06FF007001CE0D6F808B040F28A
:106BD000F450A5EB0805C144C24400248542E0D826
:106BE00078682A4600EB09010BEB0400F9F758FB23
:106BF0002C44AA443F68002FC4D151460848FAF7F4
:106C0000CCFF00200649096801F580514A6912F05D
:106C1000200F03D020224A6100224A60BDE8F09F85
:106C2000683200202DE9F04F87B08A4615464FF0B4
:106C30000009CDF81090FFF73FF80446200013D06C
:106C40002068DFF84881017F11F0020F11D0B4F9FC
:106C50000A1000290DDC0B202074C8F8000007B0D2
:106C60004FF0FF30BDE8F08F07B04FF0FF30BDE8C8
:106C7000F08F06A901F050FAE8B12168097801F017
:106C8000F001102904D05F202074C8F8000008E04B
:106C900010F10F0F0AD0FEF789FA207408B1C8F876
:106CA000000007B04FF0FF30BDE8F08F16202074D1
:106CB000C8F80000F5E701210698FDF785F90646BA
:106CC000B6F1FF3F33D0324906EB860001EB800777
:106CD00002F09EFE01460698B7F90A208369DB435D
:106CE00002FA83F27A818661084602F0BBFEBAF1AD
:106CF000000F45D0002304AA05A9069801F062FB05
:106D000083465FEA0B001ED0069801F0C5FA012108
:106D10003846FEF7B3FF5846FEF748FA207408B12C
:106D2000C8F8000007B04FF0FF30BDE8F08F0698BC
:106D300001F0B2FA17202074C8F8000007B04FF035
:106D4000FF30BDE8F08F10208DF8000002208DF894
:106D50000100BDF8100000F089F8ADF802000598B8
:106D60000190CDF80890CDF80C909DF800002968AE
:106D7000814200D92860694650462A68F9F790FA9E
:106D800084F8109007B03046BDE8F08FD4000020A2
:106D9000B07A0020F8B50D461746FEF78DFF044681
:106DA0001CB1174E102F09D102E04FF0FF30F8BD93
:106DB0006878022802D115F0030F09D06FF00F0098
:106DC000FEF7F4F9207400B130604FF0FF30F8BDE9
:106DD00068680090688800F049F8236802466946B0
:106DE000184601F029FA38B1FEF7E0F9207400B135
:106DF00030604FF0FF30F8BD00202074F8BD000077
:106E0000D400002070B50025FEF756FF0446200090
:106E100012D0206820B1017801F0F00110290ED0C5
:106E200001F03AFA68B1FEF7C1F9207408B10849D7
:106E300008604FF0FF3070BD4FF0FF3070BD01258E
:106E4000EEE729462046FEF719FF002070BD00003E
:106E5000D4000020010600F47F4241EA022100F440
:106E60007F0241EA122141EA106070470106090CD5
:106E700041EA1020704710B502F028FE00F0C4FF70
:106E800001F0D8F801F03CFC05F04AFC03F050FAA0
:106E9000BDE8104002F000BF70B50D46FEF70CFFD4
:106EA0000446200007D0002D01DDFF2D06DA002D5D
:106EB00005DC002503E04FF0FF3070BDFF25E9B28F
:106EC000206801F09FFAA0B121680B4D097801F00C
:106ED000F001102905D05F20207428604FF0FF30AA
:106EE00070BDFEF763F9207400B128604FF0FF30E9
:106EF00070BD0020207470BDD400002010B5044681
:106F0000206890F9080010F10D0F01DC207115E0E8
:106F1000FA2020712268506880B1A168127802F0CE
:106F2000F002102A06D0202A08D1A28905F086FB9B
:106F3000207103E0A28902F0D3FF207120680028AD
:106F40000DD002F065FD216891F9082012F10D0FB6
:106F500001DD22790A72BDE8104002F083BD10BD48
:106F600010B5044621688C4648784A686FF00A03D9
:106F7000002A30D0097801F0F00110292BD1227AB3
:106F8000032A01D0022826D003281FD001281FD0B1
:106F900012F0010F02D0604601F098F92168042038
:106FA0004870206844620021206800F029F8002819
:106FB00023D0124802F0DEFD206800210C3002F0E0
:106FC00033FDBDE810400D4802F0C1BD237103E060
:106FD000FB20207100E02371206800280DD002F012
:106FE00017FD216891F9082012F10D0F01DD2279BA
:106FF0000A72BDE8104002F035BD10BDD00000207F
:107000002DE9F05F04468B464FF00008D4F804A049
:10701000606A007A00F0010900F00207032812D02C
:10702000B9F1000F07D09AF8140005280DD00628F2
:107030000BD0082809D057B19AF81A0010F0100F99
:1070400005D0012504E0012502E0012500E000252E
:107050001DB10021504602F03FFF9AF814000128AC
:107060001FD0B9F1000F07D00021504604F0F2FB09
:107070000021504602F0C9FE1FB10021504604F025
:107080005EFD45B100221146504603F041FF00214C
:10709000504603F0FAF84DB1504602F06FFF064635
:1070A0000AE00021504602F0B0FEF4E73A464946B5
:1070B000504604F048FD06468EB1B6F1FF3F11D0B0
:1070C0004FF00108B8F1000F45D0606A016801F186
:1070D0000C08067100206062607086B127E04FF0F6
:1070E0000108EFE7606A407A0028EBD14FF0010811
:1070F000002DE7D0504602F085FE0026E2E735B1CC
:107100006060A36A1BB10022042120469847B9F1B0
:10711000000F05D0A36A1BB10022114620469847F4
:107120002FB1A36A1BB100220221204698474CB11F
:1071300002F06EFC94F9081011F10D0F00DD2672BB
:1071400002F090FCBBF1000F02D0404602F032FD8D
:107150000020BDE8F09F1FB10949504604F0EFFC44
:1071600001220849504603F0D3FE0749504603F078
:107170008CF82146504602F0AFFE3046BDE8F09F45
:10718000DB98000865910008D350000870B50446EC
:1071900021684878002803D0022801D0032815D19F
:1071A000032803D1087F10F0040F0FD000252571AC
:1071B000206801F08BF82068416889B1027802F0FC
:1071C000F002102A2FD0202A08D102E0FB202071E3
:1071D00012E0CD612068406805F0BAFB2068456088
:1071E0002068836A13B10022114698472068836A99
:1071F00013B100220221984720680C3002F0DDFC18
:10720000002829D02068002826D002F001FC21683F
:1072100091F9082012F10D0F01DD22790A72BDE803
:10722000704002F01FBC04214170032020722068CE
:10723000446200212068FFF7E3FE00280CD00748D5
:1072400002F098FC206800210C3002F0EDFBBDE854
:107250007040024802F07BBC70BD0000D0000020EE
:1072600010B504466FF00A0320684068002836D045
:10727000217C19B1A1680068086002E0A16840683B
:107280000860002020712068017801F0F0011029C9
:1072900013D0202924D1217C21B14068E168408AA3
:1072A00008801DE04068017C11F0040F03D0E16804
:1072B000808A088014E0237112E0217C21B94268A1
:1072C000127D2AB1012A03D021B14068C08A03E0AF
:1072D000237105E04068008BE168088000E02371BD
:1072E000206800280DD002F093FB216891F9082056
:1072F00012F10D0F01DD22790A72BDE8104002F093
:10730000B1BB10BD70B50446206890F9080010F1BB
:107310000D0F01DC20710BE0F52020712068426820
:1073200032B1017801F0F001102912D0F020207163
:107330002068002853D002F06BFB216891F90820E7
:1073400012F10D0F01DD22790A72BDE8704002F0E2
:1073500089BB4078002618B10228E9D12671E7E7F9
:10736000107D10B1FA202071E2E7FF21104603F0F2
:10737000E1FA05469DB12068103002F0E1FB38B11A
:107380002068103002F0AEFB2068103002F0CAFB1B
:1073900026712068143002F0D3FB18B108E0FF20FA
:1073A0002071C5E720680621143002F0A5FB20718A
:1073B000207928B1284602F0E1FD20684660B7E751
:1073C000216802204870216828464D60216802F03B
:1073D00083FD20680249406802F017FDA8E770BDF0
:1073E000D13E000810B50446002020712068406896
:1073F000002802D1204601F051FE206800280FD05D
:1074000002F006FB0146206890F9082012F10D0FEA
:1074100001DD22790272BDE81040084602F022BB6D
:1074200010BD70B505460020287128684168002904
:1074300014D0007800F0F00010280FD1AC68B4F53B
:10744000803F02D34FF6FF7600E0A6B228683146AF
:10745000406804F016FAA41B002CF0D1286800281C
:107460000DD002F0D5FA296891F9082012F10D0F1C
:1074700001DD2A790A72BDE8704002F0F3BA70BDEE
:1074800010B50446206890F9080010F10D0F01DCDA
:10749000207117E0F52020712068D0F804C0BCF1FD
:1074A000000F0FD0007800F0F00020280AD1A0686B
:1074B0008168C1B1838900F108020168604605F066
:1074C00068FA20712068002813D002F0A1FA216820
:1074D00091F9082012F10D0F01DD22790A72BDE841
:1074E000104002F0BFBA0168604605F049FA207109
:1074F000E8E710BD10B50446206890F9081011F1B6
:107500000D0F01DC217106E0017801F0F001102976
:1075100012D0FA2020712068002831D002F078FAC9
:10752000216891F9082012F10D0F01DD22790A720C
:10753000BDE8104002F096BA417811B1FB202071ED
:10754000E9E74168C9B101214170206844622168BE
:10755000002008620021206800F016F800280FD0F3
:10756000084802F007FB206800210C3002F05CFAAA
:10757000BDE81040034802F0EABAF5202071CAE7DE
:1075800010BD0000D00000202DE9F04704468946D8
:107590000027606A037C217F11F0020F02D113F0F3
:1075A000040F02D04FF0010801E04FF0000882689C
:1075B000216A5518C068401AB0F5803F04D34FF6D1
:1075C000FF7643F0020300E086B2D4F804C0BCF8B2
:1075D0006000B04209D20646B8F1000F03D026B9C8
:1075E0006FF006050CE043F0020332462946604680
:1075F00004F0B3FC0546280002D0B5F1FF3F22D1CC
:10760000B8F1000F0ED0606AC068B0420AD9A36A10
:107610001BB13246032120469847207F40F01000DE
:10762000207710E0606840F66932B0F8601091424F
:1076300003D9B0F86200052805D3A36A1BB132460E
:107640000321204698474FF0000A1DB1B5F1FF3FD6
:107650001BD01DE0206A30442062616ACA689042F3
:1076600002D0B8F1000F01D0C8600127606803F0B4
:107670001FFA10F10D0F02DD10F1040F0CD10546B9
:107680000127606AC0F80CA006E0B8F1000F23D013
:107690000127606AC0F80CA06FB3606A016801F14D
:1076A0000C060571C4F824A0C4F820A084F801A039
:1076B0004CB102F0ADF994F9081011F10D0F00DD95
:1076C000257202F0CFF9B9F1000F02D0304602F076
:1076D00071FA0020BDE8F087606803F0E9F910F165
:1076E0000D0F02DD10F1040FD6D105460127606AA7
:1076F000C0F80CA0D0E74FF0FF30BDE8F08700B530
:1077000083B04FF0000CCDF800C0CDF804C000F0FD
:1077100003F803B000BD00002DE9FF4F87B0164607
:10772000DDF85490002506950027A846FEF7C4FA18
:107730000446200003D10BB0401EBDE8F08F606806
:1077400008B1069053E00A9810F0080F04D12068A1
:10775000007F10F0020F14D0B4F90A00002810DCEA
:10776000002F05DD002020740BB03846BDE8F08FF7
:107770000B2020746E4908600BB04FF0FF30BDE85D
:10778000F08F2068017801F0F00110290AD006A9D5
:1077900000F07AFE054645B3002F13DD15F10F0FFB
:1077A00005D009E006A900F021FF0546F3E7002215
:1077B00011462068FEF794F9002020740BB038467B
:1077C000BDE8F08F2846FDF7F1FC207408B1584958
:1077D000086015F10F0F04D00BB04FF0FF30BDE87B
:1077E000F08F0BB00020BDE8F08F06986060206835
:1077F000007800F0F00010280CD00698D0F800A017
:10780000BAF808002389C01A1FFA80FB5E4504D924
:107810005D4603E0DDF818A0F2E7B5B208982A4605
:10782000C119504601F044FB2F442068017801F053
:10783000F001102938D04FF00108B8F1000F2ED018
:10784000149961B3B9F1000F29D0017801F0F0016A
:1078500010293BD006988189059100F1080A102073
:107860008DF8000002208DF80100BDF81400FFF72C
:10787000FDFAADF80200DAF8000001900020029055
:1078800003909DF80000D9F80010814201D9C9F891
:1078900000006946D9F800201498F8F701FD0A980D
:1078A00010F0010F1AD035E0761B66B19AF80D1072
:1078B00011F0010F07D1B4F90A10002903DD0A996C
:1078C00011F0010FB9D04FF00108B6E70DF1100A21
:1078D000002305AA514600F075FDC0E72068017835
:1078E00001F0F001102909D1ABEB0501002905DDFC
:1078F000069860602089284420810BE0002565609F
:107900002581007800F0F00010280DD0069800F0D6
:10791000C3FB0695B8F1000F3FF411AF00202074AF
:107920000BB03846BDE8F08F069801F0F9FAF0E7A1
:10793000D40000202DE9F04184B080460E46174661
:107940001D464046FEF7B8F90446200014D02068D2
:107950004FF0000C007800F0F000102811D0CDF8A6
:1079600000C02B463A4631464046CDF804C000F0F0
:1079700035F804B0BDE8F08104B04FF0FF30BDE849
:10798000F08115F0100F01D0022000E0002015F06A
:10799000080F01D0042300E00023184340F0010346
:1079A000CDF80CC003A800903A463146206800F09C
:1079B0003BFE05462846FDF7F9FB207408B1064951
:1079C000086025B104B04FF0FF30BDE8F0810398A6
:1079D00004B0BDE8F0810000D40000202DE9F0479C
:1079E00084B080460D9E0C9C894617469A464046B8
:1079F000FEF762F9054628000ED02868007800F0EE
:107A0000F00010280DD01FFA87F82A4F54EA06001C
:107A100022D0102E14D10DE004B04FF0FF30BDE89D
:107A2000F08753463A4649464046FFF783FF04B085
:107A3000BDE8F0876078022802D114F0030F0BD064
:107A40006FF00F00FDF7B2FB287400B1386004B08E
:107A50004FF0FF30BDE8F08700200190009034B176
:107A6000606802906088FFF701FA024601E0002298
:107A70000290ADF80C2042464946684600F02AFBC9
:107A8000044624B96946286800F0BCFD04466846EF
:107A900000F014FB2046FDF789FB287400B1386024
:107AA00024B104B04FF0FF30BDE8F08704B0404689
:107AB000BDE8F087D40000202DE9F84F80460A9DEC
:107AC000894692461F464046FEF7F6F804462000D7
:107AD00019D0154EDFB1154802F039F83B46524631
:107AE00049464046009500F023F805460F4802F04D
:107AF00041F828462074002800D030600FD04FF0A5
:107B0000FF30BDE8F88F4FF0FF30BDE8F88F4FF041
:107B10000E00207430604FF0FF30BDE8F88F4FF05A
:107B20000000BDE8F88F0000D4000020D000002045
:107B30002DE9F0418846069E17461C46002504F0B4
:107B40006BFD80B1B8F1000F50D0B8F1060F73D0C3
:107B5000B8F1FF0F6CD0A8F57061FF3906D05C2535
:107B60002846BDE8F0810920BDE8F081082F07D044
:107B7000202F05D0A7F580510A3917D05C25EFE7F3
:107B8000042E02D21620BDE8F081006838B14068AA
:107B900028B1216831B1017A39430172E0E716203A
:107BA000BDE8F081017AB9430172D9E7042E02D20F
:107BB0001620BDE8F081016849B1486838B10978FC
:107BC00001F0F001202905D05C20BDE8F0811620ED
:107BD000BDE8F081216821B1017C41F0010101740F
:107BE000BEE7017C21F001010174B9E7012F12D039
:107BF000022F01D05C25B3E7042E02D21620BDE887
:107C0000F081006820B1406810B121788172A7E747
:107C10001620BDE8F081042E02D21620BDE8F081C6
:107C2000006830B1406820B12178417298E703E0E4
:107C30002CE01620BDE8F081042E02D21620BDE80B
:107C4000F081016849B1486838B1097801F0F00164
:107C5000102905D05C20BDE8F0811620BDE8F08138
:107C6000012F03D0022F0DD05C2579E7216821B1C7
:107C7000817E41F04001817672E7817E21F04001F2
:107C800081766DE72168C0F88C1069E75C2567E7AD
:107C900070B51D4D01291AD002290DD0032904D039
:107CA000162028604FF0FF3070BDD1B2174A402037
:107CB00000F0BAFB044610E0882A06D02020134AC0
:107CC000002100F0B1FB044607E02120F7E70F4A4E
:107CD0000021102000F0A8FB044644B100212046FA
:107CE000FCF772F9B0F1FF3F06D0A06170BD6920CA
:107CF00028604FF0FF3070BD204600F0CDFA17200D
:107D000028604FF0FF3070BDD4000020E15A000819
:107D100081B00022009200F00103002B06D0002960
:107D200004DD10F801CB8DF801C0491E012905DDE5
:107D300030F802CB6244891E0129F9DC002902DDFA
:107D400000788DF80000BDF80000104481B201EB0E
:107D5000104081B201EB104023B1C1B2C0F3072043
:107D600040EA012080B201B070470023FFF7E2BD76
:107D700086B0FAF715F9FAF7BFFFFAF743FFFAF7FB
:107D8000F1FEFBF7F5FA084890E80E100069CDE91E
:107D9000033C029201910590002101A800F01CFF14
:107DA00000F074FDFEE700000CDB000800218428D1
:107DB00000D0C11C0846704770B50446002C1ED088
:107DC0000F4D2868844202D36868844205D301F0CD
:107DD0001FFEBDE8704001F045BE0A4801F0B7FE45
:107DE000A4F1080000210171A968884200D2A860AE
:107DF00001F084F9BDE87040024801F0BBBE70BDDF
:107E0000DC000020E80000200C480D4B20F00300AF
:107E100018604FF42052028000214180017100F56A
:107E2000205159604FF0010C81F804C00A804A804B
:107E3000986003F10C0001F08FBE00001B7B002056
:107E4000DC0000202DE9F04100280DD0C01C20F0FE
:107E5000030525F480350C2D00D20C25B5F5205FE7
:107E600005D90020BDE8F0810020BDE8F0812A4856
:107E700001F06DFE294E3268B168881A80B2C5F5EE
:107E80002053834241D9141894F804C0BCF1000F68
:107E900038D1B4F800C0ACEB000CACF1080CAC4528
:107EA00030D3238805F1140C1B1A083B01276345C6
:107EB00015D3431908331FFA83FC02EB0C0300258A
:107EC0001D7125881D805880A4F800C0277118886E
:107ED000B0F5205F04D0931C20F803C000E02771A8
:107EE0008C4202D007E008888118087910B17068C8
:107EF0008142F8D1B160084801F03CFE04F108006D
:107F0000BDE8F081105A8342BDD8034801F032FE2B
:107F10000020BDE8F0810000E8000020DC00002027
:107F20002DE9F0470746C81C20F0030424F48034F0
:107F30000C2C00D20C24B4F5205F02D90020BDE83F
:107F4000F087DFF8D080D8F80000874203D3D8F854
:107F500004108F4206D301F05BFD01F083FD38462B
:107F6000BDE8F087A7F10805281A86B22888801B8B
:107F700008381FFA80F94C4503D94FF00000BDE8DE
:107F8000F08702D13846BDE8F087234801F0DFFDD5
:107F90002888D8F8002010444FF0000A0179F9B180
:107FA00004F11400484515D83019083080B2111872
:107FB000D8F80830994201D2C8F8081081F804A016
:107FC0002B880B804E8028800988B1F5205F01D076
:107FD000921C8852104801F0CDFD3846BDE8F0876C
:107FE000B0F800C03119083189B2D8F8083083429E
:107FF00002D15018C8F80800531883F804A0A3F859
:1080000000C05E8029801888B0F5205FE2D0921C05
:108010008152DFE7DC000020E80000200D2806D2B6
:10802000002904D0024A52F82000FDF730B870470A
:1080300074DC000830B50024044D55F8240000F02D
:1080400007F8601C84B20D2CF7D330BD74DC000837
:108050008268002111604168C91C21F003010022DF
:108060004388002B0ADD83681B680B6083681960F6
:1080700003881944521C43889342F4DC7047000083
:108080000D2801D300207047024951F82000FDF768
:108090000CB8000074DC000810B50446002C0CD0AD
:1080A000206820B100F03CFF002060602060214685
:1080B000BDE810400620FFF7B1BF10BD10B5044663
:1080C000002C06D0206808B100F02AFF0020606074
:1080D000206010BD70B504460E461546002C13D026
:1080E000206808B100F01CFF00210222084600F0C1
:1080F00092FD206058B14660206805812068458166
:1081000020686060002070BD6FF00F0070BD00201F
:108110006060401E70BD0000F8B504460D46002D9D
:1081200020D00020286004B394F9080010F10D0F4E
:1081300017DD04F1140001F003FDC8B10022694607
:1081400004F1140001F018FC009EA36A1BB1002288
:108150000121204698471149009888420BD16FF0C1
:108160000C00F8BD6FF00F00F8BD6FF00F00F8BD08
:108170006FF00E00F8BD16B12E600020F8BD01F0C2
:1081800047FC94F9081011F10D0F01DDF121217266
:1081900001F068FC6FF00E00F8BD0000B800002090
:1081A0002DE9F04105460F460720FFF769FF044619
:1081B00054B1002626722570666005F0F000102884
:1081C00007D0202815D102E00020BDE8F08106216B
:1081D00000E0062104F1100001F08EFC48B90021F6
:1081E00004F10C0001F0CEFC50B104F1100001F0DC
:1081F00079FC21460720FFF711FF0020BDE8F08140
:1082000004F1140001F08EFC66704FF0FF30A061A5
:10821000A7626662266226772046BDE8F08110B527
:108220000C46216801F10C02214604F08FF9002868
:1082300001D194F9040010BD00B585B0002801D02B
:1082400021B104E005B06FF00F0000BD05490090BA
:108250000291ADF80C2069460348FFF7E0FF05B036
:1082600000BD000074DB0008FD6E000800B585B09D
:1082700000280BD000908DF8081029208DF80900F7
:1082800069460448FFF7CBFF05B000BD05B06FF0AD
:108290000F0000BD616F000810B586B00446002CC9
:1082A0000FD0019429208DF80D0001A90648FFF791
:1082B000B6FF002803D1204600F06CF8002006B07D
:1082C00010BD06B0002010BD8D710008F8B5044641
:1082D00004F1100001F034FCF8B1694604F110001B
:1082E00001F07BFBB0F1FF3F0FD0207800F0F000F1
:1082F000102841D00098FFF7CFFE694604F1100026
:1083000001F06BFBB0F1FF3FEFD104F1100001F081
:10831000E9FB04F1100001F005FC04F1140001F088
:108320000FFC002827D0694604F1140001F055FB2A
:10833000B0F1FF3F17D0164E0027009DB5420AD07E
:108340002846FFF7C3FF686810B101F05BFD6F605E
:10835000284600F01FF8694604F1140001F03DFBC7
:10836000B0F1FF3FE9D104F1140001F0BBFB04F1CF
:10837000140001F0D7FBF8BD009D002DBDD0606852
:1083800010B1298903F07DFA284600F0C9FDB4E751
:10839000B800002010B5044604F1100001F0D0FB35
:1083A00004F1140001F0CCFB04F10C0001F0E7FB38
:1083B00004F10C0001F0FBFB2146BDE81040072052
:1083C000FFF72CBE00B585B000280CD079B192B172
:1083D00000908DF810300291039269460848FFF72B
:1083E0001EFF05B000BD05B06FF00F0000BD05B069
:1083F0006FF00F0000BD05B06FF00F0000BD000072
:108400006172000800B585B0002806D0009069466A
:108410000448FFF704FF05B000BD05B06FF00F0082
:1084200000BD00000573000830B50D4685B011464B
:10843000FFF7B6FE044614B38DF808500094694661
:108440001048FFF7ECFED0B104F1100001F078FB0A
:1084500004F1140001F074FB04F10C0001F0ADFB19
:1084600004F10C0001F08BFB04F1100001F03AFB69
:1084700021460720FFF7D2FD05B0002030BD05B032
:10848000204630BDE5730008F8B506460D46002DC0
:108490000DD000272F606EB1307800F0F00010286A
:1084A0000BD029463046BDE8F84000F025B86FF003
:1084B0000F00F8BD6FF00F00F8BD00970620FFF722
:1084C000DFFD044664B16946304600F015F8064603
:1084D000300008D021460620FFF7A0FD3046F8BD49
:1084E0004FF0FF30F8BD0098206000986060A781D1
:1084F000A7602C600020F8BD30B587B004460D465B
:1085000000200690002D07D028604CB1207800F0A4
:10851000F000102808D00CE007B06FF00F0030BD5D
:108520006FF00F0007B030BD04F1100001F008FB40
:1085300008B304F1100001F003FB48B394F90800FC
:1085400010F10D0FEEDD002206A904F1100001F07C
:1085500013FA207800F0F00010281DD0069800686B
:108560000289A36A13B10121204698470698286022
:1085700007B0002030BD04F1140001F0E1FA18B199
:1085800007B06FF00A0030BD07B06FF00E0030BDCD
:1085900007B06FF00A0030BD0194069810B1008951
:1085A000039001E00120039001A90F48FFF737FE77
:1085B000069808B10289D4E7A36A1BB10022012101
:1085C00020469847606838B101212046FFF74EFEEB
:1085D0006FF00E0007B030BD94F908000028F9D103
:1085E00007B06FF00D0030BD23740008002804D0E0
:1085F000027802F0F002102A02D06FF00F007047EC
:10860000FFF77ABF00B585B0002807D0009002912F
:1086100069460448FFF703FE05B000BD05B06FF0E2
:108620000F0000BD8174000870B586B015460A9C25
:10863000002808D0027802F0F002102A07D006B015
:108640006FF0050070BD06B06FF00F0070BD25B172
:10865000027F12F0020F06D102E0002006B070BDCA
:1086600013F0040F01D0012600E0002606B18CB102
:10867000019003918DF81430049501A90948FFF782
:10868000CEFD0028EAD1002CE8D03EB1049921604B
:1086900006B070BD06B06FF0050070BD256006B075
:1086A00070BD0000F57400082DE9F0410446DDF8C6
:1086B00020C0069E079D00206060A060E06084F8F6
:1086C00033006062032784F82870E06126620B4E55
:1086D000307884F83600401C3070C4F810C0204652
:1086E00000F01EF82046A84710B10020BDE8F08138
:1086F0007068206074602046BDE8F0812001002091
:10870000704711F0010F0AD04168002907D090F896
:10871000331011F0080F02D0011DFCF7FBBF7047AA
:108720002DE9F04107460C4615461E46002C0FD099
:10873000216869B12946384600F089F83146384643
:1087400000F029F821463846BDE8F04100F02AB88B
:108750002146384600F026F82946384600F077F8DA
:1087600031463846BDE8F04100F015B8014988604F
:10877000704700002001002090F8331011F0010F25
:1087800008D021F0010180F8331011F0080F01D05A
:10879000FCF71ABD7047002902D00968C160704714
:1087A0000021FBE738B504460D46002D02D02868AD
:1087B000009002E00C4800680090009861688842D0
:1087C0000ED06946201D02F0FDF86946201D04F018
:1087D00067F835B12868606001212046FFF791FFF6
:1087E00038BD0020F7E7000074DB0008002800D047
:1087F000C161704790F8331011F0040F07D021F0D9
:10880000040180F83310C169002900D0084770477F
:1088100010B5044694F8330010F0040F16D140F060
:10882000040084F833002046FBF7FAFE94F8330086
:1088300010F0010F03D003212046FFF762FFE1692A
:10884000002903D02046BDE81040084710BD00298C
:1088500002D00968816070470021FBE790F833106F
:1088600011F0010F09D141F0010180F8331011F02E
:10887000040F02D00321FFF744BF704710B5002852
:1088800000D1012004F04CFA002010BD10B504F016
:1088900047FB002010BD10B5FDF707FB18B1BDE880
:1088A000104004F0D3BFBDE8104004F0C9BF4168D8
:1088B0000068002204F05EBC10B50446FDF7F5FA2E
:1088C00008B1822010BD204604F002FA002010BD3D
:1088D0002DE9F04184B005460E4602960027019727
:1088E000002E20D003970024B2F1FF3F25D002B123
:1088F0001446FDF7DAFA010068464FF0100822D05E
:10890000011D03AA304604F0CFFE012818D00097BD
:10891000039818B318494FF080500860BFF34F8F89
:10892000BFF36F8F1AE080200090029A0199AA602D
:108930006960286004B0BDE8F0814FF0FF34D8E7EB
:10894000CDF80080E4E7011D00232246304604F004
:1089500033FC01280BD06CB140200090029A0199A1
:108960000098AA606960286004B0BDE8F081CDF885
:108970000080F3E70020F0E704ED00E037B582B0B7
:108980000546144600200190002C00D10124FDF77B
:108990008CFAA8B1002301AA03A9284604F0D6FD49
:1089A000012802D005B0FF2030BD019898B10B49D5
:1089B0004FF080500860BFF34F8FBFF36F8F0AE016
:1089C0000023224603A9284604F008FD012802D00E
:1089D00005B0FF2030BD05B0002030BD04ED00E043
:1089E00010B50446FDF761FA20B12046BDE81040FD
:1089F00004F08FB82046BDE8104004F077B801209D
:108A000004F0ACBB38B50546002400200090FDF70B
:108A10004CFA90B16946284604F0F6FD012801D0D1
:108A2000FF2038BD009888B109494FF08050086098
:108A3000BFF34F8FBFF36F8F08E000231A4619462C
:108A4000284604F0CBFC012800D0FF24204638BD86
:108A500004ED00E038B5054600200090002D11D04F
:108A60000024B1F1FF3F0FD001B10C46FDF71DFA14
:108A7000C0B16A460021284604F016FE012806D03F
:108A8000FF2038BD802038BD4FF0FF34EEE700985E
:108A900090B10A494FF080500860BFF34F8FBFF389
:108AA0006F8F09E0002322461946284604F084FB14
:108AB000012801D0FF2038BD002038BD04ED00E0C2
:108AC00010B50846012804D0BDE81040014604F066
:108AD00027BB03220021012004F04CFB04462000A8
:108AE00004D000231A46194604F078FC204610BD35
:108AF00010B50446FDF7D9F908B1822010BD204613
:108B000004F0E6F8002010BD38B50546002400202A
:108B10000090FDF7CAF990B16946284604F074FD4B
:108B2000012801D0FF2038BD009888B109494FF0D5
:108B300080500860BFF34F8FBFF36F8F08E00023B2
:108B40001A461946284604F049FC012800D0FF24A3
:108B5000204638BD04ED00E038B505460020009001
:108B6000002D11D00024B1F1FF3F0FD001B10C4610
:108B7000FDF79BF9C0B16A460021284604F094FD38
:108B8000012806D0FF2038BD802038BD4FF0FF34CB
:108B9000EEE7009890B10A494FF080500860BFF3AB
:108BA0004F8FBFF36F8F09E00023224619462846F6
:108BB00004F002FB012801D0FF2038BD002038BDA1
:108BC00004ED00E010B504F02DFE012803D0BDE84F
:108BD000104004F08FBA10BD30B583B004460D4686
:108BE000B4F90800FFF7E2F802A901910090208A89
:108BF0002B4682B22168606804F0E0FD012802D0B3
:108C000003B0002030BD029803B030BD10B504F0B1
:108C1000AFF8002010BD2DE9F0470D461646052897
:108C20001CD2DFE800F0030507090B00362706E039
:108C3000222704E00E2702E0002700E000274FF083
:108C400001094FF00008002E4FD0012E6AD0022EED
:108C500068D0032E05D00020BDE8F0870020BDE8D5
:108C6000F0870C20FFF70CFA0446200034D026735E
:108C7000C4F80080E019133020F003006060258103
:108C8000F81C20F00300C0F5FA70A84200D928466D
:108C900080B26081A4F80E9027462D1A002D4DDD7C
:108CA0000C20FFF7EDF9D0B1067380F80D80C0F805
:108CB00000803860A9B20181B1F5FA7F01D34FF489
:108CC000FA71418100F110024260A0F80E906D1A15
:108CD0000746002DE4DC31E00020BDE8F0872046A7
:108CE00000F01EF90020BDE8F08707F11300E91C31
:108CF00020F0030021F00301084480B2FFF7A2F83E
:108D0000044620000BD0E019133020F0030060600F
:108D100025816581C4F8008084F80C800EE0002075
:108D2000BDE8F0870B20FFF7ABF904466CB1C4F83F
:108D3000048025816581C4F800802673A4F80E9014
:108D400084F80D802046BDE8F0870020BDE8F0875C
:108D500030B40546DDF808C0039C1846052D16D230
:108D6000DFE805F0030507090B00362306E02223A0
:108D700004E00E2302E0002300E00023DB1C23F0CC
:108D800003035D18A54205D930BC0020704730BCF4
:108D90000020704700240460BCF1000F02D063443F
:108DA000436000E044600223437301814181027308
:108DB0000121C18130BC7047002810D000290ED09D
:108DC00002683AB102890B891A440281006802687C
:108DD000002AF7D102890B891A4402810160704789
:108DE00010B50C462146FFF7E7FF2046BDE81040CE
:108DF00000F045B90021002804D0491C89B2006860
:108E00000028FAD1084670472DE9F04105460C4686
:108E100000260027002D04D01CB128892189884212
:108E200003D26FF00F00BDE8F0816889811B608973
:108E3000C01B814202DB1FFA80F801E01FFA81F8B3
:108E400060684246C11968683044F7F729FA06EBB2
:108E5000080086B207EB080087B26089B84201D8E3
:108E6000002724686889B04207D100262D6825B9FB
:108E70001CB16FF00F00BDE8F0814CB16089218911
:108E8000884205D1206818B16FF00500BDE8F08177
:108E90004DB168892989884205D1286818B16FF0D9
:108EA0000500BDE8F081002CBFD10020BDE8F081B5
:108EB0002DE9F047894616464FF00008002805D0F6
:108EC000B9F1000F05D00027044623E00020BDE8DB
:108ED000F0870020BDE8F0872BB16089984202D866
:108EE000181A83B215E06089C01A85B2B54200D95C
:108EF000354660682A46C11809EB0700F7F7D0F934
:108F000008EB05001FFA80F8781987B2701B86B24B
:108F1000002324680EB1002CDED14046BDE8F08766
:108F200070B50446002C0ED0002600F071FDE189DA
:108F3000491E8DB2E58100F095FD35B10024002C6D
:108F4000F3D1304670BD002070BD2568207B617B69
:108F500011F0020F03D021692046884708E003285A
:108F60000AD001280DD002280BD02046FEF724FF9E
:108F7000701CC6B22C46E2E721460C20FFF74EF8E3
:108F8000F6E721460B20FFF749F8F1E7002200F051
:108F900003B80122AFF3008010B4002909D040B11A
:108FA0000ADA4B429CB24389A34206D210BC01208C
:108FB000704710BC002070478CB2037BD0F804C00F
:108FC00043B1032B06D0022B10D0012B0ED010BCC6
:108FD00001207047ACEB0102426000F110039A429D
:108FE00013D2C0F804C010BC01207047002906DA73
:108FF0004389A34203D3ACEB0102426005E00029A0
:109000000CDD5AB1ACEB0102426042890A44428154
:1090100002891144018110BC0020704710BC01205E
:10902000704770B502898A4228D98A1A0D460446CB
:109030006089A84209D26089281A85B22089104423
:10904000208124686089A842F5D3207B70B96089AB
:10905000A8420BD0607B10F0020F07D1A088001B44
:10906000284481B22046FEF75BFF044665812581D6
:10907000206808B1FFF754FF0020206070BD10B5D4
:109080000446002C08D000F0C3FCE189491CE181B2
:10909000BDE8104000F0E6BC10BD000010B504466D
:1090A0002068007800F0F000102815D0202802D0A9
:1090B000FA20207110BD03F00FFC21684860216880
:1090C00098B10978222901D10121017422680A4945
:1090D000506803F039FC08E001F0AEFC21684860FC
:1090E000216810B1084600F025FC2068406800287F
:1090F000E0D1FF20207110BD6198000810B4DFF8A6
:1091000060C00188DCF800201144931C884210D014
:109110000C7974B9DCF80440A1420AD0DCF80840AC
:109120008C4201D1CCF808000C8804800988841A8C
:10913000CC524188114481420FD00C79002C0CD1C3
:10914000DCF80840844201D1CCF80810B0F800C027
:10915000A1F800C00088891AC15210BC70470000F5
:10916000DC00002010B504466078012802D00428F5
:1091700005D00EE001212046FEF706FA09E0606AFC
:1091800018B1417A09B1491E417201212046FDF70B
:1091900037FF217F11F0100F14D0606890B1B0F844
:1091A000602040F669339A420CD9B0F86200052875
:1091B00008D221F010002077A36A1BB100220221FF
:1091C00020469847002010BD2DE9F04104460F4687
:1091D000194EF5683068001D03F076FC48B9306818
:1091E000012190F82C0001FA00F0316921EA000019
:1091F0003061B4F1FF3F07D137B13068BDE8F041CD
:10920000011D0E4803F0BABC2C4430684460AC42E7
:1092100006D23068011DB06BBDE8F04103F093BC8D
:109220003068011D706B03F08EFCB06A844200D27E
:10923000B462BDE8F08100003C00002068350020E9
:1092400070B5044603F0A6FC1D4DA868401CA8603C
:10925000286810B1686938B10CE02C60A868012852
:1092600008D100F053F905E02868E16AC06A884235
:1092700000D82C60686A401C68626064E06A012162
:109280002A698140114329610E4900EB800001EBFE
:109290008000211D03F072FC03F09CFC686900282B
:1092A0000CD02868E16AC06A884207D206494FF0AC
:1092B00080500860BFF34F8FBFF36F8F70BD000009
:1092C0003C0000208C34002004ED00E070B5134D0C
:1092D0006868002820D0124E03F05AFE306820B192
:1092E000002404F0ADFB14B113E00124F9E703F00E
:1092F00051FCF068C468201D03F0E6FBA868401E1E
:10930000A8606868401E686003F064FC204600F0B6
:1093100052F868680028DFD170BD00003C000020D2
:10932000543500200B46026C002A0CD0C168114451
:10933000C160D0F804C0614501D30168C160C16853
:109340001846F6F7ADBF70472DE9F04104461646C2
:109350000027A56B226C002A10D0C6B1E068F6F792
:109360009FFFE168206C091AE1602268914202D2F5
:109370006168081AE060022E16D017E02068A8B9CC
:10938000606804F0D3FA0746002060600EE0A06831
:10939000F6F786FF216CA0680844A06061688842E7
:1093A00004D32068A06001E005B16D1E681CA063B5
:1093B0003846BDE8F08110B50446206B03F020FC70
:1093C0002046BDE8104003F01BBC00004FF488416C
:1093D000104810F0070F06D0C01D20F007000D49FF
:1093E000411AC1F588410C4A1060002353600144C2
:1093F000083921F00701103A11604B600B600B1A1D
:10940000436001604068906050604FF00040D06061
:10941000704700007C35002088000020074E4FF088
:109420008054074DFFF752FF30680128FAD92C60AD
:10943000BFF34F8FBFF36F8FF4E700008C34002031
:1094400004ED00E0002808D0002141600160C16007
:1094500000231A46194603F0C1BF704770B51D4678
:10946000049C002909D02260E06321640121204688
:1094700003F06CFF84F84C5070BD2460F4E72DE9D4
:10948000F05F82460B9F0A9D0C9C0E4690469B46C1
:109490004FEA8801A522206BF6F714FF206BA8F194
:1094A000010100EB810020F007094FF000080020C7
:1094B0002218315C82F83410315C11B1401C102844
:1094C000F6D384F84380072D00D30625E562E564D2
:1094D000C4F85080201D03F033FB04F1180003F0A2
:1094E0002FFB2461C5F10700A0616462C4F85480B9
:1094F00084F858805A465146484600F05DF920608D
:10950000002F00D03C60BDE8F09F000070B5002443
:109510000F4D04EB840005EB800003F006FB641C98
:10952000072CF6D30B4803F000FB0B4803F0FDFAC1
:109530000A4803F0FAFA0A4803F0F7FA094803F078
:10954000F4FA0948034941631431816370BD000096
:109550008C340020183500202C35002040350020A8
:1095600054350020683500203C00002010B4144918
:1095700000E011460A688242FBD34B6803EB010C02
:10958000844503D140681844486008460C68D0F808
:1095900004C00CEB0003A3420CD10A4B1B689A4297
:1095A00006D05268624442600A681268026002E0B3
:1095B000036000E00260814200D0086010BC704788
:1095C000880000207800002010B5044603F0E2FA7D
:1095D000A06B20B1002403F0FDFA204610BD012449
:1095E000F9E710B5044603F0D5FAA06BE16B8842A9
:1095F00001D1012400E0002403F0ECFA204610BD64
:109600000749486B0068002805D0486BC068C068EF
:109610004068886270474FF0FF30886270470000F2
:109620003C0000200A484068B0F1FF3F07D05020BE
:1096300080F31188BFF34F8FBFF36F8FFEE7502089
:1096400080F31188BFF34F8FBFF36F8FFEE70000E9
:109650009000002070B5044603F09CFA94F9455040
:10966000002D0CDD606A50B104F1240004F0ACF967
:1096700008B103F0DDFB681E45B2002DF2DC4FF0AF
:10968000FF3684F8456003F0A5FA03F083FA94F9F5
:109690004450002D0CDD206950B104F1100004F09D
:1096A00093F908B103F0C4FB681E45B2002DF2DC4B
:1096B00084F84460BDE8704003F08CBA2DE9F041B5
:1096C0000546002603F064FC334F386808B9FFF7FD
:1096D0007DFEF86805424ED19DB1083515F0070FA3
:1096E0000FD005F00700C0F10800054415F0070F82
:1096F00007D0502080F31188BFF34F8FBFF36F8FD7
:10970000FEE7002D37D07868854234D823490846D3
:10971000046801E0214604466068A84202D220683D
:109720000028F7D13868844225D0086800F108067F
:10973000206808606068411B10290FD9601910F07B
:10974000070F07D0502080F31188BFF34F8FBFF36E
:109750006F8FFEE741606560FFF708FF616878681A
:10976000401A7860BA68904200D2B860F86808433E
:1097700060600020206004F063F916F0070F07D046
:10978000502080F31188BFF34F8FBFF36F8FFEE738
:109790003046BDE8F08100007800002088000020FD
:1097A00004490868002803D00868026D521C02654D
:1097B000086870473C000020001F4FF08073036072
:1097C000001F21F001010160001F054901601438EC
:1097D0000260001F6FF00201016020387047000036
:1097E000259600082DE9F04104460F4615461E4611
:1097F000002C12D004F1100000F0A2F988B14EB193
:1098000000F006F994F9081011F10D0F00DD267231
:1098100000F028F985B12E890FE06FF00500BDE852
:10982000F08135B12989384602F02BF82846FFF738
:1098300077FB0020BDE8F0810026294604F11000E6
:1098400000F073F918B14FF0FF30BDE8F081A36A62
:109850001BB132460021204698470020BDE8F08128
:109860002DE9F0410546DDF8188016461F46002D0B
:109870001CD005F1100000F063F9B8B10620FEF726
:10988000FFFB0446BCB126606660CFB13868A060BB
:10989000A4F80C803689214605F1100000F045F946
:1098A00080B12046BDE8F041FEF7F6BB3046BDE88A
:1098B000F041FFF735BB3046BDE8F041FFF730BB64
:1098C0000020E4E7AB6A002B05D032462846BDE80D
:1098D000F04100211847BDE8F08170B504461546F7
:1098E000002C24D06078012802D0042805D008E09C
:1098F00001212046FDF748FE03E001212046FDF747
:109900007FFB606898B1B0F8601040F66932914210
:109910000DD9B0F86200052809D2207F20F0100090
:109920002077A36A1BB12A460221204698470020CF
:1099300070BD000010B544680146204600F0CCFA26
:109940000949204601F086FF0849204602F0F7F851
:1099500002220749204601F0DBFA2046BDE810400C
:10996000044900F092BC0000E5970008DB9800086D
:1099700065910008D3500008F0B587B004460D4645
:109980001746FEF788FF0646C7B13A4601A8216888
:10999000FEF79EFF0198039A0299069205910490A2
:1099A0000498102803D007B04FF0FF30F0BD0598A1
:1099B0002860FEF770FF07B0801BF0BD4FF0FF324C
:1099C00001A82168FEF784FF029805900598286099
:1099D000FEF761FF07B0801BF0BD10B586B00C46E6
:1099E000016800226846FEF773FF0098029A019909
:1099F0000592049103900398102803D006B04FF00D
:109A0000FF3010BD0498206006B0002010BD00009B
:109A100010B504484FF0FF310068FFF71BF8012034
:109A200010BD0000D800002070B504460E46FEF7B9
:109A300032FF05465EB131462068FFF78DF810B160
:109A40004FF0FF3070BDFEF726FF401B70BD4FF09A
:109A5000FF312068FFF780F80028F8D1FEF71BFFE0
:109A6000401B70BD01480068FEF7CCBFD800002045
:109A70002DE9F041134F3868002821D000F07DF81F
:109A80007968441A00253968C1B14868A04215D8E0
:109A900001257A6802447A60241A086838608E6862
:109AA000D1F80C800A20FEF7B9FA3EB1064800F062
:109AB0004EF84046B047044800F05CF8002DE1D174
:109AC000BDE8F08170010020D000002010B50348EF
:109AD000FEF795FF0249086010BD0000CCDB0008CE
:109AE000D800002010B504462068FEF779FF2068F2
:109AF000BDE81040FEF7E0BE10B582B0044608484D
:109B000080680190009100216846FEF7D0FE206039
:109B100010B102B0002010BD02B04FF0FF3010BDF8
:109B2000CCDB000800210160704710B500680022FE
:109B3000FEF724FF10B14FF0FF3010BD002010BD24
:109B40000068002801D0012070470020704700689D
:109B50004FF0FF31FEF77EBF38B50446002000907D
:109B60006846FEF74CFF206008B1002038BD4FF07A
:109B7000FF3038BD0068FEF745BFF8F703BA00684C
:109B8000FEF7B6BF38B505460C460020009001210F
:109B90006846FEF795FF286008B11CB105E04FF05C
:109BA000FF3038BD0021FEF7D7FF002038BD00216F
:109BB000016070470068FEF7A7BF0068002801D069
:109BC000012070470020704710B586B00C46DDF8C4
:109BD00020C000210391049101900294ADF80CC0C3
:109BE0000593114601A8FEF7F7FF06B010BD00006F
:109BF0002DE9F04105460E4617460A20FEF740FAC9
:109C00000446200016D0FFF7B8FF0146DFF884C0F5
:109C1000DCF80030002B0FD0DCF80400A1EB0000D2
:109C20004FF000012160A660E7602844606008D121
:109C3000CCF80040BDE8F0814FF00000CCF80410F3
:109C4000EEE75868A84206D9401B58602360CCF85C
:109C50000040BDE8F0811846616842688A1A626077
:109C6000016819B1D1F804C0944511D9026822B134
:109C70004A686368D21A4A6005E06168A94202D95D
:109C8000596829446160016821600460BDE8F08181
:109C90000846E1E77001002070B50124074D08492E
:109CA00005EBC40255F83400FFF7A2FF641C052C35
:109CB000F5D3FFF762FF0349486070BDFCDC000884
:109CC000354000087001002070B505460E460C4C6A
:109CD000206868B100F016F838B1024631462846CF
:109CE000FFF74AFEB0F1FF3F09D1FFF7C1FEEFE7F2
:109CF00031462846BDE870400022FFF73DBE70BDEA
:109D00007001002010B5094C2068002809D0FFF729
:109D100034FF6168401A21684968814204D20020FA
:109D200010BD4FF0FF3010BD081A10BD70010020AB
:109D30002DE9F04F83B00446207D0A2837D0002556
:109D40000027D4F84C90D4F824A0D4F88860D4F834
:109D500010B0DFF8A880002834D00D46E78A2146ED
:109D600008F1180001F0AAF8012088F80000E06E60
:109D700008B101F07BFEA06E08B101F077FE45B19D
:109D8000208B0190231D224651460097484601F042
:109D90001AFE21460120FEF741F9002E2AD003B019
:109DA0005846B446BDE8F04F6FF00C0160472146BD
:109DB000134801F083F803B02146BDE8F04F0120BD
:109DC000FEF72CB9E08A0028D1D0D8F81000A042C4
:109DD00003D1C068C8F8100009E040B1C168A142D1
:109DE00002D1E168C16002E008460028F6D10020F7
:109DF000E060BCE703B0BDE8F08F00002C0100205C
:109E0000480100200121FFF793BF002803D0027D05
:109E1000012A00D18161704710B50846FFF7F2FFB3
:109E20006FF00C0010BD000070B505460120FEF774
:109E300027F90446ECB900F0D5FC0120FEF720F923
:109E40000446B4B9092000F0ADFC0120FEF718F972
:109E5000044674B9082000F0A5FC0120FEF710F9B3
:109E6000044634B9284600F079FC0120FEF708F9D1
:109E700004464CB394212046F6F72BFA657541F25F
:109E8000D060A4F86000401060852085FF20A0729B
:109E90004FF4067060860620A4F84000E087C01FDB
:109EA00020860120A4F8480000F0FAFD6065E06417
:109EB0006064A0650548C1682162807860770448C5
:109EC000E0670448C4F88C00204670BD2C010020D7
:109ED0005DB8000800DD6D00002800D0016170470A
:109EE0002DE9F04105460C460426002C00D1204CFB
:109EF00035B12CB1287D38B16FF00500BDE8F08197
:109F00006FF00500BDE8F081AAB14FF0000C194FC9
:109F100057F82C000068C8B1C18A914213D130B102
:109F2000016821B11CB123680BB199420BD16FF0CC
:109F30000700BDE8F08100F083FD0246100009D162
:109F4000801EBDE8F081C0680028E5D10CF1010C4D
:109F5000B445DDDB14B1206800B12860EA82064810
:109F60000169E960056101F063FF0020BDE8F0814F
:109F700074DB0008ECDC00082C010020017D0129C5
:109F800003D0817E41F0100181760121AFF3008082
:109F90002DE9F04383B004460026207D574F4FF053
:109FA0000108002944D0042801D0072840D1216F9E
:109FB00021B9218DA1F53062683A39D0218BE08A30
:109FC00001910090231D2246616AE06C01F0FBFCC8
:109FD000204600F056FFB869A04202D1C068B861BF
:109FE00009E040B1C168A14202D1E168C16002E06C
:109FF00008460028F6D1E66087F80080207D042816
:10A0000006D03F480068A0420AD101F07FFF0BE074
:10A010000A202075F869E060FC6101F009FF03E0A7
:10A0200021460120FDF7FAFF03B00020BDE8F083D0
:10A030004FF00509082855D2DFE800F0041E2C393E
:10A040004254544B0025E08A80B13869A04202D1C5
:10A05000C068386109E040B1C168A14202D1E1683D
:10A06000C16002E008460028F6D1E66021460120E2
:10A07000FDF7D4FF002437E00025204600F0CCFB9C
:10A080002146204800F01AFF21460220FDF7C6FFB6
:10A09000002429E0002521461B4800F00FFF87F827
:10A0A000008021460120FDF7B9FF00241CE0204676
:10A0B00001F020FD0546280016D184F8149013E025
:10A0C000204601F017FD054628000DD184F81490B4
:10A0D0000AE0204601F00EFD0546280004D10920C3
:10A0E000207501E0002500241CB115B9204600F0C0
:10A0F000DFFC03B02846BDE8F08300002C010020FF
:10A100006C01002040010020440100202DE9F047AF
:10A110008046089E0F4691469A4616F0010F01D0E0
:10A12000042500E000250320FDF7AAFF041E11D03E
:10A13000A6720026266067603889401B20811421A2
:10A140003846FEF723FF58B1204601F080FC00207E
:10A15000BDE8F0873846FEF7E3FE0020BDE8F08753
:10A1600060684068E060B8F81600FCF77FFEE168C0
:10A170000880B8F81800FCF779FEE168488050467E
:10A18000FCF768FEE1684860052000EB950049EAAD
:10A19000003080B2FCF76AFEE1688881E0684682A0
:10A1A0002046BDE8F08710B504460846FCF7D4F910
:10A1B00050B1B0F92A0028B1283880B2844200D2C8
:10A1C00020460446204610BD204610BDF8B5044682
:10A1D0000D460026B4F86200082802D315F0010FDE
:10A1E00008D015F0020F00D0012616F0010F08D09C
:10A1F000042107E0A07E40F08000A0764FF0FF3001
:10A20000F8BD002100221046FEF705FD58B100966A
:10A2100001462A462046A36DFFF778FF021E09D0AB
:10A22000A06E70B110E0A07E40F08000A0764FF0EC
:10A23000FF30F8BDA07E40F08000A0764FF0FF30E8
:10A24000F8BDA26604E0084601680029FBD102605F
:10A250000020A4F8640005F0020005F001010843A5
:10A2600002D0A06D401CA06515F0010F03D0A07EA8
:10A2700040F02000A0765068FEF7BCFDB4F86210F4
:10A280000844A4F862000020F8BD002801D0C0F8FE
:10A29000881070472DE9F041154EB078401CB07021
:10A2A0000027B469002C21D0617FB07881421AD098
:10A2B0006077A07E10F0010F09D040F00200A07678
:10A2C000204600F0F5FBA07E20F00300A076E568B4
:10A2D000206F30B13770204601F068F830780028E0
:10A2E000DFD12C4600E0E468002CDDD1BDE8F08130
:10A2F0002C010020DFF834C06046DCF81020C08854
:10A30000411C89B2002A03D0BCF80430984206D21E
:10A31000DCF80C201432ACF80610105C7047C01A40
:10A32000ACF80610C0B2105C704700004C01002071
:10A33000704700002DE9F04F83B00546EB4E68688A
:10A34000F06068891428C0F0CA81E94F39687869DB
:10A35000FBF7D9FD002840F0C281387D00F0F00005
:10A36000E02800F0BC81F0688089FCF77FFD000BDD
:10A3700080001428C0F0B38129898142C0F0AF81E8
:10A38000A0F1140189B27180002232616A8982428F
:10A3900005D3B18041422846FEF7F8FD1CE06FF07E
:10A3A00013012846FEF7F2FD6889B0807188091A0A
:10A3B0008CB2404201B22846FEF7E8FD2868418988
:10A3C000A142C0F08C8141683161614209B2FEF75F
:10A3D000DDFD2889001B2881F0680088FCF746FD18
:10A3E0000146F06801804088FCF740FD0146F068B6
:10A3F00041804068FCF72EFD0146F06841607161C4
:10A400008068FCF727FD0146F0688160B161C08972
:10A41000FCF72CFD0146F068C1818089FCF726FD20
:10A4200000F03F033370298913F0030F01D001209E
:10A4300000E00020084470810020DFF8B8A2DAF8BC
:10A440000040A1461CB3F1683A69D7F81480B1F80E
:10A4500000C0B4F818B0E34515D1B4F816B0B1F89F
:10A4600002E0F3450FD1D4F804B093450BD1D4F8F2
:10A4700000B0C34507D150B1E168C160C4F80C9089
:10A48000CAF8004003E02046E468002CE1D1ECBBB0
:10A490009948046814B3F0683A69D7F814C0018881
:10A4A000B4F81880884516D1B4F81680B0F8029038
:10A4B000C84510D1D4F8048090450CD1D4F8008060
:10A4C000E04508D1204601F0CDFC03B02846BDE8A8
:10A4D000F04FFEF725BDE468002CE1D10022DFF843
:10A4E0001CA2DAF80000814690B1F168D7F8148018
:10A4F000B1F802C0C18A614504D10168414507D065
:10A5000030B129B10246C068002800E010E0F1D166
:10A5100070B12AB1C168D160C0F80C90CAF80000CF
:10A5200000F08AF903B02846BDE8F04FFEF7F8BC0A
:10A53000002C6ED0DFF8C8810027C8F80070288989
:10A54000A8F80800C8F80450F068C8F80C00F761D3
:10A550007770378113F0080F03D0687B40F001005B
:10A560006873206F50B1204600F020FF10F10D0FEE
:10A5700042D0206F10B1708900283DD1346220464E
:10A5800000F0CAFC10F10D0F36D0707810F0080FF3
:10A590000FD0D4F888201AB16FF00D0120699047D0
:10A5A0002146544800F08AFC21460120FDF736FD83
:10A5B0006DE00020328942B1A36F13B121462069BA
:10A5C000984710F10D0F62D03781707810F0100F9E
:10A5D00013D0A07E10F0100F06D1D4F888201AB145
:10A5E0006FF00E01206990472146424800F066FC5A
:10A5F00021460120FDF712FD49E0F06910B3A17E6C
:10A6000011F0100F06D0FEF78BFC2046FFF7FAFB87
:10A610003DE049E0D4F87CC0BCF1000F06D02569CC
:10A620000246002321462846E04705E00023024673
:10A630002146184601F012F910F10D0F27D008B18C
:10A64000F0692067707810F0200F1CD0206F20B1C7
:10A65000417B41F02001417315E0208DA0F5306170
:10A66000683901D0401C2085D4F87CC0BCF1000FB3
:10A6700005D000231A4621462069E04700E000206B
:10A6800010F10D0F03D03762204600F011FA376247
:10A69000F761D8F80400002803D0FEF741FCC8F8A1
:10A6A000047003B0BDE8F08FF0688089FCF7DEFB32
:10A6B00010F0040F0DD1F06807F110031A1D018886
:10A6C000408801910090718970690144B06901F07E
:10A6D0007AF903B02846BDE8F04FFEF721BC03B07D
:10A6E0002846BDE8F04FFEF71BBC00004C010020DF
:10A6F000007B002044010020480100204001002090
:10A7000020C0002030B583B00446E06C401EFCF74A
:10A71000A1FB034600221146204600F0BBFA054685
:10A72000ADB1201DFBF718FFA8B106210022009251
:10A7300001910290A37A221D21462846FBF7D8FDFD
:10A7400004462846FEF7ECFB03B0204630BD03B0BC
:10A750004FF0FF3030BD6FF00304F2E730B47F28D4
:10A7600001D97F2300E003464FF0000C00240C4980
:10A77000886968B1CD68427D9A4206D8016A691A33
:10A78000614502D38C4604461346C0680028F2D1C6
:10A79000002C03D0204630BCFFF734BB30BC7047E0
:10A7A0002C01002030B48446002300200C498A6923
:10A7B000002A0CD0CC68117D614505D1116A611A5F
:10A7C000994201D30B461046D268002AF3D10028E3
:10A7D00003D030BC0021FFF7ABBA30BC704700009B
:10A7E0002C010020002300200A4AD16900290BD047
:10A7F000D2F80CC00A6AACEB02029A4201D31346AB
:10A800000846C9680029F5D1002801D0FFF7FABA37
:10A81000704700002C01002070B506460124054D4C
:10A82000314655F82400006801F04FF8641C042CF0
:10A83000F6D370BDECDC0008F0B583B00546394EA8
:10A84000307810F0040F11D1374F10F0100F0FD0E7
:10A85000F06807F110031A1D0188408801910090EB
:10A86000718970690144B06901F0ADF803B0F0BDC1
:10A8700010F0020FFAD0687DFFF7D6FA04462000E8
:10A880003CD07869206038696060E88AE082F068CE
:10A8900000882083032020757069411C6162E16299
:10A8A000401E2065286920616567287A00F00C0049
:10A8B00020721E480168E160046001F0B9FA1C4989
:10A8C00001200870204600F075FAF068C089A4F8ED
:10A8D0005C00A4F85E00A4F84A00608E211DFFF71A
:10A8E00062FC608612212046FFF770FC98B103B02D
:10A8F0002046BDE8F0400021FFF71ABA002DB5D080
:10A90000AB69002BB2D0286903B04FF0FF32BDE82D
:10A91000F0400021184703B02046BDE8F04000F0A9
:10A92000C7B800004C010020007B0020440100203B
:10A930002C01002070B50446207D002801D00020A5
:10A9400070BD0220FDF79CFB0546280018D0206949
:10A950002861E08AE88201202875607D6875207A88
:10A960002872A07AA872607A687220682860E08AEB
:10A97000A0B111490869A04204D1C06808610BE088
:10A98000002070BD40B1C168A14202D1E168C16040
:10A9900002E008460028F6D10020E06021460120B0
:10A9A000FDF73CFB0548A86105480168E9600560C2
:10A9B00001F03EFA284670BD2C010020199E0008C7
:10A9C0004001002070B504460D46002C1FD02068C1
:10A9D00000281CD00E4E2046B16900F01BF820461E
:10A9E000316900F017F8002D11D0286800280ED02A
:10A9F00006F114000268002A09D0D06811682368A3
:10AA0000994201D1296811600246002AF5D170BD32
:10AA10002C01002070B50546084600280BD00168BF
:10AA20002A68914204D1C468FFF7ECF9204600E09F
:10AA3000C0680028F3D170BD4020FFF7F5B90000D1
:10AA4000F0B44FF0000C144C144D4FF6FF764FF459
:10AA50004047A888411CA980B04200D1AF800021A6
:10AA6000AA8854F82100006878B1C38A934209D1BA
:10AA70000CF101001FFA80FCBCF5804FE9D3F0BC5B
:10AA800000207047C0680028EFD1481CC1B20429DB
:10AA9000E7D3A888F0BC7047ECDC00082C0100204C
:10AAA0000249CA6888681044886070472C010020F9
:10AAB0002DE9F05F044676480068A04202D10020EC
:10AAC000BDE8F09FB4F85C80B4F84800804500D33E
:10AAD0008046A56EA07E10F0020F0FD04DB1E86841
:10AAE0004068FCF7B7F9616C401A29890844404571
:10AAF00004D92046BDE8F05F00F0C2BFE76E0FB991
:10AB000003E0074638680028FBD1201DFBF724FD31
:10AB100081465FEA090003D034B1206820B108E023
:10AB20006FF00300BDE8F09F09F1040020B1006858
:10AB300020604FF0000A91E06FF00300BDE8F09F45
:10AB4000E8688089FCF792F9E06EA8B1A17E11F067
:10AB5000440F11D1A06E28B102686AB90089628ED3
:10AB6000904209D2B4F8600030B1B4F8620008280D
:10AB700002D211F0A00F7FD0207D022807D0102034
:10AB8000FCF774F90146E8688289114381814A46DD
:10AB90002146284600F0B4F828B1A17E41F080019A
:10ABA000A176BDE8F09F2868A066207D022803D02A
:10ABB000A07E20F00300A076E8684068FCF74AF920
:10ABC0000646E8688089FCF751F910F0030F01D0C0
:10ABD000012000E00020298930440844E16C091A72
:10ABE00000D5E064E8688089FCF740F910F0030FB5
:10ABF00001D0012000E000202989C8422AD0C5F8F0
:10AC000000A0E06E68B1E8684068FCF723F90646EA
:10AC1000F8684068FCF71EF9301A18D504F16C0684
:10AC200003E0E5662F4618E03668306858B1C06822
:10AC30004068FCF70FF98346E8684068FCF70AF9BA
:10AC4000BBEB0000F0D430682860356005E03D6063
:10AC50002F4602E0284600F0FAFEA56E4DB1E868E6
:10AC60004068FCF7F7F8616C401A298908444045B0
:10AC700000E001E07FF664AFA06E08B9A4F864A01C
:10AC8000A07E20F08000A0760020BDE8F09F0000AC
:10AC90006C0100202DE9F04105460E469846B0189B
:10ACA000143081B200220120FDF7B5FF07461FB323
:10ACB0007C68E88AFCF7DAF82080288BFCF7D6F865
:10ACC0006080C4F80480686AFCF7C4F8A0600520BE
:10ACD00000EB9600102141EA003080B2FCF7C6F884
:10ACE000A081688DFCF7C2F8E0810020208260829C
:10ACF000698D686A0844E8623846BDE8F081000062
:10AD0000F0B583B005460C4617466868C08901282F
:10AD100002D003B00020F0BD606AFCF79BF8E96840
:10AD20008860608DFCF7A2F8E968C881618D606A6F
:10AD30000844E062E86800F11406A87A10F0010FF8
:10AD400009D0211D40F2B450FFF72DFA40F00170F8
:10AD5000FCF780F83060B4F930000026002800DAF3
:10AD60002686606B38B9124800686063E8684068FE
:10AD7000FCF770F8A0636968A8898A88801A4A89F4
:10AD8000121A4A8169680A89101A08816968E86894
:10AD90004860E8680682607A062101910297009077
:10ADA000A37A221D21466868FBF7A2FA03B0F0BD22
:10ADB000380100202DE9F04106461B4D6888002827
:10ADC00019D04FF00000E88015D940F2B457FFF7D2
:10ADD00091FA00280FD0012809D002280DD0FFF7E2
:10ADE00089FA022807D3E9880844801EE880E888A9
:10ADF00069888842EBD3BDE8F081FFF77BFA04282D
:10AE0000F9D1E8886988801C8842F4D8FFF772FA83
:10AE10000402FFF76FFA2043B84200D808B940F2A5
:10AE2000B4507086E3E700004C01002070B50C467A
:10AE30001D46069E059B0499A446944214D213F025
:10AE4000020F08D18B7E13F0400F0DD11EB18B6E17
:10AE50000BB9C96E41B104F2B75121F0030191421F
:10AE600000D80A461FFA82FC00226146FDF7D3FE95
:10AE700028B14189091B29800481448170BD0020CB
:10AE800070BD70B50446207D002816D00A2814D065
:10AE9000012812D0206F002510B1FEF741F8256778
:10AEA0004FF0FF302086A06E00F0E0FDE06E00F075
:10AEB000DDFDA566E566A4F8645070BD70B5024678
:10AEC0000C461068A04202D1C068106009E040B191
:10AED000C168A14202D1E168C16002E008460028D1
:10AEE000F6D10025E5602046FFF7CBFF207D0A283C
:10AEF0000BD0012809D0A07E10F0010F05D040F042
:10AF00000200A0762046FFF7D3FD2575E58270BDCF
:10AF1000C0F88410027770472DE9F04F83B00446E3
:10AF200000208146DFF86CB49BF8001011F0040F8C
:10AF30002FD0217D022906D0616ADBF814209142CE
:10AF400008D1012011E0E16CDBF8182091420CD10E
:10AF500001200AE0531A08D4238D1944511A0029FC
:10AF600003DCA17E41F00201A17670B19BF80100E3
:10AF700040F008008BF80100A07E20F00100A076D0
:10AF800003B06FF00D00BDE8F08F03B00020BDE806
:10AF9000F08F11F0020F0CD0207D022809D0032879
:10AFA00007D0A07E40F00200A07603B00020BDE8EC
:10AFB000F08FA07E10F0100F02D1F74800682062D9
:10AFC0004FF0000A84F892A02046FFF7F3FE207DA0
:10AFD0000127801E0423F14ADFF8C483F14EF24DAD
:10AFE000082880F0D381DFE800F0048FEEEDECEE6E
:10AFF000EBEA9BF8000010F0100F68D010F0020F81
:10B0000065D0616C01F1010CDBF818108C455ED144
:10B01000DBF81400421C6262E2626164DBF80C102F
:10B02000C989A4F85C10A4F85E10401E2065237541
:10B03000608E211DFFF7B7F86086B4F85C10A4F8A5
:10B040004A1041F21C12B2EB400F01D2410001E064
:10B0500041F21C11B1EB800F01D9800006E0B2EB88
:10B06000400F01D2400001E041F21C10A4F848005A
:10B07000B4F86200401EA4F86200E06ED0B101682E
:10B08000E16600F0E4FCE06EC0B1A4F830A084F802
:10B0900042A0D4F8803023B100222146206998478D
:10B0A000814619F10D0F0DD0A07E40F00200A07670
:10B0B00000F06CB9A06E0168A166E2E74FF0FF30C6
:10B0C0002086E6E703B06FF00C00BDE8F08F10F0CB
:10B0D000100F00F05B81DBF80C0002F1100314325A
:10B0E0000188408801910090BBF80A10DBF8140039
:10B0F0000144DBF8180000F066FCA4F830A02046FC
:10B1000000F04AFC00F042B99BF8000010F0100F6C
:10B110006BD0616CDBF81800411A012954D4E16C42
:10B12000411A002950DC2375606F30B183693BB14F
:10B13000002221462069984704E06FF0050001E0F5
:10B140006FF00F0050B110F10D0F02D02046FEF746
:10B1500059FE03B06FF00C00BDE8F08F204600F000
:10B1600063F9B4F85C00A4F84A00BBF8080010B119
:10B17000401EABF80800608E41F21C12B2EB400F8B
:10B1800001D2410001E041F21C11B1EB800F01D965
:10B19000800006E0B2EB400F01D2400001E041F236
:10B1A0001C10A4F848009BF8010010F0200F52D0AA
:10B1B000A07E40F00200A07607202075E6E0D0E0F7
:10B1C000A3E079E02DE01DE0DBF80C100B88498846
:10B1D00001930091BBF80A30DBF81410194402F116
:10B1E0001003143200F0EFFBD0E010F0020F32D069
:10B1F000606ADBF81410401E88422CD1204600F013
:10B200006FFBC3E0204600F00FF99BF8010010F03F
:10B21000200F20D0A07E40F00200A07607202075ED
:10B22000B4E0204600F000F99BF8010010F0200F78
:10B2300033D09BF8000010F0100F06D0E06CDBF864
:10B240001810884201D1A06E30B1A07E40F00200FB
:10B25000A0760820207599E0A07E40F00200A0763C
:10B260002046FFF70EFE2868A04202D1C068286081
:10B2700009E040B1C168A14202D1E168C16002E0C9
:10B2800008460028F6D188F800700A20207530683A
:10B29000E060346000F0CCFD78E09BF8000010F036
:10B2A000100F73D0E06CDBF8181088426ED1A06EDE
:10B2B00050BB0620207569E0204600F0B5F89BF8E9
:10B2C000010010F0200F61D0A07E40F00200A076B7
:10B2D0002046FFF7D6FD2868A04202D1C06828604A
:10B2E00009E040B1C168A14202D1E168C16002E059
:10B2F00008460028F6D188F800700A2020753068CA
:10B30000E060346000F094FD40E0204600F08CF8EE
:10B310009BF8000010F0100F38D0E06CDBF818102C
:10B32000884233D1A06E88BB2046FFF7AAFD28686B
:10B33000A04202D1C068286009E040B1C168A142C2
:10B3400002D1E168C16002E008460028F6D188F821
:10B3500000700A2020753068E060346000F068FDFD
:10B3600014E0204600F060F89BF8000010F0100F89
:10B370000CD0E06CDBF81810884207D1A06E28B919
:10B380009BF8010040F010008BF8010003B0002092
:10B39000BDE8F08F4C01002038010020007B002028
:10B3A0002C010020480100204401002070B5044613
:10B3B000256F6E7B00202067D4F87CC0BCF1000FA5
:10B3C00005D000232A4621462069E04705E00023F6
:10B3D0002A462146184600F041FA30B110F10D0F0F
:10B3E0001FD025676FF0040070BD16F0200F13D03A
:10B3F000218DA1F53062683A01D0491C2185D4F82D
:10B400007CC0BCF1000F04D000231A4621462069FD
:10B41000E04710F10D0F01D0002070BD6FF00C005F
:10B4200070BD6FF00C0070BD2DE9F04104460025A1
:10B43000F64F2E46387810F0100F00F03581B4F832
:10B440005C30606D03EB000C226D7969B2EB010892
:10B450000BD48A4202D1BA69821A06D4BA699042E0
:10B4600016D1F868C089984212D9F868C089A4F842
:10B470005C00B4F85E20824201D2A4F85E0021652F
:10B48000B969616560B194F8910008B184F8916080
:10B49000626CB869811A002938DC798951B130E0D1
:10B4A00094F891000028F3D184F89060012084F88A
:10B4B0009100EDE7B4F85C30616D1944614520D12D
:10B4C000B4F9301000291CDB82421AD1012594F80E
:10B4D0004300411CC9B2814201D984F8431094F859
:10B4E0004300032809D9B4F84800618E014489B2A9
:10B4F000814206D9A4F8481003E002D1204600F0AA
:10B5000018FA002D6DD184F843608AE001296DD4CA
:10B51000E16C411A002969DCA17E11F0040F06D00C
:10B5200021F00401A176B4F84A10A4F8481084F878
:10B530004260E18FB4F93C2001EBE201A4F8401035
:10B5400084F843606064207D04282CD3B4F848005C
:10B55000B4F84A10884207D2618E014489B2814210
:10B5600021D9A4F848101EE0618E494391FBF0F107
:10B57000014489B2884216D2A4F8481013E0286822
:10B58000E0666868FDF736FC6868FDF733FCB4F8E0
:10B590006210081AA4F862002889398908443881A1
:10B5A000284600F054FAE06EB8B1C0684068FBF776
:10B5B00051FC0546E06EC0688089FBF757FC10F02F
:10B5C000030F01D0012000E000202844E56E298906
:10B5D0000844B969401A0028D1DDE06E10B1268612
:10B5E000E6761EE04FF0FF302086F9E7204600F0B7
:10B5F00047FA16E02868A06608B9A4F8646068688D
:10B60000FDF7F8FB6868FDF7F5FBB4F86210081A5F
:10B61000A4F862002889398908443881284600F056
:10B6200016FAA06ED0B1C0684068FBF713FC05465F
:10B63000A06EC0688089FBF719FC10F0030F01D0E1
:10B64000012000E000202844A56E29890144B86942
:10B65000411A03D4E16C401A0028CBDDB4F8600035
:10B6600039890844A4F86000606BE8B1A16BBA693D
:10B67000891A19D566490988081AB4F93C10A0EB53
:10B68000E10000B2014409B2A187002801DA40427A
:10B6900000B2B4F93E20A0EBA2001044E08700EB1A
:10B6A000E100A4F8400066637B89002B7ED0207DFA
:10B6B00007287BD2606A7A69564D811A012926D4FF
:10B6C0001344C31A5B1C002B21DC686842898A4240
:10B6D0000FDA0289521A92B24389C91A028146814D
:10B6E000006843898B42F7DB494209B2FDF74EFC03
:10B6F00003E0494209B2FDF749FCBA8A606A298928
:10B70000821A891A29817861E968486005E0101A6F
:10B7100003D5A07E40F00200A076606A79690A1A1B
:10B7200073D4228D02448A1A521C002A7EDC88427D
:10B7300077D1E8688089FBF799FB10F0030F01D0FF
:10B74000012000E000202989084480B27881218D01
:10B75000814235D2E8688089FBF788FB10F0010F41
:10B760000FD0E8688089FBF781FBC0F344004000FC
:10B77000FBF77CFB0146E868828922F47C52114386
:10B780008181208D2881E8688089FBF76FFB10F0AC
:10B79000020F02D02889401E288129896868FDF798
:10B7A00040FCE8688089FBF761FB00E043E010F0B3
:10B7B000030F01D0012000E000202989084478818E
:10B7C0007889796901446162218D081A20852046B3
:10B7D00000F0A4FB6868018909B1F8616E60E8684F
:10B7E0008089FBF743FB10F0010F03D0787840F01D
:10B7F00020007870A07E10F0010F0ED020F0010024
:10B8000040F00200A076BDE8F0810FE04C0100207E
:10B810003801002020C0002003E040F00100A076A5
:10B82000F1E72046BDE8F04100F02AB92046BDE826
:10B83000F04100F025B9606A79690A1A05D4228DB1
:10B840001044081A401C0028DDDDA07E40F00200F4
:10B85000A076D8E7002800D0C167704710B5084629
:10B860001446002C06D0218900F00BF82046FDF785
:10B8700057FB00E00BB1002010BDBDE81040FEF703
:10B880007DBB10B50446208D084480B2208540F66B
:10B890006831884201D9218506E028B9207D072832
:10B8A00001D0092800D12185204600F037FB40F265
:10B8B000DA21884208DBA07E40F00200A076204614
:10B8C000BDE81040FFF7F4B810BD002807D00022F3
:10B8D000436F8B4200D14267C0680028F8D170479F
:10B8E0002DE9F0410546EE6E002E20D03068E86666
:10B8F00005F1680400E02468206850B1C068406821
:10B90000FBF7A8FA0746F0684068FBF7A3FA381A75
:10B91000F1D42068306026603168002009B9A5F8AC
:10B92000640095F84210491C85F842106863BDE830
:10B93000F08110B50446E06E00282CD0A07E10F0F7
:10B94000040F28D12046FFF7CBFFB4F84800B4F825
:10B950005C10884203D94808A4F84A0002E0400875
:10B96000A4F84A00B4F84A10608EB1EB400F05D23B
:10B970004FF6FF7101EA4001A4F84A10B4F84A10EA
:10B9800000EB40000844A4F84800A07E40F004000A
:10B99000A0760020208610BDC16E002912D000E0E4
:10B9A00011460A68002AFBD1826E0A60C16E816668
:10B9B0000021C16690F84220521C80F84220416369
:10B9C000FFF776B870472DE9F04F83B083460D9F9F
:10B9D0000C9E8A4691469846002214210120FDF7CC
:10B9E0001AF9054628002FD06C683046FBF73EFA5E
:10B9F00020803846FBF73AFA60805846FBF72AFA6F
:10BA000060605046FBF726FAA06045F21400FBF791
:10BA10002DFAA08146F60B00E08100262682668280
:10BA20004046FAF799FD48B1062101910290FF23A3
:10BA30004246009649462846FAF75AFC03B0284683
:10BA4000BDE8F04FFDF76CBA03B0BDE8F08F10B55C
:10BA50000446002C09D0606808B1FDF761FA214660
:10BA6000BDE810400320FCF7D9BA10BD10B500287E
:10BA700005D00468FFF7EBFF20460028F9D110BD80
:10BA800070B584B004460025E06CFBF7E3F903468B
:10BA9000002229462046FFF7FDF80646C6B1201DC4
:10BAA000FAF75AFDE0B1617A062201920091029004
:10BAB000A37A221D21463046FAF71AFC0546304685
:10BAC000FDF72EFA7DB1A07E40F00300A0760EE0D7
:10BAD000A07E40F00300A07604B06FF0010070BDBE
:10BAE0006FF00305EBE7A07E20F00300A07604B022
:10BAF000284670BD70B50546AC6E002C01D10AE039
:10BB00000C4621680029FBD1E0688089FBF7AEF97B
:10BB100010F0070F05D02846BDE870400121FEF760
:10BB200055BB0120FBF7A2F90146E0688289114369
:10BB30008181A87E40F02000A876002070BD0028FA
:10BB400000D08167704770B504460D461646207DCB
:10BB500001280BD09DB1A07E40F01000A07646B128
:10BB60002046BDE870400121FEF712BA6FF00A00CE
:10BB700070BD206F18B1FDF7D3F9002020677EB1AA
:10BB8000207D032806D0042804D0072802D06FF0B7
:10BB90000A0070BDE9B22046BDE87040FEF7F8B972
:10BBA000002070BD2DE9F04F83B09D4FF868401C18
:10BBB000F860B878401CB870DFF868A24FF4FA7BE0
:10BBC0004FF000090026BC69002C00F00681617F5F
:10BBD000B878814202D1E46800F0FCB860770025B3
:10BBE000A846207D022803D194F84210062918D0D7
:10BBF00094F842100C2916D094F89120FAB112F85A
:10BC00000A0094F89010814202D2491C84F89010E6
:10BC100094F89010814246D3204600F02FFB20B1CB
:10BC200041E001253FE001253DE084F8909094F843
:10BC30009100072837D2401C84F8910033E0B4F912
:10BC40003020002A01DB521C2286E26E5AB3B4F97E
:10BC50003020B4F940309A4225DB022809D0E08F29
:10BC6000B4F93C2000EBE2006F4A515C8840A4F834
:10BC70004000A4F83090B4F84800B4F85C10884252
:10BC800000D308464108A4F84A10608E4FF6FF72B0
:10BC900002EA4002914201D2A4F84A20A4F84800E6
:10BCA0002046FFF779FE207D06280AD1A17E11F0FB
:10BCB000100F06D0216AFA68511A282901D9691C87
:10BCC000CDB2217A11F0080F28D0042801D007281E
:10BCD00024D15648D4F88C10FB680844B0FBFBF222
:10BCE000206A181A824204D2681CC5B24FF00108BB
:10BCF00014E094F8922042F29F4312FB03F201EB0E
:10BD0000C201B1FBFBF1814208D22046FEF7FAFCEA
:10BD100020B994F89200401C84F89200207D0328FA
:10BD200006D1216AFA68511A282901D9691CCDB2B5
:10BD3000092806D1206AF968081AF02801D9681C78
:10BD4000C5B255B3D4F888502046FFF79AF816B11B
:10BD5000E068F06001E0E068B861B8F1000F09D078
:10BD6000208BE18A00910190231D2246616AE06CDC
:10BD7000FFF729FED4F810802146E4680120FCF783
:10BD80004DF987F800901DB16FF00C014046A847AF
:10BD9000387800287FF416AF1CE02646E468F07E71
:10BDA000401CC0B2F076317F884213D386F81B90D6
:10BDB00087F80090D6F884201AB131463069904750
:10BDC00000E00020397800297FF4FCAE10B930463D
:10BDD000FEF76EFE002C7FF4FAAE0025FC69002C05
:10BDE0001AD00020216AFA68511AF02900D90120DE
:10BDF00070B12046FFF745F815B1E068E86001E052
:10BE0000E068F8612146E4680120FCF707F901E0E9
:10BE10002546E468002CE4D103B0BDE8F08F0000B3
:10BE20002C010020A7DC0008DCDC0008B84C0A006C
:10BE30000848816800290CD10749084A0968126836
:10BE4000114306D00121816000220549FA20FDF747
:10BE5000CFBE70477001002044010020480100203F
:10BE60006DC5000800B583B0DFF870C09CF8001005
:10BE700011F0040F1DD111F0020F1CD0426ADCF842
:10BE800014108B1A1DD4038D1A448A1A002A18DC48
:10BE9000DCF80C000288408801920090BCF80A008F
:10BEA00001440F4800F110031A1DDCF81800FFF7D9
:10BEB0008AFD03B000BD11F0010F02D009490968E5
:10BEC0000162BCF80A100029F3D0817E41F0020122
:10BED000817603B05DF804EBFEF7EABD4C0100206B
:10BEE000007B00203801002010B5FEF7D3F9064989
:10BEF0004878401C487010F0010F03D0BDE8104096
:10BF0000FFF750BE10BD00002C0100200248417810
:10BF100041F01001417070474C01002030B4048D95
:10BF2000436A1A19B0F832C040F2B455C16AAC4540
:10BF300000D9AC468C44B2EB0C0C03D4448530BC25
:10BF4000501A70475A1A002A02DD0021418501E08B
:10BF5000C91A418530BC002070472DE9FF4F8BB0D6
:10BF6000054690460020099000260027089082464A
:10BF700000240790069005908146688EB5F85E1003
:10BF8000B0EB510F01D2014600E0490801B901466A
:10BF900004910C9860B14146284600F048F9002809
:10BFA00008D1B5F862B0A86E00286CD0064605E04E
:10BFB0006FF00F000FB0BDE8F08F06463068002824
:10BFC000FBD1B07A10F0010F01D0042000E0002076
:10BFD00031890A180498801A82B2B5F86400059075
:10BFE000B8B13746404501D2034600E0434693428C
:10BFF00001D9914604E0404501D2814600E0C146A6
:10C0000004EB09039CB2A0EB09000590A2EB090028
:10C0100082B2444537D2B2B3A9B3A8EB0400904230
:10C0200000DD104680B2039037460E9810F0010FE5
:10C0300014D001210E980291019005AB00950420C7
:10C040000399FEF7F3FE099000287ED00C98039A1E
:10C05000011909984068F4F723F90BE00122042044
:10C060000399FCF7D8FD099000286ED00C980119AF
:10C07000099841600398204484B20998FCF7BAFEFD
:10C0800058441FFA80FB444565D204990798081A62
:10C090000A90A8EB040080B20A9989B2884200D9BC
:10C0A000084603900E9810F0010F1DD0BAF1000F52
:10C0B00018D000200E9902900191079903980095DD
:10C0C000084481B205AB0020049AFEF7AFFE071EBC
:10C0D00053D00C987A68011907981044039AF4F722
:10C0E000DFF817E00120E5E7012200200399FCF7C3
:10C0F00092FD029048B30C98011902984160002209
:10C1000010460799FCF787FD071E2FD03846029985
:10C11000FCF752FE3846FCF76DFE58441FFA80FBD0
:10C12000BBF1080F26D806980090A86D00220319CD
:10C1300039462846FDF7EAFF071E1ED0BAF1000F68
:10C140002FD008980760089700E016E00398204475
:10C1500084B244459DD3B9F1000F34D074687CB3E8
:10C160002089484420812068E8B126E00298FCF745
:10C17000D7FE02E03846FCF7D3FEA87E40F08000F0
:10C18000A876099810B10998FCF7CAFEBAF1000F19
:10C1900002D05046FFF76AFC0FB04FF0FF30BDE809
:10C1A000F08FBA46CFE7618960684A4608440C9927
:10C1B000F4F776F86089484460812468002CCFD178
:10C1C000308948443081BDF81400A5F8640009980E
:10C1D00040B170680999FCF7EFFD09983189008931
:10C1E00008443081A6B1C6F800A0A86D4044A865F7
:10C1F000B5F86000A0EB0800A5F86000A5F862B0F3
:10C200008FB1F86878B10E9810F0020F03D00AE0F1
:10C21000C5F868A0E9E70820FAF728FE0146F868A3
:10C220008289114381810FB00020BDE8F08F027D2B
:10C23000042A08D0072A06D0022A04D0032A02D0F2
:10C240006FF00A00704751B1B0F860208A4208D2FE
:10C25000817E41F0800181764FF0FF3070470020F1
:10C260007047B0F86210082901D200207047817E23
:10C2700041F0800181764FF0FF3070472DE9F041A9
:10C2800084B00546EC6E002C00D1AC6E0CB3E068B7
:10C290008089FAF7EBFD10F0010F01D02089E0B1A1
:10C2A0000027E7B10022E068002143682846FEF736
:10C2B000F1FC80465FEA080013D0D8F80460AFB103
:10C2C0001120FAF7D3FDB18921F47C510843B081E4
:10C2D00016E004B00020BDE8F0810127E1E701226B
:10C2E000E1E704B04FF0FF30BDE8F08106F1140142
:10C2F000606823890289D21A93B20122FCF7D8FD23
:10C30000E0684068FAF7A6FD401CE96C091A00D500
:10C31000E864281DFAF720F990B106210022009266
:10C3200001910290AB7A2A1D29464046F9F7E0FFB9
:10C3300004464046FCF7F4FD04B02046BDE8F08119
:10C340006FF00304F5E7000008B5052000904FF4F6
:10C3500000730022024903A0FDF736FC08BD00006F
:10C3600075C300087463706563686F5F7468726595
:10C37000616400002DE9F04F8DB04FF0FF344FF4B1
:10C380008060FDF79BF9054628000BD000220121B3
:10C390000220FBF77DFC0446200007D53EA0F7F7FE
:10C3A00005F92EE040A0F7F701F92AE002208DF808
:10C3B00021000026099640F2D240FAF757FDADF869
:10C3C00022000A960B96102208A92046FAF7E2FCF2
:10C3D000B0F1FF3F0ED005212046FAF75DFDB0F128
:10C3E000FF3F0BD004AF4FF001084FF010094FF0A2
:10C3F000040A18E02FA0F7F7D9F802E031A0F7F708
:10C40000D5F8002C02DB2046FAF7FCFC002D02D008
:10C410002846F9F70BFC0DB0BDE8F08F002E02DBCB
:10C420003046FAF7EFFCCDF80C9003AA04A9204699
:10C43000FAF7F8FB0646BDF81200FAF717FD834637
:10C44000381DFAF7C3F801465A4622A0F7F7AEF8AE
:10C45000CDF8088002AB012206213046CDF800A0BD
:10C46000FBF72AFB0BE0294623A0F7F79FF85A4673
:10C4700029463046FBF779FCC820FCF7FFF900237A
:10C480004FF4806229463046FBF739F98346BBF109
:10C49000000FE8DCC2E70000536F636B6574206532
:10C4A00072726F720A0000004E6F206D656D6F72C0
:10C4B000790A0000556E61626C6520746F206269B4
:10C4C0006E640A004C697374656E206572726F72D7
:10C4D0000A0000006E657720636C69656E742063E6
:10C4E0006F6E6E65637465642066726F6D202825BB
:10C4F000732C202564290A00726563762025730A4F
:10C500000000000038B504460D46FAF7B4FC0A48AE
:10C510000460456006210830FDF7EEFA0748FDF794
:10C520001BFB022000904FF47A730022044905A0FF
:10C53000FDF74AFB38BD0000C4000020D0000020F9
:10C54000A5C500085443502F4950000070B504465B
:10C550000D460548FDF7FBFA2846A0470248FDF7BF
:10C5600009FB002070BD0000D000002010B5FFF7CF
:10C57000BBFC0848084900680968084306D0002247
:10C58000BDE810400549FA20FDF732BB0449002000
:10C59000886010BD44010020480100206DC50008DE
:10C5A0007001002082B019480168002901D040685C
:10C5B00088471748FDF7CBFA1548FDF7DBFA01A9C4
:10C5C0001448FDF781FB1248FDF7C1FA019A002AD1
:10C5D000F2D01078022807D003280ED00428EBD11F
:10C5E000516890688847E7E791685068D26890473B
:10C5F00009200199FBF712FDDEE751689068884732
:10C6000008200199FBF70AFDD6E70000C4000020CE
:10C61000D0000020CC000020042801D30020704767
:10C62000054900EB800051F8202012B101EB800099
:10C630007047002070470000B07A00202DE9F041DB
:10C6400004460D46002D00D11D4D4CB145B10026CC
:10C650001C4F7B68184653B19C4205D1012606E069
:10C660006FF00500BDE8F081DB68002BF4D16AB102
:10C67000C0B1844213D0418A914210D101682B6825
:10C6800099420CD16FF00700BDE8F08100F036F957
:10C690000246100006D16FF00700BDE8F081C068C7
:10C6A0000028E6D125B128682060628216B104E036
:10C6B0000020F9E77868E0607C600020BDE8F08148
:10C6C00074DB00087C01002070B504460D46164658
:10C6D000002C03D015B1628A1AB108E06FF0050092
:10C6E00070BD21462046FFF7A9FF0028F8D1286831
:10C6F0006060A682207C40F004002074074A5068E5
:10C70000014630B1844201D1002070BDC0680028CC
:10C71000F8D1E1605460002070BD00007C01002071
:10C72000704700002DE9F34F83B08146B9F80A0045
:10C73000082805D205B04846BDE8F04FFCF7F0BB2D
:10C74000D9F80440DFF81881D8F80010D8F81400A0
:10C75000F9F7D9FB02902088FAF788FB0746608832
:10C76000FAF784FB824600260025DFF8F8B0DBF8F4
:10C770000440FCB1608A50451DD12046029A0499BC
:10C7800000F072F8B8B1207C10F0040F01D105B9A7
:10C790002546A08AB8420ED1606818B1D8F81010AA
:10C7A000884208D136B1E068F060DBF80400E06050
:10C7B000CBF8044003E02646E468002CDAD104B943
:10C7C0002C460CB1012008E00498D8F814104068F9
:10C7D000884201D1012000E00020D0B36FF00701B2
:10C7E0004846FCF7D3FB28B105B04846BDE8F04FFA
:10C7F000FCF796BBA4B1D4F818C0BCF1000F09D067
:10C80000009708F110034A462146E069E04705B069
:10C81000BDE8F08F05B04846BDE8F04FFCF780BB9F
:10C82000029880B998F8140000F0F000E0280AD0CF
:10C83000B8F80C00083001B24846FCF7AAFB032107
:10C840004846F9F74FFA05B04846BDE8F04FFCF707
:10C8500067BB05B04846BDE8F04FFCF761BB000080
:10C86000007B00207C0100200C4B002A5B690CD06F
:10C8700048B1006838B1B3F1FF3F04D0896808407F
:10C880001940884208D10120704718B1006808B1EA
:10C89000984201D10120704700207047007B0020A2
:10C8A000002815D00268002A12D0002910D00A688A
:10C8B000002A0DD0074A5268002A09D01368D0F820
:10C8C00000C0634501D10B681360D268002AF5D11E
:10C8D000704700007C01002010B50020FBF7D0FB62
:10C8E00000280AD00021016041608160C1600161BF
:10C8F00041618161C161FF21817210BD70B400236B
:10C90000104C4FF6FF754FF44046D4F804C0208811
:10C91000411C2180A84200D12680604670B1218848
:10C92000428A8A4207D1581C83B2B3F5804FEED3B6
:10C9300070BC00207047C0680028F1D1208870BC0E
:10C94000704700007C0100208161C26170470000D7
:10C950000A494A68824202D1D2684A600AE04AB172
:10C96000D36823B1834202D1C168D16002E01A4684
:10C97000002AF5D101460020FBF750BB7C010020C6
:10C98000002803D0838A021D00F003B86FF0050071
:10C990007047F8B505460E4614461F462046002D42
:10C9A0000BD054B1F9F7D8FD50B100903B46224668
:10C9B0003146284600F007F8F8BD6FF00500F8BDD5
:10C9C0006FF00300F8BD30B583B0DDF818C0002863
:10C9D0000ED06AB104687CB104F0F005E02D0BD0F4
:10C9E000DCF80450AC420AD003B06FF0050030BD53
:10C9F00003B06FF0050030BD0CF1040400E0044604
:10CA0000CDF800C0019400F002F803B030BD2DE96C
:10CA1000F04F83B00446DDF834A0DDF830800F46D7
:10CA200091469B46002C05D0B9F1000F02D0628AD6
:10CA30002AB10AE06FF0050003B0BDE8F08F21468F
:10CA40002046FFF7FBFD0028F6D108213846FCF709
:10CA50009DFA98B1002208210120FCF7DCF8054678
:10CA6000280006D0388950B139462846FCF7B8F975
:10CA700005E003B04FF0FF30BDE8F08F3D466E6833
:10CA8000608AFAF7F3F930805846FAF7EFF97080C8
:10CA90000020F0802889FAF7E9F9B0801120A37A04
:10CAA000617A009101904A46CDF8088051462846A7
:10CAB000F9F734FC0446BD4202D02846FCF730FAB0
:10CAC00003B02046BDE8F08F0169436882689A6030
:10CAD000836842685A604A68824201D182684A602B
:10CAE000002202610868401E0860704710B50446C5
:10CAF000002C06D000F04EF8A46B00F06BF8204636
:10CB000010BD502080F31188BFF34F8FBFF36F8F9C
:10CB1000FEE7002801D0806B7047502080F3118819
:10CB2000BFF34F8FBFF36F8FFEE700F10801416045
:10CB30004FF0FF328260C1600161002101607047E7
:10CB400000210161704710B4D1F800C0BCF1FF3F73
:10CB500002D000F1080202E0026904E01A465368BC
:10CB60001C686445FAD953684B6099608A605160CB
:10CB700008610168491C016010BC704742684A6046
:10CB800093688B6093685960916008610168491CE3
:10CB900001607047502080F31188BFF34F8FBFF3BF
:10CBA0006F8F0A494868401C486001280CD108482A
:10CBB000006810F0FF0F07D0502080F31188BFF3FA
:10CBC0004F8FBFF36F8FFEE770470000900000208B
:10CBD00004ED00E009494868002806D0401E48607E
:10CBE000002801D180F311887047502080F311880C
:10CBF000BFF34F8FBFF36F8FFEE700009000002060
:10CC000070B5002827D0A0F10804134D6068E968CA
:10CC1000084207D1502080F31188BFF34F8FBFF334
:10CC20006F8FFEE722683AB1502080F31188BFF37E
:10CC30004F8FBFF36F8FFEE78843606000F0A8F965
:10CC400060686968084468602046FCF78FFCBDE8AE
:10CC5000704000F0F5BE70BD7800002006484FF42B
:10CC60007A710068B0FBF1F0411E4FF0E0204161A5
:10CC700007210161704700001000002010B5F3F794
:10CC8000E7FA114910280ED300F1E02090F8F003E4
:10CC90000A78904207D2502080F31188BFF34F8F5B
:10CCA000BFF36F8FFEE709480068896800F4E06011
:10CCB000884207D9502080F31188BFF34F8FBFF30C
:10CCC0006F8FFEE710BD0000900000200CED00E02B
:10CCD00010B50446002C07D0204600F00DF8204681
:10CCE000BDE81040FFF78CBF502080F31188BFF3E0
:10CCF0004F8FBFF36F8FFEE70021084A02EBC1039D
:10CD00005B68834206D1002042F8310002EBC1018A
:10CD100048607047491C0829F0D370474C34002004
:10CD200010B502460020002A12D00F48006B38B11F
:10CD3000502080F31188BFF34F8FBFF36F8FFEE752
:10CD400000F026F900211046FCF73EFA00F078FECC
:10CD5000002807D105494FF080500860BFF34F8F7E
:10CD6000BFF36F8F10BD00003C00002004ED00E019
:10CD700070B50446FFF70EFF254D04B92C68201D41
:10CD8000FFF7A2FE68B9E06A224A00EB800152F880
:10CD9000211031B9012101FA00F0296921EA0000CE
:10CDA0002861A06A18B104F11800FFF78DFE686AC7
:10CDB000401C68622868844207D1211D1648FFF78D
:10CDC000DDFE6868401C686007E0A868401EA86037
:10CDD0002046FCF7F0FAFCF713FCFFF7FBFE68694E
:10CDE000002814D02868844211D1286B38B1502013
:10CDF00080F31188BFF34F8FBFF36F8FFEE70749B2
:10CE00004FF080500860BFF34F8FBFF36F8F70BD3E
:10CE10003C0000208C3400205435002004ED00E05C
:10CE2000F6F72EFB0148F4F781F8F9E790010020AE
:10CE300001490120C86170473C00002010B50C4634
:10CE400000280BD0094A126802F11801FFF77BFE97
:10CE50002046BDE810400121FCF7B6B9502080F310
:10CE60001188BFF34F8FBFF36F8FFEE73C000020A8
:10CE700070B5044600283BD01E4DE06A2968C96A97
:10CE8000884235D2A06910F0004F04D12868C06AEA
:10CE9000C0F10700A061E06A174E00EB80006169F5
:10CEA00006EB8000814220D1201DFFF70DFE0121FD
:10CEB00058B9E06A00EB800256F822202AB92A69A4
:10CEC00001FA00F022EA000028612868C06AE062E6
:10CED0002A6981401143296100EB800006EB800044
:10CEE000211DBDE87040FFF749BE2868C06AE062B6
:10CEF00070BD00003C0000208C340020002805D0CC
:10CF000006490A6A0260C96841607047502080F390
:10CF10001188BFF34F8FBFF36F8FFEE73C000020F7
:10CF200010B582B01548002401902346802214A138
:10CF30000094154800F042FC01280AD0B0F1FF3FF0
:10CF40001AD1502080F31188BFF34F8FBFF36F8F3A
:10CF5000FEE7502080F31188BFF34F8FBFF36F8F30
:10CF60000A484FF0FF31816201214161C46002B083
:10CF7000BDE8104000F044B802B010BD68000020C9
:10CF800049444C45000000001D9400083C0000206E
:10CF90000248016B491C0163704700003C000020FF
:10CFA000154A106B002802D00120D0617047002084
:10CFB000D0611069B0FA80F0C0F11F000F4900EB9A
:10CFC000800051F8203073B101EB8000416849685E
:10CFD000416000F10803994201D14968416040680D
:10CFE000C06810607047502080F31188BFF34F8FE6
:10CFF000BFF36F8FFEE700003C0000208C34002060
:10D0000000B583B034480168344A914207D15020BA
:10D0100080F31188BFF34F8FBFF36F8FFEE7016876
:10D020002F48814207D1502080F31188BFF34F8FE2
:10D03000BFF36F8FFEE72B4908780290FF2008703E
:10D04000087801909DF804009DF8042000F0F0009D
:10D05000904207D0502080F31188BFF34F8FBFF369
:10D060006F8FFEE79DF804001F4A00F0500010701B
:10D07000072090609DF8040010F0800F0BD090689E
:10D08000401E90609DF80400400001909DF804004F
:10D0900010F0800FF3D1107A000200F4E06090608D
:10D0A000029808701148016841F47001016001683C
:10D0B00041F070410160FFF7D1FD00205060F3F7AF
:10D0C0008DF80B48016841F040410160F3F776F8B4
:10D0D00003B0002000BD000000ED00E071C20F4170
:10D0E00070C20F4100E400E09000002020ED00E05D
:10D0F00034EF00E010B5502080F31188BFF34F8F5C
:10D10000BFF36F8F00F0AAFB18B104494FF08050B5
:10D110000860002080F3118810BD000004ED00E0DD
:10D1200010B50C46002809D084420FD9502080F356
:10D130001188BFF34F8FBFF36F8FFEE7502080F34E
:10D140001188BFF34F8FBFF36F8FFEE702220021DC
:10D1500000F010F8002800D0846310BD10B502461E
:10D160000021012000F006F804462046FCF76AF989
:10D17000204610BDF8B505460E461746002D11D0C5
:10D18000C6B105FB06F05030FCF798FA04463CB1F6
:10D1900004F150023B46314628460094FCF75EF904
:10D1A0002046F8BD502080F31188BFF34F8FBFF3A6
:10D1B0006F8FFEE70020E6E72DE9FF4F83B00446BE
:10D1C0008A469B460025002C03D0BAF1000F08D0F8
:10D1D00011E0502080F31188BFF34F8FBFF36F8FA2
:10D1E000FEE7206C38B1502080F31188BFF34F8FD9
:10D1F000BFF36F8FFEE700F015FB48B9059838B113
:10D20000502080F31188BFF34F8FBFF36F8FFEE77D
:10D210004FF000094FF08057DFF82C81FFF7BAFC80
:10D22000A66B96B3E56851462046FCF77BF8BBF148
:10D23000000F13D0E560606A50B104F1240000F0E3
:10D24000C3FB28B1C8F80070BFF34F8FBFF36F8FD7
:10D25000FFF7C0FC07B00120BDE8F08F701EA0638F
:10D26000206810B9FCF79CFA606020690028EFD0B4
:10D2700004F1100000F0A8FB0028E9D0C8F8007005
:10D28000BFF34F8FBFF36F8FE2E7FFE7059808B159
:10D2900035B109E0FFF79EFC07B00020BDE8F08F34
:10D2A0006846FFF72BFE0125FFF794FCFFF770FEA1
:10D2B000FFF770FC94F94400B0F1FF3F01D184F80E
:10D2C000449094F94500B0F1FF3F01D184F84590B6
:10D2D000FFF780FC05A9684600F034FA68B12046E3
:10D2E000FCF7B8F900F0ACFB2046FCF76DF900281C
:10D2F00094D007B00020BDE8F08F2046FCF764F919
:10D30000E0B1206830B9FFF745FC6068FFF7B0FD79
:10D31000FFF760FC04F124000599FFF78FFD20461C
:10D32000FCF798F900F08CFB00287FF477AFC8F881
:10D330000070BFF34F8FBFF36F8F6FE72046FCF78E
:10D3400089F900F07DFB69E704ED00E070B5044663
:10D350000D46002C25D0FFF71DFC226CE16B2068E8
:10D3600001FB020060600020A0632068A060E16B08
:10D37000226C2068491E01FB0200E0604FF0FF3084
:10D3800084F8440084F845009DB104F11000FFF7D3
:10D39000CCFB04F12400FFF7C8FBFFF71BFC0120C6
:10D3A00070BD502080F31188BFF34F8FBFF36F8F94
:10D3B000FEE720690028F0D004F1100000F004FB23
:10D3C0000028EAD004494FF080500860BFF34F8F27
:10D3D000BFF36F8FE1E7000004ED00E02DE9FF47A8
:10D3E00082B004468A461F460025002C03D0BAF1BD
:10D3F000000F08D011E0502080F31188BFF34F8F49
:10D40000BFF36F8FFEE7206C38B1502080F3118896
:10D41000BFF34F8FBFF36F8FFEE7022F0AD1E06B90
:10D42000012807D0502080F31188BFF34F8FBFF33E
:10D430006F8FFEE700F0F6F948B9049838B1502034
:10D4400080F31188BFF34F8FBFF36F8FFEE7002685
:10D450004FF08058DFF8F090FFF79CFBA06BE16B7A
:10D46000884205D3022F03D0049808B335B329E0CE
:10D470003A4651462046FBF767FF616A59B104F10D
:10D48000240000F0A1FA68B1C9F80080BFF34F8F03
:10D49000BFF36F8F06E028B1C9F80080BFF34F8F4C
:10D4A000BFF36F8FFFF796FB06B00120BDE8F08752
:10D4B000FFF790FB06B00020BDE8F0876846FFF755
:10D4C0001DFD0125FFF786FBFFF762FDFFF762FBFD
:10D4D00094F94400B0F1FF3F01D184F8446094F91D
:10D4E0004500B0F1FF3F01D184F84560FFF772FBC2
:10D4F00004A9684600F026F940B12046FCF7AAF8D6
:10D5000000F09EFA06B00020BDE8F0872046FCF748
:10D5100068F890B104F110000499FFF78FFC2046E1
:10D52000FCF798F800F08CFA002895D1C9F8008033
:10D53000BFF34F8FBFF36F8F8EE72046FCF78AF85B
:10D5400000F07EFA88E7000004ED00E02DE9F047E6
:10D550000446894617461E46002C03D0B9F1000F39
:10D5600008D011E0502080F31188BFF34F8FBFF334
:10D570006F8FFEE7206C38B1502080F31188BFF325
:10D580004F8FBFF36F8FFEE7022E0AD1E06B0128A9
:10D5900007D0502080F31188BFF34F8FBFF36F8FF8
:10D5A000FEE7FFF76BFB5020EFF3118880F3118843
:10D5B000BFF34F8FBFF36F8FA06BE16B884206D331
:10D5C000022E04D0002088F31188BDE8F08794F97A
:10D5D0004550324649462046FBF7B6FEB5F1FF3FBF
:10D5E00004D0681C84F845000120ECE7606A00283C
:10D5F000FAD004F1240000F0E7F90028F4D0002F5D
:10D60000F2D001203860EFE770B504460D46002CDB
:10D6100009D0206C78B1502080F31188BFF34F8F70
:10D62000BFF36F8FFEE7502080F31188BFF34F8F59
:10D63000BFF36F8FFEE7206848B9606838B15020AB
:10D6400080F31188BFF34F8FBFF36F8FFEE7FFF7B3
:10D6500015FB5020EFF3118680F31188BFF34F8F35
:10D66000BFF36F8FA06BE16B814219D994F945200C
:10D67000401CA063B2F1FF3F04D0501C84F8450069
:10D6800001200EE0606A0028FAD004F1240000F0C6
:10D690009BF90028F4D0002DF2D001202860EFE79C
:10D6A000002086F3118870BD2DE9F04704468946B5
:10D6B0001746002C03D0B9F1000F08D011E050201C
:10D6C00080F31188BFF34F8FBFF36F8FFEE7206C9D
:10D6D00038B1502080F31188BFF34F8FBFF36F8FA5
:10D6E000FEE7FFF7CBFA5020EFF3118880F31188A3
:10D6F000BFF34F8FBFF36F8FA56BEDB194F944600B
:10D7000049462046FBF70EFE681EA063B6F1FF3FB8
:10D7100004D0701C84F8440001200EE02069002829
:10D72000FAD004F1100000F04FF90028F4D0002FD7
:10D73000F2D001203860EFE7002088F31188BDE8BF
:10D74000F087000070B504460D46002C11D0C5B11D
:10D75000FFF720FA184AD0682968B1F1FF3F18D0C6
:10D760002368126A934216D06268824213D8012459
:10D770001DE0502080F31188BFF34F8FBFF36F8FF0
:10D78000FEE7502080F31188BFF34F8FBFF36F8FF8
:10D79000FEE700240BE06268801A884206D2081A6D
:10D7A00028602046FFF7AAFB002400E00124FFF7D1
:10D7B00011FA204670BD00003C0000202DE9F04F1A
:10D7C00085B081460F9F0E9E8A4690469B464FEA43
:10D7D0008800FBF773FF054628000AD05C20FBF7A2
:10D7E0006DFF04460CB1256304E02846FFF708FAF4
:10D7F00000E000248CB1002003905B464246514675
:10D800000197009602944846FBF739FE2046FBF745
:10D8100017FD05B00120BDE8F08F05B04FF0FF30D7
:10D82000BDE8F08F05484169002903D0006B18B1AD
:10D830000020704701207047022070473C00002004
:10D840000148C068704700003C00002010B5FFF799
:10D8500015FA0148C06810BD3C0000202DE9F047D2
:10D860000026304F386B002808D0B869401CB861DA
:10D87000F86900B101263046BDE8F087F868451C1C
:10D88000FD609DB9786B006838B1502080F3118835
:10D89000BFF34F8FBFF36F8FFEE7786BB96B796380
:10D8A000B863386A401C3862FBF7AAFEB86ADFF832
:10D8B000788085420FD34FF00109786B006838B14A
:10D8C000786BC068C468606885420ED2B86202E0B6
:10D8D0004FF0FF30B8623868C06A00EB800058F83B
:10D8E00020000128C4D90126C2E7201DFFF7ECF86B
:10D8F000A06A18B104F11800FFF7E6F8E16A3A6986
:10D9000009FA01F01043386101EB810008EB800057
:10D91000211DFFF733F9E06A3968C96A8842CCD320
:10D920000126CAE73C0000208C34002070B5044674
:10D930000021002841D0224D2868844207D0502081
:10D9400080F31188BFF34F8FBFF36F8FFEE7206D19
:10D9500038B1401E2065E36CE26A9A422DD040B196
:10D960002BE0502080F31188BFF34F8FBFF36F8FF0
:10D97000FEE7201DFFF7A8F81249012258B9E06A16
:10D9800000EB800351F823302BB92B6902FA00F029
:10D9900023EA00002861E06CE062C0F10700A061AA
:10D9A000E06A2B6982401A432A6100EB800001EB98
:10D9B0008000211DFFF7E2F80121084670BD00003C
:10D9C0003C0000208C34002070B5C068C468002C76
:10D9D00014D004F11800FFF777F8164D286B0126D4
:10D9E000A0B104F118011448FFF7C8F8E06A2968EB
:10D9F000C96A88421CD90120EE6170BD502080F3B5
:10DA00001188BFF34F8FBFF36F8FFEE7201DFFF725
:10DA10005BF8E06A2A6906FA00F1114329610749B7
:10DA200000EB800001EB8000211DFFF7A7F8DDE788
:10DA3000002070BD3C000020403500208C340020C8
:10DA40002DE9F0470024A0462D4D286B002807D073
:10DA5000FFF7A0F8286B401E2863286B40B149E00F
:10DA6000502080F31188BFF34F8FBFF36F8FFEE715
:10DA7000A86800283ED0234F0126386800B3A7F1DC
:10DA8000B409F868C46804F11800FFF71DF8201DF8
:10DA9000FFF71AF8E06A2A6906FA00F111432961D2
:10DAA00000EB800009EB8000211DFFF767F8E06ABA
:10DAB0002968C96A884200D3EE6138680028E0D13D
:10DAC0000CB1FBF79DFDAC6944B1FFF7C7FE00B197
:10DAD000EE61641E002CF8D10020A861E86948B10D
:10DAE0004FF0010808494FF080500860BFF34F8F96
:10DAF000BFF36F8FFFF76EF84046BDE8F087000078
:10DB00003C0000204035002004ED00E034DD00083A
:10DB1000A52C00080000000000000000000100002B
:10DB20002CDD0008AD0A0008FEFF00000000000028
:10DB30000001000024DD000821CE0008FEFF0000E7
:10DB400000000000800000003CDD0008A95A000829
:10DB500003000000000000005E0100000000000063
:10DB6000000000000102030406070809000000008D
:10DB70000102030400000000FFFFFFFF000000009F
:10DB80000C000000690000000B00000071000000A4
:10DB900073000000160000000B000000620000008F
:10DBA000720000006A0000006B000000FFFFFFFF32
:10DBB00067000000680000006B0000000500000026
:10DBC000FFFFFFFFFFFF000000000000000000005B
:10DBD0000000000004000000200006002BA300202D
:10DBE000EC00002094000A00EEA30020F0000020CA
:10DBF0001C000500B9A90020F40000201000080056
:10DC000048AA0020F800002020000500CBAA002030
:10DC1000FC00002018000F006EAB00200001002067
:10DC200010000200D9AC0020040100202C000400E8
:10DC3000FCAC00200801002010000800AFAD00205F
:10DC40000C0100201000080032AE0020100100205E
:10DC500010000A00B5AE00201401002010000A00D8
:10DC600058AF00201801002004020800FBAF00207C
:10DC70001C010020D8DB0008E4DB0008F0DB000812
:10DC8000FCDB000808DC000814DC000820DC0008CD
:10DC90002CDC000838DC000844DC000850DC0008FC
:10DCA0005CDC000868DC000803060C1830607800B3
:10DCB000B4DD0008DCDD0008FCDD0008BCDD000888
:10DCC000A8DD000890DD00089CDD0008F0DD0008FC
:10DCD000C8DD0008D0DD0008E4DD0008010203040F
:10DCE0000506070707070707070000004001002097
:10DCF0003C0100204401002048010020FA000000FF
:10DD0000E9BE0008E80300000D690008E803000010
:10DD10004957000860EA000095410008F40100003E
:10DD2000D14400084C4544320000000044484350B0
:10DD3000000000005374617274000000457468496B
:10DD400066000000A1B7CAFDBEDDB6CEB5C4C4DA18
:10DD5000C8DD3A446174615B335D3D2030782558FD
:10DD600020A3AC446174615B345D3D30782558205C
:10DD7000A3ACB1E0C2EBC6F7D6B53D30782558204C
:10DD8000A3ACB1E0C2EBC6F7D6B53D2564200A00CE
:10DD900046494E5F574149545F31000046494E5F46
:10DDA000574149545F32000045535441424C495356
:10DDB00048454400434C4F534544000053594E5F7F
:10DDC0005243564400000000434C4F53494E470015
:10DDD0004C4153545F41434B000000004C495354A5
:10DDE000454E000054494D455F57414954000000DD
:10DDF000434C4F53455F57414954000053594E5FC0
:10DE000053454E540000000028DE000800000020AA
:10DE1000900100006808000848DE0008900100201A
:10DE2000A0CE0000043600080112031E24F4036390
:10DE3000555065AAAAAAAA059101031C0632C0037F
:08DE4000486E190213C0000036
:040000050800018965
:00000001FF
