:020000040800F2
:10000000281300209D01000893170008ED15000833
:100010009117000845030008711F00080000000048
:10002000000000000000000000000000811800082F
:100030001104000800000000DF1700084119000843
:10004000B7010008B7010008B7010008B7010008B0
:10005000B7010008B7010008B7010008B7010008A0
:10006000B7010008B7010008B7010008B701000890
:10007000B7010008B7010008B7010008B701000880
:1000800049030008B7010008B7010008B7010008DC
:10009000B7010008B7010008B7010008B701000860
:1000A000B7010008B7010008B7010008B701000850
:1000B000B7010008B7010008B7010008B701000840
:1000C000B7010008B7010008B7010008B701000830
:1000D000B7010008151F0008211F0008B70100081C
:1000E000B7010008B7010008B7010008B701000810
:1000F000B7010008B7010008B7010008B701000800
:10010000B7010008B7010008B7010008B7010008EF
:10011000B7010008B7010008B7010008B7010008DF
:10012000B7010008B701000855030008B70100082F
:10013000B7010008B7010008B7010008B7010008BF
:10014000B7010008B7010008B7010008B7010008AF
:10015000B7010008B701000861030008B7010008F3
:10016000B7010008B7010008B7010008B70100088F
:10017000B7010008B7010008B7010008000000003F
:10018000B7010008B7010008DFF80CD000F07AF8DA
:1001900000480047C5220008281300200648804771
:1001A00006480047FEE7FEE7FEE7FEE7FEE7FEE75C
:1001B000FEE7FEE7FEE7FEE7F51900088901000803
:1001C00040EA01039B0703D009E008C9121F08C0D9
:1001D000042AFAD203E011F8013B00F8013B521E59
:1001E000F9D27047D2B201E000F8012B491EFBD2D0
:1001F00070470022F6E710B513460A460446194632
:10020000FFF7F0FF204610BD30B50446002003463E
:1002100000E05B1C934203D2E05CCD5C401BF8D055
:1002200030BD2DE9F05F0546002092469B4688468A
:100230000646814640241BE0284641464746224662
:1002400000F041F853465A46C01A914110D3114666
:100250001846224600F028F82D1A67EB01084F4691
:1002600022460120002100F01FF817EB00094E4143
:10027000201EA4F10104DFDC484631462A464346ED
:10028000BDE8F09F064C074D06E0E06840F0010332
:1002900094E8070098471034AC42F6D3FFF778FF94
:1002A0004023000860230008202A04DB203A00FADB
:1002B00002F1002070479140C2F1200320FA03F3BD
:1002C000194390407047202A04DB203A21FA02F0BB
:1002D0000021704721FA02F3D040C2F12002914080
:1002E000084319467047000010B580211248FFF7F7
:1002F00080FF124C0E21E068C4F855006069C4F814
:100300004F00208BA4F8530004F14B0000F082F85A
:1003100021780B4801F006FB642000F097FA0648AC
:100320004179D52905D18179412902D1C0790028A7
:1003300000D0012010BD0000300200200400002089
:10034000B0020020FEE70000014800F005B90000FF
:10035000D0010020014800F0FFB80000100100208B
:10036000014800F0F9B8000070010020016818236E
:10037000CAB2103AB2FBF3F2054B6FF30901032A3C
:100380009B5CC36500D9091D816508467047000064
:100390002023000810B5014600208B698A6A4FF0BF
:1003A000C07453B1B3F5005F15D072B1012A0CD0FF
:1003B000022A0AD0032A09D104E01AB1012A06D080
:1003C000022A03D1C96AC90100D5012010BDC96A3A
:1003D000A142FAD010BD002AF7D0012AF2D0022A99
:1003E000F3D0032AF3D010BD30B50468256825F496
:1003F00080252560046863608368402B036803D010
:1004000099600068C26030BD9A600068C16030BD0C
:10041000704700002DE9F041204F0E4605460024AC
:100420003C7064211E48FFF7E4FE701CC1B207F166
:10043000700C4842C2B28CF803108CF804202B4692
:100440000020CCF8085004E015F800E0401C74448B
:10045000E4B2B042F8DB9CF805006546044464420F
:100460008CF80C40CC1D3C700D4C9CF80070277033
:100470009CF8017067709CF80270A770E17022719F
:10048000607132461946A01DFFF79AFEA019297B1C
:100490008171697BC171BDE8F0810000040000201A
:1004A000B00200202DE9F0410446876D00F0C2FA49
:1004B000054694F835000026022806D080206065A5
:1004C00084F834600120BDE8F0812068016821F0E3
:1004D000160101602068416921F080014161206CB2
:1004E00008B9A06C20B12068016821F00801016002
:1004F0002068016821F0010101600BE000F09AFA28
:10050000401B052806D92020606504F8346F0320BD
:100510006070D8E720680068C007EFD194F85C10DD
:100520003F208840B86004F8346F012060700020DC
:10053000C9E790F83510022903D0802141650120D8
:100540007047052180F835100068016821F001012D
:1005500001600020704700002DE9F84304464FF089
:100560000008CDF8008064484FF41651A56D00686E
:10057000B0FBF1F72E6894F85C00082202FA00F153
:10058000314210D02068016849070CD5016821F07C
:100590000401016094F85C0002FA00F1A960606D4A
:1005A00040F00100606594F85C1054488840304287
:1005B00008D021684969090604D5A860606D40F03B
:1005C000020060654D4894F85C10C01C88403042C1
:1005D00008D021680968890704D5A860606D40F0DB
:1005E0000400606594F85C1010208840304218D0F8
:1005F00021680968090714D5A860206801684903C3
:1006000004D50068000308D5A16C07E00168C9059E
:1006100003D4016821F008010160216C09B1204672
:10062000884794F85C102020884030424FF0010643
:1006300031D021680968C9062DD5A86094F8350025
:1006400005282068016806D0490347D500680003E3
:100650001DD4616C1CE021F0160101602068416925
:1006600021F080014161206C08B9A06C20B12068A4
:10067000016821F00801016094F85C103F20884077
:10068000A86084F8348084F83560216D1FE0E16B48
:1006900009B120468847606D00282BD0606DC007E7
:1006A00014D0052084F835002068016821F001018C
:1006B00001600098401C0090B84203D82068006890
:1006C000C007F6D184F8348084F83560E16C0029E5
:1006D00010D001B02046BDE8F04308470168C905C5
:1006E000D5D4016821F01001016084F8348084F8C9
:1006F0003560CCE7BDE8F883880000200100800069
:100700002DE9F041044600F095F905465CB100265C
:1007100084F83460022084F835002068016821F0F4
:10072000010101600DE00120BDE8F08100F082F9D7
:10073000401B052805D920206065032084F835007A
:10074000F2E720680068C007F0D121680A682048F5
:100750000240D4E901031843D4E903352B4318437D
:1007600063691843A3691843E3691843236A18436C
:100770001043626A042A03D1D4E90B231A431043BD
:10078000086020684069656A20F0070128460D432B
:10079000012704280CD1A06A0543E06A40B1204635
:1007A000FFF7F8FD20B14020606584F83570BAE7A6
:1007B000206845612046FFF7D9FD94F85C203F2171
:1007C00091408160666584F835700020ACE70000D8
:1007D0003F8010F02DE9F0410446866D90F834001A
:1007E000002501280DD0012084F8340094F83570DC
:1007F0000020012F07D084F8340002252846BDE8E8
:10080000F0810220FBE7022784F8357060652046FE
:10081000FFF7EAFD94F85C103F208840B060206844
:10082000016841F0160101602068416941F08001D2
:100830004161206C20B12068016841F0080101602D
:100840002068016841F001010160D7E731B500F08F
:10085000F1F8009C0546601C00D0641C00F0EAF82A
:10086000401BA042FAD338BD2DE9F84FDFF88C9138
:10087000002209F1040A0AF1040B4FF00F080BF1F2
:10088000040E01260B6896403340B34271D14C6888
:10089000022C01D0122C11D1D40800EB84073D6A40
:1008A0005407E40E08FA04FC25EA0C05D1F810C040
:1008B0000CFA04FC4CEA050CC7F820C00768540089
:1008C000032591F804C0A5400CF0030CAF430CFACB
:1008D00004FC4CEA070CC0F800C04F68012F05D09B
:1008E000022F03D0112F01D0122F11D18768D1F818
:1008F0000CC0AF430CFA04FC4CEA070CC0F808C06B
:100900004768B7430E79C6F3001696403E434660EB
:10091000C668AE438D68A5403543C5604C68E400A9
:1009200065D5374C256845F480452560246822F05C
:10093000030504F480440094324C2E19D6F808784C
:100940009407250F08FA05F4A7432F4CA04201D1C4
:10095000002424E02D4CA04201D101241FE02C4CA6
:10096000A04201D102241AE02A4CA04202D1032461
:1009700015E03CE0284CA04201D104240FE0274CB4
:10098000A04201D105240AE0254CA04201D1062451
:1009900005E0244CA04201D1072400E00824AC402B
:1009A0003C43C6F80848D9F800404D464E689C4381
:1009B000F60300D51C432C60DAF8004055464E681B
:1009C0009C43B60300D51C432C60DBF800405D4619
:1009D0004E689C43F60200D51C432C60DEF80040B4
:1009E00075464E689C43B60200D51C432C60521CD1
:1009F000102AFFF446AFBDE8F88F0000003C01402C
:100A0000443802400030014000000240000402402F
:100A100000080240000C0240001002400014024096
:100A200000180240001C02400AB1816170470904AD
:100A3000FBE70000014800687047000084000020C8
:100A400002480168491C01607047000084000020D2
:100A50000B4810B5016841F400710160016841F470
:100A600080610160016841F480710160032000F041
:100A700075F8002000F006F800F018F8002010BD0E
:100A8000003C024010B5044607484FF47A710068F4
:100A9000B0FBF1F000F049FB00222146501E00F0AF
:100AA0003DF8002010BD00008800002010B5052092
:100AB00000F054F8002211466FF00B0000F02EF801
:100AC000002211466FF00A0000F028F800221146BB
:100AD0006FF0090000F022F800221146501F00F0CC
:100AE0001DF800221146101F00F018F800221146D0
:100AF000901E00F013F80022BDE810401146501E71
:100B000000F00CB800F01F02012191404009800064
:100B100000F1E020C0F8001170470000F0B40E4B67
:100B20001B68C3F30223C3F10704042C00D9042477
:100B30001D1D072D01D2002300E0DB1E012606FA51
:100B400004F56D1E0D409D409E40761E164045EA00
:100B50000601F0BC00F01FBE0CED00E0064A00F0FC
:100B6000070110684FF6FF03184040EA01200349CF
:100B700008431060704700000CED00E00000FA052B
:100B8000704700002DE9F047DFF85C9104460E46FF
:100B9000D9F8000000F00F01F0B28046B14207D250
:100BA00089F80000D9F8000000F00F00B04271D1C0
:100BB00020784E4F800705D53868A16820F0F000F6
:100BC000084338602078C00756D048496068083923
:100BD00001281AD002281BD0032819D009688907D8
:100BE000002957DA396821F0030101433960FFF722
:100BF00021FF0546606841F28831012811D00228A2
:100C00001CD003288A4625D032E009688903E7E72B
:100C100009688901E4E7FFF70DFF411B514501D940
:100C200023E08A463868C0F381000128F3D123E02D
:100C3000FFF700FF411B514501D916E08A4638688D
:100C4000C0F381000228F3D116E0FFF7F3FE411B49
:100C500051450AD83868C0F381000328F5D10BE06C
:100C6000FFF7E8FE411B514502D90320BDE8F0879C
:100C7000386810F00C0FF3D1D9F80010484601F095
:100C80000F01B14208D980F80080006800F00F0021
:100C9000B04201D00120E9E72078400705D5386847
:100CA000E16820F4E050084338602078000706D55A
:100CB0003868216920F4604040EAC100386000F0E3
:100CC00057F83968F02292FAA2F201F0F001B2FA74
:100CD00082F2D140064A515CC840064908600020B3
:100CE000FFF7D0FE0020C1E7003C02400838024078
:100CF000282300088800002001490120C8647047AB
:100D0000000047420148006870470000880000204A
:100D100008480949006809684FF4E05292FAA2F2C3
:100D200001F4E051B2FA82F2D140044A515CC84069
:100D3000704700008800002008380240382300086F
:100D400008480949006809684FF4604292FAA2F223
:100D500001F46041B2FA82F2D140044A515CC840C9
:100D6000704700008800002008380240382300083F
:100D700030B51948006810F00C01184812D0441022
:100D800004290ED008290DD1134A121F11681368C7
:100D900001F03F015D0247F6C07304D5B4FBF1F0EA
:100DA00003E0204630BDB0FBF1F01168194093FA22
:100DB000A3F3B3FA83F3D940484311684FF44032A8
:100DC00092FAA2F201F44031B2FA82F2D140491C07
:100DD0004900B0FBF1F030BD083802400024F400B7
:100DE000054810B50068000605D5FFF7C9FE0249A1
:100DF0008020891C087010BD0C3802402DE9F84F86
:100E000004460078DFF8F4A2BD4DC00748D0DAF8F8
:100E100000105046C1F38101012908D00068C0F3D9
:100E2000810002280AD1281D0068400206D52868E2
:100E3000800335D56068002870D031E06068B0F577
:100E4000803F10D0B0F5A02F286810D020F480305B
:100E50002860286820F4802028606068A0B1FFF72F
:100E6000E9FD06460CE0286840F48030F4E740F4E1
:100E700080202860F7E7FFF7DDFD801B642873D82A
:100E800028688003F7D50BE0FFF7D4FD064604E0A1
:100E9000FFF7D0FD801B6428F1D828688003F7D4C1
:100EA0002078DFF8608280074FF0010B4FF00009D7
:100EB00043D5DAF80010504611F00C0F4FF0F80748
:100EC00009D00068C0F3810002280BD18B48001FB5
:100ED0000068400206D42868800713D5E06801281E
:100EE0001CD10FE0E068D0B1C8F800B0FFF7A2FD58
:100EF000064604E0FFF79EFD801B0228BFD8286845
:100F00008007F7D5286897FAA7F22169B2FA82F22A
:100F100020F0F8009140084328600EE0EBE0C8F8AC
:100F20000090FFF787FD064604E0FFF783FD801B76
:100F3000022819D828688007F7D42078000722D51E
:100F40006E4F714861696C3779B1C0F800B0FFF736
:100F500071FD064604E0FFF76DFD801B022803D8F3
:100F600038688007F7D50EE079E0C0F80090FFF709
:100F700061FD064604E0FFF75DFD801B02286ED888
:100F800038688007F7D42078400750D55B48383060
:100F9000016841F08051016000685C4F00F08050B2
:100FA0000090386840F480703860FFF743FD0646D3
:100FB00004E0FFF73FFD801B022850D83868C005C9
:100FC000F7D54E4FA068683701280FD0052838683C
:100FD00010D020F001003860386820F0040038603C
:100FE000A068B0B1FFF726FD06460EE0386840F075
:100FF0000100F4E740F004003860F7E7FFF71AFD5E
:10100000811B41F2883081426DD838688007F5D560
:101010000DE0FFF70FFD064606E0FFF70BFD811B15
:1010200041F2883081425ED838688007F5D4A069E3
:10103000F0B3DAF80010C1F3810102295BD0022875
:10104000484605D0C8F86000FFF7F4FC04464DE0C0
:101050004746C8F86000FFF7EDFC064605E042E0B1
:10106000FFF7E8FC801B02283DD828688001F7D4F0
:10107000D4E90701084347F6C07292FAA2F2616A06
:10108000B2FA82F29140A26A4FF0FF3303EB5202B0
:101090004FF4403393FAA3F3B3FA83F39A40114326
:1010A0004FF0706292FAA2F20843B2FA82F200E0C4
:1010B0001FE0E16A914008431049091F0860C7F822
:1010C00060B0FFF7B7FC044604E0FFF7B3FC001B79
:1010D000022808D828688001F7D50AE0FFF7AAFCA3
:1010E000001B022802D90320BDE8F88F2868800180
:1010F000F4D40020F8E70120F6E7000008380240A9
:101100000038024000004742800E47420070004015
:101110004FF0E0210428086903D020F004000861A2
:10112000704740F00400FAE7704710B5401EB0F178
:10113000807F01D3012010BD4FF0E02460610F21BA
:10114000601700F028FB0020A0610720206100202C
:1011500010BD10B5FFF7E8FF10BD10B504460068DC
:10116000416994F83920C1F3C011212A0BD151B142
:10117000416921F080014161206B08B1FFF792F9CC
:10118000204600F0BFFC2068416994F83A20C1F382
:101190008011222A0BD151B1416921F040014161F6
:1011A000606B08B1FFF77EF9204600F09DFC00203F
:1011B00010BD704770B5026804461068D168536965
:1011C00010F00F0F50D003F0010501F49076354375
:1011D0005DD0C20705D0CA0503D5E26B42F001021B
:1011E000E263420705D5DA0703D0E26B42F0020260
:1011F000E263820705D5DA0703D0E26B42F004020E
:10120000E263020705D5DA0703D0E26B42F0080279
:10121000E263E26B002A33D0800604D5880602D54B
:10122000204600F078FC20684069E16BC0F3801034
:10123000090700D428B3204600F056FC2068416915
:1012400049061AD5416921F040014161606BA0B1A6
:101250001B490165606BFFF76CF9002810D0606BCB
:10126000016DBDE870400847830610D58B060ED58A
:101270002046BDE8704000F04EBC2046FFF799FFC5
:1012800070BD2046FFF795FF0020E06370BD0306A8
:1012900006D50B0604D52046BDE8704000F0D8BD49
:1012A0004006F3D54806F1D5D168204621F040012B
:1012B000D160202184F8391000F097F970BD00004A
:1012C000491A000870B5040004D094F839000025CC
:1012D00010B106E0012070BD84F83850204600F0BF
:1012E00023F8242084F839002068C16821F40051D3
:1012F000C160204600F056FC2068016921F490414D
:1013000001612068416921F02A0141612068C168BA
:1013100041F40051C160E563202084F8390084F86D
:101320003A00002070BD00002DE9F04F044600682F
:101330004C4A022101260727002587B04FF0400ABA
:101340004FF000684FF48069904247D146480268E8
:1013500042F010020260006800F010000590C0200A
:101360008DE843000320CDE9030769463F48FFF7B6
:101370007BFA404E3E484F463060C6E90185C6E9DB
:1013800003597561B561F561356230467562FFF7E5
:10139000B7F918B1842138A000F006FE6663B46383
:1013A000344E334860367830C6E903577561B5610D
:1013B000F5613562756286E801053046FFF7A0F9F0
:1013C00018B196212CA000F0EFFD266300221146F3
:1013D0002520B463FFF7A2FB25203DE02A4A904276
:1013E0003CD12148001F026842F4003202600068CC
:1013F000DFF898B000F4003005902020CDE900011E
:10140000CDE9031769465846FFF72EFACDF800A03C
:101410000497CDE9015669465846FFF725FA154E5F
:101420001B48C0363060C6E90185C6E903597561BD
:10143000B561F561356230467562FFF761F918B143
:10144000CF210DA000F0B0FD6663022211462620D8
:10145000B463FFF763FB2620FFF754FB07B0BDE83A
:10146000F08F0000001001404438024000040240A8
:1014700040640240100100202E2E5C5372635C75A4
:10148000736172742E63000000440040000C02403F
:101490008860024037B5044690F83A0082B013469F
:1014A00020283AD1039AAAB3A3B394F838000128AC
:1014B00033D0012084F83800A262A3850025E563BB
:1014C000222084F83A00616B1548C863616B1548A7
:1014D0000864616B1448C864606B05652168606BC3
:1014E000091DFFF777F9206801684168009184F8C9
:1014F0003850C16841F48071C1602068416941F091
:10150000010141612068416941F0400141610020D1
:1015100005B030BDFFE70120FAE70220F8E7000040
:10152000A31A0008DF1A0008591A0008704770470C
:101530002DE9F843044690F839001E4617460D463B
:10154000202850D1A5B19FB194F8380001284AD085
:10155000012084F838004FF00008C4F83C802120B6
:1015600084F83900FFF766FAA7848146E78426E00D
:101570000120BDE8F883E08C401EE084A0684B4663
:10158000B0F5805F4FF000024FF0800120460096DA
:1015900003D000F08EFCE8B90DE000F08AFCC8B979
:1015A00028882168C0F308004860206908B16D1CD4
:1015B00005E0AD1C03E0216815F8010B4860E08CE4
:1015C0000028D8D14B46002240212046009600F04A
:1015D00070FC08B10320CCE7202084F8390084F89F
:1015E00038800020C5E70220C3E77047FEE700000F
:1015F000154808B5016841F480010160016801F4F3
:1016000080010091016841F400110160006800222E
:1016100000F40010009011461020FFF77FFA102010
:10162000FFF770FA002211463A20FFF777FA3A20C6
:10163000FFF768FA002211464620FFF76FFABDE86F
:1016400008404620FFF75EBA303802402DE9F041ED
:10165000264886B00024016841F01001016001684D
:1016600001F010010591016841F0800101600168FD
:1016700001F080010591016841F0010101600168FC
:1016800001F001010591016841F008010160016864
:1016900001F008010591016841F002010160006854
:1016A000134F00F002000590012260213846FFF739
:1016B000BBF90122DFF83C80560231464046FFF775
:1016C000B3F9602000900125CDE901546946384600
:1016D0000394FFF7C9F80096CDE9015469464046E6
:1016E0000394FFF7C1F806B0BDE8F081303802403E
:1016F00000100240001C02400D4810B50B4901606B
:101700004FF4E1314160002181600C22C160C0E9E9
:1017100004128161C161FFF7D5FD002805D0BDE845
:101720001040472103A000F03FBC10BD0010014055
:10173000900000202E2E5C5372635C75736172748E
:101740002E6300000D4810B50B4901604FF4E131E4
:101750004160002181600C22C160C0E904128161F6
:10176000C161FFF7AFFD002805D0BDE810405A2148
:1017700003A000F019BC10BD00440040D0000020C0
:101780002E2E5C5372635C75736172742E6300005D
:10179000FEE7FFF725BB0907090E002806DA00F06F
:1017A0000F0000F1E02080F8141D704700F1E020E8
:1017B00080F80014704710B5044600F0DBFB0028E9
:1017C0000CD100F05FF8002808D1FEF78DFD00284D
:1017D00004D12046BDE8104000F002B810BD7047AB
:1017E00070B5044680211948FEF703FD184804210E
:1017F000C470FEF70FFE1648001F0178154800F070
:1018000091F86420FFF722F8104D6879D52804D1AB
:10181000A879412801D1E87908B1012070BD0EA056
:1018200000F0C4FB10A000F0C1FB10A000F0BEFB54
:1018300000242819017A10A000F0B8FB641C102CB9
:10184000F7DB09A000F0B2FB002070BD30020020E1
:1018500008000020B0020020726561642073756387
:101860006365737321200A000A00000052656164F9
:1018700020446174613A0000307825782C00000023
:101880007047000070B580211948FEF7B2FC0321B3
:101890001848FEF7BFFD174D17486D1E297800F058
:1018A00041F86420FEF7D2FF114C6079D52802D1AF
:1018B000A0794B2801D0012070BD10A000F076FB6C
:1018C00012A000F073FBD4F80D00E86010A000F047
:1018D0006DFB084D00240B3510A0295D00F066FB60
:1018E000641C042CF8DB09A000F060FB002070BD34
:1018F0003002002005000020B00200207363616EFA
:10190000207375636365737321200A000A00000069
:10191000436172642049443A000000003078257821
:101920002C00000070B50C4605466423224629466B
:101930000248FFF7FDFD0028F7D170BDD000002060
:1019400010B5FFF77DF8BDE81040FFF702BC0000BE
:1019500030B5264893B00025016841F08051016000
:10196000006800F0805011902148016841F48041E6
:1019700001600068022400F4804011900120009072
:10198000000401908001CDE90640082008904FF442
:10199000A870CDE9090404200B906846FFF72EFAE1
:1019A00000B1FEE70CA90F2081E831004FF4A050F0
:1019B0000F904FF48050109005210CA8FFF7E2F82B
:1019C00000B1FEE7FFF798F9FFF79CF94FF47A7141
:1019D000B0FBF1F0FFF7A9FB0420FFF799FB002211
:1019E0001146501EFFF79AF813B030BD4038024040
:1019F000007000401048016841F4700101600F4818
:101A0000016841F0010101600C4A002108321160B7
:101A100002680B4B1A400260031D0A4A1A600268F2
:101A200022F48022026005480C3001600249580609
:101A3000803908607047000088ED00E000380240FF
:101A4000FFFFF6FE1030002410B5806B0021C18529
:101A5000C184FFF7AEFB10BD70B5846B2068406990
:101A600094F83910C0F3C0100025212904D118B111
:101A7000E584204600F046F82068406994F83A1062
:101A8000C0F38010222904D118B1E585204600F06A
:101A90002BF8E06B40F01000E0632046FFF789FB75
:101AA00070BD10B50146806B09680968C90513D47B
:101AB0000021C1850168CA6822F48072CA60016889
:101AC0004A6922F001024A6101684A6922F0400233
:101AD0004A61202180F83A10FFF728FD10BD10B5AB
:101AE000806BFFF724FD10BD0168CA6822F4907274
:101AF000CA6001684A6922F001024A61202180F827
:101B00003A1070470168CA6822F0C002CA602021FA
:101B100080F83910704710B590F83A10222901D09A
:101B2000022010BD8168B1F5805F11D001690029E4
:101B300001681FD0496801F07F03816A4A1C8262F4
:101B40000B70C18D491E0904090CC18518D026E00F
:101B50000269816A002A0268526805D0D2B20A80FE
:101B6000816A491C8162ECE7C2F308020A80816A3B
:101B7000891CF7E74A68816A4B1C83620A70E0E7B8
:101B80000168CA6822F49072CA6001684A6922F04A
:101B900001024A61202180F83A10FFF7C7FC0020BB
:101BA00010BD00002DE9F04104460068016921F4F0
:101BB0004052E168114301612068C16849F20C623A
:101BC00091432369A268E5691A4363692B431A4369
:101BD0000A43C26020684169A26921F440710A4346
:101BE0004261E0696425B0F5004F974A9749206843
:101BF0004FF032083FD0884201D090427CD1FFF7AD
:101C00009FF800EBC00101EB001061688900B0FB98
:101C1000F1F6FFF795F800EBC00101EB00106168E9
:101C20008900B0FBF1F0B0FBF5F06FF0180148430C
:101C300006EB800108EB0110B0FBF5F000F0F006B8
:101C4000FFF77EF800EBC00101EB0010616889002E
:101C5000B0FBF1F0B0FBF5F006EB0016FFF770F803
:101C600000EBC00101EB001061688900B0FBF1F7E7
:101C7000FFF766F8D2E0884201D090423DD1FFF7ED
:101C80005FF800EBC00101EB001061684900B0FB98
:101C9000F1F0B0FBF5F00601FFF752F800EBC001E0
:101CA00001EB001061684900B0FBF1F7FFF748F85D
:101CB00000EBC00101EB001061684900B0FBF1F0DE
:101CC000B0FBF5F06FF01801484307EB800108EB1B
:101CD000C100B0FBF5F000F0F80006EB4006FFF79E
:101CE0002FF800EBC00101EB001061684900B0FB68
:101CF000F1F7FFF725F83CE055E0FFF709F800EBB6
:101D0000C00101EB001061684900B0FBF1F0B0FBCD
:101D1000F5F00601FEF7FCFF00EBC00101EB00103F
:101D200061684900B0FBF1F7FEF7F2FF00EBC0017C
:101D300001EB001061684900B0FBF1F0B0FBF5F079
:101D40006FF01801484307EB800108EBC100B0FBBE
:101D5000F5F000F0F80006EB4006FEF7D9FF00EBC7
:101D6000C00101EB001061684900B0FBF1F7FEF71C
:101D7000CFFF00EBC00101EB001061684900B0FB30
:101D8000F1F0B0FBF5F06FF01801484307EB80016C
:101D900008EBC100B0FBF5F000F00700216830440B
:101DA0008860BDE8F081FEF7B3FF00EBC00101EBF6
:101DB000001061688900B0FBF1F6FEF7A9FF00EBA7
:101DC000C00101EB001061688900B0FBF1F0B0FBCD
:101DD000F5F06FF01801484306EB800108EB0110A5
:101DE000B0FBF5F000F0F006FEF792FF00EBC0014B
:101DF00001EB001061688900B0FBF1F0B0FBF5F079
:101E000006EB0016FEF784FF00EBC00101EB0010AB
:101E100061688900B0FBF1F7FEF77AFF00EBC001C3
:101E200001EB001061688900B0FBF1F0B0FBF5F048
:101E30006FF01801484307EB800108EB0110B0FB7D
:101E4000F5F000F00F00A9E7001401400010014078
:101E500090F83910212901D0022070478168B1F52E
:101E6000805F016A0BD04A1C0262026809785160E7
:101E7000C18C491E0904090CC1840ED017E00988E1
:101E80000268C1F30801516001690029016A02D0AA
:101E9000491C0162ECE7891CFBE70168CA6822F073
:101EA0008002CA600068C16841F04001C160002042
:101EB00070472DE9F0411E46174688460446069DA8
:101EC0001CE0681C1AD025B1FEF7B4FD801BA842A7
:101ED00014D92068C16821F4D071C16020684169BB
:101EE00021F001014161202084F8390084F83A0092
:101EF000002084F838000320BDE8F08120680168E4
:101F000038EA010004D00020B842DAD00020F3E71C
:101F10000120F9E70148FFF74DB9000090000020CB
:101F20000F4808B500680168C1F3001199B1016854
:101F3000406800900A48FFF710F90A4800684068B6
:101F40008022C0F1800108480170012141700749D9
:101F50000348FFF79FFABDE808400148FFF72AB998
:101F6000D0000020D001002000000020300200201E
:101F7000FEE7000010B580210948FEF73AF9182164
:101F80000848FFF7CFFC3220FEF760FC0548092225
:101F900003491830FEF738F9002800D0012010BDA1
:101FA000300200202E000020FEE700000FB4054B99
:101FB00010B503A9044A029800F018F810BC5DF8A7
:101FC00014FB0000AD2200088C00002002E008C8CD
:101FD000121F08C1002AFAD170477047002001E0A3
:101FE00001C1121F002AFBD1704700002DE9FF4FED
:101FF0008DB09B460F460446002606E025280BD0F0
:102000005A460F999047641C761C20780028F5D119
:1020100011B03046BDE8F08F0025A846012298494E
:1020200000E0054314F8013F203B02FA03F00842A8
:10203000F7D120782E2817D114F8010F45F00405A8
:102040002A280ED06FF02F022078A0F13001092944
:102050000AD808EB880102EB410100EB0108641C7F
:10206000F2E757F8048B641C20786C280DD004DC50
:102070004C2812D06A2811D104E074280DD07A2897
:102080000CD10AE045F4001507E0617845F48015AD
:10209000814202D1641C05F58015641C2278692AEE
:1020A00045D008DC002AB3D0582A69D0632A10D062
:1020B000642A08D13BE0702A67D0732A13D0752AAE
:1020C0005CD0782A5CD010465A460F999047761C0F
:1020D000D3E017F8040B8DF8000000208DF8010004
:1020E000E946012003E057F8049B4FF0FF306907F1
:1020F0004FF0000501D40AE06D1C45450DDA85421C
:10210000FADB19F805100029F6D106E06D1C8542AE
:10211000FCDB19F805100029F8D12E4404E019F869
:10212000010B5A460F9990476D1EF8D2A5E00A2080
:102130000021CDE90801C5F3025002280DD001CFDE
:10214000C117031E71F100030DDA4FF0000CD0EB44
:102150000C006CEB01012D2308E0FF1D27F00707A1
:10216000F7E80201EDE72B0504D52B238DF8283085
:1021700001233BE0EB0739D02023F7E70A2000E0FA
:1021800010200021CDE9080107E01020002145F0D2
:102190000405CDE908014FF00808C5F302500228F4
:1021A0000FD001CF00214FF0000A2B071FD5702A56
:1021B0000DD0DDE908C38CF0100C5CEA030C0CD0E8
:1021C00015E0FF1D27F00707F7E80201EBE74022C3
:1021D0008DF828204FF0010A0BE050EA010306D0E9
:1021E00030238DF828308DF8292002239A46582A6A
:1021F00004D024A20DF120090B9209E026A2F9E7F0
:10220000DDE90823FEF70DF80B9B9B5C09F8013D07
:1022100050EA0102F4D1ADEB0900203008906807C4
:1022200001D44FF001080899884502DDA8EB0100B0
:1022300000E000208046002506E00AA85A46405DDE
:102240000F9990476D1C761C5545F6DB04E0302055
:102250005A460F999047761CB8F10001A8F1010881
:10226000F5DC05E019F8010B5A460F999047761CEA
:102270000899481E08900029F4DC641CC5E600009B
:10228000092801003031323334353637383961624C
:102290006364656600000000303132333435363710
:1022A00038394142434445460000000013B54FF61B
:1022B000FF73012269460248FFF73AF900981CBDF6
:1022C00090000020FEF7C4FBFFF742FBFFF7BEF9CA
:1022D000FFF78EF9FFF710FAFFF734FA0E4800689F
:1022E000C16841F01001C16080220C490A48FFF723
:1022F000D1F84FF47A740020FFF75DFA0120FFF760
:102300005AFA0220FFF757FA0320FFF754FA204643
:10231000FEF79CFAEFE70000D0000020300200201A
:102320000006101600061016000000000000000055
:10233000010203040607080900000000010203046B
:10234000602300080000002090000000CC1F00085F
:10235000F02300089000002098120000DC1F000805
:1023600000000000004A0200400130024001B002BB
:102370000000000000000000FFFFFFFFFFFF400122
:10238000C102010000004001C002010000005555DB
:102390000000000000000000000000000000FF033B
:1023A000FDD4140117000000FF02FED515160040F1
:1023B000016002FFFFFFFFFFFF010203044001A0D5
:1023C00002010203040506070809000102030405CF
:1023D000060000000000FF0000D400000000000024
:1023E00000000000000000000024F40000000000D5
:040000050800018965
:00000001FF
