:020000040800F2
:1000000060D300205902000843340008473200083A
:10001000413400081D090008614600080000000086
:100020000000000000000000000000009D0100082A
:10003000910C000800000000F1010008BD3C000820
:1000400073020008730200087302000873020008BC
:100050007302000899340008730200087302000854
:10006000730200087302000873020008730200089C
:10007000730200087302000873020008730200088C
:10008000730200087302000873020008730200087C
:1000900021090008730200087302000873020008B7
:1000A000730200087302000873020008730200085C
:1000B000730200087302000873020008730200084C
:1000C000730200087302000873020008730200083C
:1000D000730200087302000873020008A9450008B3
:1000E000730200087302000873020008730200081C
:1000F000730200087302000873020008730200080C
:1001000073020008730200087302000873020008FB
:10011000953E000873020008C13D00087302000804
:1001200073020008730200087302000873020008DB
:1001300073020008090D000873020008730200082A
:1001400073020008730200087302000873020008BB
:10015000730200087302000873020008B545000826
:10016000730200087302000873020008730200089B
:100170007302000873020008730200080000000008
:100180007302000873020008DFF80CD000F0DCFAFC
:1001900000480047998E000860D300202B4B196857
:1001A0000868B0E8F04F80F30988BFF36F8F4FF015
:1001B000000080F3118870470000000006480068C6
:1001C000006880F3088862B661B6BFF34F8FBFF353
:1001D0006F8F00DF00BF00BF08ED00E0DFF80C000C
:1001E000016841F470010160704700BF88ED00E0D4
:1001F000EFF30980BFF36F8F144B1A681EF0100FD6
:1002000008BF20ED108A20E9F04F106008B44FF0CD
:10021000500080F31188BFF34F8FBFF36F8F0EF044
:1002200011F94FF0000080F3118808BC19680868C4
:10023000B0E8F04F1EF0100F08BFB0EC108A80F34A
:100240000988BFF36F8F704700BF00BF8C0000208C
:10025000EFF30580704700000648804706480047D6
:10026000FEE7FEE7FEE7FEE7FEE7FEE7FEE7FEE766
:10027000FEE7FEE7693D0008890100080649074AD4
:100280000868504343F23902104408604008704740
:100290000149086070470000DC0100206D4EC64136
:1002A00040EA01039B0703D009E008C9121F08C0F8
:1002B000042AFAD203E011F8013B00F8013B521E78
:1002C000F9D27047D2B201E000F8012B491EFBD2EF
:1002D00070470022F6E710B513460A460446194651
:1002E000FFF7F0FF204610BD421C10F8011B00294B
:1002F000FBD1801A704730B504460020034600E069
:100300005B1C934203D2E05CCD5C401BF8D030BD57
:10031000034611F8012B00F8012B002AF9D11846E9
:10032000704700F0004230F000400AD0C10D01F5E6
:100330006071C0F3160042EA0151C2084007114340
:10034000704700200146704730B50B46014600203B
:100350002022012409E021FA02F59D4205D303FA87
:1003600002F5491B04FA02F52844151EA2F1010208
:10037000F1DC30BD2DE9F05F0546002092469B463A
:1003800088460646814640241BE0284641464746AB
:10039000224600F0FAF953465A46C01A914110D34A
:1003A00011461846224600F0E1F92D1A67EB0108C4
:1003B0004F4622460120002100F0D8F917EB000932
:1003C0004E41201EA4F10104DFDC484631462A4696
:1003D0004346BDE8F09F2DE9FE4F804681EA0300C9
:1003E000C00F0C46009021F0004123F00045B8EB0F
:1003F0000200A94105D24046214690461C460B46C4
:10040000024623F00040104347D0270DC7F30A00EF
:10041000C3F30A510290401A019040286BDAC3F3EB
:10042000130040F4801B0098924620B10023D2EBC9
:10043000030A63EB0B0B01985946C0F1400250468A
:1004400000F094F906460D4650465946019A00F0D0
:10045000ACF910EB08006141002487EA115284EAEC
:10046000E7731A4340D0009A62B3019A012A4FEA17
:10047000075215DC001B61EB02014FF0004202EA5B
:100480000752CDE90042001C41F5801132462B464F
:1004900000F0ACF903B0BDE8F08F40462146F9E723
:1004A000001B61EB0201001C41F5801300185B4149
:1004B0002018A2F5001747EB030140EAD570B619E2
:1004C0006D4111E06D084FEA360645EAC0754FEA06
:1004D0000752001B61EB0201001C41F58011490825
:1004E0004FEA30000019514132462B4603B0BDE8B7
:1004F000F04F00F06CB90098012240000023D0EBCF
:10050000020263EBE073009821464FEAE074B8EB17
:10051000000061EB0401E9E783F000435BE781F051
:10052000004158E72DE9FE4F81EA030404F000443E
:1005300021F0004100944FF0000B23F0004350EAFB
:1005400001045ED052EA03045BD0C3F30A54C1F342
:100550000A552C44A4F2F3340194A0FB0254C1F3D5
:10056000130141F48011C3F3130343F4801301FB1F
:10057000024400FB034E840A970A44EA815447EA86
:100580008357A4FB076802958D0A05FB07854FEA90
:10059000932C04FB0C542705029D4FEA065847EAAA
:1005A0001637B5EB08056EEB070C870E920E47EA7F
:1005B000811742EA8312A7FB0201B6EB0B0164EB41
:1005C00000042B0D43EA0C335E1844EB1C50DA4652
:1005D0005146E7FB0201C5F313044FEA0B3343EA2C
:1005E00014534FEA0432019C43EA0603A4F10C04BD
:1005F0000294009CCDE900B400F0F8F803B0BDE827
:10060000F08F00200146F9E72DE9F04D81EA03045F
:1006100004F0004B21F0004514464FF0000A23F08F
:10062000004150EA050220D054EA01021DD0C5F372
:100630000A570246C5F31303C1F31300C1F30A5668
:1006400040F4801543F48013A7EB0608101BD64630
:1006500008F2FD3873EB050002D308F1010801E050
:1006600092185B41B8F1000F03DA00200146BDE8A3
:10067000F08D00204FF48011064684460EE0171BD3
:1006800073EB050705D3121B63EB050306434CEA26
:10069000010C49084FEA300092185B4150EA01070B
:1006A000EDD152EA030012D082EA040083EA050188
:1006B000084305D0101BAB4106D20122002306E0FF
:1006C00000224FF0004302E06FF0010253101AEBDA
:1006D00006004CEB085110EB0A0041EB0B01BDE8A2
:1006E000F04D00F074B8C1F30A52C1F3130140F2A7
:1006F000FF3341F480119A4202DA0020014670472C
:1007000040F233439A42A2F2334202DC524200F0FA
:100710003CB800F02BB8000030B5041E71F10004A5
:1007200004DB4FF00044404264EB0101141E73F1FE
:10073000000405DB1C464FF00043524263EB040308
:10074000994208BF904230BD064C074D06E0E06874
:1007500040F0010394E8070098471034AC42F6D308
:10076000FFF716FDD4F50008F4F50008202A04DB95
:10077000203A00FA02F1002070479140C2F12003B4
:1007800020FA03F3194390407047202A04DB203AF3
:1007900021FA02F00021704721FA02F3D040C2F1A1
:1007A00020029140084319467047202A06DBCB17E8
:1007B000203A41FA02F043EAE07306E041FA02F31C
:1007C000D040C2F12002914008431946704710B54D
:1007D000141E73F1000408DA401C41F10001921864
:1007E0005B411A4301D120F0010010BD2DE9F04D0D
:1007F00092469B4611B1B1FA81F202E0B0FA80F262
:1008000020329046FFF7B2FF04460F4640EA0A0046
:1008100041EA0B0153465A46084313D0114653EAA6
:10082000010019D0C8F140025046FFF7AEFF05465F
:100830000E46504659464246FFF798FF084305D0FA
:10084000012004E020463946BDE8F08D0020054334
:1008500046EAE0762C4337430A986305E40AA0EBA6
:1008600008000022FD0A44EA47540A3002D500205D
:100870000146E9E7010510196941DDE9084500195C
:100880006941BDE8F04DA2E770B58C1810F8015B26
:1008900015F0070301D110F8013B2A1106D110F819
:1008A000012B03E010F8016B01F8016B5B1EF9D11D
:1008B0002B0705D40023521E0DD401F8013BFAE7A3
:1008C00010F8013BCB1A921C03E013F8015B01F80E
:1008D000015B521EF9D5A142D8D3002070BD0000A3
:1008E00010B582B00C480B490160292141600024F9
:1008F000846040F2E731C16002F0AFF9012000905E
:1009000001946946044802F075F9034802F0E0F9E1
:1009100002B010BD00100040A4340020FEE700002B
:10092000014800F0EBBB0000A033002010B5002907
:100930007ED0826B4FF4D873D0F800C003EB011364
:100940005CF803C00CF0040CC2F808C0BCF1000F46
:1009500077D0D0F800C05CF803C04FEADC0CC2F8D6
:1009600004C0D0F800C05CF8033003F00203D36089
:100970004FF4DA73D0F800C003EB01135CF803C046
:100980000CF00F0CC2F810C01162D0F800C05CF877
:100990000330C3F30723D3614FF4DC73D0F800C0F6
:1009A00003EB01135CF803C082F814C0D0F800C058
:1009B0005CF803C04FEA1C2C82F815C0D0F800C0C8
:1009C0005CF803C04FEA1C4C82F816C0D0F800C097
:1009D0005CF803301B0ED3754FF4DE73D0F800C003
:1009E00003EB01135CF803C082F818C0D0F800C014
:1009F0005CF803C04FEA1C2C82F819C0D0F800C084
:100A00005CF803C04FEA1C4C82F81AC0D0F800C052
:100A10005CF803301B0ED3762022D9B103681A612B
:100A20000268536923F05003536190F83C2001E0C1
:100A300005E006E0222A15D0322A13D017E0426BD7
:100A400078E7D0F800C05CF803C04FEA5C5CC2F8FD
:100A500000C086E70368DA600268536923F00A037E
:100A60005361E2E70268536923F40F435361122391
:100A7000012269B190F83C1052291FD0622920D080
:100A8000722922D080F83C2000F0D6FD002010BD55
:100A900090F83C10422906D0622907D0722909D06B
:100AA00080F83C20F0E780F83C30EDE7322180F818
:100AB0003C10E9E7522180F83C10E5E780F83C3033
:100AC000E2E7222180F83C10DEE7422180F83C106A
:100AD000DAE710B501684A6922F001024A6190F82C
:100AE0003C10122904D101684A6922F40F424A617C
:100AF00090F83C1042290AD052290CD072290ED00D
:100B0000012180F83C1000F02FFE002010BD2221B2
:100B100080F83C10F7E7322180F83C10F3E76221BF
:100B200080F83C10EFE7000088B004460227DFF8A9
:100B3000C0A0304D4FF003084FF004096FF07F4B19
:100B40000026287801280BD0022814D00528F8D1D7
:100B5000204605F06DFA2E7027A003F083FDF0E724
:100B60006660A660E6602F70204605F017FA26A0A2
:100B700003F078FDE5E7204605F06CFA80B185F8D2
:100B80000080201D06F0B6FD024629A1684603F04C
:100B900079FD694627A003F065FD0CF0C1FCD0E7A4
:100BA000606A807A0428CCD985F80090204605F048
:100BB0003FFACDF81CA0CDF818B02948059005AB38
:100BC00006AA07A9204608F045FE201D06F092FD62
:100BD000024617A1684603F055FD22A003F042FD2E
:100BE000694625A003F03EFD0CF09AFCA9E7000041
:100BF000C0A8010E04000020B6CFBFAAC1B4BDD367
:100C0000C1CB202121200A00202053746174653A51
:100C1000204C6F6F6B696E6720666F72204448438B
:100C20005020736572766572202E2E2E0A00000009
:100C300025730000495020616464726573732061FC
:100C4000737369676E65642062792061204448434C
:100C500050207365727665723A2025730A00000091
:100C6000C0A80101444843502054696D656F7574F4
:100C7000202121200A000000537461746963204917
:100C80005020616464726573733A2025730A000012
:100C90007047006800F58050816941F00201816170
:100CA0007047006800F58050816941F4005181610E
:100CB0007047000081B007494FF4FA520968B1FB50
:100CC000F2F14843009000BF0098411E0091FAD213
:100CD00001B070471400002038B50446206800F5C4
:100CE0008050816941F480118161206800F5805055
:100CF000806900900120FFF7DDFF2168009801F571
:100D00008051886138BD0000014800F0C3BE00007A
:100D1000C03200201079537940EA032301F180406A
:100D200000F5203003641178D37841EA03619378A9
:100D300052781B0443EA02221143416470470000C9
:100D40002DE9F041AEB00446002904D04FF4006014
:100D5000E060C000A06000251095119512951395D4
:100D600014951595E06900287DD016954FF4007014
:100D70001790189519951A951B951C954FF04008DA
:100D8000CDF874801E951F95209521952295239569
:100D900024952595802726972795289529952A9586
:100DA0002B952C9520680168474A1140E368A2689A
:100DB0001A43169B1A4342F40072114301602068E3
:100DC0000668012000F0E3FC206806602068C0F897
:100DD000048020684668012000F0D9FC2068466045
:100DE000206885602068C560206881694FF641727F
:100DF000114041F08001816120688669012000F086
:100E0000C6FC206886612068C5612068C66901202B
:100E100000F0BDFC2068C6610095B8040190029501
:100E200001110391049505950695079504210891F4
:100E3000099040120A9080010B9040120C900D977F
:100E40000E950F95206800F5805081691F4A11406A
:100E500041F0040141F008718161206800F5805083
:100E60008569012000E019E000F091FC206800F5A0
:100E7000805085612168164801F58051086020681E
:100E800000F580500568012000F081FC206800F525
:100E900080500560A069012804D00CE04FF4806008
:100EA000169063E7206800F58050C16941F0400169
:100EB00041F48031C16162692EB02046BDE8F04145
:100EC0000021FFF727BF00000F8120FF233FDEF83E
:100ED0008020C10238B504462068016841F0040151
:100EE00001602068006800900120FFF7E3FE2168A0
:100EF0000098086038BD38B504462068016841F0A4
:100F0000080101602068006800900120FFF7D2FE10
:100F100021680098086038BD10B50A4601460448AB
:100F200000F0B8FF10B14FF0FF3010BD002010BD31
:100F3000C032002008B50020009069460120FFF76C
:100F4000EBFF69460120FFF7E7FF009810F0040F60
:100F500019D069460020FFF7DFFF009810F4805F8A
:100F600013D069461F20FFF7D7FF009810F4805F69
:100F70001DD000F01C0018281BD008281BD01428F6
:100F80001BD0052008BD012008BD4FF4045181434A
:100F900004D010F4005F03D0032008BD022008BD78
:100FA00010F4807F01D0042008BD052008BD062074
:100FB00008BD022008BD032008BD042008BD0000B4
:100FC00070B5054601F0CAF9064C6168401A6428FC
:100FD00007D301F0C3F960602846BDE8704005F012
:100FE0000FBD70BD04000020087D012282404148F1
:100FF000D0F8003243F00103C0F80032D0F80032DC
:1010000023F47C53C0F80032D0F80032D1F824C069
:1010100043EA0C23C0F80032D0F81C329343C0F8E6
:101020001C32CB69002B1AD1D0F80C329343C0F894
:101030000C32B1F80CC04B686CF31F43D1F814C0EC
:1010400000EBCC0CCCF84032B1F808C00B686CF364
:101050001F43D1F814C000EBCC0CCCF84432CB6960
:10106000012B1AD1D0F80C321343C0F80C32B1F86E
:1010700000C04B686CF31F43D1F814C000EBCC0CDC
:10108000CCF84032B1F808C0CB686CF31F43D1F8FC
:1010900014C000EBCC0CCCF844328B693BB1D0F8D7
:1010A00004321343C0F804320B6933B10AE0D0F8BC
:1010B00004329343C0F80432F6E7D0F81432934375
:1010C000C0F814320B69012B04D1D0F81432134349
:1010D000C0F81432096A012904D1D0F81C12114356
:1010E000C0F81C12D0F8001221F00101C0F8001263
:1010F00000207047006400407047000070B504464F
:1011000000252068C168C1F300114269C2F3C00222
:101110001023002902D00AB15D01C3602068016973
:10112000C1F300114269C2F3801219B112B145F442
:10113000806503612068416911F0010F32D0816838
:101140006B4A32EA010120D000218268694B33EA00
:1011500002021CD000228368DFF89CC13CEA030332
:1011600017D00023114319431CD08168C1F34001FB
:101170008268C2F340228068C0F3404011430843B4
:1011800009D02046FFF7A5FC07E00121DDE7012299
:10119000E1E70123E6E745F4006520688168574AE6
:1011A000114381602068C16801F003014069C0F308
:1011B000400021B118B100212046FFF7B7FB20689D
:1011C000016901F003014069C0F3001021B118B1B9
:1011D00001212046FFF7AAFB206C284320642068E9
:1011E000816901F001024169C1F300214369C3F340
:1011F000C0332AB121B11BB1216C41F0010121643E
:101200008169C1F340014269C2F340224369C3F3DB
:10121000C03329B122B11BB1216C41F0020121641C
:101220008169C1F380024169C1F380214369C3F33D
:10123000C0332AB121B11BB1216C41F004012164FA
:10124000816911F0700F08D000214269C2F3C022F9
:101250004369C3F3C03311B136E00121F5E79AB316
:1012600093B3816901F0700140291BD006DC10297D
:1012700009D020290CD0302922D10EE0502916D0D7
:1012800060291DD118E0216C41F00801216417E0AC
:10129000216C41F01001216412E0216C41F0200129
:1012A00021640DE0216C41F04001216408E0216CD3
:1012B00041F08001216403E0216C41F480712164DC
:1012C000816921F070018161206C00280FD02168B4
:1012D00004204860012084F83C002068416921F026
:1012E0005B0121F40F4141612046FFF705FF70BD0E
:1012F00003000004000300080000031019050100AA
:101300002DE9F04104460026002C04D094F83C005E
:10131000002718B107E00120BDE8F08184F83D7096
:10132000204600F0BFF8022084F83C0020680168E5
:1013300021F0020101602068016841F001010160B3
:1013400001F00CF80546206840684FF0030810F0E3
:10135000010F10D101F002F8401B0A2806D984F8C9
:101360003C8084F83D700320BDE8F081206840682F
:1013700010F0010FEED02068416811F0010F70D01D
:10138000A169012950D0016821F080010160E06964
:1013900001284ED02068016821F040010160206AD8
:1013A00001284CD02068016821F020010160606AAA
:1013B00001284AD02068016821F010010160A06A6C
:1013C000012848D02068016821F008010160E06A26
:1013D000012847D02068016821F004010160E1681C
:1013E000A068626908432169114308436168491E86
:1013F00008432168C8612068016821F0010101608B
:1014000000F0ACFF05462068406810F0010F34D0B2
:1014100000F0A4FF401B0A282AD984F83C8084F8F5
:101420003D700320BDE8F081016841F0800101605A
:10143000ADE72068016841F040010160AFE7206836
:10144000016841F020010160B1E72068016841F0C6
:1014500010010160B3E72068016841F008010160F4
:10146000B5E710E02068016841F004010160B6E7CB
:101470002068406810F0010FCAD12068406810F061
:10148000010F00D10126012E05D0042084F83C0074
:101490000120BDE8F0812764012084F83C00002091
:1014A000BDE8F08170B586B00068A0F18041B1F56B
:1014B000C84135D11B48026842F0007202600068E2
:1014C00000F0007000901848026842F480720260D8
:1014D000026802F480720092026842F00202026026
:1014E000006800F0020000904FF40075019502249E
:1014F000029403910926059601A90C4800F018FEF4
:10150000019502940494059601A9094800F010FE83
:1015100000220121142000F06DFF142000F05DFF77
:1015200006B070BD4038024030380240000402402E
:101530000020024010B400290FD190F83C20222A4C
:101540000ED090F83C20422A0AD090F83C20622A23
:1015500006D090F83C20722A02D0012903D012E074
:1015600010BC0220704790F83C20322A37D090F807
:101570003C20522A33D090F83C20622A2FD090F899
:101580003C20722A2BD090F83D20012A2AD001223B
:1015900080F83D204FF0620C722331B390F83C206C
:1015A000122A38D0222A3AD0422A3BD0322280F85E
:1015B0003C20002303640268D2F814C048F601748A
:1015C0004CEA040CC2F814C080F83D3069B30068DE
:1015D000416941F05001416110BC0020704710BCCE
:1015E0000220704710BC0220704790F83C20122A5D
:1015F00007D0322A09D0522A0AD0222280F83C2071
:10160000D7E7422280F83C20D3E780F83CC0D0E7FF
:1016100080F83C30CDE7522280F83C20C9E780F8C2
:101620003CC0C6E780F83C30C3E70068416941F040
:101630000A014161D0E700002DE9F8430646384829
:10164000436B1868012865D1D97D1A7E93F819C0BB
:101650009B7E4FEA0C4C41EA02204CEA0363314F77
:10166000184303B27B80B888181A0FFA80FCA7F8D9
:1016700006C000EE10CADFED2C0AB8EEC00A80EEFC
:10168000201A87ED021A387800B3384642F6E0682F
:10169000456904691CEB080F0ADA0CF5C0404FEAF3
:1016A000E07C201845EB0C0CC7F814C0386116E03C
:1016B00042F6E06084450ADDACF5C0404FEAE07CCC
:1016C000201845EB0C0CC7F814C0386107E04FEA4E
:1016D000EC7014EB0C0C6841C7F810C07861BB804B
:1016E000012038701148009302F0BCFFB7F90610D2
:1016F0000FA002F0B7FF12A07B693A6902F0B2FFB7
:10170000B868FEF70EFE41EC100B12A053EC102B44
:1017100002F0A8FF3046BDE8F8430021FFF70ABFFA
:10172000A0330020180000206F12833A10F5000843
:10173000A1B7C6ABB2EE203A20256420200A0000F3
:10174000A1B7BEE0C0EB203A20256C6C6420200AD3
:1017500000000000A1B7CBD9B6C8203A20252E3012
:101760006620200A00000000704790F8351002291A
:1017700003D08021416501207047052180F8351094
:101780000068016821F0010101600020704731B557
:1017900000F0E4FD0546009CB4F1FF3F00D0641C5E
:1017A00000F0DCFD401BA042FAD338BD2DE9F0412A
:1017B00005460C4695F84500012877D0012785F8A5
:1017C0004570022085F84400002C72D0286801681A
:1017D000434A114063682268D4F80CC01A43A368D6
:1017E00043EA0C031A43AB681A4323691A4363693B
:1017F0001A43EB681A43A3691A43E3691A43236A3D
:101800001A43636A1A43A36A1A43114301602868A2
:1018100006680120FFF7BBFF28680660216BE06ABD
:10182000A26B0843616B11430843E16B0843216CD1
:101830000843616C0843A16C084329684860286824
:1018400046680120FFF7A3FF286846602968E06C1E
:1018500088602968206DC860286881694FF64172E8
:101860001140E36DA26DB4F854C01A43236E43EAED
:101870000C431A43636E1A43A36E1A4311438161EA
:10188000286886690120FFF782FF28688661216F3A
:10189000E06E08432968C8612868C4690120FFF721
:1018A00076FF2868C46114E000E002E00220BDE891
:1018B000F0812868016821F49041EB68AA681A4316
:1018C00011430160286804680120FFF760FF286861
:1018D000046085F84470002085F84500BDE8F0817B
:1018E0000F8120FF2DE9F0034FF0000C90F84540E8
:1018F000012C21D0012780F84570022480F8444053
:101900008162002B21D94FF0004944F2F4585E1E49
:1019100001EB4C14C4F80090C4F80480CCEBCC1557
:1019200005EB450502EB8505A5608569B44507D241
:1019300004F12005E56004E0BDE8F00302207047F3
:10194000E1600CF1010C9C45E2D3026802F5805283
:10195000D16080F84470002180F84510BDE8F003A4
:10196000002070472DE9F003002490F845C0BCF139
:10197000010F1BD0012780F845704FF0020C80F852
:1019800044C0C162002B27D94FF480185E1E01EBC2
:10199000441CCCF80080C4EBC41505EB450502EBF4
:1019A0008505CCF80850C56925B109E0BDE8F0030C
:1019B00002207047DCF8005045F44009CCF8009054
:1019C000B44204D20CF12005CCF80C5001E0CCF864
:1019D0000C10641C9C42DAD3026802F5805211613B
:1019E00080F84470002180F84510BDE8F003002025
:1019F0007047704710B4002290F84510012908D0B4
:101A0000012380F84530022180F844104FF0000C8B
:101A10001FE010BC02207047521C0C6804F4407494
:101A2000B4F5007F0BD00C6814F4407F0CD0826AB0
:101A30004263826B521C8263012A10D010E0016362
:101A40008363C968816204E0846B641C8463C96831
:101A50008162816A0C6814F0004F12D013E00163B8
:101A60000A68C2F30D42121FC263026B92680264DD
:101A7000C968816280F8443080F845C010BC0020FD
:101A80007047042AC8D380F8443080F845C010BCA1
:101A90000120704770B50446206800F58050416908
:101AA0004FF0000611F0400F4FF001050CD020461A
:101AB00000F036FA2168402001F58051486184F831
:101AC000445084F845600EE0406910F0010F0AD0E0
:101AD000204600F0E9FA206800F58050456184F85E
:101AE000445084F8456021684FF4803001F58051FE
:101AF0004861206800F58050406910F4004F0CD018
:101B00002046FFF776FF21684FF4004001F5805131
:101B1000486184F8445084F8456070BD2DE9F04375
:101B200083B0044600270297B846002C03D094F8EF
:101B3000440020B108E003B00120BDE8F08384F840
:101B40004570204600F022F98648016841F4804142
:101B50000160006800F4804001908348016821F42E
:101B6000000101600168226A11430160206800F5EC
:101B70008050016841F00101016000F0EFFB054673
:101B8000206800F58050006810F0010F14D000F0BC
:101B9000E5FB401BB0F5FA7F07D9032084F8440029
:101BA00084F8457003B0BDE8F083206800F58050EC
:101BB000006810F0010FEAD12068006920F01C05D0
:101BC00000F05CFD69496A4A0144914202D245F045
:101BD000080516E06749684A0144914202D245F07F
:101BE0000C050EE06549664A0144914209D36549F6
:101BF00008446549884202D245F0040501E045F0F9
:101C00001005206805614FF400420021204600F0D5
:101C10004CFA4FF0010948B101212046FFF790F836
:101C200084F8449003B00120BDE8F083FF20FFF763
:101C3000AEFD606800286FD000F090FB064641F2D0
:101C4000883502AA0121204600F024F900F086FB25
:101C5000801BA8420BD901212046FFF771F884F8B8
:101C6000449084F8457003B00320BDE8F0830298E7
:101C700010F0040FE5D04FF480520021204600F010
:101C800014FA48B101212046FFF75AF884F844902D
:101C900003B00120BDE8F08300F060FB064602AA15
:101CA0000121204600F0F6F800F058FB801BA84206
:101CB0000BD901212046FFF743F884F8449084F8BB
:101CC000457003B00320BDE8F083029810F0200FA8
:101CD000E5D002AA1021204600F0DCF848B101212D
:101CE0002046FFF72DF884F8449003B00120BDE8AA
:101CF000F083029810F0040F03D04FF40061E1600C
:101D000000E0E76010F0020F01D0A7601FE04FF481
:101D10008040A0601BE0FFE7E068A168C0F3CF004F
:101D2000C1F34F0140EA01020021204600F0BDF955
:101D300048B101212046FFF703F884F8449003B02E
:101D40000120BDE8F08340F6FF70FFF720FD41461B
:101D50002046FEF7F5FF84F8449003B00020BDE86C
:101D6000F0830000443802400438014000D3CEFE26
:101D7000C0E1E40040F1E9FD40787D0100796CFCB0
:101D8000005A6202001F0AFA80F0FA02F0B587B02A
:101D900000243B48016841F001010160016801F045
:101DA00001010191016841F004010160016801F045
:101DB00004010191016841F002010160016801F034
:101DC00002010191016841F040010160016801F0E8
:101DD00040010191016841F000710160016801F06A
:101DE00000710191016841F080610160016801F0BA
:101DF00080610191016841F000610160006800F0BC
:101E0000006001901F4E01220421304600F09EFA2E
:101E10000421029101210391049402250595069461
:101E200002A9304600F084F9322002900395049410
:101E3000032605960B27069702A9134800F078F9A8
:101E400086200290039504940596069702A90F48F0
:101E500000F06EF94FF4D04002900395049405967B
:101E6000069702A90A4800F063F9002205213D20E7
:101E700000F0C0FA3D2000F0B0FA07B0F0BD00005D
:101E800030380240000402400008024000000240D6
:101E9000001802402DE9F0410446174694F844002A
:101EA00082282CD0822084F844002068026902F045
:101EB0001C02238A4FF4784C0CEAC3231A434FF4D4
:101EC000F86303EA8111114321F0020141F0010698
:101ED000066100F043FA054616F0010F4FF00106C7
:101EE00015D000F03BFA401BB0F5803F0AD384F8D0
:101EF0004460002084F845000320BDE8F081022002
:101F0000BDE8F0812068006910F0010FE9D1206878
:101F1000406980B2386084F844600020BDE8F081F8
:101F20000148006807F08ABE0C00002070B5044626
:101F300094F8450001281AD0012584F84550022064
:101F400084F844002046FEF7D6FF2046FEF7C2FF85
:101F50002046FEF7C1FE2046FEF7A3FE2046FEF710
:101F600098FE84F84450002084F8450070BD02209B
:101F700070BD2DE9F001002290F84530012B17D0FB
:101F8000012580F84550022380F84430002499B19F
:101F9000D0F82CC0DCF8003013F0004F14D0122120
:101FA00080F8441080F84540BDE8F00101207047FA
:101FB000BDE8F0010220704780F8445080F84540A9
:101FC000BDE8F0010120704740F2F456B14208D953
:101FD000B1FBF6F3B1FBF6F706FB171717B15B1C65
:101FE00000E00123012B16D0002B48D9C3F10107D3
:101FF000C7EBC71707EB470701EB8701A3F1010CFC
:10200000C1F30C07C16AD1F8008028F04058C1F82C
:1020100000809AB119E0DCF8002042F04052CCF880
:102020000020C26AC1F30C015160C16A0A6842F023
:1020300000420A60C16AC968C16220E0C16AD1F881
:10204000008048F08058C1F80080C16A4E60624547
:1020500008D1C16AD1F8008048F00058C1F800806A
:10206000C16A4F60C16AD1F8008048F00048C1F8E9
:102070000080C16AC968C162521C9A42C2D3016819
:1020800001F580514A6912F0040F05D004224A611B
:10209000016801F580514C6080F8445080F845405B
:1020A000BDE8F00100207047704770B5044694F811
:1020B0004400422830D0422084F84400206803695C
:1020C00003F01C03B4F810C04FF4784505EACC2C9B
:1020D0004CEA03034FF4F86C0CEA8111194341F008
:1020E000020141F0010691B241612068066100F0F1
:1020F00035F9054616F0010F4FF0010613D000F038
:102100002DF9401BB0F5803F08D384F844600020CF
:1021100084F84500032070BD022070BD206800696E
:1021200010F0010FEBD184F84460002070BD000076
:102130002DE9F84F0022DFF80082DFF80092DFF887
:1021400000A24FF0030E0F27012303FA02F50B68DC
:102150002B40AB427DD1D1F804C0BCF1020F02D0BC
:10216000BCF1120F12D14FEAD20C00EB8C0CDCF850
:1021700020605407E40E07FA04FB26EA0B06D1F8A8
:1021800010B00BFA04F43443CCF8204006684FEA50
:10219000420C0EFA0CF4A64391F804B00BF0030BBA
:1021A0000BFA0CFB4BEA060606604E68012E05D0C2
:1021B000022E03D0112E01D0122E11D18668A64313
:1021C000D1F80CB00BFA0CFB4BEA060686604668A9
:1021D00026EA05050E79C6F300169640354345609C
:1021E000C56825EA04048D6805FA0CFC4CEA040C69
:1021F000C0F80CC0D1F804C01CF0805F7DD0D8F8C6
:1022000000C04CF4804CC8F800C0D8F800C00CF4F2
:10221000804CCDF800C022F0030C0CF1804404F592
:102220009834D4F808C895072D0F07FA05F62CEA5C
:102230000606A0F1804CBCF5003C64D0A0F1804CB7
:10224000BCF5013C62D0A0F1804CBCF5023C60D0F2
:1022500000E052E0A0F1804CBCF5033C5CD0A0F162
:10226000804CBCF5043C5AD0A0F1804CBCF5053C38
:1022700058D0A0F1804CBCF5063C56D0A0F1804C63
:10228000BCF5073C54D04FF0080C0CFA05FC4CEAA6
:10229000060CC4F808C8D9F800C02CEA030C4C6836
:1022A00014F4803F01D04CEA030CC9F800C0254C5F
:1022B000D4F800C02CEA030C4D6815F4003F01D09F
:1022C0004CEA030CC4F800C0DAF800C02CEA030C96
:1022D0004C6814F4801F01D04CEA030CCAF800C00B
:1022E000194CD4F800C02CEA030C4D6815F4001FFB
:1022F00001D04CEA030CC4F800C0521C102AFFF4B1
:1023000023AFBDE8F88F4FF0000CBEE74FF0010C93
:10231000BBE74FF0020CB8E74FF0030CB5E74FF006
:10232000040CB2E74FF0050CAFE74FF0060CACE73A
:102330004FF0070CA9E7000044380240003C014080
:10234000083C0140043C01400C3C0140002A01D003
:10235000816170470904816170470000014800688D
:10236000704700001000002002480168491C01600D
:10237000704700001000002010B50B48016841F4C0
:1023800000710160016841F480610160016841F4FD
:1023900080710160032000F061F8002000F006F871
:1023A00000F018F8002010BD003C024010B50446B3
:1023B00007484FF47A720068B0FBF2F000F004FCBA
:1023C00000222146501E00F015F8002010BD00002C
:1023D00014000020032000F041B800F01F0101228A
:1023E00002FA01F14009800000F1E020C0F800117C
:1023F0007047000010B4184B1B68C3F30223C3F1ED
:10240000070CBCF1040F01D94FF0040C1C1D072C64
:1024100001D2002300E0DB1E012404FA0CFCACF125
:10242000010C0CEA0101994004FA03F35B1E1A4007
:102430001143002808DA00F00F0000F1E020090144
:1024400080F8141D10BC704700F1E020090180F8ED
:10245000001410BC704700000CED00E000F0070015
:10246000064A11684FF6FF03194041EA002040F088
:10247000FD7040F080601060704700000CED00E0DF
:102480002DE9F05F04460E46DFF8D091D9F8000040
:10249000F7B200F00F00B0420AD289F80070D9F804
:1024A000000000F00F00B04202D00120BDE8F09F14
:1024B0002078DFF8AC8110F0020F07D0D8F80000C8
:1024C000A16820F0F0000843C8F80000207810F060
:1024D000010F51D060686349012808D002280DD04F
:1024E00003280BD0096811F0020F2ED00AE009680A
:1024F00011F4003F06D10120BDE8F09F096811F0FA
:10250000007F1FD0D8F8001021F003010843C8F85D
:102510000000FFF723FF0546606841F2883A012872
:1025200016D0022829D003283CD0D8F8000010F09B
:102530000C0F51D0FFF712FF401B504547D9032025
:10254000BDE8F09F0120BDE8F09F0120BDE8F09FAD
:10255000D8F8000000F00C0004283DD0FFF7FEFE84
:10256000401B504502D90320BDE8F09FD8F8000079
:1025700000F00C000428F1D12EE0D8F8000000F0A3
:102580000C00082828D0FFF7E9FE401B504502D96F
:102590000320BDE8F09FD8F8000000F00C000828E8
:1025A000F1D119E0D8F800004FF00C0B3BEA000025
:1025B00012D0FFF7D3FE401B504502D90320BDE8DF
:1025C000F09FD8F800003BEA0000F2D104E0D8F810
:1025D000000010F00C0FADD1D9F8000000F00F0092
:1025E000B0420AD989F80070D9F8000000F00F0055
:1025F000B04202D00120BDE8F09F207810F0040F17
:1026000007D0D8F80000E16820F4E0500843C8F88B
:102610000000207810F0080F08D0D8F800002169D9
:1026200020F4604040EAC100C8F8000000F058F80B
:10263000D8F80010F02292FAA2F201F0F001B2FAFA
:1026400082F2D140084A515CC84008490860002025
:10265000FFF7ACFE0020BDE8F09F0000003C024008
:102660000838024000380240D8F00008140000206A
:1026700001490120C86470470000474201480068D2
:10268000704700001400002000B5FFF7F7FF07496E
:1026900009684FF4E05292FAA2F201F4E051B2FA62
:1026A00082F2D140024A515CC84000BD0838024065
:1026B000E8F0000800B5FFF7E1FF074909684FF4AB
:1026C000604292FAA2F201F46041B2FA82F2D14081
:1026D000024A515CC84000BD08380240E8F00008DA
:1026E00010B41F48006810F00C011E481BD04FEAC0
:1026F000600C042916D0082915D11B4A116801F075
:102700003F01136813F4800F47F6C0730DD0BCFB74
:10271000F1F01168194093FAA3F3B3FA83F3D940A7
:1027200048430CE0604610BC7047B0FBF1F0116804
:10273000194093FAA3F3B3FA83F3D94048431168DD
:102740004FF4403292FAA2F201F44031B2FA82F22E
:10275000D140491C4900B0FBF1F010BC70470000AB
:10276000083802400024F400043802402DE9F84FF4
:102770000446DFF81C842078A8F1040710F0010F4C
:10278000A7F1040560D0D8F8000000F00C00042880
:1027900009D0D8F8000000F00C0008280DD13868E6
:1027A00010F4800F09D0286810F4003F4CD0606806
:1027B000002849D10120BDE8F88F6068B0F5803F5E
:1027C00014D0B0F5A02F16D0286820F480302860EF
:1027D000286820F480202860606810B3FFF7BEFDF1
:1027E0000646286810F4003F0ED02DE0286840F41B
:1027F00080302860F0E7286840F48020286028684E
:1028000040F480302860E7E7FFF7A8FD801B6428CC
:1028100002D90320BDE8F88F286810F4003FF3D0F8
:1028200012E0FFF79BFD0646286810F4003F0BD02E
:10283000FFF794FD801B642802D90320BDE8F88FC0
:10284000286810F4003FF3D12078DFF8489310F0A7
:10285000020F4FF0000663D0D8F800004FF0F80BDD
:1028600010F00C0F16D0D8F8000000F00C0008286B
:1028700003D1386810F4800F0CD0E068C8B3012091
:10288000C9F80000FFF76AFD8246286810F0020FC1
:1028900016D022E0286810F0020F05D0E068012869
:1028A00002D00120BDE8F88F28689BFAABF22169BD
:1028B000B2FA82F220F0F8009140084328602FE03D
:1028C000FFF74CFDA0EB0A00022802D90320BDE867
:1028D000F88F286810F0020FF2D028689BFAABF24C
:1028E0002169B2FA82F220F0F80091400843286092
:1028F00016E0FFE7C9F80060FFF730FD8246286860
:1029000010F0020F0CD0FFF729FDA0EB0A000228FF
:1029100002D90320BDE8F88F286810F0020FF2D129
:10292000207810F0080F34D09B48DFF870B261694E
:10293000C1B101210160FFF711FD8246DBF8000003
:1029400010F0020F25D1FFF709FDA0EB0A000228C5
:1029500002D90320BDE8F88FDBF8000010F0020F69
:10296000F1D016E00660FFF7F9FC8246DBF80000C4
:1029700010F0020F0DD0FFF7F1FCA0EB0A000228C7
:1029800002D90320BDE8F88FDBF8000010F0020F39
:10299000F1D1207810F0040F43D08148016841F054
:1029A00080510160006800F080500090DFF8F4B1C1
:1029B000DBF8000040F48070CBF80000FFF7CEFC9D
:1029C0008246DBF8000010F4807F0DD1FFF7C6FCD3
:1029D000A0EB0A00022802D90320BDE8F88FDBF83B
:1029E000000010F4807FF1D0A068DFF8BCB10128AE
:1029F00018D005281DD0DBF8000020F00100CBF82E
:102A00000000DBF8000020F00400CBF80000A06814
:102A100068B3FFF7A3FC8246DBF8000010F0020F5A
:102A200014D03CE0DBF8000040F00100CBF80000DF
:102A3000EDE7DBF8000040F00400CBF80000DBF825
:102A4000000040F00100CBF80000E0E7FFF786FC53
:102A5000A0EB0A0141F28830814202D90320BDE88F
:102A6000F88FDBF8000010F0020FEFD017E0FFF74F
:102A700075FC8246DBF8000010F0020F0FD0FFF764
:102A80006DFCA0EB0A0141F28830814202D903209B
:102A9000BDE8F88FDBF8000010F0020FEFD1A0695D
:102AA000F0B3D8F8001001F00C0108296CD002280E
:102AB00010D0C9F86060FFF751FC0446286810F098
:102AC000007F5ED0FFF74AFC001B022855D9032087
:102AD000BDE8F88FC9F86060FFF740FC064628683B
:102AE00010F0007F0BD0FFF739FC801B022802D9C1
:102AF0000320BDE8F88F286810F0007FF3D1216A29
:102B0000E0694FF0FF3340EA010247F6C07191FAE5
:102B1000A1F1606AB1FA81F100FA01F1A06A00E066
:102B20002FE003EB50004FF4403393FAA3F3B3FAD2
:102B300083F39840084310434FF0706292FAA2F278
:102B4000E16AB2FA82F29140084338600120C9F884
:102B50006000FFF703FC0446286810F0007F10D1E6
:102B6000FFF7FCFB001B022802D90320BDE8F88F09
:102B7000286810F0007FF3D003E0286810F0007F91
:102B8000A0D10020BDE8F88F0120BDE8F88F00003B
:102B90000838024000004742800E47427438024025
:102BA0004038024000700040703802404FF0E02191
:102BB000042804D0086920F00400086170470869FF
:102BC00040F0040008617047401EB0F1807F01D3DF
:102BD000012070474FF0E0214861044AF020107056
:102BE00000208861072008610020704723ED00E085
:102BF0007047704710B490F83820012A2AD001237A
:102C000080F83830022280F839200268D2F804C0F7
:102C10002CF0700CC2F804C00268D2F804C00C6832
:102C20004CEA040CC2F804C00268D2F808C02CF0C8
:102C3000800CC2F808C00268D2F808C049684CEAA3
:102C40000101916080F83930002180F8381010BC03
:102C50000020704710BC0220704710B50446002CBD
:102C600003D094F8390010B107E0012010BD002016
:102C700084F83800204600F00DF8022084F839006E
:102C8000211D206801F0A2F8012084F839000020FD
:102C900010BD000008B50068A0F18041B1F5805179
:102CA00012D10A48016841F010010160006800F08B
:102CB00010000090002211463620FFF79BFBBDE874
:102CC00008403620FFF789BB08BD000040380240AD
:102CD0000168CA6842F00102CA600068016841F0F8
:102CE0000101016000207047704770B504462068FC
:102CF00001694FF0000511F0020F17D0C16811F003
:102D0000020F13D0E91E016101202076206880693E
:102D100010F0030F03D02046FFF7E6FF05E0204642
:102D200000F09DF8204600F09BF8257620680169A8
:102D300011F0040F18D0C16811F0040F14D06FF017
:102D400004010161022020762068806910F4407F30
:102D500003D02046FFF7C8FF05E0204600F07FF8CB
:102D6000204600F07DF825762068016911F0080FF3
:102D700018D0C16811F0080F14D06FF0080101617C
:102D8000042020762068C06910F0030F03D020468D
:102D9000FFF7AAFF05E0204600F061F8204600F0AA
:102DA0005FF825762068016911F0100F18D0C1680E
:102DB00011F0100F14D06FF010010161082020767F
:102DC0002068C06910F4407F03D02046FFF78CFFD5
:102DD00005E0204600F043F8204600F041F8257653
:102DE0002068016911F0010F09D0C16811F0010FCD
:102DF00005D06FF001010161204600F033F8206832
:102E0000016911F0800F09D0C16811F0800F05D061
:102E10006FF0800101612046FFF7EAFE206801693A
:102E200011F0400F09D0C16811F0400F05D06FF0CC
:102E300040010161204600F027F82068016911F087
:102E4000200F0BD0C16811F0200F07D06FF02001C8
:102E500001612046BDE87040FFF7CBBE70BD7047F2
:102E60007047000006480068C16811F0010F06D0E5
:102E700004490A68521C0A606FF001010161704741
:102E8000A43400203C000020704700001348007864
:102E90001449134A0B88D054134A02F1140C92F9C6
:102EA000030000EB80030CEB43034FF0040C9B8802
:102EB0000CEB4303B1F800C0634502D10223537009
:102EC000D3800A88521C0A80012801D0042804D12A
:102ED00001220249054800F007B970478800002028
:102EE00035350020860000204000002038370020C3
:102EF0007047000010B5044622681068D168526916
:102F000000F00F03002B0AD110F0200F07D011F0B2
:102F1000200F04D02046BDE8104000F0E4BF002B95
:102F20006BD002F0010301F4907C53EA0C0364D0EF
:102F300010F0010F06D011F4807F03D0E36B43F053
:102F40000103E36310F0040F06D012F0010F03D069
:102F5000E36B43F00203E36310F0020F06D012F0BC
:102F6000010F03D0E36B43F00403E36310F0080F99
:102F700006D012F0010F03D0E26B42F00802E263C8
:102F8000E26B002A2ED010F0200F05D011F0200F98
:102F900002D0204600F0A7FF20684069C0F38010EF
:102FA000E16B11F0080F00D108B3204600F080FF5C
:102FB0002068416911F0400F15D0416921F04001AE
:102FC0004161606B58B118490165606BFEF7CDFB3C
:102FD000002807D0606B016DBDE81040084720460F
:102FE000FFF786FF10BD2046FFF782FF10BD204689
:102FF000FFF77EFF0020E06310BD10F0800F07D0C8
:1030000011F0800F04D02046BDE8104001F056B901
:1030100010F0400FF0D011F0400FEDD02046BDE889
:10302000104000F053BF0000A13E000870B50446F8
:10303000002C04D094F83900002510B106E00120DE
:1030400070BD84F83850204600F022F8242084F81F
:1030500039002068C16821F40051C160204600F0A9
:103060008BFF2068016921F490410161206841696A
:1030700021F02A0141612068C16841F40051C1601A
:10308000E563202084F8390084F83A00002070BD00
:1030900010B586B00068A0F18041B1F588311DD12E
:1030A0000F48016841F010010160006800F0100055
:1030B0000090402001900220029001200390032004
:1030C000049007200590074C01A92046FFF730F82F
:1030D0008021019101A92046FFF72AF806B010BD12
:1030E000443802400004024090F83A30202B01D0CE
:1030F00002207047D1B1CAB190F83830012B17D0F7
:1031000081628285C2850021C163222280F83A2033
:1031100080F8381001684A6942F001024A6100688B
:10312000C16841F49071C160002070470120704770
:103130000220704710B504460848844201D101F0CE
:1031400049F90748844201D101F0BEF9054884429B
:1031500003D1BDE81040FFF799BE10BD2434002014
:1031600064340020383700202DE9F84304460D462A
:1031700091461E4694F83900202802D00220BDE86E
:10318000F8834DB3B9F1000F26D094F83800012828
:1031900025D0012084F838000027E763212084F837
:1031A0003900FFF7DBF88046A4F82490A4F82690B5
:1031B000E08CA0B3E08C401EE084A068B0F5805F96
:1031C00010D04346002280212046009601F0C6F828
:1031D000F0B10320BDE8F8830120BDE8F8830220A8
:1031E000BDE8F8834346002280212046009601F086
:1031F000B5F810B10320BDE8F88328882168C0F332
:1032000008004860206908B16D1C05E0AD1C03E0B2
:10321000216815F8010B4860E08C0028CAD14346AC
:10322000002240212046009601F098F810B10320BA
:10323000BDE8F883202084F8390084F83870002035
:10324000BDE8F8837047FEE7F0B587B02348016812
:1032500041F080010160016801F080010191016885
:1032600041F010010160016801F010010191016855
:1032700041F010010160006800F010000190184F4B
:1032800000224FF400713846FFF760F8154E002217
:1032900020213046FFF75AF8002240213046FFF740
:1032A00055F870150290012403940225059502A992
:1032B0003846FEF73DFF202102910394059502A9AF
:1032C0003046FEF735FF402002900394059502A991
:1032D0003046FEF72DFF07B0F0BD00003038024049
:1032E000001C02400010024030B4FF239C464A1EDE
:1032F000D2B20ED3094C04F5807510F8011B81EA97
:103300000C0114F801C08CEA030C6B5C521ED2B2A3
:10331000F3D230BC4CEA032070470000F0F0000804
:1033200010B50B4C20706170100AA070E270180A82
:103330002071062163712046FFF7D6FFA071000AB5
:103340000821E0712046BDE8104000F0EBBF00000E
:103350003536002010B50B4C20706170100AA0703B
:10336000E270180A2071062163712046FFF7BCFF46
:10337000A071000A0821E0712046BDE8104000F06D
:10338000D1BF00003536002030B58BB01A4819493E
:10339000016000F14401016300F160014163062115
:1033A000416000248460C4604FF4A02101614FF4A7
:1033B000C001416184610125C56105624462846286
:1033C000C462FDF79DFF0594069407954CF2070033
:1033D000009048F20C00019043F6D870029047F636
:1033E000F27003900494089569460348FDF7FCFDCC
:1033F0000BB030BD00640040A033002082B000213B
:103400000C48026842F002020260006800F002000C
:1034100001900A48084A02604FF4E132426081603C
:10342000C16001610C2242618161C16102B0FFF79C
:10343000FDBD000030380240001001406033002024
:10344000FEE7704700B587B0002108460AF044F94E
:1034500000200690059004900B490C4A01920291BD
:10346000009004AB05AA06A9094806F0B7F9084878
:1034700006F016FA064803F02FFB0649044806F04A
:103480004FFA07B000BD000059690008A96B000899
:10349000E8010020D96A000870470000F0B587B045
:1034A00000262048016841F480210160006800F492
:1034B000802001901C48016841F002010160016810
:1034C00001F002010191016841F080010160006892
:1034D00000F0800001904FF4806002900224039479
:1034E000059407250695114F02A93846FEF720FEE0
:1034F000A102029103940496069502A93846FEF7AC
:1035000017FE0B4D0022E1012846FEF71FFFE101E7
:10351000029101210391059402A92846FEF708FEB5
:1035200007B0F0BD4038024030380240000402408D
:10353000001C024010B5074C208900F031F8002033
:10354000E08005A001F08EF8BDE810400BA001F06E
:1035500089B8000040000020202D2D2D2D2D2D2D6F
:103560004D6F64627573CDA8D0C5D0ADD2E9C0FDF2
:10357000B3CC2D2D2D2D2D2D200A000059732D4655
:103580003450726F20204D6F64627573D6F7BBFAAA
:103590002020525455CDA8D0C5C4A3CABD0A0000EE
:1035A00010B50446FFF77AFF1249114A0A604C60D1
:1035B00000208860C86008610C224A618861C86187
:1035C0000846FFF733FD002211462720FEF712FFC1
:1035D0002720FEF702FF00224FF480710648FEF715
:1035E000B5FEBDE81040012204490248FFF77CBD4A
:1035F0000048004038370020001C024088000020AE
:103600002DE9F05F2DED028BFC4EF068401CF06060
:103610003169491C3161DFF8E8B30127F94DDFF862
:10362000E8934FF00008584565D9C6F80C8030790A
:10363000022807D1F078401C40B2F070042801DD68
:1036400086F80380F148ED4A96F903100068128964
:10365000012903D0022901D003290DD1B2F5965FCB
:103660000AD0C16821F00401C1604FF49650308146
:10367000FFF796FF37710FE009B104290CD1B2F5BD
:10368000165F09D0C16821F00401C1604FF41650E3
:103690003081FFF785FF3771002009F80080401C5A
:1036A0002828FADB7770C6F81080A6F8068096F90D
:1036B0000300D74C00EB800114F81100707104EB8B
:1036C00041025178032903D193885288FFF728FEDD
:1036D00096F9030000EB800004EB400041780429D8
:1036E00004D1838842887079FFF734FE3770022056
:1036F0003071A5F80080F088C64C022840F0628145
:1037000099F800007179884203D00320707000F0AE
:1037100058B94FF0000A288882450ADC19F80A20B7
:103720005146BDA000F09EFF0AF1010A288882459B
:10373000F4DDF078012802D12888401E28802888EE
:10374000484410F8020C2988494411F8011C40EA49
:10375000012070812888801EC1B2AB48FFF7C4FDEC
:10376000718988420CD10620707099F8010010F020
:10377000800F0AD0ADA000F075FF0520707004E046
:10378000ADA000F06FFF04207070A6F80680ADA019
:10379000316900F067FF3078012840F01281002085
:1037A00096F90320AB4D02EB0211294419F80030C1
:1037B0000B54401C1128F9DB9FEDA78AAABBE978BE
:1037C00028462A79090141EA121100EE101AF8EE92
:1037D000400A80EE880A84ED010A417901F0F00187
:1037E000102926D08179407900F00F0041EA0020AD
:1037F00000EE900AF8EE600A80EE881A84ED021A54
:1038000010EE100AFCF78DFD41EC100B93A053EC69
:10381000102B00F027FFA068FCF783FD41EC100B94
:1038200093A053EC102B00F01DFFF078012810D06E
:1038300030E08179407900F00F0041EA00204042F9
:1038400000EE900AF8EEE00A80EE881A84ED021A83
:10385000D6E78048407E00EE100AB8EE400A84EDBC
:10386000030A10EE100AFCF75CFD41EC100B85A07A
:1038700053EC102B00F0F6FEE068B0F17E5F02D151
:1038800085A000F0EFFEE068B0F1804F02D186A085
:1038900000F0E8FEF07802285ED195F82C0095F84B
:1038A0002B10B2EE041A40EA012000EE100AF8EEE6
:1038B000400A80EE810A84ED040A95F82E0095F8FE
:1038C0002D1040EA012000EE900AF8EE600AC4EDE7
:1038D000050A95F8300095F82F1040EA012000EE17
:1038E000900AF8EE600AC4ED060A95F8320095F8E1
:1038F000311040EA012000EE900AF8EE600A80EEF6
:10390000881A84ED071A10EE100AFCF70AFD41EC44
:10391000100B6BA053EC102B00F0A4FE6069FCF7B9
:1039200000FD41EC100B6CA053EC102B00F09AFE44
:10393000A069FCF7F6FC41EC100B6DA053EC102BCA
:1039400000F090FEE069FCF7ECFC41EC100B6EA07F
:1039500053EC102B00F086FEF078032817D195F871
:103960003B0095F83A1040EA012000EE100AB8EE4C
:10397000400AC0EE080AC4ED080AA06AFCF7D1FCB0
:1039800041EC100B66A053EC102B00F06BFEF078AE
:10399000042816D195F8480095F8471040EA012010
:1039A00000EE100AB8EE400A84ED0A0A10EE100A82
:1039B000FCF7B7FC41EC100B5EA053EC102B00F0B1
:1039C00051FEB770B078012805D0F068584513D182
:1039D0007078012810D186F80280717811B95AA048
:1039E00000F040FE7178012902D15DA000F03AFE9E
:1039F0007178022901D1C1E0F2E0C2E0400000206C
:103A00008096980086000020353500203837002049
:103A10005400002008330020D4ADCAFDBEDD25646B
:103A200020A3BA30782558200A000000CDA8D0C5C0
:103A3000B4EDCEF30A000000D0A3D1E9B4EDCEF38B
:103A40000A000000BDD3CADCD3C3CAB1202564205C
:103A50000A000000E03400200000C842CEEFCCE5B0
:103A6000CEC2B6C8A3BA252E326620A1E60A00004F
:103A7000BBB7BEB3CEC2B6C8A3BA252E326620A14C
:103A8000E60A0000D1CCCEEDB1A8BEAFD6B5A3BA40
:103A9000252E3266200A0000D1CCCEEDB1A8BEAFF3
:103AA000A3BAD5FDB3A30A00D1CCCEEDB1A8BEAF69
:103AB000A3BAD1CCCEEDC5A8B6C8B3ACB1EA0A0062
:103AC000D1F5C6F8C5A8B6C820202020A3BA252E57
:103AD00032662025250A0000D2BBD1F5BBAFCCBC95
:103AE000C5A8B6C8A3BA252E32662070706D0A002C
:103AF000C1F2BBAFC7E2C5A8B6C82020A3BA252E25
:103B000032662070706D0A00B6FED1F5BBAFCCBC3A
:103B1000C5A8B6C8A3BA252E32662025250A0000FE
:103B2000BCD7CDE9C5A8B6C8A3BA252E32662025D4
:103B3000250A0000CAA3D3E0B5E7C1BFA3BA252E6A
:103B400032662025250A0000B8C3B4ABB8D0C6F74A
:103B5000B3CCD0F2CEB4D4CBD0D02564200A0000B0
:103B6000B7A2CBCDC3FCC1EECEB4B4A5B7A2D6D01C
:103B7000B6CFBDD3CADC2564200A00001AA000F02D
:103B800071FD7178032902D11CA000F06BFD7178E2
:103B9000042902D11FA000F065FD7178052902D12A
:103BA00020A000F05FFD7178062902D121A000F06D
:103BB00059FD96F9030008B971786163012801D1B4
:103BC0007178A163022801D17178E163032801D1E2
:103BD00071782164042801D17078606486F80180CE
:103BE000BDEC028BBDE8F09FBDD3CADCCAFDBEDDD3
:103BF000CDEAD5FB2564200A00000000B7C7C6DA6D
:103C0000CDFBB4ABB8D0C6F7CAFDBEDD2564200A33
:103C100000000000D0A3D1E9B4EDCEF32564200A62
:103C200000000000CDA8D0C5B4EDCEF32564200A75
:103C300000000000BDD3CAD5CAFDBEDDD5FDB3A3CB
:103C40002564200A000000008CB0FFF7FBFB144C39
:103C500004F1140090E80F100992CDE90A3C089194
:103C60000790104907A806F051F82834B4E80F105F
:103C7000CDE9053C049203910290002102A806F0D0
:103C800045F8012108480A0200910190002307A18C
:103C900009480BF051F8002006F052F8FBE700004D
:103CA00088F00008E80100200000002076546173CD
:103CB0006B55736572494600C1E4000810B5FEF704
:103CC00053FBBDE8104006F017B8000030B593B0C4
:103CD00000252348016841F080510160006800F030
:103CE000805000901F48016841F4804101600068E5
:103CF00000F4804000900120069000040790022408
:103D00000C9480010D9008200E904FF4A8700F9035
:103D100010940720119006A8FEF728FD0F200190AF
:103D2000029403954FF4A0500490E0020590052101
:103D300001A8FEF7A5FBFEF79BFCFEF79FFC4FF4E6
:103D40007A71B0FBF1F0FEF73FFF0420FEF72EFF83
:103D500000220F21501EFEF74DFB13B030BD0000B6
:103D600040380240007000400F48016841F4700183
:103D700001600E48016841F0010101600C4A002118
:103D80001160026822F4102222F080720260031D8A
:103D9000084A1A60026822F4802202600648016024
:103DA000064958060860704788ED00E00038024078
:103DB00008380240103000240C38024008ED00E0C2
:103DC0000148FEF792BF0000A4340020F0B402685E
:103DD0002B4BDFF8B0C02C4D2C4E2D4C98420AD006
:103DE000B0F1804F07D0604505D0A84203D0B04263
:103DF00001D0A04203D122F070024F683A439842AA
:103E000028D0B0F1804F25D0604523D0A84221D0E2
:103E1000B0421FD0A0421DD0A0F1804CBCF5A03C08
:103E200018D0A0F1804CBCF5A23C13D0A0F1804C7E
:103E3000BCF5A43C0ED0A0F1804CBCF5C05C09D010
:103E4000A0F1804CBCF5E05C04D0A0F1804CBCF546
:103E5000005C05D122F44072D1F80CC04CEA020299
:103E600002608A68C2620A688262984201D0A042F7
:103E700001D10969016301214161F0BC7047000073
:103E8000000001400004004000080040000C004019
:103E9000000401400148FFF72DB800002434002041
:103EA00010B5806B0021C185C184FFF721F810BDDA
:103EB0000168CA6822F49072CA6001684A6922F0F7
:103EC00001024A61202180F83A10704710B501685C
:103ED000CA6822F04002CA60202180F83910FFF73A
:103EE000B1F9002010BD10B590F83A10222901D088
:103EF000022010BD8168B1F5805F11D0016919B34E
:103F00000168496801F07F02816A4B1C83620A7074
:103F1000C18D491E0904090CC1851CD0002010BDAB
:103F2000816A02693AB102685268D2B20A80816A33
:103F3000491C8162ECE702685268C2F308020A80F9
:103F4000816A891C8162E3E701684A68816A4B1CC7
:103F500083620A70DCE70168CA6822F49072CA6062
:103F600001684A6922F001024A61202180F83A1072
:103F7000FFF7E0F8002010BD2DE9F041044620686D
:103F8000016921F44051E268114301612068C16870
:103F900021F4037121F414412369A268D4F81CC0F0
:103FA0001A43636943EA0C031A431143C160206852
:103FB000416921F44071A26911434161E069BC4A41
:103FC000BC49BD4D3226B0F5004F5ED02068884216
:103FD00002D0904240F01281FEF76CFB00EBC00172
:103FE00001EB001061688900B0FBF1F7FEF762FB9E
:103FF00000EBC00101EB001061688900B0FBF1F03B
:10400000A5FB001040096FF01801484307EB800042
:1040100006EB0010A5FB0010400900F0F007FEF7CA
:1040200049FB00EBC00101EB001061688900B0FBA7
:10403000F1F0A5FB0010400907EB0017FEF73AFB73
:1040400000EBC00101EB001061688900B0FBF1F8E2
:10405000FEF730FB00EBC00101EB00106168890046
:10406000B0FBF1F0A5FB001040096FF018014843C8
:1040700008EB800006EB0010A5FB00102168C0F3E0
:10408000431038448860BDE8F0812068884201D040
:10409000904259D1FEF70EFB00EBC00101EB00107E
:1040A00061684900B0FBF1F0A5FB00104009070171
:1040B000FEF700FB00EBC00101EB00106168490056
:1040C000B0FBF1F8FEF7F6FA00EBC00101EB0010CF
:1040D00061684900B0FBF1F0A5FB001040096FF0EA
:1040E0001801484308EB800006EBC000A5FB001058
:1040F000400900F0F80007EB4007FEF7DBFA00EBA1
:10410000C00101EB001061684900B0FBF1F8FEF757
:10411000D1FA00EBC00101EB001061684900B0FB6F
:10412000F1F0A5FB001040096FF01801484308EBBF
:10413000800006EBC000A5FB00102168C0F3421010
:1041400038448860BDE8F081FEF79EFA00EBC001BC
:1041500001EB001061684900B0FBF1F0A5FB001015
:1041600040090701FEF790FA00EBC00101EB0010D7
:1041700061684900B0FBF1F8FEF786FA00EBC00178
:1041800001EB001061684900B0FBF1F0A5FB0010E5
:1041900040096FF01801484308EB800006EBC000AF
:1041A000A5FB0010400900F0F80007EB4007FEF700
:1041B0006BFA00EBC00101EB001061684900B0FB35
:1041C000F1F8FEF761FA00EBC00101EB0010616845
:1041D0004900B0FBF1F0A5FB001040096FF0180199
:1041E000484308EB800006EBC000A5FB00102168E7
:1041F000C0F3421038448860BDE8F081FEF744FA0D
:1042000000EBC00101EB001061688900B0FBF1F721
:10421000FEF73AFA00EBC00101EB0010616889007B
:10422000B0FBF1F0A5FB001040096FF01801484306
:1042300007EB800006EB0010A5FB0010400900F022
:10424000F007FEF721FA00EBC00101EB00106168F6
:104250008900B0FBF1F0A5FB0010400907EB001747
:10426000FEF712FA00EBC00101EB00106168890053
:10427000B0FBF1F8FEF708FA00EBC00101EB00100B
:1042800061688900B0FBF1F0A5FB001040096FF0F8
:104290001801484308EB800006EB0010A5FB001056
:1042A0002168C0F3431038448860BDE8F081000005
:1042B00000140140001001401F85EB5190F83910A7
:1042C000212901D0022070478168B1F5805F0CD0B0
:1042D000016A4A1C0262026809785160C18C491E59
:1042E0000904090CC18410D019E0016A0268098828
:1042F000C1F308015160016919B1016A491C0162E9
:10430000ECE7016A891C0162E8E70168CA6822F0EB
:104310008002CA600068C16841F04001C1600020AD
:104320007047000070B505460E460A4C0122110286
:104330002046FEF70BF84FF6FF7332462946064833
:10434000FEF712FF0022A1152046BDE87040FDF7E0
:10435000FDBF0000001C0240383700202DE9F0416D
:104360000446069D884617461E462068006838EABF
:10437000000020D00020B84227D1B5F1FF3F1CD06B
:1043800025B1FDF7EBFF801BA84216D92068C16854
:1043900021F4D071C1602068416921F001014161BF
:1043A000202084F8390084F83A00002084F838008E
:1043B0000320BDE8F0810120DDE72068006838EACD
:1043C000000005D00020B842D7D00020BDE8F08121
:1043D0000120F8E770B5144A0025941D9078012853
:1043E00006D0012221461148FEF77EFE257070BDE1
:1043F0006078217800EB012080B200EE100A0C49B1
:10440000B8EE400A81ED0B0AB0F5FA7F02D2012026
:10441000C86400E0CD649570BDE870400122054994
:104420000248FEF761BE0000300000202434002066
:10443000083300203600002070B500F0C1F81D4898
:104440001B4901604FF41656466000248460C46026
:1044500004610C2545618461C461FEF7E7FD00221B
:1044600004213420FDF7C6FF3420FDF7B6FF0222F9
:1044700011491048FEF738FE1148104901604660A6
:104480008460C460046145618461C461FEF7CEFD4F
:10449000002204214720FDF7ADFF4720FDF79DFFD7
:1044A000BDE87040022207490548FEF71DBE000026
:1044B000004C00402434002036000020001401404D
:1044C000643400203800002070B5144A002502F141
:1044D00008041079012806D0012221461048FEF771
:1044E00003FE257070BD6078217800EB012080B25A
:1044F00000EE100A0B49B8EE400A81ED0C0AB0F547
:10450000FA7F02D20120086500E00D651571BDE853
:104510007040012204490248FEF7E6BD3000002049
:1045200064340020083300203800002070B5C82013
:1045300005F03EFA4FF6FF73012217491748FEF7C0
:1045400013FE154D012400B9AC70C82005F030FAF7
:104550004FF6FF73012212491048FEF705FE00B91D
:10456000EC70C82005F024FA4FF6FF7301220A49C7
:104570000C48FEF7F9FD00B92C71C82005F018FAB7
:104580004FF6FF73012206490648FEF7EDFD0028AD
:1045900000D16C7170BD0000300000202434002078
:1045A00031000020643400200148FEF7A3BC000065
:1045B000383700200148FEF79DBC0000643400201D
:1045C0002DE9F0438BB0224C206840F004002060BD
:1045D000206800F0040000901E48016841F40021AA
:1045E0000160006800F4002000904FF440600690E5
:1045F0000225079501260896032709974FF008081A
:10460000CDF82880DFF8509006A94846FDF790FDC8
:10461000206840F004002060206800F00400009052
:104620000E49086840F020000860086800F020008B
:104630000090C0200190029503960497CDF8148055
:1046400001A94846FDF774FD0BB0BDE8F0830000FA
:1046500030380240403802400008024044380240EE
:10466000FEE700000FB4054B10B503A9044A0298F9
:1046700000F0EEF810BC5DF814FB0000396D000886
:10468000E00100200FB4084B10B504A902AA03985A
:1046900000F0DEF8044602A9002000F070FC20467D
:1046A00010BC5DF814FB00007F4F000802E008C852
:1046B000121F08C1002AFAD170477047002001E09C
:1046C00001C1121F002AFBD1704700002DE9FF5FD6
:1046D00082B00021DDE90430020DDDF840B0034373
:1046E00018D044F61050A2F2FF324243151411982C
:1046F00001281FD0A5EB0B00401C5FEA000A4FF019
:1047000000064E4FDFF83891B046504615D5CAF135
:10471000000413E0119801244AA3012801D16FEA93
:104720000B010298119AC0E90031C0E9024206B0BB
:10473000BDE8F09FCBF10000DFE704460021404ACE
:10474000491842EB0450CDE9001012E0E00707D011
:1047500032463B4640464946FBF7E4FE80468946E2
:1047600032463B4610461946FBF7DCFE06460F462E
:104770006410002CEAD1DDE90401DDE90023BAF17F
:10478000000F06DAFBF7CEFE42464B46FBF7CAFEA9
:1047900005E0FBF739FF42464B46FBF735FF044681
:1047A0000E460022284BFBF7B7FF03D84FF0FF302F
:1047B000014607E00022254B20463146FBF70BFE61
:1047C000FBF791FF102409E0002C0ADB0A220023EA
:1047D000FBF7D0FD039B30321A55641E50EA0102EC
:1047E000F2D1641C039AC4F111031444119A012AF2
:1047F00003D0012208430DD10AE0084304D0002071
:104800004FF0110B119072E7A3EB0B056D1E0DE03D
:104810005B4504DD4FF0000205F1010504E003DA19
:104820004FF00002A5F10105002AECD00298119981
:10483000C0E90231C0E9004579E7000000001440FA
:104840000000F03F300000000000F0430000E03FB7
:104850002DE9FF4F95B09B468946064600250FE29D
:10486000252877D100242746F84A0121059400E045
:10487000044316F8013F203B01FA03F01042F7D140
:1048800030782A2811D06FF02F033078A0F1300251
:10489000092A16D8059A44F0020402EB820203EBBF
:1048A00042021044761C0590EFE759F8042B05925C
:1048B000002A03DA504244F40054059044F0020404
:1048C000761C30782E2816D116F8010F44F0040417
:1048D0002A280DD06FF02F023078A0F13003092B79
:1048E00009D807EB870302EB4303C718761CF3E7ED
:1048F00059F8047B761C30786C280FD006DC4C28E5
:1049000017D068280DD06A2814D104E0742810D07C
:104910007A280FD10DE044F400140AE044F4801426
:1049200001E044F440147278824202D104F580140C
:10493000761C761C307866280BD013DC582877D08C
:1049400009DC002875D04528F6D04628F4D0472841
:104950001AD19DE118E0632835D0642879D0652804
:1049600012D195E1702873D008DC6728F1D069284E
:104970006FD06E280DD06F2806D1B5E073282CD0EB
:10498000752875D0782874D05A46179990476D1CB1
:1049900075E1C4F30250022809D003280DD0D9F8DC
:1049A000001004280DD00D6009F1040967E1D9F861
:1049B0000010EA17C1E90052F6E7D9F800100D809F
:1049C000F2E70D70F0E719F8041B8DF800100020D5
:1049D0008DF80100EA46012003E059F804AB4FF0DE
:1049E000FF3061074FF0000102D40DE008F1010132
:1049F0008846B9420FDA8045F8DB1AF8081000291A
:104A0000F4D108E008F1010188468142FADB1AF886
:104A100008100029F6D105985B46A0EB080721464F
:104A20003846179A00F094FA284400EB080507E08E
:104A30004DE029E10DE01AF8010B5A46179990470D
:104A4000B8F10108F7D25B4621463846179A13E1C0
:104A500042E00A220092C4F302524FF0000A022AF6
:104A600008D059F804CB032A4FEAEC710AD00DE0C4
:104A700029E02AE009F1070121F00702F2E802C16A
:104A8000914609E00FFA8CFC4FEAEC71042A03D13D
:104A90004FFA8CFC4FEAEC71002907DA0A46002134
:104AA000DCF1000C61EB02012D2202E0220504D5AD
:104AB0002B228DF80420012203E0E20701D02022FE
:104AC000F7E7904659E00A2102E010220DE010219C
:104AD0004FF0000A00910BE010224FF0000A44F062
:104AE00004040827009203E008224FF0000A009215
:104AF000C4F30252022A05D059F804CB0021032A3C
:104B000008D009E009F1070121F00702F2E802C12B
:104B1000914605E01FFA8CFC042A01D10CF0FF0C31
:104B20004FF00008220728D5702806D0009B83F09C
:104B3000100353EA0A0305D00EE040228DF804204A
:104B4000012208E05CEA010206D030228DF8042040
:104B50008DF8050002229046009B83F0080353EA7B
:104B60000A030AD15CEA010201D1620705D53022AD
:104B70008DF804204FF001087F1E582804D034A07F
:104B800003900EA802900DE036A0F9E75346604668
:104B9000009AFBF7EFFB84460398825C0298401E64
:104BA000029002705CEA0100F0D1029806A9081A8E
:104BB00000F1200A600702D524F4803400E00127C8
:104BC000574502DDA7EB0A0000E0002000EB0A01D8
:104BD000009005984144401A0590E00306D45B46D6
:104BE0002146179A059800F0B3F90544002706E01E
:104BF00001A85A46C05D179990476D1C7F1C474518
:104C0000F6DBE0030CD55B462146179A059800F0C9
:104C10009FF9054404E030205A46179990476D1CCF
:104C20000099481E00900029F5DC08E002980299DE
:104C30005A460078491C0291179990476D1CBAF1A9
:104C40000001AAF1010AF1DC65E100000928010078
:104C500030313233343536373839616263646566F2
:104C600000000000303132333435363738394142B4
:104C7000434445460000000000F058F90544761C06
:104C8000307800287FF4ECAD19B02846BDE8F08FED
:104C9000620700D4062709F1070222F0070CFCE89E
:104CA0000223E14603F000485FEA080C02D00FF24D
:104CB000702C0DE05FEA045C02D50FF2682C07E06F
:104CC0005FEAC47C02D00FF2602C01E0AFF2700CFE
:104CD0004FF0FF3823F00043CDF850C065280CD0CA
:104CE00006DC452809D046281DD047283DD13DE0A7
:104CF000662818D067287ED138E00021112F01DB0B
:104D0000112000E0781CCDE9000106A90EA8FFF7EC
:104D1000DDFCDDE90F010E9A03910021009207F1FD
:104D2000010A04914DE04FF000400097CDE90110D9
:104D300006A90EA8FFF7CAFCDDE90F0203920E9B3D
:104D400011990022DDF80CA00093049211B9791C8E
:104D500000EB010AB7EB0A0004D4C0F1FF3007F101
:104D6000010A0490AAEB0700019044E0012F00DA49
:104D700001270021112F01DD112000E03846CDE987
:104D8000000106A90EA8FFF7A1FCDDE90F010E9AAC
:104D90000391002104910092BA4621070CD4039993
:104DA000514500DA8A46BAF1010F05DD009AAAF1F1
:104DB0000101515C302908D0B84202DA10F1040F29
:104DC00006DA0121CDE9011015E0AAF10101E9E7B8
:104DD000002805DC049901440491AAEB000102E0DB
:104DE000411C514500DD8A460499401A401C01903F
:104DF0004FF000400290200704D40198504501DB99
:104E0000CDF8048000208DF84F0002980DF14F0777
:104E1000B0F1004F25D02B200E9002984FF00208E1
:104E200000280CDA404202902D200E9007E00A2163
:104E30000298FBF789FA3031029007F8011DB8F1AA
:104E40000001A8F10108F2DC02980028EFD1791ED8
:104E50000E980870307800F0200040F0450007F808
:104E6000020D12A8C01B00F107081498007800B1C9
:104E7000012000EB0A01019801EBE0710598414423
:104E8000401A401E0590E00306D45B462146179A5F
:104E9000059800F05DF805441498007818B15A465A
:104EA000179990476D1CE00324D55B462146179A5D
:104EB000059800F04DF805441CE00498002807DB35
:104EC000DDE90301884203DD0098405C179901E0A9
:104ED000179930205A469047049805F10105401C67
:104EE00004900198401E019004D12E205A46179933
:104EF00090476D1CBAF10001AAF1010ADDDC05E062
:104F000017F8010B5A46179990476D1CB8F100012C
:104F1000A8F10108F4DC5B462146179A0598ABE638
:104F20002D0000002B000000200000002DE9F041C2
:104F3000044600251E461746880404D405E0394679
:104F40002020B0476D1C641EF9D52846BDE8F081CD
:104F50002DE9F041044600251E469046C80301D5C0
:104F6000302700E02027880404D505E04146384674
:104F7000B0476D1C641EF9D52846BDE8F0810A686B
:104F8000531C0B60107070472DE9F04104460E462B
:104F90001746002C41D004F1140005F0BDFE002896
:104FA0003FD0002E41D02078A16A04F093F9054645
:104FB000002D4AD06E60284605F0A8FD2F722946C4
:104FC00004F1140005F09DFE00284ED06C6800210D
:104FD000204606F06DF80021204607F027FD00214D
:104FE000204607F098FE00221146204607F07CF884
:104FF0000021204606F035FA0020686005F1100017
:1050000005F05CFE05F1100005F078FE284604F07E
:105010005BFA4FF0FF30BDE8F0816FF00500BDE8AE
:10502000F0816FF00500BDE8F081144904F114002F
:1050300005F067FE28B9A36A1BB10022114620467D
:1050400098476FF00500BDE8F0810C4904F11400A9
:1050500005F057FE28B9A36A1BB10022114620466D
:1050600098474FF0FF30BDE8F081A36A1BB10022E2
:105070001146204698470020BDE8F081100100202D
:105080002DE9F04106460F460024174D05F0ACFD12
:1050900004EB840155F8211041B105F0CFFD641CEB
:1050A000042CF3DB4FF0FF30BDE8F08104EB840803
:1050B00045F8286005F0C2FD05EB8800002242603B
:1050C00002814281317801F0F001102907D00121DD
:1050D0008181C281027442742046BDE8F0810FB123
:1050E0000121F5E70021F3E7DC7D002010B504463F
:1050F0006068804722462068BDE81040014905F0FD
:1051000063BE0000ED50000800280BD0426A002A60
:1051100008D0537A082B05D10968926A914201D1CF
:1051200000F072B97047000030B583B00546002D1D
:105130006DD06C6A002C6AD000212184606B354BE5
:10514000B0F1FF3F4FF001020CD01E30A3FB00C0B6
:105150004009B0F5803F01D34FF6FF7080B2608404
:1051600000B96284A06BB0F1FF3F0ED01E30A3FBEC
:1051700000C04009B0F5803F01D34FF6FF7080B208
:10518000208300B92283208BA083E06BB0F1FF3F26
:105190000ED01E30A3FB00304009B0F5803F01D394
:1051A0004FF6FF7080B2608300B96283608BE0834A
:1051B000228B608B824201D300B12183E07A10B14F
:1051C000E06A02900FE094F828007F2802D8FF20C0
:1051D000029008E0C02803D36FF07F40029002E005
:1051E0004FF6FF700290206B019028B9A06A0299D7
:1051F000084040F0807001900A21204600F0C6FE71
:1052000001AB02AA04F12801284604F023FB03B0F5
:1052100030BD00008988888870B505466C6A082111
:10522000204600F0B3FE002204F12801284601F0D8
:105230002BFAA07AFF2801D2401CA07240F2E7307E
:105240004FF4FA71B0FBF1F0E08270BD10B5184870
:105250000468002C2AD0616A09B3487AF8B1488CF6
:1052600068B1088C401C80B208844A8C904206D1F8
:10527000204600F053FD204600F01AF913E0C88BD9
:1052800018B1421ECA83012806D0888B38B1421E4D
:105290008A83012804D006E0204600F0FFFE02E0E9
:1052A000204600F0E6FE2468002CD4D110BD00009A
:1052B0007C0100202DE9F04105460C461646002DE4
:1052C0000ED08CB100224FF49A71104604F03DFDCF
:1052D000E06068B1032E14D0A07A414F60B10EE0B7
:1052E0006FF00F00BDE8F0816FF00500BDE8F081C0
:1052F0004FF0FF30BDE8F081FAF7C0FFB860B86842
:105300002060E068406820610121017020694170DF
:10531000216995F82C00887020690027C7702068E3
:1053200002F02CFE216948602069078120694781CD
:105330002069C760082E0AD0042E08D0072E06D098
:10534000032E07D1607A052801D0042802D12169F3
:105350006868C860206907612069476120698761C2
:10536000002095F82C10814205D9062803D229186F
:1053700091F82D1000E00021226900F11C03D154A6
:10538000401C80B21028ECD30020216900F12C02CF
:105390008F54401C80B24028F7D30020216900F1CF
:1053A0006C028F54401C80B28028F7D321690D48CD
:1053B000C1F8EC00A7820020216900F1F0028854B6
:1053C000401C80B24428F7D301223521204600F04A
:1053D0009BF93146204600F0A8F90020BDE8F08195
:1053E000F40000206382536310B5064C2078401E01
:1053F000C0B22070002804D1E06808F091FB0020C2
:10540000E06010BDF400002070B582B005466C6A03
:105410000C21204600F0BAFD042221462846FFF761
:1054200049FF0646300021D104223221204600F0F7
:105430006BF9A06A02F0A2FD0146204600F07CF95B
:10544000204600F0ABF9A08AF03081B2E06804F0A9
:1054500082FE0E4801900F48009543230C4AE168F4
:10546000C06808F0BCFB204600F016F8A07AFF28C0
:1054700001D2401CA07242F603104FF4FA71B0FB47
:10548000F1F0E08202B0304670BD0000F0F200089A
:10549000F4F20008F400002010B50446002C06D0F9
:1054A000E06808B104F0D6FD0020E060206110BD86
:1054B0002DE9F04182B08046D8F824400020A06257
:1054C0000621204600F062FD012221464046FFF7FA
:1054D000F1FE074638002FD102223921204600F084
:1054E00013F9B8F82A10204600F048F904223721B1
:1054F000204600F009F900251F4E2046715D00F09E
:1055000014F9681CC5B2042DF7D3204600F046F903
:10551000A08AF03081B2E06804F01DFE17480190C7
:105520001848CDF800804323154AE168C06808F0A8
:1055300056FB2046FFF7B0FFA07AFF2801D2401C9F
:10554000A072A07A062803D2012101FA00F000E03F
:105550003C2000EB4001C1EBC0104FF6FF7101EAA7
:10556000C00000F2F3104FF4FA71B0FBF1F0E082EA
:1055700002B03846BDE8F081F5000020F0F20008E6
:10558000F4F20008F400002070B50B480468002C09
:1055900011D00025606A58B1C18A012903D9A1F14F
:1055A0000101C18204E003D1C582204600F08DFDD7
:1055B0002468002CEED170BD7C01002070B5446AD7
:1055C0000021E1622163174EA6F12805F07800283A
:1055D00001D0E8686063307910B12869A06302E007
:1055E000606B4008A063707910B16869E06304E003
:1055F000606BC0EBC000C008E06360680069A06237
:10560000B07930B1A86902F0B9FCE0620120E07223
:1056100000E0E172F079002803D0E86902F0AEFC06
:10562000206370BDD07C002010B50446606A0C2158
:1056300000F0ACFC054B20461A46114604F00AF96E
:105640002046BDE81040FFF733BF0000F0F200082D
:1056500070B505466C6A0948807800280CD0084867
:10566000806802F08BFC606260680069A062284676
:10567000BDE8704000F008BC70BD0000D07C002088
:10568000A87C002010B5114C2078002815D108F016
:105690000BFAE060B0B1017A41F0200101724422BE
:1056A0000B4908F0B3F843220949E06808F0F4F820
:1056B00000220849E06808F02FFA2078401C20708A
:1056C000002010BD4FF0FF3010BD0000F40000209E
:1056D000F0F20008195C0008426A002A13D0517ADF
:1056E000002304290CD004DC00290CD0032904D1A8
:1056F00006E0052904D00A2902D09372FFF7D8BE2C
:10570000937200F01FBA7047838A03F1010CA0F86E
:1057100014C0D0F810C0F0330CF80310818A4B1C71
:1057200083820069F03142547047828A531C83821D
:105730000069F03281547047828A4FEA116C531C21
:1057400083820369F03203F802C0828A4FEA114C67
:10575000531C83820369F03203F802C0828A4FEA45
:10576000112C531C83820369F03203F802C0828A31
:10577000531C83820069F03281547047828A4FEA59
:10578000112C531C83820369F03203F802C0828A11
:10579000531C83820069F03281547047002815D071
:1057A000818AFF234A1C82820269F031535400220D
:1057B00004E04B1C83820369F0315A54818A4429E6
:1057C00002D311F0030F01D04429F2D37047000037
:1057D0002DE9F34F83B004460021029101910A2183
:1057E000A848FAF776FD049949892C2904D205B016
:1057F0006FF00100BDE8F08F049949686160F02600
:105800000498B0F80880049F06E0311A8EB2A8EB25
:1058100000001FFA80F83F6817B17889B042F4D9C8
:1058200017B1D7F804A0F8E005B06FF00100BDE8AB
:10583000F08F4FF0FF34B11C1FFA81F97989721C87
:10584000914203D90AEB0601497805E0396811B1A4
:105850004968097800E000210D46342858D00BDC57
:1058600003282BD003DCD8B101280DD11DE0062878
:105870002ED0332808D141E0352852D0362859D0CF
:105880003A2860D03B2867D000257018801C86B26B
:10589000002D6ED0002000907A48005DA8B3ABE0E8
:1058A00000210D46701E86B2EFE7042904D005B032
:1058B0006FF00500BDE8F08F0624E6E70425042913
:1058C00004D205B06FF00500BDE8F08F0724DCE7D7
:1058D00011F0030F04D005B06FF00500BDE8F08FA4
:1058E000082901D20D4600E00825A94204D205B0DE
:1058F0006FF00500BDE8F08F0824C6E7042905D045
:1059000005B06FF00500BDE8F08F2EE00324BCE782
:10591000012904D005B06FF00500BDE8F08F002428
:10592000B3E7012904D005B06FF00500BDE8F08FA2
:105930000124AAE7042904D005B06FF00500BDE8F2
:10594000F08F0224A1E7042904D005B06FF0050010
:10595000BDE8F08F042498E7042904D005B06FF067
:105960000500BDE8F08F05248FE7042D02D2AB4679
:1059700002E041E04FF0040B4B465A466946384678
:1059800004F030FB584504D005B06FF00100BDE8CD
:10599000F08F042D18D915F0030F04D005B06FF067
:1059A0000500BDE8F08F374901200855009802F046
:1059B000E5FA354941F82400281FC5B209F1040071
:1059C0001FFA80F9641C67E7042D06D0012D09D069
:1059D00005B06FF00500BDE8F08F009802F0CEFA38
:1059E000009002E09DF8000000902648012101553A
:1059F0002838009940F824107889B0420DD8311A1F
:105A00008EB2A8EB00001FFA80F846450DD2B8F11F
:105A1000000F0AD03F68D7F804A037B11AF8060083
:105A2000FF2802D04645FFF404AF164A1078A0B113
:105A3000A2F12800006800211170012804D002287A
:105A400005D0032806D008E00120029005E00120DF
:105A5000019002E0012001900290029828B10020FC
:105A600002906C264FF0EC08CDE6019828B100209A
:105A700001902C264FF06C08C5E605B00020BDE86B
:105A8000F08F0000D07C0020A87C00202DE9F84396
:105A900007467D6A0421284600F078FA0322294649
:105AA0003846FFF707FC80465FEA08002BD1022248
:105AB00039212846FFF728FE798D2846FFF75EFE3C
:105AC000042237212846FFF71FFE00241A4E2846DD
:105AD000315DFFF72AFE601CC4B2042CF7D32846C0
:105AE000FFF75CFEA88AF03081B2E86804F033FB6F
:105AF000134800974323114AE968C06808F04BF83F
:105B00002846FFF7C9FCA87AFF2801D2401CA872DA
:105B1000A87A0A2803D24FF47A71484301E042F28E
:105B2000107080B200F2F3104FF4FA71B0FBF1F094
:105B3000E8824046BDE8F883F5000020F4F2000852
:105B4000F40000202DE9F84307467C6A0321204633
:105B500000F01CFA032221463846FFF7ABFB8046D3
:105B60005FEA080038D1022239212046FFF7CCFD38
:105B70004FF410712046FFF701FE04223221204627
:105B8000FFF7C2FDA06A02F0F9F901462046FFF7CF
:105B9000D3FD042237212046FFF7B6FD00251B4E1A
:105BA0002046715DFFF7C1FD681CC5B2042DF7D317
:105BB0002046FFF7F3FDA08AF03081B2E06804F0E0
:105BC000CAFA144800974323114AE168C06807F0F5
:105BD000E2FF2046FFF760FCA07AFF2801D2401CBC
:105BE000A072A07A0A2803D24FF47A71484301E0E8
:105BF00042F2107080B200F2F3104FF4FA71B0FB71
:105C0000F1F0E0824046BDE8F8830000F500002096
:105C1000F4F20008F40000202DE9F04116463C485B
:105C200045686C6A73680027002C69D0207A0028C8
:105C300066D070892C2863D31878022860D10020A0
:105C400095F82C1001E0401CC0B281420BD9062807
:105C500009D22A1803EB000C92F82D209CF81CC0E6
:105C600062454DD1EFE7586802F088F92168884213
:105C700046D131462046FFF7ABFD10BB25484078A2
:105C8000F8B125480079052802D0062821D029E05E
:105C9000607A012806D0032814D0042812D00528E1
:105CA00010D02DE02846FFF789FC95F8330010F05E
:105CB000080F03D02846FFF7AFFA21E02846FFF788
:105CC00033FA1DE02846FFF779FC2846FFF72CFA47
:105CD00016E0637A032B08D0012B06D0042B04D0E6
:105CE000052B02D0022804D00AE02846FFF79CFCCE
:105CF00006E0607A062803D1E7822846FFF7A8FC71
:105D000004B167603046BDE8F04104F0A3B900007B
:105D10002C7E0020D07C0020A87C002070B582B0B2
:105D200005466C6A002C1FD0606A0190284600F07E
:105D300091F906460021204600F028F90020606213
:105D4000A062E0622063E063A063606360842084FB
:105D5000E083A08366B1072221462846FFF7AAFA0E
:105D60000646300007D026E002B06FF00F0070BD8D
:105D700002B0002070BD042236212046FFF7C4FC8B
:105D8000019802F0FBF801462046FFF7D5FC2046BB
:105D9000FFF704FDA08AF03081B2E06804F0DBF97F
:105DA00009480095432301AAE168C06807F0F3FEA3
:105DB0002046FFF771FB054B28461A46114603F0B3
:105DC00049FD02B0304670BDF4000020F0F200083A
:105DD0002DE9F84307467C6A0521204600F0D6F8F5
:105DE000032221463846FFF765FA80465FEA08003D
:105DF0002CD1022239212046FFF786FC798D2046DE
:105E0000FFF7BCFC042237212046FFF77DFC00256C
:105E10001B4E2046715DFFF788FC681CC5B2042D3F
:105E2000F7D32046FFF7BAFCA08AF03081B2E068D1
:105E300004F091F913480097432304F12402E16828
:105E4000C06807F0A8FE2046FFF726FBA07AFF28CF
:105E500001D2401CA072A07A0A2803D24FF4FA6142
:105E6000484301E044F6206080B200F2F3104FF4A2
:105E7000FA71B0FBF1F0E0824046BDE8F883000023
:105E8000F5000020F40000202DE9F04182B08046AA
:105E9000D8F824400121204600F078F8032221465A
:105EA0004046FFF707FA0746380047D1022239215A
:105EB0002046FFF729FCB8F82A102046FFF75EFCC1
:105EC000042232212046FFF71FFCA06A02F056F898
:105ED00001462046FFF730FC042236212046FFF71A
:105EE00013FC606A02F04AF801462046FFF724FCE2
:105EF000042237212046FFF707FC00251F4E2046CD
:105F0000715DFFF712FC681CC5B2042DF7D3204663
:105F1000FFF744FCA08AF03081B2E06804F01BF97E
:105F2000174801901848CDF800804323154AE168CE
:105F3000C06807F054FE2046FFF7AEFAA07AFF28AB
:105F400001D2401CA072A07A062803D2012101FAD6
:105F500000F000E03C2000EB4001C1EBC0104FF628
:105F6000FF7101EAC00000F2F3104FF4FA71B0FBC8
:105F7000F1F0E08202B03846BDE8F081F500002083
:105F8000F0F20008F4F20008F4000020427A8A429D
:105F900003D0417200218172C182704770B50546FD
:105FA000002D0CD095F8330010F0010F0AD06C6A68
:105FB000688DB0F5107F08D24FF0FF3070BD6FF0E4
:105FC0000F0070BD6FF00F0070BDD4B1207A08B122
:105FD000FFF70AFA002121606160A160E1602161A0
:105FE0006161A161E16121626162A162E16221639B
:105FF0006163A163E163FFF745FB60B14FF0FF30E0
:1060000070BD402002F0B8FF04460CB16C62E1E7BD
:106010004FF0FF3070BD012020722846FFF748FA8C
:106020000028F7D0284600F003F84FF0FF3070BD8D
:1060300010B500280DD0446A002C0AD0002120465B
:10604000FFF7A4FF207A002803D0FFF7CDF9002046
:10605000207210BD00280AD0406A40B1407A0A2858
:1060600003D0052801D00020704701207047002090
:10607000704710B5446A617A012903D00A2901D01A
:1060800005290AD1FFF7A4FE608B218C401A022853
:1060900003DB00EBD0704008A08310BD10B5446A4C
:1060A000617A012905D00A2903D0052901D00429E4
:1060B0000AD1FFF7EBFC608C218C401A022803DB2D
:1060C00000EBD0704008E08310BD10B50446616A53
:1060D0004A7A0C2A0FD0062A0DD0012A10D0082A9D
:1060E0001ED0032A2ED1887A022826D22046BDE867
:1060F0001040FFF727BD2046BDE81040FFF7D8B994
:10610000887A052804D82046BDE81040FFF7BCBEB9
:106110002046FFF703FE2046BDE81040FFF7C8B950
:10612000887A012804D82046BDE81040FFF774B8EB
:106130002046BDE81040FEF7F7BF2046BDE81040FE
:10614000FFF7B6B910BD70B505460C4604F04CFD1E
:10615000A96809682160A9680C60BDE8704004F076
:106160006DBD10B5044604F03FFD0146A06804680B
:1061700034B122680260084604F060FD204610BD7C
:10618000084604F05BFD002010BD000070B5054618
:10619000002D05D0154E3068854209D1002070BD14
:1061A000502080F31188BFF34F8FBFF36F8FFEE74E
:1061B00007F034FE6C6907F051FEF06B844202D0A8
:1061C000306C844201D1022070BD0948844205D15F
:1061D000A86A08B1022070BD032070BD0548844242
:1061E00002D00CB1012070BD042070BD8C000020D5
:1061F00094380020803800202DE9F04104460E46F6
:106200000027676065786770042D52D004F0ECFCBD
:10621000267204F013FDA36A1BB10022042120465C
:106220009847A36A1BB10022114620469847A36AEB
:106230001BB1002202212046984704F1100004F00F
:106240006BFD20B1002104F1100004F05AFD04F1AF
:10625000140004F061FD20B1002104F1140004F0E9
:1062600050FD012D03D0042D01D0032D2FD1207F0F
:10627000C0F3800120F004002077002927D1606A54
:106280000671606A006800F10C05284604F081FD83
:1062900067624CB104F0A8FC94F9081011F10D0FDD
:1062A00000DD267204F0CAFC2846BDE8F04104F087
:1062B0006DBD0026002CAED004F096FC94F90810B9
:1062C00011F10D0F00DD277204F0B8FCA3E7BDE863
:1062D000F0810000002802DC4142112901DB052089
:1062E00070470249A1EB800000687047F8F200088F
:1062F00070B505460024094E04EB440006EBC000CF
:10630000017D29B18068A84202D1204600F08EF8B4
:10631000601CC4B20A2CEFD370BD0000DC7C0020EE
:106320002DE9F74F05464FF00A0AD3460A2300200D
:106330009E460027804681463B4900EB400601EB24
:10634000C602117D0A2B00D151B1A9B155B1D5F8C2
:1063500000C05468A44505D103B040B2BDE8F08F39
:1063600043B209E0012910D0022905D3518A4945D9
:1063700002D34FFA80FB8946401CC0B20A28DBD307
:10638000019810F0020F1DD112E0274951F8361084
:1063900039B1B2F812C0BC45EED34FFA80FE674661
:1063A000EAE7548A4445E7D34FFA80FAA046E3E788
:1063B0000A2B03D1019810F0010F03D00A2B06DA43
:1063C000DCB218E003B04FF0FF30BDE8F08FBBF156
:1063D0000A0F02DA0BF0FF040AE0BAF10A0F02DA40
:1063E0000AF0FF0404E0BEF10A0F17DA0EF0FF0412
:1063F000204600F01BF835B10B4804EB440200EBDB
:10640000C20029684160084804EB440200EBC20066
:106410000021418203B060B2BDE8F08F03B04FF0BD
:10642000FF30BDE8F08F0000DC7C002070B5084D27
:1064300000EB4004002655F83400002803D003F098
:1064400009FE45F8346005EBC400067570BD000018
:10645000DC7C0020F0B583B007460D46002D10D03F
:106460007C682088B0F5807F08D12079062805D186
:106470006079042802D16088082804D0384603F0E7
:10648000E9FD03B0F0BDD4F80E000290A0690190C0
:10649000696819B1884203D1012602E0002600E0B4
:1064A00000260EB1012300E0022304F1080202A934
:1064B000284600F00FFAE088B0F5807F03D0B0F5F1
:1064C000007F26D121E0FEB1022001F063FDE080D3
:1064D000D4F80E00A0616868C4F80E00A068C4F883
:1064E0001200A089E082D5F82D00A060B5F8310037
:1064F000A08140F60600009004F1120304F10802A6
:106500003946284600F026FB03E002A92846FEF79C
:10651000FBFD384603F09EFD03B0F0BD70B584B0BE
:1065200005460E4614462946206800F080FD08B155
:106530003A4B40E0206800F0F001E02926D0A9683D
:106540006B6800EA010219408A4208D080B2A0F5C7
:106550007E41A93903D0E868C0B305F10C04304B83
:1065600030481A7802EB420100EBC10191F814C0E7
:10657000BCF1020F2FD3D4F800C049688C452AD152
:106580003146284600F050F804B070BD01208DF867
:10659000080000208DF809005E208DF80A00607860
:1065A00000F07F008DF80B00A0788DF80C00E078EB
:1065B0008DF80D0002AB4FF40060009005F12D0244
:1065C0003146284600F0C6FA04B070BDFFE704B0BB
:1065D0006FF0030070BD002101EB410200EBC2022D
:1065E00092F814C0BCF1020F0CD3D4F800C052686A
:1065F000944507D1CAB21A703146284600F014F803
:1066000004B070BD491C49B20A29E5DB3246214677
:10661000284600F039F804B070BD00003CF30008D3
:1066200004010020DC7C0020F8B505460E46154824
:1066300002EB420100EBC104207D022816D1618AE1
:106640000327B1F58E7F06D9211D284600F0F6F804
:1066500060B927750AE0B1F5877F07D304F10C0212
:10666000211D284600F0F0F800B927754FF40060AE
:10667000009004F10C0305F12D023146284600F08C
:1066800069FAF8BDDC7C00202DE9F04F83B082462A
:10669000884616460AF12D0002904FF0FF344FF065
:1066A000000B5146D8F8000000F0C1FCA8B9D8F89A
:1066B000000000F0F001E0290FD0B8F1000F0CD07D
:1066C00058B1524601214046FFF72AFE81465FEA53
:1066D000090007D503B0BDE8F08F03B06FF00F00DD
:1066E000BDE8F08F304809EB490700EBC705287D6E
:1066F00028B94FF0010B01202875C5F808A0BBF19F
:10670000000F00D12EB94146504600F097F80446DC
:106710009EB1287DDFF89080022812D3234880F8AC
:1067200000904FF40060009005F10C033146504694
:10673000029A00F00FFA044631E003B02046BDE8AB
:10674000F08F01282BD100213446207B012801D075
:10675000012102E02468002CF7D181B121890022B7
:10676000022003F0F2FA05466DB13146284603F0E7
:10677000E5FB40B1284603F06DFC002503E03546FB
:10678000284603F016FD45B158F8370008B103F06C
:1067900061FC48F83750002401E04FF0FF3403B0AB
:1067A0002046BDE8F08F0000DC7C002004010020C2
:1067B0002DE9FF4F81B00EAE994696E8C0094FF023
:1067C000000A00221C21022003F0BFFA054628001F
:1067D0002ED06C68584601F0DDFBE080D9F800004F
:1067E000A060B9F80400A0813868C4F81200B88825
:1067F000E0823068C4F80E00D8F80000A0614FF4C1
:106800008070208008206080062020710420607144
:1068100040F6060000902946039B029A019800F07A
:1068200099F9284603F016FC05B05046BDE8F08FF4
:1068300005B04FF0FF30BDE8F08F0000014A00F0D6
:1068400003B800003CF3000810B584B001230393A3
:10685000DFF818C0041D029100F12D03CDF804C02B
:1068600000941946FFF7A4FF04B010BD42F30008DE
:106870002DE9F04100240426154D022704EB4400C5
:1068800005EBC002117DE9B1508A401C80B25082F4
:10689000B0F5967F03D2012905D1052803D3204600
:1068A000FFF7C4FD0EE0032904D0042904D0012918
:1068B00004D007E0167505E0177503E0111D906818
:1068C000FFF7BCFF601CC4B20A2CD7D3BDE8F0812F
:1068D000DC7C0020F8B505460C4616461F46002C09
:1068E00034D02068002831D0294600F0A0FB68BBD6
:1068F000207800F0F000E02828D02A4639462046CB
:10690000FFF70EFD002820DB124A00EB400102EBEE
:10691000C1000223037585603368C360B3880382B6
:106920000023438252F8314074B142F831304FF4C1
:1069300000600090334605F12D022146284600F004
:1069400009F9204603F086FB0020F8BD6FF00F0028
:10695000F8BD0000DC7C002070B504460E4660895E
:106960000E2840D960688589027812F0010F15D091
:10697000012A05D006222149F9F7BDFC50B10DE0EE
:10698000417859B980785E2808D1607B40F01000CA
:10699000607303E0607B40F0080060736FF00D01EE
:1069A000082D03D0B5F5C16F1DD110E096F8330066
:1069B00010F0080F17D060890E2814DB204603F072
:1069C0007FFB80B93146204600F02CFC14E096F89D
:1069D000330010F0080F06D060890E2803DB204634
:1069E00003F06EFB20B1204603F034FB002070BDA5
:1069F00031462046FFF72EFD002070BD3CF3000815
:106A00002DE9F0410746002400250026FAF792FA06
:106A100097F8331011F0040F10D001280ED820A0E1
:106A2000FDF720FE384602F041FF384602F07CFFB9
:106A3000BDE8F0412049214802F072BF11F0040F77
:106A40002CD101282AD9022806D0032809D00428ED
:106A50000BD005280ED10CE04FF40066F5000124A0
:106A600008E04FF48045012404E04FF4006601245F
:106A700000E00124002C11D0384602F063FF1048DA
:106A8000C66085600021FAF791FE0EA0FDF7EAFDD1
:106A9000BDE8F0410849094802F042BFBDE8F08175
:106AA000B6CFBFAACDF8CFDFA3ACD0E8D6D8D0C23E
:106AB000C1ACBDD30A000000D96A0008E80100207B
:106AC000C0320020C1ACBDD3CDF8CFDFA3ACC5E44C
:106AD000D6C34D41430A000010B590F833000D4C69
:106AE00010F0040F0CD00CA0FDF7BCFD0E4802F016
:106AF0004FFF01202070BDE810400B48FFF74EBA51
:106B0000094802F0D3FE05202070BDE8104007A020
:106B1000FDF7A8BD04000020B3C9B9A6C1ACBDD320
:106B2000CDF8BFA80A000000E801002054686520E5
:106B30006E6574776F726B206361626C6520697338
:106B4000206E6F7420636F6E6E6563746564200AD7
:106B5000000000002DE9F04107460E4615461C4690
:106B6000069801F017FA80460E21304603F0A8FA85
:106B700018B16FF00100BDE8F081D6F804C0ACF8A0
:106B80000C802068CCF80000A088ACF804002868CD
:106B9000CCF80600A888ACF80A0031463846BA6935
:106BA000BDE8F0411047000010B5732180F83410A3
:106BB000742180F83510044941610449816100F075
:106BC0005DFF002010BD00001D650008957C0008D9
:106BD00005460C4E4FF0FF31306803F057F800289F
:106BE000F8D1284600F0F4FF04463CB12A69294652
:106BF0002046904710B1204603F02CFA002CF0D12B
:106C0000E8E700000C0000202DE9F84F04460F468D
:106C1000002C7DD0A669002E0DDA03F0E5FFA669F1
:106C2000002E06DA0FB9711EA161BDE8F84F04F01D
:106C300005B804F003F8304600F0D2F80546280005
:106C400076D003F0D1FF00904FF0010B052F14D246
:106C5000DFE807F003070B0E11006889401C68810C
:106C60000BE06889401E688107E0A5F80CB004E0DD
:106C70000020A88101E0A5F80EB0687C90B1F01763
:106C800006EB5070C71006F00700DFF8A8A00BFA5B
:106C900000F8DAF80040002C45D0DAF8049060697A
:106CA00028B131E00098BDE8F84F03F0C7BF0020DD
:106CB000B5F90A10002908DDA16831B1042E04D20B
:106CC000C95D11EA080F00D00120A98949B140B976
:106CD000E16831B1042E04D2C95D11EA080F00D079
:106CE0000120E98949B140B9216931B1042E04D2AA
:106CF000C95D11EA080F00D0012028B1C4F814B012
:106D000004F1180004F042F8009803F097FF00E047
:106D10000EE003F069FF0090DAF804008145B8D175
:106D20002468002CB9D10098BDE8F84F03F086BF65
:106D3000BDE8F88F1401002013B54FF6FF73012250
:106D400069460348FCF710FA009802B010BD000035
:106D50006033002010B5002821D0114B0022001F05
:106D6000196803E0814203D80A4649680029F9D12D
:106D700052B11368841A9C4204D100681844106010
:106D8000104602E0506000E0186039B102680B1A4A
:106D9000934203D10B681A4402604968416010BDF8
:106DA000E40100202DE9F04104460F466668002505
:106DB00065602581257403F017FF256003F03EFF11
:106DC000002E0AD027B13046BDE8F04103F042B9A9
:106DD0003046BDE8F04102F0F9B9BDE8F0810000AD
:106DE00009220849042802D30A6000207047064B94
:106DF00000EB800003EB80000368002BF6D10A60F3
:106E0000002070472C010020DC7D00200A46032171
:106E100000F0A2B82DE9F04784B0044688464D4FF3
:106E2000D7F808A09AF800000007850E142D7DDB26
:106E3000608904287AD36068017800297ED0082907
:106E40007CD107F11409786900F0F001E0294FD0F6
:106E5000396800F0ECF800284AD12089082873D35B
:106E6000204600F0BEF828B104B02046BDE8F04747
:106E700003F0F0B805F10E0001B20E46204603F013
:106E80001FF970B320890022284481B2022002F049
:106E90005CFF0646FEB1708905F10801884203D205
:106EA000304603F0D7F823E02A4651467068F9F7D8
:106EB000F7F9684201B2304603F002F918B13046E2
:106EC00003F0C8F814E02146304603F037F818B153
:106ED000304603F0BFF80BE0204603F0BBF8344621
:106EE0000CE0FFE7704201B2204603F0E9F828B158
:106EF00004B02046BDE8F04703F0ACB86668294608
:106F0000204603F0DDF890B96068D9F80010C16040
:106F100039690161002131707180FF220272418163
:106F20000120FF230022CDF8088001E00CE005E0FD
:106F3000009101904946204600F06EFA04B02046C8
:106F4000BDE8F04703F086B804B02046BDE8F0473E
:106F500003F080B82C7E00202DE9F04385B0064672
:106F60008846914600222421012002F0EEFE0546CB
:106F7000280027D077686C6884F8008084F8019036
:106F80004FF00008A4F80480A4F8068068687168CF
:106F900008301C22F9F784F9F868049004A800F07E
:106FA0006FFB60B1A4F80280012101910290FF23E0
:106FB00004AACDF800800021284600F02DFA2846CA
:106FC00003F048F805B0BDE8F0830A460B21FFF74F
:106FD000C3BFEFF30580002801D0012070470020D7
:106FE000704770B5054600240026002D16D069892B
:106FF000686801F021FF204481B201EB1044A87AB7
:1070000010F0010F07D0C6F10100C6B2E0B2C4F320
:10701000072141EA00242D68002DE8D126B1E0B215
:10702000C4F3072141EA0024E04380B270BD81B07F
:107030000090B0F1FF3F0CD002000AD091F833204D
:1070400012F0020F08D04A68824208D1002001B035
:107050007047012001B07047002001B07047896877
:1070600000EA01030A40934203D10843B0F1FF3F15
:1070700002D0002001B07047012001B0704700002D
:107080002DE9F74F88B004460998408D1438C11790
:1070900000EB5170C0F3CF00039014260027606806
:1070A00005900598017801F00F01052903D00BB078
:1070B000B81FBDE8F08FC08800F06CFFC0F30C0172
:1070C000029110F4005F04D00BB06FF00500BDE832
:1070D000F08F208914381FFA80F8B8F1000F70D0B3
:1070E0000398C00007900398B8EBC00F01D2404648
:1070F00000E007981FFA80FA00221421022002F013
:1071000024FE06900698002856D0069841680598F7
:1071100002680A6042684A6082688A60C268CA601F
:107120000069086106984068049055466DB360890F
:10713000801B87B2BD4200D22F467FB300F038FBE0
:1071400081465FEA09002DD060684B4630440090CC
:10715000022239460197042002F094FE8346BBF1D7
:10716000000F23D0204603F024F8C9F814402C481F
:10717000C9F810005946069802F0B8FEE81B85B21F
:107180000DB100262468002DD1D1F01986B20998DE
:10719000408D1438404515DB012114E0FFE700263F
:1071A0002468F0E7069802F055FF05E0484600F035
:1071B00002FB069802F04EFF0BB04FF0FF30BDE827
:1071C000F08F29E000210298C0F30C0009B940F4C7
:1071D000005000F0DFFE0499C8800AF1140080B26C
:1071E00000F0D8FE0499488004990020488109984D
:1071F0000A9A069943699847069802F02BFFA8EB74
:107200000A001FFA80F803990298084480B202909D
:10721000B8F1000F7FF467AF0BB00020BDE8F08F2E
:10722000657A00082DE9F05F07460E464FF0010A27
:107230007D6804212878B1EB101F05D0384602F094
:1072400009FF0020BDE8F09F00F00F004FF6FF712E
:1072500001EA8008688800F09DFE04463889A04253
:1072600003D92146384602F076FF7889404505D398
:107270003889A04202D3B8F1140F05D2384602F083
:10728000E9FE0020BDE8F09FDFF884B12869CBF863
:107290001400E968CBF8101000F0F000E02812D0DC
:1072A0004FF00109344694F8330010F0010F15D067
:1072B000616899B1DBF8140088421DD02146FFF7C0
:1072C000B6FEC8B90AE096F8330010F0010F03D0FB
:1072D000706808B134460FE000240DE0B9F1000FEA
:1072E00004D04FF000094B48046800E02468B44221
:1072F00000D12468002CD6D15CB9687A112808D155
:1073000005EB08004088B0F5884F02D134464FF0B5
:10731000000ABAF1000F0CD0DBF8100048B131467A
:10732000FFF785FE88BB9BF8100000F0F000E02816
:107330002DD05CB3E88830F0C00005D0384600F0AE
:10734000DFF807467FB37D68CBF80040CBF80460D8
:10735000CBF8085028780007800EABF80C000FFA25
:1073600088F8C8F1000001B2384602F0A9FE687A38
:10737000012826D006281FD0112818D02146DBF876
:107380001400FFF754FE08B32FE000E005E0384694
:1073900002F060FE0020BDE8F09F384602F05AFE81
:1073A0000020BDE8F09FFFE70020BDE8F09F3146D8
:1073B000384606F09FFA1BE03146384604F0A6F83E
:1073C00016E031463846FFF725FD11E09BF8140022
:1073D00000F0F000E02808D04146384602F073FE85
:1073E0007D6002213846FFF711FD384602F032FE7B
:1073F0000020CBF80000CBF80400CBF80800ABF875
:107400000C00CBF81000CBF81400BDE8F09F000092
:107410002C7E00207C01002070B584B0DDF828C0EF
:10742000099D089C002A05D00E0001D00E680EB9F7
:107430000CF10401CDF808C00195009400F002F8A9
:1074400004B070BD2DE9F84F0546DDF82CA0DDF83D
:1074500028900C9F884616469B46002E34D0142157
:10746000284602F02DFE18B16FF00100BDE8F88F3C
:107470006C6884F808B084F809A030682061452061
:10748000207084F80190288900F084FD60804FF01E
:107490000009A4F80690DFF860A0BAF8000000F038
:1074A00079FDA080BAF80000401CAAF80000B8F1ED
:1074B000000F05D0D8F80000E060A4F80A9007E0BB
:1074C0000E480068E060F8E76868006900906E4662
:1074D000788D48B12989814206D9324639462846F5
:1074E000FFF7CEFDBDE8F88F7B6932462946384666
:1074F0009847BDE8F88F000006010020F0F2000870
:107500002DE9F0478246DAF80450287800F00F00A1
:1075100005287DD1E88800F03DFDC0044FEA104801
:10752000688800F037FD297801F00F01494200EB2F
:1075300081001FFA80F9504602F0F6FC06464F4FD4
:10754000398888190A2809D93146284600F034FAC2
:1075500000285DD0388830440A2859D87C6874B136
:10756000E8686169814207D1A1692A69914203D122
:10757000A189AA88914202D02468002CF1D134B1AB
:10758000E88800F007FDC004C00C08D017E03146C1
:10759000284600F0A1F90446200068D00FE0E089F9
:1075A00000F0F8FCC004C00C09D02868A06068682E
:1075B000E060A8682061E86860612869A061388897
:1075C00030443880A87910F0200F06D1A07F40F019
:1075D0000100A07708EB0900A0835146204600F087
:1075E000EFF8002840D0A08B1430A0836068466874
:1075F0003568A0683060E06870602069B0606069DC
:10760000F060A0693061A08B00F0C4FC708000E0E5
:107610002DE00020F0807081D4F8048065B16E68A0
:107620006FF01301284602F04BFD2946404602F058
:107630005DFC3568002DF2D179688C4201D10021C2
:1076400006E029B10868A04202D001460029F9D11C
:10765000204600F031F9404602F066FC3988081AED
:1076600038804046BDE8F0870020BDE8F0875046EE
:1076700002F0F0FC0020BDE8F087000008010020C7
:1076800030B404461948006800281DD090F8331023
:1076900011F0010F15D011F0040F12D0D0F804C072
:1076A000BCF1000F0DD02268836802EA03050CEAE2
:1076B00003039D4217D011F0020F02D1C1688A4224
:1076C00011D000680028E1D10948006850B190F855
:1076D000331011F0010F05D011F0040F02D04168F2
:1076E000002900D1002030BC704700007C01002040
:1076F000800100201022014900F002B8CC7D00205A
:107700002DE9F04F034682B008464FF0000C19688F
:107710000191034601AEE046DFF890A0E9464FF044
:107720002E0B00243578AAFB05E7F908494201EB46
:10773000810105EB41074FF0CD0E15FB0EF1CD0A8F
:10774000357007F1300E2746641CE4B209F807E0F3
:10775000002DE7D1611EC9B20FD364460CF1010CB4
:10776000944203DB02B00020BDE8F08F19F801401D
:1077700003F8014B491EC9B2EFD261460CF1010C6E
:10778000914203DB02B00020BDE8F08F03F801BB9B
:10779000761C08F1010101F0FF08B8F1040FC0D315
:1077A000002103F8011C02B0BDE8F08FCDCCCCCC99
:1077B000052001F0FFBC0146052001F0C9BC000016
:1077C0002DE9F04707460E4600240125D6F804802F
:1077D000B8F8020000F0DEFB98F8001001F00F018D
:1077E000494200EB8109B8F8060000F0D3FBC00461
:1077F000010C736800201860998001EB09001FFAE2
:1078000080F8A3F806807A68F2B15068B0F804C036
:1078100061450CD21A6044B1B4F806C061453CD34E
:107820008088804539D826600EE07E600CE034D038
:10783000C288914231D31CB1E288624500D0002554
:1078400002680446002AE0D142B934B12660E088DB
:107850009988884202D0002500E07E60B87F10F051
:10786000010F17D09DB1786810B14068808808B1C9
:1078700000250CE0196851B14868D9888288914286
:1078800001D0002503E0034601680029F4D1284611
:10789000BDE8F0870020BDE8F087304602F044FBE9
:1078A00004490A88101A0880304602F0D3FB0020F1
:1078B000BDE8F087080100200B4606490268D1F8B0
:1078C00004C0844501D14A6000E01A6001460420EA
:1078D00001F03EBC0801002070B505460E460420AC
:1078E00001F068FC044654B93146284600F064F8BB
:1078F000B04203DB042001F05DFC0446CCB1002162
:107900006160A160E16021616161A161E1610320C9
:10791000E07709484168216044602868A060686891
:10792000E060A8682061E86860612869A06120467D
:1079300070BD002070BD0000080100202DE9F0415D
:1079400006460F460025746860688188002917D1B3
:10795000006870606068B1680160F1684160316919
:1079600081607169C160B169016101212046FFF741
:107970002CFB204602F0D8FA0546204602F06AFBAE
:10798000746864B16068A0460468404602F0CCFAAE
:10799000284485B2404602F05DFB002CF2D1394606
:1079A0003046FFF789FF03490888401B08802846B6
:1079B000BDE8F081080100202DE9F04705460F469B
:1079C0000026DFF86C800020002184460024D8F8CF
:1079D0000420EAB1D5F80C9053694B4509D193695D
:1079E000D5F810A0534504D19389B5F804A05345A8
:1079F00008D0641CC0B1D37F90F81FA0534501D8B4
:107A000010468C46136803B111461A46002AE3D18A
:107A100018B16146FFF792FF0644BE4201DA012C1D
:107A2000D1DC3046BDE8F08710468C46EAE700001E
:107A30000801002070B5002509484468002C0DD0CD
:107A4000E07F20B1401EE0772546246804E0204610
:107A500024682946FFF772FF002CF1D170BD0000A9
:107A60000801002010B504466069002801D002F02A
:107A7000F1FA2046BDE81040FFF79DBE30B589B051
:107A800004460025089541A04168006807910690CA
:107A900041484049016006A94161012141608A03D2
:107AA0008260CA02C260CA0502628161C561058244
:107AB000FAF734F800285ED038A0FCF7D3FD042391
:107AC0003A4A3B493448F9F74DFF3A4A0423A2F5B4
:107AD00080713148F9F706FF062084F82C00022057
:107AE00084F82D0084F82E5084F82F5084F83050FC
:107AF00084F8315084F8325040F2DC50608594F8BC
:107B0000330040F00A0084F833000595012105A8F0
:107B100002F070F828490860284890E80E100069C3
:107B20008DE80E1004902146684602F0EFF81A48DE
:107B3000FAF7FCF908AA02211748FAF7ABF908AAE4
:107B400011211548FAF7A6F9089840F003020892A7
:107B500011211148FAF7A9FA08AA12210E48FAF7DA
:107B600099F9089840F02002089212210A48FAF781
:107B70009CFA09B030BD12A0FCF774FD94F83300F4
:107B800040F0040084F8330099E700000200000090
:107B90000000000000800240C0320020455448B37D
:107BA000F5CABCBBAFCAA7B0DC0A0000F01A0020BF
:107BB000A0020020200300200C000020C4F00008D8
:107BC000455448B3F5CABCBBAFB3C9B9A60A000057
:107BD0002DE9F84F0020009000242D48F9F70AFF06
:107BE00010B10020BDE8F88F2948818F89B2D0F804
:107BF00040A021B10322042002F0A7F800900098D1
:107C000040B32348D0F83080009F40F2F45B7D8978
:107C100000262819584512D97868ABEB04090AEBFD
:107C2000040130444A46F8F73BFBD8F80C80D8F8FA
:107C300008A0A5EB09054E4400245D45ECD8786802
:107C40000AEB040130442A46F8F72AFB2C443F682B
:107C5000002FDCD10E4A106B0021936B002B08D94A
:107C6000036843F000430360C068491C936B8B4278
:107C7000F6D800219163106800F58050426912F037
:107C8000800F02D08022426181600098BDE8F88FA9
:107C9000C03200202DE9F05F0F462B48C66AD6F8A7
:107CA00008B04FF0000A0024002F3AD0306810F0DE
:107CB000004F02D06FF0070038E07D894FF00009D7
:107CC000291940F2F45081421ED940F2F450A0EB41
:107CD00004087868424600EB09010BEB0400F8F752
:107CE000DFFAF668306810F0004F02D06FF007003E
:107CF0001CE0D6F808B040F2F450A5EB0805C144EA
:107D0000C24400248542E0D878682A4600EB090185
:107D10000BEB0400F8F7C4FA2C44AA443F68002F88
:107D2000C4D151460848FAF724F9002006490968E9
:107D300001F580514A6912F0200F03D020224A61D8
:107D400000224A60BDE8F09FC03200202DE9F04FCC
:107D500087B08A4615464FF00009CDF81090FFF71E
:107D60003FF80446200013D02068DFF84881017FE7
:107D700011F0020F11D0B4F90A1000290DDC0B200C
:107D80002074C8F8000007B04FF0FF30BDE8F08F56
:107D900007B04FF0FF30BDE8F08F06A901F056FAAA
:107DA000E8B12168097801F0F001102904D05F20C2
:107DB0002074C8F8000008E010F10F0F0AD0FEF799
:107DC00089FA207408B1C8F8000007B04FF0FF30FE
:107DD000BDE8F08F16202074C8F80000F5E70121F7
:107DE0000698FDF74DF90646B6F1FF3F33D032490C
:107DF00006EB860001EB800702F0F6FE01460698CE
:107E0000B7F90A208369DB4302FA83F27A8186613B
:107E1000084602F013FFBAF1000F45D0002304AA70
:107E200005A9069801F068FB83465FEA0B001ED0A7
:107E3000069801F0CBFA01213846FEF7B3FF584609
:107E4000FEF748FA207408B1C8F8000007B04FF0F8
:107E5000FF30BDE8F08F069801F0B8FA17202074C3
:107E6000C8F8000007B04FF0FF30BDE8F08F1020D9
:107E70008DF8000002208DF80100BDF8100000F020
:107E800089F8ADF8020005980190CDF80890CDF87A
:107E90000C909DF800002968814200D9286069464D
:107EA00050462A68F8F7FCF984F8109007B030467D
:107EB000BDE8F08F2C010020DC7D0020F8B50D46D8
:107EC0001746FEF78DFF04461CB1174E102F09D13F
:107ED00002E04FF0FF30F8BD6878022802D115F0BB
:107EE000030F09D06FF00F00FEF7F4F9207400B112
:107EF00030604FF0FF30F8BD68680090688800F08F
:107F000049F8236802466946184601F02FFA38B14D
:107F1000FEF7E0F9207400B130604FF0FF30F8BD9B
:107F200000202074F8BD00002C01002070B5002551
:107F3000FEF756FF0446200012D0206820B10178D9
:107F400001F0F00110290ED001F040FA68B1FEF7FF
:107F5000C1F9207408B1084908604FF0FF3070BDC6
:107F60004FF0FF3070BD0125EEE729462046FEF7B1
:107F700019FF002070BD00002C010020010600F454
:107F80007F4241EA022100F47F0241EA122141EAE4
:107F9000106070470106090C41EA1020704710B5C7
:107FA00002F080FE00F0CAFF01F0DEF801F042FCB2
:107FB00005F09EFC03F0A8FABDE8104002F058BF9F
:107FC00070B50D46FEF70CFF0446200007D0002DCB
:107FD00001DDFF2D06DA002D05DC002503E04FF062
:107FE000FF3070BDFF25E9B2206801F0A5FAA0B10D
:107FF00021680B4D097801F0F001102905D05F20B0
:10800000207428604FF0FF3070BDFEF763F92074D4
:1080100000B128604FF0FF3070BD0020207470BDAB
:108020002C01002010B50446206890F9080010F1DA
:108030000D0F01DC207115E0FA20207122685068D4
:1080400080B1A168127802F0F002102A06D0202A2E
:1080500008D1A28905F0DAFB207103E0A28903F0C0
:108060002BF82071206800280DD002F0BDFD21689A
:1080700091F9082012F10D0F01DD22790A72BDE895
:10808000104002F0DBBD10BD10B5044621688C46DF
:1080900048784A686FF00A03002A30D0097801F066
:1080A000F00110292BD1227A032A01D0022826D0F0
:1080B00003281FD001281FD012F0010F02D0604604
:1080C00001F09EF921680420487020684462002174
:1080D000206800F029F8002823D0124802F036FE6C
:1080E000206800210C3002F08BFDBDE810400D48E7
:1080F00002F019BE237103E0FB20207100E0237120
:10810000206800280DD002F06FFD216891F9082049
:1081100012F10D0F01DD22790A72BDE8104002F064
:108120008DBD10BD280100202DE9F05F04468B466F
:108130004FF00008D4F804A0606A007A00F001094A
:1081400000F00207032812D0B9F1000F07D09AF807
:10815000140005280DD006280BD0082809D057B1E7
:108160009AF81A0010F0100F05D0012504E001253F
:1081700002E0012500E000251DB10021504602F07B
:1081800097FF9AF8140001281FD0B9F1000F07D00B
:108190000021504604F04AFC0021504602F021FF25
:1081A0001FB10021504604F0B6FD45B10022114632
:1081B000504603F099FF0021504603F052F94DB1AB
:1081C000504602F0C7FF06460AE00021504602F082
:1081D00008FFF4E73A464946504604F0A0FD06463B
:1081E0008EB1B6F1FF3F11D04FF00108B8F1000F8A
:1081F00045D0606A016801F10C08067100206062D8
:10820000607086B127E04FF00108EFE7606A407ABE
:108210000028EBD14FF00108002DE7D0504602F0C6
:10822000DDFE0026E2E735B16060A36A1BB10022E3
:10823000042120469847B9F1000F05D0A36A1BB16D
:1082400000221146204698472FB1A36A1BB1002295
:108250000221204698474CB102F0C6FC94F9081060
:1082600011F10D0F00DD267202F0E8FCBBF1000FEA
:1082700002D0404602F08AFD0020BDE8F09F1FB109
:108280000949504604F047FD01220849504603F0D1
:108290002BFF0749504603F0E4F82146504602F010
:1082A00007FF3046BDE8F09FB3AA000899A2000876
:1082B000F961000870B5044621684878002803D0A9
:1082C000022801D0032815D1032803D1087F10F01C
:1082D000040F0FD000252571206801F091F8206867
:1082E000416889B1027802F0F002102A2FD0202ACA
:1082F00008D102E0FB20207112E0CD6120684068C7
:1083000005F00EFC206845602068836A13B10022E6
:10831000114698472068836A13B1002202219847CA
:1083200020680C3002F035FD002829D02068002894
:1083300026D002F059FC216891F9082012F10D0FA6
:1083400001DD22790A72BDE8704002F077BC042199
:108350004170032020722068446200212068FFF7EA
:10836000E3FE00280CD0074802F0F0FC2068002152
:108370000C3002F045FCBDE87040024802F0D3BC6E
:1083800070BD00002801002010B504466FF00A03FC
:1083900020684068002836D0217C19B1A1680068A7
:1083A000086002E0A1684068086000202071206831
:1083B000017801F0F001102913D0202924D1217C6B
:1083C00021B14068E168408A08801DE04068017C76
:1083D00011F0040F03D0E168808A088014E0237153
:1083E00012E0217C21B94268127D2AB1012A03D012
:1083F00021B14068C08A03E0237105E04068008B2A
:10840000E168088000E02371206800280DD002F0A8
:10841000EBFB216891F9082012F10D0F01DD2279A3
:108420000A72BDE8104002F009BC10BD70B50446E8
:10843000206890F9080010F10D0F01DC20710BE0AD
:10844000F52020712068426832B1017801F0F00116
:10845000102912D0F02020712068002853D002F09B
:10846000C3FB216891F9082012F10D0F01DD22797B
:108470000A72BDE8704002F0E1BB4078002618B1F6
:108480000228E9D12671E7E7107D10B1FA202071AA
:10849000E2E7FF21104603F039FB05469DB1206855
:1084A000103002F039FC38B12068103002F006FCC0
:1084B0002068103002F022FC26712068143002F08F
:1084C0002BFC18B108E0FF202071C5E720680621C9
:1084D000143002F0FDFB2071207928B1284602F00B
:1084E00039FE20684660B7E721680220487021689D
:1084F00028464D60216802F0DBFD20680249406893
:1085000002F06FFDA8E770BD894F000810B5044662
:108510000020207120684068002802D1204601F028
:1085200057FE206800280FD002F05EFB014620684D
:1085300090F9082012F10D0F01DD22790272BDE8D9
:108540001040084602F07ABB10BD70B50546002009
:10855000287128684168002914D0007800F0F000E4
:1085600010280FD1AC68B4F5803F02D34FF6FF76E8
:1085700000E0A6B228683146406804F06EFAA41BF9
:10858000002CF0D1286800280DD002F02DFB2968BE
:1085900091F9082012F10D0F01DD2A790A72BDE868
:1085A000704002F04BBB70BD10B50446206890F9D6
:1085B000080010F10D0F01DC207117E0F52020718B
:1085C0002068D0F804C0BCF1000F0FD0007800F094
:1085D000F00020280AD1A0688168C1B1838900F128
:1085E00008020168604605F0BCFA20712068002886
:1085F00013D002F0F9FA216891F9082012F10D0F59
:1086000001DD22790A72BDE8104002F017BB016853
:10861000604605F09DFA2071E8E710BD10B50446EC
:10862000206890F9081011F10D0F01DC217106E0AE
:10863000017801F0F001102912D0FA202071206891
:10864000002831D002F0D0FA216891F9082012F107
:108650000D0F01DD22790A72BDE8104002F0EEBA7A
:10866000417811B1FB202071E9E74168C9B10121CE
:10867000417020684462216800200862002120685F
:1086800000F016F800280FD0084802F05FFB2068C1
:1086900000210C3002F0B4FABDE81040034802F0AB
:1086A00042BBF5202071CAE710BD00002801002060
:1086B0002DE9F047044689460027606A037C217F44
:1086C00011F0020F02D113F0040F02D04FF0010895
:1086D00001E04FF000088268216A5518C068401A0E
:1086E000B0F5803F04D34FF6FF7643F0020300E07D
:1086F00086B2D4F804C0BCF86000B04209D2064685
:10870000B8F1000F03D026B96FF006050CE043F076
:10871000020332462946604604F00BFD0546280058
:1087200002D0B5F1FF3F22D1B8F1000F0ED0606A40
:10873000C068B0420AD9A36A1BB132460321204661
:108740009847207F40F01000207710E0606840F6E6
:108750006932B0F86010914203D9B0F86200052880
:1087600005D3A36A1BB132460321204698474FF038
:10877000000A1DB1B5F1FF3F1BD01DE0206A304457
:108780002062616ACA68904202D0B8F1000F01D03D
:10879000C8600127606803F077FA10F10D0F02DD61
:1087A00010F1040F0CD105460127606AC0F80CA037
:1087B00006E0B8F1000F23D00127606AC0F80CA0D2
:1087C0006FB3606A016801F10C060571C4F824A05A
:1087D000C4F820A084F801A04CB102F005FA94F985
:1087E000081011F10D0F00DD257202F027FAB9F122
:1087F000000F02D0304602F0C9FA0020BDE8F08731
:10880000606803F041FA10F10D0F02DD10F1040F62
:10881000D6D105460127606AC0F80CA0D0E74FF01A
:10882000FF30BDE8F08700B583B04FF0000CCDF805
:1088300000C0CDF804C000F003F803B000BD000094
:108840002DE9FF4F87B01646DDF8549000250695B8
:108850000027A846FEF7C4FA0446200003D10BB057
:10886000401EBDE8F08F606808B1069053E00A989A
:1088700010F0080F04D12068007F10F0020F14D010
:10888000B4F90A00002810DC002F05DD0020207458
:108890000BB03846BDE8F08F0B2020746E4908609D
:1088A0000BB04FF0FF30BDE8F08F2068017801F089
:1088B000F00110290AD006A900F080FE054645B354
:1088C000002F13DD15F10F0F05D009E006A900F008
:1088D00027FF0546F3E7002211462068FEF794F9CA
:1088E000002020740BB03846BDE8F08F2846FDF715
:1088F000F1FC207408B15849086015F10F0F04D03D
:108900000BB04FF0FF30BDE8F08F0BB00020BDE89A
:10891000F08F069860602068007800F0F000102862
:108920000CD00698D0F800A0BAF808002389C01A25
:108930001FFA80FB5E4504D95D4603E0DDF818A010
:10894000F2E7B5B208982A46C119504601F04AFB31
:108950002F442068017801F0F001102938D04FF041
:108960000108B8F1000F2ED0149961B3B9F1000FCE
:1089700029D0017801F0F00110293BD006988189B7
:10898000059100F1080A10208DF8000002208DF8F2
:108990000100BDF81400FFF7FDFAADF80200DAF8A7
:1089A000000001900020029003909DF80000D9F88B
:1089B0000010814201D9C9F800006946D9F80020A9
:1089C0001498F7F76DFC0A9810F0010F1AD035E0F3
:1089D000761B66B19AF80D1011F0010F07D1B4F9AA
:1089E0000A10002903DD0A9911F0010FB9D04FF0E8
:1089F0000108B6E70DF1100A002305AA514600F060
:108A00007BFDC0E72068017801F0F001102909D151
:108A1000ABEB0501002905DD06986060208928443C
:108A200020810BE0002565602581007800F0F000D2
:108A300010280DD0069800F0C9FB0695B8F1000F7C
:108A40003FF411AF002020740BB03846BDE8F08F22
:108A5000069801F0FFFAF0E72C0100202DE9F04123
:108A600084B080460E4617461D464046FEF7B8F9CC
:108A70000446200014D020684FF0000C007800F06D
:108A8000F000102811D0CDF800C02B463A463146F0
:108A90004046CDF804C000F035F804B0BDE8F081E0
:108AA00004B04FF0FF30BDE8F08115F0100F01D099
:108AB000022000E0002015F0080F01D0042300E0A0
:108AC0000023184340F00103CDF80CC003A8009028
:108AD0003A463146206800F041FE05462846FDF73B
:108AE000F9FB207408B10649086025B104B04FF0C5
:108AF000FF30BDE8F081039804B0BDE8F0810000CC
:108B00002C0100202DE9F04784B080460D9E0C9C7E
:108B1000894617469A464046FEF762F90546280000
:108B20000ED02868007800F0F00010280DD01FFA51
:108B300087F82A4F54EA060022D0102E14D10DE0F7
:108B400004B04FF0FF30BDE8F08753463A4649463F
:108B50004046FFF783FF04B0BDE8F0876078022845
:108B600002D114F0030F0BD06FF00F00FDF7B2FB32
:108B7000287400B1386004B04FF0FF30BDE8F087D2
:108B800000200190009034B1606802906088FFF787
:108B900001FA024601E000220290ADF80C204246A4
:108BA0004946684600F030FB044624B96946286807
:108BB00000F0C2FD0446684600F01AFB2046FDF7AF
:108BC00089FB287400B1386024B104B04FF0FF3045
:108BD000BDE8F08704B04046BDE8F0872C010020D6
:108BE0002DE9F84F80460A9D894692461F46404629
:108BF000FEF7F6F80446200019D0154EDFB11548EF
:108C000002F091F83B46524649464046009500F036
:108C100023F805460F4802F099F8284620740028EA
:108C200000D030600FD04FF0FF30BDE8F88F4FF02C
:108C3000FF30BDE8F88F4FF00E00207430604FF029
:108C4000FF30BDE8F88F4FF00000BDE8F88F00005E
:108C50002C010020280100202DE9F0418846069EC5
:108C600017461C46002504F0BFFD80B1B8F1000F87
:108C700050D0B8F1060F73D0B8F1FF0F6CD0A8F543
:108C80007061FF3906D05C252846BDE8F0810920D7
:108C9000BDE8F081082F07D0202F05D0A7F580511F
:108CA0000A3917D05C25EFE7042E02D21620BDE862
:108CB000F081006838B1406828B1216831B1017A8B
:108CC00039430172E0E71620BDE8F081017AB9432B
:108CD0000172D9E7042E02D21620BDE8F0810168A6
:108CE00049B1486838B1097801F0F001202905D070
:108CF0005C20BDE8F0811620BDE8F081216821B13B
:108D0000017C41F001010174BEE7017C21F0010109
:108D10000174B9E7012F12D0022F01D05C25B3E70F
:108D2000042E02D21620BDE8F081006820B1406810
:108D300010B121788172A7E71620BDE8F081042EDA
:108D400002D21620BDE8F081006830B1406820B141
:108D50002178417298E703E02CE01620BDE8F0810D
:108D6000042E02D21620BDE8F081016849B148689E
:108D700038B1097801F0F001102905D05C20BDE878
:108D8000F0811620BDE8F081012F03D0022F0DD015
:108D90005C2579E7216821B1817E41F0400181762F
:108DA00072E7817E21F0400181766DE72168C0F88D
:108DB0008C1069E75C2567E770B51D4D01291AD055
:108DC00002290DD0032904D0162028604FF0FF306F
:108DD00070BDD1B2174A402000F0C0FB044610E03D
:108DE000882A06D02020134A002100F0B7FB044651
:108DF00007E02120F7E70F4A0021102000F0AEFB2A
:108E0000044644B100212046FCF73AF9B0F1FF3F97
:108E100006D0A06170BD692028604FF0FF3070BDA2
:108E2000204600F0D3FA172028604FF0FF3070BDC5
:108E30002C010020096C000881B00022009200F093
:108E40000103002B06D0002904DD10F801CB8DF8BA
:108E500001C0491E012905DD30F802CB6244891E9C
:108E60000129F9DC002902DD00788DF80000BDF849
:108E70000000104481B201EB104081B201EB1040C0
:108E800023B1C1B2C0F3072040EA012080B201B093
:108E900070470023FFF7E2BD86B0F9F76DFAFAF7E5
:108EA00015FFFAF7ABFAF7F71BFDFAF743FBFAF7F2
:108EB000CBF9FAF769FAFBF7BFFA084890E80E1009
:108EC0000069CDE9033C029201910590002101A8BF
:108ED00000F01CFF00F074FDFEE7000088F00008C1
:108EE0000021842800D0C11C0846704770B5044694
:108EF000002C1ED00F4D2868844202D3686884423B
:108F000005D301F071FEBDE8704001F097BE0A483C
:108F100001F009FFA4F1080000210171A96888424D
:108F200000D2A86001F084F9BDE87040024801F069
:108F30000DBF70BD34010020400100200C480D4BD6
:108F400020F0030018604FF420520280002141807D
:108F5000017100F5205159604FF0010C81F804C0F7
:108F60000A804A80986003F10C0001F0E1BE000025
:108F7000477E0020340100202DE9F04100280DD06B
:108F8000C01C20F0030525F480350C2D00D20C25E3
:108F9000B5F5205F05D90020BDE8F0810020BDE8CF
:108FA000F0812A4801F0BFFE294E3268B168881A64
:108FB00080B2C5F52053834241D9141894F804C0F7
:108FC000BCF1000F38D1B4F800C0ACEB000CACF130
:108FD000080CAC4530D3238805F1140C1B1A083B50
:108FE0000127634515D3431908331FFA83FC02EBAD
:108FF0000C0300251D7125881D805880A4F800C031
:1090000027711888B0F5205F04D0931C20F803C0A6
:1090100000E027718C4202D007E0088881180879A7
:1090200010B170688142F8D1B160084801F08EFE3D
:1090300004F10800BDE8F081105A8342BDD803480E
:1090400001F084FE0020BDE8F08100004001002016
:10905000340100202DE9F0470746C81C20F0030426
:1090600024F480340C2C00D20C24B4F5205F02D9F7
:109070000020BDE8F087DFF8D080D8F800008742F4
:1090800003D3D8F804108F4206D301F0ADFD01F0F0
:10909000D5FD3846BDE8F087A7F10805281A86B245
:1090A0002888801B08381FFA80F94C4503D94FF0F7
:1090B0000000BDE8F08702D13846BDE8F0872348BC
:1090C00001F031FE2888D8F8002010444FF0000A43
:1090D0000179F9B104F11400484515D83019083068
:1090E00080B21118D8F80830994201D2C8F8081097
:1090F00081F804A02B880B804E8028800988B1F568
:10910000205F01D0921C8852104801F01FFE3846A3
:10911000BDE8F087B0F800C03119083189B2D8F83D
:109120000830834202D15018C8F80800531883F859
:1091300004A0A3F800C05E8029801888B0F5205FE5
:10914000E2D0921C8152DFE7340100204001002070
:109150000D2806D2002904D0024A52F82000FCF75C
:10916000F2BF7047F0F3000830B50024044D55F805
:10917000240000F007F8601C84B20D2CF7D330BD3A
:10918000F0F300088268002111604168C91C21F0D9
:10919000030100224388002B0ADD83681B680B60F3
:1091A0008368196003881944521C43889342F4DC95
:1091B000704700000D2801D300207047024951F884
:1091C0002000FCF7CEBF0000F0F3000810B5044605
:1091D000002C0CD0206820B100F03CFF0020606023
:1091E00020602146BDE810400620FFF7B1BF10BD4A
:1091F00010B50446002C06D0206808B100F02AFF04
:1092000000206060206010BD70B504460E46154613
:10921000002C13D0206808B100F01CFF00210222AE
:10922000084600F092FD206058B146602068058134
:109230002068458120686060002070BD6FF00F00DD
:1092400070BD00206060401E70BD0000F8B504468F
:109250000D46002D20D00020286004B394F90800AA
:1092600010F10D0F17DD04F1140001F055FDC8B128
:109270000022694604F1140001F06AFC009EA36A12
:109280001BB10022012120469847114900988842CD
:109290000BD16FF00C00F8BD6FF00F00F8BD6FF050
:1092A0000F00F8BD6FF00E00F8BD16B12E60002063
:1092B000F8BD01F099FC94F9081011F10D0F01DDD2
:1092C000F121217201F0BAFC6FF00E00F8BD000030
:1092D000100100202DE9F04105460F460720FFF759
:1092E00069FF044654B1002626722570666005F0B9
:1092F000F000102807D0202815D102E00020BDE89A
:10930000F081062100E0062104F1100001F0E0FCEC
:1093100048B9002104F10C0001F020FD50B104F126
:10932000100001F0CBFC21460720FFF711FF0020C1
:10933000BDE8F08104F1140001F0E0FC66704FF02C
:10934000FF30A061A7626662266226772046BDE8EC
:10935000F08110B50C46216801F10C02214604F0A1
:10936000DDF9002801D194F9040010BD00B585B0E5
:10937000002801D021B104E005B06FF00F0000BD5E
:10938000054900900291ADF80C2069460348FFF7AB
:10939000E0FF05B000BD0000F0F2000825800008E5
:1093A00000B585B000280BD000908DF8081029205A
:1093B0008DF8090069460448FFF7CBFF05B000BDF2
:1093C00005B06FF00F0000BD8980000810B586B0B1
:1093D0000446002C0FD0019429208DF80D0001A91E
:1093E0000648FFF7B6FF002803D1204600F06CF8CE
:1093F000002006B010BD06B0002010BDB5820008E8
:10940000F8B5044604F1100001F086FCF8B1694695
:1094100004F1100001F0CDFBB0F1FF3F0FD0207838
:1094200000F0F000102841D00098FFF7CFFE694609
:1094300004F1100001F0BDFBB0F1FF3FEFD104F1EA
:10944000100001F03BFC04F1100001F057FC04F1A6
:10945000140001F061FC002827D0694604F11400D3
:1094600001F0A7FBB0F1FF3F17D0164E0027009D7B
:10947000B5420AD02846FFF7C3FF686810B101F073
:10948000ADFD6F60284600F01FF8694604F1140036
:1094900001F08FFBB0F1FF3FE9D104F1140001F0BE
:1094A0000DFC04F1140001F029FCF8BD009D002D15
:1094B000BDD0606810B1298903F0CFFA284600F0CA
:1094C000C9FDB4E71001002010B5044604F11000F6
:1094D00001F022FC04F1140001F01EFC04F10C0068
:1094E00001F039FC04F10C0001F04DFC2146BDE80F
:1094F00010400720FFF72CBE00B585B000280CD027
:1095000079B192B100908DF81030029103926946C2
:109510000848FFF71EFF05B000BD05B06FF00F0053
:1095200000BD05B06FF00F0000BD05B06FF00F007B
:1095300000BD00008983000800B585B0002806D072
:10954000009069460448FFF704FF05B000BD05B070
:109550006FF00F0000BD00002D84000830B50D46EF
:1095600085B01146FFF7B6FE044614B38DF80850D7
:10957000009469461048FFF7ECFED0B104F11000EA
:1095800001F0CAFB04F1140001F0C6FB04F10C0069
:1095900001F0FFFB04F10C0001F0DDFB04F1100011
:1095A00001F08CFB21460720FFF7D2FD05B000201B
:1095B00030BD05B0204630BD0D850008F8B5064623
:1095C0000D46002D0DD000272F606EB1307800F0D1
:1095D000F00010280BD029463046BDE8F84000F0D6
:1095E00025B86FF00F00F8BD6FF00F00F8BD0097C1
:1095F0000620FFF7DFFD044664B16946304600F0FF
:1096000015F80646300008D021460620FFF7A0FDD9
:109610003046F8BD4FF0FF30F8BD0098206000984C
:109620006060A781A7602C600020F8BD30B587B0CE
:1096300004460D4600200690002D07D028604CB14E
:10964000207800F0F000102808D00CE007B06FF090
:109650000F0030BD6FF00F0007B030BD04F11000F7
:1096600001F05AFB08B304F1100001F055FB48B3B8
:1096700094F9080010F10D0FEEDD002206A904F1A7
:10968000100001F065FA207800F0F00010281DD0DD
:10969000069800680289A36A13B101212046984701
:1096A0000698286007B0002030BD04F1140001F0D6
:1096B00033FB18B107B06FF00A0030BD07B06FF090
:1096C0000E0030BD07B06FF00A0030BD019406985F
:1096D00010B10089039001E00120039001A90F4817
:1096E000FFF737FE069808B10289D4E7A36A1BB1D9
:1096F0000022012120469847606838B101212046A8
:10970000FFF74EFE6FF00E0007B030BD94F9080071
:109710000028F9D107B06FF00D0030BD4B8500086F
:10972000002804D0027802F0F002102A02D06FF074
:109730000F007047FFF77ABF00B585B0002807D04B
:109740000090029169460448FFF703FE05B000BD92
:1097500005B06FF00F0000BDA985000870B586B098
:1097600015460A9C002808D0027802F0F002102A60
:1097700007D006B06FF0050070BD06B06FF00F00A7
:1097800070BD25B1027F12F0020F06D102E0002069
:1097900006B070BD13F0040F01D0012600E00026D2
:1097A00006B18CB1019003918DF81430049501A994
:1097B0000948FFF7CEFD0028EAD1002CE8D03EB1E1
:1097C0000499216006B070BD06B06FF0050070BD51
:1097D000256006B070BD00001D8600082DE9F0412F
:1097E0000446DDF820C0069E079D00206060A06052
:1097F000E06084F833006062032784F82870E06139
:1098000026620B4E307884F83600401C3070C4F865
:1098100010C0204600F01EF82046A84710B10020D6
:10982000BDE8F0817068206074602046BDE8F0817A
:1098300078010020704711F0010F0AD0416800291B
:1098400007D090F8331011F0080F02D0011DFCF77B
:10985000F5BF70472DE9F04107460C4615461E46F8
:10986000002C0FD0216869B12946384600F089F8EC
:109870003146384600F029F821463846BDE8F04127
:1098800000F02AB82146384600F026F82946384626
:1098900000F077F831463846BDE8F04100F015B8E1
:1098A00001498860704700007801002090F833106B
:1098B00011F0010F08D021F0010180F8331011F0F0
:1098C000080F01D0FCF714BD7047002902D00968C9
:1098D000C16070470021FBE738B504460D46002DF6
:1098E00002D02868009002E00C48006800900098C0
:1098F000616888420ED06946201D02F04FF9694622
:10990000201D04F0B5F835B12868606001212046BB
:10991000FFF791FF38BD0020F7E70000F0F20008E4
:10992000002800D0C161704790F8331011F0040F87
:1099300007D021F0040180F83310C169002900D05C
:109940000847704710B5044694F8330010F0040F30
:1099500016D140F0040084F833002046FBF7BCFE2B
:1099600094F8330010F0010F03D003212046FFF7D5
:1099700062FFE169002903D02046BDE81040084796
:1099800010BD002902D00968816070470021FBE703
:1099900090F8331011F0010F09D141F0010180F866
:1099A000331011F0040F02D00321FFF744BF7047BA
:1099B00010B5002800D1012004F0F6FA002010BDF7
:1099C00010B504F0FBFC002010BD10B5FDF701FB45
:1099D00018B1BDE8104005F0F7B9BDE8104005F03A
:1099E000EDB941680068002204F082BE10B504465B
:1099F000FDF7EFFA08B1822010BD204604F0ACFA62
:109A0000002010BD2DE9F04184B005460E460296B7
:109A100000270197002E20D003970024B2F1FF3FCA
:109A200025D002B11446FDF7D4FA010068464FF084
:109A3000100822D0011D03AA304605F0F3F80128D2
:109A400018D00097039818B318494FF08050086059
:109A5000BFF34F8FBFF36F8F1AE080200090029A00
:109A60000199AA606960286004B0BDE8F0814FF0F8
:109A7000FF34D8E7CDF80080E4E7011D002322463B
:109A8000304604F057FE01280BD06CB14020009006
:109A9000029A01990098AA606960286004B0BDE844
:109AA000F081CDF80080F3E70020F0E704ED00E05E
:109AB00037B582B00546144600200190002C00D135
:109AC0000124FDF786FAA8B1002301AA03A92846BC
:109AD00004F0FAFF012802D005B0FF2030BD019844
:109AE00098B10B494FF080500860BFF34F8FBFF320
:109AF0006F8F0AE00023224603A9284604F02CFFBA
:109B0000012802D005B0FF2030BD05B0002030BDD7
:109B100004ED00E010B50446FDF75BFA20B12046E5
:109B2000BDE8104004F0DDB82046BDE8104004F068
:109B3000C5B8012004F0D0BD38B50546002400208A
:109B40000090FDF746FA90B16946284605F01AF8EC
:109B5000012801D0FF2038BD009888B109494FF095
:109B600080500860BFF34F8FBFF36F8F08E0002372
:109B70001A461946284604F0EFFE012800D0FF24BB
:109B8000204638BD04ED00E038B5054600200090C1
:109B9000002D11D00024B1F1FF3F0FD001B10C46D0
:109BA000FDF717FAC0B16A460021284605F03AF8D9
:109BB000012806D0FF2038BD802038BD4FF0FF348B
:109BC000EEE7009890B10A494FF080500860BFF36B
:109BD0004F8FBFF36F8F09E00023224619462846B6
:109BE00004F0A8FD012801D0FF2038BD002038BDB9
:109BF00004ED00E010B50846012804D0BDE810408F
:109C0000014604F04BBD03220021012004F070FD49
:109C10000446200004D000231A46194604F09CFE96
:109C2000204610BD10B50446FDF7D3F908B18220D7
:109C300010BD204604F090F9002010BD38B505464F
:109C4000002400200090FDF7C4F990B16946284631
:109C500004F098FF012801D0FF2038BD009888B19A
:109C600009494FF080500860BFF34F8FBFF36F8FEB
:109C700008E000231A461946284604F06DFE012824
:109C800000D0FF24204638BD04ED00E038B505467D
:109C900000200090002D11D00024B1F1FF3F0FD023
:109CA00001B10C46FDF795F9C0B16A46002128467E
:109CB00004F0B8FF012806D0FF2038BD802038BD51
:109CC0004FF0FF34EEE7009890B10A494FF0805012
:109CD0000860BFF34F8FBFF36F8F09E00023224668
:109CE0001946284604F026FD012801D0FF2038BD82
:109CF000002038BD04ED00E010B505F051F8012852
:109D000003D0BDE8104004F0B3BC10BD30B583B043
:109D100004460D46B4F90800FFF7E2F802A90191E4
:109D20000090208A2B4682B22168606805F004F812
:109D3000012802D003B0002030BD029803B030BD2E
:109D400010B504F059F9002010BD2DE9F0470D467B
:109D5000164605281CD2DFE800F0030507090B00B2
:109D6000362706E0222704E00E2702E0002700E065
:109D700000274FF001094FF00008002E4FD0012EB0
:109D80006AD0022E68D0032E05D00020BDE8F087EF
:109D90000020BDE8F0870C20FFF70CFA04462000F5
:109DA00034D02673C4F80080E019133020F003008B
:109DB00060602581F81C20F00300C0F5FA70A8420D
:109DC00000D9284680B26081A4F80E9027462D1A4B
:109DD000002D4DDD0C20FFF7EDF9D0B1067380F8B2
:109DE0000D80C0F800803860A9B20181B1F5FA7F1A
:109DF00001D34FF4FA71418100F110024260A0F8E2
:109E00000E906D1A0746002DE4DC31E00020BDE81D
:109E1000F087204600F01EF90020BDE8F08707F12A
:109E20001300E91C20F0030021F00301084480B274
:109E3000FFF7A2F8044620000BD0E019133020F001
:109E40000300606025816581C4F8008084F80C807F
:109E50000EE00020BDE8F0870B20FFF7ABF90446C9
:109E60006CB1C4F8048025816581C4F80080267334
:109E7000A4F80E9084F80D802046BDE8F0870020FD
:109E8000BDE8F08730B40546DDF808C0039C1846ED
:109E9000052D16D2DFE805F0030507090B00362370
:109EA00006E0222304E00E2302E0002300E000236A
:109EB000DB1C23F003035D18A54205D930BC00204C
:109EC000704730BC0020704700240460BCF1000FD4
:109ED00002D06344436000E0446002234373018185
:109EE000418102730121C18130BC7047002810D02C
:109EF00000290ED002683AB102890B891A44028106
:109F000000680268002AF7D102890B891A4402818D
:109F10000160704710B50C462146FFF7E7FF204669
:109F2000BDE8104000F045B90021002804D0491CCC
:109F300089B200680028FAD1084670472DE9F0413F
:109F400005460C4600260027002D04D01CB12889A8
:109F50002189884203D26FF00F00BDE8F081688943
:109F6000811B6089C01B814202DB1FFA80F801E07F
:109F70001FFA81F860684246C11968683044F6F7F4
:109F80008FF906EB080086B207EB080087B26089FC
:109F9000B84201D8002724686889B04207D100265A
:109FA0002D6825B91CB16FF00F00BDE8F0814CB1F0
:109FB00060892189884205D1206818B16FF00500B9
:109FC000BDE8F0814DB168892989884205D12868AA
:109FD00018B16FF00500BDE8F081002CBFD1002062
:109FE000BDE8F0812DE9F047894616464FF000089C
:109FF000002805D0B9F1000F05D00027044623E062
:10A000000020BDE8F0870020BDE8F0872BB1608913
:10A01000984202D8181A83B215E06089C01A85B236
:10A02000B54200D9354660682A46C11809EB0700D9
:10A03000F6F736F908EB05001FFA80F8781987B2B1
:10A04000701B86B2002324680EB1002CDED140467E
:10A05000BDE8F08770B50446002C0ED0002600F055
:10A06000C3FDE189491E8DB2E58100F0E7FD35B100
:10A070000024002CF3D1304670BD002070BD25684F
:10A08000207B617B11F0020F03D0216920468847B5
:10A0900008E003280AD001280DD002280BD0204662
:10A0A000FEF724FF701CC6B22C46E2E721460C20C6
:10A0B000FFF74EF8F6E721460B20FFF749F8F1E7E6
:10A0C000002200F003B80122AFF3008010B4002991
:10A0D00009D040B10ADA4B429CB24389A34206D26E
:10A0E00010BC0120704710BC002070478CB2037B6D
:10A0F000D0F804C043B1032B06D0022B10D0012BA3
:10A100000ED010BC01207047ACEB0102426000F1A0
:10A1100010039A4213D2C0F804C010BC012070474B
:10A12000002906DA4389A34203D3ACEB0102426063
:10A1300005E000290CDD5AB1ACEB01024260428916
:10A140000A44428102891144018110BC00207047F9
:10A1500010BC0120704770B502898A4228D98A1A3A
:10A160000D4604466089A84209D26089281A85B242
:10A1700020891044208124686089A842F5D3207B7F
:10A1800070B96089A8420BD0607B10F0020F07D134
:10A19000A088001B284481B22046FEF75BFF0446DE
:10A1A00065812581206808B1FFF754FF00202060F9
:10A1B00070BD10B50446002C08D000F015FDE189F3
:10A1C000491CE181BDE8104000F038BD10BD000021
:10A1D00010B504462068007800F0F000102815D073
:10A1E000202802D0FA20207110BD03F05DFC216808
:10A1F0004860216898B10978222901D101210174B0
:10A2000022680A49506803F087FC08E001F000FD6D
:10A2100021684860216810B1084600F077FC20688A
:10A2200040680028E0D1FF20207110BD39AA000845
:10A2300010B4DFF860C00188DCF800201144931CE2
:10A24000884210D00C7974B9DCF80440A1420AD0DD
:10A25000DCF808408C4201D1CCF808000C8804805E
:10A260000988841ACC524188114481420FD00C795C
:10A27000002C0CD1DCF80840844201D1CCF8081045
:10A28000B0F800C0A1F800C00088891AC15210BC03
:10A29000704700003401002010B5044660780128A2
:10A2A00002D0042805D00EE001212046FEF700FA76
:10A2B00009E0606A18B1417A09B1491E4172012171
:10A2C0002046FDF731FF217F11F0100F14D0606898
:10A2D00090B1B0F8602040F669339A420CD9B0F8DA
:10A2E0006200052808D221F010002077A36A1BB174
:10A2F0000022022120469847002010BD2DE9F041A0
:10A3000004460F46194EF5683068001D03F0C4FC82
:10A3100048B93068012190F82C0001FA00F0316949
:10A3200021EA00003061B4F1FF3F07D137B1306856
:10A33000BDE8F041011D0E4803F063BD2C443068B8
:10A340004460AC4206D23068011D306CBDE8F0417B
:10A3500003F03CBD3068011DF06B03F037FDB06ABF
:10A36000844200D2B462BDE8F08100008C0000207D
:10A370009438002070B5044603F050FD1D4DA868C8
:10A38000401CA860286810B1686938B10CE02C60E6
:10A39000A868012808D100F055F905E02868E16AAD
:10A3A000C06A884200D82C60686A401C6862606499
:10A3B000E06A01212A698140114329610E4900EBBD
:10A3C000800001EB8000211D03F01BFD03F046FD22
:10A3D000686900280CD02868E16AC06A884207D200
:10A3E00006494FF080500860BFF34F8FBFF36F8F67
:10A3F00070BD00008C000020B837002004ED00E0A4
:10A4000070B5134D6868002820D0124E04F012F881
:10A41000306820B1002404F0D1FD14B113E0012410
:10A42000F9E703F0FBFCF068C468201D03F034FC7E
:10A43000A868401EA8606868401E686003F00EFDB2
:10A44000204600F052F868680028DFD170BD000097
:10A450008C000020803800200B46026C002A0CD0B3
:10A46000C1681144C160D0F804C0614501D30168DE
:10A47000C160C1681846F5F713BF70472DE9F04178
:10A48000044616460027A56B226C002A10D0C6B1E0
:10A49000E068F5F705FFE168206C091AE1602268C1
:10A4A000914202D26168081AE060022E16D017E0CD
:10A4B0002068A8B9606804F0F7FC074600206060D7
:10A4C0000EE0A068F5F7ECFE216CA0680844A060DF
:10A4D0006168884204D32068A06001E005B16D1E68
:10A4E000681CA0633846BDE8F08110B50446206BB7
:10A4F00003F0CAFC2046BDE8104003F0C5BC0000D4
:10A500004FF48841104810F0070F06D0C01D20F00E
:10A5100007000D49411AC1F588410C4A106000231B
:10A5200053600144083921F00701103A11604B6073
:10A530000B600B1A436001604068906050604FF000
:10A540000040D06070470000A8380020E0000020E4
:10A55000074E4FF08054074DFFF752FF3068012837
:10A56000FAD92C60BFF34F8FBFF36F8FF4E7000071
:10A57000B837002004ED00E0002808D00021416039
:10A580000160C16000231A46194604F0E5B970471E
:10A5900070B51D46049C002909D02260E063216447
:10A5A0000121204604F090F984F84C5070BD2460DD
:10A5B000F4E72DE9F05F82460B9F0A9D0C9C0E4646
:10A5C00090469B464FEA8801A522206BF5F77AFE5C
:10A5D000206BA8F1010100EB810020F007094FF08A
:10A5E000000800202218315C82F83410315C11B16F
:10A5F000401C1028F6D384F84380072D00D306258D
:10A60000E562E564C4F85080201D03F0DCFB04F132
:10A61000180003F0D8FB2461C5F10700A061646253
:10A62000C4F85480C4F8588084F85C805A46514677
:10A63000484600F0ADF92060002F00D03C60BDE836
:10A64000F09F000070B500240F4D04EB840005EB73
:10A65000800003F0ADFB641C072CF6D30B4803F01D
:10A66000A7FB0B4803F0A4FB0A4803F0A1FB0A4830
:10A6700003F09EFB094803F09BFB09480349C163B3
:10A680001431016470BD0000B83700204438002048
:10A69000583800206C380020803800209438002082
:10A6A0008C00002010B4144900E011460A68824270
:10A6B000FBD34B6803EB010C844503D1406818447D
:10A6C000486008460C68D0F804C00CEB0003A342B5
:10A6D0000CD10A4B1B689A4206D052686244426011
:10A6E0000A681268026002E0036000E002608142D2
:10A6F00000D0086010BC7047E0000020D0000020AF
:10A7000010B5044603F08AFBA06B20B1002403F0CF
:10A71000A5FB204610BD0124F9E710B5044603F05F
:10A720007DFBA06BE16B884201D1012400E0002495
:10A7300003F094FB204610BD2DE9F04780460C46FF
:10A74000914600252068002823D06068406860603A
:10A7500004F10806B04201D1416861606068C768D1
:10A760006068D0F804C0C4F804C0B44502D1DCF875
:10A77000041061606068D0F80CA005EBC50008EB20
:10A7800080014B460122504603F08EFC6D1CBA45F9
:10A79000E6D12846BDE8F0870749C86B0068002865
:10A7A00005D0C86BC068C0684068886270474FF0C9
:10A7B000FF308862704700008C0000200021027882
:10A7C000A52A04D1401C491C0278A52AFAD0880881
:10A7D00080B270470A484068B0F1FF3F07D0502070
:10A7E00080F31188BFF34F8FBFF36F8FFEE75020C8
:10A7F00080F31188BFF34F8FBFF36F8FFEE7000028
:10A80000E800002070B5044603F008FB94F94550B9
:10A81000002D0CDD606A50B104F1240004F092FBBD
:10A8200008B103F053FD681E45B2002DF2DC4FF075
:10A83000FF3684F8456003F011FB03F0EFFA94F95A
:10A840004450002D0CDD206950B104F1100004F0DB
:10A8500079FB08B103F03AFD681E45B2002DF2DC29
:10A8600084F84460BDE8704003F0F8BA10B50446BF
:10A870002046F5F74DFD2046F5F736FD0F2804D2AA
:10A8800020212154401C0F28FBD3002121542044B7
:10A8900010BD00002DE9F0410546002603F0CAFD79
:10A8A000334F386808B9FFF72BFEF86805424ED1E0
:10A8B0009DB1083515F0070F0FD005F00700C0F166
:10A8C0000800054415F0070F07D0502080F31188C9
:10A8D000BFF34F8FBFF36F8FFEE7002D37D078683F
:10A8E000854234D823490846046801E021460446DD
:10A8F0006068A84202D220680028F7D138688442F4
:10A9000025D0086800F10806206808606068411BCF
:10A9100010290FD9601910F0070F07D0502080F3CD
:10A920001188BFF34F8FBFF36F8FFEE74160656003
:10A93000FFF7B8FE61687868401A7860BA6890429C
:10A9400000D2B860F868084360600020206004F01E
:10A9500035FB16F0070F07D0502080F31188BFF3A6
:10A960004F8FBFF36F8FFEE73046BDE8F0810000E8
:10A97000D0000020E000002004490868002803D02F
:10A980000868026D521C0265086870478C00002040
:10A99000001F4FF080730360001F21F00101016070
:10A9A000001F0549016014380260001F6FF00201AA
:10A9B0000160203870470000D5A700082DE9F0415C
:10A9C00004460F4615461E46002C12D004F1100016
:10A9D00000F0A2F988B14EB100F006F994F9081020
:10A9E00011F10D0F00DD267200F028F985B12E89D6
:10A9F0000FE06FF00500BDE8F08135B129893846D8
:10AA000002F02BF82846FFF725FB0020BDE8F08177
:10AA10000026294604F1100000F073F918B14FF038
:10AA2000FF30BDE8F081A36A1BB132460021204609
:10AA300098470020BDE8F0812DE9F0410546DDF89A
:10AA4000188016461F46002D1CD005F1100000F09E
:10AA500063F9B8B10620FEF7ADFB0446BCB1266031
:10AA60006660CFB13868A060A4F80C8036892146B2
:10AA700005F1100000F045F980B12046BDE8F04135
:10AA8000FEF7A4BB3046BDE8F041FFF7E3BA30461D
:10AA9000BDE8F041FFF7DEBA0020E4E7AB6A002B27
:10AAA00005D032462846BDE8F04100211847BDE8F0
:10AAB000F08170B504461546002C24D0607801283A
:10AAC00002D0042805D008E001212046FDF7F0FD62
:10AAD00003E001212046FDF727FB606898B1B0F83C
:10AAE000601040F6693291420DD9B0F86200052835
:10AAF00009D2207F20F010002077A36A1BB12A46DC
:10AB0000022120469847002070BD000010B544681F
:10AB10000146204600F0CCFA0949204601F086FFA4
:10AB20000849204602F0F7F802220749204601F0C2
:10AB3000DBFA2046BDE81040044900F092BC00005A
:10AB4000BDA90008B3AA000899A20008F96100088D
:10AB5000F0B587B004460D461746FEF736FF0646A9
:10AB6000C7B13A4601A82168FEF74CFF0198039A45
:10AB700002990692059104900498102803D007B01A
:10AB80004FF0FF30F0BD05982860FEF71EFF07B0BC
:10AB9000801BF0BD4FF0FF3201A82168FEF732FFA5
:10ABA0000298059005982860FEF70FFF07B0801BFC
:10ABB000F0BD10B586B00C46016800226846FEF76D
:10ABC00021FF0098029A019905920491039003983D
:10ABD000102803D006B04FF0FF3010BD049820605D
:10ABE00006B0002010BD000010B504484FF0FF3142
:10ABF0000068FEF7C9FF012010BD000030010020F1
:10AC000070B504460E46FEF7E0FE05465EB13146DD
:10AC10002068FFF73BF810B14FF0FF3070BDFEF732
:10AC2000D4FE401B70BD4FF0FF312068FFF72EF8B7
:10AC30000028F8D1FEF7C9FE401B70BD014800682E
:10AC4000FEF77ABF300100202DE9F041134F38683C
:10AC5000002821D000F07DF87968441A0025396871
:10AC6000C1B14868A04215D801257A6802447A60CB
:10AC7000241A086838608E68D1F80C800A20FEF724
:10AC800067FA3EB1064800F04EF84046B047044827
:10AC900000F05CF8002DE1D1BDE8F081C801002092
:10ACA0002801002010B50348FEF743FF0249086061
:10ACB00010BD000048F300083001002010B5044624
:10ACC0002068FEF727FF2068BDE81040FEF78EBE23
:10ACD00010B582B0044608488068019000910021B8
:10ACE0006846FEF77EFE206010B102B0002010BD65
:10ACF00002B04FF0FF3010BD48F3000800210160A2
:10AD0000704710B500680022FEF7D2FE10B14FF078
:10AD1000FF3010BD002010BD0068002801D00120C8
:10AD200070470020704700684FF0FF31FEF72CBFDE
:10AD300038B50446002000906846FEF7FAFE206011
:10AD400008B1002038BD4FF0FF3038BD0068FEF775
:10AD5000F3BEF7F703BB0068FEF764BF38B50546DE
:10AD60000C460020009001216846FEF743FF286052
:10AD700008B11CB105E04FF0FF3038BD0021FEF7EF
:10AD800085FF002038BD0021016070470068FEF794
:10AD900055BF0068002801D001207047002070478F
:10ADA00010B586B00C46DDF820C000210391049157
:10ADB00001900294ADF80CC00593114601A8FEF76E
:10ADC000A5FF06B010BD00002DE9F04105460E4676
:10ADD00017460A20FEF7EEF90446200016D0FFF7CA
:10ADE000B8FF0146DFF884C0DCF80030002B0FD03C
:10ADF000DCF80400A1EB00004FF000012160A66028
:10AE0000E7602844606008D1CCF80040BDE8F081DC
:10AE10004FF00000CCF80410EEE75868A84206D9BD
:10AE2000401B58602360CCF80040BDE8F081184614
:10AE3000616842688A1A6260016819B1D1F804C079
:10AE4000944511D9026822B14A686368D21A4A60EF
:10AE500005E06168A94202D9596829446160016826
:10AE600021600460BDE8F0810846E1E7C8010020E8
:10AE700070B50124074D084905EBC40255F83400AC
:10AE8000FFF7A2FF641C052CF5D3FFF762FF03490F
:10AE9000486070BD78F40008ED500008C80100203B
:10AEA00070B505460E460C4C206868B100F016F8E7
:10AEB00038B1024631462846FFF74AFEB0F1FF3F5F
:10AEC00009D1FFF7C1FEEFE731462846BDE87040E3
:10AED0000022FFF73DBE70BDC801002010B5094C2F
:10AEE0002068002809D0FFF734FF6168401A216804
:10AEF0004968814204D2002010BD4FF0FF3010BDE0
:10AF0000081A10BDC80100202DE9F04F83B0044697
:10AF1000207D0A2837D000250027D4F84C90D4F89B
:10AF200024A0D4F88860D4F810B0DFF8A8800028F6
:10AF300034D00D46E78A214608F1180001F0AAF83E
:10AF4000012088F80000E06E08B101F07BFEA06EE1
:10AF500008B101F077FE45B1208B0190231D2246F8
:10AF600051460097484601F01AFE21460120FEF79F
:10AF7000EFF8002E2AD003B05846B446BDE8F04F93
:10AF80006FF00C0160472146134801F083F803B0CD
:10AF90002146BDE8F04F0120FEF7DAB8E08A00282C
:10AFA000D1D0D8F81000A04203D1C068C8F8100072
:10AFB00009E040B1C168A14202D1E168C16002E08C
:10AFC00008460028F6D10020E060BCE703B0BDE8E9
:10AFD000F08F000084010020A00100200121FFF774
:10AFE00093BF002803D0027D012A00D18161704700
:10AFF00010B50846FFF7F2FF6FF00C0010BD00001F
:10B0000070B505460120FEF7D5F80446ECB900F00E
:10B01000D5FC0120FEF7CEF80446B4B9092000F0B3
:10B02000ADFC0120FEF7C6F8044674B9082000F014
:10B03000A5FC0120FEF7BEF8044634B9284600F00E
:10B0400079FC0120FEF7B6F804464CB39421204663
:10B05000F5F73FF9657541F2D060A4F86000401043
:10B0600060852085FF20A0724FF406706086062060
:10B07000A4F84000E087C01F20860120A4F8480003
:10B0800000F0FAFD6065E0646064A0650548C16891
:10B090002162807860770448E0670448C4F88C0037
:10B0A000204670BD8401002035CA000800DD6D0017
:10B0B000002800D0016170472DE9F04105460C469B
:10B0C0000426002C00D1204C35B12CB1287D38B19C
:10B0D0006FF00500BDE8F0816FF00500BDE8F0817C
:10B0E000AAB14FF0000C194F57F82C000068C8B1F6
:10B0F000C18A914213D130B1016821B11CB12368DA
:10B100000BB199420BD16FF00700BDE8F08100F060
:10B1100083FD0246100009D1801EBDE8F081C068A1
:10B120000028E5D10CF1010CB445DDDB14B1206839
:10B1300000B12860EA8206480169E960056101F012
:10B1400063FF0020BDE8F081F0F2000868F4000819
:10B1500084010020017D012903D0817E41F010018E
:10B1600081760121AFF300802DE9F04383B00446DE
:10B170000026207D574F4FF00108002944D00428B5
:10B1800001D0072840D1216F21B9218DA1F530626E
:10B19000683A39D0218BE08A01910090231D224624
:10B1A000616AE06C01F0FBFC204600F056FFB869D4
:10B1B000A04202D1C068B86109E040B1C168A142B3
:10B1C00002D1E168C16002E008460028F6D1E660DD
:10B1D00087F80080207D042806D03F480068A04200
:10B1E0000AD101F07FFF0BE00A202075F869E060CA
:10B1F000FC6101F009FF03E021460120FDF7A8FFF3
:10B2000003B00020BDE8F0834FF00509082855D2AF
:10B21000DFE800F0041E2C394254544B0025E08A2C
:10B2200080B13869A04202D1C068386109E040B1FC
:10B23000C168A14202D1E168C16002E0084600286D
:10B24000F6D1E66021460120FDF782FF002437E0B9
:10B250000025204600F0CCFB2146204800F01AFFD4
:10B2600021460220FDF774FF002429E00025214635
:10B270001B4800F00FFF87F8008021460120FDF7F2
:10B2800067FF00241CE0204601F020FD0546280051
:10B2900016D184F8149013E0204601F017FD0546FE
:10B2A00028000DD184F814900AE0204601F00EFD2C
:10B2B0000546280004D10920207501E0002500245E
:10B2C0001CB115B9204600F0DFFC03B02846BDE8EC
:10B2D000F083000084010020C401002098010020B8
:10B2E0009C0100202DE9F0478046089E0F469146BC
:10B2F0009A4616F0010F01D0042500E00025032036
:10B30000FDF758FF041E11D0A67200262660676064
:10B310003889401B208114213846FEF7D1FE58B1F0
:10B32000204601F080FC0020BDE8F0873846FEF79B
:10B3300091FE0020BDE8F08760684068E060B8F8E2
:10B340001600FCF727FEE1680880B8F81800FCF743
:10B3500021FEE16848805046FCF710FEE168486035
:10B36000052000EB950049EA003080B2FCF712FEA0
:10B37000E1688881E06846822046BDE8F08710B524
:10B3800004460846FCF77CF950B1B0F92A0028B110
:10B39000283880B2844200D220460446204610BDA0
:10B3A000204610BDF8B504460D460026B4F86200EC
:10B3B000082802D315F0010F08D015F0020F00D0B5
:10B3C000012616F0010F08D0042107E0A07E40F00E
:10B3D0008000A0764FF0FF30F8BD0021002210461B
:10B3E000FEF7B3FC58B1009601462A462046A36DED
:10B3F000FFF778FF021E09D0A06E70B110E0A07EAA
:10B4000040F08000A0764FF0FF30F8BDA07E40F005
:10B410008000A0764FF0FF30F8BDA26604E0084639
:10B4200001680029FBD102600020A4F8640005F047
:10B43000020005F00101084302D0A06D401CA06588
:10B4400015F0010F03D0A07E40F02000A0765068D8
:10B45000FEF76AFDB4F862100844A4F86200002008
:10B46000F8BD002801D0C0F8881070472DE9F041E0
:10B47000154EB078401CB0700027B469002C21D064
:10B48000617FB07881421AD06077A07E10F0010F02
:10B4900009D040F00200A076204600F0F5FBA07E27
:10B4A00020F00300A076E568206F30B137702046A9
:10B4B00001F068F830780028DFD12C4600E0E4681D
:10B4C000002CDDD1BDE8F08184010020DFF834C01C
:10B4D0006046DCF81020C088411C89B2002A03D0E5
:10B4E000BCF80430984206D2DCF80C201432ACF8D8
:10B4F0000610105C7047C01AACF80610C0B2105CA1
:10B5000070470000A4010020704700002DE9F04FB3
:10B5100083B00546EB4E6868F06068891428C0F077
:10B52000CA81E94F39687869FBF781FD002840F04E
:10B53000C281387D00F0F000E02800F0BC81F068A6
:10B540008089FCF727FD000B80001428C0F0B38130
:10B5500029898142C0F0AF81A0F1140189B27180C4
:10B56000002232616A89824205D3B1804142284675
:10B57000FEF7A6FD1CE06FF013012846FEF7A0FDC4
:10B580006889B0807188091A8CB2404201B228469D
:10B59000FEF796FD28684189A142C0F08C81416880
:10B5A0003161614209B2FEF78BFD2889001B2881B9
:10B5B000F0680088FCF7EEFC0146F06801804088E6
:10B5C000FCF7E8FC0146F06841804068FCF7D6FCD7
:10B5D0000146F068416071618068FCF7CFFC01466C
:10B5E000F0688160B161C089FCF7D4FC0146F06865
:10B5F000C1818089FCF7CEFC00F03F0333702989BC
:10B6000013F0030F01D0012000E0002008447081F6
:10B610000020DFF8B8A2DAF80040A1461CB3F168B8
:10B620003A69D7F81480B1F800C0B4F818B0E3450F
:10B6300015D1B4F816B0B1F802E0F3450FD1D4F843
:10B6400004B093450BD1D4F800B0C34507D150B135
:10B65000E168C160C4F80C90CAF8004003E02046DD
:10B66000E468002CE1D1ECBB9948046814B3F0689D
:10B670003A69D7F814C00188B4F81880884516D103
:10B68000B4F81680B0F80290C84510D1D4F8048000
:10B6900090450CD1D4F80080E04508D1204601F057
:10B6A000CDFC03B02846BDE8F04FFEF7D3BCE468FC
:10B6B000002CE1D10022DFF81CA2DAF8000081465C
:10B6C00090B1F168D7F81480B1F802C0C18A614521
:10B6D00004D10168414507D030B129B10246C068A4
:10B6E000002800E010E0F1D170B12AB1C168D1604A
:10B6F000C0F80C90CAF8000000F08AF903B02846A0
:10B70000BDE8F04FFEF7A6BC002C6ED0DFF8C88174
:10B710000027C8F800702889A8F80800C8F8045065
:10B72000F068C8F80C00F7617770378113F0080FE4
:10B7300003D0687B40F001006873206F50B1204651
:10B7400000F020FF10F10D0F42D0206F10B1708972
:10B7500000283DD13462204600F0CAFC10F10D0FE4
:10B7600036D0707810F0080F0FD0D4F888201AB1B6
:10B770006FF00D01206990472146544800F08AFC83
:10B7800021460120FDF7E4FC6DE00020328942B142
:10B79000A36F13B121462069984710F10D0F62D0B5
:10B7A0003781707810F0100F13D0A07E10F0100FBA
:10B7B00006D1D4F888201AB16FF00E0120699047A5
:10B7C0002146424800F066FC21460120FDF7C0FCFE
:10B7D00049E0F06910B3A17E11F0100F06D0FEF71A
:10B7E00039FC2046FFF7FAFB3DE049E0D4F87CC085
:10B7F000BCF1000F06D025690246002321462846E9
:10B80000E04705E0002302462146184601F012F900
:10B8100010F10D0F27D008B1F0692067707810F093
:10B82000200F1CD0206F20B1417B41F020014173DB
:10B8300015E0208DA0F53061683901D0401C2085CD
:10B84000D4F87CC0BCF1000F05D000231A46214675
:10B850002069E04700E0002010F10D0F03D03762AF
:10B86000204600F011FA3762F761D8F8040000288A
:10B8700003D0FEF7EFFBC8F8047003B0BDE8F08F0B
:10B88000F0688089FCF786FB10F0040F0DD1F0689A
:10B8900007F110031A1D01884088019100907189F9
:10B8A00070690144B06901F07AF903B02846BDE837
:10B8B000F04FFEF7CFBB03B02846BDE8F04FFEF7D0
:10B8C000C9BB0000A40100202C7E00209C010020A8
:10B8D000A0010020980100204CC3002030B583B0A7
:10B8E0000446E06C401EFCF749FB0346002211466B
:10B8F000204600F0BBFA0546ADB1201DFBF7C0FEA7
:10B90000A8B106210022009201910290A37A221D83
:10B9100021462846FBF780FD04462846FEF79AFBA1
:10B9200003B0204630BD03B04FF0FF3030BD6FF0A4
:10B930000304F2E730B47F2801D97F2300E00346F7
:10B940004FF0000C00240C49886968B1CD68427D35
:10B950009A4206D8016A691A614502D38C460446A8
:10B960001346C0680028F2D1002C03D0204630BC1A
:10B97000FFF734BB30BC70478401002030B48446EC
:10B98000002300200C498A69002A0CD0CC68117D64
:10B99000614505D1116A611A994201D30B461046DF
:10B9A000D268002AF3D1002803D030BC0021FFF771
:10B9B000ABBA30BC70470000840100200023002097
:10B9C0000A4AD16900290BD0D2F80CC00A6AACEB44
:10B9D00002029A4201D313460846C9680029F5D1EC
:10B9E000002801D0FFF7FABA704700008401002058
:10B9F00070B506460124054D314655F8240000680F
:10BA000001F04FF8641C042CF6D370BD68F40008F4
:10BA1000F0B583B00546394E307810F0040F11D1DF
:10BA2000374F10F0100F0FD0F06807F110031A1DF8
:10BA30000188408801910090718970690144B06962
:10BA400001F0ADF803B0F0BD10F0020FFAD0687D40
:10BA5000FFF7D6FA044620003CD0786920603869A8
:10BA60006060E88AE082F068008820830320207507
:10BA70007069411C6162E162401E20652869206195
:10BA80006567287A00F00C0020721E480168E160AA
:10BA9000046001F0B9FA1C4901200870204600F04A
:10BAA00075FAF068C089A4F85C00A4F85E00A4F8F8
:10BAB0004A00608E211DFFF762FC6086122120463D
:10BAC000FFF770FC98B103B02046BDE8F0400021BC
:10BAD000FFF71ABA002DB5D0AB69002BB2D0286998
:10BAE00003B04FF0FF32BDE8F0400021184703B02B
:10BAF0002046BDE8F04000F0C7B80000A4010020D7
:10BB00002C7E00209C0100208401002070B504469A
:10BB1000207D002801D0002070BD0220FDF74AFBE7
:10BB20000546280018D020692861E08AE8820120B3
:10BB30002875607D6875207A2872A07AA872607A6C
:10BB4000687220682860E08AA0B111490869A042A3
:10BB500004D1C06808610BE0002070BD40B1C1682D
:10BB6000A14202D1E168C16002E008460028F6D196
:10BB70000020E06021460120FDF7EAFA0548A861AF
:10BB800005480168E960056001F03EFA284670BD8D
:10BB900084010020F1AF00089801002070B5044630
:10BBA0000D46002C1FD0206800281CD00E4E2046C9
:10BBB000B16900F01BF82046316900F017F8002D3C
:10BBC00011D0286800280ED006F114000268002A5F
:10BBD00009D0D06811682368994201D129681160A1
:10BBE0000246002AF5D170BD8401002070B50546DB
:10BBF000084600280BD001682A68914204D1C46825
:10BC0000FFF7ECF9204600E0C0680028F3D170BDD2
:10BC10004020FFF7F5B90000F0B44FF0000C144CD1
:10BC2000144D4FF6FF764FF44047A888411CA98079
:10BC3000B04200D1AF800021AA8854F821000068EA
:10BC400078B1C38A934209D10CF101001FFA80FC3C
:10BC5000BCF5804FE9D3F0BC00207047C0680028D5
:10BC6000EFD1481CC1B20429E7D3A888F0BC7047C3
:10BC700068F40008840100200249CA6888681044FA
:10BC800088607047840100202DE9F05F0446764803
:10BC90000068A04202D10020BDE8F09FB4F85C80AB
:10BCA000B4F84800804500D38046A56EA07E10F011
:10BCB000020F0FD04DB1E8684068FCF75FF9616C86
:10BCC000401A29890844404504D92046BDE8F05F60
:10BCD00000F0C2BFE76E0FB903E0074638680028DE
:10BCE000FBD1201DFBF7CCFC81465FEA090003D0A5
:10BCF00034B1206820B108E06FF00300BDE8F09F88
:10BD000009F1040020B1006820604FF0000A91E0C2
:10BD10006FF00300BDE8F09FE8688089FCF73AF90E
:10BD2000E06EA8B1A17E11F0440F11D1A06E28B130
:10BD300002686AB90089628E904209D2B4F8600044
:10BD400030B1B4F86200082802D211F0A00F7FD001
:10BD5000207D022807D01020FCF71CF90146E86876
:10BD60008289114381814A462146284600F0B4F871
:10BD700028B1A17E41F08001A176BDE8F09F28683E
:10BD8000A066207D022803D0A07E20F00300A076CC
:10BD9000E8684068FCF7F2F80646E8688089FCF736
:10BDA000F9F810F0030F01D0012000E000202989EC
:10BDB00030440844E16C091A00D5E064E8688089E1
:10BDC000FCF7E8F810F0030F01D0012000E000209C
:10BDD0002989C8422AD0C5F800A0E06E68B1E86899
:10BDE0004068FCF7CBF80646F8684068FCF7C6F8F0
:10BDF000301A18D504F16C0603E0E5662F4618E00A
:10BE00003668306858B1C0684068FCF7B7F88346B8
:10BE1000E8684068FCF7B2F8BBEB0000F0D430688B
:10BE20002860356005E03D602F4602E0284600F0BE
:10BE3000FAFEA56E4DB1E8684068FCF79FF8616CAA
:10BE4000401A29890844404500E001E07FF664AFCC
:10BE5000A06E08B9A4F864A0A07E20F08000A076AF
:10BE60000020BDE8F09F0000C40100202DE9F04152
:10BE700005460E469846B018143081B200220120C3
:10BE8000FDF763FF07461FB37C68E88AFCF782F87A
:10BE90002080288BFCF77EF86080C4F80480686AF4
:10BEA000FCF76CF8A060052000EB9600102141EA39
:10BEB000003080B2FCF76EF8A081688DFCF76AF85C
:10BEC000E081002020826082698D686A0844E8620F
:10BED0003846BDE8F0810000F0B583B005460C4659
:10BEE00017466868C089012802D003B00020F0BD61
:10BEF000606AFCF743F8E9688860608DFCF74AF8EF
:10BF0000E968C881618D606A0844E062E86800F110
:10BF10001406A87A10F0010F09D0211D40F2B45088
:10BF2000FFF72DFA40F00170FCF728F83060B4F903
:10BF300030000026002800DA2686606B38B91248E7
:10BF400000686063E8684068FCF718F8A0636968F7
:10BF5000A8898A88801A4A89121A4A8169680A89D6
:10BF6000101A08816968E8684860E8680682607AA3
:10BF70000621019102970090A37A221D214668684C
:10BF8000FBF74AFA03B0F0BD900100202DE9F04123
:10BF900006461B4D6888002819D04FF00000E88045
:10BFA00015D940F2B457FFF791FA00280FD00128B5
:10BFB00009D002280DD0FFF789FA022807D3E988B3
:10BFC0000844801EE880E88869888842EBD3BDE891
:10BFD000F081FFF77BFA0428F9D1E8886988801C92
:10BFE0008842F4D8FFF772FA0402FFF76FFA204391
:10BFF000B84200D808B940F2B4507086E3E70000B8
:10C00000A401002070B50C461D46069E059B0499B0
:10C01000A446944214D213F0020F08D18B7E13F081
:10C02000400F0DD11EB18B6E0BB9C96E41B104F238
:10C03000B75121F00301914200D80A461FFA82FC51
:10C0400000226146FDF781FE28B14189091B298044
:10C050000481448170BD002070BD70B50446207D10
:10C06000002816D00A2814D0012812D0206F0025ED
:10C0700010B1FDF7EFFF25674FF0FF302086A06E6F
:10C0800000F0E0FDE06E00F0DDFDA566E566A4F8D9
:10C09000645070BD70B502460C461068A04202D1D3
:10C0A000C068106009E040B1C168A14202D1E168F6
:10C0B000C16002E008460028F6D10025E560204670
:10C0C000FFF7CBFF207D0A280BD0012809D0A07EE6
:10C0D00010F0010F05D040F00200A0762046FFF7D7
:10C0E000D3FD2575E58270BDC0F8841002777047D6
:10C0F0002DE9F04F83B0044600208146DFF86CB490
:10C100009BF8001011F0040F2FD0217D022906D0DA
:10C11000616ADBF81420914208D1012011E0E16C42
:10C12000DBF8182091420CD101200AE0531A08D400
:10C13000238D1944511A002903DCA17E41F002012C
:10C14000A17670B19BF8010040F008008BF8010067
:10C15000A07E20F00100A07603B06FF00D00BDE8D6
:10C16000F08F03B00020BDE8F08F11F0020F0CD06B
:10C17000207D022809D0032807D0A07E40F00200CD
:10C18000A07603B00020BDE8F08FA07E10F0100F65
:10C1900002D1F748006820624FF0000A84F892A0AC
:10C1A0002046FFF7F3FE207D0127801E0423F14A7D
:10C1B000DFF8C483F14EF24D082880F0D381DFE828
:10C1C00000F0048FEEEDECEEEBEA9BF8000010F0CF
:10C1D000100F68D010F0020F65D0616C01F1010CF6
:10C1E000DBF818108C455ED1DBF81400421C62624B
:10C1F000E2626164DBF80C10C989A4F85C10A4F851
:10C200005E10401E20652375608E211DFFF7B7F874
:10C210006086B4F85C10A4F84A1041F21C12B2EB2C
:10C22000400F01D2410001E041F21C11B1EB800F3F
:10C2300001D9800006E0B2EB400F01D2400001E0DE
:10C2400041F21C10A4F84800B4F86200401EA4F8A3
:10C250006200E06ED0B10168E16600F0E4FCE06EDF
:10C26000C0B1A4F830A084F842A0D4F8803023B143
:10C270000022214620699847814619F10D0F0DD003
:10C28000A07E40F00200A07600F06CB9A06E0168BC
:10C29000A166E2E74FF0FF302086E6E703B06FF0DB
:10C2A0000C00BDE8F08F10F0100F00F05B81DBF8A0
:10C2B0000C0002F1100314320188408801910090B3
:10C2C000BBF80A10DBF814000144DBF8180000F09A
:10C2D00066FCA4F830A0204600F04AFC00F042B909
:10C2E0009BF8000010F0100F6BD0616CDBF81800A9
:10C2F000411A012954D4E16C411A002950DC2375FC
:10C30000606F30B183693BB10022214620699847B4
:10C3100004E06FF0050001E06FF00F0050B110F184
:10C320000D0F02D02046FEF759FE03B06FF00C004F
:10C33000BDE8F08F204600F063F9B4F85C00A4F883
:10C340004A00BBF8080010B1401EABF80800608E30
:10C3500041F21C12B2EB400F01D2410001E041F268
:10C360001C11B1EB800F01D9800006E0B2EB400F49
:10C3700001D2400001E041F21C10A4F848009BF8F3
:10C38000010010F0200F52D0A07E40F00200A076F5
:10C3900007202075E6E0D0E0A3E079E02DE01DE085
:10C3A000DBF80C100B88498801930091BBF80A3028
:10C3B000DBF81410194402F11003143200F0EFFB03
:10C3C000D0E010F0020F32D0606ADBF81410401E8B
:10C3D00088422CD1204600F06FFBC3E0204600F0DD
:10C3E0000FF99BF8010010F0200F20D0A07E40F044
:10C3F0000200A07607202075B4E0204600F000F986
:10C400009BF8010010F0200F33D09BF8000010F0D3
:10C41000100F06D0E06CDBF81810884201D1A06E36
:10C4200030B1A07E40F00200A0760820207599E08F
:10C43000A07E40F00200A0762046FFF70EFE28689E
:10C44000A04202D1C068286009E040B1C168A142A1
:10C4500002D1E168C16002E008460028F6D188F800
:10C4600000700A2020753068E060346000F0CCFD78
:10C4700078E09BF8000010F0100F73D0E06CDBF850
:10C48000181088426ED1A06E50BB0620207569E05E
:10C49000204600F0B5F89BF8010010F0200F61D0A5
:10C4A000A07E40F00200A0762046FFF7D6FD286867
:10C4B000A04202D1C068286009E040B1C168A14231
:10C4C00002D1E168C16002E008460028F6D188F890
:10C4D00000700A2020753068E060346000F094FD40
:10C4E00040E0204600F08CF89BF8000010F0100FA0
:10C4F00038D0E06CDBF81810884233D1A06E88BBCE
:10C500002046FFF7AAFD2868A04202D1C068286033
:10C5100009E040B1C168A14202D1E168C16002E016
:10C5200008460028F6D188F800700A202075306887
:10C53000E060346000F068FD14E0204600F060F830
:10C540009BF8000010F0100F0CD0E06CDBF8181016
:10C55000884207D1A06E28B99BF8010040F0100076
:10C560008BF8010003B00020BDE8F08FA40100208B
:10C57000900100202C7E002084010020A0010020DA
:10C580009C01002070B50446256F6E7B002020675B
:10C59000D4F87CC0BCF1000F05D000232A46214608
:10C5A0002069E04705E000232A462146184600F0AE
:10C5B00041FA30B110F10D0F1FD025676FF0040064
:10C5C00070BD16F0200F13D0218DA1F53062683AAE
:10C5D00001D0491C2185D4F87CC0BCF1000F04D0E7
:10C5E00000231A4621462069E04710F10D0F01D0C3
:10C5F000002070BD6FF00C0070BD6FF00C0070BDBE
:10C600002DE9F04104460025F64F2E46387810F00B
:10C61000100F00F03581B4F85C30606D03EB000C56
:10C62000226D7969B2EB01080BD48A4202D1BA6952
:10C63000821A06D4BA69904216D1F868C089984225
:10C6400012D9F868C089A4F85C00B4F85E20824270
:10C6500001D2A4F85E002165B969616560B194F802
:10C66000910008B184F89160626CB869811A002960
:10C6700038DC798951B130E094F891000028F3D189
:10C6800084F89060012084F89100EDE7B4F85C3004
:10C69000616D1944614520D1B4F9301000291CDBCB
:10C6A00082421AD1012594F84300411CC9B281424B
:10C6B00001D984F8431094F84300032809D9B4F849
:10C6C0004800618E014489B2814206D9A4F848101D
:10C6D00003E002D1204600F018FA002D6DD184F855
:10C6E00043608AE001296DD4E16C411A002969DCBC
:10C6F000A17E11F0040F06D021F00401A176B4F858
:10C700004A10A4F8481084F84260E18FB4F93C2044
:10C7100001EBE201A4F8401084F843606064207DDE
:10C7200004282CD3B4F84800B4F84A10884207D241
:10C73000618E014489B2814221D9A4F848101EE0DB
:10C74000618E494391FBF0F1014489B2884216D2CF
:10C75000A4F8481013E02868E0666868FDF7E4FB79
:10C760006868FDF7E1FBB4F86210081AA4F86200EB
:10C770002889398908443881284600F054FAE06E47
:10C78000B8B1C0684068FBF7F9FB0546E06EC068C9
:10C790008089FBF7FFFB10F0030F01D0012000E0C0
:10C7A00000202844E56E29890844B969401A002808
:10C7B000D1DDE06E10B12686E6761EE04FF0FF3048
:10C7C0002086F9E7204600F047FA16E02868A066C0
:10C7D00008B9A4F864606868FDF7A6FB6868FDF70F
:10C7E000A3FBB4F86210081AA4F8620028893989FA
:10C7F00008443881284600F016FAA06ED0B1C0680F
:10C800004068FBF7BBFB0546A06EC0688089FBF75C
:10C81000C1FB10F0030F01D0012000E000202844EC
:10C82000A56E29890144B869411A03D4E16C401A04
:10C830000028CBDDB4F8600039890844A4F8600012
:10C84000606BE8B1A16BBA69891A19D56649098884
:10C85000081AB4F93C10A0EBE10000B2014409B29F
:10C86000A187002801DA404200B2B4F93E20A0EBD3
:10C87000A2001044E08700EBE100A4F840006663EA
:10C880007B89002B7ED0207D07287BD2606A7A6965
:10C89000564D811A012926D41344C31A5B1C002B60
:10C8A00021DC686842898A420FDA0289521A92B200
:10C8B0004389C91A02814681006843898B42F7DBAC
:10C8C000494209B2FDF7FCFB03E0494209B2FDF71A
:10C8D000F7FBBA8A606A2989821A891A29817861E4
:10C8E000E968486005E0101A03D5A07E40F0020018
:10C8F000A076606A79690A1A73D4228D02448A1A72
:10C90000521C002A7EDC884277D1E8688089FBF7D8
:10C9100041FB10F0030F01D0012000E00020298925
:10C92000084480B27881218D814235D2E8688089BF
:10C93000FBF730FB10F0010F0FD0E8688089FBF7A0
:10C9400029FBC0F344004000FBF724FB0146E868E4
:10C95000828922F47C5211438181208D2881E868EC
:10C960008089FBF717FB10F0020F02D02889401EC8
:10C97000288129896868FDF7EEFBE8688089FBF764
:10C9800009FB00E043E010F0030F01D0012000E0BC
:10C990000020298908447881788979690144616295
:10C9A000218D081A2085204600F0A4FB68680189C3
:10C9B00009B1F8616E60E8688089FBF7EBFA10F066
:10C9C000010F03D0787840F020007870A07E10F03E
:10C9D000010F0ED020F0010040F00200A076BDE86B
:10C9E000F0810FE0A4010020900100204CC3002042
:10C9F00003E040F00100A076F1E72046BDE8F041F9
:10CA000000F02AB92046BDE8F04100F025B9606A7F
:10CA100079690A1A05D4228D1044081A401C00288E
:10CA2000DDDDA07E40F00200A076D8E7002800D02F
:10CA3000C167704710B508461446002C06D02189FE
:10CA400000F00BF82046FDF705FB00E00BB10020DD
:10CA500010BDBDE81040FEF77DBB10B50446208D2B
:10CA6000084480B2208540F66831884201D921858A
:10CA700006E028B9207D072801D0092800D12185AA
:10CA8000204600F037FB40F2DA21884208DBA07E26
:10CA900040F00200A0762046BDE81040FFF7F4B851
:10CAA00010BD002807D00022436F8B4200D142679F
:10CAB000C0680028F8D170472DE9F0410546EE6EB8
:10CAC000002E20D03068E86605F1680400E0246894
:10CAD000206850B1C0684068FBF750FA0746F0681C
:10CAE0004068FBF74BFA381AF1D4206830602660B2
:10CAF0003168002009B9A5F8640095F84210491C76
:10CB000085F842106863BDE8F08110B50446E06E18
:10CB100000282CD0A07E10F0040F28D12046FFF76B
:10CB2000CBFFB4F84800B4F85C10884203D9480839
:10CB3000A4F84A0002E04008A4F84A00B4F84A10F9
:10CB4000608EB1EB400F05D24FF6FF7101EA400154
:10CB5000A4F84A10B4F84A1000EB40000844A4F8C6
:10CB60004800A07E40F00400A0760020208610BD82
:10CB7000C16E002912D000E011460A68002AFBD1DC
:10CB8000826E0A60C16E81660021C16690F8422003
:10CB9000521C80F842204163FFF776B870472DE9B8
:10CBA000F04F83B083460D9F0C9E8A46914698466F
:10CBB000002214210120FDF7C8F8054628002FD0D7
:10CBC0006C683046FBF7E6F920803846FBF7E2F95F
:10CBD00060805846FBF7D2F960605046FBF7CEF90B
:10CBE000A06045F21400FBF7D5F9A08146F60B00D2
:10CBF000E0810026268266824046FAF741FD48B170
:10CC0000062101910290FF2342460096494628469C
:10CC1000FAF702FC03B02846BDE8F04FFDF71ABA58
:10CC200003B0BDE8F08F10B50446002C09D0606851
:10CC300008B1FDF70FFA2146BDE810400320FCF7CC
:10CC400087BA10BD10B5002805D00468FFF7EBFFC8
:10CC500020460028F9D110BD70B584B004460025E7
:10CC6000E06CFBF78BF90346002229462046FFF7CC
:10CC7000FDF80646C6B1201DFAF702FDE0B1617A63
:10CC80000622019200910290A37A221D214630468D
:10CC9000FAF7C2FB05463046FDF7DCF97DB1A07E10
:10CCA00040F00300A0760EE0A07E40F00300A076E6
:10CCB00004B06FF0010070BD6FF00305EBE7A07EDC
:10CCC00020F00300A07604B0284670BD70B505467C
:10CCD000AC6E002C01D10AE00C4621680029FBD182
:10CCE000E0688089FBF756F910F0070F05D0284659
:10CCF000BDE870400121FEF755BB0120FBF74AF962
:10CD00000146E068828911438181A87E40F02000BD
:10CD1000A876002070BD002800D08167704770B5EC
:10CD200004460D461646207D01280BD09DB1A07EFD
:10CD300040F01000A07646B12046BDE870400121C9
:10CD4000FEF712BA6FF00A0070BD206F18B1FDF740
:10CD500081F9002020677EB1207D032806D00428B9
:10CD600004D0072802D06FF00A0070BDE9B2204657
:10CD7000BDE87040FEF7F8B9002070BD2DE9F04F16
:10CD800083B09D4FF868401CF860B878401CB870BC
:10CD9000DFF868A24FF4FA7B4FF000090026BC6967
:10CDA000002C00F00681617FB878814202D1E468EE
:10CDB00000F0FCB860770025A846207D022803D14A
:10CDC00094F84210062918D094F842100C2916D075
:10CDD00094F89120FAB112F80A0094F89010814268
:10CDE00002D2491C84F8901094F89010814246D3E6
:10CDF000204600F02FFB20B141E001253FE0012556
:10CE00003DE084F8909094F89100072837D2401CB8
:10CE100084F8910033E0B4F93020002A01DB521C81
:10CE20002286E26E5AB3B4F93020B4F940309A4207
:10CE300025DB022809D0E08FB4F93C2000EBE200AA
:10CE40006F4A515C8840A4F84000A4F83090B4F8D0
:10CE50004800B4F85C10884200D308464108A4F8A2
:10CE60004A10608E4FF6FF7202EA4002914201D2F0
:10CE7000A4F84A20A4F848002046FFF779FE207D58
:10CE800006280AD1A17E11F0100F06D0216AFA6897
:10CE9000511A282901D9691CCDB2217A11F0080F45
:10CEA00028D0042801D0072824D15648D4F88C1063
:10CEB000FB680844B0FBFBF2206A181A824204D2D5
:10CEC000681CC5B24FF0010814E094F8922042F2B9
:10CED0009F4312FB03F201EBC201B1FBFBF1814264
:10CEE00008D22046FEF7FAFC20B994F89200401CC4
:10CEF00084F89200207D032806D1216AFA68511A2D
:10CF0000282901D9691CCDB2092806D1206AF968FF
:10CF1000081AF02801D9681CC5B255B3D4F8885056
:10CF20002046FFF79AF816B1E068F06001E0E0688B
:10CF3000B861B8F1000F09D0208BE18A009101900F
:10CF4000231D2246616AE06CFFF729FED4F81080A9
:10CF50002146E4680120FCF7FBF887F800901DB13A
:10CF60006FF00C014046A847387800287FF416AFD0
:10CF70001CE02646E468F07E401CC0B2F076317FAB
:10CF8000884213D386F81B9087F80090D6F8842047
:10CF90001AB131463069904700E000203978002905
:10CFA0007FF4FCAE10B93046FEF76EFE002C7FF425
:10CFB000FAAE0025FC69002C1AD00020216AFA681C
:10CFC000511AF02900D9012070B12046FFF745F829
:10CFD00015B1E068E86001E0E068F8612146E468C6
:10CFE0000120FCF7B5F801E02546E468002CE4D107
:10CFF00003B0BDE8F08F00008401002023F4000896
:10D0000058F40008B84C0A000848816800290CD17F
:10D010000749084A09681268114306D00121816056
:10D0200000220549FA20FDF7CFBE7047C801002055
:10D030009C010020A00100203DD7000800B583B06E
:10D04000DFF870C09CF8001011F0040F1DD111F032
:10D05000020F1CD0426ADCF814108B1A1DD4038D09
:10D060001A448A1A002A18DCDCF80C00028840886E
:10D0700001920090BCF80A0001440F4800F110032F
:10D080001A1DDCF81800FFF78AFD03B000BD11F08F
:10D09000010F02D0094909680162BCF80A10002991
:10D0A000F3D0817E41F00201817603B05DF804EB9C
:10D0B000FEF7EABDA40100202C7E00209001002094
:10D0C00010B5FEF7D3F906494878401C487010F0B7
:10D0D000010F03D0BDE81040FFF750BE10BD0000A7
:10D0E000840100200248417841F0100141707047EE
:10D0F000A401002030B4048D436A1A19B0F832C07C
:10D1000040F2B455C16AAC4500D9AC468C44B2EB90
:10D110000C0C03D4448530BC501A70475A1A002AAC
:10D1200002DD0021418501E0C91A418530BC0020A3
:10D1300070472DE9FF4F8BB00546904600200990BF
:10D14000002600270890824600240790069005904C
:10D150008146688EB5F85E10B0EB510F01D20146E2
:10D1600000E0490801B9014604910C9860B14146BC
:10D17000284600F048F9002808D1B5F862B0A86E3A
:10D1800000286CD0064605E06FF00F000FB0BDE838
:10D19000F08F064630680028FBD1B07A10F0010FFE
:10D1A00001D0042000E0002031890A180498801A78
:10D1B00082B2B5F864000590B8B13746404501D257
:10D1C000034600E04346934201D9914604E04045BE
:10D1D00001D2814600E0C14604EB09039CB2A0EBFA
:10D1E00009000590A2EB090082B2444537D2B2B3E0
:10D1F000A9B3A8EB0400904200DD104680B2039072
:10D2000037460E9810F0010F14D001210E980291AC
:10D21000019005AB009504200399FEF7F3FE0990F9
:10D2200000287ED00C98039A011909984068F3F7FA
:10D2300037F80BE0012204200399FCF786FD0990E2
:10D2400000286ED00C980119099841600398204479
:10D2500084B20998FCF768FE58441FFA80FB4445E5
:10D2600065D204990798081A0A90A8EB040080B2C6
:10D270000A9989B2884200D9084603900E9810F0A6
:10D28000010F1DD0BAF1000F18D000200E990290A6
:10D290000191079903980095084481B205AB0020DD
:10D2A000049AFEF7AFFE071E53D00C987A68011956
:10D2B00007981044039AF2F7F3FF17E00120E5E71F
:10D2C000012200200399FCF740FD029048B30C981E
:10D2D000011902984160002210460799FCF735FDBC
:10D2E000071E2FD038460299FCF700FE3846FCF79F
:10D2F0001BFE58441FFA80FBBBF1080F26D8069886
:10D300000090A86D0022031939462846FDF7EAFF70
:10D31000071E1ED0BAF1000F2FD00898076008979B
:10D3200000E016E00398204484B244459DD3B9F14F
:10D33000000F34D074687CB3208948442081206871
:10D34000E8B126E00298FCF785FE02E03846FCF7DB
:10D3500081FEA87E40F08000A876099810B1099857
:10D36000FCF778FEBAF1000F02D05046FFF76AFCD6
:10D370000FB04FF0FF30BDE8F08FBA46CFE76189BC
:10D3800060684A4608440C99F2F78AFF608948446D
:10D3900060812468002CCFD1308948443081BDF8A9
:10D3A0001400A5F86400099840B170680999FCF769
:10D3B0009DFD09983189008908443081A6B1C6F8DD
:10D3C00000A0A86D4044A865B5F86000A0EB080077
:10D3D000A5F86000A5F862B08FB1F86878B10E9832
:10D3E00010F0020F03D00AE0C5F868A0E9E70820B2
:10D3F000FAF7D0FD0146F8688289114381810FB0A8
:10D400000020BDE8F08F027D042A08D0072A06D04C
:10D41000022A04D0032A02D06FF00A00704751B1EB
:10D42000B0F860208A4208D2817E41F08001817686
:10D430004FF0FF30704700207047B0F862100829A5
:10D4400001D200207047817E41F0800181764FF04B
:10D45000FF3070472DE9F04184B00546EC6E002C9A
:10D4600000D1AC6E0CB3E0688089FAF793FD10F040
:10D47000010F01D02089E0B10027E7B10022E06868
:10D48000002143682846FEF7F1FC80465FEA080069
:10D4900013D0D8F80460AFB11120FAF77BFDB18941
:10D4A00021F47C510843B08116E004B00020BDE8AF
:10D4B000F0810127E1E70122E1E704B04FF0FF30FE
:10D4C000BDE8F08106F11401606823890289D21A4F
:10D4D00093B20122FCF786FDE0684068FAF74EFD42
:10D4E000401CE96C091A00D5E864281DFAF7C8F851
:10D4F00090B106210022009201910290AB7A2A1D80
:10D5000029464046F9F788FF04464046FCF7A2FD4D
:10D5100004B02046BDE8F0816FF00304F5E7000099
:10D5200008B50520009080230022024902A0FDF7E3
:10D5300037FC08BD49D500087463706563686F5F88
:10D5400074687265616400002DE9F04F8DB04FF092
:10D55000FF344FF48060FDF79DF9054628000BD09D
:10D56000002201210220FBF727FC0446200007D5FA
:10D570003EA0F7F777F82EE040A0F7F773F82AE01F
:10D5800002208DF821000026099640F2D240FAF7D9
:10D5900001FDADF822000A960B96102208A920463C
:10D5A000FAF78CFCB0F1FF3F0ED005212046FAF7C8
:10D5B00007FDB0F1FF3F0BD004AF4FF001084FF073
:10D5C00010094FF0040A18E02FA0F7F74BF802E01B
:10D5D00031A0F7F747F8002C02DB2046FAF7A6FC4B
:10D5E000002D02D02846F9F7B5FB0DB0BDE8F08F4D
:10D5F000002E02DB3046FAF799FCCDF80C9003AA16
:10D6000004A92046FAF7A2FB0646BDF81200FAF775
:10D61000C1FC8346381DFAF76DF801465A4622A030
:10D62000F7F720F8CDF8088002AB0122062130463A
:10D63000CDF800A0FBF7D4FA0BE0294623A0F7F7BA
:10D6400011F85A4629463046FBF723FCC820FCF760
:10D65000AFF900234FF4806229463046FBF7E3F828
:10D660008346BBF1000FE8DCC2E70000536F636B39
:10D670006574206572726F720A0000004E6F206D33
:10D68000656D6F72790A0000556E61626C65207479
:10D690006F2062696E640A004C697374656E206560
:10D6A00072726F720A0000006E657720636C6965A4
:10D6B0006E7420636F6E6E65637465642066726F4E
:10D6C0006D202825732C202564290A007265637655
:10D6D0002025730A0000000038B504460D46FAF70D
:10D6E0005EFC09480460456006210830FDF7F0FA49
:10D6F0000648FDF71DFB022000908023002204490C
:10D7000004A0FDF74DFB38BD1C01002028010020BE
:10D7100075D700085443502F4950000070B5044697
:10D720000D460548FDF7FFFA2846A0470248FDF7D9
:10D730000DFB002070BD00002801002010B5FFF790
:10D74000BFFC0848084900680968084306D0002261
:10D75000BDE810400549FA20FDF736BB044900201A
:10D76000886010BD9C010020A00100203DD700086A
:10D77000C801002082B019480168002901D0406822
:10D7800088471748FDF7CFFA1548FDF7DFFA01A9DA
:10D790001448FDF785FB1248FDF7C5FA019A002AE7
:10D7A000F2D01078022807D003280ED00428EBD13D
:10D7B000516890688847E7E791685068D268904759
:10D7C00009200199FBF7C4FCDEE75168906888479F
:10D7D00008200199FBF7BCFCD6E700001C010020E3
:10D7E0002801002024010020042801D300207047D4
:10D7F000054900EB800051F8202012B101EB8000B8
:10D800007047002070470000DC7D00202DE9F041CA
:10D8100004460D46002D00D11D4D4CB145B10026EA
:10D820001C4F7B68184653B19C4205D1012606E087
:10D830006FF00500BDE8F081DB68002BF4D16AB120
:10D84000C0B1844213D0418A914210D101682B6843
:10D8500099420CD16FF00700BDE8F08100F036F975
:10D860000246100006D16FF00700BDE8F081C068E5
:10D870000028E6D125B128682060628216B104E054
:10D880000020F9E77868E0607C600020BDE8F08166
:10D89000F0F20008D401002070B504460D4616468B
:10D8A000002C03D015B1628A1AB108E06FF00500B0
:10D8B00070BD21462046FFF7A9FF0028F8D128684F
:10D8C0006060A682207C40F004002074074A506803
:10D8D000014630B1844201D1002070BDC0680028EB
:10D8E000F8D1E1605460002070BD0000D401002038
:10D8F000704700002DE9F34F83B08146B9F80A0064
:10D90000082805D205B04846BDE8F04FFCF7A2BB99
:10D91000D9F80440DFF81881D8F80010D8F81400BE
:10D92000F9F785FB02902088FAF734FB07466088F8
:10D93000FAF730FB824600260025DFF8F8B0DBF866
:10D940000440FCB1608A50451DD12046029A0499DA
:10D9500000F072F8B8B1207C10F0040F01D105B9C5
:10D960002546A08AB8420ED1606818B1D8F81010C8
:10D97000884208D136B1E068F060DBF80400E0606E
:10D98000CBF8044003E02646E468002CDAD104B961
:10D990002C460CB1012008E00498D8F81410406817
:10D9A000884201D1012000E00020D0B36FF00701D0
:10D9B0004846FCF785FB28B105B04846BDE8F04F66
:10D9C000FCF748BBA4B1D4F818C0BCF1000F09D0D3
:10D9D000009708F110034A462146E069E04705B088
:10D9E000BDE8F08F05B04846BDE8F04FFCF732BB0C
:10D9F000029880B998F8140000F0F000E0280AD0EE
:10DA0000B8F80C00083001B24846FCF75CFB032173
:10DA10004846F9F7FBF905B04846BDE8F04FFCF77A
:10DA200019BB05B04846BDE8F04FFCF713BB00003A
:10DA30002C7E0020D40100200C4B002A5B690CD006
:10DA400048B1006838B1B3F1FF3F04D0896808409D
:10DA50001940884208D10120704718B1006808B108
:10DA6000984201D101207047002070472C7E002091
:10DA7000002815D00268002A12D0002910D00A68A8
:10DA8000002A0DD0074A5268002A09D01368D0F83E
:10DA900000C0634501D10B681360D268002AF5D13C
:10DAA00070470000D401002010B50020FBF782FB76
:10DAB00000280AD00021016041608160C1600161DD
:10DAC00041618161C161FF21817210BD70B4002389
:10DAD000104C4FF6FF754FF44046D4F804C0208830
:10DAE000411C2180A84200D12680604670B1218867
:10DAF000428A8A4207D1581C83B2B3F5804FEED3D5
:10DB000070BC00207047C0680028F1D1208870BC2C
:10DB100070470000D40100208161C261704700009D
:10DB20000A494A68824202D1D2684A600AE04AB190
:10DB3000D36823B1834202D1C168D16002E01A46A2
:10DB4000002AF5D101460020FBF702BBD4010020DA
:10DB5000002803D0838A021D00F003B86FF005008F
:10DB60007047F8B505460E4614461F462046002D60
:10DB70000BD054B1F9F784FD50B100903B462246DA
:10DB80003146284600F007F8F8BD6FF00500F8BDF3
:10DB90006FF00300F8BD30B583B0DDF818C0002881
:10DBA0000ED06AB104687CB104F0F005E02D0BD012
:10DBB000DCF80450AC420AD003B06FF0050030BD71
:10DBC00003B06FF0050030BD0CF1040400E0044622
:10DBD000CDF800C0019400F002F803B030BD2DE98B
:10DBE000F04F83B00446DDF834A0DDF830800F46F6
:10DBF00091469B46002C05D0B9F1000F02D0628AF5
:10DC00002AB10AE06FF0050003B0BDE8F08F2146AD
:10DC10002046FFF7FBFD0028F6D108213846FCF727
:10DC20004FFA98B1002208210120FCF78EF8054632
:10DC3000280006D0388950B139462846FCF76AF9E1
:10DC400005E003B04FF0FF30BDE8F08F3D466E6851
:10DC5000608AFAF79FF930805846FAF79BF970808E
:10DC60000020F0802889FAF795F9B0801120A37A76
:10DC7000617A009101904A46CDF8088051462846C5
:10DC8000F9F7E0FB0446BD4202D02846FCF7E2F972
:10DC900003B02046BDE8F08F0169436882689A604E
:10DCA000836842685A604A68824201D182684A6049
:10DCB000002202610868401E0860704710B50446E3
:10DCC000002C06D000F0AAF8A46B00F0C7F820469C
:10DCD00010BD502080F31188BFF34F8FBFF36F8FBB
:10DCE000FEE7002801D0806B7047502080F3118838
:10DCF000BFF34F8FBFF36F8FFEE700002DE9F047B2
:10DD000006460B4617460024072500F093FBDFF874
:10DD10008C80D8F8080083423AD3DFF884906D1ED7
:10DD200005EB850009EB800104EBC40006EB8000E5
:10DD30000122FCF701FD0444002DF0D104EBC400E6
:10DD400006EB80000222D8F83C10FCF7F5FC0444F6
:10DD500004EBC40006EB80000222D8F84010FCF768
:10DD6000EBFC044404EBC40006EB800004220D49E4
:10DD7000FCF7E2FC044404EBC40006EB8000032241
:10DD80000949FCF7D9FC044417B108480068386019
:10DD900001F014F92046BDE8F08700008C00002057
:10DDA000B837002080380020943800203C00002044
:10DDB00000F1080141604FF0FF328260C1600161F3
:10DDC00000210160704700210161704710B4D1F853
:10DDD00000C0BCF1FF3F02D000F1080202E002697E
:10DDE00004E01A4653681C686445FAD953684B60CE
:10DDF00099608A60516008610168491C016010BC2B
:10DE0000704742684A6093688B609368596091607C
:10DE100008610168491C016070470000502080F3D0
:10DE20001188BFF34F8FBFF36F8F0A494868401CBA
:10DE3000486001280CD10848006810F0FF0F07D097
:10DE4000502080F31188BFF34F8FBFF36F8FFEE731
:10DE500070470000E800002004ED00E00949486830
:10DE6000002806D0401E4860002801D180F31188A8
:10DE70007047502080F31188BFF34F8FBFF36F8F2F
:10DE8000FEE70000E800002070B5002827D0A0F1D0
:10DE90000804134D6068E968084207D1502080F3F8
:10DEA0001188BFF34F8FBFF36F8FFEE722683AB13F
:10DEB000502080F31188BFF34F8FBFF36F8FFEE7C1
:10DEC0008843606000F0B6FA60686968084468607A
:10DED0002046FCF7E7FBBDE8704001F06FB870BD6D
:10DEE000D000002006484FF47A710068B0FBF1F0D2
:10DEF000411E4FF0E02041610721016170470000A1
:10DF00001400002010B5F2F7A3F9114910280ED320
:10DF100000F1E02090F8F0030A78904207D25020F8
:10DF200080F31188BFF34F8FBFF36F8FFEE709486F
:10DF30000068896800F4E060884207D9502080F3C7
:10DF40001188BFF34F8FBFF36F8FFEE710BD000046
:10DF5000E80000200CED00E010B50446002C07D0CE
:10DF6000204600F00DF82046BDE81040FFF78CBFBA
:10DF7000502080F31188BFF34F8FBFF36F8FFEE700
:10DF80000021084A02EBC1035B68834206D10020EE
:10DF900042F8310002EBC10148607047491C082972
:10DFA000F0D370477837002010B502460020002AD1
:10DFB00012D00F48006B38B1502080F31188BFF3A6
:10DFC0004F8FBFF36F8FFEE700F034FA0021104649
:10DFD000FCF794F900F0F2FF002807D105494FF053
:10DFE00080500860BFF34F8FBFF36F8F10BD0000EC
:10DFF0008C00002004ED00E070B50446FFF70EFF32
:10E00000254D04B92C68201DFFF746FE68B9E06A6B
:10E01000224A00EB800152F8211031B9012101FAA6
:10E0200000F0296921EA00002861A06A18B104F112
:10E030001800FFF731FE686A401C68622868844255
:10E0400007D1211D1648FFF7DCFE6868401C686098
:10E0500007E0A868401EA8602046FCF746FAFCF7D7
:10E060009BFBFFF7FBFE6869002814D028688442F8
:10E0700011D1286B38B1502080F31188BFF34F8F36
:10E08000BFF36F8FFEE707494FF080500860BFF382
:10E090004F8FBFF36F8F70BD8C000020B83700200A
:10E0A0008038002004ED00E02DE9F04107460C46E1
:10E0B00090461E46002F0ED03D46256005F13400E7
:10E0C0006060E86A2061286BE061686CA060207B7A
:10E0D000032803D00AE012480568EEE700F0AAF929
:10E0E000A86A08B10220207300F068FFE86C606144
:10E0F000686DA061052E01D0267303E03846F8F75D
:10E1000045F82073B8F1000F05D0286BFCF756FBDB
:10E110002084BDE8F08100202084BDE8F08100006B
:10E120008C00002070B584B0064600253570294863
:10E1300081680391806800EBC0008000FCF7AAFBB7
:10E140000446200043D001AA0399FFF7D7FD0390AE
:10E1500021490198A1FB001040090190002833D00B
:10E160000295039800282FD90298019A00EBC0006D
:10E1700004EB80008169B1FBF2F541683046FCF7A1
:10E1800075FB06465DB102982B4600EBC00004EB20
:10E19000800012A182693046F6F774FA09E002980D
:10E1A00011A100EBC00004EB800082693046F6F755
:10E1B00069FA3046F2F798F806440298401C02903B
:10E1C000039902988842CFD32046FFF75DFE04B042
:10E1D00070BD00008C0000201F85EB5109257509DA
:10E1E00009257525250D0A0009257509093C3125E4
:10E1F000250D0A00F6F79AF9F5F702FA0148F2F749
:10E20000DFFEF7E7E801002070B584B00646002481
:10E210003470294881680391806800EBC000800059
:10E22000FCF738FB0546280044D000220399FFF78D
:10E2300065FD03900294039800282DD9029901EB03
:10E24000C10005EB8002117B01292BD002292BD0C4
:10E2500003292BD004292BD0002430465168FCF729
:10E2600005FB0646029901EBC10005EB80010A8C13
:10E270008868009201900B69224610A13046F6F79B
:10E2800001FA3046F2F730F806440298401C02903A
:10E29000039902988842D1D304B02846BDE8704063
:10E2A000FFF7F2BD5224D8E74224D6E75324D4E73F
:10E2B0004424D2E704B070BD8C0000200925630916
:10E2C00025750925750925750D0A000001490120EC
:10E2D000C86170478C00002010B50C4600280BD098
:10E2E000094A126802F11801FFF770FD2046BDE8E7
:10E2F00010400121FCF702B8502080F31188BFF3D1
:10E300004F8FBFF36F8FFEE78C00002070B504467F
:10E3100000283BD01E4DE06A2968C96A884235D280
:10E32000A06910F0004F04D12868C06AC0F107004E
:10E33000A061E06A174E00EB8000616906EB800087
:10E34000814220D1201DFFF7A7FC012158B9E06AC6
:10E3500000EB800256F822202AB92A6901FA00F05F
:10E3600022EA000028612868C06AE0622A698140C8
:10E370001143296100EB800006EB8000211DBDE800
:10E380007040FFF73EBD2868C06AE06270BD0000C3
:10E390008C000020B8370020002805D006490A6A02
:10E3A0000260C96841607047502080F31188BFF354
:10E3B0004F8FBFF36F8FFEE78C00002010B582B047
:10E3C0001648002401902346802215A10094164887
:10E3D00000F0B2FC01280AD0B0F1FF3F1CD1502060
:10E3E00080F31188BFF34F8FBFF36F8FFEE750208C
:10E3F00080F31188BFF34F8FBFF36F8F0B484FF03F
:10E40000FF31816201214161C4600948046002B0AA
:10E41000BDE8104000F0B2B802B010BDB800002056
:10E4200049444C450000000051A500088C00002024
:10E430003C0000200248016B491C0163704700004A
:10E440008C0000201B4B186B002802D00120D861E3
:10E4500070470020D8611848006898635A6B904252
:10E4600005D91968821AD1F854C062444A655863C4
:10E470001869B0FA80F0C0F11F00104900EB80006D
:10E4800051F8202072B101EB800041684968416079
:10E4900000F10802914201D1496841604068C068BA
:10E4A00018607047502080F31188BFF34F8FBFF37F
:10E4B0006F8FFEE78C0000203C000020B837002062
:10E4C000FEB00EA0F6F7CEF81948F6F7CBF801A883
:10E4D000FFF79AFE01A917A0F6F7C4F817A0F6F700
:10E4E000C1F801A8FFF71EFE01A912A0F6F7BAF8BD
:10E4F0004FF4FA50FFF758FDE3E700003D3D3D3D86
:10E500003D3D3D3D3D3D3D3D3D3D3D3D3D3D3D3D3B
:10E510003D3D3D3D3D3D3D3D3D3D3D3D3D3D3D3D2B
:10E520003D3D3D3D3D3D3D3D3D3D3D3D3D0D0A00BB
:10E53000A0F4000825730D0A000000000D0AC8CEE3
:10E54000CEF1C3FB202020202020202020202020CE
:10E5500020202020202020D4CBD0D0BCC6CAFD2033
:10E5600020202020202020202020202020202020AB
:10E5700020CAB9D3C3C2CA0D0A00000000B583B0D7
:10E5800034480168344A914207D1502080F3118801
:10E59000BFF34F8FBFF36F8FFEE701682F488142B3
:10E5A00007D1502080F31188BFF34F8FBFF36F8FD7
:10E5B000FEE72B4908780290FF2008700878019048
:10E5C0009DF804009DF8042000F0F000904207D070
:10E5D000502080F31188BFF34F8FBFF36F8FFEE79A
:10E5E0009DF804001F4A00F0500010700720906052
:10E5F0009DF8040010F0800F0BD09068401E9060D2
:10E600009DF80400400001909DF8040010F0800F78
:10E61000F3D1107A000200F4E06090600298087074
:10E620001148016841F470010160016841F07041D6
:10E630000160FFF757FC00205060F1F7CFFD0B4859
:10E64000016841F040410160F1F7B8FD03B00020DE
:10E6500000BD000000ED00E071C20F4170C20F412B
:10E6600000E400E0E800002020ED00E034EF00E0EE
:10E6700010B5502080F31188BFF34F8FBFF36F8F19
:10E6800000F0AAFB18B104494FF080500860002048
:10E6900080F3118810BD000004ED00E010B50C46B9
:10E6A000002809D084420FD9502080F31188BFF38D
:10E6B0004F8FBFF36F8FFEE7502080F31188BFF3B9
:10E6C0004F8FBFF36F8FFEE70222002100F010F89A
:10E6D000002800D0846310BD10B50246002101203F
:10E6E00000F006F804462046FBF746FF204610BD22
:10E6F000F8B505460E461746002D11D0C6B105FBEC
:10E7000006F05030FCF7C6F804463CB104F1500264
:10E710003B46314628460094FBF73AFF2046F8BDB9
:10E72000502080F31188BFF34F8FBFF36F8FFEE748
:10E730000020E6E72DE9FF4F83B004468A469B465A
:10E740000025002C03D0BAF1000F08D011E05020B2
:10E7500080F31188BFF34F8FBFF36F8FFEE7206CFC
:10E7600038B1502080F31188BFF34F8FBFF36F8F04
:10E77000FEE700F015FB48B9059838B1502080F34A
:10E780001188BFF34F8FBFF36F8FFEE74FF0000983
:10E790004FF08057DFF82C81FFF740FBA66B96B354
:10E7A000E56851462046FBF757FEBBF1000F13D03A
:10E7B000E560606A50B104F1240000F0C3FB28B1A9
:10E7C000C8F80070BFF34F8FBFF36F8FFFF746FBA2
:10E7D00007B00120BDE8F08F701EA063206810B95B
:10E7E000FCF7CAF8606020690028EFD004F110003F
:10E7F00000F0A8FB0028E9D0C8F80070BFF34F8FE5
:10E80000BFF36F8FE2E7FFE7059808B135B109E084
:10E81000FFF724FB07B00020BDE8F08F6846FFF744
:10E82000BBFD0125FFF71AFBFFF704FEFFF7F6FA21
:10E8300094F94400B0F1FF3F01D184F8449094F979
:10E840004500B0F1FF3F01D184F84590FFF706FB8A
:10E8500005A9684600F034FA68B12046FBF7D2FFFC
:10E8600000F0ACFB2046FBF74BFF002894D007B02C
:10E870000020BDE8F08F2046FBF742FFE0B12068A2
:10E8800030B9FFF7CBFA6068FFF740FDFFF7E6FA13
:10E8900004F124000599FFF71FFD2046FBF7B2FFA6
:10E8A00000F08CFB00287FF477AFC8F80070BFF34E
:10E8B0004F8FBFF36F8F6FE72046FBF7A3FF00F08A
:10E8C0007DFB69E704ED00E070B504460D46002CC1
:10E8D00025D0FFF7A3FA226CE16B206801FB020050
:10E8E00060600020A0632068A060E16B226C20685B
:10E8F000491E01FB0200E0604FF0FF3084F8440045
:10E9000084F845009DB104F11000FFF751FA04F1BD
:10E910002400FFF74DFAFFF7A1FA012070BD502047
:10E9200080F31188BFF34F8FBFF36F8FFEE720692D
:10E930000028F0D004F1100000F004FB0028EAD019
:10E9400004494FF080500860BFF34F8FBFF36F8FC3
:10E95000E1E7000004ED00E02DE9FF4782B0044646
:10E960008A461F460025002C03D0BAF1000F08D0BC
:10E9700011E0502080F31188BFF34F8FBFF36F8FEA
:10E98000FEE7206C38B1502080F31188BFF34F8F21
:10E99000BFF36F8FFEE7022F0AD1E06B012807D08B
:10E9A000502080F31188BFF34F8FBFF36F8FFEE7C6
:10E9B00000F0F6F948B9049838B1502080F3118876
:10E9C000BFF34F8FBFF36F8FFEE700264FF08058E5
:10E9D000DFF8F090FFF722FAA06BE16B884205D3D5
:10E9E000022F03D0049808B335B329E03A465146C4
:10E9F0002046FBF743FD616A59B104F1240000F0A1
:10EA0000A1FA68B1C9F80080BFF34F8FBFF36F8FD1
:10EA100006E028B1C9F80080BFF34F8FBFF36F8FB6
:10EA2000FFF71CFA06B00120BDE8F087FFF716FAE1
:10EA300006B00020BDE8F0876846FFF7ADFC012571
:10EA4000FFF70CFAFFF7F6FCFFF7E8F994F944003A
:10EA5000B0F1FF3F01D184F8446094F94500B0F172
:10EA6000FF3F01D184F84560FFF7F8F904A9684633
:10EA700000F026F940B12046FBF7C4FE00F09EFAF4
:10EA800006B00020BDE8F0872046FBF746FE90B1B7
:10EA900004F110000499FFF71FFC2046FBF7B2FEBB
:10EAA00000F08CFA002895D1C9F80080BFF34F8F91
:10EAB000BFF36F8F8EE72046FBF7A4FE00F07EFACF
:10EAC00088E7000004ED00E02DE9F04704468946A0
:10EAD00017461E46002C03D0B9F1000F08D011E0F4
:10EAE000502080F31188BFF34F8FBFF36F8FFEE785
:10EAF000206C38B1502080F31188BFF34F8FBFF3E3
:10EB00006F8FFEE7022E0AD1E06B012807D050205C
:10EB100080F31188BFF34F8FBFF36F8FFEE7FFF7CE
:10EB2000F1F95020EFF3118880F31188BFF34F8F74
:10EB3000BFF36F8FA06BE16B884206D3022E04D027
:10EB4000002088F31188BDE8F08794F945503246DB
:10EB500049462046FBF792FCB5F1FF3F04D0681C04
:10EB600084F845000120ECE7606A0028FAD004F13F
:10EB7000240000F0E7F90028F4D0002FF2D00120A3
:10EB80003860EFE770B504460D46002C09D0206CC4
:10EB900078B1502080F31188BFF34F8FBFF36F8F90
:10EBA000FEE7502080F31188BFF34F8FBFF36F8FC4
:10EBB000FEE7206848B9606838B1502080F31188BA
:10EBC000BFF34F8FBFF36F8FFEE7FFF79BF9502026
:10EBD000EFF3118680F31188BFF34F8FBFF36F8F70
:10EBE000A06BE16B814219D994F94520401CA063C8
:10EBF000B2F1FF3F04D0501C84F8450001200EE024
:10EC0000606A0028FAD004F1240000F09BF9002883
:10EC1000F4D0002DF2D001202860EFE7002086F329
:10EC2000118870BD2DE9F047044689461746002C2F
:10EC300003D0B9F1000F08D011E0502080F3118803
:10EC4000BFF34F8FBFF36F8FFEE7206C38B15020BA
:10EC500080F31188BFF34F8FBFF36F8FFEE7FFF78D
:10EC600051F95020EFF3118880F31188BFF34F8FD3
:10EC7000BFF36F8FA56BEDB194F944604946204610
:10EC8000FBF7EAFB681EA063B6F1FF3F04D0701CDF
:10EC900084F8440001200EE020690028FAD004F135
:10ECA000100000F04FF90028F4D0002FF2D001201E
:10ECB0003860EFE7002088F31188BDE8F087000096
:10ECC00070B504460D46002C11D0C5B1FFF7A6F86B
:10ECD000184AD0682968B1F1FF3F18D02368126A3A
:10ECE000934216D06268824213D801241DE050205E
:10ECF00080F31188BFF34F8FBFF36F8FFEE7502073
:10ED000080F31188BFF34F8FBFF36F8FFEE70024AE
:10ED10000BE06268801A884206D2081A28602046F2
:10ED2000FFF73AFB002400E00124FFF797F82046A4
:10ED300070BD00008C0000202DE9F04F85B08146A9
:10ED40000F9F0E9E8A4690469B464FEA8800FBF72F
:10ED5000A1FD054628000AD06020FBF79BFD044674
:10ED60000CB1256304E02846FFF78EF800E000248C
:10ED70008CB1002003905B464246514601970096B5
:10ED800002944846FBF715FC2046FBF7F3FA05B062
:10ED90000120BDE8F08F05B04FF0FF30BDE8F08FE7
:10EDA00005484169002903D0006B18B10020704765
:10EDB00001207047022070478C0000200148C06885
:10EDC000704700008C00002010B5FFF79BF8014849
:10EDD000C06810BD8C0000202DE9F0470026304FA0
:10EDE000386B002808D0B869401CB861F86900B1D8
:10EDF00001263046BDE8F087F868451CFD609DB9E6
:10EE0000F86B006838B1502080F31188BFF34F8F42
:10EE1000BFF36F8FFEE7F86B396CF9633864386ABB
:10EE2000401C3862FBF7B8FCB86ADFF8788085428E
:10EE30000FD34FF00109F86B006838B1F86BC06868
:10EE4000C468606885420ED2B86202E04FF0FF30BD
:10EE5000B8623868C06A00EB800058F820000128CA
:10EE6000C4D90126C2E7201DFEF716FFA06A18B11B
:10EE700004F11800FEF710FFE16A3A6909FA01F09F
:10EE80001043386101EB810008EB8000211DFEF783
:10EE9000B8FFE06A3968C96A8842CCD30126CAE75C
:10EEA0008C000020B837002070B5044600210028EF
:10EEB00041D0224D2868844207D0502080F3118829
:10EEC000BFF34F8FBFF36F8FFEE7206D38B1401E49
:10EED0002065E36CE26A9A422DD040B12BE05020CD
:10EEE00080F31188BFF34F8FBFF36F8FFEE7201DB4
:10EEF000FEF7D2FE1249012258B9E06A00EB800306
:10EF000051F823302BB92B6902FA00F023EA0000F4
:10EF10002861E06CE062C0F10700A061E06A2B6943
:10EF200082401A432A6100EB800001EB8000211D22
:10EF3000FEF767FF0121084670BD00008C0000202D
:10EF4000B837002070B5C068C468002C14D004F134
:10EF50001800FEF7A1FE164D286B0126A0B104F1A2
:10EF600018011448FEF74DFFE06A2968C96A884213
:10EF70001CD90120EE6170BD502080F31188BFF3D1
:10EF80004F8FBFF36F8FFEE7201DFEF785FEE06A0F
:10EF90002A6906FA00F111432961074900EB800054
:10EFA00001EB8000211DFEF72CFFDDE7002070BD86
:10EFB0008C0000206C380020B83700202DE9F04785
:10EFC0000024A0462D4D286B002807D0FEF726FF11
:10EFD000286B401E2863286B40B149E0502080F325
:10EFE0001188BFF34F8FBFF36F8FFEE7A86800282B
:10EFF0003ED0234F0126386800B3A7F1B409F86862
:10F00000C46804F11800FEF747FE201DFEF744FE19
:10F01000E06A2A6906FA00F11143296100EB8000D9
:10F0200009EB8000211DFEF7ECFEE06A2968C96A41
:10F03000884200D3EE6138680028E0D10CB1FBF7BC
:10F04000ABFBAC6944B1FFF7C7FE00B1EE61641ED3
:10F05000002CF8D10020A861E86948B14FF0010800
:10F0600008494FF080500860BFF34F8FBFF36F8F98
:10F07000FEF7F4FE4046BDE8F08700008C0000205B
:10F080006C38002004ED00E000F50008493C000861
:10F09000000000000000000000010000F8F400087B
:10F0A000290B0008FEFF0000000000000001000026
:10F0B000F0F40008F5E10008FEFF00000000000089
:10F0C0008000000008F50008D16B00080300000074
:10F0D00000000000800000000000000000000000B0
:10F0E00001020304060708090000000001020304EE
:10F0F00000C1814001C0804101C0804100C1814008
:10F1000001C0804100C1814000C1814001C08041F7
:10F1100001C0804100C1814000C1814001C08041E7
:10F1200000C1814001C0804101C0804100C18140D7
:10F1300001C0804100C1814000C1814001C08041C7
:10F1400000C1814001C0804101C0804100C18140B7
:10F1500000C1814001C0804101C0804100C18140A7
:10F1600001C0804100C1814000C1814001C0804197
:10F1700001C0804100C1814000C1814001C0804187
:10F1800000C1814001C0804101C0804100C1814077
:10F1900000C1814001C0804101C0804100C1814067
:10F1A00001C0804100C1814000C1814001C0804157
:10F1B00000C1814001C0804101C0804100C1814047
:10F1C00001C0804100C1814000C1814001C0804137
:10F1D00001C0804100C1814000C1814001C0804127
:10F1E00000C1814001C0804101C0804100C1814017
:10F1F00000C0C101C30302C2C60607C705C5C404D7
:10F20000CC0C0DCD0FCFCE0E0ACACB0BC90908C846
:10F21000D81819D91BDBDA1A1EDEDF1FDD1D1CDC36
:10F2200014D4D515D71716D6D21213D311D1D010A6
:10F23000F03031F133F3F23236F6F737F53534F496
:10F240003CFCFD3DFF3F3EFEFA3A3BFB39F9F83806
:10F2500028E8E929EB2B2AEAEE2E2FEF2DEDEC2CF6
:10F26000E42425E527E7E62622E2E323E12120E066
:10F27000A06061A163A3A26266A6A767A56564A456
:10F280006CACAD6DAF6F6EAEAA6A6BAB69A9A868C6
:10F2900078B8B979BB7B7ABABE7E7FBF7DBDBC7CB6
:10F2A000B47475B577B7B67672B2B373B17170B026
:10F2B0005090915193535292965657975595945416
:10F2C0009C5C5D9D5F9F9E5E5A9A9B5B9959589886
:10F2D000884849894B8B8A4A4E8E8F4F8D4D4C8C76
:10F2E00044848545874746868242438341818040E6
:10F2F00000000000FFFFFFFF000000000C00000006
:10F30000690000000B0000007100000073000000A5
:10F31000160000000B0000006200000072000000F8
:10F320006A0000006B000000FFFFFFFF67000000A5
:10F33000680000006B00000005000000FFFFFFFFF9
:10F34000FFFF0000000000000000000000000000BF
:10F35000040000002000060057A600204401002001
:10F3600094000A001AA70020480100201C00050094
:10F37000E5AC00204C0100201000080074AD002016
:10F380005001002020000500F7AD002054010020AE
:10F3900018000F009AAE0020580100201000020053
:10F3A00005B000205C0100202C00040028B00020E3
:10F3B0006001002010000800DBB000206401002084
:10F3C000100008005EB100206801002010000A0053
:10F3D000E1B100206C01002010000A0084B200207E
:10F3E000700100200402080027B3002074010020EF
:10F3F00054F3000860F300086CF3000878F3000889
:10F4000084F3000890F300089CF30008A8F30008B8
:10F41000B4F30008C0F30008CCF30008D8F30008E8
:10F42000E4F3000803060C183060780080F500084B
:10F43000A8F50008C8F5000888F5000874F500086C
:10F440005CF5000868F50008BCF5000894F50008B4
:10F450009CF50008B0F50008010203040506070743
:10F46000070707070700000098010020940100200B
:10F470009C010020A0010020FA000000C1D000087B
:10F48000E8030000357A0008E8030000716800080E
:10F4900060EA00004D520008F401000089550008A0
:10F4A000C8CECEF1C3FB2020202020202020202009
:10F4B000202020202020202020C8CECEF1D7B4CC80
:10F4C000AC20202020202020D3C5CFC8BCB62020CF
:10F4D0002020202020CAA3D3E0D5BB20202020203C
:10F4E0002020C8CECEF1D0F2BAC50D0A000000002F
:10F4F0004C454432000000004448435000000000E6
:10F50000537461727400000045746849660000001D
:10F51000A1B7CAFDBEDDB6CEB5C4C4DAC8DD3A4473
:10F520006174615B335D3D203078255820A3AC4485
:10F530006174615B345D3D3078255820A3ACB1E047
:10F54000C2EBC6F7D6B53D3078255820A3ACB1E064
:10F55000C2EBC6F7D6B53D2564200A0046494E5F8A
:10F56000574149545F31000046494E5F5741495465
:10F570005F32000045535441424C495348454400D2
:10F58000434C4F534544000053594E5F5243564439
:10F5900000000000434C4F53494E47004C41535428
:10F5A0005F41434B000000004C495354454E00005E
:10F5B00054494D455F57414954000000434C4F5357
:10F5C000455F57414954000053594E5F53454E54CF
:10F5D00000000000F4F5000800000020E801000031
:10F5E0008808000834F60008E801002078D10000FF
:10F5F000BC4600080115031924F40311555042FFBD
:10F60000A3802523100312023201140204085208B9
:10F610001403040752638A08141B032828016A1A7A
:10F62000AA0151059001031C0622C00B486E194C1B
:04F6300001100000C5
:040000050800018965
:00000001FF
