Component: ARM Compiler 5.06 update 6 (build 750) Tool: armlink [4d35ed]

==============================================================================

Section Cross References

    startup_stm32f407xx.o(RESET) refers to startup_stm32f407xx.o(STACK) for __initial_sp
    startup_stm32f407xx.o(RESET) refers to startup_stm32f407xx.o(.text) for Reset_Handler
    startup_stm32f407xx.o(RESET) refers to stm32f4xx_it.o(i.NMI_Handler) for NMI_Handler
    startup_stm32f407xx.o(RESET) refers to stm32f4xx_it.o(i.HardFault_Handler) for HardFault_Handler
    startup_stm32f407xx.o(RESET) refers to stm32f4xx_it.o(i.MemManage_Handler) for MemManage_Handler
    startup_stm32f407xx.o(RESET) refers to stm32f4xx_it.o(i.BusFault_Handler) for BusFault_Handler
    startup_stm32f407xx.o(RESET) refers to stm32f4xx_it.o(i.UsageFault_Handler) for UsageFault_Handler
    startup_stm32f407xx.o(RESET) refers to stm32f4xx_it.o(i.SVC_Handler) for SVC_Handler
    startup_stm32f407xx.o(RESET) refers to stm32f4xx_it.o(i.DebugMon_Handler) for DebugMon_Handler
    startup_stm32f407xx.o(RESET) refers to stm32f4xx_it.o(i.PendSV_Handler) for PendSV_Handler
    startup_stm32f407xx.o(RESET) refers to stm32f4xx_it.o(i.SysTick_Handler) for SysTick_Handler
    startup_stm32f407xx.o(RESET) refers to stm32f4xx_it.o(i.RCC_IRQHandler) for RCC_IRQHandler
    startup_stm32f407xx.o(RESET) refers to stm32f4xx_it.o(i.TIM4_IRQHandler) for TIM4_IRQHandler
    startup_stm32f407xx.o(RESET) refers to stm32f4xx_it.o(i.USART3_IRQHandler) for USART3_IRQHandler
    startup_stm32f407xx.o(RESET) refers to stm32f4xx_it.o(i.TIM5_IRQHandler) for TIM5_IRQHandler
    startup_stm32f407xx.o(RESET) refers to stm32f4xx_it.o(i.UART5_IRQHandler) for UART5_IRQHandler
    startup_stm32f407xx.o(RESET) refers to stm32f4xx_it.o(i.TIM6_DAC_IRQHandler) for TIM6_DAC_IRQHandler
    startup_stm32f407xx.o(RESET) refers to app_ethernet.o(i.ETH_IRQHandler) for ETH_IRQHandler
==============================================================================

Removing Unused input sections from the image.

    Removing startup_stm32f407xx.o(HEAP), (1024 bytes).
    Removing main.o(.rev16_text), (4 bytes).
    Removing main.o(.revsh_text), (4 bytes).
    Removing main.o(.rrx_text), (6 bytes).
    Removing main.o(i.HAL_TIM_Base_MspDeInit), (68 bytes).
    Removing main.o(i.WaitTimeOut), (60 bytes).
    Removing main.o(.data), (4 bytes).
    Removing stm32f4xx_hal_msp.o(.rev16_text), (4 bytes).
    Removing stm32f4xx_hal_msp.o(.revsh_text), (4 bytes).
    Removing stm32f4xx_hal_msp.o(.rrx_text), (6 bytes).
    Removing stm32f4xx_it.o(.rev16_text), (4 bytes).
    Removing stm32f4xx_it.o(.revsh_text), (4 bytes).
    Removing stm32f4xx_it.o(.rrx_text), (6 bytes).
    Removing app_ethernet.o(.rev16_text), (4 bytes).
    Removing app_ethernet.o(.revsh_text), (4 bytes).
    Removing app_ethernet.o(.rrx_text), (6 bytes).
    Removing app_ethernet.o(i.ETH_PHY_WriteReg), (28 bytes).
    Removing app_ethernet.o(i.LAN8720A_StartAutoNego), (30 bytes).
==============================================================================

Image Symbol Table

    Local Symbols

    Symbol Name                              Value     Ov Type        Size  Object(Section)

    ../Drivers/STM32F4xx_HAL_Driver/Src/stm32f4xx_hal.c 0x00000000   Number         0  stm32f4xx_hal.o ABSOLUTE
    ../Drivers/STM32F4xx_HAL_Driver/Src/stm32f4xx_hal_cortex.c 0x00000000   Number         0  stm32f4xx_hal_cortex.o ABSOLUTE
    ../Drivers/STM32F4xx_HAL_Driver/Src/stm32f4xx_hal_dma.c 0x00000000   Number         0  stm32f4xx_hal_dma.o ABSOLUTE
    ../Drivers/STM32F4xx_HAL_Driver/Src/stm32f4xx_hal_dma_ex.c 0x00000000   Number         0  stm32f4xx_hal_dma_ex.o ABSOLUTE
    ../Drivers/STM32F4xx_HAL_Driver/Src/stm32f4xx_hal_flash.c 0x00000000   Number         0  stm32f4xx_hal_flash.o ABSOLUTE
    ../Drivers/STM32F4xx_HAL_Driver/Src/stm32f4xx_hal_flash_ex.c 0x00000000   Number         0  stm32f4xx_hal_flash_ex.o ABSOLUTE
    ../Drivers/STM32F4xx_HAL_Driver/Src/stm32f4xx_hal_gpio.c 0x00000000   Number         0  stm32f4xx_hal_gpio.o ABSOLUTE
    ../Drivers/STM32F4xx_HAL_Driver/Src/stm32f4xx_hal_pwr.c 0x00000000   Number         0  stm32f4xx_hal_pwr.o ABSOLUTE
    ../Drivers/STM32F4xx_HAL_Driver/Src/stm32f4xx_hal_pwr_ex.c 0x00000000   Number         0  stm32f4xx_hal_pwr_ex.o ABSOLUTE
    ../Drivers/STM32F4xx_HAL_Driver/Src/stm32f4xx_hal_rcc.c 0x00000000   Number         0  stm32f4xx_hal_rcc.o ABSOLUTE
    ../Drivers/STM32F4xx_HAL_Driver/Src/stm32f4xx_hal_rcc_ex.c 0x00000000   Number         0  stm32f4xx_hal_rcc_ex.o ABSOLUTE
    ../Drivers/STM32F4xx_HAL_Driver/Src/stm32f4xx_hal_tim.c 0x00000000   Number         0  stm32f4xx_hal_tim.o ABSOLUTE
    ../Drivers/STM32F4xx_HAL_Driver/Src/stm32f4xx_hal_tim_ex.c 0x00000000   Number         0  stm32f4xx_hal_tim_ex.o ABSOLUTE
    ../Drivers/STM32F4xx_HAL_Driver/Src/stm32f4xx_hal_uart.c 0x00000000   Number         0  stm32f4xx_hal_uart.o ABSOLUTE
    ../Src/main.c                            0x00000000   Number         0  main.o ABSOLUTE
    ../Src/stm32f4xx_hal_msp.c               0x00000000   Number         0  stm32f4xx_hal_msp.o ABSOLUTE
    ../Src/stm32f4xx_it.c                    0x00000000   Number         0  stm32f4xx_it.o ABSOLUTE
    ../Src/system_stm32f4xx.c                0x00000000   Number         0  system_stm32f4xx.o ABSOLUTE
    ../clib/../cmprslib/zerorunl2.c          0x00000000   Number         0  __dczerorl2.o ABSOLUTE
    ../clib/microlib/division.c              0x00000000   Number         0  uldiv.o ABSOLUTE
    ../clib/microlib/division.c              0x00000000   Number         0  uidiv.o ABSOLUTE
    ../clib/microlib/init/entry.s            0x00000000   Number         0  entry2.o ABSOLUTE
    ../clib/microlib/init/entry.s            0x00000000   Number         0  entry7b.o ABSOLUTE
    ../clib/microlib/init/entry.s            0x00000000   Number         0  entry9b.o ABSOLUTE
    ../clib/microlib/init/entry.s            0x00000000   Number         0  entry9a.o ABSOLUTE
    ../clib/microlib/init/entry.s            0x00000000   Number         0  entry7a.o ABSOLUTE
    ../clib/microlib/init/entry.s            0x00000000   Number         0  entry8a.o ABSOLUTE
    ../clib/microlib/init/entry.s            0x00000000   Number         0  entry5.o ABSOLUTE
    ../clib/microlib/init/entry.s            0x00000000   Number         0  entry11b.o ABSOLUTE
    ../clib/microlib/init/entry.s            0x00000000   Number         0  entry8b.o ABSOLUTE
    ../clib/microlib/init/entry.s            0x00000000   Number         0  entry11a.o ABSOLUTE
    ../clib/microlib/init/entry.s            0x00000000   Number         0  entry10b.o ABSOLUTE
    ../clib/microlib/init/entry.s            0x00000000   Number         0  entry.o ABSOLUTE
    ../clib/microlib/init/entry.s            0x00000000   Number         0  entry10a.o ABSOLUTE
    ../clib/microlib/longlong.c              0x00000000   Number         0  llshl.o ABSOLUTE
    ../clib/microlib/longlong.c              0x00000000   Number         0  llushr.o ABSOLUTE
    ../clib/microlib/longlong.c              0x00000000   Number         0  llsshr.o ABSOLUTE
    ../clib/microlib/printf/printf.c         0x00000000   Number         0  printf5.o ABSOLUTE
    ../clib/microlib/printf/printf.c         0x00000000   Number         0  printf4.o ABSOLUTE
    ../clib/microlib/printf/printf.c         0x00000000   Number         0  printf0.o ABSOLUTE
    ../clib/microlib/printf/printf.c         0x00000000   Number         0  printfb.o ABSOLUTE
    ../clib/microlib/printf/printf.c         0x00000000   Number         0  printfa.o ABSOLUTE
    ../clib/microlib/printf/printf.c         0x00000000   Number         0  printf8.o ABSOLUTE
    ../clib/microlib/printf/printf.c         0x00000000   Number         0  printf7.o ABSOLUTE
    ../clib/microlib/printf/printf.c         0x00000000   Number         0  printf3.o ABSOLUTE
    ../clib/microlib/printf/printf.c         0x00000000   Number         0  printf2.o ABSOLUTE
    ../clib/microlib/printf/printf.c         0x00000000   Number         0  printf1.o ABSOLUTE
    ../clib/microlib/printf/printf.c         0x00000000   Number         0  printf6.o ABSOLUTE
    ../clib/microlib/printf/stubs.s          0x00000000   Number         0  stubs.o ABSOLUTE
    ../clib/microlib/stdio/streams.c         0x00000000   Number         0  stdout.o ABSOLUTE
    ../clib/microlib/stdlib/rand.c           0x00000000   Number         0  rand.o ABSOLUTE
    ../clib/microlib/string/memcmp.c         0x00000000   Number         0  memcmp.o ABSOLUTE
    ../clib/microlib/string/memcpy.c         0x00000000   Number         0  memcpya.o ABSOLUTE
    ../clib/microlib/string/memcpy.c         0x00000000   Number         0  memcpyb.o ABSOLUTE
    ../clib/microlib/string/memset.c         0x00000000   Number         0  memseta.o ABSOLUTE
    ../clib/microlib/string/strlen.c         0x00000000   Number         0  strlen.o ABSOLUTE
    ../clib/microlib/string/strncmp.c        0x00000000   Number         0  strncmp.o ABSOLUTE
    ../clib/microlib/stubs.s                 0x00000000   Number         0  iusefp.o ABSOLUTE
    ../fplib/microlib/f2d.c                  0x00000000   Number         0  f2d.o ABSOLUTE
    ../fplib/microlib/fpadd.c                0x00000000   Number         0  dadd.o ABSOLUTE
    ../fplib/microlib/fpdiv.c                0x00000000   Number         0  ddiv.o ABSOLUTE
    ../fplib/microlib/fpepilogue.c           0x00000000   Number         0  depilogue.o ABSOLUTE
    ../fplib/microlib/fpfix.c                0x00000000   Number         0  dfixul.o ABSOLUTE
    ../fplib/microlib/fpmul.c                0x00000000   Number         0  dmul.o ABSOLUTE
    ..\Drivers\STM32F4xx_HAL_Driver\Src\stm32f4xx_hal.c 0x00000000   Number         0  stm32f4xx_hal.o ABSOLUTE
    ..\Drivers\STM32F4xx_HAL_Driver\Src\stm32f4xx_hal_adc.c 0x00000000   Number         0  stm32f4xx_hal_adc.o ABSOLUTE
    ..\Drivers\STM32F4xx_HAL_Driver\Src\stm32f4xx_hal_adc_ex.c 0x00000000   Number         0  stm32f4xx_hal_adc_ex.o ABSOLUTE
    ..\Drivers\STM32F4xx_HAL_Driver\Src\stm32f4xx_hal_can.c 0x00000000   Number         0  stm32f4xx_hal_can.o ABSOLUTE
    ..\Drivers\STM32F4xx_HAL_Driver\Src\stm32f4xx_hal_cortex.c 0x00000000   Number         0  stm32f4xx_hal_cortex.o ABSOLUTE
    ..\Drivers\STM32F4xx_HAL_Driver\Src\stm32f4xx_hal_crc.c 0x00000000   Number         0  stm32f4xx_hal_crc.o ABSOLUTE
    ..\Drivers\STM32F4xx_HAL_Driver\Src\stm32f4xx_hal_dac.c 0x00000000   Number         0  stm32f4xx_hal_dac.o ABSOLUTE
    ..\Drivers\STM32F4xx_HAL_Driver\Src\stm32f4xx_hal_dac_ex.c 0x00000000   Number         0  stm32f4xx_hal_dac_ex.o ABSOLUTE
    ..\Drivers\STM32F4xx_HAL_Driver\Src\stm32f4xx_hal_dma.c 0x00000000   Number         0  stm32f4xx_hal_dma.o ABSOLUTE
    ..\Drivers\STM32F4xx_HAL_Driver\Src\stm32f4xx_hal_dma_ex.c 0x00000000   Number         0  stm32f4xx_hal_dma_ex.o ABSOLUTE
    ..\Drivers\STM32F4xx_HAL_Driver\Src\stm32f4xx_hal_eth.c 0x00000000   Number         0  stm32f4xx_hal_eth.o ABSOLUTE
    ..\Drivers\STM32F4xx_HAL_Driver\Src\stm32f4xx_hal_flash.c 0x00000000   Number         0  stm32f4xx_hal_flash.o ABSOLUTE
    ..\Drivers\STM32F4xx_HAL_Driver\Src\stm32f4xx_hal_flash_ex.c 0x00000000   Number         0  stm32f4xx_hal_flash_ex.o ABSOLUTE
    ..\Drivers\STM32F4xx_HAL_Driver\Src\stm32f4xx_hal_gpio.c 0x00000000   Number         0  stm32f4xx_hal_gpio.o ABSOLUTE
    ..\Drivers\STM32F4xx_HAL_Driver\Src\stm32f4xx_hal_hcd.c 0x00000000   Number         0  stm32f4xx_hal_hcd.o ABSOLUTE
    ..\Drivers\STM32F4xx_HAL_Driver\Src\stm32f4xx_hal_i2c.c 0x00000000   Number         0  stm32f4xx_hal_i2c.o ABSOLUTE
    ..\Drivers\STM32F4xx_HAL_Driver\Src\stm32f4xx_hal_i2c_ex.c 0x00000000   Number         0  stm32f4xx_hal_i2c_ex.o ABSOLUTE
    ..\Drivers\STM32F4xx_HAL_Driver\Src\stm32f4xx_hal_iwdg.c 0x00000000   Number         0  stm32f4xx_hal_iwdg.o ABSOLUTE
    ..\Drivers\STM32F4xx_HAL_Driver\Src\stm32f4xx_hal_pcd.c 0x00000000   Number         0  stm32f4xx_hal_pcd.o ABSOLUTE
    ..\Drivers\STM32F4xx_HAL_Driver\Src\stm32f4xx_hal_pcd_ex.c 0x00000000   Number         0  stm32f4xx_hal_pcd_ex.o ABSOLUTE
    ..\Drivers\STM32F4xx_HAL_Driver\Src\stm32f4xx_hal_pwr.c 0x00000000   Number         0  stm32f4xx_hal_pwr.o ABSOLUTE
    ..\Drivers\STM32F4xx_HAL_Driver\Src\stm32f4xx_hal_pwr_ex.c 0x00000000   Number         0  stm32f4xx_hal_pwr_ex.o ABSOLUTE
    ..\Drivers\STM32F4xx_HAL_Driver\Src\stm32f4xx_hal_rcc.c 0x00000000   Number         0  stm32f4xx_hal_rcc.o ABSOLUTE
    ..\Drivers\STM32F4xx_HAL_Driver\Src\stm32f4xx_hal_rcc_ex.c 0x00000000   Number         0  stm32f4xx_hal_rcc_ex.o ABSOLUTE
    ..\Drivers\STM32F4xx_HAL_Driver\Src\stm32f4xx_hal_rng.c 0x00000000   Number         0  stm32f4xx_hal_rng.o ABSOLUTE
    ..\Drivers\STM32F4xx_HAL_Driver\Src\stm32f4xx_hal_rtc.c 0x00000000   Number         0  stm32f4xx_hal_rtc.o ABSOLUTE
    ..\Drivers\STM32F4xx_HAL_Driver\Src\stm32f4xx_hal_rtc_ex.c 0x00000000   Number         0  stm32f4xx_hal_rtc_ex.o ABSOLUTE
    ..\Drivers\STM32F4xx_HAL_Driver\Src\stm32f4xx_hal_spi.c 0x00000000   Number         0  stm32f4xx_hal_spi.o ABSOLUTE
    ..\Drivers\STM32F4xx_HAL_Driver\Src\stm32f4xx_hal_sram.c 0x00000000   Number         0  stm32f4xx_hal_sram.o ABSOLUTE
    ..\Drivers\STM32F4xx_HAL_Driver\Src\stm32f4xx_hal_tim.c 0x00000000   Number         0  stm32f4xx_hal_tim.o ABSOLUTE
    ..\Drivers\STM32F4xx_HAL_Driver\Src\stm32f4xx_hal_tim_ex.c 0x00000000   Number         0  stm32f4xx_hal_tim_ex.o ABSOLUTE
    ..\Drivers\STM32F4xx_HAL_Driver\Src\stm32f4xx_hal_uart.c 0x00000000   Number         0  stm32f4xx_hal_uart.o ABSOLUTE
    ..\Drivers\STM32F4xx_HAL_Driver\Src\stm32f4xx_hal_usart.c 0x00000000   Number         0  stm32f4xx_hal_usart.o ABSOLUTE
    ..\Drivers\STM32F4xx_HAL_Driver\Src\stm32f4xx_hal_wwdg.c 0x00000000   Number         0  stm32f4xx_hal_wwdg.o ABSOLUTE
    ..\Drivers\STM32F4xx_HAL_Driver\Src\stm32f4xx_ll_fsmc.c 0x00000000   Number         0  stm32f4xx_ll_fsmc.o ABSOLUTE
    ..\Drivers\STM32F4xx_HAL_Driver\Src\stm32f4xx_ll_usb.c 0x00000000   Number         0  stm32f4xx_ll_usb.o ABSOLUTE
    ..\Middlewares\LwIP\src\api\api_lib.c    0x00000000   Number         0  api_lib.o ABSOLUTE
    ..\Middlewares\LwIP\src\api\api_msg.c    0x00000000   Number         0  api_msg.o ABSOLUTE
    ..\Middlewares\LwIP\src\api\err.c        0x00000000   Number         0  err.o ABSOLUTE
    ..\Middlewares\LwIP\src\api\netbuf.c     0x00000000   Number         0  netbuf.o ABSOLUTE
    ..\Middlewares\LwIP\src\api\netdb.c      0x00000000   Number         0  netdb.o ABSOLUTE
    ..\Middlewares\LwIP\src\api\netifapi.c   0x00000000   Number         0  netifapi.o ABSOLUTE
    ..\Middlewares\LwIP\src\api\sockets.c    0x00000000   Number         0  sockets.o ABSOLUTE
    ..\Middlewares\LwIP\src\api\tcpip.c      0x00000000   Number         0  tcpip.o ABSOLUTE
    ..\Middlewares\LwIP\src\core\def.c       0x00000000   Number         0  def.o ABSOLUTE
    ..\Middlewares\LwIP\src\core\dns.c       0x00000000   Number         0  dns.o ABSOLUTE
    ..\Middlewares\LwIP\src\core\inet_chksum.c 0x00000000   Number         0  inet_chksum.o ABSOLUTE
    ..\Middlewares\LwIP\src\core\init.c      0x00000000   Number         0  init.o ABSOLUTE
    ..\Middlewares\LwIP\src\core\ip.c        0x00000000   Number         0  ip.o ABSOLUTE
    ..\Middlewares\LwIP\src\core\ipv4\autoip.c 0x00000000   Number         0  autoip.o ABSOLUTE
    ..\Middlewares\LwIP\src\core\ipv4\dhcp.c 0x00000000   Number         0  dhcp.o ABSOLUTE
    ..\Middlewares\LwIP\src\core\ipv4\etharp.c 0x00000000   Number         0  etharp.o ABSOLUTE
    ..\Middlewares\LwIP\src\core\ipv4\icmp.c 0x00000000   Number         0  icmp.o ABSOLUTE
    ..\Middlewares\LwIP\src\core\ipv4\igmp.c 0x00000000   Number         0  igmp.o ABSOLUTE
    ..\Middlewares\LwIP\src\core\ipv4\ip4.c  0x00000000   Number         0  ip4.o ABSOLUTE
    ..\Middlewares\LwIP\src\core\ipv4\ip4_addr.c 0x00000000   Number         0  ip4_addr.o ABSOLUTE
    ..\Middlewares\LwIP\src\core\ipv4\ip4_frag.c 0x00000000   Number         0  ip4_frag.o ABSOLUTE
    ..\Middlewares\LwIP\src\core\mem.c       0x00000000   Number         0  mem.o ABSOLUTE
    ..\Middlewares\LwIP\src\core\memp.c      0x00000000   Number         0  memp.o ABSOLUTE
    ..\Middlewares\LwIP\src\core\netif.c     0x00000000   Number         0  netif.o ABSOLUTE
    ..\Middlewares\LwIP\src\core\pbuf.c      0x00000000   Number         0  pbuf.o ABSOLUTE
    ..\Middlewares\LwIP\src\core\raw.c       0x00000000   Number         0  raw.o ABSOLUTE
    ..\Middlewares\LwIP\src\core\stats.c     0x00000000   Number         0  stats.o ABSOLUTE
    ..\Middlewares\LwIP\src\core\sys.c       0x00000000   Number         0  sys.o ABSOLUTE
    ..\Middlewares\LwIP\src\core\tcp.c       0x00000000   Number         0  tcp.o ABSOLUTE
    ..\Middlewares\LwIP\src\core\tcp_in.c    0x00000000   Number         0  tcp_in.o ABSOLUTE
    ..\Middlewares\LwIP\src\core\tcp_out.c   0x00000000   Number         0  tcp_out.o ABSOLUTE
    ..\Middlewares\LwIP\src\core\timeouts.c  0x00000000   Number         0  timeouts.o ABSOLUTE
    ..\Middlewares\LwIP\src\core\udp.c       0x00000000   Number         0  udp.o ABSOLUTE
    ..\Middlewares\LwIP\src\netif\ethernet.c 0x00000000   Number         0  ethernet.o ABSOLUTE
    ..\Src\app_ethernet.c                    0x00000000   Number         0  app_ethernet.o ABSOLUTE
    ..\Src\bsp\BasicTIM\bsp_BasicTIM.c       0x00000000   Number         0  bsp_basictim.o ABSOLUTE
    ..\Src\bsp\GeneralTIM\bsp_GeneralTIM.c   0x00000000   Number         0  bsp_generaltim.o ABSOLUTE
    ..\Src\bsp\MB-host\bsp_MB_host.c         0x00000000   Number         0  bsp_mb_host.o ABSOLUTE
    ..\Src\bsp\RS485\bsp_usartx_RS232.c      0x00000000   Number         0  bsp_usartx_rs232.o ABSOLUTE
    ..\Src\bsp\RS485\bsp_usartx_RS485.c      0x00000000   Number         0  bsp_usartx_rs485.o ABSOLUTE
    ..\Src\bsp\key\bsp_key.c                 0x00000000   Number         0  bsp_key.o ABSOLUTE
    ..\Src\bsp\led\bsp_led.c                 0x00000000   Number         0  bsp_led.o ABSOLUTE
    ..\Src\bsp\usart\bsp_debug_usart.c       0x00000000   Number         0  bsp_debug_usart.o ABSOLUTE
    ..\Src\ethernetif.c                      0x00000000   Number         0  ethernetif.o ABSOLUTE
    ..\Src\main.c                            0x00000000   Number         0  main.o ABSOLUTE
    ..\Src\stm32f4xx_assert.c                0x00000000   Number         0  stm32f4xx_assert.o ABSOLUTE
    ..\Src\stm32f4xx_hal_msp.c               0x00000000   Number         0  stm32f4xx_hal_msp.o ABSOLUTE
    ..\Src\stm32f4xx_it.c                    0x00000000   Number         0  stm32f4xx_it.o ABSOLUTE
    ..\Src\system_stm32f4xx.c                0x00000000   Number         0  system_stm32f4xx.o ABSOLUTE
    ..\Src\tcp_echoserver.c                  0x00000000   Number         0  tcp_echoserver.o ABSOLUTE
    ..\\Drivers\\STM32F4xx_HAL_Driver\\Src\\stm32f4xx_hal_adc.c 0x00000000   Number         0  stm32f4xx_hal_adc.o ABSOLUTE
    ..\\Drivers\\STM32F4xx_HAL_Driver\\Src\\stm32f4xx_hal_adc_ex.c 0x00000000   Number         0  stm32f4xx_hal_adc_ex.o ABSOLUTE
    ..\\Drivers\\STM32F4xx_HAL_Driver\\Src\\stm32f4xx_hal_can.c 0x00000000   Number         0  stm32f4xx_hal_can.o ABSOLUTE
    ..\\Drivers\\STM32F4xx_HAL_Driver\\Src\\stm32f4xx_hal_crc.c 0x00000000   Number         0  stm32f4xx_hal_crc.o ABSOLUTE
    ..\\Drivers\\STM32F4xx_HAL_Driver\\Src\\stm32f4xx_hal_dac.c 0x00000000   Number         0  stm32f4xx_hal_dac.o ABSOLUTE
    ..\\Drivers\\STM32F4xx_HAL_Driver\\Src\\stm32f4xx_hal_dac_ex.c 0x00000000   Number         0  stm32f4xx_hal_dac_ex.o ABSOLUTE
    ..\\Drivers\\STM32F4xx_HAL_Driver\\Src\\stm32f4xx_hal_eth.c 0x00000000   Number         0  stm32f4xx_hal_eth.o ABSOLUTE
    ..\\Drivers\\STM32F4xx_HAL_Driver\\Src\\stm32f4xx_hal_hcd.c 0x00000000   Number         0  stm32f4xx_hal_hcd.o ABSOLUTE
    ..\\Drivers\\STM32F4xx_HAL_Driver\\Src\\stm32f4xx_hal_i2c.c 0x00000000   Number         0  stm32f4xx_hal_i2c.o ABSOLUTE
    ..\\Drivers\\STM32F4xx_HAL_Driver\\Src\\stm32f4xx_hal_i2c_ex.c 0x00000000   Number         0  stm32f4xx_hal_i2c_ex.o ABSOLUTE
    ..\\Drivers\\STM32F4xx_HAL_Driver\\Src\\stm32f4xx_hal_iwdg.c 0x00000000   Number         0  stm32f4xx_hal_iwdg.o ABSOLUTE
    ..\\Drivers\\STM32F4xx_HAL_Driver\\Src\\stm32f4xx_hal_pcd.c 0x00000000   Number         0  stm32f4xx_hal_pcd.o ABSOLUTE
    ..\\Drivers\\STM32F4xx_HAL_Driver\\Src\\stm32f4xx_hal_pcd_ex.c 0x00000000   Number         0  stm32f4xx_hal_pcd_ex.o ABSOLUTE
    ..\\Drivers\\STM32F4xx_HAL_Driver\\Src\\stm32f4xx_hal_rng.c 0x00000000   Number         0  stm32f4xx_hal_rng.o ABSOLUTE
    ..\\Drivers\\STM32F4xx_HAL_Driver\\Src\\stm32f4xx_hal_rtc.c 0x00000000   Number         0  stm32f4xx_hal_rtc.o ABSOLUTE
    ..\\Drivers\\STM32F4xx_HAL_Driver\\Src\\stm32f4xx_hal_rtc_ex.c 0x00000000   Number         0  stm32f4xx_hal_rtc_ex.o ABSOLUTE
    ..\\Drivers\\STM32F4xx_HAL_Driver\\Src\\stm32f4xx_hal_spi.c 0x00000000   Number         0  stm32f4xx_hal_spi.o ABSOLUTE
    ..\\Drivers\\STM32F4xx_HAL_Driver\\Src\\stm32f4xx_hal_sram.c 0x00000000   Number         0  stm32f4xx_hal_sram.o ABSOLUTE
    ..\\Drivers\\STM32F4xx_HAL_Driver\\Src\\stm32f4xx_hal_usart.c 0x00000000   Number         0  stm32f4xx_hal_usart.o ABSOLUTE
    ..\\Drivers\\STM32F4xx_HAL_Driver\\Src\\stm32f4xx_hal_wwdg.c 0x00000000   Number         0  stm32f4xx_hal_wwdg.o ABSOLUTE
    ..\\Drivers\\STM32F4xx_HAL_Driver\\Src\\stm32f4xx_ll_fsmc.c 0x00000000   Number         0  stm32f4xx_ll_fsmc.o ABSOLUTE
    ..\\Drivers\\STM32F4xx_HAL_Driver\\Src\\stm32f4xx_ll_usb.c 0x00000000   Number         0  stm32f4xx_ll_usb.o ABSOLUTE
    ..\\Middlewares\\LwIP\\src\\core\\tcp_out.c 0x00000000   Number         0  tcp_out.o ABSOLUTE
    ..\\Src\\app_ethernet.c                  0x00000000   Number         0  app_ethernet.o ABSOLUTE
    ..\\Src\\bsp\\BasicTIM\\bsp_BasicTIM.c   0x00000000   Number         0  bsp_basictim.o ABSOLUTE
    ..\\Src\\bsp\\GeneralTIM\\bsp_GeneralTIM.c 0x00000000   Number         0  bsp_generaltim.o ABSOLUTE
    ..\\Src\\bsp\\MB-host\\bsp_MB_host.c     0x00000000   Number         0  bsp_mb_host.o ABSOLUTE
    ..\\Src\\bsp\\RS485\\bsp_usartx_RS232.c  0x00000000   Number         0  bsp_usartx_rs232.o ABSOLUTE
    ..\\Src\\bsp\\RS485\\bsp_usartx_RS485.c  0x00000000   Number         0  bsp_usartx_rs485.o ABSOLUTE
    ..\\Src\\bsp\\key\\bsp_key.c             0x00000000   Number         0  bsp_key.o ABSOLUTE
    ..\\Src\\bsp\\led\\bsp_led.c             0x00000000   Number         0  bsp_led.o ABSOLUTE
    ..\\Src\\bsp\\usart\\bsp_debug_usart.c   0x00000000   Number         0  bsp_debug_usart.o ABSOLUTE
    ..\\Src\\ethernetif.c                    0x00000000   Number         0  ethernetif.o ABSOLUTE
    ..\\Src\\stm32f4xx_assert.c              0x00000000   Number         0  stm32f4xx_assert.o ABSOLUTE
    ..\\Src\\tcp_echoserver.c                0x00000000   Number         0  tcp_echoserver.o ABSOLUTE
    cdrcmple.s                               0x00000000   Number         0  cdrcmple.o ABSOLUTE
    dc.s                                     0x00000000   Number         0  dc.o ABSOLUTE
    handlers.s                               0x00000000   Number         0  handlers.o ABSOLUTE
    init.s                                   0x00000000   Number         0  init.o ABSOLUTE
    startup_stm32f407xx.s                    0x00000000   Number         0  startup_stm32f407xx.o ABSOLUTE
    RESET                                    0x08000000   Section      392  startup_stm32f407xx.o(RESET)
    .ARM.Collect$$$$00000000                 0x08000188   Section        0  entry.o(.ARM.Collect$$$$00000000)
    .ARM.Collect$$$$00000001                 0x08000188   Section        4  entry2.o(.ARM.Collect$$$$00000001)
    .ARM.Collect$$$$00000004                 0x0800018c   Section        4  entry5.o(.ARM.Collect$$$$00000004)
    .ARM.Collect$$$$00000008                 0x08000190   Section        0  entry7b.o(.ARM.Collect$$$$00000008)
    .ARM.Collect$$$$0000000A                 0x08000190   Section        0  entry8b.o(.ARM.Collect$$$$0000000A)
    .ARM.Collect$$$$0000000B                 0x08000190   Section        8  entry9a.o(.ARM.Collect$$$$0000000B)
    .ARM.Collect$$$$0000000D                 0x08000198   Section        0  entry10a.o(.ARM.Collect$$$$0000000D)
    .ARM.Collect$$$$0000000F                 0x08000198   Section        0  entry11a.o(.ARM.Collect$$$$0000000F)
    .ARM.Collect$$$$00002712                 0x08000198   Section        4  entry2.o(.ARM.Collect$$$$00002712)
    __lit__00000000                          0x08000198   Data           4  entry2.o(.ARM.Collect$$$$00002712)
    .text                                    0x0800019c   Section       36  startup_stm32f407xx.o(.text)
    $v0                                      0x0800019c   Number         0  startup_stm32f407xx.o(.text)
    .text                                    0x080001c0   Section        0  rand.o(.text)
    .text                                    0x080001e4   Section        0  memcpya.o(.text)
    .text                                    0x08000208   Section        0  memseta.o(.text)
    .text                                    0x0800022c   Section        0  strlen.o(.text)
    .text                                    0x0800023a   Section        0  memcmp.o(.text)
    .text                                    0x08000254   Section        0  f2d.o(.text)
    .text                                    0x0800027a   Section        0  uidiv.o(.text)
    .text                                    0x080002a6   Section        0  uldiv.o(.text)
    .text                                    0x08000308   Section        0  iusefp.o(.text)
    .text                                    0x08000308   Section        0  dadd.o(.text)
    .text                                    0x08000456   Section        0  dmul.o(.text)
    .text                                    0x0800053a   Section        0  ddiv.o(.text)
    .text                                    0x08000618   Section        0  dfixul.o(.text)
    .text                                    0x08000648   Section       48  cdrcmple.o(.text)
    .text                                    0x08000678   Section       36  init.o(.text)
    .text                                    0x0800069c   Section        0  llshl.o(.text)
    .text                                    0x080006ba   Section        0  llushr.o(.text)
    .text                                    0x080006da   Section        0  llsshr.o(.text)
    .text                                    0x080006fe   Section        0  depilogue.o(.text)
    .text                                    0x080007b8   Section        0  __dczerorl2.o(.text)
    i.BASIC_TIMx_Init                        0x08000810   Section        0  bsp_basictim.o(i.BASIC_TIMx_Init)
    i.BusFault_Handler                       0x08000844   Section        0  stm32f4xx_it.o(i.BusFault_Handler)
    i.DHCP_Periodic_Handle                   0x08000848   Section        0  app_ethernet.o(i.DHCP_Periodic_Handle)
    i.DHCP_Process                           0x08000874   Section        0  app_ethernet.o(i.DHCP_Process)
    i.DebugMon_Handler                       0x08000ab4   Section        0  stm32f4xx_it.o(i.DebugMon_Handler)
    i.ETH_DMAReceptionEnable                 0x08000ab6   Section        0  stm32f4xx_hal_eth.o(i.ETH_DMAReceptionEnable)
    ETH_DMAReceptionEnable                   0x08000ab7   Thumb Code    16  stm32f4xx_hal_eth.o(i.ETH_DMAReceptionEnable)
    i.ETH_DMATransmissionEnable              0x08000ac6   Section        0  stm32f4xx_hal_eth.o(i.ETH_DMATransmissionEnable)
    ETH_DMATransmissionEnable                0x08000ac7   Thumb Code    16  stm32f4xx_hal_eth.o(i.ETH_DMATransmissionEnable)
    i.ETH_Delay                              0x08000ad8   Section        0  stm32f4xx_hal_eth.o(i.ETH_Delay)
    ETH_Delay                                0x08000ad9   Thumb Code    32  stm32f4xx_hal_eth.o(i.ETH_Delay)
    i.ETH_FlushTransmitFIFO                  0x08000afc   Section        0  stm32f4xx_hal_eth.o(i.ETH_FlushTransmitFIFO)
    ETH_FlushTransmitFIFO                    0x08000afd   Thumb Code    46  stm32f4xx_hal_eth.o(i.ETH_FlushTransmitFIFO)
    i.ETH_IRQHandler                         0x08000b2c   Section        0  app_ethernet.o(i.ETH_IRQHandler)
    i.ETH_MACAddressConfig                   0x08000b4c   Section        0  stm32f4xx_hal_eth.o(i.ETH_MACAddressConfig)
    ETH_MACAddressConfig                     0x08000b4d   Thumb Code    42  stm32f4xx_hal_eth.o(i.ETH_MACAddressConfig)
    i.ETH_MACDMAConfig                       0x08000b78   Section        0  stm32f4xx_hal_eth.o(i.ETH_MACDMAConfig)
    ETH_MACDMAConfig                         0x08000b79   Thumb Code   390  stm32f4xx_hal_eth.o(i.ETH_MACDMAConfig)
    i.ETH_MACReceptionEnable                 0x08000d0c   Section        0  stm32f4xx_hal_eth.o(i.ETH_MACReceptionEnable)
    ETH_MACReceptionEnable                   0x08000d0d   Thumb Code    34  stm32f4xx_hal_eth.o(i.ETH_MACReceptionEnable)
    i.ETH_MACTransmissionEnable              0x08000d2e   Section        0  stm32f4xx_hal_eth.o(i.ETH_MACTransmissionEnable)
    ETH_MACTransmissionEnable                0x08000d2f   Thumb Code    34  stm32f4xx_hal_eth.o(i.ETH_MACTransmissionEnable)
    i.ETH_PHY_ReadReg                        0x08000d50   Section        0  app_ethernet.o(i.ETH_PHY_ReadReg)
    i.ETH_link_check_state                   0x08000d6c   Section        0  app_ethernet.o(i.ETH_link_check_state)
    i.Ethernet_Link_Periodic_Handle          0x08000df8   Section        0  app_ethernet.o(i.Ethernet_Link_Periodic_Handle)
    i.GENERAL_TIM4_Init                      0x08000e20   Section        0  bsp_generaltim.o(i.GENERAL_TIM4_Init)
    i.GENERAL_TIMx_Init                      0x08000ea8   Section        0  bsp_generaltim.o(i.GENERAL_TIMx_Init)
    i.GetPinStateOfKey1                      0x08000f08   Section        0  bsp_key.o(i.GetPinStateOfKey1)
    i.GetPinStateOfKey2                      0x08000f20   Section        0  bsp_key.o(i.GetPinStateOfKey2)
    i.GetPinStateOfKey3                      0x08000f38   Section        0  bsp_key.o(i.GetPinStateOfKey3)
    i.GetPinStateOfKey4                      0x08000f50   Section        0  bsp_key.o(i.GetPinStateOfKey4)
    i.GetPinStateOfKey5                      0x08000f68   Section        0  bsp_key.o(i.GetPinStateOfKey5)
    i.HAL_DMA_Abort_IT                       0x08000f80   Section        0  stm32f4xx_hal_dma.o(i.HAL_DMA_Abort_IT)
    i.HAL_Delay                              0x08000fa4   Section        0  stm32f4xx_hal.o(i.HAL_Delay)
    i.HAL_ETH_ConfigMAC                      0x08000fc4   Section        0  stm32f4xx_hal_eth.o(i.HAL_ETH_ConfigMAC)
    i.HAL_ETH_DMARxDescListInit              0x080010fc   Section        0  stm32f4xx_hal_eth.o(i.HAL_ETH_DMARxDescListInit)
    i.HAL_ETH_DMATxDescListInit              0x0800117c   Section        0  stm32f4xx_hal_eth.o(i.HAL_ETH_DMATxDescListInit)
    i.HAL_ETH_GetReceivedFrame_IT            0x0800120a   Section        0  stm32f4xx_hal_eth.o(i.HAL_ETH_GetReceivedFrame_IT)
    i.HAL_ETH_Init                           0x080012ac   Section        0  stm32f4xx_hal_eth.o(i.HAL_ETH_Init)
    i.HAL_ETH_MspInit                        0x0800151c   Section        0  ethernetif.o(i.HAL_ETH_MspInit)
    i.HAL_ETH_ReadPHYRegister                0x08001624   Section        0  stm32f4xx_hal_eth.o(i.HAL_ETH_ReadPHYRegister)
    i.HAL_ETH_Start                          0x080016b0   Section        0  stm32f4xx_hal_eth.o(i.HAL_ETH_Start)
    i.HAL_ETH_TransmitFrame                  0x080016f6   Section        0  stm32f4xx_hal_eth.o(i.HAL_ETH_TransmitFrame)
    i.HAL_ETH_WritePHYRegister               0x0800182c   Section        0  stm32f4xx_hal_eth.o(i.HAL_ETH_WritePHYRegister)
    i.HAL_GPIO_Init                          0x080018b0   Section        0  stm32f4xx_hal_gpio.o(i.HAL_GPIO_Init)
    i.HAL_GPIO_ReadPin                       0x08001acc   Section        0  stm32f4xx_hal_gpio.o(i.HAL_GPIO_ReadPin)
    i.HAL_GPIO_TogglePin                     0x08001ada   Section        0  stm32f4xx_hal_gpio.o(i.HAL_GPIO_TogglePin)
    i.HAL_GPIO_WritePin                      0x08001ae2   Section        0  stm32f4xx_hal_gpio.o(i.HAL_GPIO_WritePin)
    i.HAL_GetTick                            0x08001af0   Section        0  stm32f4xx_hal.o(i.HAL_GetTick)
    i.HAL_IncTick                            0x08001afc   Section        0  stm32f4xx_hal.o(i.HAL_IncTick)
    i.HAL_Init                               0x08001b0c   Section        0  stm32f4xx_hal.o(i.HAL_Init)
    i.HAL_InitTick                           0x08001b40   Section        0  stm32f4xx_hal.o(i.HAL_InitTick)
    i.HAL_MspInit                            0x08001b68   Section        0  stm32f4xx_hal_msp.o(i.HAL_MspInit)
    i.HAL_NVIC_EnableIRQ                     0x08001bd0   Section        0  stm32f4xx_hal_cortex.o(i.HAL_NVIC_EnableIRQ)
    i.HAL_NVIC_SetPriority                   0x08001be8   Section        0  stm32f4xx_hal_cortex.o(i.HAL_NVIC_SetPriority)
    i.HAL_NVIC_SetPriorityGrouping           0x08001c50   Section        0  stm32f4xx_hal_cortex.o(i.HAL_NVIC_SetPriorityGrouping)
    i.HAL_RCC_ClockConfig                    0x08001c74   Section        0  stm32f4xx_hal_rcc.o(i.HAL_RCC_ClockConfig)
    i.HAL_RCC_EnableCSS                      0x08001e64   Section        0  stm32f4xx_hal_rcc.o(i.HAL_RCC_EnableCSS)
    i.HAL_RCC_GetHCLKFreq                    0x08001e70   Section        0  stm32f4xx_hal_rcc.o(i.HAL_RCC_GetHCLKFreq)
    i.HAL_RCC_GetPCLK1Freq                   0x08001e7c   Section        0  stm32f4xx_hal_rcc.o(i.HAL_RCC_GetPCLK1Freq)
    i.HAL_RCC_GetPCLK2Freq                   0x08001ea8   Section        0  stm32f4xx_hal_rcc.o(i.HAL_RCC_GetPCLK2Freq)
    i.HAL_RCC_GetSysClockFreq                0x08001ed4   Section        0  stm32f4xx_hal_rcc.o(i.HAL_RCC_GetSysClockFreq)
    i.HAL_RCC_OscConfig                      0x08001f60   Section        0  stm32f4xx_hal_rcc.o(i.HAL_RCC_OscConfig)
    i.HAL_SYSTICK_CLKSourceConfig            0x080023a0   Section        0  stm32f4xx_hal_cortex.o(i.HAL_SYSTICK_CLKSourceConfig)
    i.HAL_SYSTICK_Callback                   0x080023bc   Section        0  stm32f4xx_hal_cortex.o(i.HAL_SYSTICK_Callback)
    i.HAL_SYSTICK_Config                     0x080023c0   Section        0  stm32f4xx_hal_cortex.o(i.HAL_SYSTICK_Config)
    i.HAL_SYSTICK_IRQHandler                 0x080023e8   Section        0  stm32f4xx_hal_cortex.o(i.HAL_SYSTICK_IRQHandler)
    i.HAL_TIMEx_BreakCallback                0x080023f0   Section        0  stm32f4xx_hal_tim_ex.o(i.HAL_TIMEx_BreakCallback)
    i.HAL_TIMEx_CommutationCallback          0x080023f2   Section        0  stm32f4xx_hal_tim_ex.o(i.HAL_TIMEx_CommutationCallback)
    i.HAL_TIMEx_MasterConfigSynchronization  0x080023f4   Section        0  stm32f4xx_hal_tim_ex.o(i.HAL_TIMEx_MasterConfigSynchronization)
    i.HAL_TIM_Base_Init                      0x0800245a   Section        0  stm32f4xx_hal_tim.o(i.HAL_TIM_Base_Init)
    i.HAL_TIM_Base_MspInit                   0x08002494   Section        0  bsp_basictim.o(i.HAL_TIM_Base_MspInit)
    i.HAL_TIM_Base_Start                     0x080024d0   Section        0  stm32f4xx_hal_tim.o(i.HAL_TIM_Base_Start)
    i.HAL_TIM_Base_Start_IT                  0x080024ea   Section        0  stm32f4xx_hal_tim.o(i.HAL_TIM_Base_Start_IT)
    i.HAL_TIM_ConfigClockSource              0x08002502   Section        0  stm32f4xx_hal_tim.o(i.HAL_TIM_ConfigClockSource)
    i.HAL_TIM_IC_CaptureCallback             0x08002612   Section        0  stm32f4xx_hal_tim.o(i.HAL_TIM_IC_CaptureCallback)
    i.HAL_TIM_IRQHandler                     0x08002614   Section        0  stm32f4xx_hal_tim.o(i.HAL_TIM_IRQHandler)
    i.HAL_TIM_OC_ConfigChannel               0x08002788   Section        0  stm32f4xx_hal_tim.o(i.HAL_TIM_OC_ConfigChannel)
    i.HAL_TIM_OC_DelayElapsedCallback        0x080027e0   Section        0  main.o(i.HAL_TIM_OC_DelayElapsedCallback)
    i.HAL_TIM_OnePulse_Init                  0x08002824   Section        0  stm32f4xx_hal_tim.o(i.HAL_TIM_OnePulse_Init)
    i.HAL_TIM_OnePulse_MspInit               0x08002870   Section        0  bsp_generaltim.o(i.HAL_TIM_OnePulse_MspInit)
    i.HAL_TIM_PWM_PulseFinishedCallback      0x080028ac   Section        0  stm32f4xx_hal_tim.o(i.HAL_TIM_PWM_PulseFinishedCallback)
    i.HAL_TIM_PeriodElapsedCallback          0x080028b0   Section        0  main.o(i.HAL_TIM_PeriodElapsedCallback)
    i.HAL_TIM_TriggerCallback                0x08002d90   Section        0  stm32f4xx_hal_tim.o(i.HAL_TIM_TriggerCallback)
    i.HAL_UART_ErrorCallback                 0x08002d92   Section        0  stm32f4xx_hal_uart.o(i.HAL_UART_ErrorCallback)
    i.HAL_UART_IRQHandler                    0x08002d94   Section        0  stm32f4xx_hal_uart.o(i.HAL_UART_IRQHandler)
    i.HAL_UART_Init                          0x08002ecc   Section        0  stm32f4xx_hal_uart.o(i.HAL_UART_Init)
    i.HAL_UART_MspInit                       0x08002f30   Section        0  bsp_debug_usart.o(i.HAL_UART_MspInit)
    i.HAL_UART_Receive_IT                    0x08003024   Section        0  stm32f4xx_hal_uart.o(i.HAL_UART_Receive_IT)
    i.HAL_UART_RxCpltCallback                0x08003070   Section        0  main.o(i.HAL_UART_RxCpltCallback)
    i.HAL_UART_Transmit                      0x080031c0   Section        0  stm32f4xx_hal_uart.o(i.HAL_UART_Transmit)
    i.HAL_UART_TxCpltCallback                0x0800329c   Section        0  stm32f4xx_hal_uart.o(i.HAL_UART_TxCpltCallback)
    i.HardFault_Handler                      0x0800329e   Section        0  stm32f4xx_it.o(i.HardFault_Handler)
    i.KEY_GPIO_Init                          0x080032a0   Section        0  bsp_key.o(i.KEY_GPIO_Init)
    i.KeyCreate                              0x08003358   Section        0  bsp_key.o(i.KeyCreate)
    i.Key_AccessTimes                        0x08003368   Section        0  bsp_key.o(i.Key_AccessTimes)
    i.Key_RefreshState                       0x08003376   Section        0  bsp_key.o(i.Key_RefreshState)
    i.LED_GPIO_Init                          0x080033fc   Section        0  bsp_led.o(i.LED_GPIO_Init)
    i.MB_CRC16                               0x0800349c   Section        0  bsp_mb_host.o(i.MB_CRC16)
    i.MB_CRC16_RS232                         0x080034d4   Section        0  bsp_usartx_rs232.o(i.MB_CRC16_RS232)
    i.MB_ReadCoil_03H_RS232                  0x0800350c   Section        0  bsp_usartx_rs232.o(i.MB_ReadCoil_03H_RS232)
    i.MB_ReadCoil_05H_RS232                  0x080037d8   Section        0  bsp_usartx_rs232.o(i.MB_ReadCoil_05H_RS232)
    i.MB_ReadCoil_10H_RS232                  0x0800393c   Section        0  bsp_usartx_rs232.o(i.MB_ReadCoil_10H_RS232)
    i.MB_ReadHoldingReg_03H                  0x08003a10   Section        0  bsp_mb_host.o(i.MB_ReadHoldingReg_03H)
    i.MX_DEBUG_USART_Init                    0x08003a44   Section        0  bsp_debug_usart.o(i.MX_DEBUG_USART_Init)
    i.MX_RS232_USART_Init                    0x08003a88   Section        0  bsp_debug_usart.o(i.MX_RS232_USART_Init)
    i.MemManage_Handler                      0x08003adc   Section        0  stm32f4xx_it.o(i.MemManage_Handler)
    i.NMI_Handler                            0x08003ade   Section        0  stm32f4xx_it.o(i.NMI_Handler)
    i.Netif_Config                           0x08003ae0   Section        0  app_ethernet.o(i.Netif_Config)
    i.PendSV_Handler                         0x08003b30   Section        0  stm32f4xx_it.o(i.PendSV_Handler)
    i.RCC_IRQHandler                         0x08003b32   Section        0  stm32f4xx_it.o(i.RCC_IRQHandler)
    i.RS485_GPIO_Init                        0x08003b34   Section        0  bsp_usartx_rs485.o(i.RS485_GPIO_Init)
    i.RS485_USARTx_Init                      0x08003bcc   Section        0  bsp_usartx_rs485.o(i.RS485_USARTx_Init)
    i.RS485_USARTx_Init_4800                 0x08003c2c   Section        0  bsp_usartx_rs485.o(i.RS485_USARTx_Init_4800)
    i.SVC_Handler                            0x08003c8c   Section        0  stm32f4xx_it.o(i.SVC_Handler)
    i.SysTick_Handler                        0x08003c8e   Section        0  stm32f4xx_it.o(i.SysTick_Handler)
    i.SystemClock_Config                     0x08003c9c   Section        0  main.o(i.SystemClock_Config)
    i.SystemInit                             0x08003d38   Section        0  system_stm32f4xx.o(i.SystemInit)
    i.TIM4_IRQHandler                        0x08003d90   Section        0  stm32f4xx_it.o(i.TIM4_IRQHandler)
    i.TIM5_IRQHandler                        0x08003d9c   Section        0  stm32f4xx_it.o(i.TIM5_IRQHandler)
    i.TIM6_DAC_IRQHandler                    0x08003da8   Section        0  stm32f4xx_it.o(i.TIM6_DAC_IRQHandler)
    i.TIM_Base_SetConfig                     0x08003db4   Section        0  stm32f4xx_hal_tim.o(i.TIM_Base_SetConfig)
    i.TIM_ETR_SetConfig                      0x08003e7c   Section        0  stm32f4xx_hal_tim.o(i.TIM_ETR_SetConfig)
    TIM_ETR_SetConfig                        0x08003e7d   Thumb Code    22  stm32f4xx_hal_tim.o(i.TIM_ETR_SetConfig)
    i.TIM_ITRx_SetConfig                     0x08003e92   Section        0  stm32f4xx_hal_tim.o(i.TIM_ITRx_SetConfig)
    TIM_ITRx_SetConfig                       0x08003e93   Thumb Code    16  stm32f4xx_hal_tim.o(i.TIM_ITRx_SetConfig)
    i.TIM_OC1_SetConfig                      0x08003ea2   Section        0  stm32f4xx_hal_tim.o(i.TIM_OC1_SetConfig)
    TIM_OC1_SetConfig                        0x08003ea3   Thumb Code   104  stm32f4xx_hal_tim.o(i.TIM_OC1_SetConfig)
    i.TIM_OC2_SetConfig                      0x08003f0a   Section        0  stm32f4xx_hal_tim.o(i.TIM_OC2_SetConfig)
    i.TIM_OC3_SetConfig                      0x08003f7a   Section        0  stm32f4xx_hal_tim.o(i.TIM_OC3_SetConfig)
    TIM_OC3_SetConfig                        0x08003f7b   Thumb Code   112  stm32f4xx_hal_tim.o(i.TIM_OC3_SetConfig)
    i.TIM_OC4_SetConfig                      0x08003fea   Section        0  stm32f4xx_hal_tim.o(i.TIM_OC4_SetConfig)
    TIM_OC4_SetConfig                        0x08003feb   Thumb Code    88  stm32f4xx_hal_tim.o(i.TIM_OC4_SetConfig)
    i.TIM_TI1_ConfigInputStage               0x08004042   Section        0  stm32f4xx_hal_tim.o(i.TIM_TI1_ConfigInputStage)
    TIM_TI1_ConfigInputStage                 0x08004043   Thumb Code    38  stm32f4xx_hal_tim.o(i.TIM_TI1_ConfigInputStage)
    i.TIM_TI2_ConfigInputStage               0x08004068   Section        0  stm32f4xx_hal_tim.o(i.TIM_TI2_ConfigInputStage)
    TIM_TI2_ConfigInputStage                 0x08004069   Thumb Code    36  stm32f4xx_hal_tim.o(i.TIM_TI2_ConfigInputStage)
    i.UART5_IRQHandler                       0x0800408c   Section        0  stm32f4xx_it.o(i.UART5_IRQHandler)
    i.UART_DMAAbortOnError                   0x08004098   Section        0  stm32f4xx_hal_uart.o(i.UART_DMAAbortOnError)
    UART_DMAAbortOnError                     0x08004099   Thumb Code    16  stm32f4xx_hal_uart.o(i.UART_DMAAbortOnError)
    i.UART_EndRxTransfer                     0x080040a8   Section        0  stm32f4xx_hal_uart.o(i.UART_EndRxTransfer)
    UART_EndRxTransfer                       0x080040a9   Thumb Code    28  stm32f4xx_hal_uart.o(i.UART_EndRxTransfer)
    i.UART_EndTransmit_IT                    0x080040c4   Section        0  stm32f4xx_hal_uart.o(i.UART_EndTransmit_IT)
    UART_EndTransmit_IT                      0x080040c5   Thumb Code    26  stm32f4xx_hal_uart.o(i.UART_EndTransmit_IT)
    i.UART_RS232_Tx                          0x080040e0   Section        0  bsp_debug_usart.o(i.UART_RS232_Tx)
    i.UART_Receive_IT                        0x08004104   Section        0  stm32f4xx_hal_uart.o(i.UART_Receive_IT)
    UART_Receive_IT                          0x08004105   Thumb Code   146  stm32f4xx_hal_uart.o(i.UART_Receive_IT)
    i.UART_SetConfig                         0x08004198   Section        0  stm32f4xx_hal_uart.o(i.UART_SetConfig)
    UART_SetConfig                           0x08004199   Thumb Code   822  stm32f4xx_hal_uart.o(i.UART_SetConfig)
    i.UART_Transmit_IT                       0x080044dc   Section        0  stm32f4xx_hal_uart.o(i.UART_Transmit_IT)
    UART_Transmit_IT                         0x080044dd   Thumb Code   102  stm32f4xx_hal_uart.o(i.UART_Transmit_IT)
    i.UART_Tx                                0x08004544   Section        0  bsp_usartx_rs485.o(i.UART_Tx)
    i.UART_WaitOnFlagUntilTimeout            0x0800457c   Section        0  stm32f4xx_hal_uart.o(i.UART_WaitOnFlagUntilTimeout)
    UART_WaitOnFlagUntilTimeout              0x0800457d   Thumb Code   120  stm32f4xx_hal_uart.o(i.UART_WaitOnFlagUntilTimeout)
    i.USART3_IRQHandler                      0x080045f4   Section        0  stm32f4xx_it.o(i.USART3_IRQHandler)
    i.UsageFault_Handler                     0x08004600   Section        0  stm32f4xx_it.o(i.UsageFault_Handler)
    i.YSF4_TCP_SENDData                      0x08004604   Section        0  tcp_echoserver.o(i.YSF4_TCP_SENDData)
    i.__0printf                              0x08004814   Section        0  printfa.o(i.__0printf)
    i.__0sprintf                             0x08004834   Section        0  printfa.o(i.__0sprintf)
    i.__scatterload_copy                     0x0800485c   Section       14  handlers.o(i.__scatterload_copy)
    i.__scatterload_null                     0x0800486a   Section        2  handlers.o(i.__scatterload_null)
    i.__scatterload_zeroinit                 0x0800486c   Section       14  handlers.o(i.__scatterload_zeroinit)
    i._fp_digits                             0x0800487c   Section        0  printfa.o(i._fp_digits)
    _fp_digits                               0x0800487d   Thumb Code   366  printfa.o(i._fp_digits)
    i._printf_core                           0x08004a00   Section        0  printfa.o(i._printf_core)
    _printf_core                             0x08004a01   Thumb Code  1744  printfa.o(i._printf_core)
    i._printf_post_padding                   0x080050dc   Section        0  printfa.o(i._printf_post_padding)
    _printf_post_padding                     0x080050dd   Thumb Code    36  printfa.o(i._printf_post_padding)
    i._printf_pre_padding                    0x08005100   Section        0  printfa.o(i._printf_pre_padding)
    _printf_pre_padding                      0x08005101   Thumb Code    46  printfa.o(i._printf_pre_padding)
    i._sputc                                 0x0800512e   Section        0  printfa.o(i._sputc)
    _sputc                                   0x0800512f   Thumb Code    10  printfa.o(i._sputc)
    i.cyclic_timer                           0x08005138   Section        0  timeouts.o(i.cyclic_timer)
    cyclic_timer                             0x08005139   Thumb Code    22  timeouts.o(i.cyclic_timer)
    i.dhcp_arp_reply                         0x08005154   Section        0  dhcp.o(i.dhcp_arp_reply)
    i.dhcp_bind                              0x08005174   Section        0  dhcp.o(i.dhcp_bind)
    dhcp_bind                                0x08005175   Thumb Code   234  dhcp.o(i.dhcp_bind)
    i.dhcp_check                             0x08005264   Section        0  dhcp.o(i.dhcp_check)
    dhcp_check                               0x08005265   Thumb Code    52  dhcp.o(i.dhcp_check)
    i.dhcp_coarse_tmr                        0x08005298   Section        0  dhcp.o(i.dhcp_coarse_tmr)
    i.dhcp_create_msg                        0x08005300   Section        0  dhcp.o(i.dhcp_create_msg)
    dhcp_create_msg                          0x08005301   Thumb Code   300  dhcp.o(i.dhcp_create_msg)
    i.dhcp_dec_pcb_refcount                  0x08005434   Section        0  dhcp.o(i.dhcp_dec_pcb_refcount)
    dhcp_dec_pcb_refcount                    0x08005435   Thumb Code    28  dhcp.o(i.dhcp_dec_pcb_refcount)
    i.dhcp_decline                           0x08005454   Section        0  dhcp.o(i.dhcp_decline)
    dhcp_decline                             0x08005455   Thumb Code   130  dhcp.o(i.dhcp_decline)
    i.dhcp_delete_msg                        0x080054e4   Section        0  dhcp.o(i.dhcp_delete_msg)
    dhcp_delete_msg                          0x080054e5   Thumb Code    24  dhcp.o(i.dhcp_delete_msg)
    i.dhcp_discover                          0x080054fc   Section        0  dhcp.o(i.dhcp_discover)
    dhcp_discover                            0x080054fd   Thumb Code   200  dhcp.o(i.dhcp_discover)
    i.dhcp_fine_tmr                          0x080055d4   Section        0  dhcp.o(i.dhcp_fine_tmr)
    i.dhcp_handle_ack                        0x08005608   Section        0  dhcp.o(i.dhcp_handle_ack)
    dhcp_handle_ack                          0x08005609   Thumb Code   104  dhcp.o(i.dhcp_handle_ack)
    i.dhcp_handle_nak                        0x08005674   Section        0  dhcp.o(i.dhcp_handle_nak)
    dhcp_handle_nak                          0x08005675   Thumb Code    34  dhcp.o(i.dhcp_handle_nak)
    i.dhcp_handle_offer                      0x0800569c   Section        0  dhcp.o(i.dhcp_handle_offer)
    dhcp_handle_offer                        0x0800569d   Thumb Code    42  dhcp.o(i.dhcp_handle_offer)
    i.dhcp_inc_pcb_refcount                  0x080056d0   Section        0  dhcp.o(i.dhcp_inc_pcb_refcount)
    dhcp_inc_pcb_refcount                    0x080056d1   Thumb Code    70  dhcp.o(i.dhcp_inc_pcb_refcount)
    i.dhcp_network_changed                   0x08005724   Section        0  dhcp.o(i.dhcp_network_changed)
    i.dhcp_option                            0x08005754   Section        0  dhcp.o(i.dhcp_option)
    dhcp_option                              0x08005755   Thumb Code    34  dhcp.o(i.dhcp_option)
    i.dhcp_option_byte                       0x08005776   Section        0  dhcp.o(i.dhcp_option_byte)
    dhcp_option_byte                         0x08005777   Thumb Code    14  dhcp.o(i.dhcp_option_byte)
    i.dhcp_option_long                       0x08005784   Section        0  dhcp.o(i.dhcp_option_long)
    dhcp_option_long                         0x08005785   Thumb Code    68  dhcp.o(i.dhcp_option_long)
    i.dhcp_option_short                      0x080057c8   Section        0  dhcp.o(i.dhcp_option_short)
    dhcp_option_short                        0x080057c9   Thumb Code    32  dhcp.o(i.dhcp_option_short)
    i.dhcp_option_trailer                    0x080057e8   Section        0  dhcp.o(i.dhcp_option_trailer)
    dhcp_option_trailer                      0x080057e9   Thumb Code    50  dhcp.o(i.dhcp_option_trailer)
    i.dhcp_parse_reply                       0x0800581c   Section        0  dhcp.o(i.dhcp_parse_reply)
    dhcp_parse_reply                         0x0800581d   Thumb Code   690  dhcp.o(i.dhcp_parse_reply)
    i.dhcp_rebind                            0x08005ad8   Section        0  dhcp.o(i.dhcp_rebind)
    dhcp_rebind                              0x08005ad9   Thumb Code   172  dhcp.o(i.dhcp_rebind)
    i.dhcp_reboot                            0x08005b90   Section        0  dhcp.o(i.dhcp_reboot)
    dhcp_reboot                              0x08005b91   Thumb Code   198  dhcp.o(i.dhcp_reboot)
    i.dhcp_recv                              0x08005c64   Section        0  dhcp.o(i.dhcp_recv)
    dhcp_recv                                0x08005c65   Thumb Code   246  dhcp.o(i.dhcp_recv)
    i.dhcp_release                           0x08005d68   Section        0  dhcp.o(i.dhcp_release)
    i.dhcp_renew                             0x08005e1c   Section        0  dhcp.o(i.dhcp_renew)
    i.dhcp_select                            0x08005ed4   Section        0  dhcp.o(i.dhcp_select)
    dhcp_select                              0x08005ed5   Thumb Code   244  dhcp.o(i.dhcp_select)
    i.dhcp_set_state                         0x08005fd8   Section        0  dhcp.o(i.dhcp_set_state)
    dhcp_set_state                           0x08005fd9   Thumb Code    16  dhcp.o(i.dhcp_set_state)
    i.dhcp_start                             0x08005fe8   Section        0  dhcp.o(i.dhcp_start)
    i.dhcp_stop                              0x0800607c   Section        0  dhcp.o(i.dhcp_stop)
    i.dhcp_supplied_address                  0x080060a0   Section        0  dhcp.o(i.dhcp_supplied_address)
    i.dhcp_t1_timeout                        0x080060be   Section        0  dhcp.o(i.dhcp_t1_timeout)
    dhcp_t1_timeout                          0x080060bf   Thumb Code    42  dhcp.o(i.dhcp_t1_timeout)
    i.dhcp_t2_timeout                        0x080060e8   Section        0  dhcp.o(i.dhcp_t2_timeout)
    dhcp_t2_timeout                          0x080060e9   Thumb Code    46  dhcp.o(i.dhcp_t2_timeout)
    i.dhcp_timeout                           0x08006116   Section        0  dhcp.o(i.dhcp_timeout)
    dhcp_timeout                             0x08006117   Thumb Code   124  dhcp.o(i.dhcp_timeout)
    i.do_memp_free_pool                      0x08006192   Section        0  memp.o(i.do_memp_free_pool)
    do_memp_free_pool                        0x08006193   Thumb Code    12  memp.o(i.do_memp_free_pool)
    i.do_memp_malloc_pool                    0x0800619e   Section        0  memp.o(i.do_memp_malloc_pool)
    do_memp_malloc_pool                      0x0800619f   Thumb Code    18  memp.o(i.do_memp_malloc_pool)
    i.etharp_cleanup_netif                   0x080061b0   Section        0  etharp.o(i.etharp_cleanup_netif)
    i.etharp_find_entry                      0x080061e0   Section        0  etharp.o(i.etharp_find_entry)
    etharp_find_entry                        0x080061e1   Thumb Code   262  etharp.o(i.etharp_find_entry)
    i.etharp_free_entry                      0x080062ec   Section        0  etharp.o(i.etharp_free_entry)
    etharp_free_entry                        0x080062ed   Thumb Code    34  etharp.o(i.etharp_free_entry)
    i.etharp_input                           0x08006314   Section        0  etharp.o(i.etharp_input)
    i.etharp_output                          0x080063dc   Section        0  etharp.o(i.etharp_output)
    i.etharp_output_to_arp_index             0x080064e8   Section        0  etharp.o(i.etharp_output_to_arp_index)
    etharp_output_to_arp_index               0x080064e9   Thumb Code    92  etharp.o(i.etharp_output_to_arp_index)
    i.etharp_query                           0x08006548   Section        0  etharp.o(i.etharp_query)
    i.etharp_raw                             0x08006670   Section        0  etharp.o(i.etharp_raw)
    etharp_raw                               0x08006671   Thumb Code   138  etharp.o(i.etharp_raw)
    i.etharp_request                         0x080066fc   Section        0  etharp.o(i.etharp_request)
    i.etharp_request_dst                     0x08006708   Section        0  etharp.o(i.etharp_request_dst)
    etharp_request_dst                       0x08006709   Thumb Code    36  etharp.o(i.etharp_request_dst)
    i.etharp_tmr                             0x08006730   Section        0  etharp.o(i.etharp_tmr)
    i.etharp_update_arp_entry                0x08006794   Section        0  etharp.o(i.etharp_update_arp_entry)
    etharp_update_arp_entry                  0x08006795   Thumb Code   126  etharp.o(i.etharp_update_arp_entry)
    i.ethernet_input                         0x08006818   Section        0  ethernet.o(i.ethernet_input)
    i.ethernet_link_check_state              0x080068c0   Section        0  ethernetif.o(i.ethernet_link_check_state)
    i.ethernet_link_status_updated           0x080069a4   Section        0  app_ethernet.o(i.ethernet_link_status_updated)
    i.ethernet_output                        0x08006a20   Section        0  ethernet.o(i.ethernet_output)
    i.ethernetif_init                        0x08006a74   Section        0  ethernetif.o(i.ethernetif_init)
    i.ethernetif_input                       0x08006a9c   Section        0  ethernetif.o(i.ethernetif_input)
    i.fputc                                  0x08006ac4   Section        0  bsp_debug_usart.o(i.fputc)
    i.icmp_dest_unreach                      0x08006ae0   Section        0  icmp.o(i.icmp_dest_unreach)
    i.icmp_input                             0x08006ae8   Section        0  icmp.o(i.icmp_input)
    i.icmp_send_response                     0x08006c2c   Section        0  icmp.o(i.icmp_send_response)
    icmp_send_response                       0x08006c2d   Thumb Code   114  icmp.o(i.icmp_send_response)
    i.icmp_time_exceeded                     0x08006c9e   Section        0  icmp.o(i.icmp_time_exceeded)
    i.inet_chksum_pbuf                       0x08006ca6   Section        0  inet_chksum.o(i.inet_chksum_pbuf)
    i.ip4_addr_isbroadcast_u32               0x08006cf2   Section        0  ip4_addr.o(i.ip4_addr_isbroadcast_u32)
    i.ip4_frag                               0x08006d44   Section        0  ip4_frag.o(i.ip4_frag)
    i.ip4_input                              0x08006ee8   Section        0  ip4.o(i.ip4_input)
    i.ip4_output_if                          0x080070dc   Section        0  ip4.o(i.ip4_output_if)
    i.ip4_output_if_src                      0x08007108   Section        0  ip4.o(i.ip4_output_if_src)
    i.ip4_reass                              0x080071c4   Section        0  ip4_frag.o(i.ip4_reass)
    i.ip4_route                              0x08007344   Section        0  ip4.o(i.ip4_route)
    i.ip4addr_ntoa                           0x080073b8   Section        0  ip4_addr.o(i.ip4addr_ntoa)
    i.ip4addr_ntoa_r                         0x080073c4   Section        0  ip4_addr.o(i.ip4addr_ntoa_r)
    i.ip_frag_alloc_pbuf_custom_ref          0x08007474   Section        0  ip4_frag.o(i.ip_frag_alloc_pbuf_custom_ref)
    ip_frag_alloc_pbuf_custom_ref            0x08007475   Thumb Code     6  ip4_frag.o(i.ip_frag_alloc_pbuf_custom_ref)
    i.ip_frag_free_pbuf_custom_ref           0x0800747a   Section        0  ip4_frag.o(i.ip_frag_free_pbuf_custom_ref)
    ip_frag_free_pbuf_custom_ref             0x0800747b   Thumb Code     8  ip4_frag.o(i.ip_frag_free_pbuf_custom_ref)
    i.ip_reass_chain_frag_into_datagram_and_validate 0x08007484   Section        0  ip4_frag.o(i.ip_reass_chain_frag_into_datagram_and_validate)
    ip_reass_chain_frag_into_datagram_and_validate 0x08007485   Thumb Code   244  ip4_frag.o(i.ip_reass_chain_frag_into_datagram_and_validate)
    i.ip_reass_dequeue_datagram              0x0800757c   Section        0  ip4_frag.o(i.ip_reass_dequeue_datagram)
    ip_reass_dequeue_datagram                0x0800757d   Thumb Code    28  ip4_frag.o(i.ip_reass_dequeue_datagram)
    i.ip_reass_enqueue_new_datagram          0x0800759c   Section        0  ip4_frag.o(i.ip_reass_enqueue_new_datagram)
    ip_reass_enqueue_new_datagram            0x0800759d   Thumb Code    94  ip4_frag.o(i.ip_reass_enqueue_new_datagram)
    i.ip_reass_free_complete_datagram        0x08007600   Section        0  ip4_frag.o(i.ip_reass_free_complete_datagram)
    ip_reass_free_complete_datagram          0x08007601   Thumb Code   120  ip4_frag.o(i.ip_reass_free_complete_datagram)
    i.ip_reass_remove_oldest_datagram        0x0800767c   Section        0  ip4_frag.o(i.ip_reass_remove_oldest_datagram)
    ip_reass_remove_oldest_datagram          0x0800767d   Thumb Code   118  ip4_frag.o(i.ip_reass_remove_oldest_datagram)
    i.ip_reass_tmr                           0x080076f8   Section        0  ip4_frag.o(i.ip_reass_tmr)
    i.ipfrag_free_pbuf_custom                0x08007728   Section        0  ip4_frag.o(i.ipfrag_free_pbuf_custom)
    ipfrag_free_pbuf_custom                  0x08007729   Thumb Code    24  ip4_frag.o(i.ipfrag_free_pbuf_custom)
    i.low_level_init                         0x08007740   Section        0  ethernetif.o(i.low_level_init)
    low_level_init                           0x08007741   Thumb Code   224  ethernetif.o(i.low_level_init)
    i.low_level_input                        0x0800785c   Section        0  ethernetif.o(i.low_level_input)
    low_level_input                          0x0800785d   Thumb Code   192  ethernetif.o(i.low_level_input)
    i.low_level_output                       0x08007920   Section        0  ethernetif.o(i.low_level_output)
    low_level_output                         0x08007921   Thumb Code   180  ethernetif.o(i.low_level_output)
    i.lwip_IT_handle                         0x080079d8   Section        0  ethernetif.o(i.lwip_IT_handle)
    i.lwip_htonl                             0x080079e4   Section        0  def.o(i.lwip_htonl)
    i.lwip_htons                             0x080079fc   Section        0  def.o(i.lwip_htons)
    i.lwip_init                              0x08007a06   Section        0  init.o(i.lwip_init)
    i.lwip_standard_chksum                   0x08007a24   Section        0  inet_chksum.o(i.lwip_standard_chksum)
    i.main                                   0x08007a80   Section        0  main.o(i.main)
    i.mem_free                               0x08007c08   Section        0  mem.o(i.mem_free)
    i.mem_init                               0x08007c34   Section        0  mem.o(i.mem_init)
    i.mem_malloc                             0x08007c68   Section        0  mem.o(i.mem_malloc)
    i.mem_trim                               0x08007d28   Section        0  mem.o(i.mem_trim)
    i.memp_free                              0x08007e0c   Section        0  memp.o(i.memp_free)
    i.memp_init                              0x08007e24   Section        0  memp.o(i.memp_init)
    i.memp_init_pool                         0x08007e40   Section        0  memp.o(i.memp_init_pool)
    i.memp_malloc                            0x08007e70   Section        0  memp.o(i.memp_malloc)
    i.netif_add                              0x08007e88   Section        0  netif.o(i.netif_add)
    i.netif_init                             0x08007ee0   Section        0  netif.o(i.netif_init)
    i.netif_issue_reports                    0x08007ee2   Section        0  netif.o(i.netif_issue_reports)
    netif_issue_reports                      0x08007ee3   Thumb Code    30  netif.o(i.netif_issue_reports)
    i.netif_set_addr                         0x08007f00   Section        0  netif.o(i.netif_set_addr)
    i.netif_set_default                      0x08007f4c   Section        0  netif.o(i.netif_set_default)
    i.netif_set_down                         0x08007f58   Section        0  netif.o(i.netif_set_down)
    i.netif_set_gw                           0x08007f76   Section        0  netif.o(i.netif_set_gw)
    i.netif_set_ipaddr                       0x08007f84   Section        0  netif.o(i.netif_set_ipaddr)
    i.netif_set_link_callback                0x08007fcc   Section        0  netif.o(i.netif_set_link_callback)
    i.netif_set_link_down                    0x08007fd4   Section        0  netif.o(i.netif_set_link_down)
    i.netif_set_link_up                      0x08007ff0   Section        0  netif.o(i.netif_set_link_up)
    i.netif_set_netmask                      0x0800802e   Section        0  netif.o(i.netif_set_netmask)
    i.netif_set_up                           0x0800803c   Section        0  netif.o(i.netif_set_up)
    i.pbuf_alloc                             0x0800805c   Section        0  pbuf.o(i.pbuf_alloc)
    i.pbuf_alloced_custom                    0x08008196   Section        0  pbuf.o(i.pbuf_alloced_custom)
    i.pbuf_cat                               0x080081fe   Section        0  pbuf.o(i.pbuf_cat)
    i.pbuf_chain                             0x08008226   Section        0  pbuf.o(i.pbuf_chain)
    i.pbuf_clen                              0x0800823a   Section        0  pbuf.o(i.pbuf_clen)
    i.pbuf_copy                              0x0800824e   Section        0  pbuf.o(i.pbuf_copy)
    i.pbuf_copy_partial                      0x080082f6   Section        0  pbuf.o(i.pbuf_copy_partial)
    i.pbuf_free                              0x08008366   Section        0  pbuf.o(i.pbuf_free)
    i.pbuf_header                            0x080083c4   Section        0  pbuf.o(i.pbuf_header)
    i.pbuf_header_force                      0x080083ca   Section        0  pbuf.o(i.pbuf_header_force)
    i.pbuf_header_impl                       0x080083d0   Section        0  pbuf.o(i.pbuf_header_impl)
    pbuf_header_impl                         0x080083d1   Thumb Code   138  pbuf.o(i.pbuf_header_impl)
    i.pbuf_realloc                           0x0800845a   Section        0  pbuf.o(i.pbuf_realloc)
    i.pbuf_ref                               0x080084b6   Section        0  pbuf.o(i.pbuf_ref)
    i.pbuf_take                              0x080084c2   Section        0  pbuf.o(i.pbuf_take)
    i.plug_holes                             0x08008520   Section        0  mem.o(i.plug_holes)
    plug_holes                               0x08008521   Thumb Code    98  mem.o(i.plug_holes)
    i.sys_check_timeouts                     0x08008588   Section        0  timeouts.o(i.sys_check_timeouts)
    i.sys_now                                0x080085d4   Section        0  ethernetif.o(i.sys_now)
    i.sys_timeout                            0x080085d8   Section        0  timeouts.o(i.sys_timeout)
    i.sys_timeouts_init                      0x08008680   Section        0  timeouts.o(i.sys_timeouts_init)
    i.tcp_abandon                            0x080086b0   Section        0  tcp.o(i.tcp_abandon)
    i.tcp_abort                              0x08008784   Section        0  tcp.o(i.tcp_abort)
    i.tcp_accept                             0x0800878a   Section        0  tcp.o(i.tcp_accept)
    i.tcp_accept_null                        0x08008798   Section        0  tcp.o(i.tcp_accept_null)
    tcp_accept_null                          0x08008799   Thumb Code    14  tcp.o(i.tcp_accept_null)
    i.tcp_alloc                              0x080087a8   Section        0  tcp.o(i.tcp_alloc)
    i.tcp_arg                                0x08008858   Section        0  tcp.o(i.tcp_arg)
    i.tcp_bind                               0x08008860   Section        0  tcp.o(i.tcp_bind)
    i.tcp_close                              0x080088fc   Section        0  tcp.o(i.tcp_close)
    i.tcp_close_shutdown                     0x08008910   Section        0  tcp.o(i.tcp_close_shutdown)
    tcp_close_shutdown                       0x08008911   Thumb Code   368  tcp.o(i.tcp_close_shutdown)
    i.tcp_create_segment                     0x08008a9c   Section        0  tcp_out.o(i.tcp_create_segment)
    tcp_create_segment                       0x08008a9d   Thumb Code   154  tcp_out.o(i.tcp_create_segment)
    i.tcp_echoserver_accept                  0x08008b38   Section        0  tcp_echoserver.o(i.tcp_echoserver_accept)
    tcp_echoserver_accept                    0x08008b39   Thumb Code   130  tcp_echoserver.o(i.tcp_echoserver_accept)
    i.tcp_echoserver_connection_close        0x08008bf0   Section        0  tcp_echoserver.o(i.tcp_echoserver_connection_close)
    tcp_echoserver_connection_close          0x08008bf1   Thumb Code    66  tcp_echoserver.o(i.tcp_echoserver_connection_close)
    i.tcp_echoserver_error                   0x08008c32   Section        0  tcp_echoserver.o(i.tcp_echoserver_error)
    tcp_echoserver_error                     0x08008c33   Thumb Code    10  tcp_echoserver.o(i.tcp_echoserver_error)
    i.tcp_echoserver_poll                    0x08008c3c   Section        0  tcp_echoserver.o(i.tcp_echoserver_poll)
    tcp_echoserver_poll                      0x08008c3d   Thumb Code    42  tcp_echoserver.o(i.tcp_echoserver_poll)
    i.tcp_echoserver_recv                    0x08008c68   Section        0  tcp_echoserver.o(i.tcp_echoserver_recv)
    tcp_echoserver_recv                      0x08008c69   Thumb Code   204  tcp_echoserver.o(i.tcp_echoserver_recv)
    i.tcp_echoserver_send                    0x08008d50   Section        0  tcp_echoserver.o(i.tcp_echoserver_send)
    tcp_echoserver_send                      0x08008d51   Thumb Code   108  tcp_echoserver.o(i.tcp_echoserver_send)
    i.tcp_eff_send_mss_impl                  0x08008dc4   Section        0  tcp.o(i.tcp_eff_send_mss_impl)
    i.tcp_enqueue_flags                      0x08008dea   Section        0  tcp_out.o(i.tcp_enqueue_flags)
    i.tcp_err                                0x08008ea8   Section        0  tcp.o(i.tcp_err)
    i.tcp_fasttmr                            0x08008eb4   Section        0  tcp.o(i.tcp_fasttmr)
    i.tcp_getoptbyte                         0x08008f14   Section        0  tcp_in.o(i.tcp_getoptbyte)
    tcp_getoptbyte                           0x08008f15   Thumb Code    54  tcp_in.o(i.tcp_getoptbyte)
    i.tcp_init                               0x08008f50   Section        0  tcp.o(i.tcp_init)
    i.tcp_input                              0x08008f54   Section        0  tcp_in.o(i.tcp_input)
    i.tcp_keepalive                          0x08009324   Section        0  tcp_out.o(i.tcp_keepalive)
    i.tcp_kill_prio                          0x0800937c   Section        0  tcp.o(i.tcp_kill_prio)
    tcp_kill_prio                            0x0800937d   Thumb Code    68  tcp.o(i.tcp_kill_prio)
    i.tcp_kill_state                         0x080093c4   Section        0  tcp.o(i.tcp_kill_state)
    tcp_kill_state                           0x080093c5   Thumb Code    58  tcp.o(i.tcp_kill_state)
    i.tcp_kill_timewait                      0x08009404   Section        0  tcp.o(i.tcp_kill_timewait)
    tcp_kill_timewait                        0x08009405   Thumb Code    46  tcp.o(i.tcp_kill_timewait)
    i.tcp_listen_closed                      0x08009438   Section        0  tcp.o(i.tcp_listen_closed)
    tcp_listen_closed                        0x08009439   Thumb Code    28  tcp.o(i.tcp_listen_closed)
    i.tcp_listen_input                       0x08009458   Section        0  tcp_in.o(i.tcp_listen_input)
    tcp_listen_input                         0x08009459   Thumb Code   234  tcp_in.o(i.tcp_listen_input)
    i.tcp_listen_with_backlog                0x08009554   Section        0  tcp.o(i.tcp_listen_with_backlog)
    i.tcp_netif_ip_addr_changed              0x080095e4   Section        0  tcp.o(i.tcp_netif_ip_addr_changed)
    i.tcp_netif_ip_addr_changed_pcblist      0x08009634   Section        0  tcp.o(i.tcp_netif_ip_addr_changed_pcblist)
    tcp_netif_ip_addr_changed_pcblist        0x08009635   Thumb Code    36  tcp.o(i.tcp_netif_ip_addr_changed_pcblist)
    i.tcp_new                                0x08009658   Section        0  tcp.o(i.tcp_new)
    i.tcp_new_port                           0x08009660   Section        0  tcp.o(i.tcp_new_port)
    tcp_new_port                             0x08009661   Thumb Code    88  tcp.o(i.tcp_new_port)
    i.tcp_next_iss                           0x080096c0   Section        0  tcp.o(i.tcp_next_iss)
    i.tcp_output                             0x080096d0   Section        0  tcp_out.o(i.tcp_output)
    i.tcp_output_alloc_header                0x080098d0   Section        0  tcp_out.o(i.tcp_output_alloc_header)
    tcp_output_alloc_header                  0x080098d1   Thumb Code   106  tcp_out.o(i.tcp_output_alloc_header)
    i.tcp_output_segment                     0x0800993c   Section        0  tcp_out.o(i.tcp_output_segment)
    tcp_output_segment                       0x0800993d   Thumb Code   176  tcp_out.o(i.tcp_output_segment)
    i.tcp_parseopt                           0x080099f0   Section        0  tcp_in.o(i.tcp_parseopt)
    tcp_parseopt                             0x080099f1   Thumb Code   114  tcp_in.o(i.tcp_parseopt)
    i.tcp_pbuf_prealloc                      0x08009a68   Section        0  tcp_out.o(i.tcp_pbuf_prealloc)
    tcp_pbuf_prealloc                        0x08009a69   Thumb Code    86  tcp_out.o(i.tcp_pbuf_prealloc)
    i.tcp_pcb_purge                          0x08009abe   Section        0  tcp.o(i.tcp_pcb_purge)
    i.tcp_pcb_remove                         0x08009af8   Section        0  tcp.o(i.tcp_pcb_remove)
    i.tcp_poll                               0x08009b64   Section        0  tcp.o(i.tcp_poll)
    i.tcp_process                            0x08009b6c   Section        0  tcp_in.o(i.tcp_process)
    tcp_process                              0x08009b6d   Thumb Code  1172  tcp_in.o(i.tcp_process)
    i.tcp_process_refused_data               0x0800a000   Section        0  tcp.o(i.tcp_process_refused_data)
    i.tcp_receive                            0x0800a07c   Section        0  tcp_in.o(i.tcp_receive)
    tcp_receive                              0x0800a07d   Thumb Code  1068  tcp_in.o(i.tcp_receive)
    i.tcp_recv                               0x0800a4a8   Section        0  tcp.o(i.tcp_recv)
    i.tcp_recv_null                          0x0800a4b0   Section        0  tcp.o(i.tcp_recv_null)
    i.tcp_recved                             0x0800a4d8   Section        0  tcp.o(i.tcp_recved)
    i.tcp_remove_listener                    0x0800a534   Section        0  tcp.o(i.tcp_remove_listener)
    tcp_remove_listener                      0x0800a535   Thumb Code    22  tcp.o(i.tcp_remove_listener)
    i.tcp_rexmit                             0x0800a54a   Section        0  tcp_out.o(i.tcp_rexmit)
    i.tcp_rexmit_fast                        0x0800a59c   Section        0  tcp_out.o(i.tcp_rexmit_fast)
    i.tcp_rexmit_rto                         0x0800a604   Section        0  tcp_out.o(i.tcp_rexmit_rto)
    i.tcp_rst                                0x0800a64c   Section        0  tcp_out.o(i.tcp_rst)
    i.tcp_seg_free                           0x0800a6d4   Section        0  tcp.o(i.tcp_seg_free)
    i.tcp_segs_free                          0x0800a6f2   Section        0  tcp.o(i.tcp_segs_free)
    i.tcp_send_empty_ack                     0x0800a706   Section        0  tcp_out.o(i.tcp_send_empty_ack)
    i.tcp_send_fin                           0x0800a77a   Section        0  tcp_out.o(i.tcp_send_fin)
    i.tcp_sent                               0x0800a7c4   Section        0  tcp.o(i.tcp_sent)
    i.tcp_server_usersent                    0x0800a7cc   Section        0  tcp_echoserver.o(i.tcp_server_usersent)
    i.tcp_setprio                            0x0800a928   Section        0  tcp.o(i.tcp_setprio)
    i.tcp_slowtmr                            0x0800a92c   Section        0  tcp.o(i.tcp_slowtmr)
    i.tcp_timer_needed                       0x0800abd4   Section        0  timeouts.o(i.tcp_timer_needed)
    i.tcp_timewait_input                     0x0800ac08   Section        0  tcp_in.o(i.tcp_timewait_input)
    tcp_timewait_input                       0x0800ac09   Thumb Code   126  tcp_in.o(i.tcp_timewait_input)
    i.tcp_tmr                                0x0800aca0   Section        0  tcp.o(i.tcp_tmr)
    i.tcp_trigger_input_pcb_close            0x0800acc4   Section        0  tcp_in.o(i.tcp_trigger_input_pcb_close)
    i.tcp_update_rcv_ann_wnd                 0x0800acd4   Section        0  tcp.o(i.tcp_update_rcv_ann_wnd)
    i.tcp_write                              0x0800ad12   Section        0  tcp_out.o(i.tcp_write)
    i.tcp_write_checks                       0x0800afe6   Section        0  tcp_out.o(i.tcp_write_checks)
    tcp_write_checks                         0x0800afe7   Thumb Code    78  tcp_out.o(i.tcp_write_checks)
    i.tcp_zero_window_probe                  0x0800b034   Section        0  tcp_out.o(i.tcp_zero_window_probe)
    i.tcpip_tcp_timer                        0x0800b100   Section        0  timeouts.o(i.tcpip_tcp_timer)
    tcpip_tcp_timer                          0x0800b101   Thumb Code    40  timeouts.o(i.tcpip_tcp_timer)
    i.udp_bind                               0x0800b138   Section        0  udp.o(i.udp_bind)
    i.udp_connect                            0x0800b1c4   Section        0  udp.o(i.udp_connect)
    i.udp_init                               0x0800b21c   Section        0  udp.o(i.udp_init)
    i.udp_input                              0x0800b220   Section        0  udp.o(i.udp_input)
    i.udp_input_local_match                  0x0800b364   Section        0  udp.o(i.udp_input_local_match)
    udp_input_local_match                    0x0800b365   Thumb Code    52  udp.o(i.udp_input_local_match)
    i.udp_netif_ip_addr_changed              0x0800b39c   Section        0  udp.o(i.udp_netif_ip_addr_changed)
    i.udp_new                                0x0800b3d4   Section        0  udp.o(i.udp_new)
    i.udp_new_port                           0x0800b3f8   Section        0  udp.o(i.udp_new_port)
    udp_new_port                             0x0800b3f9   Thumb Code    70  udp.o(i.udp_new_port)
    i.udp_recv                               0x0800b444   Section        0  udp.o(i.udp_recv)
    i.udp_remove                             0x0800b44c   Section        0  udp.o(i.udp_remove)
    i.udp_sendto_if                          0x0800b47c   Section        0  udp.o(i.udp_sendto_if)
    i.udp_sendto_if_src                      0x0800b4c4   Section        0  udp.o(i.udp_sendto_if_src)
    .constdata                               0x0800b57e   Section       16  system_stm32f4xx.o(.constdata)
    .constdata                               0x0800b58e   Section        8  system_stm32f4xx.o(.constdata)
    .constdata                               0x0800b596   Section      512  bsp_mb_host.o(.constdata)
    auchCRCHi                                0x0800b596   Data         256  bsp_mb_host.o(.constdata)
    auchCRCLo                                0x0800b696   Data         256  bsp_mb_host.o(.constdata)
    .constdata                               0x0800b796   Section      512  bsp_usartx_rs232.o(.constdata)
    auchCRCHi                                0x0800b796   Data         256  bsp_usartx_rs232.o(.constdata)
    auchCRCLo                                0x0800b896   Data         256  bsp_usartx_rs232.o(.constdata)
    .constdata                               0x0800b998   Section        4  ip4_addr.o(.constdata)
    .constdata                               0x0800b99c   Section        4  ip4_addr.o(.constdata)
    .constdata                               0x0800b9a0   Section        6  ethernet.o(.constdata)
    .constdata                               0x0800b9a6   Section        6  ethernet.o(.constdata)
    .constdata                               0x0800b9ac   Section       12  memp.o(.constdata)
    .constdata                               0x0800b9b8   Section       12  memp.o(.constdata)
    .constdata                               0x0800b9c4   Section       12  memp.o(.constdata)
    .constdata                               0x0800b9d0   Section       12  memp.o(.constdata)
    .constdata                               0x0800b9dc   Section       12  memp.o(.constdata)
    .constdata                               0x0800b9e8   Section       12  memp.o(.constdata)
    .constdata                               0x0800b9f4   Section       12  memp.o(.constdata)
    .constdata                               0x0800ba00   Section       12  memp.o(.constdata)
    .constdata                               0x0800ba0c   Section       12  memp.o(.constdata)
    .constdata                               0x0800ba18   Section       36  memp.o(.constdata)
    .constdata                               0x0800ba3c   Section       84  tcp.o(.constdata)
    tcp_persist_backoff                      0x0800ba3c   Data           7  tcp.o(.constdata)
    tcp_state_str                            0x0800ba44   Data          44  tcp.o(.constdata)
    tcp_backoff                              0x0800ba70   Data          13  tcp.o(.constdata)
    .constdata                               0x0800ba90   Section       40  timeouts.o(.constdata)
    .conststring                             0x0800bab8   Section      116  tcp_echoserver.o(.conststring)
    .conststring                             0x0800bb2c   Section      117  tcp.o(.conststring)
    .data                                    0x20000000   Section      130  main.o(.data)
    crc_check                                0x20000008   Data           2  main.o(.data)
    crc_check_rs232                          0x2000000a   Data           2  main.o(.data)
    .data                                    0x20000082   Section        1  main.o(.data)
    .data                                    0x20000083   Section        1  main.o(.data)
    .data                                    0x20000084   Section        1  main.o(.data)
    .data                                    0x20000085   Section        1  main.o(.data)
    .data                                    0x20000088   Section       12  app_ethernet.o(.data)
    .data                                    0x20000094   Section       20  tcp_echoserver.o(.data)
    .data                                    0x200000a8   Section        4  stm32f4xx_hal.o(.data)
    .data                                    0x200000ac   Section        4  system_stm32f4xx.o(.data)
    .data                                    0x200000b0   Section        2  bsp_debug_usart.o(.data)
    .data                                    0x200000b2   Section        2  bsp_debug_usart.o(.data)
    .data                                    0x200000b4   Section        1  bsp_debug_usart.o(.data)
    .data                                    0x200000b5   Section        1  bsp_debug_usart.o(.data)
    .data                                    0x200000b6   Section        3  bsp_usartx_rs232.o(.data)
    .data                                    0x200000bc   Section       16  dhcp.o(.data)
    dhcp_pcb_refcount                        0x200000bc   Data           1  dhcp.o(.data)
    dhcp_discover_request_options            0x200000bd   Data           4  dhcp.o(.data)
    xid                                      0x200000c4   Data           4  dhcp.o(.data)
    dhcp_pcb                                 0x200000c8   Data           4  dhcp.o(.data)
    .data                                    0x200000cc   Section        1  etharp.o(.data)
    etharp_cached_entry                      0x200000cc   Data           1  etharp.o(.data)
    .data                                    0x200000ce   Section        2  ip4.o(.data)
    ip_id                                    0x200000ce   Data           2  ip4.o(.data)
    .data                                    0x200000d0   Section        8  ip4_frag.o(.data)
    ip_reass_pbufcount                       0x200000d0   Data           2  ip4_frag.o(.data)
    reassdatagrams                           0x200000d4   Data           4  ip4_frag.o(.data)
    .data                                    0x200000d8   Section       12  mem.o(.data)
    ram                                      0x200000d8   Data           4  mem.o(.data)
    ram_end                                  0x200000dc   Data           4  mem.o(.data)
    lfree                                    0x200000e0   Data           4  mem.o(.data)
    .data                                    0x200000e4   Section        4  memp.o(.data)
    memp_tab_UDP_PCB                         0x200000e4   Data           4  memp.o(.data)
    .data                                    0x200000e8   Section        4  memp.o(.data)
    memp_tab_TCP_PCB                         0x200000e8   Data           4  memp.o(.data)
    .data                                    0x200000ec   Section        4  memp.o(.data)
    memp_tab_TCP_PCB_LISTEN                  0x200000ec   Data           4  memp.o(.data)
    .data                                    0x200000f0   Section        4  memp.o(.data)
    memp_tab_TCP_SEG                         0x200000f0   Data           4  memp.o(.data)
    .data                                    0x200000f4   Section        4  memp.o(.data)
    memp_tab_REASSDATA                       0x200000f4   Data           4  memp.o(.data)
    .data                                    0x200000f8   Section        4  memp.o(.data)
    memp_tab_FRAG_PBUF                       0x200000f8   Data           4  memp.o(.data)
    .data                                    0x200000fc   Section        4  memp.o(.data)
    memp_tab_SYS_TIMEOUT                     0x200000fc   Data           4  memp.o(.data)
    .data                                    0x20000100   Section        4  memp.o(.data)
    memp_tab_PBUF                            0x20000100   Data           4  memp.o(.data)
    .data                                    0x20000104   Section        4  memp.o(.data)
    memp_tab_PBUF_POOL                       0x20000104   Data           4  memp.o(.data)
    .data                                    0x20000108   Section       12  netif.o(.data)
    netif_num                                0x20000108   Data           1  netif.o(.data)
    .data                                    0x20000114   Section       32  tcp.o(.data)
    tcp_timer                                0x20000115   Data           1  tcp.o(.data)
    tcp_timer_ctr                            0x20000116   Data           1  tcp.o(.data)
    tcp_port                                 0x20000118   Data           2  tcp.o(.data)
    iss                                      0x2000011c   Data           4  tcp.o(.data)
    .data                                    0x20000134   Section       36  tcp_in.o(.data)
    flags                                    0x20000134   Data           1  tcp_in.o(.data)
    recv_flags                               0x20000135   Data           1  tcp_in.o(.data)
    tcphdr_optlen                            0x20000136   Data           2  tcp_in.o(.data)
    tcphdr_opt1len                           0x20000138   Data           2  tcp_in.o(.data)
    tcp_optidx                               0x2000013a   Data           2  tcp_in.o(.data)
    recv_acked                               0x2000013c   Data           2  tcp_in.o(.data)
    tcplen                                   0x2000013e   Data           2  tcp_in.o(.data)
    tcphdr                                   0x20000140   Data           4  tcp_in.o(.data)
    tcphdr_opt2                              0x20000144   Data           4  tcp_in.o(.data)
    seqno                                    0x20000148   Data           4  tcp_in.o(.data)
    ackno                                    0x2000014c   Data           4  tcp_in.o(.data)
    recv_data                                0x20000150   Data           4  tcp_in.o(.data)
    .data                                    0x20000158   Section       12  tcp_out.o(.data)
    .data                                    0x20000164   Section       12  timeouts.o(.data)
    next_timeout                             0x20000164   Data           4  timeouts.o(.data)
    timeouts_last_time                       0x20000168   Data           4  timeouts.o(.data)
    tcpip_tcp_timer_active                   0x2000016c   Data           4  timeouts.o(.data)
    .data                                    0x20000170   Section        8  udp.o(.data)
    udp_port                                 0x20000170   Data           2  udp.o(.data)
    .data                                    0x20000178   Section        4  rand.o(.data)
    _rand_state                              0x20000178   Data           4  rand.o(.data)
    .data                                    0x2000017c   Section        4  stdout.o(.data)
    .bss                                     0x20000180   Section      256  main.o(.bss)
    .bss                                     0x20000280   Section       18  app_ethernet.o(.bss)
    .bss                                     0x20000294   Section    12520  ethernetif.o(.bss)
    .bss                                     0x2000337c   Section      200  tcp_echoserver.o(.bss)
    .bss                                     0x20003444   Section      128  bsp_debug_usart.o(.bss)
    .bss                                     0x200034c4   Section      256  bsp_debug_usart.o(.bss)
    .bss                                     0x200035c4   Section      256  bsp_debug_usart.o(.bss)
    .bss                                     0x200036c4   Section      256  bsp_debug_usart.o(.bss)
    .bss                                     0x200037c4   Section      256  bsp_debug_usart.o(.bss)
    .bss                                     0x200038c4   Section     1280  bsp_debug_usart.o(.bss)
    .bss                                     0x20003dc4   Section      120  bsp_generaltim.o(.bss)
    .bss                                     0x20003e3c   Section       64  bsp_usartx_rs485.o(.bss)
    .bss                                     0x20003e7c   Section       60  bsp_basictim.o(.bss)
    .bss                                     0x20003eb8   Section       50  dhcp.o(.bss)
    .bss                                     0x20003eec   Section      240  etharp.o(.bss)
    arp_table                                0x20003eec   Data         240  etharp.o(.bss)
    .bss                                     0x20003fdc   Section       16  ip4_addr.o(.bss)
    str                                      0x20003fdc   Data          16  ip4_addr.o(.bss)
    .bss                                     0x20003fec   Section       24  ip.o(.bss)
    .bss                                     0x20004004   Section    10259  mem.o(.bss)
    .bss                                     0x20006817   Section      195  memp.o(.bss)
    .bss                                     0x200068da   Section     1483  memp.o(.bss)
    .bss                                     0x20006ea5   Section      143  memp.o(.bss)
    .bss                                     0x20006f34   Section      131  memp.o(.bss)
    .bss                                     0x20006fb7   Section      163  memp.o(.bss)
    .bss                                     0x2000705a   Section      363  memp.o(.bss)
    .bss                                     0x200071c5   Section      163  memp.o(.bss)
    .bss                                     0x20007268   Section      163  memp.o(.bss)
    .bss                                     0x2000730b   Section     4227  memp.o(.bss)
    .bss                                     0x20008390   Section       16  tcp_in.o(.bss)
    inseg                                    0x20008390   Data          16  tcp_in.o(.bss)
    STACK                                    0x200083a0   Section     4096  startup_stm32f407xx.o(STACK)

    Global Symbols

    Symbol Name                              Value     Ov Type        Size  Object(Section)

    BuildAttributes$$THM_ISAv4$E$P$D$K$B$S$7EM$VFPi3$EXTD16$VFPS$VFMA$PE$A:L22UL41UL21$X:L11$S22US41US21$IEEE1$IW$USESV6$~STKCKD$USESV7$~SHL$OTIME$ROPI$EBA8$MICROLIB$REQ8$PRES8$EABIv2 0x00000000   Number         0  anon$$obj.o ABSOLUTE
    __ARM_use_no_argv                        0x00000000   Number         0  main.o ABSOLUTE
    _printf_a                                0x00000000   Number         0  stubs.o ABSOLUTE
    _printf_c                                0x00000000   Number         0  stubs.o ABSOLUTE
    _printf_charcount                        0x00000000   Number         0  stubs.o ABSOLUTE
    _printf_d                                0x00000000   Number         0  stubs.o ABSOLUTE
    _printf_e                                0x00000000   Number         0  stubs.o ABSOLUTE
    _printf_f                                0x00000000   Number         0  stubs.o ABSOLUTE
    _printf_flags                            0x00000000   Number         0  stubs.o ABSOLUTE
    _printf_fp_dec                           0x00000000   Number         0  stubs.o ABSOLUTE
    _printf_fp_hex                           0x00000000   Number         0  stubs.o ABSOLUTE
    _printf_g                                0x00000000   Number         0  stubs.o ABSOLUTE
    _printf_i                                0x00000000   Number         0  stubs.o ABSOLUTE
    _printf_int_dec                          0x00000000   Number         0  stubs.o ABSOLUTE
    _printf_l                                0x00000000   Number         0  stubs.o ABSOLUTE
    _printf_lc                               0x00000000   Number         0  stubs.o ABSOLUTE
    _printf_ll                               0x00000000   Number         0  stubs.o ABSOLUTE
    _printf_lld                              0x00000000   Number         0  stubs.o ABSOLUTE
    _printf_lli                              0x00000000   Number         0  stubs.o ABSOLUTE
    _printf_llo                              0x00000000   Number         0  stubs.o ABSOLUTE
    _printf_llu                              0x00000000   Number         0  stubs.o ABSOLUTE
    _printf_llx                              0x00000000   Number         0  stubs.o ABSOLUTE
    _printf_longlong_dec                     0x00000000   Number         0  stubs.o ABSOLUTE
    _printf_longlong_hex                     0x00000000   Number         0  stubs.o ABSOLUTE
    _printf_longlong_oct                     0x00000000   Number         0  stubs.o ABSOLUTE
    _printf_ls                               0x00000000   Number         0  stubs.o ABSOLUTE
    _printf_mbtowc                           0x00000000   Number         0  stubs.o ABSOLUTE
    _printf_n                                0x00000000   Number         0  stubs.o ABSOLUTE
    _printf_o                                0x00000000   Number         0  stubs.o ABSOLUTE
    _printf_p                                0x00000000   Number         0  stubs.o ABSOLUTE
    _printf_percent                          0x00000000   Number         0  stubs.o ABSOLUTE
    _printf_pre_padding                      0x00000000   Number         0  stubs.o ABSOLUTE
    _printf_return_value                     0x00000000   Number         0  stubs.o ABSOLUTE
    _printf_s                                0x00000000   Number         0  stubs.o ABSOLUTE
    _printf_sizespec                         0x00000000   Number         0  stubs.o ABSOLUTE
    _printf_str                              0x00000000   Number         0  stubs.o ABSOLUTE
    _printf_truncate_signed                  0x00000000   Number         0  stubs.o ABSOLUTE
    _printf_truncate_unsigned                0x00000000   Number         0  stubs.o ABSOLUTE
    _printf_u                                0x00000000   Number         0  stubs.o ABSOLUTE
    _printf_wc                               0x00000000   Number         0  stubs.o ABSOLUTE
    _printf_wctomb                           0x00000000   Number         0  stubs.o ABSOLUTE
    _printf_widthprec                        0x00000000   Number         0  stubs.o ABSOLUTE
    _printf_x                                0x00000000   Number         0  stubs.o ABSOLUTE
    __cpp_initialize__aeabi_                  - Undefined Weak Reference
    __cxa_finalize                            - Undefined Weak Reference
    _clock_init                               - Undefined Weak Reference
    _microlib_exit                            - Undefined Weak Reference
    __Vectors_Size                           0x00000188   Number         0  startup_stm32f407xx.o ABSOLUTE
    __Vectors                                0x08000000   Data           4  startup_stm32f407xx.o(RESET)
    __Vectors_End                            0x08000188   Data           0  startup_stm32f407xx.o(RESET)
    __main                                   0x08000189   Thumb Code     0  entry.o(.ARM.Collect$$$$00000000)
    _main_stk                                0x08000189   Thumb Code     0  entry2.o(.ARM.Collect$$$$00000001)
    _main_scatterload                        0x0800018d   Thumb Code     0  entry5.o(.ARM.Collect$$$$00000004)
    __main_after_scatterload                 0x08000191   Thumb Code     0  entry5.o(.ARM.Collect$$$$00000004)
    _main_clock                              0x08000191   Thumb Code     0  entry7b.o(.ARM.Collect$$$$00000008)
    _main_cpp_init                           0x08000191   Thumb Code     0  entry8b.o(.ARM.Collect$$$$0000000A)
    _main_init                               0x08000191   Thumb Code     0  entry9a.o(.ARM.Collect$$$$0000000B)
    __rt_final_cpp                           0x08000199   Thumb Code     0  entry10a.o(.ARM.Collect$$$$0000000D)
    __rt_final_exit                          0x08000199   Thumb Code     0  entry11a.o(.ARM.Collect$$$$0000000F)
    Reset_Handler                            0x0800019d   Thumb Code     8  startup_stm32f407xx.o(.text)
    ADC_IRQHandler                           0x080001b7   Thumb Code     0  startup_stm32f407xx.o(.text)
    CAN1_RX0_IRQHandler                      0x080001b7   Thumb Code     0  startup_stm32f407xx.o(.text)
    CAN1_RX1_IRQHandler                      0x080001b7   Thumb Code     0  startup_stm32f407xx.o(.text)
    CAN1_SCE_IRQHandler                      0x080001b7   Thumb Code     0  startup_stm32f407xx.o(.text)
    CAN1_TX_IRQHandler                       0x080001b7   Thumb Code     0  startup_stm32f407xx.o(.text)
    CAN2_RX0_IRQHandler                      0x080001b7   Thumb Code     0  startup_stm32f407xx.o(.text)
    CAN2_RX1_IRQHandler                      0x080001b7   Thumb Code     0  startup_stm32f407xx.o(.text)
    CAN2_SCE_IRQHandler                      0x080001b7   Thumb Code     0  startup_stm32f407xx.o(.text)
    CAN2_TX_IRQHandler                       0x080001b7   Thumb Code     0  startup_stm32f407xx.o(.text)
    DCMI_IRQHandler                          0x080001b7   Thumb Code     0  startup_stm32f407xx.o(.text)
    DMA1_Stream0_IRQHandler                  0x080001b7   Thumb Code     0  startup_stm32f407xx.o(.text)
    DMA1_Stream1_IRQHandler                  0x080001b7   Thumb Code     0  startup_stm32f407xx.o(.text)
    DMA1_Stream2_IRQHandler                  0x080001b7   Thumb Code     0  startup_stm32f407xx.o(.text)
    DMA1_Stream3_IRQHandler                  0x080001b7   Thumb Code     0  startup_stm32f407xx.o(.text)
    DMA1_Stream4_IRQHandler                  0x080001b7   Thumb Code     0  startup_stm32f407xx.o(.text)
    DMA1_Stream5_IRQHandler                  0x080001b7   Thumb Code     0  startup_stm32f407xx.o(.text)
    DMA1_Stream6_IRQHandler                  0x080001b7   Thumb Code     0  startup_stm32f407xx.o(.text)
    DMA1_Stream7_IRQHandler                  0x080001b7   Thumb Code     0  startup_stm32f407xx.o(.text)
    DMA2_Stream0_IRQHandler                  0x080001b7   Thumb Code     0  startup_stm32f407xx.o(.text)
    DMA2_Stream1_IRQHandler                  0x080001b7   Thumb Code     0  startup_stm32f407xx.o(.text)
    DMA2_Stream2_IRQHandler                  0x080001b7   Thumb Code     0  startup_stm32f407xx.o(.text)
    DMA2_Stream3_IRQHandler                  0x080001b7   Thumb Code     0  startup_stm32f407xx.o(.text)
    DMA2_Stream4_IRQHandler                  0x080001b7   Thumb Code     0  startup_stm32f407xx.o(.text)
    DMA2_Stream5_IRQHandler                  0x080001b7   Thumb Code     0  startup_stm32f407xx.o(.text)
    DMA2_Stream6_IRQHandler                  0x080001b7   Thumb Code     0  startup_stm32f407xx.o(.text)
    DMA2_Stream7_IRQHandler                  0x080001b7   Thumb Code     0  startup_stm32f407xx.o(.text)
    ETH_WKUP_IRQHandler                      0x080001b7   Thumb Code     0  startup_stm32f407xx.o(.text)
    EXTI0_IRQHandler                         0x080001b7   Thumb Code     0  startup_stm32f407xx.o(.text)
    EXTI15_10_IRQHandler                     0x080001b7   Thumb Code     0  startup_stm32f407xx.o(.text)
    EXTI1_IRQHandler                         0x080001b7   Thumb Code     0  startup_stm32f407xx.o(.text)
    EXTI2_IRQHandler                         0x080001b7   Thumb Code     0  startup_stm32f407xx.o(.text)
    EXTI3_IRQHandler                         0x080001b7   Thumb Code     0  startup_stm32f407xx.o(.text)
    EXTI4_IRQHandler                         0x080001b7   Thumb Code     0  startup_stm32f407xx.o(.text)
    EXTI9_5_IRQHandler                       0x080001b7   Thumb Code     0  startup_stm32f407xx.o(.text)
    FLASH_IRQHandler                         0x080001b7   Thumb Code     0  startup_stm32f407xx.o(.text)
    FMC_IRQHandler                           0x080001b7   Thumb Code     0  startup_stm32f407xx.o(.text)
    FPU_IRQHandler                           0x080001b7   Thumb Code     0  startup_stm32f407xx.o(.text)
    HASH_RNG_IRQHandler                      0x080001b7   Thumb Code     0  startup_stm32f407xx.o(.text)
    I2C1_ER_IRQHandler                       0x080001b7   Thumb Code     0  startup_stm32f407xx.o(.text)
    I2C1_EV_IRQHandler                       0x080001b7   Thumb Code     0  startup_stm32f407xx.o(.text)
    I2C2_ER_IRQHandler                       0x080001b7   Thumb Code     0  startup_stm32f407xx.o(.text)
    I2C2_EV_IRQHandler                       0x080001b7   Thumb Code     0  startup_stm32f407xx.o(.text)
    I2C3_ER_IRQHandler                       0x080001b7   Thumb Code     0  startup_stm32f407xx.o(.text)
    I2C3_EV_IRQHandler                       0x080001b7   Thumb Code     0  startup_stm32f407xx.o(.text)
    OTG_FS_IRQHandler                        0x080001b7   Thumb Code     0  startup_stm32f407xx.o(.text)
    OTG_FS_WKUP_IRQHandler                   0x080001b7   Thumb Code     0  startup_stm32f407xx.o(.text)
    OTG_HS_EP1_IN_IRQHandler                 0x080001b7   Thumb Code     0  startup_stm32f407xx.o(.text)
    OTG_HS_EP1_OUT_IRQHandler                0x080001b7   Thumb Code     0  startup_stm32f407xx.o(.text)
    OTG_HS_IRQHandler                        0x080001b7   Thumb Code     0  startup_stm32f407xx.o(.text)
    OTG_HS_WKUP_IRQHandler                   0x080001b7   Thumb Code     0  startup_stm32f407xx.o(.text)
    PVD_IRQHandler                           0x080001b7   Thumb Code     0  startup_stm32f407xx.o(.text)
    RTC_Alarm_IRQHandler                     0x080001b7   Thumb Code     0  startup_stm32f407xx.o(.text)
    RTC_WKUP_IRQHandler                      0x080001b7   Thumb Code     0  startup_stm32f407xx.o(.text)
    SDIO_IRQHandler                          0x080001b7   Thumb Code     0  startup_stm32f407xx.o(.text)
    SPI1_IRQHandler                          0x080001b7   Thumb Code     0  startup_stm32f407xx.o(.text)
    SPI2_IRQHandler                          0x080001b7   Thumb Code     0  startup_stm32f407xx.o(.text)
    SPI3_IRQHandler                          0x080001b7   Thumb Code     0  startup_stm32f407xx.o(.text)
    TAMP_STAMP_IRQHandler                    0x080001b7   Thumb Code     0  startup_stm32f407xx.o(.text)
    TIM1_BRK_TIM9_IRQHandler                 0x080001b7   Thumb Code     0  startup_stm32f407xx.o(.text)
    TIM1_CC_IRQHandler                       0x080001b7   Thumb Code     0  startup_stm32f407xx.o(.text)
    TIM1_TRG_COM_TIM11_IRQHandler            0x080001b7   Thumb Code     0  startup_stm32f407xx.o(.text)
    TIM1_UP_TIM10_IRQHandler                 0x080001b7   Thumb Code     0  startup_stm32f407xx.o(.text)
    TIM2_IRQHandler                          0x080001b7   Thumb Code     0  startup_stm32f407xx.o(.text)
    TIM3_IRQHandler                          0x080001b7   Thumb Code     0  startup_stm32f407xx.o(.text)
    TIM7_IRQHandler                          0x080001b7   Thumb Code     0  startup_stm32f407xx.o(.text)
    TIM8_BRK_TIM12_IRQHandler                0x080001b7   Thumb Code     0  startup_stm32f407xx.o(.text)
    TIM8_CC_IRQHandler                       0x080001b7   Thumb Code     0  startup_stm32f407xx.o(.text)
    TIM8_TRG_COM_TIM14_IRQHandler            0x080001b7   Thumb Code     0  startup_stm32f407xx.o(.text)
    TIM8_UP_TIM13_IRQHandler                 0x080001b7   Thumb Code     0  startup_stm32f407xx.o(.text)
    UART4_IRQHandler                         0x080001b7   Thumb Code     0  startup_stm32f407xx.o(.text)
    USART1_IRQHandler                        0x080001b7   Thumb Code     0  startup_stm32f407xx.o(.text)
    USART2_IRQHandler                        0x080001b7   Thumb Code     0  startup_stm32f407xx.o(.text)
    USART6_IRQHandler                        0x080001b7   Thumb Code     0  startup_stm32f407xx.o(.text)
    WWDG_IRQHandler                          0x080001b7   Thumb Code     0  startup_stm32f407xx.o(.text)
    rand                                     0x080001c1   Thumb Code    20  rand.o(.text)
    srand                                    0x080001d5   Thumb Code     6  rand.o(.text)
    __aeabi_memcpy                           0x080001e5   Thumb Code    36  memcpya.o(.text)
    __aeabi_memcpy4                          0x080001e5   Thumb Code     0  memcpya.o(.text)
    __aeabi_memcpy8                          0x080001e5   Thumb Code     0  memcpya.o(.text)
    __aeabi_memset                           0x08000209   Thumb Code    14  memseta.o(.text)
    __aeabi_memset4                          0x08000209   Thumb Code     0  memseta.o(.text)
    __aeabi_memset8                          0x08000209   Thumb Code     0  memseta.o(.text)
    __aeabi_memclr                           0x08000217   Thumb Code     4  memseta.o(.text)
    __aeabi_memclr4                          0x08000217   Thumb Code     0  memseta.o(.text)
    __aeabi_memclr8                          0x08000217   Thumb Code     0  memseta.o(.text)
    _memset$wrapper                          0x0800021b   Thumb Code    18  memseta.o(.text)
    strlen                                   0x0800022d   Thumb Code    14  strlen.o(.text)
    memcmp                                   0x0800023b   Thumb Code    26  memcmp.o(.text)
    __aeabi_f2d                              0x08000255   Thumb Code    38  f2d.o(.text)
    __aeabi_uidiv                            0x0800027b   Thumb Code     0  uidiv.o(.text)
    __aeabi_uidivmod                         0x0800027b   Thumb Code    44  uidiv.o(.text)
    __aeabi_uldivmod                         0x080002a7   Thumb Code    98  uldiv.o(.text)
    __I$use$fp                               0x08000309   Thumb Code     0  iusefp.o(.text)
    __aeabi_dadd                             0x08000309   Thumb Code   322  dadd.o(.text)
    __aeabi_dsub                             0x0800044b   Thumb Code     6  dadd.o(.text)
    __aeabi_drsub                            0x08000451   Thumb Code     6  dadd.o(.text)
    __aeabi_dmul                             0x08000457   Thumb Code   228  dmul.o(.text)
    __aeabi_ddiv                             0x0800053b   Thumb Code   222  ddiv.o(.text)
    __aeabi_d2ulz                            0x08000619   Thumb Code    48  dfixul.o(.text)
    __aeabi_cdrcmple                         0x08000649   Thumb Code    48  cdrcmple.o(.text)
    __scatterload                            0x08000679   Thumb Code    28  init.o(.text)
    __scatterload_rt2                        0x08000679   Thumb Code     0  init.o(.text)
    __aeabi_llsl                             0x0800069d   Thumb Code    30  llshl.o(.text)
    _ll_shift_l                              0x0800069d   Thumb Code     0  llshl.o(.text)
    __aeabi_llsr                             0x080006bb   Thumb Code    32  llushr.o(.text)
    _ll_ushift_r                             0x080006bb   Thumb Code     0  llushr.o(.text)
    __aeabi_lasr                             0x080006db   Thumb Code    36  llsshr.o(.text)
    _ll_sshift_r                             0x080006db   Thumb Code     0  llsshr.o(.text)
    _double_round                            0x080006ff   Thumb Code    30  depilogue.o(.text)
    _double_epilogue                         0x0800071d   Thumb Code   156  depilogue.o(.text)
    __decompress                             0x080007b9   Thumb Code     0  __dczerorl2.o(.text)
    __decompress1                            0x080007b9   Thumb Code    86  __dczerorl2.o(.text)
    BASIC_TIMx_Init                          0x08000811   Thumb Code    44  bsp_basictim.o(i.BASIC_TIMx_Init)
    BusFault_Handler                         0x08000845   Thumb Code     2  stm32f4xx_it.o(i.BusFault_Handler)
    DHCP_Periodic_Handle                     0x08000849   Thumb Code    38  app_ethernet.o(i.DHCP_Periodic_Handle)
    DHCP_Process                             0x08000875   Thumb Code   314  app_ethernet.o(i.DHCP_Process)
    DebugMon_Handler                         0x08000ab5   Thumb Code     2  stm32f4xx_it.o(i.DebugMon_Handler)
    ETH_IRQHandler                           0x08000b2d   Thumb Code    26  app_ethernet.o(i.ETH_IRQHandler)
    ETH_PHY_ReadReg                          0x08000d51   Thumb Code    24  app_ethernet.o(i.ETH_PHY_ReadReg)
    ETH_link_check_state                     0x08000d6d   Thumb Code   138  app_ethernet.o(i.ETH_link_check_state)
    Ethernet_Link_Periodic_Handle            0x08000df9   Thumb Code    36  app_ethernet.o(i.Ethernet_Link_Periodic_Handle)
    GENERAL_TIM4_Init                        0x08000e21   Thumb Code   122  bsp_generaltim.o(i.GENERAL_TIM4_Init)
    GENERAL_TIMx_Init                        0x08000ea9   Thumb Code    88  bsp_generaltim.o(i.GENERAL_TIMx_Init)
    GetPinStateOfKey1                        0x08000f09   Thumb Code    20  bsp_key.o(i.GetPinStateOfKey1)
    GetPinStateOfKey2                        0x08000f21   Thumb Code    20  bsp_key.o(i.GetPinStateOfKey2)
    GetPinStateOfKey3                        0x08000f39   Thumb Code    20  bsp_key.o(i.GetPinStateOfKey3)
    GetPinStateOfKey4                        0x08000f51   Thumb Code    20  bsp_key.o(i.GetPinStateOfKey4)
    GetPinStateOfKey5                        0x08000f69   Thumb Code    20  bsp_key.o(i.GetPinStateOfKey5)
    HAL_DMA_Abort_IT                         0x08000f81   Thumb Code    36  stm32f4xx_hal_dma.o(i.HAL_DMA_Abort_IT)
    HAL_Delay                                0x08000fa5   Thumb Code    30  stm32f4xx_hal.o(i.HAL_Delay)
    HAL_ETH_ConfigMAC                        0x08000fc5   Thumb Code   308  stm32f4xx_hal_eth.o(i.HAL_ETH_ConfigMAC)
    HAL_ETH_DMARxDescListInit                0x080010fd   Thumb Code   128  stm32f4xx_hal_eth.o(i.HAL_ETH_DMARxDescListInit)
    HAL_ETH_DMATxDescListInit                0x0800117d   Thumb Code   142  stm32f4xx_hal_eth.o(i.HAL_ETH_DMATxDescListInit)
    HAL_ETH_GetReceivedFrame_IT              0x0800120b   Thumb Code   160  stm32f4xx_hal_eth.o(i.HAL_ETH_GetReceivedFrame_IT)
    HAL_ETH_Init                             0x080012ad   Thumb Code   582  stm32f4xx_hal_eth.o(i.HAL_ETH_Init)
    HAL_ETH_MspInit                          0x0800151d   Thumb Code   242  ethernetif.o(i.HAL_ETH_MspInit)
    HAL_ETH_ReadPHYRegister                  0x08001625   Thumb Code   140  stm32f4xx_hal_eth.o(i.HAL_ETH_ReadPHYRegister)
    HAL_ETH_Start                            0x080016b1   Thumb Code    70  stm32f4xx_hal_eth.o(i.HAL_ETH_Start)
    HAL_ETH_TransmitFrame                    0x080016f7   Thumb Code   310  stm32f4xx_hal_eth.o(i.HAL_ETH_TransmitFrame)
    HAL_ETH_WritePHYRegister                 0x0800182d   Thumb Code   132  stm32f4xx_hal_eth.o(i.HAL_ETH_WritePHYRegister)
    HAL_GPIO_Init                            0x080018b1   Thumb Code   518  stm32f4xx_hal_gpio.o(i.HAL_GPIO_Init)
    HAL_GPIO_ReadPin                         0x08001acd   Thumb Code    14  stm32f4xx_hal_gpio.o(i.HAL_GPIO_ReadPin)
    HAL_GPIO_TogglePin                       0x08001adb   Thumb Code     8  stm32f4xx_hal_gpio.o(i.HAL_GPIO_TogglePin)
    HAL_GPIO_WritePin                        0x08001ae3   Thumb Code    14  stm32f4xx_hal_gpio.o(i.HAL_GPIO_WritePin)
    HAL_GetTick                              0x08001af1   Thumb Code     6  stm32f4xx_hal.o(i.HAL_GetTick)
    HAL_IncTick                              0x08001afd   Thumb Code    10  stm32f4xx_hal.o(i.HAL_IncTick)
    HAL_Init                                 0x08001b0d   Thumb Code    48  stm32f4xx_hal.o(i.HAL_Init)
    HAL_InitTick                             0x08001b41   Thumb Code    34  stm32f4xx_hal.o(i.HAL_InitTick)
    HAL_MspInit                              0x08001b69   Thumb Code   104  stm32f4xx_hal_msp.o(i.HAL_MspInit)
    HAL_NVIC_EnableIRQ                       0x08001bd1   Thumb Code    24  stm32f4xx_hal_cortex.o(i.HAL_NVIC_EnableIRQ)
    HAL_NVIC_SetPriority                     0x08001be9   Thumb Code    98  stm32f4xx_hal_cortex.o(i.HAL_NVIC_SetPriority)
    HAL_NVIC_SetPriorityGrouping             0x08001c51   Thumb Code    30  stm32f4xx_hal_cortex.o(i.HAL_NVIC_SetPriorityGrouping)
    HAL_RCC_ClockConfig                      0x08001c75   Thumb Code   474  stm32f4xx_hal_rcc.o(i.HAL_RCC_ClockConfig)
    HAL_RCC_EnableCSS                        0x08001e65   Thumb Code     8  stm32f4xx_hal_rcc.o(i.HAL_RCC_EnableCSS)
    HAL_RCC_GetHCLKFreq                      0x08001e71   Thumb Code     6  stm32f4xx_hal_rcc.o(i.HAL_RCC_GetHCLKFreq)
    HAL_RCC_GetPCLK1Freq                     0x08001e7d   Thumb Code    36  stm32f4xx_hal_rcc.o(i.HAL_RCC_GetPCLK1Freq)
    HAL_RCC_GetPCLK2Freq                     0x08001ea9   Thumb Code    36  stm32f4xx_hal_rcc.o(i.HAL_RCC_GetPCLK2Freq)
    HAL_RCC_GetSysClockFreq                  0x08001ed5   Thumb Code   126  stm32f4xx_hal_rcc.o(i.HAL_RCC_GetSysClockFreq)
    HAL_RCC_OscConfig                        0x08001f61   Thumb Code  1058  stm32f4xx_hal_rcc.o(i.HAL_RCC_OscConfig)
    HAL_SYSTICK_CLKSourceConfig              0x080023a1   Thumb Code    28  stm32f4xx_hal_cortex.o(i.HAL_SYSTICK_CLKSourceConfig)
    HAL_SYSTICK_Callback                     0x080023bd   Thumb Code     2  stm32f4xx_hal_cortex.o(i.HAL_SYSTICK_Callback)
    HAL_SYSTICK_Config                       0x080023c1   Thumb Code    36  stm32f4xx_hal_cortex.o(i.HAL_SYSTICK_Config)
    HAL_SYSTICK_IRQHandler                   0x080023e9   Thumb Code     8  stm32f4xx_hal_cortex.o(i.HAL_SYSTICK_IRQHandler)
    HAL_TIMEx_BreakCallback                  0x080023f1   Thumb Code     2  stm32f4xx_hal_tim_ex.o(i.HAL_TIMEx_BreakCallback)
    HAL_TIMEx_CommutationCallback            0x080023f3   Thumb Code     2  stm32f4xx_hal_tim_ex.o(i.HAL_TIMEx_CommutationCallback)
    HAL_TIMEx_MasterConfigSynchronization    0x080023f5   Thumb Code   102  stm32f4xx_hal_tim_ex.o(i.HAL_TIMEx_MasterConfigSynchronization)
    HAL_TIM_Base_Init                        0x0800245b   Thumb Code    56  stm32f4xx_hal_tim.o(i.HAL_TIM_Base_Init)
    HAL_TIM_Base_MspInit                     0x08002495   Thumb Code    54  bsp_basictim.o(i.HAL_TIM_Base_MspInit)
    HAL_TIM_Base_Start                       0x080024d1   Thumb Code    26  stm32f4xx_hal_tim.o(i.HAL_TIM_Base_Start)
    HAL_TIM_Base_Start_IT                    0x080024eb   Thumb Code    24  stm32f4xx_hal_tim.o(i.HAL_TIM_Base_Start_IT)
    HAL_TIM_ConfigClockSource                0x08002503   Thumb Code   272  stm32f4xx_hal_tim.o(i.HAL_TIM_ConfigClockSource)
    HAL_TIM_IC_CaptureCallback               0x08002613   Thumb Code     2  stm32f4xx_hal_tim.o(i.HAL_TIM_IC_CaptureCallback)
    HAL_TIM_IRQHandler                       0x08002615   Thumb Code   372  stm32f4xx_hal_tim.o(i.HAL_TIM_IRQHandler)
    HAL_TIM_OC_ConfigChannel                 0x08002789   Thumb Code    86  stm32f4xx_hal_tim.o(i.HAL_TIM_OC_ConfigChannel)
    HAL_TIM_OC_DelayElapsedCallback          0x080027e1   Thumb Code    64  main.o(i.HAL_TIM_OC_DelayElapsedCallback)
    HAL_TIM_OnePulse_Init                    0x08002825   Thumb Code    76  stm32f4xx_hal_tim.o(i.HAL_TIM_OnePulse_Init)
    HAL_TIM_OnePulse_MspInit                 0x08002871   Thumb Code    54  bsp_generaltim.o(i.HAL_TIM_OnePulse_MspInit)
    HAL_TIM_PWM_PulseFinishedCallback        0x080028ad   Thumb Code     2  stm32f4xx_hal_tim.o(i.HAL_TIM_PWM_PulseFinishedCallback)
    HAL_TIM_PeriodElapsedCallback            0x080028b1   Thumb Code  1208  main.o(i.HAL_TIM_PeriodElapsedCallback)
    HAL_TIM_TriggerCallback                  0x08002d91   Thumb Code     2  stm32f4xx_hal_tim.o(i.HAL_TIM_TriggerCallback)
    HAL_UART_ErrorCallback                   0x08002d93   Thumb Code     2  stm32f4xx_hal_uart.o(i.HAL_UART_ErrorCallback)
    HAL_UART_IRQHandler                      0x08002d95   Thumb Code   306  stm32f4xx_hal_uart.o(i.HAL_UART_IRQHandler)
    HAL_UART_Init                            0x08002ecd   Thumb Code   100  stm32f4xx_hal_uart.o(i.HAL_UART_Init)
    HAL_UART_MspInit                         0x08002f31   Thumb Code   214  bsp_debug_usart.o(i.HAL_UART_MspInit)
    HAL_UART_Receive_IT                      0x08003025   Thumb Code    76  stm32f4xx_hal_uart.o(i.HAL_UART_Receive_IT)
    HAL_UART_RxCpltCallback                  0x08003071   Thumb Code   284  main.o(i.HAL_UART_RxCpltCallback)
    HAL_UART_Transmit                        0x080031c1   Thumb Code   220  stm32f4xx_hal_uart.o(i.HAL_UART_Transmit)
    HAL_UART_TxCpltCallback                  0x0800329d   Thumb Code     2  stm32f4xx_hal_uart.o(i.HAL_UART_TxCpltCallback)
    HardFault_Handler                        0x0800329f   Thumb Code     2  stm32f4xx_it.o(i.HardFault_Handler)
    KEY_GPIO_Init                            0x080032a1   Thumb Code   174  bsp_key.o(i.KEY_GPIO_Init)
    KeyCreate                                0x08003359   Thumb Code    16  bsp_key.o(i.KeyCreate)
    Key_AccessTimes                          0x08003369   Thumb Code    14  bsp_key.o(i.Key_AccessTimes)
    Key_RefreshState                         0x08003377   Thumb Code   132  bsp_key.o(i.Key_RefreshState)
    LED_GPIO_Init                            0x080033fd   Thumb Code   146  bsp_led.o(i.LED_GPIO_Init)
    MB_CRC16                                 0x0800349d   Thumb Code    50  bsp_mb_host.o(i.MB_CRC16)
    MB_CRC16_RS232                           0x080034d5   Thumb Code    50  bsp_usartx_rs232.o(i.MB_CRC16_RS232)
    MB_ReadCoil_03H_RS232                    0x0800350d   Thumb Code   652  bsp_usartx_rs232.o(i.MB_ReadCoil_03H_RS232)
    MB_ReadCoil_05H_RS232                    0x080037d9   Thumb Code   300  bsp_usartx_rs232.o(i.MB_ReadCoil_05H_RS232)
    MB_ReadCoil_10H_RS232                    0x0800393d   Thumb Code   166  bsp_usartx_rs232.o(i.MB_ReadCoil_10H_RS232)
    MB_ReadHoldingReg_03H                    0x08003a11   Thumb Code    48  bsp_mb_host.o(i.MB_ReadHoldingReg_03H)
    MX_DEBUG_USART_Init                      0x08003a45   Thumb Code    54  bsp_debug_usart.o(i.MX_DEBUG_USART_Init)
    MX_RS232_USART_Init                      0x08003a89   Thumb Code    72  bsp_debug_usart.o(i.MX_RS232_USART_Init)
    MemManage_Handler                        0x08003add   Thumb Code     2  stm32f4xx_it.o(i.MemManage_Handler)
    NMI_Handler                              0x08003adf   Thumb Code     2  stm32f4xx_it.o(i.NMI_Handler)
    Netif_Config                             0x08003ae1   Thumb Code    62  app_ethernet.o(i.Netif_Config)
    PendSV_Handler                           0x08003b31   Thumb Code     2  stm32f4xx_it.o(i.PendSV_Handler)
    RCC_IRQHandler                           0x08003b33   Thumb Code     2  stm32f4xx_it.o(i.RCC_IRQHandler)
    RS485_GPIO_Init                          0x08003b35   Thumb Code   136  bsp_usartx_rs485.o(i.RS485_GPIO_Init)
    RS485_USARTx_Init                        0x08003bcd   Thumb Code    80  bsp_usartx_rs485.o(i.RS485_USARTx_Init)
    RS485_USARTx_Init_4800                   0x08003c2d   Thumb Code    80  bsp_usartx_rs485.o(i.RS485_USARTx_Init_4800)
    SVC_Handler                              0x08003c8d   Thumb Code     2  stm32f4xx_it.o(i.SVC_Handler)
    SysTick_Handler                          0x08003c8f   Thumb Code    14  stm32f4xx_it.o(i.SysTick_Handler)
    SystemClock_Config                       0x08003c9d   Thumb Code   146  main.o(i.SystemClock_Config)
    SystemInit                               0x08003d39   Thumb Code    64  system_stm32f4xx.o(i.SystemInit)
    TIM4_IRQHandler                          0x08003d91   Thumb Code     6  stm32f4xx_it.o(i.TIM4_IRQHandler)
    TIM5_IRQHandler                          0x08003d9d   Thumb Code     6  stm32f4xx_it.o(i.TIM5_IRQHandler)
    TIM6_DAC_IRQHandler                      0x08003da9   Thumb Code     6  stm32f4xx_it.o(i.TIM6_DAC_IRQHandler)
    TIM_Base_SetConfig                       0x08003db5   Thumb Code   178  stm32f4xx_hal_tim.o(i.TIM_Base_SetConfig)
    TIM_OC2_SetConfig                        0x08003f0b   Thumb Code   112  stm32f4xx_hal_tim.o(i.TIM_OC2_SetConfig)
    UART5_IRQHandler                         0x0800408d   Thumb Code     6  stm32f4xx_it.o(i.UART5_IRQHandler)
    UART_RS232_Tx                            0x080040e1   Thumb Code    30  bsp_debug_usart.o(i.UART_RS232_Tx)
    UART_Tx                                  0x08004545   Thumb Code    46  bsp_usartx_rs485.o(i.UART_Tx)
    USART3_IRQHandler                        0x080045f5   Thumb Code     6  stm32f4xx_it.o(i.USART3_IRQHandler)
    UsageFault_Handler                       0x08004601   Thumb Code     2  stm32f4xx_it.o(i.UsageFault_Handler)
    YSF4_TCP_SENDData                        0x08004605   Thumb Code   272  tcp_echoserver.o(i.YSF4_TCP_SENDData)
    __0printf                                0x08004815   Thumb Code    22  printfa.o(i.__0printf)
    __1printf                                0x08004815   Thumb Code     0  printfa.o(i.__0printf)
    __2printf                                0x08004815   Thumb Code     0  printfa.o(i.__0printf)
    __c89printf                              0x08004815   Thumb Code     0  printfa.o(i.__0printf)
    printf                                   0x08004815   Thumb Code     0  printfa.o(i.__0printf)
    __0sprintf                               0x08004835   Thumb Code    34  printfa.o(i.__0sprintf)
    __1sprintf                               0x08004835   Thumb Code     0  printfa.o(i.__0sprintf)
    __2sprintf                               0x08004835   Thumb Code     0  printfa.o(i.__0sprintf)
    __c89sprintf                             0x08004835   Thumb Code     0  printfa.o(i.__0sprintf)
    sprintf                                  0x08004835   Thumb Code     0  printfa.o(i.__0sprintf)
    __scatterload_copy                       0x0800485d   Thumb Code    14  handlers.o(i.__scatterload_copy)
    __scatterload_null                       0x0800486b   Thumb Code     2  handlers.o(i.__scatterload_null)
    __scatterload_zeroinit                   0x0800486d   Thumb Code    14  handlers.o(i.__scatterload_zeroinit)
    dhcp_arp_reply                           0x08005155   Thumb Code    30  dhcp.o(i.dhcp_arp_reply)
    dhcp_coarse_tmr                          0x08005299   Thumb Code    98  dhcp.o(i.dhcp_coarse_tmr)
    dhcp_fine_tmr                            0x080055d5   Thumb Code    48  dhcp.o(i.dhcp_fine_tmr)
    dhcp_network_changed                     0x08005725   Thumb Code    48  dhcp.o(i.dhcp_network_changed)
    dhcp_release                             0x08005d69   Thumb Code   172  dhcp.o(i.dhcp_release)
    dhcp_renew                               0x08005e1d   Thumb Code   174  dhcp.o(i.dhcp_renew)
    dhcp_start                               0x08005fe9   Thumb Code   148  dhcp.o(i.dhcp_start)
    dhcp_stop                                0x0800607d   Thumb Code    36  dhcp.o(i.dhcp_stop)
    dhcp_supplied_address                    0x080060a1   Thumb Code    30  dhcp.o(i.dhcp_supplied_address)
    etharp_cleanup_netif                     0x080061b1   Thumb Code    42  etharp.o(i.etharp_cleanup_netif)
    etharp_input                             0x08006315   Thumb Code   200  etharp.o(i.etharp_input)
    etharp_output                            0x080063dd   Thumb Code   254  etharp.o(i.etharp_output)
    etharp_query                             0x08006549   Thumb Code   286  etharp.o(i.etharp_query)
    etharp_request                           0x080066fd   Thumb Code     6  etharp.o(i.etharp_request)
    etharp_tmr                               0x08006731   Thumb Code    96  etharp.o(i.etharp_tmr)
    ethernet_input                           0x08006819   Thumb Code   164  ethernet.o(i.ethernet_input)
    ethernet_link_check_state                0x080068c1   Thumb Code   166  ethernetif.o(i.ethernet_link_check_state)
    ethernet_link_status_updated             0x080069a5   Thumb Code    60  app_ethernet.o(i.ethernet_link_status_updated)
    ethernet_output                          0x08006a21   Thumb Code    82  ethernet.o(i.ethernet_output)
    ethernetif_init                          0x08006a75   Thumb Code    30  ethernetif.o(i.ethernetif_init)
    ethernetif_input                         0x08006a9d   Thumb Code    38  ethernetif.o(i.ethernetif_input)
    fputc                                    0x08006ac5   Thumb Code    22  bsp_debug_usart.o(i.fputc)
    icmp_dest_unreach                        0x08006ae1   Thumb Code     8  icmp.o(i.icmp_dest_unreach)
    icmp_input                               0x08006ae9   Thumb Code   320  icmp.o(i.icmp_input)
    icmp_time_exceeded                       0x08006c9f   Thumb Code     8  icmp.o(i.icmp_time_exceeded)
    inet_chksum_pbuf                         0x08006ca7   Thumb Code    76  inet_chksum.o(i.inet_chksum_pbuf)
    ip4_addr_isbroadcast_u32                 0x08006cf3   Thumb Code    80  ip4_addr.o(i.ip4_addr_isbroadcast_u32)
    ip4_frag                                 0x08006d45   Thumb Code   416  ip4_frag.o(i.ip4_frag)
    ip4_input                                0x08006ee9   Thumb Code   490  ip4.o(i.ip4_input)
    ip4_output_if                            0x080070dd   Thumb Code    44  ip4.o(i.ip4_output_if)
    ip4_output_if_src                        0x08007109   Thumb Code   178  ip4.o(i.ip4_output_if_src)
    ip4_reass                                0x080071c5   Thumb Code   378  ip4_frag.o(i.ip4_reass)
    ip4_route                                0x08007345   Thumb Code   106  ip4.o(i.ip4_route)
    ip4addr_ntoa                             0x080073b9   Thumb Code     8  ip4_addr.o(i.ip4addr_ntoa)
    ip4addr_ntoa_r                           0x080073c5   Thumb Code   172  ip4_addr.o(i.ip4addr_ntoa_r)
    ip_reass_tmr                             0x080076f9   Thumb Code    42  ip4_frag.o(i.ip_reass_tmr)
    lwip_IT_handle                           0x080079d9   Thumb Code     6  ethernetif.o(i.lwip_IT_handle)
    lwip_htonl                               0x080079e5   Thumb Code    24  def.o(i.lwip_htonl)
    lwip_htons                               0x080079fd   Thumb Code    10  def.o(i.lwip_htons)
    lwip_init                                0x08007a07   Thumb Code    30  init.o(i.lwip_init)
    lwip_standard_chksum                     0x08007a25   Thumb Code    90  inet_chksum.o(i.lwip_standard_chksum)
    main                                     0x08007a81   Thumb Code   226  main.o(i.main)
    mem_free                                 0x08007c09   Thumb Code    38  mem.o(i.mem_free)
    mem_init                                 0x08007c35   Thumb Code    44  mem.o(i.mem_init)
    mem_malloc                               0x08007c69   Thumb Code   186  mem.o(i.mem_malloc)
    mem_trim                                 0x08007d29   Thumb Code   224  mem.o(i.mem_trim)
    memp_free                                0x08007e0d   Thumb Code    20  memp.o(i.memp_free)
    memp_init                                0x08007e25   Thumb Code    24  memp.o(i.memp_init)
    memp_init_pool                           0x08007e41   Thumb Code    46  memp.o(i.memp_init_pool)
    memp_malloc                              0x08007e71   Thumb Code    18  memp.o(i.memp_malloc)
    netif_add                                0x08007e89   Thumb Code    84  netif.o(i.netif_add)
    netif_init                               0x08007ee1   Thumb Code     2  netif.o(i.netif_init)
    netif_set_addr                           0x08007f01   Thumb Code    76  netif.o(i.netif_set_addr)
    netif_set_default                        0x08007f4d   Thumb Code     6  netif.o(i.netif_set_default)
    netif_set_down                           0x08007f59   Thumb Code    30  netif.o(i.netif_set_down)
    netif_set_gw                             0x08007f77   Thumb Code    14  netif.o(i.netif_set_gw)
    netif_set_ipaddr                         0x08007f85   Thumb Code    66  netif.o(i.netif_set_ipaddr)
    netif_set_link_callback                  0x08007fcd   Thumb Code     8  netif.o(i.netif_set_link_callback)
    netif_set_link_down                      0x08007fd5   Thumb Code    28  netif.o(i.netif_set_link_down)
    netif_set_link_up                        0x08007ff1   Thumb Code    62  netif.o(i.netif_set_link_up)
    netif_set_netmask                        0x0800802f   Thumb Code    14  netif.o(i.netif_set_netmask)
    netif_set_up                             0x0800803d   Thumb Code    32  netif.o(i.netif_set_up)
    pbuf_alloc                               0x0800805d   Thumb Code   314  pbuf.o(i.pbuf_alloc)
    pbuf_alloced_custom                      0x08008197   Thumb Code   104  pbuf.o(i.pbuf_alloced_custom)
    pbuf_cat                                 0x080081ff   Thumb Code    40  pbuf.o(i.pbuf_cat)
    pbuf_chain                               0x08008227   Thumb Code    20  pbuf.o(i.pbuf_chain)
    pbuf_clen                                0x0800823b   Thumb Code    20  pbuf.o(i.pbuf_clen)
    pbuf_copy                                0x0800824f   Thumb Code   168  pbuf.o(i.pbuf_copy)
    pbuf_copy_partial                        0x080082f7   Thumb Code   112  pbuf.o(i.pbuf_copy_partial)
    pbuf_free                                0x08008367   Thumb Code    94  pbuf.o(i.pbuf_free)
    pbuf_header                              0x080083c5   Thumb Code     6  pbuf.o(i.pbuf_header)
    pbuf_header_force                        0x080083cb   Thumb Code     6  pbuf.o(i.pbuf_header_force)
    pbuf_realloc                             0x0800845b   Thumb Code    92  pbuf.o(i.pbuf_realloc)
    pbuf_ref                                 0x080084b7   Thumb Code    12  pbuf.o(i.pbuf_ref)
    pbuf_take                                0x080084c3   Thumb Code    94  pbuf.o(i.pbuf_take)
    sys_check_timeouts                       0x08008589   Thumb Code    72  timeouts.o(i.sys_check_timeouts)
    sys_now                                  0x080085d5   Thumb Code     4  ethernetif.o(i.sys_now)
    sys_timeout                              0x080085d9   Thumb Code   164  timeouts.o(i.sys_timeout)
    sys_timeouts_init                        0x08008681   Thumb Code    36  timeouts.o(i.sys_timeouts_init)
    tcp_abandon                              0x080086b1   Thumb Code   202  tcp.o(i.tcp_abandon)
    tcp_abort                                0x08008785   Thumb Code     6  tcp.o(i.tcp_abort)
    tcp_accept                               0x0800878b   Thumb Code    14  tcp.o(i.tcp_accept)
    tcp_alloc                                0x080087a9   Thumb Code   164  tcp.o(i.tcp_alloc)
    tcp_arg                                  0x08008859   Thumb Code     8  tcp.o(i.tcp_arg)
    tcp_bind                                 0x08008861   Thumb Code   144  tcp.o(i.tcp_bind)
    tcp_close                                0x080088fd   Thumb Code    20  tcp.o(i.tcp_close)
    tcp_eff_send_mss_impl                    0x08008dc5   Thumb Code    38  tcp.o(i.tcp_eff_send_mss_impl)
    tcp_enqueue_flags                        0x08008deb   Thumb Code   190  tcp_out.o(i.tcp_enqueue_flags)
    tcp_err                                  0x08008ea9   Thumb Code    10  tcp.o(i.tcp_err)
    tcp_fasttmr                              0x08008eb5   Thumb Code    92  tcp.o(i.tcp_fasttmr)
    tcp_init                                 0x08008f51   Thumb Code     2  tcp.o(i.tcp_init)
    tcp_input                                0x08008f55   Thumb Code   950  tcp_in.o(i.tcp_input)
    tcp_keepalive                            0x08009325   Thumb Code    88  tcp_out.o(i.tcp_keepalive)
    tcp_listen_with_backlog                  0x08009555   Thumb Code   132  tcp.o(i.tcp_listen_with_backlog)
    tcp_netif_ip_addr_changed                0x080095e5   Thumb Code    76  tcp.o(i.tcp_netif_ip_addr_changed)
    tcp_new                                  0x08009659   Thumb Code     6  tcp.o(i.tcp_new)
    tcp_next_iss                             0x080096c1   Thumb Code    12  tcp.o(i.tcp_next_iss)
    tcp_output                               0x080096d1   Thumb Code   504  tcp_out.o(i.tcp_output)
    tcp_pcb_purge                            0x08009abf   Thumb Code    58  tcp.o(i.tcp_pcb_purge)
    tcp_pcb_remove                           0x08009af9   Thumb Code    90  tcp.o(i.tcp_pcb_remove)
    tcp_poll                                 0x08009b65   Thumb Code     8  tcp.o(i.tcp_poll)
    tcp_process_refused_data                 0x0800a001   Thumb Code   124  tcp.o(i.tcp_process_refused_data)
    tcp_recv                                 0x0800a4a9   Thumb Code     8  tcp.o(i.tcp_recv)
    tcp_recv_null                            0x0800a4b1   Thumb Code    38  tcp.o(i.tcp_recv_null)
    tcp_recved                               0x0800a4d9   Thumb Code    78  tcp.o(i.tcp_recved)
    tcp_rexmit                               0x0800a54b   Thumb Code    82  tcp_out.o(i.tcp_rexmit)
    tcp_rexmit_fast                          0x0800a59d   Thumb Code   102  tcp_out.o(i.tcp_rexmit_fast)
    tcp_rexmit_rto                           0x0800a605   Thumb Code    58  tcp_out.o(i.tcp_rexmit_rto)
    tcp_rst                                  0x0800a64d   Thumb Code   136  tcp_out.o(i.tcp_rst)
    tcp_seg_free                             0x0800a6d5   Thumb Code    30  tcp.o(i.tcp_seg_free)
    tcp_segs_free                            0x0800a6f3   Thumb Code    20  tcp.o(i.tcp_segs_free)
    tcp_send_empty_ack                       0x0800a707   Thumb Code   116  tcp_out.o(i.tcp_send_empty_ack)
    tcp_send_fin                             0x0800a77b   Thumb Code    74  tcp_out.o(i.tcp_send_fin)
    tcp_sent                                 0x0800a7c5   Thumb Code     8  tcp.o(i.tcp_sent)
    tcp_server_usersent                      0x0800a7cd   Thumb Code   298  tcp_echoserver.o(i.tcp_server_usersent)
    tcp_setprio                              0x0800a929   Thumb Code     4  tcp.o(i.tcp_setprio)
    tcp_slowtmr                              0x0800a92d   Thumb Code   640  tcp.o(i.tcp_slowtmr)
    tcp_timer_needed                         0x0800abd5   Thumb Code    36  timeouts.o(i.tcp_timer_needed)
    tcp_tmr                                  0x0800aca1   Thumb Code    30  tcp.o(i.tcp_tmr)
    tcp_trigger_input_pcb_close              0x0800acc5   Thumb Code    12  tcp_in.o(i.tcp_trigger_input_pcb_close)
    tcp_update_rcv_ann_wnd                   0x0800acd5   Thumb Code    62  tcp.o(i.tcp_update_rcv_ann_wnd)
    tcp_write                                0x0800ad13   Thumb Code   724  tcp_out.o(i.tcp_write)
    tcp_zero_window_probe                    0x0800b035   Thumb Code   202  tcp_out.o(i.tcp_zero_window_probe)
    udp_bind                                 0x0800b139   Thumb Code   132  udp.o(i.udp_bind)
    udp_connect                              0x0800b1c5   Thumb Code    82  udp.o(i.udp_connect)
    udp_init                                 0x0800b21d   Thumb Code     2  udp.o(i.udp_init)
    udp_input                                0x0800b221   Thumb Code   314  udp.o(i.udp_input)
    udp_netif_ip_addr_changed                0x0800b39d   Thumb Code    50  udp.o(i.udp_netif_ip_addr_changed)
    udp_new                                  0x0800b3d5   Thumb Code    36  udp.o(i.udp_new)
    udp_recv                                 0x0800b445   Thumb Code     6  udp.o(i.udp_recv)
    udp_remove                               0x0800b44d   Thumb Code    44  udp.o(i.udp_remove)
    udp_sendto_if                            0x0800b47d   Thumb Code    72  udp.o(i.udp_sendto_if)
    udp_sendto_if_src                        0x0800b4c5   Thumb Code   186  udp.o(i.udp_sendto_if_src)
    AHBPrescTable                            0x0800b57e   Data          16  system_stm32f4xx.o(.constdata)
    APBPrescTable                            0x0800b58e   Data           8  system_stm32f4xx.o(.constdata)
    ip_addr_any                              0x0800b998   Data           4  ip4_addr.o(.constdata)
    ip_addr_broadcast                        0x0800b99c   Data           4  ip4_addr.o(.constdata)
    ethbroadcast                             0x0800b9a0   Data           6  ethernet.o(.constdata)
    ethzero                                  0x0800b9a6   Data           6  ethernet.o(.constdata)
    memp_UDP_PCB                             0x0800b9ac   Data          12  memp.o(.constdata)
    memp_TCP_PCB                             0x0800b9b8   Data          12  memp.o(.constdata)
    memp_TCP_PCB_LISTEN                      0x0800b9c4   Data          12  memp.o(.constdata)
    memp_TCP_SEG                             0x0800b9d0   Data          12  memp.o(.constdata)
    memp_REASSDATA                           0x0800b9dc   Data          12  memp.o(.constdata)
    memp_FRAG_PBUF                           0x0800b9e8   Data          12  memp.o(.constdata)
    memp_SYS_TIMEOUT                         0x0800b9f4   Data          12  memp.o(.constdata)
    memp_PBUF                                0x0800ba00   Data          12  memp.o(.constdata)
    memp_PBUF_POOL                           0x0800ba0c   Data          12  memp.o(.constdata)
    memp_pools                               0x0800ba18   Data          36  memp.o(.constdata)
    tcp_pcb_lists                            0x0800ba80   Data          16  tcp.o(.constdata)
    lwip_cyclic_timers                       0x0800ba90   Data          40  timeouts.o(.constdata)
    Region$$Table$$Base                      0x0800bba4   Number         0  anon$$obj.o(Region$$Table)
    Region$$Table$$Limit                     0x0800bbc4   Number         0  anon$$obj.o(Region$$Table)
    rx_flag                                  0x20000000   Data           1  main.o(.data)
    state_RS232                              0x20000001   Data           1  main.o(.data)
    page_flag                                0x20000002   Data           1  main.o(.data)
    MB_SLAVEADDR                             0x20000003   Data           1  main.o(.data)
    Rx_MSG                                   0x20000004   Data           2  main.o(.data)
    Rx_MSG_RS232                             0x20000006   Data           2  main.o(.data)
    page_switch_count                        0x2000000c   Data           4  main.o(.data)
    page_count                               0x20000010   Data           4  main.o(.data)
    test_RS232_screen_count                  0x20000014   Data           4  main.o(.data)
    test_count1                              0x20000018   Data           4  main.o(.data)
    test_count2                              0x2000001c   Data           4  main.o(.data)
    Control_refresh                          0x20000020   Data           8  main.o(.data)
    key1                                     0x20000028   Data           8  main.o(.data)
    key2                                     0x20000030   Data           8  main.o(.data)
    key3                                     0x20000038   Data           8  main.o(.data)
    key4                                     0x20000040   Data           8  main.o(.data)
    key5                                     0x20000048   Data           8  main.o(.data)
    Temp_converter                           0x20000050   Data          10  main.o(.data)
    Smoke_converter                          0x2000005a   Data          10  main.o(.data)
    Mulpara_converter                        0x20000064   Data          10  main.o(.data)
    Methane_converter                        0x2000006e   Data          10  main.o(.data)
    Battery                                  0x20000078   Data          10  main.o(.data)
    correct_flag                             0x20000082   Data           1  main.o(.data)
    stemp_flag                               0x20000083   Data           1  main.o(.data)
    clear_flag                               0x20000084   Data           1  main.o(.data)
    Is_thres_stamp                           0x20000085   Data           1  main.o(.data)
    DHCP_state                               0x20000088   Data           1  app_ethernet.o(.data)
    DHCPfineTimer                            0x2000008c   Data           4  app_ethernet.o(.data)
    EthernetLinkTimer                        0x20000090   Data           4  app_ethernet.o(.data)
    link_flag                                0x20000094   Data           1  tcp_echoserver.o(.data)
    real_time_data                           0x20000098   Data           4  tcp_echoserver.o(.data)
    tcp_echoserver_pcb                       0x2000009c   Data           4  tcp_echoserver.o(.data)
    tcp_echoserver_es                        0x200000a0   Data           4  tcp_echoserver.o(.data)
    ServerIp                                 0x200000a4   Data           4  tcp_echoserver.o(.data)
    uwTick                                   0x200000a8   Data           4  stm32f4xx_hal.o(.data)
    SystemCoreClock                          0x200000ac   Data           4  system_stm32f4xx.o(.data)
    RxCount                                  0x200000b0   Data           2  bsp_debug_usart.o(.data)
    RxCount_RS232                            0x200000b2   Data           2  bsp_debug_usart.o(.data)
    tmp_Rx_Buf                               0x200000b4   Data           1  bsp_debug_usart.o(.data)
    tmp_Rx_Buf_RS232                         0x200000b5   Data           1  bsp_debug_usart.o(.data)
    begin_address                            0x200000b6   Data           1  bsp_usartx_rs232.o(.data)
    address_leg                              0x200000b7   Data           1  bsp_usartx_rs232.o(.data)
    time                                     0x200000b8   Data           1  bsp_usartx_rs232.o(.data)
    netif_list                               0x2000010c   Data           4  netif.o(.data)
    netif_default                            0x20000110   Data           4  netif.o(.data)
    tcp_active_pcbs_changed                  0x20000114   Data           1  tcp.o(.data)
    tcp_ticks                                0x20000120   Data           4  tcp.o(.data)
    tcp_bound_pcbs                           0x20000124   Data           4  tcp.o(.data)
    tcp_listen_pcbs                          0x20000128   Data           4  tcp.o(.data)
    tcp_active_pcbs                          0x2000012c   Data           4  tcp.o(.data)
    tcp_tw_pcbs                              0x20000130   Data           4  tcp.o(.data)
    tcp_input_pcb                            0x20000154   Data           4  tcp_in.o(.data)
    biaozhi                                  0x20000158   Data           4  tcp_out.o(.data)
    N111                                     0x2000015c   Data           4  tcp_out.o(.data)
    N222                                     0x20000160   Data           4  tcp_out.o(.data)
    udp_pcbs                                 0x20000174   Data           4  udp.o(.data)
    __stdout                                 0x2000017c   Data           4  stdout.o(.data)
    weight_data                              0x20000180   Data          80  main.o(.bss)
    Sensor_data                              0x200001d0   Data          44  main.o(.bss)
    reg_value                                0x200001fc   Data          76  main.o(.bss)
    gnetif                                   0x20000248   Data          56  main.o(.bss)
    Lwip_data                                0x20000280   Data          18  app_ethernet.o(.bss)
    DMARxDscrTab                             0x20000294   Data         128  ethernetif.o(.bss)
    DMATxDscrTab                             0x20000314   Data         128  ethernetif.o(.bss)
    Rx_Buff                                  0x20000394   Data        6096  ethernetif.o(.bss)
    Tx_Buff                                  0x20001b64   Data        6096  ethernetif.o(.bss)
    EthHandle                                0x20003334   Data          72  ethernetif.o(.bss)
    tcp_server_recvbuf                       0x2000337c   Data         100  tcp_echoserver.o(.bss)
    tcp_SendData                             0x200033e0   Data         100  tcp_echoserver.o(.bss)
    husart_debug                             0x20003444   Data          64  bsp_debug_usart.o(.bss)
    husartx_rs232                            0x20003484   Data          64  bsp_debug_usart.o(.bss)
    Rx_Buf                                   0x200034c4   Data         256  bsp_debug_usart.o(.bss)
    Tx_Buf                                   0x200035c4   Data         256  bsp_debug_usart.o(.bss)
    rs232_Rx_Buf                             0x200036c4   Data         256  bsp_debug_usart.o(.bss)
    rs232_Tx_Buf                             0x200037c4   Data         256  bsp_debug_usart.o(.bss)
    Rx_Sensor                                0x200038c4   Data        1280  bsp_debug_usart.o(.bss)
    htim5                                    0x20003dc4   Data          60  bsp_generaltim.o(.bss)
    htim4                                    0x20003e00   Data          60  bsp_generaltim.o(.bss)
    husartx_rs485                            0x20003e3c   Data          64  bsp_usartx_rs485.o(.bss)
    htim6                                    0x20003e7c   Data          60  bsp_basictim.o(.bss)
    dhcp_rx_options_val                      0x20003eb8   Data          40  dhcp.o(.bss)
    dhcp_rx_options_given                    0x20003ee0   Data          10  dhcp.o(.bss)
    ip_data                                  0x20003fec   Data          24  ip.o(.bss)
    ram_heap                                 0x20004004   Data       10259  mem.o(.bss)
    memp_memory_UDP_PCB_base                 0x20006817   Data         195  memp.o(.bss)
    memp_memory_TCP_PCB_base                 0x200068da   Data        1483  memp.o(.bss)
    memp_memory_TCP_PCB_LISTEN_base          0x20006ea5   Data         143  memp.o(.bss)
    memp_memory_TCP_SEG_base                 0x20006f34   Data         131  memp.o(.bss)
    memp_memory_REASSDATA_base               0x20006fb7   Data         163  memp.o(.bss)
    memp_memory_FRAG_PBUF_base               0x2000705a   Data         363  memp.o(.bss)
    memp_memory_SYS_TIMEOUT_base             0x200071c5   Data         163  memp.o(.bss)
    memp_memory_PBUF_base                    0x20007268   Data         163  memp.o(.bss)
    memp_memory_PBUF_POOL_base               0x2000730b   Data        4227  memp.o(.bss)
    __initial_sp                             0x200093a0   Data           0  startup_stm32f407xx.o(STACK)



==============================================================================

Memory Map of the image

  Image Entry point : 0x08000189

  Load Region LR_IROM1 (Base: 0x08000000, Size: 0x0000bd44, Max: 0x00100000, ABSOLUTE, COMPRESSED[0x0000bbf8])

    Execution Region ER_IROM1 (Exec base: 0x08000000, Load base: 0x08000000, Size: 0x0000bbc4, Max: 0x00100000, ABSOLUTE)

    Exec Addr    Load Addr    Size         Type   Attr      Idx    E Section Name        Object

    0x08000000   0x08000000   0x00000188   Data   RO            3    RESET               startup_stm32f407xx.o
    0x08000188   0x08000188   0x00000000   Code   RO         9066  * .ARM.Collect$$$$00000000  mc_w.l(entry.o)
    0x08000188   0x08000188   0x00000004   Code   RO         9347    .ARM.Collect$$$$00000001  mc_w.l(entry2.o)
    0x0800018c   0x0800018c   0x00000004   Code   RO         9350    .ARM.Collect$$$$00000004  mc_w.l(entry5.o)
    0x08000190   0x08000190   0x00000000   Code   RO         9352    .ARM.Collect$$$$00000008  mc_w.l(entry7b.o)
    0x08000190   0x08000190   0x00000000   Code   RO         9354    .ARM.Collect$$$$0000000A  mc_w.l(entry8b.o)
    0x08000190   0x08000190   0x00000008   Code   RO         9355    .ARM.Collect$$$$0000000B  mc_w.l(entry9a.o)
    0x08000198   0x08000198   0x00000000   Code   RO         9357    .ARM.Collect$$$$0000000D  mc_w.l(entry10a.o)
    0x08000198   0x08000198   0x00000000   Code   RO         9359    .ARM.Collect$$$$0000000F  mc_w.l(entry11a.o)
    0x08000198   0x08000198   0x00000004   Code   RO         9348    .ARM.Collect$$$$00002712  mc_w.l(entry2.o)
    0x0800019c   0x0800019c   0x00000024   Code   RO            4    .text               startup_stm32f407xx.o
    0x080001c0   0x080001c0   0x00000024   Code   RO         9069    .text               mc_w.l(rand.o)
    0x080001e4   0x080001e4   0x00000024   Code   RO         9072    .text               mc_w.l(memcpya.o)
    0x08000208   0x08000208   0x00000024   Code   RO         9074    .text               mc_w.l(memseta.o)
    0x0800022c   0x0800022c   0x0000000e   Code   RO         9076    .text               mc_w.l(strlen.o)
    0x0800023a   0x0800023a   0x0000001a   Code   RO         9078    .text               mc_w.l(memcmp.o)
    0x08000254   0x08000254   0x00000026   Code   RO         9345    .text               mf_w.l(f2d.o)
    0x0800027a   0x0800027a   0x0000002c   Code   RO         9362    .text               mc_w.l(uidiv.o)
    0x080002a6   0x080002a6   0x00000062   Code   RO         9364    .text               mc_w.l(uldiv.o)
    0x08000308   0x08000308   0x00000000   Code   RO         9366    .text               mc_w.l(iusefp.o)
    0x08000308   0x08000308   0x0000014e   Code   RO         9367    .text               mf_w.l(dadd.o)
    0x08000456   0x08000456   0x000000e4   Code   RO         9369    .text               mf_w.l(dmul.o)
    0x0800053a   0x0800053a   0x000000de   Code   RO         9371    .text               mf_w.l(ddiv.o)
    0x08000618   0x08000618   0x00000030   Code   RO         9373    .text               mf_w.l(dfixul.o)
    0x08000648   0x08000648   0x00000030   Code   RO         9375    .text               mf_w.l(cdrcmple.o)
    0x08000678   0x08000678   0x00000024   Code   RO         9377    .text               mc_w.l(init.o)
    0x0800069c   0x0800069c   0x0000001e   Code   RO         9379    .text               mc_w.l(llshl.o)
    0x080006ba   0x080006ba   0x00000020   Code   RO         9381    .text               mc_w.l(llushr.o)
    0x080006da   0x080006da   0x00000024   Code   RO         9383    .text               mc_w.l(llsshr.o)
    0x080006fe   0x080006fe   0x000000ba   Code   RO         9385    .text               mf_w.l(depilogue.o)
    0x080007b8   0x080007b8   0x00000056   Code   RO         9395    .text               mc_w.l(__dczerorl2.o)
    0x0800080e   0x0800080e   0x00000002   PAD
    0x08000810   0x08000810   0x00000034   Code   RO         6937    i.BASIC_TIMx_Init   bsp_basictim.o
    0x08000844   0x08000844   0x00000002   Code   RO          500    i.BusFault_Handler  stm32f4xx_it.o
    0x08000846   0x08000846   0x00000002   PAD
    0x08000848   0x08000848   0x0000002c   Code   RO          615    i.DHCP_Periodic_Handle  app_ethernet.o
    0x08000874   0x08000874   0x00000240   Code   RO          616    i.DHCP_Process      app_ethernet.o
    0x08000ab4   0x08000ab4   0x00000002   Code   RO          501    i.DebugMon_Handler  stm32f4xx_it.o
    0x08000ab6   0x08000ab6   0x00000010   Code   RO         3843    i.ETH_DMAReceptionEnable  stm32f4xx_hal_eth.o
    0x08000ac6   0x08000ac6   0x00000010   Code   RO         3845    i.ETH_DMATransmissionEnable  stm32f4xx_hal_eth.o
    0x08000ad6   0x08000ad6   0x00000002   PAD
    0x08000ad8   0x08000ad8   0x00000024   Code   RO         3846    i.ETH_Delay         stm32f4xx_hal_eth.o
    0x08000afc   0x08000afc   0x0000002e   Code   RO         3847    i.ETH_FlushTransmitFIFO  stm32f4xx_hal_eth.o
    0x08000b2a   0x08000b2a   0x00000002   PAD
    0x08000b2c   0x08000b2c   0x00000020   Code   RO          617    i.ETH_IRQHandler    app_ethernet.o
    0x08000b4c   0x08000b4c   0x0000002a   Code   RO         3848    i.ETH_MACAddressConfig  stm32f4xx_hal_eth.o
    0x08000b76   0x08000b76   0x00000002   PAD
    0x08000b78   0x08000b78   0x00000194   Code   RO         3849    i.ETH_MACDMAConfig  stm32f4xx_hal_eth.o
    0x08000d0c   0x08000d0c   0x00000022   Code   RO         3851    i.ETH_MACReceptionEnable  stm32f4xx_hal_eth.o
    0x08000d2e   0x08000d2e   0x00000022   Code   RO         3853    i.ETH_MACTransmissionEnable  stm32f4xx_hal_eth.o
    0x08000d50   0x08000d50   0x0000001c   Code   RO          618    i.ETH_PHY_ReadReg   app_ethernet.o
    0x08000d6c   0x08000d6c   0x0000008a   Code   RO          620    i.ETH_link_check_state  app_ethernet.o
    0x08000df6   0x08000df6   0x00000002   PAD
    0x08000df8   0x08000df8   0x00000028   Code   RO          621    i.Ethernet_Link_Periodic_Handle  app_ethernet.o
    0x08000e20   0x08000e20   0x00000088   Code   RO         6748    i.GENERAL_TIM4_Init  bsp_generaltim.o
    0x08000ea8   0x08000ea8   0x00000060   Code   RO         6749    i.GENERAL_TIMx_Init  bsp_generaltim.o
    0x08000f08   0x08000f08   0x00000018   Code   RO         6670    i.GetPinStateOfKey1  bsp_key.o
    0x08000f20   0x08000f20   0x00000018   Code   RO         6671    i.GetPinStateOfKey2  bsp_key.o
    0x08000f38   0x08000f38   0x00000018   Code   RO         6672    i.GetPinStateOfKey3  bsp_key.o
    0x08000f50   0x08000f50   0x00000018   Code   RO         6673    i.GetPinStateOfKey4  bsp_key.o
    0x08000f68   0x08000f68   0x00000018   Code   RO         6674    i.GetPinStateOfKey5  bsp_key.o
    0x08000f80   0x08000f80   0x00000024   Code   RO         1383    i.HAL_DMA_Abort_IT  stm32f4xx_hal_dma.o
    0x08000fa4   0x08000fa4   0x0000001e   Code   RO         1699    i.HAL_Delay         stm32f4xx_hal.o
    0x08000fc2   0x08000fc2   0x00000002   PAD
    0x08000fc4   0x08000fc4   0x00000138   Code   RO         3855    i.HAL_ETH_ConfigMAC  stm32f4xx_hal_eth.o
    0x080010fc   0x080010fc   0x00000080   Code   RO         3856    i.HAL_ETH_DMARxDescListInit  stm32f4xx_hal_eth.o
    0x0800117c   0x0800117c   0x0000008e   Code   RO         3857    i.HAL_ETH_DMATxDescListInit  stm32f4xx_hal_eth.o
    0x0800120a   0x0800120a   0x000000a0   Code   RO         3861    i.HAL_ETH_GetReceivedFrame_IT  stm32f4xx_hal_eth.o
    0x080012aa   0x080012aa   0x00000002   PAD
    0x080012ac   0x080012ac   0x00000270   Code   RO         3864    i.HAL_ETH_Init      stm32f4xx_hal_eth.o
    0x0800151c   0x0800151c   0x00000108   Code   RO          724    i.HAL_ETH_MspInit   ethernetif.o
    0x08001624   0x08001624   0x0000008c   Code   RO         3867    i.HAL_ETH_ReadPHYRegister  stm32f4xx_hal_eth.o
    0x080016b0   0x080016b0   0x00000046   Code   RO         3869    i.HAL_ETH_Start     stm32f4xx_hal_eth.o
    0x080016f6   0x080016f6   0x00000136   Code   RO         3871    i.HAL_ETH_TransmitFrame  stm32f4xx_hal_eth.o
    0x0800182c   0x0800182c   0x00000084   Code   RO         3873    i.HAL_ETH_WritePHYRegister  stm32f4xx_hal_eth.o
    0x080018b0   0x080018b0   0x0000021c   Code   RO         1068    i.HAL_GPIO_Init     stm32f4xx_hal_gpio.o
    0x08001acc   0x08001acc   0x0000000e   Code   RO         1070    i.HAL_GPIO_ReadPin  stm32f4xx_hal_gpio.o
    0x08001ada   0x08001ada   0x00000008   Code   RO         1071    i.HAL_GPIO_TogglePin  stm32f4xx_hal_gpio.o
    0x08001ae2   0x08001ae2   0x0000000e   Code   RO         1072    i.HAL_GPIO_WritePin  stm32f4xx_hal_gpio.o
    0x08001af0   0x08001af0   0x0000000c   Code   RO         1705    i.HAL_GetTick       stm32f4xx_hal.o
    0x08001afc   0x08001afc   0x00000010   Code   RO         1707    i.HAL_IncTick       stm32f4xx_hal.o
    0x08001b0c   0x08001b0c   0x00000034   Code   RO         1708    i.HAL_Init          stm32f4xx_hal.o
    0x08001b40   0x08001b40   0x00000028   Code   RO         1709    i.HAL_InitTick      stm32f4xx_hal.o
    0x08001b68   0x08001b68   0x00000068   Code   RO          472    i.HAL_MspInit       stm32f4xx_hal_msp.o
    0x08001bd0   0x08001bd0   0x00000018   Code   RO         1136    i.HAL_NVIC_EnableIRQ  stm32f4xx_hal_cortex.o
    0x08001be8   0x08001be8   0x00000068   Code   RO         1142    i.HAL_NVIC_SetPriority  stm32f4xx_hal_cortex.o
    0x08001c50   0x08001c50   0x00000024   Code   RO         1143    i.HAL_NVIC_SetPriorityGrouping  stm32f4xx_hal_cortex.o
    0x08001c74   0x08001c74   0x000001f0   Code   RO         1486    i.HAL_RCC_ClockConfig  stm32f4xx_hal_rcc.o
    0x08001e64   0x08001e64   0x0000000c   Code   RO         1489    i.HAL_RCC_EnableCSS  stm32f4xx_hal_rcc.o
    0x08001e70   0x08001e70   0x0000000c   Code   RO         1491    i.HAL_RCC_GetHCLKFreq  stm32f4xx_hal_rcc.o
    0x08001e7c   0x08001e7c   0x0000002c   Code   RO         1493    i.HAL_RCC_GetPCLK1Freq  stm32f4xx_hal_rcc.o
    0x08001ea8   0x08001ea8   0x0000002c   Code   RO         1494    i.HAL_RCC_GetPCLK2Freq  stm32f4xx_hal_rcc.o
    0x08001ed4   0x08001ed4   0x0000008c   Code   RO         1495    i.HAL_RCC_GetSysClockFreq  stm32f4xx_hal_rcc.o
    0x08001f60   0x08001f60   0x00000440   Code   RO         1498    i.HAL_RCC_OscConfig  stm32f4xx_hal_rcc.o
    0x080023a0   0x080023a0   0x0000001c   Code   RO         1145    i.HAL_SYSTICK_CLKSourceConfig  stm32f4xx_hal_cortex.o
    0x080023bc   0x080023bc   0x00000002   Code   RO         1146    i.HAL_SYSTICK_Callback  stm32f4xx_hal_cortex.o
    0x080023be   0x080023be   0x00000002   PAD
    0x080023c0   0x080023c0   0x00000028   Code   RO         1147    i.HAL_SYSTICK_Config  stm32f4xx_hal_cortex.o
    0x080023e8   0x080023e8   0x00000008   Code   RO         1148    i.HAL_SYSTICK_IRQHandler  stm32f4xx_hal_cortex.o
    0x080023f0   0x080023f0   0x00000002   Code   RO         1941    i.HAL_TIMEx_BreakCallback  stm32f4xx_hal_tim_ex.o
    0x080023f2   0x080023f2   0x00000002   Code   RO         1942    i.HAL_TIMEx_CommutationCallback  stm32f4xx_hal_tim_ex.o
    0x080023f4   0x080023f4   0x00000066   Code   RO         1958    i.HAL_TIMEx_MasterConfigSynchronization  stm32f4xx_hal_tim_ex.o
    0x0800245a   0x0800245a   0x00000038   Code   RO         2182    i.HAL_TIM_Base_Init  stm32f4xx_hal_tim.o
    0x08002492   0x08002492   0x00000002   PAD
    0x08002494   0x08002494   0x0000003c   Code   RO         6938    i.HAL_TIM_Base_MspInit  bsp_basictim.o
    0x080024d0   0x080024d0   0x0000001a   Code   RO         2185    i.HAL_TIM_Base_Start  stm32f4xx_hal_tim.o
    0x080024ea   0x080024ea   0x00000018   Code   RO         2187    i.HAL_TIM_Base_Start_IT  stm32f4xx_hal_tim.o
    0x08002502   0x08002502   0x00000110   Code   RO         2191    i.HAL_TIM_ConfigClockSource  stm32f4xx_hal_tim.o
    0x08002612   0x08002612   0x00000002   Code   RO         2211    i.HAL_TIM_IC_CaptureCallback  stm32f4xx_hal_tim.o
    0x08002614   0x08002614   0x00000174   Code   RO         2224    i.HAL_TIM_IRQHandler  stm32f4xx_hal_tim.o
    0x08002788   0x08002788   0x00000056   Code   RO         2225    i.HAL_TIM_OC_ConfigChannel  stm32f4xx_hal_tim.o
    0x080027de   0x080027de   0x00000002   PAD
    0x080027e0   0x080027e0   0x00000044   Code   RO           14    i.HAL_TIM_OC_DelayElapsedCallback  main.o
    0x08002824   0x08002824   0x0000004c   Code   RO         2241    i.HAL_TIM_OnePulse_Init  stm32f4xx_hal_tim.o
    0x08002870   0x08002870   0x0000003c   Code   RO         6750    i.HAL_TIM_OnePulse_MspInit  bsp_generaltim.o
    0x080028ac   0x080028ac   0x00000002   Code   RO         2254    i.HAL_TIM_PWM_PulseFinishedCallback  stm32f4xx_hal_tim.o
    0x080028ae   0x080028ae   0x00000002   PAD
    0x080028b0   0x080028b0   0x000004e0   Code   RO           15    i.HAL_TIM_PeriodElapsedCallback  main.o
    0x08002d90   0x08002d90   0x00000002   Code   RO         2265    i.HAL_TIM_TriggerCallback  stm32f4xx_hal_tim.o
    0x08002d92   0x08002d92   0x00000002   Code   RO         2842    i.HAL_UART_ErrorCallback  stm32f4xx_hal_uart.o
    0x08002d94   0x08002d94   0x00000138   Code   RO         2845    i.HAL_UART_IRQHandler  stm32f4xx_hal_uart.o
    0x08002ecc   0x08002ecc   0x00000064   Code   RO         2846    i.HAL_UART_Init     stm32f4xx_hal_uart.o
    0x08002f30   0x08002f30   0x000000f4   Code   RO         6596    i.HAL_UART_MspInit  bsp_debug_usart.o
    0x08003024   0x08003024   0x0000004c   Code   RO         2851    i.HAL_UART_Receive_IT  stm32f4xx_hal_uart.o
    0x08003070   0x08003070   0x00000150   Code   RO           16    i.HAL_UART_RxCpltCallback  main.o
    0x080031c0   0x080031c0   0x000000dc   Code   RO         2854    i.HAL_UART_Transmit  stm32f4xx_hal_uart.o
    0x0800329c   0x0800329c   0x00000002   Code   RO         2857    i.HAL_UART_TxCpltCallback  stm32f4xx_hal_uart.o
    0x0800329e   0x0800329e   0x00000002   Code   RO          502    i.HardFault_Handler  stm32f4xx_it.o
    0x080032a0   0x080032a0   0x000000b8   Code   RO         6675    i.KEY_GPIO_Init     bsp_key.o
    0x08003358   0x08003358   0x00000010   Code   RO         6676    i.KeyCreate         bsp_key.o
    0x08003368   0x08003368   0x0000000e   Code   RO         6678    i.Key_AccessTimes   bsp_key.o
    0x08003376   0x08003376   0x00000084   Code   RO         6679    i.Key_RefreshState  bsp_key.o
    0x080033fa   0x080033fa   0x00000002   PAD
    0x080033fc   0x080033fc   0x000000a0   Code   RO         6790    i.LED_GPIO_Init     bsp_led.o
    0x0800349c   0x0800349c   0x00000038   Code   RO         6820    i.MB_CRC16          bsp_mb_host.o
    0x080034d4   0x080034d4   0x00000038   Code   RO         6973    i.MB_CRC16_RS232    bsp_usartx_rs232.o
    0x0800350c   0x0800350c   0x000002cc   Code   RO         6974    i.MB_ReadCoil_03H_RS232  bsp_usartx_rs232.o
    0x080037d8   0x080037d8   0x00000164   Code   RO         6975    i.MB_ReadCoil_05H_RS232  bsp_usartx_rs232.o
    0x0800393c   0x0800393c   0x000000d4   Code   RO         6976    i.MB_ReadCoil_10H_RS232  bsp_usartx_rs232.o
    0x08003a10   0x08003a10   0x00000034   Code   RO         6822    i.MB_ReadHoldingReg_03H  bsp_mb_host.o
    0x08003a44   0x08003a44   0x00000044   Code   RO         6597    i.MX_DEBUG_USART_Init  bsp_debug_usart.o
    0x08003a88   0x08003a88   0x00000054   Code   RO         6598    i.MX_RS232_USART_Init  bsp_debug_usart.o
    0x08003adc   0x08003adc   0x00000002   Code   RO          503    i.MemManage_Handler  stm32f4xx_it.o
    0x08003ade   0x08003ade   0x00000002   Code   RO          504    i.NMI_Handler       stm32f4xx_it.o
    0x08003ae0   0x08003ae0   0x00000050   Code   RO          623    i.Netif_Config      app_ethernet.o
    0x08003b30   0x08003b30   0x00000002   Code   RO          505    i.PendSV_Handler    stm32f4xx_it.o
    0x08003b32   0x08003b32   0x00000002   Code   RO          506    i.RCC_IRQHandler    stm32f4xx_it.o
    0x08003b34   0x08003b34   0x00000098   Code   RO         6888    i.RS485_GPIO_Init   bsp_usartx_rs485.o
    0x08003bcc   0x08003bcc   0x00000060   Code   RO         6889    i.RS485_USARTx_Init  bsp_usartx_rs485.o
    0x08003c2c   0x08003c2c   0x00000060   Code   RO         6890    i.RS485_USARTx_Init_4800  bsp_usartx_rs485.o
    0x08003c8c   0x08003c8c   0x00000002   Code   RO          507    i.SVC_Handler       stm32f4xx_it.o
    0x08003c8e   0x08003c8e   0x0000000e   Code   RO          508    i.SysTick_Handler   stm32f4xx_it.o
    0x08003c9c   0x08003c9c   0x0000009c   Code   RO           17    i.SystemClock_Config  main.o
    0x08003d38   0x08003d38   0x00000058   Code   RO         6558    i.SystemInit        system_stm32f4xx.o
    0x08003d90   0x08003d90   0x0000000c   Code   RO          509    i.TIM4_IRQHandler   stm32f4xx_it.o
    0x08003d9c   0x08003d9c   0x0000000c   Code   RO          510    i.TIM5_IRQHandler   stm32f4xx_it.o
    0x08003da8   0x08003da8   0x0000000c   Code   RO          511    i.TIM6_DAC_IRQHandler  stm32f4xx_it.o
    0x08003db4   0x08003db4   0x000000c8   Code   RO         2266    i.TIM_Base_SetConfig  stm32f4xx_hal_tim.o
    0x08003e7c   0x08003e7c   0x00000016   Code   RO         2273    i.TIM_ETR_SetConfig  stm32f4xx_hal_tim.o
    0x08003e92   0x08003e92   0x00000010   Code   RO         2274    i.TIM_ITRx_SetConfig  stm32f4xx_hal_tim.o
    0x08003ea2   0x08003ea2   0x00000068   Code   RO         2275    i.TIM_OC1_SetConfig  stm32f4xx_hal_tim.o
    0x08003f0a   0x08003f0a   0x00000070   Code   RO         2276    i.TIM_OC2_SetConfig  stm32f4xx_hal_tim.o
    0x08003f7a   0x08003f7a   0x00000070   Code   RO         2277    i.TIM_OC3_SetConfig  stm32f4xx_hal_tim.o
    0x08003fea   0x08003fea   0x00000058   Code   RO         2278    i.TIM_OC4_SetConfig  stm32f4xx_hal_tim.o
    0x08004042   0x08004042   0x00000026   Code   RO         2280    i.TIM_TI1_ConfigInputStage  stm32f4xx_hal_tim.o
    0x08004068   0x08004068   0x00000024   Code   RO         2282    i.TIM_TI2_ConfigInputStage  stm32f4xx_hal_tim.o
    0x0800408c   0x0800408c   0x0000000c   Code   RO          512    i.UART5_IRQHandler  stm32f4xx_it.o
    0x08004098   0x08004098   0x00000010   Code   RO         2859    i.UART_DMAAbortOnError  stm32f4xx_hal_uart.o
    0x080040a8   0x080040a8   0x0000001c   Code   RO         2869    i.UART_EndRxTransfer  stm32f4xx_hal_uart.o
    0x080040c4   0x080040c4   0x0000001a   Code   RO         2870    i.UART_EndTransmit_IT  stm32f4xx_hal_uart.o
    0x080040de   0x080040de   0x00000002   PAD
    0x080040e0   0x080040e0   0x00000024   Code   RO         6599    i.UART_RS232_Tx     bsp_debug_usart.o
    0x08004104   0x08004104   0x00000092   Code   RO         2872    i.UART_Receive_IT   stm32f4xx_hal_uart.o
    0x08004196   0x08004196   0x00000002   PAD
    0x08004198   0x08004198   0x00000344   Code   RO         2873    i.UART_SetConfig    stm32f4xx_hal_uart.o
    0x080044dc   0x080044dc   0x00000066   Code   RO         2874    i.UART_Transmit_IT  stm32f4xx_hal_uart.o
    0x08004542   0x08004542   0x00000002   PAD
    0x08004544   0x08004544   0x00000038   Code   RO         6891    i.UART_Tx           bsp_usartx_rs485.o
    0x0800457c   0x0800457c   0x00000078   Code   RO         2875    i.UART_WaitOnFlagUntilTimeout  stm32f4xx_hal_uart.o
    0x080045f4   0x080045f4   0x0000000c   Code   RO          513    i.USART3_IRQHandler  stm32f4xx_it.o
    0x08004600   0x08004600   0x00000002   Code   RO          514    i.UsageFault_Handler  stm32f4xx_it.o
    0x08004602   0x08004602   0x00000002   PAD
    0x08004604   0x08004604   0x00000210   Code   RO          825    i.YSF4_TCP_SENDData  tcp_echoserver.o
    0x08004814   0x08004814   0x00000020   Code   RO         9317    i.__0printf         mc_w.l(printfa.o)
    0x08004834   0x08004834   0x00000028   Code   RO         9319    i.__0sprintf        mc_w.l(printfa.o)
    0x0800485c   0x0800485c   0x0000000e   Code   RO         9389    i.__scatterload_copy  mc_w.l(handlers.o)
    0x0800486a   0x0800486a   0x00000002   Code   RO         9390    i.__scatterload_null  mc_w.l(handlers.o)
    0x0800486c   0x0800486c   0x0000000e   Code   RO         9391    i.__scatterload_zeroinit  mc_w.l(handlers.o)
    0x0800487a   0x0800487a   0x00000002   PAD
    0x0800487c   0x0800487c   0x00000184   Code   RO         9324    i._fp_digits        mc_w.l(printfa.o)
    0x08004a00   0x08004a00   0x000006dc   Code   RO         9325    i._printf_core      mc_w.l(printfa.o)
    0x080050dc   0x080050dc   0x00000024   Code   RO         9326    i._printf_post_padding  mc_w.l(printfa.o)
    0x08005100   0x08005100   0x0000002e   Code   RO         9327    i._printf_pre_padding  mc_w.l(printfa.o)
    0x0800512e   0x0800512e   0x0000000a   Code   RO         9329    i._sputc            mc_w.l(printfa.o)
    0x08005138   0x08005138   0x0000001c   Code   RO         8892    i.cyclic_timer      timeouts.o
    0x08005154   0x08005154   0x0000001e   Code   RO         7055    i.dhcp_arp_reply    dhcp.o
    0x08005172   0x08005172   0x00000002   PAD
    0x08005174   0x08005174   0x000000f0   Code   RO         7056    i.dhcp_bind         dhcp.o
    0x08005264   0x08005264   0x00000034   Code   RO         7057    i.dhcp_check        dhcp.o
    0x08005298   0x08005298   0x00000068   Code   RO         7059    i.dhcp_coarse_tmr   dhcp.o
    0x08005300   0x08005300   0x00000134   Code   RO         7060    i.dhcp_create_msg   dhcp.o
    0x08005434   0x08005434   0x00000020   Code   RO         7061    i.dhcp_dec_pcb_refcount  dhcp.o
    0x08005454   0x08005454   0x00000090   Code   RO         7062    i.dhcp_decline      dhcp.o
    0x080054e4   0x080054e4   0x00000018   Code   RO         7063    i.dhcp_delete_msg   dhcp.o
    0x080054fc   0x080054fc   0x000000d8   Code   RO         7064    i.dhcp_discover     dhcp.o
    0x080055d4   0x080055d4   0x00000034   Code   RO         7065    i.dhcp_fine_tmr     dhcp.o
    0x08005608   0x08005608   0x0000006c   Code   RO         7066    i.dhcp_handle_ack   dhcp.o
    0x08005674   0x08005674   0x00000028   Code   RO         7067    i.dhcp_handle_nak   dhcp.o
    0x0800569c   0x0800569c   0x00000034   Code   RO         7068    i.dhcp_handle_offer  dhcp.o
    0x080056d0   0x080056d0   0x00000054   Code   RO         7069    i.dhcp_inc_pcb_refcount  dhcp.o
    0x08005724   0x08005724   0x00000030   Code   RO         7071    i.dhcp_network_changed  dhcp.o
    0x08005754   0x08005754   0x00000022   Code   RO         7072    i.dhcp_option       dhcp.o
    0x08005776   0x08005776   0x0000000e   Code   RO         7073    i.dhcp_option_byte  dhcp.o
    0x08005784   0x08005784   0x00000044   Code   RO         7074    i.dhcp_option_long  dhcp.o
    0x080057c8   0x080057c8   0x00000020   Code   RO         7075    i.dhcp_option_short  dhcp.o
    0x080057e8   0x080057e8   0x00000032   Code   RO         7076    i.dhcp_option_trailer  dhcp.o
    0x0800581a   0x0800581a   0x00000002   PAD
    0x0800581c   0x0800581c   0x000002bc   Code   RO         7077    i.dhcp_parse_reply  dhcp.o
    0x08005ad8   0x08005ad8   0x000000b8   Code   RO         7078    i.dhcp_rebind       dhcp.o
    0x08005b90   0x08005b90   0x000000d4   Code   RO         7079    i.dhcp_reboot       dhcp.o
    0x08005c64   0x08005c64   0x00000104   Code   RO         7080    i.dhcp_recv         dhcp.o
    0x08005d68   0x08005d68   0x000000b4   Code   RO         7081    i.dhcp_release      dhcp.o
    0x08005e1c   0x08005e1c   0x000000b8   Code   RO         7082    i.dhcp_renew        dhcp.o
    0x08005ed4   0x08005ed4   0x00000104   Code   RO         7083    i.dhcp_select       dhcp.o
    0x08005fd8   0x08005fd8   0x00000010   Code   RO         7084    i.dhcp_set_state    dhcp.o
    0x08005fe8   0x08005fe8   0x00000094   Code   RO         7086    i.dhcp_start        dhcp.o
    0x0800607c   0x0800607c   0x00000024   Code   RO         7087    i.dhcp_stop         dhcp.o
    0x080060a0   0x080060a0   0x0000001e   Code   RO         7088    i.dhcp_supplied_address  dhcp.o
    0x080060be   0x080060be   0x0000002a   Code   RO         7089    i.dhcp_t1_timeout   dhcp.o
    0x080060e8   0x080060e8   0x0000002e   Code   RO         7090    i.dhcp_t2_timeout   dhcp.o
    0x08006116   0x08006116   0x0000007c   Code   RO         7091    i.dhcp_timeout      dhcp.o
    0x08006192   0x08006192   0x0000000c   Code   RO         7963    i.do_memp_free_pool  memp.o
    0x0800619e   0x0800619e   0x00000012   Code   RO         7964    i.do_memp_malloc_pool  memp.o
    0x080061b0   0x080061b0   0x00000030   Code   RO         7348    i.etharp_cleanup_netif  etharp.o
    0x080061e0   0x080061e0   0x0000010c   Code   RO         7350    i.etharp_find_entry  etharp.o
    0x080062ec   0x080062ec   0x00000028   Code   RO         7351    i.etharp_free_entry  etharp.o
    0x08006314   0x08006314   0x000000c8   Code   RO         7353    i.etharp_input      etharp.o
    0x080063dc   0x080063dc   0x0000010c   Code   RO         7354    i.etharp_output     etharp.o
    0x080064e8   0x080064e8   0x00000060   Code   RO         7355    i.etharp_output_to_arp_index  etharp.o
    0x08006548   0x08006548   0x00000128   Code   RO         7356    i.etharp_query      etharp.o
    0x08006670   0x08006670   0x0000008a   Code   RO         7357    i.etharp_raw        etharp.o
    0x080066fa   0x080066fa   0x00000002   PAD
    0x080066fc   0x080066fc   0x0000000c   Code   RO         7358    i.etharp_request    etharp.o
    0x08006708   0x08006708   0x00000028   Code   RO         7359    i.etharp_request_dst  etharp.o
    0x08006730   0x08006730   0x00000064   Code   RO         7360    i.etharp_tmr        etharp.o
    0x08006794   0x08006794   0x00000084   Code   RO         7361    i.etharp_update_arp_entry  etharp.o
    0x08006818   0x08006818   0x000000a8   Code   RO         7724    i.ethernet_input    ethernet.o
    0x080068c0   0x080068c0   0x000000e4   Code   RO          725    i.ethernet_link_check_state  ethernetif.o
    0x080069a4   0x080069a4   0x0000007c   Code   RO          625    i.ethernet_link_status_updated  app_ethernet.o
    0x08006a20   0x08006a20   0x00000052   Code   RO         7725    i.ethernet_output   ethernet.o
    0x08006a72   0x08006a72   0x00000002   PAD
    0x08006a74   0x08006a74   0x00000028   Code   RO          726    i.ethernetif_init   ethernetif.o
    0x08006a9c   0x08006a9c   0x00000026   Code   RO          727    i.ethernetif_input  ethernetif.o
    0x08006ac2   0x08006ac2   0x00000002   PAD
    0x08006ac4   0x08006ac4   0x0000001c   Code   RO         6601    i.fputc             bsp_debug_usart.o
    0x08006ae0   0x08006ae0   0x00000008   Code   RO         7445    i.icmp_dest_unreach  icmp.o
    0x08006ae8   0x08006ae8   0x00000144   Code   RO         7446    i.icmp_input        icmp.o
    0x08006c2c   0x08006c2c   0x00000072   Code   RO         7447    i.icmp_send_response  icmp.o
    0x08006c9e   0x08006c9e   0x00000008   Code   RO         7448    i.icmp_time_exceeded  icmp.o
    0x08006ca6   0x08006ca6   0x0000004c   Code   RO         7805    i.inet_chksum_pbuf  inet_chksum.o
    0x08006cf2   0x08006cf2   0x00000050   Code   RO         7546    i.ip4_addr_isbroadcast_u32  ip4_addr.o
    0x08006d42   0x08006d42   0x00000002   PAD
    0x08006d44   0x08006d44   0x000001a4   Code   RO         7600    i.ip4_frag          ip4_frag.o
    0x08006ee8   0x08006ee8   0x000001f4   Code   RO         7489    i.ip4_input         ip4.o
    0x080070dc   0x080070dc   0x0000002c   Code   RO         7491    i.ip4_output_if     ip4.o
    0x08007108   0x08007108   0x000000bc   Code   RO         7492    i.ip4_output_if_src  ip4.o
    0x080071c4   0x080071c4   0x00000180   Code   RO         7601    i.ip4_reass         ip4_frag.o
    0x08007344   0x08007344   0x00000074   Code   RO         7493    i.ip4_route         ip4.o
    0x080073b8   0x080073b8   0x0000000c   Code   RO         7549    i.ip4addr_ntoa      ip4_addr.o
    0x080073c4   0x080073c4   0x000000b0   Code   RO         7550    i.ip4addr_ntoa_r    ip4_addr.o
    0x08007474   0x08007474   0x00000006   Code   RO         7602    i.ip_frag_alloc_pbuf_custom_ref  ip4_frag.o
    0x0800747a   0x0800747a   0x00000008   Code   RO         7603    i.ip_frag_free_pbuf_custom_ref  ip4_frag.o
    0x08007482   0x08007482   0x00000002   PAD
    0x08007484   0x08007484   0x000000f8   Code   RO         7604    i.ip_reass_chain_frag_into_datagram_and_validate  ip4_frag.o
    0x0800757c   0x0800757c   0x00000020   Code   RO         7605    i.ip_reass_dequeue_datagram  ip4_frag.o
    0x0800759c   0x0800759c   0x00000064   Code   RO         7606    i.ip_reass_enqueue_new_datagram  ip4_frag.o
    0x08007600   0x08007600   0x0000007c   Code   RO         7607    i.ip_reass_free_complete_datagram  ip4_frag.o
    0x0800767c   0x0800767c   0x0000007c   Code   RO         7608    i.ip_reass_remove_oldest_datagram  ip4_frag.o
    0x080076f8   0x080076f8   0x00000030   Code   RO         7609    i.ip_reass_tmr      ip4_frag.o
    0x08007728   0x08007728   0x00000018   Code   RO         7610    i.ipfrag_free_pbuf_custom  ip4_frag.o
    0x08007740   0x08007740   0x0000011c   Code   RO          729    i.low_level_init    ethernetif.o
    0x0800785c   0x0800785c   0x000000c4   Code   RO          730    i.low_level_input   ethernetif.o
    0x08007920   0x08007920   0x000000b8   Code   RO          731    i.low_level_output  ethernetif.o
    0x080079d8   0x080079d8   0x0000000c   Code   RO          732    i.lwip_IT_handle    ethernetif.o
    0x080079e4   0x080079e4   0x00000018   Code   RO         7755    i.lwip_htonl        def.o
    0x080079fc   0x080079fc   0x0000000a   Code   RO         7756    i.lwip_htons        def.o
    0x08007a06   0x08007a06   0x0000001e   Code   RO         7872    i.lwip_init         init.o
    0x08007a24   0x08007a24   0x0000005a   Code   RO         7812    i.lwip_standard_chksum  inet_chksum.o
    0x08007a7e   0x08007a7e   0x00000002   PAD
    0x08007a80   0x08007a80   0x00000188   Code   RO           19    i.main              main.o
    0x08007c08   0x08007c08   0x0000002c   Code   RO         7919    i.mem_free          mem.o
    0x08007c34   0x08007c34   0x00000034   Code   RO         7920    i.mem_init          mem.o
    0x08007c68   0x08007c68   0x000000c0   Code   RO         7921    i.mem_malloc        mem.o
    0x08007d28   0x08007d28   0x000000e4   Code   RO         7922    i.mem_trim          mem.o
    0x08007e0c   0x08007e0c   0x00000018   Code   RO         7965    i.memp_free         memp.o
    0x08007e24   0x08007e24   0x0000001c   Code   RO         7967    i.memp_init         memp.o
    0x08007e40   0x08007e40   0x0000002e   Code   RO         7968    i.memp_init_pool    memp.o
    0x08007e6e   0x08007e6e   0x00000002   PAD
    0x08007e70   0x08007e70   0x00000018   Code   RO         7969    i.memp_malloc       memp.o
    0x08007e88   0x08007e88   0x00000058   Code   RO         8066    i.netif_add         netif.o
    0x08007ee0   0x08007ee0   0x00000002   Code   RO         8068    i.netif_init        netif.o
    0x08007ee2   0x08007ee2   0x0000001e   Code   RO         8070    i.netif_issue_reports  netif.o
    0x08007f00   0x08007f00   0x0000004c   Code   RO         8072    i.netif_set_addr    netif.o
    0x08007f4c   0x08007f4c   0x0000000c   Code   RO         8073    i.netif_set_default  netif.o
    0x08007f58   0x08007f58   0x0000001e   Code   RO         8074    i.netif_set_down    netif.o
    0x08007f76   0x08007f76   0x0000000e   Code   RO         8075    i.netif_set_gw      netif.o
    0x08007f84   0x08007f84   0x00000048   Code   RO         8076    i.netif_set_ipaddr  netif.o
    0x08007fcc   0x08007fcc   0x00000008   Code   RO         8077    i.netif_set_link_callback  netif.o
    0x08007fd4   0x08007fd4   0x0000001c   Code   RO         8078    i.netif_set_link_down  netif.o
    0x08007ff0   0x08007ff0   0x0000003e   Code   RO         8079    i.netif_set_link_up  netif.o
    0x0800802e   0x0800802e   0x0000000e   Code   RO         8080    i.netif_set_netmask  netif.o
    0x0800803c   0x0800803c   0x00000020   Code   RO         8081    i.netif_set_up      netif.o
    0x0800805c   0x0800805c   0x0000013a   Code   RO         8177    i.pbuf_alloc        pbuf.o
    0x08008196   0x08008196   0x00000068   Code   RO         8178    i.pbuf_alloced_custom  pbuf.o
    0x080081fe   0x080081fe   0x00000028   Code   RO         8179    i.pbuf_cat          pbuf.o
    0x08008226   0x08008226   0x00000014   Code   RO         8180    i.pbuf_chain        pbuf.o
    0x0800823a   0x0800823a   0x00000014   Code   RO         8181    i.pbuf_clen         pbuf.o
    0x0800824e   0x0800824e   0x000000a8   Code   RO         8183    i.pbuf_copy         pbuf.o
    0x080082f6   0x080082f6   0x00000070   Code   RO         8184    i.pbuf_copy_partial  pbuf.o
    0x08008366   0x08008366   0x0000005e   Code   RO         8186    i.pbuf_free         pbuf.o
    0x080083c4   0x080083c4   0x00000006   Code   RO         8188    i.pbuf_header       pbuf.o
    0x080083ca   0x080083ca   0x00000006   Code   RO         8189    i.pbuf_header_force  pbuf.o
    0x080083d0   0x080083d0   0x0000008a   Code   RO         8190    i.pbuf_header_impl  pbuf.o
    0x0800845a   0x0800845a   0x0000005c   Code   RO         8194    i.pbuf_realloc      pbuf.o
    0x080084b6   0x080084b6   0x0000000c   Code   RO         8195    i.pbuf_ref          pbuf.o
    0x080084c2   0x080084c2   0x0000005e   Code   RO         8199    i.pbuf_take         pbuf.o
    0x08008520   0x08008520   0x00000068   Code   RO         7923    i.plug_holes        mem.o
    0x08008588   0x08008588   0x0000004c   Code   RO         8893    i.sys_check_timeouts  timeouts.o
    0x080085d4   0x080085d4   0x00000004   Code   RO          733    i.sys_now           ethernetif.o
    0x080085d8   0x080085d8   0x000000a8   Code   RO         8895    i.sys_timeout       timeouts.o
    0x08008680   0x08008680   0x00000030   Code   RO         8896    i.sys_timeouts_init  timeouts.o
    0x080086b0   0x080086b0   0x000000d4   Code   RO         8349    i.tcp_abandon       tcp.o
    0x08008784   0x08008784   0x00000006   Code   RO         8350    i.tcp_abort         tcp.o
    0x0800878a   0x0800878a   0x0000000e   Code   RO         8351    i.tcp_accept        tcp.o
    0x08008798   0x08008798   0x0000000e   Code   RO         8352    i.tcp_accept_null   tcp.o
    0x080087a6   0x080087a6   0x00000002   PAD
    0x080087a8   0x080087a8   0x000000b0   Code   RO         8353    i.tcp_alloc         tcp.o
    0x08008858   0x08008858   0x00000008   Code   RO         8354    i.tcp_arg           tcp.o
    0x08008860   0x08008860   0x0000009c   Code   RO         8355    i.tcp_bind          tcp.o
    0x080088fc   0x080088fc   0x00000014   Code   RO         8356    i.tcp_close         tcp.o
    0x08008910   0x08008910   0x0000018c   Code   RO         8357    i.tcp_close_shutdown  tcp.o
    0x08008a9c   0x08008a9c   0x0000009a   Code   RO         8766    i.tcp_create_segment  tcp_out.o
    0x08008b36   0x08008b36   0x00000002   PAD
    0x08008b38   0x08008b38   0x000000b8   Code   RO          826    i.tcp_echoserver_accept  tcp_echoserver.o
    0x08008bf0   0x08008bf0   0x00000042   Code   RO          828    i.tcp_echoserver_connection_close  tcp_echoserver.o
    0x08008c32   0x08008c32   0x0000000a   Code   RO          829    i.tcp_echoserver_error  tcp_echoserver.o
    0x08008c3c   0x08008c3c   0x0000002a   Code   RO          830    i.tcp_echoserver_poll  tcp_echoserver.o
    0x08008c66   0x08008c66   0x00000002   PAD
    0x08008c68   0x08008c68   0x000000e8   Code   RO          831    i.tcp_echoserver_recv  tcp_echoserver.o
    0x08008d50   0x08008d50   0x00000074   Code   RO          832    i.tcp_echoserver_send  tcp_echoserver.o
    0x08008dc4   0x08008dc4   0x00000026   Code   RO         8360    i.tcp_eff_send_mss_impl  tcp.o
    0x08008dea   0x08008dea   0x000000be   Code   RO         8767    i.tcp_enqueue_flags  tcp_out.o
    0x08008ea8   0x08008ea8   0x0000000a   Code   RO         8361    i.tcp_err           tcp.o
    0x08008eb2   0x08008eb2   0x00000002   PAD
    0x08008eb4   0x08008eb4   0x00000060   Code   RO         8362    i.tcp_fasttmr       tcp.o
    0x08008f14   0x08008f14   0x0000003c   Code   RO         8701    i.tcp_getoptbyte    tcp_in.o
    0x08008f50   0x08008f50   0x00000002   Code   RO         8363    i.tcp_init          tcp.o
    0x08008f52   0x08008f52   0x00000002   PAD
    0x08008f54   0x08008f54   0x000003d0   Code   RO         8702    i.tcp_input         tcp_in.o
    0x08009324   0x08009324   0x00000058   Code   RO         8768    i.tcp_keepalive     tcp_out.o
    0x0800937c   0x0800937c   0x00000048   Code   RO         8364    i.tcp_kill_prio     tcp.o
    0x080093c4   0x080093c4   0x00000040   Code   RO         8365    i.tcp_kill_state    tcp.o
    0x08009404   0x08009404   0x00000034   Code   RO         8366    i.tcp_kill_timewait  tcp.o
    0x08009438   0x08009438   0x00000020   Code   RO         8367    i.tcp_listen_closed  tcp.o
    0x08009458   0x08009458   0x000000fc   Code   RO         8703    i.tcp_listen_input  tcp_in.o
    0x08009554   0x08009554   0x00000090   Code   RO         8368    i.tcp_listen_with_backlog  tcp.o
    0x080095e4   0x080095e4   0x00000050   Code   RO         8369    i.tcp_netif_ip_addr_changed  tcp.o
    0x08009634   0x08009634   0x00000024   Code   RO         8370    i.tcp_netif_ip_addr_changed_pcblist  tcp.o
    0x08009658   0x08009658   0x00000006   Code   RO         8371    i.tcp_new           tcp.o
    0x0800965e   0x0800965e   0x00000002   PAD
    0x08009660   0x08009660   0x00000060   Code   RO         8373    i.tcp_new_port      tcp.o
    0x080096c0   0x080096c0   0x00000010   Code   RO         8374    i.tcp_next_iss      tcp.o
    0x080096d0   0x080096d0   0x00000200   Code   RO         8769    i.tcp_output        tcp_out.o
    0x080098d0   0x080098d0   0x0000006a   Code   RO         8770    i.tcp_output_alloc_header  tcp_out.o
    0x0800993a   0x0800993a   0x00000002   PAD
    0x0800993c   0x0800993c   0x000000b4   Code   RO         8771    i.tcp_output_segment  tcp_out.o
    0x080099f0   0x080099f0   0x00000078   Code   RO         8704    i.tcp_parseopt      tcp_in.o
    0x08009a68   0x08009a68   0x00000056   Code   RO         8772    i.tcp_pbuf_prealloc  tcp_out.o
    0x08009abe   0x08009abe   0x0000003a   Code   RO         8375    i.tcp_pcb_purge     tcp.o
    0x08009af8   0x08009af8   0x0000006c   Code   RO         8376    i.tcp_pcb_remove    tcp.o
    0x08009b64   0x08009b64   0x00000008   Code   RO         8377    i.tcp_poll          tcp.o
    0x08009b6c   0x08009b6c   0x00000494   Code   RO         8705    i.tcp_process       tcp_in.o
    0x0800a000   0x0800a000   0x0000007c   Code   RO         8378    i.tcp_process_refused_data  tcp.o
    0x0800a07c   0x0800a07c   0x0000042c   Code   RO         8706    i.tcp_receive       tcp_in.o
    0x0800a4a8   0x0800a4a8   0x00000008   Code   RO         8379    i.tcp_recv          tcp.o
    0x0800a4b0   0x0800a4b0   0x00000026   Code   RO         8380    i.tcp_recv_null     tcp.o
    0x0800a4d6   0x0800a4d6   0x00000002   PAD
    0x0800a4d8   0x0800a4d8   0x0000005c   Code   RO         8381    i.tcp_recved        tcp.o
    0x0800a534   0x0800a534   0x00000016   Code   RO         8382    i.tcp_remove_listener  tcp.o
    0x0800a54a   0x0800a54a   0x00000052   Code   RO         8773    i.tcp_rexmit        tcp_out.o
    0x0800a59c   0x0800a59c   0x00000066   Code   RO         8774    i.tcp_rexmit_fast   tcp_out.o
    0x0800a602   0x0800a602   0x00000002   PAD
    0x0800a604   0x0800a604   0x00000048   Code   RO         8775    i.tcp_rexmit_rto    tcp_out.o
    0x0800a64c   0x0800a64c   0x00000088   Code   RO         8776    i.tcp_rst           tcp_out.o
    0x0800a6d4   0x0800a6d4   0x0000001e   Code   RO         8383    i.tcp_seg_free      tcp.o
    0x0800a6f2   0x0800a6f2   0x00000014   Code   RO         8384    i.tcp_segs_free     tcp.o
    0x0800a706   0x0800a706   0x00000074   Code   RO         8777    i.tcp_send_empty_ack  tcp_out.o
    0x0800a77a   0x0800a77a   0x0000004a   Code   RO         8778    i.tcp_send_fin      tcp_out.o
    0x0800a7c4   0x0800a7c4   0x00000008   Code   RO         8385    i.tcp_sent          tcp.o
    0x0800a7cc   0x0800a7cc   0x0000015c   Code   RO          833    i.tcp_server_usersent  tcp_echoserver.o
    0x0800a928   0x0800a928   0x00000004   Code   RO         8386    i.tcp_setprio       tcp.o
    0x0800a92c   0x0800a92c   0x000002a8   Code   RO         8388    i.tcp_slowtmr       tcp.o
    0x0800abd4   0x0800abd4   0x00000034   Code   RO         8899    i.tcp_timer_needed  timeouts.o
    0x0800ac08   0x0800ac08   0x00000098   Code   RO         8707    i.tcp_timewait_input  tcp_in.o
    0x0800aca0   0x0800aca0   0x00000024   Code   RO         8389    i.tcp_tmr           tcp.o
    0x0800acc4   0x0800acc4   0x00000010   Code   RO         8708    i.tcp_trigger_input_pcb_close  tcp_in.o
    0x0800acd4   0x0800acd4   0x0000003e   Code   RO         8391    i.tcp_update_rcv_ann_wnd  tcp.o
    0x0800ad12   0x0800ad12   0x000002d4   Code   RO         8779    i.tcp_write         tcp_out.o
    0x0800afe6   0x0800afe6   0x0000004e   Code   RO         8780    i.tcp_write_checks  tcp_out.o
    0x0800b034   0x0800b034   0x000000ca   Code   RO         8781    i.tcp_zero_window_probe  tcp_out.o
    0x0800b0fe   0x0800b0fe   0x00000002   PAD
    0x0800b100   0x0800b100   0x00000038   Code   RO         8900    i.tcpip_tcp_timer   timeouts.o
    0x0800b138   0x0800b138   0x0000008c   Code   RO         8957    i.udp_bind          udp.o
    0x0800b1c4   0x0800b1c4   0x00000058   Code   RO         8958    i.udp_connect       udp.o
    0x0800b21c   0x0800b21c   0x00000002   Code   RO         8960    i.udp_init          udp.o
    0x0800b21e   0x0800b21e   0x00000002   PAD
    0x0800b220   0x0800b220   0x00000144   Code   RO         8961    i.udp_input         udp.o
    0x0800b364   0x0800b364   0x00000038   Code   RO         8962    i.udp_input_local_match  udp.o
    0x0800b39c   0x0800b39c   0x00000038   Code   RO         8963    i.udp_netif_ip_addr_changed  udp.o
    0x0800b3d4   0x0800b3d4   0x00000024   Code   RO         8964    i.udp_new           udp.o
    0x0800b3f8   0x0800b3f8   0x0000004c   Code   RO         8966    i.udp_new_port      udp.o
    0x0800b444   0x0800b444   0x00000006   Code   RO         8967    i.udp_recv          udp.o
    0x0800b44a   0x0800b44a   0x00000002   PAD
    0x0800b44c   0x0800b44c   0x00000030   Code   RO         8968    i.udp_remove        udp.o
    0x0800b47c   0x0800b47c   0x00000048   Code   RO         8971    i.udp_sendto_if     udp.o
    0x0800b4c4   0x0800b4c4   0x000000ba   Code   RO         8972    i.udp_sendto_if_src  udp.o
    0x0800b57e   0x0800b57e   0x00000010   Data   RO         6559    .constdata          system_stm32f4xx.o
    0x0800b58e   0x0800b58e   0x00000008   Data   RO         6560    .constdata          system_stm32f4xx.o
    0x0800b596   0x0800b596   0x00000200   Data   RO         6828    .constdata          bsp_mb_host.o
    0x0800b796   0x0800b796   0x00000200   Data   RO         6977    .constdata          bsp_usartx_rs232.o
    0x0800b996   0x0800b996   0x00000002   PAD
    0x0800b998   0x0800b998   0x00000004   Data   RO         7553    .constdata          ip4_addr.o
    0x0800b99c   0x0800b99c   0x00000004   Data   RO         7554    .constdata          ip4_addr.o
    0x0800b9a0   0x0800b9a0   0x00000006   Data   RO         7726    .constdata          ethernet.o
    0x0800b9a6   0x0800b9a6   0x00000006   Data   RO         7727    .constdata          ethernet.o
    0x0800b9ac   0x0800b9ac   0x0000000c   Data   RO         7980    .constdata          memp.o
    0x0800b9b8   0x0800b9b8   0x0000000c   Data   RO         7981    .constdata          memp.o
    0x0800b9c4   0x0800b9c4   0x0000000c   Data   RO         7982    .constdata          memp.o
    0x0800b9d0   0x0800b9d0   0x0000000c   Data   RO         7983    .constdata          memp.o
    0x0800b9dc   0x0800b9dc   0x0000000c   Data   RO         7984    .constdata          memp.o
    0x0800b9e8   0x0800b9e8   0x0000000c   Data   RO         7985    .constdata          memp.o
    0x0800b9f4   0x0800b9f4   0x0000000c   Data   RO         7986    .constdata          memp.o
    0x0800ba00   0x0800ba00   0x0000000c   Data   RO         7987    .constdata          memp.o
    0x0800ba0c   0x0800ba0c   0x0000000c   Data   RO         7988    .constdata          memp.o
    0x0800ba18   0x0800ba18   0x00000024   Data   RO         7989    .constdata          memp.o
    0x0800ba3c   0x0800ba3c   0x00000054   Data   RO         8392    .constdata          tcp.o
    0x0800ba90   0x0800ba90   0x00000028   Data   RO         8901    .constdata          timeouts.o
    0x0800bab8   0x0800bab8   0x00000074   Data   RO          836    .conststring        tcp_echoserver.o
    0x0800bb2c   0x0800bb2c   0x00000075   Data   RO         8393    .conststring        tcp.o
    0x0800bba1   0x0800bba1   0x00000003   PAD
    0x0800bba4   0x0800bba4   0x00000020   Data   RO         9387    Region$$Table       anon$$obj.o


    Execution Region RW_IRAM1 (Exec base: 0x20000000, Load base: 0x0800bbc4, Size: 0x000093a0, Max: 0x00020000, ABSOLUTE, COMPRESSED[0x00000034])

    Exec Addr    Load Addr    Size         Type   Attr      Idx    E Section Name        Object

    0x20000000   COMPRESSED   0x00000082   Data   RW           21    .data               main.o
    0x20000082   COMPRESSED   0x00000001   Data   RW           22    .data               main.o
    0x20000083   COMPRESSED   0x00000001   Data   RW           23    .data               main.o
    0x20000084   COMPRESSED   0x00000001   Data   RW           24    .data               main.o
    0x20000085   COMPRESSED   0x00000001   Data   RW           25    .data               main.o
    0x20000086   COMPRESSED   0x00000002   PAD
    0x20000088   COMPRESSED   0x0000000c   Data   RW          627    .data               app_ethernet.o
    0x20000094   COMPRESSED   0x00000014   Data   RW          838    .data               tcp_echoserver.o
    0x200000a8   COMPRESSED   0x00000004   Data   RW         1714    .data               stm32f4xx_hal.o
    0x200000ac   COMPRESSED   0x00000004   Data   RW         6561    .data               system_stm32f4xx.o
    0x200000b0   COMPRESSED   0x00000002   Data   RW         6608    .data               bsp_debug_usart.o
    0x200000b2   COMPRESSED   0x00000002   Data   RW         6609    .data               bsp_debug_usart.o
    0x200000b4   COMPRESSED   0x00000001   Data   RW         6610    .data               bsp_debug_usart.o
    0x200000b5   COMPRESSED   0x00000001   Data   RW         6611    .data               bsp_debug_usart.o
    0x200000b6   COMPRESSED   0x00000003   Data   RW         6978    .data               bsp_usartx_rs232.o
    0x200000b9   COMPRESSED   0x00000003   PAD
    0x200000bc   COMPRESSED   0x00000010   Data   RW         7093    .data               dhcp.o
    0x200000cc   COMPRESSED   0x00000001   Data   RW         7363    .data               etharp.o
    0x200000cd   COMPRESSED   0x00000001   PAD
    0x200000ce   COMPRESSED   0x00000002   Data   RW         7494    .data               ip4.o
    0x200000d0   COMPRESSED   0x00000008   Data   RW         7611    .data               ip4_frag.o
    0x200000d8   COMPRESSED   0x0000000c   Data   RW         7925    .data               mem.o
    0x200000e4   COMPRESSED   0x00000004   Data   RW         7990    .data               memp.o
    0x200000e8   COMPRESSED   0x00000004   Data   RW         7991    .data               memp.o
    0x200000ec   COMPRESSED   0x00000004   Data   RW         7992    .data               memp.o
    0x200000f0   COMPRESSED   0x00000004   Data   RW         7993    .data               memp.o
    0x200000f4   COMPRESSED   0x00000004   Data   RW         7994    .data               memp.o
    0x200000f8   COMPRESSED   0x00000004   Data   RW         7995    .data               memp.o
    0x200000fc   COMPRESSED   0x00000004   Data   RW         7996    .data               memp.o
    0x20000100   COMPRESSED   0x00000004   Data   RW         7997    .data               memp.o
    0x20000104   COMPRESSED   0x00000004   Data   RW         7998    .data               memp.o
    0x20000108   COMPRESSED   0x0000000c   Data   RW         8082    .data               netif.o
    0x20000114   COMPRESSED   0x00000020   Data   RW         8394    .data               tcp.o
    0x20000134   COMPRESSED   0x00000024   Data   RW         8710    .data               tcp_in.o
    0x20000158   COMPRESSED   0x0000000c   Data   RW         8782    .data               tcp_out.o
    0x20000164   COMPRESSED   0x0000000c   Data   RW         8902    .data               timeouts.o
    0x20000170   COMPRESSED   0x00000008   Data   RW         8973    .data               udp.o
    0x20000178   COMPRESSED   0x00000004   Data   RW         9070    .data               mc_w.l(rand.o)
    0x2000017c   COMPRESSED   0x00000004   Data   RW         9361    .data               mc_w.l(stdout.o)
    0x20000180        -       0x00000100   Zero   RW           20    .bss                main.o
    0x20000280        -       0x00000012   Zero   RW          626    .bss                app_ethernet.o
    0x20000292   COMPRESSED   0x00000002   PAD
    0x20000294        -       0x000030e8   Zero   RW          734    .bss                ethernetif.o
    0x2000337c        -       0x000000c8   Zero   RW          834    .bss                tcp_echoserver.o
    0x20003444        -       0x00000080   Zero   RW         6602    .bss                bsp_debug_usart.o
    0x200034c4        -       0x00000100   Zero   RW         6603    .bss                bsp_debug_usart.o
    0x200035c4        -       0x00000100   Zero   RW         6604    .bss                bsp_debug_usart.o
    0x200036c4        -       0x00000100   Zero   RW         6605    .bss                bsp_debug_usart.o
    0x200037c4        -       0x00000100   Zero   RW         6606    .bss                bsp_debug_usart.o
    0x200038c4        -       0x00000500   Zero   RW         6607    .bss                bsp_debug_usart.o
    0x20003dc4        -       0x00000078   Zero   RW         6751    .bss                bsp_generaltim.o
    0x20003e3c        -       0x00000040   Zero   RW         6892    .bss                bsp_usartx_rs485.o
    0x20003e7c        -       0x0000003c   Zero   RW         6939    .bss                bsp_basictim.o
    0x20003eb8        -       0x00000032   Zero   RW         7092    .bss                dhcp.o
    0x20003eea   COMPRESSED   0x00000002   PAD
    0x20003eec        -       0x000000f0   Zero   RW         7362    .bss                etharp.o
    0x20003fdc        -       0x00000010   Zero   RW         7552    .bss                ip4_addr.o
    0x20003fec        -       0x00000018   Zero   RW         7906    .bss                ip.o
    0x20004004        -       0x00002813   Zero   RW         7924    .bss                mem.o
    0x20006817        -       0x000000c3   Zero   RW         7971    .bss                memp.o
    0x200068da        -       0x000005cb   Zero   RW         7972    .bss                memp.o
    0x20006ea5        -       0x0000008f   Zero   RW         7973    .bss                memp.o
    0x20006f34        -       0x00000083   Zero   RW         7974    .bss                memp.o
    0x20006fb7        -       0x000000a3   Zero   RW         7975    .bss                memp.o
    0x2000705a        -       0x0000016b   Zero   RW         7976    .bss                memp.o
    0x200071c5        -       0x000000a3   Zero   RW         7977    .bss                memp.o
    0x20007268        -       0x000000a3   Zero   RW         7978    .bss                memp.o
    0x2000730b        -       0x00001083   Zero   RW         7979    .bss                memp.o
    0x2000838e   COMPRESSED   0x00000002   PAD
    0x20008390        -       0x00000010   Zero   RW         8709    .bss                tcp_in.o
    0x200083a0        -       0x00001000   Zero   RW            1    STACK               startup_stm32f407xx.o


==============================================================================

Image component sizes


      Code (inc. data)   RO Data    RW Data    ZI Data      Debug   Object Name

      1062        364          0         12         18      11423   app_ethernet.o
         0          0          0          0          0       2716   autoip.o
       112         14          0          0         60       1753   bsp_basictim.o
       460         68          0          6       2432       4252   bsp_debug_usart.o
       292         28          0          0        120       2569   bsp_generaltim.o
       466         30          0          0          0       5689   bsp_key.o
       160         14          0          0          0        976   bsp_led.o
       108         10        512          0          0       2055   bsp_mb_host.o
      1340        194        512          3          0       4616   bsp_usartx_rs232.o
       400         58          0          0         64       3033   bsp_usartx_rs485.o
        34          0          0          0          0       1050   def.o
      4154        176          0         16         50      48209   dhcp.o
      1638         66          0          1        240      12455   etharp.o
       250          4         12          0          0       2598   ethernet.o
      1250        168          0          0      12520       7748   ethernetif.o
       454          4          0          0          0       5278   icmp.o
       166          0          0          0          0       9282   inet_chksum.o
        30          0          0          0          0        532   init.o
         0          0          0          0         24       2958   ip.o
       848         30          0          2          0       6004   ip4.o
       268          8          8          0         16       8894   ip4_addr.o
      1518         40          0          8          0      11102   ip4_frag.o
      2200        366          0        134        256     736523   main.o
       620         30          0         12      10259       5569   mem.o
       152         14        144         36       7031       9690   memp.o
       468         16          0         12          0      11363   netif.o
      1220         12          0          0          0      12455   pbuf.o
        36          8        392          0       4096        832   startup_stm32f407xx.o
