:020000040800F2
:10000000E005002039FE0008D1FB0008D3FB000802
:10001000D5FB0008D7FB0008D9FB00080000000052
:10002000000000000000000000000000F1C0000817
:10003000DBFB00080000000099C00008DDFB0008A1
:1000400089FF00088DFF000891FF000895FF000858
:1000500099FF0008E9FB00089DFF0008A1FF0008C8
:10006000A5FF0008A9FF0008ADFF0008B1FF0008C8
:10007000B5FF0008B9FF0008BDFF0008C1FF000878
:10008000C5FF0008C9FF0008CDFF0008D1FF000828
:10009000D5FF0008D9FF0008DDFF0008E1FF0008D8
:1000A000E5FF0008E9FF0008EDFF0008F1FF000888
:1000B000F5FF0008F9FF0008FDFF00080100010836
:1000C00005000108090001080D00010811000108E0
:1000D00015000108190001081D0001082100010890
:1000E00025000108290001082D0001083100010840
:1000F00035000108390001083D00010841000108F0
:1001000045000108490001084D000108510001089F
:1001100055000108590001085D000108610001084F
:1001200065000108690001086D00010871000108FF
:1001300075000108EBFB0008790001087D0001084B
:100140008100010885000108890001088D0001086F
:100150009100010895000108990001089D0001081F
:10016000A1000108A5000108A9000108AD000108CF
:10017000B1000108B5000108B90001080000000045
:10018000BD000108C100010830B583B004006068FB
:10019000DFF8341C08606089142803DA200001F0BD
:1001A0002EFB37BDDFF8240C0168DFF8200C406916
:1001B00001F046FC002806D1DFF8100C007D10F09D
:1001C000F000E02800D1E9E7DFF8FC0B0068808947
:1001D00001F0AAFC80B2000BC0B28000C0B21428AB
:1001E00005DB21890200D2B292B2914200D2D5E75A
:1001F000C0B2B0F11401DFF8D82B11800021DFF874
:10020000D42B116061890200D2B292B291420CD318
:10021000DFF8BC1B0988DFF8C02B1180C0B2414257
:1002200009B2200001F0DFFA2DE07FF01301200079
:1002300001F0D9FA6089DFF8A01B0880DFF8900B85
:100240000088DFF8941B0988451ADFF88C0BB0F999
:10025000000000B2414209B2200001F0C4FA206857
:100260004089ADB2A84299D320684068DFF8641B8A
:100270000860280000B2414209B2206801F0B3FAD8
:100280002089401B2081DFF8400B0068008801F0C6
:100290004BFCDFF8341B09680880DFF82C0B006882
:1002A000408801F041FCDFF8201B09684880DFF836
:1002B000180B0168486801F03EFCDFF80C1B096868
:1002C0004860DFF8181B0860DFF8FC0A01688868DE
:1002D00001F031FCDFF8F01A09688860DFF8001BD4
:1002E0000860DFF8E40A0068C08901F01DFCDFF84F
:1002F000D81A0968C881DFF8D00A0068808901F03F
:1003000013FC10F03F00DFF8DC1A0870DFF8D40AA5
:1003100000780321084201D0012000E0002021895B
:100320004018DFF8C41A08800021DFF8C00A056809
:1003300001E02900ED68002D24D0288BDFF8882A01
:10034000126812889042F4D1E88ADFF87C2A126899
:1003500052889042EDD16868DFF8702A12699042A5
:10036000E7D12868DFF8642A52699042E1D1002978
:1003700008D0E868C860DFF8740A0068E860DFF851
:100380006C0A0560002D55D1DFF8640A056800E0AD
:10039000ED68002D20D0288BDFF82C1A0968098819
:1003A0008842F5D1E88ADFF8201A0968498888422E
:1003B000EED16868DFF8141A09698842E8D1286824
:1003C000DFF8081A49698842E2D1280000F0FEF9F6
:1003D000200001F014FAE4E60021DFF8180A0068B2
:1003E00001E00100C068002811D0C28ADFF8D839C6
:1003F0001B685B889A42F4D10268DFF8D0395B69E8
:100400009A4204D0002802D00268002AE9D10028CC
:1004100010D0002908D0C268CA60DFF8D81909686E
:10042000C160DFF8D019086000F035F9200001F054
:10043000E6F9B6E6002D00F007810020DFF8B819D4
:1004400008602089DFF8B0190881DFF8AC09446042
:10045000DFF874090068DFF8A019C8600020DFF831
:100460009C1908600020DFF8981908700020DFF858
:10047000A81C0880DFF86C090078000703D5607BB2
:1004800050F001006073286F00280ED0280002F0A1
:1004900023F810F10D0F07D0286F002805D0DFF8E2
:1004A00048090088002800D09FE0DFF8580905605F
:1004B000280000F0D8F940B210F10D0F00F095803F
:1004C000DFF83C090078000713D5D5F8880000282C
:1004D00005D07FF00D012869D5F8882090472900C4
:1004E000DFF8080902F07BF92900012002F072FA16
:1004F0007BE00020DFF8200C0088002814D0DFF813
:10050000180C0288A86F002805D092B2290028692B
:10051000AB6F984700E0002040B210F10D0F64D09F
:100520000020DFF8F41B0880DFF8D4080078C0064C
:1005300016D5A87EC00609D4D5F88800002805D0B5
:100540007FF00E012869D5F8882090472900DFF850
:100550009C0802F044F92900012002F03BFA44E033
:10056000DFF89808006800282AD0A87EC00608D5C1
:10057000DFF88808006801F042F9280001F0A1FCCA
:1005800033E0E86F002808D00023DFF87008026825
:1005900029002869EC6FA04707E00023DFF85C081A
:1005A00002682900002001F0F2FF40B210F10D0FA7
:1005B0001BD040B2002803D0DFF84008006828674D
:1005C000DFF83C080078800608D5286F002823D083
:1005D000286F407B50F02000296F48730020DFF81F
:1005E00024180860280002F0FAFD0020DFF8141833
:1005F00008600020DFF804180860DFF8FC07406896
:10060000002847D0DFF8F007406801F0F8F8002034
:10061000DFF8E41748603DE0288D40F668318842F5
:1006200002D0288D401C2885E86F002806D00023C2
:10063000002229002869EC6FA04700E0002040B2AA
:1006400010F10D0FCAD1D0E7DFF87C070068808970
:1006500001F06AFA40071AD4DFF86C0700680088D6
:100660000190DFF86407006840880090DFF8983751
:10067000DFF89827DFF864070068DFF86C1709884F
:1006800010FA81F1DFF85807006802F035FF20000A
:1006900001F0B5F885E530B583B00400DFF8440714
:1006A0000078400700F19180DFF838070078C00635
:1006B0001BD5DFF81407006800880190DFF80807F1
:1006C000006840880090DFF84037DFF84027DFF807
:1006D0000C070068DFF81017098810FA81F1DFF8BD
:1006E0000007006802F008FF6FE0DFF8F806007806
:1006F00080076AD5607D01F0C1FF0500002D0ED195
:10070000002C09D0A069002806D05FF0FF3200213C
:100710002069A369984701E07FF00F0055E0DFF8FA
:10072000AC0640692860DFF8A40600696860E08ACA
:10073000E882DFF894060068008828830320287583
:10074000DFF898060068401C6862686AE862DFF8B3
:100750008C060068401E2865206928616C67207A35
:1007600010F00C002872DFF884060068E860DFF8FB
:100770007C06056003F035F80120DFF8B81C08702E
:10078000280000F05BFEDFF840060068C089A5F88D
:100790005C00B5F85C00A5F85E00B5F85C00A5F853
:1007A0004A00291D688E02F056F86886122128003A
:1007B00002F05FFC40B2002804D00021280001F0C4
:1007C00013FB02E0280002F00AFD37BD00B583B03C
:1007D000DFF810160978490744D4DFF808160978BD
:1007E00089072BD5DFF8F4150968426A891A0029B0
:1007F0002DD4DFF8E8150968426A891A028D891A32
:10080000012924DADFF8C005006800880190DFF8CC
:10081000B805006840880090DFF8EC35DFF8EC257B
:10082000DFF8B8050068DFF8C015098810FA81F113
:10083000DFF8AC05006802F05FFE13E0DFF8A415F6
:100840000978C90703D5DFF8F01B09680162DFF8F2
:1008500098150988002905D0817E51F00201817622
:1008600002F0BDFC07BD1CB5040000210020DFF82C
:100870007405007840073BD594F91400022807D18D
:10088000DFF85C050068E26C90421DD101211BE09D
:10089000DFF848050068626A904201D1012113E047
:1008A000DFF838050068626A801A00280CD4DFF887
:1008B0002C050068626A801A228D801A012803DAEA
:1008C000A07E50F00200A076C9B200290ED0DFF859
:1008D0003005007850F00800DFF824150870A07E7D
:1008E00010F0FE00A0767FF00D006CE200206AE2BE
:1008F000DFF8F004007880070DD594F91400022881
:1009000009D094F91400032805D0A07E50F002000D
:10091000A076002057E2A07EC00603D4DFF8180BB3
:1009200000682062002084F89200200000F086FD1C
:1009300094F91400022814D0C0F04482042800F076
:100940005A81C0F0BD80062800F0BA81C0F06181F4
:10095000082800F0E881C0F04E81092800F01B82D1
:1009600030E2DFF8740B007810F01200122840F02B
:100970008180DFF86C040068616C491C884279D181
:10098000DFF858040068401C6062606AE062DFF8CB
:10099000500400686064DFF830040068C089A4F87F
:1009A0005C00B4F85C00A4F85E00DFF83004006876
:1009B000401E206504202075211D608E01F04BFF34
:1009C0006086B4F85C00A4F84A00608E400041F2F2
:1009D0001D11884202D3608E400001E041F21C10DC
:1009E000618E8900814203D2608E80B280000BE06C
:1009F000608E400041F21D11884203D3608E80B2A8
:100A0000400001E041F21C10A4F84800B4F8620074
:100A1000401EA4F86200E06E002803D1A06E0168B9
:100A2000A16601E00168E16601F0A2FDE06E002828
:100A300003D15FF0FF30208604E0002020860020F4
:100A400084F84200D4F88000002806D0002221005B
:100A50002069D4F88030984700E0002040B210F1BF
:100A60000D0F02D17FF00C00ADE1A07E50F002002E
:100A7000A07624E0DFF8600A0078C0061FD5DFF812
:100A80004803006800880190DFF83C030068408854
:100A90000090DFF87433DFF87423DFF84003006858
:100AA000DFF84413098810FA81F1DFF83403006895
:100AB00002F022FD00202086200002F05DFD81E191
:100AC000DFF8140A0078C00640F18680C448006848
:100AD000616C401A401E002869D4C1480068E16C6E
:100AE000401A012863DA04202075606F002802D1C3
:100AF0007FF005000FE0606F00280AD0606F80690A
:100B0000002806D0002221002069636F9B69984766
:100B100001E07FF00F0040B2002809D040B210F190
:100B20000D0F02D0200001F0CCF97FF00C004AE15B
:100B3000200000F06DF9B4F85C00A4F84A00DFF87A
:100B4000D8050088002806D0DFF8CC050088401EB4
:100B5000DFF8C4150880608E400041F21D11884204
:100B600002D3608E400001E041F21C10618E8900CA
:100B7000814203D2608E80B280000BE0608E400024
:100B800041F21D11884203D3608E80B2400001E023
:100B900041F21C10A4F8480099480078800629D535
:100BA000A07E50F00200A0760720207522E0864843
:100BB0000068008801908448006840880090924B4B
:100BC000924A864800688849098810FA81F1844869
:100BD000006802F091FC0DE0DFF8FC080078800767
:100BE00008D57E480068616A491E884202D120000B
:100BF00002F0DCFCE6E0200000F00AF98048007812
:100C0000800605D5A07E50F00200A0760720207552
:100C1000D8E0200000F0FCF87948007880063FD545
:100C2000DFF8B4080078C00633D56D480068E16C81
:100C300088422ED1A06E00282BD1A07E50F0020059
:100C4000A076200001F0A4FD68480068A04205D10C
:100C500066480068C068654908600AE06348006843
:100C600000E0C068002804D0C168A142F9D1E16861
:100C7000C1600020E0600120DFF8B81708700A208A
:100C800020755B480068E0605948046002F0A9FDE7
:100C900015E0A07E50F00200A076082020750EE03E
:100CA000DFF834080078C00609D54D480068E16CCB
:100CB000884204D1A06E002801D10620207581E071
:100CC000200000F0A5F84E48007880062AD5A07EC6
:100CD00050F00200A076200001F05AFD4348006861
:100CE000A04205D141480068C068404908600AE058
:100CF0003E48006800E0C068002804D0C168A142F6
:100D0000F9D1E168C1600020E0600120DFF824171C
:100D100008700A20207536480068E0603448046096
:100D200002F05FFD4EE0200000F072F8DFF8A80747
:100D30000078C0062ED52A480068E16C884229D187
:100D4000A06E002826D1200001F022FD274800686F
:100D5000A04205D125480068C068244908600AE01F
:100D60002248006800E0C068002804D0C168A142A1
:100D7000F9D1E168C1600020E0600120DFF8B4161D
:100D800008700A2020751A480068E060184804605E
:100D900002F027FD16E0200000F03AF8DFF83807EF
:100DA0000078C0060DD50E480068E16C884208D175
:100DB000A06E002805D11248007850F010001049AC
:100DC0000870FFE7002016BD68C60020D8C40020C8
:100DD000A8C600206CC60020AAC6002070C600204D
:100DE00074C60020BBC60020B0C6002060C600202C
:100DF00064C600205CC6002064C5002078C60020C0
:100E0000BCC600207CC60020E8C40020ECC4002042
:100E100038B504000025DFF8C0060078C00640F1B0
:100E2000C181B4F85C00616D11FA80F0216DDFF8CA
:100E3000AC261268891A00291AD4216DDFF89C2685
:100E40001268914206D1616DDFF89C251268891AFB
:100E500000290DD4616DDFF890251268914235D1DB
:100E6000B4F85C10DFF878261268D28991422DD24E
:100E7000DFF86C160968C989A4F85C10B4F85E1034
:100E8000B4F85C20914203D2B4F85C10A4F85E1070
:100E9000DFF8481609682165DFF84C1509686165B7
:100EA000B4F85C1000290AD194F8911000290DD1F2
:100EB000002184F89010012184F8911006E094F844
:100EC0009110002902D0002184F89110DFF8181544
:100ED0000968626C891A012945DADFF80816098861
:100EE000002939D1616DB4F85C2011FA82F1814298
:100EF00032D1B4F9300000282ED4606CDFF8E81449
:100F00000968884228D1012594F8430094F84310D9
:100F1000491CC9B2884204D294F84300401C84F8AA
:100F2000430094F8430004280FDBB4F84800B4F8F9
:100F30004810628E511889B288420DD2B4F8480028
:100F4000618E0818A4F8480006E094F843000328CE
:100F500002D1200002F057FB002D40F0C980002094
:100F600084F84300C4E0DFF880040068616C401A34
:100F7000401E002800F19780DFF86C040068E16CE7
:100F8000401A012880F28F80A07E400707D5A07EFE
:100F900010F0FB00A076B4F84A00A4F84800002046
:100FA00084F84200B4F93C00C010B4F93E10401877
:100FB000A4F84000002084F84300DFF82C04006807
:100FC000606494F91400042842DBB4F84800B4F8D3
:100FD0004A1088420FD2B4F84800B4F84810628E24
:100FE000511889B2884233D2B4F84800618E08188B
:100FF000A4F848002CE0B4F84800618E628E51439A
:10100000B4F8482091FBF2F10818B4F8481080B207
:1010100081421DD2A4F848001AE0E56EE06E006837
:10102000E066686800F026FC686800F023FCB4F80D
:101030006210081AA4F86200374800882989081845
:1010400035490880280001F093FAB4F862000028BE
:10105000E06E00281BD0E06EC168486800F06BFDB0
:101060000500E06EC068808900F05EFD0321084243
:1010700001D0012000E00020E16E098915FA81F11C
:101080004018DFF864130968401A0128C5DBE06ED8
:10109000002803D15FF0FF30208601E00020208689
:1010A0000020E07624E0200002F059F820E0A56E50
:1010B000A06E0068A066A06E002802D10020A4F8EF
:1010C0006400686800F0D6FB686800F0D3FBB4F8F1
:1010D0006210081AA4F862000F48008829890818CD
:1010E0000D490880280001F043FAB4F86200002896
:1010F000A06E002822D0A06EC168486800F01BFDD9
:101100000500A06EC068808900F00EFD0321084232
:1011100004D0012003E000BFAEC600200020B24989
:101120000968491BA26E1289891A081A002805D479
:10113000AD480068E16C401A0128B8DBB4F86000E3
:10114000DFF8A41309880818A4F86000606B002871
:1011500028D0A06BA4490968401A002822D5B648B7
:101160000068616B401A00B2B4F93C10B0EBE100CA
:10117000A18F4118A18700B2002801D500B24042DA
:1011800000B2B4F93E10B0EBA100E18F4018E08747
:10119000B4F93C00C010B4F93E104018A4F8400067
:1011A00000206063DFF83C030088002800F008811D
:1011B00094F91400072880F20381606ADFF81C1399
:1011C0000968401A401E002844D4606ADFF80C13F6
:1011D0000968401ADFF80C130988401A401C0128DE
:1011E00038DAC2484068616ABC4A1268891ABF4A44
:1011F000526852898A4214DABC4A52681289521AD9
:1012000005E04389C91A02810023438100684389AC
:101210008B42F6DB494209B200F0E5FA002807D01C
:1012200006E0494209B2B148406800F0DCFA002803
:10123000AE480089616AA94A1268891A401AAB4906
:101240000881606AA5490860A848C068A349096880
:10125000416009E0A1480068616A401A002803D58E
:10126000A07E50F00200A0769C480068616A401A97
:10127000002800F1A18099480068616A401A218D18
:10128000401A401C012880F29780606A93490968DF
:10129000884240F08D809548C068808900F044FC09
:1012A0000321084201D0012000E000208F49098974
:1012B00040188C490880208D8A49098888423ED28E
:1012C0008A48C068808900F02FFCC00712D5874883
:1012D000C068808900F028FC10F03E0000F024FC7B
:1012E0008249C96889894CF2FF02114008437F494D
:1012F000C9688881208D7D4908817C48C0688089C3
:1013000000F012FC800704D578480089401E774918
:101310000881764801897548406800F0DEF9734815
:10132000C068808900F000FC0321084201D0012040
:1013300000E000206D49098940186A490880674823
:1013400000686849098810FA81F06062208D65495B
:101350000988401A2085200000F071FE634840682B
:101360000089002806D06148406861490860002073
:101370005E4948605D48C068808900F0D5FBC007C1
:1013800005D55C48007850F020005A490870A07ECE
:10139000C00708D5A07E10F0FE00A076A07E50F019
:1013A0000200A07603E0A07E50F00100A0761AE0D3
:1013B000200001F0D4FE16E0200001F0D0FE12E083
:1013C00046480068616A401A002808D4434800680B
:1013D000616A401A218D401A401C012803DBA07E5F
:1013E00050F00200A07631BD74C60020424800686B
:1013F000002805D0414800884149098888420AD21E
:101400003748006814303D4909884A1C3B4B1A8014
:1014100089B2085C0DE03948008839490988401ACA
:1014200036490988491C354A118033490968C0B2D8
:10143000405C7047B8C6002054C6002038B5040090
:101440003048008800283FD000202C490880FFE762
:101450002A4800882B490988884235D2FFF7C6FF01
:10146000C0B2002803D0022802D0F1D31FE02BE045
:10147000FFF7BCFF042806D1224800881F490988CD
:10148000891C884200DA1FE0FFF7B0FF0502FFF772
:10149000ADFF0543ADB240F2B550854202DAADB2C0
:1014A000002D02D140F2B455FFE76586D0E7FFF783
:1014B0009DFFC0B2022807DB10490988C0B2801E18
:1014C00040180E490880C3E731BD0A48007850F043
:1014D0001000084908707047BBC6002070C6002085
:1014E00068C60020B0C60020AEC6002064C500203B
:1014F00078C60020BCC600206CC60020ACC6002008
:10150000AAC60020A8C60020F8B50E00140040B2FC
:10151000002806D002281AD017D304281BD018D3CD
:101520001BE0362764B2002C69D0022C00F08880C2
:10153000C0F08680032C40F094800C2001F030FA3B
:101540000500002D0BD1002058E02227EAE70E27E6
:10155000E8E70027E6E70027E4E700204EE02C73E9
:1015600000202860BFB278191030C01C80088000AD
:1015700068602E81B6B2BFB2F81C80088000D0F53A
:10158000FA70864201D2300006E0BFB2F81C4FF676
:10159000FC710840D0F5FA7068810120E8812F00C5
:1015A000B6B26889361A0AE04FF4FA71418110F137
:1015B000100141600121C1814189761A0700012E85
:1015C00017DB0C2001F0ECF9002804D1280000F012
:1015D00016F9002012E0047300214173002101601C
:1015E00038600681310089B2B1F5FA7FDCD2310072
:1015F000DCE70120E881002068732800F2BD17F1C4
:1016000013004FF6FC710840B6B2F11C4FF6FC72A5
:101610001140081880B202F006FB0500002D01D130
:101620000020EBE7BFB278191030C01C80088000A2
:1016300068602E8128896881002028602C73D8E793
:101640000B2001F0ADF90500002D01D10020D5E7F8
:10165000002068602E8128896881002028602C7312
:10166000C7E70020CAE730B440B2002806D00228FD
:1016700012D00FD3042813D010D313E036240398CC
:10168000A4B2E51CAD08AD0015FA81F5A8420BD255
:10169000002020E02224F2E70E24F0E70024EEE709
:1016A0000024ECE7002016E00020186002980028D3
:1016B00006D0A4B2E41CA408A4002018586001E0DD
:1016C00000205860022058731981188958811A73B4
:1016D0000120D881180030BC704738B504000D00D7
:1016E0002089ADB285422AD2ADB22089281A05E000
:1016F00061896D1A21894118218124686189ADB2FF
:10170000A942F5D3207B00280ED16089ADB2854275
:101710000AD0607B800707D46068001B291889B253
:10172000200002F0F3F904006581608920812068BF
:10173000002802D0206800F062F80020206031BD4F
:1017400030B409B2002901D0002801D1002039E0CD
:1017500009B2002908D509B24D424389ADB2AB4266
:1017600001D201202EE001E00D00ADB2037B446800
:101770009BB2002B02D09BB2032B0BD1426809B263
:10178000521A4260426810F110039A4213D2446028
:10179000012017E09BB2022B02D09BB2012B20D17B
:1017A00009B2002910D54389ADB2AB420CD34268CF
:1017B00009B2521A426042898A1842810289891804
:1017C0000181002030BC704709B2012907DBD2B289
:1017D000002A04D0426809B2521A4260EBE70120A5
:1017E000F0E70120EEE780B5002209B2FFF7A8FF7D
:1017F00002BD80B5012209B2FFF7A2FF02BD70B59C
:101800000500002D01D1002033E0002404E0280071
:1018100002F058F9641C3500002D28D002F07FFB3F
:10182000E989491EE981EE8902F082FBB6B2002EF9
:101830001BD12E68287B697B890703D5280029697D
:101840008847E7E780B2032804D129000C2001F083
:10185000C1F8DFE780B2012802D080B20228D6D1D9
:1018600029000B2001F0B6F8D4E70025D4E72000CA
:10187000C0B270BD002101E0491C00680028FBD106
:10188000080080B2704710B50400002C06D002F0AA
:1018900046FBE189491CE18102F04AFB10BD0028AA
:1018A00001D0002900D10DE004E002890B899A18CB
:1018B000028100680268002AF7D102890B899A1810
:1018C00002810160704710B50C002100FFF7E7FFAF
:1018D0002000FFF7D8FF10BD2DE9F84304000D00EC
:1018E00000260027002C05D0002D03D0208929894F
:1018F000884202D27FF00F004DE06089B6B2801BB3
:101900006989BFB2C91B884203DB6889B0EB07084D
:1019100002E06089B0EB06081FFA88F86868BFB279
:1019200039186068B6B216EB00094246484602F024
:1019300011FB18EB060618EB07076889BFB2874250
:1019400001D300272D686089B6B2864208D10026EF
:101950002468002C04D1002D02D07FF00F001AE083
:10196000002D09D068892989884205D12868002876
:1019700002D07FF005000EE0002C09D0608921899B
:10198000884205D12068002802D07FF0050002E0DF
:10199000002DB2D10020BDE8F2832DE9F04780464A
:1019A0000C0015000027B8F1000F01D1002040E025
:1019B000002C01D100203CE00026B8F1000F01D03E
:1019C000002C01D1002034E01FE0B8F80A00B0EB91
:1019D0000309ADB21FFA89F94D4500D2A9461FFA95
:1019E00089F9D8F804009BB21918B6B216EB040AAC
:1019F0004A46504602F0AEFA19EB070719EB060605
:101A0000B5EB09050023D8F80080ADB2002D0ED04B
:101A1000B8F1000F0BD09BB2002BD6D0B8F80A005B
:101A20009BB28342D1D3B8F80A001B1AEBE7380007
:101A300080B2BDE8F0870268531C036011707047E4
:101A400010B40200C343002B01D0002801D10120B3
:101A50001AE091F833309B0701D4002014E04B6862
:101A6000984201D100200FE08B681A404B688C68C7
:101A700023409A4207D18A6890438968C9438842C3
:101A800001D1012000E0002010BC704780B5102279
:101A9000014900F003F802BD54C50020FCB5030065
:101AA000080000211B680193030001AC002504E03D
:101AB0002E261E705B1C641C6D1CEDB2042D2FDAEB
:101AC000002627785FF00A0C97FBFCFE0CFB1E77C4
:101AD00094F800C05FF00A0E9CFBFEFC84F800C086
:101AE0003037EC46F6B206F80C70761C2778002FDB
:101AF000E7D137007E1EFFB2002F0BD00F00791CFC
:101B0000974201DB00200EE06F46F6B2F75D1F70D2
:101B10005B1CEEE70E00711C9642C9DB002002E060
:101B20005B1E00211970F6BD010089B2090A51EA55
:101B3000002080B2704710F47F41090251EA006131
:101B4000020A12F47F42114351EA1060704700000C
:101B5000704780B500F088FCDFF8140B0078401C5B
:101B6000DFF80C1B0870DFF8080B0078C00701D500
:101B700000F0ECFA01BD05E0426F8A4201D100227B
:101B80004267C0680028F7D1704738B504000125C6
:101B900008E02100DFF8DC0A50F825000068FFF7B4
:101BA000EAFF6D1C042DF4D331BD30B583B00400C1
:101BB000C9B2002959D094F91400042803D094F92B
:101BC0001400072851D1206F002804D1208D40F641
:101BD0006831884249D0208B0190E08A0090231D13
:101BE0002200616AE06C01F087FC200000F0D0FD6B
:101BF000DFF8840A0068A04207D1DFF87C0A006899
:101C0000C068DFF8741A08600BE0DFF86C0A00683F
:101C100000E0C068002804D0C168A142F9D1E168A1
:101C2000C1600020E0600120DFF80C1B087094F90F
:101C3000140004280BD10A202075DFF8000B00687F
:101C4000E060DFF8F80A046001F0CBFD0BE0DFF89C
:101C5000F00A0068A04202D1FFF737FC03E0210040
:101C6000012000F0B7FE00207CE094F91400002869
:101C70000AD001282DD002283AD0032848D00428C1
:101C800050D0072858D061E00025E08A00281AD0FB
:101C9000DFF8B00A0068A04207D1DFF8A80A0068A0
:101CA000C068DFF8A01A08600BE0DFF8980A006847
:101CB00000E0C068002804D0C168A142F9D1E16801
:101CC000C1600020E0602100012000F083FE0024BC
:101CD0003EE000252000FFF758FF2100DFF8680AEA
:101CE00000F07DFD2100022000F074FE00242FE0B2
:101CF00000252100DFF8800900F071FD0120DFF8E8
:101D0000381A08702100012000F064FE00241FE052
:101D1000200000F0ABFE05006DB2002D01D10520C2
:101D2000207515E0200000F0A1FE05006DB2002D29
:101D300001D1052020750BE0200000F097FE050082
:101D40006DB2002D01D10920207501E0002500248D
:101D5000002C05D06DB2002D02D1200001F03FFA19
:101D6000280040B23EBD80B590F91410012903D07F
:101D7000817E51F0100181760121FFF716FF02BD2F
:101D800070B504000D00160094F91400012802D16A
:101D90007FF00A0027E0002D12D0A07E50F0100046
:101DA000A076002E04D001212000FFF7FEFE1AE0ED
:101DB000206F002804D0206FFFF721FD002020674E
:101DC000002E0FD094F91400C01E012801D9001F65
:101DD00005D12900C9B22000FFF7E7FE03E07FF03C
:101DE0000A0000E0002070BD2DE9FC47040094F9D2
:101DF00014000A2809D12100DFF8400900F0EFFCA7
:101E00002100012000F0E6FD59E000250026E76CE6
:101E1000D4F82480D4F88890D4F810A094F9140051
:101E200000281ED1E08A002826D0DFF818090068B3
:101E3000A04207D1DFF80C090068C068DFF8041978
:101E400008600BE0DFF8FC08006800E0C0680028CC
:101E500004D0C168A142F9D1E168C1600020E0600E
:101E60000AE00D00E68A2100DFF80C0800F0B7FC5C
:101E70000120DFF8801A0870E06E002802D0E06EC2
:101E800000F06DFBA06E002802D0A06E00F067FB92
:101E9000002D09D0208B0190B6B20096231D2200A0
:101EA0004146380001F028FB2100012000F092FD9E
:101EB0004846002803D07FF00C015046C847BDE8D3
:101EC000F38780B50121FFF78FFF01BDF8B504004E
:101ED0000D0010000422002D01D1DFF81C5A002C47
:101EE00001D0002D02D17FF005004AE094F91410D2
:101EF000002902D07FF0050043E080B2002807D11E
:101F000000F0EEF880B2002825D17FF0010038E023
:101F1000002100E0491C91421DDADFF8583753F8E0
:101F200021301B6800E0DB68002BF3D0DE8A80B232
:101F30008642F8D1002B0BD01E68002E08D0002D51
:101F400006D02E68002E03D01E682F68BE42EAD14C
:101F50007FF0070015E0002D08D02968002905D082
:101F6000002D01D1002100E029682160E082DFF826
:101F70008C090068E060DFF88409046001F031FC3E
:101F80000020F2BD80B50800FFF79BFF7FF00C003A
:101F900002BD38B5040094F91400002801D00020D7
:101FA0004CE094F91400012801D1200046E0022001
:101FB00000F0F6FC0500002D01D100203EE0206974
:101FC0002861E08AE88201202875607D6875207AA2
:101FD0002872A07AA872607A687220682860E08A05
:101FE00000281AD0DFF85C070068A04207D1DFF8AC
:101FF00054070068C068DFF84C1708600BE0DFF892
:102000004407006800E0C068002804D0C168A1420D
:10201000F9D1E168C1600020E0602100012000F0FA
:10202000D9FCDFF8DC08A861DFF81C070068E8606D
:10203000DFF81407056001F0D4FB280032BD416AC7
:10204000028D11FA82F1428E40F2B5539A4202DBC0
:1020500040F2B45200E0428EC36ACB1A9A1A002AA8
:1020600004D4028D4285C06A081A0CE0416AC26A33
:10207000891A012902DB0021418503E0C16A426A15
:10208000891A41850020704710B50400208D08187A
:102090002085208D40F66931884203DB40F66830A8
:1020A00020850EE0208D00280BD194F9140007281C
:1020B00003D094F91400092803D140F66830208534
:1020C000FFE72000FFF7BBFF40F2DA21884206DB82
:1020D000A07E50F00200A076200001F080F810BD34
:1020E00010B40020FFE7DFF81C1809884A1CDFF84D
:1020F00014381A8089B24FF6FF72914204D14FF41E
:102100004041DFF800281180002100E0491CC9B2DD
:10211000042916DADFF85C25C9B252F821201268CA
:1021200000E0D268002AF1D0D38ADFF8D8472488AB
:10213000A342F6D1401C80B2B0F5804FD3DB002023
:1021400002E0DFF8C007008810BC7047F0B583B02C
:102150000020DFF8B4070068401CDFF8AC17086007
:10216000DFF8A8070078401CDFF8A017087026E009
:10217000E868DFF804150860F6B2002E09D0288B55
:102180000190E88A00902B1D2A00696AE86C01F032
:10219000B3F92E692900ED68012000F01BFC002036
:1021A000DFF8941508703800002803D07FF00C0188
:1021B0003000B847DFF880050078002805D00024FB
:1021C000DFF8B404056800E0ED68002D00F026811A
:1021D000687FDFF8381709788842F5D0DFF82C07D8
:1021E000007868770027002695F91400022805D1A9
:1021F00095F84200062801D17F1C75E095F8420051
:102200000C2801D17F1C6FE095F89100002827D0A1
:10221000DFF8FC0695F89110081810F8010C95F8F5
:102220009010C0B2814204D295F89010491C85F8F4
:10223000901095F89010C0B2814255D3280001F05B
:1022400049FA002850D1002085F8900095F89100B7
:10225000072849D295F89100401C85F8910043E089
:10226000B5F93000002802D4288E401C2886E86E7C
:10227000002839D0B5F93000B5F94010884233DB79
:1022800095F9140002280DD0B5F93C00C010B5F93D
:102290003E104018DFF87C1695F8422051568840D1
:1022A000A5F8400000202886B5F84800B5F85C1075
:1022B000884202D2B5F8480001E0B5F85C0080B26F
:1022C0004008A5F84A00B5F84A00698E490089B26D
:1022D000884203D2688E4000A5F84A00688EA5F8AF
:1022E0004800280001F048F995F9140006280AD1A1
:1022F000A87EC00607D5DFF810060068296A401AD4
:10230000292800D37F1C287A000738D595F91400B6
:10231000042803D095F91400072830D1D5F88C0093
:10232000DFF8F41508184FF4FA71B0FBF1F0DFF89C
:10233000D81509682A6A891A884202D27F1C761C3D
:102340001DE0D5F88C0095F89210DFF8D02502FB3F
:1023500001004FF4FA71B0FBF1F0DFF8AC15096839
:102360002A6A891A88420AD2280001F087F940B205
:10237000002804D195F89200401C85F8920095F948
:102380001400032807D1DFF880050068296A401A85
:10239000292800D37F1C95F91400092807D1DFF8FC
:1023A00068050068296A401AF12800D37F1CFFB233
:1023B000002F0AD0D5F88870280000F0E9F9002C29
:1023C0003FF4D6AEE868E060D6E62C00ED68E07E2B
:1023D000401CE076E07E217F8842FFF4F6AE0020CC
:1023E000E0760020DFF850130870D4F8840000284D
:1023F00005D021002069D4F88420904700E0002017
:10240000DFF83413097800297FF4D9AE40B20028F0
:102410007FF4DBAE200000F0E2FED6E60024C748E1
:10242000056807E0E868C54908602900ED680120F3
:1024300000F0D0FA002D16D00027DFF8CC04006899
:10244000296A401AF12800D37F1CFFB2002F07D061
:10245000280000F09DF9002CE4D0E868E060E4E793
:102460002C00ED68E6E7F7BD38B5DFF8A00400788A
:10247000401CDFF8981408701FE0DFF89004007823
:102480006077A07EC0070AD5A07E50F00200A0763B
:10249000200000F0A4FEA07E10F0FC00A076E5680D
:1024A000206F00280CD00020A3490870200000F005
:1024B00013F8A1480078002802D06F48046800E0B3
:1024C0002C00002C07D0607FDFF840140978884288
:1024D000D3D1E468F5E731BDF8B50400206F457B42
:1024E000266F00202067E06F002806D0002332000E
:1024F00021002069E76FB84705E000233200210082
:10250000002000F044F840B200281BD1A80624D5D2
:10251000208D40F66831884202D0208D401C2085F5
:10252000E06F002806D00023002221002069E46F1C
:10253000A04700E0002040B210F10D0F0DD17FF058
:102540000C000BE040B210F10D0F02D17FF00C0037
:1025500004E026677FF0040000E00020F2BD10B523
:1025600003E0046800F004F820000028F9D110BD51
:1025700010B50400002C09D06068002802D0606803
:10258000FFF73DF92100032000F024FA10BD10B53B
:1025900008001400002C07D02189FFF775FD2000EA
:1025A000FFF72DF9002010BD5BB2002BFAD1FFF729
:1025B000DAFBF8E738B5C0B2802801DB7F20FFE7FF
:1025C000002300212C4A126810E0547DC0B2A042C2
:1025D0000BD3CD4C2468156A641B9C4205D3CA48B2
:1025E0000068116A431A1100507DD268002AECD1AC
:1025F000002902D00800FFF764FC31BD38B5002384
:1026000000221D49096810E091F9144040B284424B
:102610000AD1BD4C24680D6A641B9C4204D3BA4A9B
:1026200012680B6AD31A0A00C9680029ECD1002A83
:1026300003D000211000FFF7D7FB31BD10B50022F9
:1026400000203E4909680BE0AF4B1B680C6A1B1B5E
:10265000934204D3AC4800680A6A821A0800C96829
:102660000029F1D1002801D0FFF72BFC10BD00009C
:10267000B9C60020E8FD000860C6002038B5050096
:10268000012000F08DF90400002C21D1FFF7D6FFC6
:10269000012000F085F90400002C19D10920FFF772
:1026A000ADFF012000F07CF90400002C10D10820BF
:1026B000FFF7A4FF012000F073F90400002C07D1FC
:1026C0002800C0B2FFF776FF012000F069F904008E
:1026D000002C2FD094210022200001F077FC65759A
:1026E00041F2D060A4F8600040F668306085608DEB
:1026F0002085FF20A0724FF4067060860620A4F8A3
:1027000040000620E0875FF0FF3020860120A4F81B
:10271000480000F096F86065E0646064A0657A485F
:10272000006820627948007860777E48E0677E48DC
:10273000C4F88C00200032BDB8C6002064C600205A
:102740007CC6002058C600205CC6002080B5402012
:10275000FFF794FF02BD002800D0016170470028F8
:1027600000D0C1677047002800D0816770470028FB
:1027700001D0C0F888107047002804D090F91420C8
:10278000012A00D181617047C0F884100277704738
:1027900010B5040094F9140000281FD094F9140017
:1027A0000A281BD094F91400012817D0206F0028A4
:1027B00004D0206FFFF723F8002020675FF0FF3080
:1027C0002086A06EFFF7CBFEE06EFFF7C8FE00206C
:1027D000A066A06EE0660020A4F8640010BD10B5ED
:1027E0000C000168A14203D10168C968016009E0D9
:1027F000006800E0C068002804D0C168A142F9D197
:10280000E168C1600020E0602000FFF7C1FF94F99B
:1028100014000A280DD094F91400012809D0A07ED4
:10282000C00706D5A07E50F00200A076200000F080
:10283000D6FC94F914000128002020750020E082C5
:1028400010BD3A48006830490968081837490860DF
:1028500036480068704710B50400080001F0EAFB34
:10286000002802D1200080B20CE0B0F92A0000B2AA
:10287000002805D02838A4B280B2844200D30400D6
:10288000200080B210BD38B50400080003E0C56820
:10289000FFF717FB2800002805D001682268914245
:1028A000F5D0C068F7E731BD38B504000D00002C45
:1028B0001ED0206800281BD0194801682000FFF7AF
:1028C000E2FF0E4801682000FFF7DDFF002D0FD06A
:1028D000286800280CD01648006807E0C168026824
:1028E00023689A4201D12A68026008000028F5D1C5
:1028F00031BD0000B8C6002070FF000858C6002097
:10290000851F0008D801002054C60020BAC6002048
:1029100058FF0008D8FD0008B84C0A00F824010050
:1029200060C600208F25000800DD6D000C0000202F
:102930005CC600200021826811604168C91C8A08B9
:102940009200002107E083681B68136083681A60A7
:1029500003889A18491C43889942F4DB704710B5E4
:10296000002406E02248A4B250F82400FFF7E2FF5A
:10297000641CA4B20D2CF5D310BD38B5040001F0D1
:10298000CEFAA1680D68002D06D02968A2681160F2
:1029900001F0CEFA280002E001F0CAFA002032BDB0
:1029A00080B540B20D2801DB002005E0104940B29F
:1029B00051F82000FFF7E1FF02BD38B504000D001B
:1029C00001F0ADFAA16809682960A1680D6001F005
:1029D000AFFA31BD80B540B20D2807DA002905D025
:1029E000034A40B252F82000FFF7E7FF01BD0000A4
:1029F000F8FA00082DE9F04104000F001000984695
:102A00000022C01910F1140189B20120FEF77CFDEB
:102A10000500002D27D06E68E08AFFF785F830802A
:102A2000208BFFF781F87080C6F80480606AFFF79A
:102A300082F8B060BFB2042097FBF0F0401D0003A5
:102A400050F0100080B2FFF76FF8B081608DFFF793
:102A50006BF8F0810020308200207082606A618D06
:102A600010FA81F0E0622800BDE8F08138B504007A
:102A7000A06E00281AD0A56E00E02D6828680028F6
:102A8000FBD1E8688089FFF74FF8072108420DD194
:102A90000120FFF749F8E96889890843E9688881D6
:102AA000A07E50F02000A076002003E0012120004D
:102AB00000F0DFFA32BD2DE9F04781468A46160064
:102AC0009846089CE00701D5042000E00020A107FB
:102AD00001D5002100E00021220701D5002200E0FD
:102AE0000022081817180320FFF75AFF0500002DD1
:102AF00004D15046FEF783FE002039E0AC7200207E
:102B00002860C5F804A0BAF80800FFB2C01B2881ED
:102B100014215046FEF767FE002804D02800FFF776
:102B200027FD002024E068684068E860B9F81600D6
:102B3000FEF7FAFFE9680880B9F81800FEF7F4FF1D
:102B4000E96848804046FEF7F6FFE9684860FFB252
:102B5000042097FBF0F0401DF6B256EA003080B238
:102B6000FEF7E2FFE96888810020E96848822800D2
:102B7000BDE8F08770B50C001D002300A4B292B22E
:102B8000944220D2059989070CD4049EB17E49064F
:102B900019D40699002905D0B16E002902D1F16E31
:102BA000002910D092B2A4B204F2B751890889006A
:102BB0008A4201D2130006E0A4B204F2B7514FF6E4
:102BC000FC7212EA01030022190089B240B2FEF73A
:102BD0009BFC002801D1002005E04189091B2980C8
:102BE00004810189418170BD90F91420042A0ED01E
:102BF00090F91420072A0AD090F91420022A06D04E
:102C000090F91420032A02D07FF00A0026E089B24E
:102C1000002901D1002021E0B0F8602089B28A4269
:102C200006D2817E51F0800181765FF0FF3015E0A1
:102C3000B0F86210082905DAB0F862104FF6FD729C
:102C4000914206D3817E51F0800181765FF0FF30A2
:102C500004E0B0F862000028FFD1002070472DE9A1
:102C6000FE4F88B005000020059000275FF0000AA5
:102C70000020069000265FF0000800208DF80E006E
:102C800000208DF80F000020ADF80C000024B5F8EE
:102C90005E00022190FBF1F0698E814203DA688EBA
:102CA000ADF8100006E0B5F85E00022190FBF1F0EF
:102CB000ADF81000BDF81000002804D0BDF81000D9
:102CC000ADF8100002E0688EADF8100008980028FA
:102CD00002D17FF00F00A1E0BDF824102800FFF71B
:102CE00083FF40B2002801D040B297E0B5F862906F
:102CF000A86E002800F0BD80AF6E00E03F68386825
:102D00000028FBD1B87AC00701D5042000E00020DC
:102D1000B97A890701D5002100E00021BA7A1207AB
:102D200001D5002200E0002208181018BDF810108C
:102D30003A89891A0A1AB5F86400ADF80C00BDF892
:102D40000C00002823D0BA46BDF80C00BDF82410B2
:102D5000884202D2BDF80C0001E0BDF8240092B216
:102D6000824201DA14000AE0BDF80C00BDF824101C
:102D7000884202D2BDF80C4001E0BDF8244014EBBB
:102D80000808BDF80C00001BADF80C00121BBDF8C4
:102D900024001FFA88F8804573D292B2002A70D0BE
:102DA000388900286DD092B2BDF824001FFA88F847
:102DB000B0EB0800824202DAADF8122005E0BDF85F
:102DC0002400B0EB0800ADF81200BA469DF82800C8
:102DD000C00734D5012002909DF82800019000958D
:102DE00003AB92B2BDF812100420FFF7C3FE0590AA
:102DF000002816D1A87E50F08000A87605980028FB
:102E000002D00598FEF7FBFC002E02D03000FFF741
:102E1000A6FBB5F8620000285FF0FF300BB0BDE8FC
:102E2000F08FBDF8122008981FFA88F818EB0001FF
:102E30000598D0F804B0584601F08CF80FE0012254
:102E4000BDF812100420FEF75FFB05900028D1D0DA
:102E500008981FFA88F818EB000005994860BDF83B
:102E6000120010EB08080598FEF704FD10EB0909A5
:102E700007E006E00698C0F800A0CDF818A01BEB0C
:102E80000808BDF824001FFA88F8804580F08B8080
:102E9000BDF82400B0EB0800BDF810109DF80E201E
:102EA000B1EB020B1FFA8BFB80B2834500D3834644
:102EB0009DF82800C0072AD5002E01D1012000E08E
:102EC0000020C0B202909DF828000190009503AB4D
:102ED000BDF810209DF80E005BFA80F189B2002049
:102EE000FFF748FE0190002884D01FFA8BFB5A465A
:102EF00008981FFA88F818EB0001019840689DF8BF
:102F00000E3013EB000A504601F024F823E00122B2
:102F1000594689B20020FEF7F7FA8246BAF1000F4F
:102F20003FF468AF08981FFA88F818EB0000CAF859
:102F3000040000229DF80E1089B20020FEF7E4FA8A
:102F40000190002803D15046FEF759FC52E7514644
:102F50000198FEF7A4FC0198FEF78CFC10EB090920
:102F60001FFA89F9B9F1090F05DA1FFA89F94FF645
:102F7000FD70814503D30198FEF741FC3AE79DF8C7
:102F80000F000090A86D10FA88F300220199280024
:102F9000FFF791FD824600283FF42CAF002E7FF40E
:102FA00069AF564669E7A4B2002C24D0D7F8048054
:102FB0001BE0B8F808002018A8F80800D8F80000AE
:102FC000002810D1A4B222000899D8F80400B8F85B
:102FD0000A3013EB000B584600F0BCFFB8F80A00AB
:102FE0002018A8F80A00D8F80080B8F1000FE0D146
:102FF000388920183881BDF80C00A5F864000598C0
:10300000002808D005997868FEF749FC38890599A9
:10301000098908183881002F01D1AE6600E03E60B2
:10302000A86DBDF8241010FA81F0A865B5F860000D
:10303000BDF82410401AA5F86000A5F86290B5F814
:1030400062000028BAF1000F11D0DAF80C00002855
:103050000DD09DF82800800709D40820FEF764FDF4
:10306000DAF80C1089890843DAF80C1088810020FE
:10307000D4E670B582B004000D0000260021B4F83B
:103080006200082805DAB4F862004FF6FD71884244
:1030900008D3E80706D4A07E50F08000A0765FF049
:1030A000FF305BE0A80700D50126F00701D504201A
:1030B00000E00020B10701D5002100E00021320727
:1030C00001D5002200E00022081811180022C9B220
:1030D00089B20020FEF718FA002806D1A07E50F031
:1030E0008000A0765FF0FF3038E0F6B20096A36D66
:1030F0002A00D2B201002000FFF7DDFC002806D133
:10310000A07E50F08000A0765FF0FF3026E0A16E38
:10311000002901D1A06606E0A16E00E009680A68F6
:10312000002AFBD108600021A4F8641003210D429D
:1031300002D0A16D491CA165E90703D5A17E51F01C
:103140002001A1764068FEF795FBB4F862104018A4
:10315000A4F86200B4F862000028002076BD70B5C3
:1031600084B004000025E06CFEF7E5FC03000022BB
:10317000EDB2290089B22000FFF73CFC0600002ECA
:1031800006D1A07E50F00300A0767FF0010024E07D
:10319000201D00F04FFF002802D17FF003050BE057
:1031A000029006200190607A0090A37A221D2100EF
:1031B000300001F08AF805003000FEF720FB6DB208
:1031C000002D04D0A07E50F00300A07603E0A07E86
:1031D00010F0FC00A076280040B204B070BD2DE9CC
:1031E000F0470400C2480068A04201D100208FE0EF
:1031F000B4F85C00B4F84810884202D2B4F85C50CD
:1032000001E0B4F84850D4F86880A07E800713D558
:10321000B8F1000F0CD0D8F80C104868FEF78BFC02
:10322000616C401AB8F8081010FA81F0854203D298
:103230002000FFF794FF6BE0E76E002F04D000E062
:103240003F6838680028FBD1201D00F0F3FE06001F
:10325000002E02D17FF003005AE0002C02D020683B
:10326000002811D1002E01D0301D00E000200028E0
:1032700002D17FF003004BE00068206004E040468C
:10328000FFF776F9D4F86880B8F1000F35D0D8F898
:103290000C104868FEF74FFC616C401AB8F8081033
:1032A00010FA81F0854228D3D8F80C008089FEF707
:1032B0003BFCE06E002817D0A07E4421084213D1C9
:1032C000A06E002808D0A06E006800280CD1A06E67
:1032D0000089618E884207D2B4F86000002803D0CC
:1032E000B4F86200082801DB012000E0002000287B
:1032F00010D1A07EA02108420CD1A06E002802D1DE
:103300000020A4F86400A07E10F07F00A0760020CA
:10331000BDE8F08794F91400022809D01020FEF7C8
:1033200003FCD8F80C1089890843D8F80C10888160
:1033300032002100404600F07DF840B2002805D060
:10334000A17E51F08001A17640B2E1E7D8F80000FB
:10335000A06694F91400022803D0A07E10F0FC00AF
:10336000A076D8F80C104868FEF7E5FB8146D8F83F
:103370000C008089FEF7D8FB0321084201D0012010
:1033800000E00020B8F8081019FA81F14018E16C4B
:10339000091A002900D5E064D8F80C008089FEF7EE
:1033A000C3FB0321084201D0012000E00020B8F84F
:1033B000081010FA81F000283FF461AF0020C8F82F
:1033C0000000E06E002803D1C4F86C80474659E73E
:1033D000D8F80C104868FEF7AEFB8146F9684868DB
:1033E000FEF7A9FBB9EB000000281FD514F16C090A
:1033F00001E0D9F80090D9F8000000280FD0D9F8E2
:103400000000C1684868FEF796FB8246D8F80C10A9
:103410004868FEF790FBBAEB00000028E9D4D9F821
:103420000000C8F80000C9F800802BE7C7F800804A
:103430003F6827E7FEB504000D0016006068C089EC
:10344000012801D0002051E0686AFEF774FBE168B2
:103450008860688DFEF768FBE168C881686A698DDD
:1034600010FA81F0E862E06810F11407A07AC00752
:103470000BD5291D40F2B450FFF7EDF980B250F0A2
:103480000170FEF758FB38603F1DB5F93000002889
:1034900001D500202886686B002807D115480068F0
:1034A0006863E1684868FEF746FBA863E068616806
:1034B0004968401A61684989091A626851816168DE
:1034C0000989081A61680881E0686168486000201D
:1034D000E1680882029606200190687A0090AB7A33
:1034E0002A1D2900606800F0F0FE40B2FEBD000019
:1034F0007CC6002054C600202DE9FE438046894644
:1035000014001D00002214210120FDF7FDFF06001C
:10351000002E2FD077680A98FEF706FB38800B98AC
:10352000FEF702FB78804046FEF705FB78604846D0
:10353000FEF701FBB86045F21400FEF7F5FAB8811A
:1035400046F60B00F881002038820020788228009F
:1035500000F070FD00280AD00290062001900020A3
:103560000090FF232A002100300000F0AEFE300062
:10357000FEF745F9BDE8F78380B5C16E002914D088
:10358000C16E00E009680A68002AFBD1826E0A60F9
:10359000C16E81660021C16690F84210491C80F816
:1035A000421000214163FFF71AFE01BDF8B5040087
:1035B000E06E002826D0E56E2868E06614F1680603
:1035C00000E03668306800280CD03068C168486870
:1035D000FEF7B1FA0700E9684868FEF7ACFA381A56
:1035E0000028EED43068286035602868002802D1B1
:1035F0000020A4F8640094F84200401C84F84200C3
:1036000000206063F1BD10B50400E06E002834D0E6
:10361000A07E400731D42000FFF7C8FFB4F85C005B
:10362000B4F84810884207D2B4F85C00022190FB3D
:10363000F1F0A4F84A0006E0B4F84800022190FB3B
:10364000F1F0A4F84A00B4F84A00618EB0EB410FE3
:1036500004D2608E80B24000A4F84A00B4F84A0058
:10366000618E0322514311FA80F0A4F84800A07E35
:1036700050F00400A0760020208610BD3EB5040066
:10368000E06C401EFEF757FA0300002200212000E4
:10369000FFF7B0F90500002D02D15FF0FF3018E010
:1036A000201D00F0C7FC002802D17FF003040BE0CE
:1036B00002900620019000200090A37A221D210094
:1036C000280000F002FE04002800FEF798F8200011
:1036D00040B23EBD2DE9F04184B00500EE6E002EF3
:1036E00000D1AE6E002E01D1002061E0F06880892B
:1036F000FEF71AFAC00705D53089002802D15FF01D
:10370000010801E05FF000085FFA88F8B8F1000FE7
:1037100001D0002200E00122F068436892B200214B
:103720002800FFF767F90400002C02D15FF0FF309A
:103730003EE067685FFA88F8B8F1000F09D0112001
:10374000FEF7F2F9B9894CF2FF0211400843B88143
:103750000BE0606810F11401706800893289831AE7
:103760009BB201227068FEF718F9F1684868FEF70D
:10377000E2F9401CE96C091A002900D5E864281D0B
:1037800000F058FC002802D17FF003050BE0029006
:103790000620019000200090AB7A2A1D290020000D
:1037A00000F093FD05002000FEF729F8280040B244
:1037B00004B0BDE8F081000080B5FEF7CAF9864884
:1037C0000068002803D185480068002805D0002241
:1037D0008349FA2000F039F802E0002081490860AE
:1037E00001BD80B57F48006800280FD17A48006885
:1037F000002803D179480068002807D001207949C2
:10380000086000227649FA2000F01FF801BD10B5CB
:1038100004006068804722007349206800F015F8B2
:1038200010BD10B5012409E0704810EBC4026E49C8
:103830006E4850F8340000F008F8641C052CF3D3EF
:1038400001F0E8F86A49086010BDF8B504000E0000
:1038500017000A20FFF7A4F80500002D52D001F050
:10386000D9F864490968002903D10021604A106031
:1038700002E05F490968411A00202860AE60EF60ED
:10388000081968605B480068002802D15948056043
:1038900038E058480068406884420CD255480068B7
:1038A0004068001B53490968486052480068286016
:1038B0005048056026E04F48006800E00068002896
:1038C00020D069684268891A69600168002904D0BB
:1038D0006968026852689142F0D20168002906D0F6
:1038E000016849686A68891A0268516007E0696876
:1038F0008C4204D23F490968496809196960016826
:1039000029600560F1BDF8B53A48006800282BD061
:1039100001F080F836490968441A002535480168E5
:1039200000291ED0486884421BD301253048006816
:103930004A6810182E4A10604868241A08682D4AF0
:1039400010608E68CF680A20FFF744F83000002826
:1039500007D0294800F0C1FA3800B047264800F0E7
:10396000C3FAEDB2002DD8D1F1BD80B52148006871
:10397000002802D15FF0FF300FE001F04BF81C4946
:103980000968401A1B4909684968814201D2002030
:1039900003E0184909684968081A02BD38B50400EF
:1039A0000D0001E0FFF7AFFF12480068002805D1C5
:1039B00000222900200000F0E6F90BE0FFF7D5FF18
:1039C0000028EFD002002900200000F0DCF910F1FF
:1039D000010FE7D031BD000060C6002064C60020A2
:1039E000B937000898C600200F380008A8FB000867
:1039F00094C6002090C600208CC60020DFF81C135F
:103A0000096802885118884216D00A79002A13D111
:103A1000C34A126891420FD0C24A12688A4201D149
:103A2000C04A10600A880280BC4A1268821ABB4BE6
:103A30001B680988C9184A80B84909684288511822
:103A4000814212D00A79002A0FD1B64A1268824206
:103A500001D1B44A116002880A80B04A1268891AFA
:103A6000AE4A1268008880184180704780B5AE4821
:103A700080088000A9490860A84800684FF42051D8
:103A800001800021418000210171A448006810F5E7
:103A90002050A34908600120A149096808714FF42A
:103AA00020509F49096808804FF420509C490968BC
:103AB00048809A4800689B4908609C4800F0FBF9E0
:103AC000002801BD10B50400002C1ED093480068EA
:103AD000844203D392480068844204D300F01FFA62
:103AE00000F026FA11E0914800F0F7F9B4F108006F
:103AF000002101718B490968884201D28949086017
:103B0000FFF77CFF894800F0EFF910BD2DE9F04187
:103B100004000D00ADB2E81C4FF6FC7111EA00057F
:103B2000ADB20C2D00D20C25ADB2B5F5205F01D998
:103B3000002076E079480068844203D37848006822
:103B4000844205D300F0EBF900F0F2F9200068E0C0
:103B5000B4F1080671480068371A3088BFB2C01B3C
:103B6000B0F108081FFA88F8ADB2A84501D20020CC
:103B700057E0ADB21FFA88F8454501D1200050E06A
:103B80006A4800F0AAF96548006831880A18107977
:103B900000281FD11088E9190831624B1B68934235
:103BA00005D15E4A126889B28A185E4B1A605B4A78
:103BB000126889B28A1800231371108057803180EF
:103BC0001088B0F5205F28D054480068128810187B
:103BD000418022E01FFA88F8ADB215F1140080454B
:103BE0001BD3E81910F108014C48006889B20A1883
:103BF0004C480068824201D24A480260002010719D
:103C000030881080578031801088B0F5205F04D054
:103C100042480068128810184180444800F064F956
:103C20002000BDE8F08138B50400A4B2002C01D119
:103C3000002071E0A4B2E01C4FF6FC7111EA000410
:103C4000A4B20C2C00D20C24A4B2B4F5205F01D98C
:103C5000002061E0354800F040F9324800682F4903
:103C60000968401A03E02D49096880B2405A80B2C1
:103C7000A4B2D4F5205188424AD22849096880B2BA
:103C8000451829790029EED1298880B2091A083906
:103C9000A4B2A142E7D3298880B2091A0839A4B294
:103CA00014F11402914217D3211808311B4A1268EB
:103CB00089B28A18002313712B88138050802980C1
:103CC000012028711088B0F5205F07D013480068E4
:103CD00012881018418001E0012028711148006805
:103CE00085420FD10F48006803E00C49096800883D
:103CF00040180179002903D0094909688842F4D1A4
:103D000008490860094800F0EFF815F1080003E0E1
:103D1000064800F0E9F8002032BD0000B4C50020DC
:103D2000B8C50020BCC50020E34B0020C0C5002062
:103D30001CB504008248D0E90023CDE9002300919E
:103D40000021684600F0A6FF20602068002802D10C
:103D50005FF0FF3000E0002016BD10B504002068C1
:103D600001F030F8206801F03BF810BD80B500226A
:103D7000006800F096FF002801D1002001E05FF00C
:103D8000FF3040B202BDFEB504000D00160000F089
:103D90005CFE0700002E10D032002168684600F05B
:103DA000B0FF0098102805D10198286000F04DFE62
:103DB000C01B0DE05FF0FF300AE05FF0FF322168CA
:103DC000684600F09EFF0198286000F03EFEC01B90
:103DD000FEBD10B584B00C0000220168684600F0FA
:103DE00090FF0098102803D101982060002001E086
:103DF0005FF0FF3004B010BD0068002801D1002042
:103E000000E00120704700210160704738B50400D0
:103E10000D004C48006800900121684600F0B1FE9A
:103E200020602068002802D15FF0FF3007E0EDB28B
:103E3000002D03D10021206800F0BAFE002032BD21
:103E400070B504000D0000F000FE0600002D0CD03F
:103E50002900206800F0ACFE002803D100F0F5FD39
:103E6000801B0CE05FF0FF3009E05FF0FF3120685D
:103E700000F09EFE0028F8D100F0E7FD801B70BD29
:103E800080B5006800F0D0FE01BD80B5006800F08C
:103E9000F4FE01BD0068002801D1002000E00120EF
:103EA000704700210160704780B5274800F0FFFD92
:103EB0002649086001BD10B582B00400244800689E
:103EC0000090684600F0F3FD20602068002802D1D1
:103ED0005FF0FF3000E0002016BD80B55FF0FF31DD
:103EE000006800F0E9FD01BD80B5006800F020FE2B
:103EF00001BDF0B585B006000F0014001D00684636
:103F0000142100F07BFF009601970A98ADF8080095
:103F100004952100684600F0A3FD05B0F0BD80B512
:103F20005FF0FF310948006800F0C6FD012002BDC6
:103F300080B50648006800F0FBFD01BD00000000F0
:103F400040FF00087CFF000884FF000814C6002022
:103F500080FF000862B38B0708D0521E11F8013BA6
:103F600000F8013B00F024808B07F6D1830740F076
:103F7000208000BF103A07D330B4B1E83810103AAF
:103F8000A0E83810F9D230BC530724BFB1E80810BC
:103F9000A0E8081044BF51F8043B40F8043BD207A6
:103FA00024BF31F8022B20F8022B44BF0B7803709A
:103FB0007047083A07D3B1E80810083A40F8043BC4
:103FC00040F804CBF7D25307E4E7000062F30F2276
:103FD00062F31F42401810F0030308D0C91A1FD320
:103FE000DB0748BF00F8012D28BF20F8022D130081
:103FF00030B414461546103928BF20E93C00FAD8E1
:10400000490728BF20E90C0048BF40F8042D89006B
:1040100028BF20F8022D48BF00F8012D30BC7047A2
:10402000C91818BF00F8012DCB0728BF00F8012DD3
:104030007047000010B40100DFF86803006800E07A
:104040000068002819D090F8332012F00502052AE4
:10405000F6D14268002AF3D00A6883681A404368A0
:10406000846823409A421DD090F833209207E7D409
:104070000A68C3689A42E3D114E0CB48006800287C
:104080000CD0C948006890F8330010F005000528EE
:1040900004D1C54800684068002801D1002001E033
:1040A000C148006810BC70472DE9F04704000D00BE
:1040B0005FF0010866683078C0B20009C0B2042819
:1040C00004D02000FDF79BFB0020FCE0307810F0CE
:1040D0000F07BFB2BF007088FDF726FD814620891B
:1040E0001FFA89F9814504D2494689B22000FDF7BB
:1040F000F4FA6089BFB2B84207D320891FFA89F960
:10410000484502D3BFB2142F04DA2000FDF777FB35
:104110000020D8E03069A5494861F068A3490861EA
:10412000A248007D10F0F000E0280BD195F8330094
:10413000C00704D56868002801D0A9462DE05FF0CB
:1041400000092AE05FF0010AA94699F83300C00788
:1041500011D5D9F8040000280DD094484069D9F849
:104160000410884206D0494690484069FDF768FC33
:10417000002800D011E0BAF1000F05D05FF0000A6E
:104180008848D0F8009001E0D9F80090A94501D105
:10419000D9F80090B9F1000FD7D1B9F1000F0BD1C8
:1041A000707A112808D1BFB2B8194088B0F5884F8D
:1041B00002D1A9465FF00008B8F1000F15D07B4886
:1041C0000069002811D0290078480069FDF738FC03
:1041D000002805D17548007C10F0F000E02804D1DB
:1041E0002000FDF70CFB00206DE0B9F1000F04D1B9
:1041F0002000FDF704FB002065E0F0884FF63F71DA
:10420000084208D0200000F066FF0400002C01D115
:10421000002058E066686548C0F800906348456033
:1042200062488660307810F00F0080B280005F49ED
:104230008881380000B2414209B22000FDF7D3FA6C
:10424000707A01280DD0062806D011280ED1290039
:10425000200001F064F923E029002000FBF794FF1F
:104260001EE02900200001F09FFB19E049464F485D
:104270004069FDF7E5FB00280FD14C48007D10F0A8
:10428000F000E02809D0390009B22000FDF7B1FAAA
:1042900066600221200001F059FC2000FDF7AFFA12
:1042A00000204249086000204049486000203F4902
:1042B000886000203D49888100203C490861002039
:1042C0003A4948610020BDE8F0873EB50C00089DE2
:1042D000002A05D0002902D00968002900D12C1D30
:1042E00002950799019106990091DBB2210000F037
:1042F00001F83EBD2DE9F84304000E001700994671
:10430000002F36D05FF0140814212000FDF76BFA5F
:10431000002802D07FF0010041E0656885F8089030
:1043200009986872386828611FFA88F8042098FB99
:10433000F0F050F040002870089868702089FDF770
:10434000F3FB68800020E88019480088FDF7ECFB4B
:10435000A88017480088401C15490880002E03D10A
:1043600014480068E86001E03068E8600020688177
:1043700003E06568286900906F460A98418D00291E
:1043800009D0418D2289914205D23A0001002000D6
:1043900000F082FF03E03A00210043699847BDE83E
:1043A000F2830000F8C50020FCC50020D8C400201E
:1043B000A4C6002070FF000800B587B00020009060
:1043C000DFF8F405006850F00100DFF8EC15086034
:1043D000DFF8E405006810F001000090009800206C
:1043E0000090DFF8D405006850F00400DFF8C8152D
:1043F0000860DFF8C405006810F004000090009821
:1044000000200090DFF8B005006850F00200DFF8EF
:10441000A8150860DFF8A005006810F00200009001
:10442000009800200090DFF89005006850F04000F0
:10443000DFF884150860DFF88005006810F04000A0
:104440000090009800200090DFF86C05006850F0A4
:104450000070DFF864150860DFF85C05006810F094
:1044600000700090009800200090DFF84C05006874
:1044700050F08060DFF840150860DFF83C05006808
:1044800010F080600090009800200090DFF8280570
:10449000006850F00060DFF820150860DFF81805AC
:1044A000006810F000600090009801220421DFF8FD
:1044B0000C0501F080FC04200190012002900020F6
:1044C0000390022004900020059001A9DFF8EC047D
:1044D00001F084FB32200190022002900020039022
:1044E000032004900B20059001A9DFF8D40401F00B
:1044F00075FB86200190022002900020039003208B
:1045000004900B20059001A9DFF8B80401F066FBC8
:104510004FF4D0400190022002900020039003202D
:1045200004900B20059001A9DFF89C0401F056FBD4
:10453000002205213D2001F0CDFC3D2001F0DBFCF7
:1045400007B000BD80B5DFF88404006800F06CFBA4
:1045500001BDF8B5060000270024002501F004FD88
:1045600096F83310490712D5022810D2DFF86004FC
:1045700001F01AFE300001F0E8FE300001F015FFF6
:10458000DFF85014DFF8500401F020FF3CE096F80B
:104590003310490738D4022836D3022806D019D35D
:1045A00004280ED008D3052810D013E04FF400657E
:1045B0004FF4804401270DE000254FF4804401278B
:1045C00008E04FF400650024012703E000250024E3
:1045D0000127FFE7002F17D0300001F0C8FEDFF8F9
:1045E000FC03C560DFF8F40384600021DFF8EC030E
:1045F00002F07FFADFF8E80301F0D6FDDFF8D4130C
:10460000DFF8D40301F0E2FEF1BD10B58AB004007A
:104610000020009002A8DFF8CC130CC90CC00839A8
:104620000838DFF8C403DFF8B413086002A8DFF825
:10463000AC1348610120DFF8A41348604FF48040B8
:10464000DFF8981388604FF40060DFF89013C860BB
:104650005FF40000DFF8841308620120DFF87C13A8
:1046600088610020DFF87413C8610020DFF86C1344
:104670000882DFF8680301F0ADFE00280AD1DFF8F8
:104680006C0301F091FD94F8330050F0040084F8BD
:10469000330003E0DFF8580301F086FD0423DFF860
:1046A0005423DFF85413DFF8340301F0CCFF042364
:1046B000DFF84823DFF84813DFF8200301F0FEFF9E
:1046C000062084F82C00022084F82D00002084F8B5
:1046D0002E00002084F82F00002084F830000020F5
:1046E00084F83100002084F8320040F2DC5060850C
:1046F00094F8330050F00A0084F83300DFF8040324
:1047000000680190012101A800F03BFADFF8BC121B
:10471000086004A8DFF8F0121422FFF72BFC210038
:1047200004A800F09DF9DFF8B40202F0BDF96A4672
:104730000221DFF8A80202F037F96A461121DFF8FA
:104740009C0202F031F9009850F003000090009AAA
:104750001121DFF8880202F068F96A461221DFF8B9
:104760007C0202F021F9009850F020000090009A9D
:104770001221DFF8680202F058F90AB010BD2DE9E5
:10478000F047DFF85802C06A856800265FF000082D
:1047900000245FF000099148C76A5FF000088A466C
:1047A0000EE02200DAF8040019EB000118EB05090D
:1047B0004846FFF7CFFB14EB0808A619DAF800A06B
:1047C000BAF1000F32D03868002802D57FF0070018
:1047D00031E0BAF80A405FF000090DE0BD68A8F2C8
:1047E000F450041909F2F450B0EB080906F2F45041
:1047F000B0EB08065FF0000818EB040040F2F5513A
:104800008842CED340F2F450B0EB0802DAF804004C
:1048100019EB000118EB05052800FFF79BFBFF686B
:1048200038680028DAD57FF0070004E031006B48D3
:1048300001F082FF00206949096841F214025158D1
:1048400089060BD52021654A126841F2140399505C
:104850000021624A126841F20403995040B2BDE857
:10486000F0872DE9F0470025002600215FF00009C0
:104870005FF0000A00240020584801F0F7FF0028EC
:1048800001D000206AE05548C16B5448D0F8408000
:1048900089B2002905D0032289B20420FCF734FE36
:1048A0000500002D35D04D48076B5FF000092E0044
:1048B00029E040F2F450B0EB090219EB08017068EE
:1048C0001AEB00084046FFF745FBFF68D7F8088061
:1048D000A9F2F45004190AF2F450B0EB090A5FF09F
:1048E000000919EB040040F2F5518842E1D22200A0
:1048F00019EB080170681AEB000A5046FFF72AFB13
:1049000014EB09093668002E03D074895FF0000AA1
:10491000E7E73248076B002005E0396851F00041B5
:104920003960FF68401C2D49896B8842F5D300200F
:104930002A4988632948006841F214010858000692
:104940000BD580202549096841F2140250500020FF
:104950002249096841F2080250502800BDE8F0875A
:1049600038B504005FF0FF311848006800F020F906
:104970000028F7D12000FFF774FF0500002D08D0B4
:104980002100280022699047002802D02800FCF767
:1049900036FF002DEED1E5E780B5732180F83410A5
:1049A000742180F835101949416119498161FFF777
:1049B0002CFE002002BD00003038024000040240FE
:1049C0000008024000000240001802409CC5002080
:1049D000E4FC00083561000854C400208CC30020AA
:1049E00034FD000818FF000800800240A8FD000800
:1049F000B8FD0008C48B00206CC20020F4730020B6
:104A0000ECC1002068FF000848FD00087BB30008E7
:104A10007F47000880B502F018FB02BD002100B2FC
:104A2000842802D000B2C01C411808007047EFF380
:104A30000580002801D0012000E00020C0B27047AE
:104A400080B502F0A5FC002002BD80B5FFF7EFFFA6
:104A5000002802D002F058FD01E002F051FD02BD35
:104A60003EB504000D00B4F90800FFF7D7FF02A916
:104A7000019100902B00226992B22168606802F0D7
:104A8000FDFA012801D0002000E002983EBD80B56B
:104A900002F0E7FB002002BD80B50121B0FBF1F080
:104AA000002800D1012002F04DFC002002BD80B59D
:104AB000012003F019F902BD38B504000020009070
:104AC000002C01D1802028E0002511F1010F02D136
:104AD0005FF0FF3507E0002905D00120B1FBF0F5BC
:104AE000002D00D10125FFF7A2FF002816D06A464D
:104AF0000021200003F094FB012801D0FF200CE0EE
:104B00000098002808D05FF08050DFF8B4120860E9
:104B1000BFF34F8FBFF36F8F002032BD00232A00F9
:104B20000021200003F09DFA0128F5D0FF20F4E7D2
:104B300038B50400002500200090FFF778FF00281A
:104B400014D06946200003F032FA012801D0FF207A
:104B500016E00098002812D05FF08050DFF8601255
:104B60000860BFF34F8FBFF36F8F08E00023002270
:104B70000021200003F0E4F8012800D0FF252800E0
:104B800032BD10B501290FD103220021012003F00D
:104B900066F80400002C05D000230022002120002C
:104BA00003F0CEF8200002E0080003F0ABF810BDDF
:104BB00038B5040000200090002C01D1802028E0AE
:104BC000002511F1010F02D15FF0FF3507E0002948
:104BD00005D00120B1FBF0F5002D00D10125FFF734
:104BE00026FF002816D06A460021200003F018FB9B
:104BF000012801D0FF200CE00098002808D05FF0C9
:104C00008050DFF8BC110860BFF34F8FBFF36F8F88
:104C1000002032BD00232A000021200003F021FAE9
:104C20000128F5D0FF20F4E738B504000025002066
:104C30000090FFF7FCFE002814D06946200003F026
:104C4000B6F9012801D0FF2016E00098002812D004
:104C50005FF08050DFF868110860BFF34F8FBFF33B
:104C60006F8F08E0002300220021200003F068F885
:104C7000012800D0FF25280032BD10B50400FFF741
:104C8000D6FE002801D0822003E0200003F040FB84
:104C9000002010BD80B500224168006802F0DFFFEF
:104CA00002BD32B582B00400002000900120B2FBAA
:104CB000F0F5002D00D10125FFF7B9FE002816D030
:104CC00000236A4602A9200003F005F9012801D05B
:104CD000FF200BE00098002807D05FF08050384993
:104CE0000860BFF34F8FBFF36F8F00203EBD0023DE
:104CF0002A0002A9200003F023F80128F5D0FF20A4
:104D0000F4E77FB504000D00029500200190002D0E
:104D100007D18020009068460EC80EC40C380C3CA9
:104D200043E000200390002612F1010F02D15FF052
:104D3000FF3607E0002A05D00120B2FBF0F6002E76
:104D400000D10126FFF773FE002817D003AA01A99E
:104D5000280003F065FA012802D11020009001E03C
:104D600000200090039800281AD05FF0805014496A
:104D70000860BFF34F8FBFF36F8F11E00023320045
:104D800001A9280003F06DF9012802D1102000903C
:104D900006E0002E02D10020009001E040200090AB
:104DA00068460EC80EC40C380C3C04B070BD80B50B
:104DB00002F0C7FD012801D003F047FC01BD00004F
:104DC00004ED00E010B50400FFF731FE002803D029
:104DD000200003F091FA02E0200003F07AFA10BDFF
:104DE00010B50400FFF723FE002801D0822003E065
:104DF000200003F08DFA002010BD0000002203F017
:104E000089BC000038B50025DFF85C06046804E0C2
:104E1000E07F401EE07725002468002C08D0E07F6A
:104E20000028F5D120002468290000F002F8F4E7FA
:104E300031BD2DE9F04104000D000026002D606811
:104E400040688188002915D1676801686160142273
:104E500014F10801D7F804804046FFF77BF80121E0
:104E6000380000F07AFE3800FCF704FD861938009F
:104E7000FCF7C5FC676809E07868B84607684046F3
:104E8000FCF7F8FC86194046FCF7B9FC002FF3D17B
:104E90002900200000F081F8DFF8D0050088801B91
:104EA000DFF8C8150880B6B23000BDE8F081F8B56B
:104EB00004000D0000260020002200210027DFF85A
:104EC000A8351B680EE090F81FC093F81FE0F4456A
:104ED00001D318001100D3F800C0BCF1000F00D0BE
:104EE0001A001B68002B1FD0D4F80CC0D3F814E0B4
:104EF000E6450BD1D4F810C0D3F818E0E64505D14B
:104F0000B3F80CC0B4F804E0F44502D05FF0010C33
:104F100001E05FF0000CBCF1000FDCD07F1C00282A
:104F2000D1D118001100D6E7002802D0FFF781FF89
:104F30008619AE4201DA022FBDDA3000F2BD70B53B
:104F400004000E000420FDF72BFD0500002D0DD1FF
:104F500031002000FFF7ABFFB04203DB0420FDF778
:104F60001FFD0500002D01D1002015E020210022A9
:104F70002800FFF72BF80320E877DFF8EC0400683F
:104F80002860DFF8E4040560142215F1080621000A
:104F90003000FEF7DFFF280070BD80B5DFF8C824C1
:104FA0001268824204D10168DFF8BC24116001E07C
:104FB00002680A6001000420FDF70CFD01BD2DE927
:104FC000F84305000C0000260127D4F80490B9F836
:104FD0000200FCF7A9FD80B299F8001011F00F0152
:104FE000B0EB8108B9F80600FCF79EFDC004C00CC8
:104FF00080B2C100606800220260818018EB01016C
:10500000C1806A6808E0002E04D0F2888B889A423A
:1050100000D000270A680E00002A24D05168838837
:10502000B1F804C0634529D20260002E1AD08388EB
:10503000B6F806C0634503D38988C38899420FD266
:105040002000FCF717FCDFF824140988081ADFF8A1
:105050001C1408802000FCF7D2FB0020BDE8F2837E
:10506000346000E06C60002A12D1002E0FD0346052
:10507000F188828891420BD0002709E082888B88D2
:105080009A42DDD08288CB889A42BCD2D8E76C6045
:10509000A97FC9071DD5002F19D06968002904D040
:1050A000696849688988002901D000270FE0060057
:1050B000026801E006000268002A05D05068F18805
:1050C00082889142F6D00027002F00D00168380076
:1050D000C4E70020C2E72DE9F04705006E6830788C
:1050E00010F00F008000142805D02800FCF787FB83
:1050F0000020BDE8F087F088FCF716FDC004C00C66
:1051000080B2C7007088FCF70FFD80B2317811F0D3
:105110000F01B0EB81082800FCF7ACFB8146D348B7
:1051200000881FFA89F919FA80F00B2810DB1FFAA2
:1051300089F949463000FFF7BAFE002807D0CB486E
:1051400000881FFA89F919FA80F00B2800DBCCE7F8
:10515000C548046800E02468002C10D0F06861693C
:10516000814209D13069A169814205D1A089B18804
:10517000884201D1012000E000200028EBD0002C63
:1051800009D11FFA89F949463000FFF7D8FE04001B
:10519000002C11D1A9E7F088FCF7C6FCC0040BD1A4
:1051A000E089FCF7C1FCC00406D0142214F1080AFF
:1051B00031005046FEF7CEFEAC48008819EB0000E7
:1051C000AA490880B079800606D4A07F50F001007B
:1051D000A07718EB0700A08329002000FFF7EFFE5F
:1051E000002840D0A08B1430A08360684068076816
:1051F00060684668142214F108013000FEF7AAFE28
:10520000A08BFCF791FC70800020F0800020708162
:1052100065680AE07E687FF013013800FCF7E3FA66
:1052200039002800FCF73BFB3768002FF2D18E488D
:105230000068844201D1002108E08B48016800E049
:105240000968002902D00868A042F9D12000FFF7C0
:10525000A4FE2800FCF70EFB84490988081A83493C
:105260000880280045E7002043E780B50520FDF7CA
:1052700097FB02BD80B501000520FDF7ABFB01BD2A
:1052800010B504006069002802D06069FCF7B7FA25
:105290002000FFF7EFFF10BD2DE9F64F85B00400A9
:1052A0000598408D1438082190FBF1F0ADF80E0000
:1052B0001425002660680490DDF8108098F800003E
:1052C00010F00F008000142802D07FF0050062E08B
:1052D000B8F80600FCF728FCC104C90CADF80C10A6
:1052E000800402D57FF0050055E020891438ADF820
:1052F00008002FE00021BDF80C00C004C00C0029FC
:1053000001D150F4005080B2FCF70EFCA8F8060062
:10531000BDF80A00143080B2FCF706FCA8F80200C1
:105320000020A8F80A00069A39000598059B5B69D9
:1053300098473800FCF763FABDF80800BDF80A107A
:10534000401AADF80800BDF80C00BDF80E100818A2
:10535000ADF80C00BDF80800002800F08280BDF810
:105360000800BDF80E10B0EBC10F04DABDF808005C
:10537000ADF80A0005E0BDF80E0080B2C000ADF83F
:105380000A00002214210220FCF7BEF80700002FBB
:1053900004D15FF0FF3007B0BDE8F08F142204990C
:1053A000D7F804804046FEF7D5FDD7F80480BDF855
:1053B0000A9001E0002524681FFA89F9B9F1000F6D
:1053C00044D06089461B1FFA89F9B6B2B14501D2B3
:1053D0004E46FFE7B6B2002EECD0FFF746FF8246FE
:1053E000BAF1000F03D13800FCF709FAD1E7300019
:1053F00080B201906068ADB2281800905346022236
:10540000310089B20420FCF72EF98346BBF1000F6E
:1054100006D15046FFF72EFF3800FCF7F0F9B8E749
:105420002000FCF730FACAF814401148CAF81000FE
:1054300059463800FCF733FAB9EB06091FFA89F927
:10544000B9F1000FB8D000252468B5E775190598A3
:10545000408D1438BDF808108842FFF64BAF01218B
:1054600049E7002097E70000B0C50020A6C600204D
:105470008152000870470020FFE7DFF818150988FF
:105480004A1CDFF810351A8089B24FF6FF7291423C
:1054900004D14FF44041DFF8FC241180DFF8F81408
:1054A000096800E0C96800290CD04A8ADFF8E434B2
:1054B0001B889A42F6D1401C80B2B0F5804FDCDBED
:1054C000002002E0DFF8CC0400887047D2B2002A46
:1054D00016D0002812D00268002A0FD0DFF8BC24B2
:1054E000526912F1010F09D000688A681040DFF894
:1054F000AC2452698968114088420ED101200DE028
:10550000002808D00168002905D00068DFF88C1455
:105510004969884201D1012000E0002070472DE94F
:10552000F84F04000D0000206089082803DA2000ED
:10553000FCF765F9B1E0D4F80480DFF86004016895
:10554000DFF858044069FCF77BFA0600B8F8000061
:10555000FCF7EAFA0700B8F80200FCF7E5FA814622
:105560005FF000085FF0000A5FF0000BDFF828042E
:10557000D0F8008002E0C246D8F80C80B8F1000FE5
:1055800035D0B8F812001FFA89F94845F3D1320036
:10559000D2B229004046FFF799FF0028EBD098F8D7
:1055A0001000400703D4BBF1000F00D1C346B8F888
:1055B0001400BFB2B842DED1D8F80400002806D0EB
:1055C000D8F80400DFF8D41309698842D3D1BAF1BE
:1055D000000F0CD0D8F80C00CAF80C00DFF8B803A4
:1055E0000068C8F80C00DFF8B003C0F80080B8F11C
:1055F000000F00D1D846B8F1000F01D0012008E01B
:105600006868DFF898134969884201D1012000E0F9
:105610000020C0B200283DD07FF007012000FCF739
:10562000E2F8002803D02000FCF7E9F835E0B8F1F3
:10563000000F13D0D8F8180000280BD0BFB2009785
:10564000DFF85C3322004146D8F81C00D8F8184037
:10565000A04722E02000FCF7D2F81EE0F6B2002EB0
:1056600014D1DFF83803007D10F0F000E0280DD0F1
:10567000DFF82803B0F90C0010F1080109B220008E
:10568000FCF7B7F80321200000F060FA2000FCF7D7
:10569000B6F802E02000FCF7B2F8BDE8F18F80B563
:1056A000002802D17FF0050003E0838A021D00F08C
:1056B00001F802BDF8B504000D0016001F0030000F
:1056C000002C01D0002E02D17FF005000EE0FEF785
:1056D000B1FC002802D17FF0030007E000903B00FE
:1056E0009BB232002900200000F001F8F2BD7CB529
:1056F000002801D0002A02D17FF0050019E0069CA5
:10570000002807D00568002D04D0057815F0F005B5
:10571000E02D01D1251D07E005686668B54202D07D
:105720007FF0050005E00500019500949BB200F0B4
:1057300001F876BD2DE9FE4304000D0016001F00A0
:10574000002C01D0002E02D17FF0050059E0608AC4
:1057500000280DD1628A2100200000F054F8814613
:105760004FFA89F9B9F1000F02D0484640B248E03B
:1057700008212800FCF737F8002813D00022082160
:105780000120FBF7C1FE8046B8F1000F02D15FF0A7
:10579000FF3036E02889002805D029004046FCF774
:1057A00092F800E0A846D8F80490608AFCF7BCF9AB
:1057B000A9F80000380080B2FCF7B6F9A9F8020099
:1057C0000020A9F80600B8F80800FCF7ADF9A9F820
:1057D00004001120A37A0A990291C0B20190607A64
:1057E0000090DBB232000B994046FEF783FD814604
:1057F000A84504D04046FCF702F85FF00008484690
:1058000040B2BDE8FE8370B504000E001000002E0B
:1058100000D1644E002C01D0002E02D17FF0050093
:1058200037E000255C49096800E0C968002902D01A
:105830008C42FAD1012580B2002807D1FFF71BFE68
:1058400080B2002815D17FF0070022E05249096894
:1058500000E0C96800290CD08C42FAD04A8A80B294
:105860008242F6D10A6833689A42F2D17FF007008B
:105870000FE0002E01D1002100E03168216060823C
:10588000EDB2002D04D144480068E0604248046055
:10589000002070BD70B504000D001600002C01D072
:1058A000002D02D17FF0050027E0608A002809D191
:1058B000628A21002000FFF7A6FF40B2002801D035
:1058C00040B21AE0002D01D1002000E0286860609D
:1058D000A682207C50F0040020742F48006800E06D
:1058E000C068002803D08442FAD1002005E02A488D
:1058F0000068E06028480460002070BD8161C261DA
:10590000704780B524490968814205D12249096858
:10591000C968214A11600DE01F49096800E0C968A3
:10592000002907D0CA68002AF9D0CA688242F6D195
:10593000C268CA6001000020FDF74CF801BD10B537
:105940000020FDF72DF80400002C06D020210022B5
:105950002000FEF73BFBFF20A072200010BD10B41A
:10596000002813D00268002A10D000290ED00A683F
:10597000002A0BD0084A126806E013680468A342A4
:1059800001D10B681360D268002AF6D110BC7047B1
:1059900000000000DA0100209CC60020D8C40020CE
:1059A000E8C4002070FF00082DE9F04784B004002F
:1059B0000D006448D0F8088098F8000010F00F003F
:1059C00000B2860036B2142E03DA2000FBF717FF70
:1059D00016E060890428F8D360680078C0B201003E
:1059E000002902D0082901D090E0A6E0564F554882
:1059F000007D10F0F000E02804D12000FBF7FFFE4E
:105A0000BDE8FF874F4801684E484069FCF718F829
:105A10000028F2D120890828D7D3200002F0C5FE43
:105A2000002803D02000FBF7EAFEE9E716F10E019B
:105A300009B22000FBF7D7FE00285CD000222089A5
:105A4000311889B20220FBF75FFD8146B9F1000FE2
:105A5000D3D0B9F80A0036B216F10801884203D251
:105A60004846FBF7CCFEC8E736B2D9F804A03200AE
:105A700041465046FEF76EFA36B2714209B24846C8
:105A8000FBF7B1FE002803D04846FBF7B8FEB4E7A9
:105A900021004846FBF720FF002803D04846FBF7CB
:105AA000AEFEAAE72000FBF7AAFE4C46D4F804801D
:105AB000310009B22000FBF796FE00281AD1606879
:105AC0003968C1601F4909690161002188F8001027
:105AD0000021A8F80210FF210172002141810295E6
:105AE0000120019000200090FF23002239002000B7
:105AF000FEF7EBFB21E016F10E0000B2414209B2C5
:105B00002000FBF770FE0028D0D076E7C0B2032853
:105B100013D0C0B20B2810D0C0B20C280DD0C0B228
:105B200004280AD0C0B2052807D0C0B20D2804D07E
:105B3000C0B20E2801D0C0B211282000FBF75FFED2
:105B40005EE70000D8C40020ECC4002080B50A0045
:105B5000D2B2032100F008F801BD80B50A00D2B22C
:105B60000B2100F001F801BD2DE9F04385B00700DD
:105B700088469146002224210120FBF7C5FC040041
:105B8000002C28D07E68656885F8008085F8019033
:105B90000020A8800020E8801C227968606810F14D
:105BA00008073800FEF7D6F9F068039003A8FEF75F
:105BB00041FA00280CD00021698002900120019058
:105BC00000200090FF2303AA00212000FEF77DFBA8
:105BD0002000FBF714FE05B0BDE8F08378B4002484
:105BE00000230024002237E00825EDB212F003065E
:105BF000F6B2B600B5402C43DFF8D051960845F810
:105C00002640DFF8CC4124689C434D68ED0300D565
:105C10001C43DFF8BC512C60DFF8B84124689C437A
:105C20004D68AD0300D51C43DFF8A8512C60DFF8A8
:105C3000A84124689C434D68ED0200D51C43DFF861
:105C400098512C60654C24689C434D68AD0200D58A
:105C50001C43624B1C60521C102A80F0AA80012356
:105C600013FA02F40B682340A342F4D14C68022CCF
:105C700002D04C68122C15D1D40810EB8404246A8D
:105C80000F2512F00706F6B2B600B540AC430D6919
:105C900012F00706F6B2B600B5402C43D50810EB5B
:105CA00085052C62046803251600F6B27600B5401F
:105CB000AC430D7915F003051600F6B27600B54039
:105CC0002C4304604C68012C08D04C68022C05D091
:105CD0004C68112C02D04C68122C17D18468032513
:105CE0001600F6B27600B540AC43CD681600F6B2A9
:105CF0007600B5402C438460446801259540AC4350
:105D00004D68C5F3001595402C434460C4680325D5
:105D10001600F6B27600B540AC438D681600F6B2B8
:105D20007600B5402C43C4604C68E40093D5002451
:105D300000942B4C246854F48044294D2C60284C4A
:105D4000246814F480440094009C204C950854F876
:105D500025400F2512F00306F6B2B600B540AC435D
:105D6000204DA84201D100253FE71F4DA84201D197
:105D700001253AE71D4DA84201D1022535E71C4D0A
:105D8000A84201D1032530E71A4DA84201D10425CC
:105D90002BE7194DA84201D1052526E7174DA8424A
:105DA00001D1062521E7164DA8427FF41DAF072536
:105DB0001BE771BC704752B2002A02D089B28161E0
:105DC00002E089B20904816170470000083801408F
:105DD000003C0140043C0140083C01400C3C0140B7
:105DE0004438024000000240000402400008024023
:105DF000000C024000100240001402400018024053
:105E0000001C024010F00701484800684FF6FF02EE
:105E10001040474A52EA012108434449086070474C
:105E200042480068C0F302207047012110F01F02B1
:105E30009140404A40B2400942F82010704740B2B9
:105E4000002808D509013C4A40B210F00F00801824
:105E500000F8041C03E00901384A40B2815470473D
:105E600010B410F00700D0F10703052B01D3042371
:105E700001E0D0F10703041D072C01D2002000E04F
:105E8000C01E012414FA03F35B1E19408140012354
:105E900013FA00F0401E1040084310BC704780B554
:105EA000411EB1F1807F01D301200EE0401E244944
:105EB00008600F215FF0FF30FFF7C1FF002021498C
:105EC0000860072020490860002002BD80B5FFF768
:105ED00099FF01BD70B504000D0016000020FFF70A
:105EE0009FFF32002900FFF7BBFF0100200040B2F6
:105EF000FFF7A5FF70BD80B540B2FFF796FF01BD6B
:105F000080B5FFF7CCFF02BD042806D10E4800681B
:105F100050F004000C49086005E00B48006830F0C0
:105F20000400094908607047000000000CED00E023
:105F30000000FA0500E100E018ED00E000E400E0F8
:105F400014E000E018E000E010E000E080B50A0096
:105F5000010089B2864800F027FD002802D05FF0DA
:105F6000FF3000E0002002BD80B5002000906946AF
:105F70000120FFF7EBFF69460120FFF7E7FF0098DC
:105F8000400701D4012039E069460020FFF7DEFF19
:105F90000098C00413D4009810F40450B0F5045FC6
:105FA00001D102202AE00098800401D5032025E0D9
:105FB0000098C00501D5042020E005201EE06946B8
:105FC0001F20FFF7C3FF0098C00401D4062015E08E
:105FD000009810F01C00182801D102200EE0009853
:105FE00010F01C00082801D1032007E0009810F0F1
:105FF0001C00142801D1042000E0052002BD10B5CA
:1060000088B004000EE0002060600020A060002046
:10601000E060022057490870200002F01EFE56483A
:1060200000F0C2F8534800780128ECD0022802D0D2
:10603000052840D046E0200003F0ADFC002811D038
:1060400003204C490870201DFBF720FD020047A1EA
:1060500003A803F0B3FC03A9484800F0A5F803F037
:1060600053FD27E0606A807A052823DB042041493C
:106070000870200003F01AF9414802907FF07F4039
:106080000190404800906B4601AA02A9200000F050
:10609000DBF8201DFBF7FAFC020034A103A803F093
:1060A0008DFC394800F080F803A9384800F07CF8EE
:1060B00003F02AFDB6E7200003F0F8F800202D4990
:1060C0000870AFE7AEE710B5040000F0BEFF30493E
:1060D0000968401A642806D300F0B7FF2C4908600D
:1060E0002000FEF736FA10BD00B587B00021002071
:1060F00003F075FD0020059000200490002003901F
:1061000024480290244801900020009003AB04AA88
:1061100005A9224800F05BF8204800F0E9F81F4884
:1061200000F008F80FF20D011C4800F04FF907B01D
:1061300000BD000080B590F8330040070CD518482A
:1061400000F032F8154800F0DFF801200949087026
:10615000124802F082FD08E0104800F0F6F8052031
:10616000044908700F4800F01FF801BD25730000B6
:106170008CC30020B3C6002058FB00082CFB00088D
:10618000C0A8030EC0A8030120FD0008CCFC000835
:1061900090C5002029DA00089949000854C400205D
:1061A00098FD000880FB00080EB400B582B003A97A
:1061B000009102466B460121034878440A3003F0FF
:1061C00037FD06BC5DF810FB359B000070472DE9DC
:1061D000F04104000D0016001F0000206060002048
:1061E000A0600020E060002084F833000421002239
:1061F00014F124084046FDF7E9FE032084F8280046
:106200000020E061069820623B48007884F8360060
:1062100039480078401C38490870089820613B00D4
:1062200032002900200000F00FF82000079988476D
:10623000002801D0002005E03048006820602F4889
:1062400004602000BDE8F081F8B504000D001600E0
:106250001F00002D02D0286800280CD12900200042
:1062600000F016F83100200000F03BF83900200063
:1062700000F030F80BE03100200000F032F8390077
:10628000200000F027F82900200000F001F8F1BDFF
:1062900038B504000D00002D02D02868009002E0FF
:1062A00018480068009000986168884211D06946DB
:1062B000201DFCF7F9FA6946201DFFF750FB002D61
:1062C00001D1002000E0286860600121200000F07A
:1062D0002EF831BD002901D1002100E00968C1601C
:1062E0007047002901D1002100E0096881607047F2
:1062F0000349086070470000B6C60020F8C50020BA
:10630000FCC5002070FF000880B590F83310C90765
:106310000CD490F8331051F0010180F8331090F84C
:106320003310490702D5032100F001F801BD80B503
:10633000C90709D54168002906D090F8331009072C
:1063400002D5011D05F0BDF901BD80B590F83310EF
:10635000C9070BD590F8331011F0FE0180F8331007
:1063600090F83310090701D504F000FF01BD10B506
:10637000040094F83300400716D494F8330050F02A
:10638000040084F83300200002F0ABFC94F83300E2
:10639000C00703D503212000FFF7C9FFE0690028EB
:1063A00002D02000E169884710BD80B590F8331015
:1063B00049070AD590F8331011F0FB0180F833102B
:1063C000C169002901D0C169884701BD002800D0FA
:1063D000C16170477CB50400002600200090DFF802
:1063E000E40A00260025002C01D101202AE194F8BE
:1063F0004400002805D1002084F845002000FDF766
:10640000DBFF00200190DFF8A00B006850F4804013
:10641000DFF8941B0860DFF8900B006810F48040F0
:1064200001900198DFF8840B006830F40000DFF879
:106430007C1B0860DFF8740B0068216A0843DFF8F2
:106440006C1B0860206810F58050006850F0010057
:10645000216811F58051086000F0F7FD0600206802
:1064600010F580500068C0070DD500F0EEFD801BD0
:10647000B0F5FA7FF3D9032084F84400002084F8B3
:1064800045000320DEE02068066936F01C0605F0B2
:106490003CFCDFF81C1B411ADFF8182B914202D29A
:1064A00056F008061CE0DFF8101B411ADFF80C2B31
:1064B000914202D256F00C0612E0DFF8081A411A97
:1064C000DFF8FC2A91420BD3DFF8F81A401ADFF804
:1064D000F81A884202D256F0040601E056F010067F
:1064E000206806614FF400420021200000F09DFA70
:1064F000002809D001252900200000F093FB01208D
:1065000084F8440001209DE0FF2000F0A1FD6068B8
:10651000002873D000F099FD06006A460121200092
:1065200000F042FA00F091FD801B41F2893188426F
:106530000CD301252900200000F074FB012084F811
:106540004400002084F8450003207BE000984007C9
:10655000E3D54FF480520021200000F066FA0028B5
:1065600009D001252900200000F05CFB012084F8FF
:106570004400012066E000F068FD06006A46012143
:10658000200000F011FA00F060FD801B41F289311B
:1065900088420CD301252900200000F043FB012094
:1065A00084F84400002084F8450003204AE0009865
:1065B0008006E3D56A461021200000F0F5F9002896
:1065C00009D001252900200000F02CFB012084F8CF
:1065D0004400012036E00098400703D54FF40060E6
:1065E000E06001E00020E0600098800702D5002014
:1065F000A0601FE04FF48040A0601BE0E068C0088E
:1066000080B2A168490889B251EA00020021200045
:1066100000F00BFA002809D001252900200000F025
:1066200001FB012084F8440001200BE040F6FF70DC
:1066300000F00EFD2900200000F0F4FA012084F89B
:106640004400002076BD70B4002490F94540012C30
:1066500001D1022030E0012480F84540022480F876
:106660004440C162002401E0E960641C9C4218D2ED
:1066700011EB44155FF480162E6040F2F45606FBD1
:106680000426AE60C669002E03D12E6856F440067B
:106690002E605E1EB442E7D211EB44162036EE6047
:1066A000E3E7026841F210039950012180F8441099
:1066B000002180F84510002070BC704770B40024A1
:1066C00090F94540012C01D1022033E0012480F8EB
:1066D0004540022480F844408162002401E0E960E2
:1066E000641C9C421BD211EB44155FF000462E60E7
:1066F00044F2F4566E6040F2F45606FB0426AE6097
:106700008669012E03D16E68760076086E605E1E83
:10671000B442E4D211EB44162036EE60E0E70268A2
:1067200041F20C039950012180F84410002180F8B7
:106730004510002070BC704730B4002200240023B4
:1067400090F94520012A01D102208DE0012280F834
:106750004520022280F84420002907D1012180F839
:106760004410002180F8451001207DE0C26A1268C3
:10677000002A07D5122180F84410002180F8451026
:10678000012071E040F2F55291420DD340F2F452F3
:10679000B1FBF2F240F2F453B1FBF3F403FB141338
:1067A000002B02D0521C00E00122012A13D1C26A40
:1067B000126852F04052C36A1A60C904C90CC26A16
:1067C0005160C16A096851F00041C26A1160C16A32
:1067D000C968C16231E000232DE0C46A246834F046
:1067E0004054C56A2C60002B05D1C46A246854F05B
:1067F0008054C56A2C6040F2F454C56A6C60541E23
:10680000A3420ED1C46A246854F00054C56A2C60B7
:10681000541E40F2F45505FB1414E404E40CC56A5C
:106820006C60C46A246854F00044C56A2C60C46A71
:10683000E468C4625B1C9342CFD3016841F2140246
:106840005158490709D50421026841F214039950AF
:106850000021026841F204039950012180F844109C
:10686000002180F84510002030BC7047002190F9CD
:106870004520012A01D102204CE0012280F8452068
:10688000022280F8442006E0826A026301228263C9
:10689000826AD2688262826A1268002A33D404292A
:1068A00031D2491C826A126812F44072B2F5007F3C
:1068B000EAD0826A126812F4407F06D1826B521CC1
:1068C0008263826AD2688262E5E7816A4163816B92
:1068D000491C8163816B012901D1816A0163816A4D
:1068E0000968C1F30D41091FC163016B8968016427
:1068F000816AC9688162012180F84410002180F812
:106900004510002006E0012180F84410002180F8A5
:1069100045100120704710B50400206841F21401B1
:10692000085840060ED52000FDF70CFE40202168D7
:1069300041F214025050012084F84400002084F8F1
:10694000450013E0206841F214010858C0070DD536
:10695000200000F027F80120216841F21402505075
:10696000012084F84400002084F845005FF4803062
:10697000216841F214025050206841F21401085875
:1069800000040ED5200000F00EF84FF400402168FE
:1069900041F214025050012084F84400002084F891
:1069A000450010BD70477047F8B50400150000267B
:1069B000002794F84400822801D1022034E082208C
:1069C00084F844002068066916F01C06208AC0027C
:1069D00010F47840064389B2880110F4F860064349
:1069E00036F0020656F001062068066100F02DFB25
:1069F000070001E020680669F0070DD500F025FBCF
:106A0000C01BB0F5803FF5D3012084F8440000207E
:106A100084F84500032007E02068406980B22860C0
:106A2000012084F844000020F2BD70B50400002568
:106A3000002694F84400422801D1022033E042208D
:106A400084F844002068056915F01C05208AC002FE
:106A500010F47840054389B2880110F4F8600543CA
:106A600055F0020555F0010592B220684261206898
:106A7000056100F0EAFA060001E020680569E80710
:106A80000DD500F0E2FA801BB0F5803FF5D3012070
:106A900084F84400002084F84500032003E001202E
:106AA00084F84400002070BD10B5040094F945003E
:106AB000012801D102201BE0012084F845000220BA
:106AC00084F84400200000F0FFF9200000F011FAE3
:106AD000200000F039FA200000F020FA200000F039
:106AE00028FA012084F84400002084F845000020A2
:106AF00010BD70B504000D00002694F94500012872
:106B000001D102208DE0012084F84500022084F8A4
:106B10004400002D6DD020680668DFF8B004064000
:106B2000286869680843A9680843E9680843A168B8
:106B300008432969084369690843E1680843A9696A
:106B40000843E9690843296A0843696A0843A96A4E
:106B5000084306432068066020680668012000F0AC
:106B600077FA20680660E86A296B0843696B084376
:106B7000A96B0843E96B0843296C0843696C084317
:106B8000A96C08432168486020684668012000F02D
:106B90005FFA20684660E86C21688860286D21688B
:106BA000C860206886694FF641700640686DA96D1F
:106BB00051EA0040E96D0843296E0843696E0843B5
:106BC000A96E084306432068866120688669012013
:106BD00000F03EFA20688661E86E296F084321685C
:106BE000C8612068C669012000F032FA2068C661D9
:106BF00010E02068066836F49046A068E168084313
:106C000006432068066020680668012000F020FA2C
:106C100020680660012084F84400002084F84500C4
:106C2000002070BD30B5ADB004000025002905D0AE
:106C30004FF40060E0604FF48040A06000201090AE
:106C4000002011900020129000201390002014903A
:106C500000201590E069002803D14FF48060169061
:106C600001E0002016904FF400701790002018905B
:106C70000020199000201A9000201B9000201C90EA
:106C800040201D9000201E9000201F90002020908A
:106C900000202190002022900020239000202490AA
:106CA000002025908020269000202790002028900A
:106CB0000020299000202A9000202B9000202C906A
:106CC00020680568C1480540109811990843129939
:106CD000084313990843A168084314990843159978
:106CE0000843E1680843169908431799084318991F
:106CF0000843199908431A99084305432068056019
:106D000020680568012000F0A3F9206805601B9841
:106D10001C9908431D9908431E9908431F9908436D
:106D20002099084321990843229908432168486023
:106D300020684568012000F08BF9206845602398A1
:106D40002168886024982168C860206885694FF6AA
:106D5000417005402598269951EA0040279908433B
:106D600028990843299908432A990843054320682C
:106D7000856120688569012000F06AF920688561D5
:106D80002B982C9908432168C8612068C5690120A7
:106D900000F05EF92068C561002000905FF000708F
:106DA0000190002002905FF40010039000200490F6
:106DB00000200590002006900020079004200890F5
:106DC0005FF0007009905FF480300A905FF48000FB
:106DD0000B904FF400500C9080200D9000200E90EE
:106DE00000200F90206841F218010D5878480540A6
:106DF00000980199084302990843039908430499AC
:106E000008430599084306990843079908430899D8
:106E100008430543206841F218010D50206841F2F3
:106E200018010D58012000F013F9206841F21801F3
:106E30000D5009980A9908430B9908430C99084387
:106E40000D9908430E9950EA81000F99084350F4B8
:106E50000000216811F580510860206810F580500D
:106E60000568012000F0F4F8206810F580500560F6
:106E7000A06901280BD1206841F21C01085840F498
:106E8000803050F04000216841F21C02505062698D
:106E90000021200000F002F82DB030BD50791379A8
:106EA00053EA00204B4B5850D07893781B0453EA98
:106EB0000060537850EA032012781043464A50503D
:106EC000704700000087930310B582B004000020D3
:106ED00000902068006850F0080021680860206871
:106EE00000680090012000F04CF8009821680860CC
:106EF00013BD10B582B00400002000902068006827
:106F000050F00400216808602068006800900120AB
:106F100000F037F800982168086013BD016841F25D
:106F20001802515851F40051006841F218021150F2
:106F30007047016841F21802515851F0020100688F
:106F400041F218021150704710B582B004000020C1
:106F50000090206841F21801085850F48010216810
:106F600041F218025050206841F218010858009070
:106F7000012000F006F80098216841F218025050F4
:106F800013BD81B015490968C9084FF47A72B1FB85
:106F9000F2F14843009000BF0098411E0091002884
:106FA000F9D101B070470000443802400438014074
:106FB000002D3101C0E1E400C00E160240787D01D1
:106FC000005A620200E1F50580F0FA020F8120FF0D
:106FD000233FDEF840800240448002400800002049
:106FE00080B52348006850F40070214908602048AB
:106FF000006850F480601E4908601D48006850F425
:1070000080701B4908600320FEF760FF002000F03D
:1070100004F804F0C1FE002002BD10B504001548BC
:1070200000684FF47A71B0FBF1F0FEF769FF0022BF
:1070300021005FF0FF30FEF74DFF002010BD0E482D
:107040000068401C0C49086070470B480068704796
:1070500031B5FFF7FAFF0400009D15F1010F00D0D4
:107060006D1CFFF7F2FF001BA842FAD331BD0000F0
:10707000003C0240080000200CC600202DE9F0432F
:1070800085B004000D0016001F00B6B2B00004F079
:1070900089FE8146B9F1000F0DD05C2004F082FE1C
:1070A0008046B8F1000F02D0C8F8309005E048469D
:1070B00004F0FCFE01E05FF00008B8F1000F13D00F
:1070C00000200390CDF808800D9801900C98009056
:1070D0003B00B6B232002900200000F00AF840461A
:1070E00000F05FF8012001E05FF0FF3005B0BDE87F
:1070F000F0832DE9F84305000F0090461E005FEA7B
:107100008801A5220A9CD4F830904846FCF75EFF1F
:10711000206B10EB8800B0F104085FEAD8085FEA42
:10712000C80818F00700002807D0502080F3118805
:10713000BFF34F8FBFF36F8FFEE7002000E0401CCE
:10714000102806D2C15D021982F83410C1570029F7
:10715000F5D1002084F84300089F072F00D30627AD
:10716000E762E76400202065201D04F058FF14F159
:10717000180004F054FF2461D7F10700A061646295
:1071800000206065002084F8580032002900404645
:1071900001F096F920600998002800D00460BDE84D
:1071A000F18310B5040001F01AFADFF898050068C1
:1071B000401CDFF890150860DFF88C050068002897
:1071C0000AD1DFF884050460DFF87805006801283B
:1071D00011D100F033FB0EE0DFF8980500680028BD
:1071E00009D1E06ADFF860150968C96A884202D3EC
:1071F000DFF854050460DFF880050068401CDFF804
:1072000078150860DFF8700500686064DFF86C05C9
:1072100000680121E26A91400843DFF860150860C8
:10722000211DDFF85C05E26A142303FB020004F071
:10723000F9FE01F0F1F9DFF83C05006800280FD0F5
:10724000DFF804050068C06AE16A884208D25FF08E
:107250008050DFF8B0160860BFF34F8FBFF36F8F19
:1072600010BD10B5040001F0BAF9002C03D1DFF80D
:10727000D8040468FFE7201D04F0FBFE002812D1AB
:10728000DFF8FC04E16A142202FB01000068002818
:1072900009D1DFF8E80400680121E26A91408843DF
:1072A000DFF8D8140860A06A002803D014F1180091
:1072B00004F0DFFEDFF8C0040068401CDFF8B814FB
:1072C0000860DFF88404006884420CD1211DDFF8D7
:1072D000640504F0A7FEDFF860050068401CDFF8D5
:1072E000581508600BE0DFF85C040068401EDFF80A
:1072F00054140860200000F007FB00F00EFB01F0C2
:107300008BF9DFF87004006800281AD0DFF8380421
:107310000068844215D1DFF878050068002807D09E
:10732000502080F31188BFF34F8FBFF36F8FFEE7BC
:107330005FF08050DFF8CC150860BFF34F8FBFF3CC
:107340006F8F10BD10B504000020002C14D0DFF8A2
:1073500040050068002807D0502080F31188BFF353
:107360004F8FBFF36F8FFEE700F045F8002120003C
:1073700000F0CAFB00F047F8002808D15FF0805009
:10738000DFF880150860BFF34F8FBFF36F8F10BD1C
:1073900000B583B0DFF84C07019000200090002377
:1073A0008022DFF844170FF26940FFF767FE0128DB
:1073B00016D1502080F31188BFF34F8FBFF36F8F2A
:1073C0005FF0FF30DFF8281708600120DFF8A41312
:1073D00008600020DFF82017086001F09AF807BD68
:1073E00010F1010FFBD1502080F31188BFF34F8FB4
:1073F000BFF36F8FFEE7DFF898040068401CDFF8EA
:1074000090140860704738B500250024DFF8800428
:107410000068002807D1502080F31188BFF34F8FF8
:10742000BFF36F8FFEE701F0DAF8DFF8640400685D
:10743000401EDFF85C140860DFF854040068002880
:107440005AD1DFF800030068002829D154E0DFF8A2
:107450009C06C068C56815F1180004F00AFE281DD6
:1074600004F007FEDFF8140300680121EA6A914086
:107470000843DFF808130860291DDFF80403EA6AEF
:10748000142303FB020004F0CDFDE86ADFF8B81214
:107490000968C96A884203D30120DFF860160860D2
:1074A000DFF8480600680028D1D1002D01D000F097
:1074B00034FADFF840060568002D0ED000F02CF8F5
:1074C000002803D00120DFF8341608606D1E002D5F
:1074D000F4D10020DFF81C160860DFF820060068F1
:1074E000002809D001245FF08050DFF818140860EC
:1074F000BFF34F8FBFF36F8F01F08EF8200032BDC6
:10750000DFF8F4050068704780B501F0BFF800208F
:10751000DFF8E405006802BD70B50024DFF87003F1
:107520000068002875D1DFF8D0050068451CDFF839
:10753000C8050560002D22D1DFF8BC030068006893
:10754000002807D0502080F31188BFF34F8FBFF37E
:107550006F8FFEE7DFF8A0030068DFF8A01309686B
:10756000DFF894231160DFF894130860DFF89005CA
:107570000068401CDFF88815086000F0CEF9DFF8DD
:1075800070050068854238D320E0301D04F071FD9D
:10759000B06A002803D016F1180004F06AFD77489D
:1075A00000680121F26A9140084374490860311D66
:1075B0007348F26A142303FB020004F033FDF06AFF
:1075C00061490968C96A884200D30124DFF82803A9
:1075D00000680068002805D15FF0FF30DFF8101563
:1075E00008600AE0DFF810030068C068C6687068C9
:1075F0008542CAD2DFF8F814086061485249096828
:10760000C96A142202FB01000068022808D3012481
:1076100006E0DFF8E0040068401CDFF8D8140860DA
:10762000DFF8D8040068002800D00124200070BDD5
:1076300097480068002804D00120DFF8C0140860D3
:107640002BE00020DFF8B41408604C480068B0FA62
:1076500080F0D0F11F004A49142202FB0011096892
:10766000002907D1502080F31188BFF34F8FBFF35B
:107670006F8FFEE74249142202FB001041684968FF
:107680004160416810F10802914202D141684968A5
:1076900041604068C0682C490860704710B50C0014
:1076A000002807D1502080F31188BFF34F8FBFF31C
:1076B0006F8FFEE7DFF8D4140968183104F0BEFCC0
:1076C0000121200000F020FA10BD10B5C068C46888
:1076D000002C07D1502080F31188BFF34F8FBFF3E8
:1076E0006F8FFEE714F1180004F0C3FC68480068CF
:1076F000002813D1201D04F0BCFC204800680121A3
:10770000E26A914008431D490860211D1C48E26A55
:10771000142303FB020004F085FC05E014F11801BA
:10772000DFF8C80304F07EFC07480068C06AE16A1D
:10773000884205D201200121DFF8C823116000E052
:10774000002010BD28C6002018C60020002807D140
:10775000502080F31188BFF34F8FBFF36F8FFEE788
:10776000DFF89C1309680160DFF8241409684160A0
:107770007047000034C6002044C6002030C60020F8
:10778000D4BF002038B504000D00002C07D15020D4
:1077900080F31188BFF34F8FBFF36F8FFEE7002D8B
:1077A00007D1502080F31188BFF34F8FBFF36F8F45
:1077B000FEE700F014FFDFF840030068296811F1CC
:1077C000010F01D100241AE0DFF8341309682268A0
:1077D000914204D06168884201D301240FE06168BE
:1077E000411A2A68914209D22968081A6168081862
:1077F00028602000FFF7AAFF002400E0012400F029
:107800000BFF200032BD0120DFF8F812086070473E
:1078100080B500F03FF8DFF87C0300680228F8D359
:107820005FF08050DFF870130860BFF34F8FBFF335
:107830006F8FEEE72CC5002024C6002010B5002471
:1078400007E0DFF85003142101FB040004F0D8FB2B
:10785000641C072CF5D3DFF8440304F0D1FBDFF8F8
:10786000400304F0CDFBDFF8840204F0C9FBDFF82D
:10787000340304F0C5FB224804F0C2FBDFF81C030C
:107880001D490860DFF81803DFF81C13086010BDFD
:1078900050C6002010B520E00024FFF7B4FD002CF6
:1078A0001BD100F09CFEDFF8FC02C068C468201DFC
:1078B00004F0DFFBDFF8F4020068401EDFF8EC1292
:1078C0000860DFF8EC020068401EDFF8E412086090
:1078D00000F0A2FE200000F017F8DFF8D4020068E4
:1078E000002808D0FFF787FDDFF8B80200680028FD
:1078F000D2D10124D1E710BD1CC6002020C6002033
:1079000040C5002004ED00E010B50400206B04F039
:10791000CDFA200004F0CAFA10BDDFF89802006822
:107920000068002804D15FF0FF307149086007E06B
:10793000DFF880020068C068C06840686C49086071
:107940007047DFF874020068002801D1012007E0C9
:10795000DFF868020068002801D1022000E0002062
:10796000704710B50400002C4FD0E06ADFF81C12FD
:107970000968C96A884248D2A069002806D4DFF89D
:107980000C020068C06AD0F10700A0616069DFF8EE
:107990000412E26A142303FB0211884230D1201D35
:1079A00004F067FB002812D1DFF8E801E16A142235
:1079B00002FB01000068002809D1DFF8040200681A
:1079C0000121E26A91408843DFF8F4110860DFF892
:1079D000BC010068C06AE062DFF8E40100680121D0
:1079E000E26A91400843DFF8D8110860211DDFF8F2
:1079F000A401E26A142303FB020004F013FB04E079
:107A0000DFF888010068C06AE06210BD000010B5B0
:107A100004000020002C53D0DFF8701109688C425C
:107A200007D0502080F31188BFF34F8FBFF36F8FC3
:107A3000FEE7216D002907D1502080F31188BFF3A4
:107A40004F8FBFF36F8FFEE7216D491E2165E16AFD
:107A5000E26C914234D0216D002931D1201D04F017
:107A600008FB002812D1DFF82C01E16A142202FB86
:107A700001000068002809D1DFF8440100680121F5
:107A8000E26A91408843DFF838110860E06CE062F8
:107A9000E06AD0F10700A061DFF82401006801214D
:107AA000E26A91400843DFF818110860211DDFF8F1
:107AB000E400E26A142303FB020004F0B3FA01209D
:107AC00010BDDFF8C8000068002805D0DFF8BC0052
:107AD0000068016D491C0165DFF8B000006870475F
:107AE000000000004CC6002050FF000818C5002010
:107AF00048C6002038C600202CC600203CC6002006
:107B000040C600203CC6002070B504000D0020488F
:107B100006681E480068001D04F0ABFA00280BD16F
:107B20001A480068264909680122C06A12FA00F062
:107B300031EA00002249086014F1010F08D1002D3C
:107B400006D012480068011D1E4804F06BFA1AE0C6
:107B5000A4190E4800684460B44207D20B4800687C
:107B6000011D1148006804F069FA0CE0074800683C
:107B7000011D1048006804F061FA1348006884424F
:107B800001D21148046070BD0000000018C600203A
:107B90002CC60020D4BF002004ED00E0F0C400207B
:107BA00004C500202CC5002020C6002028C60020C7
:107BB00024C600201CC6002034C6002050C6002069
:107BC00030C6002040C5002048C6002038B505005A
:107BD0000C00002D07D1502080F31188BFF34F8F88
:107BE000BFF36F8FFEE700F0FAFC2868E96B2A6CA0
:107BF00002FB010068600020A8632868A86028686C
:107C0000E96B491E2A6C02FB0100E8605FF0FF305F
:107C100085F844005FF0FF3085F84500002C12D154
:107C20002869002817D015F11000FFF74EFD002835
:107C300011D05FF08050DFF880180860BFF34F8FDD
:107C4000BFF36F8F07E015F1100004F0D9F915F1BB
:107C5000240004F0D5F900F0DFFC012032BDF8B5B6
:107C600004000D001600002C07D1502080F311886D
:107C7000BFF34F8FBFF36F8FFEE7002D01D10020C0
:107C800001E005FB04F0503004F08CF80700002FF1
:107C900008D017F1500200973300DBB22900200012
:107CA00000F002F83800F2BD38B51C00049D002930
:107CB00001D12D6000E02A60E863296401212800D9
:107CC000FFF784FF85F84C4031BD80B500280AD00D
:107CD00000214160002101600021C16000230022D9
:107CE000002100F02DF801BD10B501230021020094
:107CF000D2B21800FFF7B3FF04002000FFF7E5FF42
:107D0000200010BD10B50C00002807D1502080F3D2
:107D10001188BFF34F8FBFF36F8FFEE7A04207D2EA
:107D2000502080F31188BFF34F8FBFF36F8FFEE7B2
:107D300002220021FFF793FF002800D0846310BDCA
:107D4000F7B504000D001E000027002C07D15020BD
:107D500080F31188BFF34F8FBFF36F8FFEE7002DC5
:107D600002D1206C002801D1012000E00020C0B227
:107D7000002807D1502080F31188BFF34F8FBFF345
:107D80006F8FFEE7022E02D1E06B012801D10120A6
:107D900000E00020C0B2002807D1502080F31188F5
:107DA000BFF34F8FBFF36F8FFEE7FFF7CAFD0028C9
:107DB00002D10298002801D1012000E00020C0B2C9
:107DC00000280CD1502080F31188BFF34F8FBFF3F0
:107DD0006F8FFEE7200000F004FBFFF714FB00F0BC
:107DE000FEFBA06BE16B884201D3022E26D132004C
:107DF0002900200000F09FFA616A00290FD014F1D9
:107E00002400FFF762FC002814D05FF08050DFF8F8
:107E1000A8160860BFF34F8FBFF36F8F0AE00028EA
:107E200008D05FF08050DFF890160860BFF34F8FE6
:107E3000BFF36F8F00F0F0FB01204BE002980028A9
:107E400003D100F0E9FB002044E0002F03D1684695
:107E5000FFF77CFC012700F0DFFBFFF7CCFA00F016
:107E6000BEFB94F9440010F1010F02D1002084F808
:107E7000440094F9450010F1010F02D1002084F86C
:107E8000450000F0C9FB02A96846FFF77BFC00280B
:107E90001AD1200000F0EAFA00289BD0029914F1D0
:107EA0001000FFF7FBFB200000F09BFAFFF7ABFA96
:107EB000002894D15FF08050DFF8FC150860BFF314
:107EC0004F8FBFF36F8F8AE7200000F08AFAFFF729
:107ED0009AFA0020FEBD2DE9F84305000E001400BB
:107EE0001F00002D07D1502080F31188BFF34F8F62
:107EF000BFF36F8FFEE7002E02D1286C002801D15E
:107F0000012000E00020C0B2002807D1502080F3FB
:107F10001188BFF34F8FBFF36F8FFEE7022F02D19F
:107F2000E86B012801D1012000E00020C0B2002848
:107F300007D1502080F31188BFF34F8FBFF36F8FAD
:107F4000FEE700F0A3FBEFF31188502080F31188C7
:107F5000BFF34F8FBFF36F8FA86BE96B884201D3DC
:107F6000022F1FD195F945903A003100280000F00A
:107F7000E2F94FFA89F919F1010F0DD1686A002869
:107F80000ED015F12400FFF7A0FB002808D0002C2C
:107F900006D00120206003E019F1010085F84500BA
:107FA000012000E0002088F31188BDE8F28370B55D
:107FB00005000C00002D07D1502080F31188BFF37D
:107FC0004F8FBFF36F8FFEE7286C002807D050203B
:107FD00080F31188BFF34F8FBFF36F8FFEE72868E0
:107FE000002802D16868002801D1012000E00020AB
:107FF000C0B2002807D1502080F31188BFF34F8F03
:10800000BFF36F8FFEE700F041FBEFF311865020C6
:1080100080F31188BFF34F8FBFF36F8FA86BE96BAD
:1080200088421AD295F94510401CA86349B211F153
:10803000010F0DD1686A00280DD015F12400FFF75B
:1080400044FB002807D0002C05D00120206002E06E
:10805000481C85F84500012000E0002086F31188C7
:1080600070BD2DE9F44183B006000C001D0000270F
:10807000002E07D1502080F31188BFF34F8FBFF33C
:108080006F8FFEE7002C02D1306C002801D1012057
:1080900000E00020C0B2002807D1502080F31188F2
:1080A000BFF34F8FBFF36F8FFEE7FFF74AFC002847
:1080B00002D10398002801D1012000E00020C0B2C5
:1080C00000280CD1502080F31188BFF34F8FBFF3ED
:1080D0006F8FFEE7300000F084F9FFF794F900F0AD
:1080E0007EFAD6F83880B8F1000F39D0F768210051
:1080F000300000F061F9002D1BD1B8F10100B06330
:108100003068002802D1FFF7DCFC7060306900287D
:1081100022D016F11000FFF7D8FA00281CD05FF02B
:108120008050DFF894130860BFF34F8FBFF36F8F59
:1081300012E0F760706A00280ED016F12400FFF7F5
:10814000C4FA002808D05FF08050DFF86C13086094
:10815000BFF34F8FBFF36F8F00F05EFA01205CE03A
:108160000398002803D100F057FA002055E0002FB3
:1081700003D16846FFF7EAFA012700F04DFAFFF74E
:108180003AF900F02CFA96F9440010F1010F02D1EF
:10819000002086F8440096F9450010F1010F02D145
:1081A000002086F8450000F037FA03A96846FFF77B
:1081B000E9FA002825D1300000F04AF9002889D0DA
:1081C0003068002806D100F00AFA7068FFF7C9FB92
:1081D00000F022FA039916F12400FFF75FFA30004D
:1081E00000F0FFF8FFF70FF900287FF478AF5FF099
:1081F0008050DFF8C4120860BFF34F8FBFF36F8F5A
:108200006DE7300000F0EDF8FFF7FDF8300000F00A
:108210001FF900283FF463AF002004B0BDE8F081EF
:108220002DE9F84306000C001500002E07D1502060
:1082300080F31188BFF34F8FBFF36F8FFEE7002CE1
:1082400002D1306C002801D1012000E00020C0B232
:10825000002807D1502080F31188BFF34F8FBFF360
:108260006F8FFEE700F012FAEFF31187502080F3D2
:108270001188BFF34F8FBFF36F8FD6F83880B8F1F6
:10828000000F21D096F944902100300000F094F8BE
:10829000B8F10100B0634FFA89F919F1010F0DD15E
:1082A000306900280ED016F11000FFF70EFA0028F2
:1082B00008D0002D06D00120286003E019F101004C
:1082C00086F84400012000E0002087F31188BDE813
:1082D000F28310B50400002C07D1502080F31188E0
:1082E000BFF34F8FBFF36F8FFEE700F078F9A46BF9
:1082F00000F092F9200010BD002807D1502080F333
:108300001188BFF34F8FBFF36F8FFEE7806B70470D
:1083100010B50400002C07D1502080F31188BFF362
:108320004F8FBFF36F8FFEE7200000F0AEF8200004
:1083300003F0BCFD10BD2DE9F0410400170000253D
:10834000A66B206C002809D1206800282FD1606816
:10835000FFF75DFB05000020606028E0002F0FD1D3
:10836000226CA7683800FBF7F5FDA068216C08189F
:10837000A060A0686168884219D32068A06016E0F8
:10838000226CD4F80C804046FBF7E4FDE068216CD9
:10839000401AE060E0682168884203D26068216C7E
:1083A000401AE060022F02D1002E00D0761E701C11
:1083B000A0632800BDE8F08110B50C00016C002915
:1083C0000ED0C168026C5118C160C1684268914208
:1083D00001D30168C160026CC1682000FBF7BAFDDF
:1083E00010BD38B5040000F0FAF894F9455008E0E3
:1083F00014F12400FFF769F9002801D0FFF703FA10
:108400006D1E6DB2012D02DB606A0028F0D15FF0B5
:10841000FF3084F8450000F0FFF800F0E0F894F930
:10842000445008E014F11000FFF74FF9002801D084
:10843000FFF7E9F96D1E6DB2012D02DB20690028FE
:10844000F0D15FF0FF3084F8440000F0E5F831BD72
:1084500010B5040000F0C3F8A06B002801D101247E
:1084600000E0002400F0D8F8200010BD10B5040092
:1084700000F0B5F8A06BE16B884201D1012400E067
:10848000002400F0C9F8200010BD002100E0491CC4
:1084900008290ED2094A12EBC10252688242F6D173
:1084A0000020064A42F831000020044A12EBC101C4
:1084B000486070470000000004ED00E014C4002094
:1084C000001F5FF080730360001F490849000160CE
:1084D000001F0FF21501016014380260001F7FF0C9
:1084E00002010160203870477B48006810F1010FDD
:1084F00007D0502080F31188BFF34F8FBFF36F8FE9
:10850000FEE7502080F31188BFF34F8FBFF36F8FCA
:10851000FEE700B583B0714800687149884207D111
:10852000502080F31188BFF34F8FBFF36F8FFEE7AA
:108530006A4800686B49884207D1502080F311884F
:10854000BFF34F8FBFF36F8FFEE76748017801914C
:10855000FF21017001788DF800109DF8001011F0D6
:108560005001624A11700721614A116009E06049B7
:108570000968491E5E4A11609DF8001049008DF897
:1085800000109DF800100906F1D459490968090244
:10859000574A11605649096811F4E061544A116064
:1085A000019901705348006850F470005149086007
:1085B0005048006850F070404E49086000F059F88B
:1085C00000204549086003F0ADFD4B48006850F0BD
:1085D00040404949086003F099FD00200EBD50203D
:1085E00080F31188BFF34F8FBFF36F8F3A48006855
:1085F000401C394908603848006801280BD13F48C1
:108600000068000607D0502080F31188BFF34F8F19
:10861000BFF36F8FFEE770472F480068002807D12F
:10862000502080F31188BFF34F8FBFF36F8FFEE7A9
:1086300029480068401E284908602748006800282B
:1086400002D1002080F31188704780B5502080F35C
:108650001188BFF34F8FBFF36F8FFEF75DFF0028C8
:1086600003D05FF0805025490860002080F3118816
:1086700001BD234800684FF47A71B0FBF1F0401E51
:10868000204908600720204908607047EFF3058003
:1086900010280FD31D490968405C14490978C0B2FD
:1086A000884207D2502080F31188BFF34F8FBFF369
:1086B0006F8FFEE70E4800681549096811F4E06104
:1086C000884207D2502080F31188BFF34F8FBFF349
:1086D0006F8FFEE7704700000400002000ED00E00F
:1086E00071C20F4170C20F4100E400E0B7C6002024
:1086F00000C6002020ED00E034EF00E004ED00E0D3
:108700000800002014E000E010E000E078FF00081E
:108710000CED00E000B500BF1300964694461039FA
:1087200028BFA0E80C50FAD85FEA417C28BF0CC0F3
:1087300048BF40F8042BC90728BF20F8022B48BFC8
:1087400000F8012B00BD18B40022ADF80020002273
:1087500010F00103002B06D0012904DB04788DF80A
:108760000140401C491E04E0048812FA84F2801C77
:10877000891E0229F8DA012902DB00788DF8000051
:10878000BDF8000012FA80F2100C10FA82F2100C00
:1087900010FA82F2002B04D0D0B2C2F3072151EAC2
:1087A0000022100080B212BC704770B50500002690
:1087B000002418E069896868FFF7C5FF16FA80F69B
:1087C000300C10FA86F66889022190FBF1F202FB68
:1087D0001102002A06D0D4F10104F0B2C6F3072139
:1087E00051EA00262D68002DE4D1E4B2002C04D01B
:1087F000F0B2C6F3072151EA0026F04380B270BD03
:1088000080B5DFF88C0A007800282ED1FDF797F8A4
:10881000DFF8801A0860DFF87C0A0068002802D1BF
:108820005FF0FF3029E0DFF86C0A0068007A50F052
:108830002000DFF8601A096808724422DFF8581A2D
:10884000DFF8500A0068FCF7DEFF4322DFF8481A21
:10885000DFF8400A0068FDF71DF80022DFF83C1A37
:10886000DFF8300A0068FDF749F8DFF8240A0078DD
:10887000401CDFF81C1A0870002002BD80B5DFF82C
:10888000100A0078401EDFF8081A0870DFF8000AA6
:108890000078002808D1DFF8FC090068FDF731F8FE
:1088A0000020DFF8F019086001BD10B50400606A0F
:1088B0000C2100F00DFDDFF8E039DFF8DC29DFF8EE
:1088C000D8192000FDF7C0FC200000F07BFA10BD95
:1088D00038B505006C6A0821200000F0F9FC002280
:1088E00014F12801280002F0CFFDA07AFF2802D061
:1088F000A07A401CA0724FF4FA7080B200F2F3101C
:108900004FF4FA7190FBF1F0E08231BD38B504000C
:10891000656ADFF8AC0A807800280BD0DFF88009A0
:108920008068F9F708F9686269680869A862200038
:1089300000F001F831BDF0B583B00600746A012182
:10894000200000F0C5FC03222100300000F037FFBA
:1089500005006DB2002D4CD102223921200000F01B
:10896000C1FC718D200000F0D9FC042232212000CE
:1089700000F0B8FCA06AF9F7DEF80100200000F072
:10898000E2FC04223621200000F0ACFC606AF9F71A
:10899000D2F80100200000F0D6FC0422372120008C
:1089A00000F0A0FC002707E0DFF8F808FFB2395C10
:1089B000200000F0AAFC7F1CFFB2042FF4D320009B
:1089C00000F0C9FFA08A10F1F00189B2E068F8F761
:1089D00084FEDFF8C408019000964323DFF8C8281E
:1089E000E168DFF8B0080068FCF7A4FE200000F0A2
:1089F000A3FFA07AFF2802D0A07A401CA072A07A20
:108A0000062804DA012094F90A10884000E03C208E
:108A10004FF47A7110FB01F080B200F2F3104FF4C2
:108A2000FA7190FBF1F0E082280040B2FEBD10B573
:108A3000DFF8780C04680CE0818B002908D0818B6A
:108A40004A1E828389B2012902D1200000F07EF8FB
:108A50002468002C23D0606A0028F9D0417A0029CC
:108A6000F6D0418C00290DD0018C491C0184018C69
:108A7000428C914206D1200000F0AEFB200000F0B5
:108A8000A1F9E5E7C18B0029D6D0C18B4A1EC2836C
:108A900089B20129D0D1200000F075F8D8E710BDC7
:108AA00010B5DFF8080C046809E0C18A012905D176
:108AB000C18A491EC182200000F00EF82468002CF3
:108AC00009D0606A0028F9D0C18A0229EDDBC18A89
:108AD000491EC182F2E710BD10B50400606A417AF8
:108AE0000C2902D0417A062903D1200000F06AF94E
:108AF0002BE0417A01290DD1807A062803DA200083
:108B0000FFF719FF21E0200000F066FB200000F0D5
:108B100059F91AE0417A08290AD1807A022803DA41
:108B20002000FFF7D5FE10E0200000F0B2F90CE0C5
:108B3000417A032909D1807A022803DA200000F063
:108B4000E3FA02E0200000F03DF910BD10B5446AE0
:108B5000617A012905D0617A0A2902D0617A052952
:108B600010D100F01AFA608B218C401A022190FB80
:108B7000F1F0012806DB608B218C401A022190FB6A
:108B8000F1F0A08310BD10B5446A617A012908D0C4
:108B9000617A0A2905D0617A052902D0617A04290F
:108BA00010D100F056FA608C218C401A022190FB03
:108BB000F1F0012806DB608C218C401A022190FB29
:108BC000F1F0E08310BD10B5446A0020E06200209F
:108BD0002063DFF8EC07C078002803D0DFF8C00678
:108BE000C0686063DFF8D8070079002804D0DFF898
:108BF000B0060069A06302E0606B4008A063DFF884
:108C0000C0074079002804D0DFF894064069E0638B
:108C100004E0606B07214843C008E06361680869AD
:108C2000A062DFF89C078079002808D0DFF8700682
:108C30008069F8F780FFE0620120E07201E0002027
:108C4000E072DFF87C07C079002805D0DFF8500615
:108C5000C069F8F770FF206310BD38B50400002C20
:108C600002D17FF00F003BE094F83300C00702D43C
:108C70007FF00F0034E0656A608DB0F5107F02DA96
:108C80005FF0FF302CE0002D0AD14020FAF7CBFF37
:108C90000500002D02D15FF0FF3021E0656204E0A5
:108CA000287A002801D0FFF7E9FD402100222800A2
:108CB000FBF78CF9FFF7A4FD002802D05FF0FF302E
:108CC0000EE001202872200000F07CF840B200285D
:108CD00005D0200000F0EAFA5FF0FF3000E040B27B
:108CE00032BD80B5416A002911D04A7A002A09D0E4
:108CF000D21E022A01D9D21F05D100228A7200F0A9
:108D000003FA04E003E000228A7200F05BF801BD80
:108D100080B500280BD0426A002A08D0537A082B6D
:108D200005D10968926A914201D100F001F801BDB4
:108D30007CB50600746A00250C21200000F0C8FAFA
:108D400004222100300000F03AFD05006DB2002D34
:108D500025D104223221200000F0C4FAA06AF8F7DD
:108D6000EAFE0100200000F0EEFA200000F0F3FD22
:108D7000A08A10F1F00189B2E068F8F7AEFCDFF8E4
:108D80001805019000964323DFF81C25E168DFF801
:108D900004050068FCF7CEFC200000F0CDFDA07AB1
:108DA000FF2802D0A07A401CA07242F2107080B25C
:108DB00000F2F3104FF4FA7190FBF1F0E08228001A
:108DC00040B276BDF0B583B00600746A002500207D
:108DD000A0620621200000F07BFA01222100300071
:108DE00000F0EDFC05006DB2002D34D102223921D6
:108DF000200000F077FA718D200000F08FFA042235
:108E00003721200000F06EFA002707E0DFF8940415
:108E1000FFB2395C200000F078FA7F1CFFB2042F0B
:108E2000F4D3200000F097FDA08A10F1F00189B280
:108E3000E068F8F752FCDFF86004019000964323E5
:108E4000DFF86424E168DFF84C040068FCF772FC8A
:108E5000200000F071FDA07AFF2802D0A07A401C0B
:108E6000A072A07A062804DA012094F90A1088403A
:108E700000E03C204FF47A7110FB01F080B200F268
:108E8000F3104FF4FA7190FBF1F0E082280040B249
:108E9000FEBD30B583B00400002C7DD0656A002D86
:108EA0007AD000202884686B10F1010F0FD0686B16
:108EB0001E303C21B0FBF1F0B0F5803F01D34FF6FE
:108EC000FF706884688C002801D101206884A86B39
:108ED00010F1010F11D0A86B1E303C21B0FBF1F056
:108EE000B0F5803F01D34FF6FF702883288B002810
:108EF00001D101202883288BA883E86B10F1010F92
:108F000011D0E86B1E303C21B0FBF1F0B0F5803F92
:108F100001D34FF6FF706883688B002801D10120D0
:108F20006883688BE883288B698B884204D3688BBD
:108F3000002801D000202883E87A002802D0E86ABF
:108F4000019011E095F82800C0B2802802DAFF20D5
:108F5000019009E0C0B2C02803DB7FF07F400190A0
:108F600002E04FF6FF700190286B009000980028F7
:108F700007D1A86A019908400090009850F08070CD
:108F800000900A21280000F0A3F96B4601AA15F110
:108F900028012000FDF758F937BDF8B50600746ABE
:108FA0000521200000F094F903222100300000F098
:108FB00006FC05006DB2002D2FD1022239212000C0
:108FC00000F090F9718D200000F0A8F904223721FB
:108FD000200000F087F9002706E0B248FFB2395CB4
:108FE000200000F092F97F1CFFB2042FF5D320007F
:108FF00000F0B1FCA08A10F1F00189B2E068F8F746
:109000006CFB0096432314F12402E168A148006838
:10901000FCF76DFB200000F08FFCA07AFF2802D047
:10902000A07A401CA072A07A0A2805DAA07A4FF430
:10903000FA6110FB01F001E044F6206080B200F21A
:10904000F3104FF4FA7190FBF1F0E082280040B287
:10905000F2BDF8B50600746A0421200000F038F96A
:1090600003222100300000F0AAFB05006DB2002DA4
:109070002ED102223921200000F034F9718D200018
:1090800000F04CF904223721200000F02BF90027D2
:1090900006E08448FFB2395C200000F036F97F1CFE
:1090A000FFB2042FF5D3200000F055FCA08A10F188
:1090B000F00189B2E068F8F710FB009643237A4A82
:1090C000E16874480068FCF712FB200000F034FCF3
:1090D000A07AFF2802D0A07A401CA072A07A0A28A9
:1090E00005DAA07A4FF47A7110FB01F001E042F248
:1090F000107080B200F2F3104FF4FA7190FBF1F0AF
:10910000E082280040B2F2BDF8B50600746A03217F
:10911000200000F0DDF803222100300000F04FFBBA
:1091200005006DB2002D3BD102223921200000F054
:10913000D9F84FF41071200000F0F0F80422322129
:10914000200000F0CFF8A06AF8F7F5FC010020003D
:1091500000F0F9F804223721200000F0C3F80027BE
:1091600006E05048FFB2395C200000F0CEF87F1CCA
:10917000FFB2042FF5D3200000F0EDFBA08A10F120
:10918000F00189B2E068F8F7A8FA00964323464A4E
:10919000E16840480068FCF7AAFA200000F0CCFB28
:1091A000A07AFF2802D0A07A401CA072A07A0A28D8
:1091B00005DAA07A4FF47A7110FB01F001E042F277
:1091C000107080B200F2F3104FF4FA7190FBF1F0DE
:1091D000E082280040B2F2BD7CB50400656A002D33
:1091E00002D17FF00F0051E0686A0190200000F08A
:1091F000D2FB06000021280000F06AF80020686217
:109200000020A8620020E862002028630020E863B4
:10921000A8636863002068842884E883A883F6B282
:10922000002E01D1002031E007222900200000F0AB
:10923000C6FA060076B2002E20D10422362128007C
:1092400000F050F80198F8F776FC0100280000F0D3
:109250007AF8280000F07FFBA88A10F1F00189B2AB
:10926000E868F8F73AFA0094432301AAE968094844
:109270000068FCF73CFA280000F05EFB064B064A4B
:1092800005492000FCF7E0FF300040B276BD000049
:10929000B4C6002094C5002070FF0008B1960008F5
:1092A0008CC400200000002074FF000810B50028C6
:1092B0000DD0446A002C0AD00021200000F008F8EC
:1092C000207A002803D0FFF7D9FA0020207210BDC1
:1092D000427AC9B2914204D04172002181720021C8
:1092E000C182704710B4838A5C1C848204699BB27B
:1092F0001B1983F8F010818A4B1C8382006989B2A4
:10930000081880F8F02010BC7047828A531C8382B2
:10931000006992B2101880F8F010704710B4828A79
:10932000531C838289B20B0A046992B2121982F823
:10933000F030828A531C8382006992B2101880F840
:10934000F01010BC704710B4828A531C83820B0E3D
:10935000046992B2121982F8F030828A531C838217
:109360000B0C046992B2121982F8F030828A531CF5
:1093700083820B0A046992B2121982F8F030828A51
:10938000531C8382006992B2101880F8F01010BC50
:10939000704700002DE9F24F84B0050000200290D4
:1093A00000240A2001900022054E01993000FAF7AE
:1093B0000DFE049840892C2804D27FF0010071E151
:1093C00074C50020049840686860F02604980789F6
:1093D00003E0002002906C26EC27049D04E06889DD
:1093E000361A68893F1A2D68002D03D06889B6B2F5
:1093F0008642F4D2002D02D17FF0010052E168686C
:10940000019002E02D6868680190002D00F028812D
:109410000198B6B2305CFF2800F02281B6B2BFB22C
:10942000BE4280F01D810198B6B2305C5FF0000949
:109430005FF0FF3816F1020AB6B2711C6A899142D8
:1094400004DA0199B6B27118497807E02968002951
:1094500003D029684968097800E000218946C0B234
:10946000002812D0012814D003281BD0062826D0AB
:10947000332841D0342848D035284FD0362856D00C
:109480003A285DD03B2864D06CE000218946761EE6
:109490006AE0C9B2042902D07FF0050002E15FF062
:1094A000060861E05FF00409C9B25FFA89F949452D
:1094B00002D27FF00500F5E05FF0070854E0C9B282
:1094C000042091FBF0F202FB1012002A02D07FF080
:1094D0000500E7E0C9B2082901DA894601E05FF03A
:1094E0000809C9B25FFA89F9494502D27FF005003F
:1094F000D8E05FF0080837E0C9B2042902D07FF055
:109500000500CFE05FF003082EE0C9B2012902D0C8
:109510007FF00500C6E05FF0000825E0C9B2012930
:1095200002D07FF00500BDE05FF001081CE0C9B289
:10953000042902D07FF00500B4E05FF0020813E0D8
:10954000C9B2042902D07FF00500ABE05FF0040847
:109550000AE0C9B2042902D07FF00500A2E05FF062
:10956000050801E05FF00009C9B2881C86195FFA9E
:1095700089F9B9F1000F62D00020009011E00120BC
:10958000DFF8A01308F801000098F8F7D4FADFF824
:10959000981341F82800B9F104091AF1040A18F1E6
:1095A0000108DFF8800318F80000002847D15FFAAF
:1095B00089F9B9F1040F03DA5FFA89F9CB4601E0C2
:1095C0005FF0040B53469BB25A4692B2694628009C
:1095D000F8F7E3F91FFA8BFB584502D07FF0010042
:1095E00060E05FFA89F9B9F1050F0BDB5FFA89F9E1
:1095F000042099FBF0F101FB10910029BFD07FF00E
:1096000005004FE05FFA89F9B9F1040F04D1009821
:10961000F8F791FA00900AE05FFA89F9B9F1010FC1
:1096200002D07FF005003DE09DF800000090012091
:10963000BC4908F801000098BB4941F82800688936
:10964000B6B28642FFF4E1AE6889361A68893F1ADD
:10965000B6B2BFB2BE4203D2BFB2002F7FF4D2AEC9
:10966000B0480078002812D0AF4800680021AD4A09
:109670001170012802D10120029008E0022801D1D6
:10968000012404E0032802D1012401200290029861
:1096900000287FF49EAE002C03D000242C266C27DB
:1096A0009BE6002005B0BDE8F08F0000F8C5002063
:1096B00070B514009D484668756A6168002D02D037
:1096C000287A002800D172E060892C286FDB0878A6
:1096D00002286CD1002000E0401C96F82C20C0B27B
:1096E00090420FD2C0B206280CD2C0B2102809D2C4
:1096F000C0B2821992F82D20C0B243181B7F9A4243
:10970000EAD054E04868F8F716FA296888424ED142
:1097100021002800FFF73EFE002848D1814840780C
:10972000002844D080484068C0B2052821D1687A1A
:1097300001280ED13000FFF746FA96F833000007F3
:1097400003D53000FFF7C4F831E03000FFF7A1FB8C
:109750002DE0687A032805D0687A042802D0687A58
:10976000052824D13000FFF72EFA3000FFF791FBD7
:109770001DE0C0B206280FD1697A032908D0697AA2
:10978000012905D0697A042902D0697A052903D113
:109790003000FFF78AF80AE0C0B2022807D1687AE1
:1097A000062804D10020E8823000FFF7AFF8002D32
:1097B00001D0002068602000F8F721F870BD70B576
:1097C00004000D001600002C02D17FF00F00A7E06E
:1097D000002D02D17FF00500A2E000224FF49A7123
:1097E0000020F7F791FEE860E868002802D15FF0FA
:1097F000FF3095E0F6B2032E09D0A87A002803D1F5
:1098000002F09EFC4A490860494800682860E86800
:109810004068286101202969087001202969487081
:1098200094F82C002969887000202969C87028687C
:10983000F8F781F92969486000202969088100202A
:109840002969488128690021C160F6B2082E0ED02E
:10985000F6B2042E0BD0F6B2072E08D0F6B2032EC5
:1098600008D1687A052802D0687A042802D12869CC
:109870006168C16028690021016128690021416196
:10988000286900218161002005E000212A6980B259
:1098900082181177401C80B210280DD294F82C1039
:1098A00080B289B28842F0D280B20628EDD280B26E
:1098B000011991F82D10E9E7002006E000212A693E
:1098C00080B2821882F82C10401C80B24028F5D358
:1098D000002006E000212A6980B2821882F86C100C
:1098E000401C80B28028F5D328691249C0F8EC10DA
:1098F0000020A882002005E0296980B2411881F883
:10990000F000401C80B24428F6D301223521280003
:10991000FFF7E8FC3100C9B22800FFF7F6FC002091
:1099200070BD000074C500208CC40020D8C4002085
:1099300098C500206382536310B50400002C09D041
:10994000E068002802D0E068F7F759FF0020E060E7
:109950000020206110BD00281CD0818A4A1C828210
:10996000FF22036989B2C91881F8F02008E0818AD2
:109970004A1C82820022036989B2C91881F8F0204A
:10998000818A442903D3017D0322114202D0818AB6
:109990004429ECD3704700280ED0416A00290BD02F
:1099A000406A417A0A2902D0407A052801D1012073
:1099B00000E00020C0B200E0002070470CB41CB5ED
:1099C000044604A801900A46009401AB6946074882
:1099D0007844183000F02CF9009A0021117000280A
:1099E0005CBF0098001B16BC5DF80CFB4B80FFFFB2
:1099F000F0B58BB05FF0FF354FF4806002F0D2F924
:109A00000400002C0ED14648FCF7CEFB002D02D4FA
:109A1000280002F0C1FD002C02D0200003F052FA11
:109A20000BB0F0BD00220121022003F020F8050058
:109A3000002D03D53B48FCF7B7FBE7E702208DF884
:109A40000D000020049040F2D240F8F76DF8ADF818
:109A50000E000821002205AE3000FAF7B7FA1022F6
:109A600003A9280002F050FD10F1010F03D12E4888
:109A7000FCF79AFBCAE70521280002F0BCFD10F1B3
:109A8000010F20D12948FCF78FFBBFE721002848B0
:109A9000FCF78AFB3A002100300003F033F8C820BD
:109AA000FAF7FAFF00234FF480622100300002F041
:109AB00018FF0700012FE9DA002E02D4300002F06F
:109AC0006BFD5FF0FF361020029002AA07A9280064
:109AD00002F04DFC0600BDF81E00F8F725F807005F
:109AE00008A8F7F7D3FFBFB23A0001001148FCF70E
:109AF0005BFB012001900420009001AB01220621B4
:109B0000300003F0C2F8CDE780B5052000904FF497
:109B10000073002208490948FAF7EBF901BD00007B
:109B2000E4FE0008F8FD000808FE000818FE000822
:109B3000F0FE000820FC0008F199000828FE00084B
:109B400080B535480068002804D0344800683249A0
:109B5000096888473248FAF7C0F9FFE73048FAF752
:109B6000C3F969462F48F9F719FF2D48FAF7B5F9F7
:109B700000980028F2D0009890F90000022804D044
:109B80001FD3042817D00CD31BE0009881680098DD
:109B90004068009AD268904700990920F8F71AFFA8
:109BA000DCE7009880680099496888470099082098
:109BB000F8F710FFD2E70098806800994968884755
:109BC000CCE7CBE738B504000D001548FAF785F966
:109BD0002800A0471248FAF787F9002032BD38B5AF
:109BE00004000D0003F0AEF90B4804600B4805605B
:109BF00006210C48FAF79CF800280948FAF75BF9A7
:109C00000028022000904FF47A730022064907488A
:109C1000FAF76FF931BD000080C6002084C600202D
:109C20008CC6002088C60020419B000860FF000809
:109C30002DE9F04F80460FF23060A5B015461E4664
:109C4000D0E90023CDE91223002004910D900DF1FD
:109C5000500A6FF0004900E065190020ADF80200DD
:109C600012AB4FF0FF3229460DF1020003F07AF9F2
:109C70000446012C04DA2878441EA441E443E40F8E
:109C8000BDF8020025280CBFA4F1010BA346BBF1CF
:109C9000010F0EDB2F4617F8011B0498C047002860
:109CA000049000F0F3800D98401CBBF1010B0D9067
:109CB000F1D1BDF80200252807D1002007900890B7
:109CC00009900A900B900C9005E00028C4D10D98E3
:109CD000D2E240F0010015F8011F2029F9D0232914
:109CE0000DD02B2904D02D2906D030290AD00CE024
:109CF00040F0020080B2EEE740F00400FAE740F0E6
:109D00000800F7E740F01000F4E72A290ED1316887
:109D1000316051F8042B3160002A0F9204D5514272
:109D200040F004000F9180B26D1C11E000210F91F2
:109D300009E00F99494505D001EB810302EB43018E
:109D400030390F916D1C2A78A2F130010A29F0D325
:109D500029782E2903D04FF0FF310E911DE015F820
:109D6000011F2A2907D1316831606D1C51F8042B7D
:109D700031600E9211E000210E9109E00E994945E3
:109D800005D001EB810302EB430130390E916D1CCC
:109D90002A78A2F130010A29F0D3ADF840000FF281
:109DA000D040297803F0EEF808B115F8010B8DF8D2
:109DB00042009DF84200682802BF29786829622085
:109DC00005D06C2804BF28786C2803D171208DF849
:109DD00042006D1C14A8069015F8014BB4F1250043
:109DE0002AD01C3800F0D480001F022840F2D08016
:109DF000133800F0F580093800F0CA80801E00F0AA
:109E00005C81401E00F03581401E022840F2C08077
:109E1000001F00F02E81401F00F08B80401E00F0DC
:109E2000DF80401E35D0C01E0BD0801E00F0D880D1
:109E3000C01E00F0D58063E125208DF85000012080
:109E400067E19DF842006C283068306014D050F80B
:109E5000047B306005970E9C002C04D5384603F037
:109E60009DF8044606E022460021384603F0B2F889
:109E700000B1C41B08944DE150F8042B306002A9D6
:109E8000404600F033FA002840F144814FF0FF30A3
:109E9000F2E1316831603C2451F8040B316000215B
:109EA000CDE9020114A80590DDE90201069F11B970
:109EB00008B90E9AB2B10206120FA0EB02123032AC
:109EC000D2B2631E3A2AA8BF27320009DA5540EA07
:109ED0000170090908BF00281C4603D0059AE31940
:109EE0009A42E8D3E0190590C4F13C010E9808911C
:109EF000814209DA401A0A904FF6EF71BDF840002E
:109F00000840ADF8400005E1002840F103819DF8CC
:109F1000400000F01400102840F0FC800F98079AD1
:109F2000801A0A9A801A441A012CC0F2F3800A940B
:109F3000F0E09DF8420062281AD0682806D06A280E
:109F40000CD06C281CD0712808D019E03068306023
:109F500050F8041B30600D980880DBE030683060FA
:109F600050F8042B30600D98C117C2E90001D1E010
:109F70003068306050F8041B30600D980870C9E0FC
:109F80003068306050F8041B30600D980860C1E004
:109F90003068C01D20F007023260D2E900010832AB
:109FA0003260CDE90201002902D507982D210AE08F
:109FB000BDF84000810702D507982B2103E0C007B8
:109FC00005D50798202100F80A10401C079014A816
:109FD000079908180590214602A800F091FB99E026
:109FE0009DF842006C280DD0712818BF6A2809D14D
:109FF0003068C01D20F007023260D2E9000108324B
:10A00000326005E03168316051F8040B31600021A5
:10A01000CDE902019DF84200682803D1DDE9020183
:10A0200080B20BE0622803D1DDE90201C0B205E095
:10A03000742818BF7A2804D1DDE902010021CDE996
:10A0400002019DF8400000072ED5DDE9020100293C
:10A0500008BF002828D044F02000782824D1079891
:10A06000302100F80A10401C411C079100F80A40FA
:10A070001AE09DF84200314600F001F9CDE90201F5
:10A08000002902DA07982D210AE0BDF84000810777
:10A0900002D507982B2103E0C00705D5079820219A
:10A0A00000F80A10401C079014A80799081805909A
:10A0B000214602A800F0A0FA2CE09DF842006C288E
:10A0C00009D0012007903068306050F8041B3060E0
:10A0D0008DF850101EE03068306001AA50F8041B63
:10A0E0003060ADF804100020ADF8060002A94FF072
:10A0F000FF300E90404600F0F9F800280AD5C5E67A
:10A1000025208DF85000012007901CB18AF80140ED
:10A11000022007900F980799401A0A99401A089947
:10A12000401A0B99401A0999401A0C99441A9DF843
:10A130004000400710D42020012C8DF800000BDBDC
:10A14000274601236A4602A9404600F000FE002887
:10A150007FF49CAE7F1EF4D1DDF81CB0BBF1000F84
:10A1600014AF0DD017F8011B0498C04700280490C5
:10A170003FF48CAE0D98401CBBF1010B0D90F1D15A
:10A1800030208DF800000A9F012F0ADB01236A4668
:10A1900002A9404600F0DBFD00287FF477AE7F1E69
:10A1A000F4D1DDF820B0059FBBF1000F0DD017F8FA
:10A1B000011B0498C047002804903FF467AE0D9837
:10A1C000401CBBF1010B0D90F1D130208DF8000047
:10A1D0000B9F012F0ADB01236A4602A9404600F0CB
:10A1E000B6FD00287FF452AE7F1EF4D10598089981
:10A1F000DDF824B00F18BBF1000F0DD017F8011BCC
:10A200000498C047002804903FF440AE0D98401CCD
:10A21000BBF1010B0D90F1D130208DF800000C9FA7
:10A22000012F0ADB01236A4602A9404600F08FFD98
:10A2300000287FF42BAE7F1EF4D19DF8400040072C
:10A240007FF50BAD2020012C8DF80000FFF605AD49
:10A2500001236A4602A9404600F079FD00287FF4F8
:10A2600015AE641EF4D1F8E4000000000000000008
:10A27000686A6C747A4C000025B0BDE8F08F6228E3
:10A2800026D068281DD06A2808D06C2827D07128CD
:10A2900004D0742823D07A280CD020E00868C01D90
:10A2A00020F007000860D0E9002308300860194654
:10A2B000104670470A680A6052F8040B0A600021D1
:10A2C00070470A680A6052F8040B0A6000B20BE09B
:10A2D0000A680A6052F8040B0A6040B204E00A6897
:10A2E0000A6052F8040B0A60C11770472DE9F44F59
:10A2F0000D4694B0D5F830A0BAF1000F804648BFA3
:10A300006FF0004A02F092FE696B401801900FF660
:10A310006C20D0E90023CDE9022395F838004007EE
:10A3200002D40198412805D240200DF11009019076
:10A33000002609E002F080FE5FEA0009F8D14FF044
:10A34000FF3056E1AAEB040ABAF1010FC0F2CE8049
:10A350001498018802AA0DF1010002F0C5FE002840
:10A36000044600F1DE801498008810B9641E00F1E4
:10A37000D880A245C0F2BA8068690199221891423A
:10A3800080F0A2806E634042296A401AA969401A8F
:10A39000696A401AE969401AA96A461A95F83800AC
:10A3A000400710D42020012E8DF800000BDB37462B
:10A3B00001236A462946404600F0C9FC002840F0C7
:10A3C000B0807F1EF4D1D5F814B0BBF1000F4F461A
:10A3D0000DD017F8011BA868C0470028A86000F03E
:10A3E000A080E86A401CBBF1010BE862F1D130208B
:10A3F0008DF800002F6A012F0ADB01236A462946E7
:10A40000404600F0A4FC002840F08B807F1EF4D171
:10A41000D5F818B0EF68BBF1000F0CD017F8011B8E
:10A42000A868C0470028A8607BD0E86A401CBBF140
:10A43000010BE862F2D130208DF800006F6A012F25
:10A4400009DB01236A462946404600F080FC0028CB
:10A4500067D17F1EF5D1E868A969D5F81CB00F183F
:10A46000BBF1000F0CD017F8011BA868C0470028EB
:10A47000A86056D0E86A401CBBF1010BE862F2D13B
:10A4800030208DF80000AF6A012F09DB01236A46F6
:10A490002946404600F05BFC002842D17F1EF5D1E2
:10A4A00095F8380040070DD52020012E8DF80000CA
:10A4B00008DB01236A462946404600F048FC80BB81
:10A4C000761EF6D100266E61224668690DF1010103
:10A4D0004844F9F73FFD6869201868611498801CAA
:10A4E0001490801E008800287FF42CAF686B696987
:10A4F000401A296A401AA969401A696A401AE9692A
:10A50000401AA96AA0EB010A95F83800400710D458
:10A51000BAF1010F0DDB5446A8682021C047A8609E
:10A5200010B94FF0FF365DE0E86A401C641EE86237
:10A53000F2D16B694A462946404600F008FC0028E3
:10A54000EFD12C6A012C0ADBA8683021C047002813
:10A55000A860E6D0E86A401C641EE862F4D1AB69EA
:10A56000EA682946404600F0F2FB0028D9D16C6A1F
:10A57000012C0ADBA8683021C0470028A860D0D091
:10A58000E86A401C641EE862F4D1E868A969EB69D6
:10A590000A182946404600F0DAFB0028C1D1AC6A0F
:10A5A000012C0ADBA8683021C0470028A860B8D079
:10A5B000E86A401C641EE862F4D195F83800400750
:10A5C0000ED5BAF1010F0BDBA8682021C047002887
:10A5D000A860A6D0E86A401CBAF1010AE862F3D18B
:10A5E0006E616E6304A881451CBF484602F06AFC98
:10A5F000304615B0BDE8F08F2DE9FA4E05460A4603
:10A600002F696F2A08BF082405D041F02000782860
:10A6100014BF0A2410243C26D5E90001642A18BF7F
:10A62000692A81468A4605D1002903DAD9F1000951
:10A630006AEB4A0ABAF1000F08BFB9F1000F0CD15A
:10A64000286B50B9082C36D195F83800000732D560
:10A6500030203B2687F83B002DE0E3174846514663
:10A66000224602F04FFDA4FB0023A9EB0202303288
:10A67000D2B2A6F1010B3A2A5E4603DB9DF8003008
:10A68000513B9A180BF8072081465FEA010A08BF80
:10A69000B9F1000F03D0E868F1198842DDD3082C26
:10A6A00009D195F83800000705D5F05D302802D0B3
:10A6B000761E3020F055C6F13C00A861F119E96022
:10A6C000296B884208DA081A28624FF6EF71288F42
:10A6D00008402887BDE8F38E00290ED595F838107C
:10A6E00001F01401102908D1696B6A69891A2A6A74
:10A6F000891A0E1A012EA8BF2E62BDE8F38E000043
:10A700002DE9F24F04468EB0D4E90001CDE90201F3
:10A7100004AF9DF8380040F0200BBBF1610F0AD068
:10A72000206B002848BF062004D408BFBBF1670F88
:10A7300001D1012020636168C1F30A5040F2FF7229
:10A7400090421CD1080304BF2068002809D10320CF
:10A75000A0619DF8380061381A2836D30FF23061B5
:10A7600008E00320A0619DF8380061381A2829D339
:10A770000FF21461E0680322F9F7ECFBBEE1012857
:10A7800016DA204602F035FD012811DB00250020F5
:10A79000BBF1610F20D1E168302201F8012B4A1C86
:10A7A000E2609DF83820612A0CBF782258220FE021
:10A7B000626840F2FE3161F31E52451A62604FF04A
:10A7C000FF30E5E70FF2BC51D4E70FF2C051D1E7FB
:10A7D0000A706169891C616110B90026002584E155
:10A7E000BBF1610F40F09880206B00284CBF212600
:10A7F000461CD4E900ABDDE902010022002302F08F
:10A8000019FD36B23ABF8BF00040CDE902A0CDE988
:10A8100002AB06F101082D1FB8F1010F8DF81020D1
:10A820000DF1110736DBDDE902010022002302F001
:10A8300019FD2FD21C2102A802F02CFDDDE9020136
:10A8400002F0B2FDA8F10708B8F1010F814609DB5B
:10A8500002F0D6FD02460B46DDE9020102F0E8FDFA
:10A86000CDE90201F81D072105E009F00F0200F80B
:10A87000012D4FEA2919B9F1010F01DB491EF4D569
:10A88000491E5CBF002200F8012DF9D5C71DB8F1A3
:10A89000010FC8DA0DF11100391AB142B8BF0E46E6
:10A8A00036B230000DF111072FD4884206DA04A920
:10A8B000411849780829A8BF0F2100DA002104AA0D
:10A8C000821800E0761E12F80139401E8B42F9D042
:10A8D0000F2904D104A941184A78521C4A70002853
:10A8E00002D504AF761C2D1D36B2701E0DD4C119D1
:10A8F0000A783032D2B23A2A03DB9DF838303A3B3C
:10A900009A18401E01F80129F2D5206B002840F169
:10A91000EC80701E2063E8E0DDE9020100220023E4
:10A9200002F088FC3CBF81F00041CDE902012DB26C
:10A9300047F2975068434B49DFF82C9190FBF1F5B3
:10A940002DB2C5F1070ABAF1010F90461CDBDDE913
:10A9500002675FEACA7007D542464B463046394621
:10A9600002F026FE06460F464046494642464B4602
:10A970004FEA6A0A02F01CFEBAF1000F80468946CF
:10A98000E7D1CDE9026724E0CAF1000A0026374F7B
:10A9900014E05FEACA7007D542464B463046394656
:10A9A00002F006FE06460F464046494642464B46E2
:10A9B00002F0FEFD4FEA6A0A80468946BAF1000FAE
:10A9C000E7D1DDE9020132463B4602F0C3FECDE9A4
:10A9D0000201BBF1660F0CBF05F10A000620216BD6
:10A9E000DFF88C904618142EA8BF132630208DF85F
:10A9F00010000DF11107012E3CDBDDE9020102F030
:10AA0000E9FC07F1080104220A23B0FBF3F303EB8E
:10AA10008307A0EB4700303001F8010C0A20B3FB9C
:10AA2000F0F000EB8007A3EB47033033521E01F830
:10AA3000023DE9D1083E012E01F10807DBDBDDE92B
:10AA4000020102F0C7FC02F0E5FC02460B46DDE91C
:10AA5000020102F0EDFC00224B4602F0A9FDCDE917
:10AA60000201CAE7A0860100000024400000F03F78
:10AA700084D797410DF11100381A0DF1110702E04A
:10AA8000401E6D1E7F1C39783029F9D0BBF1660F4E
:10AA900002D12DB2691C04E0BBF1650F0CBF01218E
:10AAA0000021226B8E1836B2B042B8BF064636B2CD
:10AAB00031001AD4814204DAC85D3528A8BF392094
:10AAC00000DA3020CA19521E00E0761E12F8013951
:10AAD000491E8342F9D0392802D1C85D401CC855AF
:10AAE000002902D57F1E761C6D1C2DB29DF83810F2
:10AAF000009533B23A46204600F003F80FB0BDE8A7
:10AB0000F08F2DE9F04786B006468A4690461D46EE
:10AB100002F069FF012D406A376B90F8009002DA6D
:10AB200001250FF270284AF02000BDF93840662850
:10AB300008BF641C12D0672876D114F1040F79DBAA
:10AB4000BC4277DA96F83800641C000702D4BD4294
:10AB5000B8BF2F4624B23F1B48BF002724B2F0687D
:10AB6000B169012C21DA4A1C30230B54012F03DA7E
:10AB700096F83810090702D502F80090521CB2610D
:10AB8000E742B8BF7C4224B26142E7197162AF422A
:10AB9000B8BF3D46B3692DB2F5612A464146181843
:10ABA000F9F7D8F9781BB062BAE00818A54216DAAE
:10ABB0002A464146F9F7CEF9B1696918601B012FA1
:10ABC000B161706203DA96F83800000705D5F068C5
:10ABD00001F80090F069401CF061B762A0E02246E5
:10ABE0004146F9F7B7F9B06920182D1B012F03DA98
:10ABF00096F83810090703D5F16800F80190401C59
:10AC00002DB2B061AF42B8BF3D46F068B3692DB216
:10AC10002A4604EB08011818F9F79CF9B0692818BE
:10AC2000B061781B70627BE0BAF1610F14D14FF014
:10AC3000700A16E0BD4204DA96F83810090758BFCA
:10AC40002F467F1E48BF0027BAF1670F14BF4FF091
:10AC5000450A4FF0650A04E0BAF1410F08BF4FF012
:10AC6000500AB169F0684A1CB261012F18F8013B23
:10AC70000B5403DA96F83810090715D5531CB36145
:10AC800002F80090012F0FDB6D1E2DB2AF42B8BF4E
:10AC90003D462DB22A4641461818F9F75BF9B069CE
:10ACA0002818B061781B7062F068B169091820003B
:10ACB00081F800A004D42B20487001F1020804E0C0
:10ACC0002D224A7001F102086442002502AF08E01B
:10ACD0000A22684602F0A0FE019807F8010B6D1CDD
:10ACE000009C21B20129F3DA022D06DA4AF0200095
:10ACF000652804BF302008F8010B4DB9302008F852
:10AD0000010B07E06D1E02A8285C303008F8010B2B
:10AD1000012DF7DAF068B1690818A8EB0000F061BE
:10AD200096F8380000F0140010280DD17069B16950
:10AD30000818716A0818F1690818B16A0818716B67
:10AD40008842BCBF081A306206B0BDE8F087F8B58B
:10AD500004460D4616461F46002077B116F8011B23
:10AD6000A868A047A86030B1E86A401CE8620020EB
:10AD70007F1EF3D1F2BD4FF0FF30F2BD00000000A6
:10AD8000000000006E616E004E414E00696E66006C
:10AD9000494E46003000000010B50400DFF82C09D1
:10ADA000182101FB0400006800280ED0DFF81C0900
:10ADB000182101FB04000068F6F721FD0020DFF8F0
:10ADC0000C19182202FB041108600020DFF8FC189F
:10ADD000182202FB0411087510BD10B5002419E0FB
:10ADE000DFF8E808E4B2182101FB0400007D012827
:10ADF0000FD1DFF8D808E4B2182101FB0400011DCF
:10AE0000DFF8C808E4B2182202FB0400806800F0F2
:10AE100058FC641CE4B20A2C5DDADFF8B008E4B236
:10AE2000182101FB0400007DC0B20028F1D0DFF83A
:10AE30009C08E4B2182101FB0400408A401CDFF8A2
:10AE40008C18E4B2182202FB04114882DFF87C0857
:10AE5000E4B2182101FB0400408AB0F5967F11DAB4
:10AE6000DFF86808E4B2182101FB0400007D012826
:10AE70000DD1DFF85808E4B2182101FB0400408A24
:10AE8000052804DBE4B22000FFF786FFC1E7DFF806
:10AE90003C08E4B2182101FB0400007D032808D11E
:10AEA0000420DFF82818E4B2182202FB0411087508
:10AEB000AFE7DFF81808E4B2182101FB0400007DB9
:10AEC00004288DD10220DFF80418E4B2182202FB16
:10AED000041108759DE710BD2DE9F84F04000A2004
:10AEE0000A220A2300250A2600275FF0000C5FF0E3
:10AEF000000E00251DE05FFA88F8B8F1020F17DB9D
:10AF0000DFF8C887EDB25FF0180909FB0588B8F8CB
:10AF100012801FFA8EFEF0450AD32A0052B2DFF8E3
:10AF2000ACE7EDB25FF0180808FB05EEBEF812E0E2
:10AF30006D1CEDB20A2D6BDADFF89087EDB25FF091
:10AF4000180909FB058898F814805BB20A2B07D111
:10AF50005FFA88F8B8F1000F02D12B005BB2E7E787
:10AF60005FFA88F8B8F1000FE2D0002C0FD0D4F8C7
:10AF70000090DFF858A7EDB25FF0180B0BFB05AAA5
:10AF8000DAF804A0D14502D1280040B26DE05FFAA2
:10AF900088F8B8F1010FAED1DFF83087EDB25FF07D
:10AFA000180909FB0588D8F80080B8F1000F16D001
:10AFB000DFF81887EDB25FF0180909FB0588B8F8CB
:10AFC0001280BFB2B845B3D32E0076B2DFF8FC765C
:10AFD000EDB25FF0180808FB05777F8AA8E7DFF875
:10AFE000EC86EDB25FF0180909FB0588B8F812800D
:10AFF0001FFA8CFCE0459BD3280040B2DFF8CCC69A
:10B00000EDB25FF0180808FB05CCBCF812C08FE762
:10B010008D0704D45BB20A2B04D1C90702D45FF0B8
:10B02000FF3022E05BB20A2B02DADBB21D0008E03F
:10B0300052B20A2A1BDAD2B21500EDB22800FFF78D
:10B04000ABFE002C07D02068DFF88016EDB2182286
:10B0500002FB051148600020DFF87016EDB21822DF
:10B0600002FB05114882280040B2BDE8F28F40B2D1
:10B070000A2802DAC0B20500DFE776B20A2E02DA49
:10B080003500EDB2D9E75FF0FF30EEE7F8B5040028
:10B090000E0015001F00002E0DD0306800280AD0C9
:10B0A00021003068F6F7CCFC002804D1307810F08D
:10B0B000F000E02802D17FF00F0056E022003900B6
:10B0C000C9B23000FFF708FF060076B2002E02D5A5
:10B0D000300040B249E00220DFF8F01576B21822C5
:10B0E00016FB02110875DFF8E40576B2182116FB8D
:10B0F000010084600622DFF8D40576B2182116FB21
:10B10000010010F10C0729003800F8F723FF002098
:10B11000DFF8B81576B2182216FB02114882DFF864
:10B12000AC0576B2182116FB0100006800281BD080
:10B13000DFF8980576B2182116FB01000768002099
:10B14000DFF8881576B2182216FB021108604FF45A
:10B15000006000902B0014F12D023900200002F055
:10B16000C3FC3800F6F74BFB0020F2BD38B50400F5
:10B17000002517E0DFF85405EDB2182101FB0500AA
:10B18000007DC0B200280CD0DFF84005EDB21821D8
:10B1900001FB05008068A04203D1EDB22800FFF753
:10B1A000FBFD6D1CEDB20A2DE4DB31BDFEB50400E4
:10B1B0000D00002D7BD066683088B0F5807F08D107
:10B1C0003079062805D17079042802D170880828C2
:10B1D00003D02000F6F713FB69E0042216F10E01FC
:10B1E00001AF3800F8F7B6FE042216F1180102AFDD
:10B1F0003800F8F7AFFE6868002801D1002706E0A4
:10B2000002986968884201D1012700E00027FFB257
:10B21000002F01D0012300E00223DBB216F1080267
:10B2200001A92800FFF732FFF088B0F5807F03D036
:10B23000B0F5007F33D037E0FFB2002F2ED00220D0
:10B24000F6F772FCF080042216F10E0116F11807D1
:10B250003800F8F77FFE0422291D16F10E0738008A
:10B26000F8F778FE062216F1080116F112073800E9
:10B27000F8F770FE062215F12D0116F108073800C7
:10B28000F8F768FE40F60600009016F1120316F17A
:10B2900008022100280002F027FCFFE704E001A9D2
:10B2A0002800FDF735FDFFE72000F6F7A8FAF7BD07
:10B2B00070B582B004000D001600DFF81004F6B27D
:10B2C000182101FB0600007D022844D1DFF8FC03B1
:10B2D000F6B2182101FB0600408AB0F58E7F14DD1E
:10B2E000DFF8E803F6B2182101FB0600011D20007B
:10B2F00000F0E7F900282ED10320DFF8D013F6B2D2
:10B30000182202FB0611087525E0DFF8C003F6B22B
:10B31000182101FB0600408AB0F5877F1BDBDFF8B0
:10B32000AC03F6B2182101FB060010F10C02DFF8A5
:10B330009C03F6B2182101FB0600011D200000F05D
:10B34000AFF9002807D10320DFF88013F6B21822E6
:10B3500002FB061108754FF400600090DFF86C03E3
:10B36000F6B2182101FB060010F10C0314F12D02B6
:10B370002900200002F0B8FB76BDFEB504000D00E8
:10B380001600370021003068F6F75AFB00280AD073
:10B39000CF4B4FF40060009014F12D0229002000E3
:10B3A00002F0A2FBFEBD307810F0F000E02815D1CD
:10B3B00001208DF8040000208DF805005E208DF836
:10B3C0000600707810F07F008DF80700B0788DF8D7
:10B3D0000800F0788DF8090001ABDAE73068A16861
:10B3E00008406168A268114088420AD0306880B283
:10B3F0004FF6A961884204D0E06800281BD014F100
:10B400000C07B248B3490978182202FB0100007DFD
:10B41000022813DB3868AD49AE4A1278182303FBC3
:10B4200002114968884209D1AA48027829002000FF
:10B43000FFF73EFFB6E77FF00300B3E7002000E030
:10B44000401C40B20A2819DAA04940B2182210FB69
:10B450000211097D0229F3DB39689C4A40B21823A6
:10B4600010FB032252689142EAD19A490870020007
:10B47000D2B229002000FFF71BFF93E72A00390012
:10B48000200000F001F88DE72DE9F04782B00600BA
:10B490000F00140016F12D085FF0FF395FF0000A6D
:10B4A00031003868F6F7CCFA002809D1387810F066
:10B4B000F000E02804D0002F02D03868002802D124
:10B4C0007FF00F0096E0320001213800FFF704FD05
:10B4D00005006DB2002D02D5280040B28AE07B48FD
:10B4E0006DB2182115FB0100007D00280ED15FF020
:10B4F000010A012075496DB2182215FB0211087569
:10B5000072486DB2182115FB01008660BAF1000F78
:10B5100001D1002C09D13900300000F0D2F8814669
:10B52000002C02D1484640B264E068486DB2182150
:10B5300015FB0100007D022812DB664805704FF400
:10B540000060009061486DB2182115FB010010F1F8
:10B550000C0342462100300002F0C6FA814647E063
:10B560005A486DB2182115FB0100007D01283FD11A
:10B570000020260000E03668002E03D0317B012930
:10B58000F9D00120002812D0002231890220F5F7DD
:10B59000BBFF0600002E0ED021003000F6F79CF90C
:10B5A000002808D03000F6F72AF9002603E026002C
:10B5B0003000F6F768F9002E18D044486DB2182113
:10B5C00015FB01000068002807D040486DB2182123
:10B5D00015FB01000068F6F712F93C486DB218211E
:10B5E00015FB010006605FF0000901E05FF0FF3924
:10B5F000484640B2BDE8F6872DE9F84F04000D003B
:10B6000016009A465FF0000800221C210220F5F780
:10B610007BFF0700002F02D15FF0FF303EE0D7F83C
:10B6200004900D98F6F780FAA9F80600062219F1A1
:10B63000080B51465846F8F78DFC06220B9919F174
:10B64000120A5046F8F786FC04220A9919F10E0AEC
:10B650005046F8F77FFC04220C9919F1180A50465D
:10B66000F8F778FC4FF48070A9F800000820A9F8DA
:10B670000200062089F80400042089F8050040F63D
:10B680000600009033002A003900200002F02CFA56
:10B690003800F6F7B4F80027404640B2BDE8F28F14
:10B6A00000B585B00123039302910B490191011D5F
:10B6B000009110F12D0310F12D01FFF79DFF05B052
:10B6C00000BD80B5024AFFF7EBFF02BDF0BA0020D3
:10B6D00008FF0008B5C6002010FF000838B50400B8
:10B6E00000252078C0076FD5DFF86406006810F0E9
:10B6F0000C0004280BD0DFF85806006810F00C008E
:10B7000008280ED1DFF84C060068400209D5DFF8A2
:10B7100048060068800357D56068002854D101208E
:10B72000CFE16068B0F5803F08D1DFF82C060068F3
:10B7300050F48030DFF82016086024E06068B0F52F
:10B74000A02F10D1DFF81006006850F48020DFF839
:10B7500008160860DFF80006006850F48030DFF853
:10B76000F81508600FE0DFF8F005006830F480306D
:10B77000DFF8E4150860DFF8E005006830F48020A9
:10B78000DFF8D4150860606800280ED0FBF75DFC78
:10B790000500DFF8C4050068800315D4FBF755FCED
:10B7A000401B6528F5D303208BE1FBF74EFC050019
:10B7B000DFF8A4050068800306D5FBF746FC401BB4
:10B7C0006528F5D303207CE1207880072BD5DFF8AE
:10B7D0008005006810F00C0F0BD0DFF874050068CE
:10B7E00010F00C00082837D1DFF868050068400227
:10B7F00032D4DFF864050068800704D5E0680128CA
:10B8000001D001205DE1DFF8500500685FF0F851DC
:10B81000B1FA81F130F0F800226912FA01F108431F
:10B82000DFF8341508602078000762D560690028C9
:10B830004CD00120DFF824150860FBF706FC05005A
:10B84000DFF81C050068800753D4FBF7FEFB401BA4
:10B850000328F5D3032034E1E068002823D0012039
:10B86000DFF800150860FBF7F0FB0500DFF8E804DF
:10B870000068800706D4FBF7E8FB401B0328F5D3DC
:10B8800003201EE1DFF8D00400685FF0F851B1FA40
:10B8900081F130F0F800226912FA01F10843DFF873
:10B8A000B8140860BFE70020DFF8B8140860FBF7A1
:10B8B000CCFB0500DFF8A00400688007B3D5FBF7D8
:10B8C000C4FB401B0328F5D30320FAE00020DFF877
:10B8D0008C140860FBF7B9FB0500DFF884040068EE
:10B8E000800706D5FBF7B1FB401B0328F5D30320E7
:10B8F000E7E0207840077CD500200090DFF868045E
:10B90000006850F08050DFF860140860DFF85804D9
:10B91000006810F0805000900098DFF85004006834
:10B9200050F48070DFF844140860FBF78EFB0500CC
:10B93000DFF838040068C00506D4FBF786FB401B1F
:10B940000328F5D30320BCE0A068012808D1DFF864
:10B950002004006850F00100DFF81414086023E0B0
:10B96000A068052810D1DFF80804006850F0040032
:10B97000DFF8FC130860DFF8F803006850F00100FE
:10B98000DFF8EC1308600FE0DFF8E403006840081C
:10B990004000DFF8DC130860DFF8D403006830F003
:10B9A0000400DFF8CC130860A068002810D0FBF773
:10B9B0004CFB0500DFF8B8030068800719D4FBF7DB
:10B9C00044FB401B41F289318842F3D3032078E0E5
:10B9D000FBF73BFB0500DFF898030068800708D5FC
:10B9E000FBF733FB401B41F289318842F3D303203C
:10B9F00067E0A069002863D0DFF85403006810F006
:10BA00000C0008285AD0A069022844D10020DFF891
:10BA100064130860FBF719FB0500DFF83C030068BE
:10BA2000800106D5FBF711FB401B0328F5D303204B
:10BA300047E0DFF84403B0FA80F14FF44040B0FA39
:10BA400080F2F020B0FA80F0E369256A2B43656A42
:10BA500015FA01F11943A36A5B085B1E13FA02F29F
:10BA60001143E26A12FA00F00843DFF8E8120860B6
:10BA70000120DFF800130860FBF7E7FA0500DFF8A4
:10BA8000D802006880011BD4FBF7DFFA401B0328B3
:10BA9000F5D3032015E00020DFF8D8120860FBF78B
:10BAA000D4FA0500DFF8B0020068800108D5FBF782
:10BAB000CCFA401B0328F5D3032002E0012000E06C
:10BAC000002032BD70B504000D000026DFF8AC0286
:10BAD000006810F00F00A8420BD2DFF8A00205703A
:10BAE000DFF89802006810F00F00A84201D0012092
:10BAF000C0E02078800709D5DFF85402006830F0F4
:10BB0000F000A1680843DFF8481208602078C007F9
:10BB100072D56068012806D1DFF83C020068800316
:10BB200015D40120A6E06068022802D060680328CE
:10BB300006D1DFF824020068800108D4012099E0D2
:10BB4000DFF814020068800701D4012092E0DFF8DA
:10BB5000000200688008800061680843DFF8F01187
:10BB60000860FBF772FA0600606801280FD1DFF861
:10BB7000E001006810F00C0004283DD0FBF765FAE6
:10BB8000801B41F289318842F1D3032072E0606862
:10BB900002280FD1DFF8B801006810F00C00082867
:10BBA0002AD0FBF752FA801B41F289318842F1D347
:10BBB00003205FE0606803280FD1DFF8940100687C
:10BBC00010F00C000C2817D0FBF73FFA801B41F255
:10BBD00089318842F1D303204CE0DFF8740100681A
:10BBE00010F00C0F08D0FBF730FA801B41F28931BE
:10BBF0008842F2D303203DE0DFF88001006810F0B6
:10BC00000F0085420BD2DFF874010570DFF86C017C
:10BC1000006810F00F00A84201D001202AE020782F
:10BC2000400707D54A48006830F4E050E16808430F
:10BC3000474908602078000708D54548006830F477
:10BC40006040216950EAC1004149086000F017F8DE
:10BC50003F4909685FF07062B2FA82F2484B11F016
:10BC6000F001D140C95CC840464908600020FBF79C
:10BC7000D4F9002070BD01204349086070470020BE
:10BC80000020002100203248006810F00C0000283D
:10BC900004D0042804D0082804D034E03B4833E022
:10BCA0003B4831E02B48006810F03F002949096803
:10BCB00049020DD527490968354AB2FBF0F047F62D
:10BCC000C07211402C4AB2FA82F2D14048430CE0D3
:10BCD000204909682D4AB2FBF0F047F6C0721140C6
:10BCE000254AB2FA82F2D14048431A49096811F450
:10BCF00040314FF44042B2FA82F2D140491C49002F
:10BD0000B0FBF1F000E0214870471E480068704722
:10BD100080B5FFF7FAFF0E4909685FF46012B2FAC6
:10BD200082F21C4B11F4E051D140C95CC84002BD05
:10BD300080B5FFF7EAFF064909685FF4E022B2FA2E
:10BD400082F2144B11F46041D140C95CC84002BD7D
:10BD5000083802400438024000380240800E474252
:10BD600074380240000047424038024000700040F2
:10BD700070380240600047420000FE03003C024071
:10BD8000C8FD0008080000204C0047420024F400D1
:10BD900000127A0048FF000880B50320FAF796F8F1
:10BDA00001BD000070B505000024FBF724FB8D48A1
:10BDB0000068002801D100F0B3F88B480068054204
:10BDC00064D1002D15D089480068451915F0070F7A
:10BDD0000FD015F1080015F00701451A15F0070FEF
:10BDE00007D0502080F31188BFF34F8FBFF36F8FC0
:10BDF000FEE7002D4AD07E480068A84246D37D4821
:10BE00007C490E6801E0300036687168A94202D2B0
:10BE100031680029F7D1734909688E4236D001682C
:10BE2000724A126854183168016070480068400016
:10BE30007168491B884212D2A81910F00701002925
:10BE400007D0502080F31188BFF34F8FBFF36F8F5F
:10BE5000FEE77168491B4160756000F093F8644823
:10BE600000687168401A6249086061480068624968
:10BE70000968884203D25E4800685F4908607068BC
:10BE8000594909680843706000203060FBF7BBFA2D
:10BE900014F00700002807D0502080F31188BFF36A
:10BEA0004F8FBFF36F8FFEE7200070BD10B5040009
:10BEB000002C34D04D480068241A60684A4909684B
:10BEC000084207D1502080F31188BFF34F8FBFF392
:10BED0006F8FFEE72068002807D0502080F311887C
:10BEE000BFF34F8FBFF36F8FFEE760683E4909686D
:10BEF000084214D02068002811D160683A490968C6
:10BF000088436060FBF777FA394800686168081871
:10BF100037490860200000F035F8FBF774FA10BDCF
:10BF20004FF48842354911F0070F05D0C91DC908E3
:10BF3000C900501A314A121808002E490860002121
:10BF40002C4B59601118294A1268891AC908C9006E
:10BF5000244A11600022234B1B685A600022214BA7
:10BF60001B681A60091A41601E490968016041682E
:10BF7000214A116040681E4908605FF000401A497C
:10BF8000086070471B4900E009680A688242FBD3D9
:10BF90000A004B689A18824204D14A6840688018A7
:10BFA00048600800020043689A180B689A4211D151
:10BFB0000A680C4B1B689A4208D042680B685B68A1
:10BFC0009A1842600A681268026005E0054A126821
:10BFD000026001E00A680260814200D00860704798
:10BFE00000000000A0C50020ACC500206CFF0008C8
:10BFF000A4C5002080C50020A8C50020E0070020BF
:10C0000010F1080141605FF0FF31816010F108011B
:10C01000C16010F108010161002101607047002139
:10C020000161704742684A6093688B609368596009
:10C03000916008610168491C0160704710B40B6889
:10C0400013F1010F01D1026907E010F1080200E0CD
:10C05000526854682468A342FAD253684B604B6814
:10C0600099608A60516008610168491C016010BCD8
:10C0700070470169826843689A60426883685A60C1
:10C080004A68824201D182684A60002202610868DF
:10C09000401E086008687047EFF30980BFF36F8F98
:10C0A000244B1A681EF0100F08BF20ED108A20E9FB
:10C0B000F04F106008B44FF0500080F31188BFF3C8
:10C0C0004F8FBFF36F8FFBF7B3FA4FF0000080F391
:10C0D000118808BC19680868B0E8F04F1EF0100F0E
:10C0E00008BFB0EC108A80F30988BFF36F8F7047E8
:10C0F000104B19680868B0E8F04F80F30988BFF367
:10C100006F8F4FF0000080F3118870470A48006875
:10C11000006880F3088862B661B6BFF34F8FBFF343
:10C120006F8F00DFDFF81400016841F470010160D7
:10C130007047000018C6002008ED00E088ED00E020
:10C14000F8B5344F384601F0F8FC0446381D01F0CC
:10C15000F4FC054607F1080001F0EFFC064607F184
:10C160000C0001F0EAFC23782B492C4A002B40D12B
:10C170002B6802FB03132B60082702FB03132B60C1
:10C1800002FB03132B6002FB03132B6002FB031360
:10C190002B6002FB03132B6002FB03132B6002FBDB
:10C1A00003132B600346D5F800C002FB0C1CC5F836
:10C1B00000C043F804CB7F1ED5F800C002FB0C1C66
:10C1C000C5F800C043F804CBD5F800C002FB0C1C36
:10C1D000C5F800C043F804CBD5F800C002FB0C1C26
:10C1E000C5F800C043F804CBDDD1C36F3360012331
:10C1F00023702B6802FB03112960317801F01F01C5
:10C2000050F8212032602A6840F8212030688000F0
:10C210008008F2BD500000205FF36E3C0D661900EF
:10C22000011E042905D30920DFF8D018086000207A
:10C230000DE0DFF8CC18142202FB00100168002981
:10C2400005D10920DFF8B41808600020FFE7704727
:10C25000011E042901D300200EE0DFF8A4181422E7
:10C2600002FB00110968002901D1002004E0DFF879
:10C270009018142202FB0010704770B505000E00E4
:10C28000002402E0F7F754FE641C042C50DAF7F7A0
:10C2900046FEDFF86C18142202FB0411096800291D
:10C2A000F0D1DFF85C18142202FB04110D60F7F7DF
:10C2B0003FFE0020DFF84818142202FB04114860FA
:10C2C0000020DFF83C18142202FB04110881002032
:10C2D000DFF82C18142202FB04114881287810F092
:10C2E000F000102806D1002E01D0012000E000202F
:10C2F000C0B200E00120DFF80818142202FB04118C
:10C3000088810020DFF8F817142202FB0411C8818D
:10C310000020DFF8EC17142202FB0411087400203F
:10C32000DFF8DC17142202FB04114874200001E03E
:10C330005FF0FF3070BD70B504000D00666800202E
:10C3400060600020208100202074F7F7E8FD0021C4
:10C350002160F7F7EDFD002E08D0002D03D030004E
:10C36000F5F74DFA02E0300001F0E8FB70BD2DE971
:10C37000F04387B00C0015000021ADF80410FFF762
:10C380004FFF0600002E02D15FF0FF30B9E03068A9
:10C39000007F80070DD5B6F90A00012809DA0B20C5
:10C3A0003074002802D0DFF8541708605FF0FF30C7
:10C3B000A7E06946306801F0AFFC80464FFA88F884
:10C3C000B8F1000F27D03068007810F0F000102886
:10C3D00007D05F203074002802D0DFF820170860F3
:10C3E00016E04FFA88F818F10F0F07D116203074B5
:10C3F000002802D0DFF80417086009E0404640B288
:10C4000001F028FE3074002802D0DFF8F016086032
:10C410005FF0FF3075E001210098FFF72EFF070065
:10C4200017F1010F0CD1009801F016FC17203074A1
:10C43000002802D0DFF8C41608605FF0FF3060E02B
:10C44000DFF8BC06142101FB0709F7F768FDB9F80E
:10C450000A105FF0FF32009B9B69D21A5118A9F8AD
:10C460000A1000998F61F7F763FD002C41D000237B
:10C4700001AA02A9009801F00AFC80464FFA88F848
:10C48000B8F1000F13D0009801F0E6FB01214846F7
:10C49000FFF751FF404640B201F0DCFD3074002848
:10C4A00002D0DFF8581608605FF0FF3029E0102056
:10C4B0008DF80C0002208DF80D00BDF80400F5F792
:10C4C00033FBADF80E0002980490082100220DF114
:10C4D00014084046F7F77AFD9DF80C002968884259
:10C4E00002D29DF80C0028602A6803A92000F7F703
:10C4F00031FD00203074002802D0DFF800160860FB
:10C50000380007B0BDE8F08370B582B00D001600AA
:10C51000FFF786FE0400002C02D15FF0FF303AE006
:10C52000102E09D16878022806D10420B5FBF0F15D
:10C5300001FB105100290CD07FF00F0001F08AFDA3
:10C540002074002802D0DFF8B41508605FF0FF30D7
:10C5500021E0686800906888F5F7E6FA020092B278
:10C560006946206801F0B1FB40B200280BD040B210
:10C5700001F070FD2074002802D0DFF880150860FB
:10C580005FF0FF3007E000202074002802D0DFF8C1
:10C590006C150860002076BD38B50025FFF740FE19
:10C5A0000400002C02D15FF0FF3023E02068002857
:10C5B00009D02068007810F0F000102801D1012582
:10C5C00001E00025FFE7206801F046FB40B20028AB
:10C5D0000BD040B201F03EFD2074002802D0DFF8FD
:10C5E0001C1508605FF0FF3004E029002000FFF711
:10C5F000A2FE002032BD38B50D00FFF711FE040089
:10C60000002C02D15FF0FF3037E0012D01DB280064
:10C6100000E00020FF2803DA012D02DA002500E007
:10C62000FF252900C9B2206801F066FB40B200284E
:10C630001BD02168097811F0F001102909D05F2082
:10C640002074002802D0DFF8B41408605FF0FF30D7
:10C6500013E040B201F0FEFC2074002802D0DFF8A5
:10C660009C1408605FF0FF3007E000202074002871
:10C6700002D0DFF888140860002032BD2DE9FA4F9F
:10C6800087B09146002100915FF000085FF0000A3A
:10C69000FFF7C6FD0500002D40F01B815FF0FF3065
:10C6A00014E10898000703D42868007F800719D593
:10C6B000B5F90A00012815DAB8F1010F08DB0020EE
:10C6C0002874002802D0DFF8341408604046FDE0EA
:10C6D0000B202874002802D0DFF8201408605FF0D7
:10C6E000FF30F3E02868007810F0F000102805D142
:10C6F0006946286801F0E4FB060004E06946286802
:10C7000001F0ECFB060076B2002E27D0B8F1010F45
:10C7100011DB76B216F10F0F04D100220021286838
:10C7200000F0F6F900202874002802D0DFF8CC13BE
:10C7300008604046CAE0300040B201F08BFC28742B
:10C74000002802D0DFF8B413086076B216F10F0F9C
:10C7500001D10020BAE05FF0FF30B7E000986860D8
:10C760002868007810F0F000102802D1DDF800B041
:10C7700002E00098D0F800B0BBF808602889361AAB
:10C78000B6B24E4501D2370000E04F462B893A0041
:10C7900092B2079818EB00015846F5F7FEF818FA20
:10C7A00087F82868007810F0F000102813D1BFB285
:10C7B000B9EB0709B9F1000F0AD09BF80D00C007CB
:10C7C00006D4B5F90A00012802DB0898C00704D591
:10C7D0005FF0010A01E05FF0010A5FFA8AFABAF13C
:10C7E000000F3FD0129800283CD0002C3AD0286887
:10C7F000007810F0F000102808D10DF1180B00237C
:10C8000001AA5946286801F042FA06E0009880899A
:10C81000ADF80400009810F1080B10208DF8080006
:10C8200002208DF80900BDF80400F5F77DF9ADF898
:10C830000A00DBF800000390082100220DF1100B24
:10C840005846F7F7C3FB9DF808002168884202D2DA
:10C850009DF808002060226802A9DDF848B058461B
:10C86000F7F778FB0898C00723D42868007810F001
:10C87000F00010280AD1B6B2BFB2F01B012805DBC8
:10C880000098686028893818288112E000206860C4
:10C89000002028812868007810F0F000102803D1CB
:10C8A0000098F4F7ACFF02E0009801F047F900208F
:10C8B00000905FFA8AFABAF1000F0BD000202874BA
:10C8C000002802D0DFF834120860404609B0BDE805
:10C8D000F08F139C686800283FF4E3AE686800900E
:10C8E0003EE71CB50024019400240094FFF7C6FE27
:10C8F00016BD2DE9F04184B080460D0016001F00E2
:10C900004046FFF78DFC0400002C02D15FF0FF30A1
:10C9100039E02068007810F0F00010280AD00020DC
:10C920000190002000903B0032002900404600F0BA
:10C930002DF828E0F80601D5022000E00020390794
:10C9400001D5042100E00021084350F0010300203C
:10C95000029002A80090DBB232002900206801F0AA
:10C960000DFB0500280040B201F074FB2074002884
:10C9700002D0DFF8881108606DB2002D01D1029855
:10C9800001E05FF0FF3004B0BDE8F0812DE9FF4128
:10C9900007000C00160098463800FFF741FC050020
:10C9A000002D02D15FF0FF305EE02868007810F0C3
:10C9B000F000102806D14346320021003800FFF76E
:10C9C00098FF51E00A980B99002801D1002917D04F
:10C9D000102909D14178022906D10421B0FBF1F2D6
:10C9E00002FB1102002A0BD07FF00F0001F032FB96
:10C9F0002874002801D0414908605FF0FF3033E01F
:10CA00000021019101990091002805D0416802910F
:10CA10004088F5F789F802E0002000210291ADF886
:10CA20000C00320092B22100684601F0A9F804001F
:10CA300064B2002C04D16946286801F08FFA040022
:10CA4000684601F08EF8200040B201F003FB287424
:10CA5000002801D02949086064B2002C01D1B6B287
:10CA600001E05FF0FF36300004B0BDE8F08110B5A2
:10CA70001000012921D028D3032901D010D324E0AC
:10CA80000FF28D020100C9B2402001F0B3F804009A
:10CA9000002C20D16920194908605FF0FF302BE09D
:10CAA000882801D1212000E020200FF2650200211A
:10CAB00040B201F09FF80400EAE70FF255020021AE
:10CAC000102001F097F80400E2E716200B490860F7
:10CAD0005FF0FF3010E000212000FFF7CEFB10F1E7
:10CAE000010F08D1200001F0B7F8172003490860B2
:10CAF0005FF0FF3000E0A06110BD000010C6002014
:10CB0000ECC2002080B50023FFF7F3FE02BD000059
:10CB10002DE9F04106000F00002E30D0B469002C42
:10CB200013D5F7F7FCF90500B069002809D57FB2E5
:10CB3000002F02D1B069401EB0612800F7F7F8F964
:10CB4000A1E0B4692800F7F7F3F92000FFF768FBCC
:10CB50000600002E00F09780F7F7E1F905007FB29C
:10CB6000002F0DD0022F13D00ED3042F16D012D3C6
:10CB7000707C00282CD12800F7F7DAF983E082E0F6
:10CB80007089401C7081F3E77089401E7081EFE767
:10CB90000120B081ECE70020B081E9E70120F081BD
:10CBA000E6E70021002900D00120002805D001205F
:10CBB000786117F11800F7F763F92800F7F7B8F96B
:10CBC000F7F7ADF90500DFF8F4020068804503D0FF
:10CBD000DFF8E402076800E03F68002F50D0DFF87C
:10CBE000DC02D0F8008078690028E6D10020B6F990
:10CBF0000A10012914DBB968002911D0211E04296B
:10CC00000AD2082194FBF1F1BA68895C012214F080
:10CC100007039A40114000E00021002900D00120C4
:10CC2000B189002916D0002814D1F968002911D043
:10CC3000211E04290AD2082194FBF1F1FA68895CCB
:10CC4000012214F007039A40114000E0002100295E
:10CC500000D00120F1890029A7D00028A5D1396989
:10CC60000029A2D0211E04299BD2082194FBF1F1B6
:10CC70003A69895C012214F007039A40114091E758
:10CC80002800F7F755F9BDE8F0812DE9F8430500D4
:10CC90000E00170098465FF000092800FFF7C0FA61
:10CCA0000400002C02D15FF0FF302BE0B8F1000F40
:10CCB00008D10E202074002801D07E4908605FF062
:10CCC000FF301FE07E48F7F708F9089800904346C8
:10CCD0003A003100280000F017F881467848F7F74D
:10CCE00003F95FFA89F948462074002801D0714998
:10CCF00008605FFA89F9B9F1000F02D05FF0FF30E8
:10CD000000E00020BDE8F283F8B50F0014001D001C
:10CD10000026FFF79DFA002801D10920C9E00699F5
:10CD2000002F60D0062F00F08880FF2F00F0BC801D
:10CD300040F6FF72974240F0B9802200082A06D0E0
:10CD4000202A04D041F20A039A4220D049E0042963
:10CD500001D21620ADE00168002903D001684968BE
:10CD6000002901D11620A4E02968002907D0016814
:10CD70004968097A214300684068017206E0016849
:10CD80004968097AA1430068406801722AE00429D1
:10CD900001D216208DE00168002903D0016849689E
:10CDA000002901D1162084E00168097811F0F00112
:10CDB000202901D05C207CE02968002908D0016886
:10CDC0004968097C51F0010100684068017407E07E
:10CDD00001684968097C11F0FE010068406801742F
:10CDE00000E05C2663E0012C13D0022C23D104293F
:10CDF00001D216205DE00168002903D0016849686E
:10CE0000002901D1162054E0296800684068817229
:10CE100012E0042901D216204BE00168002903D05A
:10CE200001684968002901D1162042E0296800689C
:10CE30004068417200E05C2639E0042901D21620E6
:10CE400037E00168002903D001684968002901D151
:10CE500016202EE00168097811F0F001102901D0A8
:10CE60005C2026E0012C02D0022C15D01AE02968A3
:10CE7000002908D001684968897E51F040010068A6
:10CE80004068817607E001684968897E11F0BF013A
:10CE900000684068817606E0296800684068C0F84C
:10CEA0008C1000E05C2602E05C2600E05C2630008E
:10CEB000C0B2F2BD10C6002004C6002008C6002083
:10CEC0008CC6002000B9704738B5A0F1080420686E
:10CED000082833D310F0070F30D1C046C046184899
:10CEE000416809B18C4203D26160446017E0194681
:10CEF0004B680BB1A342FAD30B685D18AC421BD34D
:10CF0000A54204D12268D2180A600C4607E04A689C
:10CF10001AB123681B199A420ED362604C60616893
:10CF200051B1226813198B4206D1002303600868AF
:10CF30008018206048686060C046C04631BD00006F
:10CF400088C5002080B5F6F7AFFFF6F78FFDF5F73F
:10CF500006FDF9F73BF9F8F78DFAF4F7F9FDF6F766
:10CF600060FC01BDF8B504460D4616461F4601F0AB
:10CF700083F83B4632462946204601B0BDE8F040E2
:10CF800001F091B80278C9B28A421AB11CBF10F8F8
:10CF9000012FF9E718BF00207047000000F10103DE
:10CFA000810704D010F8011B89B18107FAD102680A
:10CFB000B2F10131914311F0803F04BF50F8042FCA
:10CFC000F6E710F8011B11B110F8011BFBE7C01ABE
:10CFD00070470000C9B2830706D0521E22D310F852
:10CFE000013B9942F7D11FE0083A13D302F1040242
:10CFF00041EA012141EA014150F8043B121F21BFDF
:10D000004B40A3F1013C2CEA030C1CF0803FF3D011
:10D01000C9B2001F083210F8013B521E28BF91EA26
:10D02000030FF8D818BF0120401E704780B501F0EB
:10D0300023F8012002BD000070B5054605F10F0080
:10D04000C408C046C046E400A54232D2082C04D22F
:10D05000082402E00830FFF735FF2248026811007B
:10D060000CD1011D0A6802B31368A34238BF111D19
:10D07000F8D310E01D68A5420DD2191D0B68002BD6
:10D08000F8D11268011D00E0191D0B6893420CD005
:10D090001D68A542F8D361B10D682A68A2F10803A2
:10D0A000A3420AD26A680A600FE001F01FF8002864
:10D0B000D0D1C046C046002070BD63190B60121B62
:10D0C0006E685E600B681A602C60096800291DBFDD
:10D0D0004A68002A091D00210160C046C04605F1CA
:10D0E000080070BD88C5002070B504460D46164680
:10D0F00000F0C2FF324629462046BDE8704000F0ED
:10D10000C5BF00001B4213D1094236D12AB1844663
:10D11000B0FBF2F002FB10C2704700F0FDBFFCD381
:10D120000022002370470B000200002100207047FE
:10D13000904271EB030CF6D370B5B1FA81F4B3FAF7
:10D1400083F52C1BA340C4F1200532FA05F63343C6
:10D15000A2405FF00046E64002E05B085FEA320270
:10D16000841A71EB030524BF204629467641F4D387
:10D1700002000B003000002170BD012ACFD970B52C
:10D18000140C20D0B1FA81F4B2FA82F5C4F1200473
:10D190006419B4F12006D6D3B2405FF00044F440E5
:10D1A000002502E052085FEA3303C61A71EB020E53
:10D1B00024BF3046714664416D41F3D302000B0039
:10D1C0002000290070BD0C46B1FBF2F102FB1145B5
:10D1D0002D0445EA1045B5FBF2F402FB145580B26C
:10D1E00040EA0545B5FBF2F002FB105240EA04406C
:10D1F00070BD30B4436803F0004201211B031B0BD8
:10D20000436004BF0368002B08D10DE00368DD0F05
:10D2100045EA440444605B000360491E4468E3023D
:10D22000F4D523031B0B436043681A43426008464E
:10D2300030BC70474FF4001C1CEB410F94BF1CEB3B
:10D24000430F09E041EA030C50EA4C0C52EA0C0C83
:10D2500003D2994208BF9042704714BF8B4282426A
:10D26000704700004FF4001C1CEB410F94BF1CEBF7
:10D27000430F09E041EA030C50EA4C0C52EA0C0C53
:10D2800003D28B4208BF8242704714BF994290423A
:10D290007047000070B504460D466068C0F30A5040
:10D2A00040F2FF71884207D16068000304BF206824
:10D2B000002817D0022070BD20B92046FFF799FF43
:10D2C000012866DA012D0FDB40F2FF71091A8D4249
:10D2D0000AD3606800284CBF9FED2F0B9FED300BE9
:10D2E00084ED000B012070BD4142A942616806DA5D
:10D2F0006FF31E51401941EA0050606040E0401E4B
:10D3000063684519012205F1350062F31F53352882
:10D3100001F00041636003D361600020206070BDB4
:10D32000002015F11F0F04DA206823600022203549
:10D3300062606A4212D0401E25688041C2F120031B
:10D34000C0439D4045EAD07025686668D54006FA1E
:10D3500003F32B4323606368D340636062680A432E
:10D36000B0F1004F626003D80DD12078C0070AD514
:10D370002068401C2060206828B96068401C6060FC
:10D380004FF0FF3070BD6068884204BF20680028FD
:10D39000F6D1002070BD00BF000000000000F0FFCB
:10D3A000000000000000F07FF446400D40EAC1207C
:10D3B000490006D200F014F8004248BF6FF0004068
:10D3C000604700F00DF84FF0004188428CBF0846DE
:10D3D00040426047400D40EAC120490080F00D8086
:10D3E00040F00040490DA1F58061491C05D4D1F100
:10D3F0001F0154BFC840C01770474FF0000070476E
:10D40000010040F10980F446404200F005F851F077
:10D4100000416047010000BF09D0B0FA80F18840A8
:10D42000C91CC1F58461090501EBD0214005704795
:10D43000F0B44FF0004591EA030F44BF6B4000F099
:10D440006DBE00BF841A71EB030604D26E40001B50
:10D45000B141121973414FF4001C1CEB410F34BF52
:10D460007CEB430684E00C0DA4EB1356362E7DDCDA
:10D47000012E43DC45EAC32343EA525312BFD202D2
:10D4800092025B08240545EAC12141EA5051D2EBE2
:10D49000C020994125D407D1B0FA80F610FA06F1E0
:10D4A00064D00020203608E0B1FA81F6B140C6F120
:10D4B000200220FA02F21143B0404FEAF474B4EBB8
:10D4C000465434F001064FEA74040AD8D6F5001623
:10D4D000760D04F00044F04061FA06F25040F1404D
:10D4E0004840C00A40EA415021F0004128BF5FEAAD
:10D4F000500550F1000044EBD12137E045EAC32349
:10D50000DB0A45EAC121C90AB6F120050EDD42EA6F
:10D510000242120CC5F1200603FA06F6EB4042EA7D
:10D5200006056D42984161F100010DE062FA06F5D1
:10D53000F240554063FA06FC82EA0C02F3405A407E
:10D540006D42904161EB030111F4801F05D1641E0F
:10D55000620502D06D004041494121F48011430829
:10D5600075F1004350F1000041EB0451F0BC7047ED
:10D570001CEB410F15D223F0004352EA43060BD0B7
:10D580004FEA4C0CBCEB410F04D80C0D661E342E38
:10D59000B7DDEBE7801A994150EA410608BF002148
:10D5A000E4E708BF1CEB430F28BF6FF00001DDE785
:10D5B000B0B581EA030C0CF0004C40F2FF7515EA9F
:10D5C00011541DBF15EA1357AC42AF4239E0E419BC
:10D5D00023EA455343F48013C90241F0004141EA74
:10D5E000505EC7021100A7FB020200284FF00000A6
:10D5F000EEFB01204FF00001E3FB072118BF42F0D2
:10D600000102401800214941E3FB0E01A4F58064AA
:10D610000F0302D252004041494154F101046CDD34
:10D62000470872F1004250F1000051EB0451A1F59E
:10D6300080115CBF41EA0C01B0BD4CEA05510020ED
:10D64000B0BD05EA1357AC4214BFAF4241E050EA07
:10D65000410E1CBF52EA430E02E061460020B0BDFD
:10D6600024423C441BD15FEA070EF6D0090302BFF7
:10D6700001460020AEF1140EB1FA81F7AEEB0704BB
:10D6800001FA07FE0C37C7F1200100FA07F7C8407E
:10D690004EEA000E23EA455343F48013A2E733F029
:10D6A0000043B3FA83F704BFB2FA82FE77440B3F1C
:10D6B000E41BB7F1200E2FBF02FA0EF3BB40C7F1F7
:10D6C000200E22FA0EFE38BF43EA0E03BA40641C55
:10D6D00082E750EA410E14BF52EA430E6FF0000198
:10D6E0004FF4001717EB430F8ABF194617EB410F92
:10D6F000B5E74CEA05510020B0BDD4F10104B4F106
:10D7000020070FDAC4F12007520828BF42F00102B7
:10D7100010FA07F501FA07F7E1BF2A43E040384362
:10D72000E1400FE0352C98DCC7F1200452EA4002BA
:10D7300020FA07F218BF42F0010231FA07F0A140C7
:10D740000A43002172F1004250F1000051EB0C013C
:10D75000B0BD00002DE9F04140F2FF7581EA030CF5
:10D760000CF0004C15EA11541DBF15EA1357AC42DA
:10D77000AF42E9E0BC41C1F31301C3F31303801AC4
:10D78000994143F4801304D2641E4000494180183B
:10D790005941C90241EA5051B1FBF3F603FB16119E
:10D7A000A2FB0675D7EBC020A94102D2761E8018D5
:10D7B0005941C90241EA5051B1FBF3FE03FB1E116E
:10D7C000A2FB0E75D7EBC020A94103D2AEF1010E2A
:10D7D00080185941890241EA9051760546EA8E2E19
:10D7E000B1FBF3F603FB1611A2FB0675D7EB802005
:10D7F000A94102D2761E80185941C90241EA50510E
:10D800004EEA060EB1FBF3F603FB1611A2FB0675FA
:10D81000D7EBC020A94102D2761E80185941C90217
:10D8200041EA5051B1FBF3F703FB1711A2FB073597
:10D83000D3EBC020A94167F100070CBF004247F0BD
:10D84000010766F3D5274FEA1E31B80814F5806446
:10D8500014DDBD0775F1004250EB0E5051EB045141
:10D8600011F5801F5CBF41EA0C01BDE8F0814CF06E
:10D870007F6141F0E0410020BDE8F081BD076D0807
:10D8800040EA0E5041F48011D4F10104B4F12006B5
:10D890000ADAC4F120060200E04001FA06F3E14092
:10D8A0001843B24015430EE0342C14DCC6F12004BA
:10D8B00045EA40056D0820FA06F2154321FA06F004
:10D8C000A1400D43002175F1004250F1000051EBE1
:10D8D0000C01BDE8F08100205FEA0C01BDE8F08199
:10D8E000CFB992185B41B3FA83F704BFB2FA82F65C
:10D8F000BF190B3FB7F120062FBF02FA06F3BB405A
:10D90000C7F1200622FA06F638BF3343BA401CB1ED
:10D91000E419641E2FE77F4231F00041B1FA81F42F
:10D9200004BFB0FA80F6A4190B3CB4F120062FBF57
:10D9300000FA06F1A140C4F1200620FA06F638BF2D
:10D940003143A0403C1B16E7AC421ABF05EA13570F
:10D95000AF4214E050EA41061CBF52EA4306BFE75B
:10D9600050EA4107304661461CBF41EA0551BDE817
:10D97000F08152EA430C08BFC143BDE8F0810020AA
:10D980004FF4001616EB410F98BF16EB430F08BF7C
:10D9900016EB410F24BFC14305E016EB430F0CBF4C
:10D9A00061464CEA0551BDE8F081000080B513489E
:10D9B00000F0C3F80FF24C020FF244010160426222
:10D9C00041600FF24402826381600FF24402C16041
:10D9D0000161416181618162C16201634163C2632E
:10D9E0000164416401BD10B5044800F0A6F8044686
:10D9F000206808B9FFF7DAFF204610BDDC000020E0
:10DA0000000000002E00000066616C7365000000DD
:10DA1000747275650000000091FBF2F303FB1211B4
:10DA2000C0E9003170470000F8B504000D000E2673
:10DA300060890F2804DA2000F3F7E1FE0020F2BD30
:10DA4000606887890178C90717D5017801290AD14B
:10DA50004178002911D180785E280ED1607B50F08A
:10DA60001000607309E006221E4900F0C1FB002887
:10DA700003D1607B50F008006073BFB2082F03D061
:10DA8000B7F5C16F17D02CE095F833000007D2D559
:10DA9000608936B2B04207DB36B2714209B220006B
:10DAA000F3F7A1FE002800D0C5E729002000F6F713
:10DAB000FBFA0020C3E795F833000007BBD5608967
:10DAC00036B2B04207DB36B2714209B22000F3F73A
:10DAD0008AFE002800D0AEE729002000FDF766FB93
:10DAE000E7E7A8E708FF00082DE9F84304000D0068
:10DAF00016001F000898F4F717F881460E21280039
:10DB0000F3F771FE002802D07FF0010013E0D5F892
:10DB10000480A8F80C90062239004046F6F71AFA5D
:10DB2000062218F1060731003800F6F713FA29002B
:10DB30002000A2699047BDE8F283704710B5040049
:10DB4000002C0DD02068002806D02068F3F757FE7F
:10DB5000002060606068206021000620F4F73AFF32
:10DB600010BD10B50400002C09D02068002802D098
:10DB70002068F3F744FE002060606068206010BDFC
:10DB800070B504000D001600002C02D17FF00F00CC
:10DB90001EE02068002802D02068F3F730FE022241
:10DBA00000210020F3F7B0FC20602068002804D199
:10DBB000002060605FF0FF300AE020684560206868
:10DBC0000681206800892168488120686060002003
:10DBD00070BD000010B50C00216811F10C0221008D
:10DBE000FBF7F0FF40B2002802D194F9040000E0F6
:10DBF00040B210BD30B585B00C00110040B200F04D
:10DC000089FD0500002D24D08DF808400095694657
:10DC1000DFF81404FFF7DEFF40B2002819D015F139
:10DC20001000F6F7E9F815F11400F6F7E5F815F12C
:10DC30000C00F6F72FF915F10C00F6F726F915F19F
:10DC40001000F6F78AF829000720F4F7C3FE002039
:10DC500000E0280005B030BD10B586B00400002CEF
:10DC600001D1002011E0009429208DF809006946B7
:10DC7000DFF8B803FFF7AEFF40B2002801D040B292
:10DC800003E0200000F08CFD002006B010BD00B5C0
:10DC900085B0002802D17FF00F0014E0002902D1E6
:10DCA0007FF00F000FE0002A02D17FF00F000AE0A2
:10DCB00000908DF81030029103926946DFF87003EE
:10DCC000FFF788FF40B205B000BD00B585B0002861
:10DCD00002D17FF00F000DE0002901D1DFF85413CD
:10DCE00000900291ADF80C206946DFF84C03FFF775
:10DCF00071FF40B205B000BD00B585B0002802D16B
:10DD00007FF00F0006E000906946DFF83003FFF770
:10DD100061FF40B205B000BD70B582B004000D00D7
:10DD2000002D02D17FF00F0042E000202860002C7F
:10DD300002D17FF00F003BE094F9080040B210F1EF
:10DD40000C0F01DA40B233E014F11400F6F754F886
:10DD5000002802D17FF00E002AE00022694614F16B
:10DD60001400F6F710F8009EA06A002804D00022E4
:10DD700001212000A36A98470098B149884202D146
:10DD80007FF00C0014E0002E10D1002C0BD0F6F721
:10DD9000C6F894F9081011F10C0F02DB7FF00E01A8
:10DDA0002172F6F7C5F87FF00E0001E02E6000202A
:10DDB00076BD30B587B004000D0000200090002D26
:10DDC00002D17FF00F0079E000202860002C02D102
:10DDD0007FF00F0072E0207810F0F000102812D1D0
:10DDE00014F11000F6F708F800280CD114F1140013
:10DDF000F6F702F8002802D07FF00A0001E07FF079
:10DE00000E0040B25AE014F11000F5F7F5FF0028BB
:10DE100002D17FF00A0051E094F9080040B210F1FD
:10DE20000C0F01DA40B249E00022694614F11000FB
:10DE3000F5F7A9FF207810F0F000102830D10194F8
:10DE40000098002803D000980089039001E0012089
:10DE5000039001A97B48FFF7BDFE009800281CD164
:10DE6000A06A002804D0002201212000A36A98475C
:10DE7000606800280AD194F90800002802D17FF0D8
:10DE80000D0001E094F9080040B217E001212000E4
:10DE900000F0B4F87FF00E0010E00098028902E074
:10DEA000009800680289A06A002804D092B201217B
:10DEB0002000A36A984700982860002007B030BD72
:10DEC00080B5002804D0027812F0F002102A02D0A7
:10DED0007FF00F0001E0FFF76CFF02BD70B582B06C
:10DEE00005000C000026002C02D17FF00F0034E06A
:10DEF00000202060002D02D17FF00F002DE0287857
:10DF000010F0F000102824D1002000900620F4F733
:10DF100047FD0600002E02D15FF0FF301DE069468C
:10DF20002800FFF746FF05006DB2002D06D0310036
:10DF30000620F4F74FFD280040B20EE00098306054
:10DF4000009870600020B0810020B0602660002042
:10DF500003E021002800FFF72CFF76BD00B585B057
:10DF6000002802D17FF00F0006E000900291694680
:10DF70003548FFF72FFE40B205B000BD70B586B042
:10DF80001400002802D17FF00F0035E0027812F073
:10DF9000F002102A02D07FF005002DE0002C01D104
:10DFA000002029E0027FC2F3400212F00102C3F315
:10DFB000800515F0010555EA02060A9DF6B2002E0D
:10DFC00004D0002D02D17FF0050015E000900291F1
:10DFD0008DF81030039469461C48FFF7FBFD40B2F2
:10DFE000002808D1002D06D0F6B2002E02D00399E9
:10DFF000296000E02C6040B206B070BD00B585B06D
:10E00000002802D17FF00F000AE000908DF8081080
:10E0100029208DF8090069460D48FFF7DBFD40B265
:10E0200005B000BD00000000DDE6000891EA000830
:10E0300075F0000870FF00088BEB000803EC000887
:10E04000B2C6002099ED000813ED0008BFEF0008EC
:10E050004DF1000840B2012803DA40B241421129D3
:10E0600001DB052004E0034940B2404251F82000A2
:10E07000704700BF3CFA000880B5DFF80C00FFF7DE
:10E080005CFD806902BD00006C01002030B430B935
:10E090000FF24800D0E90045C2E900451BE00170DD
:10E0A000012030BC704730B431B90FF23800D0E9EC
:10E0B0000045C3E900450EE01AB930BC6FF001001D
:10E0C000704708B10A7802800978481E804130BC48
:10E0D000C043C00F7047002030BC704700000000F4
:10E0E0000000000000000000000000000749086870
:10E0F00008B1002070470648C008C0000860054904
:10E10000C908C900091A0160704700BFA0C60020F5
:10E11000E7050020E007002070470000841A71EB3B
:10E12000030603D2001BB141121973414FF4001CC6
:10E130001CEB410F34BF7CEB430443E00C0DA4EB1C
:10E140001356352E50DC45EAC323DB0A45EAC121CC
:10E15000C912B6F120050DDD63FA05F6EB4086EA3B
:10E160000305124218BF45F00105C01851F1000126
:10E170000CD213E062FA06F5F2405540F3415A40E2
:10E18000B340F3405A408018594107D349085FEA29
:10E1900030005FEA350528BF45F0010501F5801123
:10E1A000420875F1004250F1000041EB0451F0BC0F
:10E1B0004FF4001C1CEB410F38BF70470020090DC5
:10E1C000090570471CEB410F10D252EA43060BD0F1
:10E1D000BCEB410F05D80C0DAB43661E342EB5DDEC
:10E1E00002E0AB4380185941F0BC7047F0BC704767
:10E1F0000300002013F0030F09D0521E22BF13F8B2
:10E20000010B11F801CBB0EB0C00F3D07047121FDB
:10E2100022BF53F8040B51F804CB6045F7D0121D10
:10E220000AD200BA9CFA8CFCB0EB0C0038BF6FF03D
:10E23000000088BF01207047521E22BF13F8010B57
:10E2400011F801CBB0EB0C00F6D0521C08BF104601
:10E2500070470000F8B5040015001E00002C05D022
:10E2600014F11000F5F7C8FD002803D12800F3F7DA
:10E27000C6FA28E00620F4F793FB0700002F03D12D
:10E280002800F3F7BCFA1EE03D607D60002E01D14E
:10E29000002000E03068B8600698B8812D89390008
:10E2A00014F11000F5F762FD002803D03800FFF7E5
:10E2B00045FC08E0A06A002805D02A0092B200219F
:10E2C0002000A36A9847F1BDF8B504000D001600C0
:10E2D0001F00002C02D17FF0050038E014F110007F
:10E2E000F5F78AFD00280AD1002E06D031892800D2
:10E2F000F3F7CAFE3000F3F782FA002027E07FB27E
:10E30000002F0BD0002C09D0F5F709FE94F9081066
:10E3100011F10C0F00DB2772F5F70AFE002E01D079
:10E32000358900E00025310014F11000F5F71EFDDD
:10E33000002802D05FF0FF3009E0A06A002805D075
:10E340002A0092B200212000A36A98470020F2BD63
:10E3500010B5040094F90100012804D10121200026
:10E3600000F04BFD13E094F9010004280FD1606A1E
:10E37000002808D0606A407A002804D0606A407A99
:10E38000401E616A48720121200000F07CFA207F63
:10E39000C0061AD56068002817D06068B0F8600021
:10E3A00040F66A31884210DB6068B0F862000528E8
:10E3B0000BDA207F10F0EF002077A06A002804D04D
:10E3C000002202212000A36A9847002010BD38B522
:10E3D00005001400002D2CD095F90100012804D16E
:10E3E0000121280000F009FD07E095F9010004284B
:10E3F00003D10121280000F046FA6868002818D0EF
:10E400006868B0F8600040F66A31884211DB6868DD
:10E41000B0F8620005280CDA287F10F0EF002877AA
:10E42000A86A002805D0220092B202212800AB6A17
:10E430009847002032BD70B505000C0000206860D0
:10E4400095F901600020687076B2042E0ED1002488
:10E45000002D0AD0F5F763FD95F9081011F10C0FA6
:10E4600001DB00212972F5F763FD04E0F5F757FDA4
:10E470002C72F5F75DFDA86A002804D00022042163
:10E480002800AB6A9847A86A002804D0002200211F
:10E490002800AB6A9847A86A002804D0002202210D
:10E4A0002800AB6A984715F11000F5F7A5FC002885
:10E4B00004D0002115F11000F5F758FC15F11400F7
:10E4C000F5F79AFC002804D0002115F11400F5F7A7
:10E4D0004DFC76B2012E05D076B2042E02D076B273
:10E4E000032E25D1287FC0F3800010F00100297F82
:10E4F00011F0FB01297700281AD1686A0471686A53
:10E50000006810F10C063000F5F7C4FC00206862CA
:10E51000002D09D0F5F703FD95F9081011F10C0F46
:10E5200000DB2C72F5F704FD3000F5F7A9FCFFE7DE
:10E5300070BD10B5446801002000F4F70CF9DFF855
:10E54000201B2000F4F70BF9DFF8181B2000F4F76C
:10E550000AF90222DFF8101B2000F4F715F9DFF8A2
:10E560000C1B2000F4F703F910BDF8B504000D00F2
:10E570001600002C02D17FF0050073E014F11400A6
:10E58000F5F73AFC002802D17FF005006AE0002D83
:10E5900012D1DFF8DC1A14F11400F5F7E7FB0028BC
:10E5A00007D1A06A002804D0002200212000A36A1D
:10E5B00098477FF0050055E0A16A94F9000000F04B
:10E5C000A9F80700002F12D1DFF8A41A14F11400E3
:10E5D000F5F7CCFB002807D1A06A002804D0002260
:10E5E00000212000A36A98475FF0FF303AE07D6089
:10E5F0003800FFF79EFF3E72390014F11400F5F762
:10E60000B5FB002825D07C6800212000F4F7A3F892
:10E6100000212000F4F7A3F800212000F4F7A3F86C
:10E62000002200212000F4F7AFF800212000F4F7C9
:10E630009EF80020786017F11000F5F78EFB17F1B7
:10E640001000F5F7E0FB380000F0AAF85FF0FF30AB
:10E6500008E0A06A002804D0002200212000A36A5C
:10E6600098470020F2BD10B504002068007810F033
:10E67000F000C0B2102821D020282BD1F7F75FF985
:10E68000216848602068406800280FD0206890F911
:10E690000000222803D101202168496808742268FB
:10E6A000DFF8501B20684068F7F728F920684068B9
:10E6B000002802D15FF0FF30207110BDF4F746F85A
:10E6C0002168486020684068002802D02068FFF771
:10E6D00030FFEBE77FF005002071EEE710B5040096
:10E6E0000020207120684068002802D12000FFF738
:10E6F000BAFF206800280CD0F5F711FC216891F9C9
:10E70000081011F10C0F02DB217922681172F5F764
:10E710000FFC10BD70B505000E000720F4F740F99E
:10E720000400002C01D100201BE000202072257085
:10E73000002060606DB215F0F000C0B2102809D062
:10E74000202809D1062114F11000F5F7F1FA00286C
:10E7500008D001E00621F6E721000720F4F73AF996
:10E76000002070BD002114F10C00F5F74FFB0028CC
:10E7700004D014F11000F5F7F0FAEDE714F11400ED
:10E78000F5F741FB002060705FF0FF30A061A662EA
:10E790000020606200202062002020772000E0E757
:10E7A00010B5040014F11000F5F726FB14F1140065
:10E7B000F5F722FB14F10C00F5F767FB14F10C00E0
:10E7C000F5F76FFB21000720F4F704F910BD38B509
:10E7D000040014F11000F5F70FFB002803D126E028
:10E7E0000098FFF7ABF9694614F11000F5F7F1FA5C
:10E7F00010F1010F13D0207810F0F0001028EFD1A5
:10E8000000980028EFD0009D6068002803D0298977
:10E810006068F3F739FC2800F2F7F1FFE3E714F141
:10E820001000F5F79AFA14F11000F5F7ECFA14F16C
:10E830001400F5F7E1FA002814D123E00098DFF87E
:10E84000301888420ED0009D2800FFF7C0FF68688E
:10E85000002804D06868F3F734FB002068602800C3
:10E86000FFF79EFF694614F11400F5F7B2FA10F1B4
:10E87000010FE3D114F11400F5F76FFA14F114004D
:10E88000F5F7C1FA31BD2DE9F84F04000D005FF036
:10E89000000AD4F804B0606A007A10F0010610F0A3
:10E8A0000207C0B2032802D15FF001081DE0F6B2F2
:10E8B000002E0ED09BF91400052807D09BF91400F8
:10E8C000062803D09BF91400082802D15FF0010844
:10E8D0000BE0FFB2002F06D09BF81A00C00602D54D
:10E8E0005FF0010801E05FF000085FFA88F8B8F116
:10E8F000000F03D000215846F3F72DFF9BF91400B9
:10E90000012804D100215846F3F736FF1FE0F6B284
:10E91000002E07D000215846F3F721FF002158466A
:10E92000F3F72AFFFFB2002F03D000215846F3F778
:10E930001AFF5FFA88F8B8F1000F08D00022002112
:10E940005846F3F721FF00215846F3F710FF5FFA0E
:10E9500088F8B8F1000F04D05846F3F704FA81465E
:10E9600007E0FFB23A00F6B231005846F3F708FA72
:10E9700081464FFA89F9B9F1000F02D15FF0010A1F
:10E9800017E04FFA89F919F1010F10D1606A407A46
:10E9900000280ED15FF0010A5FFA88F8B8F1000F85
:10E9A00007D05846F3F78DFA5FF0000901E05FF0F9
:10E9B000010A5FFA8AFABAF1000F49D0606A00686A
:10E9C00010F10C0A606A80F8049000206062002058
:10E9D00060704FFA89F9B9F1000F24D15FFA88F815
:10E9E000B8F1000F09D000206060A06A002804D0B0
:10E9F000002204212000A36A9847F6B2002E07D017
:10EA0000A06A002804D0002200212000A36A9847B1
:10EA1000FFB2002F07D0A06A002804D000220221F4
:10EA20002000A36A9847002C0AD0F5F778FA94F9E9
:10EA3000081011F10C0F01DB84F80890F5F778FA53
:10EA4000EDB2002D02D05046F5F71AFA00201DE075
:10EA50005FFA8AFABAF1000F16D1FFB2002F04D084
:10EA6000DFF800165846F3F77EFE0122DFF8F815AE
:10EA70005846F3F789FEDFF8F4155846F3F777FEAA
:10EA800021005846F3F767FE484640B2BDE8F28FD2
:10EA900010B50400206890F9010040B2002805D0AC
:10EAA00040B2022802D040B2032806D140B2032867
:10EAB00007D12068007F400703D47FF00400207155
:10EAC0004CE0002020712068FFF781FE206840683C
:10EAD00000282FD02068007810F0F000C0B2102875
:10EAE0000AD0202823D1002021684968C861206805
:10EAF0004068F6F706FF1AE00420216848700320FA
:10EB000020722068446200212068FFF7BCFE0028C4
:10EB10000CD0DFF8E406F5F7E7F9002120680C30A7
:10EB2000F5F78EF9DFF8D006F5F7D7F92CE00020DD
:10EB3000216848602068806A002805D000220021F2
:10EB4000206823689B6A98472068806A002805D05F
:10EB500000220221206823689B6A984720680C30B5
:10EB6000F5F798F900280FD0206800280CD0F5F7A9
:10EB7000D6F9216891F9081011F10C0F02DB217907
:10EB800022681172F5F7D4F910BD10B504002068A1
:10EB900090F9080010F10C0F03DA2068007A207158
:10EBA0001EE07FF00500207120684068002817D023
:10EBB000A1682068007810F0F000C0B2102808D0DA
:10EBC00020280DD1A28920684068F6F71CFE20712C
:10EBD00006E0A28920684068F3F778F92071FFE722
:10EBE000206800280CD0F5F79AF9216891F90810EF
:10EBF00011F10C0F02DB217922681172F5F798F9F7
:10EC000010BD38B50400206890F9080010F10C0F11
:10EC100003DA2068007A20716AE07FF00A00207130
:10EC200020684068002863D02068007810F0F00069
:10EC300010285AD1206890F9010000284DD1206891
:10EC4000406890F91400002803D07FF0050020717F
:10EC50004EE0FF2120684068F3F79BF90500002D86
:10EC600003D15FF0FF30207142E020681030F5F7EB
:10EC7000C3F8002807D020681030F5F76EF8206838
:10EC80001030F5F7C0F80020207120681430F5F737
:10EC9000B3F8002805D1062120681430F5F748F8AC
:10ECA000207194F90400002810D1022021684870D6
:10ECB00020684560216820684068F3F74CFDDFF864
:10ECC0003C1520684068F3F757FD11E02800F3F782
:10ECD0004AF80020216848600AE0206890F90100A5
:10ECE000022805D10020207102E07FF00F00207182
:10ECF000206800280CD0F5F712F9216891F9081066
:10ED000011F10C0F02DB217922681172F5F710F96D
:10ED100031BD10B50400206890F9080010F10C0F07
:10ED200003DA2068007A207125E07FF00A00207164
:10ED30002068406800281ED02068007810F0F0009D
:10ED4000202818D1A0688068002807D1A068016831
:10ED500020684068F6F7A3FC20710BE0A068838967
:10ED6000A06810F10802A068016820684068F6F702
:10ED7000A1FC2071FFE7206800280CD0F5F7CFF840
:10ED8000216891F9081011F10C0F02DB217922683A
:10ED90001172F5F7CDF810BD70B504000020207198
:10EDA00020684068002817D02068007810F0F00034
:10EDB000102811D1A568B5F5803F02D34FF6FF7634
:10EDC00000E02E00310089B220684068F3F75CF95A
:10EDD000B6B2AD1B002DEED1206800280CD0F5F79F
:10EDE0009EF8216891F9081011F10C0F02DB2179CE
:10EDF00022681172F5F79CF870BD2DE9F843040004
:10EE00000D000027606A037C207FC0F3400010F0F3
:10EE10000100C3F3800111F0010151EA0008606AAA
:10EE20008068216A0918606AC068226AB0EB02092A
:10EE3000B9F5803F04D34FF6FF7953F00203FFE7A3
:10EE40006068B0F8600080B21FFA89F948450FD2B7
:10EE500081465FFA88F8B8F1000F07D01FFA89F9E8
:10EE6000B9F1000F04D17FF006060FE053F0020362
:10EE7000DBB24A4692B26068F3F7F1FE060076B262
:10EE8000002E03D076B216F1010F2DD15FFA88F86B
:10EE9000B8F1000F13D01FFA89F9606AC068814584
:10EEA0000DD2A06A002805D04A4692B20321200064
:10EEB000A36A9847207F50F01000207714E0606824
:10EEC000B0F8600040F66A31884204DB6068B0F850
:10EED0006200052808DBA06A002805D04A4692B2E5
:10EEE00003212000A36A984776B2002E22D1206A1F
:10EEF00010FA89F02062206A616AC968884204D0E9
:10EF00005FFA88F8B8F1000F03D0206A616AC86020
:10EF100001276068F4F763F940B210F10C0F03DBCE
:10EF200040B210F1040F23D1060001270020616ACE
:10EF3000C8601DE076B216F1010F15D15FFA88F8AE
:10EF4000B8F1000F10D16068F4F749F940B210F140
:10EF50000C0F03DB40B210F1040F09D106000127AA
:10EF60000020616AC86003E001270020616AC86070
:10EF7000FFB2002F1FD0606A006810F10C07606AB2
:10EF80000671002060620020206200206070002C6A
:10EF900009D0F4F7C4FF94F9081011F10C0F00DB4D
:10EFA0002672F4F7C5FFEDB2002D02D03800F4F759
:10EFB00067FF002001E05FF0FF30BDE8F28310B58D
:10EFC0000400206890F9080010F10C0F03DA2068A3
:10EFD000007A207133E02068007810F0F0001028EB
:10EFE0002AD1206890F90100002803D07FF00400A6
:10EFF000207124E020684068002819D00120216891
:10F00000487020684462002021680862002120685E
:10F01000FFF7F3FE00280AD07748F4F765FF0021D8
:10F0200020680C30F4F70CFF7348F4F756FF16E035
:10F030007FF00A00207102E07FF005002071206857
:10F0400000280CD0F4F76BFF216891F9081011F13A
:10F050000C0F02DB217922681172F4F769FF10BDF1
:10F06000C9E20008CFE3000851E3000837E40008D4
:10F07000B2C6002010B5040020684068002851D0B6
:10F08000207C002805D0206840680068A1680860DE
:10F0900004E0206840684068A16808600020207192
:10F0A0002068007810F0F000C0B2102819D0202895
:10F0B00037D1207C002805D020684068408AE1686C
:10F0C00008800DE020684068007C400703D47FF092
:10F0D0000A00207104E020684068808AE1680880A6
:10F0E00023E0207C00280FD12068406890F91400AC
:10F0F000002805D02068406890F91400012803D149
:10F100007FF00A0020710BE0207C002803D02068EB
:10F110004068C08A02E020684068008BE16808808F
:10F1200003E002E07FF00A002071206800280CD084
:10F13000F4F7F5FE216891F9081011F10C0F02DBCC
:10F14000217922681172F4F7F3FE10BD10B50400A6
:10F15000206890F9010021684968002936D02168AB
:10F16000097811F0F001102930D1217A032902D059
:10F1700040B202282AD040B2032803D17FF00A000F
:10F18000207126E040B2012803D17FF004002071F5
:10F190001FE0207AC00702D52068FFF718FB042083
:10F1A000216848702068446200212068FFF76BFBEB
:10F1B00000280AD01048F4F797FE002120680C3090
:10F1C000F4F73EFE0C48F4F788FE12E07FF00A00E8
:10F1D0002071206800280CD0F4F7A1FE216891F975
:10F1E000081011F10C0F02DB217922681172F4F77B
:10F1F0009FFE10BD55E200088CC600206BE500089C
:10F2000010B50400002C01D1012033E0A0690028D2
:10F21000FFD194F83900002805D1002084F8380087
:10F22000200000F05BFA242084F839002068C068D0
:10F2300030F400502168C860200000F0C2F8206857
:10F24000006930F49040216808612068406930F01E
:10F250002A00216848612068C06850F40050216885
:10F26000C8600020E063202084F83900202084F862
:10F270003A00002010BD2DE9F04182B004000D00DD
:10F2800016001F005FF0000894F8390020285DD1B7
:10F29000002D02D0B6B2002E01D1012057E094F922
:10F2A0003800012801D1022051E0012084F8380003
:10F2B0000020E063212084F83900F7F7C6FE80467D
:10F2C000A684E68403E02878216848606D1CE08C01
:10F2D000002828D0E08C401EE084A068B0F5805F54
:10F2E00016D10097434600228021200000F031F81B
:10F2F000002801D003202AE02888C005C00D21681D
:10F3000048602069002801D1AD1CE0E76D1CDEE7F4
:10F310000097434600228021200000F01AF80028C0
:10F32000D1D0032013E00097434600224021200063
:10F3300000F00FF8002801D0032008E0202084F816
:10F340003900002084F83800002000E00220BDE8E9
:10F35000F6812DE9F04104000D0016001F00DDF8D4
:10F360001880206800682840A84201D1012000E0F0
:10F37000002076B2B04221D118F1010FF1D0B8F1DE
:10F38000000F04D0F7F761FEC01B8045E9D220686A
:10F39000C06830F4D0702168C860206840694008B7
:10F3A000400021684861202084F83900202084F83A
:10F3B0003A00002084F83800032000E00020BDE877
:10F3C000F0812DE9F041040000202068006930F44C
:10F3D0004050E1680843216808612068C068BC4962
:10F3E0000840A1682269114362691143E26911432F
:10F3F00008432168C8602068406930F44070A16902
:10F40000084321684861E069B0F5004F40F0B080E2
:10F410002068B049884203D02068AF49884253D160
:10F42000FCF786FC8046FCF783FC0600FCF780FCBA
:10F430000700FCF77DFC0500FCF77AFC192101FBB5
:10F4400008F162685200B1FBF2F16422B1FBF2F103
:10F45000192202FB06F263685B00B2FBF3F2192388
:10F4600003FB07F366687600B3FBF6F36426B3FB91
:10F47000F6F3642606FB1322D20032326423B2FB79
:10F48000F3F212F0F802520012EB0111192202FB02
:10F4900005F263685B00B2FBF3F21923584363681B
:10F4A0005B00B0FBF3F06423B0FBF3F0642303FBD9
:10F4B0001020C00032306422B0FBF2F010F00700E0
:10F4C00040182168886000E1FCF722FC8046FCF7C8
:10F4D0001FFC0600FCF71CFC0700FCF719FC0500EC
:10F4E000FCF716FC192101FB08F162685200B1FB20
:10F4F000F2F16422B1FBF2F1192202FB06F2636819
:10F500005B00B2FBF3F2192303FB07F36668760096
:10F51000B3FBF6F36426B3FBF6F3642606FB132273
:10F52000D20032326423B2FBF3F212F0F80252003E
:10F5300012EB0111192202FB05F263685B00B2FBBA
:10F54000F3F21923584363685B00B0FBF3F06423C4
:10F55000B0FBF3F0642303FB1020C00032306422C0
:10F56000B0FBF2F010F00700401821688860ACE0B2
:10F5700020685849884203D020685749884252D1B0
:10F58000FCF7D6FB8046FCF7D3FB0600FCF7D0FB6C
:10F590000700FCF7CDFB0500FCF7CAFB192101FBB6
:10F5A00008F162689200B1FBF2F16422B1FBF2F162
:10F5B000192202FB06F263689B00B2FBF3F21923E7
:10F5C00003FB07F36668B600B3FBF6F36426B3FBF0
:10F5D000F6F3642606FB1322120132326423B2FBD7
:10F5E000F3F212F0F00212EB0111192202FB05F204
:10F5F00063689B00B2FBF3F21923584363689B00D6
:10F60000B0FBF3F06423B0FBF3F0642303FB1020A2
:10F61000000132306422B0FBF2F010F00F0040180D
:10F620002168886051E0FCF773FB8046FCF770FBB3
:10F630000600FCF76DFB0700FCF76AFB0500FCF712
:10F6400067FB192101FB08F162689200B1FBF2F13E
:10F650006422B1FBF2F1192202FB06F263689B00FF
:10F66000B2FBF3F2192303FB07F36668B600B3FBA2
:10F67000F6F36426B3FBF6F3642606FB13221201AD
:10F6800032326423B2FBF3F212F0F00212EB0111FA
:10F69000192202FB05F263689B00B2FBF3F2192307
:10F6A000584363689B00B0FBF3F06423B0FBF3F0B6
:10F6B000642303FB1020000132306422B0FBF2F01F
:10F6C00010F00F00401821688860BDE8F08100004C
:10F6D000F369FFFF001001400014014000B587B03E
:10F6E00000682E49884221D1002000902C480068F3
:10F6F00050F010002A4908602948006810F01000F6
:10F700000090009840200190022002900120039078
:10F71000032004900720059001A92248F6F75EFA1D
:10F720008020019001A91F48F6F758FA07B000BDE4
:10F7300080B5002000901C48006850F002001A4973
:10F7400008601948006810F0020000900098134803
:10F75000164908605FF4E1301449486000201349FD
:10F76000886000201149C8600020104908610C2001
:10F770000E49486100200D49886100200B49C8618D
:10F780000A48FFF73DFD01BD01B54FF6FF730122A9
:10F7900069460648FFF76FFD009802BD0010014062
:10F7A000443802400004024030380240D4C30020F4
:10F7B00000B593B0002000904C48006850F0805095
:10F7C0004A4908604948006810F08050009000984D
:10F7D000002000904648006850F48040444908608A
:10F7E0004348006810F48040009000980120069083
:10F7F0005FF48030079002200C905FF480000D9041
:10F8000008200E904FF4A8700F900220109007204F
:10F81000119006A8FBF762FF0F20019002200290D2
:10F82000002003904FF4A05004904FF480500590B6
:10F83000052101A8FCF746F9FCF71DFAFCF765FA6B
:10F840004FF47A71B0FBF1F0F6F75AFB0420F6F7AB
:10F850005BFB00220F215FF0FF30F6F73BFB13B09C
:10F8600000BD00B585B0F7F7BBFBFFF7A1FFFFF7C1
:10F870005FFF00F049F868461E491422F4F77AFB4E
:10F8800000216846F5F7ECF8F5F7DAF8FEE700B581
:10F890008BB0F6F729FC05A817491422F4F76AFB88
:10F8A000164905A8F5F7DCF8684615491422F4F75F
:10F8B00061FB00216846F5F7D3F80020F5F7E7F87B
:10F8C000FBE780B5012220210E48F6F774FA642088
:10F8D000F5F7E2F8002220210A48F6F76CFA6420D6
:10F8E000F5F7DAF80548F6F7EEFBEBE740380240AB
:10F8F000007000405CFD000870FD000854C400204A
:10F9000084FD00080010024000B587B00020009080
:10F910002C48006850F080002A4908602948006897
:10F9200010F08000009000980020009025480068AA
:10F9300050F01000234908602248006810F01000C1
:10F9400000900098002000901E48006850F01000C1
:10F950001C4908601B48006810F0100000900098D7
:10F9600000224FF400711848F6F725FA00222021F2
:10F970001648F6F720FA002240211448F6F71BFA41
:10F980004FF400700190012002900220049001A920
:10F990000D48F6F723F92020019001200290022063
:10F9A000049001A90948F6F719F9402001900120B7
:10F9B00002900220049001A90448F6F70FF907B05D
:10F9C00000BD000030380240001C02400010024020
:10F9D0001248006850F47000104908601048006830
:10F9E00050F001000E49086000200E4908600C48E4
:10F9F00000680D4908400A4908600C480C49086035
:10FA00000748006830F48020054908600020094953
:10FA100008605FF0006008490860704788ED00E00A
:10FA20000038024008380240FFFFF6FE1030002484
:10FA3000043802400C38024008ED00E000000000ED
:10FA40000C000000690000000B00000071000000C5
:10FA500073000000160000000B00000062000000B0
:10FA6000720000006A0000006B000000FFFFFFFF53
:10FA700067000000680000006B0000000500000047
:10FA800019E050F8041BCB0744BFA9F10103591832
:10FA9000121F0023042A41F8043BF9D25FEA827C5A
:10FAA0000B4604D54FF0000CA1F800C09B1CD107F9
:10FAB00044BF0021197050F8042B002AE1D170478F
:10FAC00030B5016842688468091801EB5203D20717
:10FAD00048BF4C440C30994200D130BD11F9012B84
:10FAE00011F8015B002A04F8015B02D5521CF9D120
:10FAF000F1E7521EF4D5EEE748FE000854FE000878
:10FB000060FE00086CFE000878FE000884FE000815
:10FB100090FE00089CFE0008A8FE0008B4FE000845
:10FB2000C0FE0008CCFE0008D8FE00084950206145
:10FB30006464726573732061737369676E656420B2
:10FB40006279206120444843502073657276657263
:10FB50003A2025730A000000202053746174653A2E
:10FB6000204C6F6F6B696E6720666F72204448434C
:10FB70005020736572766572202E2E2E0A000000CA
:10FB8000546865206E6574776F726B206361626C78
:10FB900065206973206E6F7420636F6E6E65637489
:10FBA0006564200A00000000FA000000531B0008F2
:10FBB000E8030000054E0008E8030000DBAD000884
:10FBC00060EA00002F8A0008F4010000A18A000802
:10FBD0007047FEE7FEE7FEE7FEE7704780B5F7F700
:10FBE0002EFAF5F7E4F801BD704780B50148F6F745
:10FBF00092FE01BD8CC3002010B50749794418312D
:10FC0000064C7C44163404E00A68081D51188847E5
:10FC10000146A142F8D110BD500000006C00000068
:10FC20006E657720636C69656E7420636F6E6E65B8
:10FC3000637465642066726F6D202825732C2025FF
:10FC400064290A004EF68851CEF20001086840F49B
:10FC500070000860BFF34F8FBFF36F8F4FF00070DD
:10FC6000E1EE100A7047000019FEFFFFE0BE000041
:10FC7000E00700200000000049FEFFFF48040000EC
:10FC80008C0000000000002000F00BF8002801D0DC
:10FC9000FFF7B2FF0020C046C046FFF7E2FD00F0CC
:10FCA00002F80120704700F001B80000074638460E
:10FCB00000F002F8FBE7000080B5C046C046024AEB
:10FCC00011001820ABBEFBE72600020053746174DC
:10FCD000696320495020616464726573733A20251A
:10FCE000730A0000B6CFBFAACDF8CFDFA3ACD0E82F
:10FCF000D6D8C1ACC1ACBDD30A00000038B50446AB
:10FD00000D46284600F006F8A84218BF00242046F9
:10FD100032BD00000149FFF737BD00BF10000020D1
:10FD2000444843502054696D656F7574202121202B
:10FD30000A000000C1ACBDD3CDF8CFDFA3ACC5E451
:10FD4000D6C34D41430A000020FF00086149000866
:10FD500003000000000000005E01000028FF000812
:10FD60008FF8000800000000000000000001000003
:10FD700030FF0008FF5F0008FEFF000000000000E9
:10FD80000001000038FF0008C3F80008FEFF000073
:10FD90000000000080000000B3C9B9A6C1ACBDD30B
:10FDA000CDF8BFA80A000000455448B3F5CABCBB53
:10FDB000AFB3C9B9A60A0000455448B3F5CABCBBE5
:10FDC000AFCAA7B0DC0A000000000000000000007D
:10FDD00001020304060708090102030405060707D8
:10FDE00007070707070000005CC6002058C6002070
:10FDF00060C6002064C60020536F636B6574206585
:10FE000072726F720A000000556E61626C65207438
:10FE10006F2062696E640A004C697374656E2065B8
:10FE200072726F720A0000007463706563686F5FBE
:10FE300074687265616400000148804701480047AA
:10FE4000D1F90008FDFE000820000600E0BB0020FC
:10FE5000C4C5002094000A00B8B30020C8C5002023
:10FE60001C00050044BF0020CCC500201000080085
:10FE700060C00020D0C500202000050058BD002033
:10FE8000D4C5002018000F0084B90020D8C5002078
:10FE900010000200B4C40020DCC500202C000400C7
:10FEA000A4BC0020E0C5002010000800E4C0002031
:10FEB000E4C500201000080068C10020E8C500204B
:10FEC00010000A00FCBD0020ECC5002010000A0054
:10FED000A0BE0020F0C500200402080094A300206A
:10FEE000F4C500204E6F206D656D6F72790A0000B9
:10FEF000726563762025730A00000000C046C04684
:10FF0000FFF7A0FEFFF7C0FEFFFFFFFFFFFF0000AF
:10FF100000000000000000000200000000000000DF
:10FF200045746849660000005374617274000000F3
:10FF300044484350000000004C454432000000009B
:10FF400000000000040000000000000001020304A3
:10FF500049444C450000000003060C18306078004E
:10FF60005443502F495000000000000008000000DA
:10FF700000000000FFFFFFFFF0E300E000000000D2
:10FF80000000000000000000FFF7FEBFFFF7FEBF0B
:10FF9000FFF7FEBFFFF7FEBFFFF7FEBFFFF7FEBF95
:10FFA000FFF7FEBFFFF7FEBFFFF7FEBFFFF7FEBF85
:10FFB000FFF7FEBFFFF7FEBFFFF7FEBFFFF7FEBF75
:10FFC000FFF7FEBFFFF7FEBFFFF7FEBFFFF7FEBF65
:10FFD000FFF7FEBFFFF7FEBFFFF7FEBFFFF7FEBF55
:10FFE000FFF7FEBFFFF7FEBFFFF7FEBFFFF7FEBF45
:10FFF000FFF7FEBFFFF7FEBFFFF7FEBFFFF7FEBF35
:020000040801F1
:10000000FFF7FEBFFFF7FEBFFFF7FEBFFFF7FEBF24
:10001000FFF7FEBFFFF7FEBFFFF7FEBFFFF7FEBF14
:10002000FFF7FEBFFFF7FEBFFFF7FEBFFFF7FEBF04
:10003000FFF7FEBFFFF7FEBFFFF7FEBFFFF7FEBFF4
:10004000FFF7FEBFFFF7FEBFFFF7FEBFFFF7FEBFE4
:10005000FFF7FEBFFFF7FEBFFFF7FEBFFFF7FEBFD4
:10006000FFF7FEBFFFF7FEBFFFF7FEBFFFF7FEBFC4
:10007000FFF7FEBFFFF7FEBFFFF7FEBFFFF7FEBFB4
:10008000FFF7FEBFFFF7FEBFFFF7FEBFFFF7FEBFA4
:10009000FFF7FEBFFFF7FEBFFFF7FEBFFFF7FEBF94
:1000A000FFF7FEBFFFF7FEBFFFF7FEBFFFF7FEBF84
:1000B000FFF7FEBFFFF7FEBFFFF7FEBFFFF7FEBF74
:1000C000FFF7FEBF0301031C06FCAA270024F4006F
:1000D0006E190000020401013CC300208CC3002003
:1000E0003CC300203CC300203CC300204D00002046
:1000F00034000020DC0000018100DC00F8FFDC009F
:0A010000FAFF8100D00002C000C029
:040000050800FEFDF4
:00000001FF
