Component: ARM Compiler 5.06 update 6 (build 750) Tool: armlink [4d35ed]

==============================================================================

Section Cross References

    startup_stm32f407xx.o(RESET) refers to startup_stm32f407xx.o(STACK) for __initial_sp
    startup_stm32f407xx.o(RESET) refers to startup_stm32f407xx.o(.text) for Reset_Handler
    startup_stm32f407xx.o(RESET) refers to stm32f4xx_it.o(i.NMI_Handler) for NMI_Handler
    startup_stm32f407xx.o(RESET) refers to stm32f4xx_it.o(i.HardFault_Handler) for HardFault_Handler
    startup_stm32f407xx.o(RESET) refers to stm32f4xx_it.o(i.MemManage_Handler) for MemManage_Handler
    startup_stm32f407xx.o(RESET) refers to stm32f4xx_it.o(i.BusFault_Handler) for BusFault_Handler
    startup_stm32f407xx.o(RESET) refers to stm32f4xx_it.o(i.UsageFault_Handler) for UsageFault_Handler
    startup_stm32f407xx.o(RESET) refers to stm32f4xx_it.o(i.SVC_Handler) for SVC_Handler
    startup_stm32f407xx.o(RESET) refers to stm32f4xx_it.o(i.DebugMon_Handler) for DebugMon_Handler
    startup_stm32f407xx.o(RESET) refers to stm32f4xx_it.o(i.PendSV_Handler) for PendSV_Handler
    startup_stm32f407xx.o(RESET) refers to stm32f4xx_it.o(i.SysTick_Handler) for SysTick_Handler
    startup_stm32f407xx.o(RESET) refers to stm32f4xx_it.o(i.RCC_IRQHandler) for RCC_IRQHandler
    startup_stm32f407xx.o(RESET) refers to stm32f4xx_it.o(i.TIM7_IRQHandler) for TIM7_IRQHandler
    startup_stm32f407xx.o(RESET) refers to app_ethernet.o(i.ETH_IRQHandler) for ETH_IRQHandler
    startup_stm32f407xx.o(.text) refers to system_stm32f4xx.o(i.SystemInit) for SystemInit
    startup_stm32f407xx.o(.text) refers to entry.o(.ARM.Collect$$$$00000000) for __main
    main.o(i.HAL_TIM_PeriodElapsedCallback) refers to ethernetif.o(i.ethernetif_input) for ethernetif_input
    main.o(i.HAL_TIM_PeriodElapsedCallback) refers to timeouts.o(i.sys_check_timeouts) for sys_check_timeouts
==============================================================================

Removing Unused input sections from the image.

    Removing startup_stm32f407xx.o(HEAP), (1024 bytes).
    Removing main.o(.rev16_text), (4 bytes).
    Removing main.o(.revsh_text), (4 bytes).
    Removing main.o(.rrx_text), (6 bytes).
    Removing main.o(.data), (8 bytes).
    Removing main.o(.data), (8 bytes).
    Removing main.o(.data), (8 bytes).
    Removing main.o(.data), (8 bytes).
    Removing stm32f4xx_hal_msp.o(.rev16_text), (4 bytes).
    Removing stm32f4xx_hal_msp.o(.revsh_text), (4 bytes).
    Removing stm32f4xx_hal_msp.o(.rrx_text), (6 bytes).
    Removing stm32f4xx_it.o(.rev16_text), (4 bytes).
    Removing stm32f4xx_it.o(.revsh_text), (4 bytes).
    Removing stm32f4xx_it.o(.rrx_text), (6 bytes).
    Removing app_ethernet.o(.rev16_text), (4 bytes).
    Removing app_ethernet.o(.revsh_text), (4 bytes).
    Removing app_ethernet.o(.rrx_text), (6 bytes).
    Removing app_ethernet.o(i.ETH_PHY_WriteReg), (28 bytes).
==============================================================================

Image Symbol Table

    Local Symbols

    Symbol Name                              Value     Ov Type        Size  Object(Section)

    ../Drivers/STM32F4xx_HAL_Driver/Src/stm32f4xx_hal.c 0x00000000   Number         0  stm32f4xx_hal.o ABSOLUTE
    ../Drivers/STM32F4xx_HAL_Driver/Src/stm32f4xx_hal_cortex.c 0x00000000   Number         0  stm32f4xx_hal_cortex.o ABSOLUTE
    ../Drivers/STM32F4xx_HAL_Driver/Src/stm32f4xx_hal_dma.c 0x00000000   Number         0  stm32f4xx_hal_dma.o ABSOLUTE
    ../Drivers/STM32F4xx_HAL_Driver/Src/stm32f4xx_hal_dma_ex.c 0x00000000   Number         0  stm32f4xx_hal_dma_ex.o ABSOLUTE
    ../Drivers/STM32F4xx_HAL_Driver/Src/stm32f4xx_hal_flash.c 0x00000000   Number         0  stm32f4xx_hal_flash.o ABSOLUTE
    ../Drivers/STM32F4xx_HAL_Driver/Src/stm32f4xx_hal_flash_ex.c 0x00000000   Number         0  stm32f4xx_hal_flash_ex.o ABSOLUTE
    ../Drivers/STM32F4xx_HAL_Driver/Src/stm32f4xx_hal_gpio.c 0x00000000   Number         0  stm32f4xx_hal_gpio.o ABSOLUTE
    ../Drivers/STM32F4xx_HAL_Driver/Src/stm32f4xx_hal_pwr.c 0x00000000   Number         0  stm32f4xx_hal_pwr.o ABSOLUTE
    ../Drivers/STM32F4xx_HAL_Driver/Src/stm32f4xx_hal_pwr_ex.c 0x00000000   Number         0  stm32f4xx_hal_pwr_ex.o ABSOLUTE
    ../Drivers/STM32F4xx_HAL_Driver/Src/stm32f4xx_hal_rcc.c 0x00000000   Number         0  stm32f4xx_hal_rcc.o ABSOLUTE
    ../Drivers/STM32F4xx_HAL_Driver/Src/stm32f4xx_hal_rcc_ex.c 0x00000000   Number         0  stm32f4xx_hal_rcc_ex.o ABSOLUTE
    ../Drivers/STM32F4xx_HAL_Driver/Src/stm32f4xx_hal_tim.c 0x00000000   Number         0  stm32f4xx_hal_tim.o ABSOLUTE
    ../Drivers/STM32F4xx_HAL_Driver/Src/stm32f4xx_hal_tim_ex.c 0x00000000   Number         0  stm32f4xx_hal_tim_ex.o ABSOLUTE
    ../Drivers/STM32F4xx_HAL_Driver/Src/stm32f4xx_hal_uart.c 0x00000000   Number         0  stm32f4xx_hal_uart.o ABSOLUTE
    ../Src/main.c                            0x00000000   Number         0  main.o ABSOLUTE
    ../Src/stm32f4xx_hal_msp.c               0x00000000   Number         0  stm32f4xx_hal_msp.o ABSOLUTE
    ../Src/stm32f4xx_it.c                    0x00000000   Number         0  stm32f4xx_it.o ABSOLUTE
    ../Src/system_stm32f4xx.c                0x00000000   Number         0  system_stm32f4xx.o ABSOLUTE
    ../clib/microlib/division.c              0x00000000   Number         0  uldiv.o ABSOLUTE
    ../clib/microlib/division.c              0x00000000   Number         0  uidiv.o ABSOLUTE
    ../clib/microlib/init/entry.s            0x00000000   Number         0  entry5.o ABSOLUTE
    ../clib/microlib/init/entry.s            0x00000000   Number         0  entry2.o ABSOLUTE
    ../clib/microlib/init/entry.s            0x00000000   Number         0  entry10a.o ABSOLUTE
    ../clib/microlib/init/entry.s            0x00000000   Number         0  entry.o ABSOLUTE
    ../clib/microlib/init/entry.s            0x00000000   Number         0  entry9b.o ABSOLUTE
    ../clib/microlib/init/entry.s            0x00000000   Number         0  entry9a.o ABSOLUTE
    ../clib/microlib/init/entry.s            0x00000000   Number         0  entry11a.o ABSOLUTE
    ../clib/microlib/init/entry.s            0x00000000   Number         0  entry8b.o ABSOLUTE
    ../clib/microlib/init/entry.s            0x00000000   Number         0  entry11b.o ABSOLUTE
    ../clib/microlib/init/entry.s            0x00000000   Number         0  entry7b.o ABSOLUTE
    ../clib/microlib/init/entry.s            0x00000000   Number         0  entry7a.o ABSOLUTE
    ../clib/microlib/init/entry.s            0x00000000   Number         0  entry10b.o ABSOLUTE
    ../clib/microlib/init/entry.s            0x00000000   Number         0  entry8a.o ABSOLUTE
    ../clib/microlib/longlong.c              0x00000000   Number         0  llushr.o ABSOLUTE
    ../clib/microlib/longlong.c              0x00000000   Number         0  llsshr.o ABSOLUTE
    ../clib/microlib/longlong.c              0x00000000   Number         0  llshl.o ABSOLUTE
    ../clib/microlib/printf/printf.c         0x00000000   Number         0  printf2.o ABSOLUTE
    ../clib/microlib/printf/printf.c         0x00000000   Number         0  printf3.o ABSOLUTE
    ../clib/microlib/printf/printf.c         0x00000000   Number         0  printf4.o ABSOLUTE
    ../clib/microlib/printf/printf.c         0x00000000   Number         0  printf0.o ABSOLUTE
    ../clib/microlib/printf/printf.c         0x00000000   Number         0  printf5.o ABSOLUTE
    ../clib/microlib/printf/printf.c         0x00000000   Number         0  printf6.o ABSOLUTE
    ../clib/microlib/printf/printf.c         0x00000000   Number         0  printf7.o ABSOLUTE
    ../clib/microlib/printf/printf.c         0x00000000   Number         0  printf8.o ABSOLUTE
    ../clib/microlib/printf/printf.c         0x00000000   Number         0  printfa.o ABSOLUTE
    ../clib/microlib/printf/printf.c         0x00000000   Number         0  printfb.o ABSOLUTE
    ../clib/microlib/printf/printf.c         0x00000000   Number         0  printf1.o ABSOLUTE
    ../clib/microlib/printf/stubs.s          0x00000000   Number         0  stubs.o ABSOLUTE
    ../clib/microlib/stdio/streams.c         0x00000000   Number         0  stdout.o ABSOLUTE
    ../clib/microlib/stdlib/rand.c           0x00000000   Number         0  rand.o ABSOLUTE
    ../clib/microlib/string/memcmp.c         0x00000000   Number         0  memcmp.o ABSOLUTE
    ../clib/microlib/string/memcpy.c         0x00000000   Number         0  memcpya.o ABSOLUTE
    ../clib/microlib/string/memcpy.c         0x00000000   Number         0  memcpyb.o ABSOLUTE
    ../clib/microlib/string/memset.c         0x00000000   Number         0  memseta.o ABSOLUTE
    ../clib/microlib/string/strlen.c         0x00000000   Number         0  strlen.o ABSOLUTE
    ../clib/microlib/string/strncmp.c        0x00000000   Number         0  strncmp.o ABSOLUTE
    ../clib/microlib/stubs.s                 0x00000000   Number         0  iusefp.o ABSOLUTE
    ../fplib/microlib/fpadd.c                0x00000000   Number         0  dadd.o ABSOLUTE
    ../fplib/microlib/fpdiv.c                0x00000000   Number         0  ddiv.o ABSOLUTE
    ../fplib/microlib/fpepilogue.c           0x00000000   Number         0  depilogue.o ABSOLUTE
    ../fplib/microlib/fpfix.c                0x00000000   Number         0  dfixul.o ABSOLUTE
    ../fplib/microlib/fpmul.c                0x00000000   Number         0  dmul.o ABSOLUTE
    ..\Drivers\STM32F4xx_HAL_Driver\Src\stm32f4xx_hal.c 0x00000000   Number         0  stm32f4xx_hal.o ABSOLUTE
    ..\Drivers\STM32F4xx_HAL_Driver\Src\stm32f4xx_hal_adc.c 0x00000000   Number         0  stm32f4xx_hal_adc.o ABSOLUTE
    ..\Drivers\STM32F4xx_HAL_Driver\Src\stm32f4xx_hal_adc_ex.c 0x00000000   Number         0  stm32f4xx_hal_adc_ex.o ABSOLUTE
    ..\Drivers\STM32F4xx_HAL_Driver\Src\stm32f4xx_hal_can.c 0x00000000   Number         0  stm32f4xx_hal_can.o ABSOLUTE
    ..\Drivers\STM32F4xx_HAL_Driver\Src\stm32f4xx_hal_cortex.c 0x00000000   Number         0  stm32f4xx_hal_cortex.o ABSOLUTE
    ..\Drivers\STM32F4xx_HAL_Driver\Src\stm32f4xx_hal_crc.c 0x00000000   Number         0  stm32f4xx_hal_crc.o ABSOLUTE
    ..\Drivers\STM32F4xx_HAL_Driver\Src\stm32f4xx_hal_dac.c 0x00000000   Number         0  stm32f4xx_hal_dac.o ABSOLUTE
    ..\Drivers\STM32F4xx_HAL_Driver\Src\stm32f4xx_hal_dac_ex.c 0x00000000   Number         0  stm32f4xx_hal_dac_ex.o ABSOLUTE
    ..\Drivers\STM32F4xx_HAL_Driver\Src\stm32f4xx_hal_dma.c 0x00000000   Number         0  stm32f4xx_hal_dma.o ABSOLUTE
    ..\Drivers\STM32F4xx_HAL_Driver\Src\stm32f4xx_hal_dma_ex.c 0x00000000   Number         0  stm32f4xx_hal_dma_ex.o ABSOLUTE
    ..\Drivers\STM32F4xx_HAL_Driver\Src\stm32f4xx_hal_eth.c 0x00000000   Number         0  stm32f4xx_hal_eth.o ABSOLUTE
    ..\Drivers\STM32F4xx_HAL_Driver\Src\stm32f4xx_hal_flash.c 0x00000000   Number         0  stm32f4xx_hal_flash.o ABSOLUTE
    ..\Drivers\STM32F4xx_HAL_Driver\Src\stm32f4xx_hal_flash_ex.c 0x00000000   Number         0  stm32f4xx_hal_flash_ex.o ABSOLUTE
    ..\Drivers\STM32F4xx_HAL_Driver\Src\stm32f4xx_hal_gpio.c 0x00000000   Number         0  stm32f4xx_hal_gpio.o ABSOLUTE
    ..\Drivers\STM32F4xx_HAL_Driver\Src\stm32f4xx_hal_hcd.c 0x00000000   Number         0  stm32f4xx_hal_hcd.o ABSOLUTE
    ..\Drivers\STM32F4xx_HAL_Driver\Src\stm32f4xx_hal_i2c.c 0x00000000   Number         0  stm32f4xx_hal_i2c.o ABSOLUTE
    ..\Drivers\STM32F4xx_HAL_Driver\Src\stm32f4xx_hal_i2c_ex.c 0x00000000   Number         0  stm32f4xx_hal_i2c_ex.o ABSOLUTE
    ..\Drivers\STM32F4xx_HAL_Driver\Src\stm32f4xx_hal_iwdg.c 0x00000000   Number         0  stm32f4xx_hal_iwdg.o ABSOLUTE
    ..\Drivers\STM32F4xx_HAL_Driver\Src\stm32f4xx_hal_pcd.c 0x00000000   Number         0  stm32f4xx_hal_pcd.o ABSOLUTE
    ..\Drivers\STM32F4xx_HAL_Driver\Src\stm32f4xx_hal_pcd_ex.c 0x00000000   Number         0  stm32f4xx_hal_pcd_ex.o ABSOLUTE
    ..\Drivers\STM32F4xx_HAL_Driver\Src\stm32f4xx_hal_pwr.c 0x00000000   Number         0  stm32f4xx_hal_pwr.o ABSOLUTE
    ..\Drivers\STM32F4xx_HAL_Driver\Src\stm32f4xx_hal_pwr_ex.c 0x00000000   Number         0  stm32f4xx_hal_pwr_ex.o ABSOLUTE
    ..\Drivers\STM32F4xx_HAL_Driver\Src\stm32f4xx_hal_rcc.c 0x00000000   Number         0  stm32f4xx_hal_rcc.o ABSOLUTE
    ..\Drivers\STM32F4xx_HAL_Driver\Src\stm32f4xx_hal_rcc_ex.c 0x00000000   Number         0  stm32f4xx_hal_rcc_ex.o ABSOLUTE
    ..\Drivers\STM32F4xx_HAL_Driver\Src\stm32f4xx_hal_rng.c 0x00000000   Number         0  stm32f4xx_hal_rng.o ABSOLUTE
    ..\Drivers\STM32F4xx_HAL_Driver\Src\stm32f4xx_hal_rtc.c 0x00000000   Number         0  stm32f4xx_hal_rtc.o ABSOLUTE
    ..\Drivers\STM32F4xx_HAL_Driver\Src\stm32f4xx_hal_rtc_ex.c 0x00000000   Number         0  stm32f4xx_hal_rtc_ex.o ABSOLUTE
    ..\Drivers\STM32F4xx_HAL_Driver\Src\stm32f4xx_hal_spi.c 0x00000000   Number         0  stm32f4xx_hal_spi.o ABSOLUTE
    ..\Drivers\STM32F4xx_HAL_Driver\Src\stm32f4xx_hal_sram.c 0x00000000   Number         0  stm32f4xx_hal_sram.o ABSOLUTE
    ..\Drivers\STM32F4xx_HAL_Driver\Src\stm32f4xx_hal_tim.c 0x00000000   Number         0  stm32f4xx_hal_tim.o ABSOLUTE
    ..\Drivers\STM32F4xx_HAL_Driver\Src\stm32f4xx_hal_tim_ex.c 0x00000000   Number         0  stm32f4xx_hal_tim_ex.o ABSOLUTE
    ..\Drivers\STM32F4xx_HAL_Driver\Src\stm32f4xx_hal_uart.c 0x00000000   Number         0  stm32f4xx_hal_uart.o ABSOLUTE
    ..\Drivers\STM32F4xx_HAL_Driver\Src\stm32f4xx_hal_usart.c 0x00000000   Number         0  stm32f4xx_hal_usart.o ABSOLUTE
    ..\Drivers\STM32F4xx_HAL_Driver\Src\stm32f4xx_hal_wwdg.c 0x00000000   Number         0  stm32f4xx_hal_wwdg.o ABSOLUTE
    ..\Drivers\STM32F4xx_HAL_Driver\Src\stm32f4xx_ll_fsmc.c 0x00000000   Number         0  stm32f4xx_ll_fsmc.o ABSOLUTE
    ..\Drivers\STM32F4xx_HAL_Driver\Src\stm32f4xx_ll_usb.c 0x00000000   Number         0  stm32f4xx_ll_usb.o ABSOLUTE
    ..\Middlewares\LwIP\src\api\api_lib.c    0x00000000   Number         0  api_lib.o ABSOLUTE
    ..\Middlewares\LwIP\src\api\api_msg.c    0x00000000   Number         0  api_msg.o ABSOLUTE
    ..\Middlewares\LwIP\src\api\err.c        0x00000000   Number         0  err.o ABSOLUTE
    ..\Middlewares\LwIP\src\api\netbuf.c     0x00000000   Number         0  netbuf.o ABSOLUTE
    ..\Middlewares\LwIP\src\api\netdb.c      0x00000000   Number         0  netdb.o ABSOLUTE
    ..\Middlewares\LwIP\src\api\netifapi.c   0x00000000   Number         0  netifapi.o ABSOLUTE
    ..\Middlewares\LwIP\src\api\sockets.c    0x00000000   Number         0  sockets.o ABSOLUTE
    ..\Middlewares\LwIP\src\api\tcpip.c      0x00000000   Number         0  tcpip.o ABSOLUTE
    ..\Middlewares\LwIP\src\core\def.c       0x00000000   Number         0  def.o ABSOLUTE
    ..\Middlewares\LwIP\src\core\dns.c       0x00000000   Number         0  dns.o ABSOLUTE
    ..\Middlewares\LwIP\src\core\inet_chksum.c 0x00000000   Number         0  inet_chksum.o ABSOLUTE
    ..\Middlewares\LwIP\src\core\init.c      0x00000000   Number         0  init.o ABSOLUTE
    ..\Middlewares\LwIP\src\core\ip.c        0x00000000   Number         0  ip.o ABSOLUTE
    ..\Middlewares\LwIP\src\core\ipv4\autoip.c 0x00000000   Number         0  autoip.o ABSOLUTE
    ..\Middlewares\LwIP\src\core\ipv4\dhcp.c 0x00000000   Number         0  dhcp.o ABSOLUTE
    ..\Middlewares\LwIP\src\core\ipv4\etharp.c 0x00000000   Number         0  etharp.o ABSOLUTE
    ..\Middlewares\LwIP\src\core\ipv4\icmp.c 0x00000000   Number         0  icmp.o ABSOLUTE
    ..\Middlewares\LwIP\src\core\ipv4\igmp.c 0x00000000   Number         0  igmp.o ABSOLUTE
    ..\Middlewares\LwIP\src\core\ipv4\ip4.c  0x00000000   Number         0  ip4.o ABSOLUTE
    ..\Middlewares\LwIP\src\core\ipv4\ip4_addr.c 0x00000000   Number         0  ip4_addr.o ABSOLUTE
    ..\Middlewares\LwIP\src\core\ipv4\ip4_frag.c 0x00000000   Number         0  ip4_frag.o ABSOLUTE
    ..\Middlewares\LwIP\src\core\mem.c       0x00000000   Number         0  mem.o ABSOLUTE
    ..\Middlewares\LwIP\src\core\memp.c      0x00000000   Number         0  memp.o ABSOLUTE
    ..\Middlewares\LwIP\src\core\netif.c     0x00000000   Number         0  netif.o ABSOLUTE
    ..\Middlewares\LwIP\src\core\pbuf.c      0x00000000   Number         0  pbuf.o ABSOLUTE
    ..\Middlewares\LwIP\src\core\raw.c       0x00000000   Number         0  raw.o ABSOLUTE
    ..\Middlewares\LwIP\src\core\stats.c     0x00000000   Number         0  stats.o ABSOLUTE
    ..\Middlewares\LwIP\src\core\sys.c       0x00000000   Number         0  sys.o ABSOLUTE
    ..\Middlewares\LwIP\src\core\tcp.c       0x00000000   Number         0  tcp.o ABSOLUTE
    ..\Middlewares\LwIP\src\core\tcp_in.c    0x00000000   Number         0  tcp_in.o ABSOLUTE
    ..\Middlewares\LwIP\src\core\tcp_out.c   0x00000000   Number         0  tcp_out.o ABSOLUTE
    ..\Middlewares\LwIP\src\core\timeouts.c  0x00000000   Number         0  timeouts.o ABSOLUTE
    ..\Middlewares\LwIP\src\core\udp.c       0x00000000   Number         0  udp.o ABSOLUTE
    ..\Middlewares\LwIP\src\netif\ethernet.c 0x00000000   Number         0  ethernet.o ABSOLUTE
    ..\Src\app_ethernet.c                    0x00000000   Number         0  app_ethernet.o ABSOLUTE
    ..\Src\bsp\bsp_BasicTIM.c                0x00000000   Number         0  bsp_basictim.o ABSOLUTE
    ..\Src\bsp\key\bsp_key.c                 0x00000000   Number         0  bsp_key.o ABSOLUTE
    ..\Src\bsp\usart\bsp_debug_usart.c       0x00000000   Number         0  bsp_debug_usart.o ABSOLUTE
    ..\Src\ethernetif.c                      0x00000000   Number         0  ethernetif.o ABSOLUTE
    ..\Src\main.c                            0x00000000   Number         0  main.o ABSOLUTE
    ..\Src\stm32f4xx_assert.c                0x00000000   Number         0  stm32f4xx_assert.o ABSOLUTE
    ..\Src\stm32f4xx_hal_msp.c               0x00000000   Number         0  stm32f4xx_hal_msp.o ABSOLUTE
    ..\Src\stm32f4xx_it.c                    0x00000000   Number         0  stm32f4xx_it.o ABSOLUTE
    ..\Src\system_stm32f4xx.c                0x00000000   Number         0  system_stm32f4xx.o ABSOLUTE
    ..\Src\tcp_echoserver.c                  0x00000000   Number         0  tcp_echoserver.o ABSOLUTE
    ..\\Drivers\\STM32F4xx_HAL_Driver\\Src\\stm32f4xx_hal_adc.c 0x00000000   Number         0  stm32f4xx_hal_adc.o ABSOLUTE
    ..\\Drivers\\STM32F4xx_HAL_Driver\\Src\\stm32f4xx_hal_adc_ex.c 0x00000000   Number         0  stm32f4xx_hal_adc_ex.o ABSOLUTE
    ..\\Drivers\\STM32F4xx_HAL_Driver\\Src\\stm32f4xx_hal_can.c 0x00000000   Number         0  stm32f4xx_hal_can.o ABSOLUTE
    ..\\Drivers\\STM32F4xx_HAL_Driver\\Src\\stm32f4xx_hal_crc.c 0x00000000   Number         0  stm32f4xx_hal_crc.o ABSOLUTE
    ..\\Drivers\\STM32F4xx_HAL_Driver\\Src\\stm32f4xx_hal_dac.c 0x00000000   Number         0  stm32f4xx_hal_dac.o ABSOLUTE
    ..\\Drivers\\STM32F4xx_HAL_Driver\\Src\\stm32f4xx_hal_dac_ex.c 0x00000000   Number         0  stm32f4xx_hal_dac_ex.o ABSOLUTE
    ..\\Drivers\\STM32F4xx_HAL_Driver\\Src\\stm32f4xx_hal_eth.c 0x00000000   Number         0  stm32f4xx_hal_eth.o ABSOLUTE
    ..\\Drivers\\STM32F4xx_HAL_Driver\\Src\\stm32f4xx_hal_hcd.c 0x00000000   Number         0  stm32f4xx_hal_hcd.o ABSOLUTE
    ..\\Drivers\\STM32F4xx_HAL_Driver\\Src\\stm32f4xx_hal_i2c.c 0x00000000   Number         0  stm32f4xx_hal_i2c.o ABSOLUTE
    ..\\Drivers\\STM32F4xx_HAL_Driver\\Src\\stm32f4xx_hal_i2c_ex.c 0x00000000   Number         0  stm32f4xx_hal_i2c_ex.o ABSOLUTE
    ..\\Drivers\\STM32F4xx_HAL_Driver\\Src\\stm32f4xx_hal_iwdg.c 0x00000000   Number         0  stm32f4xx_hal_iwdg.o ABSOLUTE
    ..\\Drivers\\STM32F4xx_HAL_Driver\\Src\\stm32f4xx_hal_pcd.c 0x00000000   Number         0  stm32f4xx_hal_pcd.o ABSOLUTE
    ..\\Drivers\\STM32F4xx_HAL_Driver\\Src\\stm32f4xx_hal_pcd_ex.c 0x00000000   Number         0  stm32f4xx_hal_pcd_ex.o ABSOLUTE
    ..\\Drivers\\STM32F4xx_HAL_Driver\\Src\\stm32f4xx_hal_rng.c 0x00000000   Number         0  stm32f4xx_hal_rng.o ABSOLUTE
    ..\\Drivers\\STM32F4xx_HAL_Driver\\Src\\stm32f4xx_hal_rtc.c 0x00000000   Number         0  stm32f4xx_hal_rtc.o ABSOLUTE
    ..\\Drivers\\STM32F4xx_HAL_Driver\\Src\\stm32f4xx_hal_rtc_ex.c 0x00000000   Number         0  stm32f4xx_hal_rtc_ex.o ABSOLUTE
    ..\\Drivers\\STM32F4xx_HAL_Driver\\Src\\stm32f4xx_hal_spi.c 0x00000000   Number         0  stm32f4xx_hal_spi.o ABSOLUTE
    ..\\Drivers\\STM32F4xx_HAL_Driver\\Src\\stm32f4xx_hal_sram.c 0x00000000   Number         0  stm32f4xx_hal_sram.o ABSOLUTE
    ..\\Drivers\\STM32F4xx_HAL_Driver\\Src\\stm32f4xx_hal_usart.c 0x00000000   Number         0  stm32f4xx_hal_usart.o ABSOLUTE
    ..\\Drivers\\STM32F4xx_HAL_Driver\\Src\\stm32f4xx_hal_wwdg.c 0x00000000   Number         0  stm32f4xx_hal_wwdg.o ABSOLUTE
    ..\\Drivers\\STM32F4xx_HAL_Driver\\Src\\stm32f4xx_ll_fsmc.c 0x00000000   Number         0  stm32f4xx_ll_fsmc.o ABSOLUTE
    ..\\Drivers\\STM32F4xx_HAL_Driver\\Src\\stm32f4xx_ll_usb.c 0x00000000   Number         0  stm32f4xx_ll_usb.o ABSOLUTE
    ..\\Middlewares\\LwIP\\src\\core\\tcp_out.c 0x00000000   Number         0  tcp_out.o ABSOLUTE
    ..\\Src\\app_ethernet.c                  0x00000000   Number         0  app_ethernet.o ABSOLUTE
    ..\\Src\\bsp\\bsp_BasicTIM.c             0x00000000   Number         0  bsp_basictim.o ABSOLUTE
    ..\\Src\\bsp\\key\\bsp_key.c             0x00000000   Number         0  bsp_key.o ABSOLUTE
    ..\\Src\\bsp\\usart\\bsp_debug_usart.c   0x00000000   Number         0  bsp_debug_usart.o ABSOLUTE
    ..\\Src\\ethernetif.c                    0x00000000   Number         0  ethernetif.o ABSOLUTE
    ..\\Src\\stm32f4xx_assert.c              0x00000000   Number         0  stm32f4xx_assert.o ABSOLUTE
    ..\\Src\\tcp_echoserver.c                0x00000000   Number         0  tcp_echoserver.o ABSOLUTE
    cdrcmple.s                               0x00000000   Number         0  cdrcmple.o ABSOLUTE
    dc.s                                     0x00000000   Number         0  dc.o ABSOLUTE
    handlers.s                               0x00000000   Number         0  handlers.o ABSOLUTE
    init.s                                   0x00000000   Number         0  init.o ABSOLUTE
    startup_stm32f407xx.s                    0x00000000   Number         0  startup_stm32f407xx.o ABSOLUTE
    RESET                                    0x08000000   Section      392  startup_stm32f407xx.o(RESET)
    .ARM.Collect$$$$00000000                 0x08000188   Section        0  entry.o(.ARM.Collect$$$$00000000)
    .ARM.Collect$$$$00000001                 0x08000188   Section        4  entry2.o(.ARM.Collect$$$$00000001)
    .ARM.Collect$$$$00000004                 0x0800018c   Section        4  entry5.o(.ARM.Collect$$$$00000004)
    .ARM.Collect$$$$00000008                 0x08000190   Section        0  entry7b.o(.ARM.Collect$$$$00000008)
    .ARM.Collect$$$$0000000A                 0x08000190   Section        0  entry8b.o(.ARM.Collect$$$$0000000A)
    .ARM.Collect$$$$0000000B                 0x08000190   Section        8  entry9a.o(.ARM.Collect$$$$0000000B)
    .ARM.Collect$$$$0000000D                 0x08000198   Section        0  entry10a.o(.ARM.Collect$$$$0000000D)
    .ARM.Collect$$$$0000000F                 0x08000198   Section        0  entry11a.o(.ARM.Collect$$$$0000000F)
    .ARM.Collect$$$$00002712                 0x08000198   Section        4  entry2.o(.ARM.Collect$$$$00002712)
    __lit__00000000                          0x08000198   Data           4  entry2.o(.ARM.Collect$$$$00002712)
    .text                                    0x0800019c   Section       36  startup_stm32f407xx.o(.text)
    $v0                                      0x0800019c   Number         0  startup_stm32f407xx.o(.text)
    .text                                    0x080001c0   Section        0  rand.o(.text)
    .text                                    0x080001e4   Section        0  memcpya.o(.text)
    .text                                    0x08000208   Section        0  memseta.o(.text)
    .text                                    0x0800022c   Section        0  strlen.o(.text)
    .text                                    0x0800023a   Section        0  memcmp.o(.text)
    .text                                    0x08000254   Section        0  uidiv.o(.text)
    .text                                    0x08000280   Section       36  init.o(.text)
    i.BASIC_TIM7_Init                        0x080002a4   Section        0  bsp_basictim.o(i.BASIC_TIM7_Init)
    i.BusFault_Handler                       0x080002e0   Section        0  stm32f4xx_it.o(i.BusFault_Handler)
    i.DHCP_Periodic_Handle                   0x080002e4   Section        0  app_ethernet.o(i.DHCP_Periodic_Handle)
    i.DHCP_Process                           0x08000310   Section        0  app_ethernet.o(i.DHCP_Process)
    i.DebugMon_Handler                       0x08000550   Section        0  stm32f4xx_it.o(i.DebugMon_Handler)
    i.ETH_DMAReceptionEnable                 0x08000552   Section        0  stm32f4xx_hal_eth.o(i.ETH_DMAReceptionEnable)
    ETH_DMAReceptionEnable                   0x08000553   Thumb Code    16  stm32f4xx_hal_eth.o(i.ETH_DMAReceptionEnable)
    i.ETH_DMATransmissionEnable              0x08000562   Section        0  stm32f4xx_hal_eth.o(i.ETH_DMATransmissionEnable)
    ETH_DMATransmissionEnable                0x08000563   Thumb Code    16  stm32f4xx_hal_eth.o(i.ETH_DMATransmissionEnable)
    i.ETH_Delay                              0x08000574   Section        0  stm32f4xx_hal_eth.o(i.ETH_Delay)
    ETH_Delay                                0x08000575   Thumb Code    32  stm32f4xx_hal_eth.o(i.ETH_Delay)
    i.ETH_FlushTransmitFIFO                  0x08000598   Section        0  stm32f4xx_hal_eth.o(i.ETH_FlushTransmitFIFO)
    ETH_FlushTransmitFIFO                    0x08000599   Thumb Code    46  stm32f4xx_hal_eth.o(i.ETH_FlushTransmitFIFO)
    i.ETH_IRQHandler                         0x080005c8   Section        0  app_ethernet.o(i.ETH_IRQHandler)
    i.ETH_MACAddressConfig                   0x080005e8   Section        0  stm32f4xx_hal_eth.o(i.ETH_MACAddressConfig)
    ETH_MACAddressConfig                     0x080005e9   Thumb Code    42  stm32f4xx_hal_eth.o(i.ETH_MACAddressConfig)
    i.ETH_MACDMAConfig                       0x08000614   Section        0  stm32f4xx_hal_eth.o(i.ETH_MACDMAConfig)
    ETH_MACDMAConfig                         0x08000615   Thumb Code   390  stm32f4xx_hal_eth.o(i.ETH_MACDMAConfig)
    i.ETH_MACReceptionEnable                 0x080007a8   Section        0  stm32f4xx_hal_eth.o(i.ETH_MACReceptionEnable)
    ETH_MACReceptionEnable                   0x080007a9   Thumb Code    34  stm32f4xx_hal_eth.o(i.ETH_MACReceptionEnable)
    i.ETH_MACTransmissionEnable              0x080007ca   Section        0  stm32f4xx_hal_eth.o(i.ETH_MACTransmissionEnable)
    ETH_MACTransmissionEnable                0x080007cb   Thumb Code    34  stm32f4xx_hal_eth.o(i.ETH_MACTransmissionEnable)
    i.ETH_PHY_ReadReg                        0x080007ec   Section        0  app_ethernet.o(i.ETH_PHY_ReadReg)
    i.ETH_link_check_state                   0x08000808   Section        0  app_ethernet.o(i.ETH_link_check_state)
    i.Ethernet_Link_Periodic_Handle          0x08000894   Section        0  app_ethernet.o(i.Ethernet_Link_Periodic_Handle)
    i.GetPinStateOfKey1                      0x080008bc   Section        0  bsp_key.o(i.GetPinStateOfKey1)
    i.HAL_Delay                              0x080008d4   Section        0  stm32f4xx_hal.o(i.HAL_Delay)
    i.HAL_ETH_ConfigMAC                      0x080008f4   Section        0  stm32f4xx_hal_eth.o(i.HAL_ETH_ConfigMAC)
    i.HAL_ETH_DMARxDescListInit              0x08000a2c   Section        0  stm32f4xx_hal_eth.o(i.HAL_ETH_DMARxDescListInit)
    i.HAL_ETH_DMATxDescListInit              0x08000aac   Section        0  stm32f4xx_hal_eth.o(i.HAL_ETH_DMATxDescListInit)
    i.HAL_ETH_GetReceivedFrame_IT            0x08000b3a   Section        0  stm32f4xx_hal_eth.o(i.HAL_ETH_GetReceivedFrame_IT)
    i.HAL_ETH_Init                           0x08000bdc   Section        0  stm32f4xx_hal_eth.o(i.HAL_ETH_Init)
    i.HAL_ETH_MspInit                        0x08000e4c   Section        0  ethernetif.o(i.HAL_ETH_MspInit)
    i.HAL_ETH_ReadPHYRegister                0x08000f54   Section        0  stm32f4xx_hal_eth.o(i.HAL_ETH_ReadPHYRegister)
    i.HAL_ETH_Start                          0x08000fe0   Section        0  stm32f4xx_hal_eth.o(i.HAL_ETH_Start)
    i.HAL_ETH_TransmitFrame                  0x08001026   Section        0  stm32f4xx_hal_eth.o(i.HAL_ETH_TransmitFrame)
    i.HAL_ETH_WritePHYRegister               0x0800115c   Section        0  stm32f4xx_hal_eth.o(i.HAL_ETH_WritePHYRegister)
    i.HAL_GPIO_Init                          0x080011e0   Section        0  stm32f4xx_hal_gpio.o(i.HAL_GPIO_Init)
    i.HAL_GPIO_ReadPin                       0x080013fc   Section        0  stm32f4xx_hal_gpio.o(i.HAL_GPIO_ReadPin)
    i.HAL_GPIO_WritePin                      0x0800140a   Section        0  stm32f4xx_hal_gpio.o(i.HAL_GPIO_WritePin)
    i.HAL_GetTick                            0x08001418   Section        0  stm32f4xx_hal.o(i.HAL_GetTick)
    i.HAL_IncTick                            0x08001424   Section        0  stm32f4xx_hal.o(i.HAL_IncTick)
    i.HAL_Init                               0x08001434   Section        0  stm32f4xx_hal.o(i.HAL_Init)
    i.HAL_InitTick                           0x08001468   Section        0  stm32f4xx_hal.o(i.HAL_InitTick)
    i.HAL_MspInit                            0x08001490   Section        0  stm32f4xx_hal_msp.o(i.HAL_MspInit)
    i.HAL_NVIC_EnableIRQ                     0x080014f8   Section        0  stm32f4xx_hal_cortex.o(i.HAL_NVIC_EnableIRQ)
    i.HAL_NVIC_SetPriority                   0x08001510   Section        0  stm32f4xx_hal_cortex.o(i.HAL_NVIC_SetPriority)
    i.HAL_NVIC_SetPriorityGrouping           0x08001578   Section        0  stm32f4xx_hal_cortex.o(i.HAL_NVIC_SetPriorityGrouping)
    i.HAL_RCC_ClockConfig                    0x0800159c   Section        0  stm32f4xx_hal_rcc.o(i.HAL_RCC_ClockConfig)
    i.HAL_RCC_EnableCSS                      0x0800178c   Section        0  stm32f4xx_hal_rcc.o(i.HAL_RCC_EnableCSS)
    i.HAL_RCC_GetHCLKFreq                    0x08001798   Section        0  stm32f4xx_hal_rcc.o(i.HAL_RCC_GetHCLKFreq)
    i.HAL_RCC_GetPCLK1Freq                   0x080017a4   Section        0  stm32f4xx_hal_rcc.o(i.HAL_RCC_GetPCLK1Freq)
    i.HAL_RCC_GetPCLK2Freq                   0x080017d0   Section        0  stm32f4xx_hal_rcc.o(i.HAL_RCC_GetPCLK2Freq)
    i.HAL_RCC_GetSysClockFreq                0x080017fc   Section        0  stm32f4xx_hal_rcc.o(i.HAL_RCC_GetSysClockFreq)
    i.HAL_RCC_OscConfig                      0x08001888   Section        0  stm32f4xx_hal_rcc.o(i.HAL_RCC_OscConfig)
    i.HAL_SYSTICK_CLKSourceConfig            0x08001cc8   Section        0  stm32f4xx_hal_cortex.o(i.HAL_SYSTICK_CLKSourceConfig)
    i.HAL_SYSTICK_Callback                   0x08001ce4   Section        0  stm32f4xx_hal_cortex.o(i.HAL_SYSTICK_Callback)
    i.HAL_SYSTICK_Config                     0x08001ce8   Section        0  stm32f4xx_hal_cortex.o(i.HAL_SYSTICK_Config)
    i.HAL_SYSTICK_IRQHandler                 0x08001d10   Section        0  stm32f4xx_hal_cortex.o(i.HAL_SYSTICK_IRQHandler)
    i.HAL_TIMEx_BreakCallback                0x08001d18   Section        0  stm32f4xx_hal_tim_ex.o(i.HAL_TIMEx_BreakCallback)
    i.HAL_TIMEx_CommutationCallback          0x08001d1a   Section        0  stm32f4xx_hal_tim_ex.o(i.HAL_TIMEx_CommutationCallback)
    i.HAL_TIMEx_MasterConfigSynchronization  0x08001d1c   Section        0  stm32f4xx_hal_tim_ex.o(i.HAL_TIMEx_MasterConfigSynchronization)
    i.HAL_TIM_Base_Init                      0x08001d82   Section        0  stm32f4xx_hal_tim.o(i.HAL_TIM_Base_Init)
    i.HAL_TIM_Base_MspInit                   0x08001dbc   Section        0  bsp_basictim.o(i.HAL_TIM_Base_MspInit)
    i.HAL_TIM_Base_Start_IT                  0x08001df8   Section        0  stm32f4xx_hal_tim.o(i.HAL_TIM_Base_Start_IT)
    i.HAL_TIM_IC_CaptureCallback             0x08001e10   Section        0  stm32f4xx_hal_tim.o(i.HAL_TIM_IC_CaptureCallback)
    i.HAL_TIM_IRQHandler                     0x08001e12   Section        0  stm32f4xx_hal_tim.o(i.HAL_TIM_IRQHandler)
    i.HAL_TIM_OC_DelayElapsedCallback        0x08001f86   Section        0  stm32f4xx_hal_tim.o(i.HAL_TIM_OC_DelayElapsedCallback)
    i.HAL_TIM_PWM_PulseFinishedCallback      0x08001f88   Section        0  stm32f4xx_hal_tim.o(i.HAL_TIM_PWM_PulseFinishedCallback)
    i.HAL_TIM_PeriodElapsedCallback          0x08001f8c   Section        0  main.o(i.HAL_TIM_PeriodElapsedCallback)
    i.HAL_TIM_TriggerCallback                0x08001fac   Section        0  stm32f4xx_hal_tim.o(i.HAL_TIM_TriggerCallback)
    i.HAL_UART_Init                          0x08001fae   Section        0  stm32f4xx_hal_uart.o(i.HAL_UART_Init)
    i.HAL_UART_MspInit                       0x08002014   Section        0  bsp_debug_usart.o(i.HAL_UART_MspInit)
    i.HAL_UART_Transmit                      0x08002060   Section        0  stm32f4xx_hal_uart.o(i.HAL_UART_Transmit)
    i.HardFault_Handler                      0x0800213c   Section        0  stm32f4xx_it.o(i.HardFault_Handler)
    i.KEY_GPIO_Init                          0x08002140   Section        0  bsp_key.o(i.KEY_GPIO_Init)
    i.KeyCreate                              0x080021f8   Section        0  bsp_key.o(i.KeyCreate)
    i.Key_AccessTimes                        0x08002208   Section        0  bsp_key.o(i.Key_AccessTimes)
    i.Key_RefreshState                       0x08002216   Section        0  bsp_key.o(i.Key_RefreshState)
    i.MX_DEBUG_USART_Init                    0x0800229c   Section        0  bsp_debug_usart.o(i.MX_DEBUG_USART_Init)
    i.MemManage_Handler                      0x080022e0   Section        0  stm32f4xx_it.o(i.MemManage_Handler)
    i.NMI_Handler                            0x080022e2   Section        0  stm32f4xx_it.o(i.NMI_Handler)
    i.Netif_Config                           0x080022e4   Section        0  app_ethernet.o(i.Netif_Config)
    i.PendSV_Handler                         0x08002334   Section        0  stm32f4xx_it.o(i.PendSV_Handler)
    i.RCC_IRQHandler                         0x08002336   Section        0  stm32f4xx_it.o(i.RCC_IRQHandler)
    i.SVC_Handler                            0x08002338   Section        0  stm32f4xx_it.o(i.SVC_Handler)
    i.SysTick_Handler                        0x0800233a   Section        0  stm32f4xx_it.o(i.SysTick_Handler)
    i.SystemClock_Config                     0x08002348   Section        0  main.o(i.SystemClock_Config)
    i.SystemInit                             0x080023e4   Section        0  system_stm32f4xx.o(i.SystemInit)
    i.TIM7_IRQHandler                        0x0800243c   Section        0  stm32f4xx_it.o(i.TIM7_IRQHandler)
    i.TIM_Base_SetConfig                     0x08002448   Section        0  stm32f4xx_hal_tim.o(i.TIM_Base_SetConfig)
    i.UART_SetConfig                         0x08002510   Section        0  stm32f4xx_hal_uart.o(i.UART_SetConfig)
    UART_SetConfig                           0x08002511   Thumb Code   822  stm32f4xx_hal_uart.o(i.UART_SetConfig)
    i.UART_WaitOnFlagUntilTimeout            0x08002854   Section        0  stm32f4xx_hal_uart.o(i.UART_WaitOnFlagUntilTimeout)
    UART_WaitOnFlagUntilTimeout              0x08002855   Thumb Code   120  stm32f4xx_hal_uart.o(i.UART_WaitOnFlagUntilTimeout)
    i.UsageFault_Handler                     0x080028cc   Section        0  stm32f4xx_it.o(i.UsageFault_Handler)
    i.YSF4_TCP_SENDData                      0x080028d0   Section        0  tcp_echoserver.o(i.YSF4_TCP_SENDData)
    i.__0printf$3                            0x08002abc   Section        0  printf3.o(i.__0printf$3)
    i.__0sprintf$3                           0x08002adc   Section        0  printf3.o(i.__0sprintf$3)
    i.__scatterload_copy                     0x08002b04   Section       14  handlers.o(i.__scatterload_copy)
    i.__scatterload_null                     0x08002b12   Section        2  handlers.o(i.__scatterload_null)
    i.__scatterload_zeroinit                 0x08002b14   Section       14  handlers.o(i.__scatterload_zeroinit)
    i._printf_core                           0x08002b24   Section        0  printf3.o(i._printf_core)
    _printf_core                             0x08002b25   Thumb Code   436  printf3.o(i._printf_core)
    i._sputc                                 0x08002cdc   Section        0  printf3.o(i._sputc)
    _sputc                                   0x08002cdd   Thumb Code    10  printf3.o(i._sputc)
    i.cyclic_timer                           0x08002ce8   Section        0  timeouts.o(i.cyclic_timer)
    cyclic_timer                             0x08002ce9   Thumb Code    22  timeouts.o(i.cyclic_timer)
    i.dhcp_arp_reply                         0x08002d04   Section        0  dhcp.o(i.dhcp_arp_reply)
    i.dhcp_bind                              0x08002d24   Section        0  dhcp.o(i.dhcp_bind)
    dhcp_bind                                0x08002d25   Thumb Code   234  dhcp.o(i.dhcp_bind)
    i.dhcp_check                             0x08002e14   Section        0  dhcp.o(i.dhcp_check)
    dhcp_check                               0x08002e15   Thumb Code    52  dhcp.o(i.dhcp_check)
    i.dhcp_coarse_tmr                        0x08002e48   Section        0  dhcp.o(i.dhcp_coarse_tmr)
    i.dhcp_create_msg                        0x08002eb0   Section        0  dhcp.o(i.dhcp_create_msg)
    dhcp_create_msg                          0x08002eb1   Thumb Code   300  dhcp.o(i.dhcp_create_msg)
    i.dhcp_dec_pcb_refcount                  0x08002fe4   Section        0  dhcp.o(i.dhcp_dec_pcb_refcount)
    dhcp_dec_pcb_refcount                    0x08002fe5   Thumb Code    28  dhcp.o(i.dhcp_dec_pcb_refcount)
    i.dhcp_decline                           0x08003004   Section        0  dhcp.o(i.dhcp_decline)
    dhcp_decline                             0x08003005   Thumb Code   130  dhcp.o(i.dhcp_decline)
    i.dhcp_delete_msg                        0x08003094   Section        0  dhcp.o(i.dhcp_delete_msg)
    dhcp_delete_msg                          0x08003095   Thumb Code    24  dhcp.o(i.dhcp_delete_msg)
    i.dhcp_discover                          0x080030ac   Section        0  dhcp.o(i.dhcp_discover)
    dhcp_discover                            0x080030ad   Thumb Code   200  dhcp.o(i.dhcp_discover)
    i.dhcp_fine_tmr                          0x08003184   Section        0  dhcp.o(i.dhcp_fine_tmr)
    i.dhcp_handle_ack                        0x080031b8   Section        0  dhcp.o(i.dhcp_handle_ack)
    dhcp_handle_ack                          0x080031b9   Thumb Code   104  dhcp.o(i.dhcp_handle_ack)
    i.dhcp_handle_nak                        0x08003224   Section        0  dhcp.o(i.dhcp_handle_nak)
    dhcp_handle_nak                          0x08003225   Thumb Code    34  dhcp.o(i.dhcp_handle_nak)
    i.dhcp_handle_offer                      0x0800324c   Section        0  dhcp.o(i.dhcp_handle_offer)
    dhcp_handle_offer                        0x0800324d   Thumb Code    42  dhcp.o(i.dhcp_handle_offer)
    i.dhcp_inc_pcb_refcount                  0x08003280   Section        0  dhcp.o(i.dhcp_inc_pcb_refcount)
    dhcp_inc_pcb_refcount                    0x08003281   Thumb Code    70  dhcp.o(i.dhcp_inc_pcb_refcount)
    i.dhcp_network_changed                   0x080032d4   Section        0  dhcp.o(i.dhcp_network_changed)
    i.dhcp_option                            0x08003304   Section        0  dhcp.o(i.dhcp_option)
    dhcp_option                              0x08003305   Thumb Code    34  dhcp.o(i.dhcp_option)
    i.dhcp_option_byte                       0x08003326   Section        0  dhcp.o(i.dhcp_option_byte)
    dhcp_option_byte                         0x08003327   Thumb Code    14  dhcp.o(i.dhcp_option_byte)
    i.dhcp_option_long                       0x08003334   Section        0  dhcp.o(i.dhcp_option_long)
    dhcp_option_long                         0x08003335   Thumb Code    68  dhcp.o(i.dhcp_option_long)
    i.dhcp_option_short                      0x08003378   Section        0  dhcp.o(i.dhcp_option_short)
    dhcp_option_short                        0x08003379   Thumb Code    32  dhcp.o(i.dhcp_option_short)
    i.dhcp_option_trailer                    0x08003398   Section        0  dhcp.o(i.dhcp_option_trailer)
    dhcp_option_trailer                      0x08003399   Thumb Code    50  dhcp.o(i.dhcp_option_trailer)
    i.dhcp_parse_reply                       0x080033cc   Section        0  dhcp.o(i.dhcp_parse_reply)
    dhcp_parse_reply                         0x080033cd   Thumb Code   690  dhcp.o(i.dhcp_parse_reply)
    i.dhcp_rebind                            0x08003688   Section        0  dhcp.o(i.dhcp_rebind)
    dhcp_rebind                              0x08003689   Thumb Code   172  dhcp.o(i.dhcp_rebind)
    i.dhcp_reboot                            0x08003740   Section        0  dhcp.o(i.dhcp_reboot)
    dhcp_reboot                              0x08003741   Thumb Code   198  dhcp.o(i.dhcp_reboot)
    i.dhcp_recv                              0x08003814   Section        0  dhcp.o(i.dhcp_recv)
    dhcp_recv                                0x08003815   Thumb Code   246  dhcp.o(i.dhcp_recv)
    i.dhcp_release                           0x08003918   Section        0  dhcp.o(i.dhcp_release)
    i.dhcp_renew                             0x080039cc   Section        0  dhcp.o(i.dhcp_renew)
    i.dhcp_select                            0x08003a84   Section        0  dhcp.o(i.dhcp_select)
    dhcp_select                              0x08003a85   Thumb Code   244  dhcp.o(i.dhcp_select)
    i.dhcp_set_state                         0x08003b88   Section        0  dhcp.o(i.dhcp_set_state)
    dhcp_set_state                           0x08003b89   Thumb Code    16  dhcp.o(i.dhcp_set_state)
    i.dhcp_start                             0x08003b98   Section        0  dhcp.o(i.dhcp_start)
    i.dhcp_stop                              0x08003c2c   Section        0  dhcp.o(i.dhcp_stop)
    i.dhcp_supplied_address                  0x08003c50   Section        0  dhcp.o(i.dhcp_supplied_address)
    i.dhcp_t1_timeout                        0x08003c6e   Section        0  dhcp.o(i.dhcp_t1_timeout)
    dhcp_t1_timeout                          0x08003c6f   Thumb Code    42  dhcp.o(i.dhcp_t1_timeout)
    i.dhcp_t2_timeout                        0x08003c98   Section        0  dhcp.o(i.dhcp_t2_timeout)
    dhcp_t2_timeout                          0x08003c99   Thumb Code    46  dhcp.o(i.dhcp_t2_timeout)
    i.dhcp_timeout                           0x08003cc6   Section        0  dhcp.o(i.dhcp_timeout)
    dhcp_timeout                             0x08003cc7   Thumb Code   124  dhcp.o(i.dhcp_timeout)
    i.do_memp_free_pool                      0x08003d42   Section        0  memp.o(i.do_memp_free_pool)
    do_memp_free_pool                        0x08003d43   Thumb Code    12  memp.o(i.do_memp_free_pool)
    i.do_memp_malloc_pool                    0x08003d4e   Section        0  memp.o(i.do_memp_malloc_pool)
    do_memp_malloc_pool                      0x08003d4f   Thumb Code    18  memp.o(i.do_memp_malloc_pool)
    i.etharp_cleanup_netif                   0x08003d60   Section        0  etharp.o(i.etharp_cleanup_netif)
    i.etharp_find_entry                      0x08003d90   Section        0  etharp.o(i.etharp_find_entry)
    etharp_find_entry                        0x08003d91   Thumb Code   262  etharp.o(i.etharp_find_entry)
    i.etharp_free_entry                      0x08003e9c   Section        0  etharp.o(i.etharp_free_entry)
    etharp_free_entry                        0x08003e9d   Thumb Code    34  etharp.o(i.etharp_free_entry)
    i.etharp_input                           0x08003ec4   Section        0  etharp.o(i.etharp_input)
    i.etharp_output                          0x08003f8c   Section        0  etharp.o(i.etharp_output)
    i.etharp_output_to_arp_index             0x08004098   Section        0  etharp.o(i.etharp_output_to_arp_index)
    etharp_output_to_arp_index               0x08004099   Thumb Code    92  etharp.o(i.etharp_output_to_arp_index)
    i.etharp_query                           0x080040f8   Section        0  etharp.o(i.etharp_query)
    i.etharp_raw                             0x08004220   Section        0  etharp.o(i.etharp_raw)
    etharp_raw                               0x08004221   Thumb Code   138  etharp.o(i.etharp_raw)
    i.etharp_request                         0x080042ac   Section        0  etharp.o(i.etharp_request)
    i.etharp_request_dst                     0x080042b8   Section        0  etharp.o(i.etharp_request_dst)
    etharp_request_dst                       0x080042b9   Thumb Code    36  etharp.o(i.etharp_request_dst)
    i.etharp_tmr                             0x080042e0   Section        0  etharp.o(i.etharp_tmr)
    i.etharp_update_arp_entry                0x08004344   Section        0  etharp.o(i.etharp_update_arp_entry)
    etharp_update_arp_entry                  0x08004345   Thumb Code   126  etharp.o(i.etharp_update_arp_entry)
    i.ethernet_input                         0x080043c8   Section        0  ethernet.o(i.ethernet_input)
    i.ethernet_link_check_state              0x08004470   Section        0  ethernetif.o(i.ethernet_link_check_state)
    i.ethernet_link_status_updated           0x08004554   Section        0  app_ethernet.o(i.ethernet_link_status_updated)
    i.ethernet_output                        0x080045d0   Section        0  ethernet.o(i.ethernet_output)
    i.ethernetif_init                        0x08004624   Section        0  ethernetif.o(i.ethernetif_init)
    i.ethernetif_input                       0x0800464c   Section        0  ethernetif.o(i.ethernetif_input)
    i.fputc                                  0x08004674   Section        0  bsp_debug_usart.o(i.fputc)
    i.icmp_dest_unreach                      0x08004690   Section        0  icmp.o(i.icmp_dest_unreach)
    i.icmp_input                             0x08004698   Section        0  icmp.o(i.icmp_input)
    i.icmp_send_response                     0x080047dc   Section        0  icmp.o(i.icmp_send_response)
    icmp_send_response                       0x080047dd   Thumb Code   114  icmp.o(i.icmp_send_response)
    i.icmp_time_exceeded                     0x0800484e   Section        0  icmp.o(i.icmp_time_exceeded)
    i.inet_chksum_pbuf                       0x08004856   Section        0  inet_chksum.o(i.inet_chksum_pbuf)
    i.ip4_addr_isbroadcast_u32               0x080048a2   Section        0  ip4_addr.o(i.ip4_addr_isbroadcast_u32)
    i.ip4_frag                               0x080048f4   Section        0  ip4_frag.o(i.ip4_frag)
    i.ip4_input                              0x08004a98   Section        0  ip4.o(i.ip4_input)
    i.ip4_output_if                          0x08004c8c   Section        0  ip4.o(i.ip4_output_if)
    i.ip4_output_if_src                      0x08004cb8   Section        0  ip4.o(i.ip4_output_if_src)
    i.ip4_reass                              0x08004d74   Section        0  ip4_frag.o(i.ip4_reass)
    i.ip4_route                              0x08004ef4   Section        0  ip4.o(i.ip4_route)
    i.ip4addr_ntoa                           0x08004f68   Section        0  ip4_addr.o(i.ip4addr_ntoa)
    i.ip4addr_ntoa_r                         0x08004f74   Section        0  ip4_addr.o(i.ip4addr_ntoa_r)
    i.ip_frag_alloc_pbuf_custom_ref          0x08005024   Section        0  ip4_frag.o(i.ip_frag_alloc_pbuf_custom_ref)
    ip_frag_alloc_pbuf_custom_ref            0x08005025   Thumb Code     6  ip4_frag.o(i.ip_frag_alloc_pbuf_custom_ref)
    i.ip_frag_free_pbuf_custom_ref           0x0800502a   Section        0  ip4_frag.o(i.ip_frag_free_pbuf_custom_ref)
    ip_frag_free_pbuf_custom_ref             0x0800502b   Thumb Code     8  ip4_frag.o(i.ip_frag_free_pbuf_custom_ref)
    i.ip_reass_chain_frag_into_datagram_and_validate 0x08005034   Section        0  ip4_frag.o(i.ip_reass_chain_frag_into_datagram_and_validate)
    ip_reass_chain_frag_into_datagram_and_validate 0x08005035   Thumb Code   244  ip4_frag.o(i.ip_reass_chain_frag_into_datagram_and_validate)
    i.ip_reass_dequeue_datagram              0x0800512c   Section        0  ip4_frag.o(i.ip_reass_dequeue_datagram)
    ip_reass_dequeue_datagram                0x0800512d   Thumb Code    28  ip4_frag.o(i.ip_reass_dequeue_datagram)
    i.ip_reass_enqueue_new_datagram          0x0800514c   Section        0  ip4_frag.o(i.ip_reass_enqueue_new_datagram)
    ip_reass_enqueue_new_datagram            0x0800514d   Thumb Code    94  ip4_frag.o(i.ip_reass_enqueue_new_datagram)
    i.ip_reass_free_complete_datagram        0x080051b0   Section        0  ip4_frag.o(i.ip_reass_free_complete_datagram)
    ip_reass_free_complete_datagram          0x080051b1   Thumb Code   120  ip4_frag.o(i.ip_reass_free_complete_datagram)
    i.ip_reass_remove_oldest_datagram        0x0800522c   Section        0  ip4_frag.o(i.ip_reass_remove_oldest_datagram)
    ip_reass_remove_oldest_datagram          0x0800522d   Thumb Code   118  ip4_frag.o(i.ip_reass_remove_oldest_datagram)
    i.ip_reass_tmr                           0x080052a8   Section        0  ip4_frag.o(i.ip_reass_tmr)
    i.ipfrag_free_pbuf_custom                0x080052d8   Section        0  ip4_frag.o(i.ipfrag_free_pbuf_custom)
    ipfrag_free_pbuf_custom                  0x080052d9   Thumb Code    24  ip4_frag.o(i.ipfrag_free_pbuf_custom)
    i.low_level_init                         0x080052f0   Section        0  ethernetif.o(i.low_level_init)
    low_level_init                           0x080052f1   Thumb Code   224  ethernetif.o(i.low_level_init)
    i.low_level_input                        0x0800540c   Section        0  ethernetif.o(i.low_level_input)
    low_level_input                          0x0800540d   Thumb Code   192  ethernetif.o(i.low_level_input)
    i.low_level_output                       0x080054d0   Section        0  ethernetif.o(i.low_level_output)
    low_level_output                         0x080054d1   Thumb Code   180  ethernetif.o(i.low_level_output)
    i.lwip_IT_handle                         0x08005588   Section        0  ethernetif.o(i.lwip_IT_handle)
    i.lwip_htonl                             0x08005594   Section        0  def.o(i.lwip_htonl)
    i.lwip_htons                             0x080055ac   Section        0  def.o(i.lwip_htons)
    i.lwip_init                              0x080055b6   Section        0  init.o(i.lwip_init)
    i.lwip_standard_chksum                   0x080055d4   Section        0  inet_chksum.o(i.lwip_standard_chksum)
    i.main                                   0x08005630   Section        0  main.o(i.main)
    i.mem_free                               0x0800566c   Section        0  mem.o(i.mem_free)
    i.mem_init                               0x08005698   Section        0  mem.o(i.mem_init)
    i.mem_malloc                             0x080056cc   Section        0  mem.o(i.mem_malloc)
    i.mem_trim                               0x0800578c   Section        0  mem.o(i.mem_trim)
    i.memp_free                              0x08005870   Section        0  memp.o(i.memp_free)
    i.memp_init                              0x08005888   Section        0  memp.o(i.memp_init)
    i.memp_init_pool                         0x080058a4   Section        0  memp.o(i.memp_init_pool)
    i.memp_malloc                            0x080058d4   Section        0  memp.o(i.memp_malloc)
    i.netif_add                              0x080058ec   Section        0  netif.o(i.netif_add)
    i.netif_init                             0x08005944   Section        0  netif.o(i.netif_init)
    i.netif_issue_reports                    0x08005946   Section        0  netif.o(i.netif_issue_reports)
    netif_issue_reports                      0x08005947   Thumb Code    30  netif.o(i.netif_issue_reports)
    i.netif_set_addr                         0x08005964   Section        0  netif.o(i.netif_set_addr)
    i.netif_set_default                      0x080059b0   Section        0  netif.o(i.netif_set_default)
    i.netif_set_down                         0x080059bc   Section        0  netif.o(i.netif_set_down)
    i.netif_set_gw                           0x080059da   Section        0  netif.o(i.netif_set_gw)
    i.netif_set_ipaddr                       0x080059e8   Section        0  netif.o(i.netif_set_ipaddr)
    i.netif_set_link_callback                0x08005a30   Section        0  netif.o(i.netif_set_link_callback)
    i.netif_set_link_down                    0x08005a38   Section        0  netif.o(i.netif_set_link_down)
    i.netif_set_link_up                      0x08005a54   Section        0  netif.o(i.netif_set_link_up)
    i.netif_set_netmask                      0x08005a92   Section        0  netif.o(i.netif_set_netmask)
    i.netif_set_up                           0x08005aa0   Section        0  netif.o(i.netif_set_up)
    i.pbuf_alloc                             0x08005ac0   Section        0  pbuf.o(i.pbuf_alloc)
    i.pbuf_alloced_custom                    0x08005bfa   Section        0  pbuf.o(i.pbuf_alloced_custom)
    i.pbuf_cat                               0x08005c62   Section        0  pbuf.o(i.pbuf_cat)
    i.pbuf_chain                             0x08005c8a   Section        0  pbuf.o(i.pbuf_chain)
    i.pbuf_clen                              0x08005c9e   Section        0  pbuf.o(i.pbuf_clen)
    i.pbuf_copy                              0x08005cb2   Section        0  pbuf.o(i.pbuf_copy)
    i.pbuf_copy_partial                      0x08005d5a   Section        0  pbuf.o(i.pbuf_copy_partial)
    i.pbuf_free                              0x08005dca   Section        0  pbuf.o(i.pbuf_free)
    i.pbuf_header                            0x08005e28   Section        0  pbuf.o(i.pbuf_header)
    i.pbuf_header_force                      0x08005e2e   Section        0  pbuf.o(i.pbuf_header_force)
    i.pbuf_header_impl                       0x08005e34   Section        0  pbuf.o(i.pbuf_header_impl)
    pbuf_header_impl                         0x08005e35   Thumb Code   138  pbuf.o(i.pbuf_header_impl)
    i.pbuf_realloc                           0x08005ebe   Section        0  pbuf.o(i.pbuf_realloc)
    i.pbuf_ref                               0x08005f1a   Section        0  pbuf.o(i.pbuf_ref)
    i.pbuf_take                              0x08005f26   Section        0  pbuf.o(i.pbuf_take)
    i.plug_holes                             0x08005f84   Section        0  mem.o(i.plug_holes)
    plug_holes                               0x08005f85   Thumb Code    98  mem.o(i.plug_holes)
    i.sys_check_timeouts                     0x08005fec   Section        0  timeouts.o(i.sys_check_timeouts)
    i.sys_now                                0x08006038   Section        0  ethernetif.o(i.sys_now)
    i.sys_timeout                            0x0800603c   Section        0  timeouts.o(i.sys_timeout)
    i.sys_timeouts_init                      0x080060e4   Section        0  timeouts.o(i.sys_timeouts_init)
    i.tcp_abandon                            0x08006114   Section        0  tcp.o(i.tcp_abandon)
    i.tcp_abort                              0x080061e8   Section        0  tcp.o(i.tcp_abort)
    i.tcp_accept                             0x080061ee   Section        0  tcp.o(i.tcp_accept)
    i.tcp_accept_null                        0x080061fc   Section        0  tcp.o(i.tcp_accept_null)
    tcp_accept_null                          0x080061fd   Thumb Code    14  tcp.o(i.tcp_accept_null)
    i.tcp_alloc                              0x0800620c   Section        0  tcp.o(i.tcp_alloc)
    i.tcp_arg                                0x080062bc   Section        0  tcp.o(i.tcp_arg)
    i.tcp_bind                               0x080062c4   Section        0  tcp.o(i.tcp_bind)
    i.tcp_close                              0x08006360   Section        0  tcp.o(i.tcp_close)
    i.tcp_close_shutdown                     0x08006374   Section        0  tcp.o(i.tcp_close_shutdown)
    tcp_close_shutdown                       0x08006375   Thumb Code   368  tcp.o(i.tcp_close_shutdown)
    i.tcp_create_segment                     0x08006500   Section        0  tcp_out.o(i.tcp_create_segment)
    tcp_create_segment                       0x08006501   Thumb Code   154  tcp_out.o(i.tcp_create_segment)
    i.tcp_echoserver_accept                  0x0800659c   Section        0  tcp_echoserver.o(i.tcp_echoserver_accept)
    tcp_echoserver_accept                    0x0800659d   Thumb Code   130  tcp_echoserver.o(i.tcp_echoserver_accept)
    i.tcp_echoserver_connection_close        0x08006654   Section        0  tcp_echoserver.o(i.tcp_echoserver_connection_close)
    tcp_echoserver_connection_close          0x08006655   Thumb Code    66  tcp_echoserver.o(i.tcp_echoserver_connection_close)
    i.tcp_echoserver_error                   0x08006696   Section        0  tcp_echoserver.o(i.tcp_echoserver_error)
    tcp_echoserver_error                     0x08006697   Thumb Code    10  tcp_echoserver.o(i.tcp_echoserver_error)
    i.tcp_echoserver_poll                    0x080066a0   Section        0  tcp_echoserver.o(i.tcp_echoserver_poll)
    tcp_echoserver_poll                      0x080066a1   Thumb Code    42  tcp_echoserver.o(i.tcp_echoserver_poll)
    i.tcp_echoserver_recv                    0x080066cc   Section        0  tcp_echoserver.o(i.tcp_echoserver_recv)
    tcp_echoserver_recv                      0x080066cd   Thumb Code   204  tcp_echoserver.o(i.tcp_echoserver_recv)
    i.tcp_echoserver_send                    0x080067b4   Section        0  tcp_echoserver.o(i.tcp_echoserver_send)
    tcp_echoserver_send                      0x080067b5   Thumb Code   108  tcp_echoserver.o(i.tcp_echoserver_send)
    i.tcp_eff_send_mss_impl                  0x08006828   Section        0  tcp.o(i.tcp_eff_send_mss_impl)
    i.tcp_enqueue_flags                      0x0800684e   Section        0  tcp_out.o(i.tcp_enqueue_flags)
    i.tcp_err                                0x0800690c   Section        0  tcp.o(i.tcp_err)
    i.tcp_fasttmr                            0x08006918   Section        0  tcp.o(i.tcp_fasttmr)
    i.tcp_getoptbyte                         0x0800698c   Section        0  tcp_in.o(i.tcp_getoptbyte)
    tcp_getoptbyte                           0x0800698d   Thumb Code    54  tcp_in.o(i.tcp_getoptbyte)
    i.tcp_init                               0x080069c8   Section        0  tcp.o(i.tcp_init)
    i.tcp_input                              0x080069cc   Section        0  tcp_in.o(i.tcp_input)
    i.tcp_keepalive                          0x08006dac   Section        0  tcp_out.o(i.tcp_keepalive)
    i.tcp_kill_prio                          0x08006e04   Section        0  tcp.o(i.tcp_kill_prio)
    tcp_kill_prio                            0x08006e05   Thumb Code    68  tcp.o(i.tcp_kill_prio)
    i.tcp_kill_state                         0x08006e4c   Section        0  tcp.o(i.tcp_kill_state)
    tcp_kill_state                           0x08006e4d   Thumb Code    58  tcp.o(i.tcp_kill_state)
    i.tcp_kill_timewait                      0x08006e8c   Section        0  tcp.o(i.tcp_kill_timewait)
    tcp_kill_timewait                        0x08006e8d   Thumb Code    46  tcp.o(i.tcp_kill_timewait)
    i.tcp_listen_closed                      0x08006ec0   Section        0  tcp.o(i.tcp_listen_closed)
    tcp_listen_closed                        0x08006ec1   Thumb Code    28  tcp.o(i.tcp_listen_closed)
    i.tcp_listen_input                       0x08006ee0   Section        0  tcp_in.o(i.tcp_listen_input)
    tcp_listen_input                         0x08006ee1   Thumb Code   240  tcp_in.o(i.tcp_listen_input)
    i.tcp_listen_with_backlog                0x08006fec   Section        0  tcp.o(i.tcp_listen_with_backlog)
    i.tcp_netif_ip_addr_changed              0x0800707c   Section        0  tcp.o(i.tcp_netif_ip_addr_changed)
    i.tcp_netif_ip_addr_changed_pcblist      0x080070cc   Section        0  tcp.o(i.tcp_netif_ip_addr_changed_pcblist)
    tcp_netif_ip_addr_changed_pcblist        0x080070cd   Thumb Code    36  tcp.o(i.tcp_netif_ip_addr_changed_pcblist)
    i.tcp_new                                0x080070f0   Section        0  tcp.o(i.tcp_new)
    i.tcp_new_port                           0x080070f8   Section        0  tcp.o(i.tcp_new_port)
    tcp_new_port                             0x080070f9   Thumb Code    88  tcp.o(i.tcp_new_port)
    i.tcp_next_iss                           0x08007158   Section        0  tcp.o(i.tcp_next_iss)
    i.tcp_output                             0x08007168   Section        0  tcp_out.o(i.tcp_output)
    i.tcp_output_alloc_header                0x08007368   Section        0  tcp_out.o(i.tcp_output_alloc_header)
    tcp_output_alloc_header                  0x08007369   Thumb Code   106  tcp_out.o(i.tcp_output_alloc_header)
    i.tcp_output_segment                     0x080073d4   Section        0  tcp_out.o(i.tcp_output_segment)
    tcp_output_segment                       0x080073d5   Thumb Code   176  tcp_out.o(i.tcp_output_segment)
    i.tcp_parseopt                           0x08007488   Section        0  tcp_in.o(i.tcp_parseopt)
    tcp_parseopt                             0x08007489   Thumb Code   114  tcp_in.o(i.tcp_parseopt)
    i.tcp_pbuf_prealloc                      0x08007500   Section        0  tcp_out.o(i.tcp_pbuf_prealloc)
    tcp_pbuf_prealloc                        0x08007501   Thumb Code    86  tcp_out.o(i.tcp_pbuf_prealloc)
    i.tcp_pcb_purge                          0x08007556   Section        0  tcp.o(i.tcp_pcb_purge)
    i.tcp_pcb_remove                         0x08007590   Section        0  tcp.o(i.tcp_pcb_remove)
    i.tcp_poll                               0x080075fc   Section        0  tcp.o(i.tcp_poll)
    i.tcp_process                            0x08007604   Section        0  tcp_in.o(i.tcp_process)
    tcp_process                              0x08007605   Thumb Code  1172  tcp_in.o(i.tcp_process)
    i.tcp_process_refused_data               0x08007a98   Section        0  tcp.o(i.tcp_process_refused_data)
    i.tcp_receive                            0x08007b14   Section        0  tcp_in.o(i.tcp_receive)
    tcp_receive                              0x08007b15   Thumb Code  1068  tcp_in.o(i.tcp_receive)
    i.tcp_recv                               0x08007f40   Section        0  tcp.o(i.tcp_recv)
    i.tcp_recv_null                          0x08007f48   Section        0  tcp.o(i.tcp_recv_null)
    i.tcp_recved                             0x08007f70   Section        0  tcp.o(i.tcp_recved)
    i.tcp_remove_listener                    0x08007fcc   Section        0  tcp.o(i.tcp_remove_listener)
    tcp_remove_listener                      0x08007fcd   Thumb Code    22  tcp.o(i.tcp_remove_listener)
    i.tcp_rexmit                             0x08007fe2   Section        0  tcp_out.o(i.tcp_rexmit)
    i.tcp_rexmit_fast                        0x08008034   Section        0  tcp_out.o(i.tcp_rexmit_fast)
    i.tcp_rexmit_rto                         0x0800809c   Section        0  tcp_out.o(i.tcp_rexmit_rto)
    i.tcp_rst                                0x080080e4   Section        0  tcp_out.o(i.tcp_rst)
    i.tcp_seg_free                           0x0800816c   Section        0  tcp.o(i.tcp_seg_free)
    i.tcp_segs_free                          0x0800818a   Section        0  tcp.o(i.tcp_segs_free)
    i.tcp_send_empty_ack                     0x0800819e   Section        0  tcp_out.o(i.tcp_send_empty_ack)
    i.tcp_send_fin                           0x08008212   Section        0  tcp_out.o(i.tcp_send_fin)
    i.tcp_sent                               0x0800825c   Section        0  tcp.o(i.tcp_sent)
    i.tcp_server_usersent                    0x08008264   Section        0  tcp_echoserver.o(i.tcp_server_usersent)
    i.tcp_setprio                            0x080082f0   Section        0  tcp.o(i.tcp_setprio)
    i.tcp_slowtmr                            0x080082f4   Section        0  tcp.o(i.tcp_slowtmr)
    i.tcp_timer_needed                       0x0800859c   Section        0  timeouts.o(i.tcp_timer_needed)
    i.tcp_timewait_input                     0x080085d0   Section        0  tcp_in.o(i.tcp_timewait_input)
    tcp_timewait_input                       0x080085d1   Thumb Code   126  tcp_in.o(i.tcp_timewait_input)
    i.tcp_tmr                                0x08008668   Section        0  tcp.o(i.tcp_tmr)
    i.tcp_trigger_input_pcb_close            0x0800868c   Section        0  tcp_in.o(i.tcp_trigger_input_pcb_close)
    i.tcp_update_rcv_ann_wnd                 0x0800869c   Section        0  tcp.o(i.tcp_update_rcv_ann_wnd)
    i.tcp_write                              0x080086da   Section        0  tcp_out.o(i.tcp_write)
    i.tcp_write_checks                       0x080089ae   Section        0  tcp_out.o(i.tcp_write_checks)
    tcp_write_checks                         0x080089af   Thumb Code    78  tcp_out.o(i.tcp_write_checks)
    i.tcp_zero_window_probe                  0x080089fc   Section        0  tcp_out.o(i.tcp_zero_window_probe)
    i.tcpip_tcp_timer                        0x08008ac8   Section        0  timeouts.o(i.tcpip_tcp_timer)
    tcpip_tcp_timer                          0x08008ac9   Thumb Code    40  timeouts.o(i.tcpip_tcp_timer)
    i.udp_bind                               0x08008b00   Section        0  udp.o(i.udp_bind)
    i.udp_connect                            0x08008b8c   Section        0  udp.o(i.udp_connect)
    i.udp_init                               0x08008be4   Section        0  udp.o(i.udp_init)
    i.udp_input                              0x08008be8   Section        0  udp.o(i.udp_input)
    i.udp_input_local_match                  0x08008d2c   Section        0  udp.o(i.udp_input_local_match)
    udp_input_local_match                    0x08008d2d   Thumb Code    52  udp.o(i.udp_input_local_match)
    i.udp_netif_ip_addr_changed              0x08008d64   Section        0  udp.o(i.udp_netif_ip_addr_changed)
    i.udp_new                                0x08008d9c   Section        0  udp.o(i.udp_new)
    i.udp_new_port                           0x08008dc0   Section        0  udp.o(i.udp_new_port)
    udp_new_port                             0x08008dc1   Thumb Code    70  udp.o(i.udp_new_port)
    i.udp_recv                               0x08008e0c   Section        0  udp.o(i.udp_recv)
    i.udp_remove                             0x08008e14   Section        0  udp.o(i.udp_remove)
    i.udp_sendto_if                          0x08008e44   Section        0  udp.o(i.udp_sendto_if)
    i.udp_sendto_if_src                      0x08008e8c   Section        0  udp.o(i.udp_sendto_if_src)
    .constdata                               0x08008f46   Section       16  system_stm32f4xx.o(.constdata)
    .constdata                               0x08008f56   Section        8  system_stm32f4xx.o(.constdata)
    .constdata                               0x08008f60   Section        4  ip4_addr.o(.constdata)
    .constdata                               0x08008f64   Section        4  ip4_addr.o(.constdata)
    .constdata                               0x08008f68   Section        6  ethernet.o(.constdata)
    .constdata                               0x08008f6e   Section        6  ethernet.o(.constdata)
    .constdata                               0x08008f74   Section       12  memp.o(.constdata)
    .constdata                               0x08008f80   Section       12  memp.o(.constdata)
    .constdata                               0x08008f8c   Section       12  memp.o(.constdata)
    .constdata                               0x08008f98   Section       12  memp.o(.constdata)
    .constdata                               0x08008fa4   Section       12  memp.o(.constdata)
    .constdata                               0x08008fb0   Section       12  memp.o(.constdata)
    .constdata                               0x08008fbc   Section       12  memp.o(.constdata)
    .constdata                               0x08008fc8   Section       12  memp.o(.constdata)
    .constdata                               0x08008fd4   Section       12  memp.o(.constdata)
    .constdata                               0x08008fe0   Section       36  memp.o(.constdata)
    .constdata                               0x08009004   Section       84  tcp.o(.constdata)
    tcp_persist_backoff                      0x08009004   Data           7  tcp.o(.constdata)
    tcp_state_str                            0x0800900c   Data          44  tcp.o(.constdata)
    tcp_backoff                              0x08009038   Data          13  tcp.o(.constdata)
    .constdata                               0x08009058   Section       40  timeouts.o(.constdata)
    .conststring                             0x08009080   Section      117  tcp.o(.conststring)
    .data                                    0x20000000   Section        8  main.o(.data)
    .data                                    0x20000008   Section       12  app_ethernet.o(.data)
    .data                                    0x20000014   Section       20  tcp_echoserver.o(.data)
    .data                                    0x20000028   Section        4  stm32f4xx_hal.o(.data)
    .data                                    0x2000002c   Section        4  system_stm32f4xx.o(.data)
    .data                                    0x20000030   Section       16  dhcp.o(.data)
    dhcp_pcb_refcount                        0x20000030   Data           1  dhcp.o(.data)
    dhcp_discover_request_options            0x20000031   Data           4  dhcp.o(.data)
    xid                                      0x20000038   Data           4  dhcp.o(.data)
    dhcp_pcb                                 0x2000003c   Data           4  dhcp.o(.data)
    .data                                    0x20000040   Section        1  etharp.o(.data)
    etharp_cached_entry                      0x20000040   Data           1  etharp.o(.data)
    .data                                    0x20000042   Section        2  ip4.o(.data)
    ip_id                                    0x20000042   Data           2  ip4.o(.data)
    .data                                    0x20000044   Section        8  ip4_frag.o(.data)
    ip_reass_pbufcount                       0x20000044   Data           2  ip4_frag.o(.data)
    reassdatagrams                           0x20000048   Data           4  ip4_frag.o(.data)
    .data                                    0x2000004c   Section       12  mem.o(.data)
    ram                                      0x2000004c   Data           4  mem.o(.data)
    ram_end                                  0x20000050   Data           4  mem.o(.data)
    lfree                                    0x20000054   Data           4  mem.o(.data)
    .data                                    0x20000058   Section        4  memp.o(.data)
    memp_tab_UDP_PCB                         0x20000058   Data           4  memp.o(.data)
    .data                                    0x2000005c   Section        4  memp.o(.data)
    memp_tab_TCP_PCB                         0x2000005c   Data           4  memp.o(.data)
    .data                                    0x20000060   Section        4  memp.o(.data)
    memp_tab_TCP_PCB_LISTEN                  0x20000060   Data           4  memp.o(.data)
    .data                                    0x20000064   Section        4  memp.o(.data)
    memp_tab_TCP_SEG                         0x20000064   Data           4  memp.o(.data)
    .data                                    0x20000068   Section        4  memp.o(.data)
    memp_tab_REASSDATA                       0x20000068   Data           4  memp.o(.data)
    .data                                    0x2000006c   Section        4  memp.o(.data)
    memp_tab_FRAG_PBUF                       0x2000006c   Data           4  memp.o(.data)
    .data                                    0x20000070   Section        4  memp.o(.data)
    memp_tab_SYS_TIMEOUT                     0x20000070   Data           4  memp.o(.data)
    .data                                    0x20000074   Section        4  memp.o(.data)
    memp_tab_PBUF                            0x20000074   Data           4  memp.o(.data)
    .data                                    0x20000078   Section        4  memp.o(.data)
    memp_tab_PBUF_POOL                       0x20000078   Data           4  memp.o(.data)
    .data                                    0x2000007c   Section       12  netif.o(.data)
    netif_num                                0x2000007c   Data           1  netif.o(.data)
    .data                                    0x20000088   Section       32  tcp.o(.data)
    tcp_timer                                0x20000089   Data           1  tcp.o(.data)
    tcp_timer_ctr                            0x2000008a   Data           1  tcp.o(.data)
    tcp_port                                 0x2000008c   Data           2  tcp.o(.data)
    iss                                      0x20000090   Data           4  tcp.o(.data)
    .data                                    0x200000a8   Section       36  tcp_in.o(.data)
    flags                                    0x200000a8   Data           1  tcp_in.o(.data)
    recv_flags                               0x200000a9   Data           1  tcp_in.o(.data)
    tcphdr_optlen                            0x200000aa   Data           2  tcp_in.o(.data)
    tcphdr_opt1len                           0x200000ac   Data           2  tcp_in.o(.data)
    tcp_optidx                               0x200000ae   Data           2  tcp_in.o(.data)
    recv_acked                               0x200000b0   Data           2  tcp_in.o(.data)
    tcplen                                   0x200000b2   Data           2  tcp_in.o(.data)
    tcphdr                                   0x200000b4   Data           4  tcp_in.o(.data)
    tcphdr_opt2                              0x200000b8   Data           4  tcp_in.o(.data)
    seqno                                    0x200000bc   Data           4  tcp_in.o(.data)
    ackno                                    0x200000c0   Data           4  tcp_in.o(.data)
    recv_data                                0x200000c4   Data           4  tcp_in.o(.data)
    .data                                    0x200000cc   Section       12  tcp_out.o(.data)
    .data                                    0x200000d8   Section       12  timeouts.o(.data)
    next_timeout                             0x200000d8   Data           4  timeouts.o(.data)
    timeouts_last_time                       0x200000dc   Data           4  timeouts.o(.data)
    tcpip_tcp_timer_active                   0x200000e0   Data           4  timeouts.o(.data)
    .data                                    0x200000e4   Section        8  udp.o(.data)
    udp_port                                 0x200000e4   Data           2  udp.o(.data)
    .data                                    0x200000ec   Section        4  rand.o(.data)
    _rand_state                              0x200000ec   Data           4  rand.o(.data)
    .data                                    0x200000f0   Section        4  stdout.o(.data)
    .bss                                     0x200000f4   Section       56  main.o(.bss)
    .bss                                     0x2000012c   Section       18  app_ethernet.o(.bss)
    .bss                                     0x20000140   Section    12520  ethernetif.o(.bss)
    .bss                                     0x20003228   Section      200  tcp_echoserver.o(.bss)
    .bss                                     0x200032f0   Section       64  bsp_debug_usart.o(.bss)
    .bss                                     0x20003330   Section       60  bsp_basictim.o(.bss)
    .bss                                     0x2000336c   Section       50  dhcp.o(.bss)
    .bss                                     0x200033a0   Section      240  etharp.o(.bss)
    arp_table                                0x200033a0   Data         240  etharp.o(.bss)
    .bss                                     0x20003490   Section       16  ip4_addr.o(.bss)
    str                                      0x20003490   Data          16  ip4_addr.o(.bss)
    .bss                                     0x200034a0   Section       24  ip.o(.bss)
    .bss                                     0x200034b8   Section    10259  mem.o(.bss)
    .bss                                     0x20005ccb   Section      195  memp.o(.bss)
    .bss                                     0x20005d8e   Section     1483  memp.o(.bss)
    .bss                                     0x20006359   Section      143  memp.o(.bss)
    .bss                                     0x200063e8   Section      131  memp.o(.bss)
    .bss                                     0x2000646b   Section      163  memp.o(.bss)
    .bss                                     0x2000650e   Section      363  memp.o(.bss)
    .bss                                     0x20006679   Section      163  memp.o(.bss)
    .bss                                     0x2000671c   Section      163  memp.o(.bss)
    .bss                                     0x200067bf   Section     4227  memp.o(.bss)
    .bss                                     0x20007844   Section       16  tcp_in.o(.bss)
    inseg                                    0x20007844   Data          16  tcp_in.o(.bss)
    STACK                                    0x20007858   Section     4096  startup_stm32f407xx.o(STACK)

    Global Symbols

    Symbol Name                              Value     Ov Type        Size  Object(Section)

    BuildAttributes$$THM_ISAv4$E$P$D$K$B$S$7EM$VFPi3$EXTD16$VFPS$VFMA$PE$A:L22UL41UL21$X:L11$S22US41US21$IEEE1$IW$USESV6$~STKCKD$USESV7$~SHL$OTIME$ROPI$EBA8$MICROLIB$REQ8$PRES8$EABIv2 0x00000000   Number         0  anon$$obj.o ABSOLUTE
    __ARM_use_no_argv                        0x00000000   Number         0  main.o ABSOLUTE
    _printf_a                                0x00000000   Number         0  stubs.o ABSOLUTE
    _printf_c                                0x00000000   Number         0  stubs.o ABSOLUTE
    _printf_charcount                        0x00000000   Number         0  stubs.o ABSOLUTE
    _printf_d                                0x00000000   Number         0  stubs.o ABSOLUTE
    _printf_e                                0x00000000   Number         0  stubs.o ABSOLUTE
    _printf_f                                0x00000000   Number         0  stubs.o ABSOLUTE
    _printf_flags                            0x00000000   Number         0  stubs.o ABSOLUTE
    _printf_fp_dec                           0x00000000   Number         0  stubs.o ABSOLUTE
    _printf_fp_hex                           0x00000000   Number         0  stubs.o ABSOLUTE
    _printf_g                                0x00000000   Number         0  stubs.o ABSOLUTE
    _printf_i                                0x00000000   Number         0  stubs.o ABSOLUTE
    _printf_int_dec                          0x00000000   Number         0  stubs.o ABSOLUTE
    _printf_l                                0x00000000   Number         0  stubs.o ABSOLUTE
    _printf_lc                               0x00000000   Number         0  stubs.o ABSOLUTE
    _printf_ll                               0x00000000   Number         0  stubs.o ABSOLUTE
    _printf_lld                              0x00000000   Number         0  stubs.o ABSOLUTE
    _printf_lli                              0x00000000   Number         0  stubs.o ABSOLUTE
    _printf_llo                              0x00000000   Number         0  stubs.o ABSOLUTE
    _printf_llu                              0x00000000   Number         0  stubs.o ABSOLUTE
    _printf_llx                              0x00000000   Number         0  stubs.o ABSOLUTE
    _printf_longlong_dec                     0x00000000   Number         0  stubs.o ABSOLUTE
    _printf_longlong_hex                     0x00000000   Number         0  stubs.o ABSOLUTE
    _printf_longlong_oct                     0x00000000   Number         0  stubs.o ABSOLUTE
    _printf_ls                               0x00000000   Number         0  stubs.o ABSOLUTE
    _printf_mbtowc                           0x00000000   Number         0  stubs.o ABSOLUTE
    _printf_n                                0x00000000   Number         0  stubs.o ABSOLUTE
    _printf_o                                0x00000000   Number         0  stubs.o ABSOLUTE
    _printf_p                                0x00000000   Number         0  stubs.o ABSOLUTE
    _printf_percent                          0x00000000   Number         0  stubs.o ABSOLUTE
    _printf_pre_padding                      0x00000000   Number         0  stubs.o ABSOLUTE
    _printf_return_value                     0x00000000   Number         0  stubs.o ABSOLUTE
    _printf_s                                0x00000000   Number         0  stubs.o ABSOLUTE
    _printf_sizespec                         0x00000000   Number         0  stubs.o ABSOLUTE
    _printf_str                              0x00000000   Number         0  stubs.o ABSOLUTE
    _printf_truncate_signed                  0x00000000   Number         0  stubs.o ABSOLUTE
    _printf_truncate_unsigned                0x00000000   Number         0  stubs.o ABSOLUTE
    _printf_u                                0x00000000   Number         0  stubs.o ABSOLUTE
    _printf_wc                               0x00000000   Number         0  stubs.o ABSOLUTE
    _printf_wctomb                           0x00000000   Number         0  stubs.o ABSOLUTE
    _printf_widthprec                        0x00000000   Number         0  stubs.o ABSOLUTE
    _printf_x                                0x00000000   Number         0  stubs.o ABSOLUTE
    __cpp_initialize__aeabi_                  - Undefined Weak Reference
    __cxa_finalize                            - Undefined Weak Reference
    __decompress                              - Undefined Weak Reference
    _clock_init                               - Undefined Weak Reference
    _microlib_exit                            - Undefined Weak Reference
    __Vectors_Size                           0x00000188   Number         0  startup_stm32f407xx.o ABSOLUTE
    __Vectors                                0x08000000   Data           4  startup_stm32f407xx.o(RESET)
    __Vectors_End                            0x08000188   Data           0  startup_stm32f407xx.o(RESET)
    __main                                   0x08000189   Thumb Code     0  entry.o(.ARM.Collect$$$$00000000)
    _main_stk                                0x08000189   Thumb Code     0  entry2.o(.ARM.Collect$$$$00000001)
    _main_scatterload                        0x0800018d   Thumb Code     0  entry5.o(.ARM.Collect$$$$00000004)
    __main_after_scatterload                 0x08000191   Thumb Code     0  entry5.o(.ARM.Collect$$$$00000004)
    _main_clock                              0x08000191   Thumb Code     0  entry7b.o(.ARM.Collect$$$$00000008)
    _main_cpp_init                           0x08000191   Thumb Code     0  entry8b.o(.ARM.Collect$$$$0000000A)
    _main_init                               0x08000191   Thumb Code     0  entry9a.o(.ARM.Collect$$$$0000000B)
    __rt_final_cpp                           0x08000199   Thumb Code     0  entry10a.o(.ARM.Collect$$$$0000000D)
    __rt_final_exit                          0x08000199   Thumb Code     0  entry11a.o(.ARM.Collect$$$$0000000F)
    Reset_Handler                            0x0800019d   Thumb Code     8  startup_stm32f407xx.o(.text)
    ADC_IRQHandler                           0x080001b7   Thumb Code     0  startup_stm32f407xx.o(.text)
    CAN1_RX0_IRQHandler                      0x080001b7   Thumb Code     0  startup_stm32f407xx.o(.text)
    CAN1_RX1_IRQHandler                      0x080001b7   Thumb Code     0  startup_stm32f407xx.o(.text)
    CAN1_SCE_IRQHandler                      0x080001b7   Thumb Code     0  startup_stm32f407xx.o(.text)
    CAN1_TX_IRQHandler                       0x080001b7   Thumb Code     0  startup_stm32f407xx.o(.text)
    CAN2_RX0_IRQHandler                      0x080001b7   Thumb Code     0  startup_stm32f407xx.o(.text)
    CAN2_RX1_IRQHandler                      0x080001b7   Thumb Code     0  startup_stm32f407xx.o(.text)
    CAN2_SCE_IRQHandler                      0x080001b7   Thumb Code     0  startup_stm32f407xx.o(.text)
    CAN2_TX_IRQHandler                       0x080001b7   Thumb Code     0  startup_stm32f407xx.o(.text)
    DCMI_IRQHandler                          0x080001b7   Thumb Code     0  startup_stm32f407xx.o(.text)
    DMA1_Stream0_IRQHandler                  0x080001b7   Thumb Code     0  startup_stm32f407xx.o(.text)
    DMA1_Stream1_IRQHandler                  0x080001b7   Thumb Code     0  startup_stm32f407xx.o(.text)
    DMA1_Stream2_IRQHandler                  0x080001b7   Thumb Code     0  startup_stm32f407xx.o(.text)
    DMA1_Stream3_IRQHandler                  0x080001b7   Thumb Code     0  startup_stm32f407xx.o(.text)
    DMA1_Stream4_IRQHandler                  0x080001b7   Thumb Code     0  startup_stm32f407xx.o(.text)
    DMA1_Stream5_IRQHandler                  0x080001b7   Thumb Code     0  startup_stm32f407xx.o(.text)
    DMA1_Stream6_IRQHandler                  0x080001b7   Thumb Code     0  startup_stm32f407xx.o(.text)
    DMA1_Stream7_IRQHandler                  0x080001b7   Thumb Code     0  startup_stm32f407xx.o(.text)
    DMA2_Stream0_IRQHandler                  0x080001b7   Thumb Code     0  startup_stm32f407xx.o(.text)
    DMA2_Stream1_IRQHandler                  0x080001b7   Thumb Code     0  startup_stm32f407xx.o(.text)
    DMA2_Stream2_IRQHandler                  0x080001b7   Thumb Code     0  startup_stm32f407xx.o(.text)
    DMA2_Stream3_IRQHandler                  0x080001b7   Thumb Code     0  startup_stm32f407xx.o(.text)
    DMA2_Stream4_IRQHandler                  0x080001b7   Thumb Code     0  startup_stm32f407xx.o(.text)
    DMA2_Stream5_IRQHandler                  0x080001b7   Thumb Code     0  startup_stm32f407xx.o(.text)
    DMA2_Stream6_IRQHandler                  0x080001b7   Thumb Code     0  startup_stm32f407xx.o(.text)
    DMA2_Stream7_IRQHandler                  0x080001b7   Thumb Code     0  startup_stm32f407xx.o(.text)
    ETH_WKUP_IRQHandler                      0x080001b7   Thumb Code     0  startup_stm32f407xx.o(.text)
    EXTI0_IRQHandler                         0x080001b7   Thumb Code     0  startup_stm32f407xx.o(.text)
    EXTI15_10_IRQHandler                     0x080001b7   Thumb Code     0  startup_stm32f407xx.o(.text)
    EXTI1_IRQHandler                         0x080001b7   Thumb Code     0  startup_stm32f407xx.o(.text)
    EXTI2_IRQHandler                         0x080001b7   Thumb Code     0  startup_stm32f407xx.o(.text)
    EXTI3_IRQHandler                         0x080001b7   Thumb Code     0  startup_stm32f407xx.o(.text)
    EXTI4_IRQHandler                         0x080001b7   Thumb Code     0  startup_stm32f407xx.o(.text)
    EXTI9_5_IRQHandler                       0x080001b7   Thumb Code     0  startup_stm32f407xx.o(.text)
    FLASH_IRQHandler                         0x080001b7   Thumb Code     0  startup_stm32f407xx.o(.text)
    FMC_IRQHandler                           0x080001b7   Thumb Code     0  startup_stm32f407xx.o(.text)
    FPU_IRQHandler                           0x080001b7   Thumb Code     0  startup_stm32f407xx.o(.text)
    HASH_RNG_IRQHandler                      0x080001b7   Thumb Code     0  startup_stm32f407xx.o(.text)
    I2C1_ER_IRQHandler                       0x080001b7   Thumb Code     0  startup_stm32f407xx.o(.text)
    I2C1_EV_IRQHandler                       0x080001b7   Thumb Code     0  startup_stm32f407xx.o(.text)
    I2C2_ER_IRQHandler                       0x080001b7   Thumb Code     0  startup_stm32f407xx.o(.text)
    I2C2_EV_IRQHandler                       0x080001b7   Thumb Code     0  startup_stm32f407xx.o(.text)
    I2C3_ER_IRQHandler                       0x080001b7   Thumb Code     0  startup_stm32f407xx.o(.text)
    I2C3_EV_IRQHandler                       0x080001b7   Thumb Code     0  startup_stm32f407xx.o(.text)
    OTG_FS_IRQHandler                        0x080001b7   Thumb Code     0  startup_stm32f407xx.o(.text)
    OTG_FS_WKUP_IRQHandler                   0x080001b7   Thumb Code     0  startup_stm32f407xx.o(.text)
    OTG_HS_EP1_IN_IRQHandler                 0x080001b7   Thumb Code     0  startup_stm32f407xx.o(.text)
    OTG_HS_EP1_OUT_IRQHandler                0x080001b7   Thumb Code     0  startup_stm32f407xx.o(.text)
    OTG_HS_IRQHandler                        0x080001b7   Thumb Code     0  startup_stm32f407xx.o(.text)
    OTG_HS_WKUP_IRQHandler                   0x080001b7   Thumb Code     0  startup_stm32f407xx.o(.text)
    PVD_IRQHandler                           0x080001b7   Thumb Code     0  startup_stm32f407xx.o(.text)
    RTC_Alarm_IRQHandler                     0x080001b7   Thumb Code     0  startup_stm32f407xx.o(.text)
    RTC_WKUP_IRQHandler                      0x080001b7   Thumb Code     0  startup_stm32f407xx.o(.text)
    SDIO_IRQHandler                          0x080001b7   Thumb Code     0  startup_stm32f407xx.o(.text)
    SPI1_IRQHandler                          0x080001b7   Thumb Code     0  startup_stm32f407xx.o(.text)
    SPI2_IRQHandler                          0x080001b7   Thumb Code     0  startup_stm32f407xx.o(.text)
    SPI3_IRQHandler                          0x080001b7   Thumb Code     0  startup_stm32f407xx.o(.text)
    TAMP_STAMP_IRQHandler                    0x080001b7   Thumb Code     0  startup_stm32f407xx.o(.text)
    TIM1_BRK_TIM9_IRQHandler                 0x080001b7   Thumb Code     0  startup_stm32f407xx.o(.text)
    TIM1_CC_IRQHandler                       0x080001b7   Thumb Code     0  startup_stm32f407xx.o(.text)
    TIM1_TRG_COM_TIM11_IRQHandler            0x080001b7   Thumb Code     0  startup_stm32f407xx.o(.text)
    TIM1_UP_TIM10_IRQHandler                 0x080001b7   Thumb Code     0  startup_stm32f407xx.o(.text)
    TIM2_IRQHandler                          0x080001b7   Thumb Code     0  startup_stm32f407xx.o(.text)
    TIM3_IRQHandler                          0x080001b7   Thumb Code     0  startup_stm32f407xx.o(.text)
    TIM4_IRQHandler                          0x080001b7   Thumb Code     0  startup_stm32f407xx.o(.text)
    TIM5_IRQHandler                          0x080001b7   Thumb Code     0  startup_stm32f407xx.o(.text)
    TIM6_DAC_IRQHandler                      0x080001b7   Thumb Code     0  startup_stm32f407xx.o(.text)
    TIM8_BRK_TIM12_IRQHandler                0x080001b7   Thumb Code     0  startup_stm32f407xx.o(.text)
    TIM8_CC_IRQHandler                       0x080001b7   Thumb Code     0  startup_stm32f407xx.o(.text)
    TIM8_TRG_COM_TIM14_IRQHandler            0x080001b7   Thumb Code     0  startup_stm32f407xx.o(.text)
    TIM8_UP_TIM13_IRQHandler                 0x080001b7   Thumb Code     0  startup_stm32f407xx.o(.text)
    UART4_IRQHandler                         0x080001b7   Thumb Code     0  startup_stm32f407xx.o(.text)
    UART5_IRQHandler                         0x080001b7   Thumb Code     0  startup_stm32f407xx.o(.text)
    USART1_IRQHandler                        0x080001b7   Thumb Code     0  startup_stm32f407xx.o(.text)
    USART2_IRQHandler                        0x080001b7   Thumb Code     0  startup_stm32f407xx.o(.text)
    USART3_IRQHandler                        0x080001b7   Thumb Code     0  startup_stm32f407xx.o(.text)
    USART6_IRQHandler                        0x080001b7   Thumb Code     0  startup_stm32f407xx.o(.text)
    WWDG_IRQHandler                          0x080001b7   Thumb Code     0  startup_stm32f407xx.o(.text)
    rand                                     0x080001c1   Thumb Code    20  rand.o(.text)
    srand                                    0x080001d5   Thumb Code     6  rand.o(.text)
    __aeabi_memcpy                           0x080001e5   Thumb Code    36  memcpya.o(.text)
    __aeabi_memcpy4                          0x080001e5   Thumb Code     0  memcpya.o(.text)
    __aeabi_memcpy8                          0x080001e5   Thumb Code     0  memcpya.o(.text)
    __aeabi_memset                           0x08000209   Thumb Code    14  memseta.o(.text)
    __aeabi_memset4                          0x08000209   Thumb Code     0  memseta.o(.text)
    __aeabi_memset8                          0x08000209   Thumb Code     0  memseta.o(.text)
    __aeabi_memclr                           0x08000217   Thumb Code     4  memseta.o(.text)
    __aeabi_memclr4                          0x08000217   Thumb Code     0  memseta.o(.text)
    __aeabi_memclr8                          0x08000217   Thumb Code     0  memseta.o(.text)
    _memset$wrapper                          0x0800021b   Thumb Code    18  memseta.o(.text)
    strlen                                   0x0800022d   Thumb Code    14  strlen.o(.text)
    memcmp                                   0x0800023b   Thumb Code    26  memcmp.o(.text)
    __aeabi_uidiv                            0x08000255   Thumb Code     0  uidiv.o(.text)
    __aeabi_uidivmod                         0x08000255   Thumb Code    44  uidiv.o(.text)
    __scatterload                            0x08000281   Thumb Code    28  init.o(.text)
    __scatterload_rt2                        0x08000281   Thumb Code     0  init.o(.text)
    BASIC_TIM7_Init                          0x080002a5   Thumb Code    50  bsp_basictim.o(i.BASIC_TIM7_Init)
    BusFault_Handler                         0x080002e1   Thumb Code     2  stm32f4xx_it.o(i.BusFault_Handler)
    DHCP_Periodic_Handle                     0x080002e5   Thumb Code    38  app_ethernet.o(i.DHCP_Periodic_Handle)
    DHCP_Process                             0x08000311   Thumb Code   314  app_ethernet.o(i.DHCP_Process)
    DebugMon_Handler                         0x08000551   Thumb Code     2  stm32f4xx_it.o(i.DebugMon_Handler)
    ETH_IRQHandler                           0x080005c9   Thumb Code    26  app_ethernet.o(i.ETH_IRQHandler)
    ETH_PHY_ReadReg                          0x080007ed   Thumb Code    24  app_ethernet.o(i.ETH_PHY_ReadReg)
    ETH_link_check_state                     0x08000809   Thumb Code   138  app_ethernet.o(i.ETH_link_check_state)
    Ethernet_Link_Periodic_Handle            0x08000895   Thumb Code    36  app_ethernet.o(i.Ethernet_Link_Periodic_Handle)
    GetPinStateOfKey1                        0x080008bd   Thumb Code    20  bsp_key.o(i.GetPinStateOfKey1)
    HAL_Delay                                0x080008d5   Thumb Code    30  stm32f4xx_hal.o(i.HAL_Delay)
    HAL_ETH_ConfigMAC                        0x080008f5   Thumb Code   308  stm32f4xx_hal_eth.o(i.HAL_ETH_ConfigMAC)
    HAL_ETH_DMARxDescListInit                0x08000a2d   Thumb Code   128  stm32f4xx_hal_eth.o(i.HAL_ETH_DMARxDescListInit)
    HAL_ETH_DMATxDescListInit                0x08000aad   Thumb Code   142  stm32f4xx_hal_eth.o(i.HAL_ETH_DMATxDescListInit)
    HAL_ETH_GetReceivedFrame_IT              0x08000b3b   Thumb Code   160  stm32f4xx_hal_eth.o(i.HAL_ETH_GetReceivedFrame_IT)
    HAL_ETH_Init                             0x08000bdd   Thumb Code   582  stm32f4xx_hal_eth.o(i.HAL_ETH_Init)
    HAL_ETH_MspInit                          0x08000e4d   Thumb Code   242  ethernetif.o(i.HAL_ETH_MspInit)
    HAL_ETH_ReadPHYRegister                  0x08000f55   Thumb Code   140  stm32f4xx_hal_eth.o(i.HAL_ETH_ReadPHYRegister)
    HAL_ETH_Start                            0x08000fe1   Thumb Code    70  stm32f4xx_hal_eth.o(i.HAL_ETH_Start)
    HAL_ETH_TransmitFrame                    0x08001027   Thumb Code   310  stm32f4xx_hal_eth.o(i.HAL_ETH_TransmitFrame)
    HAL_ETH_WritePHYRegister                 0x0800115d   Thumb Code   132  stm32f4xx_hal_eth.o(i.HAL_ETH_WritePHYRegister)
    HAL_GPIO_Init                            0x080011e1   Thumb Code   518  stm32f4xx_hal_gpio.o(i.HAL_GPIO_Init)
    HAL_GPIO_ReadPin                         0x080013fd   Thumb Code    14  stm32f4xx_hal_gpio.o(i.HAL_GPIO_ReadPin)
    HAL_GPIO_WritePin                        0x0800140b   Thumb Code    14  stm32f4xx_hal_gpio.o(i.HAL_GPIO_WritePin)
    HAL_GetTick                              0x08001419   Thumb Code     6  stm32f4xx_hal.o(i.HAL_GetTick)
    HAL_IncTick                              0x08001425   Thumb Code    10  stm32f4xx_hal.o(i.HAL_IncTick)
    HAL_Init                                 0x08001435   Thumb Code    48  stm32f4xx_hal.o(i.HAL_Init)
    HAL_InitTick                             0x08001469   Thumb Code    34  stm32f4xx_hal.o(i.HAL_InitTick)
    HAL_MspInit                              0x08001491   Thumb Code   104  stm32f4xx_hal_msp.o(i.HAL_MspInit)
    HAL_NVIC_EnableIRQ                       0x080014f9   Thumb Code    24  stm32f4xx_hal_cortex.o(i.HAL_NVIC_EnableIRQ)
    HAL_NVIC_SetPriority                     0x08001511   Thumb Code    98  stm32f4xx_hal_cortex.o(i.HAL_NVIC_SetPriority)
    HAL_NVIC_SetPriorityGrouping             0x08001579   Thumb Code    30  stm32f4xx_hal_cortex.o(i.HAL_NVIC_SetPriorityGrouping)
    HAL_RCC_ClockConfig                      0x0800159d   Thumb Code   474  stm32f4xx_hal_rcc.o(i.HAL_RCC_ClockConfig)
    HAL_RCC_EnableCSS                        0x0800178d   Thumb Code     8  stm32f4xx_hal_rcc.o(i.HAL_RCC_EnableCSS)
    HAL_RCC_GetHCLKFreq                      0x08001799   Thumb Code     6  stm32f4xx_hal_rcc.o(i.HAL_RCC_GetHCLKFreq)
    HAL_RCC_GetPCLK1Freq                     0x080017a5   Thumb Code    36  stm32f4xx_hal_rcc.o(i.HAL_RCC_GetPCLK1Freq)
    HAL_RCC_GetPCLK2Freq                     0x080017d1   Thumb Code    36  stm32f4xx_hal_rcc.o(i.HAL_RCC_GetPCLK2Freq)
    HAL_RCC_GetSysClockFreq                  0x080017fd   Thumb Code   126  stm32f4xx_hal_rcc.o(i.HAL_RCC_GetSysClockFreq)
    HAL_RCC_OscConfig                        0x08001889   Thumb Code  1058  stm32f4xx_hal_rcc.o(i.HAL_RCC_OscConfig)
    HAL_SYSTICK_CLKSourceConfig              0x08001cc9   Thumb Code    28  stm32f4xx_hal_cortex.o(i.HAL_SYSTICK_CLKSourceConfig)
    HAL_SYSTICK_Callback                     0x08001ce5   Thumb Code     2  stm32f4xx_hal_cortex.o(i.HAL_SYSTICK_Callback)
    HAL_SYSTICK_Config                       0x08001ce9   Thumb Code    36  stm32f4xx_hal_cortex.o(i.HAL_SYSTICK_Config)
    HAL_SYSTICK_IRQHandler                   0x08001d11   Thumb Code     8  stm32f4xx_hal_cortex.o(i.HAL_SYSTICK_IRQHandler)
    HAL_TIMEx_BreakCallback                  0x08001d19   Thumb Code     2  stm32f4xx_hal_tim_ex.o(i.HAL_TIMEx_BreakCallback)
    HAL_TIMEx_CommutationCallback            0x08001d1b   Thumb Code     2  stm32f4xx_hal_tim_ex.o(i.HAL_TIMEx_CommutationCallback)
    HAL_TIMEx_MasterConfigSynchronization    0x08001d1d   Thumb Code   102  stm32f4xx_hal_tim_ex.o(i.HAL_TIMEx_MasterConfigSynchronization)
    HAL_TIM_Base_Init                        0x08001d83   Thumb Code    56  stm32f4xx_hal_tim.o(i.HAL_TIM_Base_Init)
    HAL_TIM_Base_MspInit                     0x08001dbd   Thumb Code    54  bsp_basictim.o(i.HAL_TIM_Base_MspInit)
    HAL_TIM_Base_Start_IT                    0x08001df9   Thumb Code    24  stm32f4xx_hal_tim.o(i.HAL_TIM_Base_Start_IT)
    HAL_TIM_IC_CaptureCallback               0x08001e11   Thumb Code     2  stm32f4xx_hal_tim.o(i.HAL_TIM_IC_CaptureCallback)
    HAL_TIM_IRQHandler                       0x08001e13   Thumb Code   372  stm32f4xx_hal_tim.o(i.HAL_TIM_IRQHandler)
    HAL_TIM_OC_DelayElapsedCallback          0x08001f87   Thumb Code     2  stm32f4xx_hal_tim.o(i.HAL_TIM_OC_DelayElapsedCallback)
    HAL_TIM_PWM_PulseFinishedCallback        0x08001f89   Thumb Code     2  stm32f4xx_hal_tim.o(i.HAL_TIM_PWM_PulseFinishedCallback)
    HAL_TIM_PeriodElapsedCallback            0x08001f8d   Thumb Code    28  main.o(i.HAL_TIM_PeriodElapsedCallback)
    HAL_TIM_TriggerCallback                  0x08001fad   Thumb Code     2  stm32f4xx_hal_tim.o(i.HAL_TIM_TriggerCallback)
    HAL_UART_Init                            0x08001faf   Thumb Code   100  stm32f4xx_hal_uart.o(i.HAL_UART_Init)
    HAL_UART_MspInit                         0x08002015   Thumb Code    66  bsp_debug_usart.o(i.HAL_UART_MspInit)
    HAL_UART_Transmit                        0x08002061   Thumb Code   220  stm32f4xx_hal_uart.o(i.HAL_UART_Transmit)
    HardFault_Handler                        0x0800213d   Thumb Code     2  stm32f4xx_it.o(i.HardFault_Handler)
    KEY_GPIO_Init                            0x08002141   Thumb Code   174  bsp_key.o(i.KEY_GPIO_Init)
    KeyCreate                                0x080021f9   Thumb Code    16  bsp_key.o(i.KeyCreate)
    Key_AccessTimes                          0x08002209   Thumb Code    14  bsp_key.o(i.Key_AccessTimes)
    Key_RefreshState                         0x08002217   Thumb Code   132  bsp_key.o(i.Key_RefreshState)
    MX_DEBUG_USART_Init                      0x0800229d   Thumb Code    54  bsp_debug_usart.o(i.MX_DEBUG_USART_Init)
    MemManage_Handler                        0x080022e1   Thumb Code     2  stm32f4xx_it.o(i.MemManage_Handler)
    NMI_Handler                              0x080022e3   Thumb Code     2  stm32f4xx_it.o(i.NMI_Handler)
    Netif_Config                             0x080022e5   Thumb Code    62  app_ethernet.o(i.Netif_Config)
    PendSV_Handler                           0x08002335   Thumb Code     2  stm32f4xx_it.o(i.PendSV_Handler)
    RCC_IRQHandler                           0x08002337   Thumb Code     2  stm32f4xx_it.o(i.RCC_IRQHandler)
    SVC_Handler                              0x08002339   Thumb Code     2  stm32f4xx_it.o(i.SVC_Handler)
    SysTick_Handler                          0x0800233b   Thumb Code    14  stm32f4xx_it.o(i.SysTick_Handler)
    SystemClock_Config                       0x08002349   Thumb Code   146  main.o(i.SystemClock_Config)
    SystemInit                               0x080023e5   Thumb Code    64  system_stm32f4xx.o(i.SystemInit)
    TIM7_IRQHandler                          0x0800243d   Thumb Code     6  stm32f4xx_it.o(i.TIM7_IRQHandler)
    TIM_Base_SetConfig                       0x08002449   Thumb Code   178  stm32f4xx_hal_tim.o(i.TIM_Base_SetConfig)
    UsageFault_Handler                       0x080028cd   Thumb Code     2  stm32f4xx_it.o(i.UsageFault_Handler)
    YSF4_TCP_SENDData                        0x080028d1   Thumb Code   240  tcp_echoserver.o(i.YSF4_TCP_SENDData)
    __0printf$3                              0x08002abd   Thumb Code    22  printf3.o(i.__0printf$3)
    __1printf$3                              0x08002abd   Thumb Code     0  printf3.o(i.__0printf$3)
    __2printf                                0x08002abd   Thumb Code     0  printf3.o(i.__0printf$3)
    __0sprintf$3                             0x08002add   Thumb Code    34  printf3.o(i.__0sprintf$3)
    __1sprintf$3                             0x08002add   Thumb Code     0  printf3.o(i.__0sprintf$3)
    __2sprintf                               0x08002add   Thumb Code     0  printf3.o(i.__0sprintf$3)
    __scatterload_copy                       0x08002b05   Thumb Code    14  handlers.o(i.__scatterload_copy)
    __scatterload_null                       0x08002b13   Thumb Code     2  handlers.o(i.__scatterload_null)
    __scatterload_zeroinit                   0x08002b15   Thumb Code    14  handlers.o(i.__scatterload_zeroinit)
    dhcp_arp_reply                           0x08002d05   Thumb Code    30  dhcp.o(i.dhcp_arp_reply)
    dhcp_coarse_tmr                          0x08002e49   Thumb Code    98  dhcp.o(i.dhcp_coarse_tmr)
    dhcp_fine_tmr                            0x08003185   Thumb Code    48  dhcp.o(i.dhcp_fine_tmr)
    dhcp_network_changed                     0x080032d5   Thumb Code    48  dhcp.o(i.dhcp_network_changed)
    dhcp_release                             0x08003919   Thumb Code   172  dhcp.o(i.dhcp_release)
    dhcp_renew                               0x080039cd   Thumb Code   174  dhcp.o(i.dhcp_renew)
    dhcp_start                               0x08003b99   Thumb Code   148  dhcp.o(i.dhcp_start)
    dhcp_stop                                0x08003c2d   Thumb Code    36  dhcp.o(i.dhcp_stop)
    dhcp_supplied_address                    0x08003c51   Thumb Code    30  dhcp.o(i.dhcp_supplied_address)
    etharp_cleanup_netif                     0x08003d61   Thumb Code    42  etharp.o(i.etharp_cleanup_netif)
    etharp_input                             0x08003ec5   Thumb Code   200  etharp.o(i.etharp_input)
    etharp_output                            0x08003f8d   Thumb Code   254  etharp.o(i.etharp_output)
    etharp_query                             0x080040f9   Thumb Code   286  etharp.o(i.etharp_query)
    etharp_request                           0x080042ad   Thumb Code     6  etharp.o(i.etharp_request)
    etharp_tmr                               0x080042e1   Thumb Code    96  etharp.o(i.etharp_tmr)
    ethernet_input                           0x080043c9   Thumb Code   164  ethernet.o(i.ethernet_input)
    ethernet_link_check_state                0x08004471   Thumb Code   166  ethernetif.o(i.ethernet_link_check_state)
    ethernet_link_status_updated             0x08004555   Thumb Code    60  app_ethernet.o(i.ethernet_link_status_updated)
    ethernet_output                          0x080045d1   Thumb Code    82  ethernet.o(i.ethernet_output)
    ethernetif_init                          0x08004625   Thumb Code    30  ethernetif.o(i.ethernetif_init)
    ethernetif_input                         0x0800464d   Thumb Code    38  ethernetif.o(i.ethernetif_input)
    fputc                                    0x08004675   Thumb Code    22  bsp_debug_usart.o(i.fputc)
    icmp_dest_unreach                        0x08004691   Thumb Code     8  icmp.o(i.icmp_dest_unreach)
    icmp_input                               0x08004699   Thumb Code   320  icmp.o(i.icmp_input)
    icmp_time_exceeded                       0x0800484f   Thumb Code     8  icmp.o(i.icmp_time_exceeded)
    inet_chksum_pbuf                         0x08004857   Thumb Code    76  inet_chksum.o(i.inet_chksum_pbuf)
    ip4_addr_isbroadcast_u32                 0x080048a3   Thumb Code    80  ip4_addr.o(i.ip4_addr_isbroadcast_u32)
    ip4_frag                                 0x080048f5   Thumb Code   416  ip4_frag.o(i.ip4_frag)
    ip4_input                                0x08004a99   Thumb Code   490  ip4.o(i.ip4_input)
    ip4_output_if                            0x08004c8d   Thumb Code    44  ip4.o(i.ip4_output_if)
    ip4_output_if_src                        0x08004cb9   Thumb Code   178  ip4.o(i.ip4_output_if_src)
    ip4_reass                                0x08004d75   Thumb Code   378  ip4_frag.o(i.ip4_reass)
    ip4_route                                0x08004ef5   Thumb Code   106  ip4.o(i.ip4_route)
    ip4addr_ntoa                             0x08004f69   Thumb Code     8  ip4_addr.o(i.ip4addr_ntoa)
    ip4addr_ntoa_r                           0x08004f75   Thumb Code   172  ip4_addr.o(i.ip4addr_ntoa_r)
    ip_reass_tmr                             0x080052a9   Thumb Code    42  ip4_frag.o(i.ip_reass_tmr)
    lwip_IT_handle                           0x08005589   Thumb Code     6  ethernetif.o(i.lwip_IT_handle)
    lwip_htonl                               0x08005595   Thumb Code    24  def.o(i.lwip_htonl)
    lwip_htons                               0x080055ad   Thumb Code    10  def.o(i.lwip_htons)
    lwip_init                                0x080055b7   Thumb Code    30  init.o(i.lwip_init)
    lwip_standard_chksum                     0x080055d5   Thumb Code    90  inet_chksum.o(i.lwip_standard_chksum)
    main                                     0x08005631   Thumb Code    32  main.o(i.main)
    mem_free                                 0x0800566d   Thumb Code    38  mem.o(i.mem_free)
    mem_init                                 0x08005699   Thumb Code    44  mem.o(i.mem_init)
    mem_malloc                               0x080056cd   Thumb Code   186  mem.o(i.mem_malloc)
    mem_trim                                 0x0800578d   Thumb Code   224  mem.o(i.mem_trim)
    memp_free                                0x08005871   Thumb Code    20  memp.o(i.memp_free)
    memp_init                                0x08005889   Thumb Code    24  memp.o(i.memp_init)
    memp_init_pool                           0x080058a5   Thumb Code    46  memp.o(i.memp_init_pool)
    memp_malloc                              0x080058d5   Thumb Code    18  memp.o(i.memp_malloc)
    netif_add                                0x080058ed   Thumb Code    84  netif.o(i.netif_add)
    netif_init                               0x08005945   Thumb Code     2  netif.o(i.netif_init)
    netif_set_addr                           0x08005965   Thumb Code    76  netif.o(i.netif_set_addr)
    netif_set_default                        0x080059b1   Thumb Code     6  netif.o(i.netif_set_default)
    netif_set_down                           0x080059bd   Thumb Code    30  netif.o(i.netif_set_down)
    netif_set_gw                             0x080059db   Thumb Code    14  netif.o(i.netif_set_gw)
    netif_set_ipaddr                         0x080059e9   Thumb Code    66  netif.o(i.netif_set_ipaddr)
    netif_set_link_callback                  0x08005a31   Thumb Code     8  netif.o(i.netif_set_link_callback)
    netif_set_link_down                      0x08005a39   Thumb Code    28  netif.o(i.netif_set_link_down)
    netif_set_link_up                        0x08005a55   Thumb Code    62  netif.o(i.netif_set_link_up)
    netif_set_netmask                        0x08005a93   Thumb Code    14  netif.o(i.netif_set_netmask)
    netif_set_up                             0x08005aa1   Thumb Code    32  netif.o(i.netif_set_up)
    pbuf_alloc                               0x08005ac1   Thumb Code   314  pbuf.o(i.pbuf_alloc)
    pbuf_alloced_custom                      0x08005bfb   Thumb Code   104  pbuf.o(i.pbuf_alloced_custom)
    pbuf_cat                                 0x08005c63   Thumb Code    40  pbuf.o(i.pbuf_cat)
    pbuf_chain                               0x08005c8b   Thumb Code    20  pbuf.o(i.pbuf_chain)
    pbuf_clen                                0x08005c9f   Thumb Code    20  pbuf.o(i.pbuf_clen)
    pbuf_copy                                0x08005cb3   Thumb Code   168  pbuf.o(i.pbuf_copy)
    pbuf_copy_partial                        0x08005d5b   Thumb Code   112  pbuf.o(i.pbuf_copy_partial)
    pbuf_free                                0x08005dcb   Thumb Code    94  pbuf.o(i.pbuf_free)
    pbuf_header                              0x08005e29   Thumb Code     6  pbuf.o(i.pbuf_header)
    pbuf_header_force                        0x08005e2f   Thumb Code     6  pbuf.o(i.pbuf_header_force)
    pbuf_realloc                             0x08005ebf   Thumb Code    92  pbuf.o(i.pbuf_realloc)
    pbuf_ref                                 0x08005f1b   Thumb Code    12  pbuf.o(i.pbuf_ref)
    pbuf_take                                0x08005f27   Thumb Code    94  pbuf.o(i.pbuf_take)
    sys_check_timeouts                       0x08005fed   Thumb Code    72  timeouts.o(i.sys_check_timeouts)
    sys_now                                  0x08006039   Thumb Code     4  ethernetif.o(i.sys_now)
    sys_timeout                              0x0800603d   Thumb Code   164  timeouts.o(i.sys_timeout)
    sys_timeouts_init                        0x080060e5   Thumb Code    36  timeouts.o(i.sys_timeouts_init)
    tcp_abandon                              0x08006115   Thumb Code   202  tcp.o(i.tcp_abandon)
    tcp_abort                                0x080061e9   Thumb Code     6  tcp.o(i.tcp_abort)
    tcp_accept                               0x080061ef   Thumb Code    14  tcp.o(i.tcp_accept)
    tcp_alloc                                0x0800620d   Thumb Code   164  tcp.o(i.tcp_alloc)
    tcp_arg                                  0x080062bd   Thumb Code     8  tcp.o(i.tcp_arg)
    tcp_bind                                 0x080062c5   Thumb Code   144  tcp.o(i.tcp_bind)
    tcp_close                                0x08006361   Thumb Code    20  tcp.o(i.tcp_close)
    tcp_eff_send_mss_impl                    0x08006829   Thumb Code    38  tcp.o(i.tcp_eff_send_mss_impl)
    tcp_enqueue_flags                        0x0800684f   Thumb Code   190  tcp_out.o(i.tcp_enqueue_flags)
    tcp_err                                  0x0800690d   Thumb Code    10  tcp.o(i.tcp_err)
    tcp_fasttmr                              0x08006919   Thumb Code    98  tcp.o(i.tcp_fasttmr)
    tcp_init                                 0x080069c9   Thumb Code     2  tcp.o(i.tcp_init)
    tcp_input                                0x080069cd   Thumb Code   956  tcp_in.o(i.tcp_input)
    tcp_keepalive                            0x08006dad   Thumb Code    88  tcp_out.o(i.tcp_keepalive)
    tcp_listen_with_backlog                  0x08006fed   Thumb Code   132  tcp.o(i.tcp_listen_with_backlog)
    tcp_netif_ip_addr_changed                0x0800707d   Thumb Code    76  tcp.o(i.tcp_netif_ip_addr_changed)
    tcp_new                                  0x080070f1   Thumb Code     6  tcp.o(i.tcp_new)
    tcp_next_iss                             0x08007159   Thumb Code    12  tcp.o(i.tcp_next_iss)
    tcp_output                               0x08007169   Thumb Code   504  tcp_out.o(i.tcp_output)
    tcp_pcb_purge                            0x08007557   Thumb Code    58  tcp.o(i.tcp_pcb_purge)
    tcp_pcb_remove                           0x08007591   Thumb Code    90  tcp.o(i.tcp_pcb_remove)
    tcp_poll                                 0x080075fd   Thumb Code     8  tcp.o(i.tcp_poll)
    tcp_process_refused_data                 0x08007a99   Thumb Code   124  tcp.o(i.tcp_process_refused_data)
    tcp_recv                                 0x08007f41   Thumb Code     8  tcp.o(i.tcp_recv)
    tcp_recv_null                            0x08007f49   Thumb Code    38  tcp.o(i.tcp_recv_null)
    tcp_recved                               0x08007f71   Thumb Code    78  tcp.o(i.tcp_recved)
    tcp_rexmit                               0x08007fe3   Thumb Code    82  tcp_out.o(i.tcp_rexmit)
    tcp_rexmit_fast                          0x08008035   Thumb Code   102  tcp_out.o(i.tcp_rexmit_fast)
    tcp_rexmit_rto                           0x0800809d   Thumb Code    58  tcp_out.o(i.tcp_rexmit_rto)
    tcp_rst                                  0x080080e5   Thumb Code   136  tcp_out.o(i.tcp_rst)
    tcp_seg_free                             0x0800816d   Thumb Code    30  tcp.o(i.tcp_seg_free)
    tcp_segs_free                            0x0800818b   Thumb Code    20  tcp.o(i.tcp_segs_free)
    tcp_send_empty_ack                       0x0800819f   Thumb Code   116  tcp_out.o(i.tcp_send_empty_ack)
    tcp_send_fin                             0x08008213   Thumb Code    74  tcp_out.o(i.tcp_send_fin)
    tcp_sent                                 0x0800825d   Thumb Code     8  tcp.o(i.tcp_sent)
    tcp_server_usersent                      0x08008265   Thumb Code    96  tcp_echoserver.o(i.tcp_server_usersent)
    tcp_setprio                              0x080082f1   Thumb Code     4  tcp.o(i.tcp_setprio)
    tcp_slowtmr                              0x080082f5   Thumb Code   640  tcp.o(i.tcp_slowtmr)
    tcp_timer_needed                         0x0800859d   Thumb Code    36  timeouts.o(i.tcp_timer_needed)
    tcp_tmr                                  0x08008669   Thumb Code    30  tcp.o(i.tcp_tmr)
    tcp_trigger_input_pcb_close              0x0800868d   Thumb Code    12  tcp_in.o(i.tcp_trigger_input_pcb_close)
    tcp_update_rcv_ann_wnd                   0x0800869d   Thumb Code    62  tcp.o(i.tcp_update_rcv_ann_wnd)
    tcp_write                                0x080086db   Thumb Code   724  tcp_out.o(i.tcp_write)
    tcp_zero_window_probe                    0x080089fd   Thumb Code   202  tcp_out.o(i.tcp_zero_window_probe)
    udp_bind                                 0x08008b01   Thumb Code   132  udp.o(i.udp_bind)
    udp_connect                              0x08008b8d   Thumb Code    82  udp.o(i.udp_connect)
    udp_init                                 0x08008be5   Thumb Code     2  udp.o(i.udp_init)
    udp_input                                0x08008be9   Thumb Code   314  udp.o(i.udp_input)
    udp_netif_ip_addr_changed                0x08008d65   Thumb Code    50  udp.o(i.udp_netif_ip_addr_changed)
    udp_new                                  0x08008d9d   Thumb Code    36  udp.o(i.udp_new)
    udp_recv                                 0x08008e0d   Thumb Code     6  udp.o(i.udp_recv)
    udp_remove                               0x08008e15   Thumb Code    44  udp.o(i.udp_remove)
    udp_sendto_if                            0x08008e45   Thumb Code    72  udp.o(i.udp_sendto_if)
    udp_sendto_if_src                        0x08008e8d   Thumb Code   186  udp.o(i.udp_sendto_if_src)
    AHBPrescTable                            0x08008f46   Data          16  system_stm32f4xx.o(.constdata)
    APBPrescTable                            0x08008f56   Data           8  system_stm32f4xx.o(.constdata)
    ip_addr_any                              0x08008f60   Data           4  ip4_addr.o(.constdata)
    ip_addr_broadcast                        0x08008f64   Data           4  ip4_addr.o(.constdata)
    ethbroadcast                             0x08008f68   Data           6  ethernet.o(.constdata)
    ethzero                                  0x08008f6e   Data           6  ethernet.o(.constdata)
    memp_UDP_PCB                             0x08008f74   Data          12  memp.o(.constdata)
    memp_TCP_PCB                             0x08008f80   Data          12  memp.o(.constdata)
    memp_TCP_PCB_LISTEN                      0x08008f8c   Data          12  memp.o(.constdata)
    memp_TCP_SEG                             0x08008f98   Data          12  memp.o(.constdata)
    memp_REASSDATA                           0x08008fa4   Data          12  memp.o(.constdata)
    memp_FRAG_PBUF                           0x08008fb0   Data          12  memp.o(.constdata)
    memp_SYS_TIMEOUT                         0x08008fbc   Data          12  memp.o(.constdata)
    memp_PBUF                                0x08008fc8   Data          12  memp.o(.constdata)
    memp_PBUF_POOL                           0x08008fd4   Data          12  memp.o(.constdata)
    memp_pools                               0x08008fe0   Data          36  memp.o(.constdata)
    tcp_pcb_lists                            0x08009048   Data          16  tcp.o(.constdata)
    lwip_cyclic_timers                       0x08009058   Data          40  timeouts.o(.constdata)
    Region$$Table$$Base                      0x080090f8   Number         0  anon$$obj.o(Region$$Table)
    Region$$Table$$Limit                     0x08009118   Number         0  anon$$obj.o(Region$$Table)
    key1                                     0x20000000   Data           8  main.o(.data)
    DHCP_state                               0x20000008   Data           1  app_ethernet.o(.data)
    DHCPfineTimer                            0x2000000c   Data           4  app_ethernet.o(.data)
    EthernetLinkTimer                        0x20000010   Data           4  app_ethernet.o(.data)
    link_flag                                0x20000014   Data           1  tcp_echoserver.o(.data)
    real_time_data                           0x20000018   Data           4  tcp_echoserver.o(.data)
    tcp_echoserver_pcb                       0x2000001c   Data           4  tcp_echoserver.o(.data)
    tcp_echoserver_es                        0x20000020   Data           4  tcp_echoserver.o(.data)
    ServerIp                                 0x20000024   Data           4  tcp_echoserver.o(.data)
    uwTick                                   0x20000028   Data           4  stm32f4xx_hal.o(.data)
    SystemCoreClock                          0x2000002c   Data           4  system_stm32f4xx.o(.data)
    netif_list                               0x20000080   Data           4  netif.o(.data)
    netif_default                            0x20000084   Data           4  netif.o(.data)
    tcp_active_pcbs_changed                  0x20000088   Data           1  tcp.o(.data)
    tcp_ticks                                0x20000094   Data           4  tcp.o(.data)
    tcp_bound_pcbs                           0x20000098   Data           4  tcp.o(.data)
    tcp_listen_pcbs                          0x2000009c   Data           4  tcp.o(.data)
    tcp_active_pcbs                          0x200000a0   Data           4  tcp.o(.data)
    tcp_tw_pcbs                              0x200000a4   Data           4  tcp.o(.data)
    tcp_input_pcb                            0x200000c8   Data           4  tcp_in.o(.data)
    biaozhi                                  0x200000cc   Data           4  tcp_out.o(.data)
    N111                                     0x200000d0   Data           4  tcp_out.o(.data)
    N222                                     0x200000d4   Data           4  tcp_out.o(.data)
    udp_pcbs                                 0x200000e8   Data           4  udp.o(.data)
    __stdout                                 0x200000f0   Data           4  stdout.o(.data)
    gnetif                                   0x200000f4   Data          56  main.o(.bss)
    Lwip_data                                0x2000012c   Data          18  app_ethernet.o(.bss)
    DMARxDscrTab                             0x20000140   Data         128  ethernetif.o(.bss)
    DMATxDscrTab                             0x200001c0   Data         128  ethernetif.o(.bss)
    Rx_Buff                                  0x20000240   Data        6096  ethernetif.o(.bss)
    Tx_Buff                                  0x20001a10   Data        6096  ethernetif.o(.bss)
    EthHandle                                0x200031e0   Data          72  ethernetif.o(.bss)
    tcp_server_recvbuf                       0x20003228   Data         100  tcp_echoserver.o(.bss)
    tcp_SendData                             0x2000328c   Data         100  tcp_echoserver.o(.bss)
    husart_debug                             0x200032f0   Data          64  bsp_debug_usart.o(.bss)
    htim7                                    0x20003330   Data          60  bsp_basictim.o(.bss)
    dhcp_rx_options_val                      0x2000336c   Data          40  dhcp.o(.bss)
    dhcp_rx_options_given                    0x20003394   Data          10  dhcp.o(.bss)
    ip_data                                  0x200034a0   Data          24  ip.o(.bss)
    ram_heap                                 0x200034b8   Data       10259  mem.o(.bss)
    memp_memory_UDP_PCB_base                 0x20005ccb   Data         195  memp.o(.bss)
    memp_memory_TCP_PCB_base                 0x20005d8e   Data        1483  memp.o(.bss)
    memp_memory_TCP_PCB_LISTEN_base          0x20006359   Data         143  memp.o(.bss)
    memp_memory_TCP_SEG_base                 0x200063e8   Data         131  memp.o(.bss)
    memp_memory_REASSDATA_base               0x2000646b   Data         163  memp.o(.bss)
    memp_memory_FRAG_PBUF_base               0x2000650e   Data         363  memp.o(.bss)
    memp_memory_SYS_TIMEOUT_base             0x20006679   Data         163  memp.o(.bss)
    memp_memory_PBUF_base                    0x2000671c   Data         163  memp.o(.bss)
    memp_memory_PBUF_POOL_base               0x200067bf   Data        4227  memp.o(.bss)
    __initial_sp                             0x20008858   Data           0  startup_stm32f407xx.o(STACK)



==============================================================================

Memory Map of the image

  Image Entry point : 0x08000189

  Load Region LR_IROM1 (Base: 0x08000000, Size: 0x0000920c, Max: 0x00100000, ABSOLUTE)

    Execution Region ER_IROM1 (Exec base: 0x08000000, Load base: 0x08000000, Size: 0x00009118, Max: 0x00100000, ABSOLUTE)

    Exec Addr    Load Addr    Size         Type   Attr      Idx    E Section Name        Object

    0x08000000   0x08000000   0x00000188   Data   RO            3    RESET               startup_stm32f407xx.o
    0x08000188   0x08000188   0x00000000   Code   RO         9208  * .ARM.Collect$$$$00000000  mc_w.l(entry.o)
    0x08000188   0x08000188   0x00000004   Code   RO         9487    .ARM.Collect$$$$00000001  mc_w.l(entry2.o)
    0x0800018c   0x0800018c   0x00000004   Code   RO         9490    .ARM.Collect$$$$00000004  mc_w.l(entry5.o)
    0x08000190   0x08000190   0x00000000   Code   RO         9492    .ARM.Collect$$$$00000008  mc_w.l(entry7b.o)
    0x08000190   0x08000190   0x00000000   Code   RO         9494    .ARM.Collect$$$$0000000A  mc_w.l(entry8b.o)
    0x08000190   0x08000190   0x00000008   Code   RO         9495    .ARM.Collect$$$$0000000B  mc_w.l(entry9a.o)
    0x08000198   0x08000198   0x00000000   Code   RO         9497    .ARM.Collect$$$$0000000D  mc_w.l(entry10a.o)
    0x08000198   0x08000198   0x00000000   Code   RO         9499    .ARM.Collect$$$$0000000F  mc_w.l(entry11a.o)
    0x08000198   0x08000198   0x00000004   Code   RO         9488    .ARM.Collect$$$$00002712  mc_w.l(entry2.o)
    0x0800019c   0x0800019c   0x00000024   Code   RO            4    .text               startup_stm32f407xx.o
    0x080001c0   0x080001c0   0x00000024   Code   RO         9211    .text               mc_w.l(rand.o)
    0x080001e4   0x080001e4   0x00000024   Code   RO         9214    .text               mc_w.l(memcpya.o)
    0x08000208   0x08000208   0x00000024   Code   RO         9216    .text               mc_w.l(memseta.o)
    0x0800022c   0x0800022c   0x0000000e   Code   RO         9218    .text               mc_w.l(strlen.o)
    0x0800023a   0x0800023a   0x0000001a   Code   RO         9220    .text               mc_w.l(memcmp.o)
    0x08000254   0x08000254   0x0000002c   Code   RO         9502    .text               mc_w.l(uidiv.o)
    0x08000280   0x08000280   0x00000024   Code   RO         9517    .text               mc_w.l(init.o)
    0x080002a4   0x080002a4   0x0000003c   Code   RO         7337    i.BASIC_TIM7_Init   bsp_basictim.o
    0x080002e0   0x080002e0   0x00000002   Code   RO          680    i.BusFault_Handler  stm32f4xx_it.o
    0x080002e2   0x080002e2   0x00000002   PAD
    0x080002e4   0x080002e4   0x0000002c   Code   RO          767    i.DHCP_Periodic_Handle  app_ethernet.o
    0x08000310   0x08000310   0x00000240   Code   RO          768    i.DHCP_Process      app_ethernet.o
    0x08000550   0x08000550   0x00000002   Code   RO          681    i.DebugMon_Handler  stm32f4xx_it.o
    0x08000552   0x08000552   0x00000010   Code   RO         4453    i.ETH_DMAReceptionEnable  stm32f4xx_hal_eth.o
    0x08000562   0x08000562   0x00000010   Code   RO         4455    i.ETH_DMATransmissionEnable  stm32f4xx_hal_eth.o
    0x08000572   0x08000572   0x00000002   PAD
    0x08000574   0x08000574   0x00000024   Code   RO         4456    i.ETH_Delay         stm32f4xx_hal_eth.o
    0x08000598   0x08000598   0x0000002e   Code   RO         4457    i.ETH_FlushTransmitFIFO  stm32f4xx_hal_eth.o
    0x080005c6   0x080005c6   0x00000002   PAD
    0x080005c8   0x080005c8   0x00000020   Code   RO          769    i.ETH_IRQHandler    app_ethernet.o
    0x080005e8   0x080005e8   0x0000002a   Code   RO         4458    i.ETH_MACAddressConfig  stm32f4xx_hal_eth.o
    0x08000612   0x08000612   0x00000002   PAD
    0x08000614   0x08000614   0x00000194   Code   RO         4459    i.ETH_MACDMAConfig  stm32f4xx_hal_eth.o
    0x080007a8   0x080007a8   0x00000022   Code   RO         4461    i.ETH_MACReceptionEnable  stm32f4xx_hal_eth.o
    0x080007ca   0x080007ca   0x00000022   Code   RO         4463    i.ETH_MACTransmissionEnable  stm32f4xx_hal_eth.o
    0x080007ec   0x080007ec   0x0000001c   Code   RO          770    i.ETH_PHY_ReadReg   app_ethernet.o
    0x08000808   0x08000808   0x0000008a   Code   RO          772    i.ETH_link_check_state  app_ethernet.o
    0x08000892   0x08000892   0x00000002   PAD
    0x08000894   0x08000894   0x00000028   Code   RO          773    i.Ethernet_Link_Periodic_Handle  app_ethernet.o
    0x080008bc   0x080008bc   0x00000018   Code   RO         7259    i.GetPinStateOfKey1  bsp_key.o
    0x080008d4   0x080008d4   0x0000001e   Code   RO         2309    i.HAL_Delay         stm32f4xx_hal.o
    0x080008f2   0x080008f2   0x00000002   PAD
    0x080008f4   0x080008f4   0x00000138   Code   RO         4465    i.HAL_ETH_ConfigMAC  stm32f4xx_hal_eth.o
    0x08000a2c   0x08000a2c   0x00000080   Code   RO         4466    i.HAL_ETH_DMARxDescListInit  stm32f4xx_hal_eth.o
    0x08000aac   0x08000aac   0x0000008e   Code   RO         4467    i.HAL_ETH_DMATxDescListInit  stm32f4xx_hal_eth.o
    0x08000b3a   0x08000b3a   0x000000a0   Code   RO         4471    i.HAL_ETH_GetReceivedFrame_IT  stm32f4xx_hal_eth.o
    0x08000bda   0x08000bda   0x00000002   PAD
    0x08000bdc   0x08000bdc   0x00000270   Code   RO         4474    i.HAL_ETH_Init      stm32f4xx_hal_eth.o
    0x08000e4c   0x08000e4c   0x00000108   Code   RO          985    i.HAL_ETH_MspInit   ethernetif.o
    0x08000f54   0x08000f54   0x0000008c   Code   RO         4477    i.HAL_ETH_ReadPHYRegister  stm32f4xx_hal_eth.o
    0x08000fe0   0x08000fe0   0x00000046   Code   RO         4479    i.HAL_ETH_Start     stm32f4xx_hal_eth.o
    0x08001026   0x08001026   0x00000136   Code   RO         4481    i.HAL_ETH_TransmitFrame  stm32f4xx_hal_eth.o
    0x0800115c   0x0800115c   0x00000084   Code   RO         4483    i.HAL_ETH_WritePHYRegister  stm32f4xx_hal_eth.o
    0x080011e0   0x080011e0   0x0000021c   Code   RO         1678    i.HAL_GPIO_Init     stm32f4xx_hal_gpio.o
    0x080013fc   0x080013fc   0x0000000e   Code   RO         1680    i.HAL_GPIO_ReadPin  stm32f4xx_hal_gpio.o
    0x0800140a   0x0800140a   0x0000000e   Code   RO         1682    i.HAL_GPIO_WritePin  stm32f4xx_hal_gpio.o
    0x08001418   0x08001418   0x0000000c   Code   RO         2315    i.HAL_GetTick       stm32f4xx_hal.o
    0x08001424   0x08001424   0x00000010   Code   RO         2317    i.HAL_IncTick       stm32f4xx_hal.o
    0x08001434   0x08001434   0x00000034   Code   RO         2318    i.HAL_Init          stm32f4xx_hal.o
    0x08001468   0x08001468   0x00000028   Code   RO         2319    i.HAL_InitTick      stm32f4xx_hal.o
    0x08001490   0x08001490   0x00000068   Code   RO          429    i.HAL_MspInit       stm32f4xx_hal_msp.o
    0x080014f8   0x080014f8   0x00000018   Code   RO         1746    i.HAL_NVIC_EnableIRQ  stm32f4xx_hal_cortex.o
    0x08001510   0x08001510   0x00000068   Code   RO         1752    i.HAL_NVIC_SetPriority  stm32f4xx_hal_cortex.o
    0x08001578   0x08001578   0x00000024   Code   RO         1753    i.HAL_NVIC_SetPriorityGrouping  stm32f4xx_hal_cortex.o
    0x0800159c   0x0800159c   0x000001f0   Code   RO         2096    i.HAL_RCC_ClockConfig  stm32f4xx_hal_rcc.o
    0x0800178c   0x0800178c   0x0000000c   Code   RO         2099    i.HAL_RCC_EnableCSS  stm32f4xx_hal_rcc.o
    0x08001798   0x08001798   0x0000000c   Code   RO         2101    i.HAL_RCC_GetHCLKFreq  stm32f4xx_hal_rcc.o
    0x080017a4   0x080017a4   0x0000002c   Code   RO         2103    i.HAL_RCC_GetPCLK1Freq  stm32f4xx_hal_rcc.o
    0x080017d0   0x080017d0   0x0000002c   Code   RO         2104    i.HAL_RCC_GetPCLK2Freq  stm32f4xx_hal_rcc.o
    0x080017fc   0x080017fc   0x0000008c   Code   RO         2105    i.HAL_RCC_GetSysClockFreq  stm32f4xx_hal_rcc.o
    0x08001888   0x08001888   0x00000440   Code   RO         2108    i.HAL_RCC_OscConfig  stm32f4xx_hal_rcc.o
    0x08001cc8   0x08001cc8   0x0000001c   Code   RO         1755    i.HAL_SYSTICK_CLKSourceConfig  stm32f4xx_hal_cortex.o
    0x08001ce4   0x08001ce4   0x00000002   Code   RO         1756    i.HAL_SYSTICK_Callback  stm32f4xx_hal_cortex.o
    0x08001ce6   0x08001ce6   0x00000002   PAD
    0x08001ce8   0x08001ce8   0x00000028   Code   RO         1757    i.HAL_SYSTICK_Config  stm32f4xx_hal_cortex.o
    0x08001d10   0x08001d10   0x00000008   Code   RO         1758    i.HAL_SYSTICK_IRQHandler  stm32f4xx_hal_cortex.o
    0x08001d18   0x08001d18   0x00000002   Code   RO         2551    i.HAL_TIMEx_BreakCallback  stm32f4xx_hal_tim_ex.o
    0x08001d1a   0x08001d1a   0x00000002   Code   RO         2552    i.HAL_TIMEx_CommutationCallback  stm32f4xx_hal_tim_ex.o
    0x08001d1c   0x08001d1c   0x00000066   Code   RO         2568    i.HAL_TIMEx_MasterConfigSynchronization  stm32f4xx_hal_tim_ex.o
    0x08001d82   0x08001d82   0x00000038   Code   RO         2792    i.HAL_TIM_Base_Init  stm32f4xx_hal_tim.o
    0x08001dba   0x08001dba   0x00000002   PAD
    0x08001dbc   0x08001dbc   0x0000003c   Code   RO         7339    i.HAL_TIM_Base_MspInit  bsp_basictim.o
    0x08001df8   0x08001df8   0x00000018   Code   RO         2797    i.HAL_TIM_Base_Start_IT  stm32f4xx_hal_tim.o
    0x08001e10   0x08001e10   0x00000002   Code   RO         2821    i.HAL_TIM_IC_CaptureCallback  stm32f4xx_hal_tim.o
    0x08001e12   0x08001e12   0x00000174   Code   RO         2834    i.HAL_TIM_IRQHandler  stm32f4xx_hal_tim.o
    0x08001f86   0x08001f86   0x00000002   Code   RO         2837    i.HAL_TIM_OC_DelayElapsedCallback  stm32f4xx_hal_tim.o
    0x08001f88   0x08001f88   0x00000002   Code   RO         2864    i.HAL_TIM_PWM_PulseFinishedCallback  stm32f4xx_hal_tim.o
    0x08001f8a   0x08001f8a   0x00000002   PAD
    0x08001f8c   0x08001f8c   0x00000020   Code   RO           13    i.HAL_TIM_PeriodElapsedCallback  main.o
    0x08001fac   0x08001fac   0x00000002   Code   RO         2875    i.HAL_TIM_TriggerCallback  stm32f4xx_hal_tim.o
    0x08001fae   0x08001fae   0x00000064   Code   RO         3456    i.HAL_UART_Init     stm32f4xx_hal_uart.o
    0x08002012   0x08002012   0x00000002   PAD
    0x08002014   0x08002014   0x0000004c   Code   RO         7206    i.HAL_UART_MspInit  bsp_debug_usart.o
    0x08002060   0x08002060   0x000000dc   Code   RO         3464    i.HAL_UART_Transmit  stm32f4xx_hal_uart.o
    0x0800213c   0x0800213c   0x00000002   Code   RO          682    i.HardFault_Handler  stm32f4xx_it.o
    0x0800213e   0x0800213e   0x00000002   PAD
    0x08002140   0x08002140   0x000000b8   Code   RO         7264    i.KEY_GPIO_Init     bsp_key.o
    0x080021f8   0x080021f8   0x00000010   Code   RO         7265    i.KeyCreate         bsp_key.o
    0x08002208   0x08002208   0x0000000e   Code   RO         7267    i.Key_AccessTimes   bsp_key.o
    0x08002216   0x08002216   0x00000084   Code   RO         7268    i.Key_RefreshState  bsp_key.o
    0x0800229a   0x0800229a   0x00000002   PAD
    0x0800229c   0x0800229c   0x00000044   Code   RO         7207    i.MX_DEBUG_USART_Init  bsp_debug_usart.o
    0x080022e0   0x080022e0   0x00000002   Code   RO          683    i.MemManage_Handler  stm32f4xx_it.o
    0x080022e2   0x080022e2   0x00000002   Code   RO          684    i.NMI_Handler       stm32f4xx_it.o
    0x080022e4   0x080022e4   0x00000050   Code   RO          775    i.Netif_Config      app_ethernet.o
    0x08002334   0x08002334   0x00000002   Code   RO          685    i.PendSV_Handler    stm32f4xx_it.o
    0x08002336   0x08002336   0x00000002   Code   RO          686    i.RCC_IRQHandler    stm32f4xx_it.o
    0x08002338   0x08002338   0x00000002   Code   RO          687    i.SVC_Handler       stm32f4xx_it.o
    0x0800233a   0x0800233a   0x0000000e   Code   RO          688    i.SysTick_Handler   stm32f4xx_it.o
    0x08002348   0x08002348   0x0000009c   Code   RO           14    i.SystemClock_Config  main.o
    0x080023e4   0x080023e4   0x00000058   Code   RO         7168    i.SystemInit        system_stm32f4xx.o
    0x0800243c   0x0800243c   0x0000000c   Code   RO          689    i.TIM7_IRQHandler   stm32f4xx_it.o
    0x08002448   0x08002448   0x000000c8   Code   RO         2876    i.TIM_Base_SetConfig  stm32f4xx_hal_tim.o
    0x08002510   0x08002510   0x00000344   Code   RO         3483    i.UART_SetConfig    stm32f4xx_hal_uart.o
    0x08002854   0x08002854   0x00000078   Code   RO         3485    i.UART_WaitOnFlagUntilTimeout  stm32f4xx_hal_uart.o
    0x080028cc   0x080028cc   0x00000002   Code   RO          690    i.UsageFault_Handler  stm32f4xx_it.o
    0x080028ce   0x080028ce   0x00000002   PAD
    0x080028d0   0x080028d0   0x000001ec   Code   RO         1093    i.YSF4_TCP_SENDData  tcp_echoserver.o
    0x08002abc   0x08002abc   0x00000020   Code   RO         9315    i.__0printf$3       mc_w.l(printf3.o)
    0x08002adc   0x08002adc   0x00000028   Code   RO         9317    i.__0sprintf$3      mc_w.l(printf3.o)
    0x08002b04   0x08002b04   0x0000000e   Code   RO         9529    i.__scatterload_copy  mc_w.l(handlers.o)
    0x08002b12   0x08002b12   0x00000002   Code   RO         9530    i.__scatterload_null  mc_w.l(handlers.o)
    0x08002b14   0x08002b14   0x0000000e   Code   RO         9531    i.__scatterload_zeroinit  mc_w.l(handlers.o)
    0x08002b22   0x08002b22   0x00000002   PAD
    0x08002b24   0x08002b24   0x000001b8   Code   RO         9322    i._printf_core      mc_w.l(printf3.o)
    0x08002cdc   0x08002cdc   0x0000000a   Code   RO         9324    i._sputc            mc_w.l(printf3.o)
    0x08002ce6   0x08002ce6   0x00000002   PAD
    0x08002ce8   0x08002ce8   0x0000001c   Code   RO         9034    i.cyclic_timer      timeouts.o
    0x08002d04   0x08002d04   0x0000001e   Code   RO         7389    i.dhcp_arp_reply    dhcp.o
    0x08002d22   0x08002d22   0x00000002   PAD
    0x08002d24   0x08002d24   0x000000f0   Code   RO         7390    i.dhcp_bind         dhcp.o
    0x08002e14   0x08002e14   0x00000034   Code   RO         7391    i.dhcp_check        dhcp.o
    0x08002e48   0x08002e48   0x00000068   Code   RO         7393    i.dhcp_coarse_tmr   dhcp.o
    0x08002eb0   0x08002eb0   0x00000134   Code   RO         7394    i.dhcp_create_msg   dhcp.o
    0x08002fe4   0x08002fe4   0x00000020   Code   RO         7395    i.dhcp_dec_pcb_refcount  dhcp.o
    0x08003004   0x08003004   0x00000090   Code   RO         7396    i.dhcp_decline      dhcp.o
    0x08003094   0x08003094   0x00000018   Code   RO         7397    i.dhcp_delete_msg   dhcp.o
    0x080030ac   0x080030ac   0x000000d8   Code   RO         7398    i.dhcp_discover     dhcp.o
    0x08003184   0x08003184   0x00000034   Code   RO         7399    i.dhcp_fine_tmr     dhcp.o
    0x080031b8   0x080031b8   0x0000006c   Code   RO         7400    i.dhcp_handle_ack   dhcp.o
    0x08003224   0x08003224   0x00000028   Code   RO         7401    i.dhcp_handle_nak   dhcp.o
    0x0800324c   0x0800324c   0x00000034   Code   RO         7402    i.dhcp_handle_offer  dhcp.o
    0x08003280   0x08003280   0x00000054   Code   RO         7403    i.dhcp_inc_pcb_refcount  dhcp.o
    0x080032d4   0x080032d4   0x00000030   Code   RO         7405    i.dhcp_network_changed  dhcp.o
    0x08003304   0x08003304   0x00000022   Code   RO         7406    i.dhcp_option       dhcp.o
    0x08003326   0x08003326   0x0000000e   Code   RO         7407    i.dhcp_option_byte  dhcp.o
    0x08003334   0x08003334   0x00000044   Code   RO         7408    i.dhcp_option_long  dhcp.o
    0x08003378   0x08003378   0x00000020   Code   RO         7409    i.dhcp_option_short  dhcp.o
    0x08003398   0x08003398   0x00000032   Code   RO         7410    i.dhcp_option_trailer  dhcp.o
    0x080033ca   0x080033ca   0x00000002   PAD
    0x080033cc   0x080033cc   0x000002bc   Code   RO         7411    i.dhcp_parse_reply  dhcp.o
    0x08003688   0x08003688   0x000000b8   Code   RO         7412    i.dhcp_rebind       dhcp.o
    0x08003740   0x08003740   0x000000d4   Code   RO         7413    i.dhcp_reboot       dhcp.o
    0x08003814   0x08003814   0x00000104   Code   RO         7414    i.dhcp_recv         dhcp.o
    0x08003918   0x08003918   0x000000b4   Code   RO         7415    i.dhcp_release      dhcp.o
    0x080039cc   0x080039cc   0x000000b8   Code   RO         7416    i.dhcp_renew        dhcp.o
    0x08003a84   0x08003a84   0x00000104   Code   RO         7417    i.dhcp_select       dhcp.o
    0x08003b88   0x08003b88   0x00000010   Code   RO         7418    i.dhcp_set_state    dhcp.o
    0x08003b98   0x08003b98   0x00000094   Code   RO         7420    i.dhcp_start        dhcp.o
    0x08003c2c   0x08003c2c   0x00000024   Code   RO         7421    i.dhcp_stop         dhcp.o
    0x08003c50   0x08003c50   0x0000001e   Code   RO         7422    i.dhcp_supplied_address  dhcp.o
    0x08003c6e   0x08003c6e   0x0000002a   Code   RO         7423    i.dhcp_t1_timeout   dhcp.o
    0x08003c98   0x08003c98   0x0000002e   Code   RO         7424    i.dhcp_t2_timeout   dhcp.o
    0x08003cc6   0x08003cc6   0x0000007c   Code   RO         7425    i.dhcp_timeout      dhcp.o
    0x08003d42   0x08003d42   0x0000000c   Code   RO         8206    i.do_memp_free_pool  memp.o
    0x08003d4e   0x08003d4e   0x00000012   Code   RO         8207    i.do_memp_malloc_pool  memp.o
    0x08003d60   0x08003d60   0x00000030   Code   RO         7611    i.etharp_cleanup_netif  etharp.o
    0x08003d90   0x08003d90   0x0000010c   Code   RO         7613    i.etharp_find_entry  etharp.o
    0x08003e9c   0x08003e9c   0x00000028   Code   RO         7614    i.etharp_free_entry  etharp.o
    0x08003ec4   0x08003ec4   0x000000c8   Code   RO         7616    i.etharp_input      etharp.o
    0x08003f8c   0x08003f8c   0x0000010c   Code   RO         7617    i.etharp_output     etharp.o
    0x08004098   0x08004098   0x00000060   Code   RO         7618    i.etharp_output_to_arp_index  etharp.o
    0x080040f8   0x080040f8   0x00000128   Code   RO         7619    i.etharp_query      etharp.o
    0x08004220   0x08004220   0x0000008a   Code   RO         7620    i.etharp_raw        etharp.o
    0x080042aa   0x080042aa   0x00000002   PAD
    0x080042ac   0x080042ac   0x0000000c   Code   RO         7621    i.etharp_request    etharp.o
    0x080042b8   0x080042b8   0x00000028   Code   RO         7622    i.etharp_request_dst  etharp.o
    0x080042e0   0x080042e0   0x00000064   Code   RO         7623    i.etharp_tmr        etharp.o
    0x08004344   0x08004344   0x00000084   Code   RO         7624    i.etharp_update_arp_entry  etharp.o
    0x080043c8   0x080043c8   0x000000a8   Code   RO         7974    i.ethernet_input    ethernet.o
    0x08004470   0x08004470   0x000000e4   Code   RO          986    i.ethernet_link_check_state  ethernetif.o
    0x08004554   0x08004554   0x0000007c   Code   RO          777    i.ethernet_link_status_updated  app_ethernet.o
    0x080045d0   0x080045d0   0x00000052   Code   RO         7975    i.ethernet_output   ethernet.o
    0x08004622   0x08004622   0x00000002   PAD
    0x08004624   0x08004624   0x00000028   Code   RO          987    i.ethernetif_init   ethernetif.o
    0x0800464c   0x0800464c   0x00000026   Code   RO          988    i.ethernetif_input  ethernetif.o
    0x08004672   0x08004672   0x00000002   PAD
    0x08004674   0x08004674   0x0000001c   Code   RO         7209    i.fputc             bsp_debug_usart.o
    0x08004690   0x08004690   0x00000008   Code   RO         7701    i.icmp_dest_unreach  icmp.o
    0x08004698   0x08004698   0x00000144   Code   RO         7702    i.icmp_input        icmp.o
    0x080047dc   0x080047dc   0x00000072   Code   RO         7703    i.icmp_send_response  icmp.o
    0x0800484e   0x0800484e   0x00000008   Code   RO         7704    i.icmp_time_exceeded  icmp.o
    0x08004856   0x08004856   0x0000004c   Code   RO         8055    i.inet_chksum_pbuf  inet_chksum.o
    0x080048a2   0x080048a2   0x00000050   Code   RO         7796    i.ip4_addr_isbroadcast_u32  ip4_addr.o
    0x080048f2   0x080048f2   0x00000002   PAD
    0x080048f4   0x080048f4   0x000001a4   Code   RO         7850    i.ip4_frag          ip4_frag.o
    0x08004a98   0x08004a98   0x000001f4   Code   RO         7739    i.ip4_input         ip4.o
    0x08004c8c   0x08004c8c   0x0000002c   Code   RO         7741    i.ip4_output_if     ip4.o
    0x08004cb8   0x08004cb8   0x000000bc   Code   RO         7742    i.ip4_output_if_src  ip4.o
    0x08004d74   0x08004d74   0x00000180   Code   RO         7851    i.ip4_reass         ip4_frag.o
    0x08004ef4   0x08004ef4   0x00000074   Code   RO         7743    i.ip4_route         ip4.o
    0x08004f68   0x08004f68   0x0000000c   Code   RO         7799    i.ip4addr_ntoa      ip4_addr.o
    0x08004f74   0x08004f74   0x000000b0   Code   RO         7800    i.ip4addr_ntoa_r    ip4_addr.o
    0x08005024   0x08005024   0x00000006   Code   RO         7852    i.ip_frag_alloc_pbuf_custom_ref  ip4_frag.o
    0x0800502a   0x0800502a   0x00000008   Code   RO         7853    i.ip_frag_free_pbuf_custom_ref  ip4_frag.o
    0x08005032   0x08005032   0x00000002   PAD
    0x08005034   0x08005034   0x000000f8   Code   RO         7854    i.ip_reass_chain_frag_into_datagram_and_validate  ip4_frag.o
    0x0800512c   0x0800512c   0x00000020   Code   RO         7855    i.ip_reass_dequeue_datagram  ip4_frag.o
    0x0800514c   0x0800514c   0x00000064   Code   RO         7856    i.ip_reass_enqueue_new_datagram  ip4_frag.o
    0x080051b0   0x080051b0   0x0000007c   Code   RO         7857    i.ip_reass_free_complete_datagram  ip4_frag.o
    0x0800522c   0x0800522c   0x0000007c   Code   RO         7858    i.ip_reass_remove_oldest_datagram  ip4_frag.o
    0x080052a8   0x080052a8   0x00000030   Code   RO         7859    i.ip_reass_tmr      ip4_frag.o
    0x080052d8   0x080052d8   0x00000018   Code   RO         7860    i.ipfrag_free_pbuf_custom  ip4_frag.o
    0x080052f0   0x080052f0   0x0000011c   Code   RO          990    i.low_level_init    ethernetif.o
    0x0800540c   0x0800540c   0x000000c4   Code   RO          991    i.low_level_input   ethernetif.o
    0x080054d0   0x080054d0   0x000000b8   Code   RO          992    i.low_level_output  ethernetif.o
    0x08005588   0x08005588   0x0000000c   Code   RO          993    i.lwip_IT_handle    ethernetif.o
    0x08005594   0x08005594   0x00000018   Code   RO         8005    i.lwip_htonl        def.o
    0x080055ac   0x080055ac   0x0000000a   Code   RO         8006    i.lwip_htons        def.o
    0x080055b6   0x080055b6   0x0000001e   Code   RO         8122    i.lwip_init         init.o
    0x080055d4   0x080055d4   0x0000005a   Code   RO         8062    i.lwip_standard_chksum  inet_chksum.o
    0x0800562e   0x0800562e   0x00000002   PAD
    0x08005630   0x08005630   0x0000003c   Code   RO           15    i.main              main.o
    0x0800566c   0x0800566c   0x0000002c   Code   RO         8162    i.mem_free          mem.o
    0x08005698   0x08005698   0x00000034   Code   RO         8163    i.mem_init          mem.o
    0x080056cc   0x080056cc   0x000000c0   Code   RO         8164    i.mem_malloc        mem.o
    0x0800578c   0x0800578c   0x000000e4   Code   RO         8165    i.mem_trim          mem.o
    0x08005870   0x08005870   0x00000018   Code   RO         8208    i.memp_free         memp.o
    0x08005888   0x08005888   0x0000001c   Code   RO         8210    i.memp_init         memp.o
    0x080058a4   0x080058a4   0x0000002e   Code   RO         8211    i.memp_init_pool    memp.o
    0x080058d2   0x080058d2   0x00000002   PAD
    0x080058d4   0x080058d4   0x00000018   Code   RO         8212    i.memp_malloc       memp.o
    0x080058ec   0x080058ec   0x00000058   Code   RO         8309    i.netif_add         netif.o
    0x08005944   0x08005944   0x00000002   Code   RO         8311    i.netif_init        netif.o
    0x08005946   0x08005946   0x0000001e   Code   RO         8313    i.netif_issue_reports  netif.o
    0x08005964   0x08005964   0x0000004c   Code   RO         8315    i.netif_set_addr    netif.o
    0x080059b0   0x080059b0   0x0000000c   Code   RO         8316    i.netif_set_default  netif.o
    0x080059bc   0x080059bc   0x0000001e   Code   RO         8317    i.netif_set_down    netif.o
    0x080059da   0x080059da   0x0000000e   Code   RO         8318    i.netif_set_gw      netif.o
    0x080059e8   0x080059e8   0x00000048   Code   RO         8319    i.netif_set_ipaddr  netif.o
    0x08005a30   0x08005a30   0x00000008   Code   RO         8320    i.netif_set_link_callback  netif.o
    0x08005a38   0x08005a38   0x0000001c   Code   RO         8321    i.netif_set_link_down  netif.o
    0x08005a54   0x08005a54   0x0000003e   Code   RO         8322    i.netif_set_link_up  netif.o
    0x08005a92   0x08005a92   0x0000000e   Code   RO         8323    i.netif_set_netmask  netif.o
    0x08005aa0   0x08005aa0   0x00000020   Code   RO         8324    i.netif_set_up      netif.o
    0x08005ac0   0x08005ac0   0x0000013a   Code   RO         8420    i.pbuf_alloc        pbuf.o
    0x08005bfa   0x08005bfa   0x00000068   Code   RO         8421    i.pbuf_alloced_custom  pbuf.o
    0x08005c62   0x08005c62   0x00000028   Code   RO         8422    i.pbuf_cat          pbuf.o
    0x08005c8a   0x08005c8a   0x00000014   Code   RO         8423    i.pbuf_chain        pbuf.o
    0x08005c9e   0x08005c9e   0x00000014   Code   RO         8424    i.pbuf_clen         pbuf.o
    0x08005cb2   0x08005cb2   0x000000a8   Code   RO         8426    i.pbuf_copy         pbuf.o
    0x08005d5a   0x08005d5a   0x00000070   Code   RO         8427    i.pbuf_copy_partial  pbuf.o
    0x08005dca   0x08005dca   0x0000005e   Code   RO         8429    i.pbuf_free         pbuf.o
    0x08005e28   0x08005e28   0x00000006   Code   RO         8431    i.pbuf_header       pbuf.o
    0x08005e2e   0x08005e2e   0x00000006   Code   RO         8432    i.pbuf_header_force  pbuf.o
    0x08005e34   0x08005e34   0x0000008a   Code   RO         8433    i.pbuf_header_impl  pbuf.o
    0x08005ebe   0x08005ebe   0x0000005c   Code   RO         8437    i.pbuf_realloc      pbuf.o
    0x08005f1a   0x08005f1a   0x0000000c   Code   RO         8438    i.pbuf_ref          pbuf.o
    0x08005f26   0x08005f26   0x0000005e   Code   RO         8442    i.pbuf_take         pbuf.o
    0x08005f84   0x08005f84   0x00000068   Code   RO         8166    i.plug_holes        mem.o
    0x08005fec   0x08005fec   0x0000004c   Code   RO         9035    i.sys_check_timeouts  timeouts.o
    0x08006038   0x08006038   0x00000004   Code   RO          994    i.sys_now           ethernetif.o
    0x0800603c   0x0800603c   0x000000a8   Code   RO         9037    i.sys_timeout       timeouts.o
    0x080060e4   0x080060e4   0x00000030   Code   RO         9038    i.sys_timeouts_init  timeouts.o
    0x08006114   0x08006114   0x000000d4   Code   RO         8592    i.tcp_abandon       tcp.o
    0x080061e8   0x080061e8   0x00000006   Code   RO         8593    i.tcp_abort         tcp.o
    0x080061ee   0x080061ee   0x0000000e   Code   RO         8594    i.tcp_accept        tcp.o
    0x080061fc   0x080061fc   0x0000000e   Code   RO         8595    i.tcp_accept_null   tcp.o
    0x0800620a   0x0800620a   0x00000002   PAD
    0x0800620c   0x0800620c   0x000000b0   Code   RO         8596    i.tcp_alloc         tcp.o
    0x080062bc   0x080062bc   0x00000008   Code   RO         8597    i.tcp_arg           tcp.o
    0x080062c4   0x080062c4   0x0000009c   Code   RO         8598    i.tcp_bind          tcp.o
    0x08006360   0x08006360   0x00000014   Code   RO         8599    i.tcp_close         tcp.o
    0x08006374   0x08006374   0x0000018c   Code   RO         8600    i.tcp_close_shutdown  tcp.o
    0x08006500   0x08006500   0x0000009a   Code   RO         8921    i.tcp_create_segment  tcp_out.o
    0x0800659a   0x0800659a   0x00000002   PAD
    0x0800659c   0x0800659c   0x000000b8   Code   RO         1094    i.tcp_echoserver_accept  tcp_echoserver.o
    0x08006654   0x08006654   0x00000042   Code   RO         1096    i.tcp_echoserver_connection_close  tcp_echoserver.o
    0x08006696   0x08006696   0x0000000a   Code   RO         1097    i.tcp_echoserver_error  tcp_echoserver.o
    0x080066a0   0x080066a0   0x0000002a   Code   RO         1098    i.tcp_echoserver_poll  tcp_echoserver.o
    0x080066ca   0x080066ca   0x00000002   PAD
    0x080066cc   0x080066cc   0x000000e8   Code   RO         1099    i.tcp_echoserver_recv  tcp_echoserver.o
    0x080067b4   0x080067b4   0x00000074   Code   RO         1100    i.tcp_echoserver_send  tcp_echoserver.o
    0x08006828   0x08006828   0x00000026   Code   RO         8603    i.tcp_eff_send_mss_impl  tcp.o
    0x0800684e   0x0800684e   0x000000be   Code   RO         8922    i.tcp_enqueue_flags  tcp_out.o
    0x0800690c   0x0800690c   0x0000000a   Code   RO         8604    i.tcp_err           tcp.o
    0x08006916   0x08006916   0x00000002   PAD
    0x08006918   0x08006918   0x00000074   Code   RO         8605    i.tcp_fasttmr       tcp.o
    0x0800698c   0x0800698c   0x0000003c   Code   RO         8859    i.tcp_getoptbyte    tcp_in.o
    0x080069c8   0x080069c8   0x00000002   Code   RO         8606    i.tcp_init          tcp.o
    0x080069ca   0x080069ca   0x00000002   PAD
    0x080069cc   0x080069cc   0x000003e0   Code   RO         8860    i.tcp_input         tcp_in.o
    0x08006dac   0x08006dac   0x00000058   Code   RO         8923    i.tcp_keepalive     tcp_out.o
    0x08006e04   0x08006e04   0x00000048   Code   RO         8607    i.tcp_kill_prio     tcp.o
    0x08006e4c   0x08006e4c   0x00000040   Code   RO         8608    i.tcp_kill_state    tcp.o
    0x08006e8c   0x08006e8c   0x00000034   Code   RO         8609    i.tcp_kill_timewait  tcp.o
    0x08006ec0   0x08006ec0   0x00000020   Code   RO         8610    i.tcp_listen_closed  tcp.o
    0x08006ee0   0x08006ee0   0x0000010c   Code   RO         8861    i.tcp_listen_input  tcp_in.o
    0x08006fec   0x08006fec   0x00000090   Code   RO         8611    i.tcp_listen_with_backlog  tcp.o
    0x0800707c   0x0800707c   0x00000050   Code   RO         8612    i.tcp_netif_ip_addr_changed  tcp.o
    0x080070cc   0x080070cc   0x00000024   Code   RO         8613    i.tcp_netif_ip_addr_changed_pcblist  tcp.o
    0x080070f0   0x080070f0   0x00000006   Code   RO         8614    i.tcp_new           tcp.o
    0x080070f6   0x080070f6   0x00000002   PAD
    0x080070f8   0x080070f8   0x00000060   Code   RO         8616    i.tcp_new_port      tcp.o
    0x08007158   0x08007158   0x00000010   Code   RO         8617    i.tcp_next_iss      tcp.o
    0x08007168   0x08007168   0x00000200   Code   RO         8924    i.tcp_output        tcp_out.o
    0x08007368   0x08007368   0x0000006a   Code   RO         8925    i.tcp_output_alloc_header  tcp_out.o
    0x080073d2   0x080073d2   0x00000002   PAD
    0x080073d4   0x080073d4   0x000000b4   Code   RO         8926    i.tcp_output_segment  tcp_out.o
    0x08007488   0x08007488   0x00000078   Code   RO         8862    i.tcp_parseopt      tcp_in.o
    0x08007500   0x08007500   0x00000056   Code   RO         8927    i.tcp_pbuf_prealloc  tcp_out.o
    0x08007556   0x08007556   0x0000003a   Code   RO         8618    i.tcp_pcb_purge     tcp.o
    0x08007590   0x08007590   0x0000006c   Code   RO         8619    i.tcp_pcb_remove    tcp.o
    0x080075fc   0x080075fc   0x00000008   Code   RO         8620    i.tcp_poll          tcp.o
    0x08007604   0x08007604   0x00000494   Code   RO         8863    i.tcp_process       tcp_in.o
    0x08007a98   0x08007a98   0x0000007c   Code   RO         8621    i.tcp_process_refused_data  tcp.o
    0x08007b14   0x08007b14   0x0000042c   Code   RO         8864    i.tcp_receive       tcp_in.o
    0x08007f40   0x08007f40   0x00000008   Code   RO         8622    i.tcp_recv          tcp.o
    0x08007f48   0x08007f48   0x00000026   Code   RO         8623    i.tcp_recv_null     tcp.o
    0x08007f6e   0x08007f6e   0x00000002   PAD
    0x08007f70   0x08007f70   0x0000005c   Code   RO         8624    i.tcp_recved        tcp.o
    0x08007fcc   0x08007fcc   0x00000016   Code   RO         8625    i.tcp_remove_listener  tcp.o
    0x08007fe2   0x08007fe2   0x00000052   Code   RO         8928    i.tcp_rexmit        tcp_out.o
    0x08008034   0x08008034   0x00000066   Code   RO         8929    i.tcp_rexmit_fast   tcp_out.o
    0x0800809a   0x0800809a   0x00000002   PAD
    0x0800809c   0x0800809c   0x00000048   Code   RO         8930    i.tcp_rexmit_rto    tcp_out.o
    0x080080e4   0x080080e4   0x00000088   Code   RO         8931    i.tcp_rst           tcp_out.o
    0x0800816c   0x0800816c   0x0000001e   Code   RO         8626    i.tcp_seg_free      tcp.o
    0x0800818a   0x0800818a   0x00000014   Code   RO         8627    i.tcp_segs_free     tcp.o
    0x0800819e   0x0800819e   0x00000074   Code   RO         8932    i.tcp_send_empty_ack  tcp_out.o
    0x08008212   0x08008212   0x0000004a   Code   RO         8933    i.tcp_send_fin      tcp_out.o
    0x0800825c   0x0800825c   0x00000008   Code   RO         8628    i.tcp_sent          tcp.o
    0x08008264   0x08008264   0x0000008c   Code   RO         1101    i.tcp_server_usersent  tcp_echoserver.o
    0x080082f0   0x080082f0   0x00000004   Code   RO         8629    i.tcp_setprio       tcp.o
    0x080082f4   0x080082f4   0x000002a8   Code   RO         8631    i.tcp_slowtmr       tcp.o
    0x0800859c   0x0800859c   0x00000034   Code   RO         9041    i.tcp_timer_needed  timeouts.o
    0x080085d0   0x080085d0   0x00000098   Code   RO         8865    i.tcp_timewait_input  tcp_in.o
    0x08008668   0x08008668   0x00000024   Code   RO         8632    i.tcp_tmr           tcp.o
    0x0800868c   0x0800868c   0x00000010   Code   RO         8866    i.tcp_trigger_input_pcb_close  tcp_in.o
    0x0800869c   0x0800869c   0x0000003e   Code   RO         8634    i.tcp_update_rcv_ann_wnd  tcp.o
    0x080086da   0x080086da   0x000002d4   Code   RO         8934    i.tcp_write         tcp_out.o
    0x080089ae   0x080089ae   0x0000004e   Code   RO         8935    i.tcp_write_checks  tcp_out.o
    0x080089fc   0x080089fc   0x000000ca   Code   RO         8936    i.tcp_zero_window_probe  tcp_out.o
    0x08008ac6   0x08008ac6   0x00000002   PAD
    0x08008ac8   0x08008ac8   0x00000038   Code   RO         9042    i.tcpip_tcp_timer   timeouts.o
    0x08008b00   0x08008b00   0x0000008c   Code   RO         9099    i.udp_bind          udp.o
    0x08008b8c   0x08008b8c   0x00000058   Code   RO         9100    i.udp_connect       udp.o
    0x08008be4   0x08008be4   0x00000002   Code   RO         9102    i.udp_init          udp.o
    0x08008be6   0x08008be6   0x00000002   PAD
    0x08008be8   0x08008be8   0x00000144   Code   RO         9103    i.udp_input         udp.o
    0x08008d2c   0x08008d2c   0x00000038   Code   RO         9104    i.udp_input_local_match  udp.o
    0x08008d64   0x08008d64   0x00000038   Code   RO         9105    i.udp_netif_ip_addr_changed  udp.o
    0x08008d9c   0x08008d9c   0x00000024   Code   RO         9106    i.udp_new           udp.o
    0x08008dc0   0x08008dc0   0x0000004c   Code   RO         9108    i.udp_new_port      udp.o
    0x08008e0c   0x08008e0c   0x00000006   Code   RO         9109    i.udp_recv          udp.o
    0x08008e12   0x08008e12   0x00000002   PAD
    0x08008e14   0x08008e14   0x00000030   Code   RO         9110    i.udp_remove        udp.o
    0x08008e44   0x08008e44   0x00000048   Code   RO         9113    i.udp_sendto_if     udp.o
    0x08008e8c   0x08008e8c   0x000000ba   Code   RO         9114    i.udp_sendto_if_src  udp.o
    0x08008f46   0x08008f46   0x00000010   Data   RO         7169    .constdata          system_stm32f4xx.o
    0x08008f56   0x08008f56   0x00000008   Data   RO         7170    .constdata          system_stm32f4xx.o
    0x08008f5e   0x08008f5e   0x00000002   PAD
    0x08008f60   0x08008f60   0x00000004   Data   RO         7803    .constdata          ip4_addr.o
    0x08008f64   0x08008f64   0x00000004   Data   RO         7804    .constdata          ip4_addr.o
    0x08008f68   0x08008f68   0x00000006   Data   RO         7976    .constdata          ethernet.o
    0x08008f6e   0x08008f6e   0x00000006   Data   RO         7977    .constdata          ethernet.o
    0x08008f74   0x08008f74   0x0000000c   Data   RO         8223    .constdata          memp.o
    0x08008f80   0x08008f80   0x0000000c   Data   RO         8224    .constdata          memp.o
    0x08008f8c   0x08008f8c   0x0000000c   Data   RO         8225    .constdata          memp.o
    0x08008f98   0x08008f98   0x0000000c   Data   RO         8226    .constdata          memp.o
    0x08008fa4   0x08008fa4   0x0000000c   Data   RO         8227    .constdata          memp.o
    0x08008fb0   0x08008fb0   0x0000000c   Data   RO         8228    .constdata          memp.o
    0x08008fbc   0x08008fbc   0x0000000c   Data   RO         8229    .constdata          memp.o
    0x08008fc8   0x08008fc8   0x0000000c   Data   RO         8230    .constdata          memp.o
    0x08008fd4   0x08008fd4   0x0000000c   Data   RO         8231    .constdata          memp.o
    0x08008fe0   0x08008fe0   0x00000024   Data   RO         8232    .constdata          memp.o
    0x08009004   0x08009004   0x00000054   Data   RO         8635    .constdata          tcp.o
    0x08009058   0x08009058   0x00000028   Data   RO         9043    .constdata          timeouts.o
    0x08009080   0x08009080   0x00000075   Data   RO         8636    .conststring        tcp.o
    0x080090f5   0x080090f5   0x00000003   PAD
    0x080090f8   0x080090f8   0x00000020   Data   RO         9527    Region$$Table       anon$$obj.o


    Execution Region RW_IRAM1 (Exec base: 0x20000000, Load base: 0x08009118, Size: 0x00008858, Max: 0x00020000, ABSOLUTE)

    Exec Addr    Load Addr    Size         Type   Attr      Idx    E Section Name        Object

    0x20000000   0x08009118   0x00000008   Data   RW           17    .data               main.o
    0x20000008   0x08009120   0x0000000c   Data   RW          779    .data               app_ethernet.o
    0x20000014   0x0800912c   0x00000014   Data   RW         1105    .data               tcp_echoserver.o
    0x20000028   0x08009140   0x00000004   Data   RW         2324    .data               stm32f4xx_hal.o
    0x2000002c   0x08009144   0x00000004   Data   RW         7171    .data               system_stm32f4xx.o
    0x20000030   0x08009148   0x00000010   Data   RW         7427    .data               dhcp.o
    0x20000040   0x08009158   0x00000001   Data   RW         7626    .data               etharp.o
    0x20000041   0x08009159   0x00000001   PAD
    0x20000042   0x0800915a   0x00000002   Data   RW         7744    .data               ip4.o
    0x20000044   0x0800915c   0x00000008   Data   RW         7861    .data               ip4_frag.o
    0x2000004c   0x08009164   0x0000000c   Data   RW         8168    .data               mem.o
    0x20000058   0x08009170   0x00000004   Data   RW         8233    .data               memp.o
    0x2000005c   0x08009174   0x00000004   Data   RW         8234    .data               memp.o
    0x20000060   0x08009178   0x00000004   Data   RW         8235    .data               memp.o
    0x20000064   0x0800917c   0x00000004   Data   RW         8236    .data               memp.o
    0x20000068   0x08009180   0x00000004   Data   RW         8237    .data               memp.o
    0x2000006c   0x08009184   0x00000004   Data   RW         8238    .data               memp.o
    0x20000070   0x08009188   0x00000004   Data   RW         8239    .data               memp.o
    0x20000074   0x0800918c   0x00000004   Data   RW         8240    .data               memp.o
    0x20000078   0x08009190   0x00000004   Data   RW         8241    .data               memp.o
    0x2000007c   0x08009194   0x0000000c   Data   RW         8325    .data               netif.o
    0x20000088   0x080091a0   0x00000020   Data   RW         8637    .data               tcp.o
    0x200000a8   0x080091c0   0x00000024   Data   RW         8868    .data               tcp_in.o
    0x200000cc   0x080091e4   0x0000000c   Data   RW         8937    .data               tcp_out.o
    0x200000d8   0x080091f0   0x0000000c   Data   RW         9044    .data               timeouts.o
    0x200000e4   0x080091fc   0x00000008   Data   RW         9115    .data               udp.o
    0x200000ec   0x08009204   0x00000004   Data   RW         9212    .data               mc_w.l(rand.o)
    0x200000f0   0x08009208   0x00000004   Data   RW         9501    .data               mc_w.l(stdout.o)
    0x200000f4        -       0x00000038   Zero   RW           16    .bss                main.o
    0x2000012c        -       0x00000012   Zero   RW          778    .bss                app_ethernet.o
    0x2000013e   0x0800920c   0x00000002   PAD
    0x20000140        -       0x000030e8   Zero   RW          995    .bss                ethernetif.o
    0x20003228        -       0x000000c8   Zero   RW         1102    .bss                tcp_echoserver.o
    0x200032f0        -       0x00000040   Zero   RW         7210    .bss                bsp_debug_usart.o
    0x20003330        -       0x0000003c   Zero   RW         7340    .bss                bsp_basictim.o
    0x2000336c        -       0x00000032   Zero   RW         7426    .bss                dhcp.o
    0x2000339e   0x0800920c   0x00000002   PAD
    0x200033a0        -       0x000000f0   Zero   RW         7625    .bss                etharp.o
    0x20003490        -       0x00000010   Zero   RW         7802    .bss                ip4_addr.o
    0x200034a0        -       0x00000018   Zero   RW         8149    .bss                ip.o
    0x200034b8        -       0x00002813   Zero   RW         8167    .bss                mem.o
    0x20005ccb        -       0x000000c3   Zero   RW         8214    .bss                memp.o
    0x20005d8e        -       0x000005cb   Zero   RW         8215    .bss                memp.o
    0x20006359        -       0x0000008f   Zero   RW         8216    .bss                memp.o
    0x200063e8        -       0x00000083   Zero   RW         8217    .bss                memp.o
    0x2000646b        -       0x000000a3   Zero   RW         8218    .bss                memp.o
    0x2000650e        -       0x0000016b   Zero   RW         8219    .bss                memp.o
    0x20006679        -       0x000000a3   Zero   RW         8220    .bss                memp.o
    0x2000671c        -       0x000000a3   Zero   RW         8221    .bss                memp.o
    0x200067bf        -       0x00001083   Zero   RW         8222    .bss                memp.o
    0x20007842   0x0800920c   0x00000002   PAD
    0x20007844        -       0x00000010   Zero   RW         8867    .bss                tcp_in.o
    0x20007854   0x0800920c   0x00000004   PAD
    0x20007858        -       0x00001000   Zero   RW            1    STACK               startup_stm32f407xx.o


==============================================================================

Image component sizes


      Code (inc. data)   RO Data    RW Data    ZI Data      Debug   Object Name

      1062        364          0         12         18      32021   app_ethernet.o
         0          0          0          0          0       1508   autoip.o
       120         16          0          0         60       1729   bsp_basictim.o
       172         30          0          0         64       2348   bsp_debug_usart.o
       370         14          0          0          0       3409   bsp_key.o
        34          0          0          0          0       1050   def.o
      4154        176          0         16         50      31451   dhcp.o
      1638         66          0          1        240      12455   etharp.o
       250          4         12          0          0       2598   ethernet.o
      1250        168          0          0      12520       7692   ethernetif.o
       454          4          0          0          0       3918   icmp.o
       166          0          0          0          0       9282   inet_chksum.o
        30          0          0          0          0        532   init.o
         0          0          0          0         24       2958   ip.o
       848         30          0          2          0      15863   ip4.o
       268          8          8          0         16       8894   ip4_addr.o
      1518         40          0          8          0      11102   ip4_frag.o
       248         42          0          8         56     679505   main.o
       620         30          0         12      10259       5569   mem.o
       152         14        144         36       7031       9690   memp.o
       468         16          0         12          0      11363   netif.o
      1220         12          0          0          0      12455   pbuf.o
        36          8        392          0       4096        832   startup_stm32f407xx.o
       150         22          0          4          0       4379   stm32f4xx_hal.o
       242         16          0          0          0      31825   stm32f4xx_hal_cortex.o
      2646         64          0          0          0      15570   stm32f4xx_hal_eth.o
       568         22          0          0          0       3211   stm32f4xx_hal_gpio.o
       104          0          0          0          0     706302   stm32f4xx_hal_msp.o
      1836         92          0          0          0       6932   stm32f4xx_hal_rcc.o
       660         22          0          0          0       5759   stm32f4xx_hal_tim.o
       106          0          0          0          0       2406   stm32f4xx_hal_tim_ex.o
      1276         14          0          0          0       3960   stm32f4xx_hal_uart.o
        44          6          0          0          0       5157   stm32f4xx_it.o
        88         24         24          4          0       1143   system_stm32f4xx.o
      3064        214        201         32          0      36723   tcp.o
      1282        386          0         20        200      22809   tcp_echoserver.o
      3848        150          0         36         16      19003   tcp_in.o
      2902         26          0         12          0      17603   tcp_out.o
       428         58         40         12          0       5543   timeouts.o
      1090         44          0          8          0      11937   udp.o

    ----------------------------------------------------------------------
     35482       2202        858        236      34660    1768486   Object Totals
         0          0         32          0          0          0   (incl. Generated)
        70          0          5          1         10          0   (incl. Padding)

    ----------------------------------------------------------------------

      Code (inc. data)   RO Data    RW Data    ZI Data      Debug   Library Member Name

         0          0          0          0          0          0   entry.o
         0          0          0          0          0          0   entry10a.o
         0          0          0          0          0          0   entry11a.o
         8          4          0          0          0          0   entry2.o
         4          0          0          0          0          0   entry5.o
         0          0          0          0          0          0   entry7b.o
         0          0          0          0          0          0   entry8b.o
         8          4          0          0          0          0   entry9a.o
        30          0          0          0          0          0   handlers.o
        36          8          0          0          0         68   init.o
        26          0          0          0          0         80   memcmp.o
        36          0          0          0          0         68   memcpya.o
        36          0          0          0          0        108   memseta.o
       522         20          0          0          0        336   printf3.o
        36         10          0          4          0        136   rand.o
         0          0          0          4          0          0   stdout.o
        14          0          0          0          0         68   strlen.o
        44          0          0          0          0         80   uidiv.o

    ----------------------------------------------------------------------
       804         46          0          8          0        944   Library Totals
         4          0          0          0          0          0   (incl. Padding)

    ----------------------------------------------------------------------

      Code (inc. data)   RO Data    RW Data    ZI Data      Debug   Library Name

       800         46          0          8          0        944   mc_w.l

    ----------------------------------------------------------------------
       804         46          0          8          0        944   Library Totals

    ----------------------------------------------------------------------

==============================================================================


      Code (inc. data)   RO Data    RW Data    ZI Data      Debug   

     36286       2248        858        244      34660    1740070   Grand Totals
     36286       2248        858        244      34660    1740070   ELF Image Totals
     36286       2248        858        244          0          0   ROM Totals

==============================================================================

    Total RO  Size (Code + RO Data)                37144 (  36.27kB)
    Total RW  Size (RW Data + ZI Data)             34904 (  34.09kB)
    Total ROM Size (Code + RO Data + RW Data)      37388 (  36.51kB)

==============================================================================

