:020000040800F2
:10000000381600209D01000893160008DD14000832
:1000100091160008E5010008AD1C00080000000072
:10002000000000000000000000000000B9160008F9
:10003000BD02000800000000B7160008BB1600084B
:10004000B7010008B7010008B7010008B7010008B0
:10005000B7010008B7010008B7010008B7010008A0
:10006000B7010008B7010008B7010008B701000890
:10007000B7010008B7010008B7010008B701000880
:10008000E9010008F5010008B7010008B701000800
:10009000B7010008B7010008B7010008B701000860
:1000A000B7010008B7010008B7010008B701000850
:1000B000B7010008B7010008B7010008B701000840
:1000C000B7010008B7010008B7010008B701000830
:1000D000B70100088D1C0008991C0008B701000832
:1000E000B7010008B7010008B7010008B701000810
:1000F000B7010008B7010008B7010008B701000800
:10010000B7010008B7010008B7010008B7010008EF
:10011000B7010008B7010008B7010008B7010008DF
:10012000B7010008B701000801020008B701000884
:10013000B7010008B7010008B7010008B7010008BF
:10014000B7010008B7010008B7010008B7010008AF
:10015000B7010008B70100080D020008B701000848
:10016000B7010008B7010008B7010008B70100088F
:10017000B7010008B7010008B7010008000000003F
:10018000B7010008B7010008DFF80CD000F018F83C
:1001900000480047F11C0008381600200648804738
:1001A00006480047FEE7FEE7FEE7FEE7FEE7FEE75C
:1001B000FEE7FEE7FEE7FEE76D170008890100088D
:1001C000064C074D06E0E06840F0010394E80700A4
:1001D00098471034AC42F6D3FFF7DAFF2C1E000824
:1001E0004C1E0008FEE70000014800F0C1B8000006
:1001F00078050020014800F0BBB80000D8050020B9
:10020000014800F0B5B80000B8040020014800F033
:10021000AFB800001805002001681823CAB2103AD0
:10022000B2FBF3F2054B6FF30901032A9B5CC36534
:1002300000D9091D81650846704700000C1E0008A2
:1002400010B5014600208B698A6A4FF0C07453B123
:10025000B3F5005F15D072B1012A0CD0022A0AD082
:10026000032A09D104E01AB1012A06D0022A03D1D7
:10027000C96AC90100D5012010BDC96AA142FAD0DE
:1002800010BD002AF7D0012AF2D0022AF3D0032AA7
:10029000F3D010BD30B50468256825F480252560AD
:1002A000046863608368402B036803D0996000682A
:1002B000C26030BD9A600068C16030BD70472DE9F2
:1002C000F0410446876D00F0C1FA054694F8350008
:1002D0000026022806D08020606584F83460012062
:1002E000BDE8F0812068016821F0160101602068F6
:1002F000416921F080014161206C08B9A06C20B1F6
:100300002068016821F0080101602068016821F07F
:10031000010101600BE000F099FA401B052806D9A5
:100320002020606504F8346F03206070D8E72068EF
:100330000068C007EFD194F85C103F208840B86097
:1003400004F8346F012060700020C9E790F8351080
:10035000022903D08021416501207047052180F8E2
:1003600035100068016821F001010160002070472C
:100370002DE9F84304464FF00008CDF800806448AA
:100380004FF41651A56D0068B0FBF1F72E6894F894
:100390005C00082202FA00F1314210D020680168A6
:1003A00049070CD5016821F00401016094F85C0054
:1003B00002FA00F1A960606D40F00100606594F8F8
:1003C0005C1054488840304208D0216849690906C9
:1003D00004D5A860606D40F0020060654D4894F857
:1003E0005C10C01C8840304208D021680968890729
:1003F00004D5A860606D40F00400606594F85C105E
:1004000010208840304218D021680968090714D5A7
:10041000A86020680168490304D50068000308D576
:10042000A16C07E00168C90503D4016821F0080147
:100430000160216C09B12046884794F85C102020A7
:10044000884030424FF0010631D021680968C90662
:100450002DD5A86094F8350005282068016806D0DD
:10046000490347D5006800031DD4616C1CE021F0EE
:10047000160101602068416921F080014161206C12
:1004800008B9A06C20B12068016821F00801016062
:1004900094F85C103F208840A86084F8348084F889
:1004A0003560216D1FE0E16B09B120468847606D22
:1004B00000282BD0606DC00714D0052084F83500CB
:1004C0002068016821F0010101600098401C009043
:1004D000B84203D820680068C007F6D184F8348099
:1004E00084F83560E16C002910D001B02046BDE8E9
:1004F000F04308470168C905D5D4016821F010010F
:10050000016084F8348084F83560CCE7BDE8F88376
:1005100034000020010080002DE9F041044600F085
:1005200095F905465CB1002684F83460022084F811
:1005300035002068016821F0010101600DE0012013
:10054000BDE8F08100F082F9401B052805D9202084
:100550006065032084F83500F2E720680068C00772
:10056000F0D121680A6820480240D4E90103184309
:10057000D4E903352B43184363691843A36918432F
:10058000E3691843236A18431043626A042A03D1BB
:10059000D4E90B231A431043086020684069656A58
:1005A00020F0070128460D43012704280CD1A06A3A
:1005B0000543E06A40B12046FFF742FE20B14020EB
:1005C000606584F83570BAE7206845612046FFF71A
:1005D00023FE94F85C203F2191408160666584F899
:1005E00035700020ACE700003F8010F02DE9F041AD
:1005F0000446866D90F83400002501280DD00120B6
:1006000084F8340094F835700020012F07D084F866
:10061000340002252846BDE8F0810220FBE70227CE
:1006200084F8357060652046FFF734FE94F85C105E
:100630003F208840B0602068016841F016010160E9
:100640002068416941F080014161206C20B120683F
:10065000016841F0080101602068016841F0010172
:100660000160D7E731B500F0F1F8009C0546601C49
:1006700000D0641C00F0EAF8401BA042FAD338BD59
:100680002DE9F84FDFF88C91002209F1040A0AF1F4
:10069000040B4FF00F080BF1040E01260B68964077
:1006A0003340B34271D14C68022C01D0122C11D1CD
:1006B000D40800EB84073D6A5407E40E08FA04FCF2
:1006C00025EA0C05D1F810C00CFA04FC4CEA050C24
:1006D000C7F820C007685400032591F804C0A5405E
:1006E0000CF0030CAF430CFA04FC4CEA070CC0F806
:1006F00000C04F68012F05D0022F03D0112F01D069
:10070000122F11D18768D1F80CC0AF430CFA04FC4A
:100710004CEA070CC0F808C04768B7430E79C6F327
:10072000001696403E434660C668AE438D68A540BD
:100730003543C5604C68E40065D5374C256845F401
:1007400080452560246822F0030504F48044009469
:10075000324C2E19D6F808789407250F08FA05F4BC
:10076000A7432F4CA04201D1002424E02D4CA042ED
:1007700001D101241FE02C4CA04201D102241AE037
:100780002A4CA04202D1032415E03CE0284CA042B0
:1007900001D104240FE0274CA04201D105240AE036
:1007A000254CA04201D1062405E0244CA04201D1F1
:1007B000072400E00824AC403C43C6F80848D9F8B8
:1007C00000404D464E689C43F60300D51C432C6008
:1007D000DAF8004055464E689C43B60300D51C43EA
:1007E0002C60DBF800405D464E689C43F60200D565
:1007F0001C432C60DEF8004075464E689C43B602F0
:1008000000D51C432C60521C102AFFF446AFBDE8F3
:10081000F88F0000003C01404438024000300140A5
:10082000000002400004024000080240000C0240A8
:10083000001002400014024000180240001C024058
:100840000AB1816170470904FBE7000001480068B4
:10085000704700003000002002480168491C016018
:1008600070470000300000200B4810B5016841F4CB
:1008700000710160016841F480610160016841F428
:1008800080710160032000F075F8002000F006F888
:1008900000F018F8002010BD003C024010B50446DE
:1008A00007484FF47A710068B0FBF1F000F049FBA3
:1008B00000222146501E00F03DF8002010BD00002F
:1008C0003400002010B5052000F054F80022114635
:1008D0006FF00B0000F02EF8002211466FF00A00B6
:1008E00000F028F8002211466FF0090000F022F80D
:1008F00000221146501F00F01DF800221146101F63
:1009000000F018F800221146901E00F013F80022A3
:10091000BDE810401146501E00F00CB800F01F0258
:10092000012191404009800000F1E020C0F8001151
:1009300070470000F0B40E4B1B68C3F30223C3F1F1
:100940000704042C00D904241D1D072D01D2002307
:1009500000E0DB1E012606FA04F56D1E0D409D40E9
:100960009E40761E164045EA0601F0BC00F093BE9C
:100970000CED00E0064A00F0070110684FF6FF0397
:10098000184040EA01200349084310607047000006
:100990000CED00E00000FA05704700002DE9F0477B
:1009A000DFF85C9104460E46D9F8000000F00F0114
:1009B000F0B28046B14207D289F80000D9F80000B1
:1009C00000F00F00B04271D120784E4F800705D55E
:1009D0003868A16820F0F000084338602078C0072C
:1009E00056D048496068083901281AD002281BD01F
:1009F000032819D009688907002957DA396821F0D6
:100A0000030101433960FFF721FF0546606841F2A9
:100A10008831012811D002281CD003288A4625D00D
:100A200032E009688903E7E709688901E4E7FFF72D
:100A30000DFF411B514501D923E08A463868C0F3B8
:100A400081000128F3D123E0FFF700FF411B51454E
:100A500001D916E08A463868C0F381000228F3D134
:100A600016E0FFF7F3FE411B51450AD83868C0F382
:100A700081000328F5D10BE0FFF7E8FE411B51454B
:100A800002D90320BDE8F087386810F00C0FF3D1CD
:100A9000D9F80010484601F00F01B14208D980F89A
:100AA0000080006800F00F00B04201D00120E9E7AB
:100AB0002078400705D53868E16820F4E050084305
:100AC00038602078000706D53868216920F4604036
:100AD00040EAC100386000F057F83968F02292FA15
:100AE000A2F201F0F001B2FA82F2D140064A515C62
:100AF000C840064908600020FFF7D0FE0020C1E78B
:100B0000003C024008380240141E00083400002057
:100B100001490120C864704700004742014800684D
:100B2000704700003400002008480949006809683F
:100B30004FF4E05292FAA2F201F4E051B2FA82F2DA
:100B4000D140044A515CC840704700003400002086
:100B500008380240241E000808480949006809684E
:100B60004FF4604292FAA2F201F46041B2FA82F2CA
:100B7000D140044A515CC840704700003400002056
:100B800008380240241E000830B51948006810F0EB
:100B90000C01184812D0441004290ED008290DD198
:100BA000134A121F1168136801F03F015D0247F6F6
:100BB000C07304D5B4FBF1F003E0204630BDB0FBB8
:100BC000F1F01168194093FAA3F3B3FA83F3D94013
:100BD000484311684FF4403292FAA2F201F44031D6
:100BE000B2FA82F2D140491C4900B0FBF1F030BDAD
:100BF000083802400024F400054810B500680006DB
:100C000005D5FFF7C9FE02498020891C087010BD78
:100C10000C3802402DE9F84F04460078DFF8F4A2C2
:100C2000BD4DC00748D0DAF800105046C1F381012D
:100C3000012908D00068C0F3810002280AD1281DCC
:100C40000068400206D52868800335D56068002812
:100C500070D031E06068B0F5803F10D0B0F5A02FC3
:100C6000286810D020F480302860286820F4802084
:100C700028606068A0B1FFF7E9FD06460CE028682F
:100C800040F48030F4E740F480202860F7E7FFF775
:100C9000DDFD801B642873D828688003F7D50BE03E
:100CA000FFF7D4FD064604E0FFF7D0FD801B642863
:100CB000F1D828688003F7D42078DFF860828007B5
:100CC0004FF0010B4FF0000943D5DAF80010504601
:100CD00011F00C0F4FF0F80709D00068C0F3810045
:100CE00002280BD18B48001F0068400206D42868F8
:100CF000800713D5E06801281CD10FE0E068D0B16F
:100D0000C8F800B0FFF7A2FD064604E0FFF79EFD1D
:100D1000801B0228BFD828688007F7D5286897FA73
:100D2000A7F22169B2FA82F220F0F800914008435C
:100D300028600EE0EBE0C8F80090FFF787FD06465C
:100D400004E0FFF783FD801B022819D8286880077C
:100D5000F7D42078000722D56E4F714861696C374F
:100D600079B1C0F800B0FFF771FD064604E0FFF767
:100D70006DFD801B022803D838688007F7D50EE088
:100D800079E0C0F80090FFF761FD064604E0FFF748
:100D90005DFD801B02286ED838688007F7D4207864
:100DA000400750D55B483830016841F08051016000
:100DB00000685C4F00F080500090386840F480700C
:100DC0003860FFF743FD064604E0FFF73FFD801B58
:100DD000022850D83868C005F7D54E4FA06868374C
:100DE00001280FD00528386810D020F001003860A5
:100DF000386820F004003860A068B0B1FFF726FD25
:100E000006460EE0386840F00100F4E740F00400C8
:100E10003860F7E7FFF71AFD811B41F28830814205
:100E20006DD838688007F5D50DE0FFF70FFD064651
:100E300006E0FFF70BFD811B41F2883081425ED84E
:100E400038688007F5D4A069F0B3DAF80010C1F370
:100E5000810102295BD00228484605D0C8F860000D
:100E6000FFF7F4FC04464DE04746C8F86000FFF782
:100E7000EDFC064605E042E0FFF7E8FC801B022897
:100E80003DD828688001F7D4D4E90701084347F624
:100E9000C07292FAA2F2616AB2FA82F29140A26A38
:100EA0004FF0FF3303EB52024FF4403393FAA3F3B6
:100EB000B3FA83F39A4011434FF0706292FAA2F2B0
:100EC0000843B2FA82F200E01FE0E16A9140084371
:100ED0001049091F0860C7F860B0FFF7B7FC044667
:100EE00004E0FFF7B3FC001B022808D82868800143
:100EF000F7D50AE0FFF7AAFC001B022802D903205D
:100F0000BDE8F88F28688001F4D40020F8E70120BC
:100F1000F6E700000838024000380240000047426F
:100F2000800E4742007000404FF0E021042808691D
:100F300003D020F004000861704740F00400FAE795
:100F4000704710B5401EB0F1807F01D3012010BD65
:100F50004FF0E02460610F21601700F09CFB00203F
:100F6000A06107202061002010BD10B5FFF7E8FF49
:100F700010BD10B504460068416994F83920C1F3EA
:100F8000C011212A0BD151B1416921F08001416189
:100F9000206B08B1FFF793F9204600F06FFC206842
:100FA000416994F83A20C1F38011222A0BD151B142
:100FB000416921F040014161606B08B1FFF77FF9A1
:100FC000204600F04DFC002010BD704770B502684F
:100FD00004461068D168536910F00F0F50D003F029
:100FE000010501F4907635435DD0C20705D0CA05EE
:100FF00003D5E26B42F00102E263420705D5DA074E
:1010000003D0E26B42F00202E263820705D5DA0701
:1010100003D0E26B42F00402E263020705D5DA076F
:1010200003D0E26B42F00802E263E26B002A33D0A5
:10103000800604D5880602D5204600F028FC2068EA
:101040004069E16BC0F38010090700D428B3204643
:1010500000F006FC2068416949061AD5416921F073
:1010600040014161606BA0B11B490165606BFFF7F6
:101070006DF9002810D0606B016DBDE87040084725
:10108000830610D58B060ED52046BDE8704000F0D3
:10109000FEBB2046FFF799FF70BD2046FFF795FF86
:1010A0000020E06370BD030606D50B0604D520467C
:1010B000BDE8704000F088BD4006F3D54806F1D584
:1010C000D168204621F04001D160202184F83910F8
:1010D00000F003FA70BD0000C117000870B50400ED
:1010E00004D094F83900002510B106E0012070BD4D
:1010F00084F83850204600F023F8242084F8390082
:101100002068C16821F40051C160204600F006FC4F
:101110002068016921F4904101612068416921F052
:101120002A0141612068C16841F40051C160E56352
:10113000202084F8390084F83A00002070BD0000B7
:101140002DE9F04F044600685E4902260727002576
:1011500087B04FF000684FF4806A4FF04009884232
:101160004AD15948016841F01001016000686946A0
:1011700000F010000590C020CDE90006012002908B
:101180000320CDE903075148FFF77AFA514E504842
:1011900047463060C6E90185C6E9035A7561B56105
:1011A000F5613562D04630467562FFF7B5F918B182
:1011B000852149A000F07BFD6663B463454E444839
:1011C00060367830C6E903587561B561F5613562FE
:1011D000756286E881023046FFF79EF918B19721C3
:1011E0003DA000F064FD2663002211462520B46373
:1011F000FFF7A0FB252060E03B4988425FD13248E1
:10120000001F016841F400310160006802AA00F487
:10121000003005902020CDE90006DFF8D0B082E84C
:10122000E00069465846FFF72BFACDE9009502AA7F
:10123000694682E8E0005846FFF722FA254E2C481E
:10124000C03657463060C6E90185C6E9035A756164
:10125000B561F561356230467562FFF75DF918B129
:10126000D2211DA000F023FD1A4866634038B46304
:1012700002686FF0200111600068C16821F0200150
:10128000C1601C4E1A48C6E903577561B561F56126
:1012900035621830756286E801033046FFF73CF985
:1012A00018B1E6210CA000F002FD266300221146D1
:1012B0002620B463FFF73EFB2620FFF72FFB07B085
:1012C000BDE8F08F001001404438024000040240A5
:1012D00040640240B80400202E2E5C5372635C759B
:1012E000736172742E63000000440040000C0240E1
:1012F00088600240D805002037B5044690F83A00CF
:1013000082B0134620283AD1039AAAB3A3B394F823
:101310003800012833D0012084F83800A262A38568
:101320000025E563222084F83A00616B1548C86304
:10133000616B15480864616B1448C864606B05658F
:101340002168606B091DFFF751F920680168416849
:10135000009184F83850C16841F48071C160206800
:10136000416941F0010141612068416941F040015A
:101370004161002005B030BDFFE70120FAE70220FF
:10138000F8E700001B18000857180008D1170008DC
:1013900090F83A30202B1DD1D1B1CAB190F8383035
:1013A000012B17D081628285C2850021C163222270
:1013B00080F83A2080F8381001684A6942F001024A
:1013C0004A610068C16841F49071C16000207047B3
:1013D000012070470220704738B50D4C2068016825
:1013E000C943C90613D40168406800902046FFF73E
:1013F000C0FD606B006840680649C0F1500048803D
:101400002046BDE8384050220349FFF775BF38BD7C
:10141000780400200000002038000020704770474A
:101420002DE9F843044690F839001E4617460D464C
:10143000202850D1A5B19FB194F8380001284AD096
:10144000012084F838004FF00008C4F83C802120C7
:1014500084F83900FFF7FAF9A7848146E78426E08B
:101460000120BDE8F883E08C401EE084A0684B4674
:10147000B0F5805F4FF000024FF0800120460096EB
:1014800003D000F0D2FBE8B90DE000F0CEFBC8B904
:1014900028882168C0F308004860206908B16D1CE5
:1014A00005E0AD1C03E0216815F8010B4860E08CF5
:1014B0000028D8D14B46002240212046009600F05B
:1014C000B4FB08B10320CCE7202084F8390084F86D
:1014D00038800020C5E70220C3E77047FEE7000020
:1014E000194808B5016841F480010160016801F400
:1014F00080010091016841F4001101600068002240
:1015000000F40010009011461020FFF713FA10208D
:10151000FFF704FA002211461120FFF70BFA112001
:10152000FFF7FCF9002211463A20FFF703FA3A20B0
:10153000FFF7F4F9002211464620FFF7FBF9BDE85A
:1015400008404620FFF7EAB9303802402DE9F04163
:10155000264886B00024016841F01001016001684E
:1015600001F010010591016841F0800101600168FE
:1015700001F080010591016841F0010101600168FD
:1015800001F001010591016841F008010160016865
:1015900001F008010591016841F002010160006855
:1015A000134F00F002000590012260213846FFF73A
:1015B00047F90122DFF83C80560231464046FFF7EA
:1015C0003FF9602000900125CDE901546946384675
:1015D0000394FFF755F80096CDE90154694640465B
:1015E0000394FFF74DF806B0BDE8F08130380240B3
:1015F00000100240001C02400D4810B50B4901606C
:101600004FF4E1314160002181600C22C160C0E9EA
:1016100004128161C161FFF761FD002805D0BDE8BA
:101620001040482103A000F042BB10BD0010014053
:10163000380400202E2E5C5372635C7573617274E3
:101640002E6300000D4810B50B4901604FF4E131E5
:101650004160002181600C22C160C0E904128161F7
:10166000C161FFF73BFD002805D0BDE810405B21BC
:1016700003A000F01CBB10BD004400407804002013
:101680002E2E5C5372635C75736172742E6300005E
:10169000FEE7FFF7B1BA0907090E002806DA00F0E5
:1016A0000F0000F1E02080F8141D704700F1E020E9
:1016B00080F8001470477047704710B5FFF7CCF8FA
:1016C000BDE81040FFF751BC30B5264893B0002567
:1016D000016841F080510160006800F08050119075
:1016E0002148016841F4804101600068022400F44F
:1016F0008040119001200090000401908001CDE90C
:101700000640082008904FF4A870CDE90904042091
:101710000B906846FFF77EFA00B1FEE70CA90F2098
:1017200081E831004FF4A0500F904FF4805010909A
:1017300005210CA8FFF732F900B1FEE7FFF7E8F941
:10174000FFF7ECF94FF47A71B0FBF1F0FFF7F9FB1A
:101750000420FFF7E9FB00221146501EFFF7EAF8CC
:1017600013B030BD4038024000700040104801689E
:1017700041F4700101600F48016841F0010101600E
:101780000C4A00210832116002680B4B1A400260BB
:10179000031D0A4A1A60026822F48022026005488A
:1017A0000C3001600249580680390860704700001B
:1017B00088ED00E000380240FFFFF6FE1030002404
:1017C00010B5806B0021C185C184FFF7FEFB10BD01
:1017D00070B5846B2068406994F83910C0F3C0106C
:1017E0000025212904D118B1E584204600F046F8EF
:1017F0002068406994F83A10C0F38010222904D17F
:1018000018B1E585204600F02BF8E06B40F01000A1
:10181000E0632046FFF7D9FB70BD10B50146806B31
:1018200009680968C90513D40021C1850168CA681F
:1018300022F48072CA6001684A6922F001024A619A
:1018400001684A6922F040024A61202180F83A107A
:10185000FFF7E4FD10BD10B5806BFFF7E0FD10BD94
:101860000168CA6822F49072CA6001684A6922F06D
:1018700001024A61202180F83A1070470168CA6865
:1018800022F0C002CA60202180F83910704710B5DC
:1018900090F83A10222901D0022010BD8168B1F5DC
:1018A000805F11D00169002901681FD0496801F0EB
:1018B0007F03816A4A1C82620B70C18D491E090434
:1018C000090CC18518D026E00269816A002A0268E5
:1018D000526805D0D2B20A80816A491C8162ECE765
:1018E000C2F308020A80816A891CF7E74A68816AA4
:1018F0004B1C83620A70E0E70168CA6822F49072A8
:10190000CA6001684A6922F001024A61202180F818
:101910003A10FFF783FD002010BD00002DE9F041D3
:1019200004460068016921F44052E16811430161F5
:101930002068C16849F20C6291432369A268E56995
:101940001A4363692B431A430A43C2602068416902
:10195000A26921F440710A434261E0696425B0F54F
:10196000004F974A974920684FF032083FD088428D
:1019700001D090427CD1FFF7EFF800EBC00101EB02
:10198000001061688900B0FBF1F6FFF7E5F800EBA5
:10199000C00101EB001061688900B0FBF1F0B0FB01
:1019A000F5F06FF01801484306EB800108EB0110D9
:1019B000B0FBF5F000F0F006FFF7CEF800EBC00149
:1019C00001EB001061688900B0FBF1F0B0FBF5F0AD
:1019D00006EB0016FFF7C0F800EBC00101EB0010AA
:1019E00061688900B0FBF1F7FFF7B6F8D2E08842F2
:1019F00001D090423DD1FFF7AFF800EBC00101EB01
:101A0000001061684900B0FBF1F0B0FBF5F0060191
:101A1000FFF7A2F800EBC00101EB0010616849007C
:101A2000B0FBF1F7FFF798F800EBC00101EB0010F5
:101A300061684900B0FBF1F0B0FBF5F06FF0180100
:101A4000484307EB800108EBC100B0FBF5F000F064
:101A5000F80006EB4006FFF77FF800EBC00101EB52
:101A6000001061684900B0FBF1F7FFF775F83CE042
:101A700055E0FFF759F800EBC00101EB0010616879
:101A80004900B0FBF1F0B0FBF5F00601FFF74CF8B0
:101A900000EBC00101EB001061684900B0FBF1F7F9
:101AA000FFF742F800EBC00101EB0010616849004C
:101AB000B0FBF1F0B0FBF5F06FF01801484307EB15
:101AC000800108EBC100B0FBF5F000F0F80006EB78
:101AD0004006FFF729F800EBC00101EB0010616838
:101AE0004900B0FBF1F7FFF71FF800EBC00101EB75
:101AF000001061684900B0FBF1F0B0FBF5F06FF049
:101B00001801484307EB800108EBC100B0FBF5F07A
:101B100000F00700216830448860BDE8F081FFF7DD
:101B200003F800EBC00101EB001061688900B0FB15
:101B3000F1F6FEF7F9FF00EBC00101EB0010616860
:101B40008900B0FBF1F0B0FBF5F06FF018014843ED
:101B500006EB800108EB0110B0FBF5F000F0F00699
:101B6000FEF7E2FF00EBC00101EB001061688900A5
:101B7000B0FBF1F0B0FBF5F006EB0016FEF7D4FF7A
:101B800000EBC00101EB001061688900B0FBF1F7C8
:101B9000FEF7CAFF00EBC00101EB0010616889008D
:101BA000B0FBF1F0B0FBF5F06FF01801484307EB24
:101BB000800108EB0110B0FBF5F000F00F00A9E781
:101BC000001401400010014090F83910212901D083
:101BD000022070478168B1F5805F016A0BD04A1C12
:101BE0000262026809785160C18C491E0904090C1F
:101BF000C1840ED017E009880268C1F30801516062
:101C000001690029016A02D0491C0162ECE7891CC4
:101C1000FBE70168CA6822F08002CA600068C168F8
:101C200041F04001C160002070472DE9F0411E469F
:101C3000174688460446069D1CE0681C1AD025B14C
:101C4000FEF704FE801BA84214D92068C16821F465
:101C5000D071C1602068416921F0010141612020FB
:101C600084F8390084F83A00002084F83800032012
:101C7000BDE8F0812068016838EA010004D0002046
:101C8000B842DAD00020F3E70120F9E70148FFF776
:101C90009DB900003804002010B5FFF79DFBBDE89A
:101CA00010400148FFF792B978040020FEE7FEE7F4
:101CB00002E008C8121F08C1002AFAD17047704715
:101CC000002001E001C1121F002AFBD17047000073
:101CD000054A002140F201405180044A401E0004A0
:101CE000000C1154FAD17047000000203800002089
:101CF000FEF7BAFDFFF7E8FCFFF728FCFFF7F0FB63
:101D0000FFF77AFCFFF79EFC012204490448FFF725
:101D10003FFB00F047F800F005F8FCE7000000206A
:101D200078040020F8B51C4E1C4D00244FF6FF77B8
:101D30003B460B221A491848FFF772FB30680168CE
:101D4000C9430906FBD4B420FEF78CFC14482438A0
:101D50004088ADF80000D8B1687AC8B10B20295C82
:101D6000401C2144C0B2CCB21728F8D36042E97DB0
:101D7000C0B281420CD10A48E97C20380170297D2B
:101D80004170697D8170A97DC170FFF7A1FFF8BD29
:101D9000FFF79EFFCCE70000780400203800002009
:101DA000240000202DE9F843154E164F164D00244F
:101DB0004FF6FF781349434618220C311048FFF7BD
:101DC0002FFB30680168C9430906FBD4B420FEF735
:101DD00049FC7888ADF800000028EBD00B20295C86
:101DE000401C2144C0B2CCB20D28F8D36042697BBC
:101DF000C0B28142DED1FFF76BFFBDE8F88300007F
:101E00007804002000000020380000200006101692
:101E1000000610160000000000000000010203048C
:101E20000607080900000000010203044C1E000818
:101E30000000002038000000B01C0008841E0008CC
:101E40003800002000160000C01C00080000000040
:101E500000000000000000005555000000000000D8
:101E60000000000000000000FF03FDD41401170073
:101E70000000FF04FCD44A0100E100000000000063
:041E80000024F40046
:040000050800018965
:00000001FF
