:020000040800F2
:10000000B01100209D010008931800086D1700082A
:1000100091180008E5010008E51F00080000000035
:100020000000000000000000000000009918000817
:10003000EB02000800000000971800089B18000859
:10004000B7010008B7010008B7010008B7010008B0
:10005000B7010008B7010008B7010008B7010008A0
:10006000B7010008B7010008B7010008B701000890
:10007000B7010008B7010008B7010008B701000880
:10008000B7010008B7010008B7010008B701000870
:10009000B7010008B7010008B7010008B701000860
:1000A000B7010008B7010008B7010008B701000850
:1000B000B7010008B7010008B7010008B701000840
:1000C000B7010008B7010008B7010008B701000830
:1000D000B70100089D1F0008B7010008B70100081C
:1000E000B7010008B7010008B7010008B701000810
:1000F000B7010008B7010008B7010008B701000800
:10010000B7010008B7010008B7010008B7010008EF
:10011000B7010008B7010008B7010008B7010008DF
:10012000B7010008B7010008E9010008B70100089D
:10013000B7010008B7010008B7010008B7010008BF
:10014000B7010008B7010008B7010008B7010008AF
:10015000B7010008B7010008F5010008B701000861
:10016000B7010008B7010008B7010008B70100088F
:10017000B7010008B7010008B7010008000000003F
:10018000B7010008B7010008DFF80CD000F018F83C
:100190000048004755200008B0110020064880475D
:1001A00006480047FEE7FEE7FEE7FEE7FEE7FEE75C
:1001B000FEE7FEE7FEE7FEE769190008890100088F
:1001C000064C074D06E0E06840F0010394E80700A4
:1001D00098471034AC42F6D3FFF7DAFF102100083D
:1001E00030210008FEE70000014800F0E3B80000FD
:1001F000F0000020014800F0DDB8000050010020B0
:1002000001680A4BCAB2103AA3FB02321209084B2A
:100210009B5CC365032A04D96FF30901091D81653D
:1002200002E06FF309018165806D7047ABAAAAAA4D
:10023000F0200008014600208A6A8B69002B0FD04D
:10024000B3F5005F1DD08AB3012A30D0022A2ED028
:10025000032A04D1C96A11F0807F00D001207047C1
:100260001AB1012A07D0022AF9D1C96A11F0807F98
:10027000F5D001207047C96AB1F1C07FFAD10120E1
:1002800070475AB1012A0BD0022A07D0032AF7D1AE
:10029000C96AB1F1C07FF3D10120704701207047D6
:1002A000C96A11F0807FFAD001207047FFE7012072
:1002B000704710B4D0F800C0DCF8004024F480246B
:1002C000CCF80040D0F800C0CCF804308368402B54
:1002D00005D0036899600068C26010BC704703686D
:1002E0009A600068C16010BC704770472DE9F0410A
:1002F0000446A66D00F030FB054694F83500002753
:10030000022806D08020606584F834700120BDE8A2
:10031000F0812068016821F01601016020684169C0
:1003200021F080014161206C08B9A06C20B12068E7
:10033000016821F0080101602068016821F00101D5
:1003400001602068006810F0010F12D000F004FB7B
:10035000401B052808D92020606584F834700320EC
:1003600084F83500BDE8F0812068006810F0010FC6
:10037000ECD194F85C003F2101FA00F0B06084F801
:100380003470012084F835000020BDE8F08190F839
:100390003510022903D080214165012070470521D5
:1003A00080F835100068016821F00101016000202B
:1003B000704700002DE9F84304464FF00008CDF8DF
:1003C000008076484FF416510068B0FBF1F7A56D38
:1003D0002E6894F85C00082101FA00F0304211D038
:1003E0002068026812F0040F0CD0026822F00402A8
:1003F000026094F85C0001FA00F0A860606D40F0C3
:100400000100606594F85C1065488840304209D06E
:100410002168496911F0800F04D0A860606D40F038
:100420000200606594F85C105E488840304209D054
:100430002168096811F0020F04D0A860606D40F0D7
:100440000400606594F85C1010208840304224D08D
:100450002168096811F0080F1FD0A86020680168A2
:1004600011F4802F0DD0006810F4002F04D0A16C7F
:1004700099B12046884710E0216C71B12046884729
:100480000BE0016811F4807F03D1016821F00801BD
:100490000160216C09B12046884794F85C10202047
:1004A000884030424FF0010651D02168096811F0B0
:1004B000100F4CD0A86094F8350005280DD02068A6
:1004C000016811F4802F32D0006810F4002F29D079
:1004D000E16B59B32046884739E02068016821F074
:1004E000160101602068416921F080014161206CA2
:1004F00008B9A06C20B12068016821F008010160F2
:1005000094F85C003F2101FA00F0A86084F8348080
:1005100084F83560216D00293ED001B02046BDE849
:10052000F0430847616C09B1204688470FE0016835
:1005300011F4807F07D1016821F01001016084F877
:10054000348084F83560E16B09B120468847606DDE
:10055000002821D0606D10F0010F15D0052084F81F
:1005600035002068016821F0010101600098401CFD
:100570000090B84204D82068006810F0010FF5D14F
:1005800084F8348084F83560E16C002904D001B02F
:100590002046BDE8F0430847BDE8F8830800002086
:1005A00001008000040080002DE9F041044600F0C5
:1005B000D3F90546DCB1002684F83460022084F8C3
:1005C00035002068016821F00101016020680068A1
:1005D00010F0010F13D000F0BFF9401B052809D916
:1005E00020206065032084F83500BDE8F0810120FB
:1005F000BDE8F0812068006810F0010FEBD12168A0
:100600000868234A1040A3686268D4F810C01A43EF
:10061000E36843EA0C031A4363691A43A3691A4364
:10062000E3691A43236A1A431043626A042A03D116
:10063000236BE26A1A43104308602068406920F087
:100640000701606A40EA0105012704280ED1A06A6B
:100650000543E06A50B12046FFF7ECFD30B1402081
:10066000606584F835700120BDE8F081206845613F
:100670002046FFF7C5FD94F85C103F2202FA01F115
:100680008160666584F835700020BDE8F081000067
:100690003F8010F070B504460025A66D94F8340034
:1006A00001280DD0012084F8340094F835C00020D2
:1006B000BCF1010F06D084F834000225284670BD35
:1006C000022070BD4FF0020C84F835C060652046F2
:1006D000FFF7EFFD94F85C003F2101FA00F0B060F5
:1006E0002068016841F0160101602068416941F00D
:1006F00080014161206C20B12068016841F008014F
:1007000001602068016841F001010160D6E731B560
:1007100000F022F90546009CB4F1FF3F00D0641CB4
:1007200000F01AF9401BA042FAD338BD2DE9F84F6A
:100730000022DFF80082DFF80092DFF800A24FF01D
:10074000030E0F27012303FA02F50B682B40AB427F
:100750007DD1D1F804C0BCF1020F02D0BCF1120F60
:1007600012D14FEAD20C00EB8C0CDCF8206054075D
:10077000E40E07FA04FB26EA0B06D1F810B00BFAD8
:1007800004F43443CCF8204006684FEA420C0EFAD9
:100790000CF4A64391F804B00BF0030B0BFA0CFB1E
:1007A0004BEA060606604E68012E05D0022E03D0E5
:1007B000112E01D0122E11D18668A643D1F80CB0AB
:1007C0000BFA0CFB4BEA06068660466826EA05052E
:1007D0000E79C6F30016964035434560C56825EA94
:1007E00004048D6805FA0CFC4CEA040CC0F80CC03B
:1007F000D1F804C01CF0805F7DD0D8F800C04CF464
:10080000804CC8F800C0D8F800C00CF4804CCDF87B
:1008100000C022F0030C0CF1804404F59834D4F8A5
:1008200008C895072D0F07FA05F62CEA0606A0F171
:10083000804CBCF5003C64D0A0F1804CBCF5013C80
:1008400062D0A0F1804CBCF5023C60D000E052E0E8
:10085000A0F1804CBCF5033C5CD0A0F1804CBCF511
:10086000043C5AD0A0F1804CBCF5053C58D0A0F116
:10087000804CBCF5063C56D0A0F1804CBCF5073C42
:1008800054D04FF0080C0CFA05FC4CEA060CC4F8E6
:1008900008C8D9F800C02CEA030C4C6814F4803F57
:1008A00001D04CEA030CC9F800C0254CD4F800C0B4
:1008B0002CEA030C4D6815F4003F01D04CEA030C00
:1008C000C4F800C0DAF800C02CEA030C4C6814F439
:1008D000801F01D04CEA030CCAF800C0194CD4F8B0
:1008E00000C02CEA030C4D6815F4001F01D04CEA3F
:1008F000030CC4F800C0521C102AFFF423AFBDE85B
:10090000F88F4FF0000CBEE74FF0010CBBE74FF043
:10091000020CB8E74FF0030CB5E74FF0040CB2E758
:100920004FF0050CAFE74FF0060CACE74FF0070CAB
:10093000A9E7000044380240003C0140083C014067
:10094000043C01400C3C0140002A01D08161704709
:100950000904816170470000014800687047000089
:100960000400002002480168491C01607047000033
:100970000400002010B50B48016841F400710160CB
:10098000016841F480610160016841F48071016097
:10099000032000F089F8002000F006F800F018F8B5
:1009A000002010BD003C024010B5044607484FF43B
:1009B0007A720068B0FBF2F000F040FC00222146A1
:1009C000501E00F03DF8002010BD0000080000207F
:1009D00010B5052000F068F8002211466FF00B00FA
:1009E00000F02EF8002211466FF00A0000F028F8FF
:1009F000002211466FF0090000F022F80022114693
:100A0000501F00F01DF800221146101F00F018F8CA
:100A100000221146901E00F013F80022BDE810409D
:100A20001146501E00F00CB800F01F01012202FA1E
:100A300001F14009800000F1E020C0F8001170478A
:100A400010B4184B1B68C3F30223C3F1070CBCF1AD
:100A5000040F01D94FF0040C1C1D072C01D20023F8
:100A600000E0DB1E012404FA0CFCACF1010C0CEAE2
:100A70000101994004FA03F35B1E1A401143002858
:100A800008DA00F00F0000F1E020090180F8141DE1
:100A900010BC704700F1E020090180F8001410BC80
:100AA000704700000CED00E000F00700064A1168F6
:100AB0004FF6FF03194041EA002040F0FD7040F07E
:100AC00080601060704700000CED00E0704700008F
:100AD0002DE9F05F04460E46DFF8D091D9F800000A
:100AE000F7B200F00F00B0420AD289F80070D9F8CE
:100AF000000000F00F00B04202D00120BDE8F09FDE
:100B00002078DFF8AC8110F0020F07D0D8F8000091
:100B1000A16820F0F0000843C8F80000207810F029
:100B2000010F51D060686349012808D002280DD018
:100B300003280BD0096811F0020F2ED00AE00968D3
:100B400011F4003F06D10120BDE8F09F096811F0C3
:100B5000007F1FD0D8F8001021F003010843C8F827
:100B60000000FFF7F9FE0546606841F2883A012867
:100B700016D0022829D003283CD0D8F8000010F065
:100B80000C0F51D0FFF7E8FE401B504547D903201A
:100B9000BDE8F09F0120BDE8F09F0120BDE8F09F77
:100BA000D8F8000000F00C0004283DD0FFF7D4FE78
:100BB000401B504502D90320BDE8F09FD8F8000043
:100BC00000F00C000428F1D12EE0D8F8000000F06D
:100BD0000C00082828D0FFF7BFFE401B504502D963
:100BE0000320BDE8F09FD8F8000000F00C000828B2
:100BF000F1D119E0D8F800004FF00C0B3BEA0000EF
:100C000012D0FFF7A9FE401B504502D90320BDE8D2
:100C1000F09FD8F800003BEA0000F2D104E0D8F8D9
:100C2000000010F00C0FADD1D9F8000000F00F005B
:100C3000B0420AD989F80070D9F8000000F00F001E
:100C4000B04202D00120BDE8F09F207810F0040FE0
:100C500007D0D8F80000E16820F4E0500843C8F855
:100C60000000207810F0080F08D0D8F800002169A3
:100C700020F4604040EAC100C8F8000000F058F8D5
:100C8000D8F80010F02292FAA2F201F0F001B2FAC4
:100C900082F2D140084A515CC840084908600020EF
:100CA000FFF782FE0020BDE8F09F0000003C0240FC
:100CB0000838024000380240F820000808000020F0
:100CC00001490120C864704700004742014800689C
:100CD000704700000800002000B5FFF7F7FF074944
:100CE00009684FF4E05292FAA2F201F4E051B2FA2C
:100CF00082F2D140024A515CC84000BD083802402F
:100D00000821000800B5FFF7E1FF074909684FF423
:100D1000604292FAA2F201F46041B2FA82F2D1404A
:100D2000024A515CC84000BD083802400821000852
:100D300010B41F48006810F00C011E481BD04FEA89
:100D4000600C042916D0082915D11B4A116801F03E
:100D50003F01136813F4800F47F6C0730DD0BCFB3E
:100D6000F1F01168194093FAA3F3B3FA83F3D94071
:100D700048430CE0604610BC7047B0FBF1F01168CE
:100D8000194093FAA3F3B3FA83F3D94048431168A7
:100D90004FF4403292FAA2F201F44031B2FA82F2F8
:100DA000D140491C4900B0FBF1F010BC7047000075
:100DB000083802400024F4000438024010B5054809
:100DC000006810F0800F04D0FFF780FE02498020F9
:100DD000087010BD0C3802400E3802402DE9F84F63
:100DE0000446DFF81C842078A8F1040710F0010FF6
:100DF000A7F1040560D0D8F8000000F00C0004282A
:100E000009D0D8F8000000F00C0008280DD138688F
:100E100010F4800F09D0286810F4003F4CD06068AF
:100E2000002849D10120BDE8F88F6068B0F5803F07
:100E300014D0B0F5A02F16D0286820F48030286098
:100E4000286820F480202860606810B3FFF784FDD4
:100E50000646286810F4003F0ED02DE0286840F4C4
:100E600080302860F0E7286840F4802028602868F7
:100E700040F480302860E7E7FFF76EFD801B6428B0
:100E800002D90320BDE8F88F286810F4003FF3D0A2
:100E900012E0FFF761FD0646286810F4003F0BD012
:100EA000FFF75AFD801B642802D90320BDE8F88FA4
:100EB000286810F4003FF3D12078DFF8489310F051
:100EC000020F4FF0000663D0D8F800004FF0F80B87
:100ED00010F00C0F16D0D8F8000000F00C00082815
:100EE00003D1386810F4800F0CD0E068C8B301203B
:100EF000C9F80000FFF730FD8246286810F0020FA5
:100F000016D022E0286810F0020F05D0E068012812
:100F100002D00120BDE8F88F28689BFAABF2216966
:100F2000B2FA82F220F0F8009140084328602FE0E6
:100F3000FFF712FDA0EB0A00022802D90320BDE84A
:100F4000F88F286810F0020FF2D028689BFAABF2F5
:100F50002169B2FA82F220F0F8009140084328603B
:100F600016E0FFE7C9F80060FFF7F6FC8246286844
:100F700010F0020F0CD0FFF7EFFCA0EB0A000228E4
:100F800002D90320BDE8F88F286810F0020FF2D1D3
:100F9000207810F0080F34D09B48DFF870B26169F8
:100FA000C1B101210160FFF7D7FC8246DBF80000E8
:100FB00010F0020F25D1FFF7CFFCA0EB0A000228AA
:100FC00002D90320BDE8F88FDBF8000010F0020F13
:100FD000F1D016E00660FFF7BFFC8246DBF80000A8
:100FE00010F0020F0DD0FFF7B7FCA0EB0A000228AB
:100FF00002D90320BDE8F88FDBF8000010F0020FE3
:10100000F1D1207810F0040F43D08148016841F0FD
:1010100080510160006800F080500090DFF8F4B16A
:10102000DBF8000040F48070CBF80000FFF794FC80
:101030008246DBF8000010F4807F0DD1FFF78CFCB6
:10104000A0EB0A00022802D90320BDE8F88FDBF8E4
:10105000000010F4807FF1D0A068DFF8BCB1012857
:1010600018D005281DD0DBF8000020F00100CBF8D7
:101070000000DBF8000020F00400CBF80000A068BE
:1010800068B3FFF769FC8246DBF8000010F0020F3E
:1010900014D03CE0DBF8000040F00100CBF8000089
:1010A000EDE7DBF8000040F00400CBF80000DBF8CF
:1010B000000040F00100CBF80000E0E7FFF74CFC37
:1010C000A0EB0A0141F28830814202D90320BDE839
:1010D000F88FDBF8000010F0020FEFD017E0FFF7F9
:1010E0003BFC8246DBF8000010F0020F0FD0FFF748
:1010F00033FCA0EB0A0141F28830814202D903207F
:10110000BDE8F88FDBF8000010F0020FEFD1A06906
:10111000F0B3D8F8001001F00C0108296CD00228B7
:1011200010D0C9F86060FFF717FC0446286810F07B
:10113000007F5ED0FFF710FC001B022855D903206A
:10114000BDE8F88FC9F86060FFF706FC064628681E
:1011500010F0007F0BD0FFF7FFFB801B022802D9A5
:101160000320BDE8F88F286810F0007FF3D1216AD2
:10117000E0694FF0FF3340EA010247F6C07191FA8F
:10118000A1F1606AB1FA81F100FA01F1A06A00E010
:101190002FE003EB50004FF4403393FAA3F3B3FA7C
:1011A00083F39840084310434FF0706292FAA2F222
:1011B000E16AB2FA82F29140084338600120C9F82E
:1011C0006000FFF7C9FB0446286810F0007F10D1CB
:1011D000FFF7C2FB001B022802D90320BDE8F88FED
:1011E000286810F0007FF3D003E0286810F0007F3B
:1011F000A0D10020BDE8F88F0120BDE8F88F0000E5
:101200000838024000004742800E474274380240CE
:101210004038024000700040703802404FF0E0213A
:10122000042804D0086920F00400086170470869A8
:1012300040F004000861704770470000401EB0F1A4
:10124000807F01D3012070474FF0E0214861044ABC
:10125000F02010700020886107200861002070478E
:1012600023ED00E010B5FFF7E7FF10BD10B5044611
:1012700020684169C1F3C01194F83920212A0BD1AB
:1012800051B1416921F080014161206B08B1FFF744
:101290002DF8204600F01DFC20684169C1F3801143
:1012A00094F83A20222A0BD151B1416921F0400132
:1012B0004161606B08B1FFF719F8204600F0EEFBC2
:1012C000002010BD7047000010B504462268106869
:1012D000D168526900F00F03002B0AD110F0200FE3
:1012E00007D011F0200F04D02046BDE8104000F0D8
:1012F000F9BB002B6BD002F0010301F4907C53EAA0
:101300000C0364D010F0010F06D011F4807F03D0DD
:10131000E36B43F00103E36310F0040F06D012F017
:10132000010F03D0E36B43F00203E36310F0020FFD
:1013300006D012F0010F03D0E36B43F00403E36324
:1013400010F0080F06D012F0010F03D0E26B42F04C
:101350000802E263E26B002A2ED010F0200F05D0C5
:1013600011F0200F02D0204600F0BCFB206840693D
:10137000C0F38010E16B11F0080F00D108B32046D4
:1013800000F08CFB2068416911F0400F15D04169D5
:1013900021F040014161606B58B118490165606BF3
:1013A000FEF7F5FF002807D0606B016DBDE8104027
:1013B00008472046FFF786FF10BD2046FFF782FF53
:1013C00010BD2046FFF77EFF0020E06310BD10F047
:1013D000800F07D011F0800F04D02046BDE81040E8
:1013E00000F06CBD10F0400FF0D011F0400FEDD0C8
:1013F0002046BDE8104000F05FBB0000C1190008A6
:1014000070B50446002C04D094F83900002510B1C2
:1014100006E0012070BD84F83850204600F022F824
:10142000242084F839002068C16821F40051C1608B
:10143000204600F0A1FB2068016921F49041016180
:101440002068416921F02A0141612068C16841F4A6
:101450000051C160E563202084F8390084F83A0027
:10146000002070BD2DE9F04186B004462068A0F14F
:101470008041B1F5883151D100262A48016841F0F8
:1014800010010160006800F010000090C020019081
:101490000220029001200390032004900720059071
:1014A00001A92148FFF742F9214D204828604FF05B
:1014B0000068C5F80480AE60EE6007152F616E61AC
:1014C000AE61EE612E626E622846FFF76DF818B1CC
:1014D0006F2118A000F087FD6563AC631A4D1948B1
:1014E0002860C5F804804020A860EE602F616E611E
:1014F000AE61EE612E626E622846FFF755F818B1B4
:1015000081210CA000F06FFD2563AC630022114621
:101510002520FFF795FA2520FFF786FA06B0BDE8EB
:10152000F081000044380240000402404064024060
:10153000F00000202E2E5C5372635C757361727430
:101540002E630000B86402405001002037B582B01D
:101550000446134694F83A00202802D005B0022031
:1015600030BD039A002A36D0002B34D094F83800CE
:10157000012833D0012084F83800A262A385002519
:10158000E563222084F83A00616B1648C863616BFA
:1015900015480864616B1548C864606B0565206870
:1015A000011D606BFFF776F82068016841680191C2
:1015B00084F83850C16841F48071C1602068416985
:1015C00041F0010141612068416941F04001416100
:1015D00005B0002030BD05B0012030BD05B00220AF
:1015E00030BD00001B1A0008591A0008D119000864
:1015F000704770472DE9F84304460D4691461E4654
:1016000094F83900202802D00220BDE8F8834DB3B9
:10161000B9F1000F26D094F83800012825D0012018
:1016200084F838000027E763212084F83900FFF7A9
:1016300093F98046A4F82490A4F82690E08CA0B3F7
:10164000E08C401EE084A068B0F5805F10D0434677
:10165000002280212046009600F063FCF0B10320B8
:10166000BDE8F8830120BDE8F8830220BDE8F883D7
:101670004346002280212046009600F052FC10B123
:101680000320BDE8F88328882168C0F3080048607B
:10169000206908B16D1C05E0AD1C03E0216815F858
:1016A000010B4860E08C0028CAD14346002240214B
:1016B0002046009600F035FC10B10320BDE8F88309
:1016C000202084F8390084F838700020BDE8F883C1
:1016D00037B5044694F83900202802D003B0022020
:1016E00030BD0199002932D0002A30D094F838005A
:1016F00001282FD0012084F838002162A284E284DE
:101700000025E563212084F83900236B1348D86352
:10171000236B13481864236B1248D864206B05654B
:1017200020681346001DD4F830C002466046FEF71C
:10173000B1FF21686FF04000086084F838502068DD
:10174000416941F08001416103B0002030BD03B028
:10175000012030BD03B0022030BD0000631A000834
:10176000931A0008D119000870477047FEE700007F
:1017700008B50D48016841F480010160006800F47B
:1017800080000090002211463A20FFF759F93A20D4
:10179000FFF74AF9002211464620FFF751F9BDE84C
:1017A00008404620FFF740B930380240F0B587B016
:1017B00000242148016841F010010160016801F036
:1017C00010010191016841F080010160016801F0A0
:1017D00080010191016841F001010160016801F09F
:1017E00001010191016841F002010160006800F00F
:1017F00002000190114F012260213846FFF7A4F842
:101800000F4E012251023046FFF79EF860200290F1
:10181000012503950494059402A93846FEF786FF36
:101820006802029003950494059402A93046FEF7DD
:101830007DFF07B0F0BD00003038024000100240CC
:10184000001C024010B50D480B4901604FF4E13116
:10185000416000218160C16001610C2242618161AF
:10186000C161FFF7CDFD002805D0BDE8104045213E
:1018700003A000F0B8BB10BD00100140B000002074
:101880002E2E5C5372635C75736172742E6300005C
:10189000FEE7FFF793BA7047704710B5FFF762F89D
:1018A000BDE81040FFF7DEBC30B593B000252848F6
:1018B000016841F080510160006800F080500090A4
:1018C0002448016841F480410160006800F48040D0
:1018D0000090012006900004079002240C948001DF
:1018E0000D9008200E904FF4A8700F9010940420D3
:1018F000119006A8FFF772FA18B1A02116A000F007
:1019000072FB0F200190029403954FF4A0500490B5
:101910004FF480500590052101A8FFF7D9F818B1C0
:10192000AE210DA000F05FFBFFF7CAF9FFF7CEF97B
:101930004FF47A71B0FBF1F0FFF780FC0420FFF761
:101940006DFC00221146501EFFF77AF813B030BD2F
:1019500040380240007000402E2E2F5372632F6DCE
:1019600061696E2E630000000F48016841F4700148
:1019700001600E48016841F0010101600C4A00213C
:101980001160026822F4102222F080720260031DAE
:10199000084A1A60026822F4802202600648016048
:1019A000064958060860704788ED00E0003802409C
:1019B00008380240103000240C38024008ED00E0E6
:1019C00010B5806B0021C185C184FFF77BFC10BD81
:1019D00070B5846B20684069C0F3C01094F839106A
:1019E0000025212904D118B1E584204600F071F8C2
:1019F00020684069C0F3801094F83A10222904D17D
:101A000018B1E585204600F049F8E06B40F0100081
:101A1000E0632046FFF756FC70BD10B50146886BA9
:101A20000968096811F4807F13D10021C18501681C
:101A3000CA6822F48072CA6001684A6922F0010211
:101A40004A6101684A6922F040024A61202180F817
:101A50003A10FFF7CDFD10BD10B5806BFFF7C9FD43
:101A600010BD10B50146886B0968096811F4807FC4
:101A700002D0FFF779FE10BD0021C18401684A69D8
:101A800022F080024A610068C16841F04001C160F3
:101A900010BD10B5806BFFF768FE10BD0168CA6805
:101AA00022F49072CA6001684A6922F001024A6118
:101AB000202180F83A10704710B50168CA6822F0FA
:101AC0004002CA60202180F83910FFF74DFE002047
:101AD00010BD0168CA6822F0C002CA60202180F8E7
:101AE0003910704710B590F83A10222901D0022021
:101AF00010BD8168B1F5805F11D0016919B301682B
:101B0000496801F07F02816A4B1C83620A70C18DB3
:101B1000491E0904090CC1851CD0002010BD816A32
:101B200002693AB102685268D2B20A80816A491CDD
:101B30008162ECE702685268C2F308020A80816A97
:101B4000891C8162E3E701684A68816A4B1C8362F1
:101B50000A70DCE70168CA6822F49072CA60016802
:101B60004A6922F001024A61202180F83A10FFF709
:101B70003FFD002010BD00002DE9F0410446206823
:101B8000016921F44051E268114301612068C16894
:101B900021F4037121F414412369A268D4F81CC014
:101BA0001A43636943EA0C031A431143C160206876
:101BB000416921F44071A26911434161E069BC4A65
:101BC000BC49BD4D3226B0F5004F5ED0206888423A
:101BD00002D0904240F01281FFF794F800EBC00170
:101BE00001EB001061688900B0FBF1F7FFF78AF89C
:101BF00000EBC00101EB001061688900B0FBF1F05F
:101C0000A5FB001040096FF01801484307EB800066
:101C100006EB0010A5FB0010400900F0F007FFF7ED
:101C200071F800EBC00101EB001061688900B0FBA6
:101C3000F1F0A5FB0010400907EB0017FFF762F871
:101C400000EBC00101EB001061688900B0FBF1F806
:101C5000FFF758F800EBC00101EB00106168890044
:101C6000B0FBF1F0A5FB001040096FF018014843EC
:101C700008EB800006EB0010A5FB00102168C0F304
:101C8000431038448860BDE8F0812068884201D064
:101C9000904259D1FFF736F800EBC00101EB00107C
:101CA00061684900B0FBF1F0A5FB00104009070195
:101CB000FFF728F800EBC00101EB00106168490054
:101CC000B0FBF1F8FFF71EF800EBC00101EB0010CC
:101CD00061684900B0FBF1F0A5FB001040096FF00E
:101CE0001801484308EB800006EBC000A5FB00107C
:101CF000400900F0F80007EB4007FFF703F800EB9E
:101D0000C00101EB001061684900B0FBF1F8FEF77B
:101D1000F9FF00EBC00101EB001061684900B0FB66
:101D2000F1F0A5FB001040096FF01801484308EBE3
:101D3000800006EBC000A5FB00102168C0F3421034
:101D400038448860BDE8F081FEF7C6FF00EBC001B3
:101D500001EB001061684900B0FBF1F0A5FB001039
:101D600040090701FEF7B8FF00EBC00101EB0010CE
:101D700061684900B0FBF1F8FEF7AEFF00EBC0016F
:101D800001EB001061684900B0FBF1F0A5FB001009
:101D900040096FF01801484308EB800006EBC000D3
:101DA000A5FB0010400900F0F80007EB4007FEF724
:101DB00093FF00EBC00101EB001061684900B0FB2C
:101DC000F1F8FEF789FF00EBC00101EB001061683C
:101DD0004900B0FBF1F0A5FB001040096FF01801BD
:101DE000484308EB800006EBC000A5FB001021680B
:101DF000C0F3421038448860BDE8F081FEF76CFF04
:101E000000EBC00101EB001061688900B0FBF1F745
:101E1000FEF762FF00EBC00101EB00106168890072
:101E2000B0FBF1F0A5FB001040096FF0180148432A
:101E300007EB800006EB0010A5FB0010400900F046
:101E4000F007FEF749FF00EBC00101EB00106168ED
:101E50008900B0FBF1F0A5FB0010400907EB00176B
:101E6000FEF73AFF00EBC00101EB0010616889004A
:101E7000B0FBF1F8FEF730FF00EBC00101EB001002
:101E800061688900B0FBF1F0A5FB001040096FF01C
:101E90001801484308EB800006EB0010A5FB00107A
:101EA0002168C0F3431038448860BDE8F081000029
:101EB00000140140001001401F85EB5190F83910CB
:101EC000212901D0022070478168B1F5805F0CD0D4
:101ED000016A4A1C0262026809785160C18C491E7D
:101EE0000904090CC18410D019E0016A026809884C
:101EF000C1F308015160016919B1016A491C01620D
:101F0000ECE7016A891C0162E8E70168CA6822F00F
:101F10008002CA600068C16841F04001C1600020D1
:101F200070472DE9F0410446069D884617461E4637
:101F30002068006838EA000020D00020B84227D18D
:101F4000B5F1FF3F1CD025B1FEF706FD801BA8426E
:101F500016D92068C16821F4D071C1602068416938
:101F600021F001014161202084F8390084F83A0011
:101F7000002084F838000320BDE8F0810120DDE76F
:101F80002068006838EA000005D00020B842D7D0A9
:101F90000020BDE8F0810120F8E7000038B50E4CC4
:101FA0002068016811F0100F11D00168406800909E
:101FB0002046FFF75BF9606B00684068C0F1500095
:101FC000C2B20648027006492046FFF7BFFABDE8D4
:101FD00038400148FFF778B9B00000200000002029
:101FE00010000020FEE7FEE7014A024900F013B8A6
:101FF000392000080C00002002E008C8121F08C1A8
:10200000002AFAD170477047002001E001C1121F79
:10201000002AFBD170472DE9F04116460F460446D1
:10202000002503E03946B047641C6D1C2078002869
:10203000F8D12846BDE8F08113B54FF6FF730122B1
:1020400069460348FFF7D6FA009802B010BD0000B9
:10205000B0000020FEF78EFCFFF726FCFFF7A6FB82
:10206000FFF786FBFFF7EEFB0020194C59212154A6
:10207000401C5028FBDB17480068C16841F0100184
:10208000C160502214491348FFF760FA50221049EA
:102090001048FFF71DFB3125104E00274FF47A60E2
:1020A000FEF735FB00202554401CC0B20B28FAD3A4
:1020B0000A2207490748FFF70BFB3078401CC0B2E3
:1020C00030700A2800D9377005A0FFF78DFFE5E7CB
:1020D00060000020B000002010000020010000205F
:1020E000B6C1B5BDB1EAC7A9CEAAA3BA0A0000001D
:1020F0000006101600061016000000000000000088
:10210000010203040607080900000000010203049D
:10211000302100080000002010000000F81F000817
:102120004021000810000020A01100000820000835
:1021300000000000000000000024F4000000000087
:040000050800018965
:00000001FF
