:020000040800F2
:10000000681100209D010008E31600089116000801
:10001000E116000885020008C51D00080000000068
:10002000000000000000000000000000EB160008C7
:100030008B03000800000000E7160008ED1600081A
:10004000B7010008B7010008B7010008B7010008B0
:10005000B7010008E9160008B7010008B701000859
:10006000B7010008B7010008B7010008B701000890
:10007000B7010008B7010008B7010008B701000880
:10008000B7010008B7010008B7010008B701000870
:10009000B7010008B7010008B7010008B701000860
:1000A000B7010008B7010008B7010008B701000850
:1000B000B7010008B7010008B7010008B701000840
:1000C000B7010008B7010008B7010008B701000830
:1000D000B70100087D1D0008B7010008B70100083E
:1000E000B7010008B7010008B7010008B701000810
:1000F000B7010008B7010008B7010008B701000800
:10010000B7010008B7010008B7010008B7010008EF
:10011000B7010008B7010008B7010008B7010008DF
:10012000B7010008B701000889020008B7010008FC
:10013000B7010008B7010008B7010008B7010008BF
:10014000B7010008B7010008B7010008B7010008AF
:10015000B7010008B701000895020008B7010008C0
:10016000B7010008B7010008B7010008B70100088F
:10017000B7010008B7010008B7010008000000003F
:10018000B7010008B7010008DFF80CD000F068F8EC
:1001900000480047E91D0008681100200648804714
:1001A00006480047FEE7FEE7FEE7FEE7FEE7FEE75C
:1001B000FEE7FEE7FEE7FEE7C11700088901000839
:1001C0002DE9F05F0546002092469B46884606468C
:1001D000814640241BE0284641464746224600F01F
:1001E0002FF853465A46C01A914110D3114618466B
:1001F000224600F016F82D1A67EB01084F462246FA
:100200000120002100F00DF817EB00094E41201EDF
:10021000A4F10104DFDC484631462A464346BDE8E6
:10022000F09F202A04DB203A00FA02F100207047F8
:100230009140C2F1200320FA03F319439040704724
:10024000202A04DB203A21FA02F00021704721FA2B
:1002500002F3D040C2F12002914008431946704792
:10026000064C074D06E0E06840F0010394E8070003
:1002700098471034AC42F6D3FFF78AFF541E0008AB
:10028000741E0008FEE70000014800F0E3B800001B
:1002900004010020014800F0DDB80000A4000020A7
:1002A00001680A4BCAB2103AA3FB02321209084B8A
:1002B0009B5CC365032A04D96FF30901091D81659D
:1002C00002E06FF309018165806D7047ABAAAAAAAD
:1002D000341E0008014600208A6A8B69002B0FD06B
:1002E000B3F5005F1DD08AB3012A30D0022A2ED088
:1002F000032A04D1C96A11F0807F00D00120704721
:100300001AB1012A07D0022AF9D1C96A11F0807FF7
:10031000F5D001207047C96AB1F1C07FFAD1012040
:1003200070475AB1012A0BD0022A07D0032AF7D10D
:10033000C96AB1F1C07FF3D1012070470120704735
:10034000C96A11F0807FFAD001207047FFE70120D1
:10035000704710B4D0F800C0DCF8004024F48024CA
:10036000CCF80040D0F800C0CCF804308368402BB3
:1003700005D0036899600068C26010BC70470368CC
:100380009A600068C16010BC704770472DE9F04169
:100390000446A66D00F02AFB054694F835000027B8
:1003A000022806D08020606584F834700120BDE802
:1003B000F0812068016821F0160101602068416920
:1003C00021F080014161206C08B9A06C20B1206847
:1003D000016821F0080101602068016821F0010135
:1003E00001602068006810F0010F12D000F0FEFAE2
:1003F000401B052808D92020606584F8347003204C
:1004000084F83500BDE8F0812068006810F0010F25
:10041000ECD194F85C003F2101FA00F0B06084F860
:100420003470012084F835000020BDE8F08190F898
:100430003510022903D08021416501207047052134
:1004400080F835100068016821F00101016000208A
:10045000704700002DE9F84304464FF00008CDF83E
:10046000008076484FF416510068B0FBF1F7A56D97
:100470002E6894F85C00082101FA00F0304211D097
:100480002068026812F0040F0CD0026822F0040207
:10049000026094F85C0001FA00F0A860606D40F022
:1004A0000100606594F85C004FF0010909FA00F062
:1004B000304209D02168496911F0800F04D0A8604A
:1004C000606D40F00200606594F85C100420884084
:1004D000304209D02168096811F0020F04D0A860E9
:1004E000606D40F00400606594F85C101020884056
:1004F000304224D02168096811F0080F1FD0A8608D
:100500002068016811F4802F0DD0006810F4002FCE
:1005100004D0A16C99B12046884710E0216C71B1DC
:10052000204688470BE0016811F4807F03D1016801
:1005300021F008010160216C09B12046884794F838
:100540005C1020208840304251D02168096811F0A9
:10055000100F4CD0A86094F8350005280DD0206805
:10056000016811F4802F32D0006810F4002F29D0D8
:10057000E16B59B32046884739E02068016821F0D3
:10058000160101602068416921F080014161206C01
:1005900008B9A06C20B12068016821F00801016051
:1005A00094F85C003F2101FA00F0A86084F83480E0
:1005B00084F83590216D00293ED001B02046BDE879
:1005C000F0430847616C09B1204688470FE0016895
:1005D00011F4807F07D1016821F01001016084F8D7
:1005E000348084F83590E16B09B120468847606D0E
:1005F000002821D0606D10F0010F15D0052084F87F
:1006000035002068016821F0010101600098401C5C
:100610000090B84204D82068006810F0010FF5D1AE
:1006200084F8348084F83590E16C002904D001B05E
:100630002046BDE8F0430847BDE8F88310000020DD
:100640002DE9F041044600F0D1F90546DCB1002661
:1006500084F83460022084F835002068016821F0B5
:10066000010101602068006810F0010F13D000F054
:10067000BDF9401B052809D920206065032084F8B6
:100680003500BDE8F0810120BDE8F08120680068F8
:1006900010F0010FEBD121680868234A1040A368CD
:1006A0006268D4F810C01A43E36843EA0C031A43A3
:1006B00063691A43A3691A43E3691A43236A1A4315
:1006C0001043626A042A03D1236BE26A1A4310437F
:1006D00008602068406920F00701606A40EA01056F
:1006E000012704280ED1A06A0543E06A50B12046D4
:1006F000FFF7F0FD30B14020606584F835700120CF
:10070000BDE8F081206845612046FFF7C9FD94F8F7
:100710005C103F2202FA01F18160666584F8357051
:100720000020BDE8F08100003F8010F070B5044665
:100730000025A66D94F8340001280DD0012084F81E
:10074000340094F835C00020BCF1010F06D084F8C5
:1007500034000225284670BD022070BD4FF0020C07
:1007600084F835C060652046FFF7F3FD94F85C001F
:100770003F2101FA00F0B0602068016841F01601E5
:1007800001602068416941F080014161206C20B125
:100790002068016841F0080101602068016841F0AB
:1007A00001010160D6E7000070B5044600F01EF9B3
:1007B0000546B4F1FF3F02D004480078044400F03D
:1007C00015F9401BA042FAD370BD000004000020C0
:1007D0002DE9F84F0022DFF80082DFF80092DFF801
:1007E00000A24FF0030E0F27012303FA02F50B6856
:1007F0002B40AB427DD1D1F804C0BCF1020F02D036
:10080000BCF1120F12D14FEAD20C00EB8C0CDCF8C9
:1008100020605407E40E07FA04FB26EA0B06D1F821
:1008200010B00BFA04F43443CCF8204006684FEAC9
:10083000420C0EFA0CF4A64391F804B00BF0030B33
:100840000BFA0CFB4BEA060606604E68012E05D03B
:10085000022E03D0112E01D0122E11D18668A6438C
:10086000D1F80CB00BFA0CFB4BEA06068660466822
:1008700026EA05050E79C6F3001696403543456015
:10088000C56825EA04048D6805FA0CFC4CEA040CE2
:10089000C0F80CC0D1F804C01CF0805F7DD0D8F83F
:1008A00000C04CF4804CC8F800C0D8F800C00CF46C
:1008B000804CCDF800C022F0030C0CF1804404F50C
:1008C0009834D4F808C895072D0F07FA05F62CEAD6
:1008D0000606A0F1804CBCF5003C64D0A0F1804C31
:1008E000BCF5013C62D0A0F1804CBCF5023C60D06C
:1008F00000E052E0A0F1804CBCF5033C5CD0A0F1DC
:10090000804CBCF5043C5AD0A0F1804CBCF5053CB1
:1009100058D0A0F1804CBCF5063C56D0A0F1804CDC
:10092000BCF5073C54D04FF0080C0CFA05FC4CEA1F
:10093000060CC4F808C8D9F800C02CEA030C4C68AF
:1009400014F4803F01D04CEA030CC9F800C0254CD8
:10095000D4F800C02CEA030C4D6815F4003F01D018
:100960004CEA030CC4F800C0DAF800C02CEA030C0F
:100970004C6814F4801F01D04CEA030CCAF800C084
:10098000194CD4F800C02CEA030C4D6815F4001F74
:1009900001D04CEA030CC4F800C0521C102AFFF42A
:1009A00023AFBDE8F88F4FF0000CBEE74FF0010C0D
:1009B000BBE74FF0020CB8E74FF0030CB5E74FF080
:1009C000040CB2E74FF0050CAFE74FF0060CACE7B4
:1009D0004FF0070CA9E7000044380240003C0140FA
:1009E000083C0140043C01400C3C01400148806847
:1009F000704700000400002002488168027811441A
:100A0000816070470400002010B50B48016841F474
:100A100000710160016841F480610160016841F486
:100A200080710160032000F09FF8002000F006F8BC
:100A300000F026F8002010BD003C024070B50446CE
:100A40000D4D4FF47A712878B1FBF0F00B4909682D
:100A5000B1FBF0F000F0F2FB08B1012070BD102CEA
:100A600007D200222146501E00F04AF86C60002098
:100A700070BD012070BD00000400002010000020A7
:100A800010B5032000F070F8002211466FF00B0043
:100A900000F036F8002211466FF00A0000F030F83E
:100AA000002211466FF0090000F02AF800221146DA
:100AB000501F00F025F800221146101F00F020F80A
:100AC00000221146901E00F01BF800221146501E15
:100AD00000F016F800221146052000F011F8BDE8DC
:100AE00010400520AFF3008000F01F01012202FA40
:100AF00001F14009800000F1E020C0F800117047CA
:100B000010B4184B1B68C3F30223C3F1070CBCF1EC
:100B1000040F01D94FF0040C1C1D072C01D2002337
:100B200000E0DB1E012404FA0CFCACF1010C0CEA21
:100B30000101994004FA03F35B1E1A401143002897
:100B400008DA00F00F0000F1E020090180F8141D20
:100B500010BC704700F1E020090180F8001410BCBF
:100B6000704700000CED00E000F00700064A116835
:100B70004FF6FF03194041EA002040F0FD7040F0BD
:100B800080601060704700000CED00E070470000CE
:100B90002DE9F04704460D46002C13D0DFF85091A4
:100BA000D9F80000EFB200F00F00A8420DD289F88A
:100BB0000070D9F8000000F00F00A84205D0012015
:100BC000BDE8F0870120BDE8F0872068494E10F0AD
:100BD000020F14D010F0040F03D0306840F4E0503E
:100BE0003060207810F0080F03D0306840F4604087
:100BF00030603068A16820F0F00008433060207851
:100C000010F0010F3ED060683B49012808D002284F
:100C10000DD003280BD0096811F0020F28D00AE08C
:100C2000096811F4003F06D10120BDE8F08709688A
:100C300011F0007F19D0316821F0030108433060C2
:100C4000FFF7D4FE80463068616800F00C00B0EB1E
:100C5000810F17D041F2883AFFF7C8FEA0EB0800D9
:100C6000504508D90320BDE8F0870120BDE8F08792
:100C70000120BDE8F0873068616800F00C00B0EB3F
:100C8000810FE9D1D9F8000000F00F00A8420AD97D
:100C900089F80070D9F8000000F00F00A84202D0D7
:100CA0000120BDE8F087207810F0040F05D03068EF
:100CB000E16820F4E05008433060207810F0080F1D
:100CC00006D03068216920F4604040EAC1003060FD
:100CD00000F044F83168094AC1F30311515CC8407F
:100CE000074908600020FFF7A9FE0020BDE8F08753
:100CF000003C024008380240003802403C1E000818
:100D00001000002001490120C864704700004742DC
:100D100001480068704700001000002000B5FFF790
:100D2000F7FF04490968044AC1F38221515CC840B5
:100D300000BD0000083802404C1E000800B5FFF757
:100D4000E7FF04490968044AC1F34231515CC840D5
:100D500000BD0000083802404C1E000810B51748BE
:100D6000006810F00C01164816D04310042912D068
:100D7000082911D1134C216801F03F02216811F4B8
:100D8000800F0AD02068C0F38810A0FB0301002365
:100D9000FFF716FA09E0184610BD21680023C1F3D9
:100DA0008811A1FB0001FFF70BFA2168C1F3014193
:100DB000491C4900B0FBF1F010BD000008380240AA
:100DC0000024F4000438024010B50548006810F013
:100DD000800F04D0FFF7DAFE02498020087010BDB2
:100DE0000C3802400E3802402DE9F84F0446002C22
:100DF00010D02078FA4D10F0010F64D0F948016846
:100E000001F00C0104290DD0006800F00C00082846
:100E100003D011E00120BDE8F88FF348006810F41A
:100E2000800F09D0286810F4003F4CD0606800287B
:100E300049D10120BDE8F88F6068B0F5803F14D03B
:100E4000B0F5A02F16D0286820F4803028602868DC
:100E500020F480202860606810B3FFF7C7FD0646C5
:100E6000286810F4003F0ED02DE0286840F4803050
:100E70002860F0E7286840F480202860286840F463
:100E800080302860E7E7FFF7B1FD801B642802D9B6
:100E90000320BDE8F88F286810F4003FF3D012E07B
:100EA000FFF7A4FD0646286810F4003F0BD0FFF7BB
:100EB0009DFD801B642802D90320BDE8F88F2868B7
:100EC00010F4003FF3D12078C84F10F0020F4FF01C
:100ED000000856D0C348016811F00C0F15D0006807
:100EE00000F00C00082804D1BF48006810F4800FFF
:100EF0000BD0E06878B301203860FFF777FD064635
:100F0000286810F0020F12D01DE0286810F0020FC0
:100F100005D0E068012802D00120BDE8F88F2868DC
:100F2000216920F0F80040EAC100286029E0FFF7BD
:100F30005DFD801B022802D90320BDE8F88F2868D8
:100F400010F0020FF3D02868216920F0F80040EA81
:100F5000C100286015E0FFE7C7F80080FFF746FDF5
:100F60000646286810F0020F0BD0FFF73FFD801BEC
:100F7000022802D90320BDE8F88F286810F0020F7C
:100F8000F3D1207810F0080F33D09948DFF864923D
:100F90006169B9B101210160FFF728FD0646D9F862
:100FA000000010F0020F24D1FFF720FD801B022863
:100FB00002D90320BDE8F88FD9F8000010F0020F25
:100FC000F2D016E0C0F80080FFF710FD0646D9F811
:100FD000000010F0020F0CD0FFF708FD801B022864
:100FE00002D90320BDE8F88FD9F8000010F0020FF5
:100FF000F2D1207810F0040F73D04FF00009DFF821
:10100000F8A1DAF8000010F0805F0CD1DAF80000E7
:1010100040F08050CAF80000DAF8000000F080507C
:1010200000904FF00109DFF8D4B1DBF8000010F4B4
:10103000807F1AD1DBF8000040F48070CBF800000C
:10104000FFF7D4FC0646DBF8000010F4807F0CD1DB
:10105000FFF7CCFC801B022802D90320BDE8F88FE3
:10106000DBF8000010F4807FF2D0A068DFF890B1C8
:10107000012818D005281DD0DBF8000020F0010061
:10108000CBF80000DBF8000020F00400CBF80000F3
:10109000A06838B3FFF7AAFC0646DBF8000010F0A2
:1010A000020F14D03CE0DBF8000040F00100CBF868
:1010B0000000EDE7DBF8000040F00400CBF8000092
:1010C000DBF8000040F00100CBF80000E0E7FFF79C
:1010D0008DFC811B41F28830814204D90320BDE898
:1010E000F88F26E005E0DBF8000010F0020FEED0EC
:1010F00016E0FFF77BFC0646DBF8000010F0020F5D
:101100000ED0FFF773FC811B41F28830814202D977
:101110000320BDE8F88FDBF8000010F0020FF0D1DB
:10112000B9F1010F05D1DAF8000020F08050CAF8BB
:101130000000A069E8B32B49096801F00C010829F7
:101140006BD0022810D0C7F86080FFF74FFC044630
:10115000286810F0007F5ED0FFF748FC001B0228D3
:1011600055D90320BDE8F88FC7F86080FFF73EFC33
:101170000646286810F0007F0BD0FFF737FC801B75
:10118000022802D90320BDE8F88F286810F0007FFC
:10119000F3D1216AE069A26A0843616A4FF0FF3324
:1011A000890103EB520241EA0241084394F82C10F2
:1011B00000E030E040EA01610B4801600120386640
:1011C000FFF714FC0446286810F0007F23D1FFF7D6
:1011D0000DFC001B022815D90320BDE8F88F1CE088
:1011E00000380240083802400438024000004742FC
:1011F000800E474274380240403802400070004080
:1012000070380240286810F0007FE0D003E02868C2
:1012100010F0007FA0D10020DFE70120DDE74FF0D4
:10122000E021042804D0086920F004000861704718
:10123000086940F00400086170477047401EB0F133
:10124000807F01D3012070474FF0E0214861044ABC
:10125000F02010700020886107200861002070478E
:1012600023ED00E010B5FFF7E8FF10BD10B5044610
:1012700020684169C1F3C01194F83920212A0BD1AB
:1012800051B1416921F080014161206B08B1FFF744
:101290007DF8204600F049FB20684169C1F38011C8
:1012A00094F83A20222A0BD151B1416921F0400132
:1012B0004161606B08B1FFF769F8204600F01AFB46
:1012C000002010BD7047000010B504462268106869
:1012D000D168526900F00F03002B0AD110F0200FE3
:1012E00007D011F0200F04D02046BDE8104000F0D8
:1012F00025BB002B6BD002F0010301F4907C53EA74
:101300000C0364D010F0010F06D011F4807F03D0DD
:10131000E36B43F00103E36310F0040F06D012F017
:10132000010F03D0E36B43F00203E36310F0020FFD
:1013300006D012F0010F03D0E36B43F00403E36324
:1013400010F0080F06D012F0010F03D0E26B42F04C
:101350000802E263E26B002A2ED010F0200F05D0C5
:1013600011F0200F02D0204600F0E8FA2068406912
:10137000C0F38010E16B11F0080F00D108B32046D4
:1013800000F0B8FA2068416911F0400F15D04169AA
:1013900021F040014161606B58B118490165606BF3
:1013A000FFF745F8002807D0606B016DBDE81040DD
:1013B00008472046FFF786FF10BD2046FFF782FF53
:1013C00010BD2046FFF77EFF0020E06310BD10F047
:1013D000800F07D011F0800F04D02046BDE81040E8
:1013E00000F098BC10F0400FF0D011F0400FEDD09D
:1013F0002046BDE8104000F08BBA00001918000824
:1014000070B50446002C04D094F83900002510B1C2
:1014100006E0012070BD84F83850204600F022F824
:10142000242084F839002068C16821F40051C1608B
:10143000204600F0CDFA2068016921F49041016155
:101440002068416921F02A0141612068C16841F4A6
:101450000051C160E563202084F8390084F83A0027
:10146000002070BD2DE9F04186B004462068A0F14F
:101470008041B1F5883151D100262A48016841F0F8
:1014800010010160006800F010000090C020019081
:101490000220029001200390032004900720059071
:1014A00001A92148FFF794F9214D204828604FF009
:1014B0000068C5F804804020A860EE6007012F6135
:1014C0006E61AE61EE612E626E622846FFF7B8F87B
:1014D00018B16E2117A000F076FC2563AC631A4D9D
:1014E00018482860C5F80480AE60EE602F616E6118
:1014F000AE61EE612E626E622846FFF7A1F818B168
:1015000080210CA000F05FFC6563AC6300221146F3
:101510002520FFF7F5FA2520FFF7E6FA06B0BDE82B
:10152000F08100004438024000040240B8640240E8
:10153000A40000202E2E5C5372635C75736172747C
:101540002E630000406402400401002037B582B0E1
:101550000446134694F83A00202802D005B0022031
:1015600030BD039A002A36D0002B34D094F83800CE
:10157000012833D0012084F83800A262A385002519
:10158000E563222084F83A00616B1648C863616BFA
:1015900015480864616B1548C864606B0565206870
:1015A000011D606BFFF7C2F8206801684168019176
:1015B00084F83850C16841F48071C1602068416985
:1015C00041F0010141612068416941F04001416100
:1015D00005B0002030BD05B0012030BD05B00220AF
:1015E00030BD000073180008B11800082918000861
:1015F0007047704737B5044694F83900202802D068
:1016000003B0022030BD0199002932D0002A30D029
:1016100094F8380001282FD0012084F83800216286
:10162000A284E2840025E563212084F83900236B3D
:101630001348D863236B13481864236B1248D8648B
:10164000206B056520681346001DD4F830C00246A3
:101650006046FFF76BF821686FF04000086084F87F
:1016600038502068416941F08001416103B0002099
:1016700030BD03B0012030BD03B0022030BD0000FA
:10168000BB180008EB1800082918000870477047BD
:10169000FEE7000010B50D480B4901604FF4E13141
:1016A000416000218160C16001610C224261816161
:1016B000C161FFF7A5FE002805D0BDE81040442118
:1016C00003A000F080BB10BD0010014064000020AA
:1016D0002E2E5C5372635C75736172742E6300000E
:1016E000FEE7FFF771BB70477047704710B5FFF713
:1016F00083F9BDE81040FFF7B5BD000030B593B0E9
:1017000000252948016841F080510160006800F01F
:10171000805000902548016841F4804101600068D4
:1017200000F480400090032006904FF48030079032
:1017300002240C9480010D9008200E904FF4A870A4
:101740000F9010940420119006A8FFF74DFB18B1DC
:101750009D2117A000F037FB0F2001900294039504
:101760004FF4A05004904FF480500590052101A83B
:10177000FFF70EFA18B1AB210DA000F024FBFFF724
:10178000C1FAFFF7C5FA4FF47A71B0FBF1F0FFF739
:1017900055FD0420FFF743FD00221146501EFFF7C0
:1017A000AFF913B030BD0000403802400070004077
:1017B0002E2E2F5372632F6D61696E2E6300000011
:1017C0000F48016841F4700101600E48016841F062
:1017D000010101600C4A00211160026822F410220C
:1017E00022F080720260031D084A1A60026822F427
:1017F000802202600648016006495806086070476A
:1018000088ED00E000380240083802401030002423
:101810000C38024008ED00E010B5806B0021C18556
:10182000C184FFF74FFD10BD70B5846B206840691F
:10183000C0F3C01094F839100025212904D118B143
:10184000E584204600F071F820684069C0F38010FC
:1018500094F83A10222904D118B1E585204600F009
:1018600049F8E06B40F01000E0632046FFF72AFDE6
:1018700070BD10B50146886B0968096811F4807F56
:1018800013D10021C1850168CA6822F48072CA6040
:1018900001684A6922F001024A6101684A6922F03E
:1018A00040024A61202180F83A10FFF7A1FE10BDE6
:1018B00010B5806BFFF79DFE10BD10B50146886B1B
:1018C0000968096811F4807F02D0FFF7DFFE10BDC0
:1018D0000021C18401684A6922F080024A610068DF
:1018E000C16841F04001C16010BD10B5806BFFF7C9
:1018F000CEFE10BD0168CA6822F49072CA60016809
:101900004A6922F001024A61202180F83A107047AA
:1019100010B50168CA6822F04002CA60202180F830
:101920003910FFF7B3FE002010BD0168CA6822F02D
:10193000C002CA60202180F83910704710B590F8B5
:101940003A10222901D0022010BD8168B1F5805FD4
:1019500011D0016919B30168496801F07F02816AF9
:101960004B1C83620A70C18D491E0904090CC18594
:101970001CD0002010BD816A02693AB10268526829
:10198000D2B20A80816A491C8162ECE7026852681F
:10199000C2F308020A80816A891C8162E3E7016858
:1019A0004A68816A4B1C83620A70DCE70168CA6876
:1019B00022F49072CA6001684A6922F001024A6109
:1019C000202180F83A10FFF713FE002010BD000020
:1019D0002DE9F04104462068016921F44051E26894
:1019E000114301612068C16821F4037121F414419D
:1019F0002369A268D4F81CC01A43636943EA0C0344
:101A00001A431143C1602068416921F44071A26901
:101A100011434161E069BC4ABC49BD4D3226B0F575
:101A2000004F5ED02068884202D0904240F0128180
:101A3000FFF784F900EBC00101EB00106168890039
:101A4000B0FBF1F7FFF77AF900EBC00101EB0010F2
:101A500061688900B0FBF1F0A5FB001040096FF050
:101A60001801484307EB800006EB0010A5FB0010AF
:101A7000400900F0F007FFF761F900EBC00101EB4E
:101A8000001061688900B0FBF1F0A5FB001040096F
:101A900007EB0017FFF752F900EBC00101EB001054
:101AA00061688900B0FBF1F8FFF748F900EBC0016D
:101AB00001EB001061688900B0FBF1F0A5FB00109C
:101AC00040096FF01801484308EB800006EB001056
:101AD000A5FB00102168C0F3431038448860BDE8BE
:101AE000F0812068884201D0904259D1FFF726F951
:101AF00000EBC00101EB001061684900B0FBF1F0A0
:101B0000A5FB001040090701FFF718F900EBC00121
:101B100001EB001061684900B0FBF1F8FFF70EF926
:101B200000EBC00101EB001061684900B0FBF1F06F
:101B3000A5FB001040096FF01801484308EB800036
:101B400006EBC000A5FB0010400900F0F80007EB11
:101B50004007FFF7F3F800EBC00101EB00106168EC
:101B60004900B0FBF1F8FFF7E9F800EBC00101EB29
:101B7000001061684900B0FBF1F0A5FB00104009BE
:101B80006FF01801484308EB800006EBC000A5FB8E
:101B900000102168C0F3421038448860BDE8F0812D
:101BA000FFF7BCF800EBC00101EB001061684900D1
:101BB000B0FBF1F0A5FB001040090701FFF7AEF8FC
:101BC00000EBC00101EB001061684900B0FBF1F8C7
:101BD000FFF7A4F800EBC00101EB001061684900B9
:101BE000B0FBF1F0A5FB001040096FF0180148436D
:101BF00008EB800006EBC000A5FB0010400900F0D8
:101C0000F80007EB4007FFF789F800EBC00101EB94
:101C1000001061684900B0FBF1F8FFF77FF800EBB6
:101C2000C00101EB001061684900B0FBF1F0A5FBB9
:101C3000001040096FF01801484308EB800006EBE4
:101C4000C000A5FB00102168C0F342103844886032
:101C5000BDE8F081FFF762F800EBC00101EB001076
:101C600061688900B0FBF1F7FFF758F800EBC0019D
:101C700001EB001061688900B0FBF1F0A5FB0010DA
:101C800040096FF01801484307EB800006EB001095
:101C9000A5FB0010400900F0F007FFF73FF800EB4C
:101CA000C00101EB001061688900B0FBF1F0A5FBF9
:101CB0000010400907EB0017FFF730F800EBC001F8
:101CC00001EB001061688900B0FBF1F8FFF726F81E
:101CD00000EBC00101EB001061688900B0FBF1F07E
:101CE000A5FB001040096FF01801484308EB800085
:101CF00006EB0010A5FB00102168C0F34310384428
:101D00008860BDE8F081000000140140001001402F
:101D10001F85EB5190F83910212901D0022070471E
:101D20008168B1F5805F0CD0016A4A1C02620268CA
:101D300009785160C18C491E0904090CC18410D076
:101D400019E0016A02680988C1F30801516001695C
:101D500019B1016A491C0162ECE7016A891C016240
:101D6000E8E70168CA6822F08002CA600068C168BA
:101D700041F04001C16000207047000038B50E4CB2
:101D80002068016811F0100F11D0016840680090C0
:101D90002046FFF76BFA606B006840680749C0F1A6
:101DA00050000870502206492046FFF7CFFBBDE8DF
:101DB00038400148FFF788BA640000200000002086
:101DC00014000020FEE7FEE702E008C8121F08C169
:101DD000002AFAD170477047002001E001C1121FAC
:101DE000002AFBD170470000FEF70EFEFFF786FCCD
:101DF000FFF750FC0C480068C16841F01001C16059
:101E000050220A490848FFF7A1FB094C5022074914
:101E10000548FFF7EFFB2078401C20704FF47A60F4
:101E2000FEF7C2FCF2E7000064000020140000206E
:101E30000100002000061016000610160000000029
:101E4000000000000102030406070809000000006A
:101E500001020304741E00080000002014000000AA
:101E6000C81D0008881E000814000020541100003E
:101E7000D81D000800000000010000001000000054
:081E8000000000000024F40042
:040000050800018965
:00000001FF
