:020000040800F2
:10000000481300209D010008CB1C0008D31A0008EB
:10001000C91C000825070008F126000800000000A0
:10002000000000000000000000000000C91D0008E2
:100030002707000800000000CD1C0008CB1D0008A9
:10004000B7010008B7010008B7010008B7010008B0
:10005000B7010008CF1C0008B7010008B70100086D
:10006000B7010008B7010008B7010008B701000890
:10007000B7010008B7010008B7010008B701000880
:10008000B7010008B7010008B7010008B701000870
:10009000B7010008B7010008B7010008B701000860
:1000A000B7010008B7010008B7010008B701000850
:1000B000B7010008B7010008B7010008B701000840
:1000C000B7010008B7010008B7010008B701000830
:1000D000B7010008B7010008B7010008E5260008CD
:1000E000B7010008B7010008B7010008B701000810
:1000F000B7010008B7010008B7010008B701000800
:10010000B7010008B7010008CD1E0008B7010008BC
:10011000B7010008B7010008B7010008B7010008DF
:10012000B7010008B7010008B7010008B7010008CF
:10013000B7010008B7010008B7010008B7010008BF
:10014000B7010008B7010008B7010008B7010008AF
:10015000B7010008B7010008B7010008B70100089F
:10016000B7010008B7010008B7010008B70100088F
:10017000B7010008B7010008B7010008000000003F
:10018000B7010008B7010008DFF80CD000F02AFA28
:100190000048004705300008481300200648804703
:1001A00006480047FEE7FEE7FEE7FEE7FEE7FEE75C
:1001B000FEE7FEE7FEE7FEE7751E0008890100087E
:1001C00000F0004230F000400AD0C10D01F560712E
:1001D000C0F3160042EA0151C208400711437047BC
:1001E00000200146704730B50B4601460020202212
:1001F000012409E021FA02F59D4205D303FA02F534
:10020000491B04FA02F52844151EA2F10102F1DC93
:1002100030BD2DE9F05F0546002092469B4688469A
:100220000646814640241BE0284641464746224672
:1002300000F0F9F953465A46C01A914110D31146BD
:100240001846224600F0E0F92D1A67EB01084F46E8
:1002500022460120002100F0D7F917EB00094E419A
:10026000201EA4F10104DFDC484631462A464346FD
:10027000BDE8F09F2DE9FE4F804681EA0300C00FE4
:100280000C46009021F0004123F00045B8EB02003D
:10029000A94105D24046214690461C460B460246DF
:1002A00023F00040104347D0270DC7F30A00C3F3E3
:1002B0000A510290401A019040286BDAC3F31300F0
:1002C00040F4801B0098924620B10023D2EB030A31
:1002D00063EB0B0B01985946C0F14002504600F009
:1002E00093F906460D4650465946019A00F0ABF97F
:1002F00010EB08006141002487EA115284EAE77399
:100300001A4340D0009A62B3019A012A4FEA075279
:1003100015DC001B61EB02014FF0004202EA0752BC
:10032000CDE90042001C41F5801132462B4600F019
:10033000ABF903B0BDE8F08F40462146F9E7001B5A
:1003400061EB0201001C41F5801300185B4120188D
:10035000A2F5001747EB030140EAD570B6196D41CD
:1003600011E06D084FEA360645EAC0754FEA0752BC
:10037000001B61EB0201001C41F5801149084FEAA6
:1003800030000019514132462B4603B0BDE8F04F12
:1003900000F06BB90098012240000023D0EB02026C
:1003A00063EBE073009821464FEAE074B8EB00007D
:1003B00061EB0401E9E783F000435BE781F0004172
:1003C00058E72DE9FE4F81EA030404F0004421F0D0
:1003D000004100944FF0000B23F0004350EA010469
:1003E0005ED052EA03045BD0C3F30A54C1F30A554A
:1003F0002C44A4F2F3340194A0FB0254C1F3130182
:1004000041F48011C3F3130343F4801301FB02444E
:1004100000FB034E840A970A44EA815447EA835753
:10042000A4FB076802958D0A05FB07854FEA932C0C
:1004300004FB0C542705029D4FEA065847EA16377D
:10044000B5EB08056EEB070C870E920E47EA811795
:1004500042EA8312A7FB0201B6EB0B0164EB000436
:100460002B0D43EA0C335E1844EB1C50DA46514620
:10047000E7FB0201C5F313044FEA0B3343EA1453BD
:100480004FEA0432019C43EA0603A4F10C040294EF
:10049000009CCDE900B400F0F7F803B0BDE8F08FA0
:1004A00000200146F9E72DE9F04D81EA030404F04C
:1004B000004B21F0004514464FF0000A23F00041A4
:1004C00050EA050220D054EA01021DD0C5F30A57B4
:1004D0000246C5F31303C1F31300C1F30A5640F4F7
:1004E000801543F48013A7EB0608101BD64608F2CC
:1004F000FD3873EB050002D308F1010801E0921802
:100500005B41B8F1000F03DA00200146BDE8F08D31
:1005100000204FF48011064684460EE0171B73EB53
:10052000050705D3121B63EB050306434CEA010CD8
:1005300049084FEA300092185B4150EA0107EDD1BB
:1005400052EA030012D082EA040083EA050108435C
:1005500005D0101BAB4106D20122002306E0002289
:100560004FF0004302E06FF0010253101AEB060057
:100570004CEB085110EB0A0041EB0B01BDE8F04DCC
:1005800000F073B8C1F30A52C1F3130140F2FF3314
:1005900041F480119A4202DA00200146704740F28D
:1005A00033439A42A2F2334202DC524200F03BB89B
:1005B00000F02AB830B5041E71F1000404DB4FF0DE
:1005C0000044404264EB0101141E73F1000405DB9A
:1005D0001C464FF00043524263EB0403994208BFAC
:1005E000904230BD064C074D06E0E06840F0010344
:1005F00094E8070098471034AC42F6D3FFF7C8FDE3
:100600007834000898340008202A04DB203A00FAE5
:1006100002F1002070479140C2F1200320FA03F359
:10062000194390407047202A04DB203A21FA02F057
:100630000021704721FA02F3D040C2F1200291401C
:10064000084319467047202A06DBCB17203A41FAA7
:1006500002F043EAE07306E041FA02F3D040C2F14F
:100660002002914008431946704710B5141E73F1DB
:10067000000408DA401C41F1000192185B411A4362
:1006800001D120F0010010BD2DE9F04D92469B46AE
:1006900011B1B1FA81F202E0B0FA80F22032904654
:1006A000FFF7B2FF04460F4640EA0A0041EA0B0199
:1006B00053465A46084313D0114653EA010019D055
:1006C000C8F140025046FFF7AEFF05460E465046C1
:1006D00059464246FFF798FF084305D0012004E041
:1006E00020463946BDE8F08D0020054346EAE07615
:1006F0002C4337430A986305E40AA0EB0800002264
:10070000FD0A44EA47540A3002D500200146E9E7D1
:10071000010510196941DDE9084500196941BDE885
:10072000F04DA2E7FEE7704730B58DB0154814498B
:10073000016053214160002484604FF6FF75C5605D
:100740000461082100F09CFF4FF48050089008A934
:100750000C4800F016FE302001900295039408200A
:100760000490059406940794002201A9054800F01E
:100770004BFF042201A9034800F046FF0DB030BD35
:10078000000C0040CC02002010B50121034800F00D
:1007900057F908B1002010BD012010BD0010024023
:1007A00010B50221034800F04BF908B1002010BD3C
:1007B000012010BD0010024010B50421034800F0D4
:1007C0003FF908B1002010BD012010BD001002400B
:1007D00010B50821034800F033F908B1002010BD1E
:1007E000012010BD0010024010B51021034800F098
:1007F00027F908B1002010BD012010BD00100240F3
:1008000090F83510022903D08021416501207047FE
:10081000052180F835100068016821F001010160B0
:10082000002070472DE9F84F0022DFF80082DFF842
:100830000092DFF800A24FF0030E0F27012303FA06
:1008400002F50B682B40AB427DD1D1F804C0BCF15E
:10085000020F02D0BCF1120F12D14FEAD20C00EB02
:100860008C0CDCF820605407E40E07FA04FB26EA3F
:100870000B06D1F810B00BFA04F43443CCF8204046
:1008800006684FEA420C0EFA0CF4A64391F804B045
:100890000BF0030B0BFA0CFB4BEA060606604E68E6
:1008A000012E05D0022E03D0112E01D0122E11D10F
:1008B0008668A643D1F80CB00BFA0CFB4BEA06068F
:1008C0008660466826EA05050E79C6F3001696404E
:1008D00035434560C56825EA04048D6805FA0CFCBB
:1008E0004CEA040CC0F80CC0D1F804C01CF0805FC6
:1008F0007DD0D8F800C04CF4804CC8F800C0D8F8BF
:1009000000C00CF4804CCDF800C022F0030C0CF1B8
:10091000804404F59834D4F808C895072D0F07FAD9
:1009200005F62CEA0606A0F1804CBCF5003C64D02C
:10093000A0F1804CBCF5013C62D0A0F1804CBCF52C
:10094000023C60D000E052E0A0F1804CBCF5033CDA
:100950005CD0A0F1804CBCF5043C5AD0A0F1804C96
:10096000BCF5053C58D0A0F1804CBCF5063C56D0F7
:10097000A0F1804CBCF5073C54D04FF0080C0CFAA9
:1009800005FC4CEA060CC4F808C8D9F800C02CEAEB
:10099000030C4C6814F4803F01D04CEA030CC9F8F6
:1009A00000C0254CD4F800C02CEA030C4D6815F4A7
:1009B000003F01D04CEA030CC4F800C0DAF800C0D4
:1009C0002CEA030C4C6814F4801F01D04CEA030C91
:1009D000CAF800C0194CD4F800C02CEA030C4D68CA
:1009E00015F4001F01D04CEA030CC4F800C0521CDF
:1009F000102AFFF423AFBDE8F88F4FF0000CBEE7DC
:100A00004FF0010CBBE74FF0020CB8E74FF0030CBE
:100A1000B5E74FF0040CB2E74FF0050CAFE74FF02D
:100A2000060CACE74FF0070CA9E700004438024081
:100A3000003C0140083C0140043C01400C3C0140AA
:100A40000069084201D001207047002070474269C8
:100A5000514041617047002A01D08161704709040B
:100A60008161704701480068704700003000002035
:100A700002480168491C01607047000030000020F6
:100A800010B50B48016841F400710160016841F440
:100A900080610160016841F480710160032000F011
:100AA00091F8002000F006F800F018F8002010BDC2
:100AB000003C024010B5044607484FF47A720068C3
:100AC000B0FBF2F000F036FC00222146501E00F090
:100AD00045F8002010BD00003400002010B50320B0
:100AE00000F070F8002211466FF00B0000F036F8AD
:100AF000002211466FF00A0000F030F80022114683
:100B00006FF0090000F02AF800221146501F00F093
:100B100025F800221146101F00F020F8002211468F
:100B2000901E00F01BF800221146501E00F016F82F
:100B300000221146052000F011F8BDE81040052004
:100B4000AFF3008000F01F01012202FA01F1400919
:100B5000800000F1E020C0F80011704710B4184B7D
:100B60001B68C3F30223C3F1070CBCF1040F01D9C6
:100B70004FF0040C1C1D072C01D2002300E0DB1EEB
:100B8000012404FA0CFCACF1010C0CEA01019940BF
:100B900004FA03F35B1E1A401143002808DA00F040
:100BA0000F0000F1E020090180F8141D10BC70470F
:100BB00000F1E020090180F8001410BC704700002B
:100BC0000CED00E000F00700064A11684FF6FF0345
:100BD000194041EA002040F0FD7040F08060106054
:100BE000704700000CED00E02DE9F05F04460E4672
:100BF000DFF8D091D9F80000F7B200F00F00B04252
:100C00000AD289F80070D9F8000000F00F00B04255
:100C100002D00120BDE8F09F2078DFF8AC8110F011
:100C2000020F07D0D8F80000A16820F0F0000843B8
:100C3000C8F80000207810F0010F51D060686349B7
:100C4000012808D002280DD003280BD0096811F024
:100C5000020F2ED00AE0096811F4003F06D10120EE
:100C6000BDE8F09F096811F0007F1FD0D8F8001090
:100C700021F003010843C8F80000FFF7F3FE054622
:100C8000606841F2883A012816D0022829D003284A
:100C90003CD0D8F8000010F00C0F51D0FFF7E2FE66
:100CA000401B504547D90320BDE8F09F0120BDE817
:100CB000F09F0120BDE8F09FD8F8000000F00C0084
:100CC00004283DD0FFF7CEFE401B504502D903203B
:100CD000BDE8F09FD8F8000000F00C000428F1D126
:100CE0002EE0D8F8000000F00C00082828D0FFF70C
:100CF000B9FE401B504502D90320BDE8F09FD8F84B
:100D0000000000F00C000828F1D119E0D8F800002C
:100D10004FF00C0B3BEA000012D0FFF7A3FE401B84
:100D2000504502D90320BDE8F09FD8F800003BEA07
:100D30000000F2D104E0D8F8000010F00C0FADD1A3
:100D4000D9F8000000F00F00B0420AD989F800700D
:100D5000D9F8000000F00F00B04202D00120BDE839
:100D6000F09F207810F0040F07D0D8F80000E16859
:100D700020F4E0500843C8F80000207810F0080F75
:100D800008D0D8F80000216920F4604040EAC10092
:100D9000C8F8000000F058F8D8F80010F02292FAD5
:100DA000A2F201F0F001B2FA82F2D140084A515C9D
:100DB000C840084908600020FFF77CFE0020BDE81D
:100DC000F09F0000003C024008380240003802401A
:100DD000603200083400002001490120C8647047D7
:100DE00000004742014800687047000034000020BE
:100DF00000B5FFF7F7FF074909684FF4E05292FA90
:100E0000A2F201F4E051B2FA82F2D140024A515CFE
:100E1000C84000BD083802407032000800B5FFF736
:100E2000E1FF074909684FF4604292FAA2F201F427
:100E30006041B2FA82F2D140024A515CC84000BD22
:100E4000083802407032000810B41F48006810F0E3
:100E50000C011E481BD04FEA600C042916D008294B
:100E600015D11B4A116801F03F01136813F4800F7C
:100E700047F6C0730DD0BCFBF1F01168194093FA2E
:100E8000A3F3B3FA83F3D94048430CE0604610BCA7
:100E90007047B0FBF1F01168194093FAA3F3B3FA6D
:100EA00083F3D940484311684FF4403292FAA2F2DA
:100EB00001F44031B2FA82F2D140491C4900B0FB42
:100EC000F1F010BC70470000083802400024F40024
:100ED000043802402DE9F84F0446DFF81C842078DE
:100EE000A8F1040710F0010FA7F1040560D0D8F8AD
:100EF000000000F00C00042809D0D8F8000000F031
:100F00000C0008280DD1386810F4800F09D028682B
:100F100010F4003F4CD06068002849D10120BDE8A2
:100F2000F88F6068B0F5803F14D0B0F5A02F16D0D0
:100F3000286820F480302860286820F48020286009
:100F4000606810B3FFF78EFD0646286810F4003F76
:100F50000ED02DE0286840F480302860F0E7286843
:100F600040F480202860286840F480302860E7E75B
:100F7000FFF778FD801B642802D90320BDE8F88FB5
:100F8000286810F4003FF3D012E0FFF76BFD06462F
:100F9000286810F4003F0BD0FFF764FD801B642825
:100FA00002D90320BDE8F88F286810F4003FF3D180
:100FB0002078DFF8489310F0020F4FF0000663D05E
:100FC000D8F800004FF0F80B10F00C0F16D0D8F83E
:100FD000000000F00C00082803D1386810F4800FDE
:100FE0000CD0E068C8B30120C9F80000FFF73AFD53
:100FF0008246286810F0020F16D022E0286810F010
:10100000020F05D0E068012802D00120BDE8F88F6A
:1010100028689BFAABF22169B2FA82F220F0F8005C
:101020009140084328602FE0FFF71CFDA0EB0A0069
:10103000022802D90320BDE8F88F286810F0020FBB
:10104000F2D028689BFAABF22169B2FA82F220F062
:10105000F80091400843286016E0FFE7C9F80060F7
:10106000FFF700FD8246286810F0020F0CD0FFF752
:10107000F9FCA0EB0A00022802D90320BDE8F88F92
:10108000286810F0020FF2D1207810F0080F34D049
:101090009B48DFF870B26169C1B101210160FFF7BF
:1010A000E1FC8246DBF8000010F0020F25D1FFF7CB
:1010B000D9FCA0EB0A00022802D90320BDE8F88F72
:1010C000DBF8000010F0020FF1D016E00660FFF729
:1010D000C9FC8246DBF8000010F0020F0DD0FFF7CC
:1010E000C1FCA0EB0A00022802D90320BDE8F88F5A
:1010F000DBF8000010F0020FF1D1207810F0040F9F
:1011000043D08148016841F080510160006800F0DF
:1011100080500090DFF8F4B1DBF8000040F48070FC
:10112000CBF80000FFF79EFC8246DBF8000010F4CD
:10113000807F0DD1FFF796FCA0EB0A00022802D9B0
:101140000320BDE8F88FDBF8000010F4807FF1D0B9
:10115000A068DFF8BCB1012818D005281DD0DBF845
:10116000000020F00100CBF80000DBF8000020F0C8
:101170000400CBF80000A06868B3FFF773FC824658
:10118000DBF8000010F0020F14D03CE0DBF80000A8
:1011900040F00100CBF80000EDE7DBF8000040F084
:1011A0000400CBF80000DBF8000040F00100CBF8B1
:1011B0000000E0E7FFF756FCA0EB0A0141F288309F
:1011C000814202D90320BDE8F88FDBF8000010F05F
:1011D000020FEFD017E0FFF745FC8246DBF8000076
:1011E00010F0020F0FD0FFF73DFCA0EB0A0141F217
:1011F0008830814202D90320BDE8F88FDBF8000077
:1012000010F0020FEFD1A069F0B3D8F8001001F090
:101210000C0108296CD0022810D0C9F86060FFF7D3
:1012200021FC0446286810F0007F5ED0FFF71AFC0E
:10123000001B022855D90320BDE8F88FC9F860606B
:10124000FFF710FC0646286810F0007F0BD0FFF770
:1012500009FC801B022802D90320BDE8F88F28680A
:1012600010F0007FF3D1216AE0694FF0FF3340EACC
:10127000010247F6C07191FAA1F1606AB1FA81F1F9
:1012800000FA01F1A06A00E02FE003EB50004FF4F8
:10129000403393FAA3F3B3FA83F39840084310431F
:1012A0004FF0706292FAA2F2E16AB2FA82F29140D1
:1012B000084338600120C9F86000FFF7D3FB0446FB
:1012C000286810F0007F10D1FFF7CCFB001B02282C
:1012D00002D90320BDE8F88F286810F0007FF3D012
:1012E00003E0286810F0007FA0D10020BDE8F88F4F
:1012F0000120BDE8F88F0000083802400000474296
:10130000800E47427438024040380240007000406E
:10131000703802404FF0E021042804D0086920F022
:10132000040008617047086940F0040008617047D4
:1013300070470000401EB0F1807F01D3012070474C
:101340004FF0E0214861044AF020107000208861CD
:10135000072008610020704723ED00E010B5FFF77B
:10136000E7FF10BD70477047022180F8391001680F
:101370000A6842F001020A60012180F83910002059
:10138000704770B5044694F83800012818D001253C
:1013900084F83850022084F839002068826822F0EE
:1013A000770222F47F428260086850283AD00EDC2F
:1013B00020285FD006DC002852D0102863D154E0EA
:1013C000022070BD30285AD040285CD13EE0602811
:1013D00032D070280CD0B0F5805F03D0B0F5005F3C
:1013E00051D113E02068816821F0070181604AE053
:1013F000CB684A688968206800F0D2FD206881685F
:1014000021F0770141F0770181603CE0CB684A68C8
:101410008968206800F0C4FD2068816841F480413B
:10142000816030E0CA684968206800F09CFE502165
:10143000206800F0C0FD26E0CA684968206800F016
:10144000A5FE6021206800F0B6FD1CE0CA6849686E
:10145000206800F088FE4021206800F0ACFD12E01A
:101460000021206800F0A7FD0DE01021206800F0A9
:10147000A2FD08E02021206800F09DFD03E030215E
:10148000206800F098FD84F83950002084F8380076
:1014900070BD704770B50446206801694FF00005C3
:1014A00011F0020F17D0C16811F0020F13D0E91E1E
:1014B0000161012020762068806910F0030F03D0BD
:1014C0002046FFF7E6FF05E0204600F0C9F8204679
:1014D00000F01AF925762068016911F0040F18D080
:1014E000C16811F0040F14D06FF0040101610220F3
:1014F00020762068806910F4407F03D02046FFF7F3
:10150000C8FF05E0204600F0ABF8204600F0FCF8EC
:1015100025762068016911F0080F18D0C16811F014
:10152000080F14D06FF008010161042020762068B4
:10153000C06910F0030F03D02046FFF7AAFF05E0B3
:10154000204600F08DF8204600F0DEF82576206871
:10155000016911F0100F18D0C16811F0100F14D0EC
:101560006FF010010161082020762068C06910F436
:10157000407F03D02046FFF78CFF05E0204600F0B7
:101580006FF8204600F0C0F825762068016911F058
:10159000010F09D0C16811F0010F05D06FF00101F2
:1015A0000161204600F0B2F82068016911F0800F57
:1015B00009D0C16811F0800F05D06FF08001016182
:1015C0002046FFF7CFFE2068016911F0400F09D0D7
:1015D000C16811F0400F05D06FF040010161204655
:1015E00000F0AEF82068016911F0200F0BD0C1683F
:1015F00011F0200F07D06FF0200101612046BDE8F7
:101600007040FFF7B0BE70BD70B5044694F8380066
:1016100001280DD0012584F83850022084F83900C3
:1016200042B1042A0AD0082A0CD00C2A11D10DE0AC
:10163000022070BD206800F0C6FC0AE0206800F0BF
:10164000F6FC06E0206800F02AFD02E0206800F0C9
:101650005EFD84F83950002084F8380070BD000029
:1016600006484188B1F5004F03D04FF6FF71418025
:1016700070474FF400414180704700000000002097
:1016800070B504460D46002C03D094F8390010B113
:1016900007E0012070BD002084F83800204600F0EB
:1016A00015F8022084F83900211D206800F014FC90
:1016B0002068016821F00801016020680168294361
:1016C0000160012084F83900002070BD08B5006871
:1016D000A0F18041B1F5406112D10A48016841F0A2
:1016E00008010160006800F0080000900022114627
:1016F0003220FFF733FABDE808403220FFF722BA64
:1017000008BD0000403802407047000010B50A4C88
:1017100061880A48B1F5004F06D000222021FFF76A
:101720009AF90220608010BD01222021FFF793F971
:101730004FF40040608010BD000000200010024007
:101740007047704710B5044622681068D168526926
:1017500000F00F03002B0AD110F0200F07D011F07A
:10176000200F04D02046BDE8104000F044BD002BFF
:101770006BD002F0010301F4907C53EA0C0364D0B7
:1017800010F0010F06D011F4807F03D0E36B43F01B
:101790000103E36310F0040F06D012F0010F03D031
:1017A000E36B43F00203E36310F0020F06D012F084
:1017B000010F03D0E36B43F00403E36310F0080F61
:1017C00006D012F0010F03D0E26B42F00802E26390
:1017D000E26B002A2ED010F0200F05D011F0200F60
:1017E00002D0204600F007FD20684069C0F3801059
:1017F000E16B11F0080F00D108B3204600F0E0FCC7
:101800002068416911F0400F15D0416921F0400175
:101810004161606B58B118490165606BFEF7F0FFDC
:10182000002807D0606B016DBDE8104008472046D6
:10183000FFF787FF10BD2046FFF783FF10BD20464E
:10184000FFF77FFF0020E06310BD10F0800F07D08E
:1018500011F0800F04D02046BDE8104000F0B6BE65
:1018600010F0400FF0D011F0400FEDD02046BDE851
:10187000104000F0B3BC0000B121000870B5044670
:10188000002C04D094F83900002510B106E00120A6
:1018900070BD84F83850204600F022F8242084F8E7
:1018A00039002068C16821F40051C160204600F071
:1018B000EBFC2068016921F49041016120684169D5
:1018C00021F02A0141612068C16841F40051C160E2
:1018D000E563202084F8390084F83A00002070BDC8
:1018E00000B587B00068A0F18041B1F5883116D10C
:1018F0000C48016841F010010160006800F0100020
:101900000190C02002900220039001200490032047
:1019100005900720069002A90348FEF783FF07B051
:1019200000BD0000443802400004024090F83A3004
:10193000202B01D002207047D1B1CAB190F83830C5
:10194000012B17D081628285C2850021C1632222CA
:1019500080F83A2080F8381001684A6942F00102A4
:101960004A610068C16841F49071C160002070470D
:10197000012070470220704770B5174988422AD16C
:10198000164D6888164C002620B1A0F57F40FF3820
:101990000FD106E00120688026801248FFF7E4FCA2
:1019A00007E04FF400711048FFF751F84FF4004082
:1019B00068800E4800780E49228888542088401C90
:1019C0002080084800684662BDE87040012207494F
:1019D0000148FFF7ABBF70BD0803002000000020E6
:1019E00038000020CC020020001C02403A000020F9
:1019F000CC0000202DE9F84304460D4691461E46D2
:101A000094F83900202802D00220BDE8F8834DB3B5
:101A1000B9F1000F26D094F83800012825D0012014
:101A200084F838000027E763212084F83900FFF7A5
:101A300019F88046A4F82490A4F82690E08CA0B36E
:101A4000E08C401EE084A068B0F5805F10D0434673
:101A5000002280212046009600F008FEF0B103200D
:101A6000BDE8F8830120BDE8F8830220BDE8F883D3
:101A70004346002280212046009600F0F7FD10B179
:101A80000320BDE8F88328882168C0F30800486077
:101A9000206908B16D1C05E0AD1C03E0216815F854
:101AA000010B4860E08C0028CAD143460022402147
:101AB0002046009600F0DAFD10B10320BDE8F8835F
:101AC000202084F8390084F838700020BDE8F883BD
:101AD0007047FEE7016000210171022242718271AC
:101AE000C171704711F0010F01D00021017100791F
:101AF000704770B504460025607901281DD0022882
:101B000011D00125022603281FD004280AD1E0792C
:101B10000A30C0B2E0710A2804D32068804750B16F
:101B2000A571657170BD206880470028FAD0E57105
:101B30000420607170BD667170BD20688047002808
:101B4000FAD1E5710320607170BDE0790A30C0B24E
:101B5000E0710A28F8D32068804708B1657170BD2C
:101B6000A57166712079401CC0B22071FA28F6D99F
:101B7000FA20207170BD0000F0B587B023480168DD
:101B800041F080010160016801F08001019101686C
:101B900041F010010160016801F01001019101683C
:101BA00041F010010160006800F010000190184F32
:101BB00000224FF400713846FEF74DFF154E00220B
:101BC00020213046FEF747FF002240213046FEF735
:101BD00042FF70150290012403940225059502A985
:101BE0003846FEF71FFE202102910394059502A9B5
:101BF0003046FEF717FE402002900394059502A997
:101C00003046FEF70FFE07B0F0BD0000303802404E
:101C1000001C02400010024030B4FF239C464A1EC4
:101C2000D2B20ED3094C04F5807510F8011B81EA7D
:101C30000C0114F801C08CEA030C6B5C521ED2B28A
:101C4000F3D230BC4CEA0320704700007832000821
:101C500010B50B4C207003206070080AA070E17072
:101C6000100A2071062162712046FFF7D5FFA0718E
:101C7000000A0821E0712046BDE8104000F0DABCFF
:101C8000CC01002082B000210C48026842F0020220
:101C90000260006800F0020001900A48084A0260F1
:101CA0004FF4E13242608160C16001610C22426107
:101CB0008161C16102B0FFF7E1BD00003038024030
:101CC000001001408C000020FEE77047704770470D
:101CD000F0B587B000262048016841F480210160FA
:101CE000006800F4802001901C48016841F0020166
:101CF0000160016801F002010191016841F0800179
:101D00000160006800F0800001904FF48060029054
:101D100002240394059407250695114F02A938461D
:101D2000FEF780FDA102029103940496069502A994
:101D30003846FEF777FD0B4D0022E1012846FEF7FD
:101D40008AFEE101029101210391059402A928462E
:101D5000FEF768FD07B0F0BD403802403038024061
:101D600000040240001C024010B5FFF7B1FF134809
:101D7000114901604FF41651416000218160C1603A
:101D800001610C2242618161C161FFF777FD01228F
:101D900011462720FEF7E2FE2720FEF7D3FE0022A1
:101DA0004FF480710648FEF756FEBDE81040012250
:101DB00004490248FFF7BABD00480040080300206C
:101DC000001C02403A000020704710B5FEF750FE9C
:101DD000BDE81040FFF7C2BA30B593B000252348E4
:101DE000016841F080510160006800F0805000906F
:101DF0001F48016841F480410160006800F48040A0
:101E00000090012006900004079002240C948001A9
:101E10000D9008200E904FF4A8700F90109407209A
:101E2000119006A8FFF756F80F2001900294039531
:101E30004FF4A0500490E0020590052101A8FEF7A0
:101E4000D3FEFEF7C9FFFEF7CDFF4FF47A71B0FB6A
:101E5000F1F0FFF76FFA0420FFF75CFA0022114659
:101E6000501EFEF77BFE13B030BD0000403802402C
:101E7000007000400F48016841F4700101600E4895
:101E8000016841F0010101600C4A00211160026803
:101E900022F4102222F080720260031D084A1A60A8
:101EA000026822F480220260064801600649580652
:101EB0000860704788ED00E00038024008380240B2
:101EC000103000240C38024008ED00E00148FFF714
:101ED000E1BA0000CC020020F0B402682B4BDFF81E
:101EE000B0C02C4D2C4E2D4C98420AD0B0F1804FF2
:101EF00007D0604505D0A84203D0B04201D0A0422F
:101F000003D122F070024F683A43984228D0B0F1D2
:101F1000804F25D0604523D0A84221D0B0421FD0A9
:101F2000A0421DD0A0F1804CBCF5A03C18D0A0F17F
:101F3000804CBCF5A23C13D0A0F1804CBCF5A43C75
:101F40000ED0A0F1804CBCF5C05C09D0A0F1804C53
:101F5000BCF5E05C04D0A0F1804CBCF5005C05D180
:101F600022F44072D1F80CC04CEA020202608A6886
:101F7000C2620A688262984201D0A04201D1096916
:101F8000016301214161F0BC704700000000014085
:101F90000004004000080040000C00400004014024
:101FA000D0F808C02CF47F4C42EA0322114341EAE6
:101FB0000C0181607047826822F07002114341F089
:101FC00007018160704710B4026A22F001020262C8
:101FD000036A4268D0F818C02CF0700C2CF0030C87
:101FE0000C6844EA0C0C23F002038C682343A0F134
:101FF0008044B4F5803404D0A0F18044B4F5823438
:102000000DD123F00803CC68234323F0040322F40A
:10201000807222F400724C6922438C692243426030
:10202000C0F818C049684163036210BC704710B41F
:10203000026A22F010020262036A4268D0F818C0F5
:102040002CF4E04C2CF4407C0C684CEA042C23F07B
:1020500020038C6843EA0413A0F18044B4F5803473
:1020600004D0A0F18044B4F5823410D123F0800371
:10207000CC6843EA041323F0400322F4806222F484
:1020800000624C6942EA84028C6942EA840242603E
:10209000C0F818C049688163036210BC704710B46F
:1020A000026A22F480720262036A4268D0F81CC09D
:1020B0002CF0700C2CF0030C0C6844EA0C0C23F48C
:1020C00000738C6843EA0423A0F18044B4F58034A3
:1020D00004D0A0F18044B4F5823410D123F400631D
:1020E000CC6843EA042323F4806322F4805222F470
:1020F00000524C6942EA04128C6942EA04124260BE
:10210000C0F81CC04968C163036210BC704710B4BA
:10211000026A22F480520262D0F820C04268C36989
:1021200023F4E04323F440730C6843EA04232CF4C3
:10213000005C8C684CEA043CA0F18044B4F5803427
:1021400004D0A0F18044B4F5823404D122F480425A
:102150004C6942EA84124260C36149680164C0F874
:1021600020C010BC7047036AD0F820C02CF0010CCE
:10217000C0F820C0D0F818C02CF0F00C4CEA0212C5
:1021800023F00A031943826101627047036A23F056
:1021900010030362D0F818C0036A2CF4704C4CEAA8
:1021A000023223F0A00343EA011182610162704709
:1021B00010B5806B0021C185C184FFF7C2FA10BD44
:1021C0000168CA6822F49072CA6001684A6922F004
:1021D00001024A61202180F83A10704710B5016869
:1021E000CA6822F04002CA60202180F83910FFF747
:1021F0006FFC002010BD10B590F83A10222901D0D4
:10220000022010BD8168B1F5805F11D0016919B35A
:102210000168496801F07F02816A4B1C83620A7081
:10222000C18D491E0904090CC1851CD0002010BDB8
:10223000816A02693AB102685268D2B20A80816A40
:10224000491C8162ECE702685268C2F308020A8006
:10225000816A891C8162E3E701684A68816A4B1CD4
:1022600083620A70DCE70168CA6822F49072CA606F
:1022700001684A6922F001024A61202180F83A107F
:10228000FFF77AFB002010BD2DE9F04104462068DD
:10229000016921F44051E268114301612068C1687D
:1022A00021F4037121F414412369A268D4F81CC0FD
:1022B0001A43636943EA0C031A431143C16020685F
:1022C000416921F44071A26911434161E069BC4A4E
:1022D000BC49BD4D3226B0F5004F5ED02068884223
:1022E00002D0904240F01281FEF798FD00EBC00151
:1022F00001EB001061688900B0FBF1F7FEF78EFD7D
:1023000000EBC00101EB001061688900B0FBF1F047
:10231000A5FB001040096FF01801484307EB80004F
:1023200006EB0010A5FB0010400900F0F007FEF7D7
:1023300075FD00EBC00101EB001061688900B0FB86
:10234000F1F0A5FB0010400907EB0017FEF766FD52
:1023500000EBC00101EB001061688900B0FBF1F8EF
:10236000FEF75CFD00EBC00101EB00106168890025
:10237000B0FBF1F0A5FB001040096FF018014843D5
:1023800008EB800006EB0010A5FB00102168C0F3ED
:10239000431038448860BDE8F0812068884201D04D
:1023A000904259D1FEF73AFD00EBC00101EB00105D
:1023B00061684900B0FBF1F0A5FB0010400907017E
:1023C000FEF72CFD00EBC00101EB00106168490035
:1023D000B0FBF1F8FEF722FD00EBC00101EB0010AD
:1023E00061684900B0FBF1F0A5FB001040096FF0F7
:1023F0001801484308EB800006EBC000A5FB001065
:10240000400900F0F80007EB4007FEF707FD00EB7E
:10241000C00101EB001061684900B0FBF1F8FEF764
:10242000FDFC00EBC00101EB001061684900B0FB4E
:10243000F1F0A5FB001040096FF01801484308EBCC
:10244000800006EBC000A5FB00102168C0F342101D
:1024500038448860BDE8F081FEF7CAFC00EBC0019B
:1024600001EB001061684900B0FBF1F0A5FB001022
:1024700040090701FEF7BCFC00EBC00101EB0010B6
:1024800061684900B0FBF1F8FEF7B2FC00EBC00157
:1024900001EB001061684900B0FBF1F0A5FB0010F2
:1024A00040096FF01801484308EB800006EBC000BC
:1024B000A5FB0010400900F0F80007EB4007FEF70D
:1024C00097FC00EBC00101EB001061684900B0FB14
:1024D000F1F8FEF78DFC00EBC00101EB0010616824
:1024E0004900B0FBF1F0A5FB001040096FF01801A6
:1024F000484308EB800006EBC000A5FB00102168F4
:10250000C0F3421038448860BDE8F081FEF770FCEB
:1025100000EBC00101EB001061688900B0FBF1F72E
:10252000FEF766FC00EBC00101EB0010616889005A
:10253000B0FBF1F0A5FB001040096FF01801484313
:1025400007EB800006EB0010A5FB0010400900F02F
:10255000F007FEF74DFC00EBC00101EB00106168D5
:102560008900B0FBF1F0A5FB0010400907EB001754
:10257000FEF73EFC00EBC00101EB00106168890032
:10258000B0FBF1F8FEF734FC00EBC00101EB0010EA
:1025900061688900B0FBF1F0A5FB001040096FF005
:1025A0001801484308EB800006EB0010A5FB001063
:1025B0002168C0F3431038448860BDE8F081000012
:1025C00000140140001001401F85EB5190F83910B4
:1025D000212901D0022070478168B1F5805F0CD0BD
:1025E000016A4A1C0262026809785160C18C491E66
:1025F0000904090CC18410D019E0016A0268098835
:10260000C1F308015160016919B1016A491C0162F5
:10261000ECE7016A891C0162E8E70168CA6822F0F8
:102620008002CA600068C16841F04001C1600020BA
:102630007047000070B505460E460A4C0122110293
:102640002046FEF708FA4FF6FF7332462946064841
:10265000FFF7D0F90022A1152046BDE87040FEF733
:10266000FAB90000001C0240080300202DE9F041E7
:102670000446069D884617461E462068006838EACC
:10268000000020D00020B84227D1B5F1FF3F1CD078
:1026900025B1FEF7E7F9801BA84216D92068C1686A
:1026A00021F4D071C1602068416921F001014161CC
:1026B000202084F8390084F83A00002084F838009B
:1026C0000320BDE8F0810120DDE72068006838EADA
:1026D000000005D00020B842D7D00020BDE8F0812E
:1026E0000120F8E70148FFF72DB80000080300209B
:1026F000FEE700000FB4054B10B503A9044A029889
:1027000000F0DAF810BC5DF814FB0000E92F0008B7
:102710003C00002002E008C8121F08C1002AFAD1BC
:1027200070477047002001E001C1121F002AFBD151
:10273000704700002DE9FF5F82B00021DDE9043021
:10274000020DDDF840B0034318D044F61050A2F259
:10275000FF3242431514119801281FD0A5EB0B003E
:10276000401C5FEA000A4FF000064E4FDFF8389138
:10277000B046504615D5CAF1000413E01198012463
:102780004AA3012801D16FEA0B010298119AC0E90E
:102790000031C0E9024206B0BDE8F09FCBF1000075
:1027A000DFE704460021404A491842EB0450CDE9D6
:1027B000001012E0E00707D032463B46404649464B
:1027C000FDF7FFFD8046894632463B4610461946D6
:1027D000FDF7F7FD06460F466410002CEAD1DDE94F
:1027E0000401DDE90023BAF1000F06DAFDF7E9FD87
:1027F00042464B46FDF7E5FD05E0FDF754FE424637
:102800004B46FDF750FE04460E460022284BFDF7CE
:10281000D1FE03D84FF0FF30014607E00022254BE0
:1028200020463146FDF726FDFDF7ACFE102409E0F9
:10283000002C0ADB0A220023FDF7EBFC039B30325D
:102840001A55641E50EA0102F2D1641C039AC4F1C5
:1028500011031444119A012A03D0012208430DD117
:102860000AE0084304D000204FF0110B119072E7EA
:10287000A3EB0B056D1E0DE05B4504DD4FF0000280
:1028800005F1010504E003DA4FF00002A5F10105AE
:10289000002AECD002981199C0E90231C0E9004544
:1028A00079E70000000014400000F03F3000000015
:1028B0000000F0430000E03F2DE9FF4F95B09B463C
:1028C0008946064600250FE2252877D100242746B1
:1028D000F84A0121059400E0044316F8013F203B2B
:1028E00001FA03F01042F7D130782A2811D06FF0A6
:1028F0002F033078A0F13002092A16D8059A44F047
:10290000020402EB820203EB42021044761C0590A3
:10291000EFE759F8042B0592002A03DA504244F4F9
:102920000054059044F00204761C30782E2816D10D
:1029300016F8010F44F004042A280DD06FF02F027E
:102940003078A0F13003092B09D807EB870302EB9D
:102950004303C718761CF3E759F8047B761C3078DC
:102960006C280FD006DC4C2817D068280DD06A28B8
:1029700014D104E0742810D07A280FD10DE044F46B
:1029800000140AE044F4801401E044F44014727826
:10299000824202D104F58014761C761C30786628B9
:1029A0000BD013DC582877D009DC002875D04528D7
:1029B000F6D04628F4D047281AD19DE118E06328C4
:1029C00035D0642879D0652812D195E1702873D06C
:1029D00008DC6728F1D069286FD06E280DD06F28E9
:1029E00006D1B5E073282CD0752875D0782874D01E
:1029F0005A46179990476D1C75E1C4F3025002289E
:102A000009D003280DD0D9F8001004280DD00D608E
:102A100009F1040967E1D9F80010EA17C1E9005289
:102A2000F6E7D9F800100D80F2E70D70F0E719F81D
:102A3000041B8DF8001000208DF80100EA460120EB
:102A400003E059F804AB4FF0FF3061074FF000018D
:102A500002D40DE008F101018846B9420FDA804541
:102A6000F8DB1AF808100029F4D108E008F1010198
:102A700088468142FADB1AF808100029F6D1059839
:102A80005B46A0EB080721463846179A00F094FAF7
:102A9000284400EB080507E04DE029E10DE01AF8B5
:102AA000010B5A4617999047B8F10108F7D25B46D7
:102AB00021463846179A13E142E00A220092C4F3F5
:102AC00002524FF0000A022A08D059F804CB032A18
:102AD0004FEAEC710AD00DE029E02AE009F1070184
:102AE00021F00702F2E802C1914609E00FFA8CFCDE
:102AF0004FEAEC71042A03D14FFA8CFC4FEAEC71D7
:102B0000002907DA0A460021DCF1000C61EB020122
:102B10002D2202E0220504D52B228DF8042001226B
:102B200003E0E20701D02022F7E7904659E00A21AE
:102B300002E010220DE010214FF0000A00910BE09E
:102B400010224FF0000A44F004040827009203E02A
:102B500008224FF0000A0092C4F30252022A05D064
:102B600059F804CB0021032A08D009E009F1070134
:102B700021F00702F2E802C1914605E01FFA8CFC41
:102B8000042A01D10CF0FF0C4FF00008220728D5D1
:102B9000702806D0009B83F0100353EA0A0305D087
:102BA0000EE040228DF80420012208E05CEA0102D8
:102BB00006D030228DF804208DF8050002229046C0
:102BC000009B83F0080353EA0A030AD15CEA01027E
:102BD00001D1620705D530228DF804204FF001089D
:102BE0007F1E582804D034A003900EA802900DE058
:102BF00036A0F9E753466046009AFDF70AFB844683
:102C00000398825C0298401E029002705CEA010008
:102C1000F0D1029806A9081A00F1200A600702D52F
:102C200024F4803400E00127574502DDA7EB0A00B9
:102C300000E0002000EB0A01009005984144401A92
:102C40000590E00306D45B462146179A059800F0EC
:102C5000B3F90544002706E001A85A46C05D17995C
:102C600090476D1C7F1C4745F6DBE0030CD55B46A7
:102C70002146179A059800F09FF9054404E030209A
:102C80005A46179990476D1C0099481E00900029DC
:102C9000F5DC08E0029802995A460078491C029136
:102CA000179990476D1CBAF10001AAF1010AF1DCF5
:102CB00065E1000009280100303132333435363700
:102CC0003839616263646566000000003031323378
:102CD0003435363738394142434445460000000018
:102CE00000F058F90544761C307800287FF4ECADEC
:102CF00019B02846BDE8F08F620700D4062709F115
:102D0000070222F0070CFCE80223E14603F000482A
:102D10005FEA080C02D00FF2702C0DE05FEA045C51
:102D200002D50FF2682C07E05FEAC47C02D00FF2F4
:102D3000602C01E0AFF2700C4FF0FF3823F000433D
:102D4000CDF850C065280CD006DC452809D04628AF
:102D50001DD047283DD13DE0662818D067287ED198
:102D600038E00021112F01DB112000E0781CCDE9B3
:102D7000000106A90EA8FFF7DDFCDDE90F010E9AA0
:102D800003910021009207F1010A04914DE04FF0F8
:102D900000400097CDE9011006A90EA8FFF7CAFC74
:102DA000DDE90F0203920E9B11990022DDF80CA0C1
:102DB0000093049211B9791C00EB010AB7EB0A00E9
:102DC00004D4C0F1FF3007F1010A0490AAEB070018
:102DD000019044E0012F00DA01270021112F01DDCD
:102DE000112000E03846CDE9000106A90EA8FFF742
:102DF000A1FCDDE90F010E9A0391002104910092DC
:102E0000BA4621070CD40399514500DA8A46BAF133
:102E1000010F05DD009AAAF10101515C302908D0AB
:102E2000B84202DA10F1040F06DA0121CDE90110EF
:102E300015E0AAF10101E9E7002805DC0499014445
:102E40000491AAEB000102E0411C514500DD8A46D5
:102E50000499401A401C01904FF000400290200756
:102E600004D40198504501DBCDF8048000208DF892
:102E70004F0002980DF14F07B0F1004F25D02B20E5
:102E80000E9002984FF0020800280CDA404202909F
:102E90002D200E9007E00A210298FDF7A4F93031A9
:102EA000029007F8011DB8F10001A8F10108F2DC59
:102EB00002980028EFD1791E0E980870307800F043
:102EC000200040F0450007F8020D12A8C01B00F1D9
:102ED00007081498007800B1012000EB0A0101985E
:102EE00001EBE07105984144401A401E0590E00353
:102EF00006D45B462146179A059800F05DF8054414
:102F00001498007818B15A46179990476D1CE00341
:102F100024D55B462146179A059800F04DF80544E4
:102F20001CE00498002807DBDDE90301884203DD8B
:102F30000098405C179901E0179930205A46904755
:102F4000049805F10105401C04900198401E019071
:102F500004D12E205A46179990476D1CBAF10001F2
:102F6000AAF1010ADDDC05E017F8010B5A461799B2
:102F700090476D1CB8F10001A8F10108F4DC5B4634
:102F80002146179A0598ABE62D0000002B000000A3
:102F9000200000002DE9F041044600251E4617469A
:102FA000880404D405E039462020B0476D1C641E17
:102FB000F9D52846BDE8F0812DE9F0410446002509
:102FC0001E469046C80301D5302700E0202788041C
:102FD00004D505E041463846B0476D1C641EF9D55E
:102FE0002846BDE8F081000013B54FF6FF730122BB
:102FF00069460348FEF7FEFC009802B010BD0000D1
:103000008C0000202DED028BFDF73AFDFEF7E4FE6B
:10301000FEF738FEFDF788FBFEF7AEFDFEF7A4FED7
:103020005B495C48FEF756FD5B495C48FEF752FD84
:103030005B495C48FEF74EFD5B495C48FEF74AFD84
:103040005B495C48FEF746FD5B490868C26842F090
:103050000202C2600868C26842F00102C2600A68E7
:1030600040F2EE2050630A6840F2D660D062C86039
:10307000524D00266E80DFF848810220A8F8040037
:1030800050A0FFF737FB58A0FFF734FB4FF00109C2
:103090009FED5E8A5E4F5F4CDFF87CA13D48FEF7F6
:1030A00028FD3E48FEF725FD3E48FEF722FD3F483D
:1030B000FEF71FFD3F48FEF71CFD00213548FEF7D7
:1030C00011FD60B16E80B8F8042000211020FEF7D9
:1030D000BFFD85F8009001212E48FEF703FD6888AA
:1030E0000228DBD120781028D8D12878012829D1CE
:1030F0002079E17840EA012000EE100AF8EE400A5B
:1031000080EE880A10EE100AFDF75AF841EC100B19
:1031100042A053EC102BFFF7EDFAA079617940EA59
:10312000012000EE100AB8EE400AC0EE080A10EEC8
:10313000900AFDF745F841EC100B3EA053EC102B24
:10314000FFF7D8FA3888204410F8020C3988214457
:1031500011F8011C40EA0120A8803888801EC1B205
:103160002C48FEF759FDA98888420CD1607810F0F0
:10317000800F0BD04FF400715046FDF768FC32A071
:10318000FFF7B8FA02E033A0FFF7B4FA6E8085E7E4
:103190008907000808000020A1070008100000208F
:1031A000B907000818000020D107000820000020FF
:1031B000E907000828000020CC02002000000020C1
:1031C00040000020202D2D2D2D2D2D2D4D6F6462C2
:1031D0007573CDA8D0C5D0ADD2E9C0FDB3CC2D2D2F
:1031E0002D2D2D2D200A000059732D463450726F5D
:1031F00020204D6F64627573D6F7BBFA20205254BD
:1032000055CDA8D0C5C4A3CABD0A00000000C8425D
:1032100038000020CC000020001C0240BBB7BEB329
:10322000CEC2B6C8A3BA252E316620A3A552480A3D
:1032300000000000CEEFCCE5CEC2B6C8A3BA252E62
:10324000316620A1E60A0000CDA8D0C5B4EDCEF3CA
:103250000A000000D0A3D1E9B4EDCEF30A000000CB
:103260000000000000000000010203040607080936
:10327000000000000102030400C1814001C0804140
:1032800001C0804100C1814001C0804100C1814036
:1032900000C1814001C0804101C0804100C1814026
:1032A00000C1814001C0804100C1814001C0804116
:1032B00001C0804100C1814001C0804100C1814006
:1032C00000C1814001C0804100C1814001C08041F6
:1032D00001C0804100C1814000C1814001C08041E6
:1032E00001C0804100C1814001C0804100C18140D6
:1032F00000C1814001C0804101C0804100C18140C6
:1033000000C1814001C0804100C1814001C08041B5
:1033100001C0804100C1814000C1814001C08041A5
:1033200001C0804100C1814001C0804100C1814095
:1033300000C1814001C0804100C1814001C0804185
:1033400001C0804100C1814001C0804100C1814075
:1033500000C1814001C0804101C0804100C1814065
:1033600000C1814001C0804100C1814001C0804155
:1033700001C0804100C1814000C0C101C30302C23D
:10338000C60607C705C5C404CC0C0DCD0FCFCE0EA5
:103390000ACACB0BC90908C8D81819D91BDBDA1A15
:1033A0001EDEDF1FDD1D1CDC14D4D515D71716D685
:1033B000D21213D311D1D010F03031F133F3F232F5
:1033C00036F6F737F53534F43CFCFD3DFF3F3EFE65
:1033D000FA3A3BFB39F9F83828E8E929EB2B2AEAD5
:1033E000EE2E2FEF2DEDEC2CE42425E527E7E62645
:1033F00022E2E323E12120E0A06061A163A3A262B5
:1034000066A6A767A56564A46CACAD6DAF6F6EAE24
:10341000AA6A6BAB69A9A86878B8B979BB7B7ABA94
:10342000BE7E7FBF7DBDBC7CB47475B577B7B67604
:1034300072B2B373B17170B0509091519353529274
:1034400096565797559594549C5C5D9D5F9F9E5EE4
:103450005A9A9B5B99595898884849894B8B8A4A54
:103460004E8E8F4F8D4D4C8C4484854587474686C4
:10347000824243834181804098340008000000204C
:103480004000000014270008D83400084000002045
:1034900008130000242700080000000000000000BE
:1034A000000000000000000000000000000000001C
:1034B000000000000000000000000000000000000C
:1034C0000000000000000000000000000024F400E4
:0834D0000000000000000000F4
:040000050800018965
:00000001FF
